{
	"contracts/staking.sol": {
		"Stacking": {
			"abi": [
				{
					"inputs": [
						{
							"internalType": "address",
							"name": "m2cAddress",
							"type": "address"
						}
					],
					"stateMutability": "nonpayable",
					"type": "constructor"
				},
				{
					"anonymous": false,
					"inputs": [
						{
							"indexed": true,
							"internalType": "address",
							"name": "account",
							"type": "address"
						},
						{
							"indexed": false,
							"internalType": "uint256",
							"name": "amount",
							"type": "uint256"
						}
					],
					"name": "Stacked",
					"type": "event"
				},
				{
					"anonymous": false,
					"inputs": [
						{
							"indexed": true,
							"internalType": "uint256",
							"name": "index",
							"type": "uint256"
						},
						{
							"indexed": true,
							"internalType": "address",
							"name": "account",
							"type": "address"
						},
						{
							"indexed": false,
							"internalType": "uint256",
							"name": "amount",
							"type": "uint256"
						}
					],
					"name": "UnStackCompleted",
					"type": "event"
				},
				{
					"anonymous": false,
					"inputs": [
						{
							"indexed": true,
							"internalType": "uint256",
							"name": "index",
							"type": "uint256"
						},
						{
							"indexed": true,
							"internalType": "address",
							"name": "account",
							"type": "address"
						},
						{
							"indexed": false,
							"internalType": "uint256",
							"name": "amount",
							"type": "uint256"
						},
						{
							"indexed": false,
							"internalType": "uint256",
							"name": "timestamp",
							"type": "uint256"
						}
					],
					"name": "UnStackRequestCreated",
					"type": "event"
				},
				{
					"inputs": [
						{
							"internalType": "uint256",
							"name": "index",
							"type": "uint256"
						}
					],
					"name": "getPendingUnstackOf",
					"outputs": [
						{
							"components": [
								{
									"internalType": "uint256",
									"name": "amount",
									"type": "uint256"
								},
								{
									"internalType": "uint256",
									"name": "startAt",
									"type": "uint256"
								},
								{
									"internalType": "address",
									"name": "recipient",
									"type": "address"
								},
								{
									"internalType": "bool",
									"name": "completed",
									"type": "bool"
								}
							],
							"internalType": "struct Stacking.UnStackInfo",
							"name": "",
							"type": "tuple"
						}
					],
					"stateMutability": "view",
					"type": "function"
				},
				{
					"inputs": [
						{
							"internalType": "address",
							"name": "memberAddress",
							"type": "address"
						}
					],
					"name": "getStackOf",
					"outputs": [
						{
							"internalType": "uint256",
							"name": "",
							"type": "uint256"
						}
					],
					"stateMutability": "view",
					"type": "function"
				},
				{
					"inputs": [],
					"name": "pendingUnstackCounter",
					"outputs": [
						{
							"internalType": "uint256",
							"name": "_value",
							"type": "uint256"
						}
					],
					"stateMutability": "view",
					"type": "function"
				},
				{
					"inputs": [
						{
							"internalType": "uint256",
							"name": "amount",
							"type": "uint256"
						}
					],
					"name": "stacking",
					"outputs": [],
					"stateMutability": "nonpayable",
					"type": "function"
				},
				{
					"inputs": [],
					"name": "totalStack",
					"outputs": [
						{
							"internalType": "uint256",
							"name": "",
							"type": "uint256"
						}
					],
					"stateMutability": "view",
					"type": "function"
				},
				{
					"inputs": [
						{
							"internalType": "uint256",
							"name": "index",
							"type": "uint256"
						}
					],
					"name": "unStackComplete",
					"outputs": [],
					"stateMutability": "nonpayable",
					"type": "function"
				},
				{
					"inputs": [
						{
							"internalType": "uint256",
							"name": "amount",
							"type": "uint256"
						}
					],
					"name": "unStackRequest",
					"outputs": [],
					"stateMutability": "nonpayable",
					"type": "function"
				}
			],
			"devdoc": {
				"kind": "dev",
				"methods": {},
				"version": 1
			},
			"evm": {
				"assembly": "    /* \"contracts/staking.sol\":397:4111  contract Stacking {... */\n  mstore(0x40, 0x80)\n    /* \"contracts/staking.sol\":1270:1441  constructor(address m2cAddress) {... */\n  callvalue\n  dup1\n  iszero\n  tag_1\n  jumpi\n  revert(0x00, 0x00)\ntag_1:\n  pop\n  mload(0x40)\n  sub(codesize, bytecodeSize)\n  dup1\n  bytecodeSize\n  dup4\n  codecopy\n  dup2\n  add\n  0x40\n  dup2\n  swap1\n  mstore\n  tag_2\n  swap2\n  tag_3\n  jump\t// in\ntag_2:\n    /* \"contracts/staking.sol\":1313:1324  _daoAddress */\n  0x05\n    /* \"contracts/staking.sol\":1313:1337  _daoAddress = msg.sender */\n  dup1\n  sload\n    /* \"contracts/staking.sol\":1327:1337  msg.sender */\n  caller\n  not(sub(shl(0xa0, 0x01), 0x01))\n    /* \"contracts/staking.sol\":1313:1337  _daoAddress = msg.sender */\n  swap2\n  dup3\n  and\n  dup2\n  or\n  swap1\n  swap3\n  sstore\n    /* \"contracts/staking.sol\":1348:1359  _m2cAddress */\n  0x06\n    /* \"contracts/staking.sol\":1348:1372  _m2cAddress = m2cAddress */\n  dup1\n  sload\n  dup3\n  and\n  sub(shl(0xa0, 0x01), 0x01)\n  swap5\n  swap1\n  swap5\n  and\n  swap4\n  swap1\n  swap4\n  or\n  swap1\n  swap3\n  sstore\n  0x00\n    /* \"contracts/staking.sol\":1393:1433  daoInterface = DaoInterface(_daoAddress) */\n  dup1\n  sload\n  swap1\n  swap3\n  and\n  or\n  swap1\n  sstore\n    /* \"contracts/staking.sol\":397:4111  contract Stacking {... */\n  jump(tag_7)\n    /* \"#utility.yul\":14:304   */\ntag_3:\n    /* \"#utility.yul\":84:90   */\n  0x00\n    /* \"#utility.yul\":137:139   */\n  0x20\n    /* \"#utility.yul\":125:134   */\n  dup3\n    /* \"#utility.yul\":116:123   */\n  dup5\n    /* \"#utility.yul\":112:135   */\n  sub\n    /* \"#utility.yul\":108:140   */\n  slt\n    /* \"#utility.yul\":105:157   */\n  iszero\n  tag_9\n  jumpi\n    /* \"#utility.yul\":153:154   */\n  0x00\n    /* \"#utility.yul\":150:151   */\n  0x00\n    /* \"#utility.yul\":143:155   */\n  revert\n    /* \"#utility.yul\":105:157   */\ntag_9:\n    /* \"#utility.yul\":179:195   */\n  dup2\n  mload\n  sub(shl(0xa0, 0x01), 0x01)\n    /* \"#utility.yul\":224:255   */\n  dup2\n  and\n    /* \"#utility.yul\":214:256   */\n  dup2\n  eq\n    /* \"#utility.yul\":204:274   */\n  tag_10\n  jumpi\n    /* \"#utility.yul\":270:271   */\n  0x00\n    /* \"#utility.yul\":267:268   */\n  0x00\n    /* \"#utility.yul\":260:272   */\n  revert\n    /* \"#utility.yul\":204:274   */\ntag_10:\n    /* \"#utility.yul\":293:298   */\n  swap4\n    /* \"#utility.yul\":14:304   */\n  swap3\n  pop\n  pop\n  pop\n  jump\t// out\ntag_7:\n    /* \"contracts/staking.sol\":397:4111  contract Stacking {... */\n  dataSize(sub_0)\n  dup1\n  dataOffset(sub_0)\n  0x00\n  codecopy\n  0x00\n  return\nstop\n\nsub_0: assembly {\n        /* \"contracts/staking.sol\":397:4111  contract Stacking {... */\n      mstore(0x40, 0x80)\n      callvalue\n      dup1\n      iszero\n      tag_1\n      jumpi\n      revert(0x00, 0x00)\n    tag_1:\n      pop\n      jumpi(tag_2, lt(calldatasize, 0x04))\n      shr(0xe0, calldataload(0x00))\n      dup1\n      0xc1271634\n      gt\n      tag_10\n      jumpi\n      dup1\n      0xc1271634\n      eq\n      tag_6\n      jumpi\n      dup1\n      0xc25f31df\n      eq\n      tag_7\n      jumpi\n      dup1\n      0xd8a012ea\n      eq\n      tag_8\n      jumpi\n      dup1\n      0xdf7d1f02\n      eq\n      tag_9\n      jumpi\n      revert(0x00, 0x00)\n    tag_10:\n      dup1\n      0x486a302e\n      eq\n      tag_3\n      jumpi\n      dup1\n      0x5afce348\n      eq\n      tag_4\n      jumpi\n      dup1\n      0x7279d18f\n      eq\n      tag_5\n      jumpi\n    tag_2:\n      revert(0x00, 0x00)\n        /* \"contracts/staking.sol\":3772:3895  function getStackOf (address memberAddress) public view returns (uint256) {... */\n    tag_3:\n      tag_11\n      tag_12\n      calldatasize\n      0x04\n      tag_13\n      jump\t// in\n    tag_12:\n      sub(shl(0xa0, 0x01), 0x01)\n        /* \"contracts/staking.sol\":3864:3887  _stackOf[memberAddress] */\n      and\n        /* \"contracts/staking.sol\":3837:3844  uint256 */\n      0x00\n        /* \"contracts/staking.sol\":3864:3887  _stackOf[memberAddress] */\n      swap1\n      dup2\n      mstore\n        /* \"contracts/staking.sol\":3864:3872  _stackOf */\n      0x02\n        /* \"contracts/staking.sol\":3864:3887  _stackOf[memberAddress] */\n      0x20\n      mstore\n      0x40\n      swap1\n      keccak256\n      sload\n      swap1\n        /* \"contracts/staking.sol\":3772:3895  function getStackOf (address memberAddress) public view returns (uint256) {... */\n      jump\n    tag_11:\n      mload(0x40)\n        /* \"#utility.yul\":451:476   */\n      swap1\n      dup2\n      mstore\n        /* \"#utility.yul\":439:441   */\n      0x20\n        /* \"#utility.yul\":424:442   */\n      add\n        /* \"contracts/staking.sol\":3772:3895  function getStackOf (address memberAddress) public view returns (uint256) {... */\n    tag_15:\n      mload(0x40)\n      dup1\n      swap2\n      sub\n      swap1\n      return\n        /* \"contracts/staking.sol\":796:841  Counters.Counter public pendingUnstackCounter */\n    tag_4:\n      sload(0x04)\n      tag_11\n      swap1\n      dup2\n      jump\n        /* \"contracts/staking.sol\":508:533  uint256 public totalStack */\n    tag_5:\n      tag_11\n      sload(0x01)\n      dup2\n      jump\n        /* \"contracts/staking.sol\":2828:3638  function unStackComplete(uint256 index) public {... */\n    tag_6:\n      tag_23\n      tag_24\n      calldatasize\n      0x04\n      tag_25\n      jump\t// in\n    tag_24:\n      tag_26\n      jump\t// in\n    tag_23:\n      stop\n        /* \"contracts/staking.sol\":2135:2820  function unStackRequest(uint256 amount) public {... */\n    tag_7:\n      tag_23\n      tag_28\n      calldatasize\n      0x04\n      tag_25\n      jump\t// in\n    tag_28:\n      tag_29\n      jump\t// in\n        /* \"contracts/staking.sol\":3974:4108  function getPendingUnstackOf (uint256 index) public view returns (UnStackInfo memory) {... */\n    tag_8:\n      tag_30\n      tag_31\n      calldatasize\n      0x04\n      tag_25\n      jump\t// in\n    tag_31:\n      0x40\n      dup1\n      mload\n      0x80\n      dup2\n      add\n      dup3\n      mstore\n      0x00\n      dup1\n      dup3\n      mstore\n      0x20\n      dup3\n      add\n      dup2\n      swap1\n      mstore\n      swap2\n      dup2\n      add\n      dup3\n      swap1\n      mstore\n      0x60\n      dup2\n      add\n      swap2\n      swap1\n      swap2\n      mstore\n      pop\n        /* \"contracts/staking.sol\":4078:4100  _pendingUnstack[index] */\n      0x00\n      swap1\n      dup2\n      mstore\n        /* \"contracts/staking.sol\":4078:4093  _pendingUnstack */\n      0x03\n        /* \"contracts/staking.sol\":4078:4100  _pendingUnstack[index] */\n      0x20\n      swap1\n      dup2\n      mstore\n      0x40\n      swap2\n      dup3\n      swap1\n      keccak256\n        /* \"contracts/staking.sol\":4071:4100  return _pendingUnstack[index] */\n      dup3\n      mload\n      0x80\n      dup2\n      add\n      dup5\n      mstore\n      dup2\n      sload\n      dup2\n      mstore\n      0x01\n      dup3\n      add\n      sload\n      swap3\n      dup2\n      add\n      swap3\n      swap1\n      swap3\n      mstore\n      0x02\n      add\n      sload\n      sub(shl(0xa0, 0x01), 0x01)\n      dup2\n      and\n      swap3\n      dup3\n      add\n      swap3\n      swap1\n      swap3\n      mstore\n      shl(0xa0, 0x01)\n      swap1\n      swap2\n      div\n      0xff\n      and\n      iszero\n      iszero\n      0x60\n      dup3\n      add\n      mstore\n      swap1\n        /* \"contracts/staking.sol\":3974:4108  function getPendingUnstackOf (uint256 index) public view returns (UnStackInfo memory) {... */\n      jump\n    tag_30:\n      mload(0x40)\n      tag_15\n      swap2\n      swap1\n        /* \"#utility.yul\":895:908   */\n      dup2\n      mload\n        /* \"#utility.yul\":877:909   */\n      dup2\n      mstore\n        /* \"#utility.yul\":965:969   */\n      0x20\n        /* \"#utility.yul\":953:970   */\n      dup1\n      dup4\n      add\n        /* \"#utility.yul\":947:971   */\n      mload\n        /* \"#utility.yul\":925:945   */\n      swap1\n      dup3\n      add\n        /* \"#utility.yul\":918:972   */\n      mstore\n        /* \"#utility.yul\":1032:1036   */\n      0x40\n        /* \"#utility.yul\":1020:1037   */\n      dup1\n      dup4\n      add\n        /* \"#utility.yul\":1014:1038   */\n      mload\n      sub(shl(0xa0, 0x01), 0x01)\n        /* \"#utility.yul\":1010:1060   */\n      and\n        /* \"#utility.yul\":988:1008   */\n      swap1\n      dup3\n      add\n        /* \"#utility.yul\":981:1061   */\n      mstore\n        /* \"#utility.yul\":1131:1135   */\n      0x60\n        /* \"#utility.yul\":1119:1136   */\n      swap2\n      dup3\n      add\n        /* \"#utility.yul\":1113:1137   */\n      mload\n        /* \"#utility.yul\":1106:1138   */\n      iszero\n        /* \"#utility.yul\":1099:1139   */\n      iszero\n        /* \"#utility.yul\":1077:1097   */\n      swap2\n      dup2\n      add\n        /* \"#utility.yul\":1070:1140   */\n      swap2\n      swap1\n      swap2\n      mstore\n        /* \"#utility.yul\":864:867   */\n      0x80\n        /* \"#utility.yul\":849:868   */\n      add\n      swap1\n        /* \"#utility.yul\":672:1146   */\n      jump\n        /* \"contracts/staking.sol\":1449:2127  function stacking(uint256 amount) public {... */\n    tag_9:\n      tag_23\n      tag_36\n      calldatasize\n      0x04\n      tag_25\n      jump\t// in\n    tag_36:\n      tag_37\n      jump\t// in\n        /* \"contracts/staking.sol\":2828:3638  function unStackComplete(uint256 index) public {... */\n    tag_26:\n        /* \"contracts/staking.sol\":2903:2924  pendingUnstackCounter */\n      0x04\n        /* \"@openzeppelin/contracts/utils/Counters.sol\":918:932  counter._value */\n      sload\n        /* \"contracts/staking.sol\":2894:2899  index */\n      dup2\n        /* \"contracts/staking.sol\":2894:2934  index <= pendingUnstackCounter.current() */\n      gt\n      iszero\n        /* \"contracts/staking.sol\":2886:2957  require(index <= pendingUnstackCounter.current(), \"Invalid request ID\") */\n      tag_42\n      jumpi\n      mload(0x40)\n      shl(0xe5, 0x461bcd)\n      dup2\n      mstore\n        /* \"#utility.yul\":1353:1355   */\n      0x20\n        /* \"contracts/staking.sol\":2886:2957  require(index <= pendingUnstackCounter.current(), \"Invalid request ID\") */\n      0x04\n      dup3\n      add\n        /* \"#utility.yul\":1335:1356   */\n      mstore\n        /* \"#utility.yul\":1392:1394   */\n      0x12\n        /* \"#utility.yul\":1372:1390   */\n      0x24\n      dup3\n      add\n        /* \"#utility.yul\":1365:1395   */\n      mstore\n      shl(0x72, 0x125b9d985b1a59081c995c5d595cdd081251)\n        /* \"#utility.yul\":1411:1429   */\n      0x44\n      dup3\n      add\n        /* \"#utility.yul\":1404:1452   */\n      mstore\n        /* \"#utility.yul\":1469:1487   */\n      0x64\n      add\n        /* \"contracts/staking.sol\":2886:2957  require(index <= pendingUnstackCounter.current(), \"Invalid request ID\") */\n    tag_43:\n      mload(0x40)\n      dup1\n      swap2\n      sub\n      swap1\n      revert\n    tag_42:\n        /* \"contracts/staking.sol\":2973:2992  uint256 _votingTime */\n      0x00\n        /* \"contracts/staking.sol\":2996:3008  daoInterface */\n      0x00\n      0x00\n      swap1\n      sload\n      swap1\n      0x0100\n      exp\n      swap1\n      div\n      sub(shl(0xa0, 0x01), 0x01)\n      and\n      sub(shl(0xa0, 0x01), 0x01)\n        /* \"contracts/staking.sol\":2996:3020  daoInterface.getTimeInfo */\n      and\n      0x6fe8022c\n        /* \"contracts/staking.sol\":2996:3022  daoInterface.getTimeInfo() */\n      mload(0x40)\n      dup2\n      0xffffffff\n      and\n      0xe0\n      shl\n      dup2\n      mstore\n      0x04\n      add\n      0x60\n      mload(0x40)\n      dup1\n      dup4\n      sub\n      dup2\n      dup7\n      gas\n      staticcall\n      iszero\n      dup1\n      iszero\n      tag_46\n      jumpi\n      returndatacopy(0x00, 0x00, returndatasize)\n      revert(0x00, returndatasize)\n    tag_46:\n      pop\n      pop\n      pop\n      pop\n      mload(0x40)\n      returndatasize\n      not(0x1f)\n      0x1f\n      dup3\n      add\n      and\n      dup3\n      add\n      dup1\n      0x40\n      mstore\n      pop\n      dup2\n      add\n      swap1\n      tag_47\n      swap2\n      swap1\n      tag_48\n      jump\t// in\n    tag_47:\n        /* \"contracts/staking.sol\":3033:3059  UnStackInfo memory request */\n      0x00\n        /* \"contracts/staking.sol\":3062:3084  _pendingUnstack[index] */\n      dup6\n      dup2\n      mstore\n        /* \"contracts/staking.sol\":3062:3077  _pendingUnstack */\n      0x03\n        /* \"contracts/staking.sol\":3062:3084  _pendingUnstack[index] */\n      0x20\n      swap1\n      dup2\n      mstore\n      0x40\n      swap2\n      dup3\n      swap1\n      keccak256\n        /* \"contracts/staking.sol\":3033:3084  UnStackInfo memory request = _pendingUnstack[index] */\n      dup3\n      mload\n      0x80\n      dup2\n      add\n      dup5\n      mstore\n      dup2\n      sload\n      dup2\n      mstore\n      0x01\n      dup3\n      add\n      sload\n      swap3\n      dup2\n      add\n      swap3\n      swap1\n      swap3\n      mstore\n      0x02\n      add\n      sload\n      sub(shl(0xa0, 0x01), 0x01)\n      dup2\n      and\n      swap3\n      dup3\n      add\n      swap3\n      swap1\n      swap3\n      mstore\n      shl(0xa0, 0x01)\n      swap1\n      swap2\n      div\n      0xff\n      and\n      iszero\n      dup1\n      iszero\n      0x60\n      dup4\n      add\n      mstore\n        /* \"contracts/staking.sol\":2968:3022  (, , uint256 _votingTime) = daoInterface.getTimeInfo() */\n      swap2\n      swap5\n      pop\n        /* \"contracts/staking.sol\":3033:3084  UnStackInfo memory request = _pendingUnstack[index] */\n      swap3\n      pop\n      swap1\n      pop\n        /* \"contracts/staking.sol\":3097:3153  require(!request.completed, \"Unstack already completed\") */\n      tag_49\n      jumpi\n      mload(0x40)\n      shl(0xe5, 0x461bcd)\n      dup2\n      mstore\n        /* \"#utility.yul\":2161:2163   */\n      0x20\n        /* \"contracts/staking.sol\":3097:3153  require(!request.completed, \"Unstack already completed\") */\n      0x04\n      dup3\n      add\n        /* \"#utility.yul\":2143:2164   */\n      mstore\n        /* \"#utility.yul\":2200:2202   */\n      0x19\n        /* \"#utility.yul\":2180:2198   */\n      0x24\n      dup3\n      add\n        /* \"#utility.yul\":2173:2203   */\n      mstore\n        /* \"#utility.yul\":2239:2266   */\n      0x556e737461636b20616c726561647920636f6d706c6574656400000000000000\n        /* \"#utility.yul\":2219:2237   */\n      0x44\n      dup3\n      add\n        /* \"#utility.yul\":2212:2267   */\n      mstore\n        /* \"#utility.yul\":2284:2302   */\n      0x64\n      add\n        /* \"contracts/staking.sol\":3097:3153  require(!request.completed, \"Unstack already completed\") */\n      tag_43\n        /* \"#utility.yul\":1959:2308   */\n      jump\n        /* \"contracts/staking.sol\":3097:3153  require(!request.completed, \"Unstack already completed\") */\n    tag_49:\n        /* \"contracts/staking.sol\":3223:3234  _votingTime */\n      dup2\n        /* \"contracts/staking.sol\":3205:3212  request */\n      dup2\n        /* \"contracts/staking.sol\":3205:3220  request.startAt */\n      0x20\n      add\n      mload\n        /* \"contracts/staking.sol\":3205:3234  request.startAt + _votingTime */\n      tag_52\n      swap2\n      swap1\n      tag_53\n      jump\t// in\n    tag_52:\n        /* \"contracts/staking.sol\":3186:3201  block.timestamp */\n      timestamp\n        /* \"contracts/staking.sol\":3186:3234  block.timestamp >= request.startAt + _votingTime */\n      lt\n      iszero\n        /* \"contracts/staking.sol\":3164:3274  require(... */\n      tag_54\n      jumpi\n      mload(0x40)\n      shl(0xe5, 0x461bcd)\n      dup2\n      mstore\n        /* \"#utility.yul\":2777:2779   */\n      0x20\n        /* \"contracts/staking.sol\":3164:3274  require(... */\n      0x04\n      dup3\n      add\n        /* \"#utility.yul\":2759:2780   */\n      mstore\n        /* \"#utility.yul\":2816:2818   */\n      0x0c\n        /* \"#utility.yul\":2796:2814   */\n      0x24\n      dup3\n      add\n        /* \"#utility.yul\":2789:2819   */\n      mstore\n      shl(0xa0, 0x50656e64696e672074696d65)\n        /* \"#utility.yul\":2835:2853   */\n      0x44\n      dup3\n      add\n        /* \"#utility.yul\":2828:2870   */\n      mstore\n        /* \"#utility.yul\":2887:2905   */\n      0x64\n      add\n        /* \"contracts/staking.sol\":3164:3274  require(... */\n      tag_43\n        /* \"#utility.yul\":2575:2911   */\n      jump\n        /* \"contracts/staking.sol\":3164:3274  require(... */\n    tag_54:\n        /* \"contracts/staking.sol\":3395:3406  _m2cAddress */\n      sload(0x06)\n        /* \"contracts/staking.sol\":3432:3449  request.recipient */\n      0x40\n      dup1\n      dup4\n      add\n      mload\n        /* \"contracts/staking.sol\":3451:3465  request.amount */\n      dup4\n      mload\n        /* \"contracts/staking.sol\":3370:3478  LSP7DigitalAsset(payable(_m2cAddress)).transfer(address(this),request.recipient, request.amount, true, \"0x\") */\n      swap2\n      mload\n      shl(0xe1, 0x3b06cddd)\n      dup2\n      mstore\n      sub(shl(0xa0, 0x01), 0x01)\n        /* \"contracts/staking.sol\":3395:3406  _m2cAddress */\n      swap1\n      swap4\n      and\n      swap3\n        /* \"contracts/staking.sol\":3370:3417  LSP7DigitalAsset(payable(_m2cAddress)).transfer */\n      0x760d9bba\n      swap3\n        /* \"contracts/staking.sol\":3370:3478  LSP7DigitalAsset(payable(_m2cAddress)).transfer(address(this),request.recipient, request.amount, true, \"0x\") */\n      tag_57\n      swap3\n        /* \"contracts/staking.sol\":3426:3430  this */\n      address\n      swap3\n        /* \"contracts/staking.sol\":3432:3449  request.recipient */\n      swap1\n      swap2\n        /* \"contracts/staking.sol\":3451:3465  request.amount */\n      swap1\n        /* \"contracts/staking.sol\":3395:3406  _m2cAddress */\n      0x01\n      swap1\n        /* \"contracts/staking.sol\":3370:3478  LSP7DigitalAsset(payable(_m2cAddress)).transfer(address(this),request.recipient, request.amount, true, \"0x\") */\n      0x04\n      add\n      tag_58\n      jump\t// in\n    tag_57:\n      0x00\n      mload(0x40)\n      dup1\n      dup4\n      sub\n      dup2\n      0x00\n      dup8\n      dup1\n      extcodesize\n      iszero\n      dup1\n      iszero\n      tag_59\n      jumpi\n      revert(0x00, 0x00)\n    tag_59:\n      pop\n      gas\n      call\n      iszero\n      dup1\n      iszero\n      tag_61\n      jumpi\n      returndatacopy(0x00, 0x00, returndatasize)\n      revert(0x00, returndatasize)\n    tag_61:\n      pop\n      pop\n      pop\n      pop\n        /* \"contracts/staking.sol\":3503:3510  request */\n      dup1\n        /* \"contracts/staking.sol\":3503:3517  request.amount */\n      0x00\n      add\n      mload\n        /* \"contracts/staking.sol\":3489:3499  totalStack */\n      0x01\n      0x00\n        /* \"contracts/staking.sol\":3489:3517  totalStack -= request.amount */\n      dup3\n      dup3\n      sload\n      tag_62\n      swap2\n      swap1\n      tag_63\n      jump\t// in\n    tag_62:\n      swap1\n      swap2\n      sstore\n      pop\n      pop\n        /* \"contracts/staking.sol\":3550:3554  true */\n      0x01\n        /* \"contracts/staking.sol\":3530:3547  request.completed */\n      0x60\n      dup3\n      add\n        /* \"contracts/staking.sol\":3530:3554  request.completed = true */\n      mstore\n        /* \"contracts/staking.sol\":3596:3613  request.recipient */\n      0x40\n      dup1\n      dup3\n      add\n      mload\n        /* \"contracts/staking.sol\":3615:3629  request.amount */\n      dup3\n      mload\n        /* \"contracts/staking.sol\":3572:3630  UnStackCompleted(index, request.recipient, request.amount) */\n      swap2\n      mload\n        /* \"#utility.yul\":451:476   */\n      swap2\n      dup3\n      mstore\n      sub(shl(0xa0, 0x01), 0x01)\n        /* \"contracts/staking.sol\":3572:3630  UnStackCompleted(index, request.recipient, request.amount) */\n      and\n      swap1\n        /* \"contracts/staking.sol\":3589:3594  index */\n      dup5\n      swap1\n        /* \"contracts/staking.sol\":3572:3630  UnStackCompleted(index, request.recipient, request.amount) */\n      0x33d7f368d340ccf429d060cc8fcc726740eed63aa80f145f07697bd863ca96d9\n      swap1\n        /* \"#utility.yul\":439:441   */\n      0x20\n        /* \"#utility.yul\":424:442   */\n      add\n        /* \"contracts/staking.sol\":3572:3630  UnStackCompleted(index, request.recipient, request.amount) */\n      mload(0x40)\n      dup1\n      swap2\n      sub\n      swap1\n      log3\n        /* \"contracts/staking.sol\":2875:3638  {... */\n      pop\n      pop\n        /* \"contracts/staking.sol\":2828:3638  function unStackComplete(uint256 index) public {... */\n      pop\n      jump\t// out\n        /* \"contracts/staking.sol\":2135:2820  function unStackRequest(uint256 amount) public {... */\n    tag_29:\n        /* \"contracts/staking.sol\":2210:2211  0 */\n      0x00\n        /* \"contracts/staking.sol\":2201:2207  amount */\n      dup2\n        /* \"contracts/staking.sol\":2201:2211  amount > 0 */\n      gt\n        /* \"contracts/staking.sol\":2193:2248  require(amount > 0, \"Amount must be greater than zero\") */\n      tag_66\n      jumpi\n      mload(0x40)\n      shl(0xe5, 0x461bcd)\n      dup2\n      mstore\n        /* \"#utility.yul\":3931:3933   */\n      0x20\n        /* \"contracts/staking.sol\":2193:2248  require(amount > 0, \"Amount must be greater than zero\") */\n      0x04\n      dup3\n      add\n        /* \"#utility.yul\":3913:3934   */\n      dup2\n      swap1\n      mstore\n        /* \"#utility.yul\":3950:3968   */\n      0x24\n      dup3\n      add\n        /* \"#utility.yul\":3943:3973   */\n      mstore\n        /* \"#utility.yul\":4009:4043   */\n      0x416d6f756e74206d7573742062652067726561746572207468616e207a65726f\n        /* \"#utility.yul\":3989:4007   */\n      0x44\n      dup3\n      add\n        /* \"#utility.yul\":3982:4044   */\n      mstore\n        /* \"#utility.yul\":4061:4079   */\n      0x64\n      add\n        /* \"contracts/staking.sol\":2193:2248  require(amount > 0, \"Amount must be greater than zero\") */\n      tag_43\n        /* \"#utility.yul\":3729:4085   */\n      jump\n        /* \"contracts/staking.sol\":2193:2248  require(amount > 0, \"Amount must be greater than zero\") */\n    tag_66:\n        /* \"contracts/staking.sol\":2276:2286  msg.sender */\n      caller\n        /* \"contracts/staking.sol\":2267:2287  _stackOf[msg.sender] */\n      0x00\n      swap1\n      dup2\n      mstore\n        /* \"contracts/staking.sol\":2267:2275  _stackOf */\n      0x02\n        /* \"contracts/staking.sol\":2267:2287  _stackOf[msg.sender] */\n      0x20\n      mstore\n      0x40\n      swap1\n      keccak256\n      sload\n        /* \"contracts/staking.sol\":2267:2297  _stackOf[msg.sender] >= amount */\n      dup2\n      gt\n      iszero\n        /* \"contracts/staking.sol\":2259:2322  require(_stackOf[msg.sender] >= amount, \"Insufficient balance\") */\n      tag_69\n      jumpi\n      mload(0x40)\n      shl(0xe5, 0x461bcd)\n      dup2\n      mstore\n        /* \"#utility.yul\":4292:4294   */\n      0x20\n        /* \"contracts/staking.sol\":2259:2322  require(_stackOf[msg.sender] >= amount, \"Insufficient balance\") */\n      0x04\n      dup3\n      add\n        /* \"#utility.yul\":4274:4295   */\n      mstore\n        /* \"#utility.yul\":4331:4333   */\n      0x14\n        /* \"#utility.yul\":4311:4329   */\n      0x24\n      dup3\n      add\n        /* \"#utility.yul\":4304:4334   */\n      mstore\n      shl(0x60, 0x496e73756666696369656e742062616c616e6365)\n        /* \"#utility.yul\":4350:4368   */\n      0x44\n      dup3\n      add\n        /* \"#utility.yul\":4343:4393   */\n      mstore\n        /* \"#utility.yul\":4410:4428   */\n      0x64\n      add\n        /* \"contracts/staking.sol\":2259:2322  require(_stackOf[msg.sender] >= amount, \"Insufficient balance\") */\n      tag_43\n        /* \"#utility.yul\":4090:4434   */\n      jump\n        /* \"contracts/staking.sol\":2259:2322  require(_stackOf[msg.sender] >= amount, \"Insufficient balance\") */\n    tag_69:\n        /* \"contracts/staking.sol\":2335:2368  pendingUnstackCounter.increment() */\n      tag_72\n        /* \"contracts/staking.sol\":2335:2356  pendingUnstackCounter */\n      0x04\n        /* \"@openzeppelin/contracts/utils/Counters.sol\":1032:1051  counter._value += 1 */\n      dup1\n      sload\n        /* \"@openzeppelin/contracts/utils/Counters.sol\":1050:1051  1 */\n      0x01\n        /* \"@openzeppelin/contracts/utils/Counters.sol\":1032:1051  counter._value += 1 */\n      add\n      swap1\n      sstore\n        /* \"@openzeppelin/contracts/utils/Counters.sol\":945:1068  function increment(Counter storage counter) internal {... */\n      jump\n        /* \"contracts/staking.sol\":2335:2368  pendingUnstackCounter.increment() */\n    tag_72:\n        /* \"contracts/staking.sol\":2379:2392  uint256 index */\n      0x00\n        /* \"contracts/staking.sol\":2395:2426  pendingUnstackCounter.current() */\n      tag_74\n        /* \"contracts/staking.sol\":2395:2416  pendingUnstackCounter */\n      0x04\n        /* \"@openzeppelin/contracts/utils/Counters.sol\":918:932  counter._value */\n      sload\n      swap1\n        /* \"@openzeppelin/contracts/utils/Counters.sol\":827:939  function current(Counter storage counter) internal view returns (uint256) {... */\n      jump\n        /* \"contracts/staking.sol\":2395:2426  pendingUnstackCounter.current() */\n    tag_74:\n        /* \"contracts/staking.sol\":2464:2623  UnStackInfo({... */\n      0x40\n      dup1\n      mload\n      0x80\n      dup2\n      add\n      dup3\n      mstore\n      dup5\n      dup2\n      mstore\n        /* \"contracts/staking.sol\":2529:2544  block.timestamp */\n      timestamp\n        /* \"contracts/staking.sol\":2464:2623  UnStackInfo({... */\n      0x20\n      dup1\n      dup4\n      add\n      swap2\n      dup3\n      mstore\n        /* \"contracts/staking.sol\":2570:2580  msg.sender */\n      caller\n        /* \"contracts/staking.sol\":2464:2623  UnStackInfo({... */\n      dup4\n      dup6\n      add\n      dup2\n      dup2\n      mstore\n      0x00\n      0x60\n      dup7\n      add\n      dup2\n      dup2\n      mstore\n        /* \"contracts/staking.sol\":2439:2461  _pendingUnstack[index] */\n      dup9\n      dup3\n      mstore\n        /* \"contracts/staking.sol\":2439:2454  _pendingUnstack */\n      0x03\n        /* \"contracts/staking.sol\":2439:2461  _pendingUnstack[index] */\n      dup6\n      mstore\n      dup8\n      dup3\n      keccak256\n        /* \"contracts/staking.sol\":2439:2623  _pendingUnstack[index] = UnStackInfo({... */\n      swap7\n      mload\n      dup8\n      sstore\n      swap5\n      mload\n        /* \"contracts/staking.sol\":2464:2623  UnStackInfo({... */\n      0x01\n        /* \"contracts/staking.sol\":2439:2623  _pendingUnstack[index] = UnStackInfo({... */\n      dup8\n      add\n      sstore\n      swap1\n      mload\n      0x02\n      swap6\n      dup7\n      add\n      dup1\n      sload\n      swap6\n      mload\n      iszero\n      iszero\n      shl(0xa0, 0x01)\n      mul\n      not(sub(shl(0xa8, 0x01), 0x01))\n      swap1\n      swap7\n      and\n      sub(shl(0xa0, 0x01), 0x01)\n      swap3\n      swap1\n      swap3\n      and\n      swap2\n      swap1\n      swap2\n      or\n      swap5\n      swap1\n      swap5\n      or\n      swap1\n      swap4\n      sstore\n        /* \"contracts/staking.sol\":2636:2656  _stackOf[msg.sender] */\n      dup3\n      mstore\n      swap2\n      swap1\n      swap2\n      mstore\n      swap1\n      dup2\n      keccak256\n        /* \"contracts/staking.sol\":2636:2666  _stackOf[msg.sender] -= amount */\n      dup1\n      sload\n        /* \"contracts/staking.sol\":2379:2426  uint256 index = pendingUnstackCounter.current() */\n      swap3\n      swap4\n      pop\n        /* \"contracts/staking.sol\":2499:2505  amount */\n      dup5\n      swap3\n        /* \"contracts/staking.sol\":2636:2656  _stackOf[msg.sender] */\n      swap1\n      swap2\n      swap1\n        /* \"contracts/staking.sol\":2636:2666  _stackOf[msg.sender] -= amount */\n      tag_75\n      swap1\n        /* \"contracts/staking.sol\":2499:2505  amount */\n      dup5\n      swap1\n        /* \"contracts/staking.sol\":2636:2666  _stackOf[msg.sender] -= amount */\n      tag_63\n      jump\t// in\n    tag_75:\n      swap1\n      swap2\n      sstore\n      pop\n      pop\n        /* \"contracts/staking.sol\":2684:2812  UnStackRequestCreated(... */\n      0x40\n      dup1\n      mload\n        /* \"#utility.yul\":4613:4638   */\n      dup4\n      dup2\n      mstore\n        /* \"contracts/staking.sol\":2786:2801  block.timestamp */\n      timestamp\n        /* \"#utility.yul\":4669:4671   */\n      0x20\n        /* \"#utility.yul\":4654:4672   */\n      dup3\n      add\n        /* \"#utility.yul\":4647:4681   */\n      mstore\n        /* \"contracts/staking.sol\":2740:2750  msg.sender */\n      caller\n      swap2\n        /* \"contracts/staking.sol\":2720:2725  index */\n      dup4\n      swap2\n        /* \"contracts/staking.sol\":2684:2812  UnStackRequestCreated(... */\n      0xd02c07f15cabcd08604fa172b884e48e13e07c090290e75df51569ec5d2390ee\n      swap2\n        /* \"#utility.yul\":4586:4604   */\n      add\n        /* \"contracts/staking.sol\":2684:2812  UnStackRequestCreated(... */\n      mload(0x40)\n      dup1\n      swap2\n      sub\n      swap1\n      log3\n        /* \"contracts/staking.sol\":2182:2820  {... */\n      pop\n        /* \"contracts/staking.sol\":2135:2820  function unStackRequest(uint256 amount) public {... */\n      pop\n      jump\t// out\n        /* \"contracts/staking.sol\":1449:2127  function stacking(uint256 amount) public {... */\n    tag_37:\n        /* \"contracts/staking.sol\":1558:1569  _m2cAddress */\n      sload(0x06)\n        /* \"contracts/staking.sol\":1533:1593  LSP7DigitalAsset(payable(_m2cAddress)).balanceOf(msg.sender) */\n      mload(0x40)\n      shl(0xe0, 0x70a08231)\n      dup2\n      mstore\n        /* \"contracts/staking.sol\":1582:1592  msg.sender */\n      caller\n        /* \"contracts/staking.sol\":1533:1593  LSP7DigitalAsset(payable(_m2cAddress)).balanceOf(msg.sender) */\n      0x04\n      dup3\n      add\n        /* \"#utility.yul\":4838:4889   */\n      mstore\n      sub(shl(0xa0, 0x01), 0x01)\n        /* \"contracts/staking.sol\":1558:1569  _m2cAddress */\n      swap1\n      swap2\n      and\n      swap1\n        /* \"contracts/staking.sol\":1533:1581  LSP7DigitalAsset(payable(_m2cAddress)).balanceOf */\n      0x70a08231\n      swap1\n        /* \"#utility.yul\":4811:4829   */\n      0x24\n      add\n        /* \"contracts/staking.sol\":1533:1593  LSP7DigitalAsset(payable(_m2cAddress)).balanceOf(msg.sender) */\n      0x20\n      mload(0x40)\n      dup1\n      dup4\n      sub\n      dup2\n      dup7\n      gas\n      staticcall\n      iszero\n      dup1\n      iszero\n      tag_85\n      jumpi\n      returndatacopy(0x00, 0x00, returndatasize)\n      revert(0x00, returndatasize)\n    tag_85:\n      pop\n      pop\n      pop\n      pop\n      mload(0x40)\n      returndatasize\n      not(0x1f)\n      0x1f\n      dup3\n      add\n      and\n      dup3\n      add\n      dup1\n      0x40\n      mstore\n      pop\n      dup2\n      add\n      swap1\n      tag_86\n      swap2\n      swap1\n      tag_87\n      jump\t// in\n    tag_86:\n        /* \"contracts/staking.sol\":1523:1529  amount */\n      dup2\n        /* \"contracts/staking.sol\":1523:1593  amount <= LSP7DigitalAsset(payable(_m2cAddress)).balanceOf(msg.sender) */\n      gt\n      iszero\n        /* \"contracts/staking.sol\":1501:1641  require(... */\n      tag_88\n      jumpi\n      mload(0x40)\n      shl(0xe5, 0x461bcd)\n      dup2\n      mstore\n        /* \"#utility.yul\":4292:4294   */\n      0x20\n        /* \"contracts/staking.sol\":1501:1641  require(... */\n      0x04\n      dup3\n      add\n        /* \"#utility.yul\":4274:4295   */\n      mstore\n        /* \"#utility.yul\":4331:4333   */\n      0x14\n        /* \"#utility.yul\":4311:4329   */\n      0x24\n      dup3\n      add\n        /* \"#utility.yul\":4304:4334   */\n      mstore\n      shl(0x60, 0x496e73756666696369656e742062616c616e6365)\n        /* \"#utility.yul\":4350:4368   */\n      0x44\n      dup3\n      add\n        /* \"#utility.yul\":4343:4393   */\n      mstore\n        /* \"#utility.yul\":4410:4428   */\n      0x64\n      add\n        /* \"contracts/staking.sol\":1501:1641  require(... */\n      tag_43\n        /* \"#utility.yul\":4090:4434   */\n      jump\n        /* \"contracts/staking.sol\":1501:1641  require(... */\n    tag_88:\n        /* \"contracts/staking.sol\":1699:1710  _m2cAddress */\n      sload(0x06)\n        /* \"contracts/staking.sol\":1674:1759  LSP7DigitalAsset(payable(_m2cAddress)).authorizedAmountFor(address(this), msg.sender) */\n      mload(0x40)\n      shl(0xe0, 0x65aeaa95)\n      dup2\n      mstore\n        /* \"contracts/staking.sol\":1741:1745  this */\n      address\n        /* \"contracts/staking.sol\":1674:1759  LSP7DigitalAsset(payable(_m2cAddress)).authorizedAmountFor(address(this), msg.sender) */\n      0x04\n      dup3\n      add\n        /* \"#utility.yul\":5309:5360   */\n      mstore\n        /* \"contracts/staking.sol\":1748:1758  msg.sender */\n      caller\n        /* \"#utility.yul\":5376:5394   */\n      0x24\n      dup3\n      add\n        /* \"#utility.yul\":5369:5429   */\n      mstore\n        /* \"contracts/staking.sol\":1763:1769  amount */\n      dup3\n      swap2\n      sub(shl(0xa0, 0x01), 0x01)\n        /* \"contracts/staking.sol\":1699:1710  _m2cAddress */\n      and\n      swap1\n        /* \"contracts/staking.sol\":1674:1732  LSP7DigitalAsset(payable(_m2cAddress)).authorizedAmountFor */\n      0x65aeaa95\n      swap1\n        /* \"#utility.yul\":5282:5300   */\n      0x44\n      add\n        /* \"contracts/staking.sol\":1674:1759  LSP7DigitalAsset(payable(_m2cAddress)).authorizedAmountFor(address(this), msg.sender) */\n      0x20\n      mload(0x40)\n      dup1\n      dup4\n      sub\n      dup2\n      dup7\n      gas\n      staticcall\n      iszero\n      dup1\n      iszero\n      tag_93\n      jumpi\n      returndatacopy(0x00, 0x00, returndatasize)\n      revert(0x00, returndatasize)\n    tag_93:\n      pop\n      pop\n      pop\n      pop\n      mload(0x40)\n      returndatasize\n      not(0x1f)\n      0x1f\n      dup3\n      add\n      and\n      dup3\n      add\n      dup1\n      0x40\n      mstore\n      pop\n      dup2\n      add\n      swap1\n      tag_94\n      swap2\n      swap1\n      tag_87\n      jump\t// in\n    tag_94:\n        /* \"contracts/staking.sol\":1674:1769  LSP7DigitalAsset(payable(_m2cAddress)).authorizedAmountFor(address(this), msg.sender) >= amount */\n      lt\n      iszero\n        /* \"contracts/staking.sol\":1652:1815  require(... */\n      tag_95\n      jumpi\n      mload(0x40)\n      shl(0xe5, 0x461bcd)\n      dup2\n      mstore\n        /* \"#utility.yul\":5642:5644   */\n      0x20\n        /* \"contracts/staking.sol\":1652:1815  require(... */\n      0x04\n      dup3\n      add\n        /* \"#utility.yul\":5624:5645   */\n      mstore\n        /* \"#utility.yul\":5681:5683   */\n      0x12\n        /* \"#utility.yul\":5661:5679   */\n      0x24\n      dup3\n      add\n        /* \"#utility.yul\":5654:5684   */\n      mstore\n      shl(0x72, 0x105b1b1bddd85b98d9481c995c5d5a5c9959)\n        /* \"#utility.yul\":5700:5718   */\n      0x44\n      dup3\n      add\n        /* \"#utility.yul\":5693:5741   */\n      mstore\n        /* \"#utility.yul\":5758:5776   */\n      0x64\n      add\n        /* \"contracts/staking.sol\":1652:1815  require(... */\n      tag_43\n        /* \"#utility.yul\":5440:5782   */\n      jump\n        /* \"contracts/staking.sol\":1652:1815  require(... */\n    tag_95:\n        /* \"contracts/staking.sol\":1933:1944  _m2cAddress */\n      sload(0x06)\n        /* \"contracts/staking.sol\":1908:2002  LSP7DigitalAsset(payable(_m2cAddress)).transfer(msg.sender, address(this), amount, true, \"0x\") */\n      mload(0x40)\n      shl(0xe1, 0x3b06cddd)\n      dup2\n      mstore\n      sub(shl(0xa0, 0x01), 0x01)\n        /* \"contracts/staking.sol\":1933:1944  _m2cAddress */\n      swap1\n      swap2\n      and\n      swap1\n        /* \"contracts/staking.sol\":1908:1955  LSP7DigitalAsset(payable(_m2cAddress)).transfer */\n      0x760d9bba\n      swap1\n        /* \"contracts/staking.sol\":1908:2002  LSP7DigitalAsset(payable(_m2cAddress)).transfer(msg.sender, address(this), amount, true, \"0x\") */\n      tag_98\n      swap1\n        /* \"contracts/staking.sol\":1956:1966  msg.sender */\n      caller\n      swap1\n        /* \"contracts/staking.sol\":1976:1980  this */\n      address\n      swap1\n        /* \"contracts/staking.sol\":1983:1989  amount */\n      dup7\n      swap1\n        /* \"contracts/staking.sol\":1933:1944  _m2cAddress */\n      0x01\n      swap1\n        /* \"contracts/staking.sol\":1908:2002  LSP7DigitalAsset(payable(_m2cAddress)).transfer(msg.sender, address(this), amount, true, \"0x\") */\n      0x04\n      add\n      tag_58\n      jump\t// in\n    tag_98:\n      0x00\n      mload(0x40)\n      dup1\n      dup4\n      sub\n      dup2\n      0x00\n      dup8\n      dup1\n      extcodesize\n      iszero\n      dup1\n      iszero\n      tag_99\n      jumpi\n      revert(0x00, 0x00)\n    tag_99:\n      pop\n      gas\n      call\n      iszero\n      dup1\n      iszero\n      tag_101\n      jumpi\n      returndatacopy(0x00, 0x00, returndatasize)\n      revert(0x00, returndatasize)\n    tag_101:\n      pop\n      pop\n        /* \"contracts/staking.sol\":2022:2032  msg.sender */\n      caller\n        /* \"contracts/staking.sol\":2013:2033  _stackOf[msg.sender] */\n      0x00\n      swap1\n      dup2\n      mstore\n        /* \"contracts/staking.sol\":2013:2021  _stackOf */\n      0x02\n        /* \"contracts/staking.sol\":2013:2033  _stackOf[msg.sender] */\n      0x20\n      mstore\n      0x40\n      dup2\n      keccak256\n        /* \"contracts/staking.sol\":2013:2043  _stackOf[msg.sender] += amount */\n      dup1\n      sload\n        /* \"contracts/staking.sol\":2037:2043  amount */\n      dup6\n      swap5\n      pop\n        /* \"contracts/staking.sol\":2013:2033  _stackOf[msg.sender] */\n      swap1\n      swap3\n      pop\n        /* \"contracts/staking.sol\":2013:2043  _stackOf[msg.sender] += amount */\n      tag_102\n      swap1\n        /* \"contracts/staking.sol\":2037:2043  amount */\n      dup5\n      swap1\n        /* \"contracts/staking.sol\":2013:2043  _stackOf[msg.sender] += amount */\n      tag_53\n      jump\t// in\n    tag_102:\n      swap3\n      pop\n      pop\n      dup2\n      swap1\n      sstore\n      pop\n        /* \"contracts/staking.sol\":2068:2074  amount */\n      dup1\n        /* \"contracts/staking.sol\":2054:2064  totalStack */\n      0x01\n      0x00\n        /* \"contracts/staking.sol\":2054:2074  totalStack += amount */\n      dup3\n      dup3\n      sload\n      tag_103\n      swap2\n      swap1\n      tag_53\n      jump\t// in\n    tag_103:\n      swap1\n      swap2\n      sstore\n      pop\n      pop\n        /* \"contracts/staking.sol\":2092:2119  Stacked(msg.sender, amount) */\n      mload(0x40)\n        /* \"#utility.yul\":451:476   */\n      dup2\n      dup2\n      mstore\n        /* \"contracts/staking.sol\":2100:2110  msg.sender */\n      caller\n      swap1\n        /* \"contracts/staking.sol\":2092:2119  Stacked(msg.sender, amount) */\n      0xcd4c5e2af7b60703fbb8818059580faaa30188d0e412ee41300d0ec6daf7453f\n      swap1\n        /* \"#utility.yul\":439:441   */\n      0x20\n        /* \"#utility.yul\":424:442   */\n      add\n        /* \"contracts/staking.sol\":2092:2119  Stacked(msg.sender, amount) */\n      mload(0x40)\n      dup1\n      swap2\n      sub\n      swap1\n      log2\n        /* \"contracts/staking.sol\":1449:2127  function stacking(uint256 amount) public {... */\n      pop\n      jump\t// out\n        /* \"#utility.yul\":14:300   */\n    tag_13:\n        /* \"#utility.yul\":73:79   */\n      0x00\n        /* \"#utility.yul\":126:128   */\n      0x20\n        /* \"#utility.yul\":114:123   */\n      dup3\n        /* \"#utility.yul\":105:112   */\n      dup5\n        /* \"#utility.yul\":101:124   */\n      sub\n        /* \"#utility.yul\":97:129   */\n      slt\n        /* \"#utility.yul\":94:146   */\n      iszero\n      tag_110\n      jumpi\n        /* \"#utility.yul\":142:143   */\n      0x00\n        /* \"#utility.yul\":139:140   */\n      0x00\n        /* \"#utility.yul\":132:144   */\n      revert\n        /* \"#utility.yul\":94:146   */\n    tag_110:\n        /* \"#utility.yul\":168:191   */\n      dup2\n      calldataload\n      sub(shl(0xa0, 0x01), 0x01)\n        /* \"#utility.yul\":220:251   */\n      dup2\n      and\n        /* \"#utility.yul\":210:252   */\n      dup2\n      eq\n        /* \"#utility.yul\":200:270   */\n      tag_111\n      jumpi\n        /* \"#utility.yul\":266:267   */\n      0x00\n        /* \"#utility.yul\":263:264   */\n      0x00\n        /* \"#utility.yul\":256:268   */\n      revert\n        /* \"#utility.yul\":200:270   */\n    tag_111:\n        /* \"#utility.yul\":289:294   */\n      swap4\n        /* \"#utility.yul\":14:300   */\n      swap3\n      pop\n      pop\n      pop\n      jump\t// out\n        /* \"#utility.yul\":487:667   */\n    tag_25:\n        /* \"#utility.yul\":546:552   */\n      0x00\n        /* \"#utility.yul\":599:601   */\n      0x20\n        /* \"#utility.yul\":587:596   */\n      dup3\n        /* \"#utility.yul\":578:585   */\n      dup5\n        /* \"#utility.yul\":574:597   */\n      sub\n        /* \"#utility.yul\":570:602   */\n      slt\n        /* \"#utility.yul\":567:619   */\n      iszero\n      tag_114\n      jumpi\n        /* \"#utility.yul\":615:616   */\n      0x00\n        /* \"#utility.yul\":612:613   */\n      0x00\n        /* \"#utility.yul\":605:617   */\n      revert\n        /* \"#utility.yul\":567:619   */\n    tag_114:\n      pop\n        /* \"#utility.yul\":638:661   */\n      calldataload\n      swap2\n        /* \"#utility.yul\":487:667   */\n      swap1\n      pop\n      jump\t// out\n        /* \"#utility.yul\":1498:1954   */\n    tag_48:\n        /* \"#utility.yul\":1586:1592   */\n      0x00\n        /* \"#utility.yul\":1594:1600   */\n      0x00\n        /* \"#utility.yul\":1602:1608   */\n      0x00\n        /* \"#utility.yul\":1655:1657   */\n      0x60\n        /* \"#utility.yul\":1643:1652   */\n      dup5\n        /* \"#utility.yul\":1634:1641   */\n      dup7\n        /* \"#utility.yul\":1630:1653   */\n      sub\n        /* \"#utility.yul\":1626:1658   */\n      slt\n        /* \"#utility.yul\":1623:1675   */\n      iszero\n      tag_118\n      jumpi\n        /* \"#utility.yul\":1671:1672   */\n      0x00\n        /* \"#utility.yul\":1668:1669   */\n      0x00\n        /* \"#utility.yul\":1661:1673   */\n      revert\n        /* \"#utility.yul\":1623:1675   */\n    tag_118:\n      pop\n      pop\n        /* \"#utility.yul\":1716:1732   */\n      dup2\n      mload\n        /* \"#utility.yul\":1822:1824   */\n      0x20\n        /* \"#utility.yul\":1807:1825   */\n      dup4\n      add\n        /* \"#utility.yul\":1801:1826   */\n      mload\n        /* \"#utility.yul\":1918:1920   */\n      0x40\n        /* \"#utility.yul\":1903:1921   */\n      swap1\n      swap4\n      add\n        /* \"#utility.yul\":1897:1922   */\n      mload\n        /* \"#utility.yul\":1716:1732   */\n      swap1\n      swap5\n        /* \"#utility.yul\":1801:1826   */\n      swap3\n      swap4\n      pop\n        /* \"#utility.yul\":1897:1922   */\n      swap2\n        /* \"#utility.yul\":1498:1954   */\n      swap1\n      pop\n      jump\t// out\n        /* \"#utility.yul\":2313:2440   */\n    tag_107:\n        /* \"#utility.yul\":2374:2384   */\n      0x4e487b71\n        /* \"#utility.yul\":2369:2372   */\n      0xe0\n        /* \"#utility.yul\":2365:2385   */\n      shl\n        /* \"#utility.yul\":2362:2363   */\n      0x00\n        /* \"#utility.yul\":2355:2386   */\n      mstore\n        /* \"#utility.yul\":2405:2409   */\n      0x11\n        /* \"#utility.yul\":2402:2403   */\n      0x04\n        /* \"#utility.yul\":2395:2410   */\n      mstore\n        /* \"#utility.yul\":2429:2433   */\n      0x24\n        /* \"#utility.yul\":2426:2427   */\n      0x00\n        /* \"#utility.yul\":2419:2434   */\n      revert\n        /* \"#utility.yul\":2445:2570   */\n    tag_53:\n        /* \"#utility.yul\":2510:2519   */\n      dup1\n      dup3\n      add\n        /* \"#utility.yul\":2531:2541   */\n      dup1\n      dup3\n      gt\n        /* \"#utility.yul\":2528:2564   */\n      iszero\n      tag_123\n      jumpi\n        /* \"#utility.yul\":2544:2562   */\n      tag_123\n      tag_107\n      jump\t// in\n    tag_123:\n        /* \"#utility.yul\":2445:2570   */\n      swap3\n      swap2\n      pop\n      pop\n      jump\t// out\n        /* \"#utility.yul\":2916:3591   */\n    tag_58:\n      sub(shl(0xa0, 0x01), 0x01)\n        /* \"#utility.yul\":3223:3255   */\n      swap5\n      dup6\n      and\n        /* \"#utility.yul\":3205:3256   */\n      dup2\n      mstore\n        /* \"#utility.yul\":3292:3324   */\n      swap3\n      swap1\n      swap4\n      and\n        /* \"#utility.yul\":3287:3289   */\n      0x20\n        /* \"#utility.yul\":3272:3290   */\n      dup4\n      add\n        /* \"#utility.yul\":3265:3325   */\n      mstore\n        /* \"#utility.yul\":3356:3358   */\n      0x40\n        /* \"#utility.yul\":3341:3359   */\n      dup3\n      add\n        /* \"#utility.yul\":3334:3368   */\n      mstore\n        /* \"#utility.yul\":3411:3425   */\n      swap1\n      iszero\n        /* \"#utility.yul\":3404:3426   */\n      iszero\n        /* \"#utility.yul\":3399:3401   */\n      0x60\n        /* \"#utility.yul\":3384:3402   */\n      dup3\n      add\n        /* \"#utility.yul\":3377:3427   */\n      mstore\n        /* \"#utility.yul\":3243:3246   */\n      0xa0\n        /* \"#utility.yul\":3458:3461   */\n      0x80\n        /* \"#utility.yul\":3443:3462   */\n      dup3\n      add\n        /* \"#utility.yul\":3436:3468   */\n      dup2\n      swap1\n      mstore\n        /* \"#utility.yul\":3505:3506   */\n      0x02\n        /* \"#utility.yul\":3484:3503   */\n      swap1\n      dup3\n      add\n        /* \"#utility.yul\":3477:3507   */\n      mstore\n      shl(0xf3, 0x060f)\n        /* \"#utility.yul\":3538:3541   */\n      0xc0\n        /* \"#utility.yul\":3523:3542   */\n      dup3\n      add\n        /* \"#utility.yul\":3516:3549   */\n      mstore\n        /* \"#utility.yul\":3581:3584   */\n      0xe0\n        /* \"#utility.yul\":3566:3585   */\n      add\n      swap1\n        /* \"#utility.yul\":2916:3591   */\n      jump\t// out\n        /* \"#utility.yul\":3596:3724   */\n    tag_63:\n        /* \"#utility.yul\":3663:3672   */\n      dup2\n      dup2\n      sub\n        /* \"#utility.yul\":3684:3695   */\n      dup2\n      dup2\n      gt\n        /* \"#utility.yul\":3681:3718   */\n      iszero\n      tag_123\n      jumpi\n        /* \"#utility.yul\":3698:3716   */\n      tag_123\n      tag_107\n      jump\t// in\n        /* \"#utility.yul\":4900:5130   */\n    tag_87:\n        /* \"#utility.yul\":4970:4976   */\n      0x00\n        /* \"#utility.yul\":5023:5025   */\n      0x20\n        /* \"#utility.yul\":5011:5020   */\n      dup3\n        /* \"#utility.yul\":5002:5009   */\n      dup5\n        /* \"#utility.yul\":4998:5021   */\n      sub\n        /* \"#utility.yul\":4994:5026   */\n      slt\n        /* \"#utility.yul\":4991:5043   */\n      iszero\n      tag_134\n      jumpi\n        /* \"#utility.yul\":5039:5040   */\n      0x00\n        /* \"#utility.yul\":5036:5037   */\n      0x00\n        /* \"#utility.yul\":5029:5041   */\n      revert\n        /* \"#utility.yul\":4991:5043   */\n    tag_134:\n      pop\n        /* \"#utility.yul\":5084:5100   */\n      mload\n      swap2\n        /* \"#utility.yul\":4900:5130   */\n      swap1\n      pop\n      jump\t// out\n\n    auxdata: 0xa2646970667358221220cb15bfbac71d9037c630a4b0f87efd7b8a302613f72bcd47cc3b76c03cb5a75b64736f6c634300081f0033\n}\n",
				"bytecode": {
					"linkReferences": {},
					"object": "6080604052348015600e575f5ffd5b506040516109f93803806109f9833981016040819052602b916067565b60058054336001600160a01b031991821681179092556006805482166001600160a01b0394909416939093179092555f80549092161790556092565b5f602082840312156076575f5ffd5b81516001600160a01b0381168114608b575f5ffd5b9392505050565b61095a8061009f5f395ff3fe608060405234801561000f575f5ffd5b506004361061007a575f3560e01c8063c127163411610058578063c1271634146100cc578063c25f31df146100e1578063d8a012ea146100f4578063df7d1f02146101b7575f5ffd5b8063486a302e1461007e5780635afce348146100b95780637279d18f146100c3575b5f5ffd5b6100a661008c36600461081b565b6001600160a01b03165f9081526002602052604090205490565b6040519081526020015b60405180910390f35b6004546100a69081565b6100a660015481565b6100df6100da366004610848565b6101ca565b005b6100df6100ef366004610848565b610451565b610179610102366004610848565b604080516080810182525f808252602082018190529181018290526060810191909152505f90815260036020908152604091829020825160808101845281548152600182015492810192909252600201546001600160a01b03811692820192909252600160a01b90910460ff161515606082015290565b6040516100b0919081518152602080830151908201526040808301516001600160a01b03169082015260609182015115159181019190915260800190565b6100df6101c5366004610848565b6105e0565b6004548111156102165760405162461bcd60e51b8152602060048201526012602482015271125b9d985b1a59081c995c5d595cdd08125160721b60448201526064015b60405180910390fd5b5f5f5f9054906101000a90046001600160a01b03166001600160a01b0316636fe8022c6040518163ffffffff1660e01b8152600401606060405180830381865afa158015610266573d5f5f3e3d5ffd5b505050506040513d601f19601f8201168201806040525081019061028a919061085f565b5f85815260036020908152604091829020825160808101845281548152600182015492810192909252600201546001600160a01b03811692820192909252600160a01b90910460ff1615801560608301529194509250905061032e5760405162461bcd60e51b815260206004820152601960248201527f556e737461636b20616c726561647920636f6d706c6574656400000000000000604482015260640161020d565b81816020015161033e919061089e565b42101561037c5760405162461bcd60e51b815260206004820152600c60248201526b50656e64696e672074696d6560a01b604482015260640161020d565b60065460408083015183519151633b06cddd60e11b81526001600160a01b039093169263760d9bba926103b99230929091906001906004016108b7565b5f604051808303815f87803b1580156103d0575f5ffd5b505af11580156103e2573d5f5f3e3d5ffd5b50505050805f015160015f8282546103fa91906108fa565b909155505060016060820152604080820151825191519182526001600160a01b03169084907f33d7f368d340ccf429d060cc8fcc726740eed63aa80f145f07697bd863ca96d99060200160405180910390a3505050565b5f81116104a05760405162461bcd60e51b815260206004820181905260248201527f416d6f756e74206d7573742062652067726561746572207468616e207a65726f604482015260640161020d565b335f908152600260205260409020548111156104f55760405162461bcd60e51b8152602060048201526014602482015273496e73756666696369656e742062616c616e636560601b604482015260640161020d565b610503600480546001019055565b5f61050d60045490565b60408051608081018252848152426020808301918252338385018181525f6060860181815288825260038552878220965187559451600187015590516002958601805495511515600160a01b026001600160a81b03199096166001600160a01b039290921691909117949094179093558252919091529081208054929350849290919061059b9084906108fa565b909155505060408051838152426020820152339183917fd02c07f15cabcd08604fa172b884e48e13e07c090290e75df51569ec5d2390ee910160405180910390a35050565b6006546040516370a0823160e01b81523360048201526001600160a01b03909116906370a0823190602401602060405180830381865afa158015610626573d5f5f3e3d5ffd5b505050506040513d601f19601f8201168201806040525081019061064a919061090d565b8111156106905760405162461bcd60e51b8152602060048201526014602482015273496e73756666696369656e742062616c616e636560601b604482015260640161020d565b6006546040516365aeaa9560e01b815230600482015233602482015282916001600160a01b0316906365aeaa9590604401602060405180830381865afa1580156106dc573d5f5f3e3d5ffd5b505050506040513d601f19601f82011682018060405250810190610700919061090d565b10156107435760405162461bcd60e51b8152602060048201526012602482015271105b1b1bddd85b98d9481c995c5d5a5c995960721b604482015260640161020d565b600654604051633b06cddd60e11b81526001600160a01b039091169063760d9bba9061077a903390309086906001906004016108b7565b5f604051808303815f87803b158015610791575f5ffd5b505af11580156107a3573d5f5f3e3d5ffd5b5050335f90815260026020526040812080548594509092506107c690849061089e565b925050819055508060015f8282546107de919061089e565b909155505060405181815233907fcd4c5e2af7b60703fbb8818059580faaa30188d0e412ee41300d0ec6daf7453f9060200160405180910390a250565b5f6020828403121561082b575f5ffd5b81356001600160a01b0381168114610841575f5ffd5b9392505050565b5f60208284031215610858575f5ffd5b5035919050565b5f5f5f60608486031215610871575f5ffd5b5050815160208301516040909301519094929350919050565b634e487b7160e01b5f52601160045260245ffd5b808201808211156108b1576108b161088a565b92915050565b6001600160a01b0394851681529290931660208301526040820152901515606082015260a06080820181905260029082015261060f60f31b60c082015260e00190565b818103818111156108b1576108b161088a565b5f6020828403121561091d575f5ffd5b505191905056fea2646970667358221220cb15bfbac71d9037c630a4b0f87efd7b8a302613f72bcd47cc3b76c03cb5a75b64736f6c634300081f0033",
					"opcodes": "PUSH1 0x80 PUSH1 0x40 MSTORE CALLVALUE DUP1 ISZERO PUSH1 0xE JUMPI PUSH0 PUSH0 REVERT JUMPDEST POP PUSH1 0x40 MLOAD PUSH2 0x9F9 CODESIZE SUB DUP1 PUSH2 0x9F9 DUP4 CODECOPY DUP2 ADD PUSH1 0x40 DUP2 SWAP1 MSTORE PUSH1 0x2B SWAP2 PUSH1 0x67 JUMP JUMPDEST PUSH1 0x5 DUP1 SLOAD CALLER PUSH1 0x1 PUSH1 0x1 PUSH1 0xA0 SHL SUB NOT SWAP2 DUP3 AND DUP2 OR SWAP1 SWAP3 SSTORE PUSH1 0x6 DUP1 SLOAD DUP3 AND PUSH1 0x1 PUSH1 0x1 PUSH1 0xA0 SHL SUB SWAP5 SWAP1 SWAP5 AND SWAP4 SWAP1 SWAP4 OR SWAP1 SWAP3 SSTORE PUSH0 DUP1 SLOAD SWAP1 SWAP3 AND OR SWAP1 SSTORE PUSH1 0x92 JUMP JUMPDEST PUSH0 PUSH1 0x20 DUP3 DUP5 SUB SLT ISZERO PUSH1 0x76 JUMPI PUSH0 PUSH0 REVERT JUMPDEST DUP2 MLOAD PUSH1 0x1 PUSH1 0x1 PUSH1 0xA0 SHL SUB DUP2 AND DUP2 EQ PUSH1 0x8B JUMPI PUSH0 PUSH0 REVERT JUMPDEST SWAP4 SWAP3 POP POP POP JUMP JUMPDEST PUSH2 0x95A DUP1 PUSH2 0x9F PUSH0 CODECOPY PUSH0 RETURN INVALID PUSH1 0x80 PUSH1 0x40 MSTORE CALLVALUE DUP1 ISZERO PUSH2 0xF JUMPI PUSH0 PUSH0 REVERT JUMPDEST POP PUSH1 0x4 CALLDATASIZE LT PUSH2 0x7A JUMPI PUSH0 CALLDATALOAD PUSH1 0xE0 SHR DUP1 PUSH4 0xC1271634 GT PUSH2 0x58 JUMPI DUP1 PUSH4 0xC1271634 EQ PUSH2 0xCC JUMPI DUP1 PUSH4 0xC25F31DF EQ PUSH2 0xE1 JUMPI DUP1 PUSH4 0xD8A012EA EQ PUSH2 0xF4 JUMPI DUP1 PUSH4 0xDF7D1F02 EQ PUSH2 0x1B7 JUMPI PUSH0 PUSH0 REVERT JUMPDEST DUP1 PUSH4 0x486A302E EQ PUSH2 0x7E JUMPI DUP1 PUSH4 0x5AFCE348 EQ PUSH2 0xB9 JUMPI DUP1 PUSH4 0x7279D18F EQ PUSH2 0xC3 JUMPI JUMPDEST PUSH0 PUSH0 REVERT JUMPDEST PUSH2 0xA6 PUSH2 0x8C CALLDATASIZE PUSH1 0x4 PUSH2 0x81B JUMP JUMPDEST PUSH1 0x1 PUSH1 0x1 PUSH1 0xA0 SHL SUB AND PUSH0 SWAP1 DUP2 MSTORE PUSH1 0x2 PUSH1 0x20 MSTORE PUSH1 0x40 SWAP1 KECCAK256 SLOAD SWAP1 JUMP JUMPDEST PUSH1 0x40 MLOAD SWAP1 DUP2 MSTORE PUSH1 0x20 ADD JUMPDEST PUSH1 0x40 MLOAD DUP1 SWAP2 SUB SWAP1 RETURN JUMPDEST PUSH1 0x4 SLOAD PUSH2 0xA6 SWAP1 DUP2 JUMP JUMPDEST PUSH2 0xA6 PUSH1 0x1 SLOAD DUP2 JUMP JUMPDEST PUSH2 0xDF PUSH2 0xDA CALLDATASIZE PUSH1 0x4 PUSH2 0x848 JUMP JUMPDEST PUSH2 0x1CA JUMP JUMPDEST STOP JUMPDEST PUSH2 0xDF PUSH2 0xEF CALLDATASIZE PUSH1 0x4 PUSH2 0x848 JUMP JUMPDEST PUSH2 0x451 JUMP JUMPDEST PUSH2 0x179 PUSH2 0x102 CALLDATASIZE PUSH1 0x4 PUSH2 0x848 JUMP JUMPDEST PUSH1 0x40 DUP1 MLOAD PUSH1 0x80 DUP2 ADD DUP3 MSTORE PUSH0 DUP1 DUP3 MSTORE PUSH1 0x20 DUP3 ADD DUP2 SWAP1 MSTORE SWAP2 DUP2 ADD DUP3 SWAP1 MSTORE PUSH1 0x60 DUP2 ADD SWAP2 SWAP1 SWAP2 MSTORE POP PUSH0 SWAP1 DUP2 MSTORE PUSH1 0x3 PUSH1 0x20 SWAP1 DUP2 MSTORE PUSH1 0x40 SWAP2 DUP3 SWAP1 KECCAK256 DUP3 MLOAD PUSH1 0x80 DUP2 ADD DUP5 MSTORE DUP2 SLOAD DUP2 MSTORE PUSH1 0x1 DUP3 ADD SLOAD SWAP3 DUP2 ADD SWAP3 SWAP1 SWAP3 MSTORE PUSH1 0x2 ADD SLOAD PUSH1 0x1 PUSH1 0x1 PUSH1 0xA0 SHL SUB DUP2 AND SWAP3 DUP3 ADD SWAP3 SWAP1 SWAP3 MSTORE PUSH1 0x1 PUSH1 0xA0 SHL SWAP1 SWAP2 DIV PUSH1 0xFF AND ISZERO ISZERO PUSH1 0x60 DUP3 ADD MSTORE SWAP1 JUMP JUMPDEST PUSH1 0x40 MLOAD PUSH2 0xB0 SWAP2 SWAP1 DUP2 MLOAD DUP2 MSTORE PUSH1 0x20 DUP1 DUP4 ADD MLOAD SWAP1 DUP3 ADD MSTORE PUSH1 0x40 DUP1 DUP4 ADD MLOAD PUSH1 0x1 PUSH1 0x1 PUSH1 0xA0 SHL SUB AND SWAP1 DUP3 ADD MSTORE PUSH1 0x60 SWAP2 DUP3 ADD MLOAD ISZERO ISZERO SWAP2 DUP2 ADD SWAP2 SWAP1 SWAP2 MSTORE PUSH1 0x80 ADD SWAP1 JUMP JUMPDEST PUSH2 0xDF PUSH2 0x1C5 CALLDATASIZE PUSH1 0x4 PUSH2 0x848 JUMP JUMPDEST PUSH2 0x5E0 JUMP JUMPDEST PUSH1 0x4 SLOAD DUP2 GT ISZERO PUSH2 0x216 JUMPI PUSH1 0x40 MLOAD PUSH3 0x461BCD PUSH1 0xE5 SHL DUP2 MSTORE PUSH1 0x20 PUSH1 0x4 DUP3 ADD MSTORE PUSH1 0x12 PUSH1 0x24 DUP3 ADD MSTORE PUSH18 0x125B9D985B1A59081C995C5D595CDD081251 PUSH1 0x72 SHL PUSH1 0x44 DUP3 ADD MSTORE PUSH1 0x64 ADD JUMPDEST PUSH1 0x40 MLOAD DUP1 SWAP2 SUB SWAP1 REVERT JUMPDEST PUSH0 PUSH0 PUSH0 SWAP1 SLOAD SWAP1 PUSH2 0x100 EXP SWAP1 DIV PUSH1 0x1 PUSH1 0x1 PUSH1 0xA0 SHL SUB AND PUSH1 0x1 PUSH1 0x1 PUSH1 0xA0 SHL SUB AND PUSH4 0x6FE8022C PUSH1 0x40 MLOAD DUP2 PUSH4 0xFFFFFFFF AND PUSH1 0xE0 SHL DUP2 MSTORE PUSH1 0x4 ADD PUSH1 0x60 PUSH1 0x40 MLOAD DUP1 DUP4 SUB DUP2 DUP7 GAS STATICCALL ISZERO DUP1 ISZERO PUSH2 0x266 JUMPI RETURNDATASIZE PUSH0 PUSH0 RETURNDATACOPY RETURNDATASIZE PUSH0 REVERT JUMPDEST POP POP POP POP PUSH1 0x40 MLOAD RETURNDATASIZE PUSH1 0x1F NOT PUSH1 0x1F DUP3 ADD AND DUP3 ADD DUP1 PUSH1 0x40 MSTORE POP DUP2 ADD SWAP1 PUSH2 0x28A SWAP2 SWAP1 PUSH2 0x85F JUMP JUMPDEST PUSH0 DUP6 DUP2 MSTORE PUSH1 0x3 PUSH1 0x20 SWAP1 DUP2 MSTORE PUSH1 0x40 SWAP2 DUP3 SWAP1 KECCAK256 DUP3 MLOAD PUSH1 0x80 DUP2 ADD DUP5 MSTORE DUP2 SLOAD DUP2 MSTORE PUSH1 0x1 DUP3 ADD SLOAD SWAP3 DUP2 ADD SWAP3 SWAP1 SWAP3 MSTORE PUSH1 0x2 ADD SLOAD PUSH1 0x1 PUSH1 0x1 PUSH1 0xA0 SHL SUB DUP2 AND SWAP3 DUP3 ADD SWAP3 SWAP1 SWAP3 MSTORE PUSH1 0x1 PUSH1 0xA0 SHL SWAP1 SWAP2 DIV PUSH1 0xFF AND ISZERO DUP1 ISZERO PUSH1 0x60 DUP4 ADD MSTORE SWAP2 SWAP5 POP SWAP3 POP SWAP1 POP PUSH2 0x32E JUMPI PUSH1 0x40 MLOAD PUSH3 0x461BCD PUSH1 0xE5 SHL DUP2 MSTORE PUSH1 0x20 PUSH1 0x4 DUP3 ADD MSTORE PUSH1 0x19 PUSH1 0x24 DUP3 ADD MSTORE PUSH32 0x556E737461636B20616C726561647920636F6D706C6574656400000000000000 PUSH1 0x44 DUP3 ADD MSTORE PUSH1 0x64 ADD PUSH2 0x20D JUMP JUMPDEST DUP2 DUP2 PUSH1 0x20 ADD MLOAD PUSH2 0x33E SWAP2 SWAP1 PUSH2 0x89E JUMP JUMPDEST TIMESTAMP LT ISZERO PUSH2 0x37C JUMPI PUSH1 0x40 MLOAD PUSH3 0x461BCD PUSH1 0xE5 SHL DUP2 MSTORE PUSH1 0x20 PUSH1 0x4 DUP3 ADD MSTORE PUSH1 0xC PUSH1 0x24 DUP3 ADD MSTORE PUSH12 0x50656E64696E672074696D65 PUSH1 0xA0 SHL PUSH1 0x44 DUP3 ADD MSTORE PUSH1 0x64 ADD PUSH2 0x20D JUMP JUMPDEST PUSH1 0x6 SLOAD PUSH1 0x40 DUP1 DUP4 ADD MLOAD DUP4 MLOAD SWAP2 MLOAD PUSH4 0x3B06CDDD PUSH1 0xE1 SHL DUP2 MSTORE PUSH1 0x1 PUSH1 0x1 PUSH1 0xA0 SHL SUB SWAP1 SWAP4 AND SWAP3 PUSH4 0x760D9BBA SWAP3 PUSH2 0x3B9 SWAP3 ADDRESS SWAP3 SWAP1 SWAP2 SWAP1 PUSH1 0x1 SWAP1 PUSH1 0x4 ADD PUSH2 0x8B7 JUMP JUMPDEST PUSH0 PUSH1 0x40 MLOAD DUP1 DUP4 SUB DUP2 PUSH0 DUP8 DUP1 EXTCODESIZE ISZERO DUP1 ISZERO PUSH2 0x3D0 JUMPI PUSH0 PUSH0 REVERT JUMPDEST POP GAS CALL ISZERO DUP1 ISZERO PUSH2 0x3E2 JUMPI RETURNDATASIZE PUSH0 PUSH0 RETURNDATACOPY RETURNDATASIZE PUSH0 REVERT JUMPDEST POP POP POP POP DUP1 PUSH0 ADD MLOAD PUSH1 0x1 PUSH0 DUP3 DUP3 SLOAD PUSH2 0x3FA SWAP2 SWAP1 PUSH2 0x8FA JUMP JUMPDEST SWAP1 SWAP2 SSTORE POP POP PUSH1 0x1 PUSH1 0x60 DUP3 ADD MSTORE PUSH1 0x40 DUP1 DUP3 ADD MLOAD DUP3 MLOAD SWAP2 MLOAD SWAP2 DUP3 MSTORE PUSH1 0x1 PUSH1 0x1 PUSH1 0xA0 SHL SUB AND SWAP1 DUP5 SWAP1 PUSH32 0x33D7F368D340CCF429D060CC8FCC726740EED63AA80F145F07697BD863CA96D9 SWAP1 PUSH1 0x20 ADD PUSH1 0x40 MLOAD DUP1 SWAP2 SUB SWAP1 LOG3 POP POP POP JUMP JUMPDEST PUSH0 DUP2 GT PUSH2 0x4A0 JUMPI PUSH1 0x40 MLOAD PUSH3 0x461BCD PUSH1 0xE5 SHL DUP2 MSTORE PUSH1 0x20 PUSH1 0x4 DUP3 ADD DUP2 SWAP1 MSTORE PUSH1 0x24 DUP3 ADD MSTORE PUSH32 0x416D6F756E74206D7573742062652067726561746572207468616E207A65726F PUSH1 0x44 DUP3 ADD MSTORE PUSH1 0x64 ADD PUSH2 0x20D JUMP JUMPDEST CALLER PUSH0 SWAP1 DUP2 MSTORE PUSH1 0x2 PUSH1 0x20 MSTORE PUSH1 0x40 SWAP1 KECCAK256 SLOAD DUP2 GT ISZERO PUSH2 0x4F5 JUMPI PUSH1 0x40 MLOAD PUSH3 0x461BCD PUSH1 0xE5 SHL DUP2 MSTORE PUSH1 0x20 PUSH1 0x4 DUP3 ADD MSTORE PUSH1 0x14 PUSH1 0x24 DUP3 ADD MSTORE PUSH20 0x496E73756666696369656E742062616C616E6365 PUSH1 0x60 SHL PUSH1 0x44 DUP3 ADD MSTORE PUSH1 0x64 ADD PUSH2 0x20D JUMP JUMPDEST PUSH2 0x503 PUSH1 0x4 DUP1 SLOAD PUSH1 0x1 ADD SWAP1 SSTORE JUMP JUMPDEST PUSH0 PUSH2 0x50D PUSH1 0x4 SLOAD SWAP1 JUMP JUMPDEST PUSH1 0x40 DUP1 MLOAD PUSH1 0x80 DUP2 ADD DUP3 MSTORE DUP5 DUP2 MSTORE TIMESTAMP PUSH1 0x20 DUP1 DUP4 ADD SWAP2 DUP3 MSTORE CALLER DUP4 DUP6 ADD DUP2 DUP2 MSTORE PUSH0 PUSH1 0x60 DUP7 ADD DUP2 DUP2 MSTORE DUP9 DUP3 MSTORE PUSH1 0x3 DUP6 MSTORE DUP8 DUP3 KECCAK256 SWAP7 MLOAD DUP8 SSTORE SWAP5 MLOAD PUSH1 0x1 DUP8 ADD SSTORE SWAP1 MLOAD PUSH1 0x2 SWAP6 DUP7 ADD DUP1 SLOAD SWAP6 MLOAD ISZERO ISZERO PUSH1 0x1 PUSH1 0xA0 SHL MUL PUSH1 0x1 PUSH1 0x1 PUSH1 0xA8 SHL SUB NOT SWAP1 SWAP7 AND PUSH1 0x1 PUSH1 0x1 PUSH1 0xA0 SHL SUB SWAP3 SWAP1 SWAP3 AND SWAP2 SWAP1 SWAP2 OR SWAP5 SWAP1 SWAP5 OR SWAP1 SWAP4 SSTORE DUP3 MSTORE SWAP2 SWAP1 SWAP2 MSTORE SWAP1 DUP2 KECCAK256 DUP1 SLOAD SWAP3 SWAP4 POP DUP5 SWAP3 SWAP1 SWAP2 SWAP1 PUSH2 0x59B SWAP1 DUP5 SWAP1 PUSH2 0x8FA JUMP JUMPDEST SWAP1 SWAP2 SSTORE POP POP PUSH1 0x40 DUP1 MLOAD DUP4 DUP2 MSTORE TIMESTAMP PUSH1 0x20 DUP3 ADD MSTORE CALLER SWAP2 DUP4 SWAP2 PUSH32 0xD02C07F15CABCD08604FA172B884E48E13E07C090290E75DF51569EC5D2390EE SWAP2 ADD PUSH1 0x40 MLOAD DUP1 SWAP2 SUB SWAP1 LOG3 POP POP JUMP JUMPDEST PUSH1 0x6 SLOAD PUSH1 0x40 MLOAD PUSH4 0x70A08231 PUSH1 0xE0 SHL DUP2 MSTORE CALLER PUSH1 0x4 DUP3 ADD MSTORE PUSH1 0x1 PUSH1 0x1 PUSH1 0xA0 SHL SUB SWAP1 SWAP2 AND SWAP1 PUSH4 0x70A08231 SWAP1 PUSH1 0x24 ADD PUSH1 0x20 PUSH1 0x40 MLOAD DUP1 DUP4 SUB DUP2 DUP7 GAS STATICCALL ISZERO DUP1 ISZERO PUSH2 0x626 JUMPI RETURNDATASIZE PUSH0 PUSH0 RETURNDATACOPY RETURNDATASIZE PUSH0 REVERT JUMPDEST POP POP POP POP PUSH1 0x40 MLOAD RETURNDATASIZE PUSH1 0x1F NOT PUSH1 0x1F DUP3 ADD AND DUP3 ADD DUP1 PUSH1 0x40 MSTORE POP DUP2 ADD SWAP1 PUSH2 0x64A SWAP2 SWAP1 PUSH2 0x90D JUMP JUMPDEST DUP2 GT ISZERO PUSH2 0x690 JUMPI PUSH1 0x40 MLOAD PUSH3 0x461BCD PUSH1 0xE5 SHL DUP2 MSTORE PUSH1 0x20 PUSH1 0x4 DUP3 ADD MSTORE PUSH1 0x14 PUSH1 0x24 DUP3 ADD MSTORE PUSH20 0x496E73756666696369656E742062616C616E6365 PUSH1 0x60 SHL PUSH1 0x44 DUP3 ADD MSTORE PUSH1 0x64 ADD PUSH2 0x20D JUMP JUMPDEST PUSH1 0x6 SLOAD PUSH1 0x40 MLOAD PUSH4 0x65AEAA95 PUSH1 0xE0 SHL DUP2 MSTORE ADDRESS PUSH1 0x4 DUP3 ADD MSTORE CALLER PUSH1 0x24 DUP3 ADD MSTORE DUP3 SWAP2 PUSH1 0x1 PUSH1 0x1 PUSH1 0xA0 SHL SUB AND SWAP1 PUSH4 0x65AEAA95 SWAP1 PUSH1 0x44 ADD PUSH1 0x20 PUSH1 0x40 MLOAD DUP1 DUP4 SUB DUP2 DUP7 GAS STATICCALL ISZERO DUP1 ISZERO PUSH2 0x6DC JUMPI RETURNDATASIZE PUSH0 PUSH0 RETURNDATACOPY RETURNDATASIZE PUSH0 REVERT JUMPDEST POP POP POP POP PUSH1 0x40 MLOAD RETURNDATASIZE PUSH1 0x1F NOT PUSH1 0x1F DUP3 ADD AND DUP3 ADD DUP1 PUSH1 0x40 MSTORE POP DUP2 ADD SWAP1 PUSH2 0x700 SWAP2 SWAP1 PUSH2 0x90D JUMP JUMPDEST LT ISZERO PUSH2 0x743 JUMPI PUSH1 0x40 MLOAD PUSH3 0x461BCD PUSH1 0xE5 SHL DUP2 MSTORE PUSH1 0x20 PUSH1 0x4 DUP3 ADD MSTORE PUSH1 0x12 PUSH1 0x24 DUP3 ADD MSTORE PUSH18 0x105B1B1BDDD85B98D9481C995C5D5A5C9959 PUSH1 0x72 SHL PUSH1 0x44 DUP3 ADD MSTORE PUSH1 0x64 ADD PUSH2 0x20D JUMP JUMPDEST PUSH1 0x6 SLOAD PUSH1 0x40 MLOAD PUSH4 0x3B06CDDD PUSH1 0xE1 SHL DUP2 MSTORE PUSH1 0x1 PUSH1 0x1 PUSH1 0xA0 SHL SUB SWAP1 SWAP2 AND SWAP1 PUSH4 0x760D9BBA SWAP1 PUSH2 0x77A SWAP1 CALLER SWAP1 ADDRESS SWAP1 DUP7 SWAP1 PUSH1 0x1 SWAP1 PUSH1 0x4 ADD PUSH2 0x8B7 JUMP JUMPDEST PUSH0 PUSH1 0x40 MLOAD DUP1 DUP4 SUB DUP2 PUSH0 DUP8 DUP1 EXTCODESIZE ISZERO DUP1 ISZERO PUSH2 0x791 JUMPI PUSH0 PUSH0 REVERT JUMPDEST POP GAS CALL ISZERO DUP1 ISZERO PUSH2 0x7A3 JUMPI RETURNDATASIZE PUSH0 PUSH0 RETURNDATACOPY RETURNDATASIZE PUSH0 REVERT JUMPDEST POP POP CALLER PUSH0 SWAP1 DUP2 MSTORE PUSH1 0x2 PUSH1 0x20 MSTORE PUSH1 0x40 DUP2 KECCAK256 DUP1 SLOAD DUP6 SWAP5 POP SWAP1 SWAP3 POP PUSH2 0x7C6 SWAP1 DUP5 SWAP1 PUSH2 0x89E JUMP JUMPDEST SWAP3 POP POP DUP2 SWAP1 SSTORE POP DUP1 PUSH1 0x1 PUSH0 DUP3 DUP3 SLOAD PUSH2 0x7DE SWAP2 SWAP1 PUSH2 0x89E JUMP JUMPDEST SWAP1 SWAP2 SSTORE POP POP PUSH1 0x40 MLOAD DUP2 DUP2 MSTORE CALLER SWAP1 PUSH32 0xCD4C5E2AF7B60703FBB8818059580FAAA30188D0E412EE41300D0EC6DAF7453F SWAP1 PUSH1 0x20 ADD PUSH1 0x40 MLOAD DUP1 SWAP2 SUB SWAP1 LOG2 POP JUMP JUMPDEST PUSH0 PUSH1 0x20 DUP3 DUP5 SUB SLT ISZERO PUSH2 0x82B JUMPI PUSH0 PUSH0 REVERT JUMPDEST DUP2 CALLDATALOAD PUSH1 0x1 PUSH1 0x1 PUSH1 0xA0 SHL SUB DUP2 AND DUP2 EQ PUSH2 0x841 JUMPI PUSH0 PUSH0 REVERT JUMPDEST SWAP4 SWAP3 POP POP POP JUMP JUMPDEST PUSH0 PUSH1 0x20 DUP3 DUP5 SUB SLT ISZERO PUSH2 0x858 JUMPI PUSH0 PUSH0 REVERT JUMPDEST POP CALLDATALOAD SWAP2 SWAP1 POP JUMP JUMPDEST PUSH0 PUSH0 PUSH0 PUSH1 0x60 DUP5 DUP7 SUB SLT ISZERO PUSH2 0x871 JUMPI PUSH0 PUSH0 REVERT JUMPDEST POP POP DUP2 MLOAD PUSH1 0x20 DUP4 ADD MLOAD PUSH1 0x40 SWAP1 SWAP4 ADD MLOAD SWAP1 SWAP5 SWAP3 SWAP4 POP SWAP2 SWAP1 POP JUMP JUMPDEST PUSH4 0x4E487B71 PUSH1 0xE0 SHL PUSH0 MSTORE PUSH1 0x11 PUSH1 0x4 MSTORE PUSH1 0x24 PUSH0 REVERT JUMPDEST DUP1 DUP3 ADD DUP1 DUP3 GT ISZERO PUSH2 0x8B1 JUMPI PUSH2 0x8B1 PUSH2 0x88A JUMP JUMPDEST SWAP3 SWAP2 POP POP JUMP JUMPDEST PUSH1 0x1 PUSH1 0x1 PUSH1 0xA0 SHL SUB SWAP5 DUP6 AND DUP2 MSTORE SWAP3 SWAP1 SWAP4 AND PUSH1 0x20 DUP4 ADD MSTORE PUSH1 0x40 DUP3 ADD MSTORE SWAP1 ISZERO ISZERO PUSH1 0x60 DUP3 ADD MSTORE PUSH1 0xA0 PUSH1 0x80 DUP3 ADD DUP2 SWAP1 MSTORE PUSH1 0x2 SWAP1 DUP3 ADD MSTORE PUSH2 0x60F PUSH1 0xF3 SHL PUSH1 0xC0 DUP3 ADD MSTORE PUSH1 0xE0 ADD SWAP1 JUMP JUMPDEST DUP2 DUP2 SUB DUP2 DUP2 GT ISZERO PUSH2 0x8B1 JUMPI PUSH2 0x8B1 PUSH2 0x88A JUMP JUMPDEST PUSH0 PUSH1 0x20 DUP3 DUP5 SUB SLT ISZERO PUSH2 0x91D JUMPI PUSH0 PUSH0 REVERT JUMPDEST POP MLOAD SWAP2 SWAP1 POP JUMP INVALID LOG2 PUSH5 0x6970667358 0x22 SLT KECCAK256 0xCB ISZERO 0xBF 0xBA 0xC7 SAR SWAP1 CALLDATACOPY 0xC6 ADDRESS LOG4 0xB0 EXTCALL PUSH31 0xFD7B8A302613F72BCD47CC3B76C03CB5A75B64736F6C634300081F00330000 "
				},
				"gasEstimates": {
					"creation": {
						"codeDepositCost": "478800",
						"executionCost": "infinite",
						"totalCost": "infinite"
					},
					"external": {
						"getPendingUnstackOf(uint256)": "7096",
						"getStackOf(address)": "2489",
						"pendingUnstackCounter()": "2309",
						"stacking(uint256)": "infinite",
						"totalStack()": "2328",
						"unStackComplete(uint256)": "infinite",
						"unStackRequest(uint256)": "124007"
					}
				},
				"methodIdentifiers": {
					"getPendingUnstackOf(uint256)": "d8a012ea",
					"getStackOf(address)": "486a302e",
					"pendingUnstackCounter()": "5afce348",
					"stacking(uint256)": "df7d1f02",
					"totalStack()": "7279d18f",
					"unStackComplete(uint256)": "c1271634",
					"unStackRequest(uint256)": "c25f31df"
				}
			},
			"storageLayout": {
				"storage": [
					{
						"astId": 4305,
						"contract": "contracts/staking.sol:Stacking",
						"label": "daoInterface",
						"offset": 0,
						"slot": "0",
						"type": "t_contract(DaoInterface)4298"
					},
					{
						"astId": 4307,
						"contract": "contracts/staking.sol:Stacking",
						"label": "totalStack",
						"offset": 0,
						"slot": "1",
						"type": "t_uint256"
					},
					{
						"astId": 4311,
						"contract": "contracts/staking.sol:Stacking",
						"label": "_stackOf",
						"offset": 0,
						"slot": "2",
						"type": "t_mapping(t_address,t_uint256)"
					},
					{
						"astId": 4325,
						"contract": "contracts/staking.sol:Stacking",
						"label": "_pendingUnstack",
						"offset": 0,
						"slot": "3",
						"type": "t_mapping(t_uint256,t_struct(UnStackInfo)4320_storage)"
					},
					{
						"astId": 4328,
						"contract": "contracts/staking.sol:Stacking",
						"label": "pendingUnstackCounter",
						"offset": 0,
						"slot": "4",
						"type": "t_struct(Counter)3372_storage"
					},
					{
						"astId": 4354,
						"contract": "contracts/staking.sol:Stacking",
						"label": "_daoAddress",
						"offset": 0,
						"slot": "5",
						"type": "t_address"
					},
					{
						"astId": 4356,
						"contract": "contracts/staking.sol:Stacking",
						"label": "_m2cAddress",
						"offset": 0,
						"slot": "6",
						"type": "t_address"
					}
				],
				"types": {
					"t_address": {
						"encoding": "inplace",
						"label": "address",
						"numberOfBytes": "20"
					},
					"t_bool": {
						"encoding": "inplace",
						"label": "bool",
						"numberOfBytes": "1"
					},
					"t_contract(DaoInterface)4298": {
						"encoding": "inplace",
						"label": "contract DaoInterface",
						"numberOfBytes": "20"
					},
					"t_mapping(t_address,t_uint256)": {
						"encoding": "mapping",
						"key": "t_address",
						"label": "mapping(address => uint256)",
						"numberOfBytes": "32",
						"value": "t_uint256"
					},
					"t_mapping(t_uint256,t_struct(UnStackInfo)4320_storage)": {
						"encoding": "mapping",
						"key": "t_uint256",
						"label": "mapping(uint256 => struct Stacking.UnStackInfo)",
						"numberOfBytes": "32",
						"value": "t_struct(UnStackInfo)4320_storage"
					},
					"t_struct(Counter)3372_storage": {
						"encoding": "inplace",
						"label": "struct Counters.Counter",
						"members": [
							{
								"astId": 3371,
								"contract": "contracts/staking.sol:Stacking",
								"label": "_value",
								"offset": 0,
								"slot": "0",
								"type": "t_uint256"
							}
						],
						"numberOfBytes": "32"
					},
					"t_struct(UnStackInfo)4320_storage": {
						"encoding": "inplace",
						"label": "struct Stacking.UnStackInfo",
						"members": [
							{
								"astId": 4313,
								"contract": "contracts/staking.sol:Stacking",
								"label": "amount",
								"offset": 0,
								"slot": "0",
								"type": "t_uint256"
							},
							{
								"astId": 4315,
								"contract": "contracts/staking.sol:Stacking",
								"label": "startAt",
								"offset": 0,
								"slot": "1",
								"type": "t_uint256"
							},
							{
								"astId": 4317,
								"contract": "contracts/staking.sol:Stacking",
								"label": "recipient",
								"offset": 0,
								"slot": "2",
								"type": "t_address"
							},
							{
								"astId": 4319,
								"contract": "contracts/staking.sol:Stacking",
								"label": "completed",
								"offset": 20,
								"slot": "2",
								"type": "t_bool"
							}
						],
						"numberOfBytes": "96"
					},
					"t_uint256": {
						"encoding": "inplace",
						"label": "uint256",
						"numberOfBytes": "32"
					}
				}
			},
			"userdoc": {
				"kind": "user",
				"methods": {},
				"version": 1
			}
		}
	}
}