{
	"@erc725/smart-contracts-v8/contracts/ERC725Y.sol": {
		"ERC725Y": {
			"abi": [
				{
					"inputs": [
						{
							"internalType": "address",
							"name": "initialOwner",
							"type": "address"
						}
					],
					"stateMutability": "payable",
					"type": "constructor"
				},
				{
					"inputs": [],
					"name": "ERC725Y_DataKeysValuesEmptyArray",
					"type": "error"
				},
				{
					"inputs": [],
					"name": "ERC725Y_DataKeysValuesLengthMismatch",
					"type": "error"
				},
				{
					"inputs": [],
					"name": "ERC725Y_MsgValueDisallowed",
					"type": "error"
				},
				{
					"inputs": [],
					"name": "OwnableCannotSetZeroAddressAsOwner",
					"type": "error"
				},
				{
					"anonymous": false,
					"inputs": [
						{
							"indexed": true,
							"internalType": "bytes32",
							"name": "dataKey",
							"type": "bytes32"
						},
						{
							"indexed": false,
							"internalType": "bytes",
							"name": "dataValue",
							"type": "bytes"
						}
					],
					"name": "DataChanged",
					"type": "event"
				},
				{
					"anonymous": false,
					"inputs": [
						{
							"indexed": true,
							"internalType": "address",
							"name": "previousOwner",
							"type": "address"
						},
						{
							"indexed": true,
							"internalType": "address",
							"name": "newOwner",
							"type": "address"
						}
					],
					"name": "OwnershipTransferred",
					"type": "event"
				},
				{
					"inputs": [
						{
							"internalType": "bytes32",
							"name": "dataKey",
							"type": "bytes32"
						}
					],
					"name": "getData",
					"outputs": [
						{
							"internalType": "bytes",
							"name": "dataValue",
							"type": "bytes"
						}
					],
					"stateMutability": "view",
					"type": "function"
				},
				{
					"inputs": [
						{
							"internalType": "bytes32[]",
							"name": "dataKeys",
							"type": "bytes32[]"
						}
					],
					"name": "getDataBatch",
					"outputs": [
						{
							"internalType": "bytes[]",
							"name": "dataValues",
							"type": "bytes[]"
						}
					],
					"stateMutability": "view",
					"type": "function"
				},
				{
					"inputs": [],
					"name": "owner",
					"outputs": [
						{
							"internalType": "address",
							"name": "",
							"type": "address"
						}
					],
					"stateMutability": "view",
					"type": "function"
				},
				{
					"inputs": [],
					"name": "renounceOwnership",
					"outputs": [],
					"stateMutability": "nonpayable",
					"type": "function"
				},
				{
					"inputs": [
						{
							"internalType": "bytes32",
							"name": "dataKey",
							"type": "bytes32"
						},
						{
							"internalType": "bytes",
							"name": "dataValue",
							"type": "bytes"
						}
					],
					"name": "setData",
					"outputs": [],
					"stateMutability": "payable",
					"type": "function"
				},
				{
					"inputs": [
						{
							"internalType": "bytes32[]",
							"name": "dataKeys",
							"type": "bytes32[]"
						},
						{
							"internalType": "bytes[]",
							"name": "dataValues",
							"type": "bytes[]"
						}
					],
					"name": "setDataBatch",
					"outputs": [],
					"stateMutability": "payable",
					"type": "function"
				},
				{
					"inputs": [
						{
							"internalType": "bytes4",
							"name": "interfaceId",
							"type": "bytes4"
						}
					],
					"name": "supportsInterface",
					"outputs": [
						{
							"internalType": "bool",
							"name": "",
							"type": "bool"
						}
					],
					"stateMutability": "view",
					"type": "function"
				},
				{
					"inputs": [
						{
							"internalType": "address",
							"name": "newOwner",
							"type": "address"
						}
					],
					"name": "transferOwnership",
					"outputs": [],
					"stateMutability": "nonpayable",
					"type": "function"
				}
			],
			"devdoc": {
				"author": "Fabian Vogelsteller <fabian@lukso.network> and <CJ42>, <YamenMerhi>, <B00ste>, <SkimaHarvey>",
				"details": "ERC725Y provides the ability to set arbitrary data key/value pairs that can be changed over time. It is intended to standardise certain data key/value pairs to allow automated read and writes from/to the contract storage.",
				"errors": {
					"ERC725Y_DataKeysValuesEmptyArray()": [
						{
							"details": "Reverts when one of the array parameter provided to {setDataBatch} function is an empty array."
						}
					],
					"ERC725Y_DataKeysValuesLengthMismatch()": [
						{
							"details": "Reverts when there is not the same number of elements in the `datakeys` and `dataValues` array parameters provided when calling the {setDataBatch} function."
						}
					],
					"ERC725Y_MsgValueDisallowed()": [
						{
							"details": "Reverts when sending value to the {setData} or {setDataBatch} function."
						}
					],
					"OwnableCannotSetZeroAddressAsOwner()": [
						{
							"details": "Reverts when trying to set `address(0)` as the contract owner when deploying the contract or initializing it."
						}
					]
				},
				"events": {
					"DataChanged(bytes32,bytes)": {
						"details": "Emitted when data at a specific `dataKey` was changed to a new value `dataValue`.",
						"params": {
							"dataKey": "The data key for which a bytes value is set.",
							"dataValue": "The value to set for the given data key."
						}
					}
				},
				"kind": "dev",
				"methods": {
					"constructor": {
						"custom:requirements": "- `initialOwner` CANNOT be the zero address.",
						"details": "Deploy a new ERC725Y contract with the provided `initialOwner` as the contract {owner}.",
						"params": {
							"initialOwner": "the owner of the contract."
						}
					},
					"getData(bytes32)": {
						"details": "Get in the ERC725Y storage the bytes data stored at a specific data key `dataKey`.",
						"params": {
							"dataKey": "The data key for which to retrieve the value."
						},
						"returns": {
							"dataValue": "The bytes value stored under the specified data key."
						}
					},
					"getDataBatch(bytes32[])": {
						"details": "Get in the ERC725Y storage the bytes data stored at multiple data keys `dataKeys`.",
						"params": {
							"dataKeys": "The array of keys which values to retrieve"
						},
						"returns": {
							"dataValues": "The array of data stored at multiple keys"
						}
					},
					"owner()": {
						"details": "Returns the address of the current owner."
					},
					"renounceOwnership()": {
						"details": "Leaves the contract without owner. It will not be possible to call `onlyOwner` functions. Can only be called by the current owner. NOTE: Renouncing ownership will leave the contract without an owner, thereby disabling any functionality that is only available to the owner."
					},
					"setData(bytes32,bytes)": {
						"custom:events": "{DataChanged} event.",
						"custom:requirements": "- SHOULD only be callable by the {owner}.",
						"custom:warning": "**Note for developers:** despite the fact that this function is set as `payable`, the function is not intended to receive value (= native tokens). **An additional check has been implemented to ensure that `msg.value` sent was equal to 0**. If you want to allow this function to receive value in your inheriting contract, this function can be overriden to remove this check.",
						"details": "Sets a single bytes value `dataValue` in the ERC725Y storage for a specific data key `dataKey`. The function is marked as payable to enable flexibility on child contracts. For instance to implement a fee mechanism for setting specific data.",
						"params": {
							"dataKey": "The data key for which to set a new value.",
							"dataValue": "The new bytes value to set."
						}
					},
					"setDataBatch(bytes32[],bytes[])": {
						"custom:events": "{DataChanged} event **for each data key/value pair set**.",
						"custom:requirements": "- SHOULD only be callable by the {owner} of the contract.",
						"custom:warning": "**Note for developers:** despite the fact that this function is set as `payable`, the function is not intended to receive value (= native tokens). **An additional check has been implemented to ensure that `msg.value` sent was equal to 0**. If you want to allow this function to receive value in your inheriting contract, this function can be overriden to remove this check.",
						"details": "Batch data setting function that behaves the same as {setData} but allowing to set multiple data key/value pairs in the ERC725Y storage in the same transaction.",
						"params": {
							"dataKeys": "An array of data keys to set bytes values for.",
							"dataValues": "An array of bytes values to set for each `dataKeys`."
						}
					},
					"supportsInterface(bytes4)": {
						"details": "See {IERC165-supportsInterface}."
					},
					"transferOwnership(address)": {
						"details": "Transfers ownership of the contract to a new account (`newOwner`). Can only be called by the current owner."
					}
				},
				"stateVariables": {
					"_store": {
						"details": "Map `bytes32` data keys to their `bytes` data values."
					}
				},
				"title": "Deployable implementation with `constructor` of ERC725Y sub-standard, a generic data key/value store.",
				"version": 1
			},
			"evm": {
				"assembly": "    /* \"@erc725/smart-contracts-v8/contracts/ERC725Y.sol\":1009:7193  contract ERC725Y is Ownable, ERC165, IERC725Y {... */\n  mstore(0x40, 0x80)\n    /* \"@erc725/smart-contracts-v8/contracts/ERC725Y.sol\":1557:1765  constructor(address initialOwner) payable {... */\n  mload(0x40)\n  sub(codesize, bytecodeSize)\n  dup1\n  bytecodeSize\n  dup4\n  codecopy\n  dup2\n  add\n  0x40\n  dup2\n  swap1\n  mstore\n  tag_1\n  swap2\n  tag_2\n  jump\t// in\ntag_1:\n    /* \"@openzeppelin/contracts/access/Ownable.sol\":936:968  _transferOwnership(_msgSender()) */\n  tag_6\n    /* \"@openzeppelin/contracts/utils/Context.sol\":734:744  msg.sender */\n  caller\n    /* \"@openzeppelin/contracts/access/Ownable.sol\":936:954  _transferOwnership */\n  tag_9\n    /* \"@openzeppelin/contracts/access/Ownable.sol\":936:968  _transferOwnership(_msgSender()) */\n  jump\t// in\ntag_6:\n  sub(shl(0xa0, 0x01), 0x01)\n    /* \"@erc725/smart-contracts-v8/contracts/ERC725Y.sol\":1613:1639  initialOwner == address(0) */\n  dup2\n  and\n    /* \"@erc725/smart-contracts-v8/contracts/ERC725Y.sol\":1609:1709  if (initialOwner == address(0)) {... */\n  tag_11\n  jumpi\n    /* \"@erc725/smart-contracts-v8/contracts/ERC725Y.sol\":1662:1698  OwnableCannotSetZeroAddressAsOwner() */\n  mload(0x40)\n  shl(0xe2, 0x06b620db)\n  dup2\n  mstore\n  0x04\n  add\n  mload(0x40)\n  dup1\n  swap2\n  sub\n  swap1\n  revert\n    /* \"@erc725/smart-contracts-v8/contracts/ERC725Y.sol\":1609:1709  if (initialOwner == address(0)) {... */\ntag_11:\n    /* \"@erc725/smart-contracts-v8/contracts/ERC725Y.sol\":1718:1758  Ownable._transferOwnership(initialOwner) */\n  tag_12\n    /* \"@erc725/smart-contracts-v8/contracts/ERC725Y.sol\":1745:1757  initialOwner */\n  dup2\n    /* \"@erc725/smart-contracts-v8/contracts/ERC725Y.sol\":1718:1744  Ownable._transferOwnership */\n  tag_9\n    /* \"@erc725/smart-contracts-v8/contracts/ERC725Y.sol\":1718:1758  Ownable._transferOwnership(initialOwner) */\n  jump\t// in\ntag_12:\n    /* \"@erc725/smart-contracts-v8/contracts/ERC725Y.sol\":1557:1765  constructor(address initialOwner) payable {... */\n  pop\n    /* \"@erc725/smart-contracts-v8/contracts/ERC725Y.sol\":1009:7193  contract ERC725Y is Ownable, ERC165, IERC725Y {... */\n  jump(tag_16)\n    /* \"@openzeppelin/contracts/access/Ownable.sol\":2426:2613  function _transferOwnership(address newOwner) internal virtual {... */\ntag_9:\n    /* \"@openzeppelin/contracts/access/Ownable.sol\":2499:2515  address oldOwner */\n  0x00\n    /* \"@openzeppelin/contracts/access/Ownable.sol\":2518:2524  _owner */\n  dup1\n  sload\n  sub(shl(0xa0, 0x01), 0x01)\n    /* \"@openzeppelin/contracts/access/Ownable.sol\":2534:2551  _owner = newOwner */\n  dup4\n  dup2\n  and\n  not(sub(shl(0xa0, 0x01), 0x01))\n  dup4\n  and\n  dup2\n  or\n  dup5\n  sstore\n    /* \"@openzeppelin/contracts/access/Ownable.sol\":2566:2606  OwnershipTransferred(oldOwner, newOwner) */\n  mload(0x40)\n    /* \"@openzeppelin/contracts/access/Ownable.sol\":2518:2524  _owner */\n  swap2\n  swap1\n  swap3\n  and\n  swap3\n  dup4\n  swap2\n    /* \"@openzeppelin/contracts/access/Ownable.sol\":2566:2606  OwnershipTransferred(oldOwner, newOwner) */\n  0x8be0079c531659141344cd1fd0a4f28419497f9722a3daafe3b4186f6b6457e0\n  swap2\n    /* \"@openzeppelin/contracts/access/Ownable.sol\":2499:2515  address oldOwner */\n  swap1\n    /* \"@openzeppelin/contracts/access/Ownable.sol\":2566:2606  OwnershipTransferred(oldOwner, newOwner) */\n  log3\n    /* \"@openzeppelin/contracts/access/Ownable.sol\":2489:2613  {... */\n  pop\n    /* \"@openzeppelin/contracts/access/Ownable.sol\":2426:2613  function _transferOwnership(address newOwner) internal virtual {... */\n  pop\n  jump\t// out\n    /* \"#utility.yul\":14:304   */\ntag_2:\n    /* \"#utility.yul\":84:90   */\n  0x00\n    /* \"#utility.yul\":137:139   */\n  0x20\n    /* \"#utility.yul\":125:134   */\n  dup3\n    /* \"#utility.yul\":116:123   */\n  dup5\n    /* \"#utility.yul\":112:135   */\n  sub\n    /* \"#utility.yul\":108:140   */\n  slt\n    /* \"#utility.yul\":105:157   */\n  iszero\n  tag_18\n  jumpi\n    /* \"#utility.yul\":153:154   */\n  0x00\n    /* \"#utility.yul\":150:151   */\n  0x00\n    /* \"#utility.yul\":143:155   */\n  revert\n    /* \"#utility.yul\":105:157   */\ntag_18:\n    /* \"#utility.yul\":179:195   */\n  dup2\n  mload\n  sub(shl(0xa0, 0x01), 0x01)\n    /* \"#utility.yul\":224:255   */\n  dup2\n  and\n    /* \"#utility.yul\":214:256   */\n  dup2\n  eq\n    /* \"#utility.yul\":204:274   */\n  tag_19\n  jumpi\n    /* \"#utility.yul\":270:271   */\n  0x00\n    /* \"#utility.yul\":267:268   */\n  0x00\n    /* \"#utility.yul\":260:272   */\n  revert\n    /* \"#utility.yul\":204:274   */\ntag_19:\n    /* \"#utility.yul\":293:298   */\n  swap4\n    /* \"#utility.yul\":14:304   */\n  swap3\n  pop\n  pop\n  pop\n  jump\t// out\ntag_16:\n    /* \"@erc725/smart-contracts-v8/contracts/ERC725Y.sol\":1009:7193  contract ERC725Y is Ownable, ERC165, IERC725Y {... */\n  dataSize(sub_0)\n  dup1\n  dataOffset(sub_0)\n  0x00\n  codecopy\n  0x00\n  return\nstop\n\nsub_0: assembly {\n        /* \"@erc725/smart-contracts-v8/contracts/ERC725Y.sol\":1009:7193  contract ERC725Y is Ownable, ERC165, IERC725Y {... */\n      mstore(0x40, 0x80)\n      jumpi(tag_1, lt(calldatasize, 0x04))\n      shr(0xe0, calldataload(0x00))\n      dup1\n      0x8da5cb5b\n      gt\n      tag_10\n      jumpi\n      dup1\n      0x8da5cb5b\n      eq\n      tag_6\n      jumpi\n      dup1\n      0x97902421\n      eq\n      tag_7\n      jumpi\n      dup1\n      0xdedff9c6\n      eq\n      tag_8\n      jumpi\n      dup1\n      0xf2fde38b\n      eq\n      tag_9\n      jumpi\n      revert(0x00, 0x00)\n    tag_10:\n      dup1\n      0x01ffc9a7\n      eq\n      tag_2\n      jumpi\n      dup1\n      0x54f6127f\n      eq\n      tag_3\n      jumpi\n      dup1\n      0x715018a6\n      eq\n      tag_4\n      jumpi\n      dup1\n      0x7f23690c\n      eq\n      tag_5\n      jumpi\n    tag_1:\n      revert(0x00, 0x00)\n        /* \"@erc725/smart-contracts-v8/contracts/ERC725Y.sol\":6963:7191  function supportsInterface(... */\n    tag_2:\n      callvalue\n      dup1\n      iszero\n      tag_11\n      jumpi\n      revert(0x00, 0x00)\n    tag_11:\n      pop\n      tag_12\n      tag_13\n      calldatasize\n      0x04\n      tag_14\n      jump\t// in\n    tag_13:\n      tag_15\n      jump\t// in\n    tag_12:\n      mload(0x40)\n        /* \"#utility.yul\":470:484   */\n      swap1\n      iszero\n        /* \"#utility.yul\":463:485   */\n      iszero\n        /* \"#utility.yul\":445:486   */\n      dup2\n      mstore\n        /* \"#utility.yul\":433:435   */\n      0x20\n        /* \"#utility.yul\":418:436   */\n      add\n        /* \"@erc725/smart-contracts-v8/contracts/ERC725Y.sol\":6963:7191  function supportsInterface(... */\n    tag_16:\n      mload(0x40)\n      dup1\n      swap2\n      sub\n      swap1\n      return\n        /* \"@erc725/smart-contracts-v8/contracts/ERC725Y.sol\":1815:1966  function getData(... */\n    tag_3:\n      callvalue\n      dup1\n      iszero\n      tag_18\n      jumpi\n      revert(0x00, 0x00)\n    tag_18:\n      pop\n      tag_19\n      tag_20\n      calldatasize\n      0x04\n      tag_21\n      jump\t// in\n    tag_20:\n      tag_22\n      jump\t// in\n    tag_19:\n      mload(0x40)\n      tag_16\n      swap2\n      swap1\n      tag_24\n      jump\t// in\n        /* \"@openzeppelin/contracts/access/Ownable.sol\":1824:1925  function renounceOwnership() public virtual onlyOwner {... */\n    tag_4:\n      callvalue\n      dup1\n      iszero\n      tag_25\n      jumpi\n      revert(0x00, 0x00)\n    tag_25:\n      pop\n      tag_26\n      tag_27\n      jump\t// in\n    tag_26:\n      stop\n        /* \"@erc725/smart-contracts-v8/contracts/ERC725Y.sol\":3076:3308  function setData(... */\n    tag_5:\n      tag_26\n      tag_29\n      calldatasize\n      0x04\n      tag_30\n      jump\t// in\n    tag_29:\n      tag_31\n      jump\t// in\n        /* \"@openzeppelin/contracts/access/Ownable.sol\":1201:1286  function owner() public view virtual returns (address) {... */\n    tag_6:\n      callvalue\n      dup1\n      iszero\n      tag_32\n      jumpi\n      revert(0x00, 0x00)\n    tag_32:\n      pop\n        /* \"@openzeppelin/contracts/access/Ownable.sol\":1247:1254  address */\n      0x00\n        /* \"@openzeppelin/contracts/access/Ownable.sol\":1273:1279  _owner */\n      sload\n        /* \"@openzeppelin/contracts/access/Ownable.sol\":1201:1286  function owner() public view virtual returns (address) {... */\n      mload(0x40)\n      sub(shl(0xa0, 0x01), 0x01)\n        /* \"@openzeppelin/contracts/access/Ownable.sol\":1273:1279  _owner */\n      swap1\n      swap2\n      and\n        /* \"#utility.yul\":2803:2854   */\n      dup2\n      mstore\n        /* \"#utility.yul\":2791:2793   */\n      0x20\n        /* \"#utility.yul\":2776:2794   */\n      add\n        /* \"@openzeppelin/contracts/access/Ownable.sol\":1201:1286  function owner() public view virtual returns (address) {... */\n      tag_16\n        /* \"#utility.yul\":2657:2860   */\n      jump\n        /* \"@erc725/smart-contracts-v8/contracts/ERC725Y.sol\":3963:4304  function setDataBatch(... */\n    tag_7:\n      tag_26\n      tag_38\n      calldatasize\n      0x04\n      tag_39\n      jump\t// in\n    tag_38:\n      tag_40\n      jump\t// in\n        /* \"@erc725/smart-contracts-v8/contracts/ERC725Y.sol\":2016:2474  function getDataBatch(... */\n    tag_8:\n      callvalue\n      dup1\n      iszero\n      tag_41\n      jumpi\n      revert(0x00, 0x00)\n    tag_41:\n      pop\n      tag_42\n      tag_43\n      calldatasize\n      0x04\n      tag_44\n      jump\t// in\n    tag_43:\n      tag_45\n      jump\t// in\n    tag_42:\n      mload(0x40)\n      tag_16\n      swap2\n      swap1\n      tag_47\n      jump\t// in\n        /* \"@openzeppelin/contracts/access/Ownable.sol\":2074:2272  function transferOwnership(address newOwner) public virtual onlyOwner {... */\n    tag_9:\n      callvalue\n      dup1\n      iszero\n      tag_48\n      jumpi\n      revert(0x00, 0x00)\n    tag_48:\n      pop\n      tag_26\n      tag_50\n      calldatasize\n      0x04\n      tag_51\n      jump\t// in\n    tag_50:\n      tag_52\n      jump\t// in\n        /* \"@erc725/smart-contracts-v8/contracts/ERC725Y.sol\":6963:7191  function supportsInterface(... */\n    tag_15:\n        /* \"@erc725/smart-contracts-v8/contracts/ERC725Y.sol\":7062:7066  bool */\n      0x00\n      not(sub(shl(0xe0, 0x01), 0x01))\n        /* \"@erc725/smart-contracts-v8/contracts/ERC725Y.sol\":7097:7132  interfaceId == _INTERFACEID_ERC725Y */\n      dup3\n      and\n      shl(0xe2, 0x18a6a9a5)\n      eq\n      dup1\n        /* \"@erc725/smart-contracts-v8/contracts/ERC725Y.sol\":7097:7184  interfaceId == _INTERFACEID_ERC725Y ||... */\n      tag_55\n      jumpi\n      pop\n      shl(0xe0, 0x01ffc9a7)\n      not(sub(shl(0xe0, 0x01), 0x01))\n        /* \"@openzeppelin/contracts/utils/introspection/ERC165.sol\":937:977  interfaceId == type(IERC165).interfaceId */\n      dup4\n      and\n      eq\n        /* \"@erc725/smart-contracts-v8/contracts/ERC725Y.sol\":7148:7184  super.supportsInterface(interfaceId) */\n    tag_55:\n        /* \"@erc725/smart-contracts-v8/contracts/ERC725Y.sol\":7078:7184  return... */\n      swap3\n        /* \"@erc725/smart-contracts-v8/contracts/ERC725Y.sol\":6963:7191  function supportsInterface(... */\n      swap2\n      pop\n      pop\n      jump\t// out\n        /* \"@erc725/smart-contracts-v8/contracts/ERC725Y.sol\":1815:1966  function getData(... */\n    tag_22:\n        /* \"@erc725/smart-contracts-v8/contracts/ERC725Y.sol\":1901:1923  bytes memory dataValue */\n      0x60\n        /* \"@erc725/smart-contracts-v8/contracts/ERC725Y.sol\":1942:1959  _getData(dataKey) */\n      tag_55\n        /* \"@erc725/smart-contracts-v8/contracts/ERC725Y.sol\":1951:1958  dataKey */\n      dup3\n        /* \"@erc725/smart-contracts-v8/contracts/ERC725Y.sol\":1942:1950  _getData */\n      tag_59\n        /* \"@erc725/smart-contracts-v8/contracts/ERC725Y.sol\":1942:1959  _getData(dataKey) */\n      jump\t// in\n        /* \"@openzeppelin/contracts/access/Ownable.sol\":1824:1925  function renounceOwnership() public virtual onlyOwner {... */\n    tag_27:\n        /* \"@openzeppelin/contracts/access/Ownable.sol\":1094:1107  _checkOwner() */\n      tag_61\n        /* \"@openzeppelin/contracts/access/Ownable.sol\":1094:1105  _checkOwner */\n      tag_62\n        /* \"@openzeppelin/contracts/access/Ownable.sol\":1094:1107  _checkOwner() */\n      jump\t// in\n    tag_61:\n        /* \"@openzeppelin/contracts/access/Ownable.sol\":1888:1918  _transferOwnership(address(0)) */\n      tag_64\n        /* \"@openzeppelin/contracts/access/Ownable.sol\":1915:1916  0 */\n      0x00\n        /* \"@openzeppelin/contracts/access/Ownable.sol\":1888:1906  _transferOwnership */\n      tag_65\n        /* \"@openzeppelin/contracts/access/Ownable.sol\":1888:1918  _transferOwnership(address(0)) */\n      jump\t// in\n    tag_64:\n        /* \"@openzeppelin/contracts/access/Ownable.sol\":1824:1925  function renounceOwnership() public virtual onlyOwner {... */\n      jump\t// out\n        /* \"@erc725/smart-contracts-v8/contracts/ERC725Y.sol\":3076:3308  function setData(... */\n    tag_31:\n        /* \"@openzeppelin/contracts/access/Ownable.sol\":1094:1107  _checkOwner() */\n      tag_67\n        /* \"@openzeppelin/contracts/access/Ownable.sol\":1094:1105  _checkOwner */\n      tag_62\n        /* \"@openzeppelin/contracts/access/Ownable.sol\":1094:1107  _checkOwner() */\n      jump\t// in\n    tag_67:\n        /* \"@erc725/smart-contracts-v8/contracts/ERC725Y.sol\":3212:3221  msg.value */\n      callvalue\n        /* \"@erc725/smart-contracts-v8/contracts/ERC725Y.sol\":3212:3226  msg.value != 0 */\n      iszero\n        /* \"@erc725/smart-contracts-v8/contracts/ERC725Y.sol\":3208:3263  if (msg.value != 0) revert ERC725Y_MsgValueDisallowed() */\n      tag_69\n      jumpi\n        /* \"@erc725/smart-contracts-v8/contracts/ERC725Y.sol\":3235:3263  ERC725Y_MsgValueDisallowed() */\n      mload(0x40)\n      shl(0xe0, 0xf36ba737)\n      dup2\n      mstore\n      0x04\n      add\n      mload(0x40)\n      dup1\n      swap2\n      sub\n      swap1\n      revert\n        /* \"@erc725/smart-contracts-v8/contracts/ERC725Y.sol\":3208:3263  if (msg.value != 0) revert ERC725Y_MsgValueDisallowed() */\n    tag_69:\n        /* \"@erc725/smart-contracts-v8/contracts/ERC725Y.sol\":3273:3301  _setData(dataKey, dataValue) */\n      tag_70\n        /* \"@erc725/smart-contracts-v8/contracts/ERC725Y.sol\":3282:3289  dataKey */\n      dup3\n        /* \"@erc725/smart-contracts-v8/contracts/ERC725Y.sol\":3291:3300  dataValue */\n      dup3\n        /* \"@erc725/smart-contracts-v8/contracts/ERC725Y.sol\":3273:3281  _setData */\n      tag_71\n        /* \"@erc725/smart-contracts-v8/contracts/ERC725Y.sol\":3273:3301  _setData(dataKey, dataValue) */\n      jump\t// in\n    tag_70:\n        /* \"@erc725/smart-contracts-v8/contracts/ERC725Y.sol\":3076:3308  function setData(... */\n      pop\n      pop\n      jump\t// out\n        /* \"@erc725/smart-contracts-v8/contracts/ERC725Y.sol\":3963:4304  function setDataBatch(... */\n    tag_40:\n        /* \"@openzeppelin/contracts/access/Ownable.sol\":1094:1107  _checkOwner() */\n      tag_74\n        /* \"@openzeppelin/contracts/access/Ownable.sol\":1094:1105  _checkOwner */\n      tag_62\n        /* \"@openzeppelin/contracts/access/Ownable.sol\":1094:1107  _checkOwner() */\n      jump\t// in\n    tag_74:\n        /* \"@erc725/smart-contracts-v8/contracts/ERC725Y.sol\":4201:4210  msg.value */\n      callvalue\n        /* \"@erc725/smart-contracts-v8/contracts/ERC725Y.sol\":4201:4215  msg.value != 0 */\n      iszero\n        /* \"@erc725/smart-contracts-v8/contracts/ERC725Y.sol\":4197:4252  if (msg.value != 0) revert ERC725Y_MsgValueDisallowed() */\n      tag_76\n      jumpi\n        /* \"@erc725/smart-contracts-v8/contracts/ERC725Y.sol\":4224:4252  ERC725Y_MsgValueDisallowed() */\n      mload(0x40)\n      shl(0xe0, 0xf36ba737)\n      dup2\n      mstore\n      0x04\n      add\n      mload(0x40)\n      dup1\n      swap2\n      sub\n      swap1\n      revert\n        /* \"@erc725/smart-contracts-v8/contracts/ERC725Y.sol\":4197:4252  if (msg.value != 0) revert ERC725Y_MsgValueDisallowed() */\n    tag_76:\n        /* \"@erc725/smart-contracts-v8/contracts/ERC725Y.sol\":4262:4297  _setDataBatch(dataKeys, dataValues) */\n      tag_70\n        /* \"@erc725/smart-contracts-v8/contracts/ERC725Y.sol\":4276:4284  dataKeys */\n      dup3\n        /* \"@erc725/smart-contracts-v8/contracts/ERC725Y.sol\":4286:4296  dataValues */\n      dup3\n        /* \"@erc725/smart-contracts-v8/contracts/ERC725Y.sol\":4262:4275  _setDataBatch */\n      tag_78\n        /* \"@erc725/smart-contracts-v8/contracts/ERC725Y.sol\":4262:4297  _setDataBatch(dataKeys, dataValues) */\n      jump\t// in\n        /* \"@erc725/smart-contracts-v8/contracts/ERC725Y.sol\":2016:2474  function getDataBatch(... */\n    tag_45:\n        /* \"@erc725/smart-contracts-v8/contracts/ERC725Y.sol\":2117:2142  bytes[] memory dataValues */\n      0x60\n        /* \"@erc725/smart-contracts-v8/contracts/ERC725Y.sol\":2179:2187  dataKeys */\n      dup2\n        /* \"@erc725/smart-contracts-v8/contracts/ERC725Y.sol\":2179:2194  dataKeys.length */\n      mload\n        /* \"@erc725/smart-contracts-v8/contracts/ERC725Y.sol\":2167:2195  new bytes[](dataKeys.length) */\n      0xffffffffffffffff\n      dup2\n      gt\n      iszero\n      tag_81\n      jumpi\n      tag_81\n      tag_82\n      jump\t// in\n    tag_81:\n      mload(0x40)\n      swap1\n      dup1\n      dup3\n      mstore\n      dup1\n      0x20\n      mul\n      0x20\n      add\n      dup3\n      add\n      0x40\n      mstore\n      dup1\n      iszero\n      tag_83\n      jumpi\n      dup2\n      0x20\n      add\n    tag_84:\n      0x60\n      dup2\n      mstore\n      0x20\n      add\n      swap1\n      0x01\n      swap1\n      sub\n      swap1\n      dup2\n      tag_84\n      jumpi\n      swap1\n      pop\n    tag_83:\n      pop\n        /* \"@erc725/smart-contracts-v8/contracts/ERC725Y.sol\":2154:2195  dataValues = new bytes[](dataKeys.length) */\n      swap1\n      pop\n        /* \"@erc725/smart-contracts-v8/contracts/ERC725Y.sol\":2211:2220  uint256 i */\n      0x00\n        /* \"@erc725/smart-contracts-v8/contracts/ERC725Y.sol\":2206:2440  for (uint256 i = 0; i < dataKeys.length; ) {... */\n    tag_85:\n        /* \"@erc725/smart-contracts-v8/contracts/ERC725Y.sol\":2230:2238  dataKeys */\n      dup3\n        /* \"@erc725/smart-contracts-v8/contracts/ERC725Y.sol\":2230:2245  dataKeys.length */\n      mload\n        /* \"@erc725/smart-contracts-v8/contracts/ERC725Y.sol\":2226:2227  i */\n      dup2\n        /* \"@erc725/smart-contracts-v8/contracts/ERC725Y.sol\":2226:2245  i < dataKeys.length */\n      lt\n        /* \"@erc725/smart-contracts-v8/contracts/ERC725Y.sol\":2206:2440  for (uint256 i = 0; i < dataKeys.length; ) {... */\n      iszero\n      tag_86\n      jumpi\n        /* \"@erc725/smart-contracts-v8/contracts/ERC725Y.sol\":2279:2300  _getData(dataKeys[i]) */\n      tag_88\n        /* \"@erc725/smart-contracts-v8/contracts/ERC725Y.sol\":2288:2296  dataKeys */\n      dup4\n        /* \"@erc725/smart-contracts-v8/contracts/ERC725Y.sol\":2297:2298  i */\n      dup3\n        /* \"@erc725/smart-contracts-v8/contracts/ERC725Y.sol\":2288:2299  dataKeys[i] */\n      dup2\n      mload\n      dup2\n      lt\n      tag_90\n      jumpi\n      tag_90\n      tag_91\n      jump\t// in\n    tag_90:\n      0x20\n      mul\n      0x20\n      add\n      add\n      mload\n        /* \"@erc725/smart-contracts-v8/contracts/ERC725Y.sol\":2279:2287  _getData */\n      tag_59\n        /* \"@erc725/smart-contracts-v8/contracts/ERC725Y.sol\":2279:2300  _getData(dataKeys[i]) */\n      jump\t// in\n    tag_88:\n        /* \"@erc725/smart-contracts-v8/contracts/ERC725Y.sol\":2263:2273  dataValues */\n      dup3\n        /* \"@erc725/smart-contracts-v8/contracts/ERC725Y.sol\":2274:2275  i */\n      dup3\n        /* \"@erc725/smart-contracts-v8/contracts/ERC725Y.sol\":2263:2276  dataValues[i] */\n      dup2\n      mload\n      dup2\n      lt\n      tag_93\n      jumpi\n      tag_93\n      tag_91\n      jump\t// in\n    tag_93:\n      0x20\n      swap1\n      dup2\n      mul\n      swap2\n      swap1\n      swap2\n      add\n      add\n        /* \"@erc725/smart-contracts-v8/contracts/ERC725Y.sol\":2263:2300  dataValues[i] = _getData(dataKeys[i]) */\n      mstore\n        /* \"@erc725/smart-contracts-v8/contracts/ERC725Y.sol\":2412:2415  ++i */\n      0x01\n      add\n        /* \"@erc725/smart-contracts-v8/contracts/ERC725Y.sol\":2206:2440  for (uint256 i = 0; i < dataKeys.length; ) {... */\n      jump(tag_85)\n    tag_86:\n      pop\n        /* \"@erc725/smart-contracts-v8/contracts/ERC725Y.sol\":2016:2474  function getDataBatch(... */\n      swap2\n      swap1\n      pop\n      jump\t// out\n        /* \"@openzeppelin/contracts/access/Ownable.sol\":2074:2272  function transferOwnership(address newOwner) public virtual onlyOwner {... */\n    tag_52:\n        /* \"@openzeppelin/contracts/access/Ownable.sol\":1094:1107  _checkOwner() */\n      tag_95\n        /* \"@openzeppelin/contracts/access/Ownable.sol\":1094:1105  _checkOwner */\n      tag_62\n        /* \"@openzeppelin/contracts/access/Ownable.sol\":1094:1107  _checkOwner() */\n      jump\t// in\n    tag_95:\n      sub(shl(0xa0, 0x01), 0x01)\n        /* \"@openzeppelin/contracts/access/Ownable.sol\":2162:2184  newOwner != address(0) */\n      dup2\n      and\n        /* \"@openzeppelin/contracts/access/Ownable.sol\":2154:2227  require(newOwner != address(0), \"Ownable: new owner is the zero address\") */\n      tag_97\n      jumpi\n      mload(0x40)\n      shl(0xe5, 0x461bcd)\n      dup2\n      mstore\n        /* \"#utility.yul\":6841:6843   */\n      0x20\n        /* \"@openzeppelin/contracts/access/Ownable.sol\":2154:2227  require(newOwner != address(0), \"Ownable: new owner is the zero address\") */\n      0x04\n      dup3\n      add\n        /* \"#utility.yul\":6823:6844   */\n      mstore\n        /* \"#utility.yul\":6880:6882   */\n      0x26\n        /* \"#utility.yul\":6860:6878   */\n      0x24\n      dup3\n      add\n        /* \"#utility.yul\":6853:6883   */\n      mstore\n        /* \"#utility.yul\":6919:6953   */\n      0x4f776e61626c653a206e6577206f776e657220697320746865207a65726f2061\n        /* \"#utility.yul\":6899:6917   */\n      0x44\n      dup3\n      add\n        /* \"#utility.yul\":6892:6954   */\n      mstore\n      shl(0xd0, 0x646472657373)\n        /* \"#utility.yul\":6970:6988   */\n      0x64\n      dup3\n      add\n        /* \"#utility.yul\":6963:6999   */\n      mstore\n        /* \"#utility.yul\":7016:7035   */\n      0x84\n      add\n        /* \"@openzeppelin/contracts/access/Ownable.sol\":2154:2227  require(newOwner != address(0), \"Ownable: new owner is the zero address\") */\n    tag_98:\n      mload(0x40)\n      dup1\n      swap2\n      sub\n      swap1\n      revert\n    tag_97:\n        /* \"@openzeppelin/contracts/access/Ownable.sol\":2237:2265  _transferOwnership(newOwner) */\n      tag_100\n        /* \"@openzeppelin/contracts/access/Ownable.sol\":2256:2264  newOwner */\n      dup2\n        /* \"@openzeppelin/contracts/access/Ownable.sol\":2237:2255  _transferOwnership */\n      tag_65\n        /* \"@openzeppelin/contracts/access/Ownable.sol\":2237:2265  _transferOwnership(newOwner) */\n      jump\t// in\n    tag_100:\n        /* \"@openzeppelin/contracts/access/Ownable.sol\":2074:2272  function transferOwnership(address newOwner) public virtual onlyOwner {... */\n      pop\n      jump\t// out\n        /* \"@erc725/smart-contracts-v8/contracts/ERC725Y.sol\":4799:4942  function _getData(... */\n    tag_59:\n        /* \"@erc725/smart-contracts-v8/contracts/ERC725Y.sol\":4920:4935  _store[dataKey] */\n      0x00\n      dup2\n      dup2\n      mstore\n        /* \"@erc725/smart-contracts-v8/contracts/ERC725Y.sol\":4920:4926  _store */\n      0x01\n        /* \"@erc725/smart-contracts-v8/contracts/ERC725Y.sol\":4920:4935  _store[dataKey] */\n      0x20\n      mstore\n      0x40\n      swap1\n      keccak256\n        /* \"@erc725/smart-contracts-v8/contracts/ERC725Y.sol\":4913:4935  return _store[dataKey] */\n      dup1\n      sload\n        /* \"@erc725/smart-contracts-v8/contracts/ERC725Y.sol\":4879:4901  bytes memory dataValue */\n      0x60\n      swap2\n        /* \"@erc725/smart-contracts-v8/contracts/ERC725Y.sol\":4920:4935  _store[dataKey] */\n      swap1\n        /* \"@erc725/smart-contracts-v8/contracts/ERC725Y.sol\":4913:4935  return _store[dataKey] */\n      tag_103\n      swap1\n      tag_104\n      jump\t// in\n    tag_103:\n      dup1\n      0x1f\n      add\n      0x20\n      dup1\n      swap2\n      div\n      mul\n      0x20\n      add\n      mload(0x40)\n      swap1\n      dup2\n      add\n      0x40\n      mstore\n      dup1\n      swap3\n      swap2\n      swap1\n      dup2\n      dup2\n      mstore\n      0x20\n      add\n      dup3\n      dup1\n      sload\n      tag_105\n      swap1\n      tag_104\n      jump\t// in\n    tag_105:\n      dup1\n      iszero\n      tag_106\n      jumpi\n      dup1\n      0x1f\n      lt\n      tag_107\n      jumpi\n      0x0100\n      dup1\n      dup4\n      sload\n      div\n      mul\n      dup4\n      mstore\n      swap2\n      0x20\n      add\n      swap2\n      jump(tag_106)\n    tag_107:\n      dup3\n      add\n      swap2\n      swap1\n      0x00\n      mstore\n      keccak256(0x00, 0x20)\n      swap1\n    tag_108:\n      dup2\n      sload\n      dup2\n      mstore\n      swap1\n      0x01\n      add\n      swap1\n      0x20\n      add\n      dup1\n      dup4\n      gt\n      tag_108\n      jumpi\n      dup3\n      swap1\n      sub\n      0x1f\n      and\n      dup3\n      add\n      swap2\n    tag_106:\n      pop\n      pop\n      pop\n      pop\n      pop\n      swap1\n      pop\n        /* \"@erc725/smart-contracts-v8/contracts/ERC725Y.sol\":4799:4942  function _getData(... */\n      swap2\n      swap1\n      pop\n      jump\t// out\n        /* \"@openzeppelin/contracts/access/Ownable.sol\":1359:1489  function _checkOwner() internal view virtual {... */\n    tag_62:\n        /* \"@openzeppelin/contracts/access/Ownable.sol\":1247:1254  address */\n      0x00\n        /* \"@openzeppelin/contracts/access/Ownable.sol\":1273:1279  _owner */\n      sload\n      sub(shl(0xa0, 0x01), 0x01)\n      and\n        /* \"@openzeppelin/contracts/utils/Context.sol\":734:744  msg.sender */\n      caller\n        /* \"@openzeppelin/contracts/access/Ownable.sol\":1422:1445  owner() == _msgSender() */\n      eq\n        /* \"@openzeppelin/contracts/access/Ownable.sol\":1414:1482  require(owner() == _msgSender(), \"Ownable: caller is not the owner\") */\n      tag_64\n      jumpi\n      mload(0x40)\n      shl(0xe5, 0x461bcd)\n      dup2\n      mstore\n        /* \"#utility.yul\":7633:7635   */\n      0x20\n        /* \"@openzeppelin/contracts/access/Ownable.sol\":1414:1482  require(owner() == _msgSender(), \"Ownable: caller is not the owner\") */\n      0x04\n      dup3\n      add\n        /* \"#utility.yul\":7615:7636   */\n      dup2\n      swap1\n      mstore\n        /* \"#utility.yul\":7652:7670   */\n      0x24\n      dup3\n      add\n        /* \"#utility.yul\":7645:7675   */\n      mstore\n        /* \"#utility.yul\":7711:7745   */\n      0x4f776e61626c653a2063616c6c6572206973206e6f7420746865206f776e6572\n        /* \"#utility.yul\":7691:7709   */\n      0x44\n      dup3\n      add\n        /* \"#utility.yul\":7684:7746   */\n      mstore\n        /* \"#utility.yul\":7763:7781   */\n      0x64\n      add\n        /* \"@openzeppelin/contracts/access/Ownable.sol\":1414:1482  require(owner() == _msgSender(), \"Ownable: caller is not the owner\") */\n      tag_98\n        /* \"#utility.yul\":7431:7787   */\n      jump\n        /* \"@openzeppelin/contracts/access/Ownable.sol\":2426:2613  function _transferOwnership(address newOwner) internal virtual {... */\n    tag_65:\n        /* \"@openzeppelin/contracts/access/Ownable.sol\":2499:2515  address oldOwner */\n      0x00\n        /* \"@openzeppelin/contracts/access/Ownable.sol\":2518:2524  _owner */\n      dup1\n      sload\n      sub(shl(0xa0, 0x01), 0x01)\n        /* \"@openzeppelin/contracts/access/Ownable.sol\":2534:2551  _owner = newOwner */\n      dup4\n      dup2\n      and\n      not(sub(shl(0xa0, 0x01), 0x01))\n      dup4\n      and\n      dup2\n      or\n      dup5\n      sstore\n        /* \"@openzeppelin/contracts/access/Ownable.sol\":2566:2606  OwnershipTransferred(oldOwner, newOwner) */\n      mload(0x40)\n        /* \"@openzeppelin/contracts/access/Ownable.sol\":2518:2524  _owner */\n      swap2\n      swap1\n      swap3\n      and\n      swap3\n      dup4\n      swap2\n        /* \"@openzeppelin/contracts/access/Ownable.sol\":2566:2606  OwnershipTransferred(oldOwner, newOwner) */\n      0x8be0079c531659141344cd1fd0a4f28419497f9722a3daafe3b4186f6b6457e0\n      swap2\n        /* \"@openzeppelin/contracts/access/Ownable.sol\":2499:2515  address oldOwner */\n      swap1\n        /* \"@openzeppelin/contracts/access/Ownable.sol\":2566:2606  OwnershipTransferred(oldOwner, newOwner) */\n      log3\n        /* \"@openzeppelin/contracts/access/Ownable.sol\":2489:2613  {... */\n      pop\n        /* \"@openzeppelin/contracts/access/Ownable.sol\":2426:2613  function _transferOwnership(address newOwner) internal virtual {... */\n      pop\n      jump\t// out\n        /* \"@erc725/smart-contracts-v8/contracts/ERC725Y.sol\":5496:5684  function _setData(... */\n    tag_71:\n        /* \"@erc725/smart-contracts-v8/contracts/ERC725Y.sol\":5604:5619  _store[dataKey] */\n      0x00\n      dup3\n      dup2\n      mstore\n        /* \"@erc725/smart-contracts-v8/contracts/ERC725Y.sol\":5604:5610  _store */\n      0x01\n        /* \"@erc725/smart-contracts-v8/contracts/ERC725Y.sol\":5604:5619  _store[dataKey] */\n      0x20\n      mstore\n      0x40\n      swap1\n      keccak256\n        /* \"@erc725/smart-contracts-v8/contracts/ERC725Y.sol\":5604:5631  _store[dataKey] = dataValue */\n      tag_118\n        /* \"@erc725/smart-contracts-v8/contracts/ERC725Y.sol\":5622:5631  dataValue */\n      dup3\n        /* \"@erc725/smart-contracts-v8/contracts/ERC725Y.sol\":5604:5619  _store[dataKey] */\n      dup3\n        /* \"@erc725/smart-contracts-v8/contracts/ERC725Y.sol\":5604:5631  _store[dataKey] = dataValue */\n      tag_119\n      jump\t// in\n    tag_118:\n      pop\n        /* \"@erc725/smart-contracts-v8/contracts/ERC725Y.sol\":5658:5665  dataKey */\n      dup2\n        /* \"@erc725/smart-contracts-v8/contracts/ERC725Y.sol\":5646:5677  DataChanged(dataKey, dataValue) */\n      0xece574603820d07bc9b91f2a932baadf4628aabcb8afba49776529c14a6104b2\n        /* \"@erc725/smart-contracts-v8/contracts/ERC725Y.sol\":5667:5676  dataValue */\n      dup3\n        /* \"@erc725/smart-contracts-v8/contracts/ERC725Y.sol\":5646:5677  DataChanged(dataKey, dataValue) */\n      mload(0x40)\n      tag_120\n      swap2\n      swap1\n      tag_24\n      jump\t// in\n    tag_120:\n      mload(0x40)\n      dup1\n      swap2\n      sub\n      swap1\n      log2\n        /* \"@erc725/smart-contracts-v8/contracts/ERC725Y.sol\":5496:5684  function _setData(... */\n      pop\n      pop\n      jump\t// out\n        /* \"@erc725/smart-contracts-v8/contracts/ERC725Y.sol\":6326:6915  function _setDataBatch(... */\n    tag_78:\n        /* \"@erc725/smart-contracts-v8/contracts/ERC725Y.sol\":6475:6485  dataValues */\n      dup1\n        /* \"@erc725/smart-contracts-v8/contracts/ERC725Y.sol\":6475:6492  dataValues.length */\n      mload\n        /* \"@erc725/smart-contracts-v8/contracts/ERC725Y.sol\":6456:6464  dataKeys */\n      dup3\n        /* \"@erc725/smart-contracts-v8/contracts/ERC725Y.sol\":6456:6471  dataKeys.length */\n      mload\n        /* \"@erc725/smart-contracts-v8/contracts/ERC725Y.sol\":6456:6492  dataKeys.length != dataValues.length */\n      eq\n        /* \"@erc725/smart-contracts-v8/contracts/ERC725Y.sol\":6452:6564  if (dataKeys.length != dataValues.length) {... */\n      tag_122\n      jumpi\n        /* \"@erc725/smart-contracts-v8/contracts/ERC725Y.sol\":6515:6553  ERC725Y_DataKeysValuesLengthMismatch() */\n      mload(0x40)\n      shl(0xe0, 0x3bcc8979)\n      dup2\n      mstore\n      0x04\n      add\n      mload(0x40)\n      dup1\n      swap2\n      sub\n      swap1\n      revert\n        /* \"@erc725/smart-contracts-v8/contracts/ERC725Y.sol\":6452:6564  if (dataKeys.length != dataValues.length) {... */\n    tag_122:\n        /* \"@erc725/smart-contracts-v8/contracts/ERC725Y.sol\":6578:6586  dataKeys */\n      dup2\n        /* \"@erc725/smart-contracts-v8/contracts/ERC725Y.sol\":6578:6593  dataKeys.length */\n      mload\n        /* \"@erc725/smart-contracts-v8/contracts/ERC725Y.sol\":6597:6598  0 */\n      0x00\n        /* \"@erc725/smart-contracts-v8/contracts/ERC725Y.sol\":6578:6598  dataKeys.length == 0 */\n      sub\n        /* \"@erc725/smart-contracts-v8/contracts/ERC725Y.sol\":6574:6666  if (dataKeys.length == 0) {... */\n      tag_123\n      jumpi\n        /* \"@erc725/smart-contracts-v8/contracts/ERC725Y.sol\":6621:6655  ERC725Y_DataKeysValuesEmptyArray() */\n      mload(0x40)\n      shl(0xe0, 0x97da5f95)\n      dup2\n      mstore\n      0x04\n      add\n      mload(0x40)\n      dup1\n      swap2\n      sub\n      swap1\n      revert\n        /* \"@erc725/smart-contracts-v8/contracts/ERC725Y.sol\":6574:6666  if (dataKeys.length == 0) {... */\n    tag_123:\n        /* \"@erc725/smart-contracts-v8/contracts/ERC725Y.sol\":6681:6690  uint256 i */\n      0x00\n        /* \"@erc725/smart-contracts-v8/contracts/ERC725Y.sol\":6676:6909  for (uint256 i = 0; i < dataKeys.length; ) {... */\n    tag_124:\n        /* \"@erc725/smart-contracts-v8/contracts/ERC725Y.sol\":6700:6708  dataKeys */\n      dup3\n        /* \"@erc725/smart-contracts-v8/contracts/ERC725Y.sol\":6700:6715  dataKeys.length */\n      mload\n        /* \"@erc725/smart-contracts-v8/contracts/ERC725Y.sol\":6696:6697  i */\n      dup2\n        /* \"@erc725/smart-contracts-v8/contracts/ERC725Y.sol\":6696:6715  i < dataKeys.length */\n      lt\n        /* \"@erc725/smart-contracts-v8/contracts/ERC725Y.sol\":6676:6909  for (uint256 i = 0; i < dataKeys.length; ) {... */\n      iszero\n      tag_125\n      jumpi\n        /* \"@erc725/smart-contracts-v8/contracts/ERC725Y.sol\":6733:6769  _setData(dataKeys[i], dataValues[i]) */\n      tag_127\n        /* \"@erc725/smart-contracts-v8/contracts/ERC725Y.sol\":6742:6750  dataKeys */\n      dup4\n        /* \"@erc725/smart-contracts-v8/contracts/ERC725Y.sol\":6751:6752  i */\n      dup3\n        /* \"@erc725/smart-contracts-v8/contracts/ERC725Y.sol\":6742:6753  dataKeys[i] */\n      dup2\n      mload\n      dup2\n      lt\n      tag_129\n      jumpi\n      tag_129\n      tag_91\n      jump\t// in\n    tag_129:\n      0x20\n      mul\n      0x20\n      add\n      add\n      mload\n        /* \"@erc725/smart-contracts-v8/contracts/ERC725Y.sol\":6755:6765  dataValues */\n      dup4\n        /* \"@erc725/smart-contracts-v8/contracts/ERC725Y.sol\":6766:6767  i */\n      dup4\n        /* \"@erc725/smart-contracts-v8/contracts/ERC725Y.sol\":6755:6768  dataValues[i] */\n      dup2\n      mload\n      dup2\n      lt\n      tag_131\n      jumpi\n      tag_131\n      tag_91\n      jump\t// in\n    tag_131:\n      0x20\n      mul\n      0x20\n      add\n      add\n      mload\n        /* \"@erc725/smart-contracts-v8/contracts/ERC725Y.sol\":6733:6741  _setData */\n      tag_71\n        /* \"@erc725/smart-contracts-v8/contracts/ERC725Y.sol\":6733:6769  _setData(dataKeys[i], dataValues[i]) */\n      jump\t// in\n    tag_127:\n        /* \"@erc725/smart-contracts-v8/contracts/ERC725Y.sol\":6881:6884  ++i */\n      0x01\n      add\n        /* \"@erc725/smart-contracts-v8/contracts/ERC725Y.sol\":6676:6909  for (uint256 i = 0; i < dataKeys.length; ) {... */\n      jump(tag_124)\n    tag_125:\n      pop\n        /* \"@erc725/smart-contracts-v8/contracts/ERC725Y.sol\":6326:6915  function _setDataBatch(... */\n      pop\n      pop\n      jump\t// out\n        /* \"#utility.yul\":14:300   */\n    tag_14:\n        /* \"#utility.yul\":72:78   */\n      0x00\n        /* \"#utility.yul\":125:127   */\n      0x20\n        /* \"#utility.yul\":113:122   */\n      dup3\n        /* \"#utility.yul\":104:111   */\n      dup5\n        /* \"#utility.yul\":100:123   */\n      sub\n        /* \"#utility.yul\":96:128   */\n      slt\n        /* \"#utility.yul\":93:145   */\n      iszero\n      tag_143\n      jumpi\n        /* \"#utility.yul\":141:142   */\n      0x00\n        /* \"#utility.yul\":138:139   */\n      0x00\n        /* \"#utility.yul\":131:143   */\n      revert\n        /* \"#utility.yul\":93:145   */\n    tag_143:\n        /* \"#utility.yul\":167:190   */\n      dup2\n      calldataload\n      not(sub(shl(0xe0, 0x01), 0x01))\n        /* \"#utility.yul\":219:251   */\n      dup2\n      and\n        /* \"#utility.yul\":209:252   */\n      dup2\n      eq\n        /* \"#utility.yul\":199:270   */\n      tag_144\n      jumpi\n        /* \"#utility.yul\":266:267   */\n      0x00\n        /* \"#utility.yul\":263:264   */\n      0x00\n        /* \"#utility.yul\":256:268   */\n      revert\n        /* \"#utility.yul\":199:270   */\n    tag_144:\n        /* \"#utility.yul\":289:294   */\n      swap4\n        /* \"#utility.yul\":14:300   */\n      swap3\n      pop\n      pop\n      pop\n      jump\t// out\n        /* \"#utility.yul\":497:723   */\n    tag_21:\n        /* \"#utility.yul\":556:562   */\n      0x00\n        /* \"#utility.yul\":609:611   */\n      0x20\n        /* \"#utility.yul\":597:606   */\n      dup3\n        /* \"#utility.yul\":588:595   */\n      dup5\n        /* \"#utility.yul\":584:607   */\n      sub\n        /* \"#utility.yul\":580:612   */\n      slt\n        /* \"#utility.yul\":577:629   */\n      iszero\n      tag_147\n      jumpi\n        /* \"#utility.yul\":625:626   */\n      0x00\n        /* \"#utility.yul\":622:623   */\n      0x00\n        /* \"#utility.yul\":615:627   */\n      revert\n        /* \"#utility.yul\":577:629   */\n    tag_147:\n      pop\n        /* \"#utility.yul\":670:693   */\n      calldataload\n      swap2\n        /* \"#utility.yul\":497:723   */\n      swap1\n      pop\n      jump\t// out\n        /* \"#utility.yul\":728:1016   */\n    tag_133:\n        /* \"#utility.yul\":769:772   */\n      0x00\n        /* \"#utility.yul\":807:812   */\n      dup2\n        /* \"#utility.yul\":801:813   */\n      mload\n        /* \"#utility.yul\":834:840   */\n      dup1\n        /* \"#utility.yul\":829:832   */\n      dup5\n        /* \"#utility.yul\":822:841   */\n      mstore\n        /* \"#utility.yul\":890:896   */\n      dup1\n        /* \"#utility.yul\":883:887   */\n      0x20\n        /* \"#utility.yul\":876:881   */\n      dup5\n        /* \"#utility.yul\":872:888   */\n      add\n        /* \"#utility.yul\":865:869   */\n      0x20\n        /* \"#utility.yul\":860:863   */\n      dup7\n        /* \"#utility.yul\":856:870   */\n      add\n        /* \"#utility.yul\":850:897   */\n      mcopy\n        /* \"#utility.yul\":942:943   */\n      0x00\n        /* \"#utility.yul\":935:939   */\n      0x20\n        /* \"#utility.yul\":926:932   */\n      dup3\n        /* \"#utility.yul\":921:924   */\n      dup7\n        /* \"#utility.yul\":917:933   */\n      add\n        /* \"#utility.yul\":913:940   */\n      add\n        /* \"#utility.yul\":906:944   */\n      mstore\n        /* \"#utility.yul\":1005:1009   */\n      0x20\n        /* \"#utility.yul\":998:1000   */\n      0x1f\n        /* \"#utility.yul\":994:1001   */\n      not\n        /* \"#utility.yul\":989:991   */\n      0x1f\n        /* \"#utility.yul\":981:987   */\n      dup4\n        /* \"#utility.yul\":977:992   */\n      add\n        /* \"#utility.yul\":973:1002   */\n      and\n        /* \"#utility.yul\":968:971   */\n      dup6\n        /* \"#utility.yul\":964:1003   */\n      add\n        /* \"#utility.yul\":960:1010   */\n      add\n        /* \"#utility.yul\":953:1010   */\n      swap2\n      pop\n      pop\n        /* \"#utility.yul\":728:1016   */\n      swap3\n      swap2\n      pop\n      pop\n      jump\t// out\n        /* \"#utility.yul\":1021:1238   */\n    tag_24:\n        /* \"#utility.yul\":1168:1170   */\n      0x20\n        /* \"#utility.yul\":1157:1166   */\n      dup2\n        /* \"#utility.yul\":1150:1171   */\n      mstore\n        /* \"#utility.yul\":1131:1135   */\n      0x00\n        /* \"#utility.yul\":1188:1232   */\n      tag_144\n        /* \"#utility.yul\":1228:1230   */\n      0x20\n        /* \"#utility.yul\":1217:1226   */\n      dup4\n        /* \"#utility.yul\":1213:1231   */\n      add\n        /* \"#utility.yul\":1205:1211   */\n      dup5\n        /* \"#utility.yul\":1188:1232   */\n      tag_133\n      jump\t// in\n        /* \"#utility.yul\":1243:1370   */\n    tag_82:\n        /* \"#utility.yul\":1304:1314   */\n      0x4e487b71\n        /* \"#utility.yul\":1299:1302   */\n      0xe0\n        /* \"#utility.yul\":1295:1315   */\n      shl\n        /* \"#utility.yul\":1292:1293   */\n      0x00\n        /* \"#utility.yul\":1285:1316   */\n      mstore\n        /* \"#utility.yul\":1335:1339   */\n      0x41\n        /* \"#utility.yul\":1332:1333   */\n      0x04\n        /* \"#utility.yul\":1325:1340   */\n      mstore\n        /* \"#utility.yul\":1359:1363   */\n      0x24\n        /* \"#utility.yul\":1356:1357   */\n      0x00\n        /* \"#utility.yul\":1349:1364   */\n      revert\n        /* \"#utility.yul\":1375:1650   */\n    tag_134:\n        /* \"#utility.yul\":1446:1448   */\n      0x40\n        /* \"#utility.yul\":1440:1449   */\n      mload\n        /* \"#utility.yul\":1511:1513   */\n      0x1f\n        /* \"#utility.yul\":1492:1505   */\n      dup3\n      add\n      not(0x1f)\n        /* \"#utility.yul\":1488:1515   */\n      and\n        /* \"#utility.yul\":1476:1516   */\n      dup2\n      add\n        /* \"#utility.yul\":1546:1564   */\n      0xffffffffffffffff\n        /* \"#utility.yul\":1531:1565   */\n      dup2\n      gt\n        /* \"#utility.yul\":1567:1589   */\n      dup3\n      dup3\n      lt\n        /* \"#utility.yul\":1528:1590   */\n      or\n        /* \"#utility.yul\":1525:1613   */\n      iszero\n      tag_154\n      jumpi\n        /* \"#utility.yul\":1593:1611   */\n      tag_154\n      tag_82\n      jump\t// in\n    tag_154:\n        /* \"#utility.yul\":1629:1631   */\n      0x40\n        /* \"#utility.yul\":1622:1644   */\n      mstore\n        /* \"#utility.yul\":1375:1650   */\n      swap2\n      swap1\n      pop\n      jump\t// out\n        /* \"#utility.yul\":1655:2213   */\n    tag_135:\n        /* \"#utility.yul\":1697:1702   */\n      0x00\n        /* \"#utility.yul\":1750:1753   */\n      dup3\n        /* \"#utility.yul\":1743:1747   */\n      0x1f\n        /* \"#utility.yul\":1735:1741   */\n      dup4\n        /* \"#utility.yul\":1731:1748   */\n      add\n        /* \"#utility.yul\":1727:1754   */\n      slt\n        /* \"#utility.yul\":1717:1772   */\n      tag_156\n      jumpi\n        /* \"#utility.yul\":1768:1769   */\n      0x00\n        /* \"#utility.yul\":1765:1766   */\n      0x00\n        /* \"#utility.yul\":1758:1770   */\n      revert\n        /* \"#utility.yul\":1717:1772   */\n    tag_156:\n        /* \"#utility.yul\":1808:1814   */\n      dup2\n        /* \"#utility.yul\":1795:1815   */\n      calldataload\n        /* \"#utility.yul\":1838:1856   */\n      0xffffffffffffffff\n        /* \"#utility.yul\":1830:1836   */\n      dup2\n        /* \"#utility.yul\":1827:1857   */\n      gt\n        /* \"#utility.yul\":1824:1880   */\n      iszero\n      tag_158\n      jumpi\n        /* \"#utility.yul\":1860:1878   */\n      tag_158\n      tag_82\n      jump\t// in\n    tag_158:\n        /* \"#utility.yul\":1904:1963   */\n      tag_159\n        /* \"#utility.yul\":1951:1953   */\n      0x1f\n        /* \"#utility.yul\":1928:1945   */\n      dup3\n      add\n      not(0x1f)\n        /* \"#utility.yul\":1924:1955   */\n      and\n        /* \"#utility.yul\":1957:1961   */\n      0x20\n        /* \"#utility.yul\":1920:1962   */\n      add\n        /* \"#utility.yul\":1904:1963   */\n      tag_134\n      jump\t// in\n    tag_159:\n        /* \"#utility.yul\":1988:1994   */\n      dup2\n        /* \"#utility.yul\":1979:1986   */\n      dup2\n        /* \"#utility.yul\":1972:1995   */\n      mstore\n        /* \"#utility.yul\":2042:2045   */\n      dup5\n        /* \"#utility.yul\":2035:2039   */\n      0x20\n        /* \"#utility.yul\":2026:2032   */\n      dup4\n        /* \"#utility.yul\":2018:2024   */\n      dup7\n        /* \"#utility.yul\":2014:2033   */\n      add\n        /* \"#utility.yul\":2010:2040   */\n      add\n        /* \"#utility.yul\":2007:2046   */\n      gt\n        /* \"#utility.yul\":2004:2063   */\n      iszero\n      tag_160\n      jumpi\n        /* \"#utility.yul\":2059:2060   */\n      0x00\n        /* \"#utility.yul\":2056:2057   */\n      0x00\n        /* \"#utility.yul\":2049:2061   */\n      revert\n        /* \"#utility.yul\":2004:2063   */\n    tag_160:\n        /* \"#utility.yul\":2124:2130   */\n      dup2\n        /* \"#utility.yul\":2117:2121   */\n      0x20\n        /* \"#utility.yul\":2109:2115   */\n      dup6\n        /* \"#utility.yul\":2105:2122   */\n      add\n        /* \"#utility.yul\":2098:2102   */\n      0x20\n        /* \"#utility.yul\":2089:2096   */\n      dup4\n        /* \"#utility.yul\":2085:2103   */\n      add\n        /* \"#utility.yul\":2072:2131   */\n      calldatacopy\n        /* \"#utility.yul\":2180:2181   */\n      0x00\n        /* \"#utility.yul\":2151:2171   */\n      swap2\n      dup2\n      add\n        /* \"#utility.yul\":2173:2177   */\n      0x20\n        /* \"#utility.yul\":2147:2178   */\n      add\n        /* \"#utility.yul\":2140:2182   */\n      swap2\n      swap1\n      swap2\n      mstore\n        /* \"#utility.yul\":2155:2162   */\n      swap4\n        /* \"#utility.yul\":1655:2213   */\n      swap3\n      pop\n      pop\n      pop\n      jump\t// out\n        /* \"#utility.yul\":2218:2652   */\n    tag_30:\n        /* \"#utility.yul\":2295:2301   */\n      0x00\n        /* \"#utility.yul\":2303:2309   */\n      0x00\n        /* \"#utility.yul\":2356:2358   */\n      0x40\n        /* \"#utility.yul\":2344:2353   */\n      dup4\n        /* \"#utility.yul\":2335:2342   */\n      dup6\n        /* \"#utility.yul\":2331:2354   */\n      sub\n        /* \"#utility.yul\":2327:2359   */\n      slt\n        /* \"#utility.yul\":2324:2376   */\n      iszero\n      tag_162\n      jumpi\n        /* \"#utility.yul\":2372:2373   */\n      0x00\n        /* \"#utility.yul\":2369:2370   */\n      0x00\n        /* \"#utility.yul\":2362:2374   */\n      revert\n        /* \"#utility.yul\":2324:2376   */\n    tag_162:\n        /* \"#utility.yul\":2417:2440   */\n      dup3\n      calldataload\n      swap2\n      pop\n        /* \"#utility.yul\":2515:2517   */\n      0x20\n        /* \"#utility.yul\":2500:2518   */\n      dup4\n      add\n        /* \"#utility.yul\":2487:2519   */\n      calldataload\n        /* \"#utility.yul\":2542:2560   */\n      0xffffffffffffffff\n        /* \"#utility.yul\":2531:2561   */\n      dup2\n      gt\n        /* \"#utility.yul\":2528:2578   */\n      iszero\n      tag_163\n      jumpi\n        /* \"#utility.yul\":2574:2575   */\n      0x00\n        /* \"#utility.yul\":2571:2572   */\n      0x00\n        /* \"#utility.yul\":2564:2576   */\n      revert\n        /* \"#utility.yul\":2528:2578   */\n    tag_163:\n        /* \"#utility.yul\":2597:2646   */\n      tag_164\n        /* \"#utility.yul\":2638:2645   */\n      dup6\n        /* \"#utility.yul\":2629:2635   */\n      dup3\n        /* \"#utility.yul\":2618:2627   */\n      dup7\n        /* \"#utility.yul\":2614:2636   */\n      add\n        /* \"#utility.yul\":2597:2646   */\n      tag_135\n      jump\t// in\n    tag_164:\n        /* \"#utility.yul\":2587:2646   */\n      swap2\n      pop\n      pop\n        /* \"#utility.yul\":2218:2652   */\n      swap3\n      pop\n      swap3\n      swap1\n      pop\n      jump\t// out\n        /* \"#utility.yul\":2865:3048   */\n    tag_136:\n        /* \"#utility.yul\":2925:2929   */\n      0x00\n        /* \"#utility.yul\":2958:2976   */\n      0xffffffffffffffff\n        /* \"#utility.yul\":2950:2956   */\n      dup3\n        /* \"#utility.yul\":2947:2977   */\n      gt\n        /* \"#utility.yul\":2944:3000   */\n      iszero\n      tag_168\n      jumpi\n        /* \"#utility.yul\":2980:2998   */\n      tag_168\n      tag_82\n      jump\t// in\n    tag_168:\n      pop\n        /* \"#utility.yul\":3025:3026   */\n      0x05\n        /* \"#utility.yul\":3021:3035   */\n      shl\n        /* \"#utility.yul\":3037:3041   */\n      0x20\n        /* \"#utility.yul\":3017:3042   */\n      add\n      swap1\n        /* \"#utility.yul\":2865:3048   */\n      jump\t// out\n        /* \"#utility.yul\":3053:3776   */\n    tag_137:\n        /* \"#utility.yul\":3107:3112   */\n      0x00\n        /* \"#utility.yul\":3160:3163   */\n      dup3\n        /* \"#utility.yul\":3153:3157   */\n      0x1f\n        /* \"#utility.yul\":3145:3151   */\n      dup4\n        /* \"#utility.yul\":3141:3158   */\n      add\n        /* \"#utility.yul\":3137:3164   */\n      slt\n        /* \"#utility.yul\":3127:3182   */\n      tag_170\n      jumpi\n        /* \"#utility.yul\":3178:3179   */\n      0x00\n        /* \"#utility.yul\":3175:3176   */\n      0x00\n        /* \"#utility.yul\":3168:3180   */\n      revert\n        /* \"#utility.yul\":3127:3182   */\n    tag_170:\n        /* \"#utility.yul\":3218:3224   */\n      dup2\n        /* \"#utility.yul\":3205:3225   */\n      calldataload\n        /* \"#utility.yul\":3245:3309   */\n      tag_171\n        /* \"#utility.yul\":3261:3308   */\n      tag_172\n        /* \"#utility.yul\":3301:3307   */\n      dup3\n        /* \"#utility.yul\":3261:3308   */\n      tag_136\n      jump\t// in\n    tag_172:\n        /* \"#utility.yul\":3245:3309   */\n      tag_134\n      jump\t// in\n    tag_171:\n        /* \"#utility.yul\":3333:3336   */\n      dup1\n        /* \"#utility.yul\":3357:3363   */\n      dup3\n        /* \"#utility.yul\":3352:3355   */\n      dup3\n        /* \"#utility.yul\":3345:3364   */\n      mstore\n        /* \"#utility.yul\":3389:3393   */\n      0x20\n        /* \"#utility.yul\":3384:3387   */\n      dup3\n        /* \"#utility.yul\":3380:3394   */\n      add\n        /* \"#utility.yul\":3373:3394   */\n      swap2\n      pop\n        /* \"#utility.yul\":3450:3454   */\n      0x20\n        /* \"#utility.yul\":3440:3446   */\n      dup4\n        /* \"#utility.yul\":3437:3438   */\n      0x05\n        /* \"#utility.yul\":3433:3447   */\n      shl\n        /* \"#utility.yul\":3425:3431   */\n      dup7\n        /* \"#utility.yul\":3421:3448   */\n      add\n        /* \"#utility.yul\":3417:3455   */\n      add\n        /* \"#utility.yul\":3403:3455   */\n      swap3\n      pop\n        /* \"#utility.yul\":3478:3481   */\n      dup6\n        /* \"#utility.yul\":3470:3476   */\n      dup4\n        /* \"#utility.yul\":3467:3482   */\n      gt\n        /* \"#utility.yul\":3464:3499   */\n      iszero\n      tag_173\n      jumpi\n        /* \"#utility.yul\":3495:3496   */\n      0x00\n        /* \"#utility.yul\":3492:3493   */\n      0x00\n        /* \"#utility.yul\":3485:3497   */\n      revert\n        /* \"#utility.yul\":3464:3499   */\n    tag_173:\n        /* \"#utility.yul\":3531:3535   */\n      0x20\n        /* \"#utility.yul\":3523:3529   */\n      dup6\n        /* \"#utility.yul\":3519:3536   */\n      add\n        /* \"#utility.yul\":3545:3745   */\n    tag_174:\n        /* \"#utility.yul\":3561:3567   */\n      dup4\n        /* \"#utility.yul\":3556:3559   */\n      dup2\n        /* \"#utility.yul\":3553:3568   */\n      lt\n        /* \"#utility.yul\":3545:3745   */\n      iszero\n      tag_176\n      jumpi\n        /* \"#utility.yul\":3653:3670   */\n      dup1\n      calldataload\n        /* \"#utility.yul\":3683:3701   */\n      dup4\n      mstore\n        /* \"#utility.yul\":3730:3734   */\n      0x20\n        /* \"#utility.yul\":3721:3735   */\n      swap3\n      dup4\n      add\n      swap3\n        /* \"#utility.yul\":3578:3592   */\n      add\n        /* \"#utility.yul\":3545:3745   */\n      jump(tag_174)\n    tag_176:\n      pop\n        /* \"#utility.yul\":3763:3770   */\n      swap6\n        /* \"#utility.yul\":3053:3776   */\n      swap5\n      pop\n      pop\n      pop\n      pop\n      pop\n      jump\t// out\n        /* \"#utility.yul\":3781:5074   */\n    tag_39:\n        /* \"#utility.yul\":3908:3914   */\n      0x00\n        /* \"#utility.yul\":3916:3922   */\n      0x00\n        /* \"#utility.yul\":3969:3971   */\n      0x40\n        /* \"#utility.yul\":3957:3966   */\n      dup4\n        /* \"#utility.yul\":3948:3955   */\n      dup6\n        /* \"#utility.yul\":3944:3967   */\n      sub\n        /* \"#utility.yul\":3940:3972   */\n      slt\n        /* \"#utility.yul\":3937:3989   */\n      iszero\n      tag_178\n      jumpi\n        /* \"#utility.yul\":3985:3986   */\n      0x00\n        /* \"#utility.yul\":3982:3983   */\n      0x00\n        /* \"#utility.yul\":3975:3987   */\n      revert\n        /* \"#utility.yul\":3937:3989   */\n    tag_178:\n        /* \"#utility.yul\":4025:4034   */\n      dup3\n        /* \"#utility.yul\":4012:4035   */\n      calldataload\n        /* \"#utility.yul\":4058:4076   */\n      0xffffffffffffffff\n        /* \"#utility.yul\":4050:4056   */\n      dup2\n        /* \"#utility.yul\":4047:4077   */\n      gt\n        /* \"#utility.yul\":4044:4094   */\n      iszero\n      tag_179\n      jumpi\n        /* \"#utility.yul\":4090:4091   */\n      0x00\n        /* \"#utility.yul\":4087:4088   */\n      0x00\n        /* \"#utility.yul\":4080:4092   */\n      revert\n        /* \"#utility.yul\":4044:4094   */\n    tag_179:\n        /* \"#utility.yul\":4113:4174   */\n      tag_180\n        /* \"#utility.yul\":4166:4173   */\n      dup6\n        /* \"#utility.yul\":4157:4163   */\n      dup3\n        /* \"#utility.yul\":4146:4155   */\n      dup7\n        /* \"#utility.yul\":4142:4164   */\n      add\n        /* \"#utility.yul\":4113:4174   */\n      tag_137\n      jump\t// in\n    tag_180:\n        /* \"#utility.yul\":4103:4174   */\n      swap3\n      pop\n      pop\n        /* \"#utility.yul\":4227:4229   */\n      0x20\n        /* \"#utility.yul\":4216:4225   */\n      dup4\n        /* \"#utility.yul\":4212:4230   */\n      add\n        /* \"#utility.yul\":4199:4231   */\n      calldataload\n        /* \"#utility.yul\":4256:4274   */\n      0xffffffffffffffff\n        /* \"#utility.yul\":4246:4254   */\n      dup2\n        /* \"#utility.yul\":4243:4275   */\n      gt\n        /* \"#utility.yul\":4240:4292   */\n      iszero\n      tag_181\n      jumpi\n        /* \"#utility.yul\":4288:4289   */\n      0x00\n        /* \"#utility.yul\":4285:4286   */\n      0x00\n        /* \"#utility.yul\":4278:4290   */\n      revert\n        /* \"#utility.yul\":4240:4292   */\n    tag_181:\n        /* \"#utility.yul\":4311:4335   */\n      dup4\n      add\n        /* \"#utility.yul\":4366:4370   */\n      0x1f\n        /* \"#utility.yul\":4358:4371   */\n      dup2\n      add\n        /* \"#utility.yul\":4354:4381   */\n      dup6\n      sgt\n        /* \"#utility.yul\":4344:4399   */\n      tag_182\n      jumpi\n        /* \"#utility.yul\":4395:4396   */\n      0x00\n        /* \"#utility.yul\":4392:4393   */\n      0x00\n        /* \"#utility.yul\":4385:4397   */\n      revert\n        /* \"#utility.yul\":4344:4399   */\n    tag_182:\n        /* \"#utility.yul\":4435:4437   */\n      dup1\n        /* \"#utility.yul\":4422:4438   */\n      calldataload\n        /* \"#utility.yul\":4458:4522   */\n      tag_183\n        /* \"#utility.yul\":4474:4521   */\n      tag_172\n        /* \"#utility.yul\":4514:4520   */\n      dup3\n        /* \"#utility.yul\":4474:4521   */\n      tag_136\n      jump\t// in\n        /* \"#utility.yul\":4458:4522   */\n    tag_183:\n        /* \"#utility.yul\":4544:4547   */\n      dup1\n        /* \"#utility.yul\":4568:4574   */\n      dup3\n        /* \"#utility.yul\":4563:4566   */\n      dup3\n        /* \"#utility.yul\":4556:4575   */\n      mstore\n        /* \"#utility.yul\":4600:4602   */\n      0x20\n        /* \"#utility.yul\":4595:4598   */\n      dup3\n        /* \"#utility.yul\":4591:4603   */\n      add\n        /* \"#utility.yul\":4584:4603   */\n      swap2\n      pop\n        /* \"#utility.yul\":4655:4657   */\n      0x20\n        /* \"#utility.yul\":4645:4651   */\n      dup4\n        /* \"#utility.yul\":4642:4643   */\n      0x05\n        /* \"#utility.yul\":4638:4652   */\n      shl\n        /* \"#utility.yul\":4634:4636   */\n      dup6\n        /* \"#utility.yul\":4630:4653   */\n      add\n        /* \"#utility.yul\":4626:4658   */\n      add\n        /* \"#utility.yul\":4612:4658   */\n      swap3\n      pop\n        /* \"#utility.yul\":4681:4688   */\n      dup8\n        /* \"#utility.yul\":4673:4679   */\n      dup4\n        /* \"#utility.yul\":4670:4689   */\n      gt\n        /* \"#utility.yul\":4667:4706   */\n      iszero\n      tag_185\n      jumpi\n        /* \"#utility.yul\":4702:4703   */\n      0x00\n        /* \"#utility.yul\":4699:4700   */\n      0x00\n        /* \"#utility.yul\":4692:4704   */\n      revert\n        /* \"#utility.yul\":4667:4706   */\n    tag_185:\n        /* \"#utility.yul\":4734:4736   */\n      0x20\n        /* \"#utility.yul\":4730:4732   */\n      dup5\n        /* \"#utility.yul\":4726:4737   */\n      add\n        /* \"#utility.yul\":4746:5044   */\n    tag_186:\n        /* \"#utility.yul\":4762:4768   */\n      dup4\n        /* \"#utility.yul\":4757:4760   */\n      dup2\n        /* \"#utility.yul\":4754:4769   */\n      lt\n        /* \"#utility.yul\":4746:5044   */\n      iszero\n      tag_188\n      jumpi\n        /* \"#utility.yul\":4848:4851   */\n      dup1\n        /* \"#utility.yul\":4835:4852   */\n      calldataload\n        /* \"#utility.yul\":4884:4902   */\n      0xffffffffffffffff\n        /* \"#utility.yul\":4871:4882   */\n      dup2\n        /* \"#utility.yul\":4868:4903   */\n      gt\n        /* \"#utility.yul\":4865:4920   */\n      iszero\n      tag_189\n      jumpi\n        /* \"#utility.yul\":4916:4917   */\n      0x00\n        /* \"#utility.yul\":4913:4914   */\n      0x00\n        /* \"#utility.yul\":4906:4918   */\n      revert\n        /* \"#utility.yul\":4865:4920   */\n    tag_189:\n        /* \"#utility.yul\":4945:5001   */\n      tag_190\n        /* \"#utility.yul\":4993:5000   */\n      dup11\n        /* \"#utility.yul\":4988:4990   */\n      0x20\n        /* \"#utility.yul\":4974:4985   */\n      dup4\n        /* \"#utility.yul\":4970:4972   */\n      dup10\n        /* \"#utility.yul\":4966:4986   */\n      add\n        /* \"#utility.yul\":4962:4991   */\n      add\n        /* \"#utility.yul\":4945:5001   */\n      tag_135\n      jump\t// in\n    tag_190:\n        /* \"#utility.yul\":4933:5002   */\n      dup5\n      mstore\n      pop\n        /* \"#utility.yul\":5031:5033   */\n      0x20\n        /* \"#utility.yul\":5022:5034   */\n      swap3\n      dup4\n      add\n      swap3\n        /* \"#utility.yul\":4779:4791   */\n      add\n        /* \"#utility.yul\":4746:5044   */\n      jump(tag_186)\n    tag_188:\n        /* \"#utility.yul\":4750:4753   */\n      pop\n        /* \"#utility.yul\":5063:5068   */\n      dup1\n        /* \"#utility.yul\":5053:5068   */\n      swap5\n      pop\n      pop\n      pop\n      pop\n      pop\n        /* \"#utility.yul\":3781:5074   */\n      swap3\n      pop\n      swap3\n      swap1\n      pop\n      jump\t// out\n        /* \"#utility.yul\":5079:5427   */\n    tag_44:\n        /* \"#utility.yul\":5163:5169   */\n      0x00\n        /* \"#utility.yul\":5216:5218   */\n      0x20\n        /* \"#utility.yul\":5204:5213   */\n      dup3\n        /* \"#utility.yul\":5195:5202   */\n      dup5\n        /* \"#utility.yul\":5191:5214   */\n      sub\n        /* \"#utility.yul\":5187:5219   */\n      slt\n        /* \"#utility.yul\":5184:5236   */\n      iszero\n      tag_192\n      jumpi\n        /* \"#utility.yul\":5232:5233   */\n      0x00\n        /* \"#utility.yul\":5229:5230   */\n      0x00\n        /* \"#utility.yul\":5222:5234   */\n      revert\n        /* \"#utility.yul\":5184:5236   */\n    tag_192:\n        /* \"#utility.yul\":5272:5281   */\n      dup2\n        /* \"#utility.yul\":5259:5282   */\n      calldataload\n        /* \"#utility.yul\":5305:5323   */\n      0xffffffffffffffff\n        /* \"#utility.yul\":5297:5303   */\n      dup2\n        /* \"#utility.yul\":5294:5324   */\n      gt\n        /* \"#utility.yul\":5291:5341   */\n      iszero\n      tag_193\n      jumpi\n        /* \"#utility.yul\":5337:5338   */\n      0x00\n        /* \"#utility.yul\":5334:5335   */\n      0x00\n        /* \"#utility.yul\":5327:5339   */\n      revert\n        /* \"#utility.yul\":5291:5341   */\n    tag_193:\n        /* \"#utility.yul\":5360:5421   */\n      tag_194\n        /* \"#utility.yul\":5413:5420   */\n      dup5\n        /* \"#utility.yul\":5404:5410   */\n      dup3\n        /* \"#utility.yul\":5393:5402   */\n      dup6\n        /* \"#utility.yul\":5389:5411   */\n      add\n        /* \"#utility.yul\":5360:5421   */\n      tag_137\n      jump\t// in\n    tag_194:\n        /* \"#utility.yul\":5350:5421   */\n      swap5\n        /* \"#utility.yul\":5079:5427   */\n      swap4\n      pop\n      pop\n      pop\n      pop\n      jump\t// out\n        /* \"#utility.yul\":5432:6211   */\n    tag_47:\n        /* \"#utility.yul\":5592:5596   */\n      0x00\n        /* \"#utility.yul\":5640:5642   */\n      0x20\n        /* \"#utility.yul\":5629:5638   */\n      dup3\n        /* \"#utility.yul\":5625:5643   */\n      add\n        /* \"#utility.yul\":5670:5672   */\n      0x20\n        /* \"#utility.yul\":5659:5668   */\n      dup4\n        /* \"#utility.yul\":5652:5673   */\n      mstore\n        /* \"#utility.yul\":5693:5699   */\n      dup1\n        /* \"#utility.yul\":5728:5734   */\n      dup5\n        /* \"#utility.yul\":5722:5735   */\n      mload\n        /* \"#utility.yul\":5759:5765   */\n      dup1\n        /* \"#utility.yul\":5751:5757   */\n      dup4\n        /* \"#utility.yul\":5744:5766   */\n      mstore\n        /* \"#utility.yul\":5797:5799   */\n      0x40\n        /* \"#utility.yul\":5786:5795   */\n      dup6\n        /* \"#utility.yul\":5782:5800   */\n      add\n        /* \"#utility.yul\":5775:5800   */\n      swap2\n      pop\n        /* \"#utility.yul\":5859:5861   */\n      0x40\n        /* \"#utility.yul\":5849:5855   */\n      dup2\n        /* \"#utility.yul\":5846:5847   */\n      0x05\n        /* \"#utility.yul\":5842:5856   */\n      shl\n        /* \"#utility.yul\":5831:5840   */\n      dup7\n        /* \"#utility.yul\":5827:5857   */\n      add\n        /* \"#utility.yul\":5823:5862   */\n      add\n        /* \"#utility.yul\":5809:5862   */\n      swap3\n      pop\n        /* \"#utility.yul\":5897:5899   */\n      0x20\n        /* \"#utility.yul\":5889:5895   */\n      dup7\n        /* \"#utility.yul\":5885:5900   */\n      add\n        /* \"#utility.yul\":5918:5919   */\n      0x00\n        /* \"#utility.yul\":5928:6182   */\n    tag_196:\n        /* \"#utility.yul\":5942:5948   */\n      dup3\n        /* \"#utility.yul\":5939:5940   */\n      dup2\n        /* \"#utility.yul\":5936:5949   */\n      lt\n        /* \"#utility.yul\":5928:6182   */\n      iszero\n      tag_198\n      jumpi\n        /* \"#utility.yul\":6035:6037   */\n      0x3f\n        /* \"#utility.yul\":6031:6038   */\n      not\n        /* \"#utility.yul\":6019:6028   */\n      dup8\n        /* \"#utility.yul\":6011:6017   */\n      dup7\n        /* \"#utility.yul\":6007:6029   */\n      sub\n        /* \"#utility.yul\":6003:6039   */\n      add\n        /* \"#utility.yul\":5998:6001   */\n      dup5\n        /* \"#utility.yul\":5991:6040   */\n      mstore\n        /* \"#utility.yul\":6063:6102   */\n      tag_199\n        /* \"#utility.yul\":6095:6101   */\n      dup6\n        /* \"#utility.yul\":6086:6092   */\n      dup4\n        /* \"#utility.yul\":6080:6093   */\n      mload\n        /* \"#utility.yul\":6063:6102   */\n      tag_133\n      jump\t// in\n    tag_199:\n        /* \"#utility.yul\":6053:6102   */\n      swap5\n      pop\n        /* \"#utility.yul\":6137:6139   */\n      0x20\n        /* \"#utility.yul\":6160:6172   */\n      swap4\n      dup5\n      add\n      swap4\n        /* \"#utility.yul\":6125:6140   */\n      swap2\n      swap1\n      swap2\n      add\n      swap1\n        /* \"#utility.yul\":5964:5965   */\n      0x01\n        /* \"#utility.yul\":5957:5966   */\n      add\n        /* \"#utility.yul\":5928:6182   */\n      jump(tag_196)\n    tag_198:\n      pop\n        /* \"#utility.yul\":6199:6205   */\n      swap3\n      swap7\n        /* \"#utility.yul\":5432:6211   */\n      swap6\n      pop\n      pop\n      pop\n      pop\n      pop\n      pop\n      jump\t// out\n        /* \"#utility.yul\":6216:6502   */\n    tag_51:\n        /* \"#utility.yul\":6275:6281   */\n      0x00\n        /* \"#utility.yul\":6328:6330   */\n      0x20\n        /* \"#utility.yul\":6316:6325   */\n      dup3\n        /* \"#utility.yul\":6307:6314   */\n      dup5\n        /* \"#utility.yul\":6303:6326   */\n      sub\n        /* \"#utility.yul\":6299:6331   */\n      slt\n        /* \"#utility.yul\":6296:6348   */\n      iszero\n      tag_201\n      jumpi\n        /* \"#utility.yul\":6344:6345   */\n      0x00\n        /* \"#utility.yul\":6341:6342   */\n      0x00\n        /* \"#utility.yul\":6334:6346   */\n      revert\n        /* \"#utility.yul\":6296:6348   */\n    tag_201:\n        /* \"#utility.yul\":6370:6393   */\n      dup2\n      calldataload\n      sub(shl(0xa0, 0x01), 0x01)\n        /* \"#utility.yul\":6422:6453   */\n      dup2\n      and\n        /* \"#utility.yul\":6412:6454   */\n      dup2\n      eq\n        /* \"#utility.yul\":6402:6472   */\n      tag_144\n      jumpi\n        /* \"#utility.yul\":6468:6469   */\n      0x00\n        /* \"#utility.yul\":6465:6466   */\n      0x00\n        /* \"#utility.yul\":6458:6470   */\n      revert\n        /* \"#utility.yul\":6507:6634   */\n    tag_91:\n        /* \"#utility.yul\":6568:6578   */\n      0x4e487b71\n        /* \"#utility.yul\":6563:6566   */\n      0xe0\n        /* \"#utility.yul\":6559:6579   */\n      shl\n        /* \"#utility.yul\":6556:6557   */\n      0x00\n        /* \"#utility.yul\":6549:6580   */\n      mstore\n        /* \"#utility.yul\":6599:6603   */\n      0x32\n        /* \"#utility.yul\":6596:6597   */\n      0x04\n        /* \"#utility.yul\":6589:6604   */\n      mstore\n        /* \"#utility.yul\":6623:6627   */\n      0x24\n        /* \"#utility.yul\":6620:6621   */\n      0x00\n        /* \"#utility.yul\":6613:6628   */\n      revert\n        /* \"#utility.yul\":7046:7426   */\n    tag_104:\n        /* \"#utility.yul\":7125:7126   */\n      0x01\n        /* \"#utility.yul\":7121:7133   */\n      dup2\n      dup2\n      shr\n      swap1\n        /* \"#utility.yul\":7168:7180   */\n      dup3\n      and\n      dup1\n        /* \"#utility.yul\":7189:7250   */\n      tag_206\n      jumpi\n        /* \"#utility.yul\":7243:7247   */\n      0x7f\n        /* \"#utility.yul\":7235:7241   */\n      dup3\n        /* \"#utility.yul\":7231:7248   */\n      and\n        /* \"#utility.yul\":7221:7248   */\n      swap2\n      pop\n        /* \"#utility.yul\":7189:7250   */\n    tag_206:\n        /* \"#utility.yul\":7296:7298   */\n      0x20\n        /* \"#utility.yul\":7288:7294   */\n      dup3\n        /* \"#utility.yul\":7285:7299   */\n      lt\n        /* \"#utility.yul\":7265:7283   */\n      dup2\n        /* \"#utility.yul\":7262:7300   */\n      sub\n        /* \"#utility.yul\":7259:7420   */\n      tag_86\n      jumpi\n        /* \"#utility.yul\":7342:7352   */\n      0x4e487b71\n        /* \"#utility.yul\":7337:7340   */\n      0xe0\n        /* \"#utility.yul\":7333:7353   */\n      shl\n        /* \"#utility.yul\":7330:7331   */\n      0x00\n        /* \"#utility.yul\":7323:7354   */\n      mstore\n        /* \"#utility.yul\":7377:7381   */\n      0x22\n        /* \"#utility.yul\":7374:7375   */\n      0x04\n        /* \"#utility.yul\":7367:7382   */\n      mstore\n        /* \"#utility.yul\":7405:7409   */\n      0x24\n        /* \"#utility.yul\":7402:7403   */\n      0x00\n        /* \"#utility.yul\":7395:7410   */\n      revert\n        /* \"#utility.yul\":7917:8434   */\n    tag_139:\n        /* \"#utility.yul\":8018:8020   */\n      0x1f\n        /* \"#utility.yul\":8013:8016   */\n      dup3\n        /* \"#utility.yul\":8010:8021   */\n      gt\n        /* \"#utility.yul\":8007:8428   */\n      iszero\n      tag_125\n      jumpi\n        /* \"#utility.yul\":8054:8059   */\n      dup1\n        /* \"#utility.yul\":8051:8052   */\n      0x00\n        /* \"#utility.yul\":8044:8060   */\n      mstore\n        /* \"#utility.yul\":8098:8102   */\n      0x20\n        /* \"#utility.yul\":8095:8096   */\n      0x00\n        /* \"#utility.yul\":8085:8103   */\n      keccak256\n        /* \"#utility.yul\":8168:8170   */\n      0x1f\n        /* \"#utility.yul\":8156:8166   */\n      dup5\n        /* \"#utility.yul\":8152:8171   */\n      add\n        /* \"#utility.yul\":8149:8150   */\n      0x05\n        /* \"#utility.yul\":8145:8172   */\n      shr\n        /* \"#utility.yul\":8139:8143   */\n      dup2\n        /* \"#utility.yul\":8135:8173   */\n      add\n        /* \"#utility.yul\":8204:8208   */\n      0x20\n        /* \"#utility.yul\":8192:8202   */\n      dup6\n        /* \"#utility.yul\":8189:8209   */\n      lt\n        /* \"#utility.yul\":8186:8233   */\n      iszero\n      tag_212\n      jumpi\n      pop\n        /* \"#utility.yul\":8227:8231   */\n      dup1\n        /* \"#utility.yul\":8186:8233   */\n    tag_212:\n        /* \"#utility.yul\":8282:8284   */\n      0x1f\n        /* \"#utility.yul\":8277:8280   */\n      dup5\n        /* \"#utility.yul\":8273:8285   */\n      add\n        /* \"#utility.yul\":8270:8271   */\n      0x05\n        /* \"#utility.yul\":8266:8286   */\n      shr\n        /* \"#utility.yul\":8260:8264   */\n      dup3\n        /* \"#utility.yul\":8256:8287   */\n      add\n        /* \"#utility.yul\":8246:8287   */\n      swap2\n      pop\n        /* \"#utility.yul\":8337:8418   */\n    tag_213:\n        /* \"#utility.yul\":8355:8357   */\n      dup2\n        /* \"#utility.yul\":8348:8353   */\n      dup2\n        /* \"#utility.yul\":8345:8358   */\n      lt\n        /* \"#utility.yul\":8337:8418   */\n      iszero\n      tag_215\n      jumpi\n        /* \"#utility.yul\":8414:8415   */\n      0x00\n        /* \"#utility.yul\":8400:8416   */\n      dup2\n      sstore\n        /* \"#utility.yul\":8381:8382   */\n      0x01\n        /* \"#utility.yul\":8370:8383   */\n      add\n        /* \"#utility.yul\":8337:8418   */\n      jump(tag_213)\n    tag_215:\n        /* \"#utility.yul\":8341:8344   */\n      pop\n      pop\n        /* \"#utility.yul\":7917:8434   */\n      pop\n      pop\n      pop\n      jump\t// out\n        /* \"#utility.yul\":8610:9905   */\n    tag_119:\n        /* \"#utility.yul\":8734:8737   */\n      dup2\n        /* \"#utility.yul\":8728:8738   */\n      mload\n        /* \"#utility.yul\":8761:8779   */\n      0xffffffffffffffff\n        /* \"#utility.yul\":8753:8759   */\n      dup2\n        /* \"#utility.yul\":8750:8780   */\n      gt\n        /* \"#utility.yul\":8747:8803   */\n      iszero\n      tag_219\n      jumpi\n        /* \"#utility.yul\":8783:8801   */\n      tag_219\n      tag_82\n      jump\t// in\n    tag_219:\n        /* \"#utility.yul\":8812:8908   */\n      tag_220\n        /* \"#utility.yul\":8901:8907   */\n      dup2\n        /* \"#utility.yul\":8861:8899   */\n      tag_221\n        /* \"#utility.yul\":8893:8897   */\n      dup5\n        /* \"#utility.yul\":8887:8898   */\n      sload\n        /* \"#utility.yul\":8861:8899   */\n      tag_104\n      jump\t// in\n    tag_221:\n        /* \"#utility.yul\":8855:8859   */\n      dup5\n        /* \"#utility.yul\":8812:8908   */\n      tag_139\n      jump\t// in\n    tag_220:\n        /* \"#utility.yul\":8957:8961   */\n      0x20\n        /* \"#utility.yul\":8988:8990   */\n      0x1f\n        /* \"#utility.yul\":8977:8991   */\n      dup3\n      gt\n        /* \"#utility.yul\":9005:9006   */\n      0x01\n        /* \"#utility.yul\":9000:9648   */\n      dup2\n      eq\n      tag_223\n      jumpi\n        /* \"#utility.yul\":9692:9693   */\n      0x00\n        /* \"#utility.yul\":9709:9715   */\n      dup4\n        /* \"#utility.yul\":9706:9795   */\n      iszero\n      tag_224\n      jumpi\n      pop\n        /* \"#utility.yul\":9761:9780   */\n      dup5\n      dup3\n      add\n        /* \"#utility.yul\":9755:9781   */\n      mload\n        /* \"#utility.yul\":9706:9795   */\n    tag_224:\n      not(0x00)\n        /* \"#utility.yul\":8567:8568   */\n      0x03\n        /* \"#utility.yul\":8563:8574   */\n      dup6\n      swap1\n      shl\n        /* \"#utility.yul\":8559:8583   */\n      shr\n        /* \"#utility.yul\":8555:8584   */\n      not\n        /* \"#utility.yul\":8545:8585   */\n      and\n        /* \"#utility.yul\":8591:8592   */\n      0x01\n        /* \"#utility.yul\":8587:8598   */\n      dup5\n      swap1\n      shl\n        /* \"#utility.yul\":8542:8599   */\n      or\n        /* \"#utility.yul\":9808:9889   */\n      dup5\n      sstore\n        /* \"#utility.yul\":8970:9899   */\n      jump(tag_215)\n        /* \"#utility.yul\":9000:9648   */\n    tag_223:\n        /* \"#utility.yul\":7864:7865   */\n      0x00\n        /* \"#utility.yul\":7857:7871   */\n      dup5\n      dup2\n      mstore\n        /* \"#utility.yul\":7901:7905   */\n      0x20\n        /* \"#utility.yul\":7888:7906   */\n      dup2\n      keccak256\n      not(0x1f)\n        /* \"#utility.yul\":9036:9056   */\n      dup6\n      and\n      swap2\n        /* \"#utility.yul\":9153:9375   */\n    tag_227:\n        /* \"#utility.yul\":9167:9174   */\n      dup3\n        /* \"#utility.yul\":9164:9165   */\n      dup2\n        /* \"#utility.yul\":9161:9175   */\n      lt\n        /* \"#utility.yul\":9153:9375   */\n      iszero\n      tag_229\n      jumpi\n        /* \"#utility.yul\":9249:9268   */\n      dup8\n      dup6\n      add\n        /* \"#utility.yul\":9243:9269   */\n      mload\n        /* \"#utility.yul\":9228:9270   */\n      dup3\n      sstore\n        /* \"#utility.yul\":9356:9360   */\n      0x20\n        /* \"#utility.yul\":9341:9361   */\n      swap5\n      dup6\n      add\n      swap5\n        /* \"#utility.yul\":9309:9310   */\n      0x01\n        /* \"#utility.yul\":9297:9311   */\n      swap1\n      swap3\n      add\n      swap2\n        /* \"#utility.yul\":9183:9195   */\n      add\n        /* \"#utility.yul\":9153:9375   */\n      jump(tag_227)\n    tag_229:\n        /* \"#utility.yul\":9157:9160   */\n      pop\n        /* \"#utility.yul\":9403:9409   */\n      dup5\n        /* \"#utility.yul\":9394:9401   */\n      dup3\n        /* \"#utility.yul\":9391:9410   */\n      lt\n        /* \"#utility.yul\":9388:9589   */\n      iszero\n      tag_230\n      jumpi\n        /* \"#utility.yul\":9464:9483   */\n      dup7\n      dup5\n      add\n        /* \"#utility.yul\":9458:9484   */\n      mload\n      not(0x00)\n        /* \"#utility.yul\":9547:9548   */\n      0x03\n        /* \"#utility.yul\":9543:9557   */\n      dup8\n      swap1\n      shl\n        /* \"#utility.yul\":9559:9562   */\n      0xf8\n        /* \"#utility.yul\":9539:9563   */\n      and\n        /* \"#utility.yul\":9535:9572   */\n      shr\n        /* \"#utility.yul\":9531:9573   */\n      not\n        /* \"#utility.yul\":9516:9574   */\n      and\n        /* \"#utility.yul\":9501:9575   */\n      dup2\n      sstore\n        /* \"#utility.yul\":9388:9589   */\n    tag_230:\n      pop\n      pop\n      pop\n      pop\n        /* \"#utility.yul\":9635:9636   */\n      0x01\n        /* \"#utility.yul\":9619:9633   */\n      swap1\n      dup2\n      shl\n        /* \"#utility.yul\":9615:9637   */\n      add\n        /* \"#utility.yul\":9602:9638   */\n      swap1\n      sstore\n      pop\n        /* \"#utility.yul\":8610:9905   */\n      jump\t// out\n\n    auxdata: 0xa264697066735822122009b96240c90dc730a6d1ada189616ba5ca1f8ea2365e1eb7c640c5ac16e95d8964736f6c634300081f0033\n}\n",
				"bytecode": {
					"linkReferences": {},
					"object": "6080604052604051610ba8380380610ba883398101604081905260209160a8565b6027336059565b6001600160a01b038116604d576040516306b620db60e21b815260040160405180910390fd5b6054816059565b5060d3565b5f80546001600160a01b038381166001600160a01b0319831681178455604051919092169283917f8be0079c531659141344cd1fd0a4f28419497f9722a3daafe3b4186f6b6457e09190a35050565b5f6020828403121560b7575f5ffd5b81516001600160a01b038116811460cc575f5ffd5b9392505050565b610ac8806100e05f395ff3fe608060405260043610610079575f3560e01c80638da5cb5b1161004c5780638da5cb5b14610106578063979024211461012c578063dedff9c61461013f578063f2fde38b1461016b575f5ffd5b806301ffc9a71461007d57806354f6127f146100b1578063715018a6146100dd5780637f23690c146100f3575b5f5ffd5b348015610088575f5ffd5b5061009c61009736600461059e565b61018a565b60405190151581526020015b60405180910390f35b3480156100bc575f5ffd5b506100d06100cb3660046105cc565b6101c0565b6040516100a89190610611565b3480156100e8575f5ffd5b506100f16101cb565b005b6100f16101013660046106d4565b6101de565b348015610111575f5ffd5b505f546040516001600160a01b0390911681526020016100a8565b6100f161013a3660046107a5565b610213565b34801561014a575f5ffd5b5061015e610159366004610883565b610244565b6040516100a891906108bd565b348015610176575f5ffd5b506100f1610185366004610920565b6102ee565b5f6001600160e01b031982166318a6a9a560e21b14806101ba57506301ffc9a760e01b6001600160e01b03198316145b92915050565b60606101ba8261036c565b6101d361040b565b6101dc5f610464565b565b6101e661040b565b34156102055760405163f36ba73760e01b815260040160405180910390fd5b61020f82826104b3565b5050565b61021b61040b565b341561023a5760405163f36ba73760e01b815260040160405180910390fd5b61020f8282610507565b6060815167ffffffffffffffff81111561026057610260610623565b60405190808252806020026020018201604052801561029357816020015b606081526020019060019003908161027e5790505b5090505f5b82518110156102e8576102c38382815181106102b6576102b6610946565b602002602001015161036c565b8282815181106102d5576102d5610946565b6020908102919091010152600101610298565b50919050565b6102f661040b565b6001600160a01b0381166103605760405162461bcd60e51b815260206004820152602660248201527f4f776e61626c653a206e6577206f776e657220697320746865207a65726f206160448201526564647265737360d01b60648201526084015b60405180910390fd5b61036981610464565b50565b5f8181526001602052604090208054606091906103889061095a565b80601f01602080910402602001604051908101604052809291908181526020018280546103b49061095a565b80156103ff5780601f106103d6576101008083540402835291602001916103ff565b820191905f5260205f20905b8154815290600101906020018083116103e257829003601f168201915b50505050509050919050565b5f546001600160a01b031633146101dc5760405162461bcd60e51b815260206004820181905260248201527f4f776e61626c653a2063616c6c6572206973206e6f7420746865206f776e65726044820152606401610357565b5f80546001600160a01b038381166001600160a01b0319831681178455604051919092169283917f8be0079c531659141344cd1fd0a4f28419497f9722a3daafe3b4186f6b6457e09190a35050565b5f8281526001602052604090206104ca82826109d7565b50817fece574603820d07bc9b91f2a932baadf4628aabcb8afba49776529c14a6104b2826040516104fb9190610611565b60405180910390a25050565b805182511461052957604051633bcc897960e01b815260040160405180910390fd5b81515f0361054a576040516397da5f9560e01b815260040160405180910390fd5b5f5b82518110156105995761059183828151811061056a5761056a610946565b602002602001015183838151811061058457610584610946565b60200260200101516104b3565b60010161054c565b505050565b5f602082840312156105ae575f5ffd5b81356001600160e01b0319811681146105c5575f5ffd5b9392505050565b5f602082840312156105dc575f5ffd5b5035919050565b5f81518084528060208401602086015e5f602082860101526020601f19601f83011685010191505092915050565b602081525f6105c560208301846105e3565b634e487b7160e01b5f52604160045260245ffd5b604051601f8201601f1916810167ffffffffffffffff8111828210171561066057610660610623565b604052919050565b5f82601f830112610677575f5ffd5b813567ffffffffffffffff81111561069157610691610623565b6106a4601f8201601f1916602001610637565b8181528460208386010111156106b8575f5ffd5b816020850160208301375f918101602001919091529392505050565b5f5f604083850312156106e5575f5ffd5b82359150602083013567ffffffffffffffff811115610702575f5ffd5b61070e85828601610668565b9150509250929050565b5f67ffffffffffffffff82111561073157610731610623565b5060051b60200190565b5f82601f83011261074a575f5ffd5b813561075d61075882610718565b610637565b8082825260208201915060208360051b86010192508583111561077e575f5ffd5b602085015b8381101561079b578035835260209283019201610783565b5095945050505050565b5f5f604083850312156107b6575f5ffd5b823567ffffffffffffffff8111156107cc575f5ffd5b6107d88582860161073b565b925050602083013567ffffffffffffffff8111156107f4575f5ffd5b8301601f81018513610804575f5ffd5b803561081261075882610718565b8082825260208201915060208360051b850101925087831115610833575f5ffd5b602084015b8381101561087457803567ffffffffffffffff811115610856575f5ffd5b6108658a602083890101610668565b84525060209283019201610838565b50809450505050509250929050565b5f60208284031215610893575f5ffd5b813567ffffffffffffffff8111156108a9575f5ffd5b6108b58482850161073b565b949350505050565b5f602082016020835280845180835260408501915060408160051b8601019250602086015f5b8281101561091457603f198786030184526108ff8583516105e3565b945060209384019391909101906001016108e3565b50929695505050505050565b5f60208284031215610930575f5ffd5b81356001600160a01b03811681146105c5575f5ffd5b634e487b7160e01b5f52603260045260245ffd5b600181811c9082168061096e57607f821691505b6020821081036102e857634e487b7160e01b5f52602260045260245ffd5b601f82111561059957805f5260205f20601f840160051c810160208510156109b15750805b601f840160051c820191505b818110156109d0575f81556001016109bd565b5050505050565b815167ffffffffffffffff8111156109f1576109f1610623565b610a05816109ff845461095a565b8461098c565b6020601f821160018114610a37575f8315610a205750848201515b5f19600385901b1c1916600184901b1784556109d0565b5f84815260208120601f198516915b82811015610a665787850151825560209485019460019092019101610a46565b5084821015610a8357868401515f19600387901b60f8161c191681555b50505050600190811b0190555056fea264697066735822122009b96240c90dc730a6d1ada189616ba5ca1f8ea2365e1eb7c640c5ac16e95d8964736f6c634300081f0033",
					"opcodes": "PUSH1 0x80 PUSH1 0x40 MSTORE PUSH1 0x40 MLOAD PUSH2 0xBA8 CODESIZE SUB DUP1 PUSH2 0xBA8 DUP4 CODECOPY DUP2 ADD PUSH1 0x40 DUP2 SWAP1 MSTORE PUSH1 0x20 SWAP2 PUSH1 0xA8 JUMP JUMPDEST PUSH1 0x27 CALLER PUSH1 0x59 JUMP JUMPDEST PUSH1 0x1 PUSH1 0x1 PUSH1 0xA0 SHL SUB DUP2 AND PUSH1 0x4D JUMPI PUSH1 0x40 MLOAD PUSH4 0x6B620DB PUSH1 0xE2 SHL DUP2 MSTORE PUSH1 0x4 ADD PUSH1 0x40 MLOAD DUP1 SWAP2 SUB SWAP1 REVERT JUMPDEST PUSH1 0x54 DUP2 PUSH1 0x59 JUMP JUMPDEST POP PUSH1 0xD3 JUMP JUMPDEST PUSH0 DUP1 SLOAD PUSH1 0x1 PUSH1 0x1 PUSH1 0xA0 SHL SUB DUP4 DUP2 AND PUSH1 0x1 PUSH1 0x1 PUSH1 0xA0 SHL SUB NOT DUP4 AND DUP2 OR DUP5 SSTORE PUSH1 0x40 MLOAD SWAP2 SWAP1 SWAP3 AND SWAP3 DUP4 SWAP2 PUSH32 0x8BE0079C531659141344CD1FD0A4F28419497F9722A3DAAFE3B4186F6B6457E0 SWAP2 SWAP1 LOG3 POP POP JUMP JUMPDEST PUSH0 PUSH1 0x20 DUP3 DUP5 SUB SLT ISZERO PUSH1 0xB7 JUMPI PUSH0 PUSH0 REVERT JUMPDEST DUP2 MLOAD PUSH1 0x1 PUSH1 0x1 PUSH1 0xA0 SHL SUB DUP2 AND DUP2 EQ PUSH1 0xCC JUMPI PUSH0 PUSH0 REVERT JUMPDEST SWAP4 SWAP3 POP POP POP JUMP JUMPDEST PUSH2 0xAC8 DUP1 PUSH2 0xE0 PUSH0 CODECOPY PUSH0 RETURN INVALID PUSH1 0x80 PUSH1 0x40 MSTORE PUSH1 0x4 CALLDATASIZE LT PUSH2 0x79 JUMPI PUSH0 CALLDATALOAD PUSH1 0xE0 SHR DUP1 PUSH4 0x8DA5CB5B GT PUSH2 0x4C JUMPI DUP1 PUSH4 0x8DA5CB5B EQ PUSH2 0x106 JUMPI DUP1 PUSH4 0x97902421 EQ PUSH2 0x12C JUMPI DUP1 PUSH4 0xDEDFF9C6 EQ PUSH2 0x13F JUMPI DUP1 PUSH4 0xF2FDE38B EQ PUSH2 0x16B JUMPI PUSH0 PUSH0 REVERT JUMPDEST DUP1 PUSH4 0x1FFC9A7 EQ PUSH2 0x7D JUMPI DUP1 PUSH4 0x54F6127F EQ PUSH2 0xB1 JUMPI DUP1 PUSH4 0x715018A6 EQ PUSH2 0xDD JUMPI DUP1 PUSH4 0x7F23690C EQ PUSH2 0xF3 JUMPI JUMPDEST PUSH0 PUSH0 REVERT JUMPDEST CALLVALUE DUP1 ISZERO PUSH2 0x88 JUMPI PUSH0 PUSH0 REVERT JUMPDEST POP PUSH2 0x9C PUSH2 0x97 CALLDATASIZE PUSH1 0x4 PUSH2 0x59E JUMP JUMPDEST PUSH2 0x18A JUMP JUMPDEST PUSH1 0x40 MLOAD SWAP1 ISZERO ISZERO DUP2 MSTORE PUSH1 0x20 ADD JUMPDEST PUSH1 0x40 MLOAD DUP1 SWAP2 SUB SWAP1 RETURN JUMPDEST CALLVALUE DUP1 ISZERO PUSH2 0xBC JUMPI PUSH0 PUSH0 REVERT JUMPDEST POP PUSH2 0xD0 PUSH2 0xCB CALLDATASIZE PUSH1 0x4 PUSH2 0x5CC JUMP JUMPDEST PUSH2 0x1C0 JUMP JUMPDEST PUSH1 0x40 MLOAD PUSH2 0xA8 SWAP2 SWAP1 PUSH2 0x611 JUMP JUMPDEST CALLVALUE DUP1 ISZERO PUSH2 0xE8 JUMPI PUSH0 PUSH0 REVERT JUMPDEST POP PUSH2 0xF1 PUSH2 0x1CB JUMP JUMPDEST STOP JUMPDEST PUSH2 0xF1 PUSH2 0x101 CALLDATASIZE PUSH1 0x4 PUSH2 0x6D4 JUMP JUMPDEST PUSH2 0x1DE JUMP JUMPDEST CALLVALUE DUP1 ISZERO PUSH2 0x111 JUMPI PUSH0 PUSH0 REVERT JUMPDEST POP PUSH0 SLOAD PUSH1 0x40 MLOAD PUSH1 0x1 PUSH1 0x1 PUSH1 0xA0 SHL SUB SWAP1 SWAP2 AND DUP2 MSTORE PUSH1 0x20 ADD PUSH2 0xA8 JUMP JUMPDEST PUSH2 0xF1 PUSH2 0x13A CALLDATASIZE PUSH1 0x4 PUSH2 0x7A5 JUMP JUMPDEST PUSH2 0x213 JUMP JUMPDEST CALLVALUE DUP1 ISZERO PUSH2 0x14A JUMPI PUSH0 PUSH0 REVERT JUMPDEST POP PUSH2 0x15E PUSH2 0x159 CALLDATASIZE PUSH1 0x4 PUSH2 0x883 JUMP JUMPDEST PUSH2 0x244 JUMP JUMPDEST PUSH1 0x40 MLOAD PUSH2 0xA8 SWAP2 SWAP1 PUSH2 0x8BD JUMP JUMPDEST CALLVALUE DUP1 ISZERO PUSH2 0x176 JUMPI PUSH0 PUSH0 REVERT JUMPDEST POP PUSH2 0xF1 PUSH2 0x185 CALLDATASIZE PUSH1 0x4 PUSH2 0x920 JUMP JUMPDEST PUSH2 0x2EE JUMP JUMPDEST PUSH0 PUSH1 0x1 PUSH1 0x1 PUSH1 0xE0 SHL SUB NOT DUP3 AND PUSH4 0x18A6A9A5 PUSH1 0xE2 SHL EQ DUP1 PUSH2 0x1BA JUMPI POP PUSH4 0x1FFC9A7 PUSH1 0xE0 SHL PUSH1 0x1 PUSH1 0x1 PUSH1 0xE0 SHL SUB NOT DUP4 AND EQ JUMPDEST SWAP3 SWAP2 POP POP JUMP JUMPDEST PUSH1 0x60 PUSH2 0x1BA DUP3 PUSH2 0x36C JUMP JUMPDEST PUSH2 0x1D3 PUSH2 0x40B JUMP JUMPDEST PUSH2 0x1DC PUSH0 PUSH2 0x464 JUMP JUMPDEST JUMP JUMPDEST PUSH2 0x1E6 PUSH2 0x40B JUMP JUMPDEST CALLVALUE ISZERO PUSH2 0x205 JUMPI PUSH1 0x40 MLOAD PUSH4 0xF36BA737 PUSH1 0xE0 SHL DUP2 MSTORE PUSH1 0x4 ADD PUSH1 0x40 MLOAD DUP1 SWAP2 SUB SWAP1 REVERT JUMPDEST PUSH2 0x20F DUP3 DUP3 PUSH2 0x4B3 JUMP JUMPDEST POP POP JUMP JUMPDEST PUSH2 0x21B PUSH2 0x40B JUMP JUMPDEST CALLVALUE ISZERO PUSH2 0x23A JUMPI PUSH1 0x40 MLOAD PUSH4 0xF36BA737 PUSH1 0xE0 SHL DUP2 MSTORE PUSH1 0x4 ADD PUSH1 0x40 MLOAD DUP1 SWAP2 SUB SWAP1 REVERT JUMPDEST PUSH2 0x20F DUP3 DUP3 PUSH2 0x507 JUMP JUMPDEST PUSH1 0x60 DUP2 MLOAD PUSH8 0xFFFFFFFFFFFFFFFF DUP2 GT ISZERO PUSH2 0x260 JUMPI PUSH2 0x260 PUSH2 0x623 JUMP JUMPDEST PUSH1 0x40 MLOAD SWAP1 DUP1 DUP3 MSTORE DUP1 PUSH1 0x20 MUL PUSH1 0x20 ADD DUP3 ADD PUSH1 0x40 MSTORE DUP1 ISZERO PUSH2 0x293 JUMPI DUP2 PUSH1 0x20 ADD JUMPDEST PUSH1 0x60 DUP2 MSTORE PUSH1 0x20 ADD SWAP1 PUSH1 0x1 SWAP1 SUB SWAP1 DUP2 PUSH2 0x27E JUMPI SWAP1 POP JUMPDEST POP SWAP1 POP PUSH0 JUMPDEST DUP3 MLOAD DUP2 LT ISZERO PUSH2 0x2E8 JUMPI PUSH2 0x2C3 DUP4 DUP3 DUP2 MLOAD DUP2 LT PUSH2 0x2B6 JUMPI PUSH2 0x2B6 PUSH2 0x946 JUMP JUMPDEST PUSH1 0x20 MUL PUSH1 0x20 ADD ADD MLOAD PUSH2 0x36C JUMP JUMPDEST DUP3 DUP3 DUP2 MLOAD DUP2 LT PUSH2 0x2D5 JUMPI PUSH2 0x2D5 PUSH2 0x946 JUMP JUMPDEST PUSH1 0x20 SWAP1 DUP2 MUL SWAP2 SWAP1 SWAP2 ADD ADD MSTORE PUSH1 0x1 ADD PUSH2 0x298 JUMP JUMPDEST POP SWAP2 SWAP1 POP JUMP JUMPDEST PUSH2 0x2F6 PUSH2 0x40B JUMP JUMPDEST PUSH1 0x1 PUSH1 0x1 PUSH1 0xA0 SHL SUB DUP2 AND PUSH2 0x360 JUMPI PUSH1 0x40 MLOAD PUSH3 0x461BCD PUSH1 0xE5 SHL DUP2 MSTORE PUSH1 0x20 PUSH1 0x4 DUP3 ADD MSTORE PUSH1 0x26 PUSH1 0x24 DUP3 ADD MSTORE PUSH32 0x4F776E61626C653A206E6577206F776E657220697320746865207A65726F2061 PUSH1 0x44 DUP3 ADD MSTORE PUSH6 0x646472657373 PUSH1 0xD0 SHL PUSH1 0x64 DUP3 ADD MSTORE PUSH1 0x84 ADD JUMPDEST PUSH1 0x40 MLOAD DUP1 SWAP2 SUB SWAP1 REVERT JUMPDEST PUSH2 0x369 DUP2 PUSH2 0x464 JUMP JUMPDEST POP JUMP JUMPDEST PUSH0 DUP2 DUP2 MSTORE PUSH1 0x1 PUSH1 0x20 MSTORE PUSH1 0x40 SWAP1 KECCAK256 DUP1 SLOAD PUSH1 0x60 SWAP2 SWAP1 PUSH2 0x388 SWAP1 PUSH2 0x95A JUMP JUMPDEST DUP1 PUSH1 0x1F ADD PUSH1 0x20 DUP1 SWAP2 DIV MUL PUSH1 0x20 ADD PUSH1 0x40 MLOAD SWAP1 DUP2 ADD PUSH1 0x40 MSTORE DUP1 SWAP3 SWAP2 SWAP1 DUP2 DUP2 MSTORE PUSH1 0x20 ADD DUP3 DUP1 SLOAD PUSH2 0x3B4 SWAP1 PUSH2 0x95A JUMP JUMPDEST DUP1 ISZERO PUSH2 0x3FF JUMPI DUP1 PUSH1 0x1F LT PUSH2 0x3D6 JUMPI PUSH2 0x100 DUP1 DUP4 SLOAD DIV MUL DUP4 MSTORE SWAP2 PUSH1 0x20 ADD SWAP2 PUSH2 0x3FF JUMP JUMPDEST DUP3 ADD SWAP2 SWAP1 PUSH0 MSTORE PUSH1 0x20 PUSH0 KECCAK256 SWAP1 JUMPDEST DUP2 SLOAD DUP2 MSTORE SWAP1 PUSH1 0x1 ADD SWAP1 PUSH1 0x20 ADD DUP1 DUP4 GT PUSH2 0x3E2 JUMPI DUP3 SWAP1 SUB PUSH1 0x1F AND DUP3 ADD SWAP2 JUMPDEST POP POP POP POP POP SWAP1 POP SWAP2 SWAP1 POP JUMP JUMPDEST PUSH0 SLOAD PUSH1 0x1 PUSH1 0x1 PUSH1 0xA0 SHL SUB AND CALLER EQ PUSH2 0x1DC JUMPI PUSH1 0x40 MLOAD PUSH3 0x461BCD PUSH1 0xE5 SHL DUP2 MSTORE PUSH1 0x20 PUSH1 0x4 DUP3 ADD DUP2 SWAP1 MSTORE PUSH1 0x24 DUP3 ADD MSTORE PUSH32 0x4F776E61626C653A2063616C6C6572206973206E6F7420746865206F776E6572 PUSH1 0x44 DUP3 ADD MSTORE PUSH1 0x64 ADD PUSH2 0x357 JUMP JUMPDEST PUSH0 DUP1 SLOAD PUSH1 0x1 PUSH1 0x1 PUSH1 0xA0 SHL SUB DUP4 DUP2 AND PUSH1 0x1 PUSH1 0x1 PUSH1 0xA0 SHL SUB NOT DUP4 AND DUP2 OR DUP5 SSTORE PUSH1 0x40 MLOAD SWAP2 SWAP1 SWAP3 AND SWAP3 DUP4 SWAP2 PUSH32 0x8BE0079C531659141344CD1FD0A4F28419497F9722A3DAAFE3B4186F6B6457E0 SWAP2 SWAP1 LOG3 POP POP JUMP JUMPDEST PUSH0 DUP3 DUP2 MSTORE PUSH1 0x1 PUSH1 0x20 MSTORE PUSH1 0x40 SWAP1 KECCAK256 PUSH2 0x4CA DUP3 DUP3 PUSH2 0x9D7 JUMP JUMPDEST POP DUP2 PUSH32 0xECE574603820D07BC9B91F2A932BAADF4628AABCB8AFBA49776529C14A6104B2 DUP3 PUSH1 0x40 MLOAD PUSH2 0x4FB SWAP2 SWAP1 PUSH2 0x611 JUMP JUMPDEST PUSH1 0x40 MLOAD DUP1 SWAP2 SUB SWAP1 LOG2 POP POP JUMP JUMPDEST DUP1 MLOAD DUP3 MLOAD EQ PUSH2 0x529 JUMPI PUSH1 0x40 MLOAD PUSH4 0x3BCC8979 PUSH1 0xE0 SHL DUP2 MSTORE PUSH1 0x4 ADD PUSH1 0x40 MLOAD DUP1 SWAP2 SUB SWAP1 REVERT JUMPDEST DUP2 MLOAD PUSH0 SUB PUSH2 0x54A JUMPI PUSH1 0x40 MLOAD PUSH4 0x97DA5F95 PUSH1 0xE0 SHL DUP2 MSTORE PUSH1 0x4 ADD PUSH1 0x40 MLOAD DUP1 SWAP2 SUB SWAP1 REVERT JUMPDEST PUSH0 JUMPDEST DUP3 MLOAD DUP2 LT ISZERO PUSH2 0x599 JUMPI PUSH2 0x591 DUP4 DUP3 DUP2 MLOAD DUP2 LT PUSH2 0x56A JUMPI PUSH2 0x56A PUSH2 0x946 JUMP JUMPDEST PUSH1 0x20 MUL PUSH1 0x20 ADD ADD MLOAD DUP4 DUP4 DUP2 MLOAD DUP2 LT PUSH2 0x584 JUMPI PUSH2 0x584 PUSH2 0x946 JUMP JUMPDEST PUSH1 0x20 MUL PUSH1 0x20 ADD ADD MLOAD PUSH2 0x4B3 JUMP JUMPDEST PUSH1 0x1 ADD PUSH2 0x54C JUMP JUMPDEST POP POP POP JUMP JUMPDEST PUSH0 PUSH1 0x20 DUP3 DUP5 SUB SLT ISZERO PUSH2 0x5AE JUMPI PUSH0 PUSH0 REVERT JUMPDEST DUP2 CALLDATALOAD PUSH1 0x1 PUSH1 0x1 PUSH1 0xE0 SHL SUB NOT DUP2 AND DUP2 EQ PUSH2 0x5C5 JUMPI PUSH0 PUSH0 REVERT JUMPDEST SWAP4 SWAP3 POP POP POP JUMP JUMPDEST PUSH0 PUSH1 0x20 DUP3 DUP5 SUB SLT ISZERO PUSH2 0x5DC JUMPI PUSH0 PUSH0 REVERT JUMPDEST POP CALLDATALOAD SWAP2 SWAP1 POP JUMP JUMPDEST PUSH0 DUP2 MLOAD DUP1 DUP5 MSTORE DUP1 PUSH1 0x20 DUP5 ADD PUSH1 0x20 DUP7 ADD MCOPY PUSH0 PUSH1 0x20 DUP3 DUP7 ADD ADD MSTORE PUSH1 0x20 PUSH1 0x1F NOT PUSH1 0x1F DUP4 ADD AND DUP6 ADD ADD SWAP2 POP POP SWAP3 SWAP2 POP POP JUMP JUMPDEST PUSH1 0x20 DUP2 MSTORE PUSH0 PUSH2 0x5C5 PUSH1 0x20 DUP4 ADD DUP5 PUSH2 0x5E3 JUMP JUMPDEST PUSH4 0x4E487B71 PUSH1 0xE0 SHL PUSH0 MSTORE PUSH1 0x41 PUSH1 0x4 MSTORE PUSH1 0x24 PUSH0 REVERT JUMPDEST PUSH1 0x40 MLOAD PUSH1 0x1F DUP3 ADD PUSH1 0x1F NOT AND DUP2 ADD PUSH8 0xFFFFFFFFFFFFFFFF DUP2 GT DUP3 DUP3 LT OR ISZERO PUSH2 0x660 JUMPI PUSH2 0x660 PUSH2 0x623 JUMP JUMPDEST PUSH1 0x40 MSTORE SWAP2 SWAP1 POP JUMP JUMPDEST PUSH0 DUP3 PUSH1 0x1F DUP4 ADD SLT PUSH2 0x677 JUMPI PUSH0 PUSH0 REVERT JUMPDEST DUP2 CALLDATALOAD PUSH8 0xFFFFFFFFFFFFFFFF DUP2 GT ISZERO PUSH2 0x691 JUMPI PUSH2 0x691 PUSH2 0x623 JUMP JUMPDEST PUSH2 0x6A4 PUSH1 0x1F DUP3 ADD PUSH1 0x1F NOT AND PUSH1 0x20 ADD PUSH2 0x637 JUMP JUMPDEST DUP2 DUP2 MSTORE DUP5 PUSH1 0x20 DUP4 DUP7 ADD ADD GT ISZERO PUSH2 0x6B8 JUMPI PUSH0 PUSH0 REVERT JUMPDEST DUP2 PUSH1 0x20 DUP6 ADD PUSH1 0x20 DUP4 ADD CALLDATACOPY PUSH0 SWAP2 DUP2 ADD PUSH1 0x20 ADD SWAP2 SWAP1 SWAP2 MSTORE SWAP4 SWAP3 POP POP POP JUMP JUMPDEST PUSH0 PUSH0 PUSH1 0x40 DUP4 DUP6 SUB SLT ISZERO PUSH2 0x6E5 JUMPI PUSH0 PUSH0 REVERT JUMPDEST DUP3 CALLDATALOAD SWAP2 POP PUSH1 0x20 DUP4 ADD CALLDATALOAD PUSH8 0xFFFFFFFFFFFFFFFF DUP2 GT ISZERO PUSH2 0x702 JUMPI PUSH0 PUSH0 REVERT JUMPDEST PUSH2 0x70E DUP6 DUP3 DUP7 ADD PUSH2 0x668 JUMP JUMPDEST SWAP2 POP POP SWAP3 POP SWAP3 SWAP1 POP JUMP JUMPDEST PUSH0 PUSH8 0xFFFFFFFFFFFFFFFF DUP3 GT ISZERO PUSH2 0x731 JUMPI PUSH2 0x731 PUSH2 0x623 JUMP JUMPDEST POP PUSH1 0x5 SHL PUSH1 0x20 ADD SWAP1 JUMP JUMPDEST PUSH0 DUP3 PUSH1 0x1F DUP4 ADD SLT PUSH2 0x74A JUMPI PUSH0 PUSH0 REVERT JUMPDEST DUP2 CALLDATALOAD PUSH2 0x75D PUSH2 0x758 DUP3 PUSH2 0x718 JUMP JUMPDEST PUSH2 0x637 JUMP JUMPDEST DUP1 DUP3 DUP3 MSTORE PUSH1 0x20 DUP3 ADD SWAP2 POP PUSH1 0x20 DUP4 PUSH1 0x5 SHL DUP7 ADD ADD SWAP3 POP DUP6 DUP4 GT ISZERO PUSH2 0x77E JUMPI PUSH0 PUSH0 REVERT JUMPDEST PUSH1 0x20 DUP6 ADD JUMPDEST DUP4 DUP2 LT ISZERO PUSH2 0x79B JUMPI DUP1 CALLDATALOAD DUP4 MSTORE PUSH1 0x20 SWAP3 DUP4 ADD SWAP3 ADD PUSH2 0x783 JUMP JUMPDEST POP SWAP6 SWAP5 POP POP POP POP POP JUMP JUMPDEST PUSH0 PUSH0 PUSH1 0x40 DUP4 DUP6 SUB SLT ISZERO PUSH2 0x7B6 JUMPI PUSH0 PUSH0 REVERT JUMPDEST DUP3 CALLDATALOAD PUSH8 0xFFFFFFFFFFFFFFFF DUP2 GT ISZERO PUSH2 0x7CC JUMPI PUSH0 PUSH0 REVERT JUMPDEST PUSH2 0x7D8 DUP6 DUP3 DUP7 ADD PUSH2 0x73B JUMP JUMPDEST SWAP3 POP POP PUSH1 0x20 DUP4 ADD CALLDATALOAD PUSH8 0xFFFFFFFFFFFFFFFF DUP2 GT ISZERO PUSH2 0x7F4 JUMPI PUSH0 PUSH0 REVERT JUMPDEST DUP4 ADD PUSH1 0x1F DUP2 ADD DUP6 SGT PUSH2 0x804 JUMPI PUSH0 PUSH0 REVERT JUMPDEST DUP1 CALLDATALOAD PUSH2 0x812 PUSH2 0x758 DUP3 PUSH2 0x718 JUMP JUMPDEST DUP1 DUP3 DUP3 MSTORE PUSH1 0x20 DUP3 ADD SWAP2 POP PUSH1 0x20 DUP4 PUSH1 0x5 SHL DUP6 ADD ADD SWAP3 POP DUP8 DUP4 GT ISZERO PUSH2 0x833 JUMPI PUSH0 PUSH0 REVERT JUMPDEST PUSH1 0x20 DUP5 ADD JUMPDEST DUP4 DUP2 LT ISZERO PUSH2 0x874 JUMPI DUP1 CALLDATALOAD PUSH8 0xFFFFFFFFFFFFFFFF DUP2 GT ISZERO PUSH2 0x856 JUMPI PUSH0 PUSH0 REVERT JUMPDEST PUSH2 0x865 DUP11 PUSH1 0x20 DUP4 DUP10 ADD ADD PUSH2 0x668 JUMP JUMPDEST DUP5 MSTORE POP PUSH1 0x20 SWAP3 DUP4 ADD SWAP3 ADD PUSH2 0x838 JUMP JUMPDEST POP DUP1 SWAP5 POP POP POP POP POP SWAP3 POP SWAP3 SWAP1 POP JUMP JUMPDEST PUSH0 PUSH1 0x20 DUP3 DUP5 SUB SLT ISZERO PUSH2 0x893 JUMPI PUSH0 PUSH0 REVERT JUMPDEST DUP2 CALLDATALOAD PUSH8 0xFFFFFFFFFFFFFFFF DUP2 GT ISZERO PUSH2 0x8A9 JUMPI PUSH0 PUSH0 REVERT JUMPDEST PUSH2 0x8B5 DUP5 DUP3 DUP6 ADD PUSH2 0x73B JUMP JUMPDEST SWAP5 SWAP4 POP POP POP POP JUMP JUMPDEST PUSH0 PUSH1 0x20 DUP3 ADD PUSH1 0x20 DUP4 MSTORE DUP1 DUP5 MLOAD DUP1 DUP4 MSTORE PUSH1 0x40 DUP6 ADD SWAP2 POP PUSH1 0x40 DUP2 PUSH1 0x5 SHL DUP7 ADD ADD SWAP3 POP PUSH1 0x20 DUP7 ADD PUSH0 JUMPDEST DUP3 DUP2 LT ISZERO PUSH2 0x914 JUMPI PUSH1 0x3F NOT DUP8 DUP7 SUB ADD DUP5 MSTORE PUSH2 0x8FF DUP6 DUP4 MLOAD PUSH2 0x5E3 JUMP JUMPDEST SWAP5 POP PUSH1 0x20 SWAP4 DUP5 ADD SWAP4 SWAP2 SWAP1 SWAP2 ADD SWAP1 PUSH1 0x1 ADD PUSH2 0x8E3 JUMP JUMPDEST POP SWAP3 SWAP7 SWAP6 POP POP POP POP POP POP JUMP JUMPDEST PUSH0 PUSH1 0x20 DUP3 DUP5 SUB SLT ISZERO PUSH2 0x930 JUMPI PUSH0 PUSH0 REVERT JUMPDEST DUP2 CALLDATALOAD PUSH1 0x1 PUSH1 0x1 PUSH1 0xA0 SHL SUB DUP2 AND DUP2 EQ PUSH2 0x5C5 JUMPI PUSH0 PUSH0 REVERT JUMPDEST PUSH4 0x4E487B71 PUSH1 0xE0 SHL PUSH0 MSTORE PUSH1 0x32 PUSH1 0x4 MSTORE PUSH1 0x24 PUSH0 REVERT JUMPDEST PUSH1 0x1 DUP2 DUP2 SHR SWAP1 DUP3 AND DUP1 PUSH2 0x96E JUMPI PUSH1 0x7F DUP3 AND SWAP2 POP JUMPDEST PUSH1 0x20 DUP3 LT DUP2 SUB PUSH2 0x2E8 JUMPI PUSH4 0x4E487B71 PUSH1 0xE0 SHL PUSH0 MSTORE PUSH1 0x22 PUSH1 0x4 MSTORE PUSH1 0x24 PUSH0 REVERT JUMPDEST PUSH1 0x1F DUP3 GT ISZERO PUSH2 0x599 JUMPI DUP1 PUSH0 MSTORE PUSH1 0x20 PUSH0 KECCAK256 PUSH1 0x1F DUP5 ADD PUSH1 0x5 SHR DUP2 ADD PUSH1 0x20 DUP6 LT ISZERO PUSH2 0x9B1 JUMPI POP DUP1 JUMPDEST PUSH1 0x1F DUP5 ADD PUSH1 0x5 SHR DUP3 ADD SWAP2 POP JUMPDEST DUP2 DUP2 LT ISZERO PUSH2 0x9D0 JUMPI PUSH0 DUP2 SSTORE PUSH1 0x1 ADD PUSH2 0x9BD JUMP JUMPDEST POP POP POP POP POP JUMP JUMPDEST DUP2 MLOAD PUSH8 0xFFFFFFFFFFFFFFFF DUP2 GT ISZERO PUSH2 0x9F1 JUMPI PUSH2 0x9F1 PUSH2 0x623 JUMP JUMPDEST PUSH2 0xA05 DUP2 PUSH2 0x9FF DUP5 SLOAD PUSH2 0x95A JUMP JUMPDEST DUP5 PUSH2 0x98C JUMP JUMPDEST PUSH1 0x20 PUSH1 0x1F DUP3 GT PUSH1 0x1 DUP2 EQ PUSH2 0xA37 JUMPI PUSH0 DUP4 ISZERO PUSH2 0xA20 JUMPI POP DUP5 DUP3 ADD MLOAD JUMPDEST PUSH0 NOT PUSH1 0x3 DUP6 SWAP1 SHL SHR NOT AND PUSH1 0x1 DUP5 SWAP1 SHL OR DUP5 SSTORE PUSH2 0x9D0 JUMP JUMPDEST PUSH0 DUP5 DUP2 MSTORE PUSH1 0x20 DUP2 KECCAK256 PUSH1 0x1F NOT DUP6 AND SWAP2 JUMPDEST DUP3 DUP2 LT ISZERO PUSH2 0xA66 JUMPI DUP8 DUP6 ADD MLOAD DUP3 SSTORE PUSH1 0x20 SWAP5 DUP6 ADD SWAP5 PUSH1 0x1 SWAP1 SWAP3 ADD SWAP2 ADD PUSH2 0xA46 JUMP JUMPDEST POP DUP5 DUP3 LT ISZERO PUSH2 0xA83 JUMPI DUP7 DUP5 ADD MLOAD PUSH0 NOT PUSH1 0x3 DUP8 SWAP1 SHL PUSH1 0xF8 AND SHR NOT AND DUP2 SSTORE JUMPDEST POP POP POP POP PUSH1 0x1 SWAP1 DUP2 SHL ADD SWAP1 SSTORE POP JUMP INVALID LOG2 PUSH5 0x6970667358 0x22 SLT KECCAK256 MULMOD 0xB9 PUSH3 0x40C90D 0xC7 ADDRESS 0xA6 DATALOADN 0xADA1 DUP10 PUSH2 0x6BA5 0xCA 0x1F DUP15 LOG2 CALLDATASIZE MCOPY CLZ 0xB7 0xC6 BLOCKHASH 0xC5 0xAC AND 0xE9 TSTORE DUP10 PUSH5 0x736F6C6343 STOP ADDMOD 0x1F STOP CALLER "
				},
				"gasEstimates": {
					"creation": {
						"codeDepositCost": "552000",
						"executionCost": "infinite",
						"totalCost": "infinite"
					},
					"external": {
						"getData(bytes32)": "infinite",
						"getDataBatch(bytes32[])": "infinite",
						"owner()": "2299",
						"renounceOwnership()": "infinite",
						"setData(bytes32,bytes)": "infinite",
						"setDataBatch(bytes32[],bytes[])": "infinite",
						"supportsInterface(bytes4)": "424",
						"transferOwnership(address)": "28360"
					},
					"internal": {
						"_getData(bytes32)": "infinite",
						"_setData(bytes32,bytes memory)": "infinite",
						"_setDataBatch(bytes32[] memory,bytes memory[] memory)": "infinite"
					}
				},
				"methodIdentifiers": {
					"getData(bytes32)": "54f6127f",
					"getDataBatch(bytes32[])": "dedff9c6",
					"owner()": "8da5cb5b",
					"renounceOwnership()": "715018a6",
					"setData(bytes32,bytes)": "7f23690c",
					"setDataBatch(bytes32[],bytes[])": "97902421",
					"supportsInterface(bytes4)": "01ffc9a7",
					"transferOwnership(address)": "f2fde38b"
				}
			},
			"storageLayout": {
				"storage": [
					{
						"astId": 3231,
						"contract": "@erc725/smart-contracts-v8/contracts/ERC725Y.sol:ERC725Y",
						"label": "_owner",
						"offset": 0,
						"slot": "0",
						"type": "t_address"
					},
					{
						"astId": 26,
						"contract": "@erc725/smart-contracts-v8/contracts/ERC725Y.sol:ERC725Y",
						"label": "_store",
						"offset": 0,
						"slot": "1",
						"type": "t_mapping(t_bytes32,t_bytes_storage)"
					}
				],
				"types": {
					"t_address": {
						"encoding": "inplace",
						"label": "address",
						"numberOfBytes": "20"
					},
					"t_bytes32": {
						"encoding": "inplace",
						"label": "bytes32",
						"numberOfBytes": "32"
					},
					"t_bytes_storage": {
						"encoding": "bytes",
						"label": "bytes",
						"numberOfBytes": "32"
					},
					"t_mapping(t_bytes32,t_bytes_storage)": {
						"encoding": "mapping",
						"key": "t_bytes32",
						"label": "mapping(bytes32 => bytes)",
						"numberOfBytes": "32",
						"value": "t_bytes_storage"
					}
				}
			},
			"userdoc": {
				"events": {
					"DataChanged(bytes32,bytes)": {
						"notice": "The following data key/value pair has been changed in the ERC725Y storage: Data key: `dataKey`, data value: `dataValue`."
					}
				},
				"kind": "user",
				"methods": {
					"constructor": {
						"notice": "Deploying an ERC725Y smart contract and setting address `initialOwner` as the contract owner."
					},
					"getData(bytes32)": {
						"notice": "Reading the ERC725Y storage for data key `dataKey` returned the following value: `dataValue`."
					},
					"getDataBatch(bytes32[])": {
						"notice": "Reading the ERC725Y storage for data keys `dataKeys` returned the following values: `dataValues`."
					},
					"setData(bytes32,bytes)": {
						"notice": "Setting the following data key value pair in the ERC725Y storage. Data key: `dataKey`, data value: `dataValue`."
					},
					"setDataBatch(bytes32[],bytes[])": {
						"notice": "Setting the following data key value pairs in the ERC725Y storage. Data keys: `dataKeys`, data values: `dataValues`."
					}
				},
				"version": 1
			}
		}
	}
}