{
	"contracts/supplier_bk.sol": {
		"Supplier": {
			"abi": [
				{
					"inputs": [
						{
							"internalType": "address",
							"name": "daoAddress",
							"type": "address"
						}
					],
					"stateMutability": "nonpayable",
					"type": "constructor"
				},
				{
					"anonymous": false,
					"inputs": [
						{
							"indexed": false,
							"internalType": "address",
							"name": "brandAddress",
							"type": "address"
						}
					],
					"name": "BrandRegister",
					"type": "event"
				},
				{
					"anonymous": false,
					"inputs": [
						{
							"indexed": false,
							"internalType": "address",
							"name": "arbitratorAddress",
							"type": "address"
						}
					],
					"name": "BrandUnRegister",
					"type": "event"
				},
				{
					"anonymous": false,
					"inputs": [
						{
							"indexed": true,
							"internalType": "address",
							"name": "supplierAddress",
							"type": "address"
						}
					],
					"name": "BrandUnVerified",
					"type": "event"
				},
				{
					"anonymous": false,
					"inputs": [
						{
							"indexed": true,
							"internalType": "address",
							"name": "supplierAddress",
							"type": "address"
						}
					],
					"name": "BrandVerified",
					"type": "event"
				},
				{
					"anonymous": false,
					"inputs": [
						{
							"indexed": true,
							"internalType": "address",
							"name": "supplierAddress",
							"type": "address"
						},
						{
							"indexed": true,
							"internalType": "address",
							"name": "agentAddress",
							"type": "address"
						}
					],
					"name": "PartnerDisabled",
					"type": "event"
				},
				{
					"anonymous": false,
					"inputs": [
						{
							"indexed": true,
							"internalType": "address",
							"name": "supplierAddress",
							"type": "address"
						},
						{
							"indexed": true,
							"internalType": "address",
							"name": "agentAddress",
							"type": "address"
						}
					],
					"name": "PartnerEnabled",
					"type": "event"
				},
				{
					"inputs": [],
					"name": "brandCounter",
					"outputs": [
						{
							"internalType": "uint256",
							"name": "_value",
							"type": "uint256"
						}
					],
					"stateMutability": "view",
					"type": "function"
				},
				{
					"inputs": [],
					"name": "brandRegister",
					"outputs": [],
					"stateMutability": "nonpayable",
					"type": "function"
				},
				{
					"inputs": [],
					"name": "brandUnRegister",
					"outputs": [],
					"stateMutability": "nonpayable",
					"type": "function"
				},
				{
					"inputs": [
						{
							"internalType": "address",
							"name": "agentAddress",
							"type": "address"
						}
					],
					"name": "disablePartner",
					"outputs": [],
					"stateMutability": "payable",
					"type": "function"
				},
				{
					"inputs": [
						{
							"internalType": "address",
							"name": "agentAddress",
							"type": "address"
						}
					],
					"name": "enablePartner",
					"outputs": [],
					"stateMutability": "payable",
					"type": "function"
				},
				{
					"inputs": [
						{
							"internalType": "uint256",
							"name": "index",
							"type": "uint256"
						}
					],
					"name": "getBrandAddress",
					"outputs": [
						{
							"internalType": "address",
							"name": "",
							"type": "address"
						}
					],
					"stateMutability": "view",
					"type": "function"
				},
				{
					"inputs": [
						{
							"internalType": "uint256[]",
							"name": "indexes",
							"type": "uint256[]"
						}
					],
					"name": "getBrandBatch",
					"outputs": [
						{
							"internalType": "address[]",
							"name": "",
							"type": "address[]"
						}
					],
					"stateMutability": "view",
					"type": "function"
				},
				{
					"inputs": [
						{
							"internalType": "address",
							"name": "brandAddress",
							"type": "address"
						}
					],
					"name": "getBrandIndex",
					"outputs": [
						{
							"internalType": "uint256",
							"name": "",
							"type": "uint256"
						}
					],
					"stateMutability": "view",
					"type": "function"
				},
				{
					"inputs": [],
					"name": "getDaoAddress",
					"outputs": [
						{
							"internalType": "address",
							"name": "",
							"type": "address"
						}
					],
					"stateMutability": "view",
					"type": "function"
				},
				{
					"inputs": [
						{
							"internalType": "address",
							"name": "brandAddress",
							"type": "address"
						},
						{
							"internalType": "uint256",
							"name": "index",
							"type": "uint256"
						}
					],
					"name": "getPartnerAddress",
					"outputs": [
						{
							"internalType": "address",
							"name": "",
							"type": "address"
						}
					],
					"stateMutability": "view",
					"type": "function"
				},
				{
					"inputs": [
						{
							"internalType": "address",
							"name": "brandAddress",
							"type": "address"
						}
					],
					"name": "getPartnerCount",
					"outputs": [
						{
							"internalType": "uint256",
							"name": "",
							"type": "uint256"
						}
					],
					"stateMutability": "view",
					"type": "function"
				},
				{
					"inputs": [
						{
							"internalType": "address",
							"name": "brandAddress",
							"type": "address"
						},
						{
							"internalType": "address",
							"name": "sellerAddress",
							"type": "address"
						}
					],
					"name": "getPartnerIndex",
					"outputs": [
						{
							"internalType": "uint256",
							"name": "",
							"type": "uint256"
						}
					],
					"stateMutability": "view",
					"type": "function"
				},
				{
					"inputs": [
						{
							"internalType": "address",
							"name": "brandAddress",
							"type": "address"
						}
					],
					"name": "getVerifier",
					"outputs": [
						{
							"internalType": "address",
							"name": "",
							"type": "address"
						}
					],
					"stateMutability": "view",
					"type": "function"
				},
				{
					"inputs": [
						{
							"internalType": "address",
							"name": "brandAddress",
							"type": "address"
						}
					],
					"name": "isBrand",
					"outputs": [
						{
							"internalType": "bool",
							"name": "",
							"type": "bool"
						}
					],
					"stateMutability": "view",
					"type": "function"
				},
				{
					"inputs": [
						{
							"internalType": "address",
							"name": "brandAddress",
							"type": "address"
						},
						{
							"internalType": "address",
							"name": "agentAddress",
							"type": "address"
						}
					],
					"name": "isPartner",
					"outputs": [
						{
							"internalType": "bool",
							"name": "",
							"type": "bool"
						}
					],
					"stateMutability": "view",
					"type": "function"
				},
				{
					"inputs": [
						{
							"internalType": "address",
							"name": "brandAddress",
							"type": "address"
						}
					],
					"name": "isVerifiedBrand",
					"outputs": [
						{
							"internalType": "bool",
							"name": "",
							"type": "bool"
						}
					],
					"stateMutability": "view",
					"type": "function"
				},
				{
					"inputs": [
						{
							"internalType": "address",
							"name": "brandAddress",
							"type": "address"
						}
					],
					"name": "unVerifyBrand",
					"outputs": [],
					"stateMutability": "nonpayable",
					"type": "function"
				},
				{
					"inputs": [
						{
							"internalType": "address",
							"name": "brandAddress",
							"type": "address"
						}
					],
					"name": "verifyBrand",
					"outputs": [],
					"stateMutability": "nonpayable",
					"type": "function"
				}
			],
			"devdoc": {
				"kind": "dev",
				"methods": {},
				"version": 1
			},
			"evm": {
				"assembly": "    /* \"contracts/supplier_bk.sol\":674:8239  contract Supplier is ReentrancyGuard {... */\n  mstore(0x40, 0x80)\n    /* \"contracts/supplier_bk.sol\":1760:2001  constructor(address daoAddress) {... */\n  callvalue\n  dup1\n  iszero\n  tag_1\n  jumpi\n  revert(0x00, 0x00)\ntag_1:\n  pop\n  mload(0x40)\n  sub(codesize, bytecodeSize)\n  dup1\n  bytecodeSize\n  dup4\n  codecopy\n  dup2\n  dup2\n  add\n  0x40\n  mstore\n  dup2\n  add\n  swap1\n  tag_2\n  swap2\n  swap1\n  tag_3\n  jump\t// in\ntag_2:\n    /* \"@openzeppelin/contracts/security/ReentrancyGuard.sol\":1716:1717  1 */\n  0x01\n    /* \"@openzeppelin/contracts/security/ReentrancyGuard.sol\":1821:1828  _status */\n  0x00\n    /* \"@openzeppelin/contracts/security/ReentrancyGuard.sol\":1821:1843  _status = _NOT_ENTERED */\n  dup2\n  swap1\n  sstore\n  pop\n    /* \"contracts/supplier_bk.sol\":1817:1827  daoAddress */\n  dup1\n    /* \"contracts/supplier_bk.sol\":1803:1814  _daoAddress */\n  0x01\n  0x00\n    /* \"contracts/supplier_bk.sol\":1803:1827  _daoAddress = daoAddress */\n  0x0100\n  exp\n  dup2\n  sload\n  dup2\n  0xffffffffffffffffffffffffffffffffffffffff\n  mul\n  not\n  and\n  swap1\n  dup4\n  0xffffffffffffffffffffffffffffffffffffffff\n  and\n  mul\n  or\n  swap1\n  sstore\n  pop\n    /* \"contracts/supplier_bk.sol\":1866:1877  _daoAddress */\n  0x01\n  0x00\n  swap1\n  sload\n  swap1\n  0x0100\n  exp\n  swap1\n  div\n  0xffffffffffffffffffffffffffffffffffffffff\n  and\n    /* \"contracts/supplier_bk.sol\":1838:1850  daoInterface */\n  0x02\n  0x00\n    /* \"contracts/supplier_bk.sol\":1838:1878  daoInterface = DaoInterface(_daoAddress) */\n  0x0100\n  exp\n  dup2\n  sload\n  dup2\n  0xffffffffffffffffffffffffffffffffffffffff\n  mul\n  not\n  and\n  swap1\n  dup4\n  0xffffffffffffffffffffffffffffffffffffffff\n  and\n  mul\n  or\n  swap1\n  sstore\n  pop\n    /* \"contracts/supplier_bk.sol\":1889:1910  address _stackAddress */\n  0x00\n    /* \"contracts/supplier_bk.sol\":1913:1925  daoInterface */\n  0x02\n  0x00\n  swap1\n  sload\n  swap1\n  0x0100\n  exp\n  swap1\n  div\n  0xffffffffffffffffffffffffffffffffffffffff\n  and\n    /* \"contracts/supplier_bk.sol\":1913:1934  daoInterface.stacking */\n  0xffffffffffffffffffffffffffffffffffffffff\n  and\n  0xc62bfd8f\n    /* \"contracts/supplier_bk.sol\":1913:1936  daoInterface.stacking() */\n  mload(0x40)\n  dup2\n  0xffffffff\n  and\n  0xe0\n  shl\n  dup2\n  mstore\n  0x04\n  add\n  0x20\n  mload(0x40)\n  dup1\n  dup4\n  sub\n  dup2\n  dup7\n  gas\n  staticcall\n  iszero\n  dup1\n  iszero\n  tag_9\n  jumpi\n  returndatacopy(0x00, 0x00, returndatasize)\n  revert(0x00, returndatasize)\ntag_9:\n  pop\n  pop\n  pop\n  pop\n  mload(0x40)\n  returndatasize\n  not(0x1f)\n  0x1f\n  dup3\n  add\n  and\n  dup3\n  add\n  dup1\n  0x40\n  mstore\n  pop\n  dup2\n  add\n  swap1\n  tag_10\n  swap2\n  swap1\n  tag_3\n  jump\t// in\ntag_10:\n    /* \"contracts/supplier_bk.sol\":1889:1936  address _stackAddress = daoInterface.stacking() */\n  swap1\n  pop\n    /* \"contracts/supplier_bk.sol\":1979:1992  _stackAddress */\n  dup1\n    /* \"contracts/supplier_bk.sol\":1947:1961  stackInterface */\n  0x03\n  0x00\n    /* \"contracts/supplier_bk.sol\":1947:1993  stackInterface = StackInterface(_stackAddress) */\n  0x0100\n  exp\n  dup2\n  sload\n  dup2\n  0xffffffffffffffffffffffffffffffffffffffff\n  mul\n  not\n  and\n  swap1\n  dup4\n  0xffffffffffffffffffffffffffffffffffffffff\n  and\n  mul\n  or\n  swap1\n  sstore\n  pop\n    /* \"contracts/supplier_bk.sol\":1792:2001  {... */\n  pop\n    /* \"contracts/supplier_bk.sol\":1760:2001  constructor(address daoAddress) {... */\n  pop\n    /* \"contracts/supplier_bk.sol\":674:8239  contract Supplier is ReentrancyGuard {... */\n  jump(tag_11)\n    /* \"#utility.yul\":88:205   */\ntag_13:\n    /* \"#utility.yul\":197:198   */\n  0x00\n    /* \"#utility.yul\":194:195   */\n  0x00\n    /* \"#utility.yul\":187:199   */\n  revert\n    /* \"#utility.yul\":334:460   */\ntag_15:\n    /* \"#utility.yul\":371:378   */\n  0x00\n    /* \"#utility.yul\":411:453   */\n  0xffffffffffffffffffffffffffffffffffffffff\n    /* \"#utility.yul\":404:409   */\n  dup3\n    /* \"#utility.yul\":400:454   */\n  and\n    /* \"#utility.yul\":389:454   */\n  swap1\n  pop\n    /* \"#utility.yul\":334:460   */\n  swap2\n  swap1\n  pop\n  jump\t// out\n    /* \"#utility.yul\":466:562   */\ntag_16:\n    /* \"#utility.yul\":503:510   */\n  0x00\n    /* \"#utility.yul\":532:556   */\n  tag_25\n    /* \"#utility.yul\":550:555   */\n  dup3\n    /* \"#utility.yul\":532:556   */\n  tag_15\n  jump\t// in\ntag_25:\n    /* \"#utility.yul\":521:556   */\n  swap1\n  pop\n    /* \"#utility.yul\":466:562   */\n  swap2\n  swap1\n  pop\n  jump\t// out\n    /* \"#utility.yul\":568:690   */\ntag_17:\n    /* \"#utility.yul\":641:665   */\n  tag_27\n    /* \"#utility.yul\":659:664   */\n  dup2\n    /* \"#utility.yul\":641:665   */\n  tag_16\n  jump\t// in\ntag_27:\n    /* \"#utility.yul\":634:639   */\n  dup2\n    /* \"#utility.yul\":631:666   */\n  eq\n    /* \"#utility.yul\":621:684   */\n  tag_28\n  jumpi\n    /* \"#utility.yul\":680:681   */\n  0x00\n    /* \"#utility.yul\":677:678   */\n  0x00\n    /* \"#utility.yul\":670:682   */\n  revert\n    /* \"#utility.yul\":621:684   */\ntag_28:\n    /* \"#utility.yul\":568:690   */\n  pop\n  jump\t// out\n    /* \"#utility.yul\":696:839   */\ntag_18:\n    /* \"#utility.yul\":753:758   */\n  0x00\n    /* \"#utility.yul\":784:790   */\n  dup2\n    /* \"#utility.yul\":778:791   */\n  mload\n    /* \"#utility.yul\":769:791   */\n  swap1\n  pop\n    /* \"#utility.yul\":800:833   */\n  tag_30\n    /* \"#utility.yul\":827:832   */\n  dup2\n    /* \"#utility.yul\":800:833   */\n  tag_17\n  jump\t// in\ntag_30:\n    /* \"#utility.yul\":696:839   */\n  swap3\n  swap2\n  pop\n  pop\n  jump\t// out\n    /* \"#utility.yul\":845:1196   */\ntag_3:\n    /* \"#utility.yul\":915:921   */\n  0x00\n    /* \"#utility.yul\":964:966   */\n  0x20\n    /* \"#utility.yul\":952:961   */\n  dup3\n    /* \"#utility.yul\":943:950   */\n  dup5\n    /* \"#utility.yul\":939:962   */\n  sub\n    /* \"#utility.yul\":935:967   */\n  slt\n    /* \"#utility.yul\":932:1051   */\n  iszero\n  tag_32\n  jumpi\n    /* \"#utility.yul\":970:1049   */\n  tag_33\n  tag_13\n  jump\t// in\ntag_33:\n    /* \"#utility.yul\":932:1051   */\ntag_32:\n    /* \"#utility.yul\":1090:1091   */\n  0x00\n    /* \"#utility.yul\":1115:1179   */\n  tag_34\n    /* \"#utility.yul\":1171:1178   */\n  dup5\n    /* \"#utility.yul\":1162:1168   */\n  dup3\n    /* \"#utility.yul\":1151:1160   */\n  dup6\n    /* \"#utility.yul\":1147:1169   */\n  add\n    /* \"#utility.yul\":1115:1179   */\n  tag_18\n  jump\t// in\ntag_34:\n    /* \"#utility.yul\":1105:1179   */\n  swap2\n  pop\n    /* \"#utility.yul\":1061:1189   */\n  pop\n    /* \"#utility.yul\":845:1196   */\n  swap3\n  swap2\n  pop\n  pop\n  jump\t// out\n    /* \"contracts/supplier_bk.sol\":674:8239  contract Supplier is ReentrancyGuard {... */\ntag_11:\n  dataSize(sub_0)\n  dup1\n  dataOffset(sub_0)\n  0x00\n  codecopy\n  0x00\n  return\nstop\n\nsub_0: assembly {\n        /* \"contracts/supplier_bk.sol\":674:8239  contract Supplier is ReentrancyGuard {... */\n      mstore(0x40, 0x80)\n      jumpi(tag_1, lt(calldatasize, 0x04))\n      shr(0xe0, calldataload(0x00))\n      dup1\n      0x4affb863\n      gt\n      tag_20\n      jumpi\n      dup1\n      0xc9f93eb7\n      gt\n      tag_21\n      jumpi\n      dup1\n      0xc9f93eb7\n      eq\n      tag_15\n      jumpi\n      dup1\n      0xcf96f1e8\n      eq\n      tag_16\n      jumpi\n      dup1\n      0xe3b231b5\n      eq\n      tag_17\n      jumpi\n      dup1\n      0xea1e7a69\n      eq\n      tag_18\n      jumpi\n      dup1\n      0xf71b007b\n      eq\n      tag_19\n      jumpi\n      jump(tag_1)\n    tag_21:\n      dup1\n      0x4affb863\n      eq\n      tag_11\n      jumpi\n      dup1\n      0x6123504a\n      eq\n      tag_12\n      jumpi\n      dup1\n      0x621574d4\n      eq\n      tag_13\n      jumpi\n      dup1\n      0xc7568eff\n      eq\n      tag_14\n      jumpi\n      jump(tag_1)\n    tag_20:\n      dup1\n      0x1d68702d\n      gt\n      tag_22\n      jumpi\n      dup1\n      0x1d68702d\n      eq\n      tag_6\n      jumpi\n      dup1\n      0x1e2b2d2c\n      eq\n      tag_7\n      jumpi\n      dup1\n      0x2485ff2d\n      eq\n      tag_8\n      jumpi\n      dup1\n      0x392c4527\n      eq\n      tag_9\n      jumpi\n      dup1\n      0x4907c36a\n      eq\n      tag_10\n      jumpi\n      jump(tag_1)\n    tag_22:\n      dup1\n      0x043ecb35\n      eq\n      tag_2\n      jumpi\n      dup1\n      0x059ce95d\n      eq\n      tag_3\n      jumpi\n      dup1\n      0x05a5562d\n      eq\n      tag_4\n      jumpi\n      dup1\n      0x1ce5ad34\n      eq\n      tag_5\n      jumpi\n    tag_1:\n      revert(0x00, 0x00)\n        /* \"contracts/supplier_bk.sol\":7253:7404  function getPartnerAddress (address brandAddress, uint256 index) public view returns (address) {... */\n    tag_2:\n      callvalue\n      dup1\n      iszero\n      tag_23\n      jumpi\n      revert(0x00, 0x00)\n    tag_23:\n      pop\n      tag_24\n      0x04\n      dup1\n      calldatasize\n      sub\n      dup2\n      add\n      swap1\n      tag_25\n      swap2\n      swap1\n      tag_26\n      jump\t// in\n    tag_25:\n      tag_27\n      jump\t// in\n    tag_24:\n      mload(0x40)\n      tag_28\n      swap2\n      swap1\n      tag_29\n      jump\t// in\n    tag_28:\n      mload(0x40)\n      dup1\n      swap2\n      sub\n      swap1\n      return\n        /* \"contracts/supplier_bk.sol\":6770:6892  function getVerifier(address brandAddress) public view returns (address) {... */\n    tag_3:\n      callvalue\n      dup1\n      iszero\n      tag_30\n      jumpi\n      revert(0x00, 0x00)\n    tag_30:\n      pop\n      tag_31\n      0x04\n      dup1\n      calldatasize\n      sub\n      dup2\n      add\n      swap1\n      tag_32\n      swap2\n      swap1\n      tag_33\n      jump\t// in\n    tag_32:\n      tag_34\n      jump\t// in\n    tag_31:\n      mload(0x40)\n      tag_35\n      swap2\n      swap1\n      tag_29\n      jump\t// in\n    tag_35:\n      mload(0x40)\n      dup1\n      swap2\n      sub\n      swap1\n      return\n        /* \"contracts/supplier_bk.sol\":6508:6629  function isBrand (address brandAddress) public view returns (bool) {... */\n    tag_4:\n      callvalue\n      dup1\n      iszero\n      tag_36\n      jumpi\n      revert(0x00, 0x00)\n    tag_36:\n      pop\n      tag_37\n      0x04\n      dup1\n      calldatasize\n      sub\n      dup2\n      add\n      swap1\n      tag_38\n      swap2\n      swap1\n      tag_33\n      jump\t// in\n    tag_38:\n      tag_39\n      jump\t// in\n    tag_37:\n      mload(0x40)\n      tag_40\n      swap2\n      swap1\n      tag_41\n      jump\t// in\n    tag_40:\n      mload(0x40)\n      dup1\n      swap2\n      sub\n      swap1\n      return\n        /* \"contracts/supplier_bk.sol\":5415:6500  function disablePartner(address agentAddress) public payable nonReentrant {... */\n    tag_5:\n      tag_42\n      0x04\n      dup1\n      calldatasize\n      sub\n      dup2\n      add\n      swap1\n      tag_43\n      swap2\n      swap1\n      tag_33\n      jump\t// in\n    tag_43:\n      tag_44\n      jump\t// in\n    tag_42:\n      stop\n        /* \"contracts/supplier_bk.sol\":6900:6993  function getDaoAddress () public view returns (address) {... */\n    tag_6:\n      callvalue\n      dup1\n      iszero\n      tag_45\n      jumpi\n      revert(0x00, 0x00)\n    tag_45:\n      pop\n      tag_46\n      tag_47\n      jump\t// in\n    tag_46:\n      mload(0x40)\n      tag_48\n      swap2\n      swap1\n      tag_29\n      jump\t// in\n    tag_48:\n      mload(0x40)\n      dup1\n      swap2\n      sub\n      swap1\n      return\n        /* \"contracts/supplier_bk.sol\":2061:2576  function brandRegister() public {... */\n    tag_7:\n      callvalue\n      dup1\n      iszero\n      tag_49\n      jumpi\n      revert(0x00, 0x00)\n    tag_49:\n      pop\n      tag_50\n      tag_51\n      jump\t// in\n    tag_50:\n      stop\n        /* \"contracts/supplier_bk.sol\":4308:5407  function enablePartner(address agentAddress) public payable nonReentrant {... */\n    tag_8:\n      tag_52\n      0x04\n      dup1\n      calldatasize\n      sub\n      dup2\n      add\n      swap1\n      tag_53\n      swap2\n      swap1\n      tag_33\n      jump\t// in\n    tag_53:\n      tag_54\n      jump\t// in\n    tag_52:\n      stop\n        /* \"contracts/supplier_bk.sol\":3715:4075  function unVerifyBrand(address brandAddress) public onlyReviewer {... */\n    tag_9:\n      callvalue\n      dup1\n      iszero\n      tag_55\n      jumpi\n      revert(0x00, 0x00)\n    tag_55:\n      pop\n      tag_56\n      0x04\n      dup1\n      calldatasize\n      sub\n      dup2\n      add\n      swap1\n      tag_57\n      swap2\n      swap1\n      tag_33\n      jump\t// in\n    tag_57:\n      tag_58\n      jump\t// in\n    tag_56:\n      stop\n        /* \"contracts/supplier_bk.sol\":7001:7112  function getBrandAddress (uint256 index) public view returns (address) {... */\n    tag_10:\n      callvalue\n      dup1\n      iszero\n      tag_59\n      jumpi\n      revert(0x00, 0x00)\n    tag_59:\n      pop\n      tag_60\n      0x04\n      dup1\n      calldatasize\n      sub\n      dup2\n      add\n      swap1\n      tag_61\n      swap2\n      swap1\n      tag_62\n      jump\t// in\n    tag_61:\n      tag_63\n      jump\t// in\n    tag_60:\n      mload(0x40)\n      tag_64\n      swap2\n      swap1\n      tag_29\n      jump\t// in\n    tag_64:\n      mload(0x40)\n      dup1\n      swap2\n      sub\n      swap1\n      return\n        /* \"contracts/supplier_bk.sol\":4083:4300  function isPartner(... */\n    tag_11:\n      callvalue\n      dup1\n      iszero\n      tag_65\n      jumpi\n      revert(0x00, 0x00)\n    tag_65:\n      pop\n      tag_66\n      0x04\n      dup1\n      calldatasize\n      sub\n      dup2\n      add\n      swap1\n      tag_67\n      swap2\n      swap1\n      tag_68\n      jump\t// in\n    tag_67:\n      tag_69\n      jump\t// in\n    tag_66:\n      mload(0x40)\n      tag_70\n      swap2\n      swap1\n      tag_41\n      jump\t// in\n    tag_70:\n      mload(0x40)\n      dup1\n      swap2\n      sub\n      swap1\n      return\n        /* \"contracts/supplier_bk.sol\":7120:7245  function getBrandIndex (address brandAddress) public view returns (uint256) {... */\n    tag_12:\n      callvalue\n      dup1\n      iszero\n      tag_71\n      jumpi\n      revert(0x00, 0x00)\n    tag_71:\n      pop\n      tag_72\n      0x04\n      dup1\n      calldatasize\n      sub\n      dup2\n      add\n      swap1\n      tag_73\n      swap2\n      swap1\n      tag_33\n      jump\t// in\n    tag_73:\n      tag_74\n      jump\t// in\n    tag_72:\n      mload(0x40)\n      tag_75\n      swap2\n      swap1\n      tag_76\n      jump\t// in\n    tag_75:\n      mload(0x40)\n      dup1\n      swap2\n      sub\n      swap1\n      return\n        /* \"contracts/supplier_bk.sol\":7412:7579  function getPartnerIndex (address brandAddress, address sellerAddress) public view returns (uint256) {... */\n    tag_13:\n      callvalue\n      dup1\n      iszero\n      tag_77\n      jumpi\n      revert(0x00, 0x00)\n    tag_77:\n      pop\n      tag_78\n      0x04\n      dup1\n      calldatasize\n      sub\n      dup2\n      add\n      swap1\n      tag_79\n      swap2\n      swap1\n      tag_68\n      jump\t// in\n    tag_79:\n      tag_80\n      jump\t// in\n    tag_78:\n      mload(0x40)\n      tag_81\n      swap2\n      swap1\n      tag_76\n      jump\t// in\n    tag_81:\n      mload(0x40)\n      dup1\n      swap2\n      sub\n      swap1\n      return\n        /* \"contracts/supplier_bk.sol\":1032:1068  Counters.Counter public brandCounter */\n    tag_14:\n      callvalue\n      dup1\n      iszero\n      tag_82\n      jumpi\n      revert(0x00, 0x00)\n    tag_82:\n      pop\n      tag_83\n      tag_84\n      jump\t// in\n    tag_83:\n      mload(0x40)\n      tag_85\n      swap2\n      swap1\n      tag_76\n      jump\t// in\n    tag_85:\n      mload(0x40)\n      dup1\n      swap2\n      sub\n      swap1\n      return\n        /* \"contracts/supplier_bk.sol\":2639:3352  function brandUnRegister() public {... */\n    tag_15:\n      callvalue\n      dup1\n      iszero\n      tag_86\n      jumpi\n      revert(0x00, 0x00)\n    tag_86:\n      pop\n      tag_87\n      tag_88\n      jump\t// in\n    tag_87:\n      stop\n        /* \"contracts/supplier_bk.sol\":7739:8108  function getBrandBatch(uint256[] calldata indexes) public view returns (address[] memory) ... */\n    tag_16:\n      callvalue\n      dup1\n      iszero\n      tag_89\n      jumpi\n      revert(0x00, 0x00)\n    tag_89:\n      pop\n      tag_90\n      0x04\n      dup1\n      calldatasize\n      sub\n      dup2\n      add\n      swap1\n      tag_91\n      swap2\n      swap1\n      tag_92\n      jump\t// in\n    tag_91:\n      tag_93\n      jump\t// in\n    tag_90:\n      mload(0x40)\n      tag_94\n      swap2\n      swap1\n      tag_95\n      jump\t// in\n    tag_94:\n      mload(0x40)\n      dup1\n      swap2\n      sub\n      swap1\n      return\n        /* \"contracts/supplier_bk.sol\":6637:6762  function isVerifiedBrand(address brandAddress) public view returns (bool) {... */\n    tag_17:\n      callvalue\n      dup1\n      iszero\n      tag_96\n      jumpi\n      revert(0x00, 0x00)\n    tag_96:\n      pop\n      tag_97\n      0x04\n      dup1\n      calldatasize\n      sub\n      dup2\n      add\n      swap1\n      tag_98\n      swap2\n      swap1\n      tag_33\n      jump\t// in\n    tag_98:\n      tag_99\n      jump\t// in\n    tag_97:\n      mload(0x40)\n      tag_100\n      swap2\n      swap1\n      tag_41\n      jump\t// in\n    tag_100:\n      mload(0x40)\n      dup1\n      swap2\n      sub\n      swap1\n      return\n        /* \"contracts/supplier_bk.sol\":3360:3707  function verifyBrand(address brandAddress) public onlyReviewer {... */\n    tag_18:\n      callvalue\n      dup1\n      iszero\n      tag_101\n      jumpi\n      revert(0x00, 0x00)\n    tag_101:\n      pop\n      tag_102\n      0x04\n      dup1\n      calldatasize\n      sub\n      dup2\n      add\n      swap1\n      tag_103\n      swap2\n      swap1\n      tag_33\n      jump\t// in\n    tag_103:\n      tag_104\n      jump\t// in\n    tag_102:\n      stop\n        /* \"contracts/supplier_bk.sol\":7587:7731  function getPartnerCount (address brandAddress) public view returns (uint256) {... */\n    tag_19:\n      callvalue\n      dup1\n      iszero\n      tag_105\n      jumpi\n      revert(0x00, 0x00)\n    tag_105:\n      pop\n      tag_106\n      0x04\n      dup1\n      calldatasize\n      sub\n      dup2\n      add\n      swap1\n      tag_107\n      swap2\n      swap1\n      tag_33\n      jump\t// in\n    tag_107:\n      tag_108\n      jump\t// in\n    tag_106:\n      mload(0x40)\n      tag_109\n      swap2\n      swap1\n      tag_76\n      jump\t// in\n    tag_109:\n      mload(0x40)\n      dup1\n      swap2\n      sub\n      swap1\n      return\n        /* \"contracts/supplier_bk.sol\":7253:7404  function getPartnerAddress (address brandAddress, uint256 index) public view returns (address) {... */\n    tag_27:\n        /* \"contracts/supplier_bk.sol\":7339:7346  address */\n      0x00\n        /* \"contracts/supplier_bk.sol\":7366:7375  _partners */\n      0x09\n        /* \"contracts/supplier_bk.sol\":7366:7389  _partners[brandAddress] */\n      0x00\n        /* \"contracts/supplier_bk.sol\":7376:7388  brandAddress */\n      dup5\n        /* \"contracts/supplier_bk.sol\":7366:7389  _partners[brandAddress] */\n      0xffffffffffffffffffffffffffffffffffffffff\n      and\n      0xffffffffffffffffffffffffffffffffffffffff\n      and\n      dup2\n      mstore\n      0x20\n      add\n      swap1\n      dup2\n      mstore\n      0x20\n      add\n      0x00\n      keccak256\n        /* \"contracts/supplier_bk.sol\":7366:7396  _partners[brandAddress][index] */\n      0x00\n        /* \"contracts/supplier_bk.sol\":7390:7395  index */\n      dup4\n        /* \"contracts/supplier_bk.sol\":7366:7396  _partners[brandAddress][index] */\n      dup2\n      mstore\n      0x20\n      add\n      swap1\n      dup2\n      mstore\n      0x20\n      add\n      0x00\n      keccak256\n      0x00\n      swap1\n      sload\n      swap1\n      0x0100\n      exp\n      swap1\n      div\n      0xffffffffffffffffffffffffffffffffffffffff\n      and\n        /* \"contracts/supplier_bk.sol\":7359:7396  return _partners[brandAddress][index] */\n      swap1\n      pop\n        /* \"contracts/supplier_bk.sol\":7253:7404  function getPartnerAddress (address brandAddress, uint256 index) public view returns (address) {... */\n      swap3\n      swap2\n      pop\n      pop\n      jump\t// out\n        /* \"contracts/supplier_bk.sol\":6770:6892  function getVerifier(address brandAddress) public view returns (address) {... */\n    tag_34:\n        /* \"contracts/supplier_bk.sol\":6834:6841  address */\n      0x00\n        /* \"contracts/supplier_bk.sol\":6861:6870  _verifier */\n      0x08\n        /* \"contracts/supplier_bk.sol\":6861:6884  _verifier[brandAddress] */\n      0x00\n        /* \"contracts/supplier_bk.sol\":6871:6883  brandAddress */\n      dup4\n        /* \"contracts/supplier_bk.sol\":6861:6884  _verifier[brandAddress] */\n      0xffffffffffffffffffffffffffffffffffffffff\n      and\n      0xffffffffffffffffffffffffffffffffffffffff\n      and\n      dup2\n      mstore\n      0x20\n      add\n      swap1\n      dup2\n      mstore\n      0x20\n      add\n      0x00\n      keccak256\n      0x00\n      swap1\n      sload\n      swap1\n      0x0100\n      exp\n      swap1\n      div\n      0xffffffffffffffffffffffffffffffffffffffff\n      and\n        /* \"contracts/supplier_bk.sol\":6854:6884  return _verifier[brandAddress] */\n      swap1\n      pop\n        /* \"contracts/supplier_bk.sol\":6770:6892  function getVerifier(address brandAddress) public view returns (address) {... */\n      swap2\n      swap1\n      pop\n      jump\t// out\n        /* \"contracts/supplier_bk.sol\":6508:6629  function isBrand (address brandAddress) public view returns (bool) {... */\n    tag_39:\n        /* \"contracts/supplier_bk.sol\":6569:6573  bool */\n      0x00\n        /* \"contracts/supplier_bk.sol\":6620:6621  0 */\n      0x00\n        /* \"contracts/supplier_bk.sol\":6593:6602  _brandIds */\n      0x05\n        /* \"contracts/supplier_bk.sol\":6593:6616  _brandIds[brandAddress] */\n      0x00\n        /* \"contracts/supplier_bk.sol\":6603:6615  brandAddress */\n      dup5\n        /* \"contracts/supplier_bk.sol\":6593:6616  _brandIds[brandAddress] */\n      0xffffffffffffffffffffffffffffffffffffffff\n      and\n      0xffffffffffffffffffffffffffffffffffffffff\n      and\n      dup2\n      mstore\n      0x20\n      add\n      swap1\n      dup2\n      mstore\n      0x20\n      add\n      0x00\n      keccak256\n      sload\n        /* \"contracts/supplier_bk.sol\":6593:6621  _brandIds[brandAddress] != 0 */\n      eq\n      iszero\n        /* \"contracts/supplier_bk.sol\":6586:6621  return _brandIds[brandAddress] != 0 */\n      swap1\n      pop\n        /* \"contracts/supplier_bk.sol\":6508:6629  function isBrand (address brandAddress) public view returns (bool) {... */\n      swap2\n      swap1\n      pop\n      jump\t// out\n        /* \"contracts/supplier_bk.sol\":5415:6500  function disablePartner(address agentAddress) public payable nonReentrant {... */\n    tag_44:\n        /* \"@openzeppelin/contracts/security/ReentrancyGuard.sol\":2261:2282  _nonReentrantBefore() */\n      tag_114\n        /* \"@openzeppelin/contracts/security/ReentrancyGuard.sol\":2261:2280  _nonReentrantBefore */\n      tag_115\n        /* \"@openzeppelin/contracts/security/ReentrancyGuard.sol\":2261:2282  _nonReentrantBefore() */\n      jump\t// in\n    tag_114:\n        /* \"contracts/supplier_bk.sol\":5500:5520  address brandAddress */\n      0x00\n        /* \"contracts/supplier_bk.sol\":5523:5533  msg.sender */\n      caller\n        /* \"contracts/supplier_bk.sol\":5500:5533  address brandAddress = msg.sender */\n      swap1\n      pop\n        /* \"contracts/supplier_bk.sol\":5552:5589  isPartner(brandAddress, agentAddress) */\n      tag_117\n        /* \"contracts/supplier_bk.sol\":5562:5574  brandAddress */\n      dup2\n        /* \"contracts/supplier_bk.sol\":5576:5588  agentAddress */\n      dup4\n        /* \"contracts/supplier_bk.sol\":5552:5561  isPartner */\n      tag_69\n        /* \"contracts/supplier_bk.sol\":5552:5589  isPartner(brandAddress, agentAddress) */\n      jump\t// in\n    tag_117:\n        /* \"contracts/supplier_bk.sol\":5544:5616  require(isPartner(brandAddress, agentAddress), \"Agent is not a partner\") */\n      tag_118\n      jumpi\n      mload(0x40)\n      0x08c379a000000000000000000000000000000000000000000000000000000000\n      dup2\n      mstore\n      0x04\n      add\n      tag_119\n      swap1\n      tag_120\n      jump\t// in\n    tag_119:\n      mload(0x40)\n      dup1\n      swap2\n      sub\n      swap1\n      revert\n    tag_118:\n        /* \"contracts/supplier_bk.sol\":5632:5648  uint256 brandFee */\n      0x00\n        /* \"contracts/supplier_bk.sol\":5654:5666  daoInterface */\n      0x02\n      0x00\n      swap1\n      sload\n      swap1\n      0x0100\n      exp\n      swap1\n      div\n      0xffffffffffffffffffffffffffffffffffffffff\n      and\n        /* \"contracts/supplier_bk.sol\":5654:5677  daoInterface.getFeeInfo */\n      0xffffffffffffffffffffffffffffffffffffffff\n      and\n      0x02eab7\n        /* \"contracts/supplier_bk.sol\":5654:5679  daoInterface.getFeeInfo() */\n      mload(0x40)\n      dup2\n      0xffffffff\n      and\n      0xe0\n      shl\n      dup2\n      mstore\n      0x04\n      add\n      0x80\n      mload(0x40)\n      dup1\n      dup4\n      sub\n      dup2\n      dup7\n      gas\n      staticcall\n      iszero\n      dup1\n      iszero\n      tag_122\n      jumpi\n      returndatacopy(0x00, 0x00, returndatasize)\n      revert(0x00, returndatasize)\n    tag_122:\n      pop\n      pop\n      pop\n      pop\n      mload(0x40)\n      returndatasize\n      not(0x1f)\n      0x1f\n      dup3\n      add\n      and\n      dup3\n      add\n      dup1\n      0x40\n      mstore\n      pop\n      dup2\n      add\n      swap1\n      tag_123\n      swap2\n      swap1\n      tag_124\n      jump\t// in\n    tag_123:\n        /* \"contracts/supplier_bk.sol\":5627:5679  (, , uint256 brandFee, ) = daoInterface.getFeeInfo() */\n      pop\n      swap3\n      pop\n      pop\n      pop\n        /* \"contracts/supplier_bk.sol\":5711:5719  brandFee */\n      dup1\n        /* \"contracts/supplier_bk.sol\":5698:5707  msg.value */\n      callvalue\n        /* \"contracts/supplier_bk.sol\":5698:5719  msg.value >= brandFee */\n      lt\n      iszero\n        /* \"contracts/supplier_bk.sol\":5690:5742  require(msg.value >= brandFee, \"Fee is not enough.\") */\n      tag_125\n      jumpi\n      mload(0x40)\n      0x08c379a000000000000000000000000000000000000000000000000000000000\n      dup2\n      mstore\n      0x04\n      add\n      tag_126\n      swap1\n      tag_127\n      jump\t// in\n    tag_126:\n      mload(0x40)\n      dup1\n      swap2\n      sub\n      swap1\n      revert\n    tag_125:\n        /* \"contracts/supplier_bk.sol\":5755:5769  uint256 lastId */\n      0x00\n        /* \"contracts/supplier_bk.sol\":5772:5812  _partnerCounters[brandAddress].current() */\n      tag_128\n        /* \"contracts/supplier_bk.sol\":5772:5788  _partnerCounters */\n      0x0b\n        /* \"contracts/supplier_bk.sol\":5772:5802  _partnerCounters[brandAddress] */\n      0x00\n        /* \"contracts/supplier_bk.sol\":5789:5801  brandAddress */\n      dup6\n        /* \"contracts/supplier_bk.sol\":5772:5802  _partnerCounters[brandAddress] */\n      0xffffffffffffffffffffffffffffffffffffffff\n      and\n      0xffffffffffffffffffffffffffffffffffffffff\n      and\n      dup2\n      mstore\n      0x20\n      add\n      swap1\n      dup2\n      mstore\n      0x20\n      add\n      0x00\n      keccak256\n        /* \"contracts/supplier_bk.sol\":5772:5810  _partnerCounters[brandAddress].current */\n      tag_129\n        /* \"contracts/supplier_bk.sol\":5772:5812  _partnerCounters[brandAddress].current() */\n      jump\t// in\n    tag_128:\n        /* \"contracts/supplier_bk.sol\":5755:5812  uint256 lastId = _partnerCounters[brandAddress].current() */\n      swap1\n      pop\n        /* \"contracts/supplier_bk.sol\":5880:5886  lastId */\n      dup1\n        /* \"contracts/supplier_bk.sol\":5837:5848  _partnerIds */\n      0x0a\n        /* \"contracts/supplier_bk.sol\":5837:5862  _partnerIds[brandAddress] */\n      0x00\n        /* \"contracts/supplier_bk.sol\":5849:5861  brandAddress */\n      dup6\n        /* \"contracts/supplier_bk.sol\":5837:5862  _partnerIds[brandAddress] */\n      0xffffffffffffffffffffffffffffffffffffffff\n      and\n      0xffffffffffffffffffffffffffffffffffffffff\n      and\n      dup2\n      mstore\n      0x20\n      add\n      swap1\n      dup2\n      mstore\n      0x20\n      add\n      0x00\n      keccak256\n        /* \"contracts/supplier_bk.sol\":5837:5876  _partnerIds[brandAddress][agentAddress] */\n      0x00\n        /* \"contracts/supplier_bk.sol\":5863:5875  agentAddress */\n      dup7\n        /* \"contracts/supplier_bk.sol\":5837:5876  _partnerIds[brandAddress][agentAddress] */\n      0xffffffffffffffffffffffffffffffffffffffff\n      and\n      0xffffffffffffffffffffffffffffffffffffffff\n      and\n      dup2\n      mstore\n      0x20\n      add\n      swap1\n      dup2\n      mstore\n      0x20\n      add\n      0x00\n      keccak256\n      sload\n        /* \"contracts/supplier_bk.sol\":5837:5886  _partnerIds[brandAddress][agentAddress] != lastId */\n      eq\n        /* \"contracts/supplier_bk.sol\":5833:6128  if (_partnerIds[brandAddress][agentAddress] != lastId) {... */\n      tag_130\n      jumpi\n        /* \"contracts/supplier_bk.sol\":5970:5979  _partners */\n      0x09\n        /* \"contracts/supplier_bk.sol\":5970:5993  _partners[brandAddress] */\n      0x00\n        /* \"contracts/supplier_bk.sol\":5980:5992  brandAddress */\n      dup5\n        /* \"contracts/supplier_bk.sol\":5970:5993  _partners[brandAddress] */\n      0xffffffffffffffffffffffffffffffffffffffff\n      and\n      0xffffffffffffffffffffffffffffffffffffffff\n      and\n      dup2\n      mstore\n      0x20\n      add\n      swap1\n      dup2\n      mstore\n      0x20\n      add\n      0x00\n      keccak256\n        /* \"contracts/supplier_bk.sol\":5970:6001  _partners[brandAddress][lastId] */\n      0x00\n        /* \"contracts/supplier_bk.sol\":5994:6000  lastId */\n      dup3\n        /* \"contracts/supplier_bk.sol\":5970:6001  _partners[brandAddress][lastId] */\n      dup2\n      mstore\n      0x20\n      add\n      swap1\n      dup2\n      mstore\n      0x20\n      add\n      0x00\n      keccak256\n      0x00\n      swap1\n      sload\n      swap1\n      0x0100\n      exp\n      swap1\n      div\n      0xffffffffffffffffffffffffffffffffffffffff\n      and\n        /* \"contracts/supplier_bk.sol\":5903:5912  _partners */\n      0x09\n        /* \"contracts/supplier_bk.sol\":5903:5926  _partners[brandAddress] */\n      0x00\n        /* \"contracts/supplier_bk.sol\":5913:5925  brandAddress */\n      dup6\n        /* \"contracts/supplier_bk.sol\":5903:5926  _partners[brandAddress] */\n      0xffffffffffffffffffffffffffffffffffffffff\n      and\n      0xffffffffffffffffffffffffffffffffffffffff\n      and\n      dup2\n      mstore\n      0x20\n      add\n      swap1\n      dup2\n      mstore\n      0x20\n      add\n      0x00\n      keccak256\n        /* \"contracts/supplier_bk.sol\":5903:5967  _partners[brandAddress][_partnerIds[brandAddress][agentAddress]] */\n      0x00\n        /* \"contracts/supplier_bk.sol\":5927:5938  _partnerIds */\n      0x0a\n        /* \"contracts/supplier_bk.sol\":5927:5952  _partnerIds[brandAddress] */\n      0x00\n        /* \"contracts/supplier_bk.sol\":5939:5951  brandAddress */\n      dup8\n        /* \"contracts/supplier_bk.sol\":5927:5952  _partnerIds[brandAddress] */\n      0xffffffffffffffffffffffffffffffffffffffff\n      and\n      0xffffffffffffffffffffffffffffffffffffffff\n      and\n      dup2\n      mstore\n      0x20\n      add\n      swap1\n      dup2\n      mstore\n      0x20\n      add\n      0x00\n      keccak256\n        /* \"contracts/supplier_bk.sol\":5927:5966  _partnerIds[brandAddress][agentAddress] */\n      0x00\n        /* \"contracts/supplier_bk.sol\":5953:5965  agentAddress */\n      dup9\n        /* \"contracts/supplier_bk.sol\":5927:5966  _partnerIds[brandAddress][agentAddress] */\n      0xffffffffffffffffffffffffffffffffffffffff\n      and\n      0xffffffffffffffffffffffffffffffffffffffff\n      and\n      dup2\n      mstore\n      0x20\n      add\n      swap1\n      dup2\n      mstore\n      0x20\n      add\n      0x00\n      keccak256\n      sload\n        /* \"contracts/supplier_bk.sol\":5903:5967  _partners[brandAddress][_partnerIds[brandAddress][agentAddress]] */\n      dup2\n      mstore\n      0x20\n      add\n      swap1\n      dup2\n      mstore\n      0x20\n      add\n      0x00\n      keccak256\n      0x00\n        /* \"contracts/supplier_bk.sol\":5903:6001  _partners[brandAddress][_partnerIds[brandAddress][agentAddress]] = _partners[brandAddress][lastId] */\n      0x0100\n      exp\n      dup2\n      sload\n      dup2\n      0xffffffffffffffffffffffffffffffffffffffff\n      mul\n      not\n      and\n      swap1\n      dup4\n      0xffffffffffffffffffffffffffffffffffffffff\n      and\n      mul\n      or\n      swap1\n      sstore\n      pop\n        /* \"contracts/supplier_bk.sol\":6077:6088  _partnerIds */\n      0x0a\n        /* \"contracts/supplier_bk.sol\":6077:6102  _partnerIds[brandAddress] */\n      0x00\n        /* \"contracts/supplier_bk.sol\":6089:6101  brandAddress */\n      dup5\n        /* \"contracts/supplier_bk.sol\":6077:6102  _partnerIds[brandAddress] */\n      0xffffffffffffffffffffffffffffffffffffffff\n      and\n      0xffffffffffffffffffffffffffffffffffffffff\n      and\n      dup2\n      mstore\n      0x20\n      add\n      swap1\n      dup2\n      mstore\n      0x20\n      add\n      0x00\n      keccak256\n        /* \"contracts/supplier_bk.sol\":6077:6116  _partnerIds[brandAddress][agentAddress] */\n      0x00\n        /* \"contracts/supplier_bk.sol\":6103:6115  agentAddress */\n      dup6\n        /* \"contracts/supplier_bk.sol\":6077:6116  _partnerIds[brandAddress][agentAddress] */\n      0xffffffffffffffffffffffffffffffffffffffff\n      and\n      0xffffffffffffffffffffffffffffffffffffffff\n      and\n      dup2\n      mstore\n      0x20\n      add\n      swap1\n      dup2\n      mstore\n      0x20\n      add\n      0x00\n      keccak256\n      sload\n        /* \"contracts/supplier_bk.sol\":6016:6027  _partnerIds */\n      0x0a\n        /* \"contracts/supplier_bk.sol\":6016:6041  _partnerIds[brandAddress] */\n      0x00\n        /* \"contracts/supplier_bk.sol\":6028:6040  brandAddress */\n      dup6\n        /* \"contracts/supplier_bk.sol\":6016:6041  _partnerIds[brandAddress] */\n      0xffffffffffffffffffffffffffffffffffffffff\n      and\n      0xffffffffffffffffffffffffffffffffffffffff\n      and\n      dup2\n      mstore\n      0x20\n      add\n      swap1\n      dup2\n      mstore\n      0x20\n      add\n      0x00\n      keccak256\n        /* \"contracts/supplier_bk.sol\":6016:6074  _partnerIds[brandAddress][_partners[brandAddress][lastId]] */\n      0x00\n        /* \"contracts/supplier_bk.sol\":6042:6051  _partners */\n      0x09\n        /* \"contracts/supplier_bk.sol\":6042:6065  _partners[brandAddress] */\n      0x00\n        /* \"contracts/supplier_bk.sol\":6052:6064  brandAddress */\n      dup8\n        /* \"contracts/supplier_bk.sol\":6042:6065  _partners[brandAddress] */\n      0xffffffffffffffffffffffffffffffffffffffff\n      and\n      0xffffffffffffffffffffffffffffffffffffffff\n      and\n      dup2\n      mstore\n      0x20\n      add\n      swap1\n      dup2\n      mstore\n      0x20\n      add\n      0x00\n      keccak256\n        /* \"contracts/supplier_bk.sol\":6042:6073  _partners[brandAddress][lastId] */\n      0x00\n        /* \"contracts/supplier_bk.sol\":6066:6072  lastId */\n      dup6\n        /* \"contracts/supplier_bk.sol\":6042:6073  _partners[brandAddress][lastId] */\n      dup2\n      mstore\n      0x20\n      add\n      swap1\n      dup2\n      mstore\n      0x20\n      add\n      0x00\n      keccak256\n      0x00\n      swap1\n      sload\n      swap1\n      0x0100\n      exp\n      swap1\n      div\n      0xffffffffffffffffffffffffffffffffffffffff\n      and\n        /* \"contracts/supplier_bk.sol\":6016:6074  _partnerIds[brandAddress][_partners[brandAddress][lastId]] */\n      0xffffffffffffffffffffffffffffffffffffffff\n      and\n      0xffffffffffffffffffffffffffffffffffffffff\n      and\n      dup2\n      mstore\n      0x20\n      add\n      swap1\n      dup2\n      mstore\n      0x20\n      add\n      0x00\n      keccak256\n        /* \"contracts/supplier_bk.sol\":6016:6116  _partnerIds[brandAddress][_partners[brandAddress][lastId]] = _partnerIds[brandAddress][agentAddress] */\n      dup2\n      swap1\n      sstore\n      pop\n        /* \"contracts/supplier_bk.sol\":5833:6128  if (_partnerIds[brandAddress][agentAddress] != lastId) {... */\n    tag_130:\n        /* \"contracts/supplier_bk.sol\":6160:6169  _partners */\n      0x09\n        /* \"contracts/supplier_bk.sol\":6160:6183  _partners[brandAddress] */\n      0x00\n        /* \"contracts/supplier_bk.sol\":6170:6182  brandAddress */\n      dup5\n        /* \"contracts/supplier_bk.sol\":6160:6183  _partners[brandAddress] */\n      0xffffffffffffffffffffffffffffffffffffffff\n      and\n      0xffffffffffffffffffffffffffffffffffffffff\n      and\n      dup2\n      mstore\n      0x20\n      add\n      swap1\n      dup2\n      mstore\n      0x20\n      add\n      0x00\n      keccak256\n        /* \"contracts/supplier_bk.sol\":6160:6191  _partners[brandAddress][lastId] */\n      0x00\n        /* \"contracts/supplier_bk.sol\":6184:6190  lastId */\n      dup3\n        /* \"contracts/supplier_bk.sol\":6160:6191  _partners[brandAddress][lastId] */\n      dup2\n      mstore\n      0x20\n      add\n      swap1\n      dup2\n      mstore\n      0x20\n      add\n      0x00\n      keccak256\n      0x00\n        /* \"contracts/supplier_bk.sol\":6153:6191  delete _partners[brandAddress][lastId] */\n      0x0100\n      exp\n      dup2\n      sload\n      swap1\n      0xffffffffffffffffffffffffffffffffffffffff\n      mul\n      not\n      and\n      swap1\n      sstore\n        /* \"contracts/supplier_bk.sol\":6209:6220  _partnerIds */\n      0x0a\n        /* \"contracts/supplier_bk.sol\":6209:6234  _partnerIds[brandAddress] */\n      0x00\n        /* \"contracts/supplier_bk.sol\":6221:6233  brandAddress */\n      dup5\n        /* \"contracts/supplier_bk.sol\":6209:6234  _partnerIds[brandAddress] */\n      0xffffffffffffffffffffffffffffffffffffffff\n      and\n      0xffffffffffffffffffffffffffffffffffffffff\n      and\n      dup2\n      mstore\n      0x20\n      add\n      swap1\n      dup2\n      mstore\n      0x20\n      add\n      0x00\n      keccak256\n        /* \"contracts/supplier_bk.sol\":6209:6248  _partnerIds[brandAddress][agentAddress] */\n      0x00\n        /* \"contracts/supplier_bk.sol\":6235:6247  agentAddress */\n      dup6\n        /* \"contracts/supplier_bk.sol\":6209:6248  _partnerIds[brandAddress][agentAddress] */\n      0xffffffffffffffffffffffffffffffffffffffff\n      and\n      0xffffffffffffffffffffffffffffffffffffffff\n      and\n      dup2\n      mstore\n      0x20\n      add\n      swap1\n      dup2\n      mstore\n      0x20\n      add\n      0x00\n      keccak256\n        /* \"contracts/supplier_bk.sol\":6202:6248  delete _partnerIds[brandAddress][agentAddress] */\n      0x00\n      swap1\n      sstore\n        /* \"contracts/supplier_bk.sol\":6259:6301  _partnerCounters[brandAddress].decrement() */\n      tag_131\n        /* \"contracts/supplier_bk.sol\":6259:6275  _partnerCounters */\n      0x0b\n        /* \"contracts/supplier_bk.sol\":6259:6289  _partnerCounters[brandAddress] */\n      0x00\n        /* \"contracts/supplier_bk.sol\":6276:6288  brandAddress */\n      dup6\n        /* \"contracts/supplier_bk.sol\":6259:6289  _partnerCounters[brandAddress] */\n      0xffffffffffffffffffffffffffffffffffffffff\n      and\n      0xffffffffffffffffffffffffffffffffffffffff\n      and\n      dup2\n      mstore\n      0x20\n      add\n      swap1\n      dup2\n      mstore\n      0x20\n      add\n      0x00\n      keccak256\n        /* \"contracts/supplier_bk.sol\":6259:6299  _partnerCounters[brandAddress].decrement */\n      tag_132\n        /* \"contracts/supplier_bk.sol\":6259:6301  _partnerCounters[brandAddress].decrement() */\n      jump\t// in\n    tag_131:\n        /* \"contracts/supplier_bk.sol\":6315:6327  bool success */\n      0x00\n        /* \"contracts/supplier_bk.sol\":6341:6352  _daoAddress */\n      0x01\n      0x00\n      swap1\n      sload\n      swap1\n      0x0100\n      exp\n      swap1\n      div\n      0xffffffffffffffffffffffffffffffffffffffff\n      and\n        /* \"contracts/supplier_bk.sol\":6333:6358  payable(_daoAddress).call */\n      0xffffffffffffffffffffffffffffffffffffffff\n      and\n        /* \"contracts/supplier_bk.sol\":6366:6375  msg.value */\n      callvalue\n        /* \"contracts/supplier_bk.sol\":6333:6382  payable(_daoAddress).call{value: msg.value}(\"0x\") */\n      mload(0x40)\n      tag_133\n      swap1\n      tag_134\n      jump\t// in\n    tag_133:\n      0x00\n      mload(0x40)\n      dup1\n      dup4\n      sub\n      dup2\n      dup6\n      dup8\n      gas\n      call\n      swap3\n      pop\n      pop\n      pop\n      returndatasize\n      dup1\n      0x00\n      dup2\n      eq\n      tag_137\n      jumpi\n      mload(0x40)\n      swap2\n      pop\n      and(add(returndatasize, 0x3f), not(0x1f))\n      dup3\n      add\n      0x40\n      mstore\n      returndatasize\n      dup3\n      mstore\n      returndatasize\n      0x00\n      0x20\n      dup5\n      add\n      returndatacopy\n      jump(tag_136)\n    tag_137:\n      0x60\n      swap2\n      pop\n    tag_136:\n      pop\n        /* \"contracts/supplier_bk.sol\":6314:6382  (bool success, ) = payable(_daoAddress).call{value: msg.value}(\"0x\") */\n      pop\n      swap1\n      pop\n        /* \"contracts/supplier_bk.sol\":6401:6408  success */\n      dup1\n        /* \"contracts/supplier_bk.sol\":6393:6431  require(success, \"Payment fee failed\") */\n      tag_138\n      jumpi\n      mload(0x40)\n      0x08c379a000000000000000000000000000000000000000000000000000000000\n      dup2\n      mstore\n      0x04\n      add\n      tag_139\n      swap1\n      tag_140\n      jump\t// in\n    tag_139:\n      mload(0x40)\n      dup1\n      swap2\n      sub\n      swap1\n      revert\n    tag_138:\n        /* \"contracts/supplier_bk.sol\":6479:6491  agentAddress */\n      dup5\n        /* \"contracts/supplier_bk.sol\":6449:6492  PartnerDisabled(brandAddress, agentAddress) */\n      0xffffffffffffffffffffffffffffffffffffffff\n      and\n        /* \"contracts/supplier_bk.sol\":6465:6477  brandAddress */\n      dup5\n        /* \"contracts/supplier_bk.sol\":6449:6492  PartnerDisabled(brandAddress, agentAddress) */\n      0xffffffffffffffffffffffffffffffffffffffff\n      and\n      0xd1746b2e87b5c08f014f523c21b62d55fd2a0be9831d627adc7dbccc315d1023\n      mload(0x40)\n      mload(0x40)\n      dup1\n      swap2\n      sub\n      swap1\n      log3\n        /* \"contracts/supplier_bk.sol\":5489:6500  {... */\n      pop\n      pop\n      pop\n      pop\n        /* \"@openzeppelin/contracts/security/ReentrancyGuard.sol\":2303:2323  _nonReentrantAfter() */\n      tag_141\n        /* \"@openzeppelin/contracts/security/ReentrancyGuard.sol\":2303:2321  _nonReentrantAfter */\n      tag_142\n        /* \"@openzeppelin/contracts/security/ReentrancyGuard.sol\":2303:2323  _nonReentrantAfter() */\n      jump\t// in\n    tag_141:\n        /* \"contracts/supplier_bk.sol\":5415:6500  function disablePartner(address agentAddress) public payable nonReentrant {... */\n      pop\n      jump\t// out\n        /* \"contracts/supplier_bk.sol\":6900:6993  function getDaoAddress () public view returns (address) {... */\n    tag_47:\n        /* \"contracts/supplier_bk.sol\":6947:6954  address */\n      0x00\n        /* \"contracts/supplier_bk.sol\":6974:6985  _daoAddress */\n      0x01\n      0x00\n      swap1\n      sload\n      swap1\n      0x0100\n      exp\n      swap1\n      div\n      0xffffffffffffffffffffffffffffffffffffffff\n      and\n        /* \"contracts/supplier_bk.sol\":6967:6985  return _daoAddress */\n      swap1\n      pop\n        /* \"contracts/supplier_bk.sol\":6900:6993  function getDaoAddress () public view returns (address) {... */\n      swap1\n      jump\t// out\n        /* \"contracts/supplier_bk.sol\":2061:2576  function brandRegister() public {... */\n    tag_51:\n        /* \"contracts/supplier_bk.sol\":2137:2138  0 */\n      0x00\n        /* \"contracts/supplier_bk.sol\":2112:2121  _brandIds */\n      0x05\n        /* \"contracts/supplier_bk.sol\":2112:2133  _brandIds[msg.sender] */\n      0x00\n        /* \"contracts/supplier_bk.sol\":2122:2132  msg.sender */\n      caller\n        /* \"contracts/supplier_bk.sol\":2112:2133  _brandIds[msg.sender] */\n      0xffffffffffffffffffffffffffffffffffffffff\n      and\n      0xffffffffffffffffffffffffffffffffffffffff\n      and\n      dup2\n      mstore\n      0x20\n      add\n      swap1\n      dup2\n      mstore\n      0x20\n      add\n      0x00\n      keccak256\n      sload\n        /* \"contracts/supplier_bk.sol\":2112:2138  _brandIds[msg.sender] == 0 */\n      eq\n        /* \"contracts/supplier_bk.sol\":2104:2170  require(_brandIds[msg.sender] == 0, \"Brand is already registered\") */\n      tag_145\n      jumpi\n      mload(0x40)\n      0x08c379a000000000000000000000000000000000000000000000000000000000\n      dup2\n      mstore\n      0x04\n      add\n      tag_146\n      swap1\n      tag_147\n      jump\t// in\n    tag_146:\n      mload(0x40)\n      dup1\n      swap2\n      sub\n      swap1\n      revert\n    tag_145:\n        /* \"contracts/supplier_bk.sol\":2182:2203  uint256 minBrandStack */\n      0x00\n        /* \"contracts/supplier_bk.sol\":2209:2221  daoInterface */\n      0x02\n      0x00\n      swap1\n      sload\n      swap1\n      0x0100\n      exp\n      swap1\n      div\n      0xffffffffffffffffffffffffffffffffffffffff\n      and\n        /* \"contracts/supplier_bk.sol\":2209:2234  daoInterface.getStackInfo */\n      0xffffffffffffffffffffffffffffffffffffffff\n      and\n      0xae23876c\n        /* \"contracts/supplier_bk.sol\":2209:2236  daoInterface.getStackInfo() */\n      mload(0x40)\n      dup2\n      0xffffffff\n      and\n      0xe0\n      shl\n      dup2\n      mstore\n      0x04\n      add\n      0x40\n      dup1\n      mload\n      dup1\n      dup4\n      sub\n      dup2\n      dup7\n      gas\n      staticcall\n      iszero\n      dup1\n      iszero\n      tag_149\n      jumpi\n      returndatacopy(0x00, 0x00, returndatasize)\n      revert(0x00, returndatasize)\n    tag_149:\n      pop\n      pop\n      pop\n      pop\n      mload(0x40)\n      returndatasize\n      not(0x1f)\n      0x1f\n      dup3\n      add\n      and\n      dup3\n      add\n      dup1\n      0x40\n      mstore\n      pop\n      dup2\n      add\n      swap1\n      tag_150\n      swap2\n      swap1\n      tag_151\n      jump\t// in\n    tag_150:\n        /* \"contracts/supplier_bk.sol\":2181:2236  (uint256 minBrandStack, ) = daoInterface.getStackInfo() */\n      pop\n      swap1\n      pop\n        /* \"contracts/supplier_bk.sol\":2310:2323  minBrandStack */\n      dup1\n        /* \"contracts/supplier_bk.sol\":2269:2283  stackInterface */\n      0x03\n      0x00\n      swap1\n      sload\n      swap1\n      0x0100\n      exp\n      swap1\n      div\n      0xffffffffffffffffffffffffffffffffffffffff\n      and\n        /* \"contracts/supplier_bk.sol\":2269:2294  stackInterface.getStackOf */\n      0xffffffffffffffffffffffffffffffffffffffff\n      and\n      0x486a302e\n        /* \"contracts/supplier_bk.sol\":2295:2305  msg.sender */\n      caller\n        /* \"contracts/supplier_bk.sol\":2269:2306  stackInterface.getStackOf(msg.sender) */\n      mload(0x40)\n      dup3\n      0xffffffff\n      and\n      0xe0\n      shl\n      dup2\n      mstore\n      0x04\n      add\n      tag_152\n      swap2\n      swap1\n      tag_29\n      jump\t// in\n    tag_152:\n      0x20\n      mload(0x40)\n      dup1\n      dup4\n      sub\n      dup2\n      dup7\n      gas\n      staticcall\n      iszero\n      dup1\n      iszero\n      tag_154\n      jumpi\n      returndatacopy(0x00, 0x00, returndatasize)\n      revert(0x00, returndatasize)\n    tag_154:\n      pop\n      pop\n      pop\n      pop\n      mload(0x40)\n      returndatasize\n      not(0x1f)\n      0x1f\n      dup3\n      add\n      and\n      dup3\n      add\n      dup1\n      0x40\n      mstore\n      pop\n      dup2\n      add\n      swap1\n      tag_155\n      swap2\n      swap1\n      tag_156\n      jump\t// in\n    tag_155:\n        /* \"contracts/supplier_bk.sol\":2269:2323  stackInterface.getStackOf(msg.sender) >= minBrandStack */\n      lt\n      iszero\n        /* \"contracts/supplier_bk.sol\":2247:2370  require(... */\n      tag_157\n      jumpi\n      mload(0x40)\n      0x08c379a000000000000000000000000000000000000000000000000000000000\n      dup2\n      mstore\n      0x04\n      add\n      tag_158\n      swap1\n      tag_159\n      jump\t// in\n    tag_158:\n      mload(0x40)\n      dup1\n      swap2\n      sub\n      swap1\n      revert\n    tag_157:\n        /* \"contracts/supplier_bk.sol\":2391:2415  brandCounter.increment() */\n      tag_160\n        /* \"contracts/supplier_bk.sol\":2391:2403  brandCounter */\n      0x06\n        /* \"contracts/supplier_bk.sol\":2391:2413  brandCounter.increment */\n      tag_161\n        /* \"contracts/supplier_bk.sol\":2391:2415  brandCounter.increment() */\n      jump\t// in\n    tag_160:\n        /* \"contracts/supplier_bk.sol\":2460:2470  msg.sender */\n      caller\n        /* \"contracts/supplier_bk.sol\":2426:2433  _brands */\n      0x04\n        /* \"contracts/supplier_bk.sol\":2426:2457  _brands[brandCounter.current()] */\n      0x00\n        /* \"contracts/supplier_bk.sol\":2434:2456  brandCounter.current() */\n      tag_162\n        /* \"contracts/supplier_bk.sol\":2434:2446  brandCounter */\n      0x06\n        /* \"contracts/supplier_bk.sol\":2434:2454  brandCounter.current */\n      tag_129\n        /* \"contracts/supplier_bk.sol\":2434:2456  brandCounter.current() */\n      jump\t// in\n    tag_162:\n        /* \"contracts/supplier_bk.sol\":2426:2457  _brands[brandCounter.current()] */\n      dup2\n      mstore\n      0x20\n      add\n      swap1\n      dup2\n      mstore\n      0x20\n      add\n      0x00\n      keccak256\n      0x00\n        /* \"contracts/supplier_bk.sol\":2426:2470  _brands[brandCounter.current()] = msg.sender */\n      0x0100\n      exp\n      dup2\n      sload\n      dup2\n      0xffffffffffffffffffffffffffffffffffffffff\n      mul\n      not\n      and\n      swap1\n      dup4\n      0xffffffffffffffffffffffffffffffffffffffff\n      and\n      mul\n      or\n      swap1\n      sstore\n      pop\n        /* \"contracts/supplier_bk.sol\":2505:2527  brandCounter.current() */\n      tag_163\n        /* \"contracts/supplier_bk.sol\":2505:2517  brandCounter */\n      0x06\n        /* \"contracts/supplier_bk.sol\":2505:2525  brandCounter.current */\n      tag_129\n        /* \"contracts/supplier_bk.sol\":2505:2527  brandCounter.current() */\n      jump\t// in\n    tag_163:\n        /* \"contracts/supplier_bk.sol\":2481:2490  _brandIds */\n      0x05\n        /* \"contracts/supplier_bk.sol\":2481:2502  _brandIds[msg.sender] */\n      0x00\n        /* \"contracts/supplier_bk.sol\":2491:2501  msg.sender */\n      caller\n        /* \"contracts/supplier_bk.sol\":2481:2502  _brandIds[msg.sender] */\n      0xffffffffffffffffffffffffffffffffffffffff\n      and\n      0xffffffffffffffffffffffffffffffffffffffff\n      and\n      dup2\n      mstore\n      0x20\n      add\n      swap1\n      dup2\n      mstore\n      0x20\n      add\n      0x00\n      keccak256\n        /* \"contracts/supplier_bk.sol\":2481:2527  _brandIds[msg.sender] = brandCounter.current() */\n      dup2\n      swap1\n      sstore\n      pop\n        /* \"contracts/supplier_bk.sol\":2543:2568  BrandRegister(msg.sender) */\n      0x209609c310b4d084b32245525f311d83eeaa7ff210643c5efd625a8726f2fa40\n        /* \"contracts/supplier_bk.sol\":2557:2567  msg.sender */\n      caller\n        /* \"contracts/supplier_bk.sol\":2543:2568  BrandRegister(msg.sender) */\n      mload(0x40)\n      tag_164\n      swap2\n      swap1\n      tag_29\n      jump\t// in\n    tag_164:\n      mload(0x40)\n      dup1\n      swap2\n      sub\n      swap1\n      log1\n        /* \"contracts/supplier_bk.sol\":2093:2576  {... */\n      pop\n        /* \"contracts/supplier_bk.sol\":2061:2576  function brandRegister() public {... */\n      jump\t// out\n        /* \"contracts/supplier_bk.sol\":4308:5407  function enablePartner(address agentAddress) public payable nonReentrant {... */\n    tag_54:\n        /* \"@openzeppelin/contracts/security/ReentrancyGuard.sol\":2261:2282  _nonReentrantBefore() */\n      tag_166\n        /* \"@openzeppelin/contracts/security/ReentrancyGuard.sol\":2261:2280  _nonReentrantBefore */\n      tag_115\n        /* \"@openzeppelin/contracts/security/ReentrancyGuard.sol\":2261:2282  _nonReentrantBefore() */\n      jump\t// in\n    tag_166:\n        /* \"contracts/supplier_bk.sol\":4392:4412  address brandAddress */\n      0x00\n        /* \"contracts/supplier_bk.sol\":4415:4425  msg.sender */\n      caller\n        /* \"contracts/supplier_bk.sol\":4392:4425  address brandAddress = msg.sender */\n      swap1\n      pop\n        /* \"contracts/supplier_bk.sol\":4444:4455  _isVerified */\n      0x07\n        /* \"contracts/supplier_bk.sol\":4444:4469  _isVerified[brandAddress] */\n      0x00\n        /* \"contracts/supplier_bk.sol\":4456:4468  brandAddress */\n      dup3\n        /* \"contracts/supplier_bk.sol\":4444:4469  _isVerified[brandAddress] */\n      0xffffffffffffffffffffffffffffffffffffffff\n      and\n      0xffffffffffffffffffffffffffffffffffffffff\n      and\n      dup2\n      mstore\n      0x20\n      add\n      swap1\n      dup2\n      mstore\n      0x20\n      add\n      0x00\n      keccak256\n      0x00\n      swap1\n      sload\n      swap1\n      0x0100\n      exp\n      swap1\n      div\n      0xff\n      and\n        /* \"contracts/supplier_bk.sol\":4436:4493  require(_isVerified[brandAddress], \"Only verified brand\") */\n      tag_168\n      jumpi\n      mload(0x40)\n      0x08c379a000000000000000000000000000000000000000000000000000000000\n      dup2\n      mstore\n      0x04\n      add\n      tag_169\n      swap1\n      tag_170\n      jump\t// in\n    tag_169:\n      mload(0x40)\n      dup1\n      swap2\n      sub\n      swap1\n      revert\n    tag_168:\n        /* \"contracts/supplier_bk.sol\":4536:4537  0 */\n      0x00\n        /* \"contracts/supplier_bk.sol\":4512:4538  agentAddress != address(0) */\n      0xffffffffffffffffffffffffffffffffffffffff\n      and\n        /* \"contracts/supplier_bk.sol\":4512:4524  agentAddress */\n      dup3\n        /* \"contracts/supplier_bk.sol\":4512:4538  agentAddress != address(0) */\n      0xffffffffffffffffffffffffffffffffffffffff\n      and\n      sub\n        /* \"contracts/supplier_bk.sol\":4504:4564  require(agentAddress != address(0), \"Invalid agent address\") */\n      tag_171\n      jumpi\n      mload(0x40)\n      0x08c379a000000000000000000000000000000000000000000000000000000000\n      dup2\n      mstore\n      0x04\n      add\n      tag_172\n      swap1\n      tag_173\n      jump\t// in\n    tag_172:\n      mload(0x40)\n      dup1\n      swap2\n      sub\n      swap1\n      revert\n    tag_171:\n        /* \"contracts/supplier_bk.sol\":4584:4621  isPartner(brandAddress, agentAddress) */\n      tag_174\n        /* \"contracts/supplier_bk.sol\":4594:4606  brandAddress */\n      dup2\n        /* \"contracts/supplier_bk.sol\":4608:4620  agentAddress */\n      dup4\n        /* \"contracts/supplier_bk.sol\":4584:4593  isPartner */\n      tag_69\n        /* \"contracts/supplier_bk.sol\":4584:4621  isPartner(brandAddress, agentAddress) */\n      jump\t// in\n    tag_174:\n        /* \"contracts/supplier_bk.sol\":4583:4621  !isPartner(brandAddress, agentAddress) */\n      iszero\n        /* \"contracts/supplier_bk.sol\":4575:4652  require(!isPartner(brandAddress, agentAddress), \"Agent is already a partner\") */\n      tag_175\n      jumpi\n      mload(0x40)\n      0x08c379a000000000000000000000000000000000000000000000000000000000\n      dup2\n      mstore\n      0x04\n      add\n      tag_176\n      swap1\n      tag_177\n      jump\t// in\n    tag_176:\n      mload(0x40)\n      dup1\n      swap2\n      sub\n      swap1\n      revert\n    tag_175:\n        /* \"contracts/supplier_bk.sol\":4668:4684  uint256 brandFee */\n      0x00\n        /* \"contracts/supplier_bk.sol\":4690:4702  daoInterface */\n      0x02\n      0x00\n      swap1\n      sload\n      swap1\n      0x0100\n      exp\n      swap1\n      div\n      0xffffffffffffffffffffffffffffffffffffffff\n      and\n        /* \"contracts/supplier_bk.sol\":4690:4713  daoInterface.getFeeInfo */\n      0xffffffffffffffffffffffffffffffffffffffff\n      and\n      0x02eab7\n        /* \"contracts/supplier_bk.sol\":4690:4715  daoInterface.getFeeInfo() */\n      mload(0x40)\n      dup2\n      0xffffffff\n      and\n      0xe0\n      shl\n      dup2\n      mstore\n      0x04\n      add\n      0x80\n      mload(0x40)\n      dup1\n      dup4\n      sub\n      dup2\n      dup7\n      gas\n      staticcall\n      iszero\n      dup1\n      iszero\n      tag_179\n      jumpi\n      returndatacopy(0x00, 0x00, returndatasize)\n      revert(0x00, returndatasize)\n    tag_179:\n      pop\n      pop\n      pop\n      pop\n      mload(0x40)\n      returndatasize\n      not(0x1f)\n      0x1f\n      dup3\n      add\n      and\n      dup3\n      add\n      dup1\n      0x40\n      mstore\n      pop\n      dup2\n      add\n      swap1\n      tag_180\n      swap2\n      swap1\n      tag_124\n      jump\t// in\n    tag_180:\n        /* \"contracts/supplier_bk.sol\":4663:4715  (, , uint256 brandFee, ) = daoInterface.getFeeInfo() */\n      pop\n      swap3\n      pop\n      pop\n      pop\n        /* \"contracts/supplier_bk.sol\":4738:4780  _partnerCounters[brandAddress].increment() */\n      tag_181\n        /* \"contracts/supplier_bk.sol\":4738:4754  _partnerCounters */\n      0x0b\n        /* \"contracts/supplier_bk.sol\":4738:4768  _partnerCounters[brandAddress] */\n      0x00\n        /* \"contracts/supplier_bk.sol\":4755:4767  brandAddress */\n      dup5\n        /* \"contracts/supplier_bk.sol\":4738:4768  _partnerCounters[brandAddress] */\n      0xffffffffffffffffffffffffffffffffffffffff\n      and\n      0xffffffffffffffffffffffffffffffffffffffff\n      and\n      dup2\n      mstore\n      0x20\n      add\n      swap1\n      dup2\n      mstore\n      0x20\n      add\n      0x00\n      keccak256\n        /* \"contracts/supplier_bk.sol\":4738:4778  _partnerCounters[brandAddress].increment */\n      tag_161\n        /* \"contracts/supplier_bk.sol\":4738:4780  _partnerCounters[brandAddress].increment() */\n      jump\t// in\n    tag_181:\n        /* \"contracts/supplier_bk.sol\":4859:4871  agentAddress */\n      dup3\n        /* \"contracts/supplier_bk.sol\":4791:4800  _partners */\n      0x09\n        /* \"contracts/supplier_bk.sol\":4791:4814  _partners[brandAddress] */\n      0x00\n        /* \"contracts/supplier_bk.sol\":4801:4813  brandAddress */\n      dup5\n        /* \"contracts/supplier_bk.sol\":4791:4814  _partners[brandAddress] */\n      0xffffffffffffffffffffffffffffffffffffffff\n      and\n      0xffffffffffffffffffffffffffffffffffffffff\n      and\n      dup2\n      mstore\n      0x20\n      add\n      swap1\n      dup2\n      mstore\n      0x20\n      add\n      0x00\n      keccak256\n        /* \"contracts/supplier_bk.sol\":4791:4856  _partners[brandAddress][_partnerCounters[brandAddress].current()] */\n      0x00\n        /* \"contracts/supplier_bk.sol\":4815:4855  _partnerCounters[brandAddress].current() */\n      tag_182\n        /* \"contracts/supplier_bk.sol\":4815:4831  _partnerCounters */\n      0x0b\n        /* \"contracts/supplier_bk.sol\":4815:4845  _partnerCounters[brandAddress] */\n      0x00\n        /* \"contracts/supplier_bk.sol\":4832:4844  brandAddress */\n      dup8\n        /* \"contracts/supplier_bk.sol\":4815:4845  _partnerCounters[brandAddress] */\n      0xffffffffffffffffffffffffffffffffffffffff\n      and\n      0xffffffffffffffffffffffffffffffffffffffff\n      and\n      dup2\n      mstore\n      0x20\n      add\n      swap1\n      dup2\n      mstore\n      0x20\n      add\n      0x00\n      keccak256\n        /* \"contracts/supplier_bk.sol\":4815:4853  _partnerCounters[brandAddress].current */\n      tag_129\n        /* \"contracts/supplier_bk.sol\":4815:4855  _partnerCounters[brandAddress].current() */\n      jump\t// in\n    tag_182:\n        /* \"contracts/supplier_bk.sol\":4791:4856  _partners[brandAddress][_partnerCounters[brandAddress].current()] */\n      dup2\n      mstore\n      0x20\n      add\n      swap1\n      dup2\n      mstore\n      0x20\n      add\n      0x00\n      keccak256\n      0x00\n        /* \"contracts/supplier_bk.sol\":4791:4871  _partners[brandAddress][_partnerCounters[brandAddress].current()] = agentAddress */\n      0x0100\n      exp\n      dup2\n      sload\n      dup2\n      0xffffffffffffffffffffffffffffffffffffffff\n      mul\n      not\n      and\n      swap1\n      dup4\n      0xffffffffffffffffffffffffffffffffffffffff\n      and\n      mul\n      or\n      swap1\n      sstore\n      pop\n        /* \"contracts/supplier_bk.sol\":4924:4964  _partnerCounters[brandAddress].current() */\n      tag_183\n        /* \"contracts/supplier_bk.sol\":4924:4940  _partnerCounters */\n      0x0b\n        /* \"contracts/supplier_bk.sol\":4924:4954  _partnerCounters[brandAddress] */\n      0x00\n        /* \"contracts/supplier_bk.sol\":4941:4953  brandAddress */\n      dup5\n        /* \"contracts/supplier_bk.sol\":4924:4954  _partnerCounters[brandAddress] */\n      0xffffffffffffffffffffffffffffffffffffffff\n      and\n      0xffffffffffffffffffffffffffffffffffffffff\n      and\n      dup2\n      mstore\n      0x20\n      add\n      swap1\n      dup2\n      mstore\n      0x20\n      add\n      0x00\n      keccak256\n        /* \"contracts/supplier_bk.sol\":4924:4962  _partnerCounters[brandAddress].current */\n      tag_129\n        /* \"contracts/supplier_bk.sol\":4924:4964  _partnerCounters[brandAddress].current() */\n      jump\t// in\n    tag_183:\n        /* \"contracts/supplier_bk.sol\":4882:4893  _partnerIds */\n      0x0a\n        /* \"contracts/supplier_bk.sol\":4882:4907  _partnerIds[brandAddress] */\n      0x00\n        /* \"contracts/supplier_bk.sol\":4894:4906  brandAddress */\n      dup5\n        /* \"contracts/supplier_bk.sol\":4882:4907  _partnerIds[brandAddress] */\n      0xffffffffffffffffffffffffffffffffffffffff\n      and\n      0xffffffffffffffffffffffffffffffffffffffff\n      and\n      dup2\n      mstore\n      0x20\n      add\n      swap1\n      dup2\n      mstore\n      0x20\n      add\n      0x00\n      keccak256\n        /* \"contracts/supplier_bk.sol\":4882:4921  _partnerIds[brandAddress][agentAddress] */\n      0x00\n        /* \"contracts/supplier_bk.sol\":4908:4920  agentAddress */\n      dup6\n        /* \"contracts/supplier_bk.sol\":4882:4921  _partnerIds[brandAddress][agentAddress] */\n      0xffffffffffffffffffffffffffffffffffffffff\n      and\n      0xffffffffffffffffffffffffffffffffffffffff\n      and\n      dup2\n      mstore\n      0x20\n      add\n      swap1\n      dup2\n      mstore\n      0x20\n      add\n      0x00\n      keccak256\n        /* \"contracts/supplier_bk.sol\":4882:4964  _partnerIds[brandAddress][agentAddress] = _partnerCounters[brandAddress].current() */\n      dup2\n      swap1\n      sstore\n      pop\n        /* \"contracts/supplier_bk.sol\":5006:5014  brandFee */\n      dup1\n        /* \"contracts/supplier_bk.sol\":4993:5002  msg.value */\n      callvalue\n        /* \"contracts/supplier_bk.sol\":4993:5014  msg.value >= brandFee */\n      lt\n      iszero\n        /* \"contracts/supplier_bk.sol\":4985:5037  require(msg.value >= brandFee, \"Fee is not enough.\") */\n      tag_184\n      jumpi\n      mload(0x40)\n      0x08c379a000000000000000000000000000000000000000000000000000000000\n      dup2\n      mstore\n      0x04\n      add\n      tag_185\n      swap1\n      tag_127\n      jump\t// in\n    tag_185:\n      mload(0x40)\n      dup1\n      swap2\n      sub\n      swap1\n      revert\n    tag_184:\n        /* \"contracts/supplier_bk.sol\":5064:5072  brandFee */\n      dup1\n        /* \"contracts/supplier_bk.sol\":5052:5061  msg.value */\n      callvalue\n        /* \"contracts/supplier_bk.sol\":5052:5072  msg.value > brandFee */\n      gt\n        /* \"contracts/supplier_bk.sol\":5048:5216  if (msg.value > brandFee) {... */\n      iszero\n      tag_186\n      jumpi\n        /* \"contracts/supplier_bk.sol\":5090:5102  bool success */\n      0x00\n        /* \"contracts/supplier_bk.sol\":5108:5118  msg.sender */\n      caller\n        /* \"contracts/supplier_bk.sol\":5108:5123  msg.sender.call */\n      0xffffffffffffffffffffffffffffffffffffffff\n      and\n        /* \"contracts/supplier_bk.sol\":5143:5151  brandFee */\n      dup3\n        /* \"contracts/supplier_bk.sol\":5131:5140  msg.value */\n      callvalue\n        /* \"contracts/supplier_bk.sol\":5131:5151  msg.value - brandFee */\n      tag_187\n      swap2\n      swap1\n      tag_188\n      jump\t// in\n    tag_187:\n        /* \"contracts/supplier_bk.sol\":5108:5156  msg.sender.call{value: msg.value - brandFee}(\"\") */\n      mload(0x40)\n      tag_189\n      swap1\n      tag_190\n      jump\t// in\n    tag_189:\n      0x00\n      mload(0x40)\n      dup1\n      dup4\n      sub\n      dup2\n      dup6\n      dup8\n      gas\n      call\n      swap3\n      pop\n      pop\n      pop\n      returndatasize\n      dup1\n      0x00\n      dup2\n      eq\n      tag_193\n      jumpi\n      mload(0x40)\n      swap2\n      pop\n      and(add(returndatasize, 0x3f), not(0x1f))\n      dup3\n      add\n      0x40\n      mstore\n      returndatasize\n      dup3\n      mstore\n      returndatasize\n      0x00\n      0x20\n      dup5\n      add\n      returndatacopy\n      jump(tag_192)\n    tag_193:\n      0x60\n      swap2\n      pop\n    tag_192:\n      pop\n        /* \"contracts/supplier_bk.sol\":5089:5156  (bool success, ) = msg.sender.call{value: msg.value - brandFee}(\"\") */\n      pop\n      swap1\n      pop\n        /* \"contracts/supplier_bk.sol\":5179:5186  success */\n      dup1\n        /* \"contracts/supplier_bk.sol\":5171:5204  require(success, \"Refund failed\") */\n      tag_194\n      jumpi\n      mload(0x40)\n      0x08c379a000000000000000000000000000000000000000000000000000000000\n      dup2\n      mstore\n      0x04\n      add\n      tag_195\n      swap1\n      tag_196\n      jump\t// in\n    tag_195:\n      mload(0x40)\n      dup1\n      swap2\n      sub\n      swap1\n      revert\n    tag_194:\n        /* \"contracts/supplier_bk.sol\":5074:5216  {... */\n      pop\n        /* \"contracts/supplier_bk.sol\":5048:5216  if (msg.value > brandFee) {... */\n    tag_186:\n        /* \"contracts/supplier_bk.sol\":5227:5242  bool successDao */\n      0x00\n        /* \"contracts/supplier_bk.sol\":5248:5259  _daoAddress */\n      0x01\n      0x00\n      swap1\n      sload\n      swap1\n      0x0100\n      exp\n      swap1\n      div\n      0xffffffffffffffffffffffffffffffffffffffff\n      and\n        /* \"contracts/supplier_bk.sol\":5248:5264  _daoAddress.call */\n      0xffffffffffffffffffffffffffffffffffffffff\n      and\n        /* \"contracts/supplier_bk.sol\":5272:5280  brandFee */\n      dup3\n        /* \"contracts/supplier_bk.sol\":5248:5285  _daoAddress.call{value: brandFee}(\"\") */\n      mload(0x40)\n      tag_197\n      swap1\n      tag_190\n      jump\t// in\n    tag_197:\n      0x00\n      mload(0x40)\n      dup1\n      dup4\n      sub\n      dup2\n      dup6\n      dup8\n      gas\n      call\n      swap3\n      pop\n      pop\n      pop\n      returndatasize\n      dup1\n      0x00\n      dup2\n      eq\n      tag_200\n      jumpi\n      mload(0x40)\n      swap2\n      pop\n      and(add(returndatasize, 0x3f), not(0x1f))\n      dup3\n      add\n      0x40\n      mstore\n      returndatasize\n      dup3\n      mstore\n      returndatasize\n      0x00\n      0x20\n      dup5\n      add\n      returndatacopy\n      jump(tag_199)\n    tag_200:\n      0x60\n      swap2\n      pop\n    tag_199:\n      pop\n        /* \"contracts/supplier_bk.sol\":5226:5285  (bool successDao, ) = _daoAddress.call{value: brandFee}(\"\") */\n      pop\n      swap1\n      pop\n        /* \"contracts/supplier_bk.sol\":5304:5314  successDao */\n      dup1\n        /* \"contracts/supplier_bk.sol\":5296:5341  require(successDao, \"Transfer to DAO failed\") */\n      tag_201\n      jumpi\n      mload(0x40)\n      0x08c379a000000000000000000000000000000000000000000000000000000000\n      dup2\n      mstore\n      0x04\n      add\n      tag_202\n      swap1\n      tag_203\n      jump\t// in\n    tag_202:\n      mload(0x40)\n      dup1\n      swap2\n      sub\n      swap1\n      revert\n    tag_201:\n        /* \"contracts/supplier_bk.sol\":5386:5398  agentAddress */\n      dup4\n        /* \"contracts/supplier_bk.sol\":5357:5399  PartnerEnabled(brandAddress, agentAddress) */\n      0xffffffffffffffffffffffffffffffffffffffff\n      and\n        /* \"contracts/supplier_bk.sol\":5372:5384  brandAddress */\n      dup4\n        /* \"contracts/supplier_bk.sol\":5357:5399  PartnerEnabled(brandAddress, agentAddress) */\n      0xffffffffffffffffffffffffffffffffffffffff\n      and\n      0xd8992b24803669ffd1d156b9eadb0a7da92032a46b0708bcc3a4f60022a726df\n      mload(0x40)\n      mload(0x40)\n      dup1\n      swap2\n      sub\n      swap1\n      log3\n        /* \"contracts/supplier_bk.sol\":4381:5407  {... */\n      pop\n      pop\n      pop\n        /* \"@openzeppelin/contracts/security/ReentrancyGuard.sol\":2303:2323  _nonReentrantAfter() */\n      tag_204\n        /* \"@openzeppelin/contracts/security/ReentrancyGuard.sol\":2303:2321  _nonReentrantAfter */\n      tag_142\n        /* \"@openzeppelin/contracts/security/ReentrancyGuard.sol\":2303:2323  _nonReentrantAfter() */\n      jump\t// in\n    tag_204:\n        /* \"contracts/supplier_bk.sol\":4308:5407  function enablePartner(address agentAddress) public payable nonReentrant {... */\n      pop\n      jump\t// out\n        /* \"contracts/supplier_bk.sol\":3715:4075  function unVerifyBrand(address brandAddress) public onlyReviewer {... */\n    tag_58:\n        /* \"contracts/supplier_bk.sol\":8159:8171  daoInterface */\n      0x02\n      0x00\n      swap1\n      sload\n      swap1\n      0x0100\n      exp\n      swap1\n      div\n      0xffffffffffffffffffffffffffffffffffffffff\n      and\n        /* \"contracts/supplier_bk.sol\":8159:8182  daoInterface.isReviewer */\n      0xffffffffffffffffffffffffffffffffffffffff\n      and\n      0xfdc6258a\n        /* \"contracts/supplier_bk.sol\":8183:8193  msg.sender */\n      caller\n        /* \"contracts/supplier_bk.sol\":8159:8194  daoInterface.isReviewer(msg.sender) */\n      mload(0x40)\n      dup3\n      0xffffffff\n      and\n      0xe0\n      shl\n      dup2\n      mstore\n      0x04\n      add\n      tag_206\n      swap2\n      swap1\n      tag_29\n      jump\t// in\n    tag_206:\n      0x20\n      mload(0x40)\n      dup1\n      dup4\n      sub\n      dup2\n      dup7\n      gas\n      staticcall\n      iszero\n      dup1\n      iszero\n      tag_208\n      jumpi\n      returndatacopy(0x00, 0x00, returndatasize)\n      revert(0x00, returndatasize)\n    tag_208:\n      pop\n      pop\n      pop\n      pop\n      mload(0x40)\n      returndatasize\n      not(0x1f)\n      0x1f\n      dup3\n      add\n      and\n      dup3\n      add\n      dup1\n      0x40\n      mstore\n      pop\n      dup2\n      add\n      swap1\n      tag_209\n      swap2\n      swap1\n      tag_210\n      jump\t// in\n    tag_209:\n        /* \"contracts/supplier_bk.sol\":8151:8212  require(daoInterface.isReviewer(msg.sender), \"Only reviewer\") */\n      tag_211\n      jumpi\n      mload(0x40)\n      0x08c379a000000000000000000000000000000000000000000000000000000000\n      dup2\n      mstore\n      0x04\n      add\n      tag_212\n      swap1\n      tag_213\n      jump\t// in\n    tag_212:\n      mload(0x40)\n      dup1\n      swap2\n      sub\n      swap1\n      revert\n    tag_211:\n        /* \"contracts/supplier_bk.sol\":3791:3807  address operator */\n      0x00\n        /* \"contracts/supplier_bk.sol\":3810:3822  daoInterface */\n      0x02\n      0x00\n      swap1\n      sload\n      swap1\n      0x0100\n      exp\n      swap1\n      div\n      0xffffffffffffffffffffffffffffffffffffffff\n      and\n        /* \"contracts/supplier_bk.sol\":3810:3831  daoInterface.operator */\n      0xffffffffffffffffffffffffffffffffffffffff\n      and\n      0x570ca735\n        /* \"contracts/supplier_bk.sol\":3810:3833  daoInterface.operator() */\n      mload(0x40)\n      dup2\n      0xffffffff\n      and\n      0xe0\n      shl\n      dup2\n      mstore\n      0x04\n      add\n      0x20\n      mload(0x40)\n      dup1\n      dup4\n      sub\n      dup2\n      dup7\n      gas\n      staticcall\n      iszero\n      dup1\n      iszero\n      tag_216\n      jumpi\n      returndatacopy(0x00, 0x00, returndatasize)\n      revert(0x00, returndatasize)\n    tag_216:\n      pop\n      pop\n      pop\n      pop\n      mload(0x40)\n      returndatasize\n      not(0x1f)\n      0x1f\n      dup3\n      add\n      and\n      dup3\n      add\n      dup1\n      0x40\n      mstore\n      pop\n      dup2\n      add\n      swap1\n      tag_217\n      swap2\n      swap1\n      tag_218\n      jump\t// in\n    tag_217:\n        /* \"contracts/supplier_bk.sol\":3791:3833  address operator = daoInterface.operator() */\n      swap1\n      pop\n        /* \"contracts/supplier_bk.sol\":3879:3889  msg.sender */\n      caller\n        /* \"contracts/supplier_bk.sol\":3852:3889  _verifier[brandAddress] == msg.sender */\n      0xffffffffffffffffffffffffffffffffffffffff\n      and\n        /* \"contracts/supplier_bk.sol\":3852:3861  _verifier */\n      0x08\n        /* \"contracts/supplier_bk.sol\":3852:3875  _verifier[brandAddress] */\n      0x00\n        /* \"contracts/supplier_bk.sol\":3862:3874  brandAddress */\n      dup5\n        /* \"contracts/supplier_bk.sol\":3852:3875  _verifier[brandAddress] */\n      0xffffffffffffffffffffffffffffffffffffffff\n      and\n      0xffffffffffffffffffffffffffffffffffffffff\n      and\n      dup2\n      mstore\n      0x20\n      add\n      swap1\n      dup2\n      mstore\n      0x20\n      add\n      0x00\n      keccak256\n      0x00\n      swap1\n      sload\n      swap1\n      0x0100\n      exp\n      swap1\n      div\n      0xffffffffffffffffffffffffffffffffffffffff\n      and\n        /* \"contracts/supplier_bk.sol\":3852:3889  _verifier[brandAddress] == msg.sender */\n      0xffffffffffffffffffffffffffffffffffffffff\n      and\n      eq\n        /* \"contracts/supplier_bk.sol\":3852:3915  _verifier[brandAddress] == msg.sender || operator == msg.sender */\n      dup1\n      tag_219\n      jumpi\n      pop\n        /* \"contracts/supplier_bk.sol\":3905:3915  msg.sender */\n      caller\n        /* \"contracts/supplier_bk.sol\":3893:3915  operator == msg.sender */\n      0xffffffffffffffffffffffffffffffffffffffff\n      and\n        /* \"contracts/supplier_bk.sol\":3893:3901  operator */\n      dup2\n        /* \"contracts/supplier_bk.sol\":3893:3915  operator == msg.sender */\n      0xffffffffffffffffffffffffffffffffffffffff\n      and\n      eq\n        /* \"contracts/supplier_bk.sol\":3852:3915  _verifier[brandAddress] == msg.sender || operator == msg.sender */\n    tag_219:\n        /* \"contracts/supplier_bk.sol\":3844:3936  require(_verifier[brandAddress] == msg.sender || operator == msg.sender, \"Invalid verifier\") */\n      tag_220\n      jumpi\n      mload(0x40)\n      0x08c379a000000000000000000000000000000000000000000000000000000000\n      dup2\n      mstore\n      0x04\n      add\n      tag_221\n      swap1\n      tag_222\n      jump\t// in\n    tag_221:\n      mload(0x40)\n      dup1\n      swap2\n      sub\n      swap1\n      revert\n    tag_220:\n        /* \"contracts/supplier_bk.sol\":3975:3980  false */\n      0x00\n        /* \"contracts/supplier_bk.sol\":3947:3958  _isVerified */\n      0x07\n        /* \"contracts/supplier_bk.sol\":3947:3972  _isVerified[brandAddress] */\n      0x00\n        /* \"contracts/supplier_bk.sol\":3959:3971  brandAddress */\n      dup5\n        /* \"contracts/supplier_bk.sol\":3947:3972  _isVerified[brandAddress] */\n      0xffffffffffffffffffffffffffffffffffffffff\n      and\n      0xffffffffffffffffffffffffffffffffffffffff\n      and\n      dup2\n      mstore\n      0x20\n      add\n      swap1\n      dup2\n      mstore\n      0x20\n      add\n      0x00\n      keccak256\n      0x00\n        /* \"contracts/supplier_bk.sol\":3947:3980  _isVerified[brandAddress] = false */\n      0x0100\n      exp\n      dup2\n      sload\n      dup2\n      0xff\n      mul\n      not\n      and\n      swap1\n      dup4\n      iszero\n      iszero\n      mul\n      or\n      swap1\n      sstore\n      pop\n        /* \"contracts/supplier_bk.sol\":3998:4007  _verifier */\n      0x08\n        /* \"contracts/supplier_bk.sol\":3998:4021  _verifier[brandAddress] */\n      0x00\n        /* \"contracts/supplier_bk.sol\":4008:4020  brandAddress */\n      dup4\n        /* \"contracts/supplier_bk.sol\":3998:4021  _verifier[brandAddress] */\n      0xffffffffffffffffffffffffffffffffffffffff\n      and\n      0xffffffffffffffffffffffffffffffffffffffff\n      and\n      dup2\n      mstore\n      0x20\n      add\n      swap1\n      dup2\n      mstore\n      0x20\n      add\n      0x00\n      keccak256\n      0x00\n        /* \"contracts/supplier_bk.sol\":3991:4021  delete _verifier[brandAddress] */\n      0x0100\n      exp\n      dup2\n      sload\n      swap1\n      0xffffffffffffffffffffffffffffffffffffffff\n      mul\n      not\n      and\n      swap1\n      sstore\n        /* \"contracts/supplier_bk.sol\":4054:4066  brandAddress */\n      dup2\n        /* \"contracts/supplier_bk.sol\":4038:4067  BrandUnVerified(brandAddress) */\n      0xffffffffffffffffffffffffffffffffffffffff\n      and\n      0xa4099d5ee8509055e59f9f724d33f27f8d2da9294e7d7c23a2cc37dd1af4254c\n      mload(0x40)\n      mload(0x40)\n      dup1\n      swap2\n      sub\n      swap1\n      log2\n        /* \"contracts/supplier_bk.sol\":3780:4075  {... */\n      pop\n        /* \"contracts/supplier_bk.sol\":3715:4075  function unVerifyBrand(address brandAddress) public onlyReviewer {... */\n      pop\n      jump\t// out\n        /* \"contracts/supplier_bk.sol\":7001:7112  function getBrandAddress (uint256 index) public view returns (address) {... */\n    tag_63:\n        /* \"contracts/supplier_bk.sol\":7063:7070  address */\n      0x00\n        /* \"contracts/supplier_bk.sol\":7090:7097  _brands */\n      0x04\n        /* \"contracts/supplier_bk.sol\":7090:7104  _brands[index] */\n      0x00\n        /* \"contracts/supplier_bk.sol\":7098:7103  index */\n      dup4\n        /* \"contracts/supplier_bk.sol\":7090:7104  _brands[index] */\n      dup2\n      mstore\n      0x20\n      add\n      swap1\n      dup2\n      mstore\n      0x20\n      add\n      0x00\n      keccak256\n      0x00\n      swap1\n      sload\n      swap1\n      0x0100\n      exp\n      swap1\n      div\n      0xffffffffffffffffffffffffffffffffffffffff\n      and\n        /* \"contracts/supplier_bk.sol\":7083:7104  return _brands[index] */\n      swap1\n      pop\n        /* \"contracts/supplier_bk.sol\":7001:7112  function getBrandAddress (uint256 index) public view returns (address) {... */\n      swap2\n      swap1\n      pop\n      jump\t// out\n        /* \"contracts/supplier_bk.sol\":4083:4300  function isPartner(... */\n    tag_69:\n        /* \"contracts/supplier_bk.sol\":4192:4196  bool */\n      0x00\n        /* \"contracts/supplier_bk.sol\":4259:4260  0 */\n      0x00\n        /* \"contracts/supplier_bk.sol\":4216:4227  _partnerIds */\n      0x0a\n        /* \"contracts/supplier_bk.sol\":4216:4241  _partnerIds[brandAddress] */\n      0x00\n        /* \"contracts/supplier_bk.sol\":4228:4240  brandAddress */\n      dup6\n        /* \"contracts/supplier_bk.sol\":4216:4241  _partnerIds[brandAddress] */\n      0xffffffffffffffffffffffffffffffffffffffff\n      and\n      0xffffffffffffffffffffffffffffffffffffffff\n      and\n      dup2\n      mstore\n      0x20\n      add\n      swap1\n      dup2\n      mstore\n      0x20\n      add\n      0x00\n      keccak256\n        /* \"contracts/supplier_bk.sol\":4216:4255  _partnerIds[brandAddress][agentAddress] */\n      0x00\n        /* \"contracts/supplier_bk.sol\":4242:4254  agentAddress */\n      dup5\n        /* \"contracts/supplier_bk.sol\":4216:4255  _partnerIds[brandAddress][agentAddress] */\n      0xffffffffffffffffffffffffffffffffffffffff\n      and\n      0xffffffffffffffffffffffffffffffffffffffff\n      and\n      dup2\n      mstore\n      0x20\n      add\n      swap1\n      dup2\n      mstore\n      0x20\n      add\n      0x00\n      keccak256\n      sload\n        /* \"contracts/supplier_bk.sol\":4216:4260  _partnerIds[brandAddress][agentAddress] != 0 */\n      eq\n      iszero\n        /* \"contracts/supplier_bk.sol\":4216:4292  _partnerIds[brandAddress][agentAddress] != 0 || brandAddress == agentAddress */\n      dup1\n      tag_225\n      jumpi\n      pop\n        /* \"contracts/supplier_bk.sol\":4280:4292  agentAddress */\n      dup2\n        /* \"contracts/supplier_bk.sol\":4264:4292  brandAddress == agentAddress */\n      0xffffffffffffffffffffffffffffffffffffffff\n      and\n        /* \"contracts/supplier_bk.sol\":4264:4276  brandAddress */\n      dup4\n        /* \"contracts/supplier_bk.sol\":4264:4292  brandAddress == agentAddress */\n      0xffffffffffffffffffffffffffffffffffffffff\n      and\n      eq\n        /* \"contracts/supplier_bk.sol\":4216:4292  _partnerIds[brandAddress][agentAddress] != 0 || brandAddress == agentAddress */\n    tag_225:\n        /* \"contracts/supplier_bk.sol\":4209:4292  return _partnerIds[brandAddress][agentAddress] != 0 || brandAddress == agentAddress */\n      swap1\n      pop\n        /* \"contracts/supplier_bk.sol\":4083:4300  function isPartner(... */\n      swap3\n      swap2\n      pop\n      pop\n      jump\t// out\n        /* \"contracts/supplier_bk.sol\":7120:7245  function getBrandIndex (address brandAddress) public view returns (uint256) {... */\n    tag_74:\n        /* \"contracts/supplier_bk.sol\":7187:7194  uint256 */\n      0x00\n        /* \"contracts/supplier_bk.sol\":7214:7223  _brandIds */\n      0x05\n        /* \"contracts/supplier_bk.sol\":7214:7237  _brandIds[brandAddress] */\n      0x00\n        /* \"contracts/supplier_bk.sol\":7224:7236  brandAddress */\n      dup4\n        /* \"contracts/supplier_bk.sol\":7214:7237  _brandIds[brandAddress] */\n      0xffffffffffffffffffffffffffffffffffffffff\n      and\n      0xffffffffffffffffffffffffffffffffffffffff\n      and\n      dup2\n      mstore\n      0x20\n      add\n      swap1\n      dup2\n      mstore\n      0x20\n      add\n      0x00\n      keccak256\n      sload\n        /* \"contracts/supplier_bk.sol\":7207:7237  return _brandIds[brandAddress] */\n      swap1\n      pop\n        /* \"contracts/supplier_bk.sol\":7120:7245  function getBrandIndex (address brandAddress) public view returns (uint256) {... */\n      swap2\n      swap1\n      pop\n      jump\t// out\n        /* \"contracts/supplier_bk.sol\":7412:7579  function getPartnerIndex (address brandAddress, address sellerAddress) public view returns (uint256) {... */\n    tag_80:\n        /* \"contracts/supplier_bk.sol\":7504:7511  uint256 */\n      0x00\n        /* \"contracts/supplier_bk.sol\":7531:7542  _partnerIds */\n      0x0a\n        /* \"contracts/supplier_bk.sol\":7531:7556  _partnerIds[brandAddress] */\n      0x00\n        /* \"contracts/supplier_bk.sol\":7543:7555  brandAddress */\n      dup5\n        /* \"contracts/supplier_bk.sol\":7531:7556  _partnerIds[brandAddress] */\n      0xffffffffffffffffffffffffffffffffffffffff\n      and\n      0xffffffffffffffffffffffffffffffffffffffff\n      and\n      dup2\n      mstore\n      0x20\n      add\n      swap1\n      dup2\n      mstore\n      0x20\n      add\n      0x00\n      keccak256\n        /* \"contracts/supplier_bk.sol\":7531:7571  _partnerIds[brandAddress][sellerAddress] */\n      0x00\n        /* \"contracts/supplier_bk.sol\":7557:7570  sellerAddress */\n      dup4\n        /* \"contracts/supplier_bk.sol\":7531:7571  _partnerIds[brandAddress][sellerAddress] */\n      0xffffffffffffffffffffffffffffffffffffffff\n      and\n      0xffffffffffffffffffffffffffffffffffffffff\n      and\n      dup2\n      mstore\n      0x20\n      add\n      swap1\n      dup2\n      mstore\n      0x20\n      add\n      0x00\n      keccak256\n      sload\n        /* \"contracts/supplier_bk.sol\":7524:7571  return _partnerIds[brandAddress][sellerAddress] */\n      swap1\n      pop\n        /* \"contracts/supplier_bk.sol\":7412:7579  function getPartnerIndex (address brandAddress, address sellerAddress) public view returns (uint256) {... */\n      swap3\n      swap2\n      pop\n      pop\n      jump\t// out\n        /* \"contracts/supplier_bk.sol\":1032:1068  Counters.Counter public brandCounter */\n    tag_84:\n      0x06\n      dup1\n      0x00\n      add\n      sload\n      swap1\n      pop\n      dup2\n      jump\t// out\n        /* \"contracts/supplier_bk.sol\":2639:3352  function brandUnRegister() public {... */\n    tag_88:\n        /* \"contracts/supplier_bk.sol\":2717:2718  0 */\n      0x00\n        /* \"contracts/supplier_bk.sol\":2692:2701  _brandIds */\n      0x05\n        /* \"contracts/supplier_bk.sol\":2692:2713  _brandIds[msg.sender] */\n      0x00\n        /* \"contracts/supplier_bk.sol\":2702:2712  msg.sender */\n      caller\n        /* \"contracts/supplier_bk.sol\":2692:2713  _brandIds[msg.sender] */\n      0xffffffffffffffffffffffffffffffffffffffff\n      and\n      0xffffffffffffffffffffffffffffffffffffffff\n      and\n      dup2\n      mstore\n      0x20\n      add\n      swap1\n      dup2\n      mstore\n      0x20\n      add\n      0x00\n      keccak256\n      sload\n        /* \"contracts/supplier_bk.sol\":2692:2718  _brandIds[msg.sender] != 0 */\n      sub\n        /* \"contracts/supplier_bk.sol\":2684:2737  require(_brandIds[msg.sender] != 0, \"Not registered\") */\n      tag_229\n      jumpi\n      mload(0x40)\n      0x08c379a000000000000000000000000000000000000000000000000000000000\n      dup2\n      mstore\n      0x04\n      add\n      tag_230\n      swap1\n      tag_231\n      jump\t// in\n    tag_230:\n      mload(0x40)\n      dup1\n      swap2\n      sub\n      swap1\n      revert\n    tag_229:\n        /* \"contracts/supplier_bk.sol\":2748:2769  uint256 indexToRemove */\n      0x00\n        /* \"contracts/supplier_bk.sol\":2772:2781  _brandIds */\n      0x05\n        /* \"contracts/supplier_bk.sol\":2772:2793  _brandIds[msg.sender] */\n      0x00\n        /* \"contracts/supplier_bk.sol\":2782:2792  msg.sender */\n      caller\n        /* \"contracts/supplier_bk.sol\":2772:2793  _brandIds[msg.sender] */\n      0xffffffffffffffffffffffffffffffffffffffff\n      and\n      0xffffffffffffffffffffffffffffffffffffffff\n      and\n      dup2\n      mstore\n      0x20\n      add\n      swap1\n      dup2\n      mstore\n      0x20\n      add\n      0x00\n      keccak256\n      sload\n        /* \"contracts/supplier_bk.sol\":2748:2793  uint256 indexToRemove = _brandIds[msg.sender] */\n      swap1\n      pop\n        /* \"contracts/supplier_bk.sol\":2841:2858  uint256 lastIndex */\n      0x00\n        /* \"contracts/supplier_bk.sol\":2861:2883  brandCounter.current() */\n      tag_232\n        /* \"contracts/supplier_bk.sol\":2861:2873  brandCounter */\n      0x06\n        /* \"contracts/supplier_bk.sol\":2861:2881  brandCounter.current */\n      tag_129\n        /* \"contracts/supplier_bk.sol\":2861:2883  brandCounter.current() */\n      jump\t// in\n    tag_232:\n        /* \"contracts/supplier_bk.sol\":2841:2883  uint256 lastIndex = brandCounter.current() */\n      swap1\n      pop\n        /* \"contracts/supplier_bk.sol\":2940:2958  address lastItemId */\n      0x00\n        /* \"contracts/supplier_bk.sol\":2961:2968  _brands */\n      0x04\n        /* \"contracts/supplier_bk.sol\":2961:2979  _brands[lastIndex] */\n      0x00\n        /* \"contracts/supplier_bk.sol\":2969:2978  lastIndex */\n      dup4\n        /* \"contracts/supplier_bk.sol\":2961:2979  _brands[lastIndex] */\n      dup2\n      mstore\n      0x20\n      add\n      swap1\n      dup2\n      mstore\n      0x20\n      add\n      0x00\n      keccak256\n      0x00\n      swap1\n      sload\n      swap1\n      0x0100\n      exp\n      swap1\n      div\n      0xffffffffffffffffffffffffffffffffffffffff\n      and\n        /* \"contracts/supplier_bk.sol\":2940:2979  address lastItemId = _brands[lastIndex] */\n      swap1\n      pop\n        /* \"contracts/supplier_bk.sol\":3061:3070  lastIndex */\n      dup2\n        /* \"contracts/supplier_bk.sol\":3044:3057  indexToRemove */\n      dup4\n        /* \"contracts/supplier_bk.sol\":3044:3070  indexToRemove != lastIndex */\n      eq\n        /* \"contracts/supplier_bk.sol\":3040:3188  if (indexToRemove != lastIndex) { ... */\n      tag_233\n      jumpi\n        /* \"contracts/supplier_bk.sol\":3113:3123  lastItemId */\n      dup1\n        /* \"contracts/supplier_bk.sol\":3088:3095  _brands */\n      0x04\n        /* \"contracts/supplier_bk.sol\":3088:3110  _brands[indexToRemove] */\n      0x00\n        /* \"contracts/supplier_bk.sol\":3096:3109  indexToRemove */\n      dup6\n        /* \"contracts/supplier_bk.sol\":3088:3110  _brands[indexToRemove] */\n      dup2\n      mstore\n      0x20\n      add\n      swap1\n      dup2\n      mstore\n      0x20\n      add\n      0x00\n      keccak256\n      0x00\n        /* \"contracts/supplier_bk.sol\":3088:3123  _brands[indexToRemove] = lastItemId */\n      0x0100\n      exp\n      dup2\n      sload\n      dup2\n      0xffffffffffffffffffffffffffffffffffffffff\n      mul\n      not\n      and\n      swap1\n      dup4\n      0xffffffffffffffffffffffffffffffffffffffff\n      and\n      mul\n      or\n      swap1\n      sstore\n      pop\n        /* \"contracts/supplier_bk.sol\":3162:3175  indexToRemove */\n      dup3\n        /* \"contracts/supplier_bk.sol\":3138:3147  _brandIds */\n      0x05\n        /* \"contracts/supplier_bk.sol\":3138:3159  _brandIds[lastItemId] */\n      0x00\n        /* \"contracts/supplier_bk.sol\":3148:3158  lastItemId */\n      dup4\n        /* \"contracts/supplier_bk.sol\":3138:3159  _brandIds[lastItemId] */\n      0xffffffffffffffffffffffffffffffffffffffff\n      and\n      0xffffffffffffffffffffffffffffffffffffffff\n      and\n      dup2\n      mstore\n      0x20\n      add\n      swap1\n      dup2\n      mstore\n      0x20\n      add\n      0x00\n      keccak256\n        /* \"contracts/supplier_bk.sol\":3138:3175  _brandIds[lastItemId] = indexToRemove */\n      dup2\n      swap1\n      sstore\n      pop\n        /* \"contracts/supplier_bk.sol\":3040:3188  if (indexToRemove != lastIndex) { ... */\n    tag_233:\n        /* \"contracts/supplier_bk.sol\":3207:3214  _brands */\n      0x04\n        /* \"contracts/supplier_bk.sol\":3207:3225  _brands[lastIndex] */\n      0x00\n        /* \"contracts/supplier_bk.sol\":3215:3224  lastIndex */\n      dup4\n        /* \"contracts/supplier_bk.sol\":3207:3225  _brands[lastIndex] */\n      dup2\n      mstore\n      0x20\n      add\n      swap1\n      dup2\n      mstore\n      0x20\n      add\n      0x00\n      keccak256\n      0x00\n        /* \"contracts/supplier_bk.sol\":3200:3225  delete _brands[lastIndex] */\n      0x0100\n      exp\n      dup2\n      sload\n      swap1\n      0xffffffffffffffffffffffffffffffffffffffff\n      mul\n      not\n      and\n      swap1\n      sstore\n        /* \"contracts/supplier_bk.sol\":3244:3253  _brandIds */\n      0x05\n        /* \"contracts/supplier_bk.sol\":3244:3265  _brandIds[msg.sender] */\n      0x00\n        /* \"contracts/supplier_bk.sol\":3254:3264  msg.sender */\n      caller\n        /* \"contracts/supplier_bk.sol\":3244:3265  _brandIds[msg.sender] */\n      0xffffffffffffffffffffffffffffffffffffffff\n      and\n      0xffffffffffffffffffffffffffffffffffffffff\n      and\n      dup2\n      mstore\n      0x20\n      add\n      swap1\n      dup2\n      mstore\n      0x20\n      add\n      0x00\n      keccak256\n        /* \"contracts/supplier_bk.sol\":3237:3265  delete _brandIds[msg.sender] */\n      0x00\n      swap1\n      sstore\n        /* \"contracts/supplier_bk.sol\":3277:3301  brandCounter.decrement() */\n      tag_234\n        /* \"contracts/supplier_bk.sol\":3277:3289  brandCounter */\n      0x06\n        /* \"contracts/supplier_bk.sol\":3277:3299  brandCounter.decrement */\n      tag_132\n        /* \"contracts/supplier_bk.sol\":3277:3301  brandCounter.decrement() */\n      jump\t// in\n    tag_234:\n        /* \"contracts/supplier_bk.sol\":3317:3344  BrandUnRegister(msg.sender) */\n      0x83523888164df1212dc7b0e70a95cf164a8b36786c5a370bef8ea4e8e537820b\n        /* \"contracts/supplier_bk.sol\":3333:3343  msg.sender */\n      caller\n        /* \"contracts/supplier_bk.sol\":3317:3344  BrandUnRegister(msg.sender) */\n      mload(0x40)\n      tag_235\n      swap2\n      swap1\n      tag_29\n      jump\t// in\n    tag_235:\n      mload(0x40)\n      dup1\n      swap2\n      sub\n      swap1\n      log1\n        /* \"contracts/supplier_bk.sol\":2673:3352  {... */\n      pop\n      pop\n      pop\n        /* \"contracts/supplier_bk.sol\":2639:3352  function brandUnRegister() public {... */\n      jump\t// out\n        /* \"contracts/supplier_bk.sol\":7739:8108  function getBrandBatch(uint256[] calldata indexes) public view returns (address[] memory) ... */\n    tag_93:\n        /* \"contracts/supplier_bk.sol\":7811:7827  address[] memory */\n      0x60\n        /* \"contracts/supplier_bk.sol\":7846:7860  uint256 length */\n      0x00\n        /* \"contracts/supplier_bk.sol\":7863:7870  indexes */\n      dup4\n      dup4\n        /* \"contracts/supplier_bk.sol\":7863:7877  indexes.length */\n      swap1\n      pop\n        /* \"contracts/supplier_bk.sol\":7846:7877  uint256 length = indexes.length */\n      swap1\n      pop\n        /* \"contracts/supplier_bk.sol\":7888:7911  address[] memory brands */\n      0x00\n        /* \"contracts/supplier_bk.sol\":7928:7934  length */\n      dup2\n        /* \"contracts/supplier_bk.sol\":7914:7935  new address[](length) */\n      0xffffffffffffffff\n      dup2\n      gt\n      iszero\n      tag_237\n      jumpi\n      tag_238\n      tag_239\n      jump\t// in\n    tag_238:\n    tag_237:\n      mload(0x40)\n      swap1\n      dup1\n      dup3\n      mstore\n      dup1\n      0x20\n      mul\n      0x20\n      add\n      dup3\n      add\n      0x40\n      mstore\n      dup1\n      iszero\n      tag_240\n      jumpi\n      dup2\n      0x20\n      add\n      0x20\n      dup3\n      mul\n      dup1\n      calldatasize\n      dup4\n      calldatacopy\n      dup1\n      dup3\n      add\n      swap2\n      pop\n      pop\n      swap1\n      pop\n    tag_240:\n      pop\n        /* \"contracts/supplier_bk.sol\":7888:7935  address[] memory brands = new address[](length) */\n      swap1\n      pop\n        /* \"contracts/supplier_bk.sol\":7951:7960  uint256 i */\n      0x00\n        /* \"contracts/supplier_bk.sol\":7963:7964  0 */\n      0x00\n        /* \"contracts/supplier_bk.sol\":7951:7964  uint256 i = 0 */\n      swap1\n      pop\n        /* \"contracts/supplier_bk.sol\":7946:8077  for (uint256 i = 0; i < length; i++) {... */\n    tag_241:\n        /* \"contracts/supplier_bk.sol\":7970:7976  length */\n      dup3\n        /* \"contracts/supplier_bk.sol\":7966:7967  i */\n      dup2\n        /* \"contracts/supplier_bk.sol\":7966:7976  i < length */\n      lt\n        /* \"contracts/supplier_bk.sol\":7946:8077  for (uint256 i = 0; i < length; i++) {... */\n      iszero\n      tag_242\n      jumpi\n        /* \"contracts/supplier_bk.sol\":7998:8011  uint256 index */\n      0x00\n        /* \"contracts/supplier_bk.sol\":8014:8021  indexes */\n      dup7\n      dup7\n        /* \"contracts/supplier_bk.sol\":8022:8023  i */\n      dup4\n        /* \"contracts/supplier_bk.sol\":8014:8024  indexes[i] */\n      dup2\n      dup2\n      lt\n      tag_244\n      jumpi\n      tag_245\n      tag_246\n      jump\t// in\n    tag_245:\n    tag_244:\n      swap1\n      pop\n      0x20\n      mul\n      add\n      calldataload\n        /* \"contracts/supplier_bk.sol\":7998:8024  uint256 index = indexes[i] */\n      swap1\n      pop\n        /* \"contracts/supplier_bk.sol\":8051:8058  _brands */\n      0x04\n        /* \"contracts/supplier_bk.sol\":8051:8065  _brands[index] */\n      0x00\n        /* \"contracts/supplier_bk.sol\":8059:8064  index */\n      dup3\n        /* \"contracts/supplier_bk.sol\":8051:8065  _brands[index] */\n      dup2\n      mstore\n      0x20\n      add\n      swap1\n      dup2\n      mstore\n      0x20\n      add\n      0x00\n      keccak256\n      0x00\n      swap1\n      sload\n      swap1\n      0x0100\n      exp\n      swap1\n      div\n      0xffffffffffffffffffffffffffffffffffffffff\n      and\n        /* \"contracts/supplier_bk.sol\":8039:8045  brands */\n      dup4\n        /* \"contracts/supplier_bk.sol\":8046:8047  i */\n      dup4\n        /* \"contracts/supplier_bk.sol\":8039:8048  brands[i] */\n      dup2\n      mload\n      dup2\n      lt\n      tag_247\n      jumpi\n      tag_248\n      tag_246\n      jump\t// in\n    tag_248:\n    tag_247:\n      0x20\n      mul\n      0x20\n      add\n      add\n        /* \"contracts/supplier_bk.sol\":8039:8065  brands[i] = _brands[index] */\n      swap1\n      0xffffffffffffffffffffffffffffffffffffffff\n      and\n      swap1\n      dup2\n      0xffffffffffffffffffffffffffffffffffffffff\n      and\n      dup2\n      mstore\n      pop\n      pop\n        /* \"contracts/supplier_bk.sol\":7983:8077  {... */\n      pop\n        /* \"contracts/supplier_bk.sol\":7978:7981  i++ */\n      dup1\n      dup1\n      0x01\n      add\n      swap2\n      pop\n      pop\n        /* \"contracts/supplier_bk.sol\":7946:8077  for (uint256 i = 0; i < length; i++) {... */\n      jump(tag_241)\n    tag_242:\n      pop\n        /* \"contracts/supplier_bk.sol\":8094:8100  brands */\n      dup1\n        /* \"contracts/supplier_bk.sol\":8087:8100  return brands */\n      swap3\n      pop\n      pop\n      pop\n        /* \"contracts/supplier_bk.sol\":7739:8108  function getBrandBatch(uint256[] calldata indexes) public view returns (address[] memory) ... */\n      swap3\n      swap2\n      pop\n      pop\n      jump\t// out\n        /* \"contracts/supplier_bk.sol\":6637:6762  function isVerifiedBrand(address brandAddress) public view returns (bool) {... */\n    tag_99:\n        /* \"contracts/supplier_bk.sol\":6705:6709  bool */\n      0x00\n        /* \"contracts/supplier_bk.sol\":6729:6740  _isVerified */\n      0x07\n        /* \"contracts/supplier_bk.sol\":6729:6754  _isVerified[brandAddress] */\n      0x00\n        /* \"contracts/supplier_bk.sol\":6741:6753  brandAddress */\n      dup4\n        /* \"contracts/supplier_bk.sol\":6729:6754  _isVerified[brandAddress] */\n      0xffffffffffffffffffffffffffffffffffffffff\n      and\n      0xffffffffffffffffffffffffffffffffffffffff\n      and\n      dup2\n      mstore\n      0x20\n      add\n      swap1\n      dup2\n      mstore\n      0x20\n      add\n      0x00\n      keccak256\n      0x00\n      swap1\n      sload\n      swap1\n      0x0100\n      exp\n      swap1\n      div\n      0xff\n      and\n        /* \"contracts/supplier_bk.sol\":6722:6754  return _isVerified[brandAddress] */\n      swap1\n      pop\n        /* \"contracts/supplier_bk.sol\":6637:6762  function isVerifiedBrand(address brandAddress) public view returns (bool) {... */\n      swap2\n      swap1\n      pop\n      jump\t// out\n        /* \"contracts/supplier_bk.sol\":3360:3707  function verifyBrand(address brandAddress) public onlyReviewer {... */\n    tag_104:\n        /* \"contracts/supplier_bk.sol\":8159:8171  daoInterface */\n      0x02\n      0x00\n      swap1\n      sload\n      swap1\n      0x0100\n      exp\n      swap1\n      div\n      0xffffffffffffffffffffffffffffffffffffffff\n      and\n        /* \"contracts/supplier_bk.sol\":8159:8182  daoInterface.isReviewer */\n      0xffffffffffffffffffffffffffffffffffffffff\n      and\n      0xfdc6258a\n        /* \"contracts/supplier_bk.sol\":8183:8193  msg.sender */\n      caller\n        /* \"contracts/supplier_bk.sol\":8159:8194  daoInterface.isReviewer(msg.sender) */\n      mload(0x40)\n      dup3\n      0xffffffff\n      and\n      0xe0\n      shl\n      dup2\n      mstore\n      0x04\n      add\n      tag_251\n      swap2\n      swap1\n      tag_29\n      jump\t// in\n    tag_251:\n      0x20\n      mload(0x40)\n      dup1\n      dup4\n      sub\n      dup2\n      dup7\n      gas\n      staticcall\n      iszero\n      dup1\n      iszero\n      tag_253\n      jumpi\n      returndatacopy(0x00, 0x00, returndatasize)\n      revert(0x00, returndatasize)\n    tag_253:\n      pop\n      pop\n      pop\n      pop\n      mload(0x40)\n      returndatasize\n      not(0x1f)\n      0x1f\n      dup3\n      add\n      and\n      dup3\n      add\n      dup1\n      0x40\n      mstore\n      pop\n      dup2\n      add\n      swap1\n      tag_254\n      swap2\n      swap1\n      tag_210\n      jump\t// in\n    tag_254:\n        /* \"contracts/supplier_bk.sol\":8151:8212  require(daoInterface.isReviewer(msg.sender), \"Only reviewer\") */\n      tag_255\n      jumpi\n      mload(0x40)\n      0x08c379a000000000000000000000000000000000000000000000000000000000\n      dup2\n      mstore\n      0x04\n      add\n      tag_256\n      swap1\n      tag_213\n      jump\t// in\n    tag_256:\n      mload(0x40)\n      dup1\n      swap2\n      sub\n      swap1\n      revert\n    tag_255:\n        /* \"contracts/supplier_bk.sol\":3466:3467  0 */\n      0x00\n        /* \"contracts/supplier_bk.sol\":3442:3468  brandAddress != address(0) */\n      0xffffffffffffffffffffffffffffffffffffffff\n      and\n        /* \"contracts/supplier_bk.sol\":3442:3454  brandAddress */\n      dup2\n        /* \"contracts/supplier_bk.sol\":3442:3468  brandAddress != address(0) */\n      0xffffffffffffffffffffffffffffffffffffffff\n      and\n      sub\n        /* \"contracts/supplier_bk.sol\":3434:3494  require(brandAddress != address(0), \"Invalid brand address\") */\n      tag_258\n      jumpi\n      mload(0x40)\n      0x08c379a000000000000000000000000000000000000000000000000000000000\n      dup2\n      mstore\n      0x04\n      add\n      tag_259\n      swap1\n      tag_260\n      jump\t// in\n    tag_259:\n      mload(0x40)\n      dup1\n      swap2\n      sub\n      swap1\n      revert\n    tag_258:\n        /* \"contracts/supplier_bk.sol\":3540:3541  0 */\n      0x00\n        /* \"contracts/supplier_bk.sol\":3513:3522  _brandIds */\n      0x05\n        /* \"contracts/supplier_bk.sol\":3513:3536  _brandIds[brandAddress] */\n      0x00\n        /* \"contracts/supplier_bk.sol\":3523:3535  brandAddress */\n      dup4\n        /* \"contracts/supplier_bk.sol\":3513:3536  _brandIds[brandAddress] */\n      0xffffffffffffffffffffffffffffffffffffffff\n      and\n      0xffffffffffffffffffffffffffffffffffffffff\n      and\n      dup2\n      mstore\n      0x20\n      add\n      swap1\n      dup2\n      mstore\n      0x20\n      add\n      0x00\n      keccak256\n      sload\n        /* \"contracts/supplier_bk.sol\":3513:3541  _brandIds[brandAddress] != 0 */\n      sub\n        /* \"contracts/supplier_bk.sol\":3505:3566  require(_brandIds[brandAddress] != 0, \"Brand not registered\") */\n      tag_261\n      jumpi\n      mload(0x40)\n      0x08c379a000000000000000000000000000000000000000000000000000000000\n      dup2\n      mstore\n      0x04\n      add\n      tag_262\n      swap1\n      tag_263\n      jump\t// in\n    tag_262:\n      mload(0x40)\n      dup1\n      swap2\n      sub\n      swap1\n      revert\n    tag_261:\n        /* \"contracts/supplier_bk.sol\":3605:3609  true */\n      0x01\n        /* \"contracts/supplier_bk.sol\":3577:3588  _isVerified */\n      0x07\n        /* \"contracts/supplier_bk.sol\":3577:3602  _isVerified[brandAddress] */\n      0x00\n        /* \"contracts/supplier_bk.sol\":3589:3601  brandAddress */\n      dup4\n        /* \"contracts/supplier_bk.sol\":3577:3602  _isVerified[brandAddress] */\n      0xffffffffffffffffffffffffffffffffffffffff\n      and\n      0xffffffffffffffffffffffffffffffffffffffff\n      and\n      dup2\n      mstore\n      0x20\n      add\n      swap1\n      dup2\n      mstore\n      0x20\n      add\n      0x00\n      keccak256\n      0x00\n        /* \"contracts/supplier_bk.sol\":3577:3609  _isVerified[brandAddress] = true */\n      0x0100\n      exp\n      dup2\n      sload\n      dup2\n      0xff\n      mul\n      not\n      and\n      swap1\n      dup4\n      iszero\n      iszero\n      mul\n      or\n      swap1\n      sstore\n      pop\n        /* \"contracts/supplier_bk.sol\":3646:3656  msg.sender */\n      caller\n        /* \"contracts/supplier_bk.sol\":3620:3629  _verifier */\n      0x08\n        /* \"contracts/supplier_bk.sol\":3620:3643  _verifier[brandAddress] */\n      0x00\n        /* \"contracts/supplier_bk.sol\":3630:3642  brandAddress */\n      dup4\n        /* \"contracts/supplier_bk.sol\":3620:3643  _verifier[brandAddress] */\n      0xffffffffffffffffffffffffffffffffffffffff\n      and\n      0xffffffffffffffffffffffffffffffffffffffff\n      and\n      dup2\n      mstore\n      0x20\n      add\n      swap1\n      dup2\n      mstore\n      0x20\n      add\n      0x00\n      keccak256\n      0x00\n        /* \"contracts/supplier_bk.sol\":3620:3656  _verifier[brandAddress] = msg.sender */\n      0x0100\n      exp\n      dup2\n      sload\n      dup2\n      0xffffffffffffffffffffffffffffffffffffffff\n      mul\n      not\n      and\n      swap1\n      dup4\n      0xffffffffffffffffffffffffffffffffffffffff\n      and\n      mul\n      or\n      swap1\n      sstore\n      pop\n        /* \"contracts/supplier_bk.sol\":3686:3698  brandAddress */\n      dup1\n        /* \"contracts/supplier_bk.sol\":3672:3699  BrandVerified(brandAddress) */\n      0xffffffffffffffffffffffffffffffffffffffff\n      and\n      0x1c040312dae2a5129751252fe2bcbc8c80eafaff09af9be184e641cf8809682f\n      mload(0x40)\n      mload(0x40)\n      dup1\n      swap2\n      sub\n      swap1\n      log2\n        /* \"contracts/supplier_bk.sol\":3360:3707  function verifyBrand(address brandAddress) public onlyReviewer {... */\n      pop\n      jump\t// out\n        /* \"contracts/supplier_bk.sol\":7587:7731  function getPartnerCount (address brandAddress) public view returns (uint256) {... */\n    tag_108:\n        /* \"contracts/supplier_bk.sol\":7656:7663  uint256 */\n      0x00\n        /* \"contracts/supplier_bk.sol\":7683:7723  _partnerCounters[brandAddress].current() */\n      tag_265\n        /* \"contracts/supplier_bk.sol\":7683:7699  _partnerCounters */\n      0x0b\n        /* \"contracts/supplier_bk.sol\":7683:7713  _partnerCounters[brandAddress] */\n      0x00\n        /* \"contracts/supplier_bk.sol\":7700:7712  brandAddress */\n      dup5\n        /* \"contracts/supplier_bk.sol\":7683:7713  _partnerCounters[brandAddress] */\n      0xffffffffffffffffffffffffffffffffffffffff\n      and\n      0xffffffffffffffffffffffffffffffffffffffff\n      and\n      dup2\n      mstore\n      0x20\n      add\n      swap1\n      dup2\n      mstore\n      0x20\n      add\n      0x00\n      keccak256\n        /* \"contracts/supplier_bk.sol\":7683:7721  _partnerCounters[brandAddress].current */\n      tag_129\n        /* \"contracts/supplier_bk.sol\":7683:7723  _partnerCounters[brandAddress].current() */\n      jump\t// in\n    tag_265:\n        /* \"contracts/supplier_bk.sol\":7676:7723  return _partnerCounters[brandAddress].current() */\n      swap1\n      pop\n        /* \"contracts/supplier_bk.sol\":7587:7731  function getPartnerCount (address brandAddress) public view returns (uint256) {... */\n      swap2\n      swap1\n      pop\n      jump\t// out\n        /* \"@openzeppelin/contracts/security/ReentrancyGuard.sol\":2336:2623  function _nonReentrantBefore() private {... */\n    tag_115:\n        /* \"@openzeppelin/contracts/security/ReentrancyGuard.sol\":1759:1760  2 */\n      0x02\n        /* \"@openzeppelin/contracts/security/ReentrancyGuard.sol\":2468:2475  _status */\n      sload(0x00)\n        /* \"@openzeppelin/contracts/security/ReentrancyGuard.sol\":2468:2487  _status != _ENTERED */\n      sub\n        /* \"@openzeppelin/contracts/security/ReentrancyGuard.sol\":2460:2523  require(_status != _ENTERED, \"ReentrancyGuard: reentrant call\") */\n      tag_267\n      jumpi\n      mload(0x40)\n      0x08c379a000000000000000000000000000000000000000000000000000000000\n      dup2\n      mstore\n      0x04\n      add\n      tag_268\n      swap1\n      tag_269\n      jump\t// in\n    tag_268:\n      mload(0x40)\n      dup1\n      swap2\n      sub\n      swap1\n      revert\n    tag_267:\n        /* \"@openzeppelin/contracts/security/ReentrancyGuard.sol\":1759:1760  2 */\n      0x02\n        /* \"@openzeppelin/contracts/security/ReentrancyGuard.sol\":2598:2605  _status */\n      0x00\n        /* \"@openzeppelin/contracts/security/ReentrancyGuard.sol\":2598:2616  _status = _ENTERED */\n      dup2\n      swap1\n      sstore\n      pop\n        /* \"@openzeppelin/contracts/security/ReentrancyGuard.sol\":2336:2623  function _nonReentrantBefore() private {... */\n      jump\t// out\n        /* \"@openzeppelin/contracts/utils/Counters.sol\":827:939  function current(Counter storage counter) internal view returns (uint256) {... */\n    tag_129:\n        /* \"@openzeppelin/contracts/utils/Counters.sol\":892:899  uint256 */\n      0x00\n        /* \"@openzeppelin/contracts/utils/Counters.sol\":918:925  counter */\n      dup2\n        /* \"@openzeppelin/contracts/utils/Counters.sol\":918:932  counter._value */\n      0x00\n      add\n      sload\n        /* \"@openzeppelin/contracts/utils/Counters.sol\":911:932  return counter._value */\n      swap1\n      pop\n        /* \"@openzeppelin/contracts/utils/Counters.sol\":827:939  function current(Counter storage counter) internal view returns (uint256) {... */\n      swap2\n      swap1\n      pop\n      jump\t// out\n        /* \"@openzeppelin/contracts/utils/Counters.sol\":1074:1303  function decrement(Counter storage counter) internal {... */\n    tag_132:\n        /* \"@openzeppelin/contracts/utils/Counters.sol\":1137:1150  uint256 value */\n      0x00\n        /* \"@openzeppelin/contracts/utils/Counters.sol\":1153:1160  counter */\n      dup2\n        /* \"@openzeppelin/contracts/utils/Counters.sol\":1153:1167  counter._value */\n      0x00\n      add\n      sload\n        /* \"@openzeppelin/contracts/utils/Counters.sol\":1137:1167  uint256 value = counter._value */\n      swap1\n      pop\n        /* \"@openzeppelin/contracts/utils/Counters.sol\":1193:1194  0 */\n      0x00\n        /* \"@openzeppelin/contracts/utils/Counters.sol\":1185:1190  value */\n      dup2\n        /* \"@openzeppelin/contracts/utils/Counters.sol\":1185:1194  value > 0 */\n      gt\n        /* \"@openzeppelin/contracts/utils/Counters.sol\":1177:1226  require(value > 0, \"Counter: decrement overflow\") */\n      tag_272\n      jumpi\n      mload(0x40)\n      0x08c379a000000000000000000000000000000000000000000000000000000000\n      dup2\n      mstore\n      0x04\n      add\n      tag_273\n      swap1\n      tag_274\n      jump\t// in\n    tag_273:\n      mload(0x40)\n      dup1\n      swap2\n      sub\n      swap1\n      revert\n    tag_272:\n        /* \"@openzeppelin/contracts/utils/Counters.sol\":1285:1286  1 */\n      0x01\n        /* \"@openzeppelin/contracts/utils/Counters.sol\":1277:1282  value */\n      dup2\n        /* \"@openzeppelin/contracts/utils/Counters.sol\":1277:1286  value - 1 */\n      sub\n        /* \"@openzeppelin/contracts/utils/Counters.sol\":1260:1267  counter */\n      dup3\n        /* \"@openzeppelin/contracts/utils/Counters.sol\":1260:1274  counter._value */\n      0x00\n      add\n        /* \"@openzeppelin/contracts/utils/Counters.sol\":1260:1286  counter._value = value - 1 */\n      dup2\n      swap1\n      sstore\n      pop\n        /* \"@openzeppelin/contracts/utils/Counters.sol\":1127:1303  {... */\n      pop\n        /* \"@openzeppelin/contracts/utils/Counters.sol\":1074:1303  function decrement(Counter storage counter) internal {... */\n      pop\n      jump\t// out\n        /* \"@openzeppelin/contracts/security/ReentrancyGuard.sol\":2629:2838  function _nonReentrantAfter() private {... */\n    tag_142:\n        /* \"@openzeppelin/contracts/security/ReentrancyGuard.sol\":1716:1717  1 */\n      0x01\n        /* \"@openzeppelin/contracts/security/ReentrancyGuard.sol\":2809:2816  _status */\n      0x00\n        /* \"@openzeppelin/contracts/security/ReentrancyGuard.sol\":2809:2831  _status = _NOT_ENTERED */\n      dup2\n      swap1\n      sstore\n      pop\n        /* \"@openzeppelin/contracts/security/ReentrancyGuard.sol\":2629:2838  function _nonReentrantAfter() private {... */\n      jump\t// out\n        /* \"@openzeppelin/contracts/utils/Counters.sol\":945:1068  function increment(Counter storage counter) internal {... */\n    tag_161:\n        /* \"@openzeppelin/contracts/utils/Counters.sol\":1050:1051  1 */\n      0x01\n        /* \"@openzeppelin/contracts/utils/Counters.sol\":1032:1039  counter */\n      dup2\n        /* \"@openzeppelin/contracts/utils/Counters.sol\":1032:1046  counter._value */\n      0x00\n      add\n      0x00\n        /* \"@openzeppelin/contracts/utils/Counters.sol\":1032:1051  counter._value += 1 */\n      dup3\n      dup3\n      sload\n      add\n      swap3\n      pop\n      pop\n      dup2\n      swap1\n      sstore\n      pop\n        /* \"@openzeppelin/contracts/utils/Counters.sol\":945:1068  function increment(Counter storage counter) internal {... */\n      pop\n      jump\t// out\n        /* \"#utility.yul\":88:205   */\n    tag_278:\n        /* \"#utility.yul\":197:198   */\n      0x00\n        /* \"#utility.yul\":194:195   */\n      0x00\n        /* \"#utility.yul\":187:199   */\n      revert\n        /* \"#utility.yul\":211:328   */\n    tag_279:\n        /* \"#utility.yul\":320:321   */\n      0x00\n        /* \"#utility.yul\":317:318   */\n      0x00\n        /* \"#utility.yul\":310:322   */\n      revert\n        /* \"#utility.yul\":334:460   */\n    tag_280:\n        /* \"#utility.yul\":371:378   */\n      0x00\n        /* \"#utility.yul\":411:453   */\n      0xffffffffffffffffffffffffffffffffffffffff\n        /* \"#utility.yul\":404:409   */\n      dup3\n        /* \"#utility.yul\":400:454   */\n      and\n        /* \"#utility.yul\":389:454   */\n      swap1\n      pop\n        /* \"#utility.yul\":334:460   */\n      swap2\n      swap1\n      pop\n      jump\t// out\n        /* \"#utility.yul\":466:562   */\n    tag_281:\n        /* \"#utility.yul\":503:510   */\n      0x00\n        /* \"#utility.yul\":532:556   */\n      tag_353\n        /* \"#utility.yul\":550:555   */\n      dup3\n        /* \"#utility.yul\":532:556   */\n      tag_280\n      jump\t// in\n    tag_353:\n        /* \"#utility.yul\":521:556   */\n      swap1\n      pop\n        /* \"#utility.yul\":466:562   */\n      swap2\n      swap1\n      pop\n      jump\t// out\n        /* \"#utility.yul\":568:690   */\n    tag_282:\n        /* \"#utility.yul\":641:665   */\n      tag_355\n        /* \"#utility.yul\":659:664   */\n      dup2\n        /* \"#utility.yul\":641:665   */\n      tag_281\n      jump\t// in\n    tag_355:\n        /* \"#utility.yul\":634:639   */\n      dup2\n        /* \"#utility.yul\":631:666   */\n      eq\n        /* \"#utility.yul\":621:684   */\n      tag_356\n      jumpi\n        /* \"#utility.yul\":680:681   */\n      0x00\n        /* \"#utility.yul\":677:678   */\n      0x00\n        /* \"#utility.yul\":670:682   */\n      revert\n        /* \"#utility.yul\":621:684   */\n    tag_356:\n        /* \"#utility.yul\":568:690   */\n      pop\n      jump\t// out\n        /* \"#utility.yul\":696:835   */\n    tag_283:\n        /* \"#utility.yul\":742:747   */\n      0x00\n        /* \"#utility.yul\":780:786   */\n      dup2\n        /* \"#utility.yul\":767:787   */\n      calldataload\n        /* \"#utility.yul\":758:787   */\n      swap1\n      pop\n        /* \"#utility.yul\":796:829   */\n      tag_358\n        /* \"#utility.yul\":823:828   */\n      dup2\n        /* \"#utility.yul\":796:829   */\n      tag_282\n      jump\t// in\n    tag_358:\n        /* \"#utility.yul\":696:835   */\n      swap3\n      swap2\n      pop\n      pop\n      jump\t// out\n        /* \"#utility.yul\":841:918   */\n    tag_284:\n        /* \"#utility.yul\":878:885   */\n      0x00\n        /* \"#utility.yul\":907:912   */\n      dup2\n        /* \"#utility.yul\":896:912   */\n      swap1\n      pop\n        /* \"#utility.yul\":841:918   */\n      swap2\n      swap1\n      pop\n      jump\t// out\n        /* \"#utility.yul\":924:1046   */\n    tag_285:\n        /* \"#utility.yul\":997:1021   */\n      tag_361\n        /* \"#utility.yul\":1015:1020   */\n      dup2\n        /* \"#utility.yul\":997:1021   */\n      tag_284\n      jump\t// in\n    tag_361:\n        /* \"#utility.yul\":990:995   */\n      dup2\n        /* \"#utility.yul\":987:1022   */\n      eq\n        /* \"#utility.yul\":977:1040   */\n      tag_362\n      jumpi\n        /* \"#utility.yul\":1036:1037   */\n      0x00\n        /* \"#utility.yul\":1033:1034   */\n      0x00\n        /* \"#utility.yul\":1026:1038   */\n      revert\n        /* \"#utility.yul\":977:1040   */\n    tag_362:\n        /* \"#utility.yul\":924:1046   */\n      pop\n      jump\t// out\n        /* \"#utility.yul\":1052:1191   */\n    tag_286:\n        /* \"#utility.yul\":1098:1103   */\n      0x00\n        /* \"#utility.yul\":1136:1142   */\n      dup2\n        /* \"#utility.yul\":1123:1143   */\n      calldataload\n        /* \"#utility.yul\":1114:1143   */\n      swap1\n      pop\n        /* \"#utility.yul\":1152:1185   */\n      tag_364\n        /* \"#utility.yul\":1179:1184   */\n      dup2\n        /* \"#utility.yul\":1152:1185   */\n      tag_285\n      jump\t// in\n    tag_364:\n        /* \"#utility.yul\":1052:1191   */\n      swap3\n      swap2\n      pop\n      pop\n      jump\t// out\n        /* \"#utility.yul\":1197:1671   */\n    tag_26:\n        /* \"#utility.yul\":1265:1271   */\n      0x00\n        /* \"#utility.yul\":1273:1279   */\n      0x00\n        /* \"#utility.yul\":1322:1324   */\n      0x40\n        /* \"#utility.yul\":1310:1319   */\n      dup4\n        /* \"#utility.yul\":1301:1308   */\n      dup6\n        /* \"#utility.yul\":1297:1320   */\n      sub\n        /* \"#utility.yul\":1293:1325   */\n      slt\n        /* \"#utility.yul\":1290:1409   */\n      iszero\n      tag_366\n      jumpi\n        /* \"#utility.yul\":1328:1407   */\n      tag_367\n      tag_278\n      jump\t// in\n    tag_367:\n        /* \"#utility.yul\":1290:1409   */\n    tag_366:\n        /* \"#utility.yul\":1448:1449   */\n      0x00\n        /* \"#utility.yul\":1473:1526   */\n      tag_368\n        /* \"#utility.yul\":1518:1525   */\n      dup6\n        /* \"#utility.yul\":1509:1515   */\n      dup3\n        /* \"#utility.yul\":1498:1507   */\n      dup7\n        /* \"#utility.yul\":1494:1516   */\n      add\n        /* \"#utility.yul\":1473:1526   */\n      tag_283\n      jump\t// in\n    tag_368:\n        /* \"#utility.yul\":1463:1526   */\n      swap3\n      pop\n        /* \"#utility.yul\":1419:1536   */\n      pop\n        /* \"#utility.yul\":1575:1577   */\n      0x20\n        /* \"#utility.yul\":1601:1654   */\n      tag_369\n        /* \"#utility.yul\":1646:1653   */\n      dup6\n        /* \"#utility.yul\":1637:1643   */\n      dup3\n        /* \"#utility.yul\":1626:1635   */\n      dup7\n        /* \"#utility.yul\":1622:1644   */\n      add\n        /* \"#utility.yul\":1601:1654   */\n      tag_286\n      jump\t// in\n    tag_369:\n        /* \"#utility.yul\":1591:1654   */\n      swap2\n      pop\n        /* \"#utility.yul\":1546:1664   */\n      pop\n        /* \"#utility.yul\":1197:1671   */\n      swap3\n      pop\n      swap3\n      swap1\n      pop\n      jump\t// out\n        /* \"#utility.yul\":1677:1795   */\n    tag_287:\n        /* \"#utility.yul\":1764:1788   */\n      tag_371\n        /* \"#utility.yul\":1782:1787   */\n      dup2\n        /* \"#utility.yul\":1764:1788   */\n      tag_281\n      jump\t// in\n    tag_371:\n        /* \"#utility.yul\":1759:1762   */\n      dup3\n        /* \"#utility.yul\":1752:1789   */\n      mstore\n        /* \"#utility.yul\":1677:1795   */\n      pop\n      pop\n      jump\t// out\n        /* \"#utility.yul\":1801:2023   */\n    tag_29:\n        /* \"#utility.yul\":1894:1898   */\n      0x00\n        /* \"#utility.yul\":1932:1934   */\n      0x20\n        /* \"#utility.yul\":1921:1930   */\n      dup3\n        /* \"#utility.yul\":1917:1935   */\n      add\n        /* \"#utility.yul\":1909:1935   */\n      swap1\n      pop\n        /* \"#utility.yul\":1945:2016   */\n      tag_373\n        /* \"#utility.yul\":2013:2014   */\n      0x00\n        /* \"#utility.yul\":2002:2011   */\n      dup4\n        /* \"#utility.yul\":1998:2015   */\n      add\n        /* \"#utility.yul\":1989:1995   */\n      dup5\n        /* \"#utility.yul\":1945:2016   */\n      tag_287\n      jump\t// in\n    tag_373:\n        /* \"#utility.yul\":1801:2023   */\n      swap3\n      swap2\n      pop\n      pop\n      jump\t// out\n        /* \"#utility.yul\":2029:2358   */\n    tag_33:\n        /* \"#utility.yul\":2088:2094   */\n      0x00\n        /* \"#utility.yul\":2137:2139   */\n      0x20\n        /* \"#utility.yul\":2125:2134   */\n      dup3\n        /* \"#utility.yul\":2116:2123   */\n      dup5\n        /* \"#utility.yul\":2112:2135   */\n      sub\n        /* \"#utility.yul\":2108:2140   */\n      slt\n        /* \"#utility.yul\":2105:2224   */\n      iszero\n      tag_375\n      jumpi\n        /* \"#utility.yul\":2143:2222   */\n      tag_376\n      tag_278\n      jump\t// in\n    tag_376:\n        /* \"#utility.yul\":2105:2224   */\n    tag_375:\n        /* \"#utility.yul\":2263:2264   */\n      0x00\n        /* \"#utility.yul\":2288:2341   */\n      tag_377\n        /* \"#utility.yul\":2333:2340   */\n      dup5\n        /* \"#utility.yul\":2324:2330   */\n      dup3\n        /* \"#utility.yul\":2313:2322   */\n      dup6\n        /* \"#utility.yul\":2309:2331   */\n      add\n        /* \"#utility.yul\":2288:2341   */\n      tag_283\n      jump\t// in\n    tag_377:\n        /* \"#utility.yul\":2278:2341   */\n      swap2\n      pop\n        /* \"#utility.yul\":2234:2351   */\n      pop\n        /* \"#utility.yul\":2029:2358   */\n      swap3\n      swap2\n      pop\n      pop\n      jump\t// out\n        /* \"#utility.yul\":2364:2454   */\n    tag_288:\n        /* \"#utility.yul\":2398:2405   */\n      0x00\n        /* \"#utility.yul\":2441:2446   */\n      dup2\n        /* \"#utility.yul\":2434:2447   */\n      iszero\n        /* \"#utility.yul\":2427:2448   */\n      iszero\n        /* \"#utility.yul\":2416:2448   */\n      swap1\n      pop\n        /* \"#utility.yul\":2364:2454   */\n      swap2\n      swap1\n      pop\n      jump\t// out\n        /* \"#utility.yul\":2460:2569   */\n    tag_289:\n        /* \"#utility.yul\":2541:2562   */\n      tag_380\n        /* \"#utility.yul\":2556:2561   */\n      dup2\n        /* \"#utility.yul\":2541:2562   */\n      tag_288\n      jump\t// in\n    tag_380:\n        /* \"#utility.yul\":2536:2539   */\n      dup3\n        /* \"#utility.yul\":2529:2563   */\n      mstore\n        /* \"#utility.yul\":2460:2569   */\n      pop\n      pop\n      jump\t// out\n        /* \"#utility.yul\":2575:2785   */\n    tag_41:\n        /* \"#utility.yul\":2662:2666   */\n      0x00\n        /* \"#utility.yul\":2700:2702   */\n      0x20\n        /* \"#utility.yul\":2689:2698   */\n      dup3\n        /* \"#utility.yul\":2685:2703   */\n      add\n        /* \"#utility.yul\":2677:2703   */\n      swap1\n      pop\n        /* \"#utility.yul\":2713:2778   */\n      tag_382\n        /* \"#utility.yul\":2775:2776   */\n      0x00\n        /* \"#utility.yul\":2764:2773   */\n      dup4\n        /* \"#utility.yul\":2760:2777   */\n      add\n        /* \"#utility.yul\":2751:2757   */\n      dup5\n        /* \"#utility.yul\":2713:2778   */\n      tag_289\n      jump\t// in\n    tag_382:\n        /* \"#utility.yul\":2575:2785   */\n      swap3\n      swap2\n      pop\n      pop\n      jump\t// out\n        /* \"#utility.yul\":2791:3120   */\n    tag_62:\n        /* \"#utility.yul\":2850:2856   */\n      0x00\n        /* \"#utility.yul\":2899:2901   */\n      0x20\n        /* \"#utility.yul\":2887:2896   */\n      dup3\n        /* \"#utility.yul\":2878:2885   */\n      dup5\n        /* \"#utility.yul\":2874:2897   */\n      sub\n        /* \"#utility.yul\":2870:2902   */\n      slt\n        /* \"#utility.yul\":2867:2986   */\n      iszero\n      tag_384\n      jumpi\n        /* \"#utility.yul\":2905:2984   */\n      tag_385\n      tag_278\n      jump\t// in\n    tag_385:\n        /* \"#utility.yul\":2867:2986   */\n    tag_384:\n        /* \"#utility.yul\":3025:3026   */\n      0x00\n        /* \"#utility.yul\":3050:3103   */\n      tag_386\n        /* \"#utility.yul\":3095:3102   */\n      dup5\n        /* \"#utility.yul\":3086:3092   */\n      dup3\n        /* \"#utility.yul\":3075:3084   */\n      dup6\n        /* \"#utility.yul\":3071:3093   */\n      add\n        /* \"#utility.yul\":3050:3103   */\n      tag_286\n      jump\t// in\n    tag_386:\n        /* \"#utility.yul\":3040:3103   */\n      swap2\n      pop\n        /* \"#utility.yul\":2996:3113   */\n      pop\n        /* \"#utility.yul\":2791:3120   */\n      swap3\n      swap2\n      pop\n      pop\n      jump\t// out\n        /* \"#utility.yul\":3126:3600   */\n    tag_68:\n        /* \"#utility.yul\":3194:3200   */\n      0x00\n        /* \"#utility.yul\":3202:3208   */\n      0x00\n        /* \"#utility.yul\":3251:3253   */\n      0x40\n        /* \"#utility.yul\":3239:3248   */\n      dup4\n        /* \"#utility.yul\":3230:3237   */\n      dup6\n        /* \"#utility.yul\":3226:3249   */\n      sub\n        /* \"#utility.yul\":3222:3254   */\n      slt\n        /* \"#utility.yul\":3219:3338   */\n      iszero\n      tag_388\n      jumpi\n        /* \"#utility.yul\":3257:3336   */\n      tag_389\n      tag_278\n      jump\t// in\n    tag_389:\n        /* \"#utility.yul\":3219:3338   */\n    tag_388:\n        /* \"#utility.yul\":3377:3378   */\n      0x00\n        /* \"#utility.yul\":3402:3455   */\n      tag_390\n        /* \"#utility.yul\":3447:3454   */\n      dup6\n        /* \"#utility.yul\":3438:3444   */\n      dup3\n        /* \"#utility.yul\":3427:3436   */\n      dup7\n        /* \"#utility.yul\":3423:3445   */\n      add\n        /* \"#utility.yul\":3402:3455   */\n      tag_283\n      jump\t// in\n    tag_390:\n        /* \"#utility.yul\":3392:3455   */\n      swap3\n      pop\n        /* \"#utility.yul\":3348:3465   */\n      pop\n        /* \"#utility.yul\":3504:3506   */\n      0x20\n        /* \"#utility.yul\":3530:3583   */\n      tag_391\n        /* \"#utility.yul\":3575:3582   */\n      dup6\n        /* \"#utility.yul\":3566:3572   */\n      dup3\n        /* \"#utility.yul\":3555:3564   */\n      dup7\n        /* \"#utility.yul\":3551:3573   */\n      add\n        /* \"#utility.yul\":3530:3583   */\n      tag_283\n      jump\t// in\n    tag_391:\n        /* \"#utility.yul\":3520:3583   */\n      swap2\n      pop\n        /* \"#utility.yul\":3475:3593   */\n      pop\n        /* \"#utility.yul\":3126:3600   */\n      swap3\n      pop\n      swap3\n      swap1\n      pop\n      jump\t// out\n        /* \"#utility.yul\":3606:3724   */\n    tag_290:\n        /* \"#utility.yul\":3693:3717   */\n      tag_393\n        /* \"#utility.yul\":3711:3716   */\n      dup2\n        /* \"#utility.yul\":3693:3717   */\n      tag_284\n      jump\t// in\n    tag_393:\n        /* \"#utility.yul\":3688:3691   */\n      dup3\n        /* \"#utility.yul\":3681:3718   */\n      mstore\n        /* \"#utility.yul\":3606:3724   */\n      pop\n      pop\n      jump\t// out\n        /* \"#utility.yul\":3730:3952   */\n    tag_76:\n        /* \"#utility.yul\":3823:3827   */\n      0x00\n        /* \"#utility.yul\":3861:3863   */\n      0x20\n        /* \"#utility.yul\":3850:3859   */\n      dup3\n        /* \"#utility.yul\":3846:3864   */\n      add\n        /* \"#utility.yul\":3838:3864   */\n      swap1\n      pop\n        /* \"#utility.yul\":3874:3945   */\n      tag_395\n        /* \"#utility.yul\":3942:3943   */\n      0x00\n        /* \"#utility.yul\":3931:3940   */\n      dup4\n        /* \"#utility.yul\":3927:3944   */\n      add\n        /* \"#utility.yul\":3918:3924   */\n      dup5\n        /* \"#utility.yul\":3874:3945   */\n      tag_290\n      jump\t// in\n    tag_395:\n        /* \"#utility.yul\":3730:3952   */\n      swap3\n      swap2\n      pop\n      pop\n      jump\t// out\n        /* \"#utility.yul\":3958:4075   */\n    tag_291:\n        /* \"#utility.yul\":4067:4068   */\n      0x00\n        /* \"#utility.yul\":4064:4065   */\n      0x00\n        /* \"#utility.yul\":4057:4069   */\n      revert\n        /* \"#utility.yul\":4081:4198   */\n    tag_292:\n        /* \"#utility.yul\":4190:4191   */\n      0x00\n        /* \"#utility.yul\":4187:4188   */\n      0x00\n        /* \"#utility.yul\":4180:4192   */\n      revert\n        /* \"#utility.yul\":4204:4321   */\n    tag_293:\n        /* \"#utility.yul\":4313:4314   */\n      0x00\n        /* \"#utility.yul\":4310:4311   */\n      0x00\n        /* \"#utility.yul\":4303:4315   */\n      revert\n        /* \"#utility.yul\":4344:4912   */\n    tag_294:\n        /* \"#utility.yul\":4417:4425   */\n      0x00\n        /* \"#utility.yul\":4427:4433   */\n      0x00\n        /* \"#utility.yul\":4477:4480   */\n      dup4\n        /* \"#utility.yul\":4470:4474   */\n      0x1f\n        /* \"#utility.yul\":4462:4468   */\n      dup5\n        /* \"#utility.yul\":4458:4475   */\n      add\n        /* \"#utility.yul\":4454:4481   */\n      slt\n        /* \"#utility.yul\":4444:4566   */\n      tag_400\n      jumpi\n        /* \"#utility.yul\":4485:4564   */\n      tag_401\n      tag_291\n      jump\t// in\n    tag_401:\n        /* \"#utility.yul\":4444:4566   */\n    tag_400:\n        /* \"#utility.yul\":4598:4604   */\n      dup3\n        /* \"#utility.yul\":4585:4605   */\n      calldataload\n        /* \"#utility.yul\":4575:4605   */\n      swap1\n      pop\n        /* \"#utility.yul\":4628:4646   */\n      0xffffffffffffffff\n        /* \"#utility.yul\":4620:4626   */\n      dup2\n        /* \"#utility.yul\":4617:4647   */\n      gt\n        /* \"#utility.yul\":4614:4731   */\n      iszero\n      tag_402\n      jumpi\n        /* \"#utility.yul\":4650:4729   */\n      tag_403\n      tag_292\n      jump\t// in\n    tag_403:\n        /* \"#utility.yul\":4614:4731   */\n    tag_402:\n        /* \"#utility.yul\":4764:4768   */\n      0x20\n        /* \"#utility.yul\":4756:4762   */\n      dup4\n        /* \"#utility.yul\":4752:4769   */\n      add\n        /* \"#utility.yul\":4740:4769   */\n      swap2\n      pop\n        /* \"#utility.yul\":4818:4821   */\n      dup4\n        /* \"#utility.yul\":4810:4814   */\n      0x20\n        /* \"#utility.yul\":4802:4808   */\n      dup3\n        /* \"#utility.yul\":4798:4815   */\n      mul\n        /* \"#utility.yul\":4788:4796   */\n      dup4\n        /* \"#utility.yul\":4784:4816   */\n      add\n        /* \"#utility.yul\":4781:4822   */\n      gt\n        /* \"#utility.yul\":4778:4906   */\n      iszero\n      tag_404\n      jumpi\n        /* \"#utility.yul\":4825:4904   */\n      tag_405\n      tag_293\n      jump\t// in\n    tag_405:\n        /* \"#utility.yul\":4778:4906   */\n    tag_404:\n        /* \"#utility.yul\":4344:4912   */\n      swap3\n      pop\n      swap3\n      swap1\n      pop\n      jump\t// out\n        /* \"#utility.yul\":4918:5477   */\n    tag_92:\n        /* \"#utility.yul\":5004:5010   */\n      0x00\n        /* \"#utility.yul\":5012:5018   */\n      0x00\n        /* \"#utility.yul\":5061:5063   */\n      0x20\n        /* \"#utility.yul\":5049:5058   */\n      dup4\n        /* \"#utility.yul\":5040:5047   */\n      dup6\n        /* \"#utility.yul\":5036:5059   */\n      sub\n        /* \"#utility.yul\":5032:5064   */\n      slt\n        /* \"#utility.yul\":5029:5148   */\n      iszero\n      tag_407\n      jumpi\n        /* \"#utility.yul\":5067:5146   */\n      tag_408\n      tag_278\n      jump\t// in\n    tag_408:\n        /* \"#utility.yul\":5029:5148   */\n    tag_407:\n        /* \"#utility.yul\":5215:5216   */\n      0x00\n        /* \"#utility.yul\":5204:5213   */\n      dup4\n        /* \"#utility.yul\":5200:5217   */\n      add\n        /* \"#utility.yul\":5187:5218   */\n      calldataload\n        /* \"#utility.yul\":5245:5263   */\n      0xffffffffffffffff\n        /* \"#utility.yul\":5237:5243   */\n      dup2\n        /* \"#utility.yul\":5234:5264   */\n      gt\n        /* \"#utility.yul\":5231:5348   */\n      iszero\n      tag_409\n      jumpi\n        /* \"#utility.yul\":5267:5346   */\n      tag_410\n      tag_279\n      jump\t// in\n    tag_410:\n        /* \"#utility.yul\":5231:5348   */\n    tag_409:\n        /* \"#utility.yul\":5380:5460   */\n      tag_411\n        /* \"#utility.yul\":5452:5459   */\n      dup6\n        /* \"#utility.yul\":5443:5449   */\n      dup3\n        /* \"#utility.yul\":5432:5441   */\n      dup7\n        /* \"#utility.yul\":5428:5450   */\n      add\n        /* \"#utility.yul\":5380:5460   */\n      tag_294\n      jump\t// in\n    tag_411:\n        /* \"#utility.yul\":5362:5460   */\n      swap3\n      pop\n      swap3\n      pop\n        /* \"#utility.yul\":5158:5470   */\n      pop\n        /* \"#utility.yul\":4918:5477   */\n      swap3\n      pop\n      swap3\n      swap1\n      pop\n      jump\t// out\n        /* \"#utility.yul\":5483:5597   */\n    tag_295:\n        /* \"#utility.yul\":5550:5556   */\n      0x00\n        /* \"#utility.yul\":5584:5589   */\n      dup2\n        /* \"#utility.yul\":5578:5590   */\n      mload\n        /* \"#utility.yul\":5568:5590   */\n      swap1\n      pop\n        /* \"#utility.yul\":5483:5597   */\n      swap2\n      swap1\n      pop\n      jump\t// out\n        /* \"#utility.yul\":5603:5787   */\n    tag_296:\n        /* \"#utility.yul\":5702:5713   */\n      0x00\n        /* \"#utility.yul\":5736:5742   */\n      dup3\n        /* \"#utility.yul\":5731:5734   */\n      dup3\n        /* \"#utility.yul\":5724:5743   */\n      mstore\n        /* \"#utility.yul\":5776:5780   */\n      0x20\n        /* \"#utility.yul\":5771:5774   */\n      dup3\n        /* \"#utility.yul\":5767:5781   */\n      add\n        /* \"#utility.yul\":5752:5781   */\n      swap1\n      pop\n        /* \"#utility.yul\":5603:5787   */\n      swap3\n      swap2\n      pop\n      pop\n      jump\t// out\n        /* \"#utility.yul\":5793:5925   */\n    tag_297:\n        /* \"#utility.yul\":5860:5864   */\n      0x00\n        /* \"#utility.yul\":5883:5886   */\n      dup2\n        /* \"#utility.yul\":5875:5886   */\n      swap1\n      pop\n        /* \"#utility.yul\":5913:5917   */\n      0x20\n        /* \"#utility.yul\":5908:5911   */\n      dup3\n        /* \"#utility.yul\":5904:5918   */\n      add\n        /* \"#utility.yul\":5896:5918   */\n      swap1\n      pop\n        /* \"#utility.yul\":5793:5925   */\n      swap2\n      swap1\n      pop\n      jump\t// out\n        /* \"#utility.yul\":5931:6039   */\n    tag_298:\n        /* \"#utility.yul\":6008:6032   */\n      tag_416\n        /* \"#utility.yul\":6026:6031   */\n      dup2\n        /* \"#utility.yul\":6008:6032   */\n      tag_281\n      jump\t// in\n    tag_416:\n        /* \"#utility.yul\":6003:6006   */\n      dup3\n        /* \"#utility.yul\":5996:6033   */\n      mstore\n        /* \"#utility.yul\":5931:6039   */\n      pop\n      pop\n      jump\t// out\n        /* \"#utility.yul\":6045:6224   */\n    tag_299:\n        /* \"#utility.yul\":6114:6124   */\n      0x00\n        /* \"#utility.yul\":6135:6181   */\n      tag_418\n        /* \"#utility.yul\":6177:6180   */\n      dup4\n        /* \"#utility.yul\":6169:6175   */\n      dup4\n        /* \"#utility.yul\":6135:6181   */\n      tag_298\n      jump\t// in\n    tag_418:\n        /* \"#utility.yul\":6213:6217   */\n      0x20\n        /* \"#utility.yul\":6208:6211   */\n      dup4\n        /* \"#utility.yul\":6204:6218   */\n      add\n        /* \"#utility.yul\":6190:6218   */\n      swap1\n      pop\n        /* \"#utility.yul\":6045:6224   */\n      swap3\n      swap2\n      pop\n      pop\n      jump\t// out\n        /* \"#utility.yul\":6230:6343   */\n    tag_300:\n        /* \"#utility.yul\":6300:6304   */\n      0x00\n        /* \"#utility.yul\":6332:6336   */\n      0x20\n        /* \"#utility.yul\":6327:6330   */\n      dup3\n        /* \"#utility.yul\":6323:6337   */\n      add\n        /* \"#utility.yul\":6315:6337   */\n      swap1\n      pop\n        /* \"#utility.yul\":6230:6343   */\n      swap2\n      swap1\n      pop\n      jump\t// out\n        /* \"#utility.yul\":6379:7111   */\n    tag_301:\n        /* \"#utility.yul\":6498:6501   */\n      0x00\n        /* \"#utility.yul\":6527:6581   */\n      tag_421\n        /* \"#utility.yul\":6575:6580   */\n      dup3\n        /* \"#utility.yul\":6527:6581   */\n      tag_295\n      jump\t// in\n    tag_421:\n        /* \"#utility.yul\":6597:6683   */\n      tag_422\n        /* \"#utility.yul\":6676:6682   */\n      dup2\n        /* \"#utility.yul\":6671:6674   */\n      dup6\n        /* \"#utility.yul\":6597:6683   */\n      tag_296\n      jump\t// in\n    tag_422:\n        /* \"#utility.yul\":6590:6683   */\n      swap4\n      pop\n        /* \"#utility.yul\":6707:6763   */\n      tag_423\n        /* \"#utility.yul\":6757:6762   */\n      dup4\n        /* \"#utility.yul\":6707:6763   */\n      tag_297\n      jump\t// in\n    tag_423:\n        /* \"#utility.yul\":6786:6793   */\n      dup1\n        /* \"#utility.yul\":6817:6818   */\n      0x00\n        /* \"#utility.yul\":6802:7086   */\n    tag_424:\n        /* \"#utility.yul\":6827:6833   */\n      dup4\n        /* \"#utility.yul\":6824:6825   */\n      dup2\n        /* \"#utility.yul\":6821:6834   */\n      lt\n        /* \"#utility.yul\":6802:7086   */\n      iszero\n      tag_426\n      jumpi\n        /* \"#utility.yul\":6903:6909   */\n      dup2\n        /* \"#utility.yul\":6897:6910   */\n      mload\n        /* \"#utility.yul\":6930:6993   */\n      tag_427\n        /* \"#utility.yul\":6989:6992   */\n      dup9\n        /* \"#utility.yul\":6974:6987   */\n      dup3\n        /* \"#utility.yul\":6930:6993   */\n      tag_299\n      jump\t// in\n    tag_427:\n        /* \"#utility.yul\":6923:6993   */\n      swap8\n      pop\n        /* \"#utility.yul\":7016:7076   */\n      tag_428\n        /* \"#utility.yul\":7069:7075   */\n      dup4\n        /* \"#utility.yul\":7016:7076   */\n      tag_300\n      jump\t// in\n    tag_428:\n        /* \"#utility.yul\":7006:7076   */\n      swap3\n      pop\n        /* \"#utility.yul\":6862:7086   */\n      pop\n        /* \"#utility.yul\":6849:6850   */\n      0x01\n        /* \"#utility.yul\":6846:6847   */\n      dup2\n        /* \"#utility.yul\":6842:6851   */\n      add\n        /* \"#utility.yul\":6837:6851   */\n      swap1\n      pop\n        /* \"#utility.yul\":6802:7086   */\n      jump(tag_424)\n    tag_426:\n        /* \"#utility.yul\":6806:6820   */\n      pop\n        /* \"#utility.yul\":7102:7105   */\n      dup6\n        /* \"#utility.yul\":7095:7105   */\n      swap4\n      pop\n        /* \"#utility.yul\":6503:7111   */\n      pop\n      pop\n      pop\n        /* \"#utility.yul\":6379:7111   */\n      swap3\n      swap2\n      pop\n      pop\n      jump\t// out\n        /* \"#utility.yul\":7117:7490   */\n    tag_95:\n        /* \"#utility.yul\":7260:7264   */\n      0x00\n        /* \"#utility.yul\":7298:7300   */\n      0x20\n        /* \"#utility.yul\":7287:7296   */\n      dup3\n        /* \"#utility.yul\":7283:7301   */\n      add\n        /* \"#utility.yul\":7275:7301   */\n      swap1\n      pop\n        /* \"#utility.yul\":7347:7356   */\n      dup2\n        /* \"#utility.yul\":7341:7345   */\n      dup2\n        /* \"#utility.yul\":7337:7357   */\n      sub\n        /* \"#utility.yul\":7333:7334   */\n      0x00\n        /* \"#utility.yul\":7322:7331   */\n      dup4\n        /* \"#utility.yul\":7318:7335   */\n      add\n        /* \"#utility.yul\":7311:7358   */\n      mstore\n        /* \"#utility.yul\":7375:7483   */\n      tag_430\n        /* \"#utility.yul\":7478:7482   */\n      dup2\n        /* \"#utility.yul\":7469:7475   */\n      dup5\n        /* \"#utility.yul\":7375:7483   */\n      tag_301\n      jump\t// in\n    tag_430:\n        /* \"#utility.yul\":7367:7483   */\n      swap1\n      pop\n        /* \"#utility.yul\":7117:7490   */\n      swap3\n      swap2\n      pop\n      pop\n      jump\t// out\n        /* \"#utility.yul\":7496:7665   */\n    tag_302:\n        /* \"#utility.yul\":7580:7591   */\n      0x00\n        /* \"#utility.yul\":7614:7620   */\n      dup3\n        /* \"#utility.yul\":7609:7612   */\n      dup3\n        /* \"#utility.yul\":7602:7621   */\n      mstore\n        /* \"#utility.yul\":7654:7658   */\n      0x20\n        /* \"#utility.yul\":7649:7652   */\n      dup3\n        /* \"#utility.yul\":7645:7659   */\n      add\n        /* \"#utility.yul\":7630:7659   */\n      swap1\n      pop\n        /* \"#utility.yul\":7496:7665   */\n      swap3\n      swap2\n      pop\n      pop\n      jump\t// out\n        /* \"#utility.yul\":7671:7843   */\n    tag_303:\n        /* \"#utility.yul\":7811:7835   */\n      0x4167656e74206973206e6f74206120706172746e657200000000000000000000\n        /* \"#utility.yul\":7807:7808   */\n      0x00\n        /* \"#utility.yul\":7799:7805   */\n      dup3\n        /* \"#utility.yul\":7795:7809   */\n      add\n        /* \"#utility.yul\":7788:7836   */\n      mstore\n        /* \"#utility.yul\":7671:7843   */\n      pop\n      jump\t// out\n        /* \"#utility.yul\":7849:8215   */\n    tag_304:\n        /* \"#utility.yul\":7991:7994   */\n      0x00\n        /* \"#utility.yul\":8012:8079   */\n      tag_434\n        /* \"#utility.yul\":8076:8078   */\n      0x16\n        /* \"#utility.yul\":8071:8074   */\n      dup4\n        /* \"#utility.yul\":8012:8079   */\n      tag_302\n      jump\t// in\n    tag_434:\n        /* \"#utility.yul\":8005:8079   */\n      swap2\n      pop\n        /* \"#utility.yul\":8088:8181   */\n      tag_435\n        /* \"#utility.yul\":8177:8180   */\n      dup3\n        /* \"#utility.yul\":8088:8181   */\n      tag_303\n      jump\t// in\n    tag_435:\n        /* \"#utility.yul\":8206:8208   */\n      0x20\n        /* \"#utility.yul\":8201:8204   */\n      dup3\n        /* \"#utility.yul\":8197:8209   */\n      add\n        /* \"#utility.yul\":8190:8209   */\n      swap1\n      pop\n        /* \"#utility.yul\":7849:8215   */\n      swap2\n      swap1\n      pop\n      jump\t// out\n        /* \"#utility.yul\":8221:8640   */\n    tag_120:\n        /* \"#utility.yul\":8387:8391   */\n      0x00\n        /* \"#utility.yul\":8425:8427   */\n      0x20\n        /* \"#utility.yul\":8414:8423   */\n      dup3\n        /* \"#utility.yul\":8410:8428   */\n      add\n        /* \"#utility.yul\":8402:8428   */\n      swap1\n      pop\n        /* \"#utility.yul\":8474:8483   */\n      dup2\n        /* \"#utility.yul\":8468:8472   */\n      dup2\n        /* \"#utility.yul\":8464:8484   */\n      sub\n        /* \"#utility.yul\":8460:8461   */\n      0x00\n        /* \"#utility.yul\":8449:8458   */\n      dup4\n        /* \"#utility.yul\":8445:8462   */\n      add\n        /* \"#utility.yul\":8438:8485   */\n      mstore\n        /* \"#utility.yul\":8502:8633   */\n      tag_437\n        /* \"#utility.yul\":8628:8632   */\n      dup2\n        /* \"#utility.yul\":8502:8633   */\n      tag_304\n      jump\t// in\n    tag_437:\n        /* \"#utility.yul\":8494:8633   */\n      swap1\n      pop\n        /* \"#utility.yul\":8221:8640   */\n      swap2\n      swap1\n      pop\n      jump\t// out\n        /* \"#utility.yul\":8646:8789   */\n    tag_305:\n        /* \"#utility.yul\":8703:8708   */\n      0x00\n        /* \"#utility.yul\":8734:8740   */\n      dup2\n        /* \"#utility.yul\":8728:8741   */\n      mload\n        /* \"#utility.yul\":8719:8741   */\n      swap1\n      pop\n        /* \"#utility.yul\":8750:8783   */\n      tag_439\n        /* \"#utility.yul\":8777:8782   */\n      dup2\n        /* \"#utility.yul\":8750:8783   */\n      tag_285\n      jump\t// in\n    tag_439:\n        /* \"#utility.yul\":8646:8789   */\n      swap3\n      swap2\n      pop\n      pop\n      jump\t// out\n        /* \"#utility.yul\":8795:9615   */\n    tag_124:\n        /* \"#utility.yul\":8892:8898   */\n      0x00\n        /* \"#utility.yul\":8900:8906   */\n      0x00\n        /* \"#utility.yul\":8908:8914   */\n      0x00\n        /* \"#utility.yul\":8916:8922   */\n      0x00\n        /* \"#utility.yul\":8965:8968   */\n      0x80\n        /* \"#utility.yul\":8953:8962   */\n      dup6\n        /* \"#utility.yul\":8944:8951   */\n      dup8\n        /* \"#utility.yul\":8940:8963   */\n      sub\n        /* \"#utility.yul\":8936:8969   */\n      slt\n        /* \"#utility.yul\":8933:9053   */\n      iszero\n      tag_441\n      jumpi\n        /* \"#utility.yul\":8972:9051   */\n      tag_442\n      tag_278\n      jump\t// in\n    tag_442:\n        /* \"#utility.yul\":8933:9053   */\n    tag_441:\n        /* \"#utility.yul\":9092:9093   */\n      0x00\n        /* \"#utility.yul\":9117:9181   */\n      tag_443\n        /* \"#utility.yul\":9173:9180   */\n      dup8\n        /* \"#utility.yul\":9164:9170   */\n      dup3\n        /* \"#utility.yul\":9153:9162   */\n      dup9\n        /* \"#utility.yul\":9149:9171   */\n      add\n        /* \"#utility.yul\":9117:9181   */\n      tag_305\n      jump\t// in\n    tag_443:\n        /* \"#utility.yul\":9107:9181   */\n      swap5\n      pop\n        /* \"#utility.yul\":9063:9191   */\n      pop\n        /* \"#utility.yul\":9230:9232   */\n      0x20\n        /* \"#utility.yul\":9256:9320   */\n      tag_444\n        /* \"#utility.yul\":9312:9319   */\n      dup8\n        /* \"#utility.yul\":9303:9309   */\n      dup3\n        /* \"#utility.yul\":9292:9301   */\n      dup9\n        /* \"#utility.yul\":9288:9310   */\n      add\n        /* \"#utility.yul\":9256:9320   */\n      tag_305\n      jump\t// in\n    tag_444:\n        /* \"#utility.yul\":9246:9320   */\n      swap4\n      pop\n        /* \"#utility.yul\":9201:9330   */\n      pop\n        /* \"#utility.yul\":9369:9371   */\n      0x40\n        /* \"#utility.yul\":9395:9459   */\n      tag_445\n        /* \"#utility.yul\":9451:9458   */\n      dup8\n        /* \"#utility.yul\":9442:9448   */\n      dup3\n        /* \"#utility.yul\":9431:9440   */\n      dup9\n        /* \"#utility.yul\":9427:9449   */\n      add\n        /* \"#utility.yul\":9395:9459   */\n      tag_305\n      jump\t// in\n    tag_445:\n        /* \"#utility.yul\":9385:9459   */\n      swap3\n      pop\n        /* \"#utility.yul\":9340:9469   */\n      pop\n        /* \"#utility.yul\":9508:9510   */\n      0x60\n        /* \"#utility.yul\":9534:9598   */\n      tag_446\n        /* \"#utility.yul\":9590:9597   */\n      dup8\n        /* \"#utility.yul\":9581:9587   */\n      dup3\n        /* \"#utility.yul\":9570:9579   */\n      dup9\n        /* \"#utility.yul\":9566:9588   */\n      add\n        /* \"#utility.yul\":9534:9598   */\n      tag_305\n      jump\t// in\n    tag_446:\n        /* \"#utility.yul\":9524:9598   */\n      swap2\n      pop\n        /* \"#utility.yul\":9479:9608   */\n      pop\n        /* \"#utility.yul\":8795:9615   */\n      swap3\n      swap6\n      swap2\n      swap5\n      pop\n      swap3\n      pop\n      jump\t// out\n        /* \"#utility.yul\":9621:9789   */\n    tag_306:\n        /* \"#utility.yul\":9761:9781   */\n      0x466565206973206e6f7420656e6f7567682e0000000000000000000000000000\n        /* \"#utility.yul\":9757:9758   */\n      0x00\n        /* \"#utility.yul\":9749:9755   */\n      dup3\n        /* \"#utility.yul\":9745:9759   */\n      add\n        /* \"#utility.yul\":9738:9782   */\n      mstore\n        /* \"#utility.yul\":9621:9789   */\n      pop\n      jump\t// out\n        /* \"#utility.yul\":9795:10161   */\n    tag_307:\n        /* \"#utility.yul\":9937:9940   */\n      0x00\n        /* \"#utility.yul\":9958:10025   */\n      tag_449\n        /* \"#utility.yul\":10022:10024   */\n      0x12\n        /* \"#utility.yul\":10017:10020   */\n      dup4\n        /* \"#utility.yul\":9958:10025   */\n      tag_302\n      jump\t// in\n    tag_449:\n        /* \"#utility.yul\":9951:10025   */\n      swap2\n      pop\n        /* \"#utility.yul\":10034:10127   */\n      tag_450\n        /* \"#utility.yul\":10123:10126   */\n      dup3\n        /* \"#utility.yul\":10034:10127   */\n      tag_306\n      jump\t// in\n    tag_450:\n        /* \"#utility.yul\":10152:10154   */\n      0x20\n        /* \"#utility.yul\":10147:10150   */\n      dup3\n        /* \"#utility.yul\":10143:10155   */\n      add\n        /* \"#utility.yul\":10136:10155   */\n      swap1\n      pop\n        /* \"#utility.yul\":9795:10161   */\n      swap2\n      swap1\n      pop\n      jump\t// out\n        /* \"#utility.yul\":10167:10586   */\n    tag_127:\n        /* \"#utility.yul\":10333:10337   */\n      0x00\n        /* \"#utility.yul\":10371:10373   */\n      0x20\n        /* \"#utility.yul\":10360:10369   */\n      dup3\n        /* \"#utility.yul\":10356:10374   */\n      add\n        /* \"#utility.yul\":10348:10374   */\n      swap1\n      pop\n        /* \"#utility.yul\":10420:10429   */\n      dup2\n        /* \"#utility.yul\":10414:10418   */\n      dup2\n        /* \"#utility.yul\":10410:10430   */\n      sub\n        /* \"#utility.yul\":10406:10407   */\n      0x00\n        /* \"#utility.yul\":10395:10404   */\n      dup4\n        /* \"#utility.yul\":10391:10408   */\n      add\n        /* \"#utility.yul\":10384:10431   */\n      mstore\n        /* \"#utility.yul\":10448:10579   */\n      tag_452\n        /* \"#utility.yul\":10574:10578   */\n      dup2\n        /* \"#utility.yul\":10448:10579   */\n      tag_307\n      jump\t// in\n    tag_452:\n        /* \"#utility.yul\":10440:10579   */\n      swap1\n      pop\n        /* \"#utility.yul\":10167:10586   */\n      swap2\n      swap1\n      pop\n      jump\t// out\n        /* \"#utility.yul\":10592:10739   */\n    tag_308:\n        /* \"#utility.yul\":10693:10704   */\n      0x00\n        /* \"#utility.yul\":10730:10733   */\n      dup2\n        /* \"#utility.yul\":10715:10733   */\n      swap1\n      pop\n        /* \"#utility.yul\":10592:10739   */\n      swap3\n      swap2\n      pop\n      pop\n      jump\t// out\n        /* \"#utility.yul\":10745:10897   */\n    tag_309:\n        /* \"#utility.yul\":10885:10889   */\n      0x3078000000000000000000000000000000000000000000000000000000000000\n        /* \"#utility.yul\":10881:10882   */\n      0x00\n        /* \"#utility.yul\":10873:10879   */\n      dup3\n        /* \"#utility.yul\":10869:10883   */\n      add\n        /* \"#utility.yul\":10862:10890   */\n      mstore\n        /* \"#utility.yul\":10745:10897   */\n      pop\n      jump\t// out\n        /* \"#utility.yul\":10903:11301   */\n    tag_310:\n        /* \"#utility.yul\":11062:11065   */\n      0x00\n        /* \"#utility.yul\":11083:11166   */\n      tag_456\n        /* \"#utility.yul\":11164:11165   */\n      0x02\n        /* \"#utility.yul\":11159:11162   */\n      dup4\n        /* \"#utility.yul\":11083:11166   */\n      tag_308\n      jump\t// in\n    tag_456:\n        /* \"#utility.yul\":11076:11166   */\n      swap2\n      pop\n        /* \"#utility.yul\":11175:11268   */\n      tag_457\n        /* \"#utility.yul\":11264:11267   */\n      dup3\n        /* \"#utility.yul\":11175:11268   */\n      tag_309\n      jump\t// in\n    tag_457:\n        /* \"#utility.yul\":11293:11294   */\n      0x02\n        /* \"#utility.yul\":11288:11291   */\n      dup3\n        /* \"#utility.yul\":11284:11295   */\n      add\n        /* \"#utility.yul\":11277:11295   */\n      swap1\n      pop\n        /* \"#utility.yul\":10903:11301   */\n      swap2\n      swap1\n      pop\n      jump\t// out\n        /* \"#utility.yul\":11307:11686   */\n    tag_134:\n        /* \"#utility.yul\":11491:11494   */\n      0x00\n        /* \"#utility.yul\":11513:11660   */\n      tag_459\n        /* \"#utility.yul\":11656:11659   */\n      dup3\n        /* \"#utility.yul\":11513:11660   */\n      tag_310\n      jump\t// in\n    tag_459:\n        /* \"#utility.yul\":11506:11660   */\n      swap2\n      pop\n        /* \"#utility.yul\":11677:11680   */\n      dup2\n        /* \"#utility.yul\":11670:11680   */\n      swap1\n      pop\n        /* \"#utility.yul\":11307:11686   */\n      swap2\n      swap1\n      pop\n      jump\t// out\n        /* \"#utility.yul\":11692:11860   */\n    tag_311:\n        /* \"#utility.yul\":11832:11852   */\n      0x5061796d656e7420666565206661696c65640000000000000000000000000000\n        /* \"#utility.yul\":11828:11829   */\n      0x00\n        /* \"#utility.yul\":11820:11826   */\n      dup3\n        /* \"#utility.yul\":11816:11830   */\n      add\n        /* \"#utility.yul\":11809:11853   */\n      mstore\n        /* \"#utility.yul\":11692:11860   */\n      pop\n      jump\t// out\n        /* \"#utility.yul\":11866:12232   */\n    tag_312:\n        /* \"#utility.yul\":12008:12011   */\n      0x00\n        /* \"#utility.yul\":12029:12096   */\n      tag_462\n        /* \"#utility.yul\":12093:12095   */\n      0x12\n        /* \"#utility.yul\":12088:12091   */\n      dup4\n        /* \"#utility.yul\":12029:12096   */\n      tag_302\n      jump\t// in\n    tag_462:\n        /* \"#utility.yul\":12022:12096   */\n      swap2\n      pop\n        /* \"#utility.yul\":12105:12198   */\n      tag_463\n        /* \"#utility.yul\":12194:12197   */\n      dup3\n        /* \"#utility.yul\":12105:12198   */\n      tag_311\n      jump\t// in\n    tag_463:\n        /* \"#utility.yul\":12223:12225   */\n      0x20\n        /* \"#utility.yul\":12218:12221   */\n      dup3\n        /* \"#utility.yul\":12214:12226   */\n      add\n        /* \"#utility.yul\":12207:12226   */\n      swap1\n      pop\n        /* \"#utility.yul\":11866:12232   */\n      swap2\n      swap1\n      pop\n      jump\t// out\n        /* \"#utility.yul\":12238:12657   */\n    tag_140:\n        /* \"#utility.yul\":12404:12408   */\n      0x00\n        /* \"#utility.yul\":12442:12444   */\n      0x20\n        /* \"#utility.yul\":12431:12440   */\n      dup3\n        /* \"#utility.yul\":12427:12445   */\n      add\n        /* \"#utility.yul\":12419:12445   */\n      swap1\n      pop\n        /* \"#utility.yul\":12491:12500   */\n      dup2\n        /* \"#utility.yul\":12485:12489   */\n      dup2\n        /* \"#utility.yul\":12481:12501   */\n      sub\n        /* \"#utility.yul\":12477:12478   */\n      0x00\n        /* \"#utility.yul\":12466:12475   */\n      dup4\n        /* \"#utility.yul\":12462:12479   */\n      add\n        /* \"#utility.yul\":12455:12502   */\n      mstore\n        /* \"#utility.yul\":12519:12650   */\n      tag_465\n        /* \"#utility.yul\":12645:12649   */\n      dup2\n        /* \"#utility.yul\":12519:12650   */\n      tag_312\n      jump\t// in\n    tag_465:\n        /* \"#utility.yul\":12511:12650   */\n      swap1\n      pop\n        /* \"#utility.yul\":12238:12657   */\n      swap2\n      swap1\n      pop\n      jump\t// out\n        /* \"#utility.yul\":12663:12840   */\n    tag_313:\n        /* \"#utility.yul\":12803:12832   */\n      0x4272616e6420697320616c726561647920726567697374657265640000000000\n        /* \"#utility.yul\":12799:12800   */\n      0x00\n        /* \"#utility.yul\":12791:12797   */\n      dup3\n        /* \"#utility.yul\":12787:12801   */\n      add\n        /* \"#utility.yul\":12780:12833   */\n      mstore\n        /* \"#utility.yul\":12663:12840   */\n      pop\n      jump\t// out\n        /* \"#utility.yul\":12846:13212   */\n    tag_314:\n        /* \"#utility.yul\":12988:12991   */\n      0x00\n        /* \"#utility.yul\":13009:13076   */\n      tag_468\n        /* \"#utility.yul\":13073:13075   */\n      0x1b\n        /* \"#utility.yul\":13068:13071   */\n      dup4\n        /* \"#utility.yul\":13009:13076   */\n      tag_302\n      jump\t// in\n    tag_468:\n        /* \"#utility.yul\":13002:13076   */\n      swap2\n      pop\n        /* \"#utility.yul\":13085:13178   */\n      tag_469\n        /* \"#utility.yul\":13174:13177   */\n      dup3\n        /* \"#utility.yul\":13085:13178   */\n      tag_313\n      jump\t// in\n    tag_469:\n        /* \"#utility.yul\":13203:13205   */\n      0x20\n        /* \"#utility.yul\":13198:13201   */\n      dup3\n        /* \"#utility.yul\":13194:13206   */\n      add\n        /* \"#utility.yul\":13187:13206   */\n      swap1\n      pop\n        /* \"#utility.yul\":12846:13212   */\n      swap2\n      swap1\n      pop\n      jump\t// out\n        /* \"#utility.yul\":13218:13637   */\n    tag_147:\n        /* \"#utility.yul\":13384:13388   */\n      0x00\n        /* \"#utility.yul\":13422:13424   */\n      0x20\n        /* \"#utility.yul\":13411:13420   */\n      dup3\n        /* \"#utility.yul\":13407:13425   */\n      add\n        /* \"#utility.yul\":13399:13425   */\n      swap1\n      pop\n        /* \"#utility.yul\":13471:13480   */\n      dup2\n        /* \"#utility.yul\":13465:13469   */\n      dup2\n        /* \"#utility.yul\":13461:13481   */\n      sub\n        /* \"#utility.yul\":13457:13458   */\n      0x00\n        /* \"#utility.yul\":13446:13455   */\n      dup4\n        /* \"#utility.yul\":13442:13459   */\n      add\n        /* \"#utility.yul\":13435:13482   */\n      mstore\n        /* \"#utility.yul\":13499:13630   */\n      tag_471\n        /* \"#utility.yul\":13625:13629   */\n      dup2\n        /* \"#utility.yul\":13499:13630   */\n      tag_314\n      jump\t// in\n    tag_471:\n        /* \"#utility.yul\":13491:13630   */\n      swap1\n      pop\n        /* \"#utility.yul\":13218:13637   */\n      swap2\n      swap1\n      pop\n      jump\t// out\n        /* \"#utility.yul\":13643:14150   */\n    tag_151:\n        /* \"#utility.yul\":13722:13728   */\n      0x00\n        /* \"#utility.yul\":13730:13736   */\n      0x00\n        /* \"#utility.yul\":13779:13781   */\n      0x40\n        /* \"#utility.yul\":13767:13776   */\n      dup4\n        /* \"#utility.yul\":13758:13765   */\n      dup6\n        /* \"#utility.yul\":13754:13777   */\n      sub\n        /* \"#utility.yul\":13750:13782   */\n      slt\n        /* \"#utility.yul\":13747:13866   */\n      iszero\n      tag_473\n      jumpi\n        /* \"#utility.yul\":13785:13864   */\n      tag_474\n      tag_278\n      jump\t// in\n    tag_474:\n        /* \"#utility.yul\":13747:13866   */\n    tag_473:\n        /* \"#utility.yul\":13905:13906   */\n      0x00\n        /* \"#utility.yul\":13930:13994   */\n      tag_475\n        /* \"#utility.yul\":13986:13993   */\n      dup6\n        /* \"#utility.yul\":13977:13983   */\n      dup3\n        /* \"#utility.yul\":13966:13975   */\n      dup7\n        /* \"#utility.yul\":13962:13984   */\n      add\n        /* \"#utility.yul\":13930:13994   */\n      tag_305\n      jump\t// in\n    tag_475:\n        /* \"#utility.yul\":13920:13994   */\n      swap3\n      pop\n        /* \"#utility.yul\":13876:14004   */\n      pop\n        /* \"#utility.yul\":14043:14045   */\n      0x20\n        /* \"#utility.yul\":14069:14133   */\n      tag_476\n        /* \"#utility.yul\":14125:14132   */\n      dup6\n        /* \"#utility.yul\":14116:14122   */\n      dup3\n        /* \"#utility.yul\":14105:14114   */\n      dup7\n        /* \"#utility.yul\":14101:14123   */\n      add\n        /* \"#utility.yul\":14069:14133   */\n      tag_305\n      jump\t// in\n    tag_476:\n        /* \"#utility.yul\":14059:14133   */\n      swap2\n      pop\n        /* \"#utility.yul\":14014:14143   */\n      pop\n        /* \"#utility.yul\":13643:14150   */\n      swap3\n      pop\n      swap3\n      swap1\n      pop\n      jump\t// out\n        /* \"#utility.yul\":14156:14507   */\n    tag_156:\n        /* \"#utility.yul\":14226:14232   */\n      0x00\n        /* \"#utility.yul\":14275:14277   */\n      0x20\n        /* \"#utility.yul\":14263:14272   */\n      dup3\n        /* \"#utility.yul\":14254:14261   */\n      dup5\n        /* \"#utility.yul\":14250:14273   */\n      sub\n        /* \"#utility.yul\":14246:14278   */\n      slt\n        /* \"#utility.yul\":14243:14362   */\n      iszero\n      tag_478\n      jumpi\n        /* \"#utility.yul\":14281:14360   */\n      tag_479\n      tag_278\n      jump\t// in\n    tag_479:\n        /* \"#utility.yul\":14243:14362   */\n    tag_478:\n        /* \"#utility.yul\":14401:14402   */\n      0x00\n        /* \"#utility.yul\":14426:14490   */\n      tag_480\n        /* \"#utility.yul\":14482:14489   */\n      dup5\n        /* \"#utility.yul\":14473:14479   */\n      dup3\n        /* \"#utility.yul\":14462:14471   */\n      dup6\n        /* \"#utility.yul\":14458:14480   */\n      add\n        /* \"#utility.yul\":14426:14490   */\n      tag_305\n      jump\t// in\n    tag_480:\n        /* \"#utility.yul\":14416:14490   */\n      swap2\n      pop\n        /* \"#utility.yul\":14372:14500   */\n      pop\n        /* \"#utility.yul\":14156:14507   */\n      swap3\n      swap2\n      pop\n      pop\n      jump\t// out\n        /* \"#utility.yul\":14513:14682   */\n    tag_315:\n        /* \"#utility.yul\":14653:14674   */\n      0x496e73756666696369656e7420746f6b656e7300000000000000000000000000\n        /* \"#utility.yul\":14649:14650   */\n      0x00\n        /* \"#utility.yul\":14641:14647   */\n      dup3\n        /* \"#utility.yul\":14637:14651   */\n      add\n        /* \"#utility.yul\":14630:14675   */\n      mstore\n        /* \"#utility.yul\":14513:14682   */\n      pop\n      jump\t// out\n        /* \"#utility.yul\":14688:15054   */\n    tag_316:\n        /* \"#utility.yul\":14830:14833   */\n      0x00\n        /* \"#utility.yul\":14851:14918   */\n      tag_483\n        /* \"#utility.yul\":14915:14917   */\n      0x13\n        /* \"#utility.yul\":14910:14913   */\n      dup4\n        /* \"#utility.yul\":14851:14918   */\n      tag_302\n      jump\t// in\n    tag_483:\n        /* \"#utility.yul\":14844:14918   */\n      swap2\n      pop\n        /* \"#utility.yul\":14927:15020   */\n      tag_484\n        /* \"#utility.yul\":15016:15019   */\n      dup3\n        /* \"#utility.yul\":14927:15020   */\n      tag_315\n      jump\t// in\n    tag_484:\n        /* \"#utility.yul\":15045:15047   */\n      0x20\n        /* \"#utility.yul\":15040:15043   */\n      dup3\n        /* \"#utility.yul\":15036:15048   */\n      add\n        /* \"#utility.yul\":15029:15048   */\n      swap1\n      pop\n        /* \"#utility.yul\":14688:15054   */\n      swap2\n      swap1\n      pop\n      jump\t// out\n        /* \"#utility.yul\":15060:15479   */\n    tag_159:\n        /* \"#utility.yul\":15226:15230   */\n      0x00\n        /* \"#utility.yul\":15264:15266   */\n      0x20\n        /* \"#utility.yul\":15253:15262   */\n      dup3\n        /* \"#utility.yul\":15249:15267   */\n      add\n        /* \"#utility.yul\":15241:15267   */\n      swap1\n      pop\n        /* \"#utility.yul\":15313:15322   */\n      dup2\n        /* \"#utility.yul\":15307:15311   */\n      dup2\n        /* \"#utility.yul\":15303:15323   */\n      sub\n        /* \"#utility.yul\":15299:15300   */\n      0x00\n        /* \"#utility.yul\":15288:15297   */\n      dup4\n        /* \"#utility.yul\":15284:15301   */\n      add\n        /* \"#utility.yul\":15277:15324   */\n      mstore\n        /* \"#utility.yul\":15341:15472   */\n      tag_486\n        /* \"#utility.yul\":15467:15471   */\n      dup2\n        /* \"#utility.yul\":15341:15472   */\n      tag_316\n      jump\t// in\n    tag_486:\n        /* \"#utility.yul\":15333:15472   */\n      swap1\n      pop\n        /* \"#utility.yul\":15060:15479   */\n      swap2\n      swap1\n      pop\n      jump\t// out\n        /* \"#utility.yul\":15485:15654   */\n    tag_317:\n        /* \"#utility.yul\":15625:15646   */\n      0x4f6e6c79207665726966696564206272616e6400000000000000000000000000\n        /* \"#utility.yul\":15621:15622   */\n      0x00\n        /* \"#utility.yul\":15613:15619   */\n      dup3\n        /* \"#utility.yul\":15609:15623   */\n      add\n        /* \"#utility.yul\":15602:15647   */\n      mstore\n        /* \"#utility.yul\":15485:15654   */\n      pop\n      jump\t// out\n        /* \"#utility.yul\":15660:16026   */\n    tag_318:\n        /* \"#utility.yul\":15802:15805   */\n      0x00\n        /* \"#utility.yul\":15823:15890   */\n      tag_489\n        /* \"#utility.yul\":15887:15889   */\n      0x13\n        /* \"#utility.yul\":15882:15885   */\n      dup4\n        /* \"#utility.yul\":15823:15890   */\n      tag_302\n      jump\t// in\n    tag_489:\n        /* \"#utility.yul\":15816:15890   */\n      swap2\n      pop\n        /* \"#utility.yul\":15899:15992   */\n      tag_490\n        /* \"#utility.yul\":15988:15991   */\n      dup3\n        /* \"#utility.yul\":15899:15992   */\n      tag_317\n      jump\t// in\n    tag_490:\n        /* \"#utility.yul\":16017:16019   */\n      0x20\n        /* \"#utility.yul\":16012:16015   */\n      dup3\n        /* \"#utility.yul\":16008:16020   */\n      add\n        /* \"#utility.yul\":16001:16020   */\n      swap1\n      pop\n        /* \"#utility.yul\":15660:16026   */\n      swap2\n      swap1\n      pop\n      jump\t// out\n        /* \"#utility.yul\":16032:16451   */\n    tag_170:\n        /* \"#utility.yul\":16198:16202   */\n      0x00\n        /* \"#utility.yul\":16236:16238   */\n      0x20\n        /* \"#utility.yul\":16225:16234   */\n      dup3\n        /* \"#utility.yul\":16221:16239   */\n      add\n        /* \"#utility.yul\":16213:16239   */\n      swap1\n      pop\n        /* \"#utility.yul\":16285:16294   */\n      dup2\n        /* \"#utility.yul\":16279:16283   */\n      dup2\n        /* \"#utility.yul\":16275:16295   */\n      sub\n        /* \"#utility.yul\":16271:16272   */\n      0x00\n        /* \"#utility.yul\":16260:16269   */\n      dup4\n        /* \"#utility.yul\":16256:16273   */\n      add\n        /* \"#utility.yul\":16249:16296   */\n      mstore\n        /* \"#utility.yul\":16313:16444   */\n      tag_492\n        /* \"#utility.yul\":16439:16443   */\n      dup2\n        /* \"#utility.yul\":16313:16444   */\n      tag_318\n      jump\t// in\n    tag_492:\n        /* \"#utility.yul\":16305:16444   */\n      swap1\n      pop\n        /* \"#utility.yul\":16032:16451   */\n      swap2\n      swap1\n      pop\n      jump\t// out\n        /* \"#utility.yul\":16457:16628   */\n    tag_319:\n        /* \"#utility.yul\":16597:16620   */\n      0x496e76616c6964206167656e7420616464726573730000000000000000000000\n        /* \"#utility.yul\":16593:16594   */\n      0x00\n        /* \"#utility.yul\":16585:16591   */\n      dup3\n        /* \"#utility.yul\":16581:16595   */\n      add\n        /* \"#utility.yul\":16574:16621   */\n      mstore\n        /* \"#utility.yul\":16457:16628   */\n      pop\n      jump\t// out\n        /* \"#utility.yul\":16634:17000   */\n    tag_320:\n        /* \"#utility.yul\":16776:16779   */\n      0x00\n        /* \"#utility.yul\":16797:16864   */\n      tag_495\n        /* \"#utility.yul\":16861:16863   */\n      0x15\n        /* \"#utility.yul\":16856:16859   */\n      dup4\n        /* \"#utility.yul\":16797:16864   */\n      tag_302\n      jump\t// in\n    tag_495:\n        /* \"#utility.yul\":16790:16864   */\n      swap2\n      pop\n        /* \"#utility.yul\":16873:16966   */\n      tag_496\n        /* \"#utility.yul\":16962:16965   */\n      dup3\n        /* \"#utility.yul\":16873:16966   */\n      tag_319\n      jump\t// in\n    tag_496:\n        /* \"#utility.yul\":16991:16993   */\n      0x20\n        /* \"#utility.yul\":16986:16989   */\n      dup3\n        /* \"#utility.yul\":16982:16994   */\n      add\n        /* \"#utility.yul\":16975:16994   */\n      swap1\n      pop\n        /* \"#utility.yul\":16634:17000   */\n      swap2\n      swap1\n      pop\n      jump\t// out\n        /* \"#utility.yul\":17006:17425   */\n    tag_173:\n        /* \"#utility.yul\":17172:17176   */\n      0x00\n        /* \"#utility.yul\":17210:17212   */\n      0x20\n        /* \"#utility.yul\":17199:17208   */\n      dup3\n        /* \"#utility.yul\":17195:17213   */\n      add\n        /* \"#utility.yul\":17187:17213   */\n      swap1\n      pop\n        /* \"#utility.yul\":17259:17268   */\n      dup2\n        /* \"#utility.yul\":17253:17257   */\n      dup2\n        /* \"#utility.yul\":17249:17269   */\n      sub\n        /* \"#utility.yul\":17245:17246   */\n      0x00\n        /* \"#utility.yul\":17234:17243   */\n      dup4\n        /* \"#utility.yul\":17230:17247   */\n      add\n        /* \"#utility.yul\":17223:17270   */\n      mstore\n        /* \"#utility.yul\":17287:17418   */\n      tag_498\n        /* \"#utility.yul\":17413:17417   */\n      dup2\n        /* \"#utility.yul\":17287:17418   */\n      tag_320\n      jump\t// in\n    tag_498:\n        /* \"#utility.yul\":17279:17418   */\n      swap1\n      pop\n        /* \"#utility.yul\":17006:17425   */\n      swap2\n      swap1\n      pop\n      jump\t// out\n        /* \"#utility.yul\":17431:17607   */\n    tag_321:\n        /* \"#utility.yul\":17571:17599   */\n      0x4167656e7420697320616c7265616479206120706172746e6572000000000000\n        /* \"#utility.yul\":17567:17568   */\n      0x00\n        /* \"#utility.yul\":17559:17565   */\n      dup3\n        /* \"#utility.yul\":17555:17569   */\n      add\n        /* \"#utility.yul\":17548:17600   */\n      mstore\n        /* \"#utility.yul\":17431:17607   */\n      pop\n      jump\t// out\n        /* \"#utility.yul\":17613:17979   */\n    tag_322:\n        /* \"#utility.yul\":17755:17758   */\n      0x00\n        /* \"#utility.yul\":17776:17843   */\n      tag_501\n        /* \"#utility.yul\":17840:17842   */\n      0x1a\n        /* \"#utility.yul\":17835:17838   */\n      dup4\n        /* \"#utility.yul\":17776:17843   */\n      tag_302\n      jump\t// in\n    tag_501:\n        /* \"#utility.yul\":17769:17843   */\n      swap2\n      pop\n        /* \"#utility.yul\":17852:17945   */\n      tag_502\n        /* \"#utility.yul\":17941:17944   */\n      dup3\n        /* \"#utility.yul\":17852:17945   */\n      tag_321\n      jump\t// in\n    tag_502:\n        /* \"#utility.yul\":17970:17972   */\n      0x20\n        /* \"#utility.yul\":17965:17968   */\n      dup3\n        /* \"#utility.yul\":17961:17973   */\n      add\n        /* \"#utility.yul\":17954:17973   */\n      swap1\n      pop\n        /* \"#utility.yul\":17613:17979   */\n      swap2\n      swap1\n      pop\n      jump\t// out\n        /* \"#utility.yul\":17985:18404   */\n    tag_177:\n        /* \"#utility.yul\":18151:18155   */\n      0x00\n        /* \"#utility.yul\":18189:18191   */\n      0x20\n        /* \"#utility.yul\":18178:18187   */\n      dup3\n        /* \"#utility.yul\":18174:18192   */\n      add\n        /* \"#utility.yul\":18166:18192   */\n      swap1\n      pop\n        /* \"#utility.yul\":18238:18247   */\n      dup2\n        /* \"#utility.yul\":18232:18236   */\n      dup2\n        /* \"#utility.yul\":18228:18248   */\n      sub\n        /* \"#utility.yul\":18224:18225   */\n      0x00\n        /* \"#utility.yul\":18213:18222   */\n      dup4\n        /* \"#utility.yul\":18209:18226   */\n      add\n        /* \"#utility.yul\":18202:18249   */\n      mstore\n        /* \"#utility.yul\":18266:18397   */\n      tag_504\n        /* \"#utility.yul\":18392:18396   */\n      dup2\n        /* \"#utility.yul\":18266:18397   */\n      tag_322\n      jump\t// in\n    tag_504:\n        /* \"#utility.yul\":18258:18397   */\n      swap1\n      pop\n        /* \"#utility.yul\":17985:18404   */\n      swap2\n      swap1\n      pop\n      jump\t// out\n        /* \"#utility.yul\":18410:18590   */\n    tag_323:\n        /* \"#utility.yul\":18458:18535   */\n      0x4e487b7100000000000000000000000000000000000000000000000000000000\n        /* \"#utility.yul\":18455:18456   */\n      0x00\n        /* \"#utility.yul\":18448:18536   */\n      mstore\n        /* \"#utility.yul\":18555:18559   */\n      0x11\n        /* \"#utility.yul\":18552:18553   */\n      0x04\n        /* \"#utility.yul\":18545:18560   */\n      mstore\n        /* \"#utility.yul\":18579:18583   */\n      0x24\n        /* \"#utility.yul\":18576:18577   */\n      0x00\n        /* \"#utility.yul\":18569:18584   */\n      revert\n        /* \"#utility.yul\":18596:18790   */\n    tag_188:\n        /* \"#utility.yul\":18636:18640   */\n      0x00\n        /* \"#utility.yul\":18656:18676   */\n      tag_507\n        /* \"#utility.yul\":18674:18675   */\n      dup3\n        /* \"#utility.yul\":18656:18676   */\n      tag_284\n      jump\t// in\n    tag_507:\n        /* \"#utility.yul\":18651:18676   */\n      swap2\n      pop\n        /* \"#utility.yul\":18690:18710   */\n      tag_508\n        /* \"#utility.yul\":18708:18709   */\n      dup4\n        /* \"#utility.yul\":18690:18710   */\n      tag_284\n      jump\t// in\n    tag_508:\n        /* \"#utility.yul\":18685:18710   */\n      swap3\n      pop\n        /* \"#utility.yul\":18734:18735   */\n      dup3\n        /* \"#utility.yul\":18731:18732   */\n      dup3\n        /* \"#utility.yul\":18727:18736   */\n      sub\n        /* \"#utility.yul\":18719:18736   */\n      swap1\n      pop\n        /* \"#utility.yul\":18758:18759   */\n      dup2\n        /* \"#utility.yul\":18752:18756   */\n      dup2\n        /* \"#utility.yul\":18749:18760   */\n      gt\n        /* \"#utility.yul\":18746:18783   */\n      iszero\n      tag_509\n      jumpi\n        /* \"#utility.yul\":18763:18781   */\n      tag_510\n      tag_323\n      jump\t// in\n    tag_510:\n        /* \"#utility.yul\":18746:18783   */\n    tag_509:\n        /* \"#utility.yul\":18596:18790   */\n      swap3\n      swap2\n      pop\n      pop\n      jump\t// out\n        /* \"#utility.yul\":18796:18910   */\n    tag_324:\n      pop\n      jump\t// out\n        /* \"#utility.yul\":18916:19314   */\n    tag_325:\n        /* \"#utility.yul\":19075:19078   */\n      0x00\n        /* \"#utility.yul\":19096:19179   */\n      tag_513\n        /* \"#utility.yul\":19177:19178   */\n      0x00\n        /* \"#utility.yul\":19172:19175   */\n      dup4\n        /* \"#utility.yul\":19096:19179   */\n      tag_308\n      jump\t// in\n    tag_513:\n        /* \"#utility.yul\":19089:19179   */\n      swap2\n      pop\n        /* \"#utility.yul\":19188:19281   */\n      tag_514\n        /* \"#utility.yul\":19277:19280   */\n      dup3\n        /* \"#utility.yul\":19188:19281   */\n      tag_324\n      jump\t// in\n    tag_514:\n        /* \"#utility.yul\":19306:19307   */\n      0x00\n        /* \"#utility.yul\":19301:19304   */\n      dup3\n        /* \"#utility.yul\":19297:19308   */\n      add\n        /* \"#utility.yul\":19290:19308   */\n      swap1\n      pop\n        /* \"#utility.yul\":18916:19314   */\n      swap2\n      swap1\n      pop\n      jump\t// out\n        /* \"#utility.yul\":19320:19699   */\n    tag_190:\n        /* \"#utility.yul\":19504:19507   */\n      0x00\n        /* \"#utility.yul\":19526:19673   */\n      tag_516\n        /* \"#utility.yul\":19669:19672   */\n      dup3\n        /* \"#utility.yul\":19526:19673   */\n      tag_325\n      jump\t// in\n    tag_516:\n        /* \"#utility.yul\":19519:19673   */\n      swap2\n      pop\n        /* \"#utility.yul\":19690:19693   */\n      dup2\n        /* \"#utility.yul\":19683:19693   */\n      swap1\n      pop\n        /* \"#utility.yul\":19320:19699   */\n      swap2\n      swap1\n      pop\n      jump\t// out\n        /* \"#utility.yul\":19705:19868   */\n    tag_326:\n        /* \"#utility.yul\":19845:19860   */\n      0x526566756e64206661696c656400000000000000000000000000000000000000\n        /* \"#utility.yul\":19841:19842   */\n      0x00\n        /* \"#utility.yul\":19833:19839   */\n      dup3\n        /* \"#utility.yul\":19829:19843   */\n      add\n        /* \"#utility.yul\":19822:19861   */\n      mstore\n        /* \"#utility.yul\":19705:19868   */\n      pop\n      jump\t// out\n        /* \"#utility.yul\":19874:20240   */\n    tag_327:\n        /* \"#utility.yul\":20016:20019   */\n      0x00\n        /* \"#utility.yul\":20037:20104   */\n      tag_519\n        /* \"#utility.yul\":20101:20103   */\n      0x0d\n        /* \"#utility.yul\":20096:20099   */\n      dup4\n        /* \"#utility.yul\":20037:20104   */\n      tag_302\n      jump\t// in\n    tag_519:\n        /* \"#utility.yul\":20030:20104   */\n      swap2\n      pop\n        /* \"#utility.yul\":20113:20206   */\n      tag_520\n        /* \"#utility.yul\":20202:20205   */\n      dup3\n        /* \"#utility.yul\":20113:20206   */\n      tag_326\n      jump\t// in\n    tag_520:\n        /* \"#utility.yul\":20231:20233   */\n      0x20\n        /* \"#utility.yul\":20226:20229   */\n      dup3\n        /* \"#utility.yul\":20222:20234   */\n      add\n        /* \"#utility.yul\":20215:20234   */\n      swap1\n      pop\n        /* \"#utility.yul\":19874:20240   */\n      swap2\n      swap1\n      pop\n      jump\t// out\n        /* \"#utility.yul\":20246:20665   */\n    tag_196:\n        /* \"#utility.yul\":20412:20416   */\n      0x00\n        /* \"#utility.yul\":20450:20452   */\n      0x20\n        /* \"#utility.yul\":20439:20448   */\n      dup3\n        /* \"#utility.yul\":20435:20453   */\n      add\n        /* \"#utility.yul\":20427:20453   */\n      swap1\n      pop\n        /* \"#utility.yul\":20499:20508   */\n      dup2\n        /* \"#utility.yul\":20493:20497   */\n      dup2\n        /* \"#utility.yul\":20489:20509   */\n      sub\n        /* \"#utility.yul\":20485:20486   */\n      0x00\n        /* \"#utility.yul\":20474:20483   */\n      dup4\n        /* \"#utility.yul\":20470:20487   */\n      add\n        /* \"#utility.yul\":20463:20510   */\n      mstore\n        /* \"#utility.yul\":20527:20658   */\n      tag_522\n        /* \"#utility.yul\":20653:20657   */\n      dup2\n        /* \"#utility.yul\":20527:20658   */\n      tag_327\n      jump\t// in\n    tag_522:\n        /* \"#utility.yul\":20519:20658   */\n      swap1\n      pop\n        /* \"#utility.yul\":20246:20665   */\n      swap2\n      swap1\n      pop\n      jump\t// out\n        /* \"#utility.yul\":20671:20843   */\n    tag_328:\n        /* \"#utility.yul\":20811:20835   */\n      0x5472616e7366657220746f2044414f206661696c656400000000000000000000\n        /* \"#utility.yul\":20807:20808   */\n      0x00\n        /* \"#utility.yul\":20799:20805   */\n      dup3\n        /* \"#utility.yul\":20795:20809   */\n      add\n        /* \"#utility.yul\":20788:20836   */\n      mstore\n        /* \"#utility.yul\":20671:20843   */\n      pop\n      jump\t// out\n        /* \"#utility.yul\":20849:21215   */\n    tag_329:\n        /* \"#utility.yul\":20991:20994   */\n      0x00\n        /* \"#utility.yul\":21012:21079   */\n      tag_525\n        /* \"#utility.yul\":21076:21078   */\n      0x16\n        /* \"#utility.yul\":21071:21074   */\n      dup4\n        /* \"#utility.yul\":21012:21079   */\n      tag_302\n      jump\t// in\n    tag_525:\n        /* \"#utility.yul\":21005:21079   */\n      swap2\n      pop\n        /* \"#utility.yul\":21088:21181   */\n      tag_526\n        /* \"#utility.yul\":21177:21180   */\n      dup3\n        /* \"#utility.yul\":21088:21181   */\n      tag_328\n      jump\t// in\n    tag_526:\n        /* \"#utility.yul\":21206:21208   */\n      0x20\n        /* \"#utility.yul\":21201:21204   */\n      dup3\n        /* \"#utility.yul\":21197:21209   */\n      add\n        /* \"#utility.yul\":21190:21209   */\n      swap1\n      pop\n        /* \"#utility.yul\":20849:21215   */\n      swap2\n      swap1\n      pop\n      jump\t// out\n        /* \"#utility.yul\":21221:21640   */\n    tag_203:\n        /* \"#utility.yul\":21387:21391   */\n      0x00\n        /* \"#utility.yul\":21425:21427   */\n      0x20\n        /* \"#utility.yul\":21414:21423   */\n      dup3\n        /* \"#utility.yul\":21410:21428   */\n      add\n        /* \"#utility.yul\":21402:21428   */\n      swap1\n      pop\n        /* \"#utility.yul\":21474:21483   */\n      dup2\n        /* \"#utility.yul\":21468:21472   */\n      dup2\n        /* \"#utility.yul\":21464:21484   */\n      sub\n        /* \"#utility.yul\":21460:21461   */\n      0x00\n        /* \"#utility.yul\":21449:21458   */\n      dup4\n        /* \"#utility.yul\":21445:21462   */\n      add\n        /* \"#utility.yul\":21438:21485   */\n      mstore\n        /* \"#utility.yul\":21502:21633   */\n      tag_528\n        /* \"#utility.yul\":21628:21632   */\n      dup2\n        /* \"#utility.yul\":21502:21633   */\n      tag_329\n      jump\t// in\n    tag_528:\n        /* \"#utility.yul\":21494:21633   */\n      swap1\n      pop\n        /* \"#utility.yul\":21221:21640   */\n      swap2\n      swap1\n      pop\n      jump\t// out\n        /* \"#utility.yul\":21646:21762   */\n    tag_330:\n        /* \"#utility.yul\":21716:21737   */\n      tag_530\n        /* \"#utility.yul\":21731:21736   */\n      dup2\n        /* \"#utility.yul\":21716:21737   */\n      tag_288\n      jump\t// in\n    tag_530:\n        /* \"#utility.yul\":21709:21714   */\n      dup2\n        /* \"#utility.yul\":21706:21738   */\n      eq\n        /* \"#utility.yul\":21696:21756   */\n      tag_531\n      jumpi\n        /* \"#utility.yul\":21752:21753   */\n      0x00\n        /* \"#utility.yul\":21749:21750   */\n      0x00\n        /* \"#utility.yul\":21742:21754   */\n      revert\n        /* \"#utility.yul\":21696:21756   */\n    tag_531:\n        /* \"#utility.yul\":21646:21762   */\n      pop\n      jump\t// out\n        /* \"#utility.yul\":21768:21905   */\n    tag_331:\n        /* \"#utility.yul\":21822:21827   */\n      0x00\n        /* \"#utility.yul\":21853:21859   */\n      dup2\n        /* \"#utility.yul\":21847:21860   */\n      mload\n        /* \"#utility.yul\":21838:21860   */\n      swap1\n      pop\n        /* \"#utility.yul\":21869:21899   */\n      tag_533\n        /* \"#utility.yul\":21893:21898   */\n      dup2\n        /* \"#utility.yul\":21869:21899   */\n      tag_330\n      jump\t// in\n    tag_533:\n        /* \"#utility.yul\":21768:21905   */\n      swap3\n      swap2\n      pop\n      pop\n      jump\t// out\n        /* \"#utility.yul\":21911:22256   */\n    tag_210:\n        /* \"#utility.yul\":21978:21984   */\n      0x00\n        /* \"#utility.yul\":22027:22029   */\n      0x20\n        /* \"#utility.yul\":22015:22024   */\n      dup3\n        /* \"#utility.yul\":22006:22013   */\n      dup5\n        /* \"#utility.yul\":22002:22025   */\n      sub\n        /* \"#utility.yul\":21998:22030   */\n      slt\n        /* \"#utility.yul\":21995:22114   */\n      iszero\n      tag_535\n      jumpi\n        /* \"#utility.yul\":22033:22112   */\n      tag_536\n      tag_278\n      jump\t// in\n    tag_536:\n        /* \"#utility.yul\":21995:22114   */\n    tag_535:\n        /* \"#utility.yul\":22153:22154   */\n      0x00\n        /* \"#utility.yul\":22178:22239   */\n      tag_537\n        /* \"#utility.yul\":22231:22238   */\n      dup5\n        /* \"#utility.yul\":22222:22228   */\n      dup3\n        /* \"#utility.yul\":22211:22220   */\n      dup6\n        /* \"#utility.yul\":22207:22229   */\n      add\n        /* \"#utility.yul\":22178:22239   */\n      tag_331\n      jump\t// in\n    tag_537:\n        /* \"#utility.yul\":22168:22239   */\n      swap2\n      pop\n        /* \"#utility.yul\":22124:22249   */\n      pop\n        /* \"#utility.yul\":21911:22256   */\n      swap3\n      swap2\n      pop\n      pop\n      jump\t// out\n        /* \"#utility.yul\":22262:22425   */\n    tag_332:\n        /* \"#utility.yul\":22402:22417   */\n      0x4f6e6c7920726576696577657200000000000000000000000000000000000000\n        /* \"#utility.yul\":22398:22399   */\n      0x00\n        /* \"#utility.yul\":22390:22396   */\n      dup3\n        /* \"#utility.yul\":22386:22400   */\n      add\n        /* \"#utility.yul\":22379:22418   */\n      mstore\n        /* \"#utility.yul\":22262:22425   */\n      pop\n      jump\t// out\n        /* \"#utility.yul\":22431:22797   */\n    tag_333:\n        /* \"#utility.yul\":22573:22576   */\n      0x00\n        /* \"#utility.yul\":22594:22661   */\n      tag_540\n        /* \"#utility.yul\":22658:22660   */\n      0x0d\n        /* \"#utility.yul\":22653:22656   */\n      dup4\n        /* \"#utility.yul\":22594:22661   */\n      tag_302\n      jump\t// in\n    tag_540:\n        /* \"#utility.yul\":22587:22661   */\n      swap2\n      pop\n        /* \"#utility.yul\":22670:22763   */\n      tag_541\n        /* \"#utility.yul\":22759:22762   */\n      dup3\n        /* \"#utility.yul\":22670:22763   */\n      tag_332\n      jump\t// in\n    tag_541:\n        /* \"#utility.yul\":22788:22790   */\n      0x20\n        /* \"#utility.yul\":22783:22786   */\n      dup3\n        /* \"#utility.yul\":22779:22791   */\n      add\n        /* \"#utility.yul\":22772:22791   */\n      swap1\n      pop\n        /* \"#utility.yul\":22431:22797   */\n      swap2\n      swap1\n      pop\n      jump\t// out\n        /* \"#utility.yul\":22803:23222   */\n    tag_213:\n        /* \"#utility.yul\":22969:22973   */\n      0x00\n        /* \"#utility.yul\":23007:23009   */\n      0x20\n        /* \"#utility.yul\":22996:23005   */\n      dup3\n        /* \"#utility.yul\":22992:23010   */\n      add\n        /* \"#utility.yul\":22984:23010   */\n      swap1\n      pop\n        /* \"#utility.yul\":23056:23065   */\n      dup2\n        /* \"#utility.yul\":23050:23054   */\n      dup2\n        /* \"#utility.yul\":23046:23066   */\n      sub\n        /* \"#utility.yul\":23042:23043   */\n      0x00\n        /* \"#utility.yul\":23031:23040   */\n      dup4\n        /* \"#utility.yul\":23027:23044   */\n      add\n        /* \"#utility.yul\":23020:23067   */\n      mstore\n        /* \"#utility.yul\":23084:23215   */\n      tag_543\n        /* \"#utility.yul\":23210:23214   */\n      dup2\n        /* \"#utility.yul\":23084:23215   */\n      tag_333\n      jump\t// in\n    tag_543:\n        /* \"#utility.yul\":23076:23215   */\n      swap1\n      pop\n        /* \"#utility.yul\":22803:23222   */\n      swap2\n      swap1\n      pop\n      jump\t// out\n        /* \"#utility.yul\":23228:23371   */\n    tag_334:\n        /* \"#utility.yul\":23285:23290   */\n      0x00\n        /* \"#utility.yul\":23316:23322   */\n      dup2\n        /* \"#utility.yul\":23310:23323   */\n      mload\n        /* \"#utility.yul\":23301:23323   */\n      swap1\n      pop\n        /* \"#utility.yul\":23332:23365   */\n      tag_545\n        /* \"#utility.yul\":23359:23364   */\n      dup2\n        /* \"#utility.yul\":23332:23365   */\n      tag_282\n      jump\t// in\n    tag_545:\n        /* \"#utility.yul\":23228:23371   */\n      swap3\n      swap2\n      pop\n      pop\n      jump\t// out\n        /* \"#utility.yul\":23377:23728   */\n    tag_218:\n        /* \"#utility.yul\":23447:23453   */\n      0x00\n        /* \"#utility.yul\":23496:23498   */\n      0x20\n        /* \"#utility.yul\":23484:23493   */\n      dup3\n        /* \"#utility.yul\":23475:23482   */\n      dup5\n        /* \"#utility.yul\":23471:23494   */\n      sub\n        /* \"#utility.yul\":23467:23499   */\n      slt\n        /* \"#utility.yul\":23464:23583   */\n      iszero\n      tag_547\n      jumpi\n        /* \"#utility.yul\":23502:23581   */\n      tag_548\n      tag_278\n      jump\t// in\n    tag_548:\n        /* \"#utility.yul\":23464:23583   */\n    tag_547:\n        /* \"#utility.yul\":23622:23623   */\n      0x00\n        /* \"#utility.yul\":23647:23711   */\n      tag_549\n        /* \"#utility.yul\":23703:23710   */\n      dup5\n        /* \"#utility.yul\":23694:23700   */\n      dup3\n        /* \"#utility.yul\":23683:23692   */\n      dup6\n        /* \"#utility.yul\":23679:23701   */\n      add\n        /* \"#utility.yul\":23647:23711   */\n      tag_334\n      jump\t// in\n    tag_549:\n        /* \"#utility.yul\":23637:23711   */\n      swap2\n      pop\n        /* \"#utility.yul\":23593:23721   */\n      pop\n        /* \"#utility.yul\":23377:23728   */\n      swap3\n      swap2\n      pop\n      pop\n      jump\t// out\n        /* \"#utility.yul\":23734:23900   */\n    tag_335:\n        /* \"#utility.yul\":23874:23892   */\n      0x496e76616c696420766572696669657200000000000000000000000000000000\n        /* \"#utility.yul\":23870:23871   */\n      0x00\n        /* \"#utility.yul\":23862:23868   */\n      dup3\n        /* \"#utility.yul\":23858:23872   */\n      add\n        /* \"#utility.yul\":23851:23893   */\n      mstore\n        /* \"#utility.yul\":23734:23900   */\n      pop\n      jump\t// out\n        /* \"#utility.yul\":23906:24272   */\n    tag_336:\n        /* \"#utility.yul\":24048:24051   */\n      0x00\n        /* \"#utility.yul\":24069:24136   */\n      tag_552\n        /* \"#utility.yul\":24133:24135   */\n      0x10\n        /* \"#utility.yul\":24128:24131   */\n      dup4\n        /* \"#utility.yul\":24069:24136   */\n      tag_302\n      jump\t// in\n    tag_552:\n        /* \"#utility.yul\":24062:24136   */\n      swap2\n      pop\n        /* \"#utility.yul\":24145:24238   */\n      tag_553\n        /* \"#utility.yul\":24234:24237   */\n      dup3\n        /* \"#utility.yul\":24145:24238   */\n      tag_335\n      jump\t// in\n    tag_553:\n        /* \"#utility.yul\":24263:24265   */\n      0x20\n        /* \"#utility.yul\":24258:24261   */\n      dup3\n        /* \"#utility.yul\":24254:24266   */\n      add\n        /* \"#utility.yul\":24247:24266   */\n      swap1\n      pop\n        /* \"#utility.yul\":23906:24272   */\n      swap2\n      swap1\n      pop\n      jump\t// out\n        /* \"#utility.yul\":24278:24697   */\n    tag_222:\n        /* \"#utility.yul\":24444:24448   */\n      0x00\n        /* \"#utility.yul\":24482:24484   */\n      0x20\n        /* \"#utility.yul\":24471:24480   */\n      dup3\n        /* \"#utility.yul\":24467:24485   */\n      add\n        /* \"#utility.yul\":24459:24485   */\n      swap1\n      pop\n        /* \"#utility.yul\":24531:24540   */\n      dup2\n        /* \"#utility.yul\":24525:24529   */\n      dup2\n        /* \"#utility.yul\":24521:24541   */\n      sub\n        /* \"#utility.yul\":24517:24518   */\n      0x00\n        /* \"#utility.yul\":24506:24515   */\n      dup4\n        /* \"#utility.yul\":24502:24519   */\n      add\n        /* \"#utility.yul\":24495:24542   */\n      mstore\n        /* \"#utility.yul\":24559:24690   */\n      tag_555\n        /* \"#utility.yul\":24685:24689   */\n      dup2\n        /* \"#utility.yul\":24559:24690   */\n      tag_336\n      jump\t// in\n    tag_555:\n        /* \"#utility.yul\":24551:24690   */\n      swap1\n      pop\n        /* \"#utility.yul\":24278:24697   */\n      swap2\n      swap1\n      pop\n      jump\t// out\n        /* \"#utility.yul\":24703:24867   */\n    tag_337:\n        /* \"#utility.yul\":24843:24859   */\n      0x4e6f742072656769737465726564000000000000000000000000000000000000\n        /* \"#utility.yul\":24839:24840   */\n      0x00\n        /* \"#utility.yul\":24831:24837   */\n      dup3\n        /* \"#utility.yul\":24827:24841   */\n      add\n        /* \"#utility.yul\":24820:24860   */\n      mstore\n        /* \"#utility.yul\":24703:24867   */\n      pop\n      jump\t// out\n        /* \"#utility.yul\":24873:25239   */\n    tag_338:\n        /* \"#utility.yul\":25015:25018   */\n      0x00\n        /* \"#utility.yul\":25036:25103   */\n      tag_558\n        /* \"#utility.yul\":25100:25102   */\n      0x0e\n        /* \"#utility.yul\":25095:25098   */\n      dup4\n        /* \"#utility.yul\":25036:25103   */\n      tag_302\n      jump\t// in\n    tag_558:\n        /* \"#utility.yul\":25029:25103   */\n      swap2\n      pop\n        /* \"#utility.yul\":25112:25205   */\n      tag_559\n        /* \"#utility.yul\":25201:25204   */\n      dup3\n        /* \"#utility.yul\":25112:25205   */\n      tag_337\n      jump\t// in\n    tag_559:\n        /* \"#utility.yul\":25230:25232   */\n      0x20\n        /* \"#utility.yul\":25225:25228   */\n      dup3\n        /* \"#utility.yul\":25221:25233   */\n      add\n        /* \"#utility.yul\":25214:25233   */\n      swap1\n      pop\n        /* \"#utility.yul\":24873:25239   */\n      swap2\n      swap1\n      pop\n      jump\t// out\n        /* \"#utility.yul\":25245:25664   */\n    tag_231:\n        /* \"#utility.yul\":25411:25415   */\n      0x00\n        /* \"#utility.yul\":25449:25451   */\n      0x20\n        /* \"#utility.yul\":25438:25447   */\n      dup3\n        /* \"#utility.yul\":25434:25452   */\n      add\n        /* \"#utility.yul\":25426:25452   */\n      swap1\n      pop\n        /* \"#utility.yul\":25498:25507   */\n      dup2\n        /* \"#utility.yul\":25492:25496   */\n      dup2\n        /* \"#utility.yul\":25488:25508   */\n      sub\n        /* \"#utility.yul\":25484:25485   */\n      0x00\n        /* \"#utility.yul\":25473:25482   */\n      dup4\n        /* \"#utility.yul\":25469:25486   */\n      add\n        /* \"#utility.yul\":25462:25509   */\n      mstore\n        /* \"#utility.yul\":25526:25657   */\n      tag_561\n        /* \"#utility.yul\":25652:25656   */\n      dup2\n        /* \"#utility.yul\":25526:25657   */\n      tag_338\n      jump\t// in\n    tag_561:\n        /* \"#utility.yul\":25518:25657   */\n      swap1\n      pop\n        /* \"#utility.yul\":25245:25664   */\n      swap2\n      swap1\n      pop\n      jump\t// out\n        /* \"#utility.yul\":25670:25850   */\n    tag_239:\n        /* \"#utility.yul\":25718:25795   */\n      0x4e487b7100000000000000000000000000000000000000000000000000000000\n        /* \"#utility.yul\":25715:25716   */\n      0x00\n        /* \"#utility.yul\":25708:25796   */\n      mstore\n        /* \"#utility.yul\":25815:25819   */\n      0x41\n        /* \"#utility.yul\":25812:25813   */\n      0x04\n        /* \"#utility.yul\":25805:25820   */\n      mstore\n        /* \"#utility.yul\":25839:25843   */\n      0x24\n        /* \"#utility.yul\":25836:25837   */\n      0x00\n        /* \"#utility.yul\":25829:25844   */\n      revert\n        /* \"#utility.yul\":25856:26036   */\n    tag_246:\n        /* \"#utility.yul\":25904:25981   */\n      0x4e487b7100000000000000000000000000000000000000000000000000000000\n        /* \"#utility.yul\":25901:25902   */\n      0x00\n        /* \"#utility.yul\":25894:25982   */\n      mstore\n        /* \"#utility.yul\":26001:26005   */\n      0x32\n        /* \"#utility.yul\":25998:25999   */\n      0x04\n        /* \"#utility.yul\":25991:26006   */\n      mstore\n        /* \"#utility.yul\":26025:26029   */\n      0x24\n        /* \"#utility.yul\":26022:26023   */\n      0x00\n        /* \"#utility.yul\":26015:26030   */\n      revert\n        /* \"#utility.yul\":26042:26213   */\n    tag_339:\n        /* \"#utility.yul\":26182:26205   */\n      0x496e76616c6964206272616e6420616464726573730000000000000000000000\n        /* \"#utility.yul\":26178:26179   */\n      0x00\n        /* \"#utility.yul\":26170:26176   */\n      dup3\n        /* \"#utility.yul\":26166:26180   */\n      add\n        /* \"#utility.yul\":26159:26206   */\n      mstore\n        /* \"#utility.yul\":26042:26213   */\n      pop\n      jump\t// out\n        /* \"#utility.yul\":26219:26585   */\n    tag_340:\n        /* \"#utility.yul\":26361:26364   */\n      0x00\n        /* \"#utility.yul\":26382:26449   */\n      tag_566\n        /* \"#utility.yul\":26446:26448   */\n      0x15\n        /* \"#utility.yul\":26441:26444   */\n      dup4\n        /* \"#utility.yul\":26382:26449   */\n      tag_302\n      jump\t// in\n    tag_566:\n        /* \"#utility.yul\":26375:26449   */\n      swap2\n      pop\n        /* \"#utility.yul\":26458:26551   */\n      tag_567\n        /* \"#utility.yul\":26547:26550   */\n      dup3\n        /* \"#utility.yul\":26458:26551   */\n      tag_339\n      jump\t// in\n    tag_567:\n        /* \"#utility.yul\":26576:26578   */\n      0x20\n        /* \"#utility.yul\":26571:26574   */\n      dup3\n        /* \"#utility.yul\":26567:26579   */\n      add\n        /* \"#utility.yul\":26560:26579   */\n      swap1\n      pop\n        /* \"#utility.yul\":26219:26585   */\n      swap2\n      swap1\n      pop\n      jump\t// out\n        /* \"#utility.yul\":26591:27010   */\n    tag_260:\n        /* \"#utility.yul\":26757:26761   */\n      0x00\n        /* \"#utility.yul\":26795:26797   */\n      0x20\n        /* \"#utility.yul\":26784:26793   */\n      dup3\n        /* \"#utility.yul\":26780:26798   */\n      add\n        /* \"#utility.yul\":26772:26798   */\n      swap1\n      pop\n        /* \"#utility.yul\":26844:26853   */\n      dup2\n        /* \"#utility.yul\":26838:26842   */\n      dup2\n        /* \"#utility.yul\":26834:26854   */\n      sub\n        /* \"#utility.yul\":26830:26831   */\n      0x00\n        /* \"#utility.yul\":26819:26828   */\n      dup4\n        /* \"#utility.yul\":26815:26832   */\n      add\n        /* \"#utility.yul\":26808:26855   */\n      mstore\n        /* \"#utility.yul\":26872:27003   */\n      tag_569\n        /* \"#utility.yul\":26998:27002   */\n      dup2\n        /* \"#utility.yul\":26872:27003   */\n      tag_340\n      jump\t// in\n    tag_569:\n        /* \"#utility.yul\":26864:27003   */\n      swap1\n      pop\n        /* \"#utility.yul\":26591:27010   */\n      swap2\n      swap1\n      pop\n      jump\t// out\n        /* \"#utility.yul\":27016:27186   */\n    tag_341:\n        /* \"#utility.yul\":27156:27178   */\n      0x4272616e64206e6f742072656769737465726564000000000000000000000000\n        /* \"#utility.yul\":27152:27153   */\n      0x00\n        /* \"#utility.yul\":27144:27150   */\n      dup3\n        /* \"#utility.yul\":27140:27154   */\n      add\n        /* \"#utility.yul\":27133:27179   */\n      mstore\n        /* \"#utility.yul\":27016:27186   */\n      pop\n      jump\t// out\n        /* \"#utility.yul\":27192:27558   */\n    tag_342:\n        /* \"#utility.yul\":27334:27337   */\n      0x00\n        /* \"#utility.yul\":27355:27422   */\n      tag_572\n        /* \"#utility.yul\":27419:27421   */\n      0x14\n        /* \"#utility.yul\":27414:27417   */\n      dup4\n        /* \"#utility.yul\":27355:27422   */\n      tag_302\n      jump\t// in\n    tag_572:\n        /* \"#utility.yul\":27348:27422   */\n      swap2\n      pop\n        /* \"#utility.yul\":27431:27524   */\n      tag_573\n        /* \"#utility.yul\":27520:27523   */\n      dup3\n        /* \"#utility.yul\":27431:27524   */\n      tag_341\n      jump\t// in\n    tag_573:\n        /* \"#utility.yul\":27549:27551   */\n      0x20\n        /* \"#utility.yul\":27544:27547   */\n      dup3\n        /* \"#utility.yul\":27540:27552   */\n      add\n        /* \"#utility.yul\":27533:27552   */\n      swap1\n      pop\n        /* \"#utility.yul\":27192:27558   */\n      swap2\n      swap1\n      pop\n      jump\t// out\n        /* \"#utility.yul\":27564:27983   */\n    tag_263:\n        /* \"#utility.yul\":27730:27734   */\n      0x00\n        /* \"#utility.yul\":27768:27770   */\n      0x20\n        /* \"#utility.yul\":27757:27766   */\n      dup3\n        /* \"#utility.yul\":27753:27771   */\n      add\n        /* \"#utility.yul\":27745:27771   */\n      swap1\n      pop\n        /* \"#utility.yul\":27817:27826   */\n      dup2\n        /* \"#utility.yul\":27811:27815   */\n      dup2\n        /* \"#utility.yul\":27807:27827   */\n      sub\n        /* \"#utility.yul\":27803:27804   */\n      0x00\n        /* \"#utility.yul\":27792:27801   */\n      dup4\n        /* \"#utility.yul\":27788:27805   */\n      add\n        /* \"#utility.yul\":27781:27828   */\n      mstore\n        /* \"#utility.yul\":27845:27976   */\n      tag_575\n        /* \"#utility.yul\":27971:27975   */\n      dup2\n        /* \"#utility.yul\":27845:27976   */\n      tag_342\n      jump\t// in\n    tag_575:\n        /* \"#utility.yul\":27837:27976   */\n      swap1\n      pop\n        /* \"#utility.yul\":27564:27983   */\n      swap2\n      swap1\n      pop\n      jump\t// out\n        /* \"#utility.yul\":27989:28170   */\n    tag_343:\n        /* \"#utility.yul\":28129:28162   */\n      0x5265656e7472616e637947756172643a207265656e7472616e742063616c6c00\n        /* \"#utility.yul\":28125:28126   */\n      0x00\n        /* \"#utility.yul\":28117:28123   */\n      dup3\n        /* \"#utility.yul\":28113:28127   */\n      add\n        /* \"#utility.yul\":28106:28163   */\n      mstore\n        /* \"#utility.yul\":27989:28170   */\n      pop\n      jump\t// out\n        /* \"#utility.yul\":28176:28542   */\n    tag_344:\n        /* \"#utility.yul\":28318:28321   */\n      0x00\n        /* \"#utility.yul\":28339:28406   */\n      tag_578\n        /* \"#utility.yul\":28403:28405   */\n      0x1f\n        /* \"#utility.yul\":28398:28401   */\n      dup4\n        /* \"#utility.yul\":28339:28406   */\n      tag_302\n      jump\t// in\n    tag_578:\n        /* \"#utility.yul\":28332:28406   */\n      swap2\n      pop\n        /* \"#utility.yul\":28415:28508   */\n      tag_579\n        /* \"#utility.yul\":28504:28507   */\n      dup3\n        /* \"#utility.yul\":28415:28508   */\n      tag_343\n      jump\t// in\n    tag_579:\n        /* \"#utility.yul\":28533:28535   */\n      0x20\n        /* \"#utility.yul\":28528:28531   */\n      dup3\n        /* \"#utility.yul\":28524:28536   */\n      add\n        /* \"#utility.yul\":28517:28536   */\n      swap1\n      pop\n        /* \"#utility.yul\":28176:28542   */\n      swap2\n      swap1\n      pop\n      jump\t// out\n        /* \"#utility.yul\":28548:28967   */\n    tag_269:\n        /* \"#utility.yul\":28714:28718   */\n      0x00\n        /* \"#utility.yul\":28752:28754   */\n      0x20\n        /* \"#utility.yul\":28741:28750   */\n      dup3\n        /* \"#utility.yul\":28737:28755   */\n      add\n        /* \"#utility.yul\":28729:28755   */\n      swap1\n      pop\n        /* \"#utility.yul\":28801:28810   */\n      dup2\n        /* \"#utility.yul\":28795:28799   */\n      dup2\n        /* \"#utility.yul\":28791:28811   */\n      sub\n        /* \"#utility.yul\":28787:28788   */\n      0x00\n        /* \"#utility.yul\":28776:28785   */\n      dup4\n        /* \"#utility.yul\":28772:28789   */\n      add\n        /* \"#utility.yul\":28765:28812   */\n      mstore\n        /* \"#utility.yul\":28829:28960   */\n      tag_581\n        /* \"#utility.yul\":28955:28959   */\n      dup2\n        /* \"#utility.yul\":28829:28960   */\n      tag_344\n      jump\t// in\n    tag_581:\n        /* \"#utility.yul\":28821:28960   */\n      swap1\n      pop\n        /* \"#utility.yul\":28548:28967   */\n      swap2\n      swap1\n      pop\n      jump\t// out\n        /* \"#utility.yul\":28973:29150   */\n    tag_345:\n        /* \"#utility.yul\":29113:29142   */\n      0x436f756e7465723a2064656372656d656e74206f766572666c6f770000000000\n        /* \"#utility.yul\":29109:29110   */\n      0x00\n        /* \"#utility.yul\":29101:29107   */\n      dup3\n        /* \"#utility.yul\":29097:29111   */\n      add\n        /* \"#utility.yul\":29090:29143   */\n      mstore\n        /* \"#utility.yul\":28973:29150   */\n      pop\n      jump\t// out\n        /* \"#utility.yul\":29156:29522   */\n    tag_346:\n        /* \"#utility.yul\":29298:29301   */\n      0x00\n        /* \"#utility.yul\":29319:29386   */\n      tag_584\n        /* \"#utility.yul\":29383:29385   */\n      0x1b\n        /* \"#utility.yul\":29378:29381   */\n      dup4\n        /* \"#utility.yul\":29319:29386   */\n      tag_302\n      jump\t// in\n    tag_584:\n        /* \"#utility.yul\":29312:29386   */\n      swap2\n      pop\n        /* \"#utility.yul\":29395:29488   */\n      tag_585\n        /* \"#utility.yul\":29484:29487   */\n      dup3\n        /* \"#utility.yul\":29395:29488   */\n      tag_345\n      jump\t// in\n    tag_585:\n        /* \"#utility.yul\":29513:29515   */\n      0x20\n        /* \"#utility.yul\":29508:29511   */\n      dup3\n        /* \"#utility.yul\":29504:29516   */\n      add\n        /* \"#utility.yul\":29497:29516   */\n      swap1\n      pop\n        /* \"#utility.yul\":29156:29522   */\n      swap2\n      swap1\n      pop\n      jump\t// out\n        /* \"#utility.yul\":29528:29947   */\n    tag_274:\n        /* \"#utility.yul\":29694:29698   */\n      0x00\n        /* \"#utility.yul\":29732:29734   */\n      0x20\n        /* \"#utility.yul\":29721:29730   */\n      dup3\n        /* \"#utility.yul\":29717:29735   */\n      add\n        /* \"#utility.yul\":29709:29735   */\n      swap1\n      pop\n        /* \"#utility.yul\":29781:29790   */\n      dup2\n        /* \"#utility.yul\":29775:29779   */\n      dup2\n        /* \"#utility.yul\":29771:29791   */\n      sub\n        /* \"#utility.yul\":29767:29768   */\n      0x00\n        /* \"#utility.yul\":29756:29765   */\n      dup4\n        /* \"#utility.yul\":29752:29769   */\n      add\n        /* \"#utility.yul\":29745:29792   */\n      mstore\n        /* \"#utility.yul\":29809:29940   */\n      tag_587\n        /* \"#utility.yul\":29935:29939   */\n      dup2\n        /* \"#utility.yul\":29809:29940   */\n      tag_346\n      jump\t// in\n    tag_587:\n        /* \"#utility.yul\":29801:29940   */\n      swap1\n      pop\n        /* \"#utility.yul\":29528:29947   */\n      swap2\n      swap1\n      pop\n      jump\t// out\n\n    auxdata: 0xa2646970667358221220755516552ba991148a54d3720dcec8090f6851edb83cf9768fd30d02a989565164736f6c634300081f0033\n}\n",
				"bytecode": {
					"linkReferences": {},
					"object": "608060405234801561000f575f5ffd5b5060405161321a38038061321a8339818101604052810190610031919061020f565b60015f819055508060015f6101000a81548173ffffffffffffffffffffffffffffffffffffffff021916908373ffffffffffffffffffffffffffffffffffffffff16021790555060015f9054906101000a900473ffffffffffffffffffffffffffffffffffffffff1660025f6101000a81548173ffffffffffffffffffffffffffffffffffffffff021916908373ffffffffffffffffffffffffffffffffffffffff1602179055505f60025f9054906101000a900473ffffffffffffffffffffffffffffffffffffffff1673ffffffffffffffffffffffffffffffffffffffff1663c62bfd8f6040518163ffffffff1660e01b8152600401602060405180830381865afa158015610144573d5f5f3e3d5ffd5b505050506040513d601f19601f82011682018060405250810190610168919061020f565b90508060035f6101000a81548173ffffffffffffffffffffffffffffffffffffffff021916908373ffffffffffffffffffffffffffffffffffffffff160217905550505061023a565b5f5ffd5b5f73ffffffffffffffffffffffffffffffffffffffff82169050919050565b5f6101de826101b5565b9050919050565b6101ee816101d4565b81146101f8575f5ffd5b50565b5f81519050610209816101e5565b92915050565b5f60208284031215610224576102236101b1565b5b5f610231848285016101fb565b91505092915050565b612fd3806102475f395ff3fe608060405260043610610108575f3560e01c80634affb86311610094578063c9f93eb711610063578063c9f93eb71461037a578063cf96f1e814610390578063e3b231b5146103cc578063ea1e7a6914610408578063f71b007b1461043057610108565b80634affb8631461029c5780636123504a146102d8578063621574d414610314578063c7568eff1461035057610108565b80631d68702d116100db5780631d68702d146101dc5780631e2b2d2c146102065780632485ff2d1461021c578063392c4527146102385780634907c36a1461026057610108565b8063043ecb351461010c578063059ce95d1461014857806305a5562d146101845780631ce5ad34146101c0575b5f5ffd5b348015610117575f5ffd5b50610132600480360381019061012d91906122ff565b61046c565b60405161013f919061234c565b60405180910390f35b348015610153575f5ffd5b5061016e60048036038101906101699190612365565b6104e1565b60405161017b919061234c565b60405180910390f35b34801561018f575f5ffd5b506101aa60048036038101906101a59190612365565b610546565b6040516101b791906123aa565b60405180910390f35b6101da60048036038101906101d59190612365565b61058f565b005b3480156101e7575f5ffd5b506101f0610caf565b6040516101fd919061234c565b60405180910390f35b348015610211575f5ffd5b5061021a610cd7565b005b61023660048036038101906102319190612365565b610fa9565b005b348015610243575f5ffd5b5061025e60048036038101906102599190612365565b61158e565b005b34801561026b575f5ffd5b50610286600480360381019061028191906123c3565b6118f1565b604051610293919061234c565b60405180910390f35b3480156102a7575f5ffd5b506102c260048036038101906102bd91906123ee565b61192a565b6040516102cf91906123aa565b60405180910390f35b3480156102e3575f5ffd5b506102fe60048036038101906102f99190612365565b6119e5565b60405161030b919061243b565b60405180910390f35b34801561031f575f5ffd5b5061033a600480360381019061033591906123ee565b611a2b565b604051610347919061243b565b60405180910390f35b34801561035b575f5ffd5b50610364611aad565b604051610371919061243b565b60405180910390f35b348015610385575f5ffd5b5061038e611ab8565b005b34801561039b575f5ffd5b506103b660048036038101906103b191906124b5565b611d0b565b6040516103c391906125b7565b60405180910390f35b3480156103d7575f5ffd5b506103f260048036038101906103ed9190612365565b611e22565b6040516103ff91906123aa565b60405180910390f35b348015610413575f5ffd5b5061042e60048036038101906104299190612365565b611e74565b005b34801561043b575f5ffd5b5061045660048036038101906104519190612365565b61214f565b604051610463919061243b565b60405180910390f35b5f60095f8473ffffffffffffffffffffffffffffffffffffffff1673ffffffffffffffffffffffffffffffffffffffff1681526020019081526020015f205f8381526020019081526020015f205f9054906101000a900473ffffffffffffffffffffffffffffffffffffffff16905092915050565b5f60085f8373ffffffffffffffffffffffffffffffffffffffff1673ffffffffffffffffffffffffffffffffffffffff1681526020019081526020015f205f9054906101000a900473ffffffffffffffffffffffffffffffffffffffff169050919050565b5f5f60055f8473ffffffffffffffffffffffffffffffffffffffff1673ffffffffffffffffffffffffffffffffffffffff1681526020019081526020015f205414159050919050565b61059761219c565b5f3390506105a5818361192a565b6105e4576040517f08c379a00000000000000000000000000000000000000000000000000000000081526004016105db90612631565b60405180910390fd5b5f60025f9054906101000a900473ffffffffffffffffffffffffffffffffffffffff1673ffffffffffffffffffffffffffffffffffffffff166202eab76040518163ffffffff1660e01b8152600401608060405180830381865afa15801561064e573d5f5f3e3d5ffd5b505050506040513d601f19601f820116820180604052508101906106729190612663565b5092505050803410156106ba576040517f08c379a00000000000000000000000000000000000000000000000000000000081526004016106b190612711565b60405180910390fd5b5f610700600b5f8573ffffffffffffffffffffffffffffffffffffffff1673ffffffffffffffffffffffffffffffffffffffff1681526020019081526020015f206121e9565b905080600a5f8573ffffffffffffffffffffffffffffffffffffffff1673ffffffffffffffffffffffffffffffffffffffff1681526020019081526020015f205f8673ffffffffffffffffffffffffffffffffffffffff1673ffffffffffffffffffffffffffffffffffffffff1681526020019081526020015f205414610a4f5760095f8473ffffffffffffffffffffffffffffffffffffffff1673ffffffffffffffffffffffffffffffffffffffff1681526020019081526020015f205f8281526020019081526020015f205f9054906101000a900473ffffffffffffffffffffffffffffffffffffffff1660095f8573ffffffffffffffffffffffffffffffffffffffff1673ffffffffffffffffffffffffffffffffffffffff1681526020019081526020015f205f600a5f8773ffffffffffffffffffffffffffffffffffffffff1673ffffffffffffffffffffffffffffffffffffffff1681526020019081526020015f205f8873ffffffffffffffffffffffffffffffffffffffff1673ffffffffffffffffffffffffffffffffffffffff1681526020019081526020015f205481526020019081526020015f205f6101000a81548173ffffffffffffffffffffffffffffffffffffffff021916908373ffffffffffffffffffffffffffffffffffffffff160217905550600a5f8473ffffffffffffffffffffffffffffffffffffffff1673ffffffffffffffffffffffffffffffffffffffff1681526020019081526020015f205f8573ffffffffffffffffffffffffffffffffffffffff1673ffffffffffffffffffffffffffffffffffffffff1681526020019081526020015f2054600a5f8573ffffffffffffffffffffffffffffffffffffffff1673ffffffffffffffffffffffffffffffffffffffff1681526020019081526020015f205f60095f8773ffffffffffffffffffffffffffffffffffffffff1673ffffffffffffffffffffffffffffffffffffffff1681526020019081526020015f205f8581526020019081526020015f205f9054906101000a900473ffffffffffffffffffffffffffffffffffffffff1673ffffffffffffffffffffffffffffffffffffffff1673ffffffffffffffffffffffffffffffffffffffff1681526020019081526020015f20819055505b60095f8473ffffffffffffffffffffffffffffffffffffffff1673ffffffffffffffffffffffffffffffffffffffff1681526020019081526020015f205f8281526020019081526020015f205f6101000a81549073ffffffffffffffffffffffffffffffffffffffff0219169055600a5f8473ffffffffffffffffffffffffffffffffffffffff1673ffffffffffffffffffffffffffffffffffffffff1681526020019081526020015f205f8573ffffffffffffffffffffffffffffffffffffffff1673ffffffffffffffffffffffffffffffffffffffff1681526020019081526020015f205f9055610b7d600b5f8573ffffffffffffffffffffffffffffffffffffffff1673ffffffffffffffffffffffffffffffffffffffff1681526020019081526020015f206121f5565b5f60015f9054906101000a900473ffffffffffffffffffffffffffffffffffffffff1673ffffffffffffffffffffffffffffffffffffffff1634604051610bc390612783565b5f6040518083038185875af1925050503d805f8114610bfd576040519150601f19603f3d011682016040523d82523d5f602084013e610c02565b606091505b5050905080610c46576040517f08c379a0000000000000000000000000000000000000000000000000000000008152600401610c3d906127e1565b60405180910390fd5b8473ffffffffffffffffffffffffffffffffffffffff168473ffffffffffffffffffffffffffffffffffffffff167fd1746b2e87b5c08f014f523c21b62d55fd2a0be9831d627adc7dbccc315d102360405160405180910390a350505050610cac61224d565b50565b5f60015f9054906101000a900473ffffffffffffffffffffffffffffffffffffffff16905090565b5f60055f3373ffffffffffffffffffffffffffffffffffffffff1673ffffffffffffffffffffffffffffffffffffffff1681526020019081526020015f205414610d56576040517f08c379a0000000000000000000000000000000000000000000000000000000008152600401610d4d90612849565b60405180910390fd5b5f60025f9054906101000a900473ffffffffffffffffffffffffffffffffffffffff1673ffffffffffffffffffffffffffffffffffffffff1663ae23876c6040518163ffffffff1660e01b81526004016040805180830381865afa158015610dc0573d5f5f3e3d5ffd5b505050506040513d601f19601f82011682018060405250810190610de49190612867565b5090508060035f9054906101000a900473ffffffffffffffffffffffffffffffffffffffff1673ffffffffffffffffffffffffffffffffffffffff1663486a302e336040518263ffffffff1660e01b8152600401610e42919061234c565b602060405180830381865afa158015610e5d573d5f5f3e3d5ffd5b505050506040513d601f19601f82011682018060405250810190610e8191906128a5565b1015610ec2576040517f08c379a0000000000000000000000000000000000000000000000000000000008152600401610eb99061291a565b60405180910390fd5b610ecc6006612256565b3360045f610eda60066121e9565b81526020019081526020015f205f6101000a81548173ffffffffffffffffffffffffffffffffffffffff021916908373ffffffffffffffffffffffffffffffffffffffff160217905550610f2e60066121e9565b60055f3373ffffffffffffffffffffffffffffffffffffffff1673ffffffffffffffffffffffffffffffffffffffff1681526020019081526020015f20819055507f209609c310b4d084b32245525f311d83eeaa7ff210643c5efd625a8726f2fa4033604051610f9e919061234c565b60405180910390a150565b610fb161219c565b5f33905060075f8273ffffffffffffffffffffffffffffffffffffffff1673ffffffffffffffffffffffffffffffffffffffff1681526020019081526020015f205f9054906101000a900460ff1661103e576040517f08c379a000000000000000000000000000000000000000000000000000000000815260040161103590612982565b60405180910390fd5b5f73ffffffffffffffffffffffffffffffffffffffff168273ffffffffffffffffffffffffffffffffffffffff16036110ac576040517f08c379a00000000000000000000000000000000000000000000000000000000081526004016110a3906129ea565b60405180910390fd5b6110b6818361192a565b156110f6576040517f08c379a00000000000000000000000000000000000000000000000000000000081526004016110ed90612a52565b60405180910390fd5b5f60025f9054906101000a900473ffffffffffffffffffffffffffffffffffffffff1673ffffffffffffffffffffffffffffffffffffffff166202eab76040518163ffffffff1660e01b8152600401608060405180830381865afa158015611160573d5f5f3e3d5ffd5b505050506040513d601f19601f820116820180604052508101906111849190612663565b50925050506111ce600b5f8473ffffffffffffffffffffffffffffffffffffffff1673ffffffffffffffffffffffffffffffffffffffff1681526020019081526020015f20612256565b8260095f8473ffffffffffffffffffffffffffffffffffffffff1673ffffffffffffffffffffffffffffffffffffffff1681526020019081526020015f205f611252600b5f8773ffffffffffffffffffffffffffffffffffffffff1673ffffffffffffffffffffffffffffffffffffffff1681526020019081526020015f206121e9565b81526020019081526020015f205f6101000a81548173ffffffffffffffffffffffffffffffffffffffff021916908373ffffffffffffffffffffffffffffffffffffffff1602179055506112e1600b5f8473ffffffffffffffffffffffffffffffffffffffff1673ffffffffffffffffffffffffffffffffffffffff1681526020019081526020015f206121e9565b600a5f8473ffffffffffffffffffffffffffffffffffffffff1673ffffffffffffffffffffffffffffffffffffffff1681526020019081526020015f205f8573ffffffffffffffffffffffffffffffffffffffff1673ffffffffffffffffffffffffffffffffffffffff1681526020019081526020015f2081905550803410156113a0576040517f08c379a000000000000000000000000000000000000000000000000000000000815260040161139790612711565b60405180910390fd5b8034111561145d575f3373ffffffffffffffffffffffffffffffffffffffff1682346113cc9190612a9d565b6040516113d890612af3565b5f6040518083038185875af1925050503d805f8114611412576040519150601f19603f3d011682016040523d82523d5f602084013e611417565b606091505b505090508061145b576040517f08c379a000000000000000000000000000000000000000000000000000000000815260040161145290612b51565b60405180910390fd5b505b5f60015f9054906101000a900473ffffffffffffffffffffffffffffffffffffffff1673ffffffffffffffffffffffffffffffffffffffff16826040516114a390612af3565b5f6040518083038185875af1925050503d805f81146114dd576040519150601f19603f3d011682016040523d82523d5f602084013e6114e2565b606091505b5050905080611526576040517f08c379a000000000000000000000000000000000000000000000000000000000815260040161151d90612bb9565b60405180910390fd5b8373ffffffffffffffffffffffffffffffffffffffff168373ffffffffffffffffffffffffffffffffffffffff167fd8992b24803669ffd1d156b9eadb0a7da92032a46b0708bcc3a4f60022a726df60405160405180910390a350505061158b61224d565b50565b60025f9054906101000a900473ffffffffffffffffffffffffffffffffffffffff1673ffffffffffffffffffffffffffffffffffffffff1663fdc6258a336040518263ffffffff1660e01b81526004016115e8919061234c565b602060405180830381865afa158015611603573d5f5f3e3d5ffd5b505050506040513d601f19601f820116820180604052508101906116279190612c01565b611666576040517f08c379a000000000000000000000000000000000000000000000000000000000815260040161165d90612c76565b60405180910390fd5b5f60025f9054906101000a900473ffffffffffffffffffffffffffffffffffffffff1673ffffffffffffffffffffffffffffffffffffffff1663570ca7356040518163ffffffff1660e01b8152600401602060405180830381865afa1580156116d1573d5f5f3e3d5ffd5b505050506040513d601f19601f820116820180604052508101906116f59190612ca8565b90503373ffffffffffffffffffffffffffffffffffffffff1660085f8473ffffffffffffffffffffffffffffffffffffffff1673ffffffffffffffffffffffffffffffffffffffff1681526020019081526020015f205f9054906101000a900473ffffffffffffffffffffffffffffffffffffffff1673ffffffffffffffffffffffffffffffffffffffff1614806117b857503373ffffffffffffffffffffffffffffffffffffffff168173ffffffffffffffffffffffffffffffffffffffff16145b6117f7576040517f08c379a00000000000000000000000000000000000000000000000000000000081526004016117ee90612d1d565b60405180910390fd5b5f60075f8473ffffffffffffffffffffffffffffffffffffffff1673ffffffffffffffffffffffffffffffffffffffff1681526020019081526020015f205f6101000a81548160ff02191690831515021790555060085f8373ffffffffffffffffffffffffffffffffffffffff1673ffffffffffffffffffffffffffffffffffffffff1681526020019081526020015f205f6101000a81549073ffffffffffffffffffffffffffffffffffffffff02191690558173ffffffffffffffffffffffffffffffffffffffff167fa4099d5ee8509055e59f9f724d33f27f8d2da9294e7d7c23a2cc37dd1af4254c60405160405180910390a25050565b5f60045f8381526020019081526020015f205f9054906101000a900473ffffffffffffffffffffffffffffffffffffffff169050919050565b5f5f600a5f8573ffffffffffffffffffffffffffffffffffffffff1673ffffffffffffffffffffffffffffffffffffffff1681526020019081526020015f205f8473ffffffffffffffffffffffffffffffffffffffff1673ffffffffffffffffffffffffffffffffffffffff1681526020019081526020015f20541415806119dd57508173ffffffffffffffffffffffffffffffffffffffff168373ffffffffffffffffffffffffffffffffffffffff16145b905092915050565b5f60055f8373ffffffffffffffffffffffffffffffffffffffff1673ffffffffffffffffffffffffffffffffffffffff1681526020019081526020015f20549050919050565b5f600a5f8473ffffffffffffffffffffffffffffffffffffffff1673ffffffffffffffffffffffffffffffffffffffff1681526020019081526020015f205f8373ffffffffffffffffffffffffffffffffffffffff1673ffffffffffffffffffffffffffffffffffffffff1681526020019081526020015f2054905092915050565b6006805f0154905081565b5f60055f3373ffffffffffffffffffffffffffffffffffffffff1673ffffffffffffffffffffffffffffffffffffffff1681526020019081526020015f205403611b37576040517f08c379a0000000000000000000000000000000000000000000000000000000008152600401611b2e90612d85565b60405180910390fd5b5f60055f3373ffffffffffffffffffffffffffffffffffffffff1673ffffffffffffffffffffffffffffffffffffffff1681526020019081526020015f205490505f611b8360066121e9565b90505f60045f8381526020019081526020015f205f9054906101000a900473ffffffffffffffffffffffffffffffffffffffff169050818314611c52578060045f8581526020019081526020015f205f6101000a81548173ffffffffffffffffffffffffffffffffffffffff021916908373ffffffffffffffffffffffffffffffffffffffff1602179055508260055f8373ffffffffffffffffffffffffffffffffffffffff1673ffffffffffffffffffffffffffffffffffffffff1681526020019081526020015f20819055505b60045f8381526020019081526020015f205f6101000a81549073ffffffffffffffffffffffffffffffffffffffff021916905560055f3373ffffffffffffffffffffffffffffffffffffffff1673ffffffffffffffffffffffffffffffffffffffff1681526020019081526020015f205f9055611ccf60066121f5565b7f83523888164df1212dc7b0e70a95cf164a8b36786c5a370bef8ea4e8e537820b33604051611cfe919061234c565b60405180910390a1505050565b60605f8383905090505f8167ffffffffffffffff811115611d2f57611d2e612da3565b5b604051908082528060200260200182016040528015611d5d5781602001602082028036833780820191505090505b5090505f5f90505b82811015611e16575f868683818110611d8157611d80612dd0565b5b90506020020135905060045f8281526020019081526020015f205f9054906101000a900473ffffffffffffffffffffffffffffffffffffffff16838381518110611dce57611dcd612dd0565b5b602002602001019073ffffffffffffffffffffffffffffffffffffffff16908173ffffffffffffffffffffffffffffffffffffffff1681525050508080600101915050611d65565b50809250505092915050565b5f60075f8373ffffffffffffffffffffffffffffffffffffffff1673ffffffffffffffffffffffffffffffffffffffff1681526020019081526020015f205f9054906101000a900460ff169050919050565b60025f9054906101000a900473ffffffffffffffffffffffffffffffffffffffff1673ffffffffffffffffffffffffffffffffffffffff1663fdc6258a336040518263ffffffff1660e01b8152600401611ece919061234c565b602060405180830381865afa158015611ee9573d5f5f3e3d5ffd5b505050506040513d601f19601f82011682018060405250810190611f0d9190612c01565b611f4c576040517f08c379a0000000000000000000000000000000000000000000000000000000008152600401611f4390612c76565b60405180910390fd5b5f73ffffffffffffffffffffffffffffffffffffffff168173ffffffffffffffffffffffffffffffffffffffff1603611fba576040517f08c379a0000000000000000000000000000000000000000000000000000000008152600401611fb190612e47565b60405180910390fd5b5f60055f8373ffffffffffffffffffffffffffffffffffffffff1673ffffffffffffffffffffffffffffffffffffffff1681526020019081526020015f205403612039576040517f08c379a000000000000000000000000000000000000000000000000000000000815260040161203090612eaf565b60405180910390fd5b600160075f8373ffffffffffffffffffffffffffffffffffffffff1673ffffffffffffffffffffffffffffffffffffffff1681526020019081526020015f205f6101000a81548160ff0219169083151502179055503360085f8373ffffffffffffffffffffffffffffffffffffffff1673ffffffffffffffffffffffffffffffffffffffff1681526020019081526020015f205f6101000a81548173ffffffffffffffffffffffffffffffffffffffff021916908373ffffffffffffffffffffffffffffffffffffffff1602179055508073ffffffffffffffffffffffffffffffffffffffff167f1c040312dae2a5129751252fe2bcbc8c80eafaff09af9be184e641cf8809682f60405160405180910390a250565b5f612195600b5f8473ffffffffffffffffffffffffffffffffffffffff1673ffffffffffffffffffffffffffffffffffffffff1681526020019081526020015f206121e9565b9050919050565b60025f54036121e0576040517f08c379a00000000000000000000000000000000000000000000000000000000081526004016121d790612f17565b60405180910390fd5b60025f81905550565b5f815f01549050919050565b5f815f015490505f811161223e576040517f08c379a000000000000000000000000000000000000000000000000000000000815260040161223590612f7f565b60405180910390fd5b60018103825f01819055505050565b60015f81905550565b6001815f015f828254019250508190555050565b5f5ffd5b5f5ffd5b5f73ffffffffffffffffffffffffffffffffffffffff82169050919050565b5f61229b82612272565b9050919050565b6122ab81612291565b81146122b5575f5ffd5b50565b5f813590506122c6816122a2565b92915050565b5f819050919050565b6122de816122cc565b81146122e8575f5ffd5b50565b5f813590506122f9816122d5565b92915050565b5f5f604083850312156123155761231461226a565b5b5f612322858286016122b8565b9250506020612333858286016122eb565b9150509250929050565b61234681612291565b82525050565b5f60208201905061235f5f83018461233d565b92915050565b5f6020828403121561237a5761237961226a565b5b5f612387848285016122b8565b91505092915050565b5f8115159050919050565b6123a481612390565b82525050565b5f6020820190506123bd5f83018461239b565b92915050565b5f602082840312156123d8576123d761226a565b5b5f6123e5848285016122eb565b91505092915050565b5f5f604083850312156124045761240361226a565b5b5f612411858286016122b8565b9250506020612422858286016122b8565b9150509250929050565b612435816122cc565b82525050565b5f60208201905061244e5f83018461242c565b92915050565b5f5ffd5b5f5ffd5b5f5ffd5b5f5f83601f84011261247557612474612454565b5b8235905067ffffffffffffffff81111561249257612491612458565b5b6020830191508360208202830111156124ae576124ad61245c565b5b9250929050565b5f5f602083850312156124cb576124ca61226a565b5b5f83013567ffffffffffffffff8111156124e8576124e761226e565b5b6124f485828601612460565b92509250509250929050565b5f81519050919050565b5f82825260208201905092915050565b5f819050602082019050919050565b61253281612291565b82525050565b5f6125438383612529565b60208301905092915050565b5f602082019050919050565b5f61256582612500565b61256f818561250a565b935061257a8361251a565b805f5b838110156125aa5781516125918882612538565b975061259c8361254f565b92505060018101905061257d565b5085935050505092915050565b5f6020820190508181035f8301526125cf818461255b565b905092915050565b5f82825260208201905092915050565b7f4167656e74206973206e6f74206120706172746e6572000000000000000000005f82015250565b5f61261b6016836125d7565b9150612626826125e7565b602082019050919050565b5f6020820190508181035f8301526126488161260f565b9050919050565b5f8151905061265d816122d5565b92915050565b5f5f5f5f6080858703121561267b5761267a61226a565b5b5f6126888782880161264f565b94505060206126998782880161264f565b93505060406126aa8782880161264f565b92505060606126bb8782880161264f565b91505092959194509250565b7f466565206973206e6f7420656e6f7567682e00000000000000000000000000005f82015250565b5f6126fb6012836125d7565b9150612706826126c7565b602082019050919050565b5f6020820190508181035f830152612728816126ef565b9050919050565b5f81905092915050565b7f30780000000000000000000000000000000000000000000000000000000000005f82015250565b5f61276d60028361272f565b915061277882612739565b600282019050919050565b5f61278d82612761565b9150819050919050565b7f5061796d656e7420666565206661696c656400000000000000000000000000005f82015250565b5f6127cb6012836125d7565b91506127d682612797565b602082019050919050565b5f6020820190508181035f8301526127f8816127bf565b9050919050565b7f4272616e6420697320616c7265616479207265676973746572656400000000005f82015250565b5f612833601b836125d7565b915061283e826127ff565b602082019050919050565b5f6020820190508181035f83015261286081612827565b9050919050565b5f5f6040838503121561287d5761287c61226a565b5b5f61288a8582860161264f565b925050602061289b8582860161264f565b9150509250929050565b5f602082840312156128ba576128b961226a565b5b5f6128c78482850161264f565b91505092915050565b7f496e73756666696369656e7420746f6b656e73000000000000000000000000005f82015250565b5f6129046013836125d7565b915061290f826128d0565b602082019050919050565b5f6020820190508181035f830152612931816128f8565b9050919050565b7f4f6e6c79207665726966696564206272616e64000000000000000000000000005f82015250565b5f61296c6013836125d7565b915061297782612938565b602082019050919050565b5f6020820190508181035f83015261299981612960565b9050919050565b7f496e76616c6964206167656e74206164647265737300000000000000000000005f82015250565b5f6129d46015836125d7565b91506129df826129a0565b602082019050919050565b5f6020820190508181035f830152612a01816129c8565b9050919050565b7f4167656e7420697320616c7265616479206120706172746e65720000000000005f82015250565b5f612a3c601a836125d7565b9150612a4782612a08565b602082019050919050565b5f6020820190508181035f830152612a6981612a30565b9050919050565b7f4e487b71000000000000000000000000000000000000000000000000000000005f52601160045260245ffd5b5f612aa7826122cc565b9150612ab2836122cc565b9250828203905081811115612aca57612ac9612a70565b5b92915050565b50565b5f612ade5f8361272f565b9150612ae982612ad0565b5f82019050919050565b5f612afd82612ad3565b9150819050919050565b7f526566756e64206661696c6564000000000000000000000000000000000000005f82015250565b5f612b3b600d836125d7565b9150612b4682612b07565b602082019050919050565b5f6020820190508181035f830152612b6881612b2f565b9050919050565b7f5472616e7366657220746f2044414f206661696c6564000000000000000000005f82015250565b5f612ba36016836125d7565b9150612bae82612b6f565b602082019050919050565b5f6020820190508181035f830152612bd081612b97565b9050919050565b612be081612390565b8114612bea575f5ffd5b50565b5f81519050612bfb81612bd7565b92915050565b5f60208284031215612c1657612c1561226a565b5b5f612c2384828501612bed565b91505092915050565b7f4f6e6c79207265766965776572000000000000000000000000000000000000005f82015250565b5f612c60600d836125d7565b9150612c6b82612c2c565b602082019050919050565b5f6020820190508181035f830152612c8d81612c54565b9050919050565b5f81519050612ca2816122a2565b92915050565b5f60208284031215612cbd57612cbc61226a565b5b5f612cca84828501612c94565b91505092915050565b7f496e76616c6964207665726966696572000000000000000000000000000000005f82015250565b5f612d076010836125d7565b9150612d1282612cd3565b602082019050919050565b5f6020820190508181035f830152612d3481612cfb565b9050919050565b7f4e6f7420726567697374657265640000000000000000000000000000000000005f82015250565b5f612d6f600e836125d7565b9150612d7a82612d3b565b602082019050919050565b5f6020820190508181035f830152612d9c81612d63565b9050919050565b7f4e487b71000000000000000000000000000000000000000000000000000000005f52604160045260245ffd5b7f4e487b71000000000000000000000000000000000000000000000000000000005f52603260045260245ffd5b7f496e76616c6964206272616e64206164647265737300000000000000000000005f82015250565b5f612e316015836125d7565b9150612e3c82612dfd565b602082019050919050565b5f6020820190508181035f830152612e5e81612e25565b9050919050565b7f4272616e64206e6f7420726567697374657265640000000000000000000000005f82015250565b5f612e996014836125d7565b9150612ea482612e65565b602082019050919050565b5f6020820190508181035f830152612ec681612e8d565b9050919050565b7f5265656e7472616e637947756172643a207265656e7472616e742063616c6c005f82015250565b5f612f01601f836125d7565b9150612f0c82612ecd565b602082019050919050565b5f6020820190508181035f830152612f2e81612ef5565b9050919050565b7f436f756e7465723a2064656372656d656e74206f766572666c6f7700000000005f82015250565b5f612f69601b836125d7565b9150612f7482612f35565b602082019050919050565b5f6020820190508181035f830152612f9681612f5d565b905091905056fea2646970667358221220755516552ba991148a54d3720dcec8090f6851edb83cf9768fd30d02a989565164736f6c634300081f0033",
					"opcodes": "PUSH1 0x80 PUSH1 0x40 MSTORE CALLVALUE DUP1 ISZERO PUSH2 0xF JUMPI PUSH0 PUSH0 REVERT JUMPDEST POP PUSH1 0x40 MLOAD PUSH2 0x321A CODESIZE SUB DUP1 PUSH2 0x321A DUP4 CODECOPY DUP2 DUP2 ADD PUSH1 0x40 MSTORE DUP2 ADD SWAP1 PUSH2 0x31 SWAP2 SWAP1 PUSH2 0x20F JUMP JUMPDEST PUSH1 0x1 PUSH0 DUP2 SWAP1 SSTORE POP DUP1 PUSH1 0x1 PUSH0 PUSH2 0x100 EXP DUP2 SLOAD DUP2 PUSH20 0xFFFFFFFFFFFFFFFFFFFFFFFFFFFFFFFFFFFFFFFF MUL NOT AND SWAP1 DUP4 PUSH20 0xFFFFFFFFFFFFFFFFFFFFFFFFFFFFFFFFFFFFFFFF AND MUL OR SWAP1 SSTORE POP PUSH1 0x1 PUSH0 SWAP1 SLOAD SWAP1 PUSH2 0x100 EXP SWAP1 DIV PUSH20 0xFFFFFFFFFFFFFFFFFFFFFFFFFFFFFFFFFFFFFFFF AND PUSH1 0x2 PUSH0 PUSH2 0x100 EXP DUP2 SLOAD DUP2 PUSH20 0xFFFFFFFFFFFFFFFFFFFFFFFFFFFFFFFFFFFFFFFF MUL NOT AND SWAP1 DUP4 PUSH20 0xFFFFFFFFFFFFFFFFFFFFFFFFFFFFFFFFFFFFFFFF AND MUL OR SWAP1 SSTORE POP PUSH0 PUSH1 0x2 PUSH0 SWAP1 SLOAD SWAP1 PUSH2 0x100 EXP SWAP1 DIV PUSH20 0xFFFFFFFFFFFFFFFFFFFFFFFFFFFFFFFFFFFFFFFF AND PUSH20 0xFFFFFFFFFFFFFFFFFFFFFFFFFFFFFFFFFFFFFFFF AND PUSH4 0xC62BFD8F PUSH1 0x40 MLOAD DUP2 PUSH4 0xFFFFFFFF AND PUSH1 0xE0 SHL DUP2 MSTORE PUSH1 0x4 ADD PUSH1 0x20 PUSH1 0x40 MLOAD DUP1 DUP4 SUB DUP2 DUP7 GAS STATICCALL ISZERO DUP1 ISZERO PUSH2 0x144 JUMPI RETURNDATASIZE PUSH0 PUSH0 RETURNDATACOPY RETURNDATASIZE PUSH0 REVERT JUMPDEST POP POP POP POP PUSH1 0x40 MLOAD RETURNDATASIZE PUSH1 0x1F NOT PUSH1 0x1F DUP3 ADD AND DUP3 ADD DUP1 PUSH1 0x40 MSTORE POP DUP2 ADD SWAP1 PUSH2 0x168 SWAP2 SWAP1 PUSH2 0x20F JUMP JUMPDEST SWAP1 POP DUP1 PUSH1 0x3 PUSH0 PUSH2 0x100 EXP DUP2 SLOAD DUP2 PUSH20 0xFFFFFFFFFFFFFFFFFFFFFFFFFFFFFFFFFFFFFFFF MUL NOT AND SWAP1 DUP4 PUSH20 0xFFFFFFFFFFFFFFFFFFFFFFFFFFFFFFFFFFFFFFFF AND MUL OR SWAP1 SSTORE POP POP POP PUSH2 0x23A JUMP JUMPDEST PUSH0 PUSH0 REVERT JUMPDEST PUSH0 PUSH20 0xFFFFFFFFFFFFFFFFFFFFFFFFFFFFFFFFFFFFFFFF DUP3 AND SWAP1 POP SWAP2 SWAP1 POP JUMP JUMPDEST PUSH0 PUSH2 0x1DE DUP3 PUSH2 0x1B5 JUMP JUMPDEST SWAP1 POP SWAP2 SWAP1 POP JUMP JUMPDEST PUSH2 0x1EE DUP2 PUSH2 0x1D4 JUMP JUMPDEST DUP2 EQ PUSH2 0x1F8 JUMPI PUSH0 PUSH0 REVERT JUMPDEST POP JUMP JUMPDEST PUSH0 DUP2 MLOAD SWAP1 POP PUSH2 0x209 DUP2 PUSH2 0x1E5 JUMP JUMPDEST SWAP3 SWAP2 POP POP JUMP JUMPDEST PUSH0 PUSH1 0x20 DUP3 DUP5 SUB SLT ISZERO PUSH2 0x224 JUMPI PUSH2 0x223 PUSH2 0x1B1 JUMP JUMPDEST JUMPDEST PUSH0 PUSH2 0x231 DUP5 DUP3 DUP6 ADD PUSH2 0x1FB JUMP JUMPDEST SWAP2 POP POP SWAP3 SWAP2 POP POP JUMP JUMPDEST PUSH2 0x2FD3 DUP1 PUSH2 0x247 PUSH0 CODECOPY PUSH0 RETURN INVALID PUSH1 0x80 PUSH1 0x40 MSTORE PUSH1 0x4 CALLDATASIZE LT PUSH2 0x108 JUMPI PUSH0 CALLDATALOAD PUSH1 0xE0 SHR DUP1 PUSH4 0x4AFFB863 GT PUSH2 0x94 JUMPI DUP1 PUSH4 0xC9F93EB7 GT PUSH2 0x63 JUMPI DUP1 PUSH4 0xC9F93EB7 EQ PUSH2 0x37A JUMPI DUP1 PUSH4 0xCF96F1E8 EQ PUSH2 0x390 JUMPI DUP1 PUSH4 0xE3B231B5 EQ PUSH2 0x3CC JUMPI DUP1 PUSH4 0xEA1E7A69 EQ PUSH2 0x408 JUMPI DUP1 PUSH4 0xF71B007B EQ PUSH2 0x430 JUMPI PUSH2 0x108 JUMP JUMPDEST DUP1 PUSH4 0x4AFFB863 EQ PUSH2 0x29C JUMPI DUP1 PUSH4 0x6123504A EQ PUSH2 0x2D8 JUMPI DUP1 PUSH4 0x621574D4 EQ PUSH2 0x314 JUMPI DUP1 PUSH4 0xC7568EFF EQ PUSH2 0x350 JUMPI PUSH2 0x108 JUMP JUMPDEST DUP1 PUSH4 0x1D68702D GT PUSH2 0xDB JUMPI DUP1 PUSH4 0x1D68702D EQ PUSH2 0x1DC JUMPI DUP1 PUSH4 0x1E2B2D2C EQ PUSH2 0x206 JUMPI DUP1 PUSH4 0x2485FF2D EQ PUSH2 0x21C JUMPI DUP1 PUSH4 0x392C4527 EQ PUSH2 0x238 JUMPI DUP1 PUSH4 0x4907C36A EQ PUSH2 0x260 JUMPI PUSH2 0x108 JUMP JUMPDEST DUP1 PUSH4 0x43ECB35 EQ PUSH2 0x10C JUMPI DUP1 PUSH4 0x59CE95D EQ PUSH2 0x148 JUMPI DUP1 PUSH4 0x5A5562D EQ PUSH2 0x184 JUMPI DUP1 PUSH4 0x1CE5AD34 EQ PUSH2 0x1C0 JUMPI JUMPDEST PUSH0 PUSH0 REVERT JUMPDEST CALLVALUE DUP1 ISZERO PUSH2 0x117 JUMPI PUSH0 PUSH0 REVERT JUMPDEST POP PUSH2 0x132 PUSH1 0x4 DUP1 CALLDATASIZE SUB DUP2 ADD SWAP1 PUSH2 0x12D SWAP2 SWAP1 PUSH2 0x22FF JUMP JUMPDEST PUSH2 0x46C JUMP JUMPDEST PUSH1 0x40 MLOAD PUSH2 0x13F SWAP2 SWAP1 PUSH2 0x234C JUMP JUMPDEST PUSH1 0x40 MLOAD DUP1 SWAP2 SUB SWAP1 RETURN JUMPDEST CALLVALUE DUP1 ISZERO PUSH2 0x153 JUMPI PUSH0 PUSH0 REVERT JUMPDEST POP PUSH2 0x16E PUSH1 0x4 DUP1 CALLDATASIZE SUB DUP2 ADD SWAP1 PUSH2 0x169 SWAP2 SWAP1 PUSH2 0x2365 JUMP JUMPDEST PUSH2 0x4E1 JUMP JUMPDEST PUSH1 0x40 MLOAD PUSH2 0x17B SWAP2 SWAP1 PUSH2 0x234C JUMP JUMPDEST PUSH1 0x40 MLOAD DUP1 SWAP2 SUB SWAP1 RETURN JUMPDEST CALLVALUE DUP1 ISZERO PUSH2 0x18F JUMPI PUSH0 PUSH0 REVERT JUMPDEST POP PUSH2 0x1AA PUSH1 0x4 DUP1 CALLDATASIZE SUB DUP2 ADD SWAP1 PUSH2 0x1A5 SWAP2 SWAP1 PUSH2 0x2365 JUMP JUMPDEST PUSH2 0x546 JUMP JUMPDEST PUSH1 0x40 MLOAD PUSH2 0x1B7 SWAP2 SWAP1 PUSH2 0x23AA JUMP JUMPDEST PUSH1 0x40 MLOAD DUP1 SWAP2 SUB SWAP1 RETURN JUMPDEST PUSH2 0x1DA PUSH1 0x4 DUP1 CALLDATASIZE SUB DUP2 ADD SWAP1 PUSH2 0x1D5 SWAP2 SWAP1 PUSH2 0x2365 JUMP JUMPDEST PUSH2 0x58F JUMP JUMPDEST STOP JUMPDEST CALLVALUE DUP1 ISZERO PUSH2 0x1E7 JUMPI PUSH0 PUSH0 REVERT JUMPDEST POP PUSH2 0x1F0 PUSH2 0xCAF JUMP JUMPDEST PUSH1 0x40 MLOAD PUSH2 0x1FD SWAP2 SWAP1 PUSH2 0x234C JUMP JUMPDEST PUSH1 0x40 MLOAD DUP1 SWAP2 SUB SWAP1 RETURN JUMPDEST CALLVALUE DUP1 ISZERO PUSH2 0x211 JUMPI PUSH0 PUSH0 REVERT JUMPDEST POP PUSH2 0x21A PUSH2 0xCD7 JUMP JUMPDEST STOP JUMPDEST PUSH2 0x236 PUSH1 0x4 DUP1 CALLDATASIZE SUB DUP2 ADD SWAP1 PUSH2 0x231 SWAP2 SWAP1 PUSH2 0x2365 JUMP JUMPDEST PUSH2 0xFA9 JUMP JUMPDEST STOP JUMPDEST CALLVALUE DUP1 ISZERO PUSH2 0x243 JUMPI PUSH0 PUSH0 REVERT JUMPDEST POP PUSH2 0x25E PUSH1 0x4 DUP1 CALLDATASIZE SUB DUP2 ADD SWAP1 PUSH2 0x259 SWAP2 SWAP1 PUSH2 0x2365 JUMP JUMPDEST PUSH2 0x158E JUMP JUMPDEST STOP JUMPDEST CALLVALUE DUP1 ISZERO PUSH2 0x26B JUMPI PUSH0 PUSH0 REVERT JUMPDEST POP PUSH2 0x286 PUSH1 0x4 DUP1 CALLDATASIZE SUB DUP2 ADD SWAP1 PUSH2 0x281 SWAP2 SWAP1 PUSH2 0x23C3 JUMP JUMPDEST PUSH2 0x18F1 JUMP JUMPDEST PUSH1 0x40 MLOAD PUSH2 0x293 SWAP2 SWAP1 PUSH2 0x234C JUMP JUMPDEST PUSH1 0x40 MLOAD DUP1 SWAP2 SUB SWAP1 RETURN JUMPDEST CALLVALUE DUP1 ISZERO PUSH2 0x2A7 JUMPI PUSH0 PUSH0 REVERT JUMPDEST POP PUSH2 0x2C2 PUSH1 0x4 DUP1 CALLDATASIZE SUB DUP2 ADD SWAP1 PUSH2 0x2BD SWAP2 SWAP1 PUSH2 0x23EE JUMP JUMPDEST PUSH2 0x192A JUMP JUMPDEST PUSH1 0x40 MLOAD PUSH2 0x2CF SWAP2 SWAP1 PUSH2 0x23AA JUMP JUMPDEST PUSH1 0x40 MLOAD DUP1 SWAP2 SUB SWAP1 RETURN JUMPDEST CALLVALUE DUP1 ISZERO PUSH2 0x2E3 JUMPI PUSH0 PUSH0 REVERT JUMPDEST POP PUSH2 0x2FE PUSH1 0x4 DUP1 CALLDATASIZE SUB DUP2 ADD SWAP1 PUSH2 0x2F9 SWAP2 SWAP1 PUSH2 0x2365 JUMP JUMPDEST PUSH2 0x19E5 JUMP JUMPDEST PUSH1 0x40 MLOAD PUSH2 0x30B SWAP2 SWAP1 PUSH2 0x243B JUMP JUMPDEST PUSH1 0x40 MLOAD DUP1 SWAP2 SUB SWAP1 RETURN JUMPDEST CALLVALUE DUP1 ISZERO PUSH2 0x31F JUMPI PUSH0 PUSH0 REVERT JUMPDEST POP PUSH2 0x33A PUSH1 0x4 DUP1 CALLDATASIZE SUB DUP2 ADD SWAP1 PUSH2 0x335 SWAP2 SWAP1 PUSH2 0x23EE JUMP JUMPDEST PUSH2 0x1A2B JUMP JUMPDEST PUSH1 0x40 MLOAD PUSH2 0x347 SWAP2 SWAP1 PUSH2 0x243B JUMP JUMPDEST PUSH1 0x40 MLOAD DUP1 SWAP2 SUB SWAP1 RETURN JUMPDEST CALLVALUE DUP1 ISZERO PUSH2 0x35B JUMPI PUSH0 PUSH0 REVERT JUMPDEST POP PUSH2 0x364 PUSH2 0x1AAD JUMP JUMPDEST PUSH1 0x40 MLOAD PUSH2 0x371 SWAP2 SWAP1 PUSH2 0x243B JUMP JUMPDEST PUSH1 0x40 MLOAD DUP1 SWAP2 SUB SWAP1 RETURN JUMPDEST CALLVALUE DUP1 ISZERO PUSH2 0x385 JUMPI PUSH0 PUSH0 REVERT JUMPDEST POP PUSH2 0x38E PUSH2 0x1AB8 JUMP JUMPDEST STOP JUMPDEST CALLVALUE DUP1 ISZERO PUSH2 0x39B JUMPI PUSH0 PUSH0 REVERT JUMPDEST POP PUSH2 0x3B6 PUSH1 0x4 DUP1 CALLDATASIZE SUB DUP2 ADD SWAP1 PUSH2 0x3B1 SWAP2 SWAP1 PUSH2 0x24B5 JUMP JUMPDEST PUSH2 0x1D0B JUMP JUMPDEST PUSH1 0x40 MLOAD PUSH2 0x3C3 SWAP2 SWAP1 PUSH2 0x25B7 JUMP JUMPDEST PUSH1 0x40 MLOAD DUP1 SWAP2 SUB SWAP1 RETURN JUMPDEST CALLVALUE DUP1 ISZERO PUSH2 0x3D7 JUMPI PUSH0 PUSH0 REVERT JUMPDEST POP PUSH2 0x3F2 PUSH1 0x4 DUP1 CALLDATASIZE SUB DUP2 ADD SWAP1 PUSH2 0x3ED SWAP2 SWAP1 PUSH2 0x2365 JUMP JUMPDEST PUSH2 0x1E22 JUMP JUMPDEST PUSH1 0x40 MLOAD PUSH2 0x3FF SWAP2 SWAP1 PUSH2 0x23AA JUMP JUMPDEST PUSH1 0x40 MLOAD DUP1 SWAP2 SUB SWAP1 RETURN JUMPDEST CALLVALUE DUP1 ISZERO PUSH2 0x413 JUMPI PUSH0 PUSH0 REVERT JUMPDEST POP PUSH2 0x42E PUSH1 0x4 DUP1 CALLDATASIZE SUB DUP2 ADD SWAP1 PUSH2 0x429 SWAP2 SWAP1 PUSH2 0x2365 JUMP JUMPDEST PUSH2 0x1E74 JUMP JUMPDEST STOP JUMPDEST CALLVALUE DUP1 ISZERO PUSH2 0x43B JUMPI PUSH0 PUSH0 REVERT JUMPDEST POP PUSH2 0x456 PUSH1 0x4 DUP1 CALLDATASIZE SUB DUP2 ADD SWAP1 PUSH2 0x451 SWAP2 SWAP1 PUSH2 0x2365 JUMP JUMPDEST PUSH2 0x214F JUMP JUMPDEST PUSH1 0x40 MLOAD PUSH2 0x463 SWAP2 SWAP1 PUSH2 0x243B JUMP JUMPDEST PUSH1 0x40 MLOAD DUP1 SWAP2 SUB SWAP1 RETURN JUMPDEST PUSH0 PUSH1 0x9 PUSH0 DUP5 PUSH20 0xFFFFFFFFFFFFFFFFFFFFFFFFFFFFFFFFFFFFFFFF AND PUSH20 0xFFFFFFFFFFFFFFFFFFFFFFFFFFFFFFFFFFFFFFFF AND DUP2 MSTORE PUSH1 0x20 ADD SWAP1 DUP2 MSTORE PUSH1 0x20 ADD PUSH0 KECCAK256 PUSH0 DUP4 DUP2 MSTORE PUSH1 0x20 ADD SWAP1 DUP2 MSTORE PUSH1 0x20 ADD PUSH0 KECCAK256 PUSH0 SWAP1 SLOAD SWAP1 PUSH2 0x100 EXP SWAP1 DIV PUSH20 0xFFFFFFFFFFFFFFFFFFFFFFFFFFFFFFFFFFFFFFFF AND SWAP1 POP SWAP3 SWAP2 POP POP JUMP JUMPDEST PUSH0 PUSH1 0x8 PUSH0 DUP4 PUSH20 0xFFFFFFFFFFFFFFFFFFFFFFFFFFFFFFFFFFFFFFFF AND PUSH20 0xFFFFFFFFFFFFFFFFFFFFFFFFFFFFFFFFFFFFFFFF AND DUP2 MSTORE PUSH1 0x20 ADD SWAP1 DUP2 MSTORE PUSH1 0x20 ADD PUSH0 KECCAK256 PUSH0 SWAP1 SLOAD SWAP1 PUSH2 0x100 EXP SWAP1 DIV PUSH20 0xFFFFFFFFFFFFFFFFFFFFFFFFFFFFFFFFFFFFFFFF AND SWAP1 POP SWAP2 SWAP1 POP JUMP JUMPDEST PUSH0 PUSH0 PUSH1 0x5 PUSH0 DUP5 PUSH20 0xFFFFFFFFFFFFFFFFFFFFFFFFFFFFFFFFFFFFFFFF AND PUSH20 0xFFFFFFFFFFFFFFFFFFFFFFFFFFFFFFFFFFFFFFFF AND DUP2 MSTORE PUSH1 0x20 ADD SWAP1 DUP2 MSTORE PUSH1 0x20 ADD PUSH0 KECCAK256 SLOAD EQ ISZERO SWAP1 POP SWAP2 SWAP1 POP JUMP JUMPDEST PUSH2 0x597 PUSH2 0x219C JUMP JUMPDEST PUSH0 CALLER SWAP1 POP PUSH2 0x5A5 DUP2 DUP4 PUSH2 0x192A JUMP JUMPDEST PUSH2 0x5E4 JUMPI PUSH1 0x40 MLOAD PUSH32 0x8C379A000000000000000000000000000000000000000000000000000000000 DUP2 MSTORE PUSH1 0x4 ADD PUSH2 0x5DB SWAP1 PUSH2 0x2631 JUMP JUMPDEST PUSH1 0x40 MLOAD DUP1 SWAP2 SUB SWAP1 REVERT JUMPDEST PUSH0 PUSH1 0x2 PUSH0 SWAP1 SLOAD SWAP1 PUSH2 0x100 EXP SWAP1 DIV PUSH20 0xFFFFFFFFFFFFFFFFFFFFFFFFFFFFFFFFFFFFFFFF AND PUSH20 0xFFFFFFFFFFFFFFFFFFFFFFFFFFFFFFFFFFFFFFFF AND PUSH3 0x2EAB7 PUSH1 0x40 MLOAD DUP2 PUSH4 0xFFFFFFFF AND PUSH1 0xE0 SHL DUP2 MSTORE PUSH1 0x4 ADD PUSH1 0x80 PUSH1 0x40 MLOAD DUP1 DUP4 SUB DUP2 DUP7 GAS STATICCALL ISZERO DUP1 ISZERO PUSH2 0x64E JUMPI RETURNDATASIZE PUSH0 PUSH0 RETURNDATACOPY RETURNDATASIZE PUSH0 REVERT JUMPDEST POP POP POP POP PUSH1 0x40 MLOAD RETURNDATASIZE PUSH1 0x1F NOT PUSH1 0x1F DUP3 ADD AND DUP3 ADD DUP1 PUSH1 0x40 MSTORE POP DUP2 ADD SWAP1 PUSH2 0x672 SWAP2 SWAP1 PUSH2 0x2663 JUMP JUMPDEST POP SWAP3 POP POP POP DUP1 CALLVALUE LT ISZERO PUSH2 0x6BA JUMPI PUSH1 0x40 MLOAD PUSH32 0x8C379A000000000000000000000000000000000000000000000000000000000 DUP2 MSTORE PUSH1 0x4 ADD PUSH2 0x6B1 SWAP1 PUSH2 0x2711 JUMP JUMPDEST PUSH1 0x40 MLOAD DUP1 SWAP2 SUB SWAP1 REVERT JUMPDEST PUSH0 PUSH2 0x700 PUSH1 0xB PUSH0 DUP6 PUSH20 0xFFFFFFFFFFFFFFFFFFFFFFFFFFFFFFFFFFFFFFFF AND PUSH20 0xFFFFFFFFFFFFFFFFFFFFFFFFFFFFFFFFFFFFFFFF AND DUP2 MSTORE PUSH1 0x20 ADD SWAP1 DUP2 MSTORE PUSH1 0x20 ADD PUSH0 KECCAK256 PUSH2 0x21E9 JUMP JUMPDEST SWAP1 POP DUP1 PUSH1 0xA PUSH0 DUP6 PUSH20 0xFFFFFFFFFFFFFFFFFFFFFFFFFFFFFFFFFFFFFFFF AND PUSH20 0xFFFFFFFFFFFFFFFFFFFFFFFFFFFFFFFFFFFFFFFF AND DUP2 MSTORE PUSH1 0x20 ADD SWAP1 DUP2 MSTORE PUSH1 0x20 ADD PUSH0 KECCAK256 PUSH0 DUP7 PUSH20 0xFFFFFFFFFFFFFFFFFFFFFFFFFFFFFFFFFFFFFFFF AND PUSH20 0xFFFFFFFFFFFFFFFFFFFFFFFFFFFFFFFFFFFFFFFF AND DUP2 MSTORE PUSH1 0x20 ADD SWAP1 DUP2 MSTORE PUSH1 0x20 ADD PUSH0 KECCAK256 SLOAD EQ PUSH2 0xA4F JUMPI PUSH1 0x9 PUSH0 DUP5 PUSH20 0xFFFFFFFFFFFFFFFFFFFFFFFFFFFFFFFFFFFFFFFF AND PUSH20 0xFFFFFFFFFFFFFFFFFFFFFFFFFFFFFFFFFFFFFFFF AND DUP2 MSTORE PUSH1 0x20 ADD SWAP1 DUP2 MSTORE PUSH1 0x20 ADD PUSH0 KECCAK256 PUSH0 DUP3 DUP2 MSTORE PUSH1 0x20 ADD SWAP1 DUP2 MSTORE PUSH1 0x20 ADD PUSH0 KECCAK256 PUSH0 SWAP1 SLOAD SWAP1 PUSH2 0x100 EXP SWAP1 DIV PUSH20 0xFFFFFFFFFFFFFFFFFFFFFFFFFFFFFFFFFFFFFFFF AND PUSH1 0x9 PUSH0 DUP6 PUSH20 0xFFFFFFFFFFFFFFFFFFFFFFFFFFFFFFFFFFFFFFFF AND PUSH20 0xFFFFFFFFFFFFFFFFFFFFFFFFFFFFFFFFFFFFFFFF AND DUP2 MSTORE PUSH1 0x20 ADD SWAP1 DUP2 MSTORE PUSH1 0x20 ADD PUSH0 KECCAK256 PUSH0 PUSH1 0xA PUSH0 DUP8 PUSH20 0xFFFFFFFFFFFFFFFFFFFFFFFFFFFFFFFFFFFFFFFF AND PUSH20 0xFFFFFFFFFFFFFFFFFFFFFFFFFFFFFFFFFFFFFFFF AND DUP2 MSTORE PUSH1 0x20 ADD SWAP1 DUP2 MSTORE PUSH1 0x20 ADD PUSH0 KECCAK256 PUSH0 DUP9 PUSH20 0xFFFFFFFFFFFFFFFFFFFFFFFFFFFFFFFFFFFFFFFF AND PUSH20 0xFFFFFFFFFFFFFFFFFFFFFFFFFFFFFFFFFFFFFFFF AND DUP2 MSTORE PUSH1 0x20 ADD SWAP1 DUP2 MSTORE PUSH1 0x20 ADD PUSH0 KECCAK256 SLOAD DUP2 MSTORE PUSH1 0x20 ADD SWAP1 DUP2 MSTORE PUSH1 0x20 ADD PUSH0 KECCAK256 PUSH0 PUSH2 0x100 EXP DUP2 SLOAD DUP2 PUSH20 0xFFFFFFFFFFFFFFFFFFFFFFFFFFFFFFFFFFFFFFFF MUL NOT AND SWAP1 DUP4 PUSH20 0xFFFFFFFFFFFFFFFFFFFFFFFFFFFFFFFFFFFFFFFF AND MUL OR SWAP1 SSTORE POP PUSH1 0xA PUSH0 DUP5 PUSH20 0xFFFFFFFFFFFFFFFFFFFFFFFFFFFFFFFFFFFFFFFF AND PUSH20 0xFFFFFFFFFFFFFFFFFFFFFFFFFFFFFFFFFFFFFFFF AND DUP2 MSTORE PUSH1 0x20 ADD SWAP1 DUP2 MSTORE PUSH1 0x20 ADD PUSH0 KECCAK256 PUSH0 DUP6 PUSH20 0xFFFFFFFFFFFFFFFFFFFFFFFFFFFFFFFFFFFFFFFF AND PUSH20 0xFFFFFFFFFFFFFFFFFFFFFFFFFFFFFFFFFFFFFFFF AND DUP2 MSTORE PUSH1 0x20 ADD SWAP1 DUP2 MSTORE PUSH1 0x20 ADD PUSH0 KECCAK256 SLOAD PUSH1 0xA PUSH0 DUP6 PUSH20 0xFFFFFFFFFFFFFFFFFFFFFFFFFFFFFFFFFFFFFFFF AND PUSH20 0xFFFFFFFFFFFFFFFFFFFFFFFFFFFFFFFFFFFFFFFF AND DUP2 MSTORE PUSH1 0x20 ADD SWAP1 DUP2 MSTORE PUSH1 0x20 ADD PUSH0 KECCAK256 PUSH0 PUSH1 0x9 PUSH0 DUP8 PUSH20 0xFFFFFFFFFFFFFFFFFFFFFFFFFFFFFFFFFFFFFFFF AND PUSH20 0xFFFFFFFFFFFFFFFFFFFFFFFFFFFFFFFFFFFFFFFF AND DUP2 MSTORE PUSH1 0x20 ADD SWAP1 DUP2 MSTORE PUSH1 0x20 ADD PUSH0 KECCAK256 PUSH0 DUP6 DUP2 MSTORE PUSH1 0x20 ADD SWAP1 DUP2 MSTORE PUSH1 0x20 ADD PUSH0 KECCAK256 PUSH0 SWAP1 SLOAD SWAP1 PUSH2 0x100 EXP SWAP1 DIV PUSH20 0xFFFFFFFFFFFFFFFFFFFFFFFFFFFFFFFFFFFFFFFF AND PUSH20 0xFFFFFFFFFFFFFFFFFFFFFFFFFFFFFFFFFFFFFFFF AND PUSH20 0xFFFFFFFFFFFFFFFFFFFFFFFFFFFFFFFFFFFFFFFF AND DUP2 MSTORE PUSH1 0x20 ADD SWAP1 DUP2 MSTORE PUSH1 0x20 ADD PUSH0 KECCAK256 DUP2 SWAP1 SSTORE POP JUMPDEST PUSH1 0x9 PUSH0 DUP5 PUSH20 0xFFFFFFFFFFFFFFFFFFFFFFFFFFFFFFFFFFFFFFFF AND PUSH20 0xFFFFFFFFFFFFFFFFFFFFFFFFFFFFFFFFFFFFFFFF AND DUP2 MSTORE PUSH1 0x20 ADD SWAP1 DUP2 MSTORE PUSH1 0x20 ADD PUSH0 KECCAK256 PUSH0 DUP3 DUP2 MSTORE PUSH1 0x20 ADD SWAP1 DUP2 MSTORE PUSH1 0x20 ADD PUSH0 KECCAK256 PUSH0 PUSH2 0x100 EXP DUP2 SLOAD SWAP1 PUSH20 0xFFFFFFFFFFFFFFFFFFFFFFFFFFFFFFFFFFFFFFFF MUL NOT AND SWAP1 SSTORE PUSH1 0xA PUSH0 DUP5 PUSH20 0xFFFFFFFFFFFFFFFFFFFFFFFFFFFFFFFFFFFFFFFF AND PUSH20 0xFFFFFFFFFFFFFFFFFFFFFFFFFFFFFFFFFFFFFFFF AND DUP2 MSTORE PUSH1 0x20 ADD SWAP1 DUP2 MSTORE PUSH1 0x20 ADD PUSH0 KECCAK256 PUSH0 DUP6 PUSH20 0xFFFFFFFFFFFFFFFFFFFFFFFFFFFFFFFFFFFFFFFF AND PUSH20 0xFFFFFFFFFFFFFFFFFFFFFFFFFFFFFFFFFFFFFFFF AND DUP2 MSTORE PUSH1 0x20 ADD SWAP1 DUP2 MSTORE PUSH1 0x20 ADD PUSH0 KECCAK256 PUSH0 SWAP1 SSTORE PUSH2 0xB7D PUSH1 0xB PUSH0 DUP6 PUSH20 0xFFFFFFFFFFFFFFFFFFFFFFFFFFFFFFFFFFFFFFFF AND PUSH20 0xFFFFFFFFFFFFFFFFFFFFFFFFFFFFFFFFFFFFFFFF AND DUP2 MSTORE PUSH1 0x20 ADD SWAP1 DUP2 MSTORE PUSH1 0x20 ADD PUSH0 KECCAK256 PUSH2 0x21F5 JUMP JUMPDEST PUSH0 PUSH1 0x1 PUSH0 SWAP1 SLOAD SWAP1 PUSH2 0x100 EXP SWAP1 DIV PUSH20 0xFFFFFFFFFFFFFFFFFFFFFFFFFFFFFFFFFFFFFFFF AND PUSH20 0xFFFFFFFFFFFFFFFFFFFFFFFFFFFFFFFFFFFFFFFF AND CALLVALUE PUSH1 0x40 MLOAD PUSH2 0xBC3 SWAP1 PUSH2 0x2783 JUMP JUMPDEST PUSH0 PUSH1 0x40 MLOAD DUP1 DUP4 SUB DUP2 DUP6 DUP8 GAS CALL SWAP3 POP POP POP RETURNDATASIZE DUP1 PUSH0 DUP2 EQ PUSH2 0xBFD JUMPI PUSH1 0x40 MLOAD SWAP2 POP PUSH1 0x1F NOT PUSH1 0x3F RETURNDATASIZE ADD AND DUP3 ADD PUSH1 0x40 MSTORE RETURNDATASIZE DUP3 MSTORE RETURNDATASIZE PUSH0 PUSH1 0x20 DUP5 ADD RETURNDATACOPY PUSH2 0xC02 JUMP JUMPDEST PUSH1 0x60 SWAP2 POP JUMPDEST POP POP SWAP1 POP DUP1 PUSH2 0xC46 JUMPI PUSH1 0x40 MLOAD PUSH32 0x8C379A000000000000000000000000000000000000000000000000000000000 DUP2 MSTORE PUSH1 0x4 ADD PUSH2 0xC3D SWAP1 PUSH2 0x27E1 JUMP JUMPDEST PUSH1 0x40 MLOAD DUP1 SWAP2 SUB SWAP1 REVERT JUMPDEST DUP5 PUSH20 0xFFFFFFFFFFFFFFFFFFFFFFFFFFFFFFFFFFFFFFFF AND DUP5 PUSH20 0xFFFFFFFFFFFFFFFFFFFFFFFFFFFFFFFFFFFFFFFF AND PUSH32 0xD1746B2E87B5C08F014F523C21B62D55FD2A0BE9831D627ADC7DBCCC315D1023 PUSH1 0x40 MLOAD PUSH1 0x40 MLOAD DUP1 SWAP2 SUB SWAP1 LOG3 POP POP POP POP PUSH2 0xCAC PUSH2 0x224D JUMP JUMPDEST POP JUMP JUMPDEST PUSH0 PUSH1 0x1 PUSH0 SWAP1 SLOAD SWAP1 PUSH2 0x100 EXP SWAP1 DIV PUSH20 0xFFFFFFFFFFFFFFFFFFFFFFFFFFFFFFFFFFFFFFFF AND SWAP1 POP SWAP1 JUMP JUMPDEST PUSH0 PUSH1 0x5 PUSH0 CALLER PUSH20 0xFFFFFFFFFFFFFFFFFFFFFFFFFFFFFFFFFFFFFFFF AND PUSH20 0xFFFFFFFFFFFFFFFFFFFFFFFFFFFFFFFFFFFFFFFF AND DUP2 MSTORE PUSH1 0x20 ADD SWAP1 DUP2 MSTORE PUSH1 0x20 ADD PUSH0 KECCAK256 SLOAD EQ PUSH2 0xD56 JUMPI PUSH1 0x40 MLOAD PUSH32 0x8C379A000000000000000000000000000000000000000000000000000000000 DUP2 MSTORE PUSH1 0x4 ADD PUSH2 0xD4D SWAP1 PUSH2 0x2849 JUMP JUMPDEST PUSH1 0x40 MLOAD DUP1 SWAP2 SUB SWAP1 REVERT JUMPDEST PUSH0 PUSH1 0x2 PUSH0 SWAP1 SLOAD SWAP1 PUSH2 0x100 EXP SWAP1 DIV PUSH20 0xFFFFFFFFFFFFFFFFFFFFFFFFFFFFFFFFFFFFFFFF AND PUSH20 0xFFFFFFFFFFFFFFFFFFFFFFFFFFFFFFFFFFFFFFFF AND PUSH4 0xAE23876C PUSH1 0x40 MLOAD DUP2 PUSH4 0xFFFFFFFF AND PUSH1 0xE0 SHL DUP2 MSTORE PUSH1 0x4 ADD PUSH1 0x40 DUP1 MLOAD DUP1 DUP4 SUB DUP2 DUP7 GAS STATICCALL ISZERO DUP1 ISZERO PUSH2 0xDC0 JUMPI RETURNDATASIZE PUSH0 PUSH0 RETURNDATACOPY RETURNDATASIZE PUSH0 REVERT JUMPDEST POP POP POP POP PUSH1 0x40 MLOAD RETURNDATASIZE PUSH1 0x1F NOT PUSH1 0x1F DUP3 ADD AND DUP3 ADD DUP1 PUSH1 0x40 MSTORE POP DUP2 ADD SWAP1 PUSH2 0xDE4 SWAP2 SWAP1 PUSH2 0x2867 JUMP JUMPDEST POP SWAP1 POP DUP1 PUSH1 0x3 PUSH0 SWAP1 SLOAD SWAP1 PUSH2 0x100 EXP SWAP1 DIV PUSH20 0xFFFFFFFFFFFFFFFFFFFFFFFFFFFFFFFFFFFFFFFF AND PUSH20 0xFFFFFFFFFFFFFFFFFFFFFFFFFFFFFFFFFFFFFFFF AND PUSH4 0x486A302E CALLER PUSH1 0x40 MLOAD DUP3 PUSH4 0xFFFFFFFF AND PUSH1 0xE0 SHL DUP2 MSTORE PUSH1 0x4 ADD PUSH2 0xE42 SWAP2 SWAP1 PUSH2 0x234C JUMP JUMPDEST PUSH1 0x20 PUSH1 0x40 MLOAD DUP1 DUP4 SUB DUP2 DUP7 GAS STATICCALL ISZERO DUP1 ISZERO PUSH2 0xE5D JUMPI RETURNDATASIZE PUSH0 PUSH0 RETURNDATACOPY RETURNDATASIZE PUSH0 REVERT JUMPDEST POP POP POP POP PUSH1 0x40 MLOAD RETURNDATASIZE PUSH1 0x1F NOT PUSH1 0x1F DUP3 ADD AND DUP3 ADD DUP1 PUSH1 0x40 MSTORE POP DUP2 ADD SWAP1 PUSH2 0xE81 SWAP2 SWAP1 PUSH2 0x28A5 JUMP JUMPDEST LT ISZERO PUSH2 0xEC2 JUMPI PUSH1 0x40 MLOAD PUSH32 0x8C379A000000000000000000000000000000000000000000000000000000000 DUP2 MSTORE PUSH1 0x4 ADD PUSH2 0xEB9 SWAP1 PUSH2 0x291A JUMP JUMPDEST PUSH1 0x40 MLOAD DUP1 SWAP2 SUB SWAP1 REVERT JUMPDEST PUSH2 0xECC PUSH1 0x6 PUSH2 0x2256 JUMP JUMPDEST CALLER PUSH1 0x4 PUSH0 PUSH2 0xEDA PUSH1 0x6 PUSH2 0x21E9 JUMP JUMPDEST DUP2 MSTORE PUSH1 0x20 ADD SWAP1 DUP2 MSTORE PUSH1 0x20 ADD PUSH0 KECCAK256 PUSH0 PUSH2 0x100 EXP DUP2 SLOAD DUP2 PUSH20 0xFFFFFFFFFFFFFFFFFFFFFFFFFFFFFFFFFFFFFFFF MUL NOT AND SWAP1 DUP4 PUSH20 0xFFFFFFFFFFFFFFFFFFFFFFFFFFFFFFFFFFFFFFFF AND MUL OR SWAP1 SSTORE POP PUSH2 0xF2E PUSH1 0x6 PUSH2 0x21E9 JUMP JUMPDEST PUSH1 0x5 PUSH0 CALLER PUSH20 0xFFFFFFFFFFFFFFFFFFFFFFFFFFFFFFFFFFFFFFFF AND PUSH20 0xFFFFFFFFFFFFFFFFFFFFFFFFFFFFFFFFFFFFFFFF AND DUP2 MSTORE PUSH1 0x20 ADD SWAP1 DUP2 MSTORE PUSH1 0x20 ADD PUSH0 KECCAK256 DUP2 SWAP1 SSTORE POP PUSH32 0x209609C310B4D084B32245525F311D83EEAA7FF210643C5EFD625A8726F2FA40 CALLER PUSH1 0x40 MLOAD PUSH2 0xF9E SWAP2 SWAP1 PUSH2 0x234C JUMP JUMPDEST PUSH1 0x40 MLOAD DUP1 SWAP2 SUB SWAP1 LOG1 POP JUMP JUMPDEST PUSH2 0xFB1 PUSH2 0x219C JUMP JUMPDEST PUSH0 CALLER SWAP1 POP PUSH1 0x7 PUSH0 DUP3 PUSH20 0xFFFFFFFFFFFFFFFFFFFFFFFFFFFFFFFFFFFFFFFF AND PUSH20 0xFFFFFFFFFFFFFFFFFFFFFFFFFFFFFFFFFFFFFFFF AND DUP2 MSTORE PUSH1 0x20 ADD SWAP1 DUP2 MSTORE PUSH1 0x20 ADD PUSH0 KECCAK256 PUSH0 SWAP1 SLOAD SWAP1 PUSH2 0x100 EXP SWAP1 DIV PUSH1 0xFF AND PUSH2 0x103E JUMPI PUSH1 0x40 MLOAD PUSH32 0x8C379A000000000000000000000000000000000000000000000000000000000 DUP2 MSTORE PUSH1 0x4 ADD PUSH2 0x1035 SWAP1 PUSH2 0x2982 JUMP JUMPDEST PUSH1 0x40 MLOAD DUP1 SWAP2 SUB SWAP1 REVERT JUMPDEST PUSH0 PUSH20 0xFFFFFFFFFFFFFFFFFFFFFFFFFFFFFFFFFFFFFFFF AND DUP3 PUSH20 0xFFFFFFFFFFFFFFFFFFFFFFFFFFFFFFFFFFFFFFFF AND SUB PUSH2 0x10AC JUMPI PUSH1 0x40 MLOAD PUSH32 0x8C379A000000000000000000000000000000000000000000000000000000000 DUP2 MSTORE PUSH1 0x4 ADD PUSH2 0x10A3 SWAP1 PUSH2 0x29EA JUMP JUMPDEST PUSH1 0x40 MLOAD DUP1 SWAP2 SUB SWAP1 REVERT JUMPDEST PUSH2 0x10B6 DUP2 DUP4 PUSH2 0x192A JUMP JUMPDEST ISZERO PUSH2 0x10F6 JUMPI PUSH1 0x40 MLOAD PUSH32 0x8C379A000000000000000000000000000000000000000000000000000000000 DUP2 MSTORE PUSH1 0x4 ADD PUSH2 0x10ED SWAP1 PUSH2 0x2A52 JUMP JUMPDEST PUSH1 0x40 MLOAD DUP1 SWAP2 SUB SWAP1 REVERT JUMPDEST PUSH0 PUSH1 0x2 PUSH0 SWAP1 SLOAD SWAP1 PUSH2 0x100 EXP SWAP1 DIV PUSH20 0xFFFFFFFFFFFFFFFFFFFFFFFFFFFFFFFFFFFFFFFF AND PUSH20 0xFFFFFFFFFFFFFFFFFFFFFFFFFFFFFFFFFFFFFFFF AND PUSH3 0x2EAB7 PUSH1 0x40 MLOAD DUP2 PUSH4 0xFFFFFFFF AND PUSH1 0xE0 SHL DUP2 MSTORE PUSH1 0x4 ADD PUSH1 0x80 PUSH1 0x40 MLOAD DUP1 DUP4 SUB DUP2 DUP7 GAS STATICCALL ISZERO DUP1 ISZERO PUSH2 0x1160 JUMPI RETURNDATASIZE PUSH0 PUSH0 RETURNDATACOPY RETURNDATASIZE PUSH0 REVERT JUMPDEST POP POP POP POP PUSH1 0x40 MLOAD RETURNDATASIZE PUSH1 0x1F NOT PUSH1 0x1F DUP3 ADD AND DUP3 ADD DUP1 PUSH1 0x40 MSTORE POP DUP2 ADD SWAP1 PUSH2 0x1184 SWAP2 SWAP1 PUSH2 0x2663 JUMP JUMPDEST POP SWAP3 POP POP POP PUSH2 0x11CE PUSH1 0xB PUSH0 DUP5 PUSH20 0xFFFFFFFFFFFFFFFFFFFFFFFFFFFFFFFFFFFFFFFF AND PUSH20 0xFFFFFFFFFFFFFFFFFFFFFFFFFFFFFFFFFFFFFFFF AND DUP2 MSTORE PUSH1 0x20 ADD SWAP1 DUP2 MSTORE PUSH1 0x20 ADD PUSH0 KECCAK256 PUSH2 0x2256 JUMP JUMPDEST DUP3 PUSH1 0x9 PUSH0 DUP5 PUSH20 0xFFFFFFFFFFFFFFFFFFFFFFFFFFFFFFFFFFFFFFFF AND PUSH20 0xFFFFFFFFFFFFFFFFFFFFFFFFFFFFFFFFFFFFFFFF AND DUP2 MSTORE PUSH1 0x20 ADD SWAP1 DUP2 MSTORE PUSH1 0x20 ADD PUSH0 KECCAK256 PUSH0 PUSH2 0x1252 PUSH1 0xB PUSH0 DUP8 PUSH20 0xFFFFFFFFFFFFFFFFFFFFFFFFFFFFFFFFFFFFFFFF AND PUSH20 0xFFFFFFFFFFFFFFFFFFFFFFFFFFFFFFFFFFFFFFFF AND DUP2 MSTORE PUSH1 0x20 ADD SWAP1 DUP2 MSTORE PUSH1 0x20 ADD PUSH0 KECCAK256 PUSH2 0x21E9 JUMP JUMPDEST DUP2 MSTORE PUSH1 0x20 ADD SWAP1 DUP2 MSTORE PUSH1 0x20 ADD PUSH0 KECCAK256 PUSH0 PUSH2 0x100 EXP DUP2 SLOAD DUP2 PUSH20 0xFFFFFFFFFFFFFFFFFFFFFFFFFFFFFFFFFFFFFFFF MUL NOT AND SWAP1 DUP4 PUSH20 0xFFFFFFFFFFFFFFFFFFFFFFFFFFFFFFFFFFFFFFFF AND MUL OR SWAP1 SSTORE POP PUSH2 0x12E1 PUSH1 0xB PUSH0 DUP5 PUSH20 0xFFFFFFFFFFFFFFFFFFFFFFFFFFFFFFFFFFFFFFFF AND PUSH20 0xFFFFFFFFFFFFFFFFFFFFFFFFFFFFFFFFFFFFFFFF AND DUP2 MSTORE PUSH1 0x20 ADD SWAP1 DUP2 MSTORE PUSH1 0x20 ADD PUSH0 KECCAK256 PUSH2 0x21E9 JUMP JUMPDEST PUSH1 0xA PUSH0 DUP5 PUSH20 0xFFFFFFFFFFFFFFFFFFFFFFFFFFFFFFFFFFFFFFFF AND PUSH20 0xFFFFFFFFFFFFFFFFFFFFFFFFFFFFFFFFFFFFFFFF AND DUP2 MSTORE PUSH1 0x20 ADD SWAP1 DUP2 MSTORE PUSH1 0x20 ADD PUSH0 KECCAK256 PUSH0 DUP6 PUSH20 0xFFFFFFFFFFFFFFFFFFFFFFFFFFFFFFFFFFFFFFFF AND PUSH20 0xFFFFFFFFFFFFFFFFFFFFFFFFFFFFFFFFFFFFFFFF AND DUP2 MSTORE PUSH1 0x20 ADD SWAP1 DUP2 MSTORE PUSH1 0x20 ADD PUSH0 KECCAK256 DUP2 SWAP1 SSTORE POP DUP1 CALLVALUE LT ISZERO PUSH2 0x13A0 JUMPI PUSH1 0x40 MLOAD PUSH32 0x8C379A000000000000000000000000000000000000000000000000000000000 DUP2 MSTORE PUSH1 0x4 ADD PUSH2 0x1397 SWAP1 PUSH2 0x2711 JUMP JUMPDEST PUSH1 0x40 MLOAD DUP1 SWAP2 SUB SWAP1 REVERT JUMPDEST DUP1 CALLVALUE GT ISZERO PUSH2 0x145D JUMPI PUSH0 CALLER PUSH20 0xFFFFFFFFFFFFFFFFFFFFFFFFFFFFFFFFFFFFFFFF AND DUP3 CALLVALUE PUSH2 0x13CC SWAP2 SWAP1 PUSH2 0x2A9D JUMP JUMPDEST PUSH1 0x40 MLOAD PUSH2 0x13D8 SWAP1 PUSH2 0x2AF3 JUMP JUMPDEST PUSH0 PUSH1 0x40 MLOAD DUP1 DUP4 SUB DUP2 DUP6 DUP8 GAS CALL SWAP3 POP POP POP RETURNDATASIZE DUP1 PUSH0 DUP2 EQ PUSH2 0x1412 JUMPI PUSH1 0x40 MLOAD SWAP2 POP PUSH1 0x1F NOT PUSH1 0x3F RETURNDATASIZE ADD AND DUP3 ADD PUSH1 0x40 MSTORE RETURNDATASIZE DUP3 MSTORE RETURNDATASIZE PUSH0 PUSH1 0x20 DUP5 ADD RETURNDATACOPY PUSH2 0x1417 JUMP JUMPDEST PUSH1 0x60 SWAP2 POP JUMPDEST POP POP SWAP1 POP DUP1 PUSH2 0x145B JUMPI PUSH1 0x40 MLOAD PUSH32 0x8C379A000000000000000000000000000000000000000000000000000000000 DUP2 MSTORE PUSH1 0x4 ADD PUSH2 0x1452 SWAP1 PUSH2 0x2B51 JUMP JUMPDEST PUSH1 0x40 MLOAD DUP1 SWAP2 SUB SWAP1 REVERT JUMPDEST POP JUMPDEST PUSH0 PUSH1 0x1 PUSH0 SWAP1 SLOAD SWAP1 PUSH2 0x100 EXP SWAP1 DIV PUSH20 0xFFFFFFFFFFFFFFFFFFFFFFFFFFFFFFFFFFFFFFFF AND PUSH20 0xFFFFFFFFFFFFFFFFFFFFFFFFFFFFFFFFFFFFFFFF AND DUP3 PUSH1 0x40 MLOAD PUSH2 0x14A3 SWAP1 PUSH2 0x2AF3 JUMP JUMPDEST PUSH0 PUSH1 0x40 MLOAD DUP1 DUP4 SUB DUP2 DUP6 DUP8 GAS CALL SWAP3 POP POP POP RETURNDATASIZE DUP1 PUSH0 DUP2 EQ PUSH2 0x14DD JUMPI PUSH1 0x40 MLOAD SWAP2 POP PUSH1 0x1F NOT PUSH1 0x3F RETURNDATASIZE ADD AND DUP3 ADD PUSH1 0x40 MSTORE RETURNDATASIZE DUP3 MSTORE RETURNDATASIZE PUSH0 PUSH1 0x20 DUP5 ADD RETURNDATACOPY PUSH2 0x14E2 JUMP JUMPDEST PUSH1 0x60 SWAP2 POP JUMPDEST POP POP SWAP1 POP DUP1 PUSH2 0x1526 JUMPI PUSH1 0x40 MLOAD PUSH32 0x8C379A000000000000000000000000000000000000000000000000000000000 DUP2 MSTORE PUSH1 0x4 ADD PUSH2 0x151D SWAP1 PUSH2 0x2BB9 JUMP JUMPDEST PUSH1 0x40 MLOAD DUP1 SWAP2 SUB SWAP1 REVERT JUMPDEST DUP4 PUSH20 0xFFFFFFFFFFFFFFFFFFFFFFFFFFFFFFFFFFFFFFFF AND DUP4 PUSH20 0xFFFFFFFFFFFFFFFFFFFFFFFFFFFFFFFFFFFFFFFF AND PUSH32 0xD8992B24803669FFD1D156B9EADB0A7DA92032A46B0708BCC3A4F60022A726DF PUSH1 0x40 MLOAD PUSH1 0x40 MLOAD DUP1 SWAP2 SUB SWAP1 LOG3 POP POP POP PUSH2 0x158B PUSH2 0x224D JUMP JUMPDEST POP JUMP JUMPDEST PUSH1 0x2 PUSH0 SWAP1 SLOAD SWAP1 PUSH2 0x100 EXP SWAP1 DIV PUSH20 0xFFFFFFFFFFFFFFFFFFFFFFFFFFFFFFFFFFFFFFFF AND PUSH20 0xFFFFFFFFFFFFFFFFFFFFFFFFFFFFFFFFFFFFFFFF AND PUSH4 0xFDC6258A CALLER PUSH1 0x40 MLOAD DUP3 PUSH4 0xFFFFFFFF AND PUSH1 0xE0 SHL DUP2 MSTORE PUSH1 0x4 ADD PUSH2 0x15E8 SWAP2 SWAP1 PUSH2 0x234C JUMP JUMPDEST PUSH1 0x20 PUSH1 0x40 MLOAD DUP1 DUP4 SUB DUP2 DUP7 GAS STATICCALL ISZERO DUP1 ISZERO PUSH2 0x1603 JUMPI RETURNDATASIZE PUSH0 PUSH0 RETURNDATACOPY RETURNDATASIZE PUSH0 REVERT JUMPDEST POP POP POP POP PUSH1 0x40 MLOAD RETURNDATASIZE PUSH1 0x1F NOT PUSH1 0x1F DUP3 ADD AND DUP3 ADD DUP1 PUSH1 0x40 MSTORE POP DUP2 ADD SWAP1 PUSH2 0x1627 SWAP2 SWAP1 PUSH2 0x2C01 JUMP JUMPDEST PUSH2 0x1666 JUMPI PUSH1 0x40 MLOAD PUSH32 0x8C379A000000000000000000000000000000000000000000000000000000000 DUP2 MSTORE PUSH1 0x4 ADD PUSH2 0x165D SWAP1 PUSH2 0x2C76 JUMP JUMPDEST PUSH1 0x40 MLOAD DUP1 SWAP2 SUB SWAP1 REVERT JUMPDEST PUSH0 PUSH1 0x2 PUSH0 SWAP1 SLOAD SWAP1 PUSH2 0x100 EXP SWAP1 DIV PUSH20 0xFFFFFFFFFFFFFFFFFFFFFFFFFFFFFFFFFFFFFFFF AND PUSH20 0xFFFFFFFFFFFFFFFFFFFFFFFFFFFFFFFFFFFFFFFF AND PUSH4 0x570CA735 PUSH1 0x40 MLOAD DUP2 PUSH4 0xFFFFFFFF AND PUSH1 0xE0 SHL DUP2 MSTORE PUSH1 0x4 ADD PUSH1 0x20 PUSH1 0x40 MLOAD DUP1 DUP4 SUB DUP2 DUP7 GAS STATICCALL ISZERO DUP1 ISZERO PUSH2 0x16D1 JUMPI RETURNDATASIZE PUSH0 PUSH0 RETURNDATACOPY RETURNDATASIZE PUSH0 REVERT JUMPDEST POP POP POP POP PUSH1 0x40 MLOAD RETURNDATASIZE PUSH1 0x1F NOT PUSH1 0x1F DUP3 ADD AND DUP3 ADD DUP1 PUSH1 0x40 MSTORE POP DUP2 ADD SWAP1 PUSH2 0x16F5 SWAP2 SWAP1 PUSH2 0x2CA8 JUMP JUMPDEST SWAP1 POP CALLER PUSH20 0xFFFFFFFFFFFFFFFFFFFFFFFFFFFFFFFFFFFFFFFF AND PUSH1 0x8 PUSH0 DUP5 PUSH20 0xFFFFFFFFFFFFFFFFFFFFFFFFFFFFFFFFFFFFFFFF AND PUSH20 0xFFFFFFFFFFFFFFFFFFFFFFFFFFFFFFFFFFFFFFFF AND DUP2 MSTORE PUSH1 0x20 ADD SWAP1 DUP2 MSTORE PUSH1 0x20 ADD PUSH0 KECCAK256 PUSH0 SWAP1 SLOAD SWAP1 PUSH2 0x100 EXP SWAP1 DIV PUSH20 0xFFFFFFFFFFFFFFFFFFFFFFFFFFFFFFFFFFFFFFFF AND PUSH20 0xFFFFFFFFFFFFFFFFFFFFFFFFFFFFFFFFFFFFFFFF AND EQ DUP1 PUSH2 0x17B8 JUMPI POP CALLER PUSH20 0xFFFFFFFFFFFFFFFFFFFFFFFFFFFFFFFFFFFFFFFF AND DUP2 PUSH20 0xFFFFFFFFFFFFFFFFFFFFFFFFFFFFFFFFFFFFFFFF AND EQ JUMPDEST PUSH2 0x17F7 JUMPI PUSH1 0x40 MLOAD PUSH32 0x8C379A000000000000000000000000000000000000000000000000000000000 DUP2 MSTORE PUSH1 0x4 ADD PUSH2 0x17EE SWAP1 PUSH2 0x2D1D JUMP JUMPDEST PUSH1 0x40 MLOAD DUP1 SWAP2 SUB SWAP1 REVERT JUMPDEST PUSH0 PUSH1 0x7 PUSH0 DUP5 PUSH20 0xFFFFFFFFFFFFFFFFFFFFFFFFFFFFFFFFFFFFFFFF AND PUSH20 0xFFFFFFFFFFFFFFFFFFFFFFFFFFFFFFFFFFFFFFFF AND DUP2 MSTORE PUSH1 0x20 ADD SWAP1 DUP2 MSTORE PUSH1 0x20 ADD PUSH0 KECCAK256 PUSH0 PUSH2 0x100 EXP DUP2 SLOAD DUP2 PUSH1 0xFF MUL NOT AND SWAP1 DUP4 ISZERO ISZERO MUL OR SWAP1 SSTORE POP PUSH1 0x8 PUSH0 DUP4 PUSH20 0xFFFFFFFFFFFFFFFFFFFFFFFFFFFFFFFFFFFFFFFF AND PUSH20 0xFFFFFFFFFFFFFFFFFFFFFFFFFFFFFFFFFFFFFFFF AND DUP2 MSTORE PUSH1 0x20 ADD SWAP1 DUP2 MSTORE PUSH1 0x20 ADD PUSH0 KECCAK256 PUSH0 PUSH2 0x100 EXP DUP2 SLOAD SWAP1 PUSH20 0xFFFFFFFFFFFFFFFFFFFFFFFFFFFFFFFFFFFFFFFF MUL NOT AND SWAP1 SSTORE DUP2 PUSH20 0xFFFFFFFFFFFFFFFFFFFFFFFFFFFFFFFFFFFFFFFF AND PUSH32 0xA4099D5EE8509055E59F9F724D33F27F8D2DA9294E7D7C23A2CC37DD1AF4254C PUSH1 0x40 MLOAD PUSH1 0x40 MLOAD DUP1 SWAP2 SUB SWAP1 LOG2 POP POP JUMP JUMPDEST PUSH0 PUSH1 0x4 PUSH0 DUP4 DUP2 MSTORE PUSH1 0x20 ADD SWAP1 DUP2 MSTORE PUSH1 0x20 ADD PUSH0 KECCAK256 PUSH0 SWAP1 SLOAD SWAP1 PUSH2 0x100 EXP SWAP1 DIV PUSH20 0xFFFFFFFFFFFFFFFFFFFFFFFFFFFFFFFFFFFFFFFF AND SWAP1 POP SWAP2 SWAP1 POP JUMP JUMPDEST PUSH0 PUSH0 PUSH1 0xA PUSH0 DUP6 PUSH20 0xFFFFFFFFFFFFFFFFFFFFFFFFFFFFFFFFFFFFFFFF AND PUSH20 0xFFFFFFFFFFFFFFFFFFFFFFFFFFFFFFFFFFFFFFFF AND DUP2 MSTORE PUSH1 0x20 ADD SWAP1 DUP2 MSTORE PUSH1 0x20 ADD PUSH0 KECCAK256 PUSH0 DUP5 PUSH20 0xFFFFFFFFFFFFFFFFFFFFFFFFFFFFFFFFFFFFFFFF AND PUSH20 0xFFFFFFFFFFFFFFFFFFFFFFFFFFFFFFFFFFFFFFFF AND DUP2 MSTORE PUSH1 0x20 ADD SWAP1 DUP2 MSTORE PUSH1 0x20 ADD PUSH0 KECCAK256 SLOAD EQ ISZERO DUP1 PUSH2 0x19DD JUMPI POP DUP2 PUSH20 0xFFFFFFFFFFFFFFFFFFFFFFFFFFFFFFFFFFFFFFFF AND DUP4 PUSH20 0xFFFFFFFFFFFFFFFFFFFFFFFFFFFFFFFFFFFFFFFF AND EQ JUMPDEST SWAP1 POP SWAP3 SWAP2 POP POP JUMP JUMPDEST PUSH0 PUSH1 0x5 PUSH0 DUP4 PUSH20 0xFFFFFFFFFFFFFFFFFFFFFFFFFFFFFFFFFFFFFFFF AND PUSH20 0xFFFFFFFFFFFFFFFFFFFFFFFFFFFFFFFFFFFFFFFF AND DUP2 MSTORE PUSH1 0x20 ADD SWAP1 DUP2 MSTORE PUSH1 0x20 ADD PUSH0 KECCAK256 SLOAD SWAP1 POP SWAP2 SWAP1 POP JUMP JUMPDEST PUSH0 PUSH1 0xA PUSH0 DUP5 PUSH20 0xFFFFFFFFFFFFFFFFFFFFFFFFFFFFFFFFFFFFFFFF AND PUSH20 0xFFFFFFFFFFFFFFFFFFFFFFFFFFFFFFFFFFFFFFFF AND DUP2 MSTORE PUSH1 0x20 ADD SWAP1 DUP2 MSTORE PUSH1 0x20 ADD PUSH0 KECCAK256 PUSH0 DUP4 PUSH20 0xFFFFFFFFFFFFFFFFFFFFFFFFFFFFFFFFFFFFFFFF AND PUSH20 0xFFFFFFFFFFFFFFFFFFFFFFFFFFFFFFFFFFFFFFFF AND DUP2 MSTORE PUSH1 0x20 ADD SWAP1 DUP2 MSTORE PUSH1 0x20 ADD PUSH0 KECCAK256 SLOAD SWAP1 POP SWAP3 SWAP2 POP POP JUMP JUMPDEST PUSH1 0x6 DUP1 PUSH0 ADD SLOAD SWAP1 POP DUP2 JUMP JUMPDEST PUSH0 PUSH1 0x5 PUSH0 CALLER PUSH20 0xFFFFFFFFFFFFFFFFFFFFFFFFFFFFFFFFFFFFFFFF AND PUSH20 0xFFFFFFFFFFFFFFFFFFFFFFFFFFFFFFFFFFFFFFFF AND DUP2 MSTORE PUSH1 0x20 ADD SWAP1 DUP2 MSTORE PUSH1 0x20 ADD PUSH0 KECCAK256 SLOAD SUB PUSH2 0x1B37 JUMPI PUSH1 0x40 MLOAD PUSH32 0x8C379A000000000000000000000000000000000000000000000000000000000 DUP2 MSTORE PUSH1 0x4 ADD PUSH2 0x1B2E SWAP1 PUSH2 0x2D85 JUMP JUMPDEST PUSH1 0x40 MLOAD DUP1 SWAP2 SUB SWAP1 REVERT JUMPDEST PUSH0 PUSH1 0x5 PUSH0 CALLER PUSH20 0xFFFFFFFFFFFFFFFFFFFFFFFFFFFFFFFFFFFFFFFF AND PUSH20 0xFFFFFFFFFFFFFFFFFFFFFFFFFFFFFFFFFFFFFFFF AND DUP2 MSTORE PUSH1 0x20 ADD SWAP1 DUP2 MSTORE PUSH1 0x20 ADD PUSH0 KECCAK256 SLOAD SWAP1 POP PUSH0 PUSH2 0x1B83 PUSH1 0x6 PUSH2 0x21E9 JUMP JUMPDEST SWAP1 POP PUSH0 PUSH1 0x4 PUSH0 DUP4 DUP2 MSTORE PUSH1 0x20 ADD SWAP1 DUP2 MSTORE PUSH1 0x20 ADD PUSH0 KECCAK256 PUSH0 SWAP1 SLOAD SWAP1 PUSH2 0x100 EXP SWAP1 DIV PUSH20 0xFFFFFFFFFFFFFFFFFFFFFFFFFFFFFFFFFFFFFFFF AND SWAP1 POP DUP2 DUP4 EQ PUSH2 0x1C52 JUMPI DUP1 PUSH1 0x4 PUSH0 DUP6 DUP2 MSTORE PUSH1 0x20 ADD SWAP1 DUP2 MSTORE PUSH1 0x20 ADD PUSH0 KECCAK256 PUSH0 PUSH2 0x100 EXP DUP2 SLOAD DUP2 PUSH20 0xFFFFFFFFFFFFFFFFFFFFFFFFFFFFFFFFFFFFFFFF MUL NOT AND SWAP1 DUP4 PUSH20 0xFFFFFFFFFFFFFFFFFFFFFFFFFFFFFFFFFFFFFFFF AND MUL OR SWAP1 SSTORE POP DUP3 PUSH1 0x5 PUSH0 DUP4 PUSH20 0xFFFFFFFFFFFFFFFFFFFFFFFFFFFFFFFFFFFFFFFF AND PUSH20 0xFFFFFFFFFFFFFFFFFFFFFFFFFFFFFFFFFFFFFFFF AND DUP2 MSTORE PUSH1 0x20 ADD SWAP1 DUP2 MSTORE PUSH1 0x20 ADD PUSH0 KECCAK256 DUP2 SWAP1 SSTORE POP JUMPDEST PUSH1 0x4 PUSH0 DUP4 DUP2 MSTORE PUSH1 0x20 ADD SWAP1 DUP2 MSTORE PUSH1 0x20 ADD PUSH0 KECCAK256 PUSH0 PUSH2 0x100 EXP DUP2 SLOAD SWAP1 PUSH20 0xFFFFFFFFFFFFFFFFFFFFFFFFFFFFFFFFFFFFFFFF MUL NOT AND SWAP1 SSTORE PUSH1 0x5 PUSH0 CALLER PUSH20 0xFFFFFFFFFFFFFFFFFFFFFFFFFFFFFFFFFFFFFFFF AND PUSH20 0xFFFFFFFFFFFFFFFFFFFFFFFFFFFFFFFFFFFFFFFF AND DUP2 MSTORE PUSH1 0x20 ADD SWAP1 DUP2 MSTORE PUSH1 0x20 ADD PUSH0 KECCAK256 PUSH0 SWAP1 SSTORE PUSH2 0x1CCF PUSH1 0x6 PUSH2 0x21F5 JUMP JUMPDEST PUSH32 0x83523888164DF1212DC7B0E70A95CF164A8B36786C5A370BEF8EA4E8E537820B CALLER PUSH1 0x40 MLOAD PUSH2 0x1CFE SWAP2 SWAP1 PUSH2 0x234C JUMP JUMPDEST PUSH1 0x40 MLOAD DUP1 SWAP2 SUB SWAP1 LOG1 POP POP POP JUMP JUMPDEST PUSH1 0x60 PUSH0 DUP4 DUP4 SWAP1 POP SWAP1 POP PUSH0 DUP2 PUSH8 0xFFFFFFFFFFFFFFFF DUP2 GT ISZERO PUSH2 0x1D2F JUMPI PUSH2 0x1D2E PUSH2 0x2DA3 JUMP JUMPDEST JUMPDEST PUSH1 0x40 MLOAD SWAP1 DUP1 DUP3 MSTORE DUP1 PUSH1 0x20 MUL PUSH1 0x20 ADD DUP3 ADD PUSH1 0x40 MSTORE DUP1 ISZERO PUSH2 0x1D5D JUMPI DUP2 PUSH1 0x20 ADD PUSH1 0x20 DUP3 MUL DUP1 CALLDATASIZE DUP4 CALLDATACOPY DUP1 DUP3 ADD SWAP2 POP POP SWAP1 POP JUMPDEST POP SWAP1 POP PUSH0 PUSH0 SWAP1 POP JUMPDEST DUP3 DUP2 LT ISZERO PUSH2 0x1E16 JUMPI PUSH0 DUP7 DUP7 DUP4 DUP2 DUP2 LT PUSH2 0x1D81 JUMPI PUSH2 0x1D80 PUSH2 0x2DD0 JUMP JUMPDEST JUMPDEST SWAP1 POP PUSH1 0x20 MUL ADD CALLDATALOAD SWAP1 POP PUSH1 0x4 PUSH0 DUP3 DUP2 MSTORE PUSH1 0x20 ADD SWAP1 DUP2 MSTORE PUSH1 0x20 ADD PUSH0 KECCAK256 PUSH0 SWAP1 SLOAD SWAP1 PUSH2 0x100 EXP SWAP1 DIV PUSH20 0xFFFFFFFFFFFFFFFFFFFFFFFFFFFFFFFFFFFFFFFF AND DUP4 DUP4 DUP2 MLOAD DUP2 LT PUSH2 0x1DCE JUMPI PUSH2 0x1DCD PUSH2 0x2DD0 JUMP JUMPDEST JUMPDEST PUSH1 0x20 MUL PUSH1 0x20 ADD ADD SWAP1 PUSH20 0xFFFFFFFFFFFFFFFFFFFFFFFFFFFFFFFFFFFFFFFF AND SWAP1 DUP2 PUSH20 0xFFFFFFFFFFFFFFFFFFFFFFFFFFFFFFFFFFFFFFFF AND DUP2 MSTORE POP POP POP DUP1 DUP1 PUSH1 0x1 ADD SWAP2 POP POP PUSH2 0x1D65 JUMP JUMPDEST POP DUP1 SWAP3 POP POP POP SWAP3 SWAP2 POP POP JUMP JUMPDEST PUSH0 PUSH1 0x7 PUSH0 DUP4 PUSH20 0xFFFFFFFFFFFFFFFFFFFFFFFFFFFFFFFFFFFFFFFF AND PUSH20 0xFFFFFFFFFFFFFFFFFFFFFFFFFFFFFFFFFFFFFFFF AND DUP2 MSTORE PUSH1 0x20 ADD SWAP1 DUP2 MSTORE PUSH1 0x20 ADD PUSH0 KECCAK256 PUSH0 SWAP1 SLOAD SWAP1 PUSH2 0x100 EXP SWAP1 DIV PUSH1 0xFF AND SWAP1 POP SWAP2 SWAP1 POP JUMP JUMPDEST PUSH1 0x2 PUSH0 SWAP1 SLOAD SWAP1 PUSH2 0x100 EXP SWAP1 DIV PUSH20 0xFFFFFFFFFFFFFFFFFFFFFFFFFFFFFFFFFFFFFFFF AND PUSH20 0xFFFFFFFFFFFFFFFFFFFFFFFFFFFFFFFFFFFFFFFF AND PUSH4 0xFDC6258A CALLER PUSH1 0x40 MLOAD DUP3 PUSH4 0xFFFFFFFF AND PUSH1 0xE0 SHL DUP2 MSTORE PUSH1 0x4 ADD PUSH2 0x1ECE SWAP2 SWAP1 PUSH2 0x234C JUMP JUMPDEST PUSH1 0x20 PUSH1 0x40 MLOAD DUP1 DUP4 SUB DUP2 DUP7 GAS STATICCALL ISZERO DUP1 ISZERO PUSH2 0x1EE9 JUMPI RETURNDATASIZE PUSH0 PUSH0 RETURNDATACOPY RETURNDATASIZE PUSH0 REVERT JUMPDEST POP POP POP POP PUSH1 0x40 MLOAD RETURNDATASIZE PUSH1 0x1F NOT PUSH1 0x1F DUP3 ADD AND DUP3 ADD DUP1 PUSH1 0x40 MSTORE POP DUP2 ADD SWAP1 PUSH2 0x1F0D SWAP2 SWAP1 PUSH2 0x2C01 JUMP JUMPDEST PUSH2 0x1F4C JUMPI PUSH1 0x40 MLOAD PUSH32 0x8C379A000000000000000000000000000000000000000000000000000000000 DUP2 MSTORE PUSH1 0x4 ADD PUSH2 0x1F43 SWAP1 PUSH2 0x2C76 JUMP JUMPDEST PUSH1 0x40 MLOAD DUP1 SWAP2 SUB SWAP1 REVERT JUMPDEST PUSH0 PUSH20 0xFFFFFFFFFFFFFFFFFFFFFFFFFFFFFFFFFFFFFFFF AND DUP2 PUSH20 0xFFFFFFFFFFFFFFFFFFFFFFFFFFFFFFFFFFFFFFFF AND SUB PUSH2 0x1FBA JUMPI PUSH1 0x40 MLOAD PUSH32 0x8C379A000000000000000000000000000000000000000000000000000000000 DUP2 MSTORE PUSH1 0x4 ADD PUSH2 0x1FB1 SWAP1 PUSH2 0x2E47 JUMP JUMPDEST PUSH1 0x40 MLOAD DUP1 SWAP2 SUB SWAP1 REVERT JUMPDEST PUSH0 PUSH1 0x5 PUSH0 DUP4 PUSH20 0xFFFFFFFFFFFFFFFFFFFFFFFFFFFFFFFFFFFFFFFF AND PUSH20 0xFFFFFFFFFFFFFFFFFFFFFFFFFFFFFFFFFFFFFFFF AND DUP2 MSTORE PUSH1 0x20 ADD SWAP1 DUP2 MSTORE PUSH1 0x20 ADD PUSH0 KECCAK256 SLOAD SUB PUSH2 0x2039 JUMPI PUSH1 0x40 MLOAD PUSH32 0x8C379A000000000000000000000000000000000000000000000000000000000 DUP2 MSTORE PUSH1 0x4 ADD PUSH2 0x2030 SWAP1 PUSH2 0x2EAF JUMP JUMPDEST PUSH1 0x40 MLOAD DUP1 SWAP2 SUB SWAP1 REVERT JUMPDEST PUSH1 0x1 PUSH1 0x7 PUSH0 DUP4 PUSH20 0xFFFFFFFFFFFFFFFFFFFFFFFFFFFFFFFFFFFFFFFF AND PUSH20 0xFFFFFFFFFFFFFFFFFFFFFFFFFFFFFFFFFFFFFFFF AND DUP2 MSTORE PUSH1 0x20 ADD SWAP1 DUP2 MSTORE PUSH1 0x20 ADD PUSH0 KECCAK256 PUSH0 PUSH2 0x100 EXP DUP2 SLOAD DUP2 PUSH1 0xFF MUL NOT AND SWAP1 DUP4 ISZERO ISZERO MUL OR SWAP1 SSTORE POP CALLER PUSH1 0x8 PUSH0 DUP4 PUSH20 0xFFFFFFFFFFFFFFFFFFFFFFFFFFFFFFFFFFFFFFFF AND PUSH20 0xFFFFFFFFFFFFFFFFFFFFFFFFFFFFFFFFFFFFFFFF AND DUP2 MSTORE PUSH1 0x20 ADD SWAP1 DUP2 MSTORE PUSH1 0x20 ADD PUSH0 KECCAK256 PUSH0 PUSH2 0x100 EXP DUP2 SLOAD DUP2 PUSH20 0xFFFFFFFFFFFFFFFFFFFFFFFFFFFFFFFFFFFFFFFF MUL NOT AND SWAP1 DUP4 PUSH20 0xFFFFFFFFFFFFFFFFFFFFFFFFFFFFFFFFFFFFFFFF AND MUL OR SWAP1 SSTORE POP DUP1 PUSH20 0xFFFFFFFFFFFFFFFFFFFFFFFFFFFFFFFFFFFFFFFF AND PUSH32 0x1C040312DAE2A5129751252FE2BCBC8C80EAFAFF09AF9BE184E641CF8809682F PUSH1 0x40 MLOAD PUSH1 0x40 MLOAD DUP1 SWAP2 SUB SWAP1 LOG2 POP JUMP JUMPDEST PUSH0 PUSH2 0x2195 PUSH1 0xB PUSH0 DUP5 PUSH20 0xFFFFFFFFFFFFFFFFFFFFFFFFFFFFFFFFFFFFFFFF AND PUSH20 0xFFFFFFFFFFFFFFFFFFFFFFFFFFFFFFFFFFFFFFFF AND DUP2 MSTORE PUSH1 0x20 ADD SWAP1 DUP2 MSTORE PUSH1 0x20 ADD PUSH0 KECCAK256 PUSH2 0x21E9 JUMP JUMPDEST SWAP1 POP SWAP2 SWAP1 POP JUMP JUMPDEST PUSH1 0x2 PUSH0 SLOAD SUB PUSH2 0x21E0 JUMPI PUSH1 0x40 MLOAD PUSH32 0x8C379A000000000000000000000000000000000000000000000000000000000 DUP2 MSTORE PUSH1 0x4 ADD PUSH2 0x21D7 SWAP1 PUSH2 0x2F17 JUMP JUMPDEST PUSH1 0x40 MLOAD DUP1 SWAP2 SUB SWAP1 REVERT JUMPDEST PUSH1 0x2 PUSH0 DUP2 SWAP1 SSTORE POP JUMP JUMPDEST PUSH0 DUP2 PUSH0 ADD SLOAD SWAP1 POP SWAP2 SWAP1 POP JUMP JUMPDEST PUSH0 DUP2 PUSH0 ADD SLOAD SWAP1 POP PUSH0 DUP2 GT PUSH2 0x223E JUMPI PUSH1 0x40 MLOAD PUSH32 0x8C379A000000000000000000000000000000000000000000000000000000000 DUP2 MSTORE PUSH1 0x4 ADD PUSH2 0x2235 SWAP1 PUSH2 0x2F7F JUMP JUMPDEST PUSH1 0x40 MLOAD DUP1 SWAP2 SUB SWAP1 REVERT JUMPDEST PUSH1 0x1 DUP2 SUB DUP3 PUSH0 ADD DUP2 SWAP1 SSTORE POP POP POP JUMP JUMPDEST PUSH1 0x1 PUSH0 DUP2 SWAP1 SSTORE POP JUMP JUMPDEST PUSH1 0x1 DUP2 PUSH0 ADD PUSH0 DUP3 DUP3 SLOAD ADD SWAP3 POP POP DUP2 SWAP1 SSTORE POP POP JUMP JUMPDEST PUSH0 PUSH0 REVERT JUMPDEST PUSH0 PUSH0 REVERT JUMPDEST PUSH0 PUSH20 0xFFFFFFFFFFFFFFFFFFFFFFFFFFFFFFFFFFFFFFFF DUP3 AND SWAP1 POP SWAP2 SWAP1 POP JUMP JUMPDEST PUSH0 PUSH2 0x229B DUP3 PUSH2 0x2272 JUMP JUMPDEST SWAP1 POP SWAP2 SWAP1 POP JUMP JUMPDEST PUSH2 0x22AB DUP2 PUSH2 0x2291 JUMP JUMPDEST DUP2 EQ PUSH2 0x22B5 JUMPI PUSH0 PUSH0 REVERT JUMPDEST POP JUMP JUMPDEST PUSH0 DUP2 CALLDATALOAD SWAP1 POP PUSH2 0x22C6 DUP2 PUSH2 0x22A2 JUMP JUMPDEST SWAP3 SWAP2 POP POP JUMP JUMPDEST PUSH0 DUP2 SWAP1 POP SWAP2 SWAP1 POP JUMP JUMPDEST PUSH2 0x22DE DUP2 PUSH2 0x22CC JUMP JUMPDEST DUP2 EQ PUSH2 0x22E8 JUMPI PUSH0 PUSH0 REVERT JUMPDEST POP JUMP JUMPDEST PUSH0 DUP2 CALLDATALOAD SWAP1 POP PUSH2 0x22F9 DUP2 PUSH2 0x22D5 JUMP JUMPDEST SWAP3 SWAP2 POP POP JUMP JUMPDEST PUSH0 PUSH0 PUSH1 0x40 DUP4 DUP6 SUB SLT ISZERO PUSH2 0x2315 JUMPI PUSH2 0x2314 PUSH2 0x226A JUMP JUMPDEST JUMPDEST PUSH0 PUSH2 0x2322 DUP6 DUP3 DUP7 ADD PUSH2 0x22B8 JUMP JUMPDEST SWAP3 POP POP PUSH1 0x20 PUSH2 0x2333 DUP6 DUP3 DUP7 ADD PUSH2 0x22EB JUMP JUMPDEST SWAP2 POP POP SWAP3 POP SWAP3 SWAP1 POP JUMP JUMPDEST PUSH2 0x2346 DUP2 PUSH2 0x2291 JUMP JUMPDEST DUP3 MSTORE POP POP JUMP JUMPDEST PUSH0 PUSH1 0x20 DUP3 ADD SWAP1 POP PUSH2 0x235F PUSH0 DUP4 ADD DUP5 PUSH2 0x233D JUMP JUMPDEST SWAP3 SWAP2 POP POP JUMP JUMPDEST PUSH0 PUSH1 0x20 DUP3 DUP5 SUB SLT ISZERO PUSH2 0x237A JUMPI PUSH2 0x2379 PUSH2 0x226A JUMP JUMPDEST JUMPDEST PUSH0 PUSH2 0x2387 DUP5 DUP3 DUP6 ADD PUSH2 0x22B8 JUMP JUMPDEST SWAP2 POP POP SWAP3 SWAP2 POP POP JUMP JUMPDEST PUSH0 DUP2 ISZERO ISZERO SWAP1 POP SWAP2 SWAP1 POP JUMP JUMPDEST PUSH2 0x23A4 DUP2 PUSH2 0x2390 JUMP JUMPDEST DUP3 MSTORE POP POP JUMP JUMPDEST PUSH0 PUSH1 0x20 DUP3 ADD SWAP1 POP PUSH2 0x23BD PUSH0 DUP4 ADD DUP5 PUSH2 0x239B JUMP JUMPDEST SWAP3 SWAP2 POP POP JUMP JUMPDEST PUSH0 PUSH1 0x20 DUP3 DUP5 SUB SLT ISZERO PUSH2 0x23D8 JUMPI PUSH2 0x23D7 PUSH2 0x226A JUMP JUMPDEST JUMPDEST PUSH0 PUSH2 0x23E5 DUP5 DUP3 DUP6 ADD PUSH2 0x22EB JUMP JUMPDEST SWAP2 POP POP SWAP3 SWAP2 POP POP JUMP JUMPDEST PUSH0 PUSH0 PUSH1 0x40 DUP4 DUP6 SUB SLT ISZERO PUSH2 0x2404 JUMPI PUSH2 0x2403 PUSH2 0x226A JUMP JUMPDEST JUMPDEST PUSH0 PUSH2 0x2411 DUP6 DUP3 DUP7 ADD PUSH2 0x22B8 JUMP JUMPDEST SWAP3 POP POP PUSH1 0x20 PUSH2 0x2422 DUP6 DUP3 DUP7 ADD PUSH2 0x22B8 JUMP JUMPDEST SWAP2 POP POP SWAP3 POP SWAP3 SWAP1 POP JUMP JUMPDEST PUSH2 0x2435 DUP2 PUSH2 0x22CC JUMP JUMPDEST DUP3 MSTORE POP POP JUMP JUMPDEST PUSH0 PUSH1 0x20 DUP3 ADD SWAP1 POP PUSH2 0x244E PUSH0 DUP4 ADD DUP5 PUSH2 0x242C JUMP JUMPDEST SWAP3 SWAP2 POP POP JUMP JUMPDEST PUSH0 PUSH0 REVERT JUMPDEST PUSH0 PUSH0 REVERT JUMPDEST PUSH0 PUSH0 REVERT JUMPDEST PUSH0 PUSH0 DUP4 PUSH1 0x1F DUP5 ADD SLT PUSH2 0x2475 JUMPI PUSH2 0x2474 PUSH2 0x2454 JUMP JUMPDEST JUMPDEST DUP3 CALLDATALOAD SWAP1 POP PUSH8 0xFFFFFFFFFFFFFFFF DUP2 GT ISZERO PUSH2 0x2492 JUMPI PUSH2 0x2491 PUSH2 0x2458 JUMP JUMPDEST JUMPDEST PUSH1 0x20 DUP4 ADD SWAP2 POP DUP4 PUSH1 0x20 DUP3 MUL DUP4 ADD GT ISZERO PUSH2 0x24AE JUMPI PUSH2 0x24AD PUSH2 0x245C JUMP JUMPDEST JUMPDEST SWAP3 POP SWAP3 SWAP1 POP JUMP JUMPDEST PUSH0 PUSH0 PUSH1 0x20 DUP4 DUP6 SUB SLT ISZERO PUSH2 0x24CB JUMPI PUSH2 0x24CA PUSH2 0x226A JUMP JUMPDEST JUMPDEST PUSH0 DUP4 ADD CALLDATALOAD PUSH8 0xFFFFFFFFFFFFFFFF DUP2 GT ISZERO PUSH2 0x24E8 JUMPI PUSH2 0x24E7 PUSH2 0x226E JUMP JUMPDEST JUMPDEST PUSH2 0x24F4 DUP6 DUP3 DUP7 ADD PUSH2 0x2460 JUMP JUMPDEST SWAP3 POP SWAP3 POP POP SWAP3 POP SWAP3 SWAP1 POP JUMP JUMPDEST PUSH0 DUP2 MLOAD SWAP1 POP SWAP2 SWAP1 POP JUMP JUMPDEST PUSH0 DUP3 DUP3 MSTORE PUSH1 0x20 DUP3 ADD SWAP1 POP SWAP3 SWAP2 POP POP JUMP JUMPDEST PUSH0 DUP2 SWAP1 POP PUSH1 0x20 DUP3 ADD SWAP1 POP SWAP2 SWAP1 POP JUMP JUMPDEST PUSH2 0x2532 DUP2 PUSH2 0x2291 JUMP JUMPDEST DUP3 MSTORE POP POP JUMP JUMPDEST PUSH0 PUSH2 0x2543 DUP4 DUP4 PUSH2 0x2529 JUMP JUMPDEST PUSH1 0x20 DUP4 ADD SWAP1 POP SWAP3 SWAP2 POP POP JUMP JUMPDEST PUSH0 PUSH1 0x20 DUP3 ADD SWAP1 POP SWAP2 SWAP1 POP JUMP JUMPDEST PUSH0 PUSH2 0x2565 DUP3 PUSH2 0x2500 JUMP JUMPDEST PUSH2 0x256F DUP2 DUP6 PUSH2 0x250A JUMP JUMPDEST SWAP4 POP PUSH2 0x257A DUP4 PUSH2 0x251A JUMP JUMPDEST DUP1 PUSH0 JUMPDEST DUP4 DUP2 LT ISZERO PUSH2 0x25AA JUMPI DUP2 MLOAD PUSH2 0x2591 DUP9 DUP3 PUSH2 0x2538 JUMP JUMPDEST SWAP8 POP PUSH2 0x259C DUP4 PUSH2 0x254F JUMP JUMPDEST SWAP3 POP POP PUSH1 0x1 DUP2 ADD SWAP1 POP PUSH2 0x257D JUMP JUMPDEST POP DUP6 SWAP4 POP POP POP POP SWAP3 SWAP2 POP POP JUMP JUMPDEST PUSH0 PUSH1 0x20 DUP3 ADD SWAP1 POP DUP2 DUP2 SUB PUSH0 DUP4 ADD MSTORE PUSH2 0x25CF DUP2 DUP5 PUSH2 0x255B JUMP JUMPDEST SWAP1 POP SWAP3 SWAP2 POP POP JUMP JUMPDEST PUSH0 DUP3 DUP3 MSTORE PUSH1 0x20 DUP3 ADD SWAP1 POP SWAP3 SWAP2 POP POP JUMP JUMPDEST PUSH32 0x4167656E74206973206E6F74206120706172746E657200000000000000000000 PUSH0 DUP3 ADD MSTORE POP JUMP JUMPDEST PUSH0 PUSH2 0x261B PUSH1 0x16 DUP4 PUSH2 0x25D7 JUMP JUMPDEST SWAP2 POP PUSH2 0x2626 DUP3 PUSH2 0x25E7 JUMP JUMPDEST PUSH1 0x20 DUP3 ADD SWAP1 POP SWAP2 SWAP1 POP JUMP JUMPDEST PUSH0 PUSH1 0x20 DUP3 ADD SWAP1 POP DUP2 DUP2 SUB PUSH0 DUP4 ADD MSTORE PUSH2 0x2648 DUP2 PUSH2 0x260F JUMP JUMPDEST SWAP1 POP SWAP2 SWAP1 POP JUMP JUMPDEST PUSH0 DUP2 MLOAD SWAP1 POP PUSH2 0x265D DUP2 PUSH2 0x22D5 JUMP JUMPDEST SWAP3 SWAP2 POP POP JUMP JUMPDEST PUSH0 PUSH0 PUSH0 PUSH0 PUSH1 0x80 DUP6 DUP8 SUB SLT ISZERO PUSH2 0x267B JUMPI PUSH2 0x267A PUSH2 0x226A JUMP JUMPDEST JUMPDEST PUSH0 PUSH2 0x2688 DUP8 DUP3 DUP9 ADD PUSH2 0x264F JUMP JUMPDEST SWAP5 POP POP PUSH1 0x20 PUSH2 0x2699 DUP8 DUP3 DUP9 ADD PUSH2 0x264F JUMP JUMPDEST SWAP4 POP POP PUSH1 0x40 PUSH2 0x26AA DUP8 DUP3 DUP9 ADD PUSH2 0x264F JUMP JUMPDEST SWAP3 POP POP PUSH1 0x60 PUSH2 0x26BB DUP8 DUP3 DUP9 ADD PUSH2 0x264F JUMP JUMPDEST SWAP2 POP POP SWAP3 SWAP6 SWAP2 SWAP5 POP SWAP3 POP JUMP JUMPDEST PUSH32 0x466565206973206E6F7420656E6F7567682E0000000000000000000000000000 PUSH0 DUP3 ADD MSTORE POP JUMP JUMPDEST PUSH0 PUSH2 0x26FB PUSH1 0x12 DUP4 PUSH2 0x25D7 JUMP JUMPDEST SWAP2 POP PUSH2 0x2706 DUP3 PUSH2 0x26C7 JUMP JUMPDEST PUSH1 0x20 DUP3 ADD SWAP1 POP SWAP2 SWAP1 POP JUMP JUMPDEST PUSH0 PUSH1 0x20 DUP3 ADD SWAP1 POP DUP2 DUP2 SUB PUSH0 DUP4 ADD MSTORE PUSH2 0x2728 DUP2 PUSH2 0x26EF JUMP JUMPDEST SWAP1 POP SWAP2 SWAP1 POP JUMP JUMPDEST PUSH0 DUP2 SWAP1 POP SWAP3 SWAP2 POP POP JUMP JUMPDEST PUSH32 0x3078000000000000000000000000000000000000000000000000000000000000 PUSH0 DUP3 ADD MSTORE POP JUMP JUMPDEST PUSH0 PUSH2 0x276D PUSH1 0x2 DUP4 PUSH2 0x272F JUMP JUMPDEST SWAP2 POP PUSH2 0x2778 DUP3 PUSH2 0x2739 JUMP JUMPDEST PUSH1 0x2 DUP3 ADD SWAP1 POP SWAP2 SWAP1 POP JUMP JUMPDEST PUSH0 PUSH2 0x278D DUP3 PUSH2 0x2761 JUMP JUMPDEST SWAP2 POP DUP2 SWAP1 POP SWAP2 SWAP1 POP JUMP JUMPDEST PUSH32 0x5061796D656E7420666565206661696C65640000000000000000000000000000 PUSH0 DUP3 ADD MSTORE POP JUMP JUMPDEST PUSH0 PUSH2 0x27CB PUSH1 0x12 DUP4 PUSH2 0x25D7 JUMP JUMPDEST SWAP2 POP PUSH2 0x27D6 DUP3 PUSH2 0x2797 JUMP JUMPDEST PUSH1 0x20 DUP3 ADD SWAP1 POP SWAP2 SWAP1 POP JUMP JUMPDEST PUSH0 PUSH1 0x20 DUP3 ADD SWAP1 POP DUP2 DUP2 SUB PUSH0 DUP4 ADD MSTORE PUSH2 0x27F8 DUP2 PUSH2 0x27BF JUMP JUMPDEST SWAP1 POP SWAP2 SWAP1 POP JUMP JUMPDEST PUSH32 0x4272616E6420697320616C726561647920726567697374657265640000000000 PUSH0 DUP3 ADD MSTORE POP JUMP JUMPDEST PUSH0 PUSH2 0x2833 PUSH1 0x1B DUP4 PUSH2 0x25D7 JUMP JUMPDEST SWAP2 POP PUSH2 0x283E DUP3 PUSH2 0x27FF JUMP JUMPDEST PUSH1 0x20 DUP3 ADD SWAP1 POP SWAP2 SWAP1 POP JUMP JUMPDEST PUSH0 PUSH1 0x20 DUP3 ADD SWAP1 POP DUP2 DUP2 SUB PUSH0 DUP4 ADD MSTORE PUSH2 0x2860 DUP2 PUSH2 0x2827 JUMP JUMPDEST SWAP1 POP SWAP2 SWAP1 POP JUMP JUMPDEST PUSH0 PUSH0 PUSH1 0x40 DUP4 DUP6 SUB SLT ISZERO PUSH2 0x287D JUMPI PUSH2 0x287C PUSH2 0x226A JUMP JUMPDEST JUMPDEST PUSH0 PUSH2 0x288A DUP6 DUP3 DUP7 ADD PUSH2 0x264F JUMP JUMPDEST SWAP3 POP POP PUSH1 0x20 PUSH2 0x289B DUP6 DUP3 DUP7 ADD PUSH2 0x264F JUMP JUMPDEST SWAP2 POP POP SWAP3 POP SWAP3 SWAP1 POP JUMP JUMPDEST PUSH0 PUSH1 0x20 DUP3 DUP5 SUB SLT ISZERO PUSH2 0x28BA JUMPI PUSH2 0x28B9 PUSH2 0x226A JUMP JUMPDEST JUMPDEST PUSH0 PUSH2 0x28C7 DUP5 DUP3 DUP6 ADD PUSH2 0x264F JUMP JUMPDEST SWAP2 POP POP SWAP3 SWAP2 POP POP JUMP JUMPDEST PUSH32 0x496E73756666696369656E7420746F6B656E7300000000000000000000000000 PUSH0 DUP3 ADD MSTORE POP JUMP JUMPDEST PUSH0 PUSH2 0x2904 PUSH1 0x13 DUP4 PUSH2 0x25D7 JUMP JUMPDEST SWAP2 POP PUSH2 0x290F DUP3 PUSH2 0x28D0 JUMP JUMPDEST PUSH1 0x20 DUP3 ADD SWAP1 POP SWAP2 SWAP1 POP JUMP JUMPDEST PUSH0 PUSH1 0x20 DUP3 ADD SWAP1 POP DUP2 DUP2 SUB PUSH0 DUP4 ADD MSTORE PUSH2 0x2931 DUP2 PUSH2 0x28F8 JUMP JUMPDEST SWAP1 POP SWAP2 SWAP1 POP JUMP JUMPDEST PUSH32 0x4F6E6C79207665726966696564206272616E6400000000000000000000000000 PUSH0 DUP3 ADD MSTORE POP JUMP JUMPDEST PUSH0 PUSH2 0x296C PUSH1 0x13 DUP4 PUSH2 0x25D7 JUMP JUMPDEST SWAP2 POP PUSH2 0x2977 DUP3 PUSH2 0x2938 JUMP JUMPDEST PUSH1 0x20 DUP3 ADD SWAP1 POP SWAP2 SWAP1 POP JUMP JUMPDEST PUSH0 PUSH1 0x20 DUP3 ADD SWAP1 POP DUP2 DUP2 SUB PUSH0 DUP4 ADD MSTORE PUSH2 0x2999 DUP2 PUSH2 0x2960 JUMP JUMPDEST SWAP1 POP SWAP2 SWAP1 POP JUMP JUMPDEST PUSH32 0x496E76616C6964206167656E7420616464726573730000000000000000000000 PUSH0 DUP3 ADD MSTORE POP JUMP JUMPDEST PUSH0 PUSH2 0x29D4 PUSH1 0x15 DUP4 PUSH2 0x25D7 JUMP JUMPDEST SWAP2 POP PUSH2 0x29DF DUP3 PUSH2 0x29A0 JUMP JUMPDEST PUSH1 0x20 DUP3 ADD SWAP1 POP SWAP2 SWAP1 POP JUMP JUMPDEST PUSH0 PUSH1 0x20 DUP3 ADD SWAP1 POP DUP2 DUP2 SUB PUSH0 DUP4 ADD MSTORE PUSH2 0x2A01 DUP2 PUSH2 0x29C8 JUMP JUMPDEST SWAP1 POP SWAP2 SWAP1 POP JUMP JUMPDEST PUSH32 0x4167656E7420697320616C7265616479206120706172746E6572000000000000 PUSH0 DUP3 ADD MSTORE POP JUMP JUMPDEST PUSH0 PUSH2 0x2A3C PUSH1 0x1A DUP4 PUSH2 0x25D7 JUMP JUMPDEST SWAP2 POP PUSH2 0x2A47 DUP3 PUSH2 0x2A08 JUMP JUMPDEST PUSH1 0x20 DUP3 ADD SWAP1 POP SWAP2 SWAP1 POP JUMP JUMPDEST PUSH0 PUSH1 0x20 DUP3 ADD SWAP1 POP DUP2 DUP2 SUB PUSH0 DUP4 ADD MSTORE PUSH2 0x2A69 DUP2 PUSH2 0x2A30 JUMP JUMPDEST SWAP1 POP SWAP2 SWAP1 POP JUMP JUMPDEST PUSH32 0x4E487B7100000000000000000000000000000000000000000000000000000000 PUSH0 MSTORE PUSH1 0x11 PUSH1 0x4 MSTORE PUSH1 0x24 PUSH0 REVERT JUMPDEST PUSH0 PUSH2 0x2AA7 DUP3 PUSH2 0x22CC JUMP JUMPDEST SWAP2 POP PUSH2 0x2AB2 DUP4 PUSH2 0x22CC JUMP JUMPDEST SWAP3 POP DUP3 DUP3 SUB SWAP1 POP DUP2 DUP2 GT ISZERO PUSH2 0x2ACA JUMPI PUSH2 0x2AC9 PUSH2 0x2A70 JUMP JUMPDEST JUMPDEST SWAP3 SWAP2 POP POP JUMP JUMPDEST POP JUMP JUMPDEST PUSH0 PUSH2 0x2ADE PUSH0 DUP4 PUSH2 0x272F JUMP JUMPDEST SWAP2 POP PUSH2 0x2AE9 DUP3 PUSH2 0x2AD0 JUMP JUMPDEST PUSH0 DUP3 ADD SWAP1 POP SWAP2 SWAP1 POP JUMP JUMPDEST PUSH0 PUSH2 0x2AFD DUP3 PUSH2 0x2AD3 JUMP JUMPDEST SWAP2 POP DUP2 SWAP1 POP SWAP2 SWAP1 POP JUMP JUMPDEST PUSH32 0x526566756E64206661696C656400000000000000000000000000000000000000 PUSH0 DUP3 ADD MSTORE POP JUMP JUMPDEST PUSH0 PUSH2 0x2B3B PUSH1 0xD DUP4 PUSH2 0x25D7 JUMP JUMPDEST SWAP2 POP PUSH2 0x2B46 DUP3 PUSH2 0x2B07 JUMP JUMPDEST PUSH1 0x20 DUP3 ADD SWAP1 POP SWAP2 SWAP1 POP JUMP JUMPDEST PUSH0 PUSH1 0x20 DUP3 ADD SWAP1 POP DUP2 DUP2 SUB PUSH0 DUP4 ADD MSTORE PUSH2 0x2B68 DUP2 PUSH2 0x2B2F JUMP JUMPDEST SWAP1 POP SWAP2 SWAP1 POP JUMP JUMPDEST PUSH32 0x5472616E7366657220746F2044414F206661696C656400000000000000000000 PUSH0 DUP3 ADD MSTORE POP JUMP JUMPDEST PUSH0 PUSH2 0x2BA3 PUSH1 0x16 DUP4 PUSH2 0x25D7 JUMP JUMPDEST SWAP2 POP PUSH2 0x2BAE DUP3 PUSH2 0x2B6F JUMP JUMPDEST PUSH1 0x20 DUP3 ADD SWAP1 POP SWAP2 SWAP1 POP JUMP JUMPDEST PUSH0 PUSH1 0x20 DUP3 ADD SWAP1 POP DUP2 DUP2 SUB PUSH0 DUP4 ADD MSTORE PUSH2 0x2BD0 DUP2 PUSH2 0x2B97 JUMP JUMPDEST SWAP1 POP SWAP2 SWAP1 POP JUMP JUMPDEST PUSH2 0x2BE0 DUP2 PUSH2 0x2390 JUMP JUMPDEST DUP2 EQ PUSH2 0x2BEA JUMPI PUSH0 PUSH0 REVERT JUMPDEST POP JUMP JUMPDEST PUSH0 DUP2 MLOAD SWAP1 POP PUSH2 0x2BFB DUP2 PUSH2 0x2BD7 JUMP JUMPDEST SWAP3 SWAP2 POP POP JUMP JUMPDEST PUSH0 PUSH1 0x20 DUP3 DUP5 SUB SLT ISZERO PUSH2 0x2C16 JUMPI PUSH2 0x2C15 PUSH2 0x226A JUMP JUMPDEST JUMPDEST PUSH0 PUSH2 0x2C23 DUP5 DUP3 DUP6 ADD PUSH2 0x2BED JUMP JUMPDEST SWAP2 POP POP SWAP3 SWAP2 POP POP JUMP JUMPDEST PUSH32 0x4F6E6C7920726576696577657200000000000000000000000000000000000000 PUSH0 DUP3 ADD MSTORE POP JUMP JUMPDEST PUSH0 PUSH2 0x2C60 PUSH1 0xD DUP4 PUSH2 0x25D7 JUMP JUMPDEST SWAP2 POP PUSH2 0x2C6B DUP3 PUSH2 0x2C2C JUMP JUMPDEST PUSH1 0x20 DUP3 ADD SWAP1 POP SWAP2 SWAP1 POP JUMP JUMPDEST PUSH0 PUSH1 0x20 DUP3 ADD SWAP1 POP DUP2 DUP2 SUB PUSH0 DUP4 ADD MSTORE PUSH2 0x2C8D DUP2 PUSH2 0x2C54 JUMP JUMPDEST SWAP1 POP SWAP2 SWAP1 POP JUMP JUMPDEST PUSH0 DUP2 MLOAD SWAP1 POP PUSH2 0x2CA2 DUP2 PUSH2 0x22A2 JUMP JUMPDEST SWAP3 SWAP2 POP POP JUMP JUMPDEST PUSH0 PUSH1 0x20 DUP3 DUP5 SUB SLT ISZERO PUSH2 0x2CBD JUMPI PUSH2 0x2CBC PUSH2 0x226A JUMP JUMPDEST JUMPDEST PUSH0 PUSH2 0x2CCA DUP5 DUP3 DUP6 ADD PUSH2 0x2C94 JUMP JUMPDEST SWAP2 POP POP SWAP3 SWAP2 POP POP JUMP JUMPDEST PUSH32 0x496E76616C696420766572696669657200000000000000000000000000000000 PUSH0 DUP3 ADD MSTORE POP JUMP JUMPDEST PUSH0 PUSH2 0x2D07 PUSH1 0x10 DUP4 PUSH2 0x25D7 JUMP JUMPDEST SWAP2 POP PUSH2 0x2D12 DUP3 PUSH2 0x2CD3 JUMP JUMPDEST PUSH1 0x20 DUP3 ADD SWAP1 POP SWAP2 SWAP1 POP JUMP JUMPDEST PUSH0 PUSH1 0x20 DUP3 ADD SWAP1 POP DUP2 DUP2 SUB PUSH0 DUP4 ADD MSTORE PUSH2 0x2D34 DUP2 PUSH2 0x2CFB JUMP JUMPDEST SWAP1 POP SWAP2 SWAP1 POP JUMP JUMPDEST PUSH32 0x4E6F742072656769737465726564000000000000000000000000000000000000 PUSH0 DUP3 ADD MSTORE POP JUMP JUMPDEST PUSH0 PUSH2 0x2D6F PUSH1 0xE DUP4 PUSH2 0x25D7 JUMP JUMPDEST SWAP2 POP PUSH2 0x2D7A DUP3 PUSH2 0x2D3B JUMP JUMPDEST PUSH1 0x20 DUP3 ADD SWAP1 POP SWAP2 SWAP1 POP JUMP JUMPDEST PUSH0 PUSH1 0x20 DUP3 ADD SWAP1 POP DUP2 DUP2 SUB PUSH0 DUP4 ADD MSTORE PUSH2 0x2D9C DUP2 PUSH2 0x2D63 JUMP JUMPDEST SWAP1 POP SWAP2 SWAP1 POP JUMP JUMPDEST PUSH32 0x4E487B7100000000000000000000000000000000000000000000000000000000 PUSH0 MSTORE PUSH1 0x41 PUSH1 0x4 MSTORE PUSH1 0x24 PUSH0 REVERT JUMPDEST PUSH32 0x4E487B7100000000000000000000000000000000000000000000000000000000 PUSH0 MSTORE PUSH1 0x32 PUSH1 0x4 MSTORE PUSH1 0x24 PUSH0 REVERT JUMPDEST PUSH32 0x496E76616C6964206272616E6420616464726573730000000000000000000000 PUSH0 DUP3 ADD MSTORE POP JUMP JUMPDEST PUSH0 PUSH2 0x2E31 PUSH1 0x15 DUP4 PUSH2 0x25D7 JUMP JUMPDEST SWAP2 POP PUSH2 0x2E3C DUP3 PUSH2 0x2DFD JUMP JUMPDEST PUSH1 0x20 DUP3 ADD SWAP1 POP SWAP2 SWAP1 POP JUMP JUMPDEST PUSH0 PUSH1 0x20 DUP3 ADD SWAP1 POP DUP2 DUP2 SUB PUSH0 DUP4 ADD MSTORE PUSH2 0x2E5E DUP2 PUSH2 0x2E25 JUMP JUMPDEST SWAP1 POP SWAP2 SWAP1 POP JUMP JUMPDEST PUSH32 0x4272616E64206E6F742072656769737465726564000000000000000000000000 PUSH0 DUP3 ADD MSTORE POP JUMP JUMPDEST PUSH0 PUSH2 0x2E99 PUSH1 0x14 DUP4 PUSH2 0x25D7 JUMP JUMPDEST SWAP2 POP PUSH2 0x2EA4 DUP3 PUSH2 0x2E65 JUMP JUMPDEST PUSH1 0x20 DUP3 ADD SWAP1 POP SWAP2 SWAP1 POP JUMP JUMPDEST PUSH0 PUSH1 0x20 DUP3 ADD SWAP1 POP DUP2 DUP2 SUB PUSH0 DUP4 ADD MSTORE PUSH2 0x2EC6 DUP2 PUSH2 0x2E8D JUMP JUMPDEST SWAP1 POP SWAP2 SWAP1 POP JUMP JUMPDEST PUSH32 0x5265656E7472616E637947756172643A207265656E7472616E742063616C6C00 PUSH0 DUP3 ADD MSTORE POP JUMP JUMPDEST PUSH0 PUSH2 0x2F01 PUSH1 0x1F DUP4 PUSH2 0x25D7 JUMP JUMPDEST SWAP2 POP PUSH2 0x2F0C DUP3 PUSH2 0x2ECD JUMP JUMPDEST PUSH1 0x20 DUP3 ADD SWAP1 POP SWAP2 SWAP1 POP JUMP JUMPDEST PUSH0 PUSH1 0x20 DUP3 ADD SWAP1 POP DUP2 DUP2 SUB PUSH0 DUP4 ADD MSTORE PUSH2 0x2F2E DUP2 PUSH2 0x2EF5 JUMP JUMPDEST SWAP1 POP SWAP2 SWAP1 POP JUMP JUMPDEST PUSH32 0x436F756E7465723A2064656372656D656E74206F766572666C6F770000000000 PUSH0 DUP3 ADD MSTORE POP JUMP JUMPDEST PUSH0 PUSH2 0x2F69 PUSH1 0x1B DUP4 PUSH2 0x25D7 JUMP JUMPDEST SWAP2 POP PUSH2 0x2F74 DUP3 PUSH2 0x2F35 JUMP JUMPDEST PUSH1 0x20 DUP3 ADD SWAP1 POP SWAP2 SWAP1 POP JUMP JUMPDEST PUSH0 PUSH1 0x20 DUP3 ADD SWAP1 POP DUP2 DUP2 SUB PUSH0 DUP4 ADD MSTORE PUSH2 0x2F96 DUP2 PUSH2 0x2F5D JUMP JUMPDEST SWAP1 POP SWAP2 SWAP1 POP JUMP INVALID LOG2 PUSH5 0x6970667358 0x22 SLT KECCAK256 PUSH22 0x5516552BA991148A54D3720DCEC8090F6851EDB83CF9 PUSH23 0x8FD30D02A989565164736F6C634300081F003300000000 "
				},
				"gasEstimates": {
					"creation": {
						"codeDepositCost": "2448600",
						"executionCost": "infinite",
						"totalCost": "infinite"
					},
					"external": {
						"brandCounter()": "2527",
						"brandRegister()": "infinite",
						"brandUnRegister()": "110462",
						"disablePartner(address)": "infinite",
						"enablePartner(address)": "infinite",
						"getBrandAddress(uint256)": "2963",
						"getBrandBatch(uint256[])": "infinite",
						"getBrandIndex(address)": "2874",
						"getDaoAddress()": "2538",
						"getPartnerAddress(address,uint256)": "infinite",
						"getPartnerCount(address)": "2986",
						"getPartnerIndex(address,address)": "infinite",
						"getVerifier(address)": "infinite",
						"isBrand(address)": "2911",
						"isPartner(address,address)": "infinite",
						"isVerifiedBrand(address)": "2936",
						"unVerifyBrand(address)": "infinite",
						"verifyBrand(address)": "infinite"
					}
				},
				"methodIdentifiers": {
					"brandCounter()": "c7568eff",
					"brandRegister()": "1e2b2d2c",
					"brandUnRegister()": "c9f93eb7",
					"disablePartner(address)": "1ce5ad34",
					"enablePartner(address)": "2485ff2d",
					"getBrandAddress(uint256)": "4907c36a",
					"getBrandBatch(uint256[])": "cf96f1e8",
					"getBrandIndex(address)": "6123504a",
					"getDaoAddress()": "1d68702d",
					"getPartnerAddress(address,uint256)": "043ecb35",
					"getPartnerCount(address)": "f71b007b",
					"getPartnerIndex(address,address)": "621574d4",
					"getVerifier(address)": "059ce95d",
					"isBrand(address)": "05a5562d",
					"isPartner(address,address)": "4affb863",
					"isVerifiedBrand(address)": "e3b231b5",
					"unVerifyBrand(address)": "392c4527",
					"verifyBrand(address)": "ea1e7a69"
				}
			},
			"storageLayout": {
				"storage": [
					{
						"astId": 10,
						"contract": "contracts/supplier_bk.sol:Supplier",
						"label": "_status",
						"offset": 0,
						"slot": "0",
						"type": "t_uint256"
					},
					{
						"astId": 194,
						"contract": "contracts/supplier_bk.sol:Supplier",
						"label": "_daoAddress",
						"offset": 0,
						"slot": "1",
						"type": "t_address"
					},
					{
						"astId": 197,
						"contract": "contracts/supplier_bk.sol:Supplier",
						"label": "daoInterface",
						"offset": 0,
						"slot": "2",
						"type": "t_contract(DaoInterface)178"
					},
					{
						"astId": 200,
						"contract": "contracts/supplier_bk.sol:Supplier",
						"label": "stackInterface",
						"offset": 0,
						"slot": "3",
						"type": "t_contract(StackInterface)186"
					},
					{
						"astId": 204,
						"contract": "contracts/supplier_bk.sol:Supplier",
						"label": "_brands",
						"offset": 0,
						"slot": "4",
						"type": "t_mapping(t_uint256,t_address)"
					},
					{
						"astId": 208,
						"contract": "contracts/supplier_bk.sol:Supplier",
						"label": "_brandIds",
						"offset": 0,
						"slot": "5",
						"type": "t_mapping(t_address,t_uint256)"
					},
					{
						"astId": 211,
						"contract": "contracts/supplier_bk.sol:Supplier",
						"label": "brandCounter",
						"offset": 0,
						"slot": "6",
						"type": "t_struct(Counter)70_storage"
					},
					{
						"astId": 215,
						"contract": "contracts/supplier_bk.sol:Supplier",
						"label": "_isVerified",
						"offset": 0,
						"slot": "7",
						"type": "t_mapping(t_address,t_bool)"
					},
					{
						"astId": 219,
						"contract": "contracts/supplier_bk.sol:Supplier",
						"label": "_verifier",
						"offset": 0,
						"slot": "8",
						"type": "t_mapping(t_address,t_address)"
					},
					{
						"astId": 225,
						"contract": "contracts/supplier_bk.sol:Supplier",
						"label": "_partners",
						"offset": 0,
						"slot": "9",
						"type": "t_mapping(t_address,t_mapping(t_uint256,t_address))"
					},
					{
						"astId": 231,
						"contract": "contracts/supplier_bk.sol:Supplier",
						"label": "_partnerIds",
						"offset": 0,
						"slot": "10",
						"type": "t_mapping(t_address,t_mapping(t_address,t_uint256))"
					},
					{
						"astId": 236,
						"contract": "contracts/supplier_bk.sol:Supplier",
						"label": "_partnerCounters",
						"offset": 0,
						"slot": "11",
						"type": "t_mapping(t_address,t_struct(Counter)70_storage)"
					}
				],
				"types": {
					"t_address": {
						"encoding": "inplace",
						"label": "address",
						"numberOfBytes": "20"
					},
					"t_bool": {
						"encoding": "inplace",
						"label": "bool",
						"numberOfBytes": "1"
					},
					"t_contract(DaoInterface)178": {
						"encoding": "inplace",
						"label": "contract DaoInterface",
						"numberOfBytes": "20"
					},
					"t_contract(StackInterface)186": {
						"encoding": "inplace",
						"label": "contract StackInterface",
						"numberOfBytes": "20"
					},
					"t_mapping(t_address,t_address)": {
						"encoding": "mapping",
						"key": "t_address",
						"label": "mapping(address => address)",
						"numberOfBytes": "32",
						"value": "t_address"
					},
					"t_mapping(t_address,t_bool)": {
						"encoding": "mapping",
						"key": "t_address",
						"label": "mapping(address => bool)",
						"numberOfBytes": "32",
						"value": "t_bool"
					},
					"t_mapping(t_address,t_mapping(t_address,t_uint256))": {
						"encoding": "mapping",
						"key": "t_address",
						"label": "mapping(address => mapping(address => uint256))",
						"numberOfBytes": "32",
						"value": "t_mapping(t_address,t_uint256)"
					},
					"t_mapping(t_address,t_mapping(t_uint256,t_address))": {
						"encoding": "mapping",
						"key": "t_address",
						"label": "mapping(address => mapping(uint256 => address))",
						"numberOfBytes": "32",
						"value": "t_mapping(t_uint256,t_address)"
					},
					"t_mapping(t_address,t_struct(Counter)70_storage)": {
						"encoding": "mapping",
						"key": "t_address",
						"label": "mapping(address => struct Counters.Counter)",
						"numberOfBytes": "32",
						"value": "t_struct(Counter)70_storage"
					},
					"t_mapping(t_address,t_uint256)": {
						"encoding": "mapping",
						"key": "t_address",
						"label": "mapping(address => uint256)",
						"numberOfBytes": "32",
						"value": "t_uint256"
					},
					"t_mapping(t_uint256,t_address)": {
						"encoding": "mapping",
						"key": "t_uint256",
						"label": "mapping(uint256 => address)",
						"numberOfBytes": "32",
						"value": "t_address"
					},
					"t_struct(Counter)70_storage": {
						"encoding": "inplace",
						"label": "struct Counters.Counter",
						"members": [
							{
								"astId": 69,
								"contract": "contracts/supplier_bk.sol:Supplier",
								"label": "_value",
								"offset": 0,
								"slot": "0",
								"type": "t_uint256"
							}
						],
						"numberOfBytes": "32"
					},
					"t_uint256": {
						"encoding": "inplace",
						"label": "uint256",
						"numberOfBytes": "32"
					}
				}
			},
			"userdoc": {
				"kind": "user",
				"methods": {},
				"version": 1
			}
		}
	}
}