{
	"contracts/supplier.sol": {
		"Supplier": {
			"abi": [
				{
					"inputs": [
						{
							"internalType": "address",
							"name": "_daoAddress",
							"type": "address"
						}
					],
					"stateMutability": "nonpayable",
					"type": "constructor"
				},
				{
					"anonymous": false,
					"inputs": [
						{
							"indexed": false,
							"internalType": "address",
							"name": "brandAddress",
							"type": "address"
						}
					],
					"name": "BrandRegistered",
					"type": "event"
				},
				{
					"anonymous": false,
					"inputs": [
						{
							"indexed": true,
							"internalType": "address",
							"name": "supplierAddress",
							"type": "address"
						}
					],
					"name": "BrandUnVerified",
					"type": "event"
				},
				{
					"anonymous": false,
					"inputs": [
						{
							"indexed": true,
							"internalType": "address",
							"name": "brandAddress",
							"type": "address"
						}
					],
					"name": "BrandVerified",
					"type": "event"
				},
				{
					"anonymous": false,
					"inputs": [
						{
							"indexed": true,
							"internalType": "address",
							"name": "brandAddress",
							"type": "address"
						},
						{
							"indexed": true,
							"internalType": "address",
							"name": "agentAddress",
							"type": "address"
						}
					],
					"name": "PartnerDisabled",
					"type": "event"
				},
				{
					"anonymous": false,
					"inputs": [
						{
							"indexed": true,
							"internalType": "address",
							"name": "brandAddress",
							"type": "address"
						},
						{
							"indexed": true,
							"internalType": "address",
							"name": "agentAddress",
							"type": "address"
						}
					],
					"name": "PartnerEnabled",
					"type": "event"
				},
				{
					"anonymous": false,
					"inputs": [
						{
							"indexed": true,
							"internalType": "address",
							"name": "brandAddress",
							"type": "address"
						},
						{
							"indexed": true,
							"internalType": "address",
							"name": "agentAddress",
							"type": "address"
						}
					],
					"name": "PartnerRejected",
					"type": "event"
				},
				{
					"anonymous": false,
					"inputs": [
						{
							"indexed": true,
							"internalType": "address",
							"name": "brandAddress",
							"type": "address"
						},
						{
							"indexed": true,
							"internalType": "address",
							"name": "agentAddress",
							"type": "address"
						},
						{
							"indexed": false,
							"internalType": "uint256",
							"name": "feePaid",
							"type": "uint256"
						}
					],
					"name": "PartnerRequested",
					"type": "event"
				},
				{
					"inputs": [
						{
							"internalType": "address",
							"name": "agentAddress",
							"type": "address"
						}
					],
					"name": "approvePartner",
					"outputs": [],
					"stateMutability": "payable",
					"type": "function"
				},
				{
					"inputs": [],
					"name": "brandCounter",
					"outputs": [
						{
							"internalType": "uint256",
							"name": "_value",
							"type": "uint256"
						}
					],
					"stateMutability": "view",
					"type": "function"
				},
				{
					"inputs": [],
					"name": "brandRegister",
					"outputs": [],
					"stateMutability": "nonpayable",
					"type": "function"
				},
				{
					"inputs": [],
					"name": "daoAddress",
					"outputs": [
						{
							"internalType": "address",
							"name": "",
							"type": "address"
						}
					],
					"stateMutability": "view",
					"type": "function"
				},
				{
					"inputs": [
						{
							"internalType": "uint256",
							"name": "index",
							"type": "uint256"
						}
					],
					"name": "getBrandAddress",
					"outputs": [
						{
							"internalType": "address",
							"name": "",
							"type": "address"
						}
					],
					"stateMutability": "view",
					"type": "function"
				},
				{
					"inputs": [
						{
							"internalType": "uint256[]",
							"name": "indexes",
							"type": "uint256[]"
						}
					],
					"name": "getBrandBatch",
					"outputs": [
						{
							"internalType": "address[]",
							"name": "",
							"type": "address[]"
						}
					],
					"stateMutability": "view",
					"type": "function"
				},
				{
					"inputs": [
						{
							"internalType": "address",
							"name": "brandAddress",
							"type": "address"
						},
						{
							"internalType": "uint256[]",
							"name": "indexes",
							"type": "uint256[]"
						}
					],
					"name": "getPartnerBatch",
					"outputs": [
						{
							"internalType": "address[]",
							"name": "",
							"type": "address[]"
						}
					],
					"stateMutability": "view",
					"type": "function"
				},
				{
					"inputs": [
						{
							"internalType": "address",
							"name": "brandAddress",
							"type": "address"
						}
					],
					"name": "getPartnerCount",
					"outputs": [
						{
							"internalType": "uint256",
							"name": "",
							"type": "uint256"
						}
					],
					"stateMutability": "view",
					"type": "function"
				},
				{
					"inputs": [
						{
							"internalType": "address",
							"name": "brandAddress",
							"type": "address"
						},
						{
							"internalType": "address",
							"name": "sellerAddress",
							"type": "address"
						}
					],
					"name": "getPartnerIndex",
					"outputs": [
						{
							"internalType": "uint256",
							"name": "",
							"type": "uint256"
						}
					],
					"stateMutability": "view",
					"type": "function"
				},
				{
					"inputs": [
						{
							"internalType": "address",
							"name": "brandAddress",
							"type": "address"
						},
						{
							"internalType": "uint256[]",
							"name": "indexes",
							"type": "uint256[]"
						}
					],
					"name": "getPartnerRequestBatch",
					"outputs": [
						{
							"internalType": "address[]",
							"name": "",
							"type": "address[]"
						}
					],
					"stateMutability": "view",
					"type": "function"
				},
				{
					"inputs": [
						{
							"internalType": "address",
							"name": "brandAddress",
							"type": "address"
						},
						{
							"internalType": "address",
							"name": "agentAddress",
							"type": "address"
						}
					],
					"name": "getPartnerStatus",
					"outputs": [
						{
							"internalType": "enum Supplier.PartnerStatus",
							"name": "",
							"type": "uint8"
						}
					],
					"stateMutability": "view",
					"type": "function"
				},
				{
					"inputs": [
						{
							"internalType": "address",
							"name": "brandAddress",
							"type": "address"
						},
						{
							"internalType": "uint256[]",
							"name": "indexes",
							"type": "uint256[]"
						}
					],
					"name": "getRejectBatch",
					"outputs": [
						{
							"internalType": "address[]",
							"name": "",
							"type": "address[]"
						}
					],
					"stateMutability": "view",
					"type": "function"
				},
				{
					"inputs": [
						{
							"internalType": "address",
							"name": "brandAddress",
							"type": "address"
						}
					],
					"name": "getRejectCount",
					"outputs": [
						{
							"internalType": "uint256",
							"name": "",
							"type": "uint256"
						}
					],
					"stateMutability": "view",
					"type": "function"
				},
				{
					"inputs": [
						{
							"internalType": "address",
							"name": "brandAddress",
							"type": "address"
						}
					],
					"name": "getRequestCount",
					"outputs": [
						{
							"internalType": "uint256",
							"name": "",
							"type": "uint256"
						}
					],
					"stateMutability": "view",
					"type": "function"
				},
				{
					"inputs": [
						{
							"internalType": "address",
							"name": "sellerAddress",
							"type": "address"
						},
						{
							"internalType": "uint256[]",
							"name": "indexes",
							"type": "uint256[]"
						}
					],
					"name": "getSellerBrandBatch",
					"outputs": [
						{
							"internalType": "address[]",
							"name": "",
							"type": "address[]"
						}
					],
					"stateMutability": "view",
					"type": "function"
				},
				{
					"inputs": [
						{
							"internalType": "address",
							"name": "sellerAddress",
							"type": "address"
						}
					],
					"name": "getSellerBrandCount",
					"outputs": [
						{
							"internalType": "uint256",
							"name": "",
							"type": "uint256"
						}
					],
					"stateMutability": "view",
					"type": "function"
				},
				{
					"inputs": [
						{
							"internalType": "address",
							"name": "brandAddress",
							"type": "address"
						}
					],
					"name": "isBrand",
					"outputs": [
						{
							"internalType": "bool",
							"name": "",
							"type": "bool"
						}
					],
					"stateMutability": "view",
					"type": "function"
				},
				{
					"inputs": [
						{
							"internalType": "address",
							"name": "brandAddress",
							"type": "address"
						},
						{
							"internalType": "address",
							"name": "agentAddress",
							"type": "address"
						}
					],
					"name": "isPartner",
					"outputs": [
						{
							"internalType": "bool",
							"name": "",
							"type": "bool"
						}
					],
					"stateMutability": "view",
					"type": "function"
				},
				{
					"inputs": [
						{
							"internalType": "address",
							"name": "brandAddress",
							"type": "address"
						}
					],
					"name": "isVerifiedBrand",
					"outputs": [
						{
							"internalType": "bool",
							"name": "",
							"type": "bool"
						}
					],
					"stateMutability": "view",
					"type": "function"
				},
				{
					"inputs": [
						{
							"internalType": "address",
							"name": "agentAddress",
							"type": "address"
						}
					],
					"name": "rejectPartner",
					"outputs": [],
					"stateMutability": "payable",
					"type": "function"
				},
				{
					"inputs": [
						{
							"internalType": "address",
							"name": "brandAddress",
							"type": "address"
						}
					],
					"name": "requestToJoin",
					"outputs": [],
					"stateMutability": "payable",
					"type": "function"
				},
				{
					"inputs": [
						{
							"internalType": "address",
							"name": "brandAddress",
							"type": "address"
						}
					],
					"name": "unVerifyBrand",
					"outputs": [],
					"stateMutability": "nonpayable",
					"type": "function"
				},
				{
					"inputs": [
						{
							"internalType": "address",
							"name": "brandAddress",
							"type": "address"
						}
					],
					"name": "verifyBrand",
					"outputs": [],
					"stateMutability": "nonpayable",
					"type": "function"
				}
			],
			"devdoc": {
				"kind": "dev",
				"methods": {},
				"version": 1
			},
			"evm": {
				"assembly": "    /* \"contracts/supplier.sol\":700:17209  contract Supplier is ReentrancyGuard {... */\n  mstore(0x40, 0x80)\n    /* \"contracts/supplier.sol\":2982:3175  constructor(address _daoAddress) {... */\n  callvalue\n  dup1\n  iszero\n  tag_1\n  jumpi\n  revert(0x00, 0x00)\ntag_1:\n  pop\n  mload(0x40)\n  sub(codesize, bytecodeSize)\n  dup1\n  bytecodeSize\n  dup4\n  codecopy\n  dup2\n  add\n  0x40\n  dup2\n  swap1\n  mstore\n  tag_2\n  swap2\n  tag_3\n  jump\t// in\ntag_2:\n    /* \"@openzeppelin/contracts/security/ReentrancyGuard.sol\":1716:1717  1 */\n  0x01\n    /* \"@openzeppelin/contracts/security/ReentrancyGuard.sol\":1821:1828  _status */\n  0x00\n    /* \"@openzeppelin/contracts/security/ReentrancyGuard.sol\":1821:1843  _status = _NOT_ENTERED */\n  dup2\n  swap1\n  sstore\n    /* \"contracts/supplier.sol\":3026:3050  daoAddress = _daoAddress */\n  dup1\n  sload\n  sub(shl(0xa0, 0x01), 0x01)\n  dup4\n  and\n  not(sub(shl(0xa0, 0x01), 0x01))\n  swap2\n  dup3\n  and\n  dup2\n  or\n  swap1\n  swap3\n  sstore\n    /* \"contracts/supplier.sol\":3061:3073  daoInterface */\n  0x02\n    /* \"contracts/supplier.sol\":3061:3100  daoInterface = DaoInterface(daoAddress) */\n  dup1\n  sload\n  swap1\n  swap2\n  and\n  dup3\n  or\n  swap1\n  sstore\n    /* \"contracts/supplier.sol\":3143:3166  daoInterface.stacking() */\n  0x40\n  dup1\n  mload\n  shl(0xe0, 0xc62bfd8f)\n  dup2\n  mstore\n  swap1\n  mload\n    /* \"contracts/supplier.sol\":3143:3164  daoInterface.stacking */\n  0xc62bfd8f\n  swap2\n    /* \"contracts/supplier.sol\":3143:3166  daoInterface.stacking() */\n  0x04\n  dup1\n  dup3\n  add\n  swap3\n  0x20\n  swap3\n  swap1\n  swap2\n  swap1\n  dup3\n  swap1\n  sub\n  add\n  dup2\n    /* \"contracts/supplier.sol\":3026:3050  daoAddress = _daoAddress */\n  dup7\n    /* \"contracts/supplier.sol\":3143:3166  daoInterface.stacking() */\n  gas\n  staticcall\n  iszero\n  dup1\n  iszero\n  tag_9\n  jumpi\n  returndatacopy(0x00, 0x00, returndatasize)\n  revert(0x00, returndatasize)\ntag_9:\n  pop\n  pop\n  pop\n  pop\n  mload(0x40)\n  returndatasize\n  not(0x1f)\n  0x1f\n  dup3\n  add\n  and\n  dup3\n  add\n  dup1\n  0x40\n  mstore\n  pop\n  dup2\n  add\n  swap1\n  tag_10\n  swap2\n  swap1\n  tag_3\n  jump\t// in\ntag_10:\n    /* \"contracts/supplier.sol\":3111:3125  stackInterface */\n  0x03\n    /* \"contracts/supplier.sol\":3111:3167  stackInterface = StackInterface(daoInterface.stacking()) */\n  dup1\n  sload\n  not(sub(shl(0xa0, 0x01), 0x01))\n  and\n  sub(shl(0xa0, 0x01), 0x01)\n  swap3\n  swap1\n  swap3\n  and\n  swap2\n  swap1\n  swap2\n  or\n  swap1\n  sstore\n  pop\n    /* \"contracts/supplier.sol\":700:17209  contract Supplier is ReentrancyGuard {... */\n  jump(tag_12)\n    /* \"#utility.yul\":14:304   */\ntag_3:\n    /* \"#utility.yul\":84:90   */\n  0x00\n    /* \"#utility.yul\":137:139   */\n  0x20\n    /* \"#utility.yul\":125:134   */\n  dup3\n    /* \"#utility.yul\":116:123   */\n  dup5\n    /* \"#utility.yul\":112:135   */\n  sub\n    /* \"#utility.yul\":108:140   */\n  slt\n    /* \"#utility.yul\":105:157   */\n  iszero\n  tag_14\n  jumpi\n    /* \"#utility.yul\":153:154   */\n  0x00\n    /* \"#utility.yul\":150:151   */\n  0x00\n    /* \"#utility.yul\":143:155   */\n  revert\n    /* \"#utility.yul\":105:157   */\ntag_14:\n    /* \"#utility.yul\":179:195   */\n  dup2\n  mload\n  sub(shl(0xa0, 0x01), 0x01)\n    /* \"#utility.yul\":224:255   */\n  dup2\n  and\n    /* \"#utility.yul\":214:256   */\n  dup2\n  eq\n    /* \"#utility.yul\":204:274   */\n  tag_15\n  jumpi\n    /* \"#utility.yul\":270:271   */\n  0x00\n    /* \"#utility.yul\":267:268   */\n  0x00\n    /* \"#utility.yul\":260:272   */\n  revert\n    /* \"#utility.yul\":204:274   */\ntag_15:\n    /* \"#utility.yul\":293:298   */\n  swap4\n    /* \"#utility.yul\":14:304   */\n  swap3\n  pop\n  pop\n  pop\n  jump\t// out\ntag_12:\n    /* \"contracts/supplier.sol\":700:17209  contract Supplier is ReentrancyGuard {... */\n  dataSize(sub_0)\n  dup1\n  dataOffset(sub_0)\n  0x00\n  codecopy\n  0x00\n  return\nstop\n\nsub_0: assembly {\n        /* \"contracts/supplier.sol\":700:17209  contract Supplier is ReentrancyGuard {... */\n      mstore(0x40, 0x80)\n      jumpi(tag_1, lt(calldatasize, 0x04))\n      shr(0xe0, calldataload(0x00))\n      dup1\n      0x621574d4\n      gt\n      tag_25\n      jumpi\n      dup1\n      0xcf96f1e8\n      gt\n      tag_26\n      jumpi\n      dup1\n      0xcf96f1e8\n      eq\n      tag_19\n      jumpi\n      dup1\n      0xd016588c\n      eq\n      tag_20\n      jumpi\n      dup1\n      0xdc1ad725\n      eq\n      tag_21\n      jumpi\n      dup1\n      0xe3b231b5\n      eq\n      tag_22\n      jumpi\n      dup1\n      0xea1e7a69\n      eq\n      tag_23\n      jumpi\n      dup1\n      0xf71b007b\n      eq\n      tag_24\n      jumpi\n      revert(0x00, 0x00)\n    tag_26:\n      dup1\n      0x621574d4\n      eq\n      tag_13\n      jumpi\n      dup1\n      0x6da8756d\n      eq\n      tag_14\n      jumpi\n      dup1\n      0x94ed8fcc\n      eq\n      tag_15\n      jumpi\n      dup1\n      0xa7972584\n      eq\n      tag_16\n      jumpi\n      dup1\n      0xada49963\n      eq\n      tag_17\n      jumpi\n      dup1\n      0xc7568eff\n      eq\n      tag_18\n      jumpi\n      revert(0x00, 0x00)\n    tag_25:\n      dup1\n      0x2131c68c\n      gt\n      tag_27\n      jumpi\n      dup1\n      0x2131c68c\n      eq\n      tag_7\n      jumpi\n      dup1\n      0x392c4527\n      eq\n      tag_8\n      jumpi\n      dup1\n      0x3f1c06f3\n      eq\n      tag_9\n      jumpi\n      dup1\n      0x4907c36a\n      eq\n      tag_10\n      jumpi\n      dup1\n      0x4affb863\n      eq\n      tag_11\n      jumpi\n      dup1\n      0x5bfc2bc1\n      eq\n      tag_12\n      jumpi\n      revert(0x00, 0x00)\n    tag_27:\n      dup1\n      0x867f53\n      eq\n      tag_2\n      jumpi\n      dup1\n      0x05a5562d\n      eq\n      tag_3\n      jumpi\n      dup1\n      0x13a938c8\n      eq\n      tag_4\n      jumpi\n      dup1\n      0x16500891\n      eq\n      tag_5\n      jumpi\n      dup1\n      0x1e2b2d2c\n      eq\n      tag_6\n      jumpi\n    tag_1:\n      revert(0x00, 0x00)\n        /* \"contracts/supplier.sol\":9193:10704  function rejectPartner(address agentAddress) public payable {... */\n    tag_2:\n      tag_28\n      tag_29\n      calldatasize\n      0x04\n      tag_30\n      jump\t// in\n    tag_29:\n      tag_31\n      jump\t// in\n    tag_28:\n      stop\n        /* \"contracts/supplier.sol\":4544:4664  function isBrand(address brandAddress) public view returns (bool) {... */\n    tag_3:\n      callvalue\n      dup1\n      iszero\n      tag_32\n      jumpi\n      revert(0x00, 0x00)\n    tag_32:\n      pop\n      tag_33\n      tag_34\n      calldatasize\n      0x04\n      tag_30\n      jump\t// in\n    tag_34:\n      sub(shl(0xa0, 0x01), 0x01)\n        /* \"contracts/supplier.sol\":4628:4651  _brandIds[brandAddress] */\n      and\n        /* \"contracts/supplier.sol\":4604:4608  bool */\n      0x00\n        /* \"contracts/supplier.sol\":4628:4651  _brandIds[brandAddress] */\n      swap1\n      dup2\n      mstore\n        /* \"contracts/supplier.sol\":4628:4637  _brandIds */\n      0x05\n        /* \"contracts/supplier.sol\":4628:4651  _brandIds[brandAddress] */\n      0x20\n      mstore\n      0x40\n      swap1\n      keccak256\n      sload\n        /* \"contracts/supplier.sol\":4628:4656  _brandIds[brandAddress] != 0 */\n      iszero\n      iszero\n      swap1\n        /* \"contracts/supplier.sol\":4544:4664  function isBrand(address brandAddress) public view returns (bool) {... */\n      jump\n    tag_33:\n      mload(0x40)\n        /* \"#utility.yul\":567:581   */\n      swap1\n      iszero\n        /* \"#utility.yul\":560:582   */\n      iszero\n        /* \"#utility.yul\":542:583   */\n      dup2\n      mstore\n        /* \"#utility.yul\":530:532   */\n      0x20\n        /* \"#utility.yul\":515:533   */\n      add\n        /* \"contracts/supplier.sol\":4544:4664  function isBrand(address brandAddress) public view returns (bool) {... */\n    tag_36:\n      mload(0x40)\n      dup1\n      swap2\n      sub\n      swap1\n      return\n        /* \"contracts/supplier.sol\":13077:13276  function getPartnerStatus(... */\n    tag_4:\n      callvalue\n      dup1\n      iszero\n      tag_38\n      jumpi\n      revert(0x00, 0x00)\n    tag_38:\n      pop\n      tag_39\n      tag_40\n      calldatasize\n      0x04\n      tag_41\n      jump\t// in\n    tag_40:\n      sub(shl(0xa0, 0x01), 0x01)\n        /* \"contracts/supplier.sol\":13226:13254  _partnerStatus[brandAddress] */\n      swap2\n      dup3\n      and\n        /* \"contracts/supplier.sol\":13193:13206  PartnerStatus */\n      0x00\n        /* \"contracts/supplier.sol\":13226:13254  _partnerStatus[brandAddress] */\n      swap1\n      dup2\n      mstore\n        /* \"contracts/supplier.sol\":13226:13240  _partnerStatus */\n      0x15\n        /* \"contracts/supplier.sol\":13226:13254  _partnerStatus[brandAddress] */\n      0x20\n      swap1\n      dup2\n      mstore\n      0x40\n      dup1\n      dup4\n      keccak256\n        /* \"contracts/supplier.sol\":13226:13268  _partnerStatus[brandAddress][agentAddress] */\n      swap4\n      swap1\n      swap5\n      and\n      dup3\n      mstore\n      swap2\n      swap1\n      swap2\n      mstore\n      keccak256\n      sload\n      0xff\n      and\n      swap1\n        /* \"contracts/supplier.sol\":13077:13276  function getPartnerStatus(... */\n      jump\n    tag_39:\n      mload(0x40)\n      tag_36\n      swap2\n      swap1\n      tag_44\n      jump\t// in\n        /* \"contracts/supplier.sol\":14389:14759  function getSellerBrandBatch(... */\n    tag_5:\n      callvalue\n      dup1\n      iszero\n      tag_45\n      jumpi\n      revert(0x00, 0x00)\n    tag_45:\n      pop\n      tag_46\n      tag_47\n      calldatasize\n      0x04\n      tag_48\n      jump\t// in\n    tag_47:\n      tag_49\n      jump\t// in\n    tag_46:\n      mload(0x40)\n      tag_36\n      swap2\n      swap1\n      tag_51\n      jump\t// in\n        /* \"contracts/supplier.sol\":3349:3848  function brandRegister() public {... */\n    tag_6:\n      callvalue\n      dup1\n      iszero\n      tag_52\n      jumpi\n      revert(0x00, 0x00)\n    tag_52:\n      pop\n      tag_28\n      tag_54\n      jump\t// in\n        /* \"contracts/supplier.sol\":893:918  address public daoAddress */\n    tag_7:\n      callvalue\n      dup1\n      iszero\n      tag_55\n      jumpi\n      revert(0x00, 0x00)\n    tag_55:\n      pop\n      sload(0x01)\n      tag_56\n      swap1\n      sub(shl(0xa0, 0x01), 0x01)\n      and\n      dup2\n      jump\n    tag_56:\n      mload(0x40)\n      sub(shl(0xa0, 0x01), 0x01)\n        /* \"#utility.yul\":3224:3256   */\n      swap1\n      swap2\n      and\n        /* \"#utility.yul\":3206:3257   */\n      dup2\n      mstore\n        /* \"#utility.yul\":3194:3196   */\n      0x20\n        /* \"#utility.yul\":3179:3197   */\n      add\n        /* \"contracts/supplier.sol\":893:918  address public daoAddress */\n      tag_36\n        /* \"#utility.yul\":3060:3263   */\n      jump\n        /* \"contracts/supplier.sol\":4140:4536  function unVerifyBrand(address brandAddress) public onlyReviewer {... */\n    tag_8:\n      callvalue\n      dup1\n      iszero\n      tag_60\n      jumpi\n      revert(0x00, 0x00)\n    tag_60:\n      pop\n      tag_28\n      tag_62\n      calldatasize\n      0x04\n      tag_30\n      jump\t// in\n    tag_62:\n      tag_63\n      jump\t// in\n        /* \"contracts/supplier.sol\":13648:14015  function getPartnerRequestBatch(... */\n    tag_9:\n      callvalue\n      dup1\n      iszero\n      tag_64\n      jumpi\n      revert(0x00, 0x00)\n    tag_64:\n      pop\n      tag_46\n      tag_66\n      calldatasize\n      0x04\n      tag_48\n      jump\t// in\n    tag_66:\n      tag_67\n      jump\t// in\n        /* \"contracts/supplier.sol\":4805:4915  function getBrandAddress(uint256 index) public view returns (address) {... */\n    tag_10:\n      callvalue\n      dup1\n      iszero\n      tag_69\n      jumpi\n      revert(0x00, 0x00)\n    tag_69:\n      pop\n      tag_56\n      tag_71\n      calldatasize\n      0x04\n      tag_72\n      jump\t// in\n    tag_71:\n        /* \"contracts/supplier.sol\":4866:4873  address */\n      0x00\n        /* \"contracts/supplier.sol\":4893:4907  _brands[index] */\n      swap1\n      dup2\n      mstore\n        /* \"contracts/supplier.sol\":4893:4900  _brands */\n      0x04\n        /* \"contracts/supplier.sol\":4893:4907  _brands[index] */\n      0x20\n      mstore\n      0x40\n      swap1\n      keccak256\n      sload\n      sub(shl(0xa0, 0x01), 0x01)\n      and\n      swap1\n        /* \"contracts/supplier.sol\":4805:4915  function getBrandAddress(uint256 index) public view returns (address) {... */\n      jump\n        /* \"contracts/supplier.sol\":12730:13069  function isPartner(... */\n    tag_11:\n      callvalue\n      dup1\n      iszero\n      tag_75\n      jumpi\n      revert(0x00, 0x00)\n    tag_75:\n      pop\n      tag_33\n      tag_77\n      calldatasize\n      0x04\n      tag_41\n      jump\t// in\n    tag_77:\n      tag_78\n      jump\t// in\n        /* \"contracts/supplier.sol\":12355:12512  function getRejectCount(... */\n    tag_12:\n      callvalue\n      dup1\n      iszero\n      tag_80\n      jumpi\n      revert(0x00, 0x00)\n    tag_80:\n      pop\n      tag_81\n      tag_82\n      calldatasize\n      0x04\n      tag_30\n      jump\t// in\n    tag_82:\n      tag_83\n      jump\t// in\n    tag_81:\n      mload(0x40)\n        /* \"#utility.yul\":3599:3624   */\n      swap1\n      dup2\n      mstore\n        /* \"#utility.yul\":3587:3589   */\n      0x20\n        /* \"#utility.yul\":3572:3590   */\n      add\n        /* \"contracts/supplier.sol\":12355:12512  function getRejectCount(... */\n      tag_36\n        /* \"#utility.yul\":3453:3630   */\n      jump\n        /* \"contracts/supplier.sol\":11751:11942  function getPartnerIndex(... */\n    tag_13:\n      callvalue\n      dup1\n      iszero\n      tag_86\n      jumpi\n      revert(0x00, 0x00)\n    tag_86:\n      pop\n      tag_81\n      tag_88\n      calldatasize\n      0x04\n      tag_41\n      jump\t// in\n    tag_88:\n      sub(shl(0xa0, 0x01), 0x01)\n        /* \"contracts/supplier.sol\":11894:11919  _partnerIds[brandAddress] */\n      swap2\n      dup3\n      and\n        /* \"contracts/supplier.sol\":11867:11874  uint256 */\n      0x00\n        /* \"contracts/supplier.sol\":11894:11919  _partnerIds[brandAddress] */\n      swap1\n      dup2\n      mstore\n        /* \"contracts/supplier.sol\":11894:11905  _partnerIds */\n      0x0a\n        /* \"contracts/supplier.sol\":11894:11919  _partnerIds[brandAddress] */\n      0x20\n      swap1\n      dup2\n      mstore\n      0x40\n      dup1\n      dup4\n      keccak256\n        /* \"contracts/supplier.sol\":11894:11934  _partnerIds[brandAddress][sellerAddress] */\n      swap4\n      swap1\n      swap5\n      and\n      dup3\n      mstore\n      swap2\n      swap1\n      swap2\n      mstore\n      keccak256\n      sload\n      swap1\n        /* \"contracts/supplier.sol\":11751:11942  function getPartnerIndex(... */\n      jump\n        /* \"contracts/supplier.sol\":13284:13640  function getPartnerBatch(... */\n    tag_14:\n      callvalue\n      dup1\n      iszero\n      tag_91\n      jumpi\n      revert(0x00, 0x00)\n    tag_91:\n      pop\n      tag_46\n      tag_93\n      calldatasize\n      0x04\n      tag_48\n      jump\t// in\n    tag_93:\n      tag_94\n      jump\t// in\n        /* \"contracts/supplier.sol\":14023:14381  function getRejectBatch(... */\n    tag_15:\n      callvalue\n      dup1\n      iszero\n      tag_96\n      jumpi\n      revert(0x00, 0x00)\n    tag_96:\n      pop\n      tag_46\n      tag_98\n      calldatasize\n      0x04\n      tag_48\n      jump\t// in\n    tag_98:\n      tag_99\n      jump\t// in\n        /* \"contracts/supplier.sol\":7862:9185  function approvePartner(address agentAddress) public payable nonReentrant {... */\n    tag_16:\n      tag_28\n      tag_102\n      calldatasize\n      0x04\n      tag_30\n      jump\t// in\n    tag_102:\n      tag_103\n      jump\t// in\n        /* \"contracts/supplier.sol\":12188:12347  function getRequestCount(... */\n    tag_17:\n      callvalue\n      dup1\n      iszero\n      tag_104\n      jumpi\n      revert(0x00, 0x00)\n    tag_104:\n      pop\n      tag_81\n      tag_106\n      calldatasize\n      0x04\n      tag_30\n      jump\t// in\n    tag_106:\n      tag_107\n      jump\t// in\n        /* \"contracts/supplier.sol\":1146:1182  Counters.Counter public brandCounter */\n    tag_18:\n      callvalue\n      dup1\n      iszero\n      tag_109\n      jumpi\n      revert(0x00, 0x00)\n    tag_109:\n      pop\n      sload(0x06)\n      tag_81\n      swap1\n      dup2\n      jump\n        /* \"contracts/supplier.sol\":4923:5302  function getBrandBatch(... */\n    tag_19:\n      callvalue\n      dup1\n      iszero\n      tag_113\n      jumpi\n      revert(0x00, 0x00)\n    tag_113:\n      pop\n      tag_46\n      tag_115\n      calldatasize\n      0x04\n      tag_116\n      jump\t// in\n    tag_115:\n      tag_117\n      jump\t// in\n        /* \"contracts/supplier.sol\":12520:12689  function getSellerBrandCount(... */\n    tag_20:\n      callvalue\n      dup1\n      iszero\n      tag_119\n      jumpi\n      revert(0x00, 0x00)\n    tag_119:\n      pop\n      tag_81\n      tag_121\n      calldatasize\n      0x04\n      tag_30\n      jump\t// in\n    tag_121:\n      tag_122\n      jump\t// in\n        /* \"contracts/supplier.sol\":6597:7813  function requestToJoin(address brandAddress) public payable nonReentrant {... */\n    tag_21:\n      tag_28\n      tag_125\n      calldatasize\n      0x04\n      tag_30\n      jump\t// in\n    tag_125:\n      tag_126\n      jump\t// in\n        /* \"contracts/supplier.sol\":4672:4797  function isVerifiedBrand(address brandAddress) public view returns (bool) {... */\n    tag_22:\n      callvalue\n      dup1\n      iszero\n      tag_127\n      jumpi\n      revert(0x00, 0x00)\n    tag_127:\n      pop\n      tag_33\n      tag_129\n      calldatasize\n      0x04\n      tag_30\n      jump\t// in\n    tag_129:\n      sub(shl(0xa0, 0x01), 0x01)\n        /* \"contracts/supplier.sol\":4764:4789  _isVerified[brandAddress] */\n      and\n        /* \"contracts/supplier.sol\":4740:4744  bool */\n      0x00\n        /* \"contracts/supplier.sol\":4764:4789  _isVerified[brandAddress] */\n      swap1\n      dup2\n      mstore\n        /* \"contracts/supplier.sol\":4764:4775  _isVerified */\n      0x07\n        /* \"contracts/supplier.sol\":4764:4789  _isVerified[brandAddress] */\n      0x20\n      mstore\n      0x40\n      swap1\n      keccak256\n      sload\n      0xff\n      and\n      swap1\n        /* \"contracts/supplier.sol\":4672:4797  function isVerifiedBrand(address brandAddress) public view returns (bool) {... */\n      jump\n        /* \"contracts/supplier.sol\":3856:4132  function verifyBrand(address brandAddress) public onlyReviewer {... */\n    tag_23:\n      callvalue\n      dup1\n      iszero\n      tag_132\n      jumpi\n      revert(0x00, 0x00)\n    tag_132:\n      pop\n      tag_28\n      tag_134\n      calldatasize\n      0x04\n      tag_30\n      jump\t// in\n    tag_134:\n      tag_135\n      jump\t// in\n        /* \"contracts/supplier.sol\":11950:12109  function getPartnerCount(... */\n    tag_24:\n      callvalue\n      dup1\n      iszero\n      tag_136\n      jumpi\n      revert(0x00, 0x00)\n    tag_136:\n      pop\n      tag_81\n      tag_138\n      calldatasize\n      0x04\n      tag_30\n      jump\t// in\n    tag_138:\n      tag_139\n      jump\t// in\n        /* \"contracts/supplier.sol\":9193:10704  function rejectPartner(address agentAddress) public payable {... */\n    tag_31:\n        /* \"contracts/supplier.sol\":9287:9297  msg.sender */\n      caller\n        /* \"contracts/supplier.sol\":9264:9284  address brandAddress */\n      0x00\n        /* \"contracts/supplier.sol\":9331:9359  _partnerStatus[brandAddress] */\n      dup2\n      dup2\n      mstore\n        /* \"contracts/supplier.sol\":9331:9345  _partnerStatus */\n      0x15\n        /* \"contracts/supplier.sol\":9331:9359  _partnerStatus[brandAddress] */\n      0x20\n      swap1\n      dup2\n      mstore\n      0x40\n      dup1\n      dup4\n      keccak256\n      sub(shl(0xa0, 0x01), 0x01)\n        /* \"contracts/supplier.sol\":9331:9373  _partnerStatus[brandAddress][agentAddress] */\n      dup7\n      and\n      dup5\n      mstore\n      swap1\n      swap2\n      mstore\n      swap1\n      keccak256\n      sload\n      0xff\n      and\n      0x01\n        /* \"contracts/supplier.sol\":9406:9412  status */\n      dup2\n        /* \"contracts/supplier.sol\":9406:9437  status == PartnerStatus.Pending */\n      0x03\n      dup2\n      gt\n      iszero\n      tag_146\n      jumpi\n      tag_146\n      tag_144\n      jump\t// in\n    tag_146:\n      eq\n        /* \"contracts/supplier.sol\":9406:9473  status == PartnerStatus.Pending || status == PartnerStatus.Approved */\n      dup1\n      tag_147\n      jumpi\n      pop\n        /* \"contracts/supplier.sol\":9451:9473  PartnerStatus.Approved */\n      0x02\n        /* \"contracts/supplier.sol\":9441:9447  status */\n      dup2\n        /* \"contracts/supplier.sol\":9441:9473  status == PartnerStatus.Approved */\n      0x03\n      dup2\n      gt\n      iszero\n      tag_151\n      jumpi\n      tag_151\n      tag_144\n      jump\t// in\n    tag_151:\n      eq\n        /* \"contracts/supplier.sol\":9406:9473  status == PartnerStatus.Pending || status == PartnerStatus.Approved */\n    tag_147:\n        /* \"contracts/supplier.sol\":9384:9522  require(... */\n      tag_152\n      jumpi\n      mload(0x40)\n      shl(0xe5, 0x461bcd)\n      dup2\n      mstore\n        /* \"#utility.yul\":4279:4281   */\n      0x20\n        /* \"contracts/supplier.sol\":9384:9522  require(... */\n      0x04\n      dup3\n      add\n        /* \"#utility.yul\":4261:4282   */\n      mstore\n        /* \"#utility.yul\":4318:4320   */\n      0x15\n        /* \"#utility.yul\":4298:4316   */\n      0x24\n      dup3\n      add\n        /* \"#utility.yul\":4291:4321   */\n      mstore\n      shl(0x58, 0x4f6e6c792070656e64696e67207265717565737473)\n        /* \"#utility.yul\":4337:4355   */\n      0x44\n      dup3\n      add\n        /* \"#utility.yul\":4330:4381   */\n      mstore\n        /* \"#utility.yul\":4398:4416   */\n      0x64\n      add\n        /* \"contracts/supplier.sol\":9384:9522  require(... */\n    tag_153:\n      mload(0x40)\n      dup1\n      swap2\n      sub\n      swap1\n      revert\n    tag_152:\n        /* \"contracts/supplier.sol\":9560:9572  daoInterface */\n      sload(0x02)\n        /* \"contracts/supplier.sol\":9560:9585  daoInterface.getFeeInfo() */\n      0x40\n      dup1\n      mload\n      shl(0xe0, 0x02eab7)\n      dup2\n      mstore\n      swap1\n      mload\n        /* \"contracts/supplier.sol\":9538:9554  uint256 brandFee */\n      0x00\n      swap3\n      sub(shl(0xa0, 0x01), 0x01)\n        /* \"contracts/supplier.sol\":9560:9572  daoInterface */\n      and\n      swap2\n        /* \"contracts/supplier.sol\":9560:9583  daoInterface.getFeeInfo */\n      0x02eab7\n      swap2\n        /* \"contracts/supplier.sol\":9560:9585  daoInterface.getFeeInfo() */\n      0x04\n      dup1\n      dup4\n      add\n      swap3\n      0x80\n      swap3\n      swap2\n      swap1\n      dup3\n      swap1\n      sub\n      add\n      dup2\n        /* \"contracts/supplier.sol\":9560:9572  daoInterface */\n      dup7\n        /* \"contracts/supplier.sol\":9560:9585  daoInterface.getFeeInfo() */\n      gas\n      staticcall\n      iszero\n      dup1\n      iszero\n      tag_156\n      jumpi\n      returndatacopy(0x00, 0x00, returndatasize)\n      revert(0x00, returndatasize)\n    tag_156:\n      pop\n      pop\n      pop\n      pop\n      mload(0x40)\n      returndatasize\n      not(0x1f)\n      0x1f\n      dup3\n      add\n      and\n      dup3\n      add\n      dup1\n      0x40\n      mstore\n      pop\n      dup2\n      add\n      swap1\n      tag_157\n      swap2\n      swap1\n      tag_158\n      jump\t// in\n    tag_157:\n        /* \"contracts/supplier.sol\":9533:9585  (, , uint256 brandFee, ) = daoInterface.getFeeInfo() */\n      pop\n      swap3\n      pop\n      pop\n      pop\n        /* \"contracts/supplier.sol\":9617:9625  brandFee */\n      dup1\n        /* \"contracts/supplier.sol\":9604:9613  msg.value */\n      callvalue\n        /* \"contracts/supplier.sol\":9604:9625  msg.value >= brandFee */\n      lt\n      iszero\n        /* \"contracts/supplier.sol\":9596:9646  require(msg.value >= brandFee, \"Insufficient fee\") */\n      tag_159\n      jumpi\n      mload(0x40)\n      shl(0xe5, 0x461bcd)\n      dup2\n      mstore\n      0x04\n      add\n      tag_153\n      swap1\n      tag_161\n      jump\t// in\n    tag_159:\n        /* \"contracts/supplier.sol\":9737:9758  PartnerStatus.Pending */\n      0x01\n        /* \"contracts/supplier.sol\":9727:9733  status */\n      dup3\n        /* \"contracts/supplier.sol\":9727:9758  status == PartnerStatus.Pending */\n      0x03\n      dup2\n      gt\n      iszero\n      tag_165\n      jumpi\n      tag_165\n      tag_144\n      jump\t// in\n    tag_165:\n      sub\n        /* \"contracts/supplier.sol\":9723:10084  if (status == PartnerStatus.Pending) {... */\n      tag_166\n      jumpi\n        /* \"contracts/supplier.sol\":9775:9825  _removeFromRequestList(brandAddress, agentAddress) */\n      tag_167\n        /* \"contracts/supplier.sol\":9798:9810  brandAddress */\n      dup4\n        /* \"contracts/supplier.sol\":9812:9824  agentAddress */\n      dup6\n        /* \"contracts/supplier.sol\":9775:9797  _removeFromRequestList */\n      tag_168\n        /* \"contracts/supplier.sol\":9775:9825  _removeFromRequestList(brandAddress, agentAddress) */\n      jump\t// in\n    tag_167:\n        /* \"contracts/supplier.sol\":9723:10084  if (status == PartnerStatus.Pending) {... */\n      jump(tag_179)\n    tag_166:\n        /* \"contracts/supplier.sol\":9857:9879  PartnerStatus.Approved */\n      0x02\n        /* \"contracts/supplier.sol\":9847:9853  status */\n      dup3\n        /* \"contracts/supplier.sol\":9847:9879  status == PartnerStatus.Approved */\n      0x03\n      dup2\n      gt\n      iszero\n      tag_173\n      jumpi\n      tag_173\n      tag_144\n      jump\t// in\n    tag_173:\n      sub\n        /* \"contracts/supplier.sol\":9843:10084  if (status == PartnerStatus.Approved) {... */\n      tag_174\n      jumpi\n        /* \"contracts/supplier.sol\":9896:9946  _removeFromPartnerList(brandAddress, agentAddress) */\n      tag_175\n        /* \"contracts/supplier.sol\":9919:9931  brandAddress */\n      dup4\n        /* \"contracts/supplier.sol\":9933:9945  agentAddress */\n      dup6\n        /* \"contracts/supplier.sol\":9896:9918  _removeFromPartnerList */\n      tag_176\n        /* \"contracts/supplier.sol\":9896:9946  _removeFromPartnerList(brandAddress, agentAddress) */\n      jump\t// in\n    tag_175:\n        /* \"contracts/supplier.sol\":9961:10015  _removeFromSellerBrandList(agentAddress, brandAddress) */\n      tag_167\n        /* \"contracts/supplier.sol\":9988:10000  agentAddress */\n      dup5\n        /* \"contracts/supplier.sol\":10002:10014  brandAddress */\n      dup5\n        /* \"contracts/supplier.sol\":9961:9987  _removeFromSellerBrandList */\n      tag_178\n        /* \"contracts/supplier.sol\":9961:10015  _removeFromSellerBrandList(agentAddress, brandAddress) */\n      jump\t// in\n        /* \"contracts/supplier.sol\":9843:10084  if (status == PartnerStatus.Approved) {... */\n    tag_174:\n        /* \"contracts/supplier.sol\":10048:10072  revert(\"Invalid status\") */\n      mload(0x40)\n      shl(0xe5, 0x461bcd)\n      dup2\n      mstore\n        /* \"#utility.yul\":5549:5551   */\n      0x20\n        /* \"contracts/supplier.sol\":10048:10072  revert(\"Invalid status\") */\n      0x04\n      dup3\n      add\n        /* \"#utility.yul\":5531:5552   */\n      mstore\n        /* \"#utility.yul\":5588:5590   */\n      0x0e\n        /* \"#utility.yul\":5568:5586   */\n      0x24\n      dup3\n      add\n        /* \"#utility.yul\":5561:5591   */\n      mstore\n      shl(0x90, 0x496e76616c696420737461747573)\n        /* \"#utility.yul\":5607:5625   */\n      0x44\n      dup3\n      add\n        /* \"#utility.yul\":5600:5644   */\n      mstore\n        /* \"#utility.yul\":5661:5679   */\n      0x64\n      add\n        /* \"contracts/supplier.sol\":10048:10072  revert(\"Invalid status\") */\n      tag_153\n        /* \"#utility.yul\":5347:5685   */\n      jump\n        /* \"contracts/supplier.sol\":9843:10084  if (status == PartnerStatus.Approved) {... */\n    tag_179:\n      sub(shl(0xa0, 0x01), 0x01)\n        /* \"contracts/supplier.sol\":10127:10156  _rejectCounters[brandAddress] */\n      dup4\n      dup2\n      and\n      0x00\n      dup2\n      dup2\n      mstore\n        /* \"contracts/supplier.sol\":10127:10142  _rejectCounters */\n      0x11\n        /* \"contracts/supplier.sol\":10127:10156  _rejectCounters[brandAddress] */\n      0x20\n      swap1\n      dup2\n      mstore\n      0x40\n      dup1\n      dup4\n      keccak256\n        /* \"@openzeppelin/contracts/utils/Counters.sol\":1032:1051  counter._value += 1 */\n      dup1\n      sload\n        /* \"@openzeppelin/contracts/utils/Counters.sol\":1050:1051  1 */\n      0x01\n        /* \"@openzeppelin/contracts/utils/Counters.sol\":1032:1051  counter._value += 1 */\n      add\n      swap1\n      dup2\n      swap1\n      sstore\n        /* \"contracts/supplier.sol\":10246:10257  _rejectList */\n      0x0f\n        /* \"contracts/supplier.sol\":10246:10271  _rejectList[brandAddress] */\n      dup4\n      mstore\n      dup2\n      dup5\n      keccak256\n        /* \"contracts/supplier.sol\":10246:10279  _rejectList[brandAddress][newRId] */\n      dup2\n      dup6\n      mstore\n      dup4\n      mstore\n      dup2\n      dup5\n      keccak256\n        /* \"contracts/supplier.sol\":10246:10294  _rejectList[brandAddress][newRId] = agentAddress */\n      dup1\n      sload\n      swap7\n      dup12\n      and\n      not(sub(shl(0xa0, 0x01), 0x01))\n      swap1\n      swap8\n      and\n      dup8\n      or\n      swap1\n      sstore\n        /* \"contracts/supplier.sol\":10305:10329  _rejectIds[brandAddress] */\n      dup5\n      dup5\n      mstore\n        /* \"contracts/supplier.sol\":10305:10315  _rejectIds */\n      0x10\n        /* \"contracts/supplier.sol\":10305:10329  _rejectIds[brandAddress] */\n      dup4\n      mstore\n      dup2\n      dup5\n      keccak256\n        /* \"contracts/supplier.sol\":10305:10343  _rejectIds[brandAddress][agentAddress] */\n      dup7\n      dup6\n      mstore\n      dup4\n      mstore\n      dup2\n      dup5\n      keccak256\n        /* \"contracts/supplier.sol\":10305:10352  _rejectIds[brandAddress][agentAddress] = newRId */\n      dup2\n      swap1\n      sstore\n        /* \"contracts/supplier.sol\":10365:10393  _partnerStatus[brandAddress] */\n      swap4\n      dup4\n      mstore\n        /* \"contracts/supplier.sol\":10365:10379  _partnerStatus */\n      0x15\n        /* \"contracts/supplier.sol\":10365:10393  _partnerStatus[brandAddress] */\n      dup3\n      mstore\n      dup1\n      dup4\n      keccak256\n        /* \"contracts/supplier.sol\":10365:10407  _partnerStatus[brandAddress][agentAddress] */\n      swap5\n      dup4\n      mstore\n      swap4\n      swap1\n      mstore\n      swap2\n      swap1\n      swap2\n      keccak256\n        /* \"contracts/supplier.sol\":10365:10432  _partnerStatus[brandAddress][agentAddress] = PartnerStatus.Rejected */\n      dup1\n      sload\n      not(0xff)\n      and\n        /* \"contracts/supplier.sol\":10410:10432  PartnerStatus.Rejected */\n      0x03\n        /* \"contracts/supplier.sol\":10365:10432  _partnerStatus[brandAddress][agentAddress] = PartnerStatus.Rejected */\n      or\n      swap1\n      sstore\n        /* \"contracts/supplier.sol\":10608:10635  _forwardFeeToDAO(msg.value) */\n      tag_188\n        /* \"contracts/supplier.sol\":10625:10634  msg.value */\n      callvalue\n        /* \"contracts/supplier.sol\":10608:10624  _forwardFeeToDAO */\n      tag_189\n        /* \"contracts/supplier.sol\":10608:10635  _forwardFeeToDAO(msg.value) */\n      jump\t// in\n    tag_188:\n        /* \"contracts/supplier.sol\":10683:10695  agentAddress */\n      dup5\n      sub(shl(0xa0, 0x01), 0x01)\n        /* \"contracts/supplier.sol\":10653:10696  PartnerRejected(brandAddress, agentAddress) */\n      and\n        /* \"contracts/supplier.sol\":10669:10681  brandAddress */\n      dup5\n      sub(shl(0xa0, 0x01), 0x01)\n        /* \"contracts/supplier.sol\":10653:10696  PartnerRejected(brandAddress, agentAddress) */\n      and\n      0x5ef61c82a05b2947fa2b06a1a2f856cdab0923b82d03cf70f322fc055bf37b01\n      mload(0x40)\n      mload(0x40)\n      dup1\n      swap2\n      sub\n      swap1\n      log3\n        /* \"contracts/supplier.sol\":9253:10704  {... */\n      pop\n      pop\n      pop\n      pop\n        /* \"contracts/supplier.sol\":9193:10704  function rejectPartner(address agentAddress) public payable {... */\n      pop\n      jump\t// out\n        /* \"contracts/supplier.sol\":14389:14759  function getSellerBrandBatch(... */\n    tag_49:\n        /* \"contracts/supplier.sol\":14515:14531  address[] memory */\n      0x60\n        /* \"contracts/supplier.sol\":14544:14565  address[] memory list */\n      0x00\n        /* \"contracts/supplier.sol\":14582:14589  indexes */\n      dup3\n        /* \"contracts/supplier.sol\":14568:14597  new address[](indexes.length) */\n      0xffffffffffffffff\n      dup2\n      gt\n      iszero\n      tag_194\n      jumpi\n      tag_194\n      tag_195\n      jump\t// in\n    tag_194:\n      mload(0x40)\n      swap1\n      dup1\n      dup3\n      mstore\n      dup1\n      0x20\n      mul\n      0x20\n      add\n      dup3\n      add\n      0x40\n      mstore\n      dup1\n      iszero\n      tag_196\n      jumpi\n      dup2\n      0x20\n      add\n      0x20\n      dup3\n      mul\n      dup1\n      calldatasize\n      dup4\n      calldatacopy\n      add\n      swap1\n      pop\n    tag_196:\n      pop\n        /* \"contracts/supplier.sol\":14544:14597  address[] memory list = new address[](indexes.length) */\n      swap1\n      pop\n        /* \"contracts/supplier.sol\":14613:14619  uint i */\n      0x00\n        /* \"contracts/supplier.sol\":14608:14730  for (uint i = 0; i < indexes.length; i++) {... */\n    tag_197:\n        /* \"contracts/supplier.sol\":14625:14643  i < indexes.length */\n      dup4\n      dup2\n      lt\n        /* \"contracts/supplier.sol\":14608:14730  for (uint i = 0; i < indexes.length; i++) {... */\n      iszero\n      tag_198\n      jumpi\n      sub(shl(0xa0, 0x01), 0x01)\n        /* \"contracts/supplier.sol\":14675:14706  _sellerBrandList[sellerAddress] */\n      dup7\n      and\n      0x00\n      swap1\n      dup2\n      mstore\n        /* \"contracts/supplier.sol\":14675:14691  _sellerBrandList */\n      0x12\n        /* \"contracts/supplier.sol\":14675:14706  _sellerBrandList[sellerAddress] */\n      0x20\n      mstore\n      0x40\n      dup2\n      keccak256\n      swap1\n        /* \"contracts/supplier.sol\":14707:14714  indexes */\n      dup7\n      dup7\n        /* \"contracts/supplier.sol\":14715:14716  i */\n      dup5\n        /* \"contracts/supplier.sol\":14707:14717  indexes[i] */\n      dup2\n      dup2\n      lt\n      tag_201\n      jumpi\n      tag_201\n      tag_202\n      jump\t// in\n    tag_201:\n      swap1\n      pop\n      0x20\n      mul\n      add\n      calldataload\n        /* \"contracts/supplier.sol\":14675:14718  _sellerBrandList[sellerAddress][indexes[i]] */\n      dup2\n      mstore\n      0x20\n      add\n      swap1\n      dup2\n      mstore\n      0x20\n      add\n      0x00\n      keccak256\n      0x00\n      swap1\n      sload\n      swap1\n      0x0100\n      exp\n      swap1\n      div\n      sub(shl(0xa0, 0x01), 0x01)\n      and\n        /* \"contracts/supplier.sol\":14665:14669  list */\n      dup3\n        /* \"contracts/supplier.sol\":14670:14671  i */\n      dup3\n        /* \"contracts/supplier.sol\":14665:14672  list[i] */\n      dup2\n      mload\n      dup2\n      lt\n      tag_204\n      jumpi\n      tag_204\n      tag_202\n      jump\t// in\n    tag_204:\n      sub(shl(0xa0, 0x01), 0x01)\n        /* \"contracts/supplier.sol\":14665:14718  list[i] = _sellerBrandList[sellerAddress][indexes[i]] */\n      swap1\n      swap3\n      and\n        /* \"contracts/supplier.sol\":14665:14672  list[i] */\n      0x20\n      swap3\n      dup4\n      mul\n      swap2\n      swap1\n      swap2\n      add\n      swap1\n      swap2\n      add\n        /* \"contracts/supplier.sol\":14665:14718  list[i] = _sellerBrandList[sellerAddress][indexes[i]] */\n      mstore\n        /* \"contracts/supplier.sol\":14645:14648  i++ */\n      0x01\n      add\n        /* \"contracts/supplier.sol\":14608:14730  for (uint i = 0; i < indexes.length; i++) {... */\n      jump(tag_197)\n    tag_198:\n      pop\n        /* \"contracts/supplier.sol\":14747:14751  list */\n      swap5\n        /* \"contracts/supplier.sol\":14389:14759  function getSellerBrandBatch(... */\n      swap4\n      pop\n      pop\n      pop\n      pop\n      jump\t// out\n        /* \"contracts/supplier.sol\":3349:3848  function brandRegister() public {... */\n    tag_54:\n        /* \"contracts/supplier.sol\":3410:3420  msg.sender */\n      caller\n        /* \"contracts/supplier.sol\":3400:3421  _brandIds[msg.sender] */\n      0x00\n      swap1\n      dup2\n      mstore\n        /* \"contracts/supplier.sol\":3400:3409  _brandIds */\n      0x05\n        /* \"contracts/supplier.sol\":3400:3421  _brandIds[msg.sender] */\n      0x20\n      mstore\n      0x40\n      swap1\n      keccak256\n      sload\n        /* \"contracts/supplier.sol\":3400:3426  _brandIds[msg.sender] == 0 */\n      iszero\n        /* \"contracts/supplier.sol\":3392:3449  require(_brandIds[msg.sender] == 0, \"Already registered\") */\n      tag_206\n      jumpi\n      mload(0x40)\n      shl(0xe5, 0x461bcd)\n      dup2\n      mstore\n        /* \"#utility.yul\":6156:6158   */\n      0x20\n        /* \"contracts/supplier.sol\":3392:3449  require(_brandIds[msg.sender] == 0, \"Already registered\") */\n      0x04\n      dup3\n      add\n        /* \"#utility.yul\":6138:6159   */\n      mstore\n        /* \"#utility.yul\":6195:6197   */\n      0x12\n        /* \"#utility.yul\":6175:6193   */\n      0x24\n      dup3\n      add\n        /* \"#utility.yul\":6168:6198   */\n      mstore\n      shl(0x72, 0x105b1c9958591e481c9959da5cdd195c9959)\n        /* \"#utility.yul\":6214:6232   */\n      0x44\n      dup3\n      add\n        /* \"#utility.yul\":6207:6255   */\n      mstore\n        /* \"#utility.yul\":6272:6290   */\n      0x64\n      add\n        /* \"contracts/supplier.sol\":3392:3449  require(_brandIds[msg.sender] == 0, \"Already registered\") */\n      tag_153\n        /* \"#utility.yul\":5954:6296   */\n      jump\n        /* \"contracts/supplier.sol\":3392:3449  require(_brandIds[msg.sender] == 0, \"Already registered\") */\n    tag_206:\n        /* \"contracts/supplier.sol\":3488:3500  daoInterface */\n      sload(0x02)\n        /* \"contracts/supplier.sol\":3488:3515  daoInterface.getStackInfo() */\n      0x40\n      dup1\n      mload\n      shl(0xe2, 0x2b88e1db)\n      dup2\n      mstore\n      dup2\n      mload\n        /* \"contracts/supplier.sol\":3461:3482  uint256 minBrandStack */\n      0x00\n      swap4\n      sub(shl(0xa0, 0x01), 0x01)\n        /* \"contracts/supplier.sol\":3488:3500  daoInterface */\n      and\n      swap3\n        /* \"contracts/supplier.sol\":3488:3513  daoInterface.getStackInfo */\n      0xae23876c\n      swap3\n        /* \"contracts/supplier.sol\":3488:3515  daoInterface.getStackInfo() */\n      0x04\n      dup1\n      dup3\n      add\n      swap4\n      swap2\n      dup3\n      swap1\n      sub\n      add\n      dup2\n        /* \"contracts/supplier.sol\":3488:3500  daoInterface */\n      dup7\n        /* \"contracts/supplier.sol\":3488:3515  daoInterface.getStackInfo() */\n      gas\n      staticcall\n      iszero\n      dup1\n      iszero\n      tag_210\n      jumpi\n      returndatacopy(0x00, 0x00, returndatasize)\n      revert(0x00, returndatasize)\n    tag_210:\n      pop\n      pop\n      pop\n      pop\n      mload(0x40)\n      returndatasize\n      not(0x1f)\n      0x1f\n      dup3\n      add\n      and\n      dup3\n      add\n      dup1\n      0x40\n      mstore\n      pop\n      dup2\n      add\n      swap1\n      tag_211\n      swap2\n      swap1\n      tag_212\n      jump\t// in\n    tag_211:\n      pop\n        /* \"contracts/supplier.sol\":3548:3562  stackInterface */\n      sload(0x03)\n        /* \"contracts/supplier.sol\":3548:3585  stackInterface.getStackOf(msg.sender) */\n      mload(0x40)\n      shl(0xe1, 0x24351817)\n      dup2\n      mstore\n        /* \"contracts/supplier.sol\":3574:3584  msg.sender */\n      caller\n        /* \"contracts/supplier.sol\":3548:3585  stackInterface.getStackOf(msg.sender) */\n      0x04\n      dup3\n      add\n        /* \"#utility.yul\":3206:3257   */\n      mstore\n        /* \"contracts/supplier.sol\":3460:3515  (uint256 minBrandStack, ) = daoInterface.getStackInfo() */\n      swap2\n      swap3\n      pop\n      dup3\n      swap2\n      sub(shl(0xa0, 0x01), 0x01)\n        /* \"contracts/supplier.sol\":3548:3562  stackInterface */\n      swap1\n      swap2\n      and\n      swap1\n        /* \"contracts/supplier.sol\":3548:3573  stackInterface.getStackOf */\n      0x486a302e\n      swap1\n        /* \"#utility.yul\":3179:3197   */\n      0x24\n      add\n        /* \"contracts/supplier.sol\":3548:3585  stackInterface.getStackOf(msg.sender) */\n      0x20\n      mload(0x40)\n      dup1\n      dup4\n      sub\n      dup2\n      dup7\n      gas\n      staticcall\n      iszero\n      dup1\n      iszero\n      tag_215\n      jumpi\n      returndatacopy(0x00, 0x00, returndatasize)\n      revert(0x00, returndatasize)\n    tag_215:\n      pop\n      pop\n      pop\n      pop\n      mload(0x40)\n      returndatasize\n      not(0x1f)\n      0x1f\n      dup3\n      add\n      and\n      dup3\n      add\n      dup1\n      0x40\n      mstore\n      pop\n      dup2\n      add\n      swap1\n      tag_216\n      swap2\n      swap1\n      tag_217\n      jump\t// in\n    tag_216:\n        /* \"contracts/supplier.sol\":3548:3602  stackInterface.getStackOf(msg.sender) >= minBrandStack */\n      lt\n      iszero\n        /* \"contracts/supplier.sol\":3526:3648  require(... */\n      tag_218\n      jumpi\n      mload(0x40)\n      shl(0xe5, 0x461bcd)\n      dup2\n      mstore\n        /* \"#utility.yul\":7086:7088   */\n      0x20\n        /* \"contracts/supplier.sol\":3526:3648  require(... */\n      0x04\n      dup3\n      add\n        /* \"#utility.yul\":7068:7089   */\n      mstore\n        /* \"#utility.yul\":7125:7127   */\n      0x12\n        /* \"#utility.yul\":7105:7123   */\n      0x24\n      dup3\n      add\n        /* \"#utility.yul\":7098:7128   */\n      mstore\n      shl(0x70, 0x496e73756666696369656e7420737461636b)\n        /* \"#utility.yul\":7144:7162   */\n      0x44\n      dup3\n      add\n        /* \"#utility.yul\":7137:7185   */\n      mstore\n        /* \"#utility.yul\":7202:7220   */\n      0x64\n      add\n        /* \"contracts/supplier.sol\":3526:3648  require(... */\n      tag_153\n        /* \"#utility.yul\":6884:7226   */\n      jump\n        /* \"contracts/supplier.sol\":3526:3648  require(... */\n    tag_218:\n        /* \"contracts/supplier.sol\":3661:3685  brandCounter.increment() */\n      tag_221\n        /* \"contracts/supplier.sol\":3661:3673  brandCounter */\n      0x06\n        /* \"@openzeppelin/contracts/utils/Counters.sol\":1032:1051  counter._value += 1 */\n      dup1\n      sload\n        /* \"@openzeppelin/contracts/utils/Counters.sol\":1050:1051  1 */\n      0x01\n        /* \"@openzeppelin/contracts/utils/Counters.sol\":1032:1051  counter._value += 1 */\n      add\n      swap1\n      sstore\n        /* \"@openzeppelin/contracts/utils/Counters.sol\":945:1068  function increment(Counter storage counter) internal {... */\n      jump\n        /* \"contracts/supplier.sol\":3661:3685  brandCounter.increment() */\n    tag_221:\n        /* \"contracts/supplier.sol\":3730:3740  msg.sender */\n      caller\n        /* \"contracts/supplier.sol\":3696:3703  _brands */\n      0x04\n        /* \"contracts/supplier.sol\":3696:3727  _brands[brandCounter.current()] */\n      0x00\n        /* \"contracts/supplier.sol\":3704:3726  brandCounter.current() */\n      tag_222\n        /* \"contracts/supplier.sol\":3704:3716  brandCounter */\n      0x06\n        /* \"@openzeppelin/contracts/utils/Counters.sol\":918:932  counter._value */\n      sload\n      swap1\n        /* \"@openzeppelin/contracts/utils/Counters.sol\":827:939  function current(Counter storage counter) internal view returns (uint256) {... */\n      jump\n        /* \"contracts/supplier.sol\":3704:3726  brandCounter.current() */\n    tag_222:\n        /* \"contracts/supplier.sol\":3696:3727  _brands[brandCounter.current()] */\n      dup2\n      mstore\n      0x20\n      dup2\n      add\n      swap2\n      swap1\n      swap2\n      mstore\n      0x40\n      add\n      0x00\n      keccak256\n        /* \"contracts/supplier.sol\":3696:3740  _brands[brandCounter.current()] = msg.sender */\n      dup1\n      sload\n      not(sub(shl(0xa0, 0x01), 0x01))\n      and\n      sub(shl(0xa0, 0x01), 0x01)\n      swap3\n      swap1\n      swap3\n      and\n      swap2\n      swap1\n      swap2\n      or\n      swap1\n      sstore\n        /* \"contracts/supplier.sol\":3775:3787  brandCounter */\n      0x06\n        /* \"@openzeppelin/contracts/utils/Counters.sol\":918:932  counter._value */\n      sload\n        /* \"contracts/supplier.sol\":3761:3771  msg.sender */\n      caller\n        /* \"contracts/supplier.sol\":3751:3772  _brandIds[msg.sender] */\n      0x00\n      dup2\n      dup2\n      mstore\n        /* \"contracts/supplier.sol\":3751:3760  _brandIds */\n      0x05\n        /* \"contracts/supplier.sol\":3751:3772  _brandIds[msg.sender] */\n      0x20\n      swap1\n      dup2\n      mstore\n      0x40\n      swap2\n      dup3\n      swap1\n      keccak256\n        /* \"contracts/supplier.sol\":3751:3797  _brandIds[msg.sender] = brandCounter.current() */\n      swap4\n      swap1\n      swap4\n      sstore\n        /* \"contracts/supplier.sol\":3813:3840  BrandRegistered(msg.sender) */\n      mload\n        /* \"#utility.yul\":3206:3257   */\n      swap1\n      dup2\n      mstore\n        /* \"contracts/supplier.sol\":3813:3840  BrandRegistered(msg.sender) */\n      0x02de07d8aeac43a97fdb9b5d3487e8a1f295211cacd4e1c4c2cc917ba3d19cd2\n      swap2\n        /* \"#utility.yul\":3179:3197   */\n      add\n        /* \"contracts/supplier.sol\":3813:3840  BrandRegistered(msg.sender) */\n      mload(0x40)\n      dup1\n      swap2\n      sub\n      swap1\n      log1\n        /* \"contracts/supplier.sol\":3381:3848  {... */\n      pop\n        /* \"contracts/supplier.sol\":3349:3848  function brandRegister() public {... */\n      jump\t// out\n        /* \"contracts/supplier.sol\":4140:4536  function unVerifyBrand(address brandAddress) public onlyReviewer {... */\n    tag_63:\n        /* \"contracts/supplier.sol\":3226:3238  daoInterface */\n      sload(0x02)\n        /* \"contracts/supplier.sol\":3226:3261  daoInterface.isReviewer(msg.sender) */\n      mload(0x40)\n      shl(0xe1, 0x7ee312c5)\n      dup2\n      mstore\n        /* \"contracts/supplier.sol\":3250:3260  msg.sender */\n      caller\n        /* \"contracts/supplier.sol\":3226:3261  daoInterface.isReviewer(msg.sender) */\n      0x04\n      dup3\n      add\n        /* \"#utility.yul\":3206:3257   */\n      mstore\n      sub(shl(0xa0, 0x01), 0x01)\n        /* \"contracts/supplier.sol\":3226:3238  daoInterface */\n      swap1\n      swap2\n      and\n      swap1\n        /* \"contracts/supplier.sol\":3226:3249  daoInterface.isReviewer */\n      0xfdc6258a\n      swap1\n        /* \"#utility.yul\":3179:3197   */\n      0x24\n      add\n        /* \"contracts/supplier.sol\":3226:3261  daoInterface.isReviewer(msg.sender) */\n      0x20\n      mload(0x40)\n      dup1\n      dup4\n      sub\n      dup2\n      dup7\n      gas\n      staticcall\n      iszero\n      dup1\n      iszero\n      tag_228\n      jumpi\n      returndatacopy(0x00, 0x00, returndatasize)\n      revert(0x00, returndatasize)\n    tag_228:\n      pop\n      pop\n      pop\n      pop\n      mload(0x40)\n      returndatasize\n      not(0x1f)\n      0x1f\n      dup3\n      add\n      and\n      dup3\n      add\n      dup1\n      0x40\n      mstore\n      pop\n      dup2\n      add\n      swap1\n      tag_229\n      swap2\n      swap1\n      tag_230\n      jump\t// in\n    tag_229:\n        /* \"contracts/supplier.sol\":3218:3287  require(daoInterface.isReviewer(msg.sender), \"Only reviewer allowed\") */\n      tag_231\n      jumpi\n      mload(0x40)\n      shl(0xe5, 0x461bcd)\n      dup2\n      mstore\n        /* \"#utility.yul\":7715:7717   */\n      0x20\n        /* \"contracts/supplier.sol\":3218:3287  require(daoInterface.isReviewer(msg.sender), \"Only reviewer allowed\") */\n      0x04\n      dup3\n      add\n        /* \"#utility.yul\":7697:7718   */\n      mstore\n        /* \"#utility.yul\":7754:7756   */\n      0x15\n        /* \"#utility.yul\":7734:7752   */\n      0x24\n      dup3\n      add\n        /* \"#utility.yul\":7727:7757   */\n      mstore\n      shl(0x5a, 0x13db9b1e481c995d9a595dd95c88185b1b1bddd959)\n        /* \"#utility.yul\":7773:7791   */\n      0x44\n      dup3\n      add\n        /* \"#utility.yul\":7766:7817   */\n      mstore\n        /* \"#utility.yul\":7834:7852   */\n      0x64\n      add\n        /* \"contracts/supplier.sol\":3218:3287  require(daoInterface.isReviewer(msg.sender), \"Only reviewer allowed\") */\n      tag_153\n        /* \"#utility.yul\":7513:7858   */\n      jump\n        /* \"contracts/supplier.sol\":3218:3287  require(daoInterface.isReviewer(msg.sender), \"Only reviewer allowed\") */\n    tag_231:\n        /* \"contracts/supplier.sol\":4235:4247  daoInterface */\n      sload(0x02)\n        /* \"contracts/supplier.sol\":4235:4258  daoInterface.operator() */\n      0x40\n      dup1\n      mload\n      shl(0xe0, 0x570ca735)\n      dup2\n      mstore\n      swap1\n      mload\n        /* \"contracts/supplier.sol\":4216:4232  address operator */\n      0x00\n      swap3\n      sub(shl(0xa0, 0x01), 0x01)\n        /* \"contracts/supplier.sol\":4235:4247  daoInterface */\n      and\n      swap2\n        /* \"contracts/supplier.sol\":4235:4256  daoInterface.operator */\n      0x570ca735\n      swap2\n        /* \"contracts/supplier.sol\":4235:4258  daoInterface.operator() */\n      0x04\n      dup1\n      dup4\n      add\n      swap3\n      0x20\n      swap3\n      swap2\n      swap1\n      dup3\n      swap1\n      sub\n      add\n      dup2\n        /* \"contracts/supplier.sol\":4235:4247  daoInterface */\n      dup7\n        /* \"contracts/supplier.sol\":4235:4258  daoInterface.operator() */\n      gas\n      staticcall\n      iszero\n      dup1\n      iszero\n      tag_236\n      jumpi\n      returndatacopy(0x00, 0x00, returndatasize)\n      revert(0x00, returndatasize)\n    tag_236:\n      pop\n      pop\n      pop\n      pop\n      mload(0x40)\n      returndatasize\n      not(0x1f)\n      0x1f\n      dup3\n      add\n      and\n      dup3\n      add\n      dup1\n      0x40\n      mstore\n      pop\n      dup2\n      add\n      swap1\n      tag_237\n      swap2\n      swap1\n      tag_238\n      jump\t// in\n    tag_237:\n      sub(shl(0xa0, 0x01), 0x01)\n        /* \"contracts/supplier.sol\":4291:4314  _verifier[brandAddress] */\n      dup4\n      dup2\n      and\n      0x00\n      swap1\n      dup2\n      mstore\n        /* \"contracts/supplier.sol\":4291:4300  _verifier */\n      0x08\n        /* \"contracts/supplier.sol\":4291:4314  _verifier[brandAddress] */\n      0x20\n      mstore\n      0x40\n      swap1\n      keccak256\n      sload\n        /* \"contracts/supplier.sol\":4216:4258  address operator = daoInterface.operator() */\n      swap2\n      swap3\n      pop\n        /* \"contracts/supplier.sol\":4291:4314  _verifier[brandAddress] */\n      and\n        /* \"contracts/supplier.sol\":4318:4328  msg.sender */\n      caller\n        /* \"contracts/supplier.sol\":4291:4328  _verifier[brandAddress] == msg.sender */\n      eq\n      dup1\n        /* \"contracts/supplier.sol\":4291:4354  _verifier[brandAddress] == msg.sender || operator == msg.sender */\n      tag_239\n      jumpi\n      pop\n      sub(shl(0xa0, 0x01), 0x01)\n        /* \"contracts/supplier.sol\":4332:4354  operator == msg.sender */\n      dup2\n      and\n        /* \"contracts/supplier.sol\":4344:4354  msg.sender */\n      caller\n        /* \"contracts/supplier.sol\":4332:4354  operator == msg.sender */\n      eq\n        /* \"contracts/supplier.sol\":4291:4354  _verifier[brandAddress] == msg.sender || operator == msg.sender */\n    tag_239:\n        /* \"contracts/supplier.sol\":4269:4398  require(... */\n      tag_240\n      jumpi\n      mload(0x40)\n      shl(0xe5, 0x461bcd)\n      dup2\n      mstore\n        /* \"#utility.yul\":8321:8323   */\n      0x20\n        /* \"contracts/supplier.sol\":4269:4398  require(... */\n      0x04\n      dup3\n      add\n        /* \"#utility.yul\":8303:8324   */\n      mstore\n        /* \"#utility.yul\":8360:8362   */\n      0x10\n        /* \"#utility.yul\":8340:8358   */\n      0x24\n      dup3\n      add\n        /* \"#utility.yul\":8333:8363   */\n      mstore\n      shl(0x81, 0x24b73b30b634b2103b32b934b334b2b9)\n        /* \"#utility.yul\":8379:8397   */\n      0x44\n      dup3\n      add\n        /* \"#utility.yul\":8372:8418   */\n      mstore\n        /* \"#utility.yul\":8435:8453   */\n      0x64\n      add\n        /* \"contracts/supplier.sol\":4269:4398  require(... */\n      tag_153\n        /* \"#utility.yul\":8119:8459   */\n      jump\n        /* \"contracts/supplier.sol\":4269:4398  require(... */\n    tag_240:\n      sub(shl(0xa0, 0x01), 0x01)\n        /* \"contracts/supplier.sol\":4409:4434  _isVerified[brandAddress] */\n      dup3\n      and\n        /* \"contracts/supplier.sol\":4437:4442  false */\n      0x00\n        /* \"contracts/supplier.sol\":4409:4434  _isVerified[brandAddress] */\n      dup2\n      dup2\n      mstore\n        /* \"contracts/supplier.sol\":4409:4420  _isVerified */\n      0x07\n        /* \"contracts/supplier.sol\":4409:4434  _isVerified[brandAddress] */\n      0x20\n      swap1\n      dup2\n      mstore\n      0x40\n      dup1\n      dup4\n      keccak256\n        /* \"contracts/supplier.sol\":4409:4442  _isVerified[brandAddress] = false */\n      dup1\n      sload\n      not(0xff)\n      and\n      swap1\n      sstore\n        /* \"contracts/supplier.sol\":4460:4469  _verifier */\n      0x08\n        /* \"contracts/supplier.sol\":4460:4483  _verifier[brandAddress] */\n      swap1\n      swap2\n      mstore\n      dup1\n      dup3\n      keccak256\n        /* \"contracts/supplier.sol\":4453:4483  delete _verifier[brandAddress] */\n      dup1\n      sload\n      not(sub(shl(0xa0, 0x01), 0x01))\n      and\n      swap1\n      sstore\n        /* \"contracts/supplier.sol\":4499:4528  BrandUnVerified(brandAddress) */\n      mload\n      0xa4099d5ee8509055e59f9f724d33f27f8d2da9294e7d7c23a2cc37dd1af4254c\n      swap2\n        /* \"contracts/supplier.sol\":4437:4442  false */\n      swap1\n        /* \"contracts/supplier.sol\":4499:4528  BrandUnVerified(brandAddress) */\n      log2\n        /* \"contracts/supplier.sol\":4205:4536  {... */\n      pop\n        /* \"contracts/supplier.sol\":4140:4536  function unVerifyBrand(address brandAddress) public onlyReviewer {... */\n      pop\n      jump\t// out\n        /* \"contracts/supplier.sol\":13648:14015  function getPartnerRequestBatch(... */\n    tag_67:\n        /* \"contracts/supplier.sol\":13776:13792  address[] memory */\n      0x60\n        /* \"contracts/supplier.sol\":13805:13826  address[] memory list */\n      0x00\n        /* \"contracts/supplier.sol\":13843:13850  indexes */\n      dup3\n        /* \"contracts/supplier.sol\":13829:13858  new address[](indexes.length) */\n      0xffffffffffffffff\n      dup2\n      gt\n      iszero\n      tag_245\n      jumpi\n      tag_245\n      tag_195\n      jump\t// in\n    tag_245:\n      mload(0x40)\n      swap1\n      dup1\n      dup3\n      mstore\n      dup1\n      0x20\n      mul\n      0x20\n      add\n      dup3\n      add\n      0x40\n      mstore\n      dup1\n      iszero\n      tag_246\n      jumpi\n      dup2\n      0x20\n      add\n      0x20\n      dup3\n      mul\n      dup1\n      calldatasize\n      dup4\n      calldatacopy\n      add\n      swap1\n      pop\n    tag_246:\n      pop\n        /* \"contracts/supplier.sol\":13805:13858  address[] memory list = new address[](indexes.length) */\n      swap1\n      pop\n        /* \"contracts/supplier.sol\":13874:13880  uint i */\n      0x00\n        /* \"contracts/supplier.sol\":13869:13986  for (uint i = 0; i < indexes.length; i++) {... */\n    tag_247:\n        /* \"contracts/supplier.sol\":13886:13904  i < indexes.length */\n      dup4\n      dup2\n      lt\n        /* \"contracts/supplier.sol\":13869:13986  for (uint i = 0; i < indexes.length; i++) {... */\n      iszero\n      tag_198\n      jumpi\n      sub(shl(0xa0, 0x01), 0x01)\n        /* \"contracts/supplier.sol\":13936:13962  _requestList[brandAddress] */\n      dup7\n      and\n      0x00\n      swap1\n      dup2\n      mstore\n        /* \"contracts/supplier.sol\":13936:13948  _requestList */\n      0x0c\n        /* \"contracts/supplier.sol\":13936:13962  _requestList[brandAddress] */\n      0x20\n      mstore\n      0x40\n      dup2\n      keccak256\n      swap1\n        /* \"contracts/supplier.sol\":13963:13970  indexes */\n      dup7\n      dup7\n        /* \"contracts/supplier.sol\":13971:13972  i */\n      dup5\n        /* \"contracts/supplier.sol\":13963:13973  indexes[i] */\n      dup2\n      dup2\n      lt\n      tag_251\n      jumpi\n      tag_251\n      tag_202\n      jump\t// in\n    tag_251:\n      swap1\n      pop\n      0x20\n      mul\n      add\n      calldataload\n        /* \"contracts/supplier.sol\":13936:13974  _requestList[brandAddress][indexes[i]] */\n      dup2\n      mstore\n      0x20\n      add\n      swap1\n      dup2\n      mstore\n      0x20\n      add\n      0x00\n      keccak256\n      0x00\n      swap1\n      sload\n      swap1\n      0x0100\n      exp\n      swap1\n      div\n      sub(shl(0xa0, 0x01), 0x01)\n      and\n        /* \"contracts/supplier.sol\":13926:13930  list */\n      dup3\n        /* \"contracts/supplier.sol\":13931:13932  i */\n      dup3\n        /* \"contracts/supplier.sol\":13926:13933  list[i] */\n      dup2\n      mload\n      dup2\n      lt\n      tag_253\n      jumpi\n      tag_253\n      tag_202\n      jump\t// in\n    tag_253:\n      sub(shl(0xa0, 0x01), 0x01)\n        /* \"contracts/supplier.sol\":13926:13974  list[i] = _requestList[brandAddress][indexes[i]] */\n      swap1\n      swap3\n      and\n        /* \"contracts/supplier.sol\":13926:13933  list[i] */\n      0x20\n      swap3\n      dup4\n      mul\n      swap2\n      swap1\n      swap2\n      add\n      swap1\n      swap2\n      add\n        /* \"contracts/supplier.sol\":13926:13974  list[i] = _requestList[brandAddress][indexes[i]] */\n      mstore\n        /* \"contracts/supplier.sol\":13906:13909  i++ */\n      0x01\n      add\n        /* \"contracts/supplier.sol\":13869:13986  for (uint i = 0; i < indexes.length; i++) {... */\n      jump(tag_247)\n        /* \"contracts/supplier.sol\":12730:13069  function isPartner(... */\n    tag_78:\n        /* \"contracts/supplier.sol\":12839:12843  bool */\n      0x00\n        /* \"contracts/supplier.sol\":12951:12963  agentAddress */\n      dup2\n      sub(shl(0xa0, 0x01), 0x01)\n        /* \"contracts/supplier.sol\":12935:12963  brandAddress == agentAddress */\n      and\n        /* \"contracts/supplier.sol\":12935:12947  brandAddress */\n      dup4\n      sub(shl(0xa0, 0x01), 0x01)\n        /* \"contracts/supplier.sol\":12935:12963  brandAddress == agentAddress */\n      and\n      eq\n        /* \"contracts/supplier.sol\":12935:13061  brandAddress == agentAddress ||... */\n      dup1\n      tag_256\n      jumpi\n      pop\n        /* \"contracts/supplier.sol\":13039:13061  PartnerStatus.Approved */\n      0x02\n      sub(shl(0xa0, 0x01), 0x01)\n        /* \"contracts/supplier.sol\":12980:13008  _partnerStatus[brandAddress] */\n      dup1\n      dup6\n      and\n      0x00\n      swap1\n      dup2\n      mstore\n        /* \"contracts/supplier.sol\":12980:12994  _partnerStatus */\n      0x15\n        /* \"contracts/supplier.sol\":12980:13008  _partnerStatus[brandAddress] */\n      0x20\n      swap1\n      dup2\n      mstore\n      0x40\n      dup1\n      dup4\n      keccak256\n        /* \"contracts/supplier.sol\":12980:13022  _partnerStatus[brandAddress][agentAddress] */\n      swap4\n      dup8\n      and\n      dup4\n      mstore\n      swap3\n      swap1\n      mstore\n      keccak256\n      sload\n      0xff\n      and\n        /* \"contracts/supplier.sol\":12980:13061  _partnerStatus[brandAddress][agentAddress] ==... */\n      0x03\n      dup2\n      gt\n      iszero\n      tag_260\n      jumpi\n      tag_260\n      tag_144\n      jump\t// in\n    tag_260:\n      eq\n        /* \"contracts/supplier.sol\":12935:13061  brandAddress == agentAddress ||... */\n    tag_256:\n        /* \"contracts/supplier.sol\":12915:13061  return... */\n      swap4\n        /* \"contracts/supplier.sol\":12730:13069  function isPartner(... */\n      swap3\n      pop\n      pop\n      pop\n      jump\t// out\n        /* \"contracts/supplier.sol\":12355:12512  function getRejectCount(... */\n    tag_83:\n      sub(shl(0xa0, 0x01), 0x01)\n        /* \"contracts/supplier.sol\":12465:12494  _rejectCounters[brandAddress] */\n      dup2\n      and\n        /* \"contracts/supplier.sol\":12438:12445  uint256 */\n      0x00\n        /* \"contracts/supplier.sol\":12465:12494  _rejectCounters[brandAddress] */\n      swap1\n      dup2\n      mstore\n        /* \"contracts/supplier.sol\":12465:12480  _rejectCounters */\n      0x11\n        /* \"contracts/supplier.sol\":12465:12494  _rejectCounters[brandAddress] */\n      0x20\n      mstore\n      0x40\n      dup2\n      keccak256\n        /* \"@openzeppelin/contracts/utils/Counters.sol\":918:932  counter._value */\n      sload\n        /* \"contracts/supplier.sol\":12465:12504  _rejectCounters[brandAddress].current() */\n    tag_262:\n        /* \"contracts/supplier.sol\":12458:12504  return _rejectCounters[brandAddress].current() */\n      swap3\n        /* \"contracts/supplier.sol\":12355:12512  function getRejectCount(... */\n      swap2\n      pop\n      pop\n      jump\t// out\n        /* \"contracts/supplier.sol\":13284:13640  function getPartnerBatch(... */\n    tag_94:\n        /* \"contracts/supplier.sol\":13405:13421  address[] memory */\n      0x60\n        /* \"contracts/supplier.sol\":13434:13455  address[] memory list */\n      0x00\n        /* \"contracts/supplier.sol\":13472:13479  indexes */\n      dup3\n        /* \"contracts/supplier.sol\":13458:13487  new address[](indexes.length) */\n      0xffffffffffffffff\n      dup2\n      gt\n      iszero\n      tag_266\n      jumpi\n      tag_266\n      tag_195\n      jump\t// in\n    tag_266:\n      mload(0x40)\n      swap1\n      dup1\n      dup3\n      mstore\n      dup1\n      0x20\n      mul\n      0x20\n      add\n      dup3\n      add\n      0x40\n      mstore\n      dup1\n      iszero\n      tag_267\n      jumpi\n      dup2\n      0x20\n      add\n      0x20\n      dup3\n      mul\n      dup1\n      calldatasize\n      dup4\n      calldatacopy\n      add\n      swap1\n      pop\n    tag_267:\n      pop\n        /* \"contracts/supplier.sol\":13434:13487  address[] memory list = new address[](indexes.length) */\n      swap1\n      pop\n        /* \"contracts/supplier.sol\":13503:13509  uint i */\n      0x00\n        /* \"contracts/supplier.sol\":13498:13611  for (uint i = 0; i < indexes.length; i++) {... */\n    tag_268:\n        /* \"contracts/supplier.sol\":13515:13533  i < indexes.length */\n      dup4\n      dup2\n      lt\n        /* \"contracts/supplier.sol\":13498:13611  for (uint i = 0; i < indexes.length; i++) {... */\n      iszero\n      tag_198\n      jumpi\n      sub(shl(0xa0, 0x01), 0x01)\n        /* \"contracts/supplier.sol\":13564:13587  _partners[brandAddress] */\n      dup7\n      and\n      0x00\n      swap1\n      dup2\n      mstore\n        /* \"contracts/supplier.sol\":13564:13573  _partners */\n      0x09\n        /* \"contracts/supplier.sol\":13564:13587  _partners[brandAddress] */\n      0x20\n      mstore\n      0x40\n      dup2\n      keccak256\n      swap1\n        /* \"contracts/supplier.sol\":13588:13595  indexes */\n      dup7\n      dup7\n        /* \"contracts/supplier.sol\":13596:13597  i */\n      dup5\n        /* \"contracts/supplier.sol\":13588:13598  indexes[i] */\n      dup2\n      dup2\n      lt\n      tag_272\n      jumpi\n      tag_272\n      tag_202\n      jump\t// in\n    tag_272:\n      swap1\n      pop\n      0x20\n      mul\n      add\n      calldataload\n        /* \"contracts/supplier.sol\":13564:13599  _partners[brandAddress][indexes[i]] */\n      dup2\n      mstore\n      0x20\n      add\n      swap1\n      dup2\n      mstore\n      0x20\n      add\n      0x00\n      keccak256\n      0x00\n      swap1\n      sload\n      swap1\n      0x0100\n      exp\n      swap1\n      div\n      sub(shl(0xa0, 0x01), 0x01)\n      and\n        /* \"contracts/supplier.sol\":13555:13559  list */\n      dup3\n        /* \"contracts/supplier.sol\":13560:13561  i */\n      dup3\n        /* \"contracts/supplier.sol\":13555:13562  list[i] */\n      dup2\n      mload\n      dup2\n      lt\n      tag_274\n      jumpi\n      tag_274\n      tag_202\n      jump\t// in\n    tag_274:\n      sub(shl(0xa0, 0x01), 0x01)\n        /* \"contracts/supplier.sol\":13555:13599  list[i] =_partners[brandAddress][indexes[i]] */\n      swap1\n      swap3\n      and\n        /* \"contracts/supplier.sol\":13555:13562  list[i] */\n      0x20\n      swap3\n      dup4\n      mul\n      swap2\n      swap1\n      swap2\n      add\n      swap1\n      swap2\n      add\n        /* \"contracts/supplier.sol\":13555:13599  list[i] =_partners[brandAddress][indexes[i]] */\n      mstore\n        /* \"contracts/supplier.sol\":13535:13538  i++ */\n      0x01\n      add\n        /* \"contracts/supplier.sol\":13498:13611  for (uint i = 0; i < indexes.length; i++) {... */\n      jump(tag_268)\n        /* \"contracts/supplier.sol\":14023:14381  function getRejectBatch(... */\n    tag_99:\n        /* \"contracts/supplier.sol\":14143:14159  address[] memory */\n      0x60\n        /* \"contracts/supplier.sol\":14172:14193  address[] memory list */\n      0x00\n        /* \"contracts/supplier.sol\":14210:14217  indexes */\n      dup3\n        /* \"contracts/supplier.sol\":14196:14225  new address[](indexes.length) */\n      0xffffffffffffffff\n      dup2\n      gt\n      iszero\n      tag_277\n      jumpi\n      tag_277\n      tag_195\n      jump\t// in\n    tag_277:\n      mload(0x40)\n      swap1\n      dup1\n      dup3\n      mstore\n      dup1\n      0x20\n      mul\n      0x20\n      add\n      dup3\n      add\n      0x40\n      mstore\n      dup1\n      iszero\n      tag_278\n      jumpi\n      dup2\n      0x20\n      add\n      0x20\n      dup3\n      mul\n      dup1\n      calldatasize\n      dup4\n      calldatacopy\n      add\n      swap1\n      pop\n    tag_278:\n      pop\n        /* \"contracts/supplier.sol\":14172:14225  address[] memory list = new address[](indexes.length) */\n      swap1\n      pop\n        /* \"contracts/supplier.sol\":14241:14247  uint i */\n      0x00\n        /* \"contracts/supplier.sol\":14236:14352  for (uint i = 0; i < indexes.length; i++) {... */\n    tag_279:\n        /* \"contracts/supplier.sol\":14253:14271  i < indexes.length */\n      dup4\n      dup2\n      lt\n        /* \"contracts/supplier.sol\":14236:14352  for (uint i = 0; i < indexes.length; i++) {... */\n      iszero\n      tag_198\n      jumpi\n      sub(shl(0xa0, 0x01), 0x01)\n        /* \"contracts/supplier.sol\":14303:14328  _rejectList[brandAddress] */\n      dup7\n      and\n      0x00\n      swap1\n      dup2\n      mstore\n        /* \"contracts/supplier.sol\":14303:14314  _rejectList */\n      0x0f\n        /* \"contracts/supplier.sol\":14303:14328  _rejectList[brandAddress] */\n      0x20\n      mstore\n      0x40\n      dup2\n      keccak256\n      swap1\n        /* \"contracts/supplier.sol\":14329:14336  indexes */\n      dup7\n      dup7\n        /* \"contracts/supplier.sol\":14337:14338  i */\n      dup5\n        /* \"contracts/supplier.sol\":14329:14339  indexes[i] */\n      dup2\n      dup2\n      lt\n      tag_283\n      jumpi\n      tag_283\n      tag_202\n      jump\t// in\n    tag_283:\n      swap1\n      pop\n      0x20\n      mul\n      add\n      calldataload\n        /* \"contracts/supplier.sol\":14303:14340  _rejectList[brandAddress][indexes[i]] */\n      dup2\n      mstore\n      0x20\n      add\n      swap1\n      dup2\n      mstore\n      0x20\n      add\n      0x00\n      keccak256\n      0x00\n      swap1\n      sload\n      swap1\n      0x0100\n      exp\n      swap1\n      div\n      sub(shl(0xa0, 0x01), 0x01)\n      and\n        /* \"contracts/supplier.sol\":14293:14297  list */\n      dup3\n        /* \"contracts/supplier.sol\":14298:14299  i */\n      dup3\n        /* \"contracts/supplier.sol\":14293:14300  list[i] */\n      dup2\n      mload\n      dup2\n      lt\n      tag_285\n      jumpi\n      tag_285\n      tag_202\n      jump\t// in\n    tag_285:\n      sub(shl(0xa0, 0x01), 0x01)\n        /* \"contracts/supplier.sol\":14293:14340  list[i] = _rejectList[brandAddress][indexes[i]] */\n      swap1\n      swap3\n      and\n        /* \"contracts/supplier.sol\":14293:14300  list[i] */\n      0x20\n      swap3\n      dup4\n      mul\n      swap2\n      swap1\n      swap2\n      add\n      swap1\n      swap2\n      add\n        /* \"contracts/supplier.sol\":14293:14340  list[i] = _rejectList[brandAddress][indexes[i]] */\n      mstore\n        /* \"contracts/supplier.sol\":14273:14276  i++ */\n      0x01\n      add\n        /* \"contracts/supplier.sol\":14236:14352  for (uint i = 0; i < indexes.length; i++) {... */\n      jump(tag_279)\n        /* \"contracts/supplier.sol\":7862:9185  function approvePartner(address agentAddress) public payable nonReentrant {... */\n    tag_103:\n        /* \"@openzeppelin/contracts/security/ReentrancyGuard.sol\":2261:2282  _nonReentrantBefore() */\n      tag_287\n        /* \"@openzeppelin/contracts/security/ReentrancyGuard.sol\":2261:2280  _nonReentrantBefore */\n      tag_288\n        /* \"@openzeppelin/contracts/security/ReentrancyGuard.sol\":2261:2282  _nonReentrantBefore() */\n      jump\t// in\n    tag_287:\n        /* \"contracts/supplier.sol\":7970:7980  msg.sender */\n      caller\n        /* \"contracts/supplier.sol\":7947:7967  address brandAddress */\n      0x00\n        /* \"contracts/supplier.sol\":7999:8024  _isVerified[brandAddress] */\n      dup2\n      dup2\n      mstore\n        /* \"contracts/supplier.sol\":7999:8010  _isVerified */\n      0x07\n        /* \"contracts/supplier.sol\":7999:8024  _isVerified[brandAddress] */\n      0x20\n      mstore\n      0x40\n      swap1\n      keccak256\n      sload\n      0xff\n      and\n        /* \"contracts/supplier.sol\":7991:8049  require(_isVerified[brandAddress], \"Only verified brands\") */\n      tag_290\n      jumpi\n      mload(0x40)\n      shl(0xe5, 0x461bcd)\n      dup2\n      mstore\n        /* \"#utility.yul\":8666:8668   */\n      0x20\n        /* \"contracts/supplier.sol\":7991:8049  require(_isVerified[brandAddress], \"Only verified brands\") */\n      0x04\n      dup3\n      add\n        /* \"#utility.yul\":8648:8669   */\n      mstore\n        /* \"#utility.yul\":8705:8707   */\n      0x14\n        /* \"#utility.yul\":8685:8703   */\n      0x24\n      dup3\n      add\n        /* \"#utility.yul\":8678:8708   */\n      mstore\n      shl(0x60, 0x4f6e6c79207665726966696564206272616e6473)\n        /* \"#utility.yul\":8724:8742   */\n      0x44\n      dup3\n      add\n        /* \"#utility.yul\":8717:8767   */\n      mstore\n        /* \"#utility.yul\":8784:8802   */\n      0x64\n      add\n        /* \"contracts/supplier.sol\":7991:8049  require(_isVerified[brandAddress], \"Only verified brands\") */\n      tag_153\n        /* \"#utility.yul\":8464:8808   */\n      jump\n        /* \"contracts/supplier.sol\":7991:8049  require(_isVerified[brandAddress], \"Only verified brands\") */\n    tag_290:\n      sub(shl(0xa0, 0x01), 0x01)\n        /* \"contracts/supplier.sol\":8085:8113  _partnerStatus[brandAddress] */\n      dup1\n      dup3\n      and\n        /* \"contracts/supplier.sol\":8062:8082  PartnerStatus status */\n      0x00\n        /* \"contracts/supplier.sol\":8085:8113  _partnerStatus[brandAddress] */\n      swap1\n      dup2\n      mstore\n        /* \"contracts/supplier.sol\":8085:8099  _partnerStatus */\n      0x15\n        /* \"contracts/supplier.sol\":8085:8113  _partnerStatus[brandAddress] */\n      0x20\n      swap1\n      dup2\n      mstore\n      0x40\n      dup1\n      dup4\n      keccak256\n        /* \"contracts/supplier.sol\":8085:8127  _partnerStatus[brandAddress][agentAddress] */\n      swap4\n      dup7\n      and\n      dup4\n      mstore\n      swap3\n      swap1\n      mstore\n      keccak256\n      sload\n      0xff\n      and\n      0x01\n        /* \"contracts/supplier.sol\":8160:8166  status */\n      dup2\n        /* \"contracts/supplier.sol\":8160:8191  status == PartnerStatus.Pending */\n      0x03\n      dup2\n      gt\n      iszero\n      tag_296\n      jumpi\n      tag_296\n      tag_144\n      jump\t// in\n    tag_296:\n      eq\n        /* \"contracts/supplier.sol\":8160:8227  status == PartnerStatus.Pending || status == PartnerStatus.Rejected */\n      dup1\n      tag_297\n      jumpi\n      pop\n        /* \"contracts/supplier.sol\":8205:8227  PartnerStatus.Rejected */\n      0x03\n        /* \"contracts/supplier.sol\":8195:8201  status */\n      dup2\n        /* \"contracts/supplier.sol\":8195:8227  status == PartnerStatus.Rejected */\n      0x03\n      dup2\n      gt\n      iszero\n      tag_301\n      jumpi\n      tag_301\n      tag_144\n      jump\t// in\n    tag_301:\n      eq\n        /* \"contracts/supplier.sol\":8160:8227  status == PartnerStatus.Pending || status == PartnerStatus.Rejected */\n    tag_297:\n        /* \"contracts/supplier.sol\":8138:8276  require(... */\n      tag_302\n      jumpi\n      mload(0x40)\n      shl(0xe5, 0x461bcd)\n      dup2\n      mstore\n        /* \"#utility.yul\":9015:9017   */\n      0x20\n        /* \"contracts/supplier.sol\":8138:8276  require(... */\n      0x04\n      dup3\n      add\n        /* \"#utility.yul\":8997:9018   */\n      mstore\n        /* \"#utility.yul\":9054:9056   */\n      0x15\n        /* \"#utility.yul\":9034:9052   */\n      0x24\n      dup3\n      add\n        /* \"#utility.yul\":9027:9057   */\n      mstore\n      shl(0x5a, 0x125b9d985b1a59081d985b1a59081c995c5d595cdd)\n        /* \"#utility.yul\":9073:9091   */\n      0x44\n      dup3\n      add\n        /* \"#utility.yul\":9066:9117   */\n      mstore\n        /* \"#utility.yul\":9134:9152   */\n      0x64\n      add\n        /* \"contracts/supplier.sol\":8138:8276  require(... */\n      tag_153\n        /* \"#utility.yul\":8813:9158   */\n      jump\n        /* \"contracts/supplier.sol\":8138:8276  require(... */\n    tag_302:\n        /* \"contracts/supplier.sol\":8316:8328  daoInterface */\n      sload(0x02)\n        /* \"contracts/supplier.sol\":8316:8341  daoInterface.getFeeInfo() */\n      0x40\n      dup1\n      mload\n      shl(0xe0, 0x02eab7)\n      dup2\n      mstore\n      swap1\n      mload\n        /* \"contracts/supplier.sol\":8294:8310  uint256 brandFee */\n      0x00\n      swap3\n      sub(shl(0xa0, 0x01), 0x01)\n        /* \"contracts/supplier.sol\":8316:8328  daoInterface */\n      and\n      swap2\n        /* \"contracts/supplier.sol\":8316:8339  daoInterface.getFeeInfo */\n      0x02eab7\n      swap2\n        /* \"contracts/supplier.sol\":8316:8341  daoInterface.getFeeInfo() */\n      0x04\n      dup1\n      dup4\n      add\n      swap3\n      0x80\n      swap3\n      swap2\n      swap1\n      dup3\n      swap1\n      sub\n      add\n      dup2\n        /* \"contracts/supplier.sol\":8316:8328  daoInterface */\n      dup7\n        /* \"contracts/supplier.sol\":8316:8341  daoInterface.getFeeInfo() */\n      gas\n      staticcall\n      iszero\n      dup1\n      iszero\n      tag_306\n      jumpi\n      returndatacopy(0x00, 0x00, returndatasize)\n      revert(0x00, returndatasize)\n    tag_306:\n      pop\n      pop\n      pop\n      pop\n      mload(0x40)\n      returndatasize\n      not(0x1f)\n      0x1f\n      dup3\n      add\n      and\n      dup3\n      add\n      dup1\n      0x40\n      mstore\n      pop\n      dup2\n      add\n      swap1\n      tag_307\n      swap2\n      swap1\n      tag_158\n      jump\t// in\n    tag_307:\n        /* \"contracts/supplier.sol\":8289:8341  (, , uint256 brandFee, ) = daoInterface.getFeeInfo() */\n      pop\n      swap3\n      pop\n      pop\n      pop\n        /* \"contracts/supplier.sol\":8373:8381  brandFee */\n      dup1\n        /* \"contracts/supplier.sol\":8360:8369  msg.value */\n      callvalue\n        /* \"contracts/supplier.sol\":8360:8381  msg.value >= brandFee */\n      lt\n      iszero\n        /* \"contracts/supplier.sol\":8352:8402  require(msg.value >= brandFee, \"Insufficient fee\") */\n      tag_308\n      jumpi\n      mload(0x40)\n      shl(0xe5, 0x461bcd)\n      dup2\n      mstore\n      0x04\n      add\n      tag_153\n      swap1\n      tag_161\n      jump\t// in\n    tag_308:\n        /* \"contracts/supplier.sol\":8478:8499  PartnerStatus.Pending */\n      0x01\n        /* \"contracts/supplier.sol\":8468:8474  status */\n      dup3\n        /* \"contracts/supplier.sol\":8468:8499  status == PartnerStatus.Pending */\n      0x03\n      dup2\n      gt\n      iszero\n      tag_313\n      jumpi\n      tag_313\n      tag_144\n      jump\t// in\n    tag_313:\n      sub\n        /* \"contracts/supplier.sol\":8464:8698  if (status == PartnerStatus.Pending) {... */\n      tag_314\n      jumpi\n        /* \"contracts/supplier.sol\":8516:8566  _removeFromRequestList(brandAddress, agentAddress) */\n      tag_315\n        /* \"contracts/supplier.sol\":8539:8551  brandAddress */\n      dup4\n        /* \"contracts/supplier.sol\":8553:8565  agentAddress */\n      dup6\n        /* \"contracts/supplier.sol\":8516:8538  _removeFromRequestList */\n      tag_168\n        /* \"contracts/supplier.sol\":8516:8566  _removeFromRequestList(brandAddress, agentAddress) */\n      jump\t// in\n    tag_315:\n        /* \"contracts/supplier.sol\":8464:8698  if (status == PartnerStatus.Pending) {... */\n      jump(tag_322)\n    tag_314:\n        /* \"contracts/supplier.sol\":8598:8620  PartnerStatus.Rejected */\n      0x03\n        /* \"contracts/supplier.sol\":8588:8594  status */\n      dup3\n        /* \"contracts/supplier.sol\":8588:8620  status == PartnerStatus.Rejected */\n      0x03\n      dup2\n      gt\n      iszero\n      tag_320\n      jumpi\n      tag_320\n      tag_144\n      jump\t// in\n    tag_320:\n      sub\n        /* \"contracts/supplier.sol\":8584:8698  if (status == PartnerStatus.Rejected) {... */\n      tag_322\n      jumpi\n        /* \"contracts/supplier.sol\":8637:8686  _removeFromRejectList(brandAddress, agentAddress) */\n      tag_322\n        /* \"contracts/supplier.sol\":8659:8671  brandAddress */\n      dup4\n        /* \"contracts/supplier.sol\":8673:8685  agentAddress */\n      dup6\n        /* \"contracts/supplier.sol\":8637:8658  _removeFromRejectList */\n      tag_323\n        /* \"contracts/supplier.sol\":8637:8686  _removeFromRejectList(brandAddress, agentAddress) */\n      jump\t// in\n    tag_322:\n      sub(shl(0xa0, 0x01), 0x01)\n        /* \"contracts/supplier.sol\":8742:8772  _partnerCounters[brandAddress] */\n      dup4\n      dup2\n      and\n      0x00\n      dup2\n      dup2\n      mstore\n        /* \"contracts/supplier.sol\":8742:8758  _partnerCounters */\n      0x0b\n        /* \"contracts/supplier.sol\":8742:8772  _partnerCounters[brandAddress] */\n      0x20\n      swap1\n      dup2\n      mstore\n      0x40\n      dup1\n      dup4\n      keccak256\n        /* \"@openzeppelin/contracts/utils/Counters.sol\":1032:1051  counter._value += 1 */\n      dup1\n      sload\n        /* \"@openzeppelin/contracts/utils/Counters.sol\":1050:1051  1 */\n      0x01\n        /* \"@openzeppelin/contracts/utils/Counters.sol\":1032:1051  counter._value += 1 */\n      add\n      swap1\n      dup2\n      swap1\n      sstore\n        /* \"contracts/supplier.sol\":8863:8872  _partners */\n      0x09\n        /* \"contracts/supplier.sol\":8863:8886  _partners[brandAddress] */\n      dup4\n      mstore\n      dup2\n      dup5\n      keccak256\n        /* \"contracts/supplier.sol\":8863:8894  _partners[brandAddress][newPId] */\n      dup2\n      dup6\n      mstore\n      dup4\n      mstore\n      dup2\n      dup5\n      keccak256\n        /* \"contracts/supplier.sol\":8863:8909  _partners[brandAddress][newPId] = agentAddress */\n      dup1\n      sload\n      swap7\n      dup12\n      and\n      not(sub(shl(0xa0, 0x01), 0x01))\n      swap1\n      swap8\n      and\n      dup8\n      or\n      swap1\n      sstore\n        /* \"contracts/supplier.sol\":8920:8945  _partnerIds[brandAddress] */\n      dup5\n      dup5\n      mstore\n        /* \"contracts/supplier.sol\":8920:8931  _partnerIds */\n      0x0a\n        /* \"contracts/supplier.sol\":8920:8945  _partnerIds[brandAddress] */\n      dup4\n      mstore\n      dup2\n      dup5\n      keccak256\n        /* \"contracts/supplier.sol\":8920:8959  _partnerIds[brandAddress][agentAddress] */\n      dup7\n      dup6\n      mstore\n      dup4\n      mstore\n      dup2\n      dup5\n      keccak256\n        /* \"contracts/supplier.sol\":8920:8968  _partnerIds[brandAddress][agentAddress] = newPId */\n      dup2\n      swap1\n      sstore\n        /* \"contracts/supplier.sol\":8981:9009  _partnerStatus[brandAddress] */\n      swap4\n      dup4\n      mstore\n        /* \"contracts/supplier.sol\":8981:8995  _partnerStatus */\n      0x15\n        /* \"contracts/supplier.sol\":8981:9009  _partnerStatus[brandAddress] */\n      dup3\n      mstore\n      dup1\n      dup4\n      keccak256\n        /* \"contracts/supplier.sol\":8981:9023  _partnerStatus[brandAddress][agentAddress] */\n      swap5\n      dup4\n      mstore\n      swap4\n      swap1\n      mstore\n      swap2\n      swap1\n      swap2\n      keccak256\n        /* \"contracts/supplier.sol\":8981:9048  _partnerStatus[brandAddress][agentAddress] = PartnerStatus.Approved */\n      dup1\n      sload\n      not(0xff)\n      and\n        /* \"contracts/supplier.sol\":9026:9048  PartnerStatus.Approved */\n      0x02\n        /* \"contracts/supplier.sol\":8981:9048  _partnerStatus[brandAddress][agentAddress] = PartnerStatus.Approved */\n      or\n      swap1\n      sstore\n        /* \"contracts/supplier.sol\":9092:9119  _forwardFeeToDAO(msg.value) */\n      tag_328\n        /* \"contracts/supplier.sol\":9109:9118  msg.value */\n      callvalue\n        /* \"contracts/supplier.sol\":9092:9108  _forwardFeeToDAO */\n      tag_189\n        /* \"contracts/supplier.sol\":9092:9119  _forwardFeeToDAO(msg.value) */\n      jump\t// in\n    tag_328:\n        /* \"contracts/supplier.sol\":9164:9176  agentAddress */\n      dup5\n      sub(shl(0xa0, 0x01), 0x01)\n        /* \"contracts/supplier.sol\":9135:9177  PartnerEnabled(brandAddress, agentAddress) */\n      and\n        /* \"contracts/supplier.sol\":9150:9162  brandAddress */\n      dup5\n      sub(shl(0xa0, 0x01), 0x01)\n        /* \"contracts/supplier.sol\":9135:9177  PartnerEnabled(brandAddress, agentAddress) */\n      and\n      0xd8992b24803669ffd1d156b9eadb0a7da92032a46b0708bcc3a4f60022a726df\n      mload(0x40)\n      mload(0x40)\n      dup1\n      swap2\n      sub\n      swap1\n      log3\n        /* \"contracts/supplier.sol\":7936:9185  {... */\n      pop\n      pop\n      pop\n      pop\n        /* \"@openzeppelin/contracts/security/ReentrancyGuard.sol\":2303:2323  _nonReentrantAfter() */\n      tag_329\n        /* \"@openzeppelin/contracts/security/ReentrancyGuard.sol\":1716:1717  1 */\n      0x01\n        /* \"@openzeppelin/contracts/security/ReentrancyGuard.sol\":2809:2816  _status */\n      0x00\n        /* \"@openzeppelin/contracts/security/ReentrancyGuard.sol\":2809:2831  _status = _NOT_ENTERED */\n      sstore\n        /* \"@openzeppelin/contracts/security/ReentrancyGuard.sol\":2629:2838  function _nonReentrantAfter() private {... */\n      jump\n        /* \"@openzeppelin/contracts/security/ReentrancyGuard.sol\":2303:2323  _nonReentrantAfter() */\n    tag_329:\n        /* \"contracts/supplier.sol\":7862:9185  function approvePartner(address agentAddress) public payable nonReentrant {... */\n      pop\n      jump\t// out\n        /* \"contracts/supplier.sol\":12188:12347  function getRequestCount(... */\n    tag_107:\n      sub(shl(0xa0, 0x01), 0x01)\n        /* \"contracts/supplier.sol\":12299:12329  _requestCounters[brandAddress] */\n      dup2\n      and\n        /* \"contracts/supplier.sol\":12272:12279  uint256 */\n      0x00\n        /* \"contracts/supplier.sol\":12299:12329  _requestCounters[brandAddress] */\n      swap1\n      dup2\n      mstore\n        /* \"contracts/supplier.sol\":12299:12315  _requestCounters */\n      0x0e\n        /* \"contracts/supplier.sol\":12299:12329  _requestCounters[brandAddress] */\n      0x20\n      mstore\n      0x40\n      dup2\n      keccak256\n        /* \"@openzeppelin/contracts/utils/Counters.sol\":918:932  counter._value */\n      sload\n        /* \"contracts/supplier.sol\":12299:12339  _requestCounters[brandAddress].current() */\n      tag_262\n        /* \"@openzeppelin/contracts/utils/Counters.sol\":827:939  function current(Counter storage counter) internal view returns (uint256) {... */\n      jump\n        /* \"contracts/supplier.sol\":4923:5302  function getBrandBatch(... */\n    tag_117:\n        /* \"contracts/supplier.sol\":5011:5027  address[] memory */\n      0x60\n        /* \"contracts/supplier.sol\":5057:5064  indexes */\n      dup2\n        /* \"contracts/supplier.sol\":5040:5054  uint256 length */\n      0x00\n        /* \"contracts/supplier.sol\":5057:5064  indexes */\n      dup2\n        /* \"contracts/supplier.sol\":5108:5129  new address[](length) */\n      0xffffffffffffffff\n      dup2\n      gt\n      iszero\n      tag_335\n      jumpi\n      tag_335\n      tag_195\n      jump\t// in\n    tag_335:\n      mload(0x40)\n      swap1\n      dup1\n      dup3\n      mstore\n      dup1\n      0x20\n      mul\n      0x20\n      add\n      dup3\n      add\n      0x40\n      mstore\n      dup1\n      iszero\n      tag_336\n      jumpi\n      dup2\n      0x20\n      add\n      0x20\n      dup3\n      mul\n      dup1\n      calldatasize\n      dup4\n      calldatacopy\n      add\n      swap1\n      pop\n    tag_336:\n      pop\n        /* \"contracts/supplier.sol\":5082:5129  address[] memory brands = new address[](length) */\n      swap1\n      pop\n        /* \"contracts/supplier.sol\":5145:5154  uint256 i */\n      0x00\n        /* \"contracts/supplier.sol\":5140:5271  for (uint256 i = 0; i < length; i++) {... */\n    tag_337:\n        /* \"contracts/supplier.sol\":5164:5170  length */\n      dup3\n        /* \"contracts/supplier.sol\":5160:5161  i */\n      dup2\n        /* \"contracts/supplier.sol\":5160:5170  i < length */\n      lt\n        /* \"contracts/supplier.sol\":5140:5271  for (uint256 i = 0; i < length; i++) {... */\n      iszero\n      tag_198\n      jumpi\n        /* \"contracts/supplier.sol\":5192:5205  uint256 index */\n      0x00\n        /* \"contracts/supplier.sol\":5208:5215  indexes */\n      dup7\n      dup7\n        /* \"contracts/supplier.sol\":5216:5217  i */\n      dup4\n        /* \"contracts/supplier.sol\":5208:5218  indexes[i] */\n      dup2\n      dup2\n      lt\n      tag_341\n      jumpi\n      tag_341\n      tag_202\n      jump\t// in\n    tag_341:\n      0x20\n      swap1\n      dup2\n      mul\n      swap3\n      swap1\n      swap3\n      add\n      calldataload\n        /* \"contracts/supplier.sol\":5245:5259  _brands[index] */\n      0x00\n      dup2\n      dup2\n      mstore\n        /* \"contracts/supplier.sol\":5245:5252  _brands */\n      0x04\n        /* \"contracts/supplier.sol\":5245:5259  _brands[index] */\n      swap1\n      swap4\n      mstore\n      0x40\n      swap1\n      swap3\n      keccak256\n      sload\n        /* \"contracts/supplier.sol\":5233:5242  brands[i] */\n      dup6\n      mload\n        /* \"contracts/supplier.sol\":5208:5218  indexes[i] */\n      swap3\n      swap4\n      pop\n      sub(shl(0xa0, 0x01), 0x01)\n        /* \"contracts/supplier.sol\":5245:5259  _brands[index] */\n      and\n      swap2\n        /* \"contracts/supplier.sol\":5233:5239  brands */\n      dup6\n      swap2\n      pop\n        /* \"contracts/supplier.sol\":5240:5241  i */\n      dup5\n      swap1\n        /* \"contracts/supplier.sol\":5233:5242  brands[i] */\n      dup2\n      lt\n      tag_343\n      jumpi\n      tag_343\n      tag_202\n      jump\t// in\n    tag_343:\n      sub(shl(0xa0, 0x01), 0x01)\n        /* \"contracts/supplier.sol\":5233:5259  brands[i] = _brands[index] */\n      swap1\n      swap3\n      and\n        /* \"contracts/supplier.sol\":5233:5242  brands[i] */\n      0x20\n      swap3\n      dup4\n      mul\n      swap2\n      swap1\n      swap2\n      add\n      swap1\n      swap2\n      add\n        /* \"contracts/supplier.sol\":5233:5259  brands[i] = _brands[index] */\n      mstore\n      pop\n        /* \"contracts/supplier.sol\":5172:5175  i++ */\n      0x01\n      add\n        /* \"contracts/supplier.sol\":5140:5271  for (uint256 i = 0; i < length; i++) {... */\n      jump(tag_337)\n        /* \"contracts/supplier.sol\":12520:12689  function getSellerBrandCount(... */\n    tag_122:\n      sub(shl(0xa0, 0x01), 0x01)\n        /* \"contracts/supplier.sol\":12636:12671  _sellerBrandCounters[sellerAddress] */\n      dup2\n      and\n        /* \"contracts/supplier.sol\":12609:12616  uint256 */\n      0x00\n        /* \"contracts/supplier.sol\":12636:12671  _sellerBrandCounters[sellerAddress] */\n      swap1\n      dup2\n      mstore\n        /* \"contracts/supplier.sol\":12636:12656  _sellerBrandCounters */\n      0x14\n        /* \"contracts/supplier.sol\":12636:12671  _sellerBrandCounters[sellerAddress] */\n      0x20\n      mstore\n      0x40\n      dup2\n      keccak256\n        /* \"@openzeppelin/contracts/utils/Counters.sol\":918:932  counter._value */\n      sload\n        /* \"contracts/supplier.sol\":12636:12681  _sellerBrandCounters[sellerAddress].current() */\n      tag_262\n        /* \"@openzeppelin/contracts/utils/Counters.sol\":827:939  function current(Counter storage counter) internal view returns (uint256) {... */\n      jump\n        /* \"contracts/supplier.sol\":6597:7813  function requestToJoin(address brandAddress) public payable nonReentrant {... */\n    tag_126:\n        /* \"@openzeppelin/contracts/security/ReentrancyGuard.sol\":2261:2282  _nonReentrantBefore() */\n      tag_347\n        /* \"@openzeppelin/contracts/security/ReentrancyGuard.sol\":2261:2280  _nonReentrantBefore */\n      tag_288\n        /* \"@openzeppelin/contracts/security/ReentrancyGuard.sol\":2261:2282  _nonReentrantBefore() */\n      jump\t// in\n    tag_347:\n      sub(shl(0xa0, 0x01), 0x01)\n        /* \"contracts/supplier.sol\":6689:6712  _brandIds[brandAddress] */\n      dup2\n      and\n      0x00\n      swap1\n      dup2\n      mstore\n        /* \"contracts/supplier.sol\":6689:6698  _brandIds */\n      0x05\n        /* \"contracts/supplier.sol\":6689:6712  _brandIds[brandAddress] */\n      0x20\n      mstore\n      0x40\n      dup2\n      keccak256\n      sload\n        /* \"contracts/supplier.sol\":6689:6717  _brandIds[brandAddress] != 0 */\n      swap1\n      sub\n        /* \"contracts/supplier.sol\":6681:6742  require(_brandIds[brandAddress] != 0, \"Brand does not exist\") */\n      tag_349\n      jumpi\n      mload(0x40)\n      shl(0xe5, 0x461bcd)\n      dup2\n      mstore\n        /* \"#utility.yul\":9365:9367   */\n      0x20\n        /* \"contracts/supplier.sol\":6681:6742  require(_brandIds[brandAddress] != 0, \"Brand does not exist\") */\n      0x04\n      dup3\n      add\n        /* \"#utility.yul\":9347:9368   */\n      mstore\n        /* \"#utility.yul\":9404:9406   */\n      0x14\n        /* \"#utility.yul\":9384:9402   */\n      0x24\n      dup3\n      add\n        /* \"#utility.yul\":9377:9407   */\n      mstore\n      shl(0x62, 0x109c985b9908191bd95cc81b9bdd08195e1a5cdd)\n        /* \"#utility.yul\":9423:9441   */\n      0x44\n      dup3\n      add\n        /* \"#utility.yul\":9416:9466   */\n      mstore\n        /* \"#utility.yul\":9483:9501   */\n      0x64\n      add\n        /* \"contracts/supplier.sol\":6681:6742  require(_brandIds[brandAddress] != 0, \"Brand does not exist\") */\n      tag_153\n        /* \"#utility.yul\":9163:9507   */\n      jump\n        /* \"contracts/supplier.sol\":6681:6742  require(_brandIds[brandAddress] != 0, \"Brand does not exist\") */\n    tag_349:\n      sub(shl(0xa0, 0x01), 0x01)\n        /* \"contracts/supplier.sol\":6778:6806  _partnerStatus[brandAddress] */\n      dup2\n      and\n        /* \"contracts/supplier.sol\":6755:6775  PartnerStatus status */\n      0x00\n        /* \"contracts/supplier.sol\":6778:6806  _partnerStatus[brandAddress] */\n      swap1\n      dup2\n      mstore\n        /* \"contracts/supplier.sol\":6778:6792  _partnerStatus */\n      0x15\n        /* \"contracts/supplier.sol\":6778:6806  _partnerStatus[brandAddress] */\n      0x20\n      swap1\n      dup2\n      mstore\n      0x40\n      dup1\n      dup4\n      keccak256\n        /* \"contracts/supplier.sol\":6807:6817  msg.sender */\n      caller\n        /* \"contracts/supplier.sol\":6778:6818  _partnerStatus[brandAddress][msg.sender] */\n      dup5\n      mstore\n      swap1\n      swap2\n      mstore\n      dup2\n      keccak256\n      sload\n      0xff\n      and\n      swap1\n        /* \"contracts/supplier.sol\":6837:6843  status */\n      dup2\n        /* \"contracts/supplier.sol\":6837:6865  status == PartnerStatus.None */\n      0x03\n      dup2\n      gt\n      iszero\n      tag_355\n      jumpi\n      tag_355\n      tag_144\n      jump\t// in\n    tag_355:\n      eq\n        /* \"contracts/supplier.sol\":6829:6877  require(status == PartnerStatus.None, \"Invalid\") */\n      tag_356\n      jumpi\n      mload(0x40)\n      shl(0xe5, 0x461bcd)\n      dup2\n      mstore\n        /* \"#utility.yul\":9714:9716   */\n      0x20\n        /* \"contracts/supplier.sol\":6829:6877  require(status == PartnerStatus.None, \"Invalid\") */\n      0x04\n      dup3\n      add\n        /* \"#utility.yul\":9696:9717   */\n      mstore\n        /* \"#utility.yul\":9753:9754   */\n      0x07\n        /* \"#utility.yul\":9733:9751   */\n      0x24\n      dup3\n      add\n        /* \"#utility.yul\":9726:9755   */\n      mstore\n      shl(0xca, 0x125b9d985b1a59)\n        /* \"#utility.yul\":9771:9789   */\n      0x44\n      dup3\n      add\n        /* \"#utility.yul\":9764:9801   */\n      mstore\n        /* \"#utility.yul\":9818:9836   */\n      0x64\n      add\n        /* \"contracts/supplier.sol\":6829:6877  require(status == PartnerStatus.None, \"Invalid\") */\n      tag_153\n        /* \"#utility.yul\":9512:9842   */\n      jump\n        /* \"contracts/supplier.sol\":6829:6877  require(status == PartnerStatus.None, \"Invalid\") */\n    tag_356:\n        /* \"contracts/supplier.sol\":6918:6930  daoInterface */\n      sload(0x02)\n        /* \"contracts/supplier.sol\":6918:6943  daoInterface.getFeeInfo() */\n      0x40\n      dup1\n      mload\n      shl(0xe0, 0x02eab7)\n      dup2\n      mstore\n      swap1\n      mload\n        /* \"contracts/supplier.sol\":6897:6914  uint256 sellerFee */\n      0x00\n      swap3\n      sub(shl(0xa0, 0x01), 0x01)\n        /* \"contracts/supplier.sol\":6918:6930  daoInterface */\n      and\n      swap2\n        /* \"contracts/supplier.sol\":6918:6941  daoInterface.getFeeInfo */\n      0x02eab7\n      swap2\n        /* \"contracts/supplier.sol\":6918:6943  daoInterface.getFeeInfo() */\n      0x04\n      dup1\n      dup4\n      add\n      swap3\n      0x80\n      swap3\n      swap2\n      swap1\n      dup3\n      swap1\n      sub\n      add\n      dup2\n        /* \"contracts/supplier.sol\":6918:6930  daoInterface */\n      dup7\n        /* \"contracts/supplier.sol\":6918:6943  daoInterface.getFeeInfo() */\n      gas\n      staticcall\n      iszero\n      dup1\n      iszero\n      tag_360\n      jumpi\n      returndatacopy(0x00, 0x00, returndatasize)\n      revert(0x00, returndatasize)\n    tag_360:\n      pop\n      pop\n      pop\n      pop\n      mload(0x40)\n      returndatasize\n      not(0x1f)\n      0x1f\n      dup3\n      add\n      and\n      dup3\n      add\n      dup1\n      0x40\n      mstore\n      pop\n      dup2\n      add\n      swap1\n      tag_361\n      swap2\n      swap1\n      tag_158\n      jump\t// in\n    tag_361:\n        /* \"contracts/supplier.sol\":6890:6943  (, , , uint256 sellerFee) = daoInterface.getFeeInfo() */\n      swap4\n      pop\n      pop\n      pop\n      pop\n        /* \"contracts/supplier.sol\":6975:6984  sellerFee */\n      dup1\n        /* \"contracts/supplier.sol\":6962:6971  msg.value */\n      callvalue\n        /* \"contracts/supplier.sol\":6962:6984  msg.value >= sellerFee */\n      lt\n      iszero\n        /* \"contracts/supplier.sol\":6954:7005  require(msg.value >= sellerFee, \"Insufficient fee\") */\n      tag_362\n      jumpi\n      mload(0x40)\n      shl(0xe5, 0x461bcd)\n      dup2\n      mstore\n      0x04\n      add\n      tag_153\n      swap1\n      tag_161\n      jump\t// in\n    tag_362:\n      sub(shl(0xa0, 0x01), 0x01)\n        /* \"contracts/supplier.sol\":7041:7069  _partnerStatus[brandAddress] */\n      dup4\n      and\n      0x00\n      dup2\n      dup2\n      mstore\n        /* \"contracts/supplier.sol\":7041:7055  _partnerStatus */\n      0x15\n        /* \"contracts/supplier.sol\":7041:7069  _partnerStatus[brandAddress] */\n      0x20\n      swap1\n      dup2\n      mstore\n      0x40\n      dup1\n      dup4\n      keccak256\n        /* \"contracts/supplier.sol\":7070:7080  msg.sender */\n      caller\n        /* \"contracts/supplier.sol\":7041:7081  _partnerStatus[brandAddress][msg.sender] */\n      dup1\n      dup6\n      mstore\n      swap1\n      dup4\n      mstore\n      dup2\n      dup5\n      keccak256\n        /* \"contracts/supplier.sol\":7041:7105  _partnerStatus[brandAddress][msg.sender] = PartnerStatus.Pending */\n      dup1\n      sload\n      not(0xff)\n      and\n        /* \"contracts/supplier.sol\":7084:7105  PartnerStatus.Pending */\n      0x01\n        /* \"contracts/supplier.sol\":7041:7105  _partnerStatus[brandAddress][msg.sender] = PartnerStatus.Pending */\n      swap1\n      dup2\n      or\n      swap1\n      swap2\n      sstore\n        /* \"contracts/supplier.sol\":7158:7188  _requestCounters[brandAddress] */\n      dup6\n      dup6\n      mstore\n        /* \"contracts/supplier.sol\":7158:7174  _requestCounters */\n      0x0e\n        /* \"contracts/supplier.sol\":7158:7188  _requestCounters[brandAddress] */\n      dup5\n      mstore\n      dup3\n      dup6\n      keccak256\n        /* \"@openzeppelin/contracts/utils/Counters.sol\":1032:1051  counter._value += 1 */\n      dup1\n      sload\n      dup3\n      add\n      swap1\n      dup2\n      swap1\n      sstore\n        /* \"contracts/supplier.sol\":7278:7290  _requestList */\n      0x0c\n        /* \"contracts/supplier.sol\":7278:7304  _requestList[brandAddress] */\n      dup6\n      mstore\n      dup4\n      dup7\n      keccak256\n        /* \"contracts/supplier.sol\":7278:7311  _requestList[brandAddress][reqId] */\n      dup2\n      dup8\n      mstore\n      dup6\n      mstore\n      dup4\n      dup7\n      keccak256\n        /* \"contracts/supplier.sol\":7278:7324  _requestList[brandAddress][reqId] = msg.sender */\n      dup1\n      sload\n      not(sub(shl(0xa0, 0x01), 0x01))\n      swap1\n      dup2\n      and\n      dup6\n      or\n      swap1\n      swap2\n      sstore\n        /* \"contracts/supplier.sol\":7335:7360  _requestIds[brandAddress] */\n      dup8\n      dup8\n      mstore\n        /* \"contracts/supplier.sol\":7335:7346  _requestIds */\n      0x0d\n        /* \"contracts/supplier.sol\":7335:7360  _requestIds[brandAddress] */\n      dup7\n      mstore\n      dup5\n      dup8\n      keccak256\n        /* \"contracts/supplier.sol\":7335:7372  _requestIds[brandAddress][msg.sender] */\n      dup5\n      dup9\n      mstore\n      dup7\n      mstore\n      dup5\n      dup8\n      keccak256\n        /* \"contracts/supplier.sol\":7335:7380  _requestIds[brandAddress][msg.sender] = reqId */\n      dup3\n      swap1\n      sstore\n        /* \"contracts/supplier.sol\":7435:7455  _sellerBrandCounters */\n      0x14\n        /* \"contracts/supplier.sol\":7435:7467  _sellerBrandCounters[msg.sender] */\n      dup7\n      mstore\n      dup5\n      dup8\n      keccak256\n        /* \"@openzeppelin/contracts/utils/Counters.sol\":1032:1051  counter._value += 1 */\n      dup1\n      sload\n      swap1\n      swap4\n      add\n      swap3\n      dup4\n      swap1\n      sstore\n        /* \"contracts/supplier.sol\":7557:7573  _sellerBrandList */\n      0x12\n        /* \"contracts/supplier.sol\":7557:7585  _sellerBrandList[msg.sender] */\n      dup7\n      mstore\n      dup5\n      dup8\n      keccak256\n        /* \"contracts/supplier.sol\":7557:7590  _sellerBrandList[msg.sender][sId] */\n      dup4\n      dup9\n      mstore\n      dup7\n      mstore\n      dup5\n      dup8\n      keccak256\n        /* \"contracts/supplier.sol\":7557:7605  _sellerBrandList[msg.sender][sId] = brandAddress */\n      dup1\n      sload\n      swap1\n      swap2\n      and\n      dup9\n      or\n      swap1\n      sstore\n        /* \"contracts/supplier.sol\":7616:7643  _sellerBrandIds[msg.sender] */\n      swap2\n      dup6\n      mstore\n        /* \"contracts/supplier.sol\":7616:7631  _sellerBrandIds */\n      0x13\n        /* \"contracts/supplier.sol\":7616:7643  _sellerBrandIds[msg.sender] */\n      dup5\n      mstore\n      dup3\n      dup6\n      keccak256\n        /* \"contracts/supplier.sol\":7616:7657  _sellerBrandIds[msg.sender][brandAddress] */\n      swap6\n      dup6\n      mstore\n      swap5\n      swap1\n      swap3\n      mstore\n      swap1\n      swap2\n      keccak256\n        /* \"contracts/supplier.sol\":7616:7663  _sellerBrandIds[msg.sender][brandAddress] = sId */\n      dup3\n      swap1\n      sstore\n        /* \"@openzeppelin/contracts/utils/Counters.sol\":1032:1051  counter._value += 1 */\n      swap1\n        /* \"contracts/supplier.sol\":7707:7734  _forwardFeeToDAO(msg.value) */\n      tag_370\n        /* \"contracts/supplier.sol\":7724:7733  msg.value */\n      callvalue\n        /* \"contracts/supplier.sol\":7707:7723  _forwardFeeToDAO */\n      tag_189\n        /* \"contracts/supplier.sol\":7707:7734  _forwardFeeToDAO(msg.value) */\n      jump\t// in\n    tag_370:\n        /* \"contracts/supplier.sol\":7752:7805  PartnerRequested(brandAddress, msg.sender, msg.value) */\n      mload(0x40)\n        /* \"contracts/supplier.sol\":7795:7804  msg.value */\n      callvalue\n        /* \"#utility.yul\":3599:3624   */\n      dup2\n      mstore\n        /* \"contracts/supplier.sol\":7783:7793  msg.sender */\n      caller\n      swap1\n      sub(shl(0xa0, 0x01), 0x01)\n        /* \"contracts/supplier.sol\":7752:7805  PartnerRequested(brandAddress, msg.sender, msg.value) */\n      dup8\n      and\n      swap1\n      0xf1b303465690b52f1d1dacb63b15455dab055fd54ef576baff456d55e76603f4\n      swap1\n        /* \"#utility.yul\":3587:3589   */\n      0x20\n        /* \"#utility.yul\":3572:3590   */\n      add\n        /* \"contracts/supplier.sol\":7752:7805  PartnerRequested(brandAddress, msg.sender, msg.value) */\n      mload(0x40)\n      dup1\n      swap2\n      sub\n      swap1\n      log3\n        /* \"contracts/supplier.sol\":6670:7813  {... */\n      pop\n      pop\n      pop\n      pop\n        /* \"@openzeppelin/contracts/security/ReentrancyGuard.sol\":2303:2323  _nonReentrantAfter() */\n      tag_329\n        /* \"@openzeppelin/contracts/security/ReentrancyGuard.sol\":1716:1717  1 */\n      0x01\n        /* \"@openzeppelin/contracts/security/ReentrancyGuard.sol\":2809:2816  _status */\n      0x00\n        /* \"@openzeppelin/contracts/security/ReentrancyGuard.sol\":2809:2831  _status = _NOT_ENTERED */\n      sstore\n        /* \"@openzeppelin/contracts/security/ReentrancyGuard.sol\":2629:2838  function _nonReentrantAfter() private {... */\n      jump\n        /* \"contracts/supplier.sol\":3856:4132  function verifyBrand(address brandAddress) public onlyReviewer {... */\n    tag_135:\n        /* \"contracts/supplier.sol\":3226:3238  daoInterface */\n      sload(0x02)\n        /* \"contracts/supplier.sol\":3226:3261  daoInterface.isReviewer(msg.sender) */\n      mload(0x40)\n      shl(0xe1, 0x7ee312c5)\n      dup2\n      mstore\n        /* \"contracts/supplier.sol\":3250:3260  msg.sender */\n      caller\n        /* \"contracts/supplier.sol\":3226:3261  daoInterface.isReviewer(msg.sender) */\n      0x04\n      dup3\n      add\n        /* \"#utility.yul\":3206:3257   */\n      mstore\n      sub(shl(0xa0, 0x01), 0x01)\n        /* \"contracts/supplier.sol\":3226:3238  daoInterface */\n      swap1\n      swap2\n      and\n      swap1\n        /* \"contracts/supplier.sol\":3226:3249  daoInterface.isReviewer */\n      0xfdc6258a\n      swap1\n        /* \"#utility.yul\":3179:3197   */\n      0x24\n      add\n        /* \"contracts/supplier.sol\":3226:3261  daoInterface.isReviewer(msg.sender) */\n      0x20\n      mload(0x40)\n      dup1\n      dup4\n      sub\n      dup2\n      dup7\n      gas\n      staticcall\n      iszero\n      dup1\n      iszero\n      tag_377\n      jumpi\n      returndatacopy(0x00, 0x00, returndatasize)\n      revert(0x00, returndatasize)\n    tag_377:\n      pop\n      pop\n      pop\n      pop\n      mload(0x40)\n      returndatasize\n      not(0x1f)\n      0x1f\n      dup3\n      add\n      and\n      dup3\n      add\n      dup1\n      0x40\n      mstore\n      pop\n      dup2\n      add\n      swap1\n      tag_378\n      swap2\n      swap1\n      tag_230\n      jump\t// in\n    tag_378:\n        /* \"contracts/supplier.sol\":3218:3287  require(daoInterface.isReviewer(msg.sender), \"Only reviewer allowed\") */\n      tag_379\n      jumpi\n      mload(0x40)\n      shl(0xe5, 0x461bcd)\n      dup2\n      mstore\n        /* \"#utility.yul\":7715:7717   */\n      0x20\n        /* \"contracts/supplier.sol\":3218:3287  require(daoInterface.isReviewer(msg.sender), \"Only reviewer allowed\") */\n      0x04\n      dup3\n      add\n        /* \"#utility.yul\":7697:7718   */\n      mstore\n        /* \"#utility.yul\":7754:7756   */\n      0x15\n        /* \"#utility.yul\":7734:7752   */\n      0x24\n      dup3\n      add\n        /* \"#utility.yul\":7727:7757   */\n      mstore\n      shl(0x5a, 0x13db9b1e481c995d9a595dd95c88185b1b1bddd959)\n        /* \"#utility.yul\":7773:7791   */\n      0x44\n      dup3\n      add\n        /* \"#utility.yul\":7766:7817   */\n      mstore\n        /* \"#utility.yul\":7834:7852   */\n      0x64\n      add\n        /* \"contracts/supplier.sol\":3218:3287  require(daoInterface.isReviewer(msg.sender), \"Only reviewer allowed\") */\n      tag_153\n        /* \"#utility.yul\":7513:7858   */\n      jump\n        /* \"contracts/supplier.sol\":3218:3287  require(daoInterface.isReviewer(msg.sender), \"Only reviewer allowed\") */\n    tag_379:\n      sub(shl(0xa0, 0x01), 0x01)\n        /* \"contracts/supplier.sol\":3938:3961  _brandIds[brandAddress] */\n      dup2\n      and\n      0x00\n      swap1\n      dup2\n      mstore\n        /* \"contracts/supplier.sol\":3938:3947  _brandIds */\n      0x05\n        /* \"contracts/supplier.sol\":3938:3961  _brandIds[brandAddress] */\n      0x20\n      mstore\n      0x40\n      dup2\n      keccak256\n      sload\n        /* \"contracts/supplier.sol\":3938:3966  _brandIds[brandAddress] != 0 */\n      swap1\n      sub\n        /* \"contracts/supplier.sol\":3930:3991  require(_brandIds[brandAddress] != 0, \"Brand not registered\") */\n      tag_382\n      jumpi\n      mload(0x40)\n      shl(0xe5, 0x461bcd)\n      dup2\n      mstore\n        /* \"#utility.yul\":10049:10051   */\n      0x20\n        /* \"contracts/supplier.sol\":3930:3991  require(_brandIds[brandAddress] != 0, \"Brand not registered\") */\n      0x04\n      dup3\n      add\n        /* \"#utility.yul\":10031:10052   */\n      mstore\n        /* \"#utility.yul\":10088:10090   */\n      0x14\n        /* \"#utility.yul\":10068:10086   */\n      0x24\n      dup3\n      add\n        /* \"#utility.yul\":10061:10091   */\n      mstore\n      shl(0x62, 0x109c985b99081b9bdd081c9959da5cdd195c9959)\n        /* \"#utility.yul\":10107:10125   */\n      0x44\n      dup3\n      add\n        /* \"#utility.yul\":10100:10150   */\n      mstore\n        /* \"#utility.yul\":10167:10185   */\n      0x64\n      add\n        /* \"contracts/supplier.sol\":3930:3991  require(_brandIds[brandAddress] != 0, \"Brand not registered\") */\n      tag_153\n        /* \"#utility.yul\":9847:10191   */\n      jump\n        /* \"contracts/supplier.sol\":3930:3991  require(_brandIds[brandAddress] != 0, \"Brand not registered\") */\n    tag_382:\n      sub(shl(0xa0, 0x01), 0x01)\n        /* \"contracts/supplier.sol\":4002:4027  _isVerified[brandAddress] */\n      dup2\n      and\n      0x00\n      dup2\n      dup2\n      mstore\n        /* \"contracts/supplier.sol\":4002:4013  _isVerified */\n      0x07\n        /* \"contracts/supplier.sol\":4002:4027  _isVerified[brandAddress] */\n      0x20\n      swap1\n      dup2\n      mstore\n      0x40\n      dup1\n      dup4\n      keccak256\n        /* \"contracts/supplier.sol\":4002:4034  _isVerified[brandAddress] = true */\n      dup1\n      sload\n      not(0xff)\n      and\n        /* \"contracts/supplier.sol\":4030:4034  true */\n      0x01\n        /* \"contracts/supplier.sol\":4002:4034  _isVerified[brandAddress] = true */\n      or\n      swap1\n      sstore\n        /* \"contracts/supplier.sol\":4045:4054  _verifier */\n      0x08\n        /* \"contracts/supplier.sol\":4045:4068  _verifier[brandAddress] */\n      swap1\n      swap2\n      mstore\n      dup1\n      dup3\n      keccak256\n        /* \"contracts/supplier.sol\":4045:4081  _verifier[brandAddress] = msg.sender */\n      dup1\n      sload\n      not(sub(shl(0xa0, 0x01), 0x01))\n      and\n        /* \"contracts/supplier.sol\":4071:4081  msg.sender */\n      caller\n        /* \"contracts/supplier.sol\":4045:4081  _verifier[brandAddress] = msg.sender */\n      or\n      swap1\n      sstore\n        /* \"contracts/supplier.sol\":4097:4124  BrandVerified(brandAddress) */\n      mload\n      0x1c040312dae2a5129751252fe2bcbc8c80eafaff09af9be184e641cf8809682f\n      swap2\n        /* \"contracts/supplier.sol\":4002:4027  _isVerified[brandAddress] */\n      swap1\n        /* \"contracts/supplier.sol\":4097:4124  BrandVerified(brandAddress) */\n      log2\n        /* \"contracts/supplier.sol\":3856:4132  function verifyBrand(address brandAddress) public onlyReviewer {... */\n      pop\n      jump\t// out\n        /* \"contracts/supplier.sol\":11950:12109  function getPartnerCount(... */\n    tag_139:\n      sub(shl(0xa0, 0x01), 0x01)\n        /* \"contracts/supplier.sol\":12061:12091  _partnerCounters[brandAddress] */\n      dup2\n      and\n        /* \"contracts/supplier.sol\":12034:12041  uint256 */\n      0x00\n        /* \"contracts/supplier.sol\":12061:12091  _partnerCounters[brandAddress] */\n      swap1\n      dup2\n      mstore\n        /* \"contracts/supplier.sol\":12061:12077  _partnerCounters */\n      0x0b\n        /* \"contracts/supplier.sol\":12061:12091  _partnerCounters[brandAddress] */\n      0x20\n      mstore\n      0x40\n      dup2\n      keccak256\n        /* \"@openzeppelin/contracts/utils/Counters.sol\":918:932  counter._value */\n      sload\n        /* \"contracts/supplier.sol\":12061:12101  _partnerCounters[brandAddress].current() */\n      tag_262\n        /* \"@openzeppelin/contracts/utils/Counters.sol\":827:939  function current(Counter storage counter) internal view returns (uint256) {... */\n      jump\n        /* \"contracts/supplier.sol\":14817:15334  function _removeFromRequestList(address brand, address agent) internal {... */\n    tag_168:\n      sub(shl(0xa0, 0x01), 0x01)\n        /* \"contracts/supplier.sol\":14912:14930  _requestIds[brand] */\n      dup3\n      dup2\n      and\n        /* \"contracts/supplier.sol\":14899:14909  uint256 id */\n      0x00\n        /* \"contracts/supplier.sol\":14912:14930  _requestIds[brand] */\n      dup2\n      dup2\n      mstore\n        /* \"contracts/supplier.sol\":14912:14923  _requestIds */\n      0x0d\n        /* \"contracts/supplier.sol\":14912:14930  _requestIds[brand] */\n      0x20\n      swap1\n      dup2\n      mstore\n      0x40\n      dup1\n      dup4\n      keccak256\n        /* \"contracts/supplier.sol\":14912:14937  _requestIds[brand][agent] */\n      dup7\n      dup7\n      and\n      dup5\n      mstore\n      dup3\n      mstore\n      dup1\n      dup4\n      keccak256\n      sload\n        /* \"contracts/supplier.sol\":14965:14988  _requestCounters[brand] */\n      swap4\n      dup4\n      mstore\n        /* \"contracts/supplier.sol\":14965:14981  _requestCounters */\n      0x0e\n        /* \"contracts/supplier.sol\":14965:14988  _requestCounters[brand] */\n      dup3\n      mstore\n      dup1\n      dup4\n      keccak256\n        /* \"@openzeppelin/contracts/utils/Counters.sol\":918:932  counter._value */\n      sload\n        /* \"contracts/supplier.sol\":15028:15040  _requestList */\n      0x0c\n        /* \"contracts/supplier.sol\":15028:15047  _requestList[brand] */\n      dup4\n      mstore\n      dup2\n      dup5\n      keccak256\n        /* \"contracts/supplier.sol\":15028:15055  _requestList[brand][lastId] */\n      dup2\n      dup6\n      mstore\n      swap1\n      swap3\n      mstore\n      swap1\n      swap2\n      keccak256\n      sload\n        /* \"contracts/supplier.sol\":14912:14937  _requestIds[brand][agent] */\n      swap2\n      swap3\n        /* \"@openzeppelin/contracts/utils/Counters.sol\":918:932  counter._value */\n      swap1\n      swap2\n        /* \"contracts/supplier.sol\":15028:15055  _requestList[brand][lastId] */\n      and\n        /* \"contracts/supplier.sol\":15070:15082  id != lastId */\n      dup2\n      dup4\n      eq\n        /* \"contracts/supplier.sol\":15066:15193  if (id != lastId) {... */\n      tag_389\n      jumpi\n      sub(shl(0xa0, 0x01), 0x01)\n        /* \"contracts/supplier.sol\":15099:15118  _requestList[brand] */\n      dup6\n      dup2\n      and\n      0x00\n      dup2\n      dup2\n      mstore\n        /* \"contracts/supplier.sol\":15099:15111  _requestList */\n      0x0c\n        /* \"contracts/supplier.sol\":15099:15118  _requestList[brand] */\n      0x20\n      swap1\n      dup2\n      mstore\n      0x40\n      dup1\n      dup4\n      keccak256\n        /* \"contracts/supplier.sol\":15099:15122  _requestList[brand][id] */\n      dup9\n      dup5\n      mstore\n      dup3\n      mstore\n      dup1\n      dup4\n      keccak256\n        /* \"contracts/supplier.sol\":15099:15133  _requestList[brand][id] = lastAddr */\n      dup1\n      sload\n      not(sub(shl(0xa0, 0x01), 0x01))\n      and\n      swap6\n      dup8\n      and\n      swap6\n      dup7\n      or\n      swap1\n      sstore\n        /* \"contracts/supplier.sol\":15148:15166  _requestIds[brand] */\n      swap3\n      dup3\n      mstore\n        /* \"contracts/supplier.sol\":15148:15159  _requestIds */\n      0x0d\n        /* \"contracts/supplier.sol\":15148:15166  _requestIds[brand] */\n      dup2\n      mstore\n      dup3\n      dup3\n      keccak256\n        /* \"contracts/supplier.sol\":15148:15176  _requestIds[brand][lastAddr] */\n      swap4\n      dup3\n      mstore\n      swap3\n      swap1\n      swap3\n      mstore\n      swap1\n      keccak256\n        /* \"contracts/supplier.sol\":15148:15181  _requestIds[brand][lastAddr] = id */\n      dup4\n      swap1\n      sstore\n        /* \"contracts/supplier.sol\":15066:15193  if (id != lastId) {... */\n    tag_389:\n      sub(shl(0xa0, 0x01), 0x01)\n        /* \"contracts/supplier.sol\":15210:15229  _requestList[brand] */\n      dup1\n      dup7\n      and\n      0x00\n      dup2\n      dup2\n      mstore\n        /* \"contracts/supplier.sol\":15210:15222  _requestList */\n      0x0c\n        /* \"contracts/supplier.sol\":15210:15229  _requestList[brand] */\n      0x20\n      swap1\n      dup2\n      mstore\n      0x40\n      dup1\n      dup4\n      keccak256\n        /* \"contracts/supplier.sol\":15210:15237  _requestList[brand][lastId] */\n      dup8\n      dup5\n      mstore\n      dup3\n      mstore\n      dup1\n      dup4\n      keccak256\n        /* \"contracts/supplier.sol\":15203:15237  delete _requestList[brand][lastId] */\n      dup1\n      sload\n      not(sub(shl(0xa0, 0x01), 0x01))\n      and\n      swap1\n      sstore\n        /* \"contracts/supplier.sol\":15255:15273  _requestIds[brand] */\n      dup4\n      dup4\n      mstore\n        /* \"contracts/supplier.sol\":15255:15266  _requestIds */\n      0x0d\n        /* \"contracts/supplier.sol\":15255:15273  _requestIds[brand] */\n      dup3\n      mstore\n      dup1\n      dup4\n      keccak256\n        /* \"contracts/supplier.sol\":15255:15280  _requestIds[brand][agent] */\n      swap5\n      dup10\n      and\n      dup4\n      mstore\n      swap4\n      dup2\n      mstore\n      dup4\n      dup3\n      keccak256\n        /* \"contracts/supplier.sol\":15248:15280  delete _requestIds[brand][agent] */\n      dup3\n      swap1\n      sstore\n        /* \"contracts/supplier.sol\":15291:15314  _requestCounters[brand] */\n      swap2\n      dup2\n      mstore\n        /* \"contracts/supplier.sol\":15291:15307  _requestCounters */\n      0x0e\n        /* \"contracts/supplier.sol\":15291:15314  _requestCounters[brand] */\n      swap1\n      swap2\n      mstore\n      keccak256\n        /* \"contracts/supplier.sol\":15291:15326  _requestCounters[brand].decrement() */\n      tag_390\n      swap1\n        /* \"contracts/supplier.sol\":15291:15324  _requestCounters[brand].decrement */\n      tag_391\n        /* \"contracts/supplier.sol\":15291:15326  _requestCounters[brand].decrement() */\n      jump\t// in\n    tag_390:\n        /* \"contracts/supplier.sol\":14888:15334  {... */\n      pop\n      pop\n      pop\n        /* \"contracts/supplier.sol\":14817:15334  function _removeFromRequestList(address brand, address agent) internal {... */\n      pop\n      pop\n      jump\t// out\n        /* \"contracts/supplier.sol\":15858:16377  function _removeFromPartnerList(address brand, address agent) internal {... */\n    tag_176:\n      sub(shl(0xa0, 0x01), 0x01)\n        /* \"contracts/supplier.sol\":15954:15972  _partnerIds[brand] */\n      dup3\n      dup2\n      and\n        /* \"contracts/supplier.sol\":15940:15951  uint256 pId */\n      0x00\n        /* \"contracts/supplier.sol\":15954:15972  _partnerIds[brand] */\n      dup2\n      dup2\n      mstore\n        /* \"contracts/supplier.sol\":15954:15965  _partnerIds */\n      0x0a\n        /* \"contracts/supplier.sol\":15954:15972  _partnerIds[brand] */\n      0x20\n      swap1\n      dup2\n      mstore\n      0x40\n      dup1\n      dup4\n      keccak256\n        /* \"contracts/supplier.sol\":15954:15979  _partnerIds[brand][agent] */\n      dup7\n      dup7\n      and\n      dup5\n      mstore\n      dup3\n      mstore\n      dup1\n      dup4\n      keccak256\n      sload\n        /* \"contracts/supplier.sol\":16008:16031  _partnerCounters[brand] */\n      swap4\n      dup4\n      mstore\n        /* \"contracts/supplier.sol\":16008:16024  _partnerCounters */\n      0x0b\n        /* \"contracts/supplier.sol\":16008:16031  _partnerCounters[brand] */\n      dup3\n      mstore\n      dup1\n      dup4\n      keccak256\n        /* \"@openzeppelin/contracts/utils/Counters.sol\":918:932  counter._value */\n      sload\n        /* \"contracts/supplier.sol\":16072:16081  _partners */\n      0x09\n        /* \"contracts/supplier.sol\":16072:16088  _partners[brand] */\n      dup4\n      mstore\n      dup2\n      dup5\n      keccak256\n        /* \"contracts/supplier.sol\":16072:16097  _partners[brand][lastPId] */\n      dup2\n      dup6\n      mstore\n      swap1\n      swap3\n      mstore\n      swap1\n      swap2\n      keccak256\n      sload\n        /* \"contracts/supplier.sol\":15954:15979  _partnerIds[brand][agent] */\n      swap2\n      swap3\n        /* \"@openzeppelin/contracts/utils/Counters.sol\":918:932  counter._value */\n      swap1\n      swap2\n        /* \"contracts/supplier.sol\":16072:16097  _partners[brand][lastPId] */\n      and\n        /* \"contracts/supplier.sol\":16112:16126  pId != lastPId */\n      dup2\n      dup4\n      eq\n        /* \"contracts/supplier.sol\":16108:16238  if (pId != lastPId) {... */\n      tag_394\n      jumpi\n      sub(shl(0xa0, 0x01), 0x01)\n        /* \"contracts/supplier.sol\":16143:16159  _partners[brand] */\n      dup6\n      dup2\n      and\n      0x00\n      dup2\n      dup2\n      mstore\n        /* \"contracts/supplier.sol\":16143:16152  _partners */\n      0x09\n        /* \"contracts/supplier.sol\":16143:16159  _partners[brand] */\n      0x20\n      swap1\n      dup2\n      mstore\n      0x40\n      dup1\n      dup4\n      keccak256\n        /* \"contracts/supplier.sol\":16143:16164  _partners[brand][pId] */\n      dup9\n      dup5\n      mstore\n      dup3\n      mstore\n      dup1\n      dup4\n      keccak256\n        /* \"contracts/supplier.sol\":16143:16176  _partners[brand][pId] = lastAgent */\n      dup1\n      sload\n      not(sub(shl(0xa0, 0x01), 0x01))\n      and\n      swap6\n      dup8\n      and\n      swap6\n      dup7\n      or\n      swap1\n      sstore\n        /* \"contracts/supplier.sol\":16191:16209  _partnerIds[brand] */\n      swap3\n      dup3\n      mstore\n        /* \"contracts/supplier.sol\":16191:16202  _partnerIds */\n      0x0a\n        /* \"contracts/supplier.sol\":16191:16209  _partnerIds[brand] */\n      dup2\n      mstore\n      dup3\n      dup3\n      keccak256\n        /* \"contracts/supplier.sol\":16191:16220  _partnerIds[brand][lastAgent] */\n      swap4\n      dup3\n      mstore\n      swap3\n      swap1\n      swap3\n      mstore\n      swap1\n      keccak256\n        /* \"contracts/supplier.sol\":16191:16226  _partnerIds[brand][lastAgent] = pId */\n      dup4\n      swap1\n      sstore\n        /* \"contracts/supplier.sol\":16108:16238  if (pId != lastPId) {... */\n    tag_394:\n      sub(shl(0xa0, 0x01), 0x01)\n        /* \"contracts/supplier.sol\":16255:16271  _partners[brand] */\n      dup1\n      dup7\n      and\n      0x00\n      dup2\n      dup2\n      mstore\n        /* \"contracts/supplier.sol\":16255:16264  _partners */\n      0x09\n        /* \"contracts/supplier.sol\":16255:16271  _partners[brand] */\n      0x20\n      swap1\n      dup2\n      mstore\n      0x40\n      dup1\n      dup4\n      keccak256\n        /* \"contracts/supplier.sol\":16255:16280  _partners[brand][lastPId] */\n      dup8\n      dup5\n      mstore\n      dup3\n      mstore\n      dup1\n      dup4\n      keccak256\n        /* \"contracts/supplier.sol\":16248:16280  delete _partners[brand][lastPId] */\n      dup1\n      sload\n      not(sub(shl(0xa0, 0x01), 0x01))\n      and\n      swap1\n      sstore\n        /* \"contracts/supplier.sol\":16298:16316  _partnerIds[brand] */\n      dup4\n      dup4\n      mstore\n        /* \"contracts/supplier.sol\":16298:16309  _partnerIds */\n      0x0a\n        /* \"contracts/supplier.sol\":16298:16316  _partnerIds[brand] */\n      dup3\n      mstore\n      dup1\n      dup4\n      keccak256\n        /* \"contracts/supplier.sol\":16298:16323  _partnerIds[brand][agent] */\n      swap5\n      dup10\n      and\n      dup4\n      mstore\n      swap4\n      dup2\n      mstore\n      dup4\n      dup3\n      keccak256\n        /* \"contracts/supplier.sol\":16291:16323  delete _partnerIds[brand][agent] */\n      dup3\n      swap1\n      sstore\n        /* \"contracts/supplier.sol\":16334:16357  _partnerCounters[brand] */\n      swap2\n      dup2\n      mstore\n        /* \"contracts/supplier.sol\":16334:16350  _partnerCounters */\n      0x0b\n        /* \"contracts/supplier.sol\":16334:16357  _partnerCounters[brand] */\n      swap1\n      swap2\n      mstore\n      keccak256\n        /* \"contracts/supplier.sol\":16334:16369  _partnerCounters[brand].decrement() */\n      tag_390\n      swap1\n        /* \"contracts/supplier.sol\":16334:16367  _partnerCounters[brand].decrement */\n      tag_391\n        /* \"contracts/supplier.sol\":16334:16369  _partnerCounters[brand].decrement() */\n      jump\t// in\n        /* \"contracts/supplier.sol\":16385:16975  function _removeFromSellerBrandList(... */\n    tag_178:\n      sub(shl(0xa0, 0x01), 0x01)\n        /* \"contracts/supplier.sol\":16510:16533  _sellerBrandIds[seller] */\n      dup3\n      dup2\n      and\n        /* \"contracts/supplier.sol\":16497:16507  uint256 id */\n      0x00\n        /* \"contracts/supplier.sol\":16510:16533  _sellerBrandIds[seller] */\n      dup2\n      dup2\n      mstore\n        /* \"contracts/supplier.sol\":16510:16525  _sellerBrandIds */\n      0x13\n        /* \"contracts/supplier.sol\":16510:16533  _sellerBrandIds[seller] */\n      0x20\n      swap1\n      dup2\n      mstore\n      0x40\n      dup1\n      dup4\n      keccak256\n        /* \"contracts/supplier.sol\":16510:16540  _sellerBrandIds[seller][brand] */\n      dup7\n      dup7\n      and\n      dup5\n      mstore\n      dup3\n      mstore\n      dup1\n      dup4\n      keccak256\n      sload\n        /* \"contracts/supplier.sol\":16568:16596  _sellerBrandCounters[seller] */\n      swap4\n      dup4\n      mstore\n        /* \"contracts/supplier.sol\":16568:16588  _sellerBrandCounters */\n      0x14\n        /* \"contracts/supplier.sol\":16568:16596  _sellerBrandCounters[seller] */\n      dup3\n      mstore\n      dup1\n      dup4\n      keccak256\n        /* \"@openzeppelin/contracts/utils/Counters.sol\":918:932  counter._value */\n      sload\n        /* \"contracts/supplier.sol\":16637:16653  _sellerBrandList */\n      0x12\n        /* \"contracts/supplier.sol\":16637:16661  _sellerBrandList[seller] */\n      dup4\n      mstore\n      dup2\n      dup5\n      keccak256\n        /* \"contracts/supplier.sol\":16637:16669  _sellerBrandList[seller][lastId] */\n      dup2\n      dup6\n      mstore\n      swap1\n      swap3\n      mstore\n      swap1\n      swap2\n      keccak256\n      sload\n        /* \"contracts/supplier.sol\":16510:16540  _sellerBrandIds[seller][brand] */\n      swap2\n      swap3\n        /* \"@openzeppelin/contracts/utils/Counters.sol\":918:932  counter._value */\n      swap1\n      swap2\n        /* \"contracts/supplier.sol\":16637:16669  _sellerBrandList[seller][lastId] */\n      and\n        /* \"contracts/supplier.sol\":16684:16696  id != lastId */\n      dup2\n      dup4\n      eq\n        /* \"contracts/supplier.sol\":16680:16819  if (id != lastId) {... */\n      tag_398\n      jumpi\n      sub(shl(0xa0, 0x01), 0x01)\n        /* \"contracts/supplier.sol\":16713:16737  _sellerBrandList[seller] */\n      dup6\n      dup2\n      and\n      0x00\n      dup2\n      dup2\n      mstore\n        /* \"contracts/supplier.sol\":16713:16729  _sellerBrandList */\n      0x12\n        /* \"contracts/supplier.sol\":16713:16737  _sellerBrandList[seller] */\n      0x20\n      swap1\n      dup2\n      mstore\n      0x40\n      dup1\n      dup4\n      keccak256\n        /* \"contracts/supplier.sol\":16713:16741  _sellerBrandList[seller][id] */\n      dup9\n      dup5\n      mstore\n      dup3\n      mstore\n      dup1\n      dup4\n      keccak256\n        /* \"contracts/supplier.sol\":16713:16753  _sellerBrandList[seller][id] = lastBrand */\n      dup1\n      sload\n      not(sub(shl(0xa0, 0x01), 0x01))\n      and\n      swap6\n      dup8\n      and\n      swap6\n      dup7\n      or\n      swap1\n      sstore\n        /* \"contracts/supplier.sol\":16768:16791  _sellerBrandIds[seller] */\n      swap3\n      dup3\n      mstore\n        /* \"contracts/supplier.sol\":16768:16783  _sellerBrandIds */\n      0x13\n        /* \"contracts/supplier.sol\":16768:16791  _sellerBrandIds[seller] */\n      dup2\n      mstore\n      dup3\n      dup3\n      keccak256\n        /* \"contracts/supplier.sol\":16768:16802  _sellerBrandIds[seller][lastBrand] */\n      swap4\n      dup3\n      mstore\n      swap3\n      swap1\n      swap3\n      mstore\n      swap1\n      keccak256\n        /* \"contracts/supplier.sol\":16768:16807  _sellerBrandIds[seller][lastBrand] = id */\n      dup4\n      swap1\n      sstore\n        /* \"contracts/supplier.sol\":16680:16819  if (id != lastId) {... */\n    tag_398:\n      sub(shl(0xa0, 0x01), 0x01)\n        /* \"contracts/supplier.sol\":16836:16860  _sellerBrandList[seller] */\n      dup1\n      dup7\n      and\n      0x00\n      dup2\n      dup2\n      mstore\n        /* \"contracts/supplier.sol\":16836:16852  _sellerBrandList */\n      0x12\n        /* \"contracts/supplier.sol\":16836:16860  _sellerBrandList[seller] */\n      0x20\n      swap1\n      dup2\n      mstore\n      0x40\n      dup1\n      dup4\n      keccak256\n        /* \"contracts/supplier.sol\":16836:16868  _sellerBrandList[seller][lastId] */\n      dup8\n      dup5\n      mstore\n      dup3\n      mstore\n      dup1\n      dup4\n      keccak256\n        /* \"contracts/supplier.sol\":16829:16868  delete _sellerBrandList[seller][lastId] */\n      dup1\n      sload\n      not(sub(shl(0xa0, 0x01), 0x01))\n      and\n      swap1\n      sstore\n        /* \"contracts/supplier.sol\":16886:16909  _sellerBrandIds[seller] */\n      dup4\n      dup4\n      mstore\n        /* \"contracts/supplier.sol\":16886:16901  _sellerBrandIds */\n      0x13\n        /* \"contracts/supplier.sol\":16886:16909  _sellerBrandIds[seller] */\n      dup3\n      mstore\n      dup1\n      dup4\n      keccak256\n        /* \"contracts/supplier.sol\":16886:16916  _sellerBrandIds[seller][brand] */\n      swap5\n      dup10\n      and\n      dup4\n      mstore\n      swap4\n      dup2\n      mstore\n      dup4\n      dup3\n      keccak256\n        /* \"contracts/supplier.sol\":16879:16916  delete _sellerBrandIds[seller][brand] */\n      dup3\n      swap1\n      sstore\n        /* \"contracts/supplier.sol\":16927:16955  _sellerBrandCounters[seller] */\n      swap2\n      dup2\n      mstore\n        /* \"contracts/supplier.sol\":16927:16947  _sellerBrandCounters */\n      0x14\n        /* \"contracts/supplier.sol\":16927:16955  _sellerBrandCounters[seller] */\n      swap1\n      swap2\n      mstore\n      keccak256\n        /* \"contracts/supplier.sol\":16927:16967  _sellerBrandCounters[seller].decrement() */\n      tag_390\n      swap1\n        /* \"contracts/supplier.sol\":16927:16965  _sellerBrandCounters[seller].decrement */\n      tag_391\n        /* \"contracts/supplier.sol\":16927:16967  _sellerBrandCounters[seller].decrement() */\n      jump\t// in\n        /* \"contracts/supplier.sol\":17024:17206  function _forwardFeeToDAO(uint256 amount) internal {... */\n    tag_189:\n        /* \"contracts/supplier.sol\":17108:17118  daoAddress */\n      sload(0x01)\n        /* \"contracts/supplier.sol\":17108:17142  daoAddress.call{value: amount}(\"\") */\n      mload(0x40)\n        /* \"contracts/supplier.sol\":17087:17102  bool successDao */\n      0x00\n      swap2\n      sub(shl(0xa0, 0x01), 0x01)\n        /* \"contracts/supplier.sol\":17108:17118  daoAddress */\n      and\n      swap1\n        /* \"contracts/supplier.sol\":17131:17137  amount */\n      dup4\n      swap1\n        /* \"contracts/supplier.sol\":17087:17102  bool successDao */\n      dup4\n        /* \"contracts/supplier.sol\":17108:17142  daoAddress.call{value: amount}(\"\") */\n      dup2\n        /* \"contracts/supplier.sol\":17087:17102  bool successDao */\n      dup2\n        /* \"contracts/supplier.sol\":17108:17142  daoAddress.call{value: amount}(\"\") */\n      dup2\n        /* \"contracts/supplier.sol\":17131:17137  amount */\n      dup6\n        /* \"contracts/supplier.sol\":17108:17118  daoAddress */\n      dup8\n        /* \"contracts/supplier.sol\":17108:17142  daoAddress.call{value: amount}(\"\") */\n      gas\n      call\n      swap3\n      pop\n      pop\n      pop\n      returndatasize\n      dup1\n      0x00\n      dup2\n      eq\n      tag_407\n      jumpi\n      mload(0x40)\n      swap2\n      pop\n      and(add(returndatasize, 0x3f), not(0x1f))\n      dup3\n      add\n      0x40\n      mstore\n      returndatasize\n      dup3\n      mstore\n      returndatasize\n      0x00\n      0x20\n      dup5\n      add\n      returndatacopy\n      jump(tag_406)\n    tag_407:\n      0x60\n      swap2\n      pop\n    tag_406:\n      pop\n        /* \"contracts/supplier.sol\":17086:17142  (bool successDao, ) = daoAddress.call{value: amount}(\"\") */\n      pop\n      swap1\n      pop\n        /* \"contracts/supplier.sol\":17161:17171  successDao */\n      dup1\n        /* \"contracts/supplier.sol\":17153:17198  require(successDao, \"Failed to transfer fee\") */\n      tag_408\n      jumpi\n      mload(0x40)\n      shl(0xe5, 0x461bcd)\n      dup2\n      mstore\n        /* \"#utility.yul\":10608:10610   */\n      0x20\n        /* \"contracts/supplier.sol\":17153:17198  require(successDao, \"Failed to transfer fee\") */\n      0x04\n      dup3\n      add\n        /* \"#utility.yul\":10590:10611   */\n      mstore\n        /* \"#utility.yul\":10647:10649   */\n      0x16\n        /* \"#utility.yul\":10627:10645   */\n      0x24\n      dup3\n      add\n        /* \"#utility.yul\":10620:10650   */\n      mstore\n      shl(0x50, 0x4661696c656420746f207472616e7366657220666565)\n        /* \"#utility.yul\":10666:10684   */\n      0x44\n      dup3\n      add\n        /* \"#utility.yul\":10659:10711   */\n      mstore\n        /* \"#utility.yul\":10728:10746   */\n      0x64\n      add\n        /* \"contracts/supplier.sol\":17153:17198  require(successDao, \"Failed to transfer fee\") */\n      tag_153\n        /* \"#utility.yul\":10406:10752   */\n      jump\n        /* \"contracts/supplier.sol\":17153:17198  require(successDao, \"Failed to transfer fee\") */\n    tag_408:\n        /* \"contracts/supplier.sol\":17075:17206  {... */\n      pop\n        /* \"contracts/supplier.sol\":17024:17206  function _forwardFeeToDAO(uint256 amount) internal {... */\n      pop\n      jump\t// out\n        /* \"@openzeppelin/contracts/security/ReentrancyGuard.sol\":2336:2623  function _nonReentrantBefore() private {... */\n    tag_288:\n        /* \"@openzeppelin/contracts/security/ReentrancyGuard.sol\":1759:1760  2 */\n      0x02\n        /* \"@openzeppelin/contracts/security/ReentrancyGuard.sol\":2468:2475  _status */\n      sload(0x00)\n        /* \"@openzeppelin/contracts/security/ReentrancyGuard.sol\":2468:2487  _status != _ENTERED */\n      sub\n        /* \"@openzeppelin/contracts/security/ReentrancyGuard.sol\":2460:2523  require(_status != _ENTERED, \"ReentrancyGuard: reentrant call\") */\n      tag_412\n      jumpi\n      mload(0x40)\n      shl(0xe5, 0x461bcd)\n      dup2\n      mstore\n        /* \"#utility.yul\":10959:10961   */\n      0x20\n        /* \"@openzeppelin/contracts/security/ReentrancyGuard.sol\":2460:2523  require(_status != _ENTERED, \"ReentrancyGuard: reentrant call\") */\n      0x04\n      dup3\n      add\n        /* \"#utility.yul\":10941:10962   */\n      mstore\n        /* \"#utility.yul\":10998:11000   */\n      0x1f\n        /* \"#utility.yul\":10978:10996   */\n      0x24\n      dup3\n      add\n        /* \"#utility.yul\":10971:11001   */\n      mstore\n        /* \"#utility.yul\":11037:11070   */\n      0x5265656e7472616e637947756172643a207265656e7472616e742063616c6c00\n        /* \"#utility.yul\":11017:11035   */\n      0x44\n      dup3\n      add\n        /* \"#utility.yul\":11010:11071   */\n      mstore\n        /* \"#utility.yul\":11088:11106   */\n      0x64\n      add\n        /* \"@openzeppelin/contracts/security/ReentrancyGuard.sol\":2460:2523  require(_status != _ENTERED, \"ReentrancyGuard: reentrant call\") */\n      tag_153\n        /* \"#utility.yul\":10757:11112   */\n      jump\n        /* \"@openzeppelin/contracts/security/ReentrancyGuard.sol\":2460:2523  require(_status != _ENTERED, \"ReentrancyGuard: reentrant call\") */\n    tag_412:\n        /* \"@openzeppelin/contracts/security/ReentrancyGuard.sol\":1759:1760  2 */\n      0x02\n        /* \"@openzeppelin/contracts/security/ReentrancyGuard.sol\":2598:2605  _status */\n      0x00\n        /* \"@openzeppelin/contracts/security/ReentrancyGuard.sol\":2598:2616  _status = _ENTERED */\n      sstore\n        /* \"@openzeppelin/contracts/security/ReentrancyGuard.sol\":2336:2623  function _nonReentrantBefore() private {... */\n      jump\t// out\n        /* \"contracts/supplier.sol\":15342:15850  function _removeFromRejectList(address brand, address agent) internal {... */\n    tag_323:\n      sub(shl(0xa0, 0x01), 0x01)\n        /* \"contracts/supplier.sol\":15436:15453  _rejectIds[brand] */\n      dup3\n      dup2\n      and\n        /* \"contracts/supplier.sol\":15423:15433  uint256 id */\n      0x00\n        /* \"contracts/supplier.sol\":15436:15453  _rejectIds[brand] */\n      dup2\n      dup2\n      mstore\n        /* \"contracts/supplier.sol\":15436:15446  _rejectIds */\n      0x10\n        /* \"contracts/supplier.sol\":15436:15453  _rejectIds[brand] */\n      0x20\n      swap1\n      dup2\n      mstore\n      0x40\n      dup1\n      dup4\n      keccak256\n        /* \"contracts/supplier.sol\":15436:15460  _rejectIds[brand][agent] */\n      dup7\n      dup7\n      and\n      dup5\n      mstore\n      dup3\n      mstore\n      dup1\n      dup4\n      keccak256\n      sload\n        /* \"contracts/supplier.sol\":15488:15510  _rejectCounters[brand] */\n      swap4\n      dup4\n      mstore\n        /* \"contracts/supplier.sol\":15488:15503  _rejectCounters */\n      0x11\n        /* \"contracts/supplier.sol\":15488:15510  _rejectCounters[brand] */\n      dup3\n      mstore\n      dup1\n      dup4\n      keccak256\n        /* \"@openzeppelin/contracts/utils/Counters.sol\":918:932  counter._value */\n      sload\n        /* \"contracts/supplier.sol\":15550:15561  _rejectList */\n      0x0f\n        /* \"contracts/supplier.sol\":15550:15568  _rejectList[brand] */\n      dup4\n      mstore\n      dup2\n      dup5\n      keccak256\n        /* \"contracts/supplier.sol\":15550:15576  _rejectList[brand][lastId] */\n      dup2\n      dup6\n      mstore\n      swap1\n      swap3\n      mstore\n      swap1\n      swap2\n      keccak256\n      sload\n        /* \"contracts/supplier.sol\":15436:15460  _rejectIds[brand][agent] */\n      swap2\n      swap3\n        /* \"@openzeppelin/contracts/utils/Counters.sol\":918:932  counter._value */\n      swap1\n      swap2\n        /* \"contracts/supplier.sol\":15550:15576  _rejectList[brand][lastId] */\n      and\n        /* \"contracts/supplier.sol\":15591:15603  id != lastId */\n      dup2\n      dup4\n      eq\n        /* \"contracts/supplier.sol\":15587:15712  if (id != lastId) {... */\n      tag_417\n      jumpi\n      sub(shl(0xa0, 0x01), 0x01)\n        /* \"contracts/supplier.sol\":15620:15638  _rejectList[brand] */\n      dup6\n      dup2\n      and\n      0x00\n      dup2\n      dup2\n      mstore\n        /* \"contracts/supplier.sol\":15620:15631  _rejectList */\n      0x0f\n        /* \"contracts/supplier.sol\":15620:15638  _rejectList[brand] */\n      0x20\n      swap1\n      dup2\n      mstore\n      0x40\n      dup1\n      dup4\n      keccak256\n        /* \"contracts/supplier.sol\":15620:15642  _rejectList[brand][id] */\n      dup9\n      dup5\n      mstore\n      dup3\n      mstore\n      dup1\n      dup4\n      keccak256\n        /* \"contracts/supplier.sol\":15620:15653  _rejectList[brand][id] = lastAddr */\n      dup1\n      sload\n      not(sub(shl(0xa0, 0x01), 0x01))\n      and\n      swap6\n      dup8\n      and\n      swap6\n      dup7\n      or\n      swap1\n      sstore\n        /* \"contracts/supplier.sol\":15668:15685  _rejectIds[brand] */\n      swap3\n      dup3\n      mstore\n        /* \"contracts/supplier.sol\":15668:15678  _rejectIds */\n      0x10\n        /* \"contracts/supplier.sol\":15668:15685  _rejectIds[brand] */\n      dup2\n      mstore\n      dup3\n      dup3\n      keccak256\n        /* \"contracts/supplier.sol\":15668:15695  _rejectIds[brand][lastAddr] */\n      swap4\n      dup3\n      mstore\n      swap3\n      swap1\n      swap3\n      mstore\n      swap1\n      keccak256\n        /* \"contracts/supplier.sol\":15668:15700  _rejectIds[brand][lastAddr] = id */\n      dup4\n      swap1\n      sstore\n        /* \"contracts/supplier.sol\":15587:15712  if (id != lastId) {... */\n    tag_417:\n      sub(shl(0xa0, 0x01), 0x01)\n        /* \"contracts/supplier.sol\":15729:15747  _rejectList[brand] */\n      dup1\n      dup7\n      and\n      0x00\n      dup2\n      dup2\n      mstore\n        /* \"contracts/supplier.sol\":15729:15740  _rejectList */\n      0x0f\n        /* \"contracts/supplier.sol\":15729:15747  _rejectList[brand] */\n      0x20\n      swap1\n      dup2\n      mstore\n      0x40\n      dup1\n      dup4\n      keccak256\n        /* \"contracts/supplier.sol\":15729:15755  _rejectList[brand][lastId] */\n      dup8\n      dup5\n      mstore\n      dup3\n      mstore\n      dup1\n      dup4\n      keccak256\n        /* \"contracts/supplier.sol\":15722:15755  delete _rejectList[brand][lastId] */\n      dup1\n      sload\n      not(sub(shl(0xa0, 0x01), 0x01))\n      and\n      swap1\n      sstore\n        /* \"contracts/supplier.sol\":15773:15790  _rejectIds[brand] */\n      dup4\n      dup4\n      mstore\n        /* \"contracts/supplier.sol\":15773:15783  _rejectIds */\n      0x10\n        /* \"contracts/supplier.sol\":15773:15790  _rejectIds[brand] */\n      dup3\n      mstore\n      dup1\n      dup4\n      keccak256\n        /* \"contracts/supplier.sol\":15773:15797  _rejectIds[brand][agent] */\n      swap5\n      dup10\n      and\n      dup4\n      mstore\n      swap4\n      dup2\n      mstore\n      dup4\n      dup3\n      keccak256\n        /* \"contracts/supplier.sol\":15766:15797  delete _rejectIds[brand][agent] */\n      dup3\n      swap1\n      sstore\n        /* \"contracts/supplier.sol\":15808:15830  _rejectCounters[brand] */\n      swap2\n      dup2\n      mstore\n        /* \"contracts/supplier.sol\":15808:15823  _rejectCounters */\n      0x11\n        /* \"contracts/supplier.sol\":15808:15830  _rejectCounters[brand] */\n      swap1\n      swap2\n      mstore\n      keccak256\n        /* \"contracts/supplier.sol\":15808:15842  _rejectCounters[brand].decrement() */\n      tag_390\n      swap1\n        /* \"@openzeppelin/contracts/utils/Counters.sol\":1074:1303  function decrement(Counter storage counter) internal {... */\n    tag_391:\n        /* \"@openzeppelin/contracts/utils/Counters.sol\":1153:1167  counter._value */\n      dup1\n      sload\n        /* \"@openzeppelin/contracts/utils/Counters.sol\":1185:1194  value > 0 */\n      dup1\n        /* \"@openzeppelin/contracts/utils/Counters.sol\":1177:1226  require(value > 0, \"Counter: decrement overflow\") */\n      tag_421\n      jumpi\n      mload(0x40)\n      shl(0xe5, 0x461bcd)\n      dup2\n      mstore\n        /* \"#utility.yul\":11319:11321   */\n      0x20\n        /* \"@openzeppelin/contracts/utils/Counters.sol\":1177:1226  require(value > 0, \"Counter: decrement overflow\") */\n      0x04\n      dup3\n      add\n        /* \"#utility.yul\":11301:11322   */\n      mstore\n        /* \"#utility.yul\":11358:11360   */\n      0x1b\n        /* \"#utility.yul\":11338:11356   */\n      0x24\n      dup3\n      add\n        /* \"#utility.yul\":11331:11361   */\n      mstore\n        /* \"#utility.yul\":11397:11426   */\n      0x436f756e7465723a2064656372656d656e74206f766572666c6f770000000000\n        /* \"#utility.yul\":11377:11395   */\n      0x44\n      dup3\n      add\n        /* \"#utility.yul\":11370:11427   */\n      mstore\n        /* \"#utility.yul\":11444:11462   */\n      0x64\n      add\n        /* \"@openzeppelin/contracts/utils/Counters.sol\":1177:1226  require(value > 0, \"Counter: decrement overflow\") */\n      tag_153\n        /* \"#utility.yul\":11117:11468   */\n      jump\n        /* \"@openzeppelin/contracts/utils/Counters.sol\":1177:1226  require(value > 0, \"Counter: decrement overflow\") */\n    tag_421:\n      not(0x00)\n        /* \"@openzeppelin/contracts/utils/Counters.sol\":1277:1286  value - 1 */\n      add\n        /* \"@openzeppelin/contracts/utils/Counters.sol\":1260:1286  counter._value = value - 1 */\n      swap1\n      sstore\n        /* \"@openzeppelin/contracts/utils/Counters.sol\":1074:1303  function decrement(Counter storage counter) internal {... */\n      jump\t// out\n        /* \"#utility.yul\":14:145   */\n    tag_424:\n      sub(shl(0xa0, 0x01), 0x01)\n        /* \"#utility.yul\":89:120   */\n      dup2\n      and\n        /* \"#utility.yul\":79:121   */\n      dup2\n      eq\n        /* \"#utility.yul\":69:139   */\n      tag_329\n      jumpi\n        /* \"#utility.yul\":135:136   */\n      0x00\n        /* \"#utility.yul\":132:133   */\n      0x00\n        /* \"#utility.yul\":125:137   */\n      revert\n        /* \"#utility.yul\":150:397   */\n    tag_30:\n        /* \"#utility.yul\":209:215   */\n      0x00\n        /* \"#utility.yul\":262:264   */\n      0x20\n        /* \"#utility.yul\":250:259   */\n      dup3\n        /* \"#utility.yul\":241:248   */\n      dup5\n        /* \"#utility.yul\":237:260   */\n      sub\n        /* \"#utility.yul\":233:265   */\n      slt\n        /* \"#utility.yul\":230:282   */\n      iszero\n      tag_430\n      jumpi\n        /* \"#utility.yul\":278:279   */\n      0x00\n        /* \"#utility.yul\":275:276   */\n      0x00\n        /* \"#utility.yul\":268:280   */\n      revert\n        /* \"#utility.yul\":230:282   */\n    tag_430:\n        /* \"#utility.yul\":317:326   */\n      dup2\n        /* \"#utility.yul\":304:327   */\n      calldataload\n        /* \"#utility.yul\":336:367   */\n      tag_256\n        /* \"#utility.yul\":361:366   */\n      dup2\n        /* \"#utility.yul\":336:367   */\n      tag_424\n      jump\t// in\n        /* \"#utility.yul\":594:982   */\n    tag_41:\n        /* \"#utility.yul\":662:668   */\n      0x00\n        /* \"#utility.yul\":670:676   */\n      0x00\n        /* \"#utility.yul\":723:725   */\n      0x40\n        /* \"#utility.yul\":711:720   */\n      dup4\n        /* \"#utility.yul\":702:709   */\n      dup6\n        /* \"#utility.yul\":698:721   */\n      sub\n        /* \"#utility.yul\":694:726   */\n      slt\n        /* \"#utility.yul\":691:743   */\n      iszero\n      tag_434\n      jumpi\n        /* \"#utility.yul\":739:740   */\n      0x00\n        /* \"#utility.yul\":736:737   */\n      0x00\n        /* \"#utility.yul\":729:741   */\n      revert\n        /* \"#utility.yul\":691:743   */\n    tag_434:\n        /* \"#utility.yul\":778:787   */\n      dup3\n        /* \"#utility.yul\":765:788   */\n      calldataload\n        /* \"#utility.yul\":797:828   */\n      tag_435\n        /* \"#utility.yul\":822:827   */\n      dup2\n        /* \"#utility.yul\":797:828   */\n      tag_424\n      jump\t// in\n    tag_435:\n        /* \"#utility.yul\":847:852   */\n      swap2\n      pop\n        /* \"#utility.yul\":904:906   */\n      0x20\n        /* \"#utility.yul\":889:907   */\n      dup4\n      add\n        /* \"#utility.yul\":876:908   */\n      calldataload\n        /* \"#utility.yul\":917:950   */\n      tag_436\n        /* \"#utility.yul\":876:908   */\n      dup2\n        /* \"#utility.yul\":917:950   */\n      tag_424\n      jump\t// in\n    tag_436:\n        /* \"#utility.yul\":969:976   */\n      dup1\n        /* \"#utility.yul\":959:976   */\n      swap2\n      pop\n      pop\n        /* \"#utility.yul\":594:982   */\n      swap3\n      pop\n      swap3\n      swap1\n      pop\n      jump\t// out\n        /* \"#utility.yul\":987:1114   */\n    tag_144:\n        /* \"#utility.yul\":1048:1058   */\n      0x4e487b71\n        /* \"#utility.yul\":1043:1046   */\n      0xe0\n        /* \"#utility.yul\":1039:1059   */\n      shl\n        /* \"#utility.yul\":1036:1037   */\n      0x00\n        /* \"#utility.yul\":1029:1060   */\n      mstore\n        /* \"#utility.yul\":1079:1083   */\n      0x21\n        /* \"#utility.yul\":1076:1077   */\n      0x04\n        /* \"#utility.yul\":1069:1084   */\n      mstore\n        /* \"#utility.yul\":1103:1107   */\n      0x24\n        /* \"#utility.yul\":1100:1101   */\n      0x00\n        /* \"#utility.yul\":1093:1108   */\n      revert\n        /* \"#utility.yul\":1119:1464   */\n    tag_44:\n        /* \"#utility.yul\":1268:1270   */\n      0x20\n        /* \"#utility.yul\":1253:1271   */\n      dup2\n      add\n        /* \"#utility.yul\":1301:1302   */\n      0x04\n        /* \"#utility.yul\":1290:1303   */\n      dup4\n      lt\n        /* \"#utility.yul\":1280:1424   */\n      tag_439\n      jumpi\n        /* \"#utility.yul\":1346:1356   */\n      0x4e487b71\n        /* \"#utility.yul\":1341:1344   */\n      0xe0\n        /* \"#utility.yul\":1337:1357   */\n      shl\n        /* \"#utility.yul\":1334:1335   */\n      0x00\n        /* \"#utility.yul\":1327:1358   */\n      mstore\n        /* \"#utility.yul\":1381:1385   */\n      0x21\n        /* \"#utility.yul\":1378:1379   */\n      0x04\n        /* \"#utility.yul\":1371:1386   */\n      mstore\n        /* \"#utility.yul\":1409:1413   */\n      0x24\n        /* \"#utility.yul\":1406:1407   */\n      0x00\n        /* \"#utility.yul\":1399:1414   */\n      revert\n        /* \"#utility.yul\":1280:1424   */\n    tag_439:\n        /* \"#utility.yul\":1433:1458   */\n      swap2\n      swap1\n      mstore\n        /* \"#utility.yul\":1119:1464   */\n      swap1\n      jump\t// out\n        /* \"#utility.yul\":1469:1836   */\n    tag_425:\n        /* \"#utility.yul\":1532:1540   */\n      0x00\n        /* \"#utility.yul\":1542:1548   */\n      0x00\n        /* \"#utility.yul\":1596:1599   */\n      dup4\n        /* \"#utility.yul\":1589:1593   */\n      0x1f\n        /* \"#utility.yul\":1581:1587   */\n      dup5\n        /* \"#utility.yul\":1577:1594   */\n      add\n        /* \"#utility.yul\":1573:1600   */\n      slt\n        /* \"#utility.yul\":1563:1618   */\n      tag_441\n      jumpi\n        /* \"#utility.yul\":1614:1615   */\n      0x00\n        /* \"#utility.yul\":1611:1612   */\n      0x00\n        /* \"#utility.yul\":1604:1616   */\n      revert\n        /* \"#utility.yul\":1563:1618   */\n    tag_441:\n      pop\n        /* \"#utility.yul\":1637:1657   */\n      dup2\n      calldataload\n        /* \"#utility.yul\":1680:1698   */\n      0xffffffffffffffff\n        /* \"#utility.yul\":1669:1699   */\n      dup2\n      gt\n        /* \"#utility.yul\":1666:1716   */\n      iszero\n      tag_442\n      jumpi\n        /* \"#utility.yul\":1712:1713   */\n      0x00\n        /* \"#utility.yul\":1709:1710   */\n      0x00\n        /* \"#utility.yul\":1702:1714   */\n      revert\n        /* \"#utility.yul\":1666:1716   */\n    tag_442:\n        /* \"#utility.yul\":1749:1753   */\n      0x20\n        /* \"#utility.yul\":1741:1747   */\n      dup4\n        /* \"#utility.yul\":1737:1754   */\n      add\n        /* \"#utility.yul\":1725:1754   */\n      swap2\n      pop\n        /* \"#utility.yul\":1809:1812   */\n      dup4\n        /* \"#utility.yul\":1802:1806   */\n      0x20\n        /* \"#utility.yul\":1792:1798   */\n      dup3\n        /* \"#utility.yul\":1789:1790   */\n      0x05\n        /* \"#utility.yul\":1785:1799   */\n      shl\n        /* \"#utility.yul\":1777:1783   */\n      dup6\n        /* \"#utility.yul\":1773:1800   */\n      add\n        /* \"#utility.yul\":1769:1807   */\n      add\n        /* \"#utility.yul\":1766:1813   */\n      gt\n        /* \"#utility.yul\":1763:1830   */\n      iszero\n      tag_443\n      jumpi\n        /* \"#utility.yul\":1826:1827   */\n      0x00\n        /* \"#utility.yul\":1823:1824   */\n      0x00\n        /* \"#utility.yul\":1816:1828   */\n      revert\n        /* \"#utility.yul\":1763:1830   */\n    tag_443:\n        /* \"#utility.yul\":1469:1836   */\n      swap3\n      pop\n      swap3\n      swap1\n      pop\n      jump\t// out\n        /* \"#utility.yul\":1841:2413   */\n    tag_48:\n        /* \"#utility.yul\":1936:1942   */\n      0x00\n        /* \"#utility.yul\":1944:1950   */\n      0x00\n        /* \"#utility.yul\":1952:1958   */\n      0x00\n        /* \"#utility.yul\":2005:2007   */\n      0x40\n        /* \"#utility.yul\":1993:2002   */\n      dup5\n        /* \"#utility.yul\":1984:1991   */\n      dup7\n        /* \"#utility.yul\":1980:2003   */\n      sub\n        /* \"#utility.yul\":1976:2008   */\n      slt\n        /* \"#utility.yul\":1973:2025   */\n      iszero\n      tag_445\n      jumpi\n        /* \"#utility.yul\":2021:2022   */\n      0x00\n        /* \"#utility.yul\":2018:2019   */\n      0x00\n        /* \"#utility.yul\":2011:2023   */\n      revert\n        /* \"#utility.yul\":1973:2025   */\n    tag_445:\n        /* \"#utility.yul\":2060:2069   */\n      dup4\n        /* \"#utility.yul\":2047:2070   */\n      calldataload\n        /* \"#utility.yul\":2079:2110   */\n      tag_446\n        /* \"#utility.yul\":2104:2109   */\n      dup2\n        /* \"#utility.yul\":2079:2110   */\n      tag_424\n      jump\t// in\n    tag_446:\n        /* \"#utility.yul\":2129:2134   */\n      swap3\n      pop\n        /* \"#utility.yul\":2185:2187   */\n      0x20\n        /* \"#utility.yul\":2170:2188   */\n      dup5\n      add\n        /* \"#utility.yul\":2157:2189   */\n      calldataload\n        /* \"#utility.yul\":2212:2230   */\n      0xffffffffffffffff\n        /* \"#utility.yul\":2201:2231   */\n      dup2\n      gt\n        /* \"#utility.yul\":2198:2248   */\n      iszero\n      tag_447\n      jumpi\n        /* \"#utility.yul\":2244:2245   */\n      0x00\n        /* \"#utility.yul\":2241:2242   */\n      0x00\n        /* \"#utility.yul\":2234:2246   */\n      revert\n        /* \"#utility.yul\":2198:2248   */\n    tag_447:\n        /* \"#utility.yul\":2283:2353   */\n      tag_448\n        /* \"#utility.yul\":2345:2352   */\n      dup7\n        /* \"#utility.yul\":2336:2342   */\n      dup3\n        /* \"#utility.yul\":2325:2334   */\n      dup8\n        /* \"#utility.yul\":2321:2343   */\n      add\n        /* \"#utility.yul\":2283:2353   */\n      tag_425\n      jump\t// in\n    tag_448:\n        /* \"#utility.yul\":1841:2413   */\n      swap5\n      swap8\n        /* \"#utility.yul\":2372:2380   */\n      swap1\n      swap7\n      pop\n        /* \"#utility.yul\":2257:2353   */\n      swap4\n      swap5\n      pop\n      pop\n      pop\n      pop\n        /* \"#utility.yul\":1841:2413   */\n      jump\t// out\n        /* \"#utility.yul\":2418:3055   */\n    tag_51:\n        /* \"#utility.yul\":2608:2610   */\n      0x20\n        /* \"#utility.yul\":2620:2641   */\n      dup1\n      dup3\n      mstore\n        /* \"#utility.yul\":2690:2703   */\n      dup3\n      mload\n        /* \"#utility.yul\":2593:2611   */\n      dup3\n      dup3\n      add\n        /* \"#utility.yul\":2712:2734   */\n      dup2\n      swap1\n      mstore\n        /* \"#utility.yul\":2560:2564   */\n      0x00\n      swap2\n        /* \"#utility.yul\":2791:2806   */\n      dup5\n      add\n      swap1\n        /* \"#utility.yul\":2765:2767   */\n      0x40\n        /* \"#utility.yul\":2750:2768   */\n      dup5\n      add\n      swap1\n        /* \"#utility.yul\":2560:2564   */\n      dup4\n        /* \"#utility.yul\":2834:3029   */\n    tag_450:\n        /* \"#utility.yul\":2848:2854   */\n      dup2\n        /* \"#utility.yul\":2845:2846   */\n      dup2\n        /* \"#utility.yul\":2842:2855   */\n      lt\n        /* \"#utility.yul\":2834:3029   */\n      iszero\n      tag_452\n      jumpi\n        /* \"#utility.yul\":2913:2926   */\n      dup4\n      mload\n      sub(shl(0xa0, 0x01), 0x01)\n        /* \"#utility.yul\":2909:2948   */\n      and\n        /* \"#utility.yul\":2897:2949   */\n      dup4\n      mstore\n        /* \"#utility.yul\":2978:2980   */\n      0x20\n        /* \"#utility.yul\":3004:3019   */\n      swap4\n      dup5\n      add\n      swap4\n        /* \"#utility.yul\":2969:2981   */\n      swap1\n      swap3\n      add\n      swap2\n        /* \"#utility.yul\":2945:2946   */\n      0x01\n        /* \"#utility.yul\":2863:2872   */\n      add\n        /* \"#utility.yul\":2834:3029   */\n      jump(tag_450)\n    tag_452:\n      pop\n        /* \"#utility.yul\":3046:3049   */\n      swap1\n      swap6\n        /* \"#utility.yul\":2418:3055   */\n      swap5\n      pop\n      pop\n      pop\n      pop\n      pop\n      jump\t// out\n        /* \"#utility.yul\":3268:3448   */\n    tag_72:\n        /* \"#utility.yul\":3327:3333   */\n      0x00\n        /* \"#utility.yul\":3380:3382   */\n      0x20\n        /* \"#utility.yul\":3368:3377   */\n      dup3\n        /* \"#utility.yul\":3359:3366   */\n      dup5\n        /* \"#utility.yul\":3355:3378   */\n      sub\n        /* \"#utility.yul\":3351:3383   */\n      slt\n        /* \"#utility.yul\":3348:3400   */\n      iszero\n      tag_455\n      jumpi\n        /* \"#utility.yul\":3396:3397   */\n      0x00\n        /* \"#utility.yul\":3393:3394   */\n      0x00\n        /* \"#utility.yul\":3386:3398   */\n      revert\n        /* \"#utility.yul\":3348:3400   */\n    tag_455:\n      pop\n        /* \"#utility.yul\":3419:3442   */\n      calldataload\n      swap2\n        /* \"#utility.yul\":3268:3448   */\n      swap1\n      pop\n      jump\t// out\n        /* \"#utility.yul\":3635:4072   */\n    tag_116:\n        /* \"#utility.yul\":3721:3727   */\n      0x00\n        /* \"#utility.yul\":3729:3735   */\n      0x00\n        /* \"#utility.yul\":3782:3784   */\n      0x20\n        /* \"#utility.yul\":3770:3779   */\n      dup4\n        /* \"#utility.yul\":3761:3768   */\n      dup6\n        /* \"#utility.yul\":3757:3780   */\n      sub\n        /* \"#utility.yul\":3753:3785   */\n      slt\n        /* \"#utility.yul\":3750:3802   */\n      iszero\n      tag_458\n      jumpi\n        /* \"#utility.yul\":3798:3799   */\n      0x00\n        /* \"#utility.yul\":3795:3796   */\n      0x00\n        /* \"#utility.yul\":3788:3800   */\n      revert\n        /* \"#utility.yul\":3750:3802   */\n    tag_458:\n        /* \"#utility.yul\":3838:3847   */\n      dup3\n        /* \"#utility.yul\":3825:3848   */\n      calldataload\n        /* \"#utility.yul\":3871:3889   */\n      0xffffffffffffffff\n        /* \"#utility.yul\":3863:3869   */\n      dup2\n        /* \"#utility.yul\":3860:3890   */\n      gt\n        /* \"#utility.yul\":3857:3907   */\n      iszero\n      tag_459\n      jumpi\n        /* \"#utility.yul\":3903:3904   */\n      0x00\n        /* \"#utility.yul\":3900:3901   */\n      0x00\n        /* \"#utility.yul\":3893:3905   */\n      revert\n        /* \"#utility.yul\":3857:3907   */\n    tag_459:\n        /* \"#utility.yul\":3942:4012   */\n      tag_460\n        /* \"#utility.yul\":4004:4011   */\n      dup6\n        /* \"#utility.yul\":3995:4001   */\n      dup3\n        /* \"#utility.yul\":3984:3993   */\n      dup7\n        /* \"#utility.yul\":3980:4002   */\n      add\n        /* \"#utility.yul\":3942:4012   */\n      tag_425\n      jump\t// in\n    tag_460:\n        /* \"#utility.yul\":4031:4039   */\n      swap1\n      swap7\n        /* \"#utility.yul\":3916:4012   */\n      swap1\n      swap6\n      pop\n        /* \"#utility.yul\":3635:4072   */\n      swap4\n      pop\n      pop\n      pop\n      pop\n      jump\t// out\n        /* \"#utility.yul\":4427:4997   */\n    tag_158:\n        /* \"#utility.yul\":4524:4530   */\n      0x00\n        /* \"#utility.yul\":4532:4538   */\n      0x00\n        /* \"#utility.yul\":4540:4546   */\n      0x00\n        /* \"#utility.yul\":4548:4554   */\n      0x00\n        /* \"#utility.yul\":4601:4604   */\n      0x80\n        /* \"#utility.yul\":4589:4598   */\n      dup6\n        /* \"#utility.yul\":4580:4587   */\n      dup8\n        /* \"#utility.yul\":4576:4599   */\n      sub\n        /* \"#utility.yul\":4572:4605   */\n      slt\n        /* \"#utility.yul\":4569:4622   */\n      iszero\n      tag_463\n      jumpi\n        /* \"#utility.yul\":4618:4619   */\n      0x00\n        /* \"#utility.yul\":4615:4616   */\n      0x00\n        /* \"#utility.yul\":4608:4620   */\n      revert\n        /* \"#utility.yul\":4569:4622   */\n    tag_463:\n      pop\n      pop\n        /* \"#utility.yul\":4663:4679   */\n      dup3\n      mload\n        /* \"#utility.yul\":4769:4771   */\n      0x20\n        /* \"#utility.yul\":4754:4772   */\n      dup5\n      add\n        /* \"#utility.yul\":4748:4773   */\n      mload\n        /* \"#utility.yul\":4865:4867   */\n      0x40\n        /* \"#utility.yul\":4850:4868   */\n      dup6\n      add\n        /* \"#utility.yul\":4844:4869   */\n      mload\n        /* \"#utility.yul\":4961:4963   */\n      0x60\n        /* \"#utility.yul\":4946:4964   */\n      swap1\n      swap6\n      add\n        /* \"#utility.yul\":4940:4965   */\n      mload\n        /* \"#utility.yul\":4663:4679   */\n      swap2\n      swap7\n        /* \"#utility.yul\":4748:4773   */\n      swap1\n      swap6\n      pop\n        /* \"#utility.yul\":4940:4965   */\n      swap1\n      swap3\n      pop\n        /* \"#utility.yul\":4427:4997   */\n      swap1\n      pop\n      jump\t// out\n        /* \"#utility.yul\":5002:5342   */\n    tag_161:\n        /* \"#utility.yul\":5204:5206   */\n      0x20\n        /* \"#utility.yul\":5186:5207   */\n      dup1\n      dup3\n      mstore\n        /* \"#utility.yul\":5243:5245   */\n      0x10\n        /* \"#utility.yul\":5223:5241   */\n      swap1\n      dup3\n      add\n        /* \"#utility.yul\":5216:5246   */\n      mstore\n      shl(0x80, 0x496e73756666696369656e7420666565)\n        /* \"#utility.yul\":5277:5279   */\n      0x40\n        /* \"#utility.yul\":5262:5280   */\n      dup3\n      add\n        /* \"#utility.yul\":5255:5301   */\n      mstore\n        /* \"#utility.yul\":5333:5335   */\n      0x60\n        /* \"#utility.yul\":5318:5336   */\n      add\n      swap1\n        /* \"#utility.yul\":5002:5342   */\n      jump\t// out\n        /* \"#utility.yul\":5690:5817   */\n    tag_195:\n        /* \"#utility.yul\":5751:5761   */\n      0x4e487b71\n        /* \"#utility.yul\":5746:5749   */\n      0xe0\n        /* \"#utility.yul\":5742:5762   */\n      shl\n        /* \"#utility.yul\":5739:5740   */\n      0x00\n        /* \"#utility.yul\":5732:5763   */\n      mstore\n        /* \"#utility.yul\":5782:5786   */\n      0x41\n        /* \"#utility.yul\":5779:5780   */\n      0x04\n        /* \"#utility.yul\":5772:5787   */\n      mstore\n        /* \"#utility.yul\":5806:5810   */\n      0x24\n        /* \"#utility.yul\":5803:5804   */\n      0x00\n        /* \"#utility.yul\":5796:5811   */\n      revert\n        /* \"#utility.yul\":5822:5949   */\n    tag_202:\n        /* \"#utility.yul\":5883:5893   */\n      0x4e487b71\n        /* \"#utility.yul\":5878:5881   */\n      0xe0\n        /* \"#utility.yul\":5874:5894   */\n      shl\n        /* \"#utility.yul\":5871:5872   */\n      0x00\n        /* \"#utility.yul\":5864:5895   */\n      mstore\n        /* \"#utility.yul\":5914:5918   */\n      0x32\n        /* \"#utility.yul\":5911:5912   */\n      0x04\n        /* \"#utility.yul\":5904:5919   */\n      mstore\n        /* \"#utility.yul\":5938:5942   */\n      0x24\n        /* \"#utility.yul\":5935:5936   */\n      0x00\n        /* \"#utility.yul\":5928:5943   */\n      revert\n        /* \"#utility.yul\":6301:6644   */\n    tag_212:\n        /* \"#utility.yul\":6380:6386   */\n      0x00\n        /* \"#utility.yul\":6388:6394   */\n      0x00\n        /* \"#utility.yul\":6441:6443   */\n      0x40\n        /* \"#utility.yul\":6429:6438   */\n      dup4\n        /* \"#utility.yul\":6420:6427   */\n      dup6\n        /* \"#utility.yul\":6416:6439   */\n      sub\n        /* \"#utility.yul\":6412:6444   */\n      slt\n        /* \"#utility.yul\":6409:6461   */\n      iszero\n      tag_470\n      jumpi\n        /* \"#utility.yul\":6457:6458   */\n      0x00\n        /* \"#utility.yul\":6454:6455   */\n      0x00\n        /* \"#utility.yul\":6447:6459   */\n      revert\n        /* \"#utility.yul\":6409:6461   */\n    tag_470:\n      pop\n      pop\n        /* \"#utility.yul\":6502:6518   */\n      dup1\n      mload\n        /* \"#utility.yul\":6608:6610   */\n      0x20\n        /* \"#utility.yul\":6593:6611   */\n      swap1\n      swap2\n      add\n        /* \"#utility.yul\":6587:6612   */\n      mload\n        /* \"#utility.yul\":6502:6518   */\n      swap1\n      swap3\n        /* \"#utility.yul\":6587:6612   */\n      swap1\n      swap2\n      pop\n        /* \"#utility.yul\":6301:6644   */\n      jump\t// out\n        /* \"#utility.yul\":6649:6879   */\n    tag_217:\n        /* \"#utility.yul\":6719:6725   */\n      0x00\n        /* \"#utility.yul\":6772:6774   */\n      0x20\n        /* \"#utility.yul\":6760:6769   */\n      dup3\n        /* \"#utility.yul\":6751:6758   */\n      dup5\n        /* \"#utility.yul\":6747:6770   */\n      sub\n        /* \"#utility.yul\":6743:6775   */\n      slt\n        /* \"#utility.yul\":6740:6792   */\n      iszero\n      tag_472\n      jumpi\n        /* \"#utility.yul\":6788:6789   */\n      0x00\n        /* \"#utility.yul\":6785:6786   */\n      0x00\n        /* \"#utility.yul\":6778:6790   */\n      revert\n        /* \"#utility.yul\":6740:6792   */\n    tag_472:\n      pop\n        /* \"#utility.yul\":6833:6849   */\n      mload\n      swap2\n        /* \"#utility.yul\":6649:6879   */\n      swap1\n      pop\n      jump\t// out\n        /* \"#utility.yul\":7231:7508   */\n    tag_230:\n        /* \"#utility.yul\":7298:7304   */\n      0x00\n        /* \"#utility.yul\":7351:7353   */\n      0x20\n        /* \"#utility.yul\":7339:7348   */\n      dup3\n        /* \"#utility.yul\":7330:7337   */\n      dup5\n        /* \"#utility.yul\":7326:7349   */\n      sub\n        /* \"#utility.yul\":7322:7354   */\n      slt\n        /* \"#utility.yul\":7319:7371   */\n      iszero\n      tag_475\n      jumpi\n        /* \"#utility.yul\":7367:7368   */\n      0x00\n        /* \"#utility.yul\":7364:7365   */\n      0x00\n        /* \"#utility.yul\":7357:7369   */\n      revert\n        /* \"#utility.yul\":7319:7371   */\n    tag_475:\n        /* \"#utility.yul\":7399:7408   */\n      dup2\n        /* \"#utility.yul\":7393:7409   */\n      mload\n        /* \"#utility.yul\":7452:7457   */\n      dup1\n        /* \"#utility.yul\":7445:7458   */\n      iszero\n        /* \"#utility.yul\":7438:7459   */\n      iszero\n        /* \"#utility.yul\":7431:7436   */\n      dup2\n        /* \"#utility.yul\":7428:7460   */\n      eq\n        /* \"#utility.yul\":7418:7478   */\n      tag_256\n      jumpi\n        /* \"#utility.yul\":7474:7475   */\n      0x00\n        /* \"#utility.yul\":7471:7472   */\n      0x00\n        /* \"#utility.yul\":7464:7476   */\n      revert\n        /* \"#utility.yul\":7863:8114   */\n    tag_238:\n        /* \"#utility.yul\":7933:7939   */\n      0x00\n        /* \"#utility.yul\":7986:7988   */\n      0x20\n        /* \"#utility.yul\":7974:7983   */\n      dup3\n        /* \"#utility.yul\":7965:7972   */\n      dup5\n        /* \"#utility.yul\":7961:7984   */\n      sub\n        /* \"#utility.yul\":7957:7989   */\n      slt\n        /* \"#utility.yul\":7954:8006   */\n      iszero\n      tag_479\n      jumpi\n        /* \"#utility.yul\":8002:8003   */\n      0x00\n        /* \"#utility.yul\":7999:8000   */\n      0x00\n        /* \"#utility.yul\":7992:8004   */\n      revert\n        /* \"#utility.yul\":7954:8006   */\n    tag_479:\n        /* \"#utility.yul\":8034:8043   */\n      dup2\n        /* \"#utility.yul\":8028:8044   */\n      mload\n        /* \"#utility.yul\":8053:8084   */\n      tag_256\n        /* \"#utility.yul\":8078:8083   */\n      dup2\n        /* \"#utility.yul\":8053:8084   */\n      tag_424\n      jump\t// in\n\n    auxdata: 0xa2646970667358221220a4906c7997ca0055d506c3fb13c9808eb15c1a9d02f8b57583eabb415ecb510964736f6c634300081f0033\n}\n",
				"bytecode": {
					"linkReferences": {},
					"object": "608060405234801561000f575f5ffd5b50604051611ff4380380611ff483398101604081905261002e916100df565b60015f81905580546001600160a01b0383166001600160a01b0319918216811790925560028054909116821790556040805163c62bfd8f60e01b8152905163c62bfd8f916004808201926020929091908290030181865afa158015610095573d5f5f3e3d5ffd5b505050506040513d601f19601f820116820180604052508101906100b991906100df565b600380546001600160a01b0319166001600160a01b03929092169190911790555061010c565b5f602082840312156100ef575f5ffd5b81516001600160a01b0381168114610105575f5ffd5b9392505050565b611edb806101195f395ff3fe60806040526004361061013b575f3560e01c8063621574d4116100b3578063cf96f1e81161006d578063cf96f1e8146103f2578063d016588c14610411578063dc1ad72514610430578063e3b231b514610443578063ea1e7a691461047a578063f71b007b14610499575f5ffd5b8063621574d4146103285780636da8756d1461036c57806394ed8fcc1461038b578063a7972584146103aa578063ada49963146103bd578063c7568eff146103dc575f5ffd5b80632131c68c116101045780632131c68c14610233578063392c45271461026a5780633f1c06f3146102895780634907c36a146102a85780634affb863146102dc5780635bfc2bc1146102fb575f5ffd5b8062867f531461013f57806305a5562d1461015457806313a938c81461019f57806316500891146101f35780631e2b2d2c1461021f575b5f5ffd5b61015261014d366004611be7565b6104b8565b005b34801561015f575f5ffd5b5061018a61016e366004611be7565b6001600160a01b03165f90815260056020526040902054151590565b60405190151581526020015b60405180910390f35b3480156101aa575f5ffd5b506101e66101b9366004611c02565b6001600160a01b039182165f90815260156020908152604080832093909416825291909152205460ff1690565b6040516101969190611c4d565b3480156101fe575f5ffd5b5061021261020d366004611cbb565b610740565b6040516101969190611d0c565b34801561022a575f5ffd5b5061015261081e565b34801561023e575f5ffd5b50600154610252906001600160a01b031681565b6040516001600160a01b039091168152602001610196565b348015610275575f5ffd5b50610152610284366004611be7565b610a1c565b348015610294575f5ffd5b506102126102a3366004611cbb565b610c07565b3480156102b3575f5ffd5b506102526102c2366004611d57565b5f908152600460205260409020546001600160a01b031690565b3480156102e7575f5ffd5b5061018a6102f6366004611c02565b610cdc565b348015610306575f5ffd5b5061031a610315366004611be7565b610d3c565b604051908152602001610196565b348015610333575f5ffd5b5061031a610342366004611c02565b6001600160a01b039182165f908152600a6020908152604080832093909416825291909152205490565b348015610377575f5ffd5b50610212610386366004611cbb565b610d5b565b348015610396575f5ffd5b506102126103a5366004611cbb565b610e30565b6101526103b8366004611be7565b610f05565b3480156103c8575f5ffd5b5061031a6103d7366004611be7565b6111ad565b3480156103e7575f5ffd5b5060065461031a9081565b3480156103fd575f5ffd5b5061021261040c366004611d6e565b6111ca565b34801561041c575f5ffd5b5061031a61042b366004611be7565b61128c565b61015261043e366004611be7565b6112a9565b34801561044e575f5ffd5b5061018a61045d366004611be7565b6001600160a01b03165f9081526007602052604090205460ff1690565b348015610485575f5ffd5b50610152610494366004611be7565b61151d565b3480156104a4575f5ffd5b5061031a6104b3366004611be7565b61168d565b335f8181526015602090815260408083206001600160a01b038616845290915290205460ff1660018160038111156104f2576104f2611c39565b148061050f5750600281600381111561050d5761050d611c39565b145b6105585760405162461bcd60e51b81526020600482015260156024820152744f6e6c792070656e64696e6720726571756573747360581b60448201526064015b60405180910390fd5b600254604080516202eab760e01b815290515f926001600160a01b0316916202eab79160048083019260809291908290030181865afa15801561059d573d5f5f3e3d5ffd5b505050506040513d601f19601f820116820180604052508101906105c19190611dad565b5092505050803410156105e65760405162461bcd60e51b815260040161054f90611de0565b60018260038111156105fa576105fa611c39565b0361060e5761060983856116aa565b610674565b600282600381111561062257610622611c39565b0361063b5761063183856117a8565b610609848461189f565b60405162461bcd60e51b815260206004820152600e60248201526d496e76616c69642073746174757360901b604482015260640161054f565b6001600160a01b038381165f818152601160209081526040808320805460010190819055600f835281842081855283528184208054968b166001600160a01b0319909716871790558484526010835281842086855283528184208190559383526015825280832094835293905291909120805460ff191660031790556106f934611996565b846001600160a01b0316846001600160a01b03167f5ef61c82a05b2947fa2b06a1a2f856cdab0923b82d03cf70f322fc055bf37b0160405160405180910390a35050505050565b60605f8267ffffffffffffffff81111561075c5761075c611e0a565b604051908082528060200260200182016040528015610785578160200160208202803683370190505b5090505f5b83811015610815576001600160a01b0386165f908152601260205260408120908686848181106107bc576107bc611e1e565b9050602002013581526020019081526020015f205f9054906101000a90046001600160a01b03168282815181106107f5576107f5611e1e565b6001600160a01b039092166020928302919091019091015260010161078a565b50949350505050565b335f908152600560205260409020541561086f5760405162461bcd60e51b8152602060048201526012602482015271105b1c9958591e481c9959da5cdd195c995960721b604482015260640161054f565b60025460408051632b88e1db60e21b815281515f936001600160a01b03169263ae23876c92600480820193918290030181865afa1580156108b2573d5f5f3e3d5ffd5b505050506040513d601f19601f820116820180604052508101906108d69190611e32565b50600354604051632435181760e11b815233600482015291925082916001600160a01b039091169063486a302e90602401602060405180830381865afa158015610922573d5f5f3e3d5ffd5b505050506040513d601f19601f820116820180604052508101906109469190611e54565b10156109895760405162461bcd60e51b8152602060048201526012602482015271496e73756666696369656e7420737461636b60701b604482015260640161054f565b610997600680546001019055565b3360045f6109a460065490565b815260208101919091526040015f2080546001600160a01b0319166001600160a01b0392909216919091179055600654335f8181526005602090815260409182902093909355519081527f02de07d8aeac43a97fdb9b5d3487e8a1f295211cacd4e1c4c2cc917ba3d19cd2910160405180910390a150565b600254604051637ee312c560e11b81523360048201526001600160a01b039091169063fdc6258a90602401602060405180830381865afa158015610a62573d5f5f3e3d5ffd5b505050506040513d601f19601f82011682018060405250810190610a869190611e6b565b610aca5760405162461bcd60e51b815260206004820152601560248201527413db9b1e481c995d9a595dd95c88185b1b1bddd959605a1b604482015260640161054f565b6002546040805163570ca73560e01b815290515f926001600160a01b03169163570ca7359160048083019260209291908290030181865afa158015610b11573d5f5f3e3d5ffd5b505050506040513d601f19601f82011682018060405250810190610b359190611e8a565b6001600160a01b038381165f9081526008602052604090205491925016331480610b6757506001600160a01b03811633145b610ba65760405162461bcd60e51b815260206004820152601060248201526f24b73b30b634b2103b32b934b334b2b960811b604482015260640161054f565b6001600160a01b0382165f818152600760209081526040808320805460ff19169055600890915280822080546001600160a01b0319169055517fa4099d5ee8509055e59f9f724d33f27f8d2da9294e7d7c23a2cc37dd1af4254c9190a25050565b60605f8267ffffffffffffffff811115610c2357610c23611e0a565b604051908082528060200260200182016040528015610c4c578160200160208202803683370190505b5090505f5b83811015610815576001600160a01b0386165f908152600c6020526040812090868684818110610c8357610c83611e1e565b9050602002013581526020019081526020015f205f9054906101000a90046001600160a01b0316828281518110610cbc57610cbc611e1e565b6001600160a01b0390921660209283029190910190910152600101610c51565b5f816001600160a01b0316836001600160a01b03161480610d35575060026001600160a01b038085165f9081526015602090815260408083209387168352929052205460ff166003811115610d3357610d33611c39565b145b9392505050565b6001600160a01b0381165f908152601160205260408120545b92915050565b60605f8267ffffffffffffffff811115610d7757610d77611e0a565b604051908082528060200260200182016040528015610da0578160200160208202803683370190505b5090505f5b83811015610815576001600160a01b0386165f90815260096020526040812090868684818110610dd757610dd7611e1e565b9050602002013581526020019081526020015f205f9054906101000a90046001600160a01b0316828281518110610e1057610e10611e1e565b6001600160a01b0390921660209283029190910190910152600101610da5565b60605f8267ffffffffffffffff811115610e4c57610e4c611e0a565b604051908082528060200260200182016040528015610e75578160200160208202803683370190505b5090505f5b83811015610815576001600160a01b0386165f908152600f6020526040812090868684818110610eac57610eac611e1e565b9050602002013581526020019081526020015f205f9054906101000a90046001600160a01b0316828281518110610ee557610ee5611e1e565b6001600160a01b0390921660209283029190910190910152600101610e7a565b610f0d611a33565b335f8181526007602052604090205460ff16610f625760405162461bcd60e51b81526020600482015260146024820152734f6e6c79207665726966696564206272616e647360601b604482015260640161054f565b6001600160a01b038082165f9081526015602090815260408083209386168352929052205460ff166001816003811115610f9e57610f9e611c39565b1480610fbb57506003816003811115610fb957610fb9611c39565b145b610fff5760405162461bcd60e51b8152602060048201526015602482015274125b9d985b1a59081d985b1a59081c995c5d595cdd605a1b604482015260640161054f565b600254604080516202eab760e01b815290515f926001600160a01b0316916202eab79160048083019260809291908290030181865afa158015611044573d5f5f3e3d5ffd5b505050506040513d601f19601f820116820180604052508101906110689190611dad565b50925050508034101561108d5760405162461bcd60e51b815260040161054f90611de0565b60018260038111156110a1576110a1611c39565b036110b5576110b083856116aa565b6110d8565b60038260038111156110c9576110c9611c39565b036110d8576110d88385611a8a565b6001600160a01b038381165f818152600b602090815260408083208054600101908190556009835281842081855283528184208054968b166001600160a01b031990971687179055848452600a835281842086855283528184208190559383526015825280832094835293905291909120805460ff1916600217905561115d34611996565b846001600160a01b0316846001600160a01b03167fd8992b24803669ffd1d156b9eadb0a7da92032a46b0708bcc3a4f60022a726df60405160405180910390a3505050506111aa60015f55565b50565b6001600160a01b0381165f908152600e6020526040812054610d55565b6060815f8167ffffffffffffffff8111156111e7576111e7611e0a565b604051908082528060200260200182016040528015611210578160200160208202803683370190505b5090505f5b82811015610815575f86868381811061123057611230611e1e565b602090810292909201355f818152600490935260409092205485519293506001600160a01b0316918591508490811061126b5761126b611e1e565b6001600160a01b039092166020928302919091019091015250600101611215565b6001600160a01b0381165f90815260146020526040812054610d55565b6112b1611a33565b6001600160a01b0381165f90815260056020526040812054900361130e5760405162461bcd60e51b8152602060048201526014602482015273109c985b9908191bd95cc81b9bdd08195e1a5cdd60621b604482015260640161054f565b6001600160a01b0381165f90815260156020908152604080832033845290915281205460ff169081600381111561134757611347611c39565b1461137e5760405162461bcd60e51b8152602060048201526007602482015266125b9d985b1a5960ca1b604482015260640161054f565b600254604080516202eab760e01b815290515f926001600160a01b0316916202eab79160048083019260809291908290030181865afa1580156113c3573d5f5f3e3d5ffd5b505050506040513d601f19601f820116820180604052508101906113e79190611dad565b93505050508034101561140c5760405162461bcd60e51b815260040161054f90611de0565b6001600160a01b0383165f81815260156020908152604080832033808552908352818420805460ff19166001908117909155858552600e84528285208054820190819055600c8552838620818752855283862080546001600160a01b03199081168517909155878752600d86528487208488528652848720829055601486528487208054909301928390556012865284872083885286528487208054909116881790559185526013845282852095855294909252909120829055906114d034611996565b60405134815233906001600160a01b038716907ff1b303465690b52f1d1dacb63b15455dab055fd54ef576baff456d55e76603f49060200160405180910390a3505050506111aa60015f55565b600254604051637ee312c560e11b81523360048201526001600160a01b039091169063fdc6258a90602401602060405180830381865afa158015611563573d5f5f3e3d5ffd5b505050506040513d601f19601f820116820180604052508101906115879190611e6b565b6115cb5760405162461bcd60e51b815260206004820152601560248201527413db9b1e481c995d9a595dd95c88185b1b1bddd959605a1b604482015260640161054f565b6001600160a01b0381165f9081526005602052604081205490036116285760405162461bcd60e51b8152602060048201526014602482015273109c985b99081b9bdd081c9959da5cdd195c995960621b604482015260640161054f565b6001600160a01b0381165f818152600760209081526040808320805460ff19166001179055600890915280822080546001600160a01b03191633179055517f1c040312dae2a5129751252fe2bcbc8c80eafaff09af9be184e641cf8809682f9190a250565b6001600160a01b0381165f908152600b6020526040812054610d55565b6001600160a01b038281165f818152600d602090815260408083208686168452825280832054938352600e825280832054600c8352818420818552909252909120549192909116818314611746576001600160a01b038581165f818152600c60209081526040808320888452825280832080546001600160a01b0319169587169586179055928252600d81528282209382529290925290208390555b6001600160a01b038086165f818152600c60209081526040808320878452825280832080546001600160a01b0319169055838352600d82528083209489168352938152838220829055918152600e909152206117a190611b7d565b5050505050565b6001600160a01b038281165f818152600a602090815260408083208686168452825280832054938352600b82528083205460098352818420818552909252909120549192909116818314611844576001600160a01b038581165f818152600960209081526040808320888452825280832080546001600160a01b0319169587169586179055928252600a81528282209382529290925290208390555b6001600160a01b038086165f818152600960209081526040808320878452825280832080546001600160a01b0319169055838352600a82528083209489168352938152838220829055918152600b909152206117a190611b7d565b6001600160a01b038281165f818152601360209081526040808320868616845282528083205493835260148252808320546012835281842081855290925290912054919290911681831461193b576001600160a01b038581165f818152601260209081526040808320888452825280832080546001600160a01b0319169587169586179055928252601381528282209382529290925290208390555b6001600160a01b038086165f818152601260209081526040808320878452825280832080546001600160a01b03191690558383526013825280832094891683529381528382208290559181526014909152206117a190611b7d565b6001546040515f916001600160a01b03169083908381818185875af1925050503d805f81146119e0576040519150601f19603f3d011682016040523d82523d5f602084013e6119e5565b606091505b5050905080611a2f5760405162461bcd60e51b81526020600482015260166024820152754661696c656420746f207472616e736665722066656560501b604482015260640161054f565b5050565b60025f5403611a845760405162461bcd60e51b815260206004820152601f60248201527f5265656e7472616e637947756172643a207265656e7472616e742063616c6c00604482015260640161054f565b60025f55565b6001600160a01b038281165f81815260106020908152604080832086861684528252808320549383526011825280832054600f8352818420818552909252909120549192909116818314611b26576001600160a01b038581165f818152600f60209081526040808320888452825280832080546001600160a01b0319169587169586179055928252601081528282209382529290925290208390555b6001600160a01b038086165f818152600f60209081526040808320878452825280832080546001600160a01b03191690558383526010825280832094891683529381528382208290559181526011909152206117a1905b805480611bcc5760405162461bcd60e51b815260206004820152601b60248201527f436f756e7465723a2064656372656d656e74206f766572666c6f770000000000604482015260640161054f565b5f19019055565b6001600160a01b03811681146111aa575f5ffd5b5f60208284031215611bf7575f5ffd5b8135610d3581611bd3565b5f5f60408385031215611c13575f5ffd5b8235611c1e81611bd3565b91506020830135611c2e81611bd3565b809150509250929050565b634e487b7160e01b5f52602160045260245ffd5b6020810160048310611c6d57634e487b7160e01b5f52602160045260245ffd5b91905290565b5f5f83601f840112611c83575f5ffd5b50813567ffffffffffffffff811115611c9a575f5ffd5b6020830191508360208260051b8501011115611cb4575f5ffd5b9250929050565b5f5f5f60408486031215611ccd575f5ffd5b8335611cd881611bd3565b9250602084013567ffffffffffffffff811115611cf3575f5ffd5b611cff86828701611c73565b9497909650939450505050565b602080825282518282018190525f918401906040840190835b81811015611d4c5783516001600160a01b0316835260209384019390920191600101611d25565b509095945050505050565b5f60208284031215611d67575f5ffd5b5035919050565b5f5f60208385031215611d7f575f5ffd5b823567ffffffffffffffff811115611d95575f5ffd5b611da185828601611c73565b90969095509350505050565b5f5f5f5f60808587031215611dc0575f5ffd5b505082516020840151604085015160609095015191969095509092509050565b60208082526010908201526f496e73756666696369656e742066656560801b604082015260600190565b634e487b7160e01b5f52604160045260245ffd5b634e487b7160e01b5f52603260045260245ffd5b5f5f60408385031215611e43575f5ffd5b505080516020909101519092909150565b5f60208284031215611e64575f5ffd5b5051919050565b5f60208284031215611e7b575f5ffd5b81518015158114610d35575f5ffd5b5f60208284031215611e9a575f5ffd5b8151610d3581611bd356fea2646970667358221220a4906c7997ca0055d506c3fb13c9808eb15c1a9d02f8b57583eabb415ecb510964736f6c634300081f0033",
					"opcodes": "PUSH1 0x80 PUSH1 0x40 MSTORE CALLVALUE DUP1 ISZERO PUSH2 0xF JUMPI PUSH0 PUSH0 REVERT JUMPDEST POP PUSH1 0x40 MLOAD PUSH2 0x1FF4 CODESIZE SUB DUP1 PUSH2 0x1FF4 DUP4 CODECOPY DUP2 ADD PUSH1 0x40 DUP2 SWAP1 MSTORE PUSH2 0x2E SWAP2 PUSH2 0xDF JUMP JUMPDEST PUSH1 0x1 PUSH0 DUP2 SWAP1 SSTORE DUP1 SLOAD PUSH1 0x1 PUSH1 0x1 PUSH1 0xA0 SHL SUB DUP4 AND PUSH1 0x1 PUSH1 0x1 PUSH1 0xA0 SHL SUB NOT SWAP2 DUP3 AND DUP2 OR SWAP1 SWAP3 SSTORE PUSH1 0x2 DUP1 SLOAD SWAP1 SWAP2 AND DUP3 OR SWAP1 SSTORE PUSH1 0x40 DUP1 MLOAD PUSH4 0xC62BFD8F PUSH1 0xE0 SHL DUP2 MSTORE SWAP1 MLOAD PUSH4 0xC62BFD8F SWAP2 PUSH1 0x4 DUP1 DUP3 ADD SWAP3 PUSH1 0x20 SWAP3 SWAP1 SWAP2 SWAP1 DUP3 SWAP1 SUB ADD DUP2 DUP7 GAS STATICCALL ISZERO DUP1 ISZERO PUSH2 0x95 JUMPI RETURNDATASIZE PUSH0 PUSH0 RETURNDATACOPY RETURNDATASIZE PUSH0 REVERT JUMPDEST POP POP POP POP PUSH1 0x40 MLOAD RETURNDATASIZE PUSH1 0x1F NOT PUSH1 0x1F DUP3 ADD AND DUP3 ADD DUP1 PUSH1 0x40 MSTORE POP DUP2 ADD SWAP1 PUSH2 0xB9 SWAP2 SWAP1 PUSH2 0xDF JUMP JUMPDEST PUSH1 0x3 DUP1 SLOAD PUSH1 0x1 PUSH1 0x1 PUSH1 0xA0 SHL SUB NOT AND PUSH1 0x1 PUSH1 0x1 PUSH1 0xA0 SHL SUB SWAP3 SWAP1 SWAP3 AND SWAP2 SWAP1 SWAP2 OR SWAP1 SSTORE POP PUSH2 0x10C JUMP JUMPDEST PUSH0 PUSH1 0x20 DUP3 DUP5 SUB SLT ISZERO PUSH2 0xEF JUMPI PUSH0 PUSH0 REVERT JUMPDEST DUP2 MLOAD PUSH1 0x1 PUSH1 0x1 PUSH1 0xA0 SHL SUB DUP2 AND DUP2 EQ PUSH2 0x105 JUMPI PUSH0 PUSH0 REVERT JUMPDEST SWAP4 SWAP3 POP POP POP JUMP JUMPDEST PUSH2 0x1EDB DUP1 PUSH2 0x119 PUSH0 CODECOPY PUSH0 RETURN INVALID PUSH1 0x80 PUSH1 0x40 MSTORE PUSH1 0x4 CALLDATASIZE LT PUSH2 0x13B JUMPI PUSH0 CALLDATALOAD PUSH1 0xE0 SHR DUP1 PUSH4 0x621574D4 GT PUSH2 0xB3 JUMPI DUP1 PUSH4 0xCF96F1E8 GT PUSH2 0x6D JUMPI DUP1 PUSH4 0xCF96F1E8 EQ PUSH2 0x3F2 JUMPI DUP1 PUSH4 0xD016588C EQ PUSH2 0x411 JUMPI DUP1 PUSH4 0xDC1AD725 EQ PUSH2 0x430 JUMPI DUP1 PUSH4 0xE3B231B5 EQ PUSH2 0x443 JUMPI DUP1 PUSH4 0xEA1E7A69 EQ PUSH2 0x47A JUMPI DUP1 PUSH4 0xF71B007B EQ PUSH2 0x499 JUMPI PUSH0 PUSH0 REVERT JUMPDEST DUP1 PUSH4 0x621574D4 EQ PUSH2 0x328 JUMPI DUP1 PUSH4 0x6DA8756D EQ PUSH2 0x36C JUMPI DUP1 PUSH4 0x94ED8FCC EQ PUSH2 0x38B JUMPI DUP1 PUSH4 0xA7972584 EQ PUSH2 0x3AA JUMPI DUP1 PUSH4 0xADA49963 EQ PUSH2 0x3BD JUMPI DUP1 PUSH4 0xC7568EFF EQ PUSH2 0x3DC JUMPI PUSH0 PUSH0 REVERT JUMPDEST DUP1 PUSH4 0x2131C68C GT PUSH2 0x104 JUMPI DUP1 PUSH4 0x2131C68C EQ PUSH2 0x233 JUMPI DUP1 PUSH4 0x392C4527 EQ PUSH2 0x26A JUMPI DUP1 PUSH4 0x3F1C06F3 EQ PUSH2 0x289 JUMPI DUP1 PUSH4 0x4907C36A EQ PUSH2 0x2A8 JUMPI DUP1 PUSH4 0x4AFFB863 EQ PUSH2 0x2DC JUMPI DUP1 PUSH4 0x5BFC2BC1 EQ PUSH2 0x2FB JUMPI PUSH0 PUSH0 REVERT JUMPDEST DUP1 PUSH3 0x867F53 EQ PUSH2 0x13F JUMPI DUP1 PUSH4 0x5A5562D EQ PUSH2 0x154 JUMPI DUP1 PUSH4 0x13A938C8 EQ PUSH2 0x19F JUMPI DUP1 PUSH4 0x16500891 EQ PUSH2 0x1F3 JUMPI DUP1 PUSH4 0x1E2B2D2C EQ PUSH2 0x21F JUMPI JUMPDEST PUSH0 PUSH0 REVERT JUMPDEST PUSH2 0x152 PUSH2 0x14D CALLDATASIZE PUSH1 0x4 PUSH2 0x1BE7 JUMP JUMPDEST PUSH2 0x4B8 JUMP JUMPDEST STOP JUMPDEST CALLVALUE DUP1 ISZERO PUSH2 0x15F JUMPI PUSH0 PUSH0 REVERT JUMPDEST POP PUSH2 0x18A PUSH2 0x16E CALLDATASIZE PUSH1 0x4 PUSH2 0x1BE7 JUMP JUMPDEST PUSH1 0x1 PUSH1 0x1 PUSH1 0xA0 SHL SUB AND PUSH0 SWAP1 DUP2 MSTORE PUSH1 0x5 PUSH1 0x20 MSTORE PUSH1 0x40 SWAP1 KECCAK256 SLOAD ISZERO ISZERO SWAP1 JUMP JUMPDEST PUSH1 0x40 MLOAD SWAP1 ISZERO ISZERO DUP2 MSTORE PUSH1 0x20 ADD JUMPDEST PUSH1 0x40 MLOAD DUP1 SWAP2 SUB SWAP1 RETURN JUMPDEST CALLVALUE DUP1 ISZERO PUSH2 0x1AA JUMPI PUSH0 PUSH0 REVERT JUMPDEST POP PUSH2 0x1E6 PUSH2 0x1B9 CALLDATASIZE PUSH1 0x4 PUSH2 0x1C02 JUMP JUMPDEST PUSH1 0x1 PUSH1 0x1 PUSH1 0xA0 SHL SUB SWAP2 DUP3 AND PUSH0 SWAP1 DUP2 MSTORE PUSH1 0x15 PUSH1 0x20 SWAP1 DUP2 MSTORE PUSH1 0x40 DUP1 DUP4 KECCAK256 SWAP4 SWAP1 SWAP5 AND DUP3 MSTORE SWAP2 SWAP1 SWAP2 MSTORE KECCAK256 SLOAD PUSH1 0xFF AND SWAP1 JUMP JUMPDEST PUSH1 0x40 MLOAD PUSH2 0x196 SWAP2 SWAP1 PUSH2 0x1C4D JUMP JUMPDEST CALLVALUE DUP1 ISZERO PUSH2 0x1FE JUMPI PUSH0 PUSH0 REVERT JUMPDEST POP PUSH2 0x212 PUSH2 0x20D CALLDATASIZE PUSH1 0x4 PUSH2 0x1CBB JUMP JUMPDEST PUSH2 0x740 JUMP JUMPDEST PUSH1 0x40 MLOAD PUSH2 0x196 SWAP2 SWAP1 PUSH2 0x1D0C JUMP JUMPDEST CALLVALUE DUP1 ISZERO PUSH2 0x22A JUMPI PUSH0 PUSH0 REVERT JUMPDEST POP PUSH2 0x152 PUSH2 0x81E JUMP JUMPDEST CALLVALUE DUP1 ISZERO PUSH2 0x23E JUMPI PUSH0 PUSH0 REVERT JUMPDEST POP PUSH1 0x1 SLOAD PUSH2 0x252 SWAP1 PUSH1 0x1 PUSH1 0x1 PUSH1 0xA0 SHL SUB AND DUP2 JUMP JUMPDEST PUSH1 0x40 MLOAD PUSH1 0x1 PUSH1 0x1 PUSH1 0xA0 SHL SUB SWAP1 SWAP2 AND DUP2 MSTORE PUSH1 0x20 ADD PUSH2 0x196 JUMP JUMPDEST CALLVALUE DUP1 ISZERO PUSH2 0x275 JUMPI PUSH0 PUSH0 REVERT JUMPDEST POP PUSH2 0x152 PUSH2 0x284 CALLDATASIZE PUSH1 0x4 PUSH2 0x1BE7 JUMP JUMPDEST PUSH2 0xA1C JUMP JUMPDEST CALLVALUE DUP1 ISZERO PUSH2 0x294 JUMPI PUSH0 PUSH0 REVERT JUMPDEST POP PUSH2 0x212 PUSH2 0x2A3 CALLDATASIZE PUSH1 0x4 PUSH2 0x1CBB JUMP JUMPDEST PUSH2 0xC07 JUMP JUMPDEST CALLVALUE DUP1 ISZERO PUSH2 0x2B3 JUMPI PUSH0 PUSH0 REVERT JUMPDEST POP PUSH2 0x252 PUSH2 0x2C2 CALLDATASIZE PUSH1 0x4 PUSH2 0x1D57 JUMP JUMPDEST PUSH0 SWAP1 DUP2 MSTORE PUSH1 0x4 PUSH1 0x20 MSTORE PUSH1 0x40 SWAP1 KECCAK256 SLOAD PUSH1 0x1 PUSH1 0x1 PUSH1 0xA0 SHL SUB AND SWAP1 JUMP JUMPDEST CALLVALUE DUP1 ISZERO PUSH2 0x2E7 JUMPI PUSH0 PUSH0 REVERT JUMPDEST POP PUSH2 0x18A PUSH2 0x2F6 CALLDATASIZE PUSH1 0x4 PUSH2 0x1C02 JUMP JUMPDEST PUSH2 0xCDC JUMP JUMPDEST CALLVALUE DUP1 ISZERO PUSH2 0x306 JUMPI PUSH0 PUSH0 REVERT JUMPDEST POP PUSH2 0x31A PUSH2 0x315 CALLDATASIZE PUSH1 0x4 PUSH2 0x1BE7 JUMP JUMPDEST PUSH2 0xD3C JUMP JUMPDEST PUSH1 0x40 MLOAD SWAP1 DUP2 MSTORE PUSH1 0x20 ADD PUSH2 0x196 JUMP JUMPDEST CALLVALUE DUP1 ISZERO PUSH2 0x333 JUMPI PUSH0 PUSH0 REVERT JUMPDEST POP PUSH2 0x31A PUSH2 0x342 CALLDATASIZE PUSH1 0x4 PUSH2 0x1C02 JUMP JUMPDEST PUSH1 0x1 PUSH1 0x1 PUSH1 0xA0 SHL SUB SWAP2 DUP3 AND PUSH0 SWAP1 DUP2 MSTORE PUSH1 0xA PUSH1 0x20 SWAP1 DUP2 MSTORE PUSH1 0x40 DUP1 DUP4 KECCAK256 SWAP4 SWAP1 SWAP5 AND DUP3 MSTORE SWAP2 SWAP1 SWAP2 MSTORE KECCAK256 SLOAD SWAP1 JUMP JUMPDEST CALLVALUE DUP1 ISZERO PUSH2 0x377 JUMPI PUSH0 PUSH0 REVERT JUMPDEST POP PUSH2 0x212 PUSH2 0x386 CALLDATASIZE PUSH1 0x4 PUSH2 0x1CBB JUMP JUMPDEST PUSH2 0xD5B JUMP JUMPDEST CALLVALUE DUP1 ISZERO PUSH2 0x396 JUMPI PUSH0 PUSH0 REVERT JUMPDEST POP PUSH2 0x212 PUSH2 0x3A5 CALLDATASIZE PUSH1 0x4 PUSH2 0x1CBB JUMP JUMPDEST PUSH2 0xE30 JUMP JUMPDEST PUSH2 0x152 PUSH2 0x3B8 CALLDATASIZE PUSH1 0x4 PUSH2 0x1BE7 JUMP JUMPDEST PUSH2 0xF05 JUMP JUMPDEST CALLVALUE DUP1 ISZERO PUSH2 0x3C8 JUMPI PUSH0 PUSH0 REVERT JUMPDEST POP PUSH2 0x31A PUSH2 0x3D7 CALLDATASIZE PUSH1 0x4 PUSH2 0x1BE7 JUMP JUMPDEST PUSH2 0x11AD JUMP JUMPDEST CALLVALUE DUP1 ISZERO PUSH2 0x3E7 JUMPI PUSH0 PUSH0 REVERT JUMPDEST POP PUSH1 0x6 SLOAD PUSH2 0x31A SWAP1 DUP2 JUMP JUMPDEST CALLVALUE DUP1 ISZERO PUSH2 0x3FD JUMPI PUSH0 PUSH0 REVERT JUMPDEST POP PUSH2 0x212 PUSH2 0x40C CALLDATASIZE PUSH1 0x4 PUSH2 0x1D6E JUMP JUMPDEST PUSH2 0x11CA JUMP JUMPDEST CALLVALUE DUP1 ISZERO PUSH2 0x41C JUMPI PUSH0 PUSH0 REVERT JUMPDEST POP PUSH2 0x31A PUSH2 0x42B CALLDATASIZE PUSH1 0x4 PUSH2 0x1BE7 JUMP JUMPDEST PUSH2 0x128C JUMP JUMPDEST PUSH2 0x152 PUSH2 0x43E CALLDATASIZE PUSH1 0x4 PUSH2 0x1BE7 JUMP JUMPDEST PUSH2 0x12A9 JUMP JUMPDEST CALLVALUE DUP1 ISZERO PUSH2 0x44E JUMPI PUSH0 PUSH0 REVERT JUMPDEST POP PUSH2 0x18A PUSH2 0x45D CALLDATASIZE PUSH1 0x4 PUSH2 0x1BE7 JUMP JUMPDEST PUSH1 0x1 PUSH1 0x1 PUSH1 0xA0 SHL SUB AND PUSH0 SWAP1 DUP2 MSTORE PUSH1 0x7 PUSH1 0x20 MSTORE PUSH1 0x40 SWAP1 KECCAK256 SLOAD PUSH1 0xFF AND SWAP1 JUMP JUMPDEST CALLVALUE DUP1 ISZERO PUSH2 0x485 JUMPI PUSH0 PUSH0 REVERT JUMPDEST POP PUSH2 0x152 PUSH2 0x494 CALLDATASIZE PUSH1 0x4 PUSH2 0x1BE7 JUMP JUMPDEST PUSH2 0x151D JUMP JUMPDEST CALLVALUE DUP1 ISZERO PUSH2 0x4A4 JUMPI PUSH0 PUSH0 REVERT JUMPDEST POP PUSH2 0x31A PUSH2 0x4B3 CALLDATASIZE PUSH1 0x4 PUSH2 0x1BE7 JUMP JUMPDEST PUSH2 0x168D JUMP JUMPDEST CALLER PUSH0 DUP2 DUP2 MSTORE PUSH1 0x15 PUSH1 0x20 SWAP1 DUP2 MSTORE PUSH1 0x40 DUP1 DUP4 KECCAK256 PUSH1 0x1 PUSH1 0x1 PUSH1 0xA0 SHL SUB DUP7 AND DUP5 MSTORE SWAP1 SWAP2 MSTORE SWAP1 KECCAK256 SLOAD PUSH1 0xFF AND PUSH1 0x1 DUP2 PUSH1 0x3 DUP2 GT ISZERO PUSH2 0x4F2 JUMPI PUSH2 0x4F2 PUSH2 0x1C39 JUMP JUMPDEST EQ DUP1 PUSH2 0x50F JUMPI POP PUSH1 0x2 DUP2 PUSH1 0x3 DUP2 GT ISZERO PUSH2 0x50D JUMPI PUSH2 0x50D PUSH2 0x1C39 JUMP JUMPDEST EQ JUMPDEST PUSH2 0x558 JUMPI PUSH1 0x40 MLOAD PUSH3 0x461BCD PUSH1 0xE5 SHL DUP2 MSTORE PUSH1 0x20 PUSH1 0x4 DUP3 ADD MSTORE PUSH1 0x15 PUSH1 0x24 DUP3 ADD MSTORE PUSH21 0x4F6E6C792070656E64696E67207265717565737473 PUSH1 0x58 SHL PUSH1 0x44 DUP3 ADD MSTORE PUSH1 0x64 ADD JUMPDEST PUSH1 0x40 MLOAD DUP1 SWAP2 SUB SWAP1 REVERT JUMPDEST PUSH1 0x2 SLOAD PUSH1 0x40 DUP1 MLOAD PUSH3 0x2EAB7 PUSH1 0xE0 SHL DUP2 MSTORE SWAP1 MLOAD PUSH0 SWAP3 PUSH1 0x1 PUSH1 0x1 PUSH1 0xA0 SHL SUB AND SWAP2 PUSH3 0x2EAB7 SWAP2 PUSH1 0x4 DUP1 DUP4 ADD SWAP3 PUSH1 0x80 SWAP3 SWAP2 SWAP1 DUP3 SWAP1 SUB ADD DUP2 DUP7 GAS STATICCALL ISZERO DUP1 ISZERO PUSH2 0x59D JUMPI RETURNDATASIZE PUSH0 PUSH0 RETURNDATACOPY RETURNDATASIZE PUSH0 REVERT JUMPDEST POP POP POP POP PUSH1 0x40 MLOAD RETURNDATASIZE PUSH1 0x1F NOT PUSH1 0x1F DUP3 ADD AND DUP3 ADD DUP1 PUSH1 0x40 MSTORE POP DUP2 ADD SWAP1 PUSH2 0x5C1 SWAP2 SWAP1 PUSH2 0x1DAD JUMP JUMPDEST POP SWAP3 POP POP POP DUP1 CALLVALUE LT ISZERO PUSH2 0x5E6 JUMPI PUSH1 0x40 MLOAD PUSH3 0x461BCD PUSH1 0xE5 SHL DUP2 MSTORE PUSH1 0x4 ADD PUSH2 0x54F SWAP1 PUSH2 0x1DE0 JUMP JUMPDEST PUSH1 0x1 DUP3 PUSH1 0x3 DUP2 GT ISZERO PUSH2 0x5FA JUMPI PUSH2 0x5FA PUSH2 0x1C39 JUMP JUMPDEST SUB PUSH2 0x60E JUMPI PUSH2 0x609 DUP4 DUP6 PUSH2 0x16AA JUMP JUMPDEST PUSH2 0x674 JUMP JUMPDEST PUSH1 0x2 DUP3 PUSH1 0x3 DUP2 GT ISZERO PUSH2 0x622 JUMPI PUSH2 0x622 PUSH2 0x1C39 JUMP JUMPDEST SUB PUSH2 0x63B JUMPI PUSH2 0x631 DUP4 DUP6 PUSH2 0x17A8 JUMP JUMPDEST PUSH2 0x609 DUP5 DUP5 PUSH2 0x189F JUMP JUMPDEST PUSH1 0x40 MLOAD PUSH3 0x461BCD PUSH1 0xE5 SHL DUP2 MSTORE PUSH1 0x20 PUSH1 0x4 DUP3 ADD MSTORE PUSH1 0xE PUSH1 0x24 DUP3 ADD MSTORE PUSH14 0x496E76616C696420737461747573 PUSH1 0x90 SHL PUSH1 0x44 DUP3 ADD MSTORE PUSH1 0x64 ADD PUSH2 0x54F JUMP JUMPDEST PUSH1 0x1 PUSH1 0x1 PUSH1 0xA0 SHL SUB DUP4 DUP2 AND PUSH0 DUP2 DUP2 MSTORE PUSH1 0x11 PUSH1 0x20 SWAP1 DUP2 MSTORE PUSH1 0x40 DUP1 DUP4 KECCAK256 DUP1 SLOAD PUSH1 0x1 ADD SWAP1 DUP2 SWAP1 SSTORE PUSH1 0xF DUP4 MSTORE DUP2 DUP5 KECCAK256 DUP2 DUP6 MSTORE DUP4 MSTORE DUP2 DUP5 KECCAK256 DUP1 SLOAD SWAP7 DUP12 AND PUSH1 0x1 PUSH1 0x1 PUSH1 0xA0 SHL SUB NOT SWAP1 SWAP8 AND DUP8 OR SWAP1 SSTORE DUP5 DUP5 MSTORE PUSH1 0x10 DUP4 MSTORE DUP2 DUP5 KECCAK256 DUP7 DUP6 MSTORE DUP4 MSTORE DUP2 DUP5 KECCAK256 DUP2 SWAP1 SSTORE SWAP4 DUP4 MSTORE PUSH1 0x15 DUP3 MSTORE DUP1 DUP4 KECCAK256 SWAP5 DUP4 MSTORE SWAP4 SWAP1 MSTORE SWAP2 SWAP1 SWAP2 KECCAK256 DUP1 SLOAD PUSH1 0xFF NOT AND PUSH1 0x3 OR SWAP1 SSTORE PUSH2 0x6F9 CALLVALUE PUSH2 0x1996 JUMP JUMPDEST DUP5 PUSH1 0x1 PUSH1 0x1 PUSH1 0xA0 SHL SUB AND DUP5 PUSH1 0x1 PUSH1 0x1 PUSH1 0xA0 SHL SUB AND PUSH32 0x5EF61C82A05B2947FA2B06A1A2F856CDAB0923B82D03CF70F322FC055BF37B01 PUSH1 0x40 MLOAD PUSH1 0x40 MLOAD DUP1 SWAP2 SUB SWAP1 LOG3 POP POP POP POP POP JUMP JUMPDEST PUSH1 0x60 PUSH0 DUP3 PUSH8 0xFFFFFFFFFFFFFFFF DUP2 GT ISZERO PUSH2 0x75C JUMPI PUSH2 0x75C PUSH2 0x1E0A JUMP JUMPDEST PUSH1 0x40 MLOAD SWAP1 DUP1 DUP3 MSTORE DUP1 PUSH1 0x20 MUL PUSH1 0x20 ADD DUP3 ADD PUSH1 0x40 MSTORE DUP1 ISZERO PUSH2 0x785 JUMPI DUP2 PUSH1 0x20 ADD PUSH1 0x20 DUP3 MUL DUP1 CALLDATASIZE DUP4 CALLDATACOPY ADD SWAP1 POP JUMPDEST POP SWAP1 POP PUSH0 JUMPDEST DUP4 DUP2 LT ISZERO PUSH2 0x815 JUMPI PUSH1 0x1 PUSH1 0x1 PUSH1 0xA0 SHL SUB DUP7 AND PUSH0 SWAP1 DUP2 MSTORE PUSH1 0x12 PUSH1 0x20 MSTORE PUSH1 0x40 DUP2 KECCAK256 SWAP1 DUP7 DUP7 DUP5 DUP2 DUP2 LT PUSH2 0x7BC JUMPI PUSH2 0x7BC PUSH2 0x1E1E JUMP JUMPDEST SWAP1 POP PUSH1 0x20 MUL ADD CALLDATALOAD DUP2 MSTORE PUSH1 0x20 ADD SWAP1 DUP2 MSTORE PUSH1 0x20 ADD PUSH0 KECCAK256 PUSH0 SWAP1 SLOAD SWAP1 PUSH2 0x100 EXP SWAP1 DIV PUSH1 0x1 PUSH1 0x1 PUSH1 0xA0 SHL SUB AND DUP3 DUP3 DUP2 MLOAD DUP2 LT PUSH2 0x7F5 JUMPI PUSH2 0x7F5 PUSH2 0x1E1E JUMP JUMPDEST PUSH1 0x1 PUSH1 0x1 PUSH1 0xA0 SHL SUB SWAP1 SWAP3 AND PUSH1 0x20 SWAP3 DUP4 MUL SWAP2 SWAP1 SWAP2 ADD SWAP1 SWAP2 ADD MSTORE PUSH1 0x1 ADD PUSH2 0x78A JUMP JUMPDEST POP SWAP5 SWAP4 POP POP POP POP JUMP JUMPDEST CALLER PUSH0 SWAP1 DUP2 MSTORE PUSH1 0x5 PUSH1 0x20 MSTORE PUSH1 0x40 SWAP1 KECCAK256 SLOAD ISZERO PUSH2 0x86F JUMPI PUSH1 0x40 MLOAD PUSH3 0x461BCD PUSH1 0xE5 SHL DUP2 MSTORE PUSH1 0x20 PUSH1 0x4 DUP3 ADD MSTORE PUSH1 0x12 PUSH1 0x24 DUP3 ADD MSTORE PUSH18 0x105B1C9958591E481C9959DA5CDD195C9959 PUSH1 0x72 SHL PUSH1 0x44 DUP3 ADD MSTORE PUSH1 0x64 ADD PUSH2 0x54F JUMP JUMPDEST PUSH1 0x2 SLOAD PUSH1 0x40 DUP1 MLOAD PUSH4 0x2B88E1DB PUSH1 0xE2 SHL DUP2 MSTORE DUP2 MLOAD PUSH0 SWAP4 PUSH1 0x1 PUSH1 0x1 PUSH1 0xA0 SHL SUB AND SWAP3 PUSH4 0xAE23876C SWAP3 PUSH1 0x4 DUP1 DUP3 ADD SWAP4 SWAP2 DUP3 SWAP1 SUB ADD DUP2 DUP7 GAS STATICCALL ISZERO DUP1 ISZERO PUSH2 0x8B2 JUMPI RETURNDATASIZE PUSH0 PUSH0 RETURNDATACOPY RETURNDATASIZE PUSH0 REVERT JUMPDEST POP POP POP POP PUSH1 0x40 MLOAD RETURNDATASIZE PUSH1 0x1F NOT PUSH1 0x1F DUP3 ADD AND DUP3 ADD DUP1 PUSH1 0x40 MSTORE POP DUP2 ADD SWAP1 PUSH2 0x8D6 SWAP2 SWAP1 PUSH2 0x1E32 JUMP JUMPDEST POP PUSH1 0x3 SLOAD PUSH1 0x40 MLOAD PUSH4 0x24351817 PUSH1 0xE1 SHL DUP2 MSTORE CALLER PUSH1 0x4 DUP3 ADD MSTORE SWAP2 SWAP3 POP DUP3 SWAP2 PUSH1 0x1 PUSH1 0x1 PUSH1 0xA0 SHL SUB SWAP1 SWAP2 AND SWAP1 PUSH4 0x486A302E SWAP1 PUSH1 0x24 ADD PUSH1 0x20 PUSH1 0x40 MLOAD DUP1 DUP4 SUB DUP2 DUP7 GAS STATICCALL ISZERO DUP1 ISZERO PUSH2 0x922 JUMPI RETURNDATASIZE PUSH0 PUSH0 RETURNDATACOPY RETURNDATASIZE PUSH0 REVERT JUMPDEST POP POP POP POP PUSH1 0x40 MLOAD RETURNDATASIZE PUSH1 0x1F NOT PUSH1 0x1F DUP3 ADD AND DUP3 ADD DUP1 PUSH1 0x40 MSTORE POP DUP2 ADD SWAP1 PUSH2 0x946 SWAP2 SWAP1 PUSH2 0x1E54 JUMP JUMPDEST LT ISZERO PUSH2 0x989 JUMPI PUSH1 0x40 MLOAD PUSH3 0x461BCD PUSH1 0xE5 SHL DUP2 MSTORE PUSH1 0x20 PUSH1 0x4 DUP3 ADD MSTORE PUSH1 0x12 PUSH1 0x24 DUP3 ADD MSTORE PUSH18 0x496E73756666696369656E7420737461636B PUSH1 0x70 SHL PUSH1 0x44 DUP3 ADD MSTORE PUSH1 0x64 ADD PUSH2 0x54F JUMP JUMPDEST PUSH2 0x997 PUSH1 0x6 DUP1 SLOAD PUSH1 0x1 ADD SWAP1 SSTORE JUMP JUMPDEST CALLER PUSH1 0x4 PUSH0 PUSH2 0x9A4 PUSH1 0x6 SLOAD SWAP1 JUMP JUMPDEST DUP2 MSTORE PUSH1 0x20 DUP2 ADD SWAP2 SWAP1 SWAP2 MSTORE PUSH1 0x40 ADD PUSH0 KECCAK256 DUP1 SLOAD PUSH1 0x1 PUSH1 0x1 PUSH1 0xA0 SHL SUB NOT AND PUSH1 0x1 PUSH1 0x1 PUSH1 0xA0 SHL SUB SWAP3 SWAP1 SWAP3 AND SWAP2 SWAP1 SWAP2 OR SWAP1 SSTORE PUSH1 0x6 SLOAD CALLER PUSH0 DUP2 DUP2 MSTORE PUSH1 0x5 PUSH1 0x20 SWAP1 DUP2 MSTORE PUSH1 0x40 SWAP2 DUP3 SWAP1 KECCAK256 SWAP4 SWAP1 SWAP4 SSTORE MLOAD SWAP1 DUP2 MSTORE PUSH32 0x2DE07D8AEAC43A97FDB9B5D3487E8A1F295211CACD4E1C4C2CC917BA3D19CD2 SWAP2 ADD PUSH1 0x40 MLOAD DUP1 SWAP2 SUB SWAP1 LOG1 POP JUMP JUMPDEST PUSH1 0x2 SLOAD PUSH1 0x40 MLOAD PUSH4 0x7EE312C5 PUSH1 0xE1 SHL DUP2 MSTORE CALLER PUSH1 0x4 DUP3 ADD MSTORE PUSH1 0x1 PUSH1 0x1 PUSH1 0xA0 SHL SUB SWAP1 SWAP2 AND SWAP1 PUSH4 0xFDC6258A SWAP1 PUSH1 0x24 ADD PUSH1 0x20 PUSH1 0x40 MLOAD DUP1 DUP4 SUB DUP2 DUP7 GAS STATICCALL ISZERO DUP1 ISZERO PUSH2 0xA62 JUMPI RETURNDATASIZE PUSH0 PUSH0 RETURNDATACOPY RETURNDATASIZE PUSH0 REVERT JUMPDEST POP POP POP POP PUSH1 0x40 MLOAD RETURNDATASIZE PUSH1 0x1F NOT PUSH1 0x1F DUP3 ADD AND DUP3 ADD DUP1 PUSH1 0x40 MSTORE POP DUP2 ADD SWAP1 PUSH2 0xA86 SWAP2 SWAP1 PUSH2 0x1E6B JUMP JUMPDEST PUSH2 0xACA JUMPI PUSH1 0x40 MLOAD PUSH3 0x461BCD PUSH1 0xE5 SHL DUP2 MSTORE PUSH1 0x20 PUSH1 0x4 DUP3 ADD MSTORE PUSH1 0x15 PUSH1 0x24 DUP3 ADD MSTORE PUSH21 0x13DB9B1E481C995D9A595DD95C88185B1B1BDDD959 PUSH1 0x5A SHL PUSH1 0x44 DUP3 ADD MSTORE PUSH1 0x64 ADD PUSH2 0x54F JUMP JUMPDEST PUSH1 0x2 SLOAD PUSH1 0x40 DUP1 MLOAD PUSH4 0x570CA735 PUSH1 0xE0 SHL DUP2 MSTORE SWAP1 MLOAD PUSH0 SWAP3 PUSH1 0x1 PUSH1 0x1 PUSH1 0xA0 SHL SUB AND SWAP2 PUSH4 0x570CA735 SWAP2 PUSH1 0x4 DUP1 DUP4 ADD SWAP3 PUSH1 0x20 SWAP3 SWAP2 SWAP1 DUP3 SWAP1 SUB ADD DUP2 DUP7 GAS STATICCALL ISZERO DUP1 ISZERO PUSH2 0xB11 JUMPI RETURNDATASIZE PUSH0 PUSH0 RETURNDATACOPY RETURNDATASIZE PUSH0 REVERT JUMPDEST POP POP POP POP PUSH1 0x40 MLOAD RETURNDATASIZE PUSH1 0x1F NOT PUSH1 0x1F DUP3 ADD AND DUP3 ADD DUP1 PUSH1 0x40 MSTORE POP DUP2 ADD SWAP1 PUSH2 0xB35 SWAP2 SWAP1 PUSH2 0x1E8A JUMP JUMPDEST PUSH1 0x1 PUSH1 0x1 PUSH1 0xA0 SHL SUB DUP4 DUP2 AND PUSH0 SWAP1 DUP2 MSTORE PUSH1 0x8 PUSH1 0x20 MSTORE PUSH1 0x40 SWAP1 KECCAK256 SLOAD SWAP2 SWAP3 POP AND CALLER EQ DUP1 PUSH2 0xB67 JUMPI POP PUSH1 0x1 PUSH1 0x1 PUSH1 0xA0 SHL SUB DUP2 AND CALLER EQ JUMPDEST PUSH2 0xBA6 JUMPI PUSH1 0x40 MLOAD PUSH3 0x461BCD PUSH1 0xE5 SHL DUP2 MSTORE PUSH1 0x20 PUSH1 0x4 DUP3 ADD MSTORE PUSH1 0x10 PUSH1 0x24 DUP3 ADD MSTORE PUSH16 0x24B73B30B634B2103B32B934B334B2B9 PUSH1 0x81 SHL PUSH1 0x44 DUP3 ADD MSTORE PUSH1 0x64 ADD PUSH2 0x54F JUMP JUMPDEST PUSH1 0x1 PUSH1 0x1 PUSH1 0xA0 SHL SUB DUP3 AND PUSH0 DUP2 DUP2 MSTORE PUSH1 0x7 PUSH1 0x20 SWAP1 DUP2 MSTORE PUSH1 0x40 DUP1 DUP4 KECCAK256 DUP1 SLOAD PUSH1 0xFF NOT AND SWAP1 SSTORE PUSH1 0x8 SWAP1 SWAP2 MSTORE DUP1 DUP3 KECCAK256 DUP1 SLOAD PUSH1 0x1 PUSH1 0x1 PUSH1 0xA0 SHL SUB NOT AND SWAP1 SSTORE MLOAD PUSH32 0xA4099D5EE8509055E59F9F724D33F27F8D2DA9294E7D7C23A2CC37DD1AF4254C SWAP2 SWAP1 LOG2 POP POP JUMP JUMPDEST PUSH1 0x60 PUSH0 DUP3 PUSH8 0xFFFFFFFFFFFFFFFF DUP2 GT ISZERO PUSH2 0xC23 JUMPI PUSH2 0xC23 PUSH2 0x1E0A JUMP JUMPDEST PUSH1 0x40 MLOAD SWAP1 DUP1 DUP3 MSTORE DUP1 PUSH1 0x20 MUL PUSH1 0x20 ADD DUP3 ADD PUSH1 0x40 MSTORE DUP1 ISZERO PUSH2 0xC4C JUMPI DUP2 PUSH1 0x20 ADD PUSH1 0x20 DUP3 MUL DUP1 CALLDATASIZE DUP4 CALLDATACOPY ADD SWAP1 POP JUMPDEST POP SWAP1 POP PUSH0 JUMPDEST DUP4 DUP2 LT ISZERO PUSH2 0x815 JUMPI PUSH1 0x1 PUSH1 0x1 PUSH1 0xA0 SHL SUB DUP7 AND PUSH0 SWAP1 DUP2 MSTORE PUSH1 0xC PUSH1 0x20 MSTORE PUSH1 0x40 DUP2 KECCAK256 SWAP1 DUP7 DUP7 DUP5 DUP2 DUP2 LT PUSH2 0xC83 JUMPI PUSH2 0xC83 PUSH2 0x1E1E JUMP JUMPDEST SWAP1 POP PUSH1 0x20 MUL ADD CALLDATALOAD DUP2 MSTORE PUSH1 0x20 ADD SWAP1 DUP2 MSTORE PUSH1 0x20 ADD PUSH0 KECCAK256 PUSH0 SWAP1 SLOAD SWAP1 PUSH2 0x100 EXP SWAP1 DIV PUSH1 0x1 PUSH1 0x1 PUSH1 0xA0 SHL SUB AND DUP3 DUP3 DUP2 MLOAD DUP2 LT PUSH2 0xCBC JUMPI PUSH2 0xCBC PUSH2 0x1E1E JUMP JUMPDEST PUSH1 0x1 PUSH1 0x1 PUSH1 0xA0 SHL SUB SWAP1 SWAP3 AND PUSH1 0x20 SWAP3 DUP4 MUL SWAP2 SWAP1 SWAP2 ADD SWAP1 SWAP2 ADD MSTORE PUSH1 0x1 ADD PUSH2 0xC51 JUMP JUMPDEST PUSH0 DUP2 PUSH1 0x1 PUSH1 0x1 PUSH1 0xA0 SHL SUB AND DUP4 PUSH1 0x1 PUSH1 0x1 PUSH1 0xA0 SHL SUB AND EQ DUP1 PUSH2 0xD35 JUMPI POP PUSH1 0x2 PUSH1 0x1 PUSH1 0x1 PUSH1 0xA0 SHL SUB DUP1 DUP6 AND PUSH0 SWAP1 DUP2 MSTORE PUSH1 0x15 PUSH1 0x20 SWAP1 DUP2 MSTORE PUSH1 0x40 DUP1 DUP4 KECCAK256 SWAP4 DUP8 AND DUP4 MSTORE SWAP3 SWAP1 MSTORE KECCAK256 SLOAD PUSH1 0xFF AND PUSH1 0x3 DUP2 GT ISZERO PUSH2 0xD33 JUMPI PUSH2 0xD33 PUSH2 0x1C39 JUMP JUMPDEST EQ JUMPDEST SWAP4 SWAP3 POP POP POP JUMP JUMPDEST PUSH1 0x1 PUSH1 0x1 PUSH1 0xA0 SHL SUB DUP2 AND PUSH0 SWAP1 DUP2 MSTORE PUSH1 0x11 PUSH1 0x20 MSTORE PUSH1 0x40 DUP2 KECCAK256 SLOAD JUMPDEST SWAP3 SWAP2 POP POP JUMP JUMPDEST PUSH1 0x60 PUSH0 DUP3 PUSH8 0xFFFFFFFFFFFFFFFF DUP2 GT ISZERO PUSH2 0xD77 JUMPI PUSH2 0xD77 PUSH2 0x1E0A JUMP JUMPDEST PUSH1 0x40 MLOAD SWAP1 DUP1 DUP3 MSTORE DUP1 PUSH1 0x20 MUL PUSH1 0x20 ADD DUP3 ADD PUSH1 0x40 MSTORE DUP1 ISZERO PUSH2 0xDA0 JUMPI DUP2 PUSH1 0x20 ADD PUSH1 0x20 DUP3 MUL DUP1 CALLDATASIZE DUP4 CALLDATACOPY ADD SWAP1 POP JUMPDEST POP SWAP1 POP PUSH0 JUMPDEST DUP4 DUP2 LT ISZERO PUSH2 0x815 JUMPI PUSH1 0x1 PUSH1 0x1 PUSH1 0xA0 SHL SUB DUP7 AND PUSH0 SWAP1 DUP2 MSTORE PUSH1 0x9 PUSH1 0x20 MSTORE PUSH1 0x40 DUP2 KECCAK256 SWAP1 DUP7 DUP7 DUP5 DUP2 DUP2 LT PUSH2 0xDD7 JUMPI PUSH2 0xDD7 PUSH2 0x1E1E JUMP JUMPDEST SWAP1 POP PUSH1 0x20 MUL ADD CALLDATALOAD DUP2 MSTORE PUSH1 0x20 ADD SWAP1 DUP2 MSTORE PUSH1 0x20 ADD PUSH0 KECCAK256 PUSH0 SWAP1 SLOAD SWAP1 PUSH2 0x100 EXP SWAP1 DIV PUSH1 0x1 PUSH1 0x1 PUSH1 0xA0 SHL SUB AND DUP3 DUP3 DUP2 MLOAD DUP2 LT PUSH2 0xE10 JUMPI PUSH2 0xE10 PUSH2 0x1E1E JUMP JUMPDEST PUSH1 0x1 PUSH1 0x1 PUSH1 0xA0 SHL SUB SWAP1 SWAP3 AND PUSH1 0x20 SWAP3 DUP4 MUL SWAP2 SWAP1 SWAP2 ADD SWAP1 SWAP2 ADD MSTORE PUSH1 0x1 ADD PUSH2 0xDA5 JUMP JUMPDEST PUSH1 0x60 PUSH0 DUP3 PUSH8 0xFFFFFFFFFFFFFFFF DUP2 GT ISZERO PUSH2 0xE4C JUMPI PUSH2 0xE4C PUSH2 0x1E0A JUMP JUMPDEST PUSH1 0x40 MLOAD SWAP1 DUP1 DUP3 MSTORE DUP1 PUSH1 0x20 MUL PUSH1 0x20 ADD DUP3 ADD PUSH1 0x40 MSTORE DUP1 ISZERO PUSH2 0xE75 JUMPI DUP2 PUSH1 0x20 ADD PUSH1 0x20 DUP3 MUL DUP1 CALLDATASIZE DUP4 CALLDATACOPY ADD SWAP1 POP JUMPDEST POP SWAP1 POP PUSH0 JUMPDEST DUP4 DUP2 LT ISZERO PUSH2 0x815 JUMPI PUSH1 0x1 PUSH1 0x1 PUSH1 0xA0 SHL SUB DUP7 AND PUSH0 SWAP1 DUP2 MSTORE PUSH1 0xF PUSH1 0x20 MSTORE PUSH1 0x40 DUP2 KECCAK256 SWAP1 DUP7 DUP7 DUP5 DUP2 DUP2 LT PUSH2 0xEAC JUMPI PUSH2 0xEAC PUSH2 0x1E1E JUMP JUMPDEST SWAP1 POP PUSH1 0x20 MUL ADD CALLDATALOAD DUP2 MSTORE PUSH1 0x20 ADD SWAP1 DUP2 MSTORE PUSH1 0x20 ADD PUSH0 KECCAK256 PUSH0 SWAP1 SLOAD SWAP1 PUSH2 0x100 EXP SWAP1 DIV PUSH1 0x1 PUSH1 0x1 PUSH1 0xA0 SHL SUB AND DUP3 DUP3 DUP2 MLOAD DUP2 LT PUSH2 0xEE5 JUMPI PUSH2 0xEE5 PUSH2 0x1E1E JUMP JUMPDEST PUSH1 0x1 PUSH1 0x1 PUSH1 0xA0 SHL SUB SWAP1 SWAP3 AND PUSH1 0x20 SWAP3 DUP4 MUL SWAP2 SWAP1 SWAP2 ADD SWAP1 SWAP2 ADD MSTORE PUSH1 0x1 ADD PUSH2 0xE7A JUMP JUMPDEST PUSH2 0xF0D PUSH2 0x1A33 JUMP JUMPDEST CALLER PUSH0 DUP2 DUP2 MSTORE PUSH1 0x7 PUSH1 0x20 MSTORE PUSH1 0x40 SWAP1 KECCAK256 SLOAD PUSH1 0xFF AND PUSH2 0xF62 JUMPI PUSH1 0x40 MLOAD PUSH3 0x461BCD PUSH1 0xE5 SHL DUP2 MSTORE PUSH1 0x20 PUSH1 0x4 DUP3 ADD MSTORE PUSH1 0x14 PUSH1 0x24 DUP3 ADD MSTORE PUSH20 0x4F6E6C79207665726966696564206272616E6473 PUSH1 0x60 SHL PUSH1 0x44 DUP3 ADD MSTORE PUSH1 0x64 ADD PUSH2 0x54F JUMP JUMPDEST PUSH1 0x1 PUSH1 0x1 PUSH1 0xA0 SHL SUB DUP1 DUP3 AND PUSH0 SWAP1 DUP2 MSTORE PUSH1 0x15 PUSH1 0x20 SWAP1 DUP2 MSTORE PUSH1 0x40 DUP1 DUP4 KECCAK256 SWAP4 DUP7 AND DUP4 MSTORE SWAP3 SWAP1 MSTORE KECCAK256 SLOAD PUSH1 0xFF AND PUSH1 0x1 DUP2 PUSH1 0x3 DUP2 GT ISZERO PUSH2 0xF9E JUMPI PUSH2 0xF9E PUSH2 0x1C39 JUMP JUMPDEST EQ DUP1 PUSH2 0xFBB JUMPI POP PUSH1 0x3 DUP2 PUSH1 0x3 DUP2 GT ISZERO PUSH2 0xFB9 JUMPI PUSH2 0xFB9 PUSH2 0x1C39 JUMP JUMPDEST EQ JUMPDEST PUSH2 0xFFF JUMPI PUSH1 0x40 MLOAD PUSH3 0x461BCD PUSH1 0xE5 SHL DUP2 MSTORE PUSH1 0x20 PUSH1 0x4 DUP3 ADD MSTORE PUSH1 0x15 PUSH1 0x24 DUP3 ADD MSTORE PUSH21 0x125B9D985B1A59081D985B1A59081C995C5D595CDD PUSH1 0x5A SHL PUSH1 0x44 DUP3 ADD MSTORE PUSH1 0x64 ADD PUSH2 0x54F JUMP JUMPDEST PUSH1 0x2 SLOAD PUSH1 0x40 DUP1 MLOAD PUSH3 0x2EAB7 PUSH1 0xE0 SHL DUP2 MSTORE SWAP1 MLOAD PUSH0 SWAP3 PUSH1 0x1 PUSH1 0x1 PUSH1 0xA0 SHL SUB AND SWAP2 PUSH3 0x2EAB7 SWAP2 PUSH1 0x4 DUP1 DUP4 ADD SWAP3 PUSH1 0x80 SWAP3 SWAP2 SWAP1 DUP3 SWAP1 SUB ADD DUP2 DUP7 GAS STATICCALL ISZERO DUP1 ISZERO PUSH2 0x1044 JUMPI RETURNDATASIZE PUSH0 PUSH0 RETURNDATACOPY RETURNDATASIZE PUSH0 REVERT JUMPDEST POP POP POP POP PUSH1 0x40 MLOAD RETURNDATASIZE PUSH1 0x1F NOT PUSH1 0x1F DUP3 ADD AND DUP3 ADD DUP1 PUSH1 0x40 MSTORE POP DUP2 ADD SWAP1 PUSH2 0x1068 SWAP2 SWAP1 PUSH2 0x1DAD JUMP JUMPDEST POP SWAP3 POP POP POP DUP1 CALLVALUE LT ISZERO PUSH2 0x108D JUMPI PUSH1 0x40 MLOAD PUSH3 0x461BCD PUSH1 0xE5 SHL DUP2 MSTORE PUSH1 0x4 ADD PUSH2 0x54F SWAP1 PUSH2 0x1DE0 JUMP JUMPDEST PUSH1 0x1 DUP3 PUSH1 0x3 DUP2 GT ISZERO PUSH2 0x10A1 JUMPI PUSH2 0x10A1 PUSH2 0x1C39 JUMP JUMPDEST SUB PUSH2 0x10B5 JUMPI PUSH2 0x10B0 DUP4 DUP6 PUSH2 0x16AA JUMP JUMPDEST PUSH2 0x10D8 JUMP JUMPDEST PUSH1 0x3 DUP3 PUSH1 0x3 DUP2 GT ISZERO PUSH2 0x10C9 JUMPI PUSH2 0x10C9 PUSH2 0x1C39 JUMP JUMPDEST SUB PUSH2 0x10D8 JUMPI PUSH2 0x10D8 DUP4 DUP6 PUSH2 0x1A8A JUMP JUMPDEST PUSH1 0x1 PUSH1 0x1 PUSH1 0xA0 SHL SUB DUP4 DUP2 AND PUSH0 DUP2 DUP2 MSTORE PUSH1 0xB PUSH1 0x20 SWAP1 DUP2 MSTORE PUSH1 0x40 DUP1 DUP4 KECCAK256 DUP1 SLOAD PUSH1 0x1 ADD SWAP1 DUP2 SWAP1 SSTORE PUSH1 0x9 DUP4 MSTORE DUP2 DUP5 KECCAK256 DUP2 DUP6 MSTORE DUP4 MSTORE DUP2 DUP5 KECCAK256 DUP1 SLOAD SWAP7 DUP12 AND PUSH1 0x1 PUSH1 0x1 PUSH1 0xA0 SHL SUB NOT SWAP1 SWAP8 AND DUP8 OR SWAP1 SSTORE DUP5 DUP5 MSTORE PUSH1 0xA DUP4 MSTORE DUP2 DUP5 KECCAK256 DUP7 DUP6 MSTORE DUP4 MSTORE DUP2 DUP5 KECCAK256 DUP2 SWAP1 SSTORE SWAP4 DUP4 MSTORE PUSH1 0x15 DUP3 MSTORE DUP1 DUP4 KECCAK256 SWAP5 DUP4 MSTORE SWAP4 SWAP1 MSTORE SWAP2 SWAP1 SWAP2 KECCAK256 DUP1 SLOAD PUSH1 0xFF NOT AND PUSH1 0x2 OR SWAP1 SSTORE PUSH2 0x115D CALLVALUE PUSH2 0x1996 JUMP JUMPDEST DUP5 PUSH1 0x1 PUSH1 0x1 PUSH1 0xA0 SHL SUB AND DUP5 PUSH1 0x1 PUSH1 0x1 PUSH1 0xA0 SHL SUB AND PUSH32 0xD8992B24803669FFD1D156B9EADB0A7DA92032A46B0708BCC3A4F60022A726DF PUSH1 0x40 MLOAD PUSH1 0x40 MLOAD DUP1 SWAP2 SUB SWAP1 LOG3 POP POP POP POP PUSH2 0x11AA PUSH1 0x1 PUSH0 SSTORE JUMP JUMPDEST POP JUMP JUMPDEST PUSH1 0x1 PUSH1 0x1 PUSH1 0xA0 SHL SUB DUP2 AND PUSH0 SWAP1 DUP2 MSTORE PUSH1 0xE PUSH1 0x20 MSTORE PUSH1 0x40 DUP2 KECCAK256 SLOAD PUSH2 0xD55 JUMP JUMPDEST PUSH1 0x60 DUP2 PUSH0 DUP2 PUSH8 0xFFFFFFFFFFFFFFFF DUP2 GT ISZERO PUSH2 0x11E7 JUMPI PUSH2 0x11E7 PUSH2 0x1E0A JUMP JUMPDEST PUSH1 0x40 MLOAD SWAP1 DUP1 DUP3 MSTORE DUP1 PUSH1 0x20 MUL PUSH1 0x20 ADD DUP3 ADD PUSH1 0x40 MSTORE DUP1 ISZERO PUSH2 0x1210 JUMPI DUP2 PUSH1 0x20 ADD PUSH1 0x20 DUP3 MUL DUP1 CALLDATASIZE DUP4 CALLDATACOPY ADD SWAP1 POP JUMPDEST POP SWAP1 POP PUSH0 JUMPDEST DUP3 DUP2 LT ISZERO PUSH2 0x815 JUMPI PUSH0 DUP7 DUP7 DUP4 DUP2 DUP2 LT PUSH2 0x1230 JUMPI PUSH2 0x1230 PUSH2 0x1E1E JUMP JUMPDEST PUSH1 0x20 SWAP1 DUP2 MUL SWAP3 SWAP1 SWAP3 ADD CALLDATALOAD PUSH0 DUP2 DUP2 MSTORE PUSH1 0x4 SWAP1 SWAP4 MSTORE PUSH1 0x40 SWAP1 SWAP3 KECCAK256 SLOAD DUP6 MLOAD SWAP3 SWAP4 POP PUSH1 0x1 PUSH1 0x1 PUSH1 0xA0 SHL SUB AND SWAP2 DUP6 SWAP2 POP DUP5 SWAP1 DUP2 LT PUSH2 0x126B JUMPI PUSH2 0x126B PUSH2 0x1E1E JUMP JUMPDEST PUSH1 0x1 PUSH1 0x1 PUSH1 0xA0 SHL SUB SWAP1 SWAP3 AND PUSH1 0x20 SWAP3 DUP4 MUL SWAP2 SWAP1 SWAP2 ADD SWAP1 SWAP2 ADD MSTORE POP PUSH1 0x1 ADD PUSH2 0x1215 JUMP JUMPDEST PUSH1 0x1 PUSH1 0x1 PUSH1 0xA0 SHL SUB DUP2 AND PUSH0 SWAP1 DUP2 MSTORE PUSH1 0x14 PUSH1 0x20 MSTORE PUSH1 0x40 DUP2 KECCAK256 SLOAD PUSH2 0xD55 JUMP JUMPDEST PUSH2 0x12B1 PUSH2 0x1A33 JUMP JUMPDEST PUSH1 0x1 PUSH1 0x1 PUSH1 0xA0 SHL SUB DUP2 AND PUSH0 SWAP1 DUP2 MSTORE PUSH1 0x5 PUSH1 0x20 MSTORE PUSH1 0x40 DUP2 KECCAK256 SLOAD SWAP1 SUB PUSH2 0x130E JUMPI PUSH1 0x40 MLOAD PUSH3 0x461BCD PUSH1 0xE5 SHL DUP2 MSTORE PUSH1 0x20 PUSH1 0x4 DUP3 ADD MSTORE PUSH1 0x14 PUSH1 0x24 DUP3 ADD MSTORE PUSH20 0x109C985B9908191BD95CC81B9BDD08195E1A5CDD PUSH1 0x62 SHL PUSH1 0x44 DUP3 ADD MSTORE PUSH1 0x64 ADD PUSH2 0x54F JUMP JUMPDEST PUSH1 0x1 PUSH1 0x1 PUSH1 0xA0 SHL SUB DUP2 AND PUSH0 SWAP1 DUP2 MSTORE PUSH1 0x15 PUSH1 0x20 SWAP1 DUP2 MSTORE PUSH1 0x40 DUP1 DUP4 KECCAK256 CALLER DUP5 MSTORE SWAP1 SWAP2 MSTORE DUP2 KECCAK256 SLOAD PUSH1 0xFF AND SWAP1 DUP2 PUSH1 0x3 DUP2 GT ISZERO PUSH2 0x1347 JUMPI PUSH2 0x1347 PUSH2 0x1C39 JUMP JUMPDEST EQ PUSH2 0x137E JUMPI PUSH1 0x40 MLOAD PUSH3 0x461BCD PUSH1 0xE5 SHL DUP2 MSTORE PUSH1 0x20 PUSH1 0x4 DUP3 ADD MSTORE PUSH1 0x7 PUSH1 0x24 DUP3 ADD MSTORE PUSH7 0x125B9D985B1A59 PUSH1 0xCA SHL PUSH1 0x44 DUP3 ADD MSTORE PUSH1 0x64 ADD PUSH2 0x54F JUMP JUMPDEST PUSH1 0x2 SLOAD PUSH1 0x40 DUP1 MLOAD PUSH3 0x2EAB7 PUSH1 0xE0 SHL DUP2 MSTORE SWAP1 MLOAD PUSH0 SWAP3 PUSH1 0x1 PUSH1 0x1 PUSH1 0xA0 SHL SUB AND SWAP2 PUSH3 0x2EAB7 SWAP2 PUSH1 0x4 DUP1 DUP4 ADD SWAP3 PUSH1 0x80 SWAP3 SWAP2 SWAP1 DUP3 SWAP1 SUB ADD DUP2 DUP7 GAS STATICCALL ISZERO DUP1 ISZERO PUSH2 0x13C3 JUMPI RETURNDATASIZE PUSH0 PUSH0 RETURNDATACOPY RETURNDATASIZE PUSH0 REVERT JUMPDEST POP POP POP POP PUSH1 0x40 MLOAD RETURNDATASIZE PUSH1 0x1F NOT PUSH1 0x1F DUP3 ADD AND DUP3 ADD DUP1 PUSH1 0x40 MSTORE POP DUP2 ADD SWAP1 PUSH2 0x13E7 SWAP2 SWAP1 PUSH2 0x1DAD JUMP JUMPDEST SWAP4 POP POP POP POP DUP1 CALLVALUE LT ISZERO PUSH2 0x140C JUMPI PUSH1 0x40 MLOAD PUSH3 0x461BCD PUSH1 0xE5 SHL DUP2 MSTORE PUSH1 0x4 ADD PUSH2 0x54F SWAP1 PUSH2 0x1DE0 JUMP JUMPDEST PUSH1 0x1 PUSH1 0x1 PUSH1 0xA0 SHL SUB DUP4 AND PUSH0 DUP2 DUP2 MSTORE PUSH1 0x15 PUSH1 0x20 SWAP1 DUP2 MSTORE PUSH1 0x40 DUP1 DUP4 KECCAK256 CALLER DUP1 DUP6 MSTORE SWAP1 DUP4 MSTORE DUP2 DUP5 KECCAK256 DUP1 SLOAD PUSH1 0xFF NOT AND PUSH1 0x1 SWAP1 DUP2 OR SWAP1 SWAP2 SSTORE DUP6 DUP6 MSTORE PUSH1 0xE DUP5 MSTORE DUP3 DUP6 KECCAK256 DUP1 SLOAD DUP3 ADD SWAP1 DUP2 SWAP1 SSTORE PUSH1 0xC DUP6 MSTORE DUP4 DUP7 KECCAK256 DUP2 DUP8 MSTORE DUP6 MSTORE DUP4 DUP7 KECCAK256 DUP1 SLOAD PUSH1 0x1 PUSH1 0x1 PUSH1 0xA0 SHL SUB NOT SWAP1 DUP2 AND DUP6 OR SWAP1 SWAP2 SSTORE DUP8 DUP8 MSTORE PUSH1 0xD DUP7 MSTORE DUP5 DUP8 KECCAK256 DUP5 DUP9 MSTORE DUP7 MSTORE DUP5 DUP8 KECCAK256 DUP3 SWAP1 SSTORE PUSH1 0x14 DUP7 MSTORE DUP5 DUP8 KECCAK256 DUP1 SLOAD SWAP1 SWAP4 ADD SWAP3 DUP4 SWAP1 SSTORE PUSH1 0x12 DUP7 MSTORE DUP5 DUP8 KECCAK256 DUP4 DUP9 MSTORE DUP7 MSTORE DUP5 DUP8 KECCAK256 DUP1 SLOAD SWAP1 SWAP2 AND DUP9 OR SWAP1 SSTORE SWAP2 DUP6 MSTORE PUSH1 0x13 DUP5 MSTORE DUP3 DUP6 KECCAK256 SWAP6 DUP6 MSTORE SWAP5 SWAP1 SWAP3 MSTORE SWAP1 SWAP2 KECCAK256 DUP3 SWAP1 SSTORE SWAP1 PUSH2 0x14D0 CALLVALUE PUSH2 0x1996 JUMP JUMPDEST PUSH1 0x40 MLOAD CALLVALUE DUP2 MSTORE CALLER SWAP1 PUSH1 0x1 PUSH1 0x1 PUSH1 0xA0 SHL SUB DUP8 AND SWAP1 PUSH32 0xF1B303465690B52F1D1DACB63B15455DAB055FD54EF576BAFF456D55E76603F4 SWAP1 PUSH1 0x20 ADD PUSH1 0x40 MLOAD DUP1 SWAP2 SUB SWAP1 LOG3 POP POP POP POP PUSH2 0x11AA PUSH1 0x1 PUSH0 SSTORE JUMP JUMPDEST PUSH1 0x2 SLOAD PUSH1 0x40 MLOAD PUSH4 0x7EE312C5 PUSH1 0xE1 SHL DUP2 MSTORE CALLER PUSH1 0x4 DUP3 ADD MSTORE PUSH1 0x1 PUSH1 0x1 PUSH1 0xA0 SHL SUB SWAP1 SWAP2 AND SWAP1 PUSH4 0xFDC6258A SWAP1 PUSH1 0x24 ADD PUSH1 0x20 PUSH1 0x40 MLOAD DUP1 DUP4 SUB DUP2 DUP7 GAS STATICCALL ISZERO DUP1 ISZERO PUSH2 0x1563 JUMPI RETURNDATASIZE PUSH0 PUSH0 RETURNDATACOPY RETURNDATASIZE PUSH0 REVERT JUMPDEST POP POP POP POP PUSH1 0x40 MLOAD RETURNDATASIZE PUSH1 0x1F NOT PUSH1 0x1F DUP3 ADD AND DUP3 ADD DUP1 PUSH1 0x40 MSTORE POP DUP2 ADD SWAP1 PUSH2 0x1587 SWAP2 SWAP1 PUSH2 0x1E6B JUMP JUMPDEST PUSH2 0x15CB JUMPI PUSH1 0x40 MLOAD PUSH3 0x461BCD PUSH1 0xE5 SHL DUP2 MSTORE PUSH1 0x20 PUSH1 0x4 DUP3 ADD MSTORE PUSH1 0x15 PUSH1 0x24 DUP3 ADD MSTORE PUSH21 0x13DB9B1E481C995D9A595DD95C88185B1B1BDDD959 PUSH1 0x5A SHL PUSH1 0x44 DUP3 ADD MSTORE PUSH1 0x64 ADD PUSH2 0x54F JUMP JUMPDEST PUSH1 0x1 PUSH1 0x1 PUSH1 0xA0 SHL SUB DUP2 AND PUSH0 SWAP1 DUP2 MSTORE PUSH1 0x5 PUSH1 0x20 MSTORE PUSH1 0x40 DUP2 KECCAK256 SLOAD SWAP1 SUB PUSH2 0x1628 JUMPI PUSH1 0x40 MLOAD PUSH3 0x461BCD PUSH1 0xE5 SHL DUP2 MSTORE PUSH1 0x20 PUSH1 0x4 DUP3 ADD MSTORE PUSH1 0x14 PUSH1 0x24 DUP3 ADD MSTORE PUSH20 0x109C985B99081B9BDD081C9959DA5CDD195C9959 PUSH1 0x62 SHL PUSH1 0x44 DUP3 ADD MSTORE PUSH1 0x64 ADD PUSH2 0x54F JUMP JUMPDEST PUSH1 0x1 PUSH1 0x1 PUSH1 0xA0 SHL SUB DUP2 AND PUSH0 DUP2 DUP2 MSTORE PUSH1 0x7 PUSH1 0x20 SWAP1 DUP2 MSTORE PUSH1 0x40 DUP1 DUP4 KECCAK256 DUP1 SLOAD PUSH1 0xFF NOT AND PUSH1 0x1 OR SWAP1 SSTORE PUSH1 0x8 SWAP1 SWAP2 MSTORE DUP1 DUP3 KECCAK256 DUP1 SLOAD PUSH1 0x1 PUSH1 0x1 PUSH1 0xA0 SHL SUB NOT AND CALLER OR SWAP1 SSTORE MLOAD PUSH32 0x1C040312DAE2A5129751252FE2BCBC8C80EAFAFF09AF9BE184E641CF8809682F SWAP2 SWAP1 LOG2 POP JUMP JUMPDEST PUSH1 0x1 PUSH1 0x1 PUSH1 0xA0 SHL SUB DUP2 AND PUSH0 SWAP1 DUP2 MSTORE PUSH1 0xB PUSH1 0x20 MSTORE PUSH1 0x40 DUP2 KECCAK256 SLOAD PUSH2 0xD55 JUMP JUMPDEST PUSH1 0x1 PUSH1 0x1 PUSH1 0xA0 SHL SUB DUP3 DUP2 AND PUSH0 DUP2 DUP2 MSTORE PUSH1 0xD PUSH1 0x20 SWAP1 DUP2 MSTORE PUSH1 0x40 DUP1 DUP4 KECCAK256 DUP7 DUP7 AND DUP5 MSTORE DUP3 MSTORE DUP1 DUP4 KECCAK256 SLOAD SWAP4 DUP4 MSTORE PUSH1 0xE DUP3 MSTORE DUP1 DUP4 KECCAK256 SLOAD PUSH1 0xC DUP4 MSTORE DUP2 DUP5 KECCAK256 DUP2 DUP6 MSTORE SWAP1 SWAP3 MSTORE SWAP1 SWAP2 KECCAK256 SLOAD SWAP2 SWAP3 SWAP1 SWAP2 AND DUP2 DUP4 EQ PUSH2 0x1746 JUMPI PUSH1 0x1 PUSH1 0x1 PUSH1 0xA0 SHL SUB DUP6 DUP2 AND PUSH0 DUP2 DUP2 MSTORE PUSH1 0xC PUSH1 0x20 SWAP1 DUP2 MSTORE PUSH1 0x40 DUP1 DUP4 KECCAK256 DUP9 DUP5 MSTORE DUP3 MSTORE DUP1 DUP4 KECCAK256 DUP1 SLOAD PUSH1 0x1 PUSH1 0x1 PUSH1 0xA0 SHL SUB NOT AND SWAP6 DUP8 AND SWAP6 DUP7 OR SWAP1 SSTORE SWAP3 DUP3 MSTORE PUSH1 0xD DUP2 MSTORE DUP3 DUP3 KECCAK256 SWAP4 DUP3 MSTORE SWAP3 SWAP1 SWAP3 MSTORE SWAP1 KECCAK256 DUP4 SWAP1 SSTORE JUMPDEST PUSH1 0x1 PUSH1 0x1 PUSH1 0xA0 SHL SUB DUP1 DUP7 AND PUSH0 DUP2 DUP2 MSTORE PUSH1 0xC PUSH1 0x20 SWAP1 DUP2 MSTORE PUSH1 0x40 DUP1 DUP4 KECCAK256 DUP8 DUP5 MSTORE DUP3 MSTORE DUP1 DUP4 KECCAK256 DUP1 SLOAD PUSH1 0x1 PUSH1 0x1 PUSH1 0xA0 SHL SUB NOT AND SWAP1 SSTORE DUP4 DUP4 MSTORE PUSH1 0xD DUP3 MSTORE DUP1 DUP4 KECCAK256 SWAP5 DUP10 AND DUP4 MSTORE SWAP4 DUP2 MSTORE DUP4 DUP3 KECCAK256 DUP3 SWAP1 SSTORE SWAP2 DUP2 MSTORE PUSH1 0xE SWAP1 SWAP2 MSTORE KECCAK256 PUSH2 0x17A1 SWAP1 PUSH2 0x1B7D JUMP JUMPDEST POP POP POP POP POP JUMP JUMPDEST PUSH1 0x1 PUSH1 0x1 PUSH1 0xA0 SHL SUB DUP3 DUP2 AND PUSH0 DUP2 DUP2 MSTORE PUSH1 0xA PUSH1 0x20 SWAP1 DUP2 MSTORE PUSH1 0x40 DUP1 DUP4 KECCAK256 DUP7 DUP7 AND DUP5 MSTORE DUP3 MSTORE DUP1 DUP4 KECCAK256 SLOAD SWAP4 DUP4 MSTORE PUSH1 0xB DUP3 MSTORE DUP1 DUP4 KECCAK256 SLOAD PUSH1 0x9 DUP4 MSTORE DUP2 DUP5 KECCAK256 DUP2 DUP6 MSTORE SWAP1 SWAP3 MSTORE SWAP1 SWAP2 KECCAK256 SLOAD SWAP2 SWAP3 SWAP1 SWAP2 AND DUP2 DUP4 EQ PUSH2 0x1844 JUMPI PUSH1 0x1 PUSH1 0x1 PUSH1 0xA0 SHL SUB DUP6 DUP2 AND PUSH0 DUP2 DUP2 MSTORE PUSH1 0x9 PUSH1 0x20 SWAP1 DUP2 MSTORE PUSH1 0x40 DUP1 DUP4 KECCAK256 DUP9 DUP5 MSTORE DUP3 MSTORE DUP1 DUP4 KECCAK256 DUP1 SLOAD PUSH1 0x1 PUSH1 0x1 PUSH1 0xA0 SHL SUB NOT AND SWAP6 DUP8 AND SWAP6 DUP7 OR SWAP1 SSTORE SWAP3 DUP3 MSTORE PUSH1 0xA DUP2 MSTORE DUP3 DUP3 KECCAK256 SWAP4 DUP3 MSTORE SWAP3 SWAP1 SWAP3 MSTORE SWAP1 KECCAK256 DUP4 SWAP1 SSTORE JUMPDEST PUSH1 0x1 PUSH1 0x1 PUSH1 0xA0 SHL SUB DUP1 DUP7 AND PUSH0 DUP2 DUP2 MSTORE PUSH1 0x9 PUSH1 0x20 SWAP1 DUP2 MSTORE PUSH1 0x40 DUP1 DUP4 KECCAK256 DUP8 DUP5 MSTORE DUP3 MSTORE DUP1 DUP4 KECCAK256 DUP1 SLOAD PUSH1 0x1 PUSH1 0x1 PUSH1 0xA0 SHL SUB NOT AND SWAP1 SSTORE DUP4 DUP4 MSTORE PUSH1 0xA DUP3 MSTORE DUP1 DUP4 KECCAK256 SWAP5 DUP10 AND DUP4 MSTORE SWAP4 DUP2 MSTORE DUP4 DUP3 KECCAK256 DUP3 SWAP1 SSTORE SWAP2 DUP2 MSTORE PUSH1 0xB SWAP1 SWAP2 MSTORE KECCAK256 PUSH2 0x17A1 SWAP1 PUSH2 0x1B7D JUMP JUMPDEST PUSH1 0x1 PUSH1 0x1 PUSH1 0xA0 SHL SUB DUP3 DUP2 AND PUSH0 DUP2 DUP2 MSTORE PUSH1 0x13 PUSH1 0x20 SWAP1 DUP2 MSTORE PUSH1 0x40 DUP1 DUP4 KECCAK256 DUP7 DUP7 AND DUP5 MSTORE DUP3 MSTORE DUP1 DUP4 KECCAK256 SLOAD SWAP4 DUP4 MSTORE PUSH1 0x14 DUP3 MSTORE DUP1 DUP4 KECCAK256 SLOAD PUSH1 0x12 DUP4 MSTORE DUP2 DUP5 KECCAK256 DUP2 DUP6 MSTORE SWAP1 SWAP3 MSTORE SWAP1 SWAP2 KECCAK256 SLOAD SWAP2 SWAP3 SWAP1 SWAP2 AND DUP2 DUP4 EQ PUSH2 0x193B JUMPI PUSH1 0x1 PUSH1 0x1 PUSH1 0xA0 SHL SUB DUP6 DUP2 AND PUSH0 DUP2 DUP2 MSTORE PUSH1 0x12 PUSH1 0x20 SWAP1 DUP2 MSTORE PUSH1 0x40 DUP1 DUP4 KECCAK256 DUP9 DUP5 MSTORE DUP3 MSTORE DUP1 DUP4 KECCAK256 DUP1 SLOAD PUSH1 0x1 PUSH1 0x1 PUSH1 0xA0 SHL SUB NOT AND SWAP6 DUP8 AND SWAP6 DUP7 OR SWAP1 SSTORE SWAP3 DUP3 MSTORE PUSH1 0x13 DUP2 MSTORE DUP3 DUP3 KECCAK256 SWAP4 DUP3 MSTORE SWAP3 SWAP1 SWAP3 MSTORE SWAP1 KECCAK256 DUP4 SWAP1 SSTORE JUMPDEST PUSH1 0x1 PUSH1 0x1 PUSH1 0xA0 SHL SUB DUP1 DUP7 AND PUSH0 DUP2 DUP2 MSTORE PUSH1 0x12 PUSH1 0x20 SWAP1 DUP2 MSTORE PUSH1 0x40 DUP1 DUP4 KECCAK256 DUP8 DUP5 MSTORE DUP3 MSTORE DUP1 DUP4 KECCAK256 DUP1 SLOAD PUSH1 0x1 PUSH1 0x1 PUSH1 0xA0 SHL SUB NOT AND SWAP1 SSTORE DUP4 DUP4 MSTORE PUSH1 0x13 DUP3 MSTORE DUP1 DUP4 KECCAK256 SWAP5 DUP10 AND DUP4 MSTORE SWAP4 DUP2 MSTORE DUP4 DUP3 KECCAK256 DUP3 SWAP1 SSTORE SWAP2 DUP2 MSTORE PUSH1 0x14 SWAP1 SWAP2 MSTORE KECCAK256 PUSH2 0x17A1 SWAP1 PUSH2 0x1B7D JUMP JUMPDEST PUSH1 0x1 SLOAD PUSH1 0x40 MLOAD PUSH0 SWAP2 PUSH1 0x1 PUSH1 0x1 PUSH1 0xA0 SHL SUB AND SWAP1 DUP4 SWAP1 DUP4 DUP2 DUP2 DUP2 DUP6 DUP8 GAS CALL SWAP3 POP POP POP RETURNDATASIZE DUP1 PUSH0 DUP2 EQ PUSH2 0x19E0 JUMPI PUSH1 0x40 MLOAD SWAP2 POP PUSH1 0x1F NOT PUSH1 0x3F RETURNDATASIZE ADD AND DUP3 ADD PUSH1 0x40 MSTORE RETURNDATASIZE DUP3 MSTORE RETURNDATASIZE PUSH0 PUSH1 0x20 DUP5 ADD RETURNDATACOPY PUSH2 0x19E5 JUMP JUMPDEST PUSH1 0x60 SWAP2 POP JUMPDEST POP POP SWAP1 POP DUP1 PUSH2 0x1A2F JUMPI PUSH1 0x40 MLOAD PUSH3 0x461BCD PUSH1 0xE5 SHL DUP2 MSTORE PUSH1 0x20 PUSH1 0x4 DUP3 ADD MSTORE PUSH1 0x16 PUSH1 0x24 DUP3 ADD MSTORE PUSH22 0x4661696C656420746F207472616E7366657220666565 PUSH1 0x50 SHL PUSH1 0x44 DUP3 ADD MSTORE PUSH1 0x64 ADD PUSH2 0x54F JUMP JUMPDEST POP POP JUMP JUMPDEST PUSH1 0x2 PUSH0 SLOAD SUB PUSH2 0x1A84 JUMPI PUSH1 0x40 MLOAD PUSH3 0x461BCD PUSH1 0xE5 SHL DUP2 MSTORE PUSH1 0x20 PUSH1 0x4 DUP3 ADD MSTORE PUSH1 0x1F PUSH1 0x24 DUP3 ADD MSTORE PUSH32 0x5265656E7472616E637947756172643A207265656E7472616E742063616C6C00 PUSH1 0x44 DUP3 ADD MSTORE PUSH1 0x64 ADD PUSH2 0x54F JUMP JUMPDEST PUSH1 0x2 PUSH0 SSTORE JUMP JUMPDEST PUSH1 0x1 PUSH1 0x1 PUSH1 0xA0 SHL SUB DUP3 DUP2 AND PUSH0 DUP2 DUP2 MSTORE PUSH1 0x10 PUSH1 0x20 SWAP1 DUP2 MSTORE PUSH1 0x40 DUP1 DUP4 KECCAK256 DUP7 DUP7 AND DUP5 MSTORE DUP3 MSTORE DUP1 DUP4 KECCAK256 SLOAD SWAP4 DUP4 MSTORE PUSH1 0x11 DUP3 MSTORE DUP1 DUP4 KECCAK256 SLOAD PUSH1 0xF DUP4 MSTORE DUP2 DUP5 KECCAK256 DUP2 DUP6 MSTORE SWAP1 SWAP3 MSTORE SWAP1 SWAP2 KECCAK256 SLOAD SWAP2 SWAP3 SWAP1 SWAP2 AND DUP2 DUP4 EQ PUSH2 0x1B26 JUMPI PUSH1 0x1 PUSH1 0x1 PUSH1 0xA0 SHL SUB DUP6 DUP2 AND PUSH0 DUP2 DUP2 MSTORE PUSH1 0xF PUSH1 0x20 SWAP1 DUP2 MSTORE PUSH1 0x40 DUP1 DUP4 KECCAK256 DUP9 DUP5 MSTORE DUP3 MSTORE DUP1 DUP4 KECCAK256 DUP1 SLOAD PUSH1 0x1 PUSH1 0x1 PUSH1 0xA0 SHL SUB NOT AND SWAP6 DUP8 AND SWAP6 DUP7 OR SWAP1 SSTORE SWAP3 DUP3 MSTORE PUSH1 0x10 DUP2 MSTORE DUP3 DUP3 KECCAK256 SWAP4 DUP3 MSTORE SWAP3 SWAP1 SWAP3 MSTORE SWAP1 KECCAK256 DUP4 SWAP1 SSTORE JUMPDEST PUSH1 0x1 PUSH1 0x1 PUSH1 0xA0 SHL SUB DUP1 DUP7 AND PUSH0 DUP2 DUP2 MSTORE PUSH1 0xF PUSH1 0x20 SWAP1 DUP2 MSTORE PUSH1 0x40 DUP1 DUP4 KECCAK256 DUP8 DUP5 MSTORE DUP3 MSTORE DUP1 DUP4 KECCAK256 DUP1 SLOAD PUSH1 0x1 PUSH1 0x1 PUSH1 0xA0 SHL SUB NOT AND SWAP1 SSTORE DUP4 DUP4 MSTORE PUSH1 0x10 DUP3 MSTORE DUP1 DUP4 KECCAK256 SWAP5 DUP10 AND DUP4 MSTORE SWAP4 DUP2 MSTORE DUP4 DUP3 KECCAK256 DUP3 SWAP1 SSTORE SWAP2 DUP2 MSTORE PUSH1 0x11 SWAP1 SWAP2 MSTORE KECCAK256 PUSH2 0x17A1 SWAP1 JUMPDEST DUP1 SLOAD DUP1 PUSH2 0x1BCC JUMPI PUSH1 0x40 MLOAD PUSH3 0x461BCD PUSH1 0xE5 SHL DUP2 MSTORE PUSH1 0x20 PUSH1 0x4 DUP3 ADD MSTORE PUSH1 0x1B PUSH1 0x24 DUP3 ADD MSTORE PUSH32 0x436F756E7465723A2064656372656D656E74206F766572666C6F770000000000 PUSH1 0x44 DUP3 ADD MSTORE PUSH1 0x64 ADD PUSH2 0x54F JUMP JUMPDEST PUSH0 NOT ADD SWAP1 SSTORE JUMP JUMPDEST PUSH1 0x1 PUSH1 0x1 PUSH1 0xA0 SHL SUB DUP2 AND DUP2 EQ PUSH2 0x11AA JUMPI PUSH0 PUSH0 REVERT JUMPDEST PUSH0 PUSH1 0x20 DUP3 DUP5 SUB SLT ISZERO PUSH2 0x1BF7 JUMPI PUSH0 PUSH0 REVERT JUMPDEST DUP2 CALLDATALOAD PUSH2 0xD35 DUP2 PUSH2 0x1BD3 JUMP JUMPDEST PUSH0 PUSH0 PUSH1 0x40 DUP4 DUP6 SUB SLT ISZERO PUSH2 0x1C13 JUMPI PUSH0 PUSH0 REVERT JUMPDEST DUP3 CALLDATALOAD PUSH2 0x1C1E DUP2 PUSH2 0x1BD3 JUMP JUMPDEST SWAP2 POP PUSH1 0x20 DUP4 ADD CALLDATALOAD PUSH2 0x1C2E DUP2 PUSH2 0x1BD3 JUMP JUMPDEST DUP1 SWAP2 POP POP SWAP3 POP SWAP3 SWAP1 POP JUMP JUMPDEST PUSH4 0x4E487B71 PUSH1 0xE0 SHL PUSH0 MSTORE PUSH1 0x21 PUSH1 0x4 MSTORE PUSH1 0x24 PUSH0 REVERT JUMPDEST PUSH1 0x20 DUP2 ADD PUSH1 0x4 DUP4 LT PUSH2 0x1C6D JUMPI PUSH4 0x4E487B71 PUSH1 0xE0 SHL PUSH0 MSTORE PUSH1 0x21 PUSH1 0x4 MSTORE PUSH1 0x24 PUSH0 REVERT JUMPDEST SWAP2 SWAP1 MSTORE SWAP1 JUMP JUMPDEST PUSH0 PUSH0 DUP4 PUSH1 0x1F DUP5 ADD SLT PUSH2 0x1C83 JUMPI PUSH0 PUSH0 REVERT JUMPDEST POP DUP2 CALLDATALOAD PUSH8 0xFFFFFFFFFFFFFFFF DUP2 GT ISZERO PUSH2 0x1C9A JUMPI PUSH0 PUSH0 REVERT JUMPDEST PUSH1 0x20 DUP4 ADD SWAP2 POP DUP4 PUSH1 0x20 DUP3 PUSH1 0x5 SHL DUP6 ADD ADD GT ISZERO PUSH2 0x1CB4 JUMPI PUSH0 PUSH0 REVERT JUMPDEST SWAP3 POP SWAP3 SWAP1 POP JUMP JUMPDEST PUSH0 PUSH0 PUSH0 PUSH1 0x40 DUP5 DUP7 SUB SLT ISZERO PUSH2 0x1CCD JUMPI PUSH0 PUSH0 REVERT JUMPDEST DUP4 CALLDATALOAD PUSH2 0x1CD8 DUP2 PUSH2 0x1BD3 JUMP JUMPDEST SWAP3 POP PUSH1 0x20 DUP5 ADD CALLDATALOAD PUSH8 0xFFFFFFFFFFFFFFFF DUP2 GT ISZERO PUSH2 0x1CF3 JUMPI PUSH0 PUSH0 REVERT JUMPDEST PUSH2 0x1CFF DUP7 DUP3 DUP8 ADD PUSH2 0x1C73 JUMP JUMPDEST SWAP5 SWAP8 SWAP1 SWAP7 POP SWAP4 SWAP5 POP POP POP POP JUMP JUMPDEST PUSH1 0x20 DUP1 DUP3 MSTORE DUP3 MLOAD DUP3 DUP3 ADD DUP2 SWAP1 MSTORE PUSH0 SWAP2 DUP5 ADD SWAP1 PUSH1 0x40 DUP5 ADD SWAP1 DUP4 JUMPDEST DUP2 DUP2 LT ISZERO PUSH2 0x1D4C JUMPI DUP4 MLOAD PUSH1 0x1 PUSH1 0x1 PUSH1 0xA0 SHL SUB AND DUP4 MSTORE PUSH1 0x20 SWAP4 DUP5 ADD SWAP4 SWAP1 SWAP3 ADD SWAP2 PUSH1 0x1 ADD PUSH2 0x1D25 JUMP JUMPDEST POP SWAP1 SWAP6 SWAP5 POP POP POP POP POP JUMP JUMPDEST PUSH0 PUSH1 0x20 DUP3 DUP5 SUB SLT ISZERO PUSH2 0x1D67 JUMPI PUSH0 PUSH0 REVERT JUMPDEST POP CALLDATALOAD SWAP2 SWAP1 POP JUMP JUMPDEST PUSH0 PUSH0 PUSH1 0x20 DUP4 DUP6 SUB SLT ISZERO PUSH2 0x1D7F JUMPI PUSH0 PUSH0 REVERT JUMPDEST DUP3 CALLDATALOAD PUSH8 0xFFFFFFFFFFFFFFFF DUP2 GT ISZERO PUSH2 0x1D95 JUMPI PUSH0 PUSH0 REVERT JUMPDEST PUSH2 0x1DA1 DUP6 DUP3 DUP7 ADD PUSH2 0x1C73 JUMP JUMPDEST SWAP1 SWAP7 SWAP1 SWAP6 POP SWAP4 POP POP POP POP JUMP JUMPDEST PUSH0 PUSH0 PUSH0 PUSH0 PUSH1 0x80 DUP6 DUP8 SUB SLT ISZERO PUSH2 0x1DC0 JUMPI PUSH0 PUSH0 REVERT JUMPDEST POP POP DUP3 MLOAD PUSH1 0x20 DUP5 ADD MLOAD PUSH1 0x40 DUP6 ADD MLOAD PUSH1 0x60 SWAP1 SWAP6 ADD MLOAD SWAP2 SWAP7 SWAP1 SWAP6 POP SWAP1 SWAP3 POP SWAP1 POP JUMP JUMPDEST PUSH1 0x20 DUP1 DUP3 MSTORE PUSH1 0x10 SWAP1 DUP3 ADD MSTORE PUSH16 0x496E73756666696369656E7420666565 PUSH1 0x80 SHL PUSH1 0x40 DUP3 ADD MSTORE PUSH1 0x60 ADD SWAP1 JUMP JUMPDEST PUSH4 0x4E487B71 PUSH1 0xE0 SHL PUSH0 MSTORE PUSH1 0x41 PUSH1 0x4 MSTORE PUSH1 0x24 PUSH0 REVERT JUMPDEST PUSH4 0x4E487B71 PUSH1 0xE0 SHL PUSH0 MSTORE PUSH1 0x32 PUSH1 0x4 MSTORE PUSH1 0x24 PUSH0 REVERT JUMPDEST PUSH0 PUSH0 PUSH1 0x40 DUP4 DUP6 SUB SLT ISZERO PUSH2 0x1E43 JUMPI PUSH0 PUSH0 REVERT JUMPDEST POP POP DUP1 MLOAD PUSH1 0x20 SWAP1 SWAP2 ADD MLOAD SWAP1 SWAP3 SWAP1 SWAP2 POP JUMP JUMPDEST PUSH0 PUSH1 0x20 DUP3 DUP5 SUB SLT ISZERO PUSH2 0x1E64 JUMPI PUSH0 PUSH0 REVERT JUMPDEST POP MLOAD SWAP2 SWAP1 POP JUMP JUMPDEST PUSH0 PUSH1 0x20 DUP3 DUP5 SUB SLT ISZERO PUSH2 0x1E7B JUMPI PUSH0 PUSH0 REVERT JUMPDEST DUP2 MLOAD DUP1 ISZERO ISZERO DUP2 EQ PUSH2 0xD35 JUMPI PUSH0 PUSH0 REVERT JUMPDEST PUSH0 PUSH1 0x20 DUP3 DUP5 SUB SLT ISZERO PUSH2 0x1E9A JUMPI PUSH0 PUSH0 REVERT JUMPDEST DUP2 MLOAD PUSH2 0xD35 DUP2 PUSH2 0x1BD3 JUMP INVALID LOG2 PUSH5 0x6970667358 0x22 SLT KECCAK256 LOG4 SWAP1 PUSH13 0x7997CA0055D506C3FB13C9808E 0xB1 TLOAD BYTE SWAP14 MUL EXTCALL 0xB5 PUSH22 0x83EABB415ECB510964736F6C634300081F0033000000 "
				},
				"gasEstimates": {
					"creation": {
						"codeDepositCost": "1579800",
						"executionCost": "infinite",
						"totalCost": "infinite"
					},
					"external": {
						"approvePartner(address)": "infinite",
						"brandCounter()": "2430",
						"brandRegister()": "infinite",
						"daoAddress()": "2359",
						"getBrandAddress(uint256)": "2563",
						"getBrandBatch(uint256[])": "infinite",
						"getPartnerBatch(address,uint256[])": "infinite",
						"getPartnerCount(address)": "2694",
						"getPartnerIndex(address,address)": "infinite",
						"getPartnerRequestBatch(address,uint256[])": "infinite",
						"getPartnerStatus(address,address)": "infinite",
						"getRejectBatch(address,uint256[])": "infinite",
						"getRejectCount(address)": "2684",
						"getRequestCount(address)": "2673",
						"getSellerBrandBatch(address,uint256[])": "infinite",
						"getSellerBrandCount(address)": "2606",
						"isBrand(address)": "2575",
						"isPartner(address,address)": "infinite",
						"isVerifiedBrand(address)": "2617",
						"rejectPartner(address)": "infinite",
						"requestToJoin(address)": "infinite",
						"unVerifyBrand(address)": "infinite",
						"verifyBrand(address)": "infinite"
					},
					"internal": {
						"_forwardFeeToDAO(uint256)": "infinite",
						"_removeFromPartnerList(address,address)": "infinite",
						"_removeFromRejectList(address,address)": "infinite",
						"_removeFromRequestList(address,address)": "infinite",
						"_removeFromSellerBrandList(address,address)": "infinite"
					}
				},
				"methodIdentifiers": {
					"approvePartner(address)": "a7972584",
					"brandCounter()": "c7568eff",
					"brandRegister()": "1e2b2d2c",
					"daoAddress()": "2131c68c",
					"getBrandAddress(uint256)": "4907c36a",
					"getBrandBatch(uint256[])": "cf96f1e8",
					"getPartnerBatch(address,uint256[])": "6da8756d",
					"getPartnerCount(address)": "f71b007b",
					"getPartnerIndex(address,address)": "621574d4",
					"getPartnerRequestBatch(address,uint256[])": "3f1c06f3",
					"getPartnerStatus(address,address)": "13a938c8",
					"getRejectBatch(address,uint256[])": "94ed8fcc",
					"getRejectCount(address)": "5bfc2bc1",
					"getRequestCount(address)": "ada49963",
					"getSellerBrandBatch(address,uint256[])": "16500891",
					"getSellerBrandCount(address)": "d016588c",
					"isBrand(address)": "05a5562d",
					"isPartner(address,address)": "4affb863",
					"isVerifiedBrand(address)": "e3b231b5",
					"rejectPartner(address)": "00867f53",
					"requestToJoin(address)": "dc1ad725",
					"unVerifyBrand(address)": "392c4527",
					"verifyBrand(address)": "ea1e7a69"
				}
			},
			"storageLayout": {
				"storage": [
					{
						"astId": 10,
						"contract": "contracts/supplier.sol:Supplier",
						"label": "_status",
						"offset": 0,
						"slot": "0",
						"type": "t_uint256"
					},
					{
						"astId": 199,
						"contract": "contracts/supplier.sol:Supplier",
						"label": "daoAddress",
						"offset": 0,
						"slot": "1",
						"type": "t_address"
					},
					{
						"astId": 202,
						"contract": "contracts/supplier.sol:Supplier",
						"label": "daoInterface",
						"offset": 0,
						"slot": "2",
						"type": "t_contract(DaoInterface)178"
					},
					{
						"astId": 205,
						"contract": "contracts/supplier.sol:Supplier",
						"label": "stackInterface",
						"offset": 0,
						"slot": "3",
						"type": "t_contract(StackInterface)186"
					},
					{
						"astId": 209,
						"contract": "contracts/supplier.sol:Supplier",
						"label": "_brands",
						"offset": 0,
						"slot": "4",
						"type": "t_mapping(t_uint256,t_address)"
					},
					{
						"astId": 213,
						"contract": "contracts/supplier.sol:Supplier",
						"label": "_brandIds",
						"offset": 0,
						"slot": "5",
						"type": "t_mapping(t_address,t_uint256)"
					},
					{
						"astId": 216,
						"contract": "contracts/supplier.sol:Supplier",
						"label": "brandCounter",
						"offset": 0,
						"slot": "6",
						"type": "t_struct(Counter)70_storage"
					},
					{
						"astId": 220,
						"contract": "contracts/supplier.sol:Supplier",
						"label": "_isVerified",
						"offset": 0,
						"slot": "7",
						"type": "t_mapping(t_address,t_bool)"
					},
					{
						"astId": 224,
						"contract": "contracts/supplier.sol:Supplier",
						"label": "_verifier",
						"offset": 0,
						"slot": "8",
						"type": "t_mapping(t_address,t_address)"
					},
					{
						"astId": 230,
						"contract": "contracts/supplier.sol:Supplier",
						"label": "_partners",
						"offset": 0,
						"slot": "9",
						"type": "t_mapping(t_address,t_mapping(t_uint256,t_address))"
					},
					{
						"astId": 236,
						"contract": "contracts/supplier.sol:Supplier",
						"label": "_partnerIds",
						"offset": 0,
						"slot": "10",
						"type": "t_mapping(t_address,t_mapping(t_address,t_uint256))"
					},
					{
						"astId": 241,
						"contract": "contracts/supplier.sol:Supplier",
						"label": "_partnerCounters",
						"offset": 0,
						"slot": "11",
						"type": "t_mapping(t_address,t_struct(Counter)70_storage)"
					},
					{
						"astId": 247,
						"contract": "contracts/supplier.sol:Supplier",
						"label": "_requestList",
						"offset": 0,
						"slot": "12",
						"type": "t_mapping(t_address,t_mapping(t_uint256,t_address))"
					},
					{
						"astId": 253,
						"contract": "contracts/supplier.sol:Supplier",
						"label": "_requestIds",
						"offset": 0,
						"slot": "13",
						"type": "t_mapping(t_address,t_mapping(t_address,t_uint256))"
					},
					{
						"astId": 258,
						"contract": "contracts/supplier.sol:Supplier",
						"label": "_requestCounters",
						"offset": 0,
						"slot": "14",
						"type": "t_mapping(t_address,t_struct(Counter)70_storage)"
					},
					{
						"astId": 264,
						"contract": "contracts/supplier.sol:Supplier",
						"label": "_rejectList",
						"offset": 0,
						"slot": "15",
						"type": "t_mapping(t_address,t_mapping(t_uint256,t_address))"
					},
					{
						"astId": 270,
						"contract": "contracts/supplier.sol:Supplier",
						"label": "_rejectIds",
						"offset": 0,
						"slot": "16",
						"type": "t_mapping(t_address,t_mapping(t_address,t_uint256))"
					},
					{
						"astId": 275,
						"contract": "contracts/supplier.sol:Supplier",
						"label": "_rejectCounters",
						"offset": 0,
						"slot": "17",
						"type": "t_mapping(t_address,t_struct(Counter)70_storage)"
					},
					{
						"astId": 281,
						"contract": "contracts/supplier.sol:Supplier",
						"label": "_sellerBrandList",
						"offset": 0,
						"slot": "18",
						"type": "t_mapping(t_address,t_mapping(t_uint256,t_address))"
					},
					{
						"astId": 287,
						"contract": "contracts/supplier.sol:Supplier",
						"label": "_sellerBrandIds",
						"offset": 0,
						"slot": "19",
						"type": "t_mapping(t_address,t_mapping(t_address,t_uint256))"
					},
					{
						"astId": 292,
						"contract": "contracts/supplier.sol:Supplier",
						"label": "_sellerBrandCounters",
						"offset": 0,
						"slot": "20",
						"type": "t_mapping(t_address,t_struct(Counter)70_storage)"
					},
					{
						"astId": 299,
						"contract": "contracts/supplier.sol:Supplier",
						"label": "_partnerStatus",
						"offset": 0,
						"slot": "21",
						"type": "t_mapping(t_address,t_mapping(t_address,t_enum(PartnerStatus)197))"
					}
				],
				"types": {
					"t_address": {
						"encoding": "inplace",
						"label": "address",
						"numberOfBytes": "20"
					},
					"t_bool": {
						"encoding": "inplace",
						"label": "bool",
						"numberOfBytes": "1"
					},
					"t_contract(DaoInterface)178": {
						"encoding": "inplace",
						"label": "contract DaoInterface",
						"numberOfBytes": "20"
					},
					"t_contract(StackInterface)186": {
						"encoding": "inplace",
						"label": "contract StackInterface",
						"numberOfBytes": "20"
					},
					"t_enum(PartnerStatus)197": {
						"encoding": "inplace",
						"label": "enum Supplier.PartnerStatus",
						"numberOfBytes": "1"
					},
					"t_mapping(t_address,t_address)": {
						"encoding": "mapping",
						"key": "t_address",
						"label": "mapping(address => address)",
						"numberOfBytes": "32",
						"value": "t_address"
					},
					"t_mapping(t_address,t_bool)": {
						"encoding": "mapping",
						"key": "t_address",
						"label": "mapping(address => bool)",
						"numberOfBytes": "32",
						"value": "t_bool"
					},
					"t_mapping(t_address,t_enum(PartnerStatus)197)": {
						"encoding": "mapping",
						"key": "t_address",
						"label": "mapping(address => enum Supplier.PartnerStatus)",
						"numberOfBytes": "32",
						"value": "t_enum(PartnerStatus)197"
					},
					"t_mapping(t_address,t_mapping(t_address,t_enum(PartnerStatus)197))": {
						"encoding": "mapping",
						"key": "t_address",
						"label": "mapping(address => mapping(address => enum Supplier.PartnerStatus))",
						"numberOfBytes": "32",
						"value": "t_mapping(t_address,t_enum(PartnerStatus)197)"
					},
					"t_mapping(t_address,t_mapping(t_address,t_uint256))": {
						"encoding": "mapping",
						"key": "t_address",
						"label": "mapping(address => mapping(address => uint256))",
						"numberOfBytes": "32",
						"value": "t_mapping(t_address,t_uint256)"
					},
					"t_mapping(t_address,t_mapping(t_uint256,t_address))": {
						"encoding": "mapping",
						"key": "t_address",
						"label": "mapping(address => mapping(uint256 => address))",
						"numberOfBytes": "32",
						"value": "t_mapping(t_uint256,t_address)"
					},
					"t_mapping(t_address,t_struct(Counter)70_storage)": {
						"encoding": "mapping",
						"key": "t_address",
						"label": "mapping(address => struct Counters.Counter)",
						"numberOfBytes": "32",
						"value": "t_struct(Counter)70_storage"
					},
					"t_mapping(t_address,t_uint256)": {
						"encoding": "mapping",
						"key": "t_address",
						"label": "mapping(address => uint256)",
						"numberOfBytes": "32",
						"value": "t_uint256"
					},
					"t_mapping(t_uint256,t_address)": {
						"encoding": "mapping",
						"key": "t_uint256",
						"label": "mapping(uint256 => address)",
						"numberOfBytes": "32",
						"value": "t_address"
					},
					"t_struct(Counter)70_storage": {
						"encoding": "inplace",
						"label": "struct Counters.Counter",
						"members": [
							{
								"astId": 69,
								"contract": "contracts/supplier.sol:Supplier",
								"label": "_value",
								"offset": 0,
								"slot": "0",
								"type": "t_uint256"
							}
						],
						"numberOfBytes": "32"
					},
					"t_uint256": {
						"encoding": "inplace",
						"label": "uint256",
						"numberOfBytes": "32"
					}
				}
			},
			"userdoc": {
				"kind": "user",
				"methods": {},
				"version": 1
			}
		}
	}
}