{
	"data": {
		"bytecode": {
			"linkReferences": {},
			"object": "608060405234801561000f575f5ffd5b5060405161497038038061497083398101604081905261002e91610950565b60408051808201909152600681526546414d494c5960d01b602082015287908260025f848484848161005f336101fd565b6001600160a01b038116610086576040516306b620db60e21b815260040160405180910390fd5b61008f816101fd565b506040805180820190915260048152632936598960e21b60208201526100d6907feafec4d89fa9619884b60000a4d96624a38f7ac2d8d9a604ecf07c12c77e480c9061024c565b6101007fdeba1e292f8ba88238e10ab3c7f88bd4be4fac56cad5194b6ecceaf653468af18561024c565b61012a7f2f0a68ab07768e01943a599e73362a0e17a63a72e94dd2e384d2c1d4db9327568461024c565b6040805160208101839052610171917fe0261fa95db2eb3b5439bd033cda66d56b96f92f243a8228fd87550ed7bdfdb3910160408051601f1981840301815291905261024c565b505060408051602081018590526101bc93507ff675e9361af1c1664c1868cfa3eb97672d6b1a513aa5b81dec34c9ee330e818d92500160408051601f198184030181529190526102a0565b5050600880546001600160a01b0319163317905550600991506101e190508782610abb565b506101f08585835f8787610360565b5050505050505050610cbf565b5f80546001600160a01b038381166001600160a01b0319831681178455604051919092169283917f8be0079c531659141344cd1fd0a4f28419497f9722a3daafe3b4186f6b6457e09190a35050565b5f8281526001602052604090206102638282610abb565b50817fece574603820d07bc9b91f2a932baadf4628aabcb8afba49776529c14a6104b2826040516102949190610ba3565b60405180910390a25050565b7f2145e1d6d074577dc71ef54c3807742b41b053a9352ae6b491331509acb9750f82016102e0576040516385c169bd60e01b815260040160405180910390fd5b7fd0f59754f88971fe6bc5a6618cc9d5f1e859c58d16b22d1c7b2d3e2b246cd8aa820161032057604051630eceab6760e31b815260040160405180910390fd5b7f1fd9e056a24d14c4abc642fcc325992a946906d0dbc57dd70278aaf12842024d820161024c57604051634ef6d7fb60e01b815260040160405180910390fd5b5f61036f600680546001019055565b5060065460408051602081019091525f8152610391908690839060019061049f565b5f818152600760205260409020806103a98982610abb565b5083516005820180546020808801516040808a015160ff96871661ffff199586161761010093881684021763ffff0000199081166201000061ffff9384168102919091179097558a5160068a018054968d0151948d0151918a1696909716959095179290971690920217909416931690910291909117905560048101805486919060ff1916600183600281111561044257610442610bb5565b0217905550600781016104558882610abb565b506040516001600160a01b038716815282907fa6912c28a8cb5fc5cab504e471cfa6bc504444025484d810e2565bc7dead66579060200160405180910390a2509695505050505050565b6001600160a01b0384166104c6576040516324ecef4d60e01b815260040160405180910390fd5b5f838152600360205260409020546001600160a01b031615610503576040516334c7b51160e01b8152600481018490526024015b60405180910390fd5b5f838152600360205260409020546001600160a01b03161561053b576040516334c7b51160e01b8152600481018490526024016104fa565b60025f815461054990610bc9565b909155506001600160a01b0384165f90815260046020526040902061056e9084610615565b505f8381526003602052604080822080546001600160a01b0319166001600160a01b03881690811790915590518592907fb333c813a7426a7a11e2b190cad52c44119421594b47f6f32ace6d8c7207b2bf906105cf90339088908890610bed565b60405180910390a45f335f8686856040516020016105f1959493929190610c21565b60408051601f19818403018152919052905061060e858483610629565b5050505050565b5f6106208383610737565b90505b92915050565b61063a83631aed5a8560e21b610783565b156106d557604051631aed5a8560e21b81526001600160a01b03841690636bb56a149061068d907f0b084a55ebf70fd3c06fd755269dac2212c4d3f0f4d09079780bfa50c1b2984d908590600401610c5b565b5f604051808303815f875af11580156106a8573d5f5f3e3d5ffd5b505050506040513d5f823e601f3d908101601f191682016040526106cf9190810190610c7b565b50505050565b81610732576001600160a01b0383163b1561070e57604051634349776d60e01b81526001600160a01b03841660048201526024016104fa565b604051630317313760e01b81526001600160a01b03841660048201526024016104fa565b505050565b5f81815260018301602052604081205461077c57508154600181810184555f848152602080822090930184905584548482528286019093526040902091909155610623565b505f610623565b604080516001600160e01b03198316602480830191909152825180830390910181526044909101909152602080820180516001600160e01b03166301ffc9a760e01b17815282515f9392849283928392918391908a617530fa92503d91505f5190508280156107f3575060208210155b80156107fe57505f81115b979650505050505050565b634e487b7160e01b5f52604160045260245ffd5b5f806001600160401b0384111561083657610836610809565b50604051601f19601f85018116603f011681018181106001600160401b038211171561086457610864610809565b60405283815290508082840185101561087b575f5ffd5b8383602083015e5f60208583010152509392505050565b5f82601f8301126108a1575f5ffd5b6106208383516020850161081d565b805160ff811681146108c0575f5ffd5b919050565b5f606082840312156108d5575f5ffd5b604051606081016001600160401b03811182821017156108f7576108f7610809565b604052905080610906836108b0565b8152610914602084016108b0565b6020820152604083015161ffff8116811461092d575f5ffd5b6040919091015292915050565b80516001600160a01b03811681146108c0575f5ffd5b5f5f5f5f5f5f5f610160888a031215610967575f5ffd5b87516001600160401b0381111561097c575f5ffd5b6109888a828b01610892565b60208a015190985090506001600160401b038111156109a5575f5ffd5b6109b18a828b01610892565b60408a015190975090506001600160401b038111156109ce575f5ffd5b6109da8a828b01610892565b60608a015190965090506001600160401b038111156109f7575f5ffd5b610a038a828b01610892565b945050610a138960808a016108c5565b9250610a228960e08a016108c5565b9150610a31610140890161093a565b905092959891949750929550565b600181811c90821680610a5357607f821691505b602082108103610a7157634e487b7160e01b5f52602260045260245ffd5b50919050565b601f82111561073257805f5260205f20601f840160051c81016020851015610a9c5750805b601f840160051c820191505b8181101561060e575f8155600101610aa8565b81516001600160401b03811115610ad457610ad4610809565b610ae881610ae28454610a3f565b84610a77565b6020601f821160018114610b1a575f8315610b035750848201515b5f19600385901b1c1916600184901b17845561060e565b5f84815260208120601f198516915b82811015610b495787850151825560209485019460019092019101610b29565b5084821015610b6657868401515f19600387901b60f8161c191681555b50505050600190811b01905550565b5f81518084528060208401602086015e5f602082860101526020601f19601f83011685010191505092915050565b602081525f6106206020830184610b75565b634e487b7160e01b5f52602160045260245ffd5b5f60018201610be657634e487b7160e01b5f52601160045260245ffd5b5060010190565b6001600160a01b038416815282151560208201526060604082018190525f90610c1890830184610b75565b95945050505050565b6001600160a01b0386811682528581166020830152841660408201526060810183905260a0608082018190525f906107fe90830184610b75565b828152604060208201525f610c736040830184610b75565b949350505050565b5f60208284031215610c8b575f5ffd5b81516001600160401b03811115610ca0575f5ffd5b8201601f81018413610cb0575f5ffd5b610c738482516020840161081d565b613ca480610ccc5f395ff3fe6080604052600436106101fc575f3560e01c80637e87632c1161010c578063a3b261f21161009f578063dedff9c61161006e578063dedff9c614610658578063df4857ec14610677578063e4ac8dbd14610696578063eb445de4146106aa578063f2fde38b146106c957610255565b8063a3b261f2146105cf578063be9f0e6f146105fb578063d6c1407c1461061a578063db8c96631461063957610255565b80638da5cb5b116100db5780638da5cb5b1461055557806392b88f0614610571578063979024211461059d578063a07e80c6146105b057610255565b80637e87632c146104e55780637e913b05146105045780637f23690c1461052357806386a10ddd1461053657610255565b80632a3654a41161018f578063598147561161015e578063598147561461045e5780636963d4381461047d57806370a082311461049c578063715018a6146104bb57806378495bf8146104cf57610255565b80632a3654a4146103d557806349a6078d146103f4578063511b69521461042057806354f6127f1461043f57610255565b806318160ddd116101cb57806318160ddd146103355780631d26fce6146103535780631f1217081461037f578063217b2270146103b657610255565b806301ffc9a71461029557806302154b4e146102c95780630cfa4650146102ea57806316e023b31461030957610255565b3661025557345f0361023c5760405163e5099ee360e01b81526004016102339060208082526004908201525f604082015260600190565b60405180910390fd5b6040516330fa4a2160e11b815260040160405180910390fd5b5f366060600482101561027f57828260405163e5099ee360e01b8152600401610233929190612c53565b61028983836106e8565b80519350602001915050f35b3480156102a0575f5ffd5b506102b46102af366004612c81565b6107d7565b60405190151581526020015b60405180910390f35b3480156102d4575f5ffd5b506102e86102e3366004612cc3565b61080a565b005b3480156102f5575f5ffd5b506102e8610304366004612d9a565b61089e565b348015610314575f5ffd5b50610328610323366004612dcb565b6108e0565b6040516102c09190612e19565b348015610340575f5ffd5b506002545b6040519081526020016102c0565b34801561035e575f5ffd5b5061037261036d366004612eb2565b6108f3565b6040516102c09190612f15565b34801561038a575f5ffd5b5060085461039e906001600160a01b031681565b6040516001600160a01b0390911681526020016102c0565b3480156103c1575f5ffd5b5061039e6103d0366004612f78565b6109d9565b3480156103e0575f5ffd5b506102b46103ef366004612f8f565b610a11565b3480156103ff575f5ffd5b5061041361040e366004612f78565b610a1c565b6040516102c09190612fb7565b34801561042b575f5ffd5b506102e861043a366004613011565b610a3d565b34801561044a575f5ffd5b50610328610459366004612f78565b610a81565b348015610469575f5ffd5b506102e8610478366004613109565b610a8c565b348015610488575f5ffd5b50610372610497366004613198565b610b85565b3480156104a7575f5ffd5b506103456104b6366004612cc3565b610caf565b3480156104c6575f5ffd5b506102e8610ccf565b3480156104da575f5ffd5b506006546103459081565b3480156104f0575f5ffd5b506102e86104ff366004613349565b610ce2565b34801561050f575f5ffd5b506102e861051e366004612dcb565b610dd0565b6102e861053136600461341a565b610f73565b348015610541575f5ffd5b506102e8610550366004613453565b610fa8565b348015610560575f5ffd5b505f546001600160a01b031661039e565b34801561057c575f5ffd5b5061059061058b366004612f78565b61111f565b6040516102c09190613513565b6102e86105ab36600461360a565b6113bc565b3480156105bb575f5ffd5b506102e86105ca366004613109565b6113ed565b3480156105da575f5ffd5b506105ee6105e9366004612cc3565b611514565b6040516102c09190613663565b348015610606575f5ffd5b506102e8610615366004613675565b611537565b348015610625575f5ffd5b506102e86106343660046136f6565b6115fa565b348015610644575f5ffd5b506102e861065336600461372b565b61164e565b348015610663575f5ffd5b5061037261067236600461378e565b61172f565b348015610682575f5ffd5b506102e8610691366004612f78565b6117d8565b3480156106a1575f5ffd5b506103286119c7565b3480156106b5575f5ffd5b506102e86106c43660046137bf565b611a53565b3480156106d4575f5ffd5b506102e86106e3366004612cc3565b611b28565b60605f6106ff5f356001600160e01b031916611ba1565b5090506001600160a01b0381166107365760405163bb370b2b60e01b81526001600160e01b03195f35166004820152602401610233565b5f5f826001600160a01b0316348787333460405160200161075a9493929190613862565b60408051601f19818403018152908290526107749161388d565b5f6040518083038185875af1925050503d805f81146107ae576040519150601f19603f3d011682016040523d82523d5f602084013e6107b3565b606091505b509150915081156107c85792506107d1915050565b80518060208301fd5b92915050565b5f6001600160e01b03198216631d138b8360e11b14806107fb57506107fb82611c1d565b806107d157506107d182611c41565b6008546001600160a01b031633146108515760405162461bcd60e51b815260206004820152600a602482015269139bdd081c195c9b5a5d60b21b6044820152606401610233565b61085a81611c76565b604080513381526001600160a01b03831660208201527fa7aa976a38acc1c518ed0da8516ba45163a160a1ccebb68d2cf2beb08b87e1fe910160405180910390a150565b6108a6611cc5565b60096108b28282613919565b5060405133907f52dfe4fd4c28a03cd8ab0af4995f1caf006268a90c0e57cbd291d33f358fbc2f905f90a250565b60606108ec8383611d1e565b9392505050565b60608151835114610917576040516317d38eff60e11b815260040160405180910390fd5b82516001600160401b0381111561093057610930612cdc565b60405190808252806020026020018201604052801561096357816020015b606081526020019060019003908161094e5790505b5090505f5b83518110156109d2576109ad848281518110610986576109866139d3565b60200260200101518483815181106109a0576109a06139d3565b6020026020010151611d1e565b8282815181106109bf576109bf6139d3565b6020908102919091010152600101610968565b5092915050565b5f818152600360205260408120546001600160a01b0316806107d157604051635747cd1b60e11b815260048101849052602401610233565b5f6108ec8383611df1565b6060610a2782611e2c565b5f8281526005602052604090206107d190611e63565b610a473384611df1565b610a6d57604051631294d2a960e01b815260048101849052336024820152604401610233565b610a7a8585858585611e6f565b5050505050565b60606107d18261204b565b845f610a97826109d9565b9050336001600160a01b0382161480610ab957505f546001600160a01b031633145b610ad55760405162461bcd60e51b8152600401610233906139e7565b5f805f8981526007602052604090206004015460ff166002811115610afc57610afc6134df565b14610b07575f610b0a565b60015b90505f610b1b888833858a8a6120ea565b5f8a8152600760209081526040808320600301805460018101825590845292829020909201839055905133815291925082918b917fdeb2db565d2d5e041170d8b4bc453986d7c04899159bada3e56a65b60fa5f3b9910160405180910390a3505050505050505050565b6060816001600160401b03811115610b9f57610b9f612cdc565b604051908082528060200260200182016040528015610bd257816020015b6060815260200190600190039081610bbd5790505b5090505f5b828110156109d2575f8030868685818110610bf457610bf46139d3565b9050602002810190610c069190613a0f565b604051610c14929190613a58565b5f60405180830381855af49150503d805f8114610c4c576040519150601f19603f3d011682016040523d82523d5f602084013e610c51565b606091505b509150915081610c8757805115610c6b5780518082602001fd5b60405163234eb81960e01b815260048101849052602401610233565b80848481518110610c9a57610c9a6139d3565b60209081029190910101525050600101610bd7565b6001600160a01b0381165f9081526004602052604081206107d190612229565b610cd7611cc5565b610ce05f611c76565b565b8451845181141580610cf5575083518114155b80610d01575082518114155b80610d0d575081518114155b15610d2b576040516393a8311960e01b815260040160405180910390fd5b5f5b81811015610dc757610dbf878281518110610d4a57610d4a6139d3565b6020026020010151878381518110610d6457610d646139d3565b6020026020010151878481518110610d7e57610d7e6139d3565b6020026020010151878581518110610d9857610d986139d3565b6020026020010151878681518110610db257610db26139d3565b6020026020010151610a3d565b600101610d2d565b50505050505050565b815f610ddb826109d9565b9050336001600160a01b0382161480610dfd57505f546001600160a01b031633145b610e195760405162461bcd60e51b8152600401610233906139e7565b5f848152600760205260408120905b6003820154811015610f315784826003018281548110610e4a57610e4a6139d3565b905f5260205f20015403610f295760038201545f90610e6b90600190613a7b565b9050808214610eb357826003018181548110610e8957610e896139d3565b905f5260205f200154836003018381548110610ea757610ea76139d3565b5f918252602090912001555b82600301805480610ec657610ec6613a8e565b600190038181905f5260205f20015f9055905585877fc8a6a4f8144cae17d4c5700477493767eb4510839c1c59590a180e8b4fab010433604051610f1991906001600160a01b0391909116815260200190565b60405180910390a3505050610f6d565b600101610e28565b5060405162461bcd60e51b815260206004820152601060248201526f14dc1bdd5cd9481b9bdd08199bdd5b9960821b6044820152606401610233565b50505050565b610f7b611cc5565b3415610f9a5760405163f36ba73760e01b815260040160405180910390fd5b610fa48282612232565b5050565b5f610fb2836109d9565b90506001600160a01b0381163314610ff557604051632d938f5160e11b81526001600160a01b038216600482015260248101849052336044820152606401610233565b6001600160a01b03841661101c57604051639577b8b360e01b815260040160405180910390fd5b836001600160a01b0316816001600160a01b03160361104e576040516344fed6b160e11b815260040160405180910390fd5b5f838152600560205260408120611065908661227c565b905080611097576040516314ec4d6d60e31b81526001600160a01b038616600482015260248101859052604401610233565b83826001600160a01b0316866001600160a01b03167f1b1b58aa2ec0cec2228b2d37124556d41f5a1f7b12f089171f896cc236671215866040516110db9190612e19565b60405180910390a45f33856001866040516020016110fc9493929190613aa2565b60405160208183030381529060405290506111178682612290565b505050505050565b611127612bd5565b5f82815260076020526040908190208151610100810190925280548290829061114f906138a3565b80601f016020809104026020016040519081016040528092919081815260200182805461117b906138a3565b80156111c65780601f1061119d576101008083540402835291602001916111c6565b820191905f5260205f20905b8154815290600101906020018083116111a957829003601f168201915b50505050508152602001600182015481526020016002820180548060200260200160405190810160405280929190818152602001828054801561122657602002820191905f5260205f20905b815481526020019060010190808311611212575b505050505081526020016003820180548060200260200160405190810160405280929190818152602001828054801561127c57602002820191905f5260205f20905b815481526020019060010190808311611268575b5050509183525050600482015460209091019060ff1660028111156112a3576112a36134df565b60028111156112b4576112b46134df565b81526040805160608082018352600585015460ff8082168452610100808304821660208681019190915261ffff6201000094859004811687890152818901969096528651808601885260068a0154808516825292830490931690830152919091049092168284015291830152600783018054919092019190611335906138a3565b80601f0160208091040260200160405190810160405280929190818152602001828054611361906138a3565b80156113ac5780601f10611383576101008083540402835291602001916113ac565b820191905f5260205f20905b81548152906001019060200180831161138f57829003601f168201915b5050505050815250509050919050565b6113c4611cc5565b34156113e35760405163f36ba73760e01b815260040160405180910390fd5b610fa482826122bb565b845f6113f8826109d9565b9050336001600160a01b038216148061141a57505f546001600160a01b031633145b6114365760405162461bcd60e51b8152600401610233906139e7565b5f8781526007602052604090208061144e8882613919565b5084516005820180546020808901516040808b015160ff96871661ffff199586161761010093881684021763ffff0000199081166201000061ffff9384168102919091179097558b5160068a018054968e0151948e0151918a16969097169590951792909716909202179094169316909102919091179055600781016114d48782613919565b5060405133815288907fc376a5e0a80f27340f87a7fd1964a6fc589813f502756c8c85f241f765dc0f239060200160405180910390a25050505050505050565b6001600160a01b0381165f9081526004602052604090206060906107d190611e63565b61153f611cc5565b8151835114158061155257508051825114155b15611570576040516317d38eff60e11b815260040160405180910390fd5b82515f03611591576040516380c9830560e01b815260040160405180910390fd5b5f5b8351811015610f6d576115f28482815181106115b1576115b16139d3565b60200260200101518483815181106115cb576115cb6139d3565b60200260200101518484815181106115e5576115e56139d3565b602002602001015161234d565b600101611593565b825f611605826109d9565b9050336001600160a01b038216148061162757505f546001600160a01b031633145b6116435760405162461bcd60e51b8152600401610233906139e7565b610a7a85858561234d565b5f611658846109d9565b9050336001600160a01b038216146116ab576001600160a01b03851633146116ab5760405163760b5acd60e01b81523360048201526001600160a01b038216602482015260448101859052606401610233565b6001600160a01b0385166116d257604051639577b8b360e01b815260040160405180910390fd5b846001600160a01b0316816001600160a01b031603611704576040516344fed6b160e11b815260040160405180910390fd5b61171185828686866123db565b8215610a7a575f81855f856040516020016110fc9493929190613aa2565b606081516001600160401b0381111561174a5761174a612cdc565b60405190808252806020026020018201604052801561177d57816020015b60608152602001906001900390816117685790505b5090505f5b82518110156117d2576117ad8382815181106117a0576117a06139d3565b602002602001015161204b565b8282815181106117bf576117bf6139d3565b6020908102919091010152600101611782565b50919050565b805f6117e3826109d9565b9050336001600160a01b038216148061180557505f546001600160a01b031633145b6118215760405162461bcd60e51b8152600401610233906139e7565b5f83815260076020526040902060018101546118705760405162461bcd60e51b815260206004820152600e60248201526d14185c995b9d081a5b9d985b1a5960921b6044820152606401610233565b60018101545f908152600760205260408120905b600282015481101561198757858260020182815481106118a6576118a66139d3565b905f5260205f2001540361197f5760028201545f906118c790600190613a7b565b905080821461190f578260020181815481106118e5576118e56139d3565b905f5260205f200154836002018381548110611903576119036139d3565b5f918252602090912001555b8260020180548061192257611922613a8e565b5f828152602080822083015f19908101839055909201909255600186019190915560405133815288917fbec897656e34582dc5c755943497b079acd5762d7f5a49c97c5ebc2424f4c87c910160405180910390a250505050505050565b600101611884565b5060405162461bcd60e51b815260206004820152600f60248201526e10da1a5b19081b9bdd08199bdd5b99608a1b6044820152606401610233565b505050565b600980546119d4906138a3565b80601f0160208091040260200160405190810160405280929190818152602001828054611a00906138a3565b8015611a4b5780601f10611a2257610100808354040283529160200191611a4b565b820191905f5260205f20905b815481529060010190602001808311611a2e57829003601f168201915b505050505081565b855f611a5e826109d9565b9050336001600160a01b0382161480611a8057505f546001600160a01b031633145b611a9c5760405162461bcd60e51b8152600401610233906139e7565b5f88815260076020526040812090611ab88989338a8a8a6120ea565b600283018054600180820183555f928352602080842090920184905583835260078252604092839020018d9055905133815291925082918c917f455f02c6e979a5e8864e764f51fbf96c79b00c7c6c298fee8fc306ea937a8cbd910160405180910390a350505050505050505050565b611b30611cc5565b6001600160a01b038116611b955760405162461bcd60e51b815260206004820152602660248201527f4f776e61626c653a206e6577206f776e657220697320746865207a65726f206160448201526564647265737360d01b6064820152608401610233565b611b9e81611c76565b50565b5f8080611bc5696773c5a04a6d4300884b60b11b6001600160e01b0319861661247a565b90505f611bd18261204b565b90508051601414158015611be55750805115155b15611c0557806040516342bfe79f60e01b81526004016102339190612e19565b611c0e81613ada565b60601c95600195509350505050565b5f6001600160e01b0319821663a918fa6b60e01b14806107d157506107d1826124cd565b5f80611c536301ffc9a760e01b611ba1565b5090506001600160a01b038116611c6c57505f92915050565b6108ec8184612501565b5f80546001600160a01b038381166001600160a01b0319831681178455604051919092169283917f8be0079c531659141344cd1fd0a4f28419497f9722a3daafe3b4186f6b6457e09190a35050565b5f546001600160a01b03163314610ce05760405162461bcd60e51b815260206004820181905260248201527f4f776e61626c653a2063616c6c6572206973206e6f7420746865206f776e65726044820152606401610233565b606060015f8484604051602001611d3f929190918252602082015260400190565b6040516020818303038152906040528051906020012081526020019081526020015f208054611d6d906138a3565b80601f0160208091040260200160405190810160405280929190818152602001828054611d99906138a3565b8015611de45780601f10611dbb57610100808354040283529160200191611de4565b820191905f5260205f20905b815481529060010190602001808311611dc757829003601f168201915b5050505050905092915050565b5f611dfb826109d9565b6001600160a01b0316836001600160a01b031614806108ec57505f8281526005602052604090206108ec9084612587565b5f818152600360205260409020546001600160a01b0316611b9e57604051635747cd1b60e11b815260048101829052602401610233565b60605f6108ec836125a8565b5f611e79846109d9565b9050856001600160a01b0316816001600160a01b031614611ec757604051632d938f5160e11b81526001600160a01b0380831660048301526024820186905287166044820152606401610233565b6001600160a01b038516611eee576040516324ecef4d60e01b815260040160405180910390fd5b5f611ef8856109d9565b9050806001600160a01b0316826001600160a01b031614611f4657604051635a9c31d360e01b8152600481018690526001600160a01b03808416602483015282166044820152606401610233565b611f508786612600565b6001600160a01b0387165f908152600460205260409020611f719086612653565b506001600160a01b0386165f908152600460205260409020611f93908661265e565b505f858152600360205260409081902080546001600160a01b0319166001600160a01b0389811691821790925591518792918a16907fb333c813a7426a7a11e2b190cad52c44119421594b47f6f32ace6d8c7207b2bf90611ff99033908a908a90613b28565b60405180910390a45f338888888760405160200161201b959493929190613b53565b60405160208183030381529060405290506120368882612669565b612041878683612694565b5050505050505050565b5f818152600160205260409020805460609190612067906138a3565b80601f0160208091040260200160405190810160405280929190818152602001828054612093906138a3565b80156120de5780601f106120b5576101008083540402835291602001916120de565b820191905f5260205f20905b8154815290600101906020018083116120c157829003601f168201915b50505050509050919050565b5f6120f9600680546001019055565b6006545f1b905061211b8582600160405180602001604052805f815250612797565b5f818152600760205260409020806121338982613919565b5083516005820180546020808801516040808a015160ff96871661ffff199586161761010093881684021763ffff0000199081166201000061ffff9384168102919091179097558a5160068a018054968d0151948d0151918a1696909716959095179290971690920217909416931690910291909117905560048101805486919060ff191660018360028111156121cc576121cc6134df565b0217905550600781016121df8882613919565b506040516001600160a01b038716815282907fa6912c28a8cb5fc5cab504e471cfa6bc504444025484d810e2565bc7dead66579060200160405180910390a2509695505050505050565b5f6107d1825490565b7f098a16c9e50e3e99b3e797305c146898d294e5aec55a47e213cb3611ccf17e73820161227257604051631b32400560e11b815260040160405180910390fd5b610fa48282612900565b5f6108ec836001600160a01b038416612a14565b610fa4827f8a1c15a8799f71b547e08e2bcb2e85257e81b0a07eee2ce6712549eef1f0097083612a60565b80518251146122dd57604051633bcc897960e01b815260040160405180910390fd5b81515f036122fe576040516397da5f9560e01b815260040160405180910390fd5b5f5b82518110156119c25761234583828151811061231e5761231e6139d3565b6020026020010151838381518110612338576123386139d3565b6020026020010151612232565b600101612300565b8060015f858560405160200161236d929190918252602082015260400190565b6040516020818303038152906040528051906020012081526020019081526020015f20908161239c9190613919565b5081837fa6e4251f855f750545fe414f120db91c76b88def14d120969e5bb2d3f05debbb836040516123ce9190612e19565b60405180910390a3505050565b5f8381526005602052604081206123f29087612aad565b905080612424576040516312a8c6a360e21b81526001600160a01b038716600482015260248101859052604401610233565b83856001600160a01b0316876001600160a01b03167fc78cd419d6136f9f1c1c6aec1d3fae098cffaf8bc86314a8f2685e32fe574e3c868660405161246a929190613b8d565b60405180910390a4505050505050565b604080516001600160b01b0319841660208201525f602a82018190526001600160601b03198416602c830152918291016040516020818303038152906040529050806124c590613ba7565b949350505050565b5f6001600160e01b031982166318a6a9a560e21b14806107d157506301ffc9a760e01b6001600160e01b03198316146107d1565b604080516001600160e01b03198316602480830191909152825180830390910181526044909101909152602080820180516001600160e01b03166301ffc9a760e01b17815282515f9392849283928392918391908a617530fa92503d91505f519050828015612571575060208210155b801561257c57505f81115b979650505050505050565b6001600160a01b0381165f90815260018301602052604081205415156108ec565b6060815f018054806020026020016040519081016040528092919081815260200182805480156120de57602002820191905f5260205f20905b8154815260200190600101908083116125e15750505050509050919050565b5f8181526005602052604081209061261782612229565b90505f5f5b828110156111175761262e845f612ac1565b915061264b8287875f60405180602001604052805f8152506123db565b60010161261c565b5f6108ec8383612acc565b5f6108ec8383612a14565b610fa4827fb23eae7e6d1564b295b4c3e3be402d9a2f0776c57bdf365903496f6fa481ab0083612a60565b6126a583631aed5a8560e21b612501565b1561273a57604051631aed5a8560e21b81526001600160a01b03841690636bb56a14906126f8907f0b084a55ebf70fd3c06fd755269dac2212c4d3f0f4d09079780bfa50c1b2984d908590600401613bca565b5f604051808303815f875af1158015612713573d5f5f3e3d5ffd5b505050506040513d5f823e601f3d908101601f19168201604052610f6d9190810190613be2565b816119c2576001600160a01b0383163b1561277357604051634349776d60e01b81526001600160a01b0384166004820152602401610233565b604051630317313760e01b81526001600160a01b0384166004820152602401610233565b6001600160a01b0384166127be576040516324ecef4d60e01b815260040160405180910390fd5b5f838152600360205260409020546001600160a01b0316156127f6576040516334c7b51160e01b815260048101849052602401610233565b5f838152600360205260409020546001600160a01b03161561282e576040516334c7b51160e01b815260048101849052602401610233565b60025f815461283c90613c56565b909155506001600160a01b0384165f908152600460205260409020612861908461265e565b505f8381526003602052604080822080546001600160a01b0319166001600160a01b03881690811790915590518592907fb333c813a7426a7a11e2b190cad52c44119421594b47f6f32ace6d8c7207b2bf906128c290339088908890613b28565b60405180910390a45f335f8686856040516020016128e4959493929190613b53565b6040516020818303038152906040529050610a7a858483612694565b7f2145e1d6d074577dc71ef54c3807742b41b053a9352ae6b491331509acb9750f8201612940576040516385c169bd60e01b815260040160405180910390fd5b7fd0f59754f88971fe6bc5a6618cc9d5f1e859c58d16b22d1c7b2d3e2b246cd8aa820161298057604051630eceab6760e31b815260040160405180910390fd5b7f1fd9e056a24d14c4abc642fcc325992a946906d0dbc57dd70278aaf12842024d82016129c057604051634ef6d7fb60e01b815260040160405180910390fd5b5f8281526001602052604090206129d78282613919565b50817fece574603820d07bc9b91f2a932baadf4628aabcb8afba49776529c14a6104b282604051612a089190612e19565b60405180910390a25050565b5f818152600183016020526040812054612a5957508154600181810184555f8481526020808220909301849055845484825282860190935260409020919091556107d1565b505f6107d1565b612a7a6001600160a01b038416631aed5a8560e21b612501565b156119c257604051631aed5a8560e21b81526001600160a01b03841690636bb56a14906126f89085908590600401613bca565b5f6108ec836001600160a01b038416612acc565b5f6108ec8383612baf565b5f8181526001830160205260408120548015612ba6575f612aee600183613a7b565b85549091505f90612b0190600190613a7b565b9050818114612b60575f865f018281548110612b1f57612b1f6139d3565b905f5260205f200154905080875f018481548110612b3f57612b3f6139d3565b5f918252602080832090910192909255918252600188019052604090208390555b8554869080612b7157612b71613a8e565b600190038181905f5260205f20015f90559055856001015f8681526020019081526020015f205f9055600193505050506107d1565b5f9150506107d1565b5f825f018281548110612bc457612bc46139d3565b905f5260205f200154905092915050565b604051806101000160405280606081526020015f815260200160608152602001606081526020015f6002811115612c0e57612c0e6134df565b815260408051606080820183525f8083526020808401829052838501829052808601939093528351808301855281815292830181905282840152918301529081015290565b60208152816020820152818360408301375f818301604090810191909152601f909201601f19160101919050565b5f60208284031215612c91575f5ffd5b81356001600160e01b0319811681146108ec575f5ffd5b80356001600160a01b0381168114612cbe575f5ffd5b919050565b5f60208284031215612cd3575f5ffd5b6108ec82612ca8565b634e487b7160e01b5f52604160045260245ffd5b604051601f8201601f191681016001600160401b0381118282101715612d1857612d18612cdc565b604052919050565b5f6001600160401b03821115612d3857612d38612cdc565b50601f01601f191660200190565b5f82601f830112612d55575f5ffd5b8135602083015f612d6d612d6884612d20565b612cf0565b9050828152858383011115612d80575f5ffd5b828260208301375f92810160200192909252509392505050565b5f60208284031215612daa575f5ffd5b81356001600160401b03811115612dbf575f5ffd5b6124c584828501612d46565b5f5f60408385031215612ddc575f5ffd5b50508035926020909101359150565b5f81518084528060208401602086015e5f602082860101526020601f19601f83011685010191505092915050565b602081525f6108ec6020830184612deb565b5f6001600160401b03821115612e4357612e43612cdc565b5060051b60200190565b5f82601f830112612e5c575f5ffd5b8135612e6a612d6882612e2b565b8082825260208201915060208360051b860101925085831115612e8b575f5ffd5b602085015b83811015612ea8578035835260209283019201612e90565b5095945050505050565b5f5f60408385031215612ec3575f5ffd5b82356001600160401b03811115612ed8575f5ffd5b612ee485828601612e4d565b92505060208301356001600160401b03811115612eff575f5ffd5b612f0b85828601612e4d565b9150509250929050565b5f602082016020835280845180835260408501915060408160051b8601019250602086015f5b82811015612f6c57603f19878603018452612f57858351612deb565b94506020938401939190910190600101612f3b565b50929695505050505050565b5f60208284031215612f88575f5ffd5b5035919050565b5f5f60408385031215612fa0575f5ffd5b612fa983612ca8565b946020939093013593505050565b602080825282518282018190525f918401906040840190835b81811015612ff75783516001600160a01b0316835260209384019390920191600101612fd0565b509095945050505050565b80358015158114612cbe575f5ffd5b5f5f5f5f5f60a08688031215613025575f5ffd5b61302e86612ca8565b945061303c60208701612ca8565b93506040860135925061305160608701613002565b915060808601356001600160401b0381111561306b575f5ffd5b61307788828901612d46565b9150509295509295909350565b803560ff81168114612cbe575f5ffd5b5f606082840312156130a4575f5ffd5b604051606081016001600160401b03811182821017156130c6576130c6612cdc565b6040529050806130d583613084565b81526130e360208401613084565b6020820152604083013561ffff811681146130fc575f5ffd5b6040919091015292915050565b5f5f5f5f5f610120868803121561311e575f5ffd5b8535945060208601356001600160401b0381111561313a575f5ffd5b61314688828901612d46565b94505060408601356001600160401b03811115613161575f5ffd5b61316d88828901612d46565b93505061317d8760608801613094565b915061318c8760c08801613094565b90509295509295909350565b5f5f602083850312156131a9575f5ffd5b82356001600160401b038111156131be575f5ffd5b8301601f810185136131ce575f5ffd5b80356001600160401b038111156131e3575f5ffd5b8560208260051b84010111156131f7575f5ffd5b6020919091019590945092505050565b5f82601f830112613216575f5ffd5b8135613224612d6882612e2b565b8082825260208201915060208360051b860101925085831115613245575f5ffd5b602085015b83811015612ea85761325b81612ca8565b83526020928301920161324a565b5f82601f830112613278575f5ffd5b8135613286612d6882612e2b565b8082825260208201915060208360051b8601019250858311156132a7575f5ffd5b602085015b83811015612ea8576132bd81613002565b8352602092830192016132ac565b5f82601f8301126132da575f5ffd5b81356132e8612d6882612e2b565b8082825260208201915060208360051b860101925085831115613309575f5ffd5b602085015b83811015612ea85780356001600160401b0381111561332b575f5ffd5b61333a886020838a0101612d46565b8452506020928301920161330e565b5f5f5f5f5f60a0868803121561335d575f5ffd5b85356001600160401b03811115613372575f5ffd5b61337e88828901613207565b95505060208601356001600160401b03811115613399575f5ffd5b6133a588828901613207565b94505060408601356001600160401b038111156133c0575f5ffd5b6133cc88828901612e4d565b93505060608601356001600160401b038111156133e7575f5ffd5b6133f388828901613269565b92505060808601356001600160401b0381111561340e575f5ffd5b613077888289016132cb565b5f5f6040838503121561342b575f5ffd5b8235915060208301356001600160401b03811115613447575f5ffd5b612f0b85828601612d46565b5f5f5f60608486031215613465575f5ffd5b61346e84612ca8565b92506020840135915060408401356001600160401b0381111561348f575f5ffd5b61349b86828701612d46565b9150509250925092565b5f8151808452602084019350602083015f5b828110156134d55781518652602095860195909101906001016134b7565b5093949350505050565b634e487b7160e01b5f52602160045260245ffd5b6003811061350f57634e487b7160e01b5f52602160045260245ffd5b9052565b602081525f825161018060208401526135306101a0840182612deb565b9050602084015160408401526040840151601f1984830301606085015261355782826134a5565b9150506060840151601f1984830301608085015261357582826134a5565b915050608084015161358a60a08501826134f3565b5060a0840151805160ff90811660c086015260208201511660e0850152604081015161ffff166101008501525060c0840151805160ff908116610120860152602082015116610140850152604081015161ffff166101608501525060e0840151838203601f19016101808501526136018282612deb565b95945050505050565b5f5f6040838503121561361b575f5ffd5b82356001600160401b03811115613630575f5ffd5b61363c85828601612e4d565b92505060208301356001600160401b03811115613657575f5ffd5b612f0b858286016132cb565b602081525f6108ec60208301846134a5565b5f5f5f60608486031215613687575f5ffd5b83356001600160401b0381111561369c575f5ffd5b6136a886828701612e4d565b93505060208401356001600160401b038111156136c3575f5ffd5b6136cf86828701612e4d565b92505060408401356001600160401b038111156136ea575f5ffd5b61349b868287016132cb565b5f5f5f60608486031215613708575f5ffd5b833592506020840135915060408401356001600160401b0381111561348f575f5ffd5b5f5f5f5f6080858703121561373e575f5ffd5b61374785612ca8565b93506020850135925061375c60408601613002565b915060608501356001600160401b03811115613776575f5ffd5b61378287828801612d46565b91505092959194509250565b5f6020828403121561379e575f5ffd5b81356001600160401b038111156137b3575f5ffd5b6124c584828501612e4d565b5f5f5f5f5f5f61014087890312156137d5575f5ffd5b8635955060208701356001600160401b038111156137f1575f5ffd5b6137fd89828a01612d46565b95505060408701356001600160401b03811115613818575f5ffd5b61382489828a01612d46565b945050606087013560038110613838575f5ffd5b92506138478860808901613094565b91506138568860e08901613094565b90509295509295509295565b8385823760609290921b6001600160601b031916919092019081526014810191909152603401919050565b5f82518060208501845e5f920191825250919050565b600181811c908216806138b757607f821691505b6020821081036117d257634e487b7160e01b5f52602260045260245ffd5b601f8211156119c257805f5260205f20601f840160051c810160208510156138fa5750805b601f840160051c820191505b81811015610a7a575f8155600101613906565b81516001600160401b0381111561393257613932612cdc565b6139468161394084546138a3565b846138d5565b6020601f821160018114613978575f83156139615750848201515b5f19600385901b1c1916600184901b178455610a7a565b5f84815260208120601f198516915b828110156139a75787850151825560209485019460019092019101613987565b50848210156139c457868401515f19600387901b60f8161c191681555b50505050600190811b01905550565b634e487b7160e01b5f52603260045260245ffd5b6020808252600e908201526d139bdd08185d5d1a1bdc9a5e995960921b604082015260600190565b5f5f8335601e19843603018112613a24575f5ffd5b8301803591506001600160401b03821115613a3d575f5ffd5b602001915036819003821315613a51575f5ffd5b9250929050565b818382375f9101908152919050565b634e487b7160e01b5f52601160045260245ffd5b818103818111156107d1576107d1613a67565b634e487b7160e01b5f52603160045260245ffd5b60018060a01b03851681528360208201528215156040820152608060608201525f613ad06080830184612deb565b9695505050505050565b805160208201516001600160601b0319811691906014821015613b21576bffffffffffffffffffffffff196bffffffffffffffffffffffff198360140360031b1b82161692505b5050919050565b6001600160a01b038416815282151560208201526060604082018190525f9061360190830184612deb565b6001600160a01b0386811682528581166020830152841660408201526060810183905260a0608082018190525f9061257c90830184612deb565b8215158152604060208201525f6124c56040830184612deb565b805160208083015191908110156117d2575f1960209190910360031b1b16919050565b828152604060208201525f6124c56040830184612deb565b5f60208284031215613bf2575f5ffd5b81516001600160401b03811115613c07575f5ffd5b8201601f81018413613c17575f5ffd5b8051613c25612d6882612d20565b818152856020838501011115613c39575f5ffd5b8160208401602083015e5f91810160200191909152949350505050565b5f60018201613c6757613c67613a67565b506001019056fea264697066735822122060e68b940f435a5e3becbd362f68f92d992f33f166794b269d6aab2038de96c264736f6c634300081f0033",
			"opcodes": "PUSH1 0x80 PUSH1 0x40 MSTORE CALLVALUE DUP1 ISZERO PUSH2 0xF JUMPI PUSH0 PUSH0 REVERT JUMPDEST POP PUSH1 0x40 MLOAD PUSH2 0x4970 CODESIZE SUB DUP1 PUSH2 0x4970 DUP4 CODECOPY DUP2 ADD PUSH1 0x40 DUP2 SWAP1 MSTORE PUSH2 0x2E SWAP2 PUSH2 0x950 JUMP JUMPDEST PUSH1 0x40 DUP1 MLOAD DUP1 DUP3 ADD SWAP1 SWAP2 MSTORE PUSH1 0x6 DUP2 MSTORE PUSH6 0x46414D494C59 PUSH1 0xD0 SHL PUSH1 0x20 DUP3 ADD MSTORE DUP8 SWAP1 DUP3 PUSH1 0x2 PUSH0 DUP5 DUP5 DUP5 DUP5 DUP2 PUSH2 0x5F CALLER PUSH2 0x1FD JUMP JUMPDEST PUSH1 0x1 PUSH1 0x1 PUSH1 0xA0 SHL SUB DUP2 AND PUSH2 0x86 JUMPI PUSH1 0x40 MLOAD PUSH4 0x6B620DB PUSH1 0xE2 SHL DUP2 MSTORE PUSH1 0x4 ADD PUSH1 0x40 MLOAD DUP1 SWAP2 SUB SWAP1 REVERT JUMPDEST PUSH2 0x8F DUP2 PUSH2 0x1FD JUMP JUMPDEST POP PUSH1 0x40 DUP1 MLOAD DUP1 DUP3 ADD SWAP1 SWAP2 MSTORE PUSH1 0x4 DUP2 MSTORE PUSH4 0x29365989 PUSH1 0xE2 SHL PUSH1 0x20 DUP3 ADD MSTORE PUSH2 0xD6 SWAP1 PUSH32 0xEAFEC4D89FA9619884B60000A4D96624A38F7AC2D8D9A604ECF07C12C77E480C SWAP1 PUSH2 0x24C JUMP JUMPDEST PUSH2 0x100 PUSH32 0xDEBA1E292F8BA88238E10AB3C7F88BD4BE4FAC56CAD5194B6ECCEAF653468AF1 DUP6 PUSH2 0x24C JUMP JUMPDEST PUSH2 0x12A PUSH32 0x2F0A68AB07768E01943A599E73362A0E17A63A72E94DD2E384D2C1D4DB932756 DUP5 PUSH2 0x24C JUMP JUMPDEST PUSH1 0x40 DUP1 MLOAD PUSH1 0x20 DUP2 ADD DUP4 SWAP1 MSTORE PUSH2 0x171 SWAP2 PUSH32 0xE0261FA95DB2EB3B5439BD033CDA66D56B96F92F243A8228FD87550ED7BDFDB3 SWAP2 ADD PUSH1 0x40 DUP1 MLOAD PUSH1 0x1F NOT DUP2 DUP5 SUB ADD DUP2 MSTORE SWAP2 SWAP1 MSTORE PUSH2 0x24C JUMP JUMPDEST POP POP PUSH1 0x40 DUP1 MLOAD PUSH1 0x20 DUP2 ADD DUP6 SWAP1 MSTORE PUSH2 0x1BC SWAP4 POP PUSH32 0xF675E9361AF1C1664C1868CFA3EB97672D6B1A513AA5B81DEC34C9EE330E818D SWAP3 POP ADD PUSH1 0x40 DUP1 MLOAD PUSH1 0x1F NOT DUP2 DUP5 SUB ADD DUP2 MSTORE SWAP2 SWAP1 MSTORE PUSH2 0x2A0 JUMP JUMPDEST POP POP PUSH1 0x8 DUP1 SLOAD PUSH1 0x1 PUSH1 0x1 PUSH1 0xA0 SHL SUB NOT AND CALLER OR SWAP1 SSTORE POP PUSH1 0x9 SWAP2 POP PUSH2 0x1E1 SWAP1 POP DUP8 DUP3 PUSH2 0xABB JUMP JUMPDEST POP PUSH2 0x1F0 DUP6 DUP6 DUP4 PUSH0 DUP8 DUP8 PUSH2 0x360 JUMP JUMPDEST POP POP POP POP POP POP POP POP PUSH2 0xCBF JUMP JUMPDEST PUSH0 DUP1 SLOAD PUSH1 0x1 PUSH1 0x1 PUSH1 0xA0 SHL SUB DUP4 DUP2 AND PUSH1 0x1 PUSH1 0x1 PUSH1 0xA0 SHL SUB NOT DUP4 AND DUP2 OR DUP5 SSTORE PUSH1 0x40 MLOAD SWAP2 SWAP1 SWAP3 AND SWAP3 DUP4 SWAP2 PUSH32 0x8BE0079C531659141344CD1FD0A4F28419497F9722A3DAAFE3B4186F6B6457E0 SWAP2 SWAP1 LOG3 POP POP JUMP JUMPDEST PUSH0 DUP3 DUP2 MSTORE PUSH1 0x1 PUSH1 0x20 MSTORE PUSH1 0x40 SWAP1 KECCAK256 PUSH2 0x263 DUP3 DUP3 PUSH2 0xABB JUMP JUMPDEST POP DUP2 PUSH32 0xECE574603820D07BC9B91F2A932BAADF4628AABCB8AFBA49776529C14A6104B2 DUP3 PUSH1 0x40 MLOAD PUSH2 0x294 SWAP2 SWAP1 PUSH2 0xBA3 JUMP JUMPDEST PUSH1 0x40 MLOAD DUP1 SWAP2 SUB SWAP1 LOG2 POP POP JUMP JUMPDEST PUSH32 0x2145E1D6D074577DC71EF54C3807742B41B053A9352AE6B491331509ACB9750F DUP3 ADD PUSH2 0x2E0 JUMPI PUSH1 0x40 MLOAD PUSH4 0x85C169BD PUSH1 0xE0 SHL DUP2 MSTORE PUSH1 0x4 ADD PUSH1 0x40 MLOAD DUP1 SWAP2 SUB SWAP1 REVERT JUMPDEST PUSH32 0xD0F59754F88971FE6BC5A6618CC9D5F1E859C58D16B22D1C7B2D3E2B246CD8AA DUP3 ADD PUSH2 0x320 JUMPI PUSH1 0x40 MLOAD PUSH4 0xECEAB67 PUSH1 0xE3 SHL DUP2 MSTORE PUSH1 0x4 ADD PUSH1 0x40 MLOAD DUP1 SWAP2 SUB SWAP1 REVERT JUMPDEST PUSH32 0x1FD9E056A24D14C4ABC642FCC325992A946906D0DBC57DD70278AAF12842024D DUP3 ADD PUSH2 0x24C JUMPI PUSH1 0x40 MLOAD PUSH4 0x4EF6D7FB PUSH1 0xE0 SHL DUP2 MSTORE PUSH1 0x4 ADD PUSH1 0x40 MLOAD DUP1 SWAP2 SUB SWAP1 REVERT JUMPDEST PUSH0 PUSH2 0x36F PUSH1 0x6 DUP1 SLOAD PUSH1 0x1 ADD SWAP1 SSTORE JUMP JUMPDEST POP PUSH1 0x6 SLOAD PUSH1 0x40 DUP1 MLOAD PUSH1 0x20 DUP2 ADD SWAP1 SWAP2 MSTORE PUSH0 DUP2 MSTORE PUSH2 0x391 SWAP1 DUP7 SWAP1 DUP4 SWAP1 PUSH1 0x1 SWAP1 PUSH2 0x49F JUMP JUMPDEST PUSH0 DUP2 DUP2 MSTORE PUSH1 0x7 PUSH1 0x20 MSTORE PUSH1 0x40 SWAP1 KECCAK256 DUP1 PUSH2 0x3A9 DUP10 DUP3 PUSH2 0xABB JUMP JUMPDEST POP DUP4 MLOAD PUSH1 0x5 DUP3 ADD DUP1 SLOAD PUSH1 0x20 DUP1 DUP9 ADD MLOAD PUSH1 0x40 DUP1 DUP11 ADD MLOAD PUSH1 0xFF SWAP7 DUP8 AND PUSH2 0xFFFF NOT SWAP6 DUP7 AND OR PUSH2 0x100 SWAP4 DUP9 AND DUP5 MUL OR PUSH4 0xFFFF0000 NOT SWAP1 DUP2 AND PUSH3 0x10000 PUSH2 0xFFFF SWAP4 DUP5 AND DUP2 MUL SWAP2 SWAP1 SWAP2 OR SWAP1 SWAP8 SSTORE DUP11 MLOAD PUSH1 0x6 DUP11 ADD DUP1 SLOAD SWAP7 DUP14 ADD MLOAD SWAP5 DUP14 ADD MLOAD SWAP2 DUP11 AND SWAP7 SWAP1 SWAP8 AND SWAP6 SWAP1 SWAP6 OR SWAP3 SWAP1 SWAP8 AND SWAP1 SWAP3 MUL OR SWAP1 SWAP5 AND SWAP4 AND SWAP1 SWAP2 MUL SWAP2 SWAP1 SWAP2 OR SWAP1 SSTORE PUSH1 0x4 DUP2 ADD DUP1 SLOAD DUP7 SWAP2 SWAP1 PUSH1 0xFF NOT AND PUSH1 0x1 DUP4 PUSH1 0x2 DUP2 GT ISZERO PUSH2 0x442 JUMPI PUSH2 0x442 PUSH2 0xBB5 JUMP JUMPDEST MUL OR SWAP1 SSTORE POP PUSH1 0x7 DUP2 ADD PUSH2 0x455 DUP9 DUP3 PUSH2 0xABB JUMP JUMPDEST POP PUSH1 0x40 MLOAD PUSH1 0x1 PUSH1 0x1 PUSH1 0xA0 SHL SUB DUP8 AND DUP2 MSTORE DUP3 SWAP1 PUSH32 0xA6912C28A8CB5FC5CAB504E471CFA6BC504444025484D810E2565BC7DEAD6657 SWAP1 PUSH1 0x20 ADD PUSH1 0x40 MLOAD DUP1 SWAP2 SUB SWAP1 LOG2 POP SWAP7 SWAP6 POP POP POP POP POP POP JUMP JUMPDEST PUSH1 0x1 PUSH1 0x1 PUSH1 0xA0 SHL SUB DUP5 AND PUSH2 0x4C6 JUMPI PUSH1 0x40 MLOAD PUSH4 0x24ECEF4D PUSH1 0xE0 SHL DUP2 MSTORE PUSH1 0x4 ADD PUSH1 0x40 MLOAD DUP1 SWAP2 SUB SWAP1 REVERT JUMPDEST PUSH0 DUP4 DUP2 MSTORE PUSH1 0x3 PUSH1 0x20 MSTORE PUSH1 0x40 SWAP1 KECCAK256 SLOAD PUSH1 0x1 PUSH1 0x1 PUSH1 0xA0 SHL SUB AND ISZERO PUSH2 0x503 JUMPI PUSH1 0x40 MLOAD PUSH4 0x34C7B511 PUSH1 0xE0 SHL DUP2 MSTORE PUSH1 0x4 DUP2 ADD DUP5 SWAP1 MSTORE PUSH1 0x24 ADD JUMPDEST PUSH1 0x40 MLOAD DUP1 SWAP2 SUB SWAP1 REVERT JUMPDEST PUSH0 DUP4 DUP2 MSTORE PUSH1 0x3 PUSH1 0x20 MSTORE PUSH1 0x40 SWAP1 KECCAK256 SLOAD PUSH1 0x1 PUSH1 0x1 PUSH1 0xA0 SHL SUB AND ISZERO PUSH2 0x53B JUMPI PUSH1 0x40 MLOAD PUSH4 0x34C7B511 PUSH1 0xE0 SHL DUP2 MSTORE PUSH1 0x4 DUP2 ADD DUP5 SWAP1 MSTORE PUSH1 0x24 ADD PUSH2 0x4FA JUMP JUMPDEST PUSH1 0x2 PUSH0 DUP2 SLOAD PUSH2 0x549 SWAP1 PUSH2 0xBC9 JUMP JUMPDEST SWAP1 SWAP2 SSTORE POP PUSH1 0x1 PUSH1 0x1 PUSH1 0xA0 SHL SUB DUP5 AND PUSH0 SWAP1 DUP2 MSTORE PUSH1 0x4 PUSH1 0x20 MSTORE PUSH1 0x40 SWAP1 KECCAK256 PUSH2 0x56E SWAP1 DUP5 PUSH2 0x615 JUMP JUMPDEST POP PUSH0 DUP4 DUP2 MSTORE PUSH1 0x3 PUSH1 0x20 MSTORE PUSH1 0x40 DUP1 DUP3 KECCAK256 DUP1 SLOAD PUSH1 0x1 PUSH1 0x1 PUSH1 0xA0 SHL SUB NOT AND PUSH1 0x1 PUSH1 0x1 PUSH1 0xA0 SHL SUB DUP9 AND SWAP1 DUP2 OR SWAP1 SWAP2 SSTORE SWAP1 MLOAD DUP6 SWAP3 SWAP1 PUSH32 0xB333C813A7426A7A11E2B190CAD52C44119421594B47F6F32ACE6D8C7207B2BF SWAP1 PUSH2 0x5CF SWAP1 CALLER SWAP1 DUP9 SWAP1 DUP9 SWAP1 PUSH2 0xBED JUMP JUMPDEST PUSH1 0x40 MLOAD DUP1 SWAP2 SUB SWAP1 LOG4 PUSH0 CALLER PUSH0 DUP7 DUP7 DUP6 PUSH1 0x40 MLOAD PUSH1 0x20 ADD PUSH2 0x5F1 SWAP6 SWAP5 SWAP4 SWAP3 SWAP2 SWAP1 PUSH2 0xC21 JUMP JUMPDEST PUSH1 0x40 DUP1 MLOAD PUSH1 0x1F NOT DUP2 DUP5 SUB ADD DUP2 MSTORE SWAP2 SWAP1 MSTORE SWAP1 POP PUSH2 0x60E DUP6 DUP5 DUP4 PUSH2 0x629 JUMP JUMPDEST POP POP POP POP POP JUMP JUMPDEST PUSH0 PUSH2 0x620 DUP4 DUP4 PUSH2 0x737 JUMP JUMPDEST SWAP1 POP JUMPDEST SWAP3 SWAP2 POP POP JUMP JUMPDEST PUSH2 0x63A DUP4 PUSH4 0x1AED5A85 PUSH1 0xE2 SHL PUSH2 0x783 JUMP JUMPDEST ISZERO PUSH2 0x6D5 JUMPI PUSH1 0x40 MLOAD PUSH4 0x1AED5A85 PUSH1 0xE2 SHL DUP2 MSTORE PUSH1 0x1 PUSH1 0x1 PUSH1 0xA0 SHL SUB DUP5 AND SWAP1 PUSH4 0x6BB56A14 SWAP1 PUSH2 0x68D SWAP1 PUSH32 0xB084A55EBF70FD3C06FD755269DAC2212C4D3F0F4D09079780BFA50C1B2984D SWAP1 DUP6 SWAP1 PUSH1 0x4 ADD PUSH2 0xC5B JUMP JUMPDEST PUSH0 PUSH1 0x40 MLOAD DUP1 DUP4 SUB DUP2 PUSH0 DUP8 GAS CALL ISZERO DUP1 ISZERO PUSH2 0x6A8 JUMPI RETURNDATASIZE PUSH0 PUSH0 RETURNDATACOPY RETURNDATASIZE PUSH0 REVERT JUMPDEST POP POP POP POP PUSH1 0x40 MLOAD RETURNDATASIZE PUSH0 DUP3 RETURNDATACOPY PUSH1 0x1F RETURNDATASIZE SWAP1 DUP2 ADD PUSH1 0x1F NOT AND DUP3 ADD PUSH1 0x40 MSTORE PUSH2 0x6CF SWAP2 SWAP1 DUP2 ADD SWAP1 PUSH2 0xC7B JUMP JUMPDEST POP POP POP POP JUMP JUMPDEST DUP2 PUSH2 0x732 JUMPI PUSH1 0x1 PUSH1 0x1 PUSH1 0xA0 SHL SUB DUP4 AND EXTCODESIZE ISZERO PUSH2 0x70E JUMPI PUSH1 0x40 MLOAD PUSH4 0x4349776D PUSH1 0xE0 SHL DUP2 MSTORE PUSH1 0x1 PUSH1 0x1 PUSH1 0xA0 SHL SUB DUP5 AND PUSH1 0x4 DUP3 ADD MSTORE PUSH1 0x24 ADD PUSH2 0x4FA JUMP JUMPDEST PUSH1 0x40 MLOAD PUSH4 0x3173137 PUSH1 0xE0 SHL DUP2 MSTORE PUSH1 0x1 PUSH1 0x1 PUSH1 0xA0 SHL SUB DUP5 AND PUSH1 0x4 DUP3 ADD MSTORE PUSH1 0x24 ADD PUSH2 0x4FA JUMP JUMPDEST POP POP POP JUMP JUMPDEST PUSH0 DUP2 DUP2 MSTORE PUSH1 0x1 DUP4 ADD PUSH1 0x20 MSTORE PUSH1 0x40 DUP2 KECCAK256 SLOAD PUSH2 0x77C JUMPI POP DUP2 SLOAD PUSH1 0x1 DUP2 DUP2 ADD DUP5 SSTORE PUSH0 DUP5 DUP2 MSTORE PUSH1 0x20 DUP1 DUP3 KECCAK256 SWAP1 SWAP4 ADD DUP5 SWAP1 SSTORE DUP5 SLOAD DUP5 DUP3 MSTORE DUP3 DUP7 ADD SWAP1 SWAP4 MSTORE PUSH1 0x40 SWAP1 KECCAK256 SWAP2 SWAP1 SWAP2 SSTORE PUSH2 0x623 JUMP JUMPDEST POP PUSH0 PUSH2 0x623 JUMP JUMPDEST PUSH1 0x40 DUP1 MLOAD PUSH1 0x1 PUSH1 0x1 PUSH1 0xE0 SHL SUB NOT DUP4 AND PUSH1 0x24 DUP1 DUP4 ADD SWAP2 SWAP1 SWAP2 MSTORE DUP3 MLOAD DUP1 DUP4 SUB SWAP1 SWAP2 ADD DUP2 MSTORE PUSH1 0x44 SWAP1 SWAP2 ADD SWAP1 SWAP2 MSTORE PUSH1 0x20 DUP1 DUP3 ADD DUP1 MLOAD PUSH1 0x1 PUSH1 0x1 PUSH1 0xE0 SHL SUB AND PUSH4 0x1FFC9A7 PUSH1 0xE0 SHL OR DUP2 MSTORE DUP3 MLOAD PUSH0 SWAP4 SWAP3 DUP5 SWAP3 DUP4 SWAP3 DUP4 SWAP3 SWAP2 DUP4 SWAP2 SWAP1 DUP11 PUSH2 0x7530 STATICCALL SWAP3 POP RETURNDATASIZE SWAP2 POP PUSH0 MLOAD SWAP1 POP DUP3 DUP1 ISZERO PUSH2 0x7F3 JUMPI POP PUSH1 0x20 DUP3 LT ISZERO JUMPDEST DUP1 ISZERO PUSH2 0x7FE JUMPI POP PUSH0 DUP2 GT JUMPDEST SWAP8 SWAP7 POP POP POP POP POP POP POP JUMP JUMPDEST PUSH4 0x4E487B71 PUSH1 0xE0 SHL PUSH0 MSTORE PUSH1 0x41 PUSH1 0x4 MSTORE PUSH1 0x24 PUSH0 REVERT JUMPDEST PUSH0 DUP1 PUSH1 0x1 PUSH1 0x1 PUSH1 0x40 SHL SUB DUP5 GT ISZERO PUSH2 0x836 JUMPI PUSH2 0x836 PUSH2 0x809 JUMP JUMPDEST POP PUSH1 0x40 MLOAD PUSH1 0x1F NOT PUSH1 0x1F DUP6 ADD DUP2 AND PUSH1 0x3F ADD AND DUP2 ADD DUP2 DUP2 LT PUSH1 0x1 PUSH1 0x1 PUSH1 0x40 SHL SUB DUP3 GT OR ISZERO PUSH2 0x864 JUMPI PUSH2 0x864 PUSH2 0x809 JUMP JUMPDEST PUSH1 0x40 MSTORE DUP4 DUP2 MSTORE SWAP1 POP DUP1 DUP3 DUP5 ADD DUP6 LT ISZERO PUSH2 0x87B JUMPI PUSH0 PUSH0 REVERT JUMPDEST DUP4 DUP4 PUSH1 0x20 DUP4 ADD MCOPY PUSH0 PUSH1 0x20 DUP6 DUP4 ADD ADD MSTORE POP SWAP4 SWAP3 POP POP POP JUMP JUMPDEST PUSH0 DUP3 PUSH1 0x1F DUP4 ADD SLT PUSH2 0x8A1 JUMPI PUSH0 PUSH0 REVERT JUMPDEST PUSH2 0x620 DUP4 DUP4 MLOAD PUSH1 0x20 DUP6 ADD PUSH2 0x81D JUMP JUMPDEST DUP1 MLOAD PUSH1 0xFF DUP2 AND DUP2 EQ PUSH2 0x8C0 JUMPI PUSH0 PUSH0 REVERT JUMPDEST SWAP2 SWAP1 POP JUMP JUMPDEST PUSH0 PUSH1 0x60 DUP3 DUP5 SUB SLT ISZERO PUSH2 0x8D5 JUMPI PUSH0 PUSH0 REVERT JUMPDEST PUSH1 0x40 MLOAD PUSH1 0x60 DUP2 ADD PUSH1 0x1 PUSH1 0x1 PUSH1 0x40 SHL SUB DUP2 GT DUP3 DUP3 LT OR ISZERO PUSH2 0x8F7 JUMPI PUSH2 0x8F7 PUSH2 0x809 JUMP JUMPDEST PUSH1 0x40 MSTORE SWAP1 POP DUP1 PUSH2 0x906 DUP4 PUSH2 0x8B0 JUMP JUMPDEST DUP2 MSTORE PUSH2 0x914 PUSH1 0x20 DUP5 ADD PUSH2 0x8B0 JUMP JUMPDEST PUSH1 0x20 DUP3 ADD MSTORE PUSH1 0x40 DUP4 ADD MLOAD PUSH2 0xFFFF DUP2 AND DUP2 EQ PUSH2 0x92D JUMPI PUSH0 PUSH0 REVERT JUMPDEST PUSH1 0x40 SWAP2 SWAP1 SWAP2 ADD MSTORE SWAP3 SWAP2 POP POP JUMP JUMPDEST DUP1 MLOAD PUSH1 0x1 PUSH1 0x1 PUSH1 0xA0 SHL SUB DUP2 AND DUP2 EQ PUSH2 0x8C0 JUMPI PUSH0 PUSH0 REVERT JUMPDEST PUSH0 PUSH0 PUSH0 PUSH0 PUSH0 PUSH0 PUSH0 PUSH2 0x160 DUP9 DUP11 SUB SLT ISZERO PUSH2 0x967 JUMPI PUSH0 PUSH0 REVERT JUMPDEST DUP8 MLOAD PUSH1 0x1 PUSH1 0x1 PUSH1 0x40 SHL SUB DUP2 GT ISZERO PUSH2 0x97C JUMPI PUSH0 PUSH0 REVERT JUMPDEST PUSH2 0x988 DUP11 DUP3 DUP12 ADD PUSH2 0x892 JUMP JUMPDEST PUSH1 0x20 DUP11 ADD MLOAD SWAP1 SWAP9 POP SWAP1 POP PUSH1 0x1 PUSH1 0x1 PUSH1 0x40 SHL SUB DUP2 GT ISZERO PUSH2 0x9A5 JUMPI PUSH0 PUSH0 REVERT JUMPDEST PUSH2 0x9B1 DUP11 DUP3 DUP12 ADD PUSH2 0x892 JUMP JUMPDEST PUSH1 0x40 DUP11 ADD MLOAD SWAP1 SWAP8 POP SWAP1 POP PUSH1 0x1 PUSH1 0x1 PUSH1 0x40 SHL SUB DUP2 GT ISZERO PUSH2 0x9CE JUMPI PUSH0 PUSH0 REVERT JUMPDEST PUSH2 0x9DA DUP11 DUP3 DUP12 ADD PUSH2 0x892 JUMP JUMPDEST PUSH1 0x60 DUP11 ADD MLOAD SWAP1 SWAP7 POP SWAP1 POP PUSH1 0x1 PUSH1 0x1 PUSH1 0x40 SHL SUB DUP2 GT ISZERO PUSH2 0x9F7 JUMPI PUSH0 PUSH0 REVERT JUMPDEST PUSH2 0xA03 DUP11 DUP3 DUP12 ADD PUSH2 0x892 JUMP JUMPDEST SWAP5 POP POP PUSH2 0xA13 DUP10 PUSH1 0x80 DUP11 ADD PUSH2 0x8C5 JUMP JUMPDEST SWAP3 POP PUSH2 0xA22 DUP10 PUSH1 0xE0 DUP11 ADD PUSH2 0x8C5 JUMP JUMPDEST SWAP2 POP PUSH2 0xA31 PUSH2 0x140 DUP10 ADD PUSH2 0x93A JUMP JUMPDEST SWAP1 POP SWAP3 SWAP6 SWAP9 SWAP2 SWAP5 SWAP8 POP SWAP3 SWAP6 POP JUMP JUMPDEST PUSH1 0x1 DUP2 DUP2 SHR SWAP1 DUP3 AND DUP1 PUSH2 0xA53 JUMPI PUSH1 0x7F DUP3 AND SWAP2 POP JUMPDEST PUSH1 0x20 DUP3 LT DUP2 SUB PUSH2 0xA71 JUMPI PUSH4 0x4E487B71 PUSH1 0xE0 SHL PUSH0 MSTORE PUSH1 0x22 PUSH1 0x4 MSTORE PUSH1 0x24 PUSH0 REVERT JUMPDEST POP SWAP2 SWAP1 POP JUMP JUMPDEST PUSH1 0x1F DUP3 GT ISZERO PUSH2 0x732 JUMPI DUP1 PUSH0 MSTORE PUSH1 0x20 PUSH0 KECCAK256 PUSH1 0x1F DUP5 ADD PUSH1 0x5 SHR DUP2 ADD PUSH1 0x20 DUP6 LT ISZERO PUSH2 0xA9C JUMPI POP DUP1 JUMPDEST PUSH1 0x1F DUP5 ADD PUSH1 0x5 SHR DUP3 ADD SWAP2 POP JUMPDEST DUP2 DUP2 LT ISZERO PUSH2 0x60E JUMPI PUSH0 DUP2 SSTORE PUSH1 0x1 ADD PUSH2 0xAA8 JUMP JUMPDEST DUP2 MLOAD PUSH1 0x1 PUSH1 0x1 PUSH1 0x40 SHL SUB DUP2 GT ISZERO PUSH2 0xAD4 JUMPI PUSH2 0xAD4 PUSH2 0x809 JUMP JUMPDEST PUSH2 0xAE8 DUP2 PUSH2 0xAE2 DUP5 SLOAD PUSH2 0xA3F JUMP JUMPDEST DUP5 PUSH2 0xA77 JUMP JUMPDEST PUSH1 0x20 PUSH1 0x1F DUP3 GT PUSH1 0x1 DUP2 EQ PUSH2 0xB1A JUMPI PUSH0 DUP4 ISZERO PUSH2 0xB03 JUMPI POP DUP5 DUP3 ADD MLOAD JUMPDEST PUSH0 NOT PUSH1 0x3 DUP6 SWAP1 SHL SHR NOT AND PUSH1 0x1 DUP5 SWAP1 SHL OR DUP5 SSTORE PUSH2 0x60E JUMP JUMPDEST PUSH0 DUP5 DUP2 MSTORE PUSH1 0x20 DUP2 KECCAK256 PUSH1 0x1F NOT DUP6 AND SWAP2 JUMPDEST DUP3 DUP2 LT ISZERO PUSH2 0xB49 JUMPI DUP8 DUP6 ADD MLOAD DUP3 SSTORE PUSH1 0x20 SWAP5 DUP6 ADD SWAP5 PUSH1 0x1 SWAP1 SWAP3 ADD SWAP2 ADD PUSH2 0xB29 JUMP JUMPDEST POP DUP5 DUP3 LT ISZERO PUSH2 0xB66 JUMPI DUP7 DUP5 ADD MLOAD PUSH0 NOT PUSH1 0x3 DUP8 SWAP1 SHL PUSH1 0xF8 AND SHR NOT AND DUP2 SSTORE JUMPDEST POP POP POP POP PUSH1 0x1 SWAP1 DUP2 SHL ADD SWAP1 SSTORE POP JUMP JUMPDEST PUSH0 DUP2 MLOAD DUP1 DUP5 MSTORE DUP1 PUSH1 0x20 DUP5 ADD PUSH1 0x20 DUP7 ADD MCOPY PUSH0 PUSH1 0x20 DUP3 DUP7 ADD ADD MSTORE PUSH1 0x20 PUSH1 0x1F NOT PUSH1 0x1F DUP4 ADD AND DUP6 ADD ADD SWAP2 POP POP SWAP3 SWAP2 POP POP JUMP JUMPDEST PUSH1 0x20 DUP2 MSTORE PUSH0 PUSH2 0x620 PUSH1 0x20 DUP4 ADD DUP5 PUSH2 0xB75 JUMP JUMPDEST PUSH4 0x4E487B71 PUSH1 0xE0 SHL PUSH0 MSTORE PUSH1 0x21 PUSH1 0x4 MSTORE PUSH1 0x24 PUSH0 REVERT JUMPDEST PUSH0 PUSH1 0x1 DUP3 ADD PUSH2 0xBE6 JUMPI PUSH4 0x4E487B71 PUSH1 0xE0 SHL PUSH0 MSTORE PUSH1 0x11 PUSH1 0x4 MSTORE PUSH1 0x24 PUSH0 REVERT JUMPDEST POP PUSH1 0x1 ADD SWAP1 JUMP JUMPDEST PUSH1 0x1 PUSH1 0x1 PUSH1 0xA0 SHL SUB DUP5 AND DUP2 MSTORE DUP3 ISZERO ISZERO PUSH1 0x20 DUP3 ADD MSTORE PUSH1 0x60 PUSH1 0x40 DUP3 ADD DUP2 SWAP1 MSTORE PUSH0 SWAP1 PUSH2 0xC18 SWAP1 DUP4 ADD DUP5 PUSH2 0xB75 JUMP JUMPDEST SWAP6 SWAP5 POP POP POP POP POP JUMP JUMPDEST PUSH1 0x1 PUSH1 0x1 PUSH1 0xA0 SHL SUB DUP7 DUP2 AND DUP3 MSTORE DUP6 DUP2 AND PUSH1 0x20 DUP4 ADD MSTORE DUP5 AND PUSH1 0x40 DUP3 ADD MSTORE PUSH1 0x60 DUP2 ADD DUP4 SWAP1 MSTORE PUSH1 0xA0 PUSH1 0x80 DUP3 ADD DUP2 SWAP1 MSTORE PUSH0 SWAP1 PUSH2 0x7FE SWAP1 DUP4 ADD DUP5 PUSH2 0xB75 JUMP JUMPDEST DUP3 DUP2 MSTORE PUSH1 0x40 PUSH1 0x20 DUP3 ADD MSTORE PUSH0 PUSH2 0xC73 PUSH1 0x40 DUP4 ADD DUP5 PUSH2 0xB75 JUMP JUMPDEST SWAP5 SWAP4 POP POP POP POP JUMP JUMPDEST PUSH0 PUSH1 0x20 DUP3 DUP5 SUB SLT ISZERO PUSH2 0xC8B JUMPI PUSH0 PUSH0 REVERT JUMPDEST DUP2 MLOAD PUSH1 0x1 PUSH1 0x1 PUSH1 0x40 SHL SUB DUP2 GT ISZERO PUSH2 0xCA0 JUMPI PUSH0 PUSH0 REVERT JUMPDEST DUP3 ADD PUSH1 0x1F DUP2 ADD DUP5 SGT PUSH2 0xCB0 JUMPI PUSH0 PUSH0 REVERT JUMPDEST PUSH2 0xC73 DUP5 DUP3 MLOAD PUSH1 0x20 DUP5 ADD PUSH2 0x81D JUMP JUMPDEST PUSH2 0x3CA4 DUP1 PUSH2 0xCCC PUSH0 CODECOPY PUSH0 RETURN INVALID PUSH1 0x80 PUSH1 0x40 MSTORE PUSH1 0x4 CALLDATASIZE LT PUSH2 0x1FC JUMPI PUSH0 CALLDATALOAD PUSH1 0xE0 SHR DUP1 PUSH4 0x7E87632C GT PUSH2 0x10C JUMPI DUP1 PUSH4 0xA3B261F2 GT PUSH2 0x9F JUMPI DUP1 PUSH4 0xDEDFF9C6 GT PUSH2 0x6E JUMPI DUP1 PUSH4 0xDEDFF9C6 EQ PUSH2 0x658 JUMPI DUP1 PUSH4 0xDF4857EC EQ PUSH2 0x677 JUMPI DUP1 PUSH4 0xE4AC8DBD EQ PUSH2 0x696 JUMPI DUP1 PUSH4 0xEB445DE4 EQ PUSH2 0x6AA JUMPI DUP1 PUSH4 0xF2FDE38B EQ PUSH2 0x6C9 JUMPI PUSH2 0x255 JUMP JUMPDEST DUP1 PUSH4 0xA3B261F2 EQ PUSH2 0x5CF JUMPI DUP1 PUSH4 0xBE9F0E6F EQ PUSH2 0x5FB JUMPI DUP1 PUSH4 0xD6C1407C EQ PUSH2 0x61A JUMPI DUP1 PUSH4 0xDB8C9663 EQ PUSH2 0x639 JUMPI PUSH2 0x255 JUMP JUMPDEST DUP1 PUSH4 0x8DA5CB5B GT PUSH2 0xDB JUMPI DUP1 PUSH4 0x8DA5CB5B EQ PUSH2 0x555 JUMPI DUP1 PUSH4 0x92B88F06 EQ PUSH2 0x571 JUMPI DUP1 PUSH4 0x97902421 EQ PUSH2 0x59D JUMPI DUP1 PUSH4 0xA07E80C6 EQ PUSH2 0x5B0 JUMPI PUSH2 0x255 JUMP JUMPDEST DUP1 PUSH4 0x7E87632C EQ PUSH2 0x4E5 JUMPI DUP1 PUSH4 0x7E913B05 EQ PUSH2 0x504 JUMPI DUP1 PUSH4 0x7F23690C EQ PUSH2 0x523 JUMPI DUP1 PUSH4 0x86A10DDD EQ PUSH2 0x536 JUMPI PUSH2 0x255 JUMP JUMPDEST DUP1 PUSH4 0x2A3654A4 GT PUSH2 0x18F JUMPI DUP1 PUSH4 0x59814756 GT PUSH2 0x15E JUMPI DUP1 PUSH4 0x59814756 EQ PUSH2 0x45E JUMPI DUP1 PUSH4 0x6963D438 EQ PUSH2 0x47D JUMPI DUP1 PUSH4 0x70A08231 EQ PUSH2 0x49C JUMPI DUP1 PUSH4 0x715018A6 EQ PUSH2 0x4BB JUMPI DUP1 PUSH4 0x78495BF8 EQ PUSH2 0x4CF JUMPI PUSH2 0x255 JUMP JUMPDEST DUP1 PUSH4 0x2A3654A4 EQ PUSH2 0x3D5 JUMPI DUP1 PUSH4 0x49A6078D EQ PUSH2 0x3F4 JUMPI DUP1 PUSH4 0x511B6952 EQ PUSH2 0x420 JUMPI DUP1 PUSH4 0x54F6127F EQ PUSH2 0x43F JUMPI PUSH2 0x255 JUMP JUMPDEST DUP1 PUSH4 0x18160DDD GT PUSH2 0x1CB JUMPI DUP1 PUSH4 0x18160DDD EQ PUSH2 0x335 JUMPI DUP1 PUSH4 0x1D26FCE6 EQ PUSH2 0x353 JUMPI DUP1 PUSH4 0x1F121708 EQ PUSH2 0x37F JUMPI DUP1 PUSH4 0x217B2270 EQ PUSH2 0x3B6 JUMPI PUSH2 0x255 JUMP JUMPDEST DUP1 PUSH4 0x1FFC9A7 EQ PUSH2 0x295 JUMPI DUP1 PUSH4 0x2154B4E EQ PUSH2 0x2C9 JUMPI DUP1 PUSH4 0xCFA4650 EQ PUSH2 0x2EA JUMPI DUP1 PUSH4 0x16E023B3 EQ PUSH2 0x309 JUMPI PUSH2 0x255 JUMP JUMPDEST CALLDATASIZE PUSH2 0x255 JUMPI CALLVALUE PUSH0 SUB PUSH2 0x23C JUMPI PUSH1 0x40 MLOAD PUSH4 0xE5099EE3 PUSH1 0xE0 SHL DUP2 MSTORE PUSH1 0x4 ADD PUSH2 0x233 SWAP1 PUSH1 0x20 DUP1 DUP3 MSTORE PUSH1 0x4 SWAP1 DUP3 ADD MSTORE PUSH0 PUSH1 0x40 DUP3 ADD MSTORE PUSH1 0x60 ADD SWAP1 JUMP JUMPDEST PUSH1 0x40 MLOAD DUP1 SWAP2 SUB SWAP1 REVERT JUMPDEST PUSH1 0x40 MLOAD PUSH4 0x30FA4A21 PUSH1 0xE1 SHL DUP2 MSTORE PUSH1 0x4 ADD PUSH1 0x40 MLOAD DUP1 SWAP2 SUB SWAP1 REVERT JUMPDEST PUSH0 CALLDATASIZE PUSH1 0x60 PUSH1 0x4 DUP3 LT ISZERO PUSH2 0x27F JUMPI DUP3 DUP3 PUSH1 0x40 MLOAD PUSH4 0xE5099EE3 PUSH1 0xE0 SHL DUP2 MSTORE PUSH1 0x4 ADD PUSH2 0x233 SWAP3 SWAP2 SWAP1 PUSH2 0x2C53 JUMP JUMPDEST PUSH2 0x289 DUP4 DUP4 PUSH2 0x6E8 JUMP JUMPDEST DUP1 MLOAD SWAP4 POP PUSH1 0x20 ADD SWAP2 POP POP RETURN JUMPDEST CALLVALUE DUP1 ISZERO PUSH2 0x2A0 JUMPI PUSH0 PUSH0 REVERT JUMPDEST POP PUSH2 0x2B4 PUSH2 0x2AF CALLDATASIZE PUSH1 0x4 PUSH2 0x2C81 JUMP JUMPDEST PUSH2 0x7D7 JUMP JUMPDEST PUSH1 0x40 MLOAD SWAP1 ISZERO ISZERO DUP2 MSTORE PUSH1 0x20 ADD JUMPDEST PUSH1 0x40 MLOAD DUP1 SWAP2 SUB SWAP1 RETURN JUMPDEST CALLVALUE DUP1 ISZERO PUSH2 0x2D4 JUMPI PUSH0 PUSH0 REVERT JUMPDEST POP PUSH2 0x2E8 PUSH2 0x2E3 CALLDATASIZE PUSH1 0x4 PUSH2 0x2CC3 JUMP JUMPDEST PUSH2 0x80A JUMP JUMPDEST STOP JUMPDEST CALLVALUE DUP1 ISZERO PUSH2 0x2F5 JUMPI PUSH0 PUSH0 REVERT JUMPDEST POP PUSH2 0x2E8 PUSH2 0x304 CALLDATASIZE PUSH1 0x4 PUSH2 0x2D9A JUMP JUMPDEST PUSH2 0x89E JUMP JUMPDEST CALLVALUE DUP1 ISZERO PUSH2 0x314 JUMPI PUSH0 PUSH0 REVERT JUMPDEST POP PUSH2 0x328 PUSH2 0x323 CALLDATASIZE PUSH1 0x4 PUSH2 0x2DCB JUMP JUMPDEST PUSH2 0x8E0 JUMP JUMPDEST PUSH1 0x40 MLOAD PUSH2 0x2C0 SWAP2 SWAP1 PUSH2 0x2E19 JUMP JUMPDEST CALLVALUE DUP1 ISZERO PUSH2 0x340 JUMPI PUSH0 PUSH0 REVERT JUMPDEST POP PUSH1 0x2 SLOAD JUMPDEST PUSH1 0x40 MLOAD SWAP1 DUP2 MSTORE PUSH1 0x20 ADD PUSH2 0x2C0 JUMP JUMPDEST CALLVALUE DUP1 ISZERO PUSH2 0x35E JUMPI PUSH0 PUSH0 REVERT JUMPDEST POP PUSH2 0x372 PUSH2 0x36D CALLDATASIZE PUSH1 0x4 PUSH2 0x2EB2 JUMP JUMPDEST PUSH2 0x8F3 JUMP JUMPDEST PUSH1 0x40 MLOAD PUSH2 0x2C0 SWAP2 SWAP1 PUSH2 0x2F15 JUMP JUMPDEST CALLVALUE DUP1 ISZERO PUSH2 0x38A JUMPI PUSH0 PUSH0 REVERT JUMPDEST POP PUSH1 0x8 SLOAD PUSH2 0x39E SWAP1 PUSH1 0x1 PUSH1 0x1 PUSH1 0xA0 SHL SUB AND DUP2 JUMP JUMPDEST PUSH1 0x40 MLOAD PUSH1 0x1 PUSH1 0x1 PUSH1 0xA0 SHL SUB SWAP1 SWAP2 AND DUP2 MSTORE PUSH1 0x20 ADD PUSH2 0x2C0 JUMP JUMPDEST CALLVALUE DUP1 ISZERO PUSH2 0x3C1 JUMPI PUSH0 PUSH0 REVERT JUMPDEST POP PUSH2 0x39E PUSH2 0x3D0 CALLDATASIZE PUSH1 0x4 PUSH2 0x2F78 JUMP JUMPDEST PUSH2 0x9D9 JUMP JUMPDEST CALLVALUE DUP1 ISZERO PUSH2 0x3E0 JUMPI PUSH0 PUSH0 REVERT JUMPDEST POP PUSH2 0x2B4 PUSH2 0x3EF CALLDATASIZE PUSH1 0x4 PUSH2 0x2F8F JUMP JUMPDEST PUSH2 0xA11 JUMP JUMPDEST CALLVALUE DUP1 ISZERO PUSH2 0x3FF JUMPI PUSH0 PUSH0 REVERT JUMPDEST POP PUSH2 0x413 PUSH2 0x40E CALLDATASIZE PUSH1 0x4 PUSH2 0x2F78 JUMP JUMPDEST PUSH2 0xA1C JUMP JUMPDEST PUSH1 0x40 MLOAD PUSH2 0x2C0 SWAP2 SWAP1 PUSH2 0x2FB7 JUMP JUMPDEST CALLVALUE DUP1 ISZERO PUSH2 0x42B JUMPI PUSH0 PUSH0 REVERT JUMPDEST POP PUSH2 0x2E8 PUSH2 0x43A CALLDATASIZE PUSH1 0x4 PUSH2 0x3011 JUMP JUMPDEST PUSH2 0xA3D JUMP JUMPDEST CALLVALUE DUP1 ISZERO PUSH2 0x44A JUMPI PUSH0 PUSH0 REVERT JUMPDEST POP PUSH2 0x328 PUSH2 0x459 CALLDATASIZE PUSH1 0x4 PUSH2 0x2F78 JUMP JUMPDEST PUSH2 0xA81 JUMP JUMPDEST CALLVALUE DUP1 ISZERO PUSH2 0x469 JUMPI PUSH0 PUSH0 REVERT JUMPDEST POP PUSH2 0x2E8 PUSH2 0x478 CALLDATASIZE PUSH1 0x4 PUSH2 0x3109 JUMP JUMPDEST PUSH2 0xA8C JUMP JUMPDEST CALLVALUE DUP1 ISZERO PUSH2 0x488 JUMPI PUSH0 PUSH0 REVERT JUMPDEST POP PUSH2 0x372 PUSH2 0x497 CALLDATASIZE PUSH1 0x4 PUSH2 0x3198 JUMP JUMPDEST PUSH2 0xB85 JUMP JUMPDEST CALLVALUE DUP1 ISZERO PUSH2 0x4A7 JUMPI PUSH0 PUSH0 REVERT JUMPDEST POP PUSH2 0x345 PUSH2 0x4B6 CALLDATASIZE PUSH1 0x4 PUSH2 0x2CC3 JUMP JUMPDEST PUSH2 0xCAF JUMP JUMPDEST CALLVALUE DUP1 ISZERO PUSH2 0x4C6 JUMPI PUSH0 PUSH0 REVERT JUMPDEST POP PUSH2 0x2E8 PUSH2 0xCCF JUMP JUMPDEST CALLVALUE DUP1 ISZERO PUSH2 0x4DA JUMPI PUSH0 PUSH0 REVERT JUMPDEST POP PUSH1 0x6 SLOAD PUSH2 0x345 SWAP1 DUP2 JUMP JUMPDEST CALLVALUE DUP1 ISZERO PUSH2 0x4F0 JUMPI PUSH0 PUSH0 REVERT JUMPDEST POP PUSH2 0x2E8 PUSH2 0x4FF CALLDATASIZE PUSH1 0x4 PUSH2 0x3349 JUMP JUMPDEST PUSH2 0xCE2 JUMP JUMPDEST CALLVALUE DUP1 ISZERO PUSH2 0x50F JUMPI PUSH0 PUSH0 REVERT JUMPDEST POP PUSH2 0x2E8 PUSH2 0x51E CALLDATASIZE PUSH1 0x4 PUSH2 0x2DCB JUMP JUMPDEST PUSH2 0xDD0 JUMP JUMPDEST PUSH2 0x2E8 PUSH2 0x531 CALLDATASIZE PUSH1 0x4 PUSH2 0x341A JUMP JUMPDEST PUSH2 0xF73 JUMP JUMPDEST CALLVALUE DUP1 ISZERO PUSH2 0x541 JUMPI PUSH0 PUSH0 REVERT JUMPDEST POP PUSH2 0x2E8 PUSH2 0x550 CALLDATASIZE PUSH1 0x4 PUSH2 0x3453 JUMP JUMPDEST PUSH2 0xFA8 JUMP JUMPDEST CALLVALUE DUP1 ISZERO PUSH2 0x560 JUMPI PUSH0 PUSH0 REVERT JUMPDEST POP PUSH0 SLOAD PUSH1 0x1 PUSH1 0x1 PUSH1 0xA0 SHL SUB AND PUSH2 0x39E JUMP JUMPDEST CALLVALUE DUP1 ISZERO PUSH2 0x57C JUMPI PUSH0 PUSH0 REVERT JUMPDEST POP PUSH2 0x590 PUSH2 0x58B CALLDATASIZE PUSH1 0x4 PUSH2 0x2F78 JUMP JUMPDEST PUSH2 0x111F JUMP JUMPDEST PUSH1 0x40 MLOAD PUSH2 0x2C0 SWAP2 SWAP1 PUSH2 0x3513 JUMP JUMPDEST PUSH2 0x2E8 PUSH2 0x5AB CALLDATASIZE PUSH1 0x4 PUSH2 0x360A JUMP JUMPDEST PUSH2 0x13BC JUMP JUMPDEST CALLVALUE DUP1 ISZERO PUSH2 0x5BB JUMPI PUSH0 PUSH0 REVERT JUMPDEST POP PUSH2 0x2E8 PUSH2 0x5CA CALLDATASIZE PUSH1 0x4 PUSH2 0x3109 JUMP JUMPDEST PUSH2 0x13ED JUMP JUMPDEST CALLVALUE DUP1 ISZERO PUSH2 0x5DA JUMPI PUSH0 PUSH0 REVERT JUMPDEST POP PUSH2 0x5EE PUSH2 0x5E9 CALLDATASIZE PUSH1 0x4 PUSH2 0x2CC3 JUMP JUMPDEST PUSH2 0x1514 JUMP JUMPDEST PUSH1 0x40 MLOAD PUSH2 0x2C0 SWAP2 SWAP1 PUSH2 0x3663 JUMP JUMPDEST CALLVALUE DUP1 ISZERO PUSH2 0x606 JUMPI PUSH0 PUSH0 REVERT JUMPDEST POP PUSH2 0x2E8 PUSH2 0x615 CALLDATASIZE PUSH1 0x4 PUSH2 0x3675 JUMP JUMPDEST PUSH2 0x1537 JUMP JUMPDEST CALLVALUE DUP1 ISZERO PUSH2 0x625 JUMPI PUSH0 PUSH0 REVERT JUMPDEST POP PUSH2 0x2E8 PUSH2 0x634 CALLDATASIZE PUSH1 0x4 PUSH2 0x36F6 JUMP JUMPDEST PUSH2 0x15FA JUMP JUMPDEST CALLVALUE DUP1 ISZERO PUSH2 0x644 JUMPI PUSH0 PUSH0 REVERT JUMPDEST POP PUSH2 0x2E8 PUSH2 0x653 CALLDATASIZE PUSH1 0x4 PUSH2 0x372B JUMP JUMPDEST PUSH2 0x164E JUMP JUMPDEST CALLVALUE DUP1 ISZERO PUSH2 0x663 JUMPI PUSH0 PUSH0 REVERT JUMPDEST POP PUSH2 0x372 PUSH2 0x672 CALLDATASIZE PUSH1 0x4 PUSH2 0x378E JUMP JUMPDEST PUSH2 0x172F JUMP JUMPDEST CALLVALUE DUP1 ISZERO PUSH2 0x682 JUMPI PUSH0 PUSH0 REVERT JUMPDEST POP PUSH2 0x2E8 PUSH2 0x691 CALLDATASIZE PUSH1 0x4 PUSH2 0x2F78 JUMP JUMPDEST PUSH2 0x17D8 JUMP JUMPDEST CALLVALUE DUP1 ISZERO PUSH2 0x6A1 JUMPI PUSH0 PUSH0 REVERT JUMPDEST POP PUSH2 0x328 PUSH2 0x19C7 JUMP JUMPDEST CALLVALUE DUP1 ISZERO PUSH2 0x6B5 JUMPI PUSH0 PUSH0 REVERT JUMPDEST POP PUSH2 0x2E8 PUSH2 0x6C4 CALLDATASIZE PUSH1 0x4 PUSH2 0x37BF JUMP JUMPDEST PUSH2 0x1A53 JUMP JUMPDEST CALLVALUE DUP1 ISZERO PUSH2 0x6D4 JUMPI PUSH0 PUSH0 REVERT JUMPDEST POP PUSH2 0x2E8 PUSH2 0x6E3 CALLDATASIZE PUSH1 0x4 PUSH2 0x2CC3 JUMP JUMPDEST PUSH2 0x1B28 JUMP JUMPDEST PUSH1 0x60 PUSH0 PUSH2 0x6FF PUSH0 CALLDATALOAD PUSH1 0x1 PUSH1 0x1 PUSH1 0xE0 SHL SUB NOT AND PUSH2 0x1BA1 JUMP JUMPDEST POP SWAP1 POP PUSH1 0x1 PUSH1 0x1 PUSH1 0xA0 SHL SUB DUP2 AND PUSH2 0x736 JUMPI PUSH1 0x40 MLOAD PUSH4 0xBB370B2B PUSH1 0xE0 SHL DUP2 MSTORE PUSH1 0x1 PUSH1 0x1 PUSH1 0xE0 SHL SUB NOT PUSH0 CALLDATALOAD AND PUSH1 0x4 DUP3 ADD MSTORE PUSH1 0x24 ADD PUSH2 0x233 JUMP JUMPDEST PUSH0 PUSH0 DUP3 PUSH1 0x1 PUSH1 0x1 PUSH1 0xA0 SHL SUB AND CALLVALUE DUP8 DUP8 CALLER CALLVALUE PUSH1 0x40 MLOAD PUSH1 0x20 ADD PUSH2 0x75A SWAP5 SWAP4 SWAP3 SWAP2 SWAP1 PUSH2 0x3862 JUMP JUMPDEST PUSH1 0x40 DUP1 MLOAD PUSH1 0x1F NOT DUP2 DUP5 SUB ADD DUP2 MSTORE SWAP1 DUP3 SWAP1 MSTORE PUSH2 0x774 SWAP2 PUSH2 0x388D JUMP JUMPDEST PUSH0 PUSH1 0x40 MLOAD DUP1 DUP4 SUB DUP2 DUP6 DUP8 GAS CALL SWAP3 POP POP POP RETURNDATASIZE DUP1 PUSH0 DUP2 EQ PUSH2 0x7AE JUMPI PUSH1 0x40 MLOAD SWAP2 POP PUSH1 0x1F NOT PUSH1 0x3F RETURNDATASIZE ADD AND DUP3 ADD PUSH1 0x40 MSTORE RETURNDATASIZE DUP3 MSTORE RETURNDATASIZE PUSH0 PUSH1 0x20 DUP5 ADD RETURNDATACOPY PUSH2 0x7B3 JUMP JUMPDEST PUSH1 0x60 SWAP2 POP JUMPDEST POP SWAP2 POP SWAP2 POP DUP2 ISZERO PUSH2 0x7C8 JUMPI SWAP3 POP PUSH2 0x7D1 SWAP2 POP POP JUMP JUMPDEST DUP1 MLOAD DUP1 PUSH1 0x20 DUP4 ADD REVERT JUMPDEST SWAP3 SWAP2 POP POP JUMP JUMPDEST PUSH0 PUSH1 0x1 PUSH1 0x1 PUSH1 0xE0 SHL SUB NOT DUP3 AND PUSH4 0x1D138B83 PUSH1 0xE1 SHL EQ DUP1 PUSH2 0x7FB JUMPI POP PUSH2 0x7FB DUP3 PUSH2 0x1C1D JUMP JUMPDEST DUP1 PUSH2 0x7D1 JUMPI POP PUSH2 0x7D1 DUP3 PUSH2 0x1C41 JUMP JUMPDEST PUSH1 0x8 SLOAD PUSH1 0x1 PUSH1 0x1 PUSH1 0xA0 SHL SUB AND CALLER EQ PUSH2 0x851 JUMPI PUSH1 0x40 MLOAD PUSH3 0x461BCD PUSH1 0xE5 SHL DUP2 MSTORE PUSH1 0x20 PUSH1 0x4 DUP3 ADD MSTORE PUSH1 0xA PUSH1 0x24 DUP3 ADD MSTORE PUSH10 0x139BDD081C195C9B5A5D PUSH1 0xB2 SHL PUSH1 0x44 DUP3 ADD MSTORE PUSH1 0x64 ADD PUSH2 0x233 JUMP JUMPDEST PUSH2 0x85A DUP2 PUSH2 0x1C76 JUMP JUMPDEST PUSH1 0x40 DUP1 MLOAD CALLER DUP2 MSTORE PUSH1 0x1 PUSH1 0x1 PUSH1 0xA0 SHL SUB DUP4 AND PUSH1 0x20 DUP3 ADD MSTORE PUSH32 0xA7AA976A38ACC1C518ED0DA8516BA45163A160A1CCEBB68D2CF2BEB08B87E1FE SWAP2 ADD PUSH1 0x40 MLOAD DUP1 SWAP2 SUB SWAP1 LOG1 POP JUMP JUMPDEST PUSH2 0x8A6 PUSH2 0x1CC5 JUMP JUMPDEST PUSH1 0x9 PUSH2 0x8B2 DUP3 DUP3 PUSH2 0x3919 JUMP JUMPDEST POP PUSH1 0x40 MLOAD CALLER SWAP1 PUSH32 0x52DFE4FD4C28A03CD8AB0AF4995F1CAF006268A90C0E57CBD291D33F358FBC2F SWAP1 PUSH0 SWAP1 LOG2 POP JUMP JUMPDEST PUSH1 0x60 PUSH2 0x8EC DUP4 DUP4 PUSH2 0x1D1E JUMP JUMPDEST SWAP4 SWAP3 POP POP POP JUMP JUMPDEST PUSH1 0x60 DUP2 MLOAD DUP4 MLOAD EQ PUSH2 0x917 JUMPI PUSH1 0x40 MLOAD PUSH4 0x17D38EFF PUSH1 0xE1 SHL DUP2 MSTORE PUSH1 0x4 ADD PUSH1 0x40 MLOAD DUP1 SWAP2 SUB SWAP1 REVERT JUMPDEST DUP3 MLOAD PUSH1 0x1 PUSH1 0x1 PUSH1 0x40 SHL SUB DUP2 GT ISZERO PUSH2 0x930 JUMPI PUSH2 0x930 PUSH2 0x2CDC JUMP JUMPDEST PUSH1 0x40 MLOAD SWAP1 DUP1 DUP3 MSTORE DUP1 PUSH1 0x20 MUL PUSH1 0x20 ADD DUP3 ADD PUSH1 0x40 MSTORE DUP1 ISZERO PUSH2 0x963 JUMPI DUP2 PUSH1 0x20 ADD JUMPDEST PUSH1 0x60 DUP2 MSTORE PUSH1 0x20 ADD SWAP1 PUSH1 0x1 SWAP1 SUB SWAP1 DUP2 PUSH2 0x94E JUMPI SWAP1 POP JUMPDEST POP SWAP1 POP PUSH0 JUMPDEST DUP4 MLOAD DUP2 LT ISZERO PUSH2 0x9D2 JUMPI PUSH2 0x9AD DUP5 DUP3 DUP2 MLOAD DUP2 LT PUSH2 0x986 JUMPI PUSH2 0x986 PUSH2 0x39D3 JUMP JUMPDEST PUSH1 0x20 MUL PUSH1 0x20 ADD ADD MLOAD DUP5 DUP4 DUP2 MLOAD DUP2 LT PUSH2 0x9A0 JUMPI PUSH2 0x9A0 PUSH2 0x39D3 JUMP JUMPDEST PUSH1 0x20 MUL PUSH1 0x20 ADD ADD MLOAD PUSH2 0x1D1E JUMP JUMPDEST DUP3 DUP3 DUP2 MLOAD DUP2 LT PUSH2 0x9BF JUMPI PUSH2 0x9BF PUSH2 0x39D3 JUMP JUMPDEST PUSH1 0x20 SWAP1 DUP2 MUL SWAP2 SWAP1 SWAP2 ADD ADD MSTORE PUSH1 0x1 ADD PUSH2 0x968 JUMP JUMPDEST POP SWAP3 SWAP2 POP POP JUMP JUMPDEST PUSH0 DUP2 DUP2 MSTORE PUSH1 0x3 PUSH1 0x20 MSTORE PUSH1 0x40 DUP2 KECCAK256 SLOAD PUSH1 0x1 PUSH1 0x1 PUSH1 0xA0 SHL SUB AND DUP1 PUSH2 0x7D1 JUMPI PUSH1 0x40 MLOAD PUSH4 0x5747CD1B PUSH1 0xE1 SHL DUP2 MSTORE PUSH1 0x4 DUP2 ADD DUP5 SWAP1 MSTORE PUSH1 0x24 ADD PUSH2 0x233 JUMP JUMPDEST PUSH0 PUSH2 0x8EC DUP4 DUP4 PUSH2 0x1DF1 JUMP JUMPDEST PUSH1 0x60 PUSH2 0xA27 DUP3 PUSH2 0x1E2C JUMP JUMPDEST PUSH0 DUP3 DUP2 MSTORE PUSH1 0x5 PUSH1 0x20 MSTORE PUSH1 0x40 SWAP1 KECCAK256 PUSH2 0x7D1 SWAP1 PUSH2 0x1E63 JUMP JUMPDEST PUSH2 0xA47 CALLER DUP5 PUSH2 0x1DF1 JUMP JUMPDEST PUSH2 0xA6D JUMPI PUSH1 0x40 MLOAD PUSH4 0x1294D2A9 PUSH1 0xE0 SHL DUP2 MSTORE PUSH1 0x4 DUP2 ADD DUP5 SWAP1 MSTORE CALLER PUSH1 0x24 DUP3 ADD MSTORE PUSH1 0x44 ADD PUSH2 0x233 JUMP JUMPDEST PUSH2 0xA7A DUP6 DUP6 DUP6 DUP6 DUP6 PUSH2 0x1E6F JUMP JUMPDEST POP POP POP POP POP JUMP JUMPDEST PUSH1 0x60 PUSH2 0x7D1 DUP3 PUSH2 0x204B JUMP JUMPDEST DUP5 PUSH0 PUSH2 0xA97 DUP3 PUSH2 0x9D9 JUMP JUMPDEST SWAP1 POP CALLER PUSH1 0x1 PUSH1 0x1 PUSH1 0xA0 SHL SUB DUP3 AND EQ DUP1 PUSH2 0xAB9 JUMPI POP PUSH0 SLOAD PUSH1 0x1 PUSH1 0x1 PUSH1 0xA0 SHL SUB AND CALLER EQ JUMPDEST PUSH2 0xAD5 JUMPI PUSH1 0x40 MLOAD PUSH3 0x461BCD PUSH1 0xE5 SHL DUP2 MSTORE PUSH1 0x4 ADD PUSH2 0x233 SWAP1 PUSH2 0x39E7 JUMP JUMPDEST PUSH0 DUP1 PUSH0 DUP10 DUP2 MSTORE PUSH1 0x7 PUSH1 0x20 MSTORE PUSH1 0x40 SWAP1 KECCAK256 PUSH1 0x4 ADD SLOAD PUSH1 0xFF AND PUSH1 0x2 DUP2 GT ISZERO PUSH2 0xAFC JUMPI PUSH2 0xAFC PUSH2 0x34DF JUMP JUMPDEST EQ PUSH2 0xB07 JUMPI PUSH0 PUSH2 0xB0A JUMP JUMPDEST PUSH1 0x1 JUMPDEST SWAP1 POP PUSH0 PUSH2 0xB1B DUP9 DUP9 CALLER DUP6 DUP11 DUP11 PUSH2 0x20EA JUMP JUMPDEST PUSH0 DUP11 DUP2 MSTORE PUSH1 0x7 PUSH1 0x20 SWAP1 DUP2 MSTORE PUSH1 0x40 DUP1 DUP4 KECCAK256 PUSH1 0x3 ADD DUP1 SLOAD PUSH1 0x1 DUP2 ADD DUP3 SSTORE SWAP1 DUP5 MSTORE SWAP3 DUP3 SWAP1 KECCAK256 SWAP1 SWAP3 ADD DUP4 SWAP1 SSTORE SWAP1 MLOAD CALLER DUP2 MSTORE SWAP2 SWAP3 POP DUP3 SWAP2 DUP12 SWAP2 PUSH32 0xDEB2DB565D2D5E041170D8B4BC453986D7C04899159BADA3E56A65B60FA5F3B9 SWAP2 ADD PUSH1 0x40 MLOAD DUP1 SWAP2 SUB SWAP1 LOG3 POP POP POP POP POP POP POP POP POP JUMP JUMPDEST PUSH1 0x60 DUP2 PUSH1 0x1 PUSH1 0x1 PUSH1 0x40 SHL SUB DUP2 GT ISZERO PUSH2 0xB9F JUMPI PUSH2 0xB9F PUSH2 0x2CDC JUMP JUMPDEST PUSH1 0x40 MLOAD SWAP1 DUP1 DUP3 MSTORE DUP1 PUSH1 0x20 MUL PUSH1 0x20 ADD DUP3 ADD PUSH1 0x40 MSTORE DUP1 ISZERO PUSH2 0xBD2 JUMPI DUP2 PUSH1 0x20 ADD JUMPDEST PUSH1 0x60 DUP2 MSTORE PUSH1 0x20 ADD SWAP1 PUSH1 0x1 SWAP1 SUB SWAP1 DUP2 PUSH2 0xBBD JUMPI SWAP1 POP JUMPDEST POP SWAP1 POP PUSH0 JUMPDEST DUP3 DUP2 LT ISZERO PUSH2 0x9D2 JUMPI PUSH0 DUP1 ADDRESS DUP7 DUP7 DUP6 DUP2 DUP2 LT PUSH2 0xBF4 JUMPI PUSH2 0xBF4 PUSH2 0x39D3 JUMP JUMPDEST SWAP1 POP PUSH1 0x20 MUL DUP2 ADD SWAP1 PUSH2 0xC06 SWAP2 SWAP1 PUSH2 0x3A0F JUMP JUMPDEST PUSH1 0x40 MLOAD PUSH2 0xC14 SWAP3 SWAP2 SWAP1 PUSH2 0x3A58 JUMP JUMPDEST PUSH0 PUSH1 0x40 MLOAD DUP1 DUP4 SUB DUP2 DUP6 GAS DELEGATECALL SWAP2 POP POP RETURNDATASIZE DUP1 PUSH0 DUP2 EQ PUSH2 0xC4C JUMPI PUSH1 0x40 MLOAD SWAP2 POP PUSH1 0x1F NOT PUSH1 0x3F RETURNDATASIZE ADD AND DUP3 ADD PUSH1 0x40 MSTORE RETURNDATASIZE DUP3 MSTORE RETURNDATASIZE PUSH0 PUSH1 0x20 DUP5 ADD RETURNDATACOPY PUSH2 0xC51 JUMP JUMPDEST PUSH1 0x60 SWAP2 POP JUMPDEST POP SWAP2 POP SWAP2 POP DUP2 PUSH2 0xC87 JUMPI DUP1 MLOAD ISZERO PUSH2 0xC6B JUMPI DUP1 MLOAD DUP1 DUP3 PUSH1 0x20 ADD REVERT JUMPDEST PUSH1 0x40 MLOAD PUSH4 0x234EB819 PUSH1 0xE0 SHL DUP2 MSTORE PUSH1 0x4 DUP2 ADD DUP5 SWAP1 MSTORE PUSH1 0x24 ADD PUSH2 0x233 JUMP JUMPDEST DUP1 DUP5 DUP5 DUP2 MLOAD DUP2 LT PUSH2 0xC9A JUMPI PUSH2 0xC9A PUSH2 0x39D3 JUMP JUMPDEST PUSH1 0x20 SWAP1 DUP2 MUL SWAP2 SWAP1 SWAP2 ADD ADD MSTORE POP POP PUSH1 0x1 ADD PUSH2 0xBD7 JUMP JUMPDEST PUSH1 0x1 PUSH1 0x1 PUSH1 0xA0 SHL SUB DUP2 AND PUSH0 SWAP1 DUP2 MSTORE PUSH1 0x4 PUSH1 0x20 MSTORE PUSH1 0x40 DUP2 KECCAK256 PUSH2 0x7D1 SWAP1 PUSH2 0x2229 JUMP JUMPDEST PUSH2 0xCD7 PUSH2 0x1CC5 JUMP JUMPDEST PUSH2 0xCE0 PUSH0 PUSH2 0x1C76 JUMP JUMPDEST JUMP JUMPDEST DUP5 MLOAD DUP5 MLOAD DUP2 EQ ISZERO DUP1 PUSH2 0xCF5 JUMPI POP DUP4 MLOAD DUP2 EQ ISZERO JUMPDEST DUP1 PUSH2 0xD01 JUMPI POP DUP3 MLOAD DUP2 EQ ISZERO JUMPDEST DUP1 PUSH2 0xD0D JUMPI POP DUP2 MLOAD DUP2 EQ ISZERO JUMPDEST ISZERO PUSH2 0xD2B JUMPI PUSH1 0x40 MLOAD PUSH4 0x93A83119 PUSH1 0xE0 SHL DUP2 MSTORE PUSH1 0x4 ADD PUSH1 0x40 MLOAD DUP1 SWAP2 SUB SWAP1 REVERT JUMPDEST PUSH0 JUMPDEST DUP2 DUP2 LT ISZERO PUSH2 0xDC7 JUMPI PUSH2 0xDBF DUP8 DUP3 DUP2 MLOAD DUP2 LT PUSH2 0xD4A JUMPI PUSH2 0xD4A PUSH2 0x39D3 JUMP JUMPDEST PUSH1 0x20 MUL PUSH1 0x20 ADD ADD MLOAD DUP8 DUP4 DUP2 MLOAD DUP2 LT PUSH2 0xD64 JUMPI PUSH2 0xD64 PUSH2 0x39D3 JUMP JUMPDEST PUSH1 0x20 MUL PUSH1 0x20 ADD ADD MLOAD DUP8 DUP5 DUP2 MLOAD DUP2 LT PUSH2 0xD7E JUMPI PUSH2 0xD7E PUSH2 0x39D3 JUMP JUMPDEST PUSH1 0x20 MUL PUSH1 0x20 ADD ADD MLOAD DUP8 DUP6 DUP2 MLOAD DUP2 LT PUSH2 0xD98 JUMPI PUSH2 0xD98 PUSH2 0x39D3 JUMP JUMPDEST PUSH1 0x20 MUL PUSH1 0x20 ADD ADD MLOAD DUP8 DUP7 DUP2 MLOAD DUP2 LT PUSH2 0xDB2 JUMPI PUSH2 0xDB2 PUSH2 0x39D3 JUMP JUMPDEST PUSH1 0x20 MUL PUSH1 0x20 ADD ADD MLOAD PUSH2 0xA3D JUMP JUMPDEST PUSH1 0x1 ADD PUSH2 0xD2D JUMP JUMPDEST POP POP POP POP POP POP POP JUMP JUMPDEST DUP2 PUSH0 PUSH2 0xDDB DUP3 PUSH2 0x9D9 JUMP JUMPDEST SWAP1 POP CALLER PUSH1 0x1 PUSH1 0x1 PUSH1 0xA0 SHL SUB DUP3 AND EQ DUP1 PUSH2 0xDFD JUMPI POP PUSH0 SLOAD PUSH1 0x1 PUSH1 0x1 PUSH1 0xA0 SHL SUB AND CALLER EQ JUMPDEST PUSH2 0xE19 JUMPI PUSH1 0x40 MLOAD PUSH3 0x461BCD PUSH1 0xE5 SHL DUP2 MSTORE PUSH1 0x4 ADD PUSH2 0x233 SWAP1 PUSH2 0x39E7 JUMP JUMPDEST PUSH0 DUP5 DUP2 MSTORE PUSH1 0x7 PUSH1 0x20 MSTORE PUSH1 0x40 DUP2 KECCAK256 SWAP1 JUMPDEST PUSH1 0x3 DUP3 ADD SLOAD DUP2 LT ISZERO PUSH2 0xF31 JUMPI DUP5 DUP3 PUSH1 0x3 ADD DUP3 DUP2 SLOAD DUP2 LT PUSH2 0xE4A JUMPI PUSH2 0xE4A PUSH2 0x39D3 JUMP JUMPDEST SWAP1 PUSH0 MSTORE PUSH1 0x20 PUSH0 KECCAK256 ADD SLOAD SUB PUSH2 0xF29 JUMPI PUSH1 0x3 DUP3 ADD SLOAD PUSH0 SWAP1 PUSH2 0xE6B SWAP1 PUSH1 0x1 SWAP1 PUSH2 0x3A7B JUMP JUMPDEST SWAP1 POP DUP1 DUP3 EQ PUSH2 0xEB3 JUMPI DUP3 PUSH1 0x3 ADD DUP2 DUP2 SLOAD DUP2 LT PUSH2 0xE89 JUMPI PUSH2 0xE89 PUSH2 0x39D3 JUMP JUMPDEST SWAP1 PUSH0 MSTORE PUSH1 0x20 PUSH0 KECCAK256 ADD SLOAD DUP4 PUSH1 0x3 ADD DUP4 DUP2 SLOAD DUP2 LT PUSH2 0xEA7 JUMPI PUSH2 0xEA7 PUSH2 0x39D3 JUMP JUMPDEST PUSH0 SWAP2 DUP3 MSTORE PUSH1 0x20 SWAP1 SWAP2 KECCAK256 ADD SSTORE JUMPDEST DUP3 PUSH1 0x3 ADD DUP1 SLOAD DUP1 PUSH2 0xEC6 JUMPI PUSH2 0xEC6 PUSH2 0x3A8E JUMP JUMPDEST PUSH1 0x1 SWAP1 SUB DUP2 DUP2 SWAP1 PUSH0 MSTORE PUSH1 0x20 PUSH0 KECCAK256 ADD PUSH0 SWAP1 SSTORE SWAP1 SSTORE DUP6 DUP8 PUSH32 0xC8A6A4F8144CAE17D4C5700477493767EB4510839C1C59590A180E8B4FAB0104 CALLER PUSH1 0x40 MLOAD PUSH2 0xF19 SWAP2 SWAP1 PUSH1 0x1 PUSH1 0x1 PUSH1 0xA0 SHL SUB SWAP2 SWAP1 SWAP2 AND DUP2 MSTORE PUSH1 0x20 ADD SWAP1 JUMP JUMPDEST PUSH1 0x40 MLOAD DUP1 SWAP2 SUB SWAP1 LOG3 POP POP POP PUSH2 0xF6D JUMP JUMPDEST PUSH1 0x1 ADD PUSH2 0xE28 JUMP JUMPDEST POP PUSH1 0x40 MLOAD PUSH3 0x461BCD PUSH1 0xE5 SHL DUP2 MSTORE PUSH1 0x20 PUSH1 0x4 DUP3 ADD MSTORE PUSH1 0x10 PUSH1 0x24 DUP3 ADD MSTORE PUSH16 0x14DC1BDD5CD9481B9BDD08199BDD5B99 PUSH1 0x82 SHL PUSH1 0x44 DUP3 ADD MSTORE PUSH1 0x64 ADD PUSH2 0x233 JUMP JUMPDEST POP POP POP POP JUMP JUMPDEST PUSH2 0xF7B PUSH2 0x1CC5 JUMP JUMPDEST CALLVALUE ISZERO PUSH2 0xF9A JUMPI PUSH1 0x40 MLOAD PUSH4 0xF36BA737 PUSH1 0xE0 SHL DUP2 MSTORE PUSH1 0x4 ADD PUSH1 0x40 MLOAD DUP1 SWAP2 SUB SWAP1 REVERT JUMPDEST PUSH2 0xFA4 DUP3 DUP3 PUSH2 0x2232 JUMP JUMPDEST POP POP JUMP JUMPDEST PUSH0 PUSH2 0xFB2 DUP4 PUSH2 0x9D9 JUMP JUMPDEST SWAP1 POP PUSH1 0x1 PUSH1 0x1 PUSH1 0xA0 SHL SUB DUP2 AND CALLER EQ PUSH2 0xFF5 JUMPI PUSH1 0x40 MLOAD PUSH4 0x2D938F51 PUSH1 0xE1 SHL DUP2 MSTORE PUSH1 0x1 PUSH1 0x1 PUSH1 0xA0 SHL SUB DUP3 AND PUSH1 0x4 DUP3 ADD MSTORE PUSH1 0x24 DUP2 ADD DUP5 SWAP1 MSTORE CALLER PUSH1 0x44 DUP3 ADD MSTORE PUSH1 0x64 ADD PUSH2 0x233 JUMP JUMPDEST PUSH1 0x1 PUSH1 0x1 PUSH1 0xA0 SHL SUB DUP5 AND PUSH2 0x101C JUMPI PUSH1 0x40 MLOAD PUSH4 0x9577B8B3 PUSH1 0xE0 SHL DUP2 MSTORE PUSH1 0x4 ADD PUSH1 0x40 MLOAD DUP1 SWAP2 SUB SWAP1 REVERT JUMPDEST DUP4 PUSH1 0x1 PUSH1 0x1 PUSH1 0xA0 SHL SUB AND DUP2 PUSH1 0x1 PUSH1 0x1 PUSH1 0xA0 SHL SUB AND SUB PUSH2 0x104E JUMPI PUSH1 0x40 MLOAD PUSH4 0x44FED6B1 PUSH1 0xE1 SHL DUP2 MSTORE PUSH1 0x4 ADD PUSH1 0x40 MLOAD DUP1 SWAP2 SUB SWAP1 REVERT JUMPDEST PUSH0 DUP4 DUP2 MSTORE PUSH1 0x5 PUSH1 0x20 MSTORE PUSH1 0x40 DUP2 KECCAK256 PUSH2 0x1065 SWAP1 DUP7 PUSH2 0x227C JUMP JUMPDEST SWAP1 POP DUP1 PUSH2 0x1097 JUMPI PUSH1 0x40 MLOAD PUSH4 0x14EC4D6D PUSH1 0xE3 SHL DUP2 MSTORE PUSH1 0x1 PUSH1 0x1 PUSH1 0xA0 SHL SUB DUP7 AND PUSH1 0x4 DUP3 ADD MSTORE PUSH1 0x24 DUP2 ADD DUP6 SWAP1 MSTORE PUSH1 0x44 ADD PUSH2 0x233 JUMP JUMPDEST DUP4 DUP3 PUSH1 0x1 PUSH1 0x1 PUSH1 0xA0 SHL SUB AND DUP7 PUSH1 0x1 PUSH1 0x1 PUSH1 0xA0 SHL SUB AND PUSH32 0x1B1B58AA2EC0CEC2228B2D37124556D41F5A1F7B12F089171F896CC236671215 DUP7 PUSH1 0x40 MLOAD PUSH2 0x10DB SWAP2 SWAP1 PUSH2 0x2E19 JUMP JUMPDEST PUSH1 0x40 MLOAD DUP1 SWAP2 SUB SWAP1 LOG4 PUSH0 CALLER DUP6 PUSH1 0x1 DUP7 PUSH1 0x40 MLOAD PUSH1 0x20 ADD PUSH2 0x10FC SWAP5 SWAP4 SWAP3 SWAP2 SWAP1 PUSH2 0x3AA2 JUMP JUMPDEST PUSH1 0x40 MLOAD PUSH1 0x20 DUP2 DUP4 SUB SUB DUP2 MSTORE SWAP1 PUSH1 0x40 MSTORE SWAP1 POP PUSH2 0x1117 DUP7 DUP3 PUSH2 0x2290 JUMP JUMPDEST POP POP POP POP POP POP JUMP JUMPDEST PUSH2 0x1127 PUSH2 0x2BD5 JUMP JUMPDEST PUSH0 DUP3 DUP2 MSTORE PUSH1 0x7 PUSH1 0x20 MSTORE PUSH1 0x40 SWAP1 DUP2 SWAP1 KECCAK256 DUP2 MLOAD PUSH2 0x100 DUP2 ADD SWAP1 SWAP3 MSTORE DUP1 SLOAD DUP3 SWAP1 DUP3 SWAP1 PUSH2 0x114F SWAP1 PUSH2 0x38A3 JUMP JUMPDEST DUP1 PUSH1 0x1F ADD PUSH1 0x20 DUP1 SWAP2 DIV MUL PUSH1 0x20 ADD PUSH1 0x40 MLOAD SWAP1 DUP2 ADD PUSH1 0x40 MSTORE DUP1 SWAP3 SWAP2 SWAP1 DUP2 DUP2 MSTORE PUSH1 0x20 ADD DUP3 DUP1 SLOAD PUSH2 0x117B SWAP1 PUSH2 0x38A3 JUMP JUMPDEST DUP1 ISZERO PUSH2 0x11C6 JUMPI DUP1 PUSH1 0x1F LT PUSH2 0x119D JUMPI PUSH2 0x100 DUP1 DUP4 SLOAD DIV MUL DUP4 MSTORE SWAP2 PUSH1 0x20 ADD SWAP2 PUSH2 0x11C6 JUMP JUMPDEST DUP3 ADD SWAP2 SWAP1 PUSH0 MSTORE PUSH1 0x20 PUSH0 KECCAK256 SWAP1 JUMPDEST DUP2 SLOAD DUP2 MSTORE SWAP1 PUSH1 0x1 ADD SWAP1 PUSH1 0x20 ADD DUP1 DUP4 GT PUSH2 0x11A9 JUMPI DUP3 SWAP1 SUB PUSH1 0x1F AND DUP3 ADD SWAP2 JUMPDEST POP POP POP POP POP DUP2 MSTORE PUSH1 0x20 ADD PUSH1 0x1 DUP3 ADD SLOAD DUP2 MSTORE PUSH1 0x20 ADD PUSH1 0x2 DUP3 ADD DUP1 SLOAD DUP1 PUSH1 0x20 MUL PUSH1 0x20 ADD PUSH1 0x40 MLOAD SWAP1 DUP2 ADD PUSH1 0x40 MSTORE DUP1 SWAP3 SWAP2 SWAP1 DUP2 DUP2 MSTORE PUSH1 0x20 ADD DUP3 DUP1 SLOAD DUP1 ISZERO PUSH2 0x1226 JUMPI PUSH1 0x20 MUL DUP3 ADD SWAP2 SWAP1 PUSH0 MSTORE PUSH1 0x20 PUSH0 KECCAK256 SWAP1 JUMPDEST DUP2 SLOAD DUP2 MSTORE PUSH1 0x20 ADD SWAP1 PUSH1 0x1 ADD SWAP1 DUP1 DUP4 GT PUSH2 0x1212 JUMPI JUMPDEST POP POP POP POP POP DUP2 MSTORE PUSH1 0x20 ADD PUSH1 0x3 DUP3 ADD DUP1 SLOAD DUP1 PUSH1 0x20 MUL PUSH1 0x20 ADD PUSH1 0x40 MLOAD SWAP1 DUP2 ADD PUSH1 0x40 MSTORE DUP1 SWAP3 SWAP2 SWAP1 DUP2 DUP2 MSTORE PUSH1 0x20 ADD DUP3 DUP1 SLOAD DUP1 ISZERO PUSH2 0x127C JUMPI PUSH1 0x20 MUL DUP3 ADD SWAP2 SWAP1 PUSH0 MSTORE PUSH1 0x20 PUSH0 KECCAK256 SWAP1 JUMPDEST DUP2 SLOAD DUP2 MSTORE PUSH1 0x20 ADD SWAP1 PUSH1 0x1 ADD SWAP1 DUP1 DUP4 GT PUSH2 0x1268 JUMPI JUMPDEST POP POP POP SWAP2 DUP4 MSTORE POP POP PUSH1 0x4 DUP3 ADD SLOAD PUSH1 0x20 SWAP1 SWAP2 ADD SWAP1 PUSH1 0xFF AND PUSH1 0x2 DUP2 GT ISZERO PUSH2 0x12A3 JUMPI PUSH2 0x12A3 PUSH2 0x34DF JUMP JUMPDEST PUSH1 0x2 DUP2 GT ISZERO PUSH2 0x12B4 JUMPI PUSH2 0x12B4 PUSH2 0x34DF JUMP JUMPDEST DUP2 MSTORE PUSH1 0x40 DUP1 MLOAD PUSH1 0x60 DUP1 DUP3 ADD DUP4 MSTORE PUSH1 0x5 DUP6 ADD SLOAD PUSH1 0xFF DUP1 DUP3 AND DUP5 MSTORE PUSH2 0x100 DUP1 DUP4 DIV DUP3 AND PUSH1 0x20 DUP7 DUP2 ADD SWAP2 SWAP1 SWAP2 MSTORE PUSH2 0xFFFF PUSH3 0x10000 SWAP5 DUP6 SWAP1 DIV DUP2 AND DUP8 DUP10 ADD MSTORE DUP2 DUP10 ADD SWAP7 SWAP1 SWAP7 MSTORE DUP7 MLOAD DUP1 DUP7 ADD DUP9 MSTORE PUSH1 0x6 DUP11 ADD SLOAD DUP1 DUP6 AND DUP3 MSTORE SWAP3 DUP4 DIV SWAP1 SWAP4 AND SWAP1 DUP4 ADD MSTORE SWAP2 SWAP1 SWAP2 DIV SWAP1 SWAP3 AND DUP3 DUP5 ADD MSTORE SWAP2 DUP4 ADD MSTORE PUSH1 0x7 DUP4 ADD DUP1 SLOAD SWAP2 SWAP1 SWAP3 ADD SWAP2 SWAP1 PUSH2 0x1335 SWAP1 PUSH2 0x38A3 JUMP JUMPDEST DUP1 PUSH1 0x1F ADD PUSH1 0x20 DUP1 SWAP2 DIV MUL PUSH1 0x20 ADD PUSH1 0x40 MLOAD SWAP1 DUP2 ADD PUSH1 0x40 MSTORE DUP1 SWAP3 SWAP2 SWAP1 DUP2 DUP2 MSTORE PUSH1 0x20 ADD DUP3 DUP1 SLOAD PUSH2 0x1361 SWAP1 PUSH2 0x38A3 JUMP JUMPDEST DUP1 ISZERO PUSH2 0x13AC JUMPI DUP1 PUSH1 0x1F LT PUSH2 0x1383 JUMPI PUSH2 0x100 DUP1 DUP4 SLOAD DIV MUL DUP4 MSTORE SWAP2 PUSH1 0x20 ADD SWAP2 PUSH2 0x13AC JUMP JUMPDEST DUP3 ADD SWAP2 SWAP1 PUSH0 MSTORE PUSH1 0x20 PUSH0 KECCAK256 SWAP1 JUMPDEST DUP2 SLOAD DUP2 MSTORE SWAP1 PUSH1 0x1 ADD SWAP1 PUSH1 0x20 ADD DUP1 DUP4 GT PUSH2 0x138F JUMPI DUP3 SWAP1 SUB PUSH1 0x1F AND DUP3 ADD SWAP2 JUMPDEST POP POP POP POP POP DUP2 MSTORE POP POP SWAP1 POP SWAP2 SWAP1 POP JUMP JUMPDEST PUSH2 0x13C4 PUSH2 0x1CC5 JUMP JUMPDEST CALLVALUE ISZERO PUSH2 0x13E3 JUMPI PUSH1 0x40 MLOAD PUSH4 0xF36BA737 PUSH1 0xE0 SHL DUP2 MSTORE PUSH1 0x4 ADD PUSH1 0x40 MLOAD DUP1 SWAP2 SUB SWAP1 REVERT JUMPDEST PUSH2 0xFA4 DUP3 DUP3 PUSH2 0x22BB JUMP JUMPDEST DUP5 PUSH0 PUSH2 0x13F8 DUP3 PUSH2 0x9D9 JUMP JUMPDEST SWAP1 POP CALLER PUSH1 0x1 PUSH1 0x1 PUSH1 0xA0 SHL SUB DUP3 AND EQ DUP1 PUSH2 0x141A JUMPI POP PUSH0 SLOAD PUSH1 0x1 PUSH1 0x1 PUSH1 0xA0 SHL SUB AND CALLER EQ JUMPDEST PUSH2 0x1436 JUMPI PUSH1 0x40 MLOAD PUSH3 0x461BCD PUSH1 0xE5 SHL DUP2 MSTORE PUSH1 0x4 ADD PUSH2 0x233 SWAP1 PUSH2 0x39E7 JUMP JUMPDEST PUSH0 DUP8 DUP2 MSTORE PUSH1 0x7 PUSH1 0x20 MSTORE PUSH1 0x40 SWAP1 KECCAK256 DUP1 PUSH2 0x144E DUP9 DUP3 PUSH2 0x3919 JUMP JUMPDEST POP DUP5 MLOAD PUSH1 0x5 DUP3 ADD DUP1 SLOAD PUSH1 0x20 DUP1 DUP10 ADD MLOAD PUSH1 0x40 DUP1 DUP12 ADD MLOAD PUSH1 0xFF SWAP7 DUP8 AND PUSH2 0xFFFF NOT SWAP6 DUP7 AND OR PUSH2 0x100 SWAP4 DUP9 AND DUP5 MUL OR PUSH4 0xFFFF0000 NOT SWAP1 DUP2 AND PUSH3 0x10000 PUSH2 0xFFFF SWAP4 DUP5 AND DUP2 MUL SWAP2 SWAP1 SWAP2 OR SWAP1 SWAP8 SSTORE DUP12 MLOAD PUSH1 0x6 DUP11 ADD DUP1 SLOAD SWAP7 DUP15 ADD MLOAD SWAP5 DUP15 ADD MLOAD SWAP2 DUP11 AND SWAP7 SWAP1 SWAP8 AND SWAP6 SWAP1 SWAP6 OR SWAP3 SWAP1 SWAP8 AND SWAP1 SWAP3 MUL OR SWAP1 SWAP5 AND SWAP4 AND SWAP1 SWAP2 MUL SWAP2 SWAP1 SWAP2 OR SWAP1 SSTORE PUSH1 0x7 DUP2 ADD PUSH2 0x14D4 DUP8 DUP3 PUSH2 0x3919 JUMP JUMPDEST POP PUSH1 0x40 MLOAD CALLER DUP2 MSTORE DUP9 SWAP1 PUSH32 0xC376A5E0A80F27340F87A7FD1964A6FC589813F502756C8C85F241F765DC0F23 SWAP1 PUSH1 0x20 ADD PUSH1 0x40 MLOAD DUP1 SWAP2 SUB SWAP1 LOG2 POP POP POP POP POP POP POP POP JUMP JUMPDEST PUSH1 0x1 PUSH1 0x1 PUSH1 0xA0 SHL SUB DUP2 AND PUSH0 SWAP1 DUP2 MSTORE PUSH1 0x4 PUSH1 0x20 MSTORE PUSH1 0x40 SWAP1 KECCAK256 PUSH1 0x60 SWAP1 PUSH2 0x7D1 SWAP1 PUSH2 0x1E63 JUMP JUMPDEST PUSH2 0x153F PUSH2 0x1CC5 JUMP JUMPDEST DUP2 MLOAD DUP4 MLOAD EQ ISZERO DUP1 PUSH2 0x1552 JUMPI POP DUP1 MLOAD DUP3 MLOAD EQ ISZERO JUMPDEST ISZERO PUSH2 0x1570 JUMPI PUSH1 0x40 MLOAD PUSH4 0x17D38EFF PUSH1 0xE1 SHL DUP2 MSTORE PUSH1 0x4 ADD PUSH1 0x40 MLOAD DUP1 SWAP2 SUB SWAP1 REVERT JUMPDEST DUP3 MLOAD PUSH0 SUB PUSH2 0x1591 JUMPI PUSH1 0x40 MLOAD PUSH4 0x80C98305 PUSH1 0xE0 SHL DUP2 MSTORE PUSH1 0x4 ADD PUSH1 0x40 MLOAD DUP1 SWAP2 SUB SWAP1 REVERT JUMPDEST PUSH0 JUMPDEST DUP4 MLOAD DUP2 LT ISZERO PUSH2 0xF6D JUMPI PUSH2 0x15F2 DUP5 DUP3 DUP2 MLOAD DUP2 LT PUSH2 0x15B1 JUMPI PUSH2 0x15B1 PUSH2 0x39D3 JUMP JUMPDEST PUSH1 0x20 MUL PUSH1 0x20 ADD ADD MLOAD DUP5 DUP4 DUP2 MLOAD DUP2 LT PUSH2 0x15CB JUMPI PUSH2 0x15CB PUSH2 0x39D3 JUMP JUMPDEST PUSH1 0x20 MUL PUSH1 0x20 ADD ADD MLOAD DUP5 DUP5 DUP2 MLOAD DUP2 LT PUSH2 0x15E5 JUMPI PUSH2 0x15E5 PUSH2 0x39D3 JUMP JUMPDEST PUSH1 0x20 MUL PUSH1 0x20 ADD ADD MLOAD PUSH2 0x234D JUMP JUMPDEST PUSH1 0x1 ADD PUSH2 0x1593 JUMP JUMPDEST DUP3 PUSH0 PUSH2 0x1605 DUP3 PUSH2 0x9D9 JUMP JUMPDEST SWAP1 POP CALLER PUSH1 0x1 PUSH1 0x1 PUSH1 0xA0 SHL SUB DUP3 AND EQ DUP1 PUSH2 0x1627 JUMPI POP PUSH0 SLOAD PUSH1 0x1 PUSH1 0x1 PUSH1 0xA0 SHL SUB AND CALLER EQ JUMPDEST PUSH2 0x1643 JUMPI PUSH1 0x40 MLOAD PUSH3 0x461BCD PUSH1 0xE5 SHL DUP2 MSTORE PUSH1 0x4 ADD PUSH2 0x233 SWAP1 PUSH2 0x39E7 JUMP JUMPDEST PUSH2 0xA7A DUP6 DUP6 DUP6 PUSH2 0x234D JUMP JUMPDEST PUSH0 PUSH2 0x1658 DUP5 PUSH2 0x9D9 JUMP JUMPDEST SWAP1 POP CALLER PUSH1 0x1 PUSH1 0x1 PUSH1 0xA0 SHL SUB DUP3 AND EQ PUSH2 0x16AB JUMPI PUSH1 0x1 PUSH1 0x1 PUSH1 0xA0 SHL SUB DUP6 AND CALLER EQ PUSH2 0x16AB JUMPI PUSH1 0x40 MLOAD PUSH4 0x760B5ACD PUSH1 0xE0 SHL DUP2 MSTORE CALLER PUSH1 0x4 DUP3 ADD MSTORE PUSH1 0x1 PUSH1 0x1 PUSH1 0xA0 SHL SUB DUP3 AND PUSH1 0x24 DUP3 ADD MSTORE PUSH1 0x44 DUP2 ADD DUP6 SWAP1 MSTORE PUSH1 0x64 ADD PUSH2 0x233 JUMP JUMPDEST PUSH1 0x1 PUSH1 0x1 PUSH1 0xA0 SHL SUB DUP6 AND PUSH2 0x16D2 JUMPI PUSH1 0x40 MLOAD PUSH4 0x9577B8B3 PUSH1 0xE0 SHL DUP2 MSTORE PUSH1 0x4 ADD PUSH1 0x40 MLOAD DUP1 SWAP2 SUB SWAP1 REVERT JUMPDEST DUP5 PUSH1 0x1 PUSH1 0x1 PUSH1 0xA0 SHL SUB AND DUP2 PUSH1 0x1 PUSH1 0x1 PUSH1 0xA0 SHL SUB AND SUB PUSH2 0x1704 JUMPI PUSH1 0x40 MLOAD PUSH4 0x44FED6B1 PUSH1 0xE1 SHL DUP2 MSTORE PUSH1 0x4 ADD PUSH1 0x40 MLOAD DUP1 SWAP2 SUB SWAP1 REVERT JUMPDEST PUSH2 0x1711 DUP6 DUP3 DUP7 DUP7 DUP7 PUSH2 0x23DB JUMP JUMPDEST DUP3 ISZERO PUSH2 0xA7A JUMPI PUSH0 DUP2 DUP6 PUSH0 DUP6 PUSH1 0x40 MLOAD PUSH1 0x20 ADD PUSH2 0x10FC SWAP5 SWAP4 SWAP3 SWAP2 SWAP1 PUSH2 0x3AA2 JUMP JUMPDEST PUSH1 0x60 DUP2 MLOAD PUSH1 0x1 PUSH1 0x1 PUSH1 0x40 SHL SUB DUP2 GT ISZERO PUSH2 0x174A JUMPI PUSH2 0x174A PUSH2 0x2CDC JUMP JUMPDEST PUSH1 0x40 MLOAD SWAP1 DUP1 DUP3 MSTORE DUP1 PUSH1 0x20 MUL PUSH1 0x20 ADD DUP3 ADD PUSH1 0x40 MSTORE DUP1 ISZERO PUSH2 0x177D JUMPI DUP2 PUSH1 0x20 ADD JUMPDEST PUSH1 0x60 DUP2 MSTORE PUSH1 0x20 ADD SWAP1 PUSH1 0x1 SWAP1 SUB SWAP1 DUP2 PUSH2 0x1768 JUMPI SWAP1 POP JUMPDEST POP SWAP1 POP PUSH0 JUMPDEST DUP3 MLOAD DUP2 LT ISZERO PUSH2 0x17D2 JUMPI PUSH2 0x17AD DUP4 DUP3 DUP2 MLOAD DUP2 LT PUSH2 0x17A0 JUMPI PUSH2 0x17A0 PUSH2 0x39D3 JUMP JUMPDEST PUSH1 0x20 MUL PUSH1 0x20 ADD ADD MLOAD PUSH2 0x204B JUMP JUMPDEST DUP3 DUP3 DUP2 MLOAD DUP2 LT PUSH2 0x17BF JUMPI PUSH2 0x17BF PUSH2 0x39D3 JUMP JUMPDEST PUSH1 0x20 SWAP1 DUP2 MUL SWAP2 SWAP1 SWAP2 ADD ADD MSTORE PUSH1 0x1 ADD PUSH2 0x1782 JUMP JUMPDEST POP SWAP2 SWAP1 POP JUMP JUMPDEST DUP1 PUSH0 PUSH2 0x17E3 DUP3 PUSH2 0x9D9 JUMP JUMPDEST SWAP1 POP CALLER PUSH1 0x1 PUSH1 0x1 PUSH1 0xA0 SHL SUB DUP3 AND EQ DUP1 PUSH2 0x1805 JUMPI POP PUSH0 SLOAD PUSH1 0x1 PUSH1 0x1 PUSH1 0xA0 SHL SUB AND CALLER EQ JUMPDEST PUSH2 0x1821 JUMPI PUSH1 0x40 MLOAD PUSH3 0x461BCD PUSH1 0xE5 SHL DUP2 MSTORE PUSH1 0x4 ADD PUSH2 0x233 SWAP1 PUSH2 0x39E7 JUMP JUMPDEST PUSH0 DUP4 DUP2 MSTORE PUSH1 0x7 PUSH1 0x20 MSTORE PUSH1 0x40 SWAP1 KECCAK256 PUSH1 0x1 DUP2 ADD SLOAD PUSH2 0x1870 JUMPI PUSH1 0x40 MLOAD PUSH3 0x461BCD PUSH1 0xE5 SHL DUP2 MSTORE PUSH1 0x20 PUSH1 0x4 DUP3 ADD MSTORE PUSH1 0xE PUSH1 0x24 DUP3 ADD MSTORE PUSH14 0x14185C995B9D081A5B9D985B1A59 PUSH1 0x92 SHL PUSH1 0x44 DUP3 ADD MSTORE PUSH1 0x64 ADD PUSH2 0x233 JUMP JUMPDEST PUSH1 0x1 DUP2 ADD SLOAD PUSH0 SWAP1 DUP2 MSTORE PUSH1 0x7 PUSH1 0x20 MSTORE PUSH1 0x40 DUP2 KECCAK256 SWAP1 JUMPDEST PUSH1 0x2 DUP3 ADD SLOAD DUP2 LT ISZERO PUSH2 0x1987 JUMPI DUP6 DUP3 PUSH1 0x2 ADD DUP3 DUP2 SLOAD DUP2 LT PUSH2 0x18A6 JUMPI PUSH2 0x18A6 PUSH2 0x39D3 JUMP JUMPDEST SWAP1 PUSH0 MSTORE PUSH1 0x20 PUSH0 KECCAK256 ADD SLOAD SUB PUSH2 0x197F JUMPI PUSH1 0x2 DUP3 ADD SLOAD PUSH0 SWAP1 PUSH2 0x18C7 SWAP1 PUSH1 0x1 SWAP1 PUSH2 0x3A7B JUMP JUMPDEST SWAP1 POP DUP1 DUP3 EQ PUSH2 0x190F JUMPI DUP3 PUSH1 0x2 ADD DUP2 DUP2 SLOAD DUP2 LT PUSH2 0x18E5 JUMPI PUSH2 0x18E5 PUSH2 0x39D3 JUMP JUMPDEST SWAP1 PUSH0 MSTORE PUSH1 0x20 PUSH0 KECCAK256 ADD SLOAD DUP4 PUSH1 0x2 ADD DUP4 DUP2 SLOAD DUP2 LT PUSH2 0x1903 JUMPI PUSH2 0x1903 PUSH2 0x39D3 JUMP JUMPDEST PUSH0 SWAP2 DUP3 MSTORE PUSH1 0x20 SWAP1 SWAP2 KECCAK256 ADD SSTORE JUMPDEST DUP3 PUSH1 0x2 ADD DUP1 SLOAD DUP1 PUSH2 0x1922 JUMPI PUSH2 0x1922 PUSH2 0x3A8E JUMP JUMPDEST PUSH0 DUP3 DUP2 MSTORE PUSH1 0x20 DUP1 DUP3 KECCAK256 DUP4 ADD PUSH0 NOT SWAP1 DUP2 ADD DUP4 SWAP1 SSTORE SWAP1 SWAP3 ADD SWAP1 SWAP3 SSTORE PUSH1 0x1 DUP7 ADD SWAP2 SWAP1 SWAP2 SSTORE PUSH1 0x40 MLOAD CALLER DUP2 MSTORE DUP9 SWAP2 PUSH32 0xBEC897656E34582DC5C755943497B079ACD5762D7F5A49C97C5EBC2424F4C87C SWAP2 ADD PUSH1 0x40 MLOAD DUP1 SWAP2 SUB SWAP1 LOG2 POP POP POP POP POP POP POP JUMP JUMPDEST PUSH1 0x1 ADD PUSH2 0x1884 JUMP JUMPDEST POP PUSH1 0x40 MLOAD PUSH3 0x461BCD PUSH1 0xE5 SHL DUP2 MSTORE PUSH1 0x20 PUSH1 0x4 DUP3 ADD MSTORE PUSH1 0xF PUSH1 0x24 DUP3 ADD MSTORE PUSH15 0x10DA1A5B19081B9BDD08199BDD5B99 PUSH1 0x8A SHL PUSH1 0x44 DUP3 ADD MSTORE PUSH1 0x64 ADD PUSH2 0x233 JUMP JUMPDEST POP POP POP JUMP JUMPDEST PUSH1 0x9 DUP1 SLOAD PUSH2 0x19D4 SWAP1 PUSH2 0x38A3 JUMP JUMPDEST DUP1 PUSH1 0x1F ADD PUSH1 0x20 DUP1 SWAP2 DIV MUL PUSH1 0x20 ADD PUSH1 0x40 MLOAD SWAP1 DUP2 ADD PUSH1 0x40 MSTORE DUP1 SWAP3 SWAP2 SWAP1 DUP2 DUP2 MSTORE PUSH1 0x20 ADD DUP3 DUP1 SLOAD PUSH2 0x1A00 SWAP1 PUSH2 0x38A3 JUMP JUMPDEST DUP1 ISZERO PUSH2 0x1A4B JUMPI DUP1 PUSH1 0x1F LT PUSH2 0x1A22 JUMPI PUSH2 0x100 DUP1 DUP4 SLOAD DIV MUL DUP4 MSTORE SWAP2 PUSH1 0x20 ADD SWAP2 PUSH2 0x1A4B JUMP JUMPDEST DUP3 ADD SWAP2 SWAP1 PUSH0 MSTORE PUSH1 0x20 PUSH0 KECCAK256 SWAP1 JUMPDEST DUP2 SLOAD DUP2 MSTORE SWAP1 PUSH1 0x1 ADD SWAP1 PUSH1 0x20 ADD DUP1 DUP4 GT PUSH2 0x1A2E JUMPI DUP3 SWAP1 SUB PUSH1 0x1F AND DUP3 ADD SWAP2 JUMPDEST POP POP POP POP POP DUP2 JUMP JUMPDEST DUP6 PUSH0 PUSH2 0x1A5E DUP3 PUSH2 0x9D9 JUMP JUMPDEST SWAP1 POP CALLER PUSH1 0x1 PUSH1 0x1 PUSH1 0xA0 SHL SUB DUP3 AND EQ DUP1 PUSH2 0x1A80 JUMPI POP PUSH0 SLOAD PUSH1 0x1 PUSH1 0x1 PUSH1 0xA0 SHL SUB AND CALLER EQ JUMPDEST PUSH2 0x1A9C JUMPI PUSH1 0x40 MLOAD PUSH3 0x461BCD PUSH1 0xE5 SHL DUP2 MSTORE PUSH1 0x4 ADD PUSH2 0x233 SWAP1 PUSH2 0x39E7 JUMP JUMPDEST PUSH0 DUP9 DUP2 MSTORE PUSH1 0x7 PUSH1 0x20 MSTORE PUSH1 0x40 DUP2 KECCAK256 SWAP1 PUSH2 0x1AB8 DUP10 DUP10 CALLER DUP11 DUP11 DUP11 PUSH2 0x20EA JUMP JUMPDEST PUSH1 0x2 DUP4 ADD DUP1 SLOAD PUSH1 0x1 DUP1 DUP3 ADD DUP4 SSTORE PUSH0 SWAP3 DUP4 MSTORE PUSH1 0x20 DUP1 DUP5 KECCAK256 SWAP1 SWAP3 ADD DUP5 SWAP1 SSTORE DUP4 DUP4 MSTORE PUSH1 0x7 DUP3 MSTORE PUSH1 0x40 SWAP3 DUP4 SWAP1 KECCAK256 ADD DUP14 SWAP1 SSTORE SWAP1 MLOAD CALLER DUP2 MSTORE SWAP2 SWAP3 POP DUP3 SWAP2 DUP13 SWAP2 PUSH32 0x455F02C6E979A5E8864E764F51FBF96C79B00C7C6C298FEE8FC306EA937A8CBD SWAP2 ADD PUSH1 0x40 MLOAD DUP1 SWAP2 SUB SWAP1 LOG3 POP POP POP POP POP POP POP POP POP POP JUMP JUMPDEST PUSH2 0x1B30 PUSH2 0x1CC5 JUMP JUMPDEST PUSH1 0x1 PUSH1 0x1 PUSH1 0xA0 SHL SUB DUP2 AND PUSH2 0x1B95 JUMPI PUSH1 0x40 MLOAD PUSH3 0x461BCD PUSH1 0xE5 SHL DUP2 MSTORE PUSH1 0x20 PUSH1 0x4 DUP3 ADD MSTORE PUSH1 0x26 PUSH1 0x24 DUP3 ADD MSTORE PUSH32 0x4F776E61626C653A206E6577206F776E657220697320746865207A65726F2061 PUSH1 0x44 DUP3 ADD MSTORE PUSH6 0x646472657373 PUSH1 0xD0 SHL PUSH1 0x64 DUP3 ADD MSTORE PUSH1 0x84 ADD PUSH2 0x233 JUMP JUMPDEST PUSH2 0x1B9E DUP2 PUSH2 0x1C76 JUMP JUMPDEST POP JUMP JUMPDEST PUSH0 DUP1 DUP1 PUSH2 0x1BC5 PUSH10 0x6773C5A04A6D4300884B PUSH1 0xB1 SHL PUSH1 0x1 PUSH1 0x1 PUSH1 0xE0 SHL SUB NOT DUP7 AND PUSH2 0x247A JUMP JUMPDEST SWAP1 POP PUSH0 PUSH2 0x1BD1 DUP3 PUSH2 0x204B JUMP JUMPDEST SWAP1 POP DUP1 MLOAD PUSH1 0x14 EQ ISZERO DUP1 ISZERO PUSH2 0x1BE5 JUMPI POP DUP1 MLOAD ISZERO ISZERO JUMPDEST ISZERO PUSH2 0x1C05 JUMPI DUP1 PUSH1 0x40 MLOAD PUSH4 0x42BFE79F PUSH1 0xE0 SHL DUP2 MSTORE PUSH1 0x4 ADD PUSH2 0x233 SWAP2 SWAP1 PUSH2 0x2E19 JUMP JUMPDEST PUSH2 0x1C0E DUP2 PUSH2 0x3ADA JUMP JUMPDEST PUSH1 0x60 SHR SWAP6 PUSH1 0x1 SWAP6 POP SWAP4 POP POP POP POP JUMP JUMPDEST PUSH0 PUSH1 0x1 PUSH1 0x1 PUSH1 0xE0 SHL SUB NOT DUP3 AND PUSH4 0xA918FA6B PUSH1 0xE0 SHL EQ DUP1 PUSH2 0x7D1 JUMPI POP PUSH2 0x7D1 DUP3 PUSH2 0x24CD JUMP JUMPDEST PUSH0 DUP1 PUSH2 0x1C53 PUSH4 0x1FFC9A7 PUSH1 0xE0 SHL PUSH2 0x1BA1 JUMP JUMPDEST POP SWAP1 POP PUSH1 0x1 PUSH1 0x1 PUSH1 0xA0 SHL SUB DUP2 AND PUSH2 0x1C6C JUMPI POP PUSH0 SWAP3 SWAP2 POP POP JUMP JUMPDEST PUSH2 0x8EC DUP2 DUP5 PUSH2 0x2501 JUMP JUMPDEST PUSH0 DUP1 SLOAD PUSH1 0x1 PUSH1 0x1 PUSH1 0xA0 SHL SUB DUP4 DUP2 AND PUSH1 0x1 PUSH1 0x1 PUSH1 0xA0 SHL SUB NOT DUP4 AND DUP2 OR DUP5 SSTORE PUSH1 0x40 MLOAD SWAP2 SWAP1 SWAP3 AND SWAP3 DUP4 SWAP2 PUSH32 0x8BE0079C531659141344CD1FD0A4F28419497F9722A3DAAFE3B4186F6B6457E0 SWAP2 SWAP1 LOG3 POP POP JUMP JUMPDEST PUSH0 SLOAD PUSH1 0x1 PUSH1 0x1 PUSH1 0xA0 SHL SUB AND CALLER EQ PUSH2 0xCE0 JUMPI PUSH1 0x40 MLOAD PUSH3 0x461BCD PUSH1 0xE5 SHL DUP2 MSTORE PUSH1 0x20 PUSH1 0x4 DUP3 ADD DUP2 SWAP1 MSTORE PUSH1 0x24 DUP3 ADD MSTORE PUSH32 0x4F776E61626C653A2063616C6C6572206973206E6F7420746865206F776E6572 PUSH1 0x44 DUP3 ADD MSTORE PUSH1 0x64 ADD PUSH2 0x233 JUMP JUMPDEST PUSH1 0x60 PUSH1 0x1 PUSH0 DUP5 DUP5 PUSH1 0x40 MLOAD PUSH1 0x20 ADD PUSH2 0x1D3F SWAP3 SWAP2 SWAP1 SWAP2 DUP3 MSTORE PUSH1 0x20 DUP3 ADD MSTORE PUSH1 0x40 ADD SWAP1 JUMP JUMPDEST PUSH1 0x40 MLOAD PUSH1 0x20 DUP2 DUP4 SUB SUB DUP2 MSTORE SWAP1 PUSH1 0x40 MSTORE DUP1 MLOAD SWAP1 PUSH1 0x20 ADD KECCAK256 DUP2 MSTORE PUSH1 0x20 ADD SWAP1 DUP2 MSTORE PUSH1 0x20 ADD PUSH0 KECCAK256 DUP1 SLOAD PUSH2 0x1D6D SWAP1 PUSH2 0x38A3 JUMP JUMPDEST DUP1 PUSH1 0x1F ADD PUSH1 0x20 DUP1 SWAP2 DIV MUL PUSH1 0x20 ADD PUSH1 0x40 MLOAD SWAP1 DUP2 ADD PUSH1 0x40 MSTORE DUP1 SWAP3 SWAP2 SWAP1 DUP2 DUP2 MSTORE PUSH1 0x20 ADD DUP3 DUP1 SLOAD PUSH2 0x1D99 SWAP1 PUSH2 0x38A3 JUMP JUMPDEST DUP1 ISZERO PUSH2 0x1DE4 JUMPI DUP1 PUSH1 0x1F LT PUSH2 0x1DBB JUMPI PUSH2 0x100 DUP1 DUP4 SLOAD DIV MUL DUP4 MSTORE SWAP2 PUSH1 0x20 ADD SWAP2 PUSH2 0x1DE4 JUMP JUMPDEST DUP3 ADD SWAP2 SWAP1 PUSH0 MSTORE PUSH1 0x20 PUSH0 KECCAK256 SWAP1 JUMPDEST DUP2 SLOAD DUP2 MSTORE SWAP1 PUSH1 0x1 ADD SWAP1 PUSH1 0x20 ADD DUP1 DUP4 GT PUSH2 0x1DC7 JUMPI DUP3 SWAP1 SUB PUSH1 0x1F AND DUP3 ADD SWAP2 JUMPDEST POP POP POP POP POP SWAP1 POP SWAP3 SWAP2 POP POP JUMP JUMPDEST PUSH0 PUSH2 0x1DFB DUP3 PUSH2 0x9D9 JUMP JUMPDEST PUSH1 0x1 PUSH1 0x1 PUSH1 0xA0 SHL SUB AND DUP4 PUSH1 0x1 PUSH1 0x1 PUSH1 0xA0 SHL SUB AND EQ DUP1 PUSH2 0x8EC JUMPI POP PUSH0 DUP3 DUP2 MSTORE PUSH1 0x5 PUSH1 0x20 MSTORE PUSH1 0x40 SWAP1 KECCAK256 PUSH2 0x8EC SWAP1 DUP5 PUSH2 0x2587 JUMP JUMPDEST PUSH0 DUP2 DUP2 MSTORE PUSH1 0x3 PUSH1 0x20 MSTORE PUSH1 0x40 SWAP1 KECCAK256 SLOAD PUSH1 0x1 PUSH1 0x1 PUSH1 0xA0 SHL SUB AND PUSH2 0x1B9E JUMPI PUSH1 0x40 MLOAD PUSH4 0x5747CD1B PUSH1 0xE1 SHL DUP2 MSTORE PUSH1 0x4 DUP2 ADD DUP3 SWAP1 MSTORE PUSH1 0x24 ADD PUSH2 0x233 JUMP JUMPDEST PUSH1 0x60 PUSH0 PUSH2 0x8EC DUP4 PUSH2 0x25A8 JUMP JUMPDEST PUSH0 PUSH2 0x1E79 DUP5 PUSH2 0x9D9 JUMP JUMPDEST SWAP1 POP DUP6 PUSH1 0x1 PUSH1 0x1 PUSH1 0xA0 SHL SUB AND DUP2 PUSH1 0x1 PUSH1 0x1 PUSH1 0xA0 SHL SUB AND EQ PUSH2 0x1EC7 JUMPI PUSH1 0x40 MLOAD PUSH4 0x2D938F51 PUSH1 0xE1 SHL DUP2 MSTORE PUSH1 0x1 PUSH1 0x1 PUSH1 0xA0 SHL SUB DUP1 DUP4 AND PUSH1 0x4 DUP4 ADD MSTORE PUSH1 0x24 DUP3 ADD DUP7 SWAP1 MSTORE DUP8 AND PUSH1 0x44 DUP3 ADD MSTORE PUSH1 0x64 ADD PUSH2 0x233 JUMP JUMPDEST PUSH1 0x1 PUSH1 0x1 PUSH1 0xA0 SHL SUB DUP6 AND PUSH2 0x1EEE JUMPI PUSH1 0x40 MLOAD PUSH4 0x24ECEF4D PUSH1 0xE0 SHL DUP2 MSTORE PUSH1 0x4 ADD PUSH1 0x40 MLOAD DUP1 SWAP2 SUB SWAP1 REVERT JUMPDEST PUSH0 PUSH2 0x1EF8 DUP6 PUSH2 0x9D9 JUMP JUMPDEST SWAP1 POP DUP1 PUSH1 0x1 PUSH1 0x1 PUSH1 0xA0 SHL SUB AND DUP3 PUSH1 0x1 PUSH1 0x1 PUSH1 0xA0 SHL SUB AND EQ PUSH2 0x1F46 JUMPI PUSH1 0x40 MLOAD PUSH4 0x5A9C31D3 PUSH1 0xE0 SHL DUP2 MSTORE PUSH1 0x4 DUP2 ADD DUP7 SWAP1 MSTORE PUSH1 0x1 PUSH1 0x1 PUSH1 0xA0 SHL SUB DUP1 DUP5 AND PUSH1 0x24 DUP4 ADD MSTORE DUP3 AND PUSH1 0x44 DUP3 ADD MSTORE PUSH1 0x64 ADD PUSH2 0x233 JUMP JUMPDEST PUSH2 0x1F50 DUP8 DUP7 PUSH2 0x2600 JUMP JUMPDEST PUSH1 0x1 PUSH1 0x1 PUSH1 0xA0 SHL SUB DUP8 AND PUSH0 SWAP1 DUP2 MSTORE PUSH1 0x4 PUSH1 0x20 MSTORE PUSH1 0x40 SWAP1 KECCAK256 PUSH2 0x1F71 SWAP1 DUP7 PUSH2 0x2653 JUMP JUMPDEST POP PUSH1 0x1 PUSH1 0x1 PUSH1 0xA0 SHL SUB DUP7 AND PUSH0 SWAP1 DUP2 MSTORE PUSH1 0x4 PUSH1 0x20 MSTORE PUSH1 0x40 SWAP1 KECCAK256 PUSH2 0x1F93 SWAP1 DUP7 PUSH2 0x265E JUMP JUMPDEST POP PUSH0 DUP6 DUP2 MSTORE PUSH1 0x3 PUSH1 0x20 MSTORE PUSH1 0x40 SWAP1 DUP2 SWAP1 KECCAK256 DUP1 SLOAD PUSH1 0x1 PUSH1 0x1 PUSH1 0xA0 SHL SUB NOT AND PUSH1 0x1 PUSH1 0x1 PUSH1 0xA0 SHL SUB DUP10 DUP2 AND SWAP2 DUP3 OR SWAP1 SWAP3 SSTORE SWAP2 MLOAD DUP8 SWAP3 SWAP2 DUP11 AND SWAP1 PUSH32 0xB333C813A7426A7A11E2B190CAD52C44119421594B47F6F32ACE6D8C7207B2BF SWAP1 PUSH2 0x1FF9 SWAP1 CALLER SWAP1 DUP11 SWAP1 DUP11 SWAP1 PUSH2 0x3B28 JUMP JUMPDEST PUSH1 0x40 MLOAD DUP1 SWAP2 SUB SWAP1 LOG4 PUSH0 CALLER DUP9 DUP9 DUP9 DUP8 PUSH1 0x40 MLOAD PUSH1 0x20 ADD PUSH2 0x201B SWAP6 SWAP5 SWAP4 SWAP3 SWAP2 SWAP1 PUSH2 0x3B53 JUMP JUMPDEST PUSH1 0x40 MLOAD PUSH1 0x20 DUP2 DUP4 SUB SUB DUP2 MSTORE SWAP1 PUSH1 0x40 MSTORE SWAP1 POP PUSH2 0x2036 DUP9 DUP3 PUSH2 0x2669 JUMP JUMPDEST PUSH2 0x2041 DUP8 DUP7 DUP4 PUSH2 0x2694 JUMP JUMPDEST POP POP POP POP POP POP POP POP JUMP JUMPDEST PUSH0 DUP2 DUP2 MSTORE PUSH1 0x1 PUSH1 0x20 MSTORE PUSH1 0x40 SWAP1 KECCAK256 DUP1 SLOAD PUSH1 0x60 SWAP2 SWAP1 PUSH2 0x2067 SWAP1 PUSH2 0x38A3 JUMP JUMPDEST DUP1 PUSH1 0x1F ADD PUSH1 0x20 DUP1 SWAP2 DIV MUL PUSH1 0x20 ADD PUSH1 0x40 MLOAD SWAP1 DUP2 ADD PUSH1 0x40 MSTORE DUP1 SWAP3 SWAP2 SWAP1 DUP2 DUP2 MSTORE PUSH1 0x20 ADD DUP3 DUP1 SLOAD PUSH2 0x2093 SWAP1 PUSH2 0x38A3 JUMP JUMPDEST DUP1 ISZERO PUSH2 0x20DE JUMPI DUP1 PUSH1 0x1F LT PUSH2 0x20B5 JUMPI PUSH2 0x100 DUP1 DUP4 SLOAD DIV MUL DUP4 MSTORE SWAP2 PUSH1 0x20 ADD SWAP2 PUSH2 0x20DE JUMP JUMPDEST DUP3 ADD SWAP2 SWAP1 PUSH0 MSTORE PUSH1 0x20 PUSH0 KECCAK256 SWAP1 JUMPDEST DUP2 SLOAD DUP2 MSTORE SWAP1 PUSH1 0x1 ADD SWAP1 PUSH1 0x20 ADD DUP1 DUP4 GT PUSH2 0x20C1 JUMPI DUP3 SWAP1 SUB PUSH1 0x1F AND DUP3 ADD SWAP2 JUMPDEST POP POP POP POP POP SWAP1 POP SWAP2 SWAP1 POP JUMP JUMPDEST PUSH0 PUSH2 0x20F9 PUSH1 0x6 DUP1 SLOAD PUSH1 0x1 ADD SWAP1 SSTORE JUMP JUMPDEST PUSH1 0x6 SLOAD PUSH0 SHL SWAP1 POP PUSH2 0x211B DUP6 DUP3 PUSH1 0x1 PUSH1 0x40 MLOAD DUP1 PUSH1 0x20 ADD PUSH1 0x40 MSTORE DUP1 PUSH0 DUP2 MSTORE POP PUSH2 0x2797 JUMP JUMPDEST PUSH0 DUP2 DUP2 MSTORE PUSH1 0x7 PUSH1 0x20 MSTORE PUSH1 0x40 SWAP1 KECCAK256 DUP1 PUSH2 0x2133 DUP10 DUP3 PUSH2 0x3919 JUMP JUMPDEST POP DUP4 MLOAD PUSH1 0x5 DUP3 ADD DUP1 SLOAD PUSH1 0x20 DUP1 DUP9 ADD MLOAD PUSH1 0x40 DUP1 DUP11 ADD MLOAD PUSH1 0xFF SWAP7 DUP8 AND PUSH2 0xFFFF NOT SWAP6 DUP7 AND OR PUSH2 0x100 SWAP4 DUP9 AND DUP5 MUL OR PUSH4 0xFFFF0000 NOT SWAP1 DUP2 AND PUSH3 0x10000 PUSH2 0xFFFF SWAP4 DUP5 AND DUP2 MUL SWAP2 SWAP1 SWAP2 OR SWAP1 SWAP8 SSTORE DUP11 MLOAD PUSH1 0x6 DUP11 ADD DUP1 SLOAD SWAP7 DUP14 ADD MLOAD SWAP5 DUP14 ADD MLOAD SWAP2 DUP11 AND SWAP7 SWAP1 SWAP8 AND SWAP6 SWAP1 SWAP6 OR SWAP3 SWAP1 SWAP8 AND SWAP1 SWAP3 MUL OR SWAP1 SWAP5 AND SWAP4 AND SWAP1 SWAP2 MUL SWAP2 SWAP1 SWAP2 OR SWAP1 SSTORE PUSH1 0x4 DUP2 ADD DUP1 SLOAD DUP7 SWAP2 SWAP1 PUSH1 0xFF NOT AND PUSH1 0x1 DUP4 PUSH1 0x2 DUP2 GT ISZERO PUSH2 0x21CC JUMPI PUSH2 0x21CC PUSH2 0x34DF JUMP JUMPDEST MUL OR SWAP1 SSTORE POP PUSH1 0x7 DUP2 ADD PUSH2 0x21DF DUP9 DUP3 PUSH2 0x3919 JUMP JUMPDEST POP PUSH1 0x40 MLOAD PUSH1 0x1 PUSH1 0x1 PUSH1 0xA0 SHL SUB DUP8 AND DUP2 MSTORE DUP3 SWAP1 PUSH32 0xA6912C28A8CB5FC5CAB504E471CFA6BC504444025484D810E2565BC7DEAD6657 SWAP1 PUSH1 0x20 ADD PUSH1 0x40 MLOAD DUP1 SWAP2 SUB SWAP1 LOG2 POP SWAP7 SWAP6 POP POP POP POP POP POP JUMP JUMPDEST PUSH0 PUSH2 0x7D1 DUP3 SLOAD SWAP1 JUMP JUMPDEST PUSH32 0x98A16C9E50E3E99B3E797305C146898D294E5AEC55A47E213CB3611CCF17E73 DUP3 ADD PUSH2 0x2272 JUMPI PUSH1 0x40 MLOAD PUSH4 0x1B324005 PUSH1 0xE1 SHL DUP2 MSTORE PUSH1 0x4 ADD PUSH1 0x40 MLOAD DUP1 SWAP2 SUB SWAP1 REVERT JUMPDEST PUSH2 0xFA4 DUP3 DUP3 PUSH2 0x2900 JUMP JUMPDEST PUSH0 PUSH2 0x8EC DUP4 PUSH1 0x1 PUSH1 0x1 PUSH1 0xA0 SHL SUB DUP5 AND PUSH2 0x2A14 JUMP JUMPDEST PUSH2 0xFA4 DUP3 PUSH32 0x8A1C15A8799F71B547E08E2BCB2E85257E81B0A07EEE2CE6712549EEF1F00970 DUP4 PUSH2 0x2A60 JUMP JUMPDEST DUP1 MLOAD DUP3 MLOAD EQ PUSH2 0x22DD JUMPI PUSH1 0x40 MLOAD PUSH4 0x3BCC8979 PUSH1 0xE0 SHL DUP2 MSTORE PUSH1 0x4 ADD PUSH1 0x40 MLOAD DUP1 SWAP2 SUB SWAP1 REVERT JUMPDEST DUP2 MLOAD PUSH0 SUB PUSH2 0x22FE JUMPI PUSH1 0x40 MLOAD PUSH4 0x97DA5F95 PUSH1 0xE0 SHL DUP2 MSTORE PUSH1 0x4 ADD PUSH1 0x40 MLOAD DUP1 SWAP2 SUB SWAP1 REVERT JUMPDEST PUSH0 JUMPDEST DUP3 MLOAD DUP2 LT ISZERO PUSH2 0x19C2 JUMPI PUSH2 0x2345 DUP4 DUP3 DUP2 MLOAD DUP2 LT PUSH2 0x231E JUMPI PUSH2 0x231E PUSH2 0x39D3 JUMP JUMPDEST PUSH1 0x20 MUL PUSH1 0x20 ADD ADD MLOAD DUP4 DUP4 DUP2 MLOAD DUP2 LT PUSH2 0x2338 JUMPI PUSH2 0x2338 PUSH2 0x39D3 JUMP JUMPDEST PUSH1 0x20 MUL PUSH1 0x20 ADD ADD MLOAD PUSH2 0x2232 JUMP JUMPDEST PUSH1 0x1 ADD PUSH2 0x2300 JUMP JUMPDEST DUP1 PUSH1 0x1 PUSH0 DUP6 DUP6 PUSH1 0x40 MLOAD PUSH1 0x20 ADD PUSH2 0x236D SWAP3 SWAP2 SWAP1 SWAP2 DUP3 MSTORE PUSH1 0x20 DUP3 ADD MSTORE PUSH1 0x40 ADD SWAP1 JUMP JUMPDEST PUSH1 0x40 MLOAD PUSH1 0x20 DUP2 DUP4 SUB SUB DUP2 MSTORE SWAP1 PUSH1 0x40 MSTORE DUP1 MLOAD SWAP1 PUSH1 0x20 ADD KECCAK256 DUP2 MSTORE PUSH1 0x20 ADD SWAP1 DUP2 MSTORE PUSH1 0x20 ADD PUSH0 KECCAK256 SWAP1 DUP2 PUSH2 0x239C SWAP2 SWAP1 PUSH2 0x3919 JUMP JUMPDEST POP DUP2 DUP4 PUSH32 0xA6E4251F855F750545FE414F120DB91C76B88DEF14D120969E5BB2D3F05DEBBB DUP4 PUSH1 0x40 MLOAD PUSH2 0x23CE SWAP2 SWAP1 PUSH2 0x2E19 JUMP JUMPDEST PUSH1 0x40 MLOAD DUP1 SWAP2 SUB SWAP1 LOG3 POP POP POP JUMP JUMPDEST PUSH0 DUP4 DUP2 MSTORE PUSH1 0x5 PUSH1 0x20 MSTORE PUSH1 0x40 DUP2 KECCAK256 PUSH2 0x23F2 SWAP1 DUP8 PUSH2 0x2AAD JUMP JUMPDEST SWAP1 POP DUP1 PUSH2 0x2424 JUMPI PUSH1 0x40 MLOAD PUSH4 0x12A8C6A3 PUSH1 0xE2 SHL DUP2 MSTORE PUSH1 0x1 PUSH1 0x1 PUSH1 0xA0 SHL SUB DUP8 AND PUSH1 0x4 DUP3 ADD MSTORE PUSH1 0x24 DUP2 ADD DUP6 SWAP1 MSTORE PUSH1 0x44 ADD PUSH2 0x233 JUMP JUMPDEST DUP4 DUP6 PUSH1 0x1 PUSH1 0x1 PUSH1 0xA0 SHL SUB AND DUP8 PUSH1 0x1 PUSH1 0x1 PUSH1 0xA0 SHL SUB AND PUSH32 0xC78CD419D6136F9F1C1C6AEC1D3FAE098CFFAF8BC86314A8F2685E32FE574E3C DUP7 DUP7 PUSH1 0x40 MLOAD PUSH2 0x246A SWAP3 SWAP2 SWAP1 PUSH2 0x3B8D JUMP JUMPDEST PUSH1 0x40 MLOAD DUP1 SWAP2 SUB SWAP1 LOG4 POP POP POP POP POP POP JUMP JUMPDEST PUSH1 0x40 DUP1 MLOAD PUSH1 0x1 PUSH1 0x1 PUSH1 0xB0 SHL SUB NOT DUP5 AND PUSH1 0x20 DUP3 ADD MSTORE PUSH0 PUSH1 0x2A DUP3 ADD DUP2 SWAP1 MSTORE PUSH1 0x1 PUSH1 0x1 PUSH1 0x60 SHL SUB NOT DUP5 AND PUSH1 0x2C DUP4 ADD MSTORE SWAP2 DUP3 SWAP2 ADD PUSH1 0x40 MLOAD PUSH1 0x20 DUP2 DUP4 SUB SUB DUP2 MSTORE SWAP1 PUSH1 0x40 MSTORE SWAP1 POP DUP1 PUSH2 0x24C5 SWAP1 PUSH2 0x3BA7 JUMP JUMPDEST SWAP5 SWAP4 POP POP POP POP JUMP JUMPDEST PUSH0 PUSH1 0x1 PUSH1 0x1 PUSH1 0xE0 SHL SUB NOT DUP3 AND PUSH4 0x18A6A9A5 PUSH1 0xE2 SHL EQ DUP1 PUSH2 0x7D1 JUMPI POP PUSH4 0x1FFC9A7 PUSH1 0xE0 SHL PUSH1 0x1 PUSH1 0x1 PUSH1 0xE0 SHL SUB NOT DUP4 AND EQ PUSH2 0x7D1 JUMP JUMPDEST PUSH1 0x40 DUP1 MLOAD PUSH1 0x1 PUSH1 0x1 PUSH1 0xE0 SHL SUB NOT DUP4 AND PUSH1 0x24 DUP1 DUP4 ADD SWAP2 SWAP1 SWAP2 MSTORE DUP3 MLOAD DUP1 DUP4 SUB SWAP1 SWAP2 ADD DUP2 MSTORE PUSH1 0x44 SWAP1 SWAP2 ADD SWAP1 SWAP2 MSTORE PUSH1 0x20 DUP1 DUP3 ADD DUP1 MLOAD PUSH1 0x1 PUSH1 0x1 PUSH1 0xE0 SHL SUB AND PUSH4 0x1FFC9A7 PUSH1 0xE0 SHL OR DUP2 MSTORE DUP3 MLOAD PUSH0 SWAP4 SWAP3 DUP5 SWAP3 DUP4 SWAP3 DUP4 SWAP3 SWAP2 DUP4 SWAP2 SWAP1 DUP11 PUSH2 0x7530 STATICCALL SWAP3 POP RETURNDATASIZE SWAP2 POP PUSH0 MLOAD SWAP1 POP DUP3 DUP1 ISZERO PUSH2 0x2571 JUMPI POP PUSH1 0x20 DUP3 LT ISZERO JUMPDEST DUP1 ISZERO PUSH2 0x257C JUMPI POP PUSH0 DUP2 GT JUMPDEST SWAP8 SWAP7 POP POP POP POP POP POP POP JUMP JUMPDEST PUSH1 0x1 PUSH1 0x1 PUSH1 0xA0 SHL SUB DUP2 AND PUSH0 SWAP1 DUP2 MSTORE PUSH1 0x1 DUP4 ADD PUSH1 0x20 MSTORE PUSH1 0x40 DUP2 KECCAK256 SLOAD ISZERO ISZERO PUSH2 0x8EC JUMP JUMPDEST PUSH1 0x60 DUP2 PUSH0 ADD DUP1 SLOAD DUP1 PUSH1 0x20 MUL PUSH1 0x20 ADD PUSH1 0x40 MLOAD SWAP1 DUP2 ADD PUSH1 0x40 MSTORE DUP1 SWAP3 SWAP2 SWAP1 DUP2 DUP2 MSTORE PUSH1 0x20 ADD DUP3 DUP1 SLOAD DUP1 ISZERO PUSH2 0x20DE JUMPI PUSH1 0x20 MUL DUP3 ADD SWAP2 SWAP1 PUSH0 MSTORE PUSH1 0x20 PUSH0 KECCAK256 SWAP1 JUMPDEST DUP2 SLOAD DUP2 MSTORE PUSH1 0x20 ADD SWAP1 PUSH1 0x1 ADD SWAP1 DUP1 DUP4 GT PUSH2 0x25E1 JUMPI POP POP POP POP POP SWAP1 POP SWAP2 SWAP1 POP JUMP JUMPDEST PUSH0 DUP2 DUP2 MSTORE PUSH1 0x5 PUSH1 0x20 MSTORE PUSH1 0x40 DUP2 KECCAK256 SWAP1 PUSH2 0x2617 DUP3 PUSH2 0x2229 JUMP JUMPDEST SWAP1 POP PUSH0 PUSH0 JUMPDEST DUP3 DUP2 LT ISZERO PUSH2 0x1117 JUMPI PUSH2 0x262E DUP5 PUSH0 PUSH2 0x2AC1 JUMP JUMPDEST SWAP2 POP PUSH2 0x264B DUP3 DUP8 DUP8 PUSH0 PUSH1 0x40 MLOAD DUP1 PUSH1 0x20 ADD PUSH1 0x40 MSTORE DUP1 PUSH0 DUP2 MSTORE POP PUSH2 0x23DB JUMP JUMPDEST PUSH1 0x1 ADD PUSH2 0x261C JUMP JUMPDEST PUSH0 PUSH2 0x8EC DUP4 DUP4 PUSH2 0x2ACC JUMP JUMPDEST PUSH0 PUSH2 0x8EC DUP4 DUP4 PUSH2 0x2A14 JUMP JUMPDEST PUSH2 0xFA4 DUP3 PUSH32 0xB23EAE7E6D1564B295B4C3E3BE402D9A2F0776C57BDF365903496F6FA481AB00 DUP4 PUSH2 0x2A60 JUMP JUMPDEST PUSH2 0x26A5 DUP4 PUSH4 0x1AED5A85 PUSH1 0xE2 SHL PUSH2 0x2501 JUMP JUMPDEST ISZERO PUSH2 0x273A JUMPI PUSH1 0x40 MLOAD PUSH4 0x1AED5A85 PUSH1 0xE2 SHL DUP2 MSTORE PUSH1 0x1 PUSH1 0x1 PUSH1 0xA0 SHL SUB DUP5 AND SWAP1 PUSH4 0x6BB56A14 SWAP1 PUSH2 0x26F8 SWAP1 PUSH32 0xB084A55EBF70FD3C06FD755269DAC2212C4D3F0F4D09079780BFA50C1B2984D SWAP1 DUP6 SWAP1 PUSH1 0x4 ADD PUSH2 0x3BCA JUMP JUMPDEST PUSH0 PUSH1 0x40 MLOAD DUP1 DUP4 SUB DUP2 PUSH0 DUP8 GAS CALL ISZERO DUP1 ISZERO PUSH2 0x2713 JUMPI RETURNDATASIZE PUSH0 PUSH0 RETURNDATACOPY RETURNDATASIZE PUSH0 REVERT JUMPDEST POP POP POP POP PUSH1 0x40 MLOAD RETURNDATASIZE PUSH0 DUP3 RETURNDATACOPY PUSH1 0x1F RETURNDATASIZE SWAP1 DUP2 ADD PUSH1 0x1F NOT AND DUP3 ADD PUSH1 0x40 MSTORE PUSH2 0xF6D SWAP2 SWAP1 DUP2 ADD SWAP1 PUSH2 0x3BE2 JUMP JUMPDEST DUP2 PUSH2 0x19C2 JUMPI PUSH1 0x1 PUSH1 0x1 PUSH1 0xA0 SHL SUB DUP4 AND EXTCODESIZE ISZERO PUSH2 0x2773 JUMPI PUSH1 0x40 MLOAD PUSH4 0x4349776D PUSH1 0xE0 SHL DUP2 MSTORE PUSH1 0x1 PUSH1 0x1 PUSH1 0xA0 SHL SUB DUP5 AND PUSH1 0x4 DUP3 ADD MSTORE PUSH1 0x24 ADD PUSH2 0x233 JUMP JUMPDEST PUSH1 0x40 MLOAD PUSH4 0x3173137 PUSH1 0xE0 SHL DUP2 MSTORE PUSH1 0x1 PUSH1 0x1 PUSH1 0xA0 SHL SUB DUP5 AND PUSH1 0x4 DUP3 ADD MSTORE PUSH1 0x24 ADD PUSH2 0x233 JUMP JUMPDEST PUSH1 0x1 PUSH1 0x1 PUSH1 0xA0 SHL SUB DUP5 AND PUSH2 0x27BE JUMPI PUSH1 0x40 MLOAD PUSH4 0x24ECEF4D PUSH1 0xE0 SHL DUP2 MSTORE PUSH1 0x4 ADD PUSH1 0x40 MLOAD DUP1 SWAP2 SUB SWAP1 REVERT JUMPDEST PUSH0 DUP4 DUP2 MSTORE PUSH1 0x3 PUSH1 0x20 MSTORE PUSH1 0x40 SWAP1 KECCAK256 SLOAD PUSH1 0x1 PUSH1 0x1 PUSH1 0xA0 SHL SUB AND ISZERO PUSH2 0x27F6 JUMPI PUSH1 0x40 MLOAD PUSH4 0x34C7B511 PUSH1 0xE0 SHL DUP2 MSTORE PUSH1 0x4 DUP2 ADD DUP5 SWAP1 MSTORE PUSH1 0x24 ADD PUSH2 0x233 JUMP JUMPDEST PUSH0 DUP4 DUP2 MSTORE PUSH1 0x3 PUSH1 0x20 MSTORE PUSH1 0x40 SWAP1 KECCAK256 SLOAD PUSH1 0x1 PUSH1 0x1 PUSH1 0xA0 SHL SUB AND ISZERO PUSH2 0x282E JUMPI PUSH1 0x40 MLOAD PUSH4 0x34C7B511 PUSH1 0xE0 SHL DUP2 MSTORE PUSH1 0x4 DUP2 ADD DUP5 SWAP1 MSTORE PUSH1 0x24 ADD PUSH2 0x233 JUMP JUMPDEST PUSH1 0x2 PUSH0 DUP2 SLOAD PUSH2 0x283C SWAP1 PUSH2 0x3C56 JUMP JUMPDEST SWAP1 SWAP2 SSTORE POP PUSH1 0x1 PUSH1 0x1 PUSH1 0xA0 SHL SUB DUP5 AND PUSH0 SWAP1 DUP2 MSTORE PUSH1 0x4 PUSH1 0x20 MSTORE PUSH1 0x40 SWAP1 KECCAK256 PUSH2 0x2861 SWAP1 DUP5 PUSH2 0x265E JUMP JUMPDEST POP PUSH0 DUP4 DUP2 MSTORE PUSH1 0x3 PUSH1 0x20 MSTORE PUSH1 0x40 DUP1 DUP3 KECCAK256 DUP1 SLOAD PUSH1 0x1 PUSH1 0x1 PUSH1 0xA0 SHL SUB NOT AND PUSH1 0x1 PUSH1 0x1 PUSH1 0xA0 SHL SUB DUP9 AND SWAP1 DUP2 OR SWAP1 SWAP2 SSTORE SWAP1 MLOAD DUP6 SWAP3 SWAP1 PUSH32 0xB333C813A7426A7A11E2B190CAD52C44119421594B47F6F32ACE6D8C7207B2BF SWAP1 PUSH2 0x28C2 SWAP1 CALLER SWAP1 DUP9 SWAP1 DUP9 SWAP1 PUSH2 0x3B28 JUMP JUMPDEST PUSH1 0x40 MLOAD DUP1 SWAP2 SUB SWAP1 LOG4 PUSH0 CALLER PUSH0 DUP7 DUP7 DUP6 PUSH1 0x40 MLOAD PUSH1 0x20 ADD PUSH2 0x28E4 SWAP6 SWAP5 SWAP4 SWAP3 SWAP2 SWAP1 PUSH2 0x3B53 JUMP JUMPDEST PUSH1 0x40 MLOAD PUSH1 0x20 DUP2 DUP4 SUB SUB DUP2 MSTORE SWAP1 PUSH1 0x40 MSTORE SWAP1 POP PUSH2 0xA7A DUP6 DUP5 DUP4 PUSH2 0x2694 JUMP JUMPDEST PUSH32 0x2145E1D6D074577DC71EF54C3807742B41B053A9352AE6B491331509ACB9750F DUP3 ADD PUSH2 0x2940 JUMPI PUSH1 0x40 MLOAD PUSH4 0x85C169BD PUSH1 0xE0 SHL DUP2 MSTORE PUSH1 0x4 ADD PUSH1 0x40 MLOAD DUP1 SWAP2 SUB SWAP1 REVERT JUMPDEST PUSH32 0xD0F59754F88971FE6BC5A6618CC9D5F1E859C58D16B22D1C7B2D3E2B246CD8AA DUP3 ADD PUSH2 0x2980 JUMPI PUSH1 0x40 MLOAD PUSH4 0xECEAB67 PUSH1 0xE3 SHL DUP2 MSTORE PUSH1 0x4 ADD PUSH1 0x40 MLOAD DUP1 SWAP2 SUB SWAP1 REVERT JUMPDEST PUSH32 0x1FD9E056A24D14C4ABC642FCC325992A946906D0DBC57DD70278AAF12842024D DUP3 ADD PUSH2 0x29C0 JUMPI PUSH1 0x40 MLOAD PUSH4 0x4EF6D7FB PUSH1 0xE0 SHL DUP2 MSTORE PUSH1 0x4 ADD PUSH1 0x40 MLOAD DUP1 SWAP2 SUB SWAP1 REVERT JUMPDEST PUSH0 DUP3 DUP2 MSTORE PUSH1 0x1 PUSH1 0x20 MSTORE PUSH1 0x40 SWAP1 KECCAK256 PUSH2 0x29D7 DUP3 DUP3 PUSH2 0x3919 JUMP JUMPDEST POP DUP2 PUSH32 0xECE574603820D07BC9B91F2A932BAADF4628AABCB8AFBA49776529C14A6104B2 DUP3 PUSH1 0x40 MLOAD PUSH2 0x2A08 SWAP2 SWAP1 PUSH2 0x2E19 JUMP JUMPDEST PUSH1 0x40 MLOAD DUP1 SWAP2 SUB SWAP1 LOG2 POP POP JUMP JUMPDEST PUSH0 DUP2 DUP2 MSTORE PUSH1 0x1 DUP4 ADD PUSH1 0x20 MSTORE PUSH1 0x40 DUP2 KECCAK256 SLOAD PUSH2 0x2A59 JUMPI POP DUP2 SLOAD PUSH1 0x1 DUP2 DUP2 ADD DUP5 SSTORE PUSH0 DUP5 DUP2 MSTORE PUSH1 0x20 DUP1 DUP3 KECCAK256 SWAP1 SWAP4 ADD DUP5 SWAP1 SSTORE DUP5 SLOAD DUP5 DUP3 MSTORE DUP3 DUP7 ADD SWAP1 SWAP4 MSTORE PUSH1 0x40 SWAP1 KECCAK256 SWAP2 SWAP1 SWAP2 SSTORE PUSH2 0x7D1 JUMP JUMPDEST POP PUSH0 PUSH2 0x7D1 JUMP JUMPDEST PUSH2 0x2A7A PUSH1 0x1 PUSH1 0x1 PUSH1 0xA0 SHL SUB DUP5 AND PUSH4 0x1AED5A85 PUSH1 0xE2 SHL PUSH2 0x2501 JUMP JUMPDEST ISZERO PUSH2 0x19C2 JUMPI PUSH1 0x40 MLOAD PUSH4 0x1AED5A85 PUSH1 0xE2 SHL DUP2 MSTORE PUSH1 0x1 PUSH1 0x1 PUSH1 0xA0 SHL SUB DUP5 AND SWAP1 PUSH4 0x6BB56A14 SWAP1 PUSH2 0x26F8 SWAP1 DUP6 SWAP1 DUP6 SWAP1 PUSH1 0x4 ADD PUSH2 0x3BCA JUMP JUMPDEST PUSH0 PUSH2 0x8EC DUP4 PUSH1 0x1 PUSH1 0x1 PUSH1 0xA0 SHL SUB DUP5 AND PUSH2 0x2ACC JUMP JUMPDEST PUSH0 PUSH2 0x8EC DUP4 DUP4 PUSH2 0x2BAF JUMP JUMPDEST PUSH0 DUP2 DUP2 MSTORE PUSH1 0x1 DUP4 ADD PUSH1 0x20 MSTORE PUSH1 0x40 DUP2 KECCAK256 SLOAD DUP1 ISZERO PUSH2 0x2BA6 JUMPI PUSH0 PUSH2 0x2AEE PUSH1 0x1 DUP4 PUSH2 0x3A7B JUMP JUMPDEST DUP6 SLOAD SWAP1 SWAP2 POP PUSH0 SWAP1 PUSH2 0x2B01 SWAP1 PUSH1 0x1 SWAP1 PUSH2 0x3A7B JUMP JUMPDEST SWAP1 POP DUP2 DUP2 EQ PUSH2 0x2B60 JUMPI PUSH0 DUP7 PUSH0 ADD DUP3 DUP2 SLOAD DUP2 LT PUSH2 0x2B1F JUMPI PUSH2 0x2B1F PUSH2 0x39D3 JUMP JUMPDEST SWAP1 PUSH0 MSTORE PUSH1 0x20 PUSH0 KECCAK256 ADD SLOAD SWAP1 POP DUP1 DUP8 PUSH0 ADD DUP5 DUP2 SLOAD DUP2 LT PUSH2 0x2B3F JUMPI PUSH2 0x2B3F PUSH2 0x39D3 JUMP JUMPDEST PUSH0 SWAP2 DUP3 MSTORE PUSH1 0x20 DUP1 DUP4 KECCAK256 SWAP1 SWAP2 ADD SWAP3 SWAP1 SWAP3 SSTORE SWAP2 DUP3 MSTORE PUSH1 0x1 DUP9 ADD SWAP1 MSTORE PUSH1 0x40 SWAP1 KECCAK256 DUP4 SWAP1 SSTORE JUMPDEST DUP6 SLOAD DUP7 SWAP1 DUP1 PUSH2 0x2B71 JUMPI PUSH2 0x2B71 PUSH2 0x3A8E JUMP JUMPDEST PUSH1 0x1 SWAP1 SUB DUP2 DUP2 SWAP1 PUSH0 MSTORE PUSH1 0x20 PUSH0 KECCAK256 ADD PUSH0 SWAP1 SSTORE SWAP1 SSTORE DUP6 PUSH1 0x1 ADD PUSH0 DUP7 DUP2 MSTORE PUSH1 0x20 ADD SWAP1 DUP2 MSTORE PUSH1 0x20 ADD PUSH0 KECCAK256 PUSH0 SWAP1 SSTORE PUSH1 0x1 SWAP4 POP POP POP POP PUSH2 0x7D1 JUMP JUMPDEST PUSH0 SWAP2 POP POP PUSH2 0x7D1 JUMP JUMPDEST PUSH0 DUP3 PUSH0 ADD DUP3 DUP2 SLOAD DUP2 LT PUSH2 0x2BC4 JUMPI PUSH2 0x2BC4 PUSH2 0x39D3 JUMP JUMPDEST SWAP1 PUSH0 MSTORE PUSH1 0x20 PUSH0 KECCAK256 ADD SLOAD SWAP1 POP SWAP3 SWAP2 POP POP JUMP JUMPDEST PUSH1 0x40 MLOAD DUP1 PUSH2 0x100 ADD PUSH1 0x40 MSTORE DUP1 PUSH1 0x60 DUP2 MSTORE PUSH1 0x20 ADD PUSH0 DUP2 MSTORE PUSH1 0x20 ADD PUSH1 0x60 DUP2 MSTORE PUSH1 0x20 ADD PUSH1 0x60 DUP2 MSTORE PUSH1 0x20 ADD PUSH0 PUSH1 0x2 DUP2 GT ISZERO PUSH2 0x2C0E JUMPI PUSH2 0x2C0E PUSH2 0x34DF JUMP JUMPDEST DUP2 MSTORE PUSH1 0x40 DUP1 MLOAD PUSH1 0x60 DUP1 DUP3 ADD DUP4 MSTORE PUSH0 DUP1 DUP4 MSTORE PUSH1 0x20 DUP1 DUP5 ADD DUP3 SWAP1 MSTORE DUP4 DUP6 ADD DUP3 SWAP1 MSTORE DUP1 DUP7 ADD SWAP4 SWAP1 SWAP4 MSTORE DUP4 MLOAD DUP1 DUP4 ADD DUP6 MSTORE DUP2 DUP2 MSTORE SWAP3 DUP4 ADD DUP2 SWAP1 MSTORE DUP3 DUP5 ADD MSTORE SWAP2 DUP4 ADD MSTORE SWAP1 DUP2 ADD MSTORE SWAP1 JUMP JUMPDEST PUSH1 0x20 DUP2 MSTORE DUP2 PUSH1 0x20 DUP3 ADD MSTORE DUP2 DUP4 PUSH1 0x40 DUP4 ADD CALLDATACOPY PUSH0 DUP2 DUP4 ADD PUSH1 0x40 SWAP1 DUP2 ADD SWAP2 SWAP1 SWAP2 MSTORE PUSH1 0x1F SWAP1 SWAP3 ADD PUSH1 0x1F NOT AND ADD ADD SWAP2 SWAP1 POP JUMP JUMPDEST PUSH0 PUSH1 0x20 DUP3 DUP5 SUB SLT ISZERO PUSH2 0x2C91 JUMPI PUSH0 PUSH0 REVERT JUMPDEST DUP2 CALLDATALOAD PUSH1 0x1 PUSH1 0x1 PUSH1 0xE0 SHL SUB NOT DUP2 AND DUP2 EQ PUSH2 0x8EC JUMPI PUSH0 PUSH0 REVERT JUMPDEST DUP1 CALLDATALOAD PUSH1 0x1 PUSH1 0x1 PUSH1 0xA0 SHL SUB DUP2 AND DUP2 EQ PUSH2 0x2CBE JUMPI PUSH0 PUSH0 REVERT JUMPDEST SWAP2 SWAP1 POP JUMP JUMPDEST PUSH0 PUSH1 0x20 DUP3 DUP5 SUB SLT ISZERO PUSH2 0x2CD3 JUMPI PUSH0 PUSH0 REVERT JUMPDEST PUSH2 0x8EC DUP3 PUSH2 0x2CA8 JUMP JUMPDEST PUSH4 0x4E487B71 PUSH1 0xE0 SHL PUSH0 MSTORE PUSH1 0x41 PUSH1 0x4 MSTORE PUSH1 0x24 PUSH0 REVERT JUMPDEST PUSH1 0x40 MLOAD PUSH1 0x1F DUP3 ADD PUSH1 0x1F NOT AND DUP2 ADD PUSH1 0x1 PUSH1 0x1 PUSH1 0x40 SHL SUB DUP2 GT DUP3 DUP3 LT OR ISZERO PUSH2 0x2D18 JUMPI PUSH2 0x2D18 PUSH2 0x2CDC JUMP JUMPDEST PUSH1 0x40 MSTORE SWAP2 SWAP1 POP JUMP JUMPDEST PUSH0 PUSH1 0x1 PUSH1 0x1 PUSH1 0x40 SHL SUB DUP3 GT ISZERO PUSH2 0x2D38 JUMPI PUSH2 0x2D38 PUSH2 0x2CDC JUMP JUMPDEST POP PUSH1 0x1F ADD PUSH1 0x1F NOT AND PUSH1 0x20 ADD SWAP1 JUMP JUMPDEST PUSH0 DUP3 PUSH1 0x1F DUP4 ADD SLT PUSH2 0x2D55 JUMPI PUSH0 PUSH0 REVERT JUMPDEST DUP2 CALLDATALOAD PUSH1 0x20 DUP4 ADD PUSH0 PUSH2 0x2D6D PUSH2 0x2D68 DUP5 PUSH2 0x2D20 JUMP JUMPDEST PUSH2 0x2CF0 JUMP JUMPDEST SWAP1 POP DUP3 DUP2 MSTORE DUP6 DUP4 DUP4 ADD GT ISZERO PUSH2 0x2D80 JUMPI PUSH0 PUSH0 REVERT JUMPDEST DUP3 DUP3 PUSH1 0x20 DUP4 ADD CALLDATACOPY PUSH0 SWAP3 DUP2 ADD PUSH1 0x20 ADD SWAP3 SWAP1 SWAP3 MSTORE POP SWAP4 SWAP3 POP POP POP JUMP JUMPDEST PUSH0 PUSH1 0x20 DUP3 DUP5 SUB SLT ISZERO PUSH2 0x2DAA JUMPI PUSH0 PUSH0 REVERT JUMPDEST DUP2 CALLDATALOAD PUSH1 0x1 PUSH1 0x1 PUSH1 0x40 SHL SUB DUP2 GT ISZERO PUSH2 0x2DBF JUMPI PUSH0 PUSH0 REVERT JUMPDEST PUSH2 0x24C5 DUP5 DUP3 DUP6 ADD PUSH2 0x2D46 JUMP JUMPDEST PUSH0 PUSH0 PUSH1 0x40 DUP4 DUP6 SUB SLT ISZERO PUSH2 0x2DDC JUMPI PUSH0 PUSH0 REVERT JUMPDEST POP POP DUP1 CALLDATALOAD SWAP3 PUSH1 0x20 SWAP1 SWAP2 ADD CALLDATALOAD SWAP2 POP JUMP JUMPDEST PUSH0 DUP2 MLOAD DUP1 DUP5 MSTORE DUP1 PUSH1 0x20 DUP5 ADD PUSH1 0x20 DUP7 ADD MCOPY PUSH0 PUSH1 0x20 DUP3 DUP7 ADD ADD MSTORE PUSH1 0x20 PUSH1 0x1F NOT PUSH1 0x1F DUP4 ADD AND DUP6 ADD ADD SWAP2 POP POP SWAP3 SWAP2 POP POP JUMP JUMPDEST PUSH1 0x20 DUP2 MSTORE PUSH0 PUSH2 0x8EC PUSH1 0x20 DUP4 ADD DUP5 PUSH2 0x2DEB JUMP JUMPDEST PUSH0 PUSH1 0x1 PUSH1 0x1 PUSH1 0x40 SHL SUB DUP3 GT ISZERO PUSH2 0x2E43 JUMPI PUSH2 0x2E43 PUSH2 0x2CDC JUMP JUMPDEST POP PUSH1 0x5 SHL PUSH1 0x20 ADD SWAP1 JUMP JUMPDEST PUSH0 DUP3 PUSH1 0x1F DUP4 ADD SLT PUSH2 0x2E5C JUMPI PUSH0 PUSH0 REVERT JUMPDEST DUP2 CALLDATALOAD PUSH2 0x2E6A PUSH2 0x2D68 DUP3 PUSH2 0x2E2B JUMP JUMPDEST DUP1 DUP3 DUP3 MSTORE PUSH1 0x20 DUP3 ADD SWAP2 POP PUSH1 0x20 DUP4 PUSH1 0x5 SHL DUP7 ADD ADD SWAP3 POP DUP6 DUP4 GT ISZERO PUSH2 0x2E8B JUMPI PUSH0 PUSH0 REVERT JUMPDEST PUSH1 0x20 DUP6 ADD JUMPDEST DUP4 DUP2 LT ISZERO PUSH2 0x2EA8 JUMPI DUP1 CALLDATALOAD DUP4 MSTORE PUSH1 0x20 SWAP3 DUP4 ADD SWAP3 ADD PUSH2 0x2E90 JUMP JUMPDEST POP SWAP6 SWAP5 POP POP POP POP POP JUMP JUMPDEST PUSH0 PUSH0 PUSH1 0x40 DUP4 DUP6 SUB SLT ISZERO PUSH2 0x2EC3 JUMPI PUSH0 PUSH0 REVERT JUMPDEST DUP3 CALLDATALOAD PUSH1 0x1 PUSH1 0x1 PUSH1 0x40 SHL SUB DUP2 GT ISZERO PUSH2 0x2ED8 JUMPI PUSH0 PUSH0 REVERT JUMPDEST PUSH2 0x2EE4 DUP6 DUP3 DUP7 ADD PUSH2 0x2E4D JUMP JUMPDEST SWAP3 POP POP PUSH1 0x20 DUP4 ADD CALLDATALOAD PUSH1 0x1 PUSH1 0x1 PUSH1 0x40 SHL SUB DUP2 GT ISZERO PUSH2 0x2EFF JUMPI PUSH0 PUSH0 REVERT JUMPDEST PUSH2 0x2F0B DUP6 DUP3 DUP7 ADD PUSH2 0x2E4D JUMP JUMPDEST SWAP2 POP POP SWAP3 POP SWAP3 SWAP1 POP JUMP JUMPDEST PUSH0 PUSH1 0x20 DUP3 ADD PUSH1 0x20 DUP4 MSTORE DUP1 DUP5 MLOAD DUP1 DUP4 MSTORE PUSH1 0x40 DUP6 ADD SWAP2 POP PUSH1 0x40 DUP2 PUSH1 0x5 SHL DUP7 ADD ADD SWAP3 POP PUSH1 0x20 DUP7 ADD PUSH0 JUMPDEST DUP3 DUP2 LT ISZERO PUSH2 0x2F6C JUMPI PUSH1 0x3F NOT DUP8 DUP7 SUB ADD DUP5 MSTORE PUSH2 0x2F57 DUP6 DUP4 MLOAD PUSH2 0x2DEB JUMP JUMPDEST SWAP5 POP PUSH1 0x20 SWAP4 DUP5 ADD SWAP4 SWAP2 SWAP1 SWAP2 ADD SWAP1 PUSH1 0x1 ADD PUSH2 0x2F3B JUMP JUMPDEST POP SWAP3 SWAP7 SWAP6 POP POP POP POP POP POP JUMP JUMPDEST PUSH0 PUSH1 0x20 DUP3 DUP5 SUB SLT ISZERO PUSH2 0x2F88 JUMPI PUSH0 PUSH0 REVERT JUMPDEST POP CALLDATALOAD SWAP2 SWAP1 POP JUMP JUMPDEST PUSH0 PUSH0 PUSH1 0x40 DUP4 DUP6 SUB SLT ISZERO PUSH2 0x2FA0 JUMPI PUSH0 PUSH0 REVERT JUMPDEST PUSH2 0x2FA9 DUP4 PUSH2 0x2CA8 JUMP JUMPDEST SWAP5 PUSH1 0x20 SWAP4 SWAP1 SWAP4 ADD CALLDATALOAD SWAP4 POP POP POP JUMP JUMPDEST PUSH1 0x20 DUP1 DUP3 MSTORE DUP3 MLOAD DUP3 DUP3 ADD DUP2 SWAP1 MSTORE PUSH0 SWAP2 DUP5 ADD SWAP1 PUSH1 0x40 DUP5 ADD SWAP1 DUP4 JUMPDEST DUP2 DUP2 LT ISZERO PUSH2 0x2FF7 JUMPI DUP4 MLOAD PUSH1 0x1 PUSH1 0x1 PUSH1 0xA0 SHL SUB AND DUP4 MSTORE PUSH1 0x20 SWAP4 DUP5 ADD SWAP4 SWAP1 SWAP3 ADD SWAP2 PUSH1 0x1 ADD PUSH2 0x2FD0 JUMP JUMPDEST POP SWAP1 SWAP6 SWAP5 POP POP POP POP POP JUMP JUMPDEST DUP1 CALLDATALOAD DUP1 ISZERO ISZERO DUP2 EQ PUSH2 0x2CBE JUMPI PUSH0 PUSH0 REVERT JUMPDEST PUSH0 PUSH0 PUSH0 PUSH0 PUSH0 PUSH1 0xA0 DUP7 DUP9 SUB SLT ISZERO PUSH2 0x3025 JUMPI PUSH0 PUSH0 REVERT JUMPDEST PUSH2 0x302E DUP7 PUSH2 0x2CA8 JUMP JUMPDEST SWAP5 POP PUSH2 0x303C PUSH1 0x20 DUP8 ADD PUSH2 0x2CA8 JUMP JUMPDEST SWAP4 POP PUSH1 0x40 DUP7 ADD CALLDATALOAD SWAP3 POP PUSH2 0x3051 PUSH1 0x60 DUP8 ADD PUSH2 0x3002 JUMP JUMPDEST SWAP2 POP PUSH1 0x80 DUP7 ADD CALLDATALOAD PUSH1 0x1 PUSH1 0x1 PUSH1 0x40 SHL SUB DUP2 GT ISZERO PUSH2 0x306B JUMPI PUSH0 PUSH0 REVERT JUMPDEST PUSH2 0x3077 DUP9 DUP3 DUP10 ADD PUSH2 0x2D46 JUMP JUMPDEST SWAP2 POP POP SWAP3 SWAP6 POP SWAP3 SWAP6 SWAP1 SWAP4 POP JUMP JUMPDEST DUP1 CALLDATALOAD PUSH1 0xFF DUP2 AND DUP2 EQ PUSH2 0x2CBE JUMPI PUSH0 PUSH0 REVERT JUMPDEST PUSH0 PUSH1 0x60 DUP3 DUP5 SUB SLT ISZERO PUSH2 0x30A4 JUMPI PUSH0 PUSH0 REVERT JUMPDEST PUSH1 0x40 MLOAD PUSH1 0x60 DUP2 ADD PUSH1 0x1 PUSH1 0x1 PUSH1 0x40 SHL SUB DUP2 GT DUP3 DUP3 LT OR ISZERO PUSH2 0x30C6 JUMPI PUSH2 0x30C6 PUSH2 0x2CDC JUMP JUMPDEST PUSH1 0x40 MSTORE SWAP1 POP DUP1 PUSH2 0x30D5 DUP4 PUSH2 0x3084 JUMP JUMPDEST DUP2 MSTORE PUSH2 0x30E3 PUSH1 0x20 DUP5 ADD PUSH2 0x3084 JUMP JUMPDEST PUSH1 0x20 DUP3 ADD MSTORE PUSH1 0x40 DUP4 ADD CALLDATALOAD PUSH2 0xFFFF DUP2 AND DUP2 EQ PUSH2 0x30FC JUMPI PUSH0 PUSH0 REVERT JUMPDEST PUSH1 0x40 SWAP2 SWAP1 SWAP2 ADD MSTORE SWAP3 SWAP2 POP POP JUMP JUMPDEST PUSH0 PUSH0 PUSH0 PUSH0 PUSH0 PUSH2 0x120 DUP7 DUP9 SUB SLT ISZERO PUSH2 0x311E JUMPI PUSH0 PUSH0 REVERT JUMPDEST DUP6 CALLDATALOAD SWAP5 POP PUSH1 0x20 DUP7 ADD CALLDATALOAD PUSH1 0x1 PUSH1 0x1 PUSH1 0x40 SHL SUB DUP2 GT ISZERO PUSH2 0x313A JUMPI PUSH0 PUSH0 REVERT JUMPDEST PUSH2 0x3146 DUP9 DUP3 DUP10 ADD PUSH2 0x2D46 JUMP JUMPDEST SWAP5 POP POP PUSH1 0x40 DUP7 ADD CALLDATALOAD PUSH1 0x1 PUSH1 0x1 PUSH1 0x40 SHL SUB DUP2 GT ISZERO PUSH2 0x3161 JUMPI PUSH0 PUSH0 REVERT JUMPDEST PUSH2 0x316D DUP9 DUP3 DUP10 ADD PUSH2 0x2D46 JUMP JUMPDEST SWAP4 POP POP PUSH2 0x317D DUP8 PUSH1 0x60 DUP9 ADD PUSH2 0x3094 JUMP JUMPDEST SWAP2 POP PUSH2 0x318C DUP8 PUSH1 0xC0 DUP9 ADD PUSH2 0x3094 JUMP JUMPDEST SWAP1 POP SWAP3 SWAP6 POP SWAP3 SWAP6 SWAP1 SWAP4 POP JUMP JUMPDEST PUSH0 PUSH0 PUSH1 0x20 DUP4 DUP6 SUB SLT ISZERO PUSH2 0x31A9 JUMPI PUSH0 PUSH0 REVERT JUMPDEST DUP3 CALLDATALOAD PUSH1 0x1 PUSH1 0x1 PUSH1 0x40 SHL SUB DUP2 GT ISZERO PUSH2 0x31BE JUMPI PUSH0 PUSH0 REVERT JUMPDEST DUP4 ADD PUSH1 0x1F DUP2 ADD DUP6 SGT PUSH2 0x31CE JUMPI PUSH0 PUSH0 REVERT JUMPDEST DUP1 CALLDATALOAD PUSH1 0x1 PUSH1 0x1 PUSH1 0x40 SHL SUB DUP2 GT ISZERO PUSH2 0x31E3 JUMPI PUSH0 PUSH0 REVERT JUMPDEST DUP6 PUSH1 0x20 DUP3 PUSH1 0x5 SHL DUP5 ADD ADD GT ISZERO PUSH2 0x31F7 JUMPI PUSH0 PUSH0 REVERT JUMPDEST PUSH1 0x20 SWAP2 SWAP1 SWAP2 ADD SWAP6 SWAP1 SWAP5 POP SWAP3 POP POP POP JUMP JUMPDEST PUSH0 DUP3 PUSH1 0x1F DUP4 ADD SLT PUSH2 0x3216 JUMPI PUSH0 PUSH0 REVERT JUMPDEST DUP2 CALLDATALOAD PUSH2 0x3224 PUSH2 0x2D68 DUP3 PUSH2 0x2E2B JUMP JUMPDEST DUP1 DUP3 DUP3 MSTORE PUSH1 0x20 DUP3 ADD SWAP2 POP PUSH1 0x20 DUP4 PUSH1 0x5 SHL DUP7 ADD ADD SWAP3 POP DUP6 DUP4 GT ISZERO PUSH2 0x3245 JUMPI PUSH0 PUSH0 REVERT JUMPDEST PUSH1 0x20 DUP6 ADD JUMPDEST DUP4 DUP2 LT ISZERO PUSH2 0x2EA8 JUMPI PUSH2 0x325B DUP2 PUSH2 0x2CA8 JUMP JUMPDEST DUP4 MSTORE PUSH1 0x20 SWAP3 DUP4 ADD SWAP3 ADD PUSH2 0x324A JUMP JUMPDEST PUSH0 DUP3 PUSH1 0x1F DUP4 ADD SLT PUSH2 0x3278 JUMPI PUSH0 PUSH0 REVERT JUMPDEST DUP2 CALLDATALOAD PUSH2 0x3286 PUSH2 0x2D68 DUP3 PUSH2 0x2E2B JUMP JUMPDEST DUP1 DUP3 DUP3 MSTORE PUSH1 0x20 DUP3 ADD SWAP2 POP PUSH1 0x20 DUP4 PUSH1 0x5 SHL DUP7 ADD ADD SWAP3 POP DUP6 DUP4 GT ISZERO PUSH2 0x32A7 JUMPI PUSH0 PUSH0 REVERT JUMPDEST PUSH1 0x20 DUP6 ADD JUMPDEST DUP4 DUP2 LT ISZERO PUSH2 0x2EA8 JUMPI PUSH2 0x32BD DUP2 PUSH2 0x3002 JUMP JUMPDEST DUP4 MSTORE PUSH1 0x20 SWAP3 DUP4 ADD SWAP3 ADD PUSH2 0x32AC JUMP JUMPDEST PUSH0 DUP3 PUSH1 0x1F DUP4 ADD SLT PUSH2 0x32DA JUMPI PUSH0 PUSH0 REVERT JUMPDEST DUP2 CALLDATALOAD PUSH2 0x32E8 PUSH2 0x2D68 DUP3 PUSH2 0x2E2B JUMP JUMPDEST DUP1 DUP3 DUP3 MSTORE PUSH1 0x20 DUP3 ADD SWAP2 POP PUSH1 0x20 DUP4 PUSH1 0x5 SHL DUP7 ADD ADD SWAP3 POP DUP6 DUP4 GT ISZERO PUSH2 0x3309 JUMPI PUSH0 PUSH0 REVERT JUMPDEST PUSH1 0x20 DUP6 ADD JUMPDEST DUP4 DUP2 LT ISZERO PUSH2 0x2EA8 JUMPI DUP1 CALLDATALOAD PUSH1 0x1 PUSH1 0x1 PUSH1 0x40 SHL SUB DUP2 GT ISZERO PUSH2 0x332B JUMPI PUSH0 PUSH0 REVERT JUMPDEST PUSH2 0x333A DUP9 PUSH1 0x20 DUP4 DUP11 ADD ADD PUSH2 0x2D46 JUMP JUMPDEST DUP5 MSTORE POP PUSH1 0x20 SWAP3 DUP4 ADD SWAP3 ADD PUSH2 0x330E JUMP JUMPDEST PUSH0 PUSH0 PUSH0 PUSH0 PUSH0 PUSH1 0xA0 DUP7 DUP9 SUB SLT ISZERO PUSH2 0x335D JUMPI PUSH0 PUSH0 REVERT JUMPDEST DUP6 CALLDATALOAD PUSH1 0x1 PUSH1 0x1 PUSH1 0x40 SHL SUB DUP2 GT ISZERO PUSH2 0x3372 JUMPI PUSH0 PUSH0 REVERT JUMPDEST PUSH2 0x337E DUP9 DUP3 DUP10 ADD PUSH2 0x3207 JUMP JUMPDEST SWAP6 POP POP PUSH1 0x20 DUP7 ADD CALLDATALOAD PUSH1 0x1 PUSH1 0x1 PUSH1 0x40 SHL SUB DUP2 GT ISZERO PUSH2 0x3399 JUMPI PUSH0 PUSH0 REVERT JUMPDEST PUSH2 0x33A5 DUP9 DUP3 DUP10 ADD PUSH2 0x3207 JUMP JUMPDEST SWAP5 POP POP PUSH1 0x40 DUP7 ADD CALLDATALOAD PUSH1 0x1 PUSH1 0x1 PUSH1 0x40 SHL SUB DUP2 GT ISZERO PUSH2 0x33C0 JUMPI PUSH0 PUSH0 REVERT JUMPDEST PUSH2 0x33CC DUP9 DUP3 DUP10 ADD PUSH2 0x2E4D JUMP JUMPDEST SWAP4 POP POP PUSH1 0x60 DUP7 ADD CALLDATALOAD PUSH1 0x1 PUSH1 0x1 PUSH1 0x40 SHL SUB DUP2 GT ISZERO PUSH2 0x33E7 JUMPI PUSH0 PUSH0 REVERT JUMPDEST PUSH2 0x33F3 DUP9 DUP3 DUP10 ADD PUSH2 0x3269 JUMP JUMPDEST SWAP3 POP POP PUSH1 0x80 DUP7 ADD CALLDATALOAD PUSH1 0x1 PUSH1 0x1 PUSH1 0x40 SHL SUB DUP2 GT ISZERO PUSH2 0x340E JUMPI PUSH0 PUSH0 REVERT JUMPDEST PUSH2 0x3077 DUP9 DUP3 DUP10 ADD PUSH2 0x32CB JUMP JUMPDEST PUSH0 PUSH0 PUSH1 0x40 DUP4 DUP6 SUB SLT ISZERO PUSH2 0x342B JUMPI PUSH0 PUSH0 REVERT JUMPDEST DUP3 CALLDATALOAD SWAP2 POP PUSH1 0x20 DUP4 ADD CALLDATALOAD PUSH1 0x1 PUSH1 0x1 PUSH1 0x40 SHL SUB DUP2 GT ISZERO PUSH2 0x3447 JUMPI PUSH0 PUSH0 REVERT JUMPDEST PUSH2 0x2F0B DUP6 DUP3 DUP7 ADD PUSH2 0x2D46 JUMP JUMPDEST PUSH0 PUSH0 PUSH0 PUSH1 0x60 DUP5 DUP7 SUB SLT ISZERO PUSH2 0x3465 JUMPI PUSH0 PUSH0 REVERT JUMPDEST PUSH2 0x346E DUP5 PUSH2 0x2CA8 JUMP JUMPDEST SWAP3 POP PUSH1 0x20 DUP5 ADD CALLDATALOAD SWAP2 POP PUSH1 0x40 DUP5 ADD CALLDATALOAD PUSH1 0x1 PUSH1 0x1 PUSH1 0x40 SHL SUB DUP2 GT ISZERO PUSH2 0x348F JUMPI PUSH0 PUSH0 REVERT JUMPDEST PUSH2 0x349B DUP7 DUP3 DUP8 ADD PUSH2 0x2D46 JUMP JUMPDEST SWAP2 POP POP SWAP3 POP SWAP3 POP SWAP3 JUMP JUMPDEST PUSH0 DUP2 MLOAD DUP1 DUP5 MSTORE PUSH1 0x20 DUP5 ADD SWAP4 POP PUSH1 0x20 DUP4 ADD PUSH0 JUMPDEST DUP3 DUP2 LT ISZERO PUSH2 0x34D5 JUMPI DUP2 MLOAD DUP7 MSTORE PUSH1 0x20 SWAP6 DUP7 ADD SWAP6 SWAP1 SWAP2 ADD SWAP1 PUSH1 0x1 ADD PUSH2 0x34B7 JUMP JUMPDEST POP SWAP4 SWAP5 SWAP4 POP POP POP POP JUMP JUMPDEST PUSH4 0x4E487B71 PUSH1 0xE0 SHL PUSH0 MSTORE PUSH1 0x21 PUSH1 0x4 MSTORE PUSH1 0x24 PUSH0 REVERT JUMPDEST PUSH1 0x3 DUP2 LT PUSH2 0x350F JUMPI PUSH4 0x4E487B71 PUSH1 0xE0 SHL PUSH0 MSTORE PUSH1 0x21 PUSH1 0x4 MSTORE PUSH1 0x24 PUSH0 REVERT JUMPDEST SWAP1 MSTORE JUMP JUMPDEST PUSH1 0x20 DUP2 MSTORE PUSH0 DUP3 MLOAD PUSH2 0x180 PUSH1 0x20 DUP5 ADD MSTORE PUSH2 0x3530 PUSH2 0x1A0 DUP5 ADD DUP3 PUSH2 0x2DEB JUMP JUMPDEST SWAP1 POP PUSH1 0x20 DUP5 ADD MLOAD PUSH1 0x40 DUP5 ADD MSTORE PUSH1 0x40 DUP5 ADD MLOAD PUSH1 0x1F NOT DUP5 DUP4 SUB ADD PUSH1 0x60 DUP6 ADD MSTORE PUSH2 0x3557 DUP3 DUP3 PUSH2 0x34A5 JUMP JUMPDEST SWAP2 POP POP PUSH1 0x60 DUP5 ADD MLOAD PUSH1 0x1F NOT DUP5 DUP4 SUB ADD PUSH1 0x80 DUP6 ADD MSTORE PUSH2 0x3575 DUP3 DUP3 PUSH2 0x34A5 JUMP JUMPDEST SWAP2 POP POP PUSH1 0x80 DUP5 ADD MLOAD PUSH2 0x358A PUSH1 0xA0 DUP6 ADD DUP3 PUSH2 0x34F3 JUMP JUMPDEST POP PUSH1 0xA0 DUP5 ADD MLOAD DUP1 MLOAD PUSH1 0xFF SWAP1 DUP2 AND PUSH1 0xC0 DUP7 ADD MSTORE PUSH1 0x20 DUP3 ADD MLOAD AND PUSH1 0xE0 DUP6 ADD MSTORE PUSH1 0x40 DUP2 ADD MLOAD PUSH2 0xFFFF AND PUSH2 0x100 DUP6 ADD MSTORE POP PUSH1 0xC0 DUP5 ADD MLOAD DUP1 MLOAD PUSH1 0xFF SWAP1 DUP2 AND PUSH2 0x120 DUP7 ADD MSTORE PUSH1 0x20 DUP3 ADD MLOAD AND PUSH2 0x140 DUP6 ADD MSTORE PUSH1 0x40 DUP2 ADD MLOAD PUSH2 0xFFFF AND PUSH2 0x160 DUP6 ADD MSTORE POP PUSH1 0xE0 DUP5 ADD MLOAD DUP4 DUP3 SUB PUSH1 0x1F NOT ADD PUSH2 0x180 DUP6 ADD MSTORE PUSH2 0x3601 DUP3 DUP3 PUSH2 0x2DEB JUMP JUMPDEST SWAP6 SWAP5 POP POP POP POP POP JUMP JUMPDEST PUSH0 PUSH0 PUSH1 0x40 DUP4 DUP6 SUB SLT ISZERO PUSH2 0x361B JUMPI PUSH0 PUSH0 REVERT JUMPDEST DUP3 CALLDATALOAD PUSH1 0x1 PUSH1 0x1 PUSH1 0x40 SHL SUB DUP2 GT ISZERO PUSH2 0x3630 JUMPI PUSH0 PUSH0 REVERT JUMPDEST PUSH2 0x363C DUP6 DUP3 DUP7 ADD PUSH2 0x2E4D JUMP JUMPDEST SWAP3 POP POP PUSH1 0x20 DUP4 ADD CALLDATALOAD PUSH1 0x1 PUSH1 0x1 PUSH1 0x40 SHL SUB DUP2 GT ISZERO PUSH2 0x3657 JUMPI PUSH0 PUSH0 REVERT JUMPDEST PUSH2 0x2F0B DUP6 DUP3 DUP7 ADD PUSH2 0x32CB JUMP JUMPDEST PUSH1 0x20 DUP2 MSTORE PUSH0 PUSH2 0x8EC PUSH1 0x20 DUP4 ADD DUP5 PUSH2 0x34A5 JUMP JUMPDEST PUSH0 PUSH0 PUSH0 PUSH1 0x60 DUP5 DUP7 SUB SLT ISZERO PUSH2 0x3687 JUMPI PUSH0 PUSH0 REVERT JUMPDEST DUP4 CALLDATALOAD PUSH1 0x1 PUSH1 0x1 PUSH1 0x40 SHL SUB DUP2 GT ISZERO PUSH2 0x369C JUMPI PUSH0 PUSH0 REVERT JUMPDEST PUSH2 0x36A8 DUP7 DUP3 DUP8 ADD PUSH2 0x2E4D JUMP JUMPDEST SWAP4 POP POP PUSH1 0x20 DUP5 ADD CALLDATALOAD PUSH1 0x1 PUSH1 0x1 PUSH1 0x40 SHL SUB DUP2 GT ISZERO PUSH2 0x36C3 JUMPI PUSH0 PUSH0 REVERT JUMPDEST PUSH2 0x36CF DUP7 DUP3 DUP8 ADD PUSH2 0x2E4D JUMP JUMPDEST SWAP3 POP POP PUSH1 0x40 DUP5 ADD CALLDATALOAD PUSH1 0x1 PUSH1 0x1 PUSH1 0x40 SHL SUB DUP2 GT ISZERO PUSH2 0x36EA JUMPI PUSH0 PUSH0 REVERT JUMPDEST PUSH2 0x349B DUP7 DUP3 DUP8 ADD PUSH2 0x32CB JUMP JUMPDEST PUSH0 PUSH0 PUSH0 PUSH1 0x60 DUP5 DUP7 SUB SLT ISZERO PUSH2 0x3708 JUMPI PUSH0 PUSH0 REVERT JUMPDEST DUP4 CALLDATALOAD SWAP3 POP PUSH1 0x20 DUP5 ADD CALLDATALOAD SWAP2 POP PUSH1 0x40 DUP5 ADD CALLDATALOAD PUSH1 0x1 PUSH1 0x1 PUSH1 0x40 SHL SUB DUP2 GT ISZERO PUSH2 0x348F JUMPI PUSH0 PUSH0 REVERT JUMPDEST PUSH0 PUSH0 PUSH0 PUSH0 PUSH1 0x80 DUP6 DUP8 SUB SLT ISZERO PUSH2 0x373E JUMPI PUSH0 PUSH0 REVERT JUMPDEST PUSH2 0x3747 DUP6 PUSH2 0x2CA8 JUMP JUMPDEST SWAP4 POP PUSH1 0x20 DUP6 ADD CALLDATALOAD SWAP3 POP PUSH2 0x375C PUSH1 0x40 DUP7 ADD PUSH2 0x3002 JUMP JUMPDEST SWAP2 POP PUSH1 0x60 DUP6 ADD CALLDATALOAD PUSH1 0x1 PUSH1 0x1 PUSH1 0x40 SHL SUB DUP2 GT ISZERO PUSH2 0x3776 JUMPI PUSH0 PUSH0 REVERT JUMPDEST PUSH2 0x3782 DUP8 DUP3 DUP9 ADD PUSH2 0x2D46 JUMP JUMPDEST SWAP2 POP POP SWAP3 SWAP6 SWAP2 SWAP5 POP SWAP3 POP JUMP JUMPDEST PUSH0 PUSH1 0x20 DUP3 DUP5 SUB SLT ISZERO PUSH2 0x379E JUMPI PUSH0 PUSH0 REVERT JUMPDEST DUP2 CALLDATALOAD PUSH1 0x1 PUSH1 0x1 PUSH1 0x40 SHL SUB DUP2 GT ISZERO PUSH2 0x37B3 JUMPI PUSH0 PUSH0 REVERT JUMPDEST PUSH2 0x24C5 DUP5 DUP3 DUP6 ADD PUSH2 0x2E4D JUMP JUMPDEST PUSH0 PUSH0 PUSH0 PUSH0 PUSH0 PUSH0 PUSH2 0x140 DUP8 DUP10 SUB SLT ISZERO PUSH2 0x37D5 JUMPI PUSH0 PUSH0 REVERT JUMPDEST DUP7 CALLDATALOAD SWAP6 POP PUSH1 0x20 DUP8 ADD CALLDATALOAD PUSH1 0x1 PUSH1 0x1 PUSH1 0x40 SHL SUB DUP2 GT ISZERO PUSH2 0x37F1 JUMPI PUSH0 PUSH0 REVERT JUMPDEST PUSH2 0x37FD DUP10 DUP3 DUP11 ADD PUSH2 0x2D46 JUMP JUMPDEST SWAP6 POP POP PUSH1 0x40 DUP8 ADD CALLDATALOAD PUSH1 0x1 PUSH1 0x1 PUSH1 0x40 SHL SUB DUP2 GT ISZERO PUSH2 0x3818 JUMPI PUSH0 PUSH0 REVERT JUMPDEST PUSH2 0x3824 DUP10 DUP3 DUP11 ADD PUSH2 0x2D46 JUMP JUMPDEST SWAP5 POP POP PUSH1 0x60 DUP8 ADD CALLDATALOAD PUSH1 0x3 DUP2 LT PUSH2 0x3838 JUMPI PUSH0 PUSH0 REVERT JUMPDEST SWAP3 POP PUSH2 0x3847 DUP9 PUSH1 0x80 DUP10 ADD PUSH2 0x3094 JUMP JUMPDEST SWAP2 POP PUSH2 0x3856 DUP9 PUSH1 0xE0 DUP10 ADD PUSH2 0x3094 JUMP JUMPDEST SWAP1 POP SWAP3 SWAP6 POP SWAP3 SWAP6 POP SWAP3 SWAP6 JUMP JUMPDEST DUP4 DUP6 DUP3 CALLDATACOPY PUSH1 0x60 SWAP3 SWAP1 SWAP3 SHL PUSH1 0x1 PUSH1 0x1 PUSH1 0x60 SHL SUB NOT AND SWAP2 SWAP1 SWAP3 ADD SWAP1 DUP2 MSTORE PUSH1 0x14 DUP2 ADD SWAP2 SWAP1 SWAP2 MSTORE PUSH1 0x34 ADD SWAP2 SWAP1 POP JUMP JUMPDEST PUSH0 DUP3 MLOAD DUP1 PUSH1 0x20 DUP6 ADD DUP5 MCOPY PUSH0 SWAP3 ADD SWAP2 DUP3 MSTORE POP SWAP2 SWAP1 POP JUMP JUMPDEST PUSH1 0x1 DUP2 DUP2 SHR SWAP1 DUP3 AND DUP1 PUSH2 0x38B7 JUMPI PUSH1 0x7F DUP3 AND SWAP2 POP JUMPDEST PUSH1 0x20 DUP3 LT DUP2 SUB PUSH2 0x17D2 JUMPI PUSH4 0x4E487B71 PUSH1 0xE0 SHL PUSH0 MSTORE PUSH1 0x22 PUSH1 0x4 MSTORE PUSH1 0x24 PUSH0 REVERT JUMPDEST PUSH1 0x1F DUP3 GT ISZERO PUSH2 0x19C2 JUMPI DUP1 PUSH0 MSTORE PUSH1 0x20 PUSH0 KECCAK256 PUSH1 0x1F DUP5 ADD PUSH1 0x5 SHR DUP2 ADD PUSH1 0x20 DUP6 LT ISZERO PUSH2 0x38FA JUMPI POP DUP1 JUMPDEST PUSH1 0x1F DUP5 ADD PUSH1 0x5 SHR DUP3 ADD SWAP2 POP JUMPDEST DUP2 DUP2 LT ISZERO PUSH2 0xA7A JUMPI PUSH0 DUP2 SSTORE PUSH1 0x1 ADD PUSH2 0x3906 JUMP JUMPDEST DUP2 MLOAD PUSH1 0x1 PUSH1 0x1 PUSH1 0x40 SHL SUB DUP2 GT ISZERO PUSH2 0x3932 JUMPI PUSH2 0x3932 PUSH2 0x2CDC JUMP JUMPDEST PUSH2 0x3946 DUP2 PUSH2 0x3940 DUP5 SLOAD PUSH2 0x38A3 JUMP JUMPDEST DUP5 PUSH2 0x38D5 JUMP JUMPDEST PUSH1 0x20 PUSH1 0x1F DUP3 GT PUSH1 0x1 DUP2 EQ PUSH2 0x3978 JUMPI PUSH0 DUP4 ISZERO PUSH2 0x3961 JUMPI POP DUP5 DUP3 ADD MLOAD JUMPDEST PUSH0 NOT PUSH1 0x3 DUP6 SWAP1 SHL SHR NOT AND PUSH1 0x1 DUP5 SWAP1 SHL OR DUP5 SSTORE PUSH2 0xA7A JUMP JUMPDEST PUSH0 DUP5 DUP2 MSTORE PUSH1 0x20 DUP2 KECCAK256 PUSH1 0x1F NOT DUP6 AND SWAP2 JUMPDEST DUP3 DUP2 LT ISZERO PUSH2 0x39A7 JUMPI DUP8 DUP6 ADD MLOAD DUP3 SSTORE PUSH1 0x20 SWAP5 DUP6 ADD SWAP5 PUSH1 0x1 SWAP1 SWAP3 ADD SWAP2 ADD PUSH2 0x3987 JUMP JUMPDEST POP DUP5 DUP3 LT ISZERO PUSH2 0x39C4 JUMPI DUP7 DUP5 ADD MLOAD PUSH0 NOT PUSH1 0x3 DUP8 SWAP1 SHL PUSH1 0xF8 AND SHR NOT AND DUP2 SSTORE JUMPDEST POP POP POP POP PUSH1 0x1 SWAP1 DUP2 SHL ADD SWAP1 SSTORE POP JUMP JUMPDEST PUSH4 0x4E487B71 PUSH1 0xE0 SHL PUSH0 MSTORE PUSH1 0x32 PUSH1 0x4 MSTORE PUSH1 0x24 PUSH0 REVERT JUMPDEST PUSH1 0x20 DUP1 DUP3 MSTORE PUSH1 0xE SWAP1 DUP3 ADD MSTORE PUSH14 0x139BDD08185D5D1A1BDC9A5E9959 PUSH1 0x92 SHL PUSH1 0x40 DUP3 ADD MSTORE PUSH1 0x60 ADD SWAP1 JUMP JUMPDEST PUSH0 PUSH0 DUP4 CALLDATALOAD PUSH1 0x1E NOT DUP5 CALLDATASIZE SUB ADD DUP2 SLT PUSH2 0x3A24 JUMPI PUSH0 PUSH0 REVERT JUMPDEST DUP4 ADD DUP1 CALLDATALOAD SWAP2 POP PUSH1 0x1 PUSH1 0x1 PUSH1 0x40 SHL SUB DUP3 GT ISZERO PUSH2 0x3A3D JUMPI PUSH0 PUSH0 REVERT JUMPDEST PUSH1 0x20 ADD SWAP2 POP CALLDATASIZE DUP2 SWAP1 SUB DUP3 SGT ISZERO PUSH2 0x3A51 JUMPI PUSH0 PUSH0 REVERT JUMPDEST SWAP3 POP SWAP3 SWAP1 POP JUMP JUMPDEST DUP2 DUP4 DUP3 CALLDATACOPY PUSH0 SWAP2 ADD SWAP1 DUP2 MSTORE SWAP2 SWAP1 POP JUMP JUMPDEST PUSH4 0x4E487B71 PUSH1 0xE0 SHL PUSH0 MSTORE PUSH1 0x11 PUSH1 0x4 MSTORE PUSH1 0x24 PUSH0 REVERT JUMPDEST DUP2 DUP2 SUB DUP2 DUP2 GT ISZERO PUSH2 0x7D1 JUMPI PUSH2 0x7D1 PUSH2 0x3A67 JUMP JUMPDEST PUSH4 0x4E487B71 PUSH1 0xE0 SHL PUSH0 MSTORE PUSH1 0x31 PUSH1 0x4 MSTORE PUSH1 0x24 PUSH0 REVERT JUMPDEST PUSH1 0x1 DUP1 PUSH1 0xA0 SHL SUB DUP6 AND DUP2 MSTORE DUP4 PUSH1 0x20 DUP3 ADD MSTORE DUP3 ISZERO ISZERO PUSH1 0x40 DUP3 ADD MSTORE PUSH1 0x80 PUSH1 0x60 DUP3 ADD MSTORE PUSH0 PUSH2 0x3AD0 PUSH1 0x80 DUP4 ADD DUP5 PUSH2 0x2DEB JUMP JUMPDEST SWAP7 SWAP6 POP POP POP POP POP POP JUMP JUMPDEST DUP1 MLOAD PUSH1 0x20 DUP3 ADD MLOAD PUSH1 0x1 PUSH1 0x1 PUSH1 0x60 SHL SUB NOT DUP2 AND SWAP2 SWAP1 PUSH1 0x14 DUP3 LT ISZERO PUSH2 0x3B21 JUMPI PUSH12 0xFFFFFFFFFFFFFFFFFFFFFFFF NOT PUSH12 0xFFFFFFFFFFFFFFFFFFFFFFFF NOT DUP4 PUSH1 0x14 SUB PUSH1 0x3 SHL SHL DUP3 AND AND SWAP3 POP JUMPDEST POP POP SWAP2 SWAP1 POP JUMP JUMPDEST PUSH1 0x1 PUSH1 0x1 PUSH1 0xA0 SHL SUB DUP5 AND DUP2 MSTORE DUP3 ISZERO ISZERO PUSH1 0x20 DUP3 ADD MSTORE PUSH1 0x60 PUSH1 0x40 DUP3 ADD DUP2 SWAP1 MSTORE PUSH0 SWAP1 PUSH2 0x3601 SWAP1 DUP4 ADD DUP5 PUSH2 0x2DEB JUMP JUMPDEST PUSH1 0x1 PUSH1 0x1 PUSH1 0xA0 SHL SUB DUP7 DUP2 AND DUP3 MSTORE DUP6 DUP2 AND PUSH1 0x20 DUP4 ADD MSTORE DUP5 AND PUSH1 0x40 DUP3 ADD MSTORE PUSH1 0x60 DUP2 ADD DUP4 SWAP1 MSTORE PUSH1 0xA0 PUSH1 0x80 DUP3 ADD DUP2 SWAP1 MSTORE PUSH0 SWAP1 PUSH2 0x257C SWAP1 DUP4 ADD DUP5 PUSH2 0x2DEB JUMP JUMPDEST DUP3 ISZERO ISZERO DUP2 MSTORE PUSH1 0x40 PUSH1 0x20 DUP3 ADD MSTORE PUSH0 PUSH2 0x24C5 PUSH1 0x40 DUP4 ADD DUP5 PUSH2 0x2DEB JUMP JUMPDEST DUP1 MLOAD PUSH1 0x20 DUP1 DUP4 ADD MLOAD SWAP2 SWAP1 DUP2 LT ISZERO PUSH2 0x17D2 JUMPI PUSH0 NOT PUSH1 0x20 SWAP2 SWAP1 SWAP2 SUB PUSH1 0x3 SHL SHL AND SWAP2 SWAP1 POP JUMP JUMPDEST DUP3 DUP2 MSTORE PUSH1 0x40 PUSH1 0x20 DUP3 ADD MSTORE PUSH0 PUSH2 0x24C5 PUSH1 0x40 DUP4 ADD DUP5 PUSH2 0x2DEB JUMP JUMPDEST PUSH0 PUSH1 0x20 DUP3 DUP5 SUB SLT ISZERO PUSH2 0x3BF2 JUMPI PUSH0 PUSH0 REVERT JUMPDEST DUP2 MLOAD PUSH1 0x1 PUSH1 0x1 PUSH1 0x40 SHL SUB DUP2 GT ISZERO PUSH2 0x3C07 JUMPI PUSH0 PUSH0 REVERT JUMPDEST DUP3 ADD PUSH1 0x1F DUP2 ADD DUP5 SGT PUSH2 0x3C17 JUMPI PUSH0 PUSH0 REVERT JUMPDEST DUP1 MLOAD PUSH2 0x3C25 PUSH2 0x2D68 DUP3 PUSH2 0x2D20 JUMP JUMPDEST DUP2 DUP2 MSTORE DUP6 PUSH1 0x20 DUP4 DUP6 ADD ADD GT ISZERO PUSH2 0x3C39 JUMPI PUSH0 PUSH0 REVERT JUMPDEST DUP2 PUSH1 0x20 DUP5 ADD PUSH1 0x20 DUP4 ADD MCOPY PUSH0 SWAP2 DUP2 ADD PUSH1 0x20 ADD SWAP2 SWAP1 SWAP2 MSTORE SWAP5 SWAP4 POP POP POP POP JUMP JUMPDEST PUSH0 PUSH1 0x1 DUP3 ADD PUSH2 0x3C67 JUMPI PUSH2 0x3C67 PUSH2 0x3A67 JUMP JUMPDEST POP PUSH1 0x1 ADD SWAP1 JUMP INVALID LOG2 PUSH5 0x6970667358 0x22 SLT KECCAK256 PUSH1 0xE6 DUP12 SWAP5 0xF NUMBER GAS MCOPY EXTCODESIZE EOFCREATE 0xBD CALLDATASIZE 0x2F PUSH9 0xF92D992F33F166794B 0x26 SWAP14 PUSH11 0xAB2038DE96C264736F6C63 NUMBER STOP ADDMOD 0x1F STOP CALLER "
		},
		"gasEstimates": {
			"creation": {
				"codeDepositCost": "3104800",
				"executionCost": "infinite",
				"totalCost": "infinite"
			},
			"external": {
				"": "infinite",
				"addChild(bytes32,string,string,uint8,(uint8,uint8,uint16),(uint8,uint8,uint16))": "infinite",
				"addSpouse(bytes32,string,string,(uint8,uint8,uint16),(uint8,uint8,uint16))": "infinite",
				"authorizeOperator(address,bytes32,bytes)": "infinite",
				"balanceOf(address)": "infinite",
				"batchCalls(bytes[])": "infinite",
				"clanShortDesc()": "infinite",
				"genealogyAddress()": "2426",
				"getData(bytes32)": "infinite",
				"getDataBatch(bytes32[])": "infinite",
				"getDataBatchForTokenIds(bytes32[],bytes32[])": "infinite",
				"getDataForTokenId(bytes32,bytes32)": "infinite",
				"getOperatorsOf(bytes32)": "infinite",
				"getPersonInfo(bytes32)": "infinite",
				"isOperatorFor(address,bytes32)": "infinite",
				"owner()": "2374",
				"personCount()": "2430",
				"removeChild(bytes32)": "infinite",
				"removeSpouse(bytes32,bytes32)": "infinite",
				"renounceOwnership()": "infinite",
				"revokeOperator(address,bytes32,bool,bytes)": "infinite",
				"setClanShortDesc(string)": "infinite",
				"setData(bytes32,bytes)": "infinite",
				"setDataBatch(bytes32[],bytes[])": "infinite",
				"setDataBatchForTokenIds(bytes32[],bytes32[],bytes[])": "infinite",
				"setDataForTokenId(bytes32,bytes32,bytes)": "infinite",
				"supportsInterface(bytes4)": "infinite",
				"tokenIdsOf(address)": "infinite",
				"tokenOwnerOf(bytes32)": "2622",
				"totalSupply()": "2326",
				"transfer(address,address,bytes32,bool,bytes)": "infinite",
				"transferBatch(address[],address[],bytes32[],bool[],bytes[])": "infinite",
				"transferGenealogyOwner(address)": "29688",
				"transferOwnership(address)": "28461",
				"updatePersonData(bytes32,string,string,(uint8,uint8,uint16),(uint8,uint8,uint16))": "infinite"
			},
			"internal": {
				"_createNewPerson(string memory,string memory,address,enum FamilyTypes.Sex,struct FamilyTypes.DateInfo memory,struct FamilyTypes.DateInfo memory)": "infinite"
			}
		},
		"methodIdentifiers": {
			"addChild(bytes32,string,string,uint8,(uint8,uint8,uint16),(uint8,uint8,uint16))": "eb445de4",
			"addSpouse(bytes32,string,string,(uint8,uint8,uint16),(uint8,uint8,uint16))": "59814756",
			"authorizeOperator(address,bytes32,bytes)": "86a10ddd",
			"balanceOf(address)": "70a08231",
			"batchCalls(bytes[])": "6963d438",
			"clanShortDesc()": "e4ac8dbd",
			"genealogyAddress()": "1f121708",
			"getData(bytes32)": "54f6127f",
			"getDataBatch(bytes32[])": "dedff9c6",
			"getDataBatchForTokenIds(bytes32[],bytes32[])": "1d26fce6",
			"getDataForTokenId(bytes32,bytes32)": "16e023b3",
			"getOperatorsOf(bytes32)": "49a6078d",
			"getPersonInfo(bytes32)": "92b88f06",
			"isOperatorFor(address,bytes32)": "2a3654a4",
			"owner()": "8da5cb5b",
			"personCount()": "78495bf8",
			"removeChild(bytes32)": "df4857ec",
			"removeSpouse(bytes32,bytes32)": "7e913b05",
			"renounceOwnership()": "715018a6",
			"revokeOperator(address,bytes32,bool,bytes)": "db8c9663",
			"setClanShortDesc(string)": "0cfa4650",
			"setData(bytes32,bytes)": "7f23690c",
			"setDataBatch(bytes32[],bytes[])": "97902421",
			"setDataBatchForTokenIds(bytes32[],bytes32[],bytes[])": "be9f0e6f",
			"setDataForTokenId(bytes32,bytes32,bytes)": "d6c1407c",
			"supportsInterface(bytes4)": "01ffc9a7",
			"tokenIdsOf(address)": "a3b261f2",
			"tokenOwnerOf(bytes32)": "217b2270",
			"totalSupply()": "18160ddd",
			"transfer(address,address,bytes32,bool,bytes)": "511b6952",
			"transferBatch(address[],address[],bytes32[],bool[],bytes[])": "7e87632c",
			"transferGenealogyOwner(address)": "02154b4e",
			"transferOwnership(address)": "f2fde38b",
			"updatePersonData(bytes32,string,string,(uint8,uint8,uint16),(uint8,uint8,uint16))": "a07e80c6"
		}
	},
	"abi": [
		{
			"inputs": [
				{
					"internalType": "string",
					"name": "clanName",
					"type": "string"
				},
				{
					"internalType": "string",
					"name": "clanDesc",
					"type": "string"
				},
				{
					"internalType": "string",
					"name": "ancestorName",
					"type": "string"
				},
				{
					"internalType": "string",
					"name": "ancestorShortDesc",
					"type": "string"
				},
				{
					"components": [
						{
							"internalType": "uint8",
							"name": "day",
							"type": "uint8"
						},
						{
							"internalType": "uint8",
							"name": "month",
							"type": "uint8"
						},
						{
							"internalType": "uint16",
							"name": "year",
							"type": "uint16"
						}
					],
					"internalType": "struct FamilyTypes.DateInfo",
					"name": "birthDate",
					"type": "tuple"
				},
				{
					"components": [
						{
							"internalType": "uint8",
							"name": "day",
							"type": "uint8"
						},
						{
							"internalType": "uint8",
							"name": "month",
							"type": "uint8"
						},
						{
							"internalType": "uint16",
							"name": "year",
							"type": "uint16"
						}
					],
					"internalType": "struct FamilyTypes.DateInfo",
					"name": "deathDate",
					"type": "tuple"
				},
				{
					"internalType": "address",
					"name": "owner",
					"type": "address"
				}
			],
			"stateMutability": "nonpayable",
			"type": "constructor"
		},
		{
			"inputs": [],
			"name": "ERC725Y_DataKeysValuesEmptyArray",
			"type": "error"
		},
		{
			"inputs": [],
			"name": "ERC725Y_DataKeysValuesLengthMismatch",
			"type": "error"
		},
		{
			"inputs": [],
			"name": "ERC725Y_MsgValueDisallowed",
			"type": "error"
		},
		{
			"inputs": [
				{
					"internalType": "bytes",
					"name": "storedData",
					"type": "bytes"
				}
			],
			"name": "InvalidExtensionAddress",
			"type": "error"
		},
		{
			"inputs": [
				{
					"internalType": "bytes",
					"name": "data",
					"type": "bytes"
				}
			],
			"name": "InvalidFunctionSelector",
			"type": "error"
		},
		{
			"inputs": [],
			"name": "LSP4TokenNameNotEditable",
			"type": "error"
		},
		{
			"inputs": [],
			"name": "LSP4TokenSymbolNotEditable",
			"type": "error"
		},
		{
			"inputs": [],
			"name": "LSP4TokenTypeNotEditable",
			"type": "error"
		},
		{
			"inputs": [
				{
					"internalType": "uint256",
					"name": "callIndex",
					"type": "uint256"
				}
			],
			"name": "LSP8BatchCallFailed",
			"type": "error"
		},
		{
			"inputs": [],
			"name": "LSP8CannotSendToAddressZero",
			"type": "error"
		},
		{
			"inputs": [],
			"name": "LSP8CannotUseAddressZeroAsOperator",
			"type": "error"
		},
		{
			"inputs": [],
			"name": "LSP8InvalidTransferBatch",
			"type": "error"
		},
		{
			"inputs": [
				{
					"internalType": "bytes32",
					"name": "tokenId",
					"type": "bytes32"
				}
			],
			"name": "LSP8NonExistentTokenId",
			"type": "error"
		},
		{
			"inputs": [
				{
					"internalType": "address",
					"name": "operator",
					"type": "address"
				},
				{
					"internalType": "bytes32",
					"name": "tokenId",
					"type": "bytes32"
				}
			],
			"name": "LSP8NonExistingOperator",
			"type": "error"
		},
		{
			"inputs": [
				{
					"internalType": "bytes32",
					"name": "tokenId",
					"type": "bytes32"
				},
				{
					"internalType": "address",
					"name": "caller",
					"type": "address"
				}
			],
			"name": "LSP8NotTokenOperator",
			"type": "error"
		},
		{
			"inputs": [
				{
					"internalType": "address",
					"name": "tokenOwner",
					"type": "address"
				},
				{
					"internalType": "bytes32",
					"name": "tokenId",
					"type": "bytes32"
				},
				{
					"internalType": "address",
					"name": "caller",
					"type": "address"
				}
			],
			"name": "LSP8NotTokenOwner",
			"type": "error"
		},
		{
			"inputs": [
				{
					"internalType": "address",
					"name": "tokenReceiver",
					"type": "address"
				}
			],
			"name": "LSP8NotifyTokenReceiverContractMissingLSP1Interface",
			"type": "error"
		},
		{
			"inputs": [
				{
					"internalType": "address",
					"name": "tokenReceiver",
					"type": "address"
				}
			],
			"name": "LSP8NotifyTokenReceiverIsEOA",
			"type": "error"
		},
		{
			"inputs": [
				{
					"internalType": "address",
					"name": "operator",
					"type": "address"
				},
				{
					"internalType": "bytes32",
					"name": "tokenId",
					"type": "bytes32"
				}
			],
			"name": "LSP8OperatorAlreadyAuthorized",
			"type": "error"
		},
		{
			"inputs": [
				{
					"internalType": "address",
					"name": "caller",
					"type": "address"
				},
				{
					"internalType": "address",
					"name": "tokenOwner",
					"type": "address"
				},
				{
					"internalType": "bytes32",
					"name": "tokenId",
					"type": "bytes32"
				}
			],
			"name": "LSP8RevokeOperatorNotAuthorized",
			"type": "error"
		},
		{
			"inputs": [],
			"name": "LSP8TokenContractCannotHoldValue",
			"type": "error"
		},
		{
			"inputs": [
				{
					"internalType": "bytes32",
					"name": "tokenId",
					"type": "bytes32"
				}
			],
			"name": "LSP8TokenIdAlreadyMinted",
			"type": "error"
		},
		{
			"inputs": [],
			"name": "LSP8TokenIdFormatNotEditable",
			"type": "error"
		},
		{
			"inputs": [],
			"name": "LSP8TokenIdsDataEmptyArray",
			"type": "error"
		},
		{
			"inputs": [],
			"name": "LSP8TokenIdsDataLengthMismatch",
			"type": "error"
		},
		{
			"inputs": [],
			"name": "LSP8TokenOwnerCannotBeOperator",
			"type": "error"
		},
		{
			"inputs": [
				{
					"internalType": "bytes32",
					"name": "tokenId",
					"type": "bytes32"
				},
				{
					"internalType": "address",
					"name": "oldOwner",
					"type": "address"
				},
				{
					"internalType": "address",
					"name": "newOwner",
					"type": "address"
				}
			],
			"name": "LSP8TokenOwnerChanged",
			"type": "error"
		},
		{
			"inputs": [
				{
					"internalType": "bytes4",
					"name": "functionSelector",
					"type": "bytes4"
				}
			],
			"name": "NoExtensionFoundForFunctionSelector",
			"type": "error"
		},
		{
			"inputs": [],
			"name": "OwnableCannotSetZeroAddressAsOwner",
			"type": "error"
		},
		{
			"anonymous": false,
			"inputs": [
				{
					"indexed": false,
					"internalType": "address",
					"name": "sender",
					"type": "address"
				},
				{
					"indexed": true,
					"internalType": "bytes32",
					"name": "parentId",
					"type": "bytes32"
				},
				{
					"indexed": true,
					"internalType": "bytes32",
					"name": "newChildId",
					"type": "bytes32"
				}
			],
			"name": "ChildAdded",
			"type": "event"
		},
		{
			"anonymous": false,
			"inputs": [
				{
					"indexed": false,
					"internalType": "address",
					"name": "sender",
					"type": "address"
				},
				{
					"indexed": true,
					"internalType": "bytes32",
					"name": "childId",
					"type": "bytes32"
				}
			],
			"name": "ChildRemoved",
			"type": "event"
		},
		{
			"anonymous": false,
			"inputs": [
				{
					"indexed": true,
					"internalType": "address",
					"name": "owner",
					"type": "address"
				}
			],
			"name": "ClanShortDescChanged",
			"type": "event"
		},
		{
			"anonymous": false,
			"inputs": [
				{
					"indexed": true,
					"internalType": "bytes32",
					"name": "dataKey",
					"type": "bytes32"
				},
				{
					"indexed": false,
					"internalType": "bytes",
					"name": "dataValue",
					"type": "bytes"
				}
			],
			"name": "DataChanged",
			"type": "event"
		},
		{
			"anonymous": false,
			"inputs": [
				{
					"indexed": true,
					"internalType": "address",
					"name": "operator",
					"type": "address"
				},
				{
					"indexed": true,
					"internalType": "address",
					"name": "tokenOwner",
					"type": "address"
				},
				{
					"indexed": true,
					"internalType": "bytes32",
					"name": "tokenId",
					"type": "bytes32"
				},
				{
					"indexed": false,
					"internalType": "bytes",
					"name": "operatorNotificationData",
					"type": "bytes"
				}
			],
			"name": "OperatorAuthorizationChanged",
			"type": "event"
		},
		{
			"anonymous": false,
			"inputs": [
				{
					"indexed": true,
					"internalType": "address",
					"name": "operator",
					"type": "address"
				},
				{
					"indexed": true,
					"internalType": "address",
					"name": "tokenOwner",
					"type": "address"
				},
				{
					"indexed": true,
					"internalType": "bytes32",
					"name": "tokenId",
					"type": "bytes32"
				},
				{
					"indexed": false,
					"internalType": "bool",
					"name": "notified",
					"type": "bool"
				},
				{
					"indexed": false,
					"internalType": "bytes",
					"name": "operatorNotificationData",
					"type": "bytes"
				}
			],
			"name": "OperatorRevoked",
			"type": "event"
		},
		{
			"anonymous": false,
			"inputs": [
				{
					"indexed": true,
					"internalType": "address",
					"name": "previousOwner",
					"type": "address"
				},
				{
					"indexed": true,
					"internalType": "address",
					"name": "newOwner",
					"type": "address"
				}
			],
			"name": "OwnershipTransferred",
			"type": "event"
		},
		{
			"anonymous": false,
			"inputs": [
				{
					"indexed": true,
					"internalType": "bytes32",
					"name": "personId",
					"type": "bytes32"
				},
				{
					"indexed": false,
					"internalType": "address",
					"name": "ownership",
					"type": "address"
				}
			],
			"name": "PersonCreated",
			"type": "event"
		},
		{
			"anonymous": false,
			"inputs": [
				{
					"indexed": false,
					"internalType": "address",
					"name": "sender",
					"type": "address"
				},
				{
					"indexed": true,
					"internalType": "bytes32",
					"name": "personId",
					"type": "bytes32"
				},
				{
					"indexed": true,
					"internalType": "bytes32",
					"name": "newSpouseId",
					"type": "bytes32"
				}
			],
			"name": "SpouseAdded",
			"type": "event"
		},
		{
			"anonymous": false,
			"inputs": [
				{
					"indexed": false,
					"internalType": "address",
					"name": "sender",
					"type": "address"
				},
				{
					"indexed": true,
					"internalType": "bytes32",
					"name": "personId",
					"type": "bytes32"
				},
				{
					"indexed": true,
					"internalType": "bytes32",
					"name": "spouseId",
					"type": "bytes32"
				}
			],
			"name": "SpouseRemoved",
			"type": "event"
		},
		{
			"anonymous": false,
			"inputs": [
				{
					"indexed": true,
					"internalType": "bytes32",
					"name": "tokenId",
					"type": "bytes32"
				},
				{
					"indexed": true,
					"internalType": "bytes32",
					"name": "dataKey",
					"type": "bytes32"
				},
				{
					"indexed": false,
					"internalType": "bytes",
					"name": "dataValue",
					"type": "bytes"
				}
			],
			"name": "TokenIdDataChanged",
			"type": "event"
		},
		{
			"anonymous": false,
			"inputs": [
				{
					"indexed": false,
					"internalType": "address",
					"name": "operator",
					"type": "address"
				},
				{
					"indexed": true,
					"internalType": "address",
					"name": "from",
					"type": "address"
				},
				{
					"indexed": true,
					"internalType": "address",
					"name": "to",
					"type": "address"
				},
				{
					"indexed": true,
					"internalType": "bytes32",
					"name": "tokenId",
					"type": "bytes32"
				},
				{
					"indexed": false,
					"internalType": "bool",
					"name": "force",
					"type": "bool"
				},
				{
					"indexed": false,
					"internalType": "bytes",
					"name": "data",
					"type": "bytes"
				}
			],
			"name": "Transfer",
			"type": "event"
		},
		{
			"anonymous": false,
			"inputs": [
				{
					"indexed": false,
					"internalType": "address",
					"name": "owner",
					"type": "address"
				},
				{
					"indexed": false,
					"internalType": "address",
					"name": "newOwner",
					"type": "address"
				}
			],
			"name": "TransferGenealogyOwner",
			"type": "event"
		},
		{
			"anonymous": false,
			"inputs": [
				{
					"indexed": false,
					"internalType": "address",
					"name": "sender",
					"type": "address"
				},
				{
					"indexed": true,
					"internalType": "bytes32",
					"name": "personId",
					"type": "bytes32"
				}
			],
			"name": "UpdatePersonData",
			"type": "event"
		},
		{
			"stateMutability": "payable",
			"type": "fallback"
		},
		{
			"inputs": [
				{
					"internalType": "bytes32",
					"name": "parentId",
					"type": "bytes32"
				},
				{
					"internalType": "string",
					"name": "childName",
					"type": "string"
				},
				{
					"internalType": "string",
					"name": "shortDesc",
					"type": "string"
				},
				{
					"internalType": "enum FamilyTypes.Sex",
					"name": "sex",
					"type": "uint8"
				},
				{
					"components": [
						{
							"internalType": "uint8",
							"name": "day",
							"type": "uint8"
						},
						{
							"internalType": "uint8",
							"name": "month",
							"type": "uint8"
						},
						{
							"internalType": "uint16",
							"name": "year",
							"type": "uint16"
						}
					],
					"internalType": "struct FamilyTypes.DateInfo",
					"name": "birthDate",
					"type": "tuple"
				},
				{
					"components": [
						{
							"internalType": "uint8",
							"name": "day",
							"type": "uint8"
						},
						{
							"internalType": "uint8",
							"name": "month",
							"type": "uint8"
						},
						{
							"internalType": "uint16",
							"name": "year",
							"type": "uint16"
						}
					],
					"internalType": "struct FamilyTypes.DateInfo",
					"name": "deathDate",
					"type": "tuple"
				}
			],
			"name": "addChild",
			"outputs": [],
			"stateMutability": "nonpayable",
			"type": "function"
		},
		{
			"inputs": [
				{
					"internalType": "bytes32",
					"name": "personId",
					"type": "bytes32"
				},
				{
					"internalType": "string",
					"name": "name",
					"type": "string"
				},
				{
					"internalType": "string",
					"name": "descShort",
					"type": "string"
				},
				{
					"components": [
						{
							"internalType": "uint8",
							"name": "day",
							"type": "uint8"
						},
						{
							"internalType": "uint8",
							"name": "month",
							"type": "uint8"
						},
						{
							"internalType": "uint16",
							"name": "year",
							"type": "uint16"
						}
					],
					"internalType": "struct FamilyTypes.DateInfo",
					"name": "birthDate",
					"type": "tuple"
				},
				{
					"components": [
						{
							"internalType": "uint8",
							"name": "day",
							"type": "uint8"
						},
						{
							"internalType": "uint8",
							"name": "month",
							"type": "uint8"
						},
						{
							"internalType": "uint16",
							"name": "year",
							"type": "uint16"
						}
					],
					"internalType": "struct FamilyTypes.DateInfo",
					"name": "deathDate",
					"type": "tuple"
				}
			],
			"name": "addSpouse",
			"outputs": [],
			"stateMutability": "nonpayable",
			"type": "function"
		},
		{
			"inputs": [
				{
					"internalType": "address",
					"name": "operator",
					"type": "address"
				},
				{
					"internalType": "bytes32",
					"name": "tokenId",
					"type": "bytes32"
				},
				{
					"internalType": "bytes",
					"name": "operatorNotificationData",
					"type": "bytes"
				}
			],
			"name": "authorizeOperator",
			"outputs": [],
			"stateMutability": "nonpayable",
			"type": "function"
		},
		{
			"inputs": [
				{
					"internalType": "address",
					"name": "tokenOwner",
					"type": "address"
				}
			],
			"name": "balanceOf",
			"outputs": [
				{
					"internalType": "uint256",
					"name": "",
					"type": "uint256"
				}
			],
			"stateMutability": "view",
			"type": "function"
		},
		{
			"inputs": [
				{
					"internalType": "bytes[]",
					"name": "data",
					"type": "bytes[]"
				}
			],
			"name": "batchCalls",
			"outputs": [
				{
					"internalType": "bytes[]",
					"name": "results",
					"type": "bytes[]"
				}
			],
			"stateMutability": "nonpayable",
			"type": "function"
		},
		{
			"inputs": [],
			"name": "clanShortDesc",
			"outputs": [
				{
					"internalType": "string",
					"name": "",
					"type": "string"
				}
			],
			"stateMutability": "view",
			"type": "function"
		},
		{
			"inputs": [],
			"name": "genealogyAddress",
			"outputs": [
				{
					"internalType": "address",
					"name": "",
					"type": "address"
				}
			],
			"stateMutability": "view",
			"type": "function"
		},
		{
			"inputs": [
				{
					"internalType": "bytes32",
					"name": "dataKey",
					"type": "bytes32"
				}
			],
			"name": "getData",
			"outputs": [
				{
					"internalType": "bytes",
					"name": "dataValue",
					"type": "bytes"
				}
			],
			"stateMutability": "view",
			"type": "function"
		},
		{
			"inputs": [
				{
					"internalType": "bytes32[]",
					"name": "dataKeys",
					"type": "bytes32[]"
				}
			],
			"name": "getDataBatch",
			"outputs": [
				{
					"internalType": "bytes[]",
					"name": "dataValues",
					"type": "bytes[]"
				}
			],
			"stateMutability": "view",
			"type": "function"
		},
		{
			"inputs": [
				{
					"internalType": "bytes32[]",
					"name": "tokenIds",
					"type": "bytes32[]"
				},
				{
					"internalType": "bytes32[]",
					"name": "dataKeys",
					"type": "bytes32[]"
				}
			],
			"name": "getDataBatchForTokenIds",
			"outputs": [
				{
					"internalType": "bytes[]",
					"name": "dataValues",
					"type": "bytes[]"
				}
			],
			"stateMutability": "view",
			"type": "function"
		},
		{
			"inputs": [
				{
					"internalType": "bytes32",
					"name": "tokenId",
					"type": "bytes32"
				},
				{
					"internalType": "bytes32",
					"name": "dataKey",
					"type": "bytes32"
				}
			],
			"name": "getDataForTokenId",
			"outputs": [
				{
					"internalType": "bytes",
					"name": "dataValue",
					"type": "bytes"
				}
			],
			"stateMutability": "view",
			"type": "function"
		},
		{
			"inputs": [
				{
					"internalType": "bytes32",
					"name": "tokenId",
					"type": "bytes32"
				}
			],
			"name": "getOperatorsOf",
			"outputs": [
				{
					"internalType": "address[]",
					"name": "",
					"type": "address[]"
				}
			],
			"stateMutability": "view",
			"type": "function"
		},
		{
			"inputs": [
				{
					"internalType": "bytes32",
					"name": "personId",
					"type": "bytes32"
				}
			],
			"name": "getPersonInfo",
			"outputs": [
				{
					"components": [
						{
							"internalType": "string",
							"name": "name",
							"type": "string"
						},
						{
							"internalType": "bytes32",
							"name": "parentId",
							"type": "bytes32"
						},
						{
							"internalType": "bytes32[]",
							"name": "children",
							"type": "bytes32[]"
						},
						{
							"internalType": "bytes32[]",
							"name": "spouses",
							"type": "bytes32[]"
						},
						{
							"internalType": "enum FamilyTypes.Sex",
							"name": "sex",
							"type": "uint8"
						},
						{
							"components": [
								{
									"internalType": "uint8",
									"name": "day",
									"type": "uint8"
								},
								{
									"internalType": "uint8",
									"name": "month",
									"type": "uint8"
								},
								{
									"internalType": "uint16",
									"name": "year",
									"type": "uint16"
								}
							],
							"internalType": "struct FamilyTypes.DateInfo",
							"name": "birthDate",
							"type": "tuple"
						},
						{
							"components": [
								{
									"internalType": "uint8",
									"name": "day",
									"type": "uint8"
								},
								{
									"internalType": "uint8",
									"name": "month",
									"type": "uint8"
								},
								{
									"internalType": "uint16",
									"name": "year",
									"type": "uint16"
								}
							],
							"internalType": "struct FamilyTypes.DateInfo",
							"name": "deathDate",
							"type": "tuple"
						},
						{
							"internalType": "string",
							"name": "shortDesc",
							"type": "string"
						}
					],
					"internalType": "struct FamilyTypes.Person",
					"name": "",
					"type": "tuple"
				}
			],
			"stateMutability": "view",
			"type": "function"
		},
		{
			"inputs": [
				{
					"internalType": "address",
					"name": "operator",
					"type": "address"
				},
				{
					"internalType": "bytes32",
					"name": "tokenId",
					"type": "bytes32"
				}
			],
			"name": "isOperatorFor",
			"outputs": [
				{
					"internalType": "bool",
					"name": "",
					"type": "bool"
				}
			],
			"stateMutability": "view",
			"type": "function"
		},
		{
			"inputs": [],
			"name": "owner",
			"outputs": [
				{
					"internalType": "address",
					"name": "",
					"type": "address"
				}
			],
			"stateMutability": "view",
			"type": "function"
		},
		{
			"inputs": [],
			"name": "personCount",
			"outputs": [
				{
					"internalType": "uint256",
					"name": "_value",
					"type": "uint256"
				}
			],
			"stateMutability": "view",
			"type": "function"
		},
		{
			"inputs": [
				{
					"internalType": "bytes32",
					"name": "childId",
					"type": "bytes32"
				}
			],
			"name": "removeChild",
			"outputs": [],
			"stateMutability": "nonpayable",
			"type": "function"
		},
		{
			"inputs": [
				{
					"internalType": "bytes32",
					"name": "personId",
					"type": "bytes32"
				},
				{
					"internalType": "bytes32",
					"name": "spouseId",
					"type": "bytes32"
				}
			],
			"name": "removeSpouse",
			"outputs": [],
			"stateMutability": "nonpayable",
			"type": "function"
		},
		{
			"inputs": [],
			"name": "renounceOwnership",
			"outputs": [],
			"stateMutability": "nonpayable",
			"type": "function"
		},
		{
			"inputs": [
				{
					"internalType": "address",
					"name": "operator",
					"type": "address"
				},
				{
					"internalType": "bytes32",
					"name": "tokenId",
					"type": "bytes32"
				},
				{
					"internalType": "bool",
					"name": "notify",
					"type": "bool"
				},
				{
					"internalType": "bytes",
					"name": "operatorNotificationData",
					"type": "bytes"
				}
			],
			"name": "revokeOperator",
			"outputs": [],
			"stateMutability": "nonpayable",
			"type": "function"
		},
		{
			"inputs": [
				{
					"internalType": "string",
					"name": "newClanShortDesc",
					"type": "string"
				}
			],
			"name": "setClanShortDesc",
			"outputs": [],
			"stateMutability": "nonpayable",
			"type": "function"
		},
		{
			"inputs": [
				{
					"internalType": "bytes32",
					"name": "dataKey",
					"type": "bytes32"
				},
				{
					"internalType": "bytes",
					"name": "dataValue",
					"type": "bytes"
				}
			],
			"name": "setData",
			"outputs": [],
			"stateMutability": "payable",
			"type": "function"
		},
		{
			"inputs": [
				{
					"internalType": "bytes32[]",
					"name": "dataKeys",
					"type": "bytes32[]"
				},
				{
					"internalType": "bytes[]",
					"name": "dataValues",
					"type": "bytes[]"
				}
			],
			"name": "setDataBatch",
			"outputs": [],
			"stateMutability": "payable",
			"type": "function"
		},
		{
			"inputs": [
				{
					"internalType": "bytes32[]",
					"name": "tokenIds",
					"type": "bytes32[]"
				},
				{
					"internalType": "bytes32[]",
					"name": "dataKeys",
					"type": "bytes32[]"
				},
				{
					"internalType": "bytes[]",
					"name": "dataValues",
					"type": "bytes[]"
				}
			],
			"name": "setDataBatchForTokenIds",
			"outputs": [],
			"stateMutability": "nonpayable",
			"type": "function"
		},
		{
			"inputs": [
				{
					"internalType": "bytes32",
					"name": "tokenId",
					"type": "bytes32"
				},
				{
					"internalType": "bytes32",
					"name": "dataKey",
					"type": "bytes32"
				},
				{
					"internalType": "bytes",
					"name": "dataValue",
					"type": "bytes"
				}
			],
			"name": "setDataForTokenId",
			"outputs": [],
			"stateMutability": "nonpayable",
			"type": "function"
		},
		{
			"inputs": [
				{
					"internalType": "bytes4",
					"name": "interfaceId",
					"type": "bytes4"
				}
			],
			"name": "supportsInterface",
			"outputs": [
				{
					"internalType": "bool",
					"name": "",
					"type": "bool"
				}
			],
			"stateMutability": "view",
			"type": "function"
		},
		{
			"inputs": [
				{
					"internalType": "address",
					"name": "tokenOwner",
					"type": "address"
				}
			],
			"name": "tokenIdsOf",
			"outputs": [
				{
					"internalType": "bytes32[]",
					"name": "",
					"type": "bytes32[]"
				}
			],
			"stateMutability": "view",
			"type": "function"
		},
		{
			"inputs": [
				{
					"internalType": "bytes32",
					"name": "tokenId",
					"type": "bytes32"
				}
			],
			"name": "tokenOwnerOf",
			"outputs": [
				{
					"internalType": "address",
					"name": "",
					"type": "address"
				}
			],
			"stateMutability": "view",
			"type": "function"
		},
		{
			"inputs": [],
			"name": "totalSupply",
			"outputs": [
				{
					"internalType": "uint256",
					"name": "",
					"type": "uint256"
				}
			],
			"stateMutability": "view",
			"type": "function"
		},
		{
			"inputs": [
				{
					"internalType": "address",
					"name": "from",
					"type": "address"
				},
				{
					"internalType": "address",
					"name": "to",
					"type": "address"
				},
				{
					"internalType": "bytes32",
					"name": "tokenId",
					"type": "bytes32"
				},
				{
					"internalType": "bool",
					"name": "force",
					"type": "bool"
				},
				{
					"internalType": "bytes",
					"name": "data",
					"type": "bytes"
				}
			],
			"name": "transfer",
			"outputs": [],
			"stateMutability": "nonpayable",
			"type": "function"
		},
		{
			"inputs": [
				{
					"internalType": "address[]",
					"name": "from",
					"type": "address[]"
				},
				{
					"internalType": "address[]",
					"name": "to",
					"type": "address[]"
				},
				{
					"internalType": "bytes32[]",
					"name": "tokenId",
					"type": "bytes32[]"
				},
				{
					"internalType": "bool[]",
					"name": "force",
					"type": "bool[]"
				},
				{
					"internalType": "bytes[]",
					"name": "data",
					"type": "bytes[]"
				}
			],
			"name": "transferBatch",
			"outputs": [],
			"stateMutability": "nonpayable",
			"type": "function"
		},
		{
			"inputs": [
				{
					"internalType": "address",
					"name": "newOwner",
					"type": "address"
				}
			],
			"name": "transferGenealogyOwner",
			"outputs": [],
			"stateMutability": "nonpayable",
			"type": "function"
		},
		{
			"inputs": [
				{
					"internalType": "address",
					"name": "newOwner",
					"type": "address"
				}
			],
			"name": "transferOwnership",
			"outputs": [],
			"stateMutability": "nonpayable",
			"type": "function"
		},
		{
			"inputs": [
				{
					"internalType": "bytes32",
					"name": "personId",
					"type": "bytes32"
				},
				{
					"internalType": "string",
					"name": "newName",
					"type": "string"
				},
				{
					"internalType": "string",
					"name": "newDescShort",
					"type": "string"
				},
				{
					"components": [
						{
							"internalType": "uint8",
							"name": "day",
							"type": "uint8"
						},
						{
							"internalType": "uint8",
							"name": "month",
							"type": "uint8"
						},
						{
							"internalType": "uint16",
							"name": "year",
							"type": "uint16"
						}
					],
					"internalType": "struct FamilyTypes.DateInfo",
					"name": "birthDate",
					"type": "tuple"
				},
				{
					"components": [
						{
							"internalType": "uint8",
							"name": "day",
							"type": "uint8"
						},
						{
							"internalType": "uint8",
							"name": "month",
							"type": "uint8"
						},
						{
							"internalType": "uint16",
							"name": "year",
							"type": "uint16"
						}
					],
					"internalType": "struct FamilyTypes.DateInfo",
					"name": "deathDate",
					"type": "tuple"
				}
			],
			"name": "updatePersonData",
			"outputs": [],
			"stateMutability": "nonpayable",
			"type": "function"
		},
		{
			"stateMutability": "payable",
			"type": "receive"
		}
	]
}