{
	"data": {
		"bytecode": {
			"linkReferences": {},
			"object": "608060405234801561000f575f5ffd5b506040516180b63803806180b683398181016040528101906100319190610f96565b866040518060400160405280600681526020017f46414d494c5900000000000000000000000000000000000000000000000000008152508260025f848484848161008d6100826102e960201b60201c565b6102f060201b60201c565b5f73ffffffffffffffffffffffffffffffffffffffff168173ffffffffffffffffffffffffffffffffffffffff16036100f2576040517f1ad8836c00000000000000000000000000000000000000000000000000000000815260040160405180910390fd5b610101816102f060201b60201c565b506101697feafec4d89fa9619884b60000a4d96624a38f7ac2d8d9a604ecf07c12c77e480c5f1b6040518060400160405280600481526020017fa4d96624000000000000000000000000000000000000000000000000000000008152506103b160201b60201c565b61019b7fdeba1e292f8ba88238e10ab3c7f88bd4be4fac56cad5194b6ecceaf653468af15f1b856103b160201b60201c565b6101cd7f2f0a68ab07768e01943a599e73362a0e17a63a72e94dd2e384d2c1d4db9327565f1b846103b160201b60201c565b61021e7fe0261fa95db2eb3b5439bd033cda66d56b96f92f243a8228fd87550ed7bdfdb35f1b8260405160200161020491906110bd565b6040516020818303038152906040526103b160201b60201c565b505050506102737ff675e9361af1c1664c1868cfa3eb97672d6b1a513aa5b81dec34c9ee330e818d5f1b8260405160200161025991906110bd565b60405160208183030381529060405261040c60201b60201c565b50505050503360085f6101000a81548173ffffffffffffffffffffffffffffffffffffffff021916908373ffffffffffffffffffffffffffffffffffffffff16021790555085600990816102c791906112dd565b506102dc8585835f878761057860201b60201c565b5050505050505050611853565b5f33905090565b5f5f5f9054906101000a900473ffffffffffffffffffffffffffffffffffffffff169050815f5f6101000a81548173ffffffffffffffffffffffffffffffffffffffff021916908373ffffffffffffffffffffffffffffffffffffffff1602179055508173ffffffffffffffffffffffffffffffffffffffff168173ffffffffffffffffffffffffffffffffffffffff167f8be0079c531659141344cd1fd0a4f28419497f9722a3daafe3b4186f6b6457e060405160405180910390a35050565b8060015f8481526020019081526020015f2090816103cf919061140e565b50817fece574603820d07bc9b91f2a932baadf4628aabcb8afba49776529c14a6104b2826040516104009190611525565b60405180910390a25050565b7fdeba1e292f8ba88238e10ab3c7f88bd4be4fac56cad5194b6ecceaf653468af15f1b8203610467576040517f85c169bd00000000000000000000000000000000000000000000000000000000815260040160405180910390fd5b7f2f0a68ab07768e01943a599e73362a0e17a63a72e94dd2e384d2c1d4db9327565f1b82036104c2576040517f76755b3800000000000000000000000000000000000000000000000000000000815260040160405180910390fd5b7fe0261fa95db2eb3b5439bd033cda66d56b96f92f243a8228fd87550ed7bdfdb35f1b820361051d576040517f4ef6d7fb00000000000000000000000000000000000000000000000000000000815260040160405180910390fd5b8060015f8481526020019081526020015f20908161053b919061140e565b50817fece574603820d07bc9b91f2a932baadf4628aabcb8afba49776529c14a6104b28260405161056c9190611525565b60405180910390a25050565b5f610589600661073360201b60201c565b610599600661074760201b60201c565b5f1b90506105be8582600160405180602001604052805f81525061075360201b60201c565b5f60075f8381526020019081526020015f20905087815f0190816105e291906112dd565b5083816006015f820151815f015f6101000a81548161ffff021916908361ffff1602179055506020820151815f0160026101000a81548160ff021916908360ff1602179055506040820151815f0160036101000a81548160ff021916908360ff16021790555090505082816007015f820151815f015f6101000a81548161ffff021916908361ffff1602179055506020820151815f0160026101000a81548160ff021916908360ff1602179055506040820151815f0160036101000a81548160ff021916908360ff16021790555090505084816005015f6101000a81548160ff021916908360028111156106d9576106d8611545565b5b0217905550868160080190816106ef91906112dd565b50817fa6912c28a8cb5fc5cab504e471cfa6bc504444025484d810e2565bc7dead6657876040516107209190611581565b60405180910390a2509695505050505050565b6001815f015f828254019250508190555050565b5f815f01549050919050565b5f73ffffffffffffffffffffffffffffffffffffffff168473ffffffffffffffffffffffffffffffffffffffff16036107b8576040517f24ecef4d00000000000000000000000000000000000000000000000000000000815260040160405180910390fd5b6107c7836109e160201b60201c565b1561080957826040517f34c7b51100000000000000000000000000000000000000000000000000000000815260040161080091906115b2565b60405180910390fd5b61081c5f85858585610a4960201b60201c565b61082b836109e160201b60201c565b1561086d57826040517f34c7b51100000000000000000000000000000000000000000000000000000000815260040161086491906115b2565b60405180910390fd5b60025f815461087b906115f8565b919050819055506108d18360045f8773ffffffffffffffffffffffffffffffffffffffff1673ffffffffffffffffffffffffffffffffffffffff1681526020019081526020015f20610a5060201b90919060201c565b508360035f8581526020019081526020015f205f6101000a81548173ffffffffffffffffffffffffffffffffffffffff021916908373ffffffffffffffffffffffffffffffffffffffff160217905550828473ffffffffffffffffffffffffffffffffffffffff165f73ffffffffffffffffffffffffffffffffffffffff167fb333c813a7426a7a11e2b190cad52c44119421594b47f6f32ace6d8c7207b2bf33868660405161098393929190611659565b60405180910390a461099e5f85858585610a6b60201b60201c565b5f335f8686856040516020016109b8959493929190611695565b60405160208183030381529060405290506109da858483610a7260201b60201c565b5050505050565b5f5f73ffffffffffffffffffffffffffffffffffffffff1660035f8481526020019081526020015f205f9054906101000a900473ffffffffffffffffffffffffffffffffffffffff1673ffffffffffffffffffffffffffffffffffffffff1614159050919050565b5050505050565b5f610a63835f0183610bd760201b60201c565b905092915050565b5050505050565b610a8983636bb56a1460e01b610c4460201b60201c565b15610b34578273ffffffffffffffffffffffffffffffffffffffff16636bb56a147f0b084a55ebf70fd3c06fd755269dac2212c4d3f0f4d09079780bfa50c1b2984d5f1b836040518363ffffffff1660e01b8152600401610aeb9291906116ed565b5f604051808303815f875af1158015610b06573d5f5f3e3d5ffd5b505050506040513d5f823e3d601f19601f82011682018060405250810190610b2e91906117b9565b50610bd2565b81610bd1575f8373ffffffffffffffffffffffffffffffffffffffff163b14610b9457826040517f4349776d000000000000000000000000000000000000000000000000000000008152600401610b8b9190611581565b60405180910390fd5b826040517f03173137000000000000000000000000000000000000000000000000000000008152600401610bc89190611581565b60405180910390fd5b5b505050565b5f610be88383610cfd60201b60201c565b610c3a57825f0182908060018154018082558091505060019003905f5260205f20015f9091909190915055825f0180549050836001015f8481526020019081526020015f208190555060019050610c3e565b5f90505b92915050565b5f5f6301ffc9a760e01b83604051602401610c5f919061183a565b604051602081830303815290604052907bffffffffffffffffffffffffffffffffffffffffffffffffffffffff19166020820180517bffffffffffffffffffffffffffffffffffffffffffffffffffffffff838183161783525050505090505f5f5f60205f8551602087018a617530fa92503d91505f519050828015610ce6575060208210155b8015610cf157505f81115b94505050505092915050565b5f5f836001015f8481526020019081526020015f20541415905092915050565b5f604051905090565b5f5ffd5b5f5ffd5b5f5ffd5b5f5ffd5b5f601f19601f8301169050919050565b7f4e487b71000000000000000000000000000000000000000000000000000000005f52604160045260245ffd5b610d7c82610d36565b810181811067ffffffffffffffff82111715610d9b57610d9a610d46565b5b80604052505050565b5f610dad610d1d565b9050610db98282610d73565b919050565b5f67ffffffffffffffff821115610dd857610dd7610d46565b5b610de182610d36565b9050602081019050919050565b8281835e5f83830152505050565b5f610e0e610e0984610dbe565b610da4565b905082815260208101848484011115610e2a57610e29610d32565b5b610e35848285610dee565b509392505050565b5f82601f830112610e5157610e50610d2e565b5b8151610e61848260208601610dfc565b91505092915050565b5f5ffd5b5f61ffff82169050919050565b610e8481610e6e565b8114610e8e575f5ffd5b50565b5f81519050610e9f81610e7b565b92915050565b5f60ff82169050919050565b610eba81610ea5565b8114610ec4575f5ffd5b50565b5f81519050610ed581610eb1565b92915050565b5f60608284031215610ef057610eef610e6a565b5b610efa6060610da4565b90505f610f0984828501610e91565b5f830152506020610f1c84828501610ec7565b6020830152506040610f3084828501610ec7565b60408301525092915050565b5f73ffffffffffffffffffffffffffffffffffffffff82169050919050565b5f610f6582610f3c565b9050919050565b610f7581610f5b565b8114610f7f575f5ffd5b50565b5f81519050610f9081610f6c565b92915050565b5f5f5f5f5f5f5f610160888a031215610fb257610fb1610d26565b5b5f88015167ffffffffffffffff811115610fcf57610fce610d2a565b5b610fdb8a828b01610e3d565b975050602088015167ffffffffffffffff811115610ffc57610ffb610d2a565b5b6110088a828b01610e3d565b965050604088015167ffffffffffffffff81111561102957611028610d2a565b5b6110358a828b01610e3d565b955050606088015167ffffffffffffffff81111561105657611055610d2a565b5b6110628a828b01610e3d565b94505060806110738a828b01610edb565b93505060e06110848a828b01610edb565b9250506101406110968a828b01610f82565b91505092959891949750929550565b5f819050919050565b6110b7816110a5565b82525050565b5f6020820190506110d05f8301846110ae565b92915050565b5f81519050919050565b7f4e487b71000000000000000000000000000000000000000000000000000000005f52602260045260245ffd5b5f600282049050600182168061112457607f821691505b602082108103611137576111366110e0565b5b50919050565b5f819050815f5260205f209050919050565b5f6020601f8301049050919050565b5f82821b905092915050565b5f600883026111997fffffffffffffffffffffffffffffffffffffffffffffffffffffffffffffffff8261115e565b6111a3868361115e565b95508019841693508086168417925050509392505050565b5f819050919050565b5f6111de6111d96111d4846110a5565b6111bb565b6110a5565b9050919050565b5f819050919050565b6111f7836111c4565b61120b611203826111e5565b84845461116a565b825550505050565b5f5f905090565b611222611213565b61122d8184846111ee565b505050565b5b81811015611250576112455f8261121a565b600181019050611233565b5050565b601f821115611295576112668161113d565b61126f8461114f565b8101602085101561127e578190505b61129261128a8561114f565b830182611232565b50505b505050565b5f82821c905092915050565b5f6112b55f198460080261129a565b1980831691505092915050565b5f6112cd83836112a6565b9150826002028217905092915050565b6112e6826110d6565b67ffffffffffffffff8111156112ff576112fe610d46565b5b611309825461110d565b611314828285611254565b5f60209050601f831160018114611345575f8415611333578287015190505b61133d85826112c2565b8655506113a4565b601f1984166113538661113d565b5f5b8281101561137a57848901518255600182019150602085019450602081019050611355565b868310156113975784890151611393601f8916826112a6565b8355505b6001600288020188555050505b505050505050565b5f81519050919050565b5f819050815f5260205f209050919050565b601f821115611409576113da816113b6565b6113e38461114f565b810160208510156113f2578190505b6114066113fe8561114f565b830182611232565b50505b505050565b611417826113ac565b67ffffffffffffffff8111156114305761142f610d46565b5b61143a825461110d565b6114458282856113c8565b5f60209050601f831160018114611476575f8415611464578287015190505b61146e85826112c2565b8655506114d5565b601f198416611484866113b6565b5f5b828110156114ab57848901518255600182019150602085019450602081019050611486565b868310156114c857848901516114c4601f8916826112a6565b8355505b6001600288020188555050505b505050505050565b5f82825260208201905092915050565b5f6114f7826113ac565b61150181856114dd565b9350611511818560208601610dee565b61151a81610d36565b840191505092915050565b5f6020820190508181035f83015261153d81846114ed565b905092915050565b7f4e487b71000000000000000000000000000000000000000000000000000000005f52602160045260245ffd5b61157b81610f5b565b82525050565b5f6020820190506115945f830184611572565b92915050565b5f819050919050565b6115ac8161159a565b82525050565b5f6020820190506115c55f8301846115a3565b92915050565b7f4e487b71000000000000000000000000000000000000000000000000000000005f52601160045260245ffd5b5f611602826110a5565b91507fffffffffffffffffffffffffffffffffffffffffffffffffffffffffffffffff8203611634576116336115cb565b5b600182019050919050565b5f8115159050919050565b6116538161163f565b82525050565b5f60608201905061166c5f830186611572565b611679602083018561164a565b818103604083015261168b81846114ed565b9050949350505050565b5f60a0820190506116a85f830188611572565b6116b56020830187611572565b6116c26040830186611572565b6116cf60608301856115a3565b81810360808301526116e181846114ed565b90509695505050505050565b5f6040820190506117005f8301856115a3565b818103602083015261171281846114ed565b90509392505050565b5f67ffffffffffffffff82111561173557611734610d46565b5b61173e82610d36565b9050602081019050919050565b5f61175d6117588461171b565b610da4565b90508281526020810184848401111561177957611778610d32565b5b611784848285610dee565b509392505050565b5f82601f8301126117a05761179f610d2e565b5b81516117b084826020860161174b565b91505092915050565b5f602082840312156117ce576117cd610d26565b5b5f82015167ffffffffffffffff8111156117eb576117ea610d2a565b5b6117f78482850161178c565b91505092915050565b5f7fffffffff0000000000000000000000000000000000000000000000000000000082169050919050565b61183481611800565b82525050565b5f60208201905061184d5f83018461182b565b92915050565b616856806118605f395ff3fe6080604052600436106101fc575f3560e01c806370a082311161010c5780638f81ecfc1161009f578063d6c1407c1161006e578063d6c1407c14610823578063db8c96631461084b578063dedff9c614610873578063e4ac8dbd146108af578063f2fde38b146108d957610275565b80638f81ecfc1461077b57806397902421146107a3578063a3b261f2146107bf578063be9f0e6f146107fb57610275565b80637e913b05116100db5780637e913b05146106e55780637f23690c1461070d57806386a10ddd146107295780638da5cb5b1461075157610275565b806370a0823114610641578063715018a61461067d57806378495bf8146106935780637e87632c146106bd57610275565b80632819a2151161018f5780634c8f93131161015e5780634c8f931314610537578063511b69521461055f57806354f6127f14610587578063625d0be9146105c35780636963d4381461060557610275565b80632819a2151461046f5780632a3654a41461049757806349a6078d146104d357806349fc56861461050f57610275565b806318160ddd116101cb57806318160ddd146103a35780631d26fce6146103cd5780631f12170814610409578063217b22701461043357610275565b806301ffc9a7146102db57806302154b4e146103175780630cfa46501461033f57806316e023b31461036757610275565b36610275575f3403610243576040517fe5099ee300000000000000000000000000000000000000000000000000000000815260040161023a90614220565b60405180910390fd5b6040517f61f4944200000000000000000000000000000000000000000000000000000000815260040160405180910390fd5b5f36606060045f36905010156102c45782826040517fe5099ee30000000000000000000000000000000000000000000000000000000081526004016102bb929190614288565b60405180910390fd5b6102ce8383610901565b9050915050805190602001f35b3480156102e6575f5ffd5b5061030160048036038101906102fc9190614310565b610a77565b60405161030e9190614355565b60405180910390f35b348015610322575f5ffd5b5061033d600480360381019061033891906143c8565b610ae7565b005b34801561034a575f5ffd5b5061036560048036038101906103609190614511565b610b82565b005b348015610372575f5ffd5b5061038d6004803603810190610388919061458b565b610be7565b60405161039a9190614619565b60405180910390f35b3480156103ae575f5ffd5b506103b7610bfb565b6040516103c49190614651565b60405180910390f35b3480156103d8575f5ffd5b506103f360048036038101906103ee919061472e565b610c04565b60405161040091906148a7565b60405180910390f35b348015610414575f5ffd5b5061041d610d0b565b60405161042a91906148d6565b60405180910390f35b34801561043e575f5ffd5b50610459600480360381019061045491906148ef565b610d30565b60405161046691906148d6565b60405180910390f35b34801561047a575f5ffd5b5061049560048036038101906104909190614a32565b610dde565b005b3480156104a2575f5ffd5b506104bd60048036038101906104b89190614b31565b610fb4565b6040516104ca9190614355565b60405180910390f35b3480156104de575f5ffd5b506104f960048036038101906104f491906148ef565b610fc7565b6040516105069190614c26565b60405180910390f35b34801561051a575f5ffd5b5061053560048036038101906105309190614c46565b610ff2565b005b348015610542575f5ffd5b5061055d60048036038101906105589190614d08565b611214565b005b34801561056a575f5ffd5b5061058560048036038101906105809190614ebc565b61144e565b005b348015610592575f5ffd5b506105ad60048036038101906105a891906148ef565b6114af565b6040516105ba9190614619565b60405180910390f35b3480156105ce575f5ffd5b506105e960048036038101906105e491906148ef565b6114c1565b6040516105fc9796959493929190615081565b60405180910390f35b348015610610575f5ffd5b5061062b60048036038101906106269190615157565b6116d7565b60405161063891906148a7565b60405180910390f35b34801561064c575f5ffd5b50610667600480360381019061066291906143c8565b61184d565b6040516106749190614651565b60405180910390f35b348015610688575f5ffd5b5061069161189a565b005b34801561069e575f5ffd5b506106a76118ad565b6040516106b49190614651565b60405180910390f35b3480156106c8575f5ffd5b506106e360048036038101906106de9190615400565b6118b8565b005b3480156106f0575f5ffd5b5061070b6004803603810190610706919061458b565b6119ca565b005b61072760048036038101906107229190615503565b611d97565b005b348015610734575f5ffd5b5061074f600480360381019061074a919061555d565b611de6565b005b34801561075c575f5ffd5b5061076561203c565b60405161077291906148d6565b60405180910390f35b348015610786575f5ffd5b506107a1600480360381019061079c919061458b565b612063565b005b6107bd60048036038101906107b891906155c9565b612347565b005b3480156107ca575f5ffd5b506107e560048036038101906107e091906143c8565b612396565b6040516107f291906156f6565b60405180910390f35b348015610806575f5ffd5b50610821600480360381019061081c9190615716565b6123e4565b005b34801561082e575f5ffd5b50610849600480360381019061084491906157ba565b6124e5565b005b348015610856575f5ffd5b50610871600480360381019061086c9190615826565b6125af565b005b34801561087e575f5ffd5b50610899600480360381019061089491906158a6565b61277c565b6040516108a691906148a7565b60405180910390f35b3480156108ba575f5ffd5b506108c361282f565b6040516108d091906158ed565b60405180910390f35b3480156108e4575f5ffd5b506108ff60048036038101906108fa91906143c8565b6128bb565b005b60605f6109305f357fffffffff000000000000000000000000000000000000000000000000000000001661293d565b5090505f73ffffffffffffffffffffffffffffffffffffffff168173ffffffffffffffffffffffffffffffffffffffff16036109c6575f357fffffffff00000000000000000000000000000000000000000000000000000000166040517fbb370b2b0000000000000000000000000000000000000000000000000000000081526004016109bd919061591c565b60405180910390fd5b5f5f8273ffffffffffffffffffffffffffffffffffffffff1634878733346040516020016109f794939291906159c8565b604051602081830303815290604052604051610a139190615a32565b5f6040518083038185875af1925050503d805f8114610a4d576040519150601f19603f3d011682016040523d82523d5f602084013e610a52565b606091505b50915091508115610a6857809350505050610a71565b80518060208301fd5b92915050565b5f633a27170660e01b7bffffffffffffffffffffffffffffffffffffffffffffffffffffffff1916827bffffffffffffffffffffffffffffffffffffffffffffffffffffffff19161480610ad05750610acf826129f3565b5b80610ae05750610adf82612a53565b5b9050919050565b60085f9054906101000a900473ffffffffffffffffffffffffffffffffffffffff1673ffffffffffffffffffffffffffffffffffffffff163373ffffffffffffffffffffffffffffffffffffffff1614610b76576040517f08c379a0000000000000000000000000000000000000000000000000000000008152600401610b6d90615a92565b60405180910390fd5b610b7f81612ab7565b50565b610b8a612b78565b8060099081610b999190615cad565b50610ba261203c565b73ffffffffffffffffffffffffffffffffffffffff167f52dfe4fd4c28a03cd8ab0af4995f1caf006268a90c0e57cbd291d33f358fbc2f60405160405180910390a250565b6060610bf38383612bf6565b905092915050565b5f600254905090565b60608151835114610c41576040517f2fa71dfe00000000000000000000000000000000000000000000000000000000815260040160405180910390fd5b825167ffffffffffffffff811115610c5c57610c5b6143fb565b5b604051908082528060200260200182016040528015610c8f57816020015b6060815260200190600190039081610c7a5790505b5090505f5b8351811015610d0457610cdb848281518110610cb357610cb2615d7c565b5b6020026020010151848381518110610cce57610ccd615d7c565b5b6020026020010151612bf6565b828281518110610cee57610ced615d7c565b5b6020026020010181905250806001019050610c94565b5092915050565b60085f9054906101000a900473ffffffffffffffffffffffffffffffffffffffff1681565b5f5f60035f8481526020019081526020015f205f9054906101000a900473ffffffffffffffffffffffffffffffffffffffff1690505f73ffffffffffffffffffffffffffffffffffffffff168173ffffffffffffffffffffffffffffffffffffffff1603610dd557826040517fae8f9a36000000000000000000000000000000000000000000000000000000008152600401610dcc9190615da9565b60405180910390fd5b80915050919050565b835f610de982610d30565b90508073ffffffffffffffffffffffffffffffffffffffff163373ffffffffffffffffffffffffffffffffffffffff161480610e575750610e2861203c565b73ffffffffffffffffffffffffffffffffffffffff163373ffffffffffffffffffffffffffffffffffffffff16145b610e96576040517f08c379a0000000000000000000000000000000000000000000000000000000008152600401610e8d90615e0c565b60405180910390fd5b5f60075f8881526020019081526020015f2090505f610eb98d8d888e8e8e612cc0565b9050816003016040518060400160405280876002811115610edd57610edc614fb0565b5b815260200183815250908060018154018082558091505060019003905f5260205f2090600202015f909190919091505f820151815f015f6101000a81548160ff02191690836002811115610f3457610f33614fb0565b5b02179055506020820151816001015550508760075f8381526020019081526020015f20600101819055508660075f8381526020019081526020015f206002018190555087817f95afc0d374f4e4b0d262be4433e573b5862c9fb50c22ee6438a313040f5487cc60405160405180910390a350505050505050505050505050565b5f610fbf8383612e69565b905092915050565b6060610fd282612ed3565b610feb60055f8481526020019081526020015f20612f20565b9050919050565b855f610ffd82610d30565b90508073ffffffffffffffffffffffffffffffffffffffff163373ffffffffffffffffffffffffffffffffffffffff16148061106b575061103c61203c565b73ffffffffffffffffffffffffffffffffffffffff163373ffffffffffffffffffffffffffffffffffffffff16145b6110aa576040517f08c379a00000000000000000000000000000000000000000000000000000000081526004016110a190615e0c565b60405180910390fd5b5f60075f8a81526020019081526020015f20905087815f0190816110ce9190615cad565b5084816006015f820151815f015f6101000a81548161ffff021916908361ffff1602179055506020820151815f0160026101000a81548160ff021916908360ff1602179055506040820151815f0160036101000a81548160ff021916908360ff16021790555090505083816007015f820151815f015f6101000a81548161ffff021916908361ffff1602179055506020820151815f0160026101000a81548160ff021916908360ff1602179055506040820151815f0160036101000a81548160ff021916908360ff16021790555090505085816005015f6101000a81548160ff021916908360028111156111c5576111c4614fb0565b5b0217905550868160080190816111db9190615cad565b50887f088b778b9aa1c8317c051d681d7e71c9f3e40c539fbaf5cadfd37476c1b15dec60405160405180910390a2505050505050505050565b875f61121f82610d30565b90508073ffffffffffffffffffffffffffffffffffffffff163373ffffffffffffffffffffffffffffffffffffffff16148061128d575061125e61203c565b73ffffffffffffffffffffffffffffffffffffffff163373ffffffffffffffffffffffffffffffffffffffff16145b6112cc576040517f08c379a00000000000000000000000000000000000000000000000000000000081526004016112c390615e0c565b60405180910390fd5b5f6112dc8a8a8660018c8c612cc0565b905060075f8281526020019081526020015f20600401604051806060016040528083815260200188815260200187815250908060018154018082558091505060019003905f5260205f2090600302015f909190919091505f820151815f01556020820151816001015f820151815f015f6101000a81548161ffff021916908361ffff1602179055506020820151815f0160026101000a81548160ff021916908360ff1602179055506040820151815f0160036101000a81548160ff021916908360ff16021790555050506040820151816002015f820151815f015f6101000a81548161ffff021916908361ffff1602179055506020820151815f0160026101000a81548160ff021916908360ff1602179055506040820151815f0160036101000a81548160ff021916908360ff16021790555050505050808b7fca4757636f927657c127875c4f0c0ec6e1f84d4769348f20fff39486a4bb2c3f60405160405180910390a35050505050505050505050565b6114583384612e69565b61149b5782336040517f1294d2a9000000000000000000000000000000000000000000000000000000008152600401611492929190615e2a565b60405180910390fd5b6114a88585858585612f3f565b5050505050565b60606114ba8261326b565b9050919050565b6007602052805f5260405f205f91509050805f0180546114e090615add565b80601f016020809104026020016040519081016040528092919081815260200182805461150c90615add565b80156115575780601f1061152e57610100808354040283529160200191611557565b820191905f5260205f20905b81548152906001019060200180831161153a57829003601f168201915b505050505090806001015490806002015490806005015f9054906101000a900460ff1690806006016040518060600160405290815f82015f9054906101000a900461ffff1661ffff1661ffff1681526020015f820160029054906101000a900460ff1660ff1660ff1681526020015f820160039054906101000a900460ff1660ff1660ff168152505090806007016040518060600160405290815f82015f9054906101000a900461ffff1661ffff1661ffff1681526020015f820160029054906101000a900460ff1660ff1660ff1681526020015f820160039054906101000a900460ff1660ff1660ff16815250509080600801805461165690615add565b80601f016020809104026020016040519081016040528092919081815260200182805461168290615add565b80156116cd5780601f106116a4576101008083540402835291602001916116cd565b820191905f5260205f20905b8154815290600101906020018083116116b057829003601f168201915b5050505050905087565b60608282905067ffffffffffffffff8111156116f6576116f56143fb565b5b60405190808252806020026020018201604052801561172957816020015b60608152602001906001900390816117145790505b5090505f5b83839050811015611846575f5f3073ffffffffffffffffffffffffffffffffffffffff1686868581811061176557611764615d7c565b5b90506020028101906117779190615e5d565b604051611785929190615ebf565b5f60405180830381855af49150503d805f81146117bd576040519150601f19603f3d011682016040523d82523d5f602084013e6117c2565b606091505b50915091508161181a575f8151146117dd5780518082602001fd5b826040517f234eb8190000000000000000000000000000000000000000000000000000000081526004016118119190614651565b60405180910390fd5b8084848151811061182e5761182d615d7c565b5b6020026020010181905250826001019250505061172e565b5092915050565b5f61189360045f8473ffffffffffffffffffffffffffffffffffffffff1673ffffffffffffffffffffffffffffffffffffffff1681526020019081526020015f2061330c565b9050919050565b6118a2612b78565b6118ab5f612ab7565b565b6006805f0154905081565b5f855190508451811415806118ce575083518114155b806118da575082518114155b806118e6575081518114155b1561191d576040517f93a8311900000000000000000000000000000000000000000000000000000000815260040160405180910390fd5b5f5b818110156119c1576119b687828151811061193d5761193c615d7c565b5b602002602001015187838151811061195857611957615d7c565b5b602002602001015187848151811061197357611972615d7c565b5b602002602001015187858151811061198e5761198d615d7c565b5b60200260200101518786815181106119a9576119a8615d7c565b5b602002602001015161144e565b80600101905061191f565b50505050505050565b805f6119d582610d30565b90508073ffffffffffffffffffffffffffffffffffffffff163373ffffffffffffffffffffffffffffffffffffffff161480611a435750611a1461203c565b73ffffffffffffffffffffffffffffffffffffffff163373ffffffffffffffffffffffffffffffffffffffff16145b611a82576040517f08c379a0000000000000000000000000000000000000000000000000000000008152600401611a7990615e0c565b60405180910390fd5b5f60075f8581526020019081526020015f2090505f5f90505b8160040180549050811015611d555785826004018281548110611ac157611ac0615d7c565b5b905f5260205f2090600302015f015403611d48575f60018360040180549050611aea9190615f04565b9050808214611c6157826004018181548110611b0957611b08615d7c565b5b905f5260205f209060030201836004018381548110611b2b57611b2a615d7c565b5b905f5260205f2090600302015f820154815f015560018201816001015f82015f9054906101000a900461ffff16815f015f6101000a81548161ffff021916908361ffff1602179055505f820160029054906101000a900460ff16815f0160026101000a81548160ff021916908360ff1602179055505f820160039054906101000a900460ff16815f0160036101000a81548160ff021916908360ff160217905550505060028201816002015f82015f9054906101000a900461ffff16815f015f6101000a81548161ffff021916908361ffff1602179055505f820160029054906101000a900460ff16815f0160026101000a81548160ff021916908360ff1602179055505f820160039054906101000a900460ff16815f0160036101000a81548160ff021916908360ff16021790555050509050505b82600401805480611c7557611c74615f37565b5b600190038181905f5260205f2090600302015f5f82015f9055600182015f5f82015f6101000a81549061ffff02191690555f820160026101000a81549060ff02191690555f820160036101000a81549060ff02191690555050600282015f5f82015f6101000a81549061ffff02191690555f820160026101000a81549060ff02191690555f820160036101000a81549060ff021916905550505050905585877ff1387b2f8963ca7947c75faa29a4c7de0859d44c5f9a658761acbdc5d539976b60405160405180910390a3505050611d91565b8080600101915050611a9b565b506040517f08c379a0000000000000000000000000000000000000000000000000000000008152600401611d8890615fae565b60405180910390fd5b50505050565b611d9f612b78565b5f3414611dd8576040517ff36ba73700000000000000000000000000000000000000000000000000000000815260040160405180910390fd5b611de2828261331f565b5050565b5f611df083610d30565b90503373ffffffffffffffffffffffffffffffffffffffff168173ffffffffffffffffffffffffffffffffffffffff1614611e66578083336040517f5b271ea2000000000000000000000000000000000000000000000000000000008152600401611e5d93929190615fcc565b60405180910390fd5b5f73ffffffffffffffffffffffffffffffffffffffff168473ffffffffffffffffffffffffffffffffffffffff1603611ecb576040517f9577b8b300000000000000000000000000000000000000000000000000000000815260040160405180910390fd5b8373ffffffffffffffffffffffffffffffffffffffff168173ffffffffffffffffffffffffffffffffffffffff1603611f30576040517f89fdad6200000000000000000000000000000000000000000000000000000000815260040160405180910390fd5b5f611f548560055f8781526020019081526020015f2061338890919063ffffffff16565b905080611f9a5784846040517fa7626b68000000000000000000000000000000000000000000000000000000008152600401611f91929190616001565b60405180910390fd5b838273ffffffffffffffffffffffffffffffffffffffff168673ffffffffffffffffffffffffffffffffffffffff167f1b1b58aa2ec0cec2228b2d37124556d41f5a1f7b12f089171f896cc23667121586604051611ff89190614619565b60405180910390a45f33856001866040516020016120199493929190616028565b604051602081830303815290604052905061203486826133b5565b505050505050565b5f5f5f9054906101000a900473ffffffffffffffffffffffffffffffffffffffff16905090565b815f61206e82610d30565b90508073ffffffffffffffffffffffffffffffffffffffff163373ffffffffffffffffffffffffffffffffffffffff1614806120dc57506120ad61203c565b73ffffffffffffffffffffffffffffffffffffffff163373ffffffffffffffffffffffffffffffffffffffff16145b61211b576040517f08c379a000000000000000000000000000000000000000000000000000000000815260040161211290615e0c565b60405180910390fd5b5f60075f8681526020019081526020015f2090505f60075f8681526020019081526020015f20905085816001015414612189576040517f08c379a0000000000000000000000000000000000000000000000000000000008152600401612180906160bc565b60405180910390fd5b5f5f90505b826003018054905081101561230557858360030182815481106121b4576121b3615d7c565b5b905f5260205f20906002020160010154036122f8575f600184600301805490506121de9190615f04565b9050808214612272578360030181815481106121fd576121fc615d7c565b5b905f5260205f20906002020184600301838154811061221f5761221e615d7c565b5b905f5260205f2090600202015f82015f9054906101000a900460ff16815f015f6101000a81548160ff0219169083600281111561225f5761225e614fb0565b5b0217905550600182015481600101559050505b8360030180548061228657612285615f37565b5b600190038181905f5260205f2090600202015f5f82015f6101000a81549060ff0219169055600182015f9055505090555f5f1b836001018190555087877fd22ef99c12aeaecac27f6067207b23ac6a9ae5f21e97134b39e98320aa04fa5d60405160405180910390a350505050612341565b808060010191505061218e565b506040517f08c379a000000000000000000000000000000000000000000000000000000000815260040161233890616124565b60405180910390fd5b50505050565b61234f612b78565b5f3414612388576040517ff36ba73700000000000000000000000000000000000000000000000000000000815260040160405180910390fd5b61239282826133e6565b5050565b60606123dd60045f8473ffffffffffffffffffffffffffffffffffffffff1673ffffffffffffffffffffffffffffffffffffffff1681526020019081526020015f206134b7565b9050919050565b6123ec612b78565b815183511415806123ff57508051825114155b15612436576040517f2fa71dfe00000000000000000000000000000000000000000000000000000000815260040160405180910390fd5b5f835103612470576040517f80c9830500000000000000000000000000000000000000000000000000000000815260040160405180910390fd5b5f5b83518110156124df576124d484828151811061249157612490615d7c565b5b60200260200101518483815181106124ac576124ab615d7c565b5b60200260200101518484815181106124c7576124c6615d7c565b5b60200260200101516134d6565b806001019050612472565b50505050565b825f6124f082610d30565b90508073ffffffffffffffffffffffffffffffffffffffff163373ffffffffffffffffffffffffffffffffffffffff16148061255e575061252f61203c565b73ffffffffffffffffffffffffffffffffffffffff163373ffffffffffffffffffffffffffffffffffffffff16145b61259d576040517f08c379a000000000000000000000000000000000000000000000000000000000815260040161259490615e0c565b60405180910390fd5b6125a88585856134d6565b5050505050565b5f6125b984610d30565b90508073ffffffffffffffffffffffffffffffffffffffff163373ffffffffffffffffffffffffffffffffffffffff1614612663573373ffffffffffffffffffffffffffffffffffffffff168573ffffffffffffffffffffffffffffffffffffffff1614612662573381856040517f760b5acd00000000000000000000000000000000000000000000000000000000815260040161265993929190616142565b60405180910390fd5b5b5f73ffffffffffffffffffffffffffffffffffffffff168573ffffffffffffffffffffffffffffffffffffffff16036126c8576040517f9577b8b300000000000000000000000000000000000000000000000000000000815260040160405180910390fd5b8473ffffffffffffffffffffffffffffffffffffffff168173ffffffffffffffffffffffffffffffffffffffff160361272d576040517f89fdad6200000000000000000000000000000000000000000000000000000000815260040160405180910390fd5b61273a858286868661355b565b8215612775575f81855f856040516020016127589493929190616028565b604051602081830303815290604052905061277386826133b5565b505b5050505050565b6060815167ffffffffffffffff811115612799576127986143fb565b5b6040519080825280602002602001820160405280156127cc57816020015b60608152602001906001900390816127b75790505b5090505f5f90505b8251811015612829576128008382815181106127f3576127f2615d7c565b5b602002602001015161326b565b82828151811061281357612812615d7c565b5b60200260200101819052508060010190506127d4565b50919050565b6009805461283c90615add565b80601f016020809104026020016040519081016040528092919081815260200182805461286890615add565b80156128b35780601f1061288a576101008083540402835291602001916128b3565b820191905f5260205f20905b81548152906001019060200180831161289657829003601f168201915b505050505081565b6128c3612b78565b5f73ffffffffffffffffffffffffffffffffffffffff168173ffffffffffffffffffffffffffffffffffffffff1603612931576040517f08c379a0000000000000000000000000000000000000000000000000000000008152600401612928906161e7565b60405180910390fd5b61293a81612ab7565b50565b5f5f5f61297669cee78b4094da8601109660b01b857bffffffffffffffffffffffffffffffffffffffffffffffffffffffff1916613635565b90505f6129828261326b565b9050601481511415801561299757505f815114155b156129d957806040517f42bfe79f0000000000000000000000000000000000000000000000000000000081526004016129d09190614619565b60405180910390fd5b806129e390616253565b60601c6001935093505050915091565b5f63a918fa6b60e01b7bffffffffffffffffffffffffffffffffffffffffffffffffffffffff1916827bffffffffffffffffffffffffffffffffffffffffffffffffffffffff19161480612a4c5750612a4b82613673565b5b9050919050565b5f5f612a656301ffc9a760e01b61293d565b5090505f73ffffffffffffffffffffffffffffffffffffffff168173ffffffffffffffffffffffffffffffffffffffff1603612aa4575f915050612ab2565b612aae818461373c565b9150505b919050565b5f5f5f9054906101000a900473ffffffffffffffffffffffffffffffffffffffff169050815f5f6101000a81548173ffffffffffffffffffffffffffffffffffffffff021916908373ffffffffffffffffffffffffffffffffffffffff1602179055508173ffffffffffffffffffffffffffffffffffffffff168173ffffffffffffffffffffffffffffffffffffffff167f8be0079c531659141344cd1fd0a4f28419497f9722a3daafe3b4186f6b6457e060405160405180910390a35050565b612b806137f5565b73ffffffffffffffffffffffffffffffffffffffff16612b9e61203c565b73ffffffffffffffffffffffffffffffffffffffff1614612bf4576040517f08c379a0000000000000000000000000000000000000000000000000000000008152600401612beb90616303565b60405180910390fd5b565b606060015f8484604051602001612c0e929190616341565b6040516020818303038152906040528051906020012081526020019081526020015f208054612c3c90615add565b80601f0160208091040260200160405190810160405280929190818152602001828054612c6890615add565b8015612cb35780601f10612c8a57610100808354040283529160200191612cb3565b820191905f5260205f20905b815481529060010190602001808311612c9657829003601f168201915b5050505050905092915050565b5f612ccb60066137fc565b612cd56006613810565b5f1b9050612cf48582600160405180602001604052805f81525061381c565b5f60075f8381526020019081526020015f20905087815f019081612d189190615cad565b5083816006015f820151815f015f6101000a81548161ffff021916908361ffff1602179055506020820151815f0160026101000a81548160ff021916908360ff1602179055506040820151815f0160036101000a81548160ff021916908360ff16021790555090505082816007015f820151815f015f6101000a81548161ffff021916908361ffff1602179055506020820151815f0160026101000a81548160ff021916908360ff1602179055506040820151815f0160036101000a81548160ff021916908360ff16021790555090505084816005015f6101000a81548160ff02191690836002811115612e0f57612e0e614fb0565b5b021790555086816008019081612e259190615cad565b50817fa6912c28a8cb5fc5cab504e471cfa6bc504444025484d810e2565bc7dead665787604051612e5691906148d6565b60405180910390a2509695505050505050565b5f612e7382610d30565b73ffffffffffffffffffffffffffffffffffffffff168373ffffffffffffffffffffffffffffffffffffffff161480612ecb5750612eca8360055f8581526020019081526020015f20613a8c90919063ffffffff16565b5b905092915050565b612edc81613ab9565b612f1d57806040517fae8f9a36000000000000000000000000000000000000000000000000000000008152600401612f149190615da9565b60405180910390fd5b50565b60605f612f2e835f01613b21565b905060608190508092505050919050565b5f612f4984610d30565b90508573ffffffffffffffffffffffffffffffffffffffff168173ffffffffffffffffffffffffffffffffffffffff1614612fbf578084876040517f5b271ea2000000000000000000000000000000000000000000000000000000008152600401612fb693929190615fcc565b60405180910390fd5b5f73ffffffffffffffffffffffffffffffffffffffff168573ffffffffffffffffffffffffffffffffffffffff1603613024576040517f24ecef4d00000000000000000000000000000000000000000000000000000000815260040160405180910390fd5b6130318686868686613b7a565b5f61303b85610d30565b90508073ffffffffffffffffffffffffffffffffffffffff168273ffffffffffffffffffffffffffffffffffffffff16146130b1578482826040517f5a9c31d30000000000000000000000000000000000000000000000000000000081526004016130a89392919061636c565b60405180910390fd5b6130bb8786613b81565b61310a8560045f8a73ffffffffffffffffffffffffffffffffffffffff1673ffffffffffffffffffffffffffffffffffffffff1681526020019081526020015f20613bef90919063ffffffff16565b5061315a8560045f8973ffffffffffffffffffffffffffffffffffffffff1673ffffffffffffffffffffffffffffffffffffffff1681526020019081526020015f20613c0490919063ffffffff16565b508560035f8781526020019081526020015f205f6101000a81548173ffffffffffffffffffffffffffffffffffffffff021916908373ffffffffffffffffffffffffffffffffffffffff160217905550848673ffffffffffffffffffffffffffffffffffffffff168873ffffffffffffffffffffffffffffffffffffffff167fb333c813a7426a7a11e2b190cad52c44119421594b47f6f32ace6d8c7207b2bf33888860405161320c939291906163a1565b60405180910390a46132218787878787613c19565b5f338888888760405160200161323b9594939291906163dd565b60405160208183030381529060405290506132568882613c20565b613261878683613c51565b5050505050505050565b606060015f8381526020019081526020015f20805461328990615add565b80601f01602080910402602001604051908101604052809291908181526020018280546132b590615add565b80156133005780601f106132d757610100808354040283529160200191613300565b820191905f5260205f20905b8154815290600101906020018083116132e357829003601f168201915b50505050509050919050565b5f613318825f01613db0565b9050919050565b7ff675e9361af1c1664c1868cfa3eb97672d6b1a513aa5b81dec34c9ee330e818d5f1b820361337a576040517f3664800a00000000000000000000000000000000000000000000000000000000815260040160405180910390fd5b6133848282613dbf565b5050565b5f6133ad835f018373ffffffffffffffffffffffffffffffffffffffff165f1b613f2b565b905092915050565b6133e2827f8a1c15a8799f71b547e08e2bcb2e85257e81b0a07eee2ce6712549eef1f009705f1b83613f92565b5050565b8051825114613421576040517f3bcc897900000000000000000000000000000000000000000000000000000000815260040160405180910390fd5b5f82510361345b576040517f97da5f9500000000000000000000000000000000000000000000000000000000815260040160405180910390fd5b5f5f90505b82518110156134b2576134a783828151811061347f5761347e615d7c565b5b602002602001015183838151811061349a57613499615d7c565b5b602002602001015161331f565b806001019050613460565b505050565b60605f6134c5835f01613b21565b905060608190508092505050919050565b8060015f85856040516020016134ed929190616341565b6040516020818303038152906040528051906020012081526020019081526020015f20908161351c919061648d565b5081837fa6e4251f855f750545fe414f120db91c76b88def14d120969e5bb2d3f05debbb8360405161354e9190614619565b60405180910390a3505050565b5f61357f8660055f8781526020019081526020015f2061404c90919063ffffffff16565b9050806135c55785846040517f4aa31a8c0000000000000000000000000000000000000000000000000000000081526004016135bc929190616001565b60405180910390fd5b838573ffffffffffffffffffffffffffffffffffffffff168773ffffffffffffffffffffffffffffffffffffffff167fc78cd419d6136f9f1c1c6aec1d3fae098cffaf8bc86314a8f2685e32fe574e3c868660405161362592919061655c565b60405180910390a4505050505050565b5f5f835f60f01b8460405160200161364f93929190616640565b60405160208183030381529060405290508061366a90616690565b91505092915050565b5f63629aa69460e01b7bffffffffffffffffffffffffffffffffffffffffffffffffffffffff1916827bffffffffffffffffffffffffffffffffffffffffffffffffffffffff191614806136cc57506136cb826136d3565b5b9050919050565b5f7f01ffc9a7000000000000000000000000000000000000000000000000000000007bffffffffffffffffffffffffffffffffffffffffffffffffffffffff1916827bffffffffffffffffffffffffffffffffffffffffffffffffffffffff1916149050919050565b5f5f6301ffc9a760e01b83604051602401613757919061591c565b604051602081830303815290604052907bffffffffffffffffffffffffffffffffffffffffffffffffffffffff19166020820180517bffffffffffffffffffffffffffffffffffffffffffffffffffffffff838183161783525050505090505f5f5f60205f8551602087018a617530fa92503d91505f5190508280156137de575060208210155b80156137e957505f81115b94505050505092915050565b5f33905090565b6001815f015f828254019250508190555050565b5f815f01549050919050565b5f73ffffffffffffffffffffffffffffffffffffffff168473ffffffffffffffffffffffffffffffffffffffff1603613881576040517f24ecef4d00000000000000000000000000000000000000000000000000000000815260040160405180910390fd5b61388a83613ab9565b156138cc57826040517f34c7b5110000000000000000000000000000000000000000000000000000000081526004016138c39190615da9565b60405180910390fd5b6138d95f85858585613b7a565b6138e283613ab9565b1561392457826040517f34c7b51100000000000000000000000000000000000000000000000000000000815260040161391b9190615da9565b60405180910390fd5b60025f8154613932906166f6565b919050819055506139888360045f8773ffffffffffffffffffffffffffffffffffffffff1673ffffffffffffffffffffffffffffffffffffffff1681526020019081526020015f20613c0490919063ffffffff16565b508360035f8581526020019081526020015f205f6101000a81548173ffffffffffffffffffffffffffffffffffffffff021916908373ffffffffffffffffffffffffffffffffffffffff160217905550828473ffffffffffffffffffffffffffffffffffffffff165f73ffffffffffffffffffffffffffffffffffffffff167fb333c813a7426a7a11e2b190cad52c44119421594b47f6f32ace6d8c7207b2bf338686604051613a3a939291906163a1565b60405180910390a4613a4f5f85858585613c19565b5f335f868685604051602001613a699594939291906163dd565b6040516020818303038152906040529050613a85858483613c51565b5050505050565b5f613ab1835f018373ffffffffffffffffffffffffffffffffffffffff165f1b614079565b905092915050565b5f5f73ffffffffffffffffffffffffffffffffffffffff1660035f8481526020019081526020015f205f9054906101000a900473ffffffffffffffffffffffffffffffffffffffff1673ffffffffffffffffffffffffffffffffffffffff1614159050919050565b6060815f01805480602002602001604051908101604052809291908181526020018280548015613b6e57602002820191905f5260205f20905b815481526020019060010190808311613b5a575b50505050509050919050565b5050505050565b5f60055f8381526020019081526020015f2090505f613b9f82614099565b90505f5f5b82811015613be757613bbf5f856140ac90919063ffffffff16565b9150613bdc8287875f60405180602001604052805f81525061355b565b806001019050613ba4565b505050505050565b5f613bfc835f01836140c3565b905092915050565b5f613c11835f0183613f2b565b905092915050565b5050505050565b613c4d827fb23eae7e6d1564b295b4c3e3be402d9a2f0776c57bdf365903496f6fa481ab005f1b83613f92565b5050565b613c6283636bb56a1460e01b61373c565b15613d0d578273ffffffffffffffffffffffffffffffffffffffff16636bb56a147f0b084a55ebf70fd3c06fd755269dac2212c4d3f0f4d09079780bfa50c1b2984d5f1b836040518363ffffffff1660e01b8152600401613cc492919061673d565b5f604051808303815f875af1158015613cdf573d5f5f3e3d5ffd5b505050506040513d5f823e3d601f19601f82011682018060405250810190613d0791906167d9565b50613dab565b81613daa575f8373ffffffffffffffffffffffffffffffffffffffff163b14613d6d57826040517f4349776d000000000000000000000000000000000000000000000000000000008152600401613d6491906148d6565b60405180910390fd5b826040517f03173137000000000000000000000000000000000000000000000000000000008152600401613da191906148d6565b60405180910390fd5b5b505050565b5f815f01805490509050919050565b7fdeba1e292f8ba88238e10ab3c7f88bd4be4fac56cad5194b6ecceaf653468af15f1b8203613e1a576040517f85c169bd00000000000000000000000000000000000000000000000000000000815260040160405180910390fd5b7f2f0a68ab07768e01943a599e73362a0e17a63a72e94dd2e384d2c1d4db9327565f1b8203613e75576040517f76755b3800000000000000000000000000000000000000000000000000000000815260040160405180910390fd5b7fe0261fa95db2eb3b5439bd033cda66d56b96f92f243a8228fd87550ed7bdfdb35f1b8203613ed0576040517f4ef6d7fb00000000000000000000000000000000000000000000000000000000815260040160405180910390fd5b8060015f8481526020019081526020015f209081613eee919061648d565b50817fece574603820d07bc9b91f2a932baadf4628aabcb8afba49776529c14a6104b282604051613f1f9190614619565b60405180910390a25050565b5f613f368383614079565b613f8857825f0182908060018154018082558091505060019003905f5260205f20015f9091909190915055825f0180549050836001015f8481526020019081526020015f208190555060019050613f8c565b5f90505b92915050565b613fc2636bb56a1460e01b8473ffffffffffffffffffffffffffffffffffffffff1661373c90919063ffffffff16565b15614047578273ffffffffffffffffffffffffffffffffffffffff16636bb56a1483836040518363ffffffff1660e01b815260040161400292919061673d565b5f604051808303815f875af115801561401d573d5f5f3e3d5ffd5b505050506040513d5f823e3d601f19601f8201168201806040525081019061404591906167d9565b505b505050565b5f614071835f018373ffffffffffffffffffffffffffffffffffffffff165f1b6140c3565b905092915050565b5f5f836001015f8481526020019081526020015f20541415905092915050565b5f6140a5825f01613db0565b9050919050565b5f6140b9835f01836141bf565b5f1c905092915050565b5f5f836001015f8481526020019081526020015f205490505f81146141b4575f6001826140f09190615f04565b90505f6001865f01805490506141069190615f04565b905081811461416c575f865f01828154811061412557614124615d7c565b5b905f5260205f200154905080875f01848154811061414657614145615d7c565b5b905f5260205f20018190555083876001015f8381526020019081526020015f2081905550505b855f0180548061417f5761417e615f37565b5b600190038181905f5260205f20015f90559055856001015f8681526020019081526020015f205f9055600193505050506141b9565b5f9150505b92915050565b5f825f0182815481106141d5576141d4615d7c565b5b905f5260205f200154905092915050565b5f82825260208201905092915050565b5f5f82015250565b5f61420a6004836141e6565b9150614215826141f6565b602082019050919050565b5f6020820190508181035f830152614237816141fe565b9050919050565b828183375f83830152505050565b5f601f19601f8301169050919050565b5f61426783856141e6565b935061427483858461423e565b61427d8361424c565b840190509392505050565b5f6020820190508181035f8301526142a181848661425c565b90509392505050565b5f604051905090565b5f5ffd5b5f5ffd5b5f7fffffffff0000000000000000000000000000000000000000000000000000000082169050919050565b6142ef816142bb565b81146142f9575f5ffd5b50565b5f8135905061430a816142e6565b92915050565b5f60208284031215614325576143246142b3565b5b5f614332848285016142fc565b91505092915050565b5f8115159050919050565b61434f8161433b565b82525050565b5f6020820190506143685f830184614346565b92915050565b5f73ffffffffffffffffffffffffffffffffffffffff82169050919050565b5f6143978261436e565b9050919050565b6143a78161438d565b81146143b1575f5ffd5b50565b5f813590506143c28161439e565b92915050565b5f602082840312156143dd576143dc6142b3565b5b5f6143ea848285016143b4565b91505092915050565b5f5ffd5b5f5ffd5b7f4e487b71000000000000000000000000000000000000000000000000000000005f52604160045260245ffd5b6144318261424c565b810181811067ffffffffffffffff821117156144505761444f6143fb565b5b80604052505050565b5f6144626142aa565b905061446e8282614428565b919050565b5f67ffffffffffffffff82111561448d5761448c6143fb565b5b6144968261424c565b9050602081019050919050565b5f6144b56144b084614473565b614459565b9050828152602081018484840111156144d1576144d06143f7565b5b6144dc84828561423e565b509392505050565b5f82601f8301126144f8576144f76143f3565b5b81356145088482602086016144a3565b91505092915050565b5f60208284031215614526576145256142b3565b5b5f82013567ffffffffffffffff811115614543576145426142b7565b5b61454f848285016144e4565b91505092915050565b5f819050919050565b61456a81614558565b8114614574575f5ffd5b50565b5f8135905061458581614561565b92915050565b5f5f604083850312156145a1576145a06142b3565b5b5f6145ae85828601614577565b92505060206145bf85828601614577565b9150509250929050565b5f81519050919050565b8281835e5f83830152505050565b5f6145eb826145c9565b6145f581856141e6565b93506146058185602086016145d3565b61460e8161424c565b840191505092915050565b5f6020820190508181035f83015261463181846145e1565b905092915050565b5f819050919050565b61464b81614639565b82525050565b5f6020820190506146645f830184614642565b92915050565b5f67ffffffffffffffff821115614684576146836143fb565b5b602082029050602081019050919050565b5f5ffd5b5f6146ab6146a68461466a565b614459565b905080838252602082019050602084028301858111156146ce576146cd614695565b5b835b818110156146f757806146e38882614577565b8452602084019350506020810190506146d0565b5050509392505050565b5f82601f830112614715576147146143f3565b5b8135614725848260208601614699565b91505092915050565b5f5f60408385031215614744576147436142b3565b5b5f83013567ffffffffffffffff811115614761576147606142b7565b5b61476d85828601614701565b925050602083013567ffffffffffffffff81111561478e5761478d6142b7565b5b61479a85828601614701565b9150509250929050565b5f81519050919050565b5f82825260208201905092915050565b5f819050602082019050919050565b5f82825260208201905092915050565b5f6147e7826145c9565b6147f181856147cd565b93506148018185602086016145d3565b61480a8161424c565b840191505092915050565b5f61482083836147dd565b905092915050565b5f602082019050919050565b5f61483e826147a4565b61484881856147ae565b93508360208202850161485a856147be565b805f5b8581101561489557848403895281516148768582614815565b945061488183614828565b925060208a0199505060018101905061485d565b50829750879550505050505092915050565b5f6020820190508181035f8301526148bf8184614834565b905092915050565b6148d08161438d565b82525050565b5f6020820190506148e95f8301846148c7565b92915050565b5f60208284031215614904576149036142b3565b5b5f61491184828501614577565b91505092915050565b60038110614926575f5ffd5b50565b5f813590506149378161491a565b92915050565b5f5ffd5b5f61ffff82169050919050565b61495781614941565b8114614961575f5ffd5b50565b5f813590506149728161494e565b92915050565b5f60ff82169050919050565b61498d81614978565b8114614997575f5ffd5b50565b5f813590506149a881614984565b92915050565b5f606082840312156149c3576149c261493d565b5b6149cd6060614459565b90505f6149dc84828501614964565b5f8301525060206149ef8482850161499a565b6020830152506040614a038482850161499a565b60408301525092915050565b60038110614a1b575f5ffd5b50565b5f81359050614a2c81614a0f565b92915050565b5f5f5f5f5f5f5f5f5f6101a08a8c031215614a5057614a4f6142b3565b5b5f8a013567ffffffffffffffff811115614a6d57614a6c6142b7565b5b614a798c828d016144e4565b99505060208a013567ffffffffffffffff811115614a9a57614a996142b7565b5b614aa68c828d016144e4565b9850506040614ab78c828d01614929565b9750506060614ac88c828d016149ae565b96505060c0614ad98c828d016149ae565b955050610120614aeb8c828d01614577565b945050610140614afd8c828d01614577565b935050610160614b0f8c828d016143b4565b925050610180614b218c828d01614a1e565b9150509295985092959850929598565b5f5f60408385031215614b4757614b466142b3565b5b5f614b54858286016143b4565b9250506020614b6585828601614577565b9150509250929050565b5f81519050919050565b5f82825260208201905092915050565b5f819050602082019050919050565b614ba18161438d565b82525050565b5f614bb28383614b98565b60208301905092915050565b5f602082019050919050565b5f614bd482614b6f565b614bde8185614b79565b9350614be983614b89565b805f5b83811015614c19578151614c008882614ba7565b9750614c0b83614bbe565b925050600181019050614bec565b5085935050505092915050565b5f6020820190508181035f830152614c3e8184614bca565b905092915050565b5f5f5f5f5f5f6101408789031215614c6157614c606142b3565b5b5f614c6e89828a01614577565b965050602087013567ffffffffffffffff811115614c8f57614c8e6142b7565b5b614c9b89828a016144e4565b955050604087013567ffffffffffffffff811115614cbc57614cbb6142b7565b5b614cc889828a016144e4565b9450506060614cd989828a01614929565b9350506080614cea89828a016149ae565b92505060e0614cfb89828a016149ae565b9150509295509295509295565b5f5f5f5f5f5f5f5f610200898b031215614d2557614d246142b3565b5b5f614d328b828c01614577565b985050602089013567ffffffffffffffff811115614d5357614d526142b7565b5b614d5f8b828c016144e4565b975050604089013567ffffffffffffffff811115614d8057614d7f6142b7565b5b614d8c8b828c016144e4565b9650506060614d9d8b828c016149ae565b95505060c0614dae8b828c016149ae565b945050610120614dc08b828c016149ae565b935050610180614dd28b828c016149ae565b9250506101e0614de48b828c016143b4565b9150509295985092959890939650565b614dfd8161433b565b8114614e07575f5ffd5b50565b5f81359050614e1881614df4565b92915050565b5f67ffffffffffffffff821115614e3857614e376143fb565b5b614e418261424c565b9050602081019050919050565b5f614e60614e5b84614e1e565b614459565b905082815260208101848484011115614e7c57614e7b6143f7565b5b614e8784828561423e565b509392505050565b5f82601f830112614ea357614ea26143f3565b5b8135614eb3848260208601614e4e565b91505092915050565b5f5f5f5f5f60a08688031215614ed557614ed46142b3565b5b5f614ee2888289016143b4565b9550506020614ef3888289016143b4565b9450506040614f0488828901614577565b9350506060614f1588828901614e0a565b925050608086013567ffffffffffffffff811115614f3657614f356142b7565b5b614f4288828901614e8f565b9150509295509295909350565b5f81519050919050565b5f82825260208201905092915050565b5f614f7382614f4f565b614f7d8185614f59565b9350614f8d8185602086016145d3565b614f968161424c565b840191505092915050565b614faa81614558565b82525050565b7f4e487b71000000000000000000000000000000000000000000000000000000005f52602160045260245ffd5b60038110614fee57614fed614fb0565b5b50565b5f819050614ffe82614fdd565b919050565b5f61500d82614ff1565b9050919050565b61501d81615003565b82525050565b61502c81614941565b82525050565b61503b81614978565b82525050565b606082015f8201516150555f850182615023565b5060208201516150686020850182615032565b50604082015161507b6040850182615032565b50505050565b5f610160820190508181035f83015261509a818a614f69565b90506150a96020830189614fa1565b6150b66040830188614fa1565b6150c36060830187615014565b6150d06080830186615041565b6150dd60e0830185615041565b8181036101408301526150f08184614f69565b905098975050505050505050565b5f5ffd5b5f5f83601f840112615117576151166143f3565b5b8235905067ffffffffffffffff811115615134576151336150fe565b5b6020830191508360208202830111156151505761514f614695565b5b9250929050565b5f5f6020838503121561516d5761516c6142b3565b5b5f83013567ffffffffffffffff81111561518a576151896142b7565b5b61519685828601615102565b92509250509250929050565b5f67ffffffffffffffff8211156151bc576151bb6143fb565b5b602082029050602081019050919050565b5f6151df6151da846151a2565b614459565b9050808382526020820190506020840283018581111561520257615201614695565b5b835b8181101561522b578061521788826143b4565b845260208401935050602081019050615204565b5050509392505050565b5f82601f830112615249576152486143f3565b5b81356152598482602086016151cd565b91505092915050565b5f67ffffffffffffffff82111561527c5761527b6143fb565b5b602082029050602081019050919050565b5f61529f61529a84615262565b614459565b905080838252602082019050602084028301858111156152c2576152c1614695565b5b835b818110156152eb57806152d78882614e0a565b8452602084019350506020810190506152c4565b5050509392505050565b5f82601f830112615309576153086143f3565b5b813561531984826020860161528d565b91505092915050565b5f67ffffffffffffffff82111561533c5761533b6143fb565b5b602082029050602081019050919050565b5f61535f61535a84615322565b614459565b9050808382526020820190506020840283018581111561538257615381614695565b5b835b818110156153c957803567ffffffffffffffff8111156153a7576153a66143f3565b5b8086016153b48982614e8f565b85526020850194505050602081019050615384565b5050509392505050565b5f82601f8301126153e7576153e66143f3565b5b81356153f784826020860161534d565b91505092915050565b5f5f5f5f5f60a08688031215615419576154186142b3565b5b5f86013567ffffffffffffffff811115615436576154356142b7565b5b61544288828901615235565b955050602086013567ffffffffffffffff811115615463576154626142b7565b5b61546f88828901615235565b945050604086013567ffffffffffffffff8111156154905761548f6142b7565b5b61549c88828901614701565b935050606086013567ffffffffffffffff8111156154bd576154bc6142b7565b5b6154c9888289016152f5565b925050608086013567ffffffffffffffff8111156154ea576154e96142b7565b5b6154f6888289016153d3565b9150509295509295909350565b5f5f60408385031215615519576155186142b3565b5b5f61552685828601614577565b925050602083013567ffffffffffffffff811115615547576155466142b7565b5b61555385828601614e8f565b9150509250929050565b5f5f5f60608486031215615574576155736142b3565b5b5f615581868287016143b4565b935050602061559286828701614577565b925050604084013567ffffffffffffffff8111156155b3576155b26142b7565b5b6155bf86828701614e8f565b9150509250925092565b5f5f604083850312156155df576155de6142b3565b5b5f83013567ffffffffffffffff8111156155fc576155fb6142b7565b5b61560885828601614701565b925050602083013567ffffffffffffffff811115615629576156286142b7565b5b615635858286016153d3565b9150509250929050565b5f81519050919050565b5f82825260208201905092915050565b5f819050602082019050919050565b61567181614558565b82525050565b5f6156828383615668565b60208301905092915050565b5f602082019050919050565b5f6156a48261563f565b6156ae8185615649565b93506156b983615659565b805f5b838110156156e95781516156d08882615677565b97506156db8361568e565b9250506001810190506156bc565b5085935050505092915050565b5f6020820190508181035f83015261570e818461569a565b905092915050565b5f5f5f6060848603121561572d5761572c6142b3565b5b5f84013567ffffffffffffffff81111561574a576157496142b7565b5b61575686828701614701565b935050602084013567ffffffffffffffff811115615777576157766142b7565b5b61578386828701614701565b925050604084013567ffffffffffffffff8111156157a4576157a36142b7565b5b6157b0868287016153d3565b9150509250925092565b5f5f5f606084860312156157d1576157d06142b3565b5b5f6157de86828701614577565b93505060206157ef86828701614577565b925050604084013567ffffffffffffffff8111156158105761580f6142b7565b5b61581c86828701614e8f565b9150509250925092565b5f5f5f5f6080858703121561583e5761583d6142b3565b5b5f61584b878288016143b4565b945050602061585c87828801614577565b935050604061586d87828801614e0a565b925050606085013567ffffffffffffffff81111561588e5761588d6142b7565b5b61589a87828801614e8f565b91505092959194509250565b5f602082840312156158bb576158ba6142b3565b5b5f82013567ffffffffffffffff8111156158d8576158d76142b7565b5b6158e484828501614701565b91505092915050565b5f6020820190508181035f8301526159058184614f69565b905092915050565b615916816142bb565b82525050565b5f60208201905061592f5f83018461590d565b92915050565b5f81905092915050565b5f61594a8385615935565b935061595783858461423e565b82840190509392505050565b5f8160601b9050919050565b5f61597982615963565b9050919050565b5f61598a8261596f565b9050919050565b6159a261599d8261438d565b615980565b82525050565b5f819050919050565b6159c26159bd82614639565b6159a8565b82525050565b5f6159d482868861593f565b91506159e08285615991565b6014820191506159f082846159b1565b60208201915081905095945050505050565b5f615a0c826145c9565b615a168185615935565b9350615a268185602086016145d3565b80840191505092915050565b5f615a3d8284615a02565b915081905092915050565b7f4e6f74207065726d6974000000000000000000000000000000000000000000005f82015250565b5f615a7c600a83614f59565b9150615a8782615a48565b602082019050919050565b5f6020820190508181035f830152615aa981615a70565b9050919050565b7f4e487b71000000000000000000000000000000000000000000000000000000005f52602260045260245ffd5b5f6002820490506001821680615af457607f821691505b602082108103615b0757615b06615ab0565b5b50919050565b5f819050815f5260205f209050919050565b5f6020601f8301049050919050565b5f82821b905092915050565b5f60088302615b697fffffffffffffffffffffffffffffffffffffffffffffffffffffffffffffffff82615b2e565b615b738683615b2e565b95508019841693508086168417925050509392505050565b5f819050919050565b5f615bae615ba9615ba484614639565b615b8b565b614639565b9050919050565b5f819050919050565b615bc783615b94565b615bdb615bd382615bb5565b848454615b3a565b825550505050565b5f5f905090565b615bf2615be3565b615bfd818484615bbe565b505050565b5b81811015615c2057615c155f82615bea565b600181019050615c03565b5050565b601f821115615c6557615c3681615b0d565b615c3f84615b1f565b81016020851015615c4e578190505b615c62615c5a85615b1f565b830182615c02565b50505b505050565b5f82821c905092915050565b5f615c855f1984600802615c6a565b1980831691505092915050565b5f615c9d8383615c76565b9150826002028217905092915050565b615cb682614f4f565b67ffffffffffffffff811115615ccf57615cce6143fb565b5b615cd98254615add565b615ce4828285615c24565b5f60209050601f831160018114615d15575f8415615d03578287015190505b615d0d8582615c92565b865550615d74565b601f198416615d2386615b0d565b5f5b82811015615d4a57848901518255600182019150602085019450602081019050615d25565b86831015615d675784890151615d63601f891682615c76565b8355505b6001600288020188555050505b505050505050565b7f4e487b71000000000000000000000000000000000000000000000000000000005f52603260045260245ffd5b5f602082019050615dbc5f830184614fa1565b92915050565b7f4e6f7420617574686f72697a65640000000000000000000000000000000000005f82015250565b5f615df6600e83614f59565b9150615e0182615dc2565b602082019050919050565b5f6020820190508181035f830152615e2381615dea565b9050919050565b5f604082019050615e3d5f830185614fa1565b615e4a60208301846148c7565b9392505050565b5f5ffd5b5f5ffd5b5f5ffd5b5f5f83356001602003843603038112615e7957615e78615e51565b5b80840192508235915067ffffffffffffffff821115615e9b57615e9a615e55565b5b602083019250600182023603831315615eb757615eb6615e59565b5b509250929050565b5f615ecb82848661593f565b91508190509392505050565b7f4e487b71000000000000000000000000000000000000000000000000000000005f52601160045260245ffd5b5f615f0e82614639565b9150615f1983614639565b9250828203905081811115615f3157615f30615ed7565b5b92915050565b7f4e487b71000000000000000000000000000000000000000000000000000000005f52603160045260245ffd5b7f53706f757365206e6f7420666f756e64000000000000000000000000000000005f82015250565b5f615f98601083614f59565b9150615fa382615f64565b602082019050919050565b5f6020820190508181035f830152615fc581615f8c565b9050919050565b5f606082019050615fdf5f8301866148c7565b615fec6020830185614fa1565b615ff960408301846148c7565b949350505050565b5f6040820190506160145f8301856148c7565b6160216020830184614fa1565b9392505050565b5f60808201905061603b5f8301876148c7565b6160486020830186614fa1565b6160556040830185614346565b818103606083015261606781846145e1565b905095945050505050565b7f4e6f74206368696c64206f66207468697320706572736f6e00000000000000005f82015250565b5f6160a6601883614f59565b91506160b182616072565b602082019050919050565b5f6020820190508181035f8301526160d38161609a565b9050919050565b7f4368696c64206e6f7420666f756e6400000000000000000000000000000000005f82015250565b5f61610e600f83614f59565b9150616119826160da565b602082019050919050565b5f6020820190508181035f83015261613b81616102565b9050919050565b5f6060820190506161555f8301866148c7565b61616260208301856148c7565b61616f6040830184614fa1565b949350505050565b7f4f776e61626c653a206e6577206f776e657220697320746865207a65726f20615f8201527f6464726573730000000000000000000000000000000000000000000000000000602082015250565b5f6161d1602683614f59565b91506161dc82616177565b604082019050919050565b5f6020820190508181035f8301526161fe816161c5565b9050919050565b5f819050602082019050919050565b5f7fffffffffffffffffffffffffffffffffffffffff00000000000000000000000082169050919050565b5f61624a8251616214565b80915050919050565b5f61625d826145c9565b8261626784616205565b90506162728161623f565b925060148210156162b2576162ad7fffffffffffffffffffffffffffffffffffffffff00000000000000000000000083601403600802615b2e565b831692505b5050919050565b7f4f776e61626c653a2063616c6c6572206973206e6f7420746865206f776e65725f82015250565b5f6162ed602083614f59565b91506162f8826162b9565b602082019050919050565b5f6020820190508181035f83015261631a816162e1565b9050919050565b5f819050919050565b61633b61633682614558565b616321565b82525050565b5f61634c828561632a565b60208201915061635c828461632a565b6020820191508190509392505050565b5f60608201905061637f5f830186614fa1565b61638c60208301856148c7565b61639960408301846148c7565b949350505050565b5f6060820190506163b45f8301866148c7565b6163c16020830185614346565b81810360408301526163d381846145e1565b9050949350505050565b5f60a0820190506163f05f8301886148c7565b6163fd60208301876148c7565b61640a60408301866148c7565b6164176060830185614fa1565b818103608083015261642981846145e1565b90509695505050505050565b5f819050815f5260205f209050919050565b601f8211156164885761645981616435565b61646284615b1f565b81016020851015616471578190505b61648561647d85615b1f565b830182615c02565b50505b505050565b616496826145c9565b67ffffffffffffffff8111156164af576164ae6143fb565b5b6164b98254615add565b6164c4828285616447565b5f60209050601f8311600181146164f5575f84156164e3578287015190505b6164ed8582615c92565b865550616554565b601f19841661650386616435565b5f5b8281101561652a57848901518255600182019150602085019450602081019050616505565b868310156165475784890151616543601f891682615c76565b8355505b6001600288020188555050505b505050505050565b5f60408201905061656f5f830185614346565b818103602083015261658181846145e1565b90509392505050565b5f7fffffffffffffffffffff0000000000000000000000000000000000000000000082169050919050565b5f819050919050565b6165cf6165ca8261658a565b6165b5565b82525050565b5f7fffff00000000000000000000000000000000000000000000000000000000000082169050919050565b5f819050919050565b61661a616615826165d5565b616600565b82525050565b5f819050919050565b61663a61663582616214565b616620565b82525050565b5f61664b82866165be565b600a8201915061665b8285616609565b60028201915061666b8284616629565b601482019150819050949350505050565b5f6166878251614558565b80915050919050565b5f61669a826145c9565b826166a484616205565b90506166af8161667c565b925060208210156166ef576166ea7fffffffffffffffffffffffffffffffffffffffffffffffffffffffffffffffff83602003600802615b2e565b831692505b5050919050565b5f61670082614639565b91507fffffffffffffffffffffffffffffffffffffffffffffffffffffffffffffffff820361673257616731615ed7565b5b600182019050919050565b5f6040820190506167505f830185614fa1565b818103602083015261676281846145e1565b90509392505050565b5f61677d61677884614e1e565b614459565b905082815260208101848484011115616799576167986143f7565b5b6167a48482856145d3565b509392505050565b5f82601f8301126167c0576167bf6143f3565b5b81516167d084826020860161676b565b91505092915050565b5f602082840312156167ee576167ed6142b3565b5b5f82015167ffffffffffffffff81111561680b5761680a6142b7565b5b616817848285016167ac565b9150509291505056fea26469706673582212204752b1929514fcdc2dd15ef3ce7e19592ff982bac182fb533ebe2794a482f07e64736f6c634300081f0033",
			"opcodes": "PUSH1 0x80 PUSH1 0x40 MSTORE CALLVALUE DUP1 ISZERO PUSH2 0xF JUMPI PUSH0 PUSH0 REVERT JUMPDEST POP PUSH1 0x40 MLOAD PUSH2 0x80B6 CODESIZE SUB DUP1 PUSH2 0x80B6 DUP4 CODECOPY DUP2 DUP2 ADD PUSH1 0x40 MSTORE DUP2 ADD SWAP1 PUSH2 0x31 SWAP2 SWAP1 PUSH2 0xF96 JUMP JUMPDEST DUP7 PUSH1 0x40 MLOAD DUP1 PUSH1 0x40 ADD PUSH1 0x40 MSTORE DUP1 PUSH1 0x6 DUP2 MSTORE PUSH1 0x20 ADD PUSH32 0x46414D494C590000000000000000000000000000000000000000000000000000 DUP2 MSTORE POP DUP3 PUSH1 0x2 PUSH0 DUP5 DUP5 DUP5 DUP5 DUP2 PUSH2 0x8D PUSH2 0x82 PUSH2 0x2E9 PUSH1 0x20 SHL PUSH1 0x20 SHR JUMP JUMPDEST PUSH2 0x2F0 PUSH1 0x20 SHL PUSH1 0x20 SHR JUMP JUMPDEST PUSH0 PUSH20 0xFFFFFFFFFFFFFFFFFFFFFFFFFFFFFFFFFFFFFFFF AND DUP2 PUSH20 0xFFFFFFFFFFFFFFFFFFFFFFFFFFFFFFFFFFFFFFFF AND SUB PUSH2 0xF2 JUMPI PUSH1 0x40 MLOAD PUSH32 0x1AD8836C00000000000000000000000000000000000000000000000000000000 DUP2 MSTORE PUSH1 0x4 ADD PUSH1 0x40 MLOAD DUP1 SWAP2 SUB SWAP1 REVERT JUMPDEST PUSH2 0x101 DUP2 PUSH2 0x2F0 PUSH1 0x20 SHL PUSH1 0x20 SHR JUMP JUMPDEST POP PUSH2 0x169 PUSH32 0xEAFEC4D89FA9619884B60000A4D96624A38F7AC2D8D9A604ECF07C12C77E480C PUSH0 SHL PUSH1 0x40 MLOAD DUP1 PUSH1 0x40 ADD PUSH1 0x40 MSTORE DUP1 PUSH1 0x4 DUP2 MSTORE PUSH1 0x20 ADD PUSH32 0xA4D9662400000000000000000000000000000000000000000000000000000000 DUP2 MSTORE POP PUSH2 0x3B1 PUSH1 0x20 SHL PUSH1 0x20 SHR JUMP JUMPDEST PUSH2 0x19B PUSH32 0xDEBA1E292F8BA88238E10AB3C7F88BD4BE4FAC56CAD5194B6ECCEAF653468AF1 PUSH0 SHL DUP6 PUSH2 0x3B1 PUSH1 0x20 SHL PUSH1 0x20 SHR JUMP JUMPDEST PUSH2 0x1CD PUSH32 0x2F0A68AB07768E01943A599E73362A0E17A63A72E94DD2E384D2C1D4DB932756 PUSH0 SHL DUP5 PUSH2 0x3B1 PUSH1 0x20 SHL PUSH1 0x20 SHR JUMP JUMPDEST PUSH2 0x21E PUSH32 0xE0261FA95DB2EB3B5439BD033CDA66D56B96F92F243A8228FD87550ED7BDFDB3 PUSH0 SHL DUP3 PUSH1 0x40 MLOAD PUSH1 0x20 ADD PUSH2 0x204 SWAP2 SWAP1 PUSH2 0x10BD JUMP JUMPDEST PUSH1 0x40 MLOAD PUSH1 0x20 DUP2 DUP4 SUB SUB DUP2 MSTORE SWAP1 PUSH1 0x40 MSTORE PUSH2 0x3B1 PUSH1 0x20 SHL PUSH1 0x20 SHR JUMP JUMPDEST POP POP POP POP PUSH2 0x273 PUSH32 0xF675E9361AF1C1664C1868CFA3EB97672D6B1A513AA5B81DEC34C9EE330E818D PUSH0 SHL DUP3 PUSH1 0x40 MLOAD PUSH1 0x20 ADD PUSH2 0x259 SWAP2 SWAP1 PUSH2 0x10BD JUMP JUMPDEST PUSH1 0x40 MLOAD PUSH1 0x20 DUP2 DUP4 SUB SUB DUP2 MSTORE SWAP1 PUSH1 0x40 MSTORE PUSH2 0x40C PUSH1 0x20 SHL PUSH1 0x20 SHR JUMP JUMPDEST POP POP POP POP POP CALLER PUSH1 0x8 PUSH0 PUSH2 0x100 EXP DUP2 SLOAD DUP2 PUSH20 0xFFFFFFFFFFFFFFFFFFFFFFFFFFFFFFFFFFFFFFFF MUL NOT AND SWAP1 DUP4 PUSH20 0xFFFFFFFFFFFFFFFFFFFFFFFFFFFFFFFFFFFFFFFF AND MUL OR SWAP1 SSTORE POP DUP6 PUSH1 0x9 SWAP1 DUP2 PUSH2 0x2C7 SWAP2 SWAP1 PUSH2 0x12DD JUMP JUMPDEST POP PUSH2 0x2DC DUP6 DUP6 DUP4 PUSH0 DUP8 DUP8 PUSH2 0x578 PUSH1 0x20 SHL PUSH1 0x20 SHR JUMP JUMPDEST POP POP POP POP POP POP POP POP PUSH2 0x1853 JUMP JUMPDEST PUSH0 CALLER SWAP1 POP SWAP1 JUMP JUMPDEST PUSH0 PUSH0 PUSH0 SWAP1 SLOAD SWAP1 PUSH2 0x100 EXP SWAP1 DIV PUSH20 0xFFFFFFFFFFFFFFFFFFFFFFFFFFFFFFFFFFFFFFFF AND SWAP1 POP DUP2 PUSH0 PUSH0 PUSH2 0x100 EXP DUP2 SLOAD DUP2 PUSH20 0xFFFFFFFFFFFFFFFFFFFFFFFFFFFFFFFFFFFFFFFF MUL NOT AND SWAP1 DUP4 PUSH20 0xFFFFFFFFFFFFFFFFFFFFFFFFFFFFFFFFFFFFFFFF AND MUL OR SWAP1 SSTORE POP DUP2 PUSH20 0xFFFFFFFFFFFFFFFFFFFFFFFFFFFFFFFFFFFFFFFF AND DUP2 PUSH20 0xFFFFFFFFFFFFFFFFFFFFFFFFFFFFFFFFFFFFFFFF AND PUSH32 0x8BE0079C531659141344CD1FD0A4F28419497F9722A3DAAFE3B4186F6B6457E0 PUSH1 0x40 MLOAD PUSH1 0x40 MLOAD DUP1 SWAP2 SUB SWAP1 LOG3 POP POP JUMP JUMPDEST DUP1 PUSH1 0x1 PUSH0 DUP5 DUP2 MSTORE PUSH1 0x20 ADD SWAP1 DUP2 MSTORE PUSH1 0x20 ADD PUSH0 KECCAK256 SWAP1 DUP2 PUSH2 0x3CF SWAP2 SWAP1 PUSH2 0x140E JUMP JUMPDEST POP DUP2 PUSH32 0xECE574603820D07BC9B91F2A932BAADF4628AABCB8AFBA49776529C14A6104B2 DUP3 PUSH1 0x40 MLOAD PUSH2 0x400 SWAP2 SWAP1 PUSH2 0x1525 JUMP JUMPDEST PUSH1 0x40 MLOAD DUP1 SWAP2 SUB SWAP1 LOG2 POP POP JUMP JUMPDEST PUSH32 0xDEBA1E292F8BA88238E10AB3C7F88BD4BE4FAC56CAD5194B6ECCEAF653468AF1 PUSH0 SHL DUP3 SUB PUSH2 0x467 JUMPI PUSH1 0x40 MLOAD PUSH32 0x85C169BD00000000000000000000000000000000000000000000000000000000 DUP2 MSTORE PUSH1 0x4 ADD PUSH1 0x40 MLOAD DUP1 SWAP2 SUB SWAP1 REVERT JUMPDEST PUSH32 0x2F0A68AB07768E01943A599E73362A0E17A63A72E94DD2E384D2C1D4DB932756 PUSH0 SHL DUP3 SUB PUSH2 0x4C2 JUMPI PUSH1 0x40 MLOAD PUSH32 0x76755B3800000000000000000000000000000000000000000000000000000000 DUP2 MSTORE PUSH1 0x4 ADD PUSH1 0x40 MLOAD DUP1 SWAP2 SUB SWAP1 REVERT JUMPDEST PUSH32 0xE0261FA95DB2EB3B5439BD033CDA66D56B96F92F243A8228FD87550ED7BDFDB3 PUSH0 SHL DUP3 SUB PUSH2 0x51D JUMPI PUSH1 0x40 MLOAD PUSH32 0x4EF6D7FB00000000000000000000000000000000000000000000000000000000 DUP2 MSTORE PUSH1 0x4 ADD PUSH1 0x40 MLOAD DUP1 SWAP2 SUB SWAP1 REVERT JUMPDEST DUP1 PUSH1 0x1 PUSH0 DUP5 DUP2 MSTORE PUSH1 0x20 ADD SWAP1 DUP2 MSTORE PUSH1 0x20 ADD PUSH0 KECCAK256 SWAP1 DUP2 PUSH2 0x53B SWAP2 SWAP1 PUSH2 0x140E JUMP JUMPDEST POP DUP2 PUSH32 0xECE574603820D07BC9B91F2A932BAADF4628AABCB8AFBA49776529C14A6104B2 DUP3 PUSH1 0x40 MLOAD PUSH2 0x56C SWAP2 SWAP1 PUSH2 0x1525 JUMP JUMPDEST PUSH1 0x40 MLOAD DUP1 SWAP2 SUB SWAP1 LOG2 POP POP JUMP JUMPDEST PUSH0 PUSH2 0x589 PUSH1 0x6 PUSH2 0x733 PUSH1 0x20 SHL PUSH1 0x20 SHR JUMP JUMPDEST PUSH2 0x599 PUSH1 0x6 PUSH2 0x747 PUSH1 0x20 SHL PUSH1 0x20 SHR JUMP JUMPDEST PUSH0 SHL SWAP1 POP PUSH2 0x5BE DUP6 DUP3 PUSH1 0x1 PUSH1 0x40 MLOAD DUP1 PUSH1 0x20 ADD PUSH1 0x40 MSTORE DUP1 PUSH0 DUP2 MSTORE POP PUSH2 0x753 PUSH1 0x20 SHL PUSH1 0x20 SHR JUMP JUMPDEST PUSH0 PUSH1 0x7 PUSH0 DUP4 DUP2 MSTORE PUSH1 0x20 ADD SWAP1 DUP2 MSTORE PUSH1 0x20 ADD PUSH0 KECCAK256 SWAP1 POP DUP8 DUP2 PUSH0 ADD SWAP1 DUP2 PUSH2 0x5E2 SWAP2 SWAP1 PUSH2 0x12DD JUMP JUMPDEST POP DUP4 DUP2 PUSH1 0x6 ADD PUSH0 DUP3 ADD MLOAD DUP2 PUSH0 ADD PUSH0 PUSH2 0x100 EXP DUP2 SLOAD DUP2 PUSH2 0xFFFF MUL NOT AND SWAP1 DUP4 PUSH2 0xFFFF AND MUL OR SWAP1 SSTORE POP PUSH1 0x20 DUP3 ADD MLOAD DUP2 PUSH0 ADD PUSH1 0x2 PUSH2 0x100 EXP DUP2 SLOAD DUP2 PUSH1 0xFF MUL NOT AND SWAP1 DUP4 PUSH1 0xFF AND MUL OR SWAP1 SSTORE POP PUSH1 0x40 DUP3 ADD MLOAD DUP2 PUSH0 ADD PUSH1 0x3 PUSH2 0x100 EXP DUP2 SLOAD DUP2 PUSH1 0xFF MUL NOT AND SWAP1 DUP4 PUSH1 0xFF AND MUL OR SWAP1 SSTORE POP SWAP1 POP POP DUP3 DUP2 PUSH1 0x7 ADD PUSH0 DUP3 ADD MLOAD DUP2 PUSH0 ADD PUSH0 PUSH2 0x100 EXP DUP2 SLOAD DUP2 PUSH2 0xFFFF MUL NOT AND SWAP1 DUP4 PUSH2 0xFFFF AND MUL OR SWAP1 SSTORE POP PUSH1 0x20 DUP3 ADD MLOAD DUP2 PUSH0 ADD PUSH1 0x2 PUSH2 0x100 EXP DUP2 SLOAD DUP2 PUSH1 0xFF MUL NOT AND SWAP1 DUP4 PUSH1 0xFF AND MUL OR SWAP1 SSTORE POP PUSH1 0x40 DUP3 ADD MLOAD DUP2 PUSH0 ADD PUSH1 0x3 PUSH2 0x100 EXP DUP2 SLOAD DUP2 PUSH1 0xFF MUL NOT AND SWAP1 DUP4 PUSH1 0xFF AND MUL OR SWAP1 SSTORE POP SWAP1 POP POP DUP5 DUP2 PUSH1 0x5 ADD PUSH0 PUSH2 0x100 EXP DUP2 SLOAD DUP2 PUSH1 0xFF MUL NOT AND SWAP1 DUP4 PUSH1 0x2 DUP2 GT ISZERO PUSH2 0x6D9 JUMPI PUSH2 0x6D8 PUSH2 0x1545 JUMP JUMPDEST JUMPDEST MUL OR SWAP1 SSTORE POP DUP7 DUP2 PUSH1 0x8 ADD SWAP1 DUP2 PUSH2 0x6EF SWAP2 SWAP1 PUSH2 0x12DD JUMP JUMPDEST POP DUP2 PUSH32 0xA6912C28A8CB5FC5CAB504E471CFA6BC504444025484D810E2565BC7DEAD6657 DUP8 PUSH1 0x40 MLOAD PUSH2 0x720 SWAP2 SWAP1 PUSH2 0x1581 JUMP JUMPDEST PUSH1 0x40 MLOAD DUP1 SWAP2 SUB SWAP1 LOG2 POP SWAP7 SWAP6 POP POP POP POP POP POP JUMP JUMPDEST PUSH1 0x1 DUP2 PUSH0 ADD PUSH0 DUP3 DUP3 SLOAD ADD SWAP3 POP POP DUP2 SWAP1 SSTORE POP POP JUMP JUMPDEST PUSH0 DUP2 PUSH0 ADD SLOAD SWAP1 POP SWAP2 SWAP1 POP JUMP JUMPDEST PUSH0 PUSH20 0xFFFFFFFFFFFFFFFFFFFFFFFFFFFFFFFFFFFFFFFF AND DUP5 PUSH20 0xFFFFFFFFFFFFFFFFFFFFFFFFFFFFFFFFFFFFFFFF AND SUB PUSH2 0x7B8 JUMPI PUSH1 0x40 MLOAD PUSH32 0x24ECEF4D00000000000000000000000000000000000000000000000000000000 DUP2 MSTORE PUSH1 0x4 ADD PUSH1 0x40 MLOAD DUP1 SWAP2 SUB SWAP1 REVERT JUMPDEST PUSH2 0x7C7 DUP4 PUSH2 0x9E1 PUSH1 0x20 SHL PUSH1 0x20 SHR JUMP JUMPDEST ISZERO PUSH2 0x809 JUMPI DUP3 PUSH1 0x40 MLOAD PUSH32 0x34C7B51100000000000000000000000000000000000000000000000000000000 DUP2 MSTORE PUSH1 0x4 ADD PUSH2 0x800 SWAP2 SWAP1 PUSH2 0x15B2 JUMP JUMPDEST PUSH1 0x40 MLOAD DUP1 SWAP2 SUB SWAP1 REVERT JUMPDEST PUSH2 0x81C PUSH0 DUP6 DUP6 DUP6 DUP6 PUSH2 0xA49 PUSH1 0x20 SHL PUSH1 0x20 SHR JUMP JUMPDEST PUSH2 0x82B DUP4 PUSH2 0x9E1 PUSH1 0x20 SHL PUSH1 0x20 SHR JUMP JUMPDEST ISZERO PUSH2 0x86D JUMPI DUP3 PUSH1 0x40 MLOAD PUSH32 0x34C7B51100000000000000000000000000000000000000000000000000000000 DUP2 MSTORE PUSH1 0x4 ADD PUSH2 0x864 SWAP2 SWAP1 PUSH2 0x15B2 JUMP JUMPDEST PUSH1 0x40 MLOAD DUP1 SWAP2 SUB SWAP1 REVERT JUMPDEST PUSH1 0x2 PUSH0 DUP2 SLOAD PUSH2 0x87B SWAP1 PUSH2 0x15F8 JUMP JUMPDEST SWAP2 SWAP1 POP DUP2 SWAP1 SSTORE POP PUSH2 0x8D1 DUP4 PUSH1 0x4 PUSH0 DUP8 PUSH20 0xFFFFFFFFFFFFFFFFFFFFFFFFFFFFFFFFFFFFFFFF AND PUSH20 0xFFFFFFFFFFFFFFFFFFFFFFFFFFFFFFFFFFFFFFFF AND DUP2 MSTORE PUSH1 0x20 ADD SWAP1 DUP2 MSTORE PUSH1 0x20 ADD PUSH0 KECCAK256 PUSH2 0xA50 PUSH1 0x20 SHL SWAP1 SWAP2 SWAP1 PUSH1 0x20 SHR JUMP JUMPDEST POP DUP4 PUSH1 0x3 PUSH0 DUP6 DUP2 MSTORE PUSH1 0x20 ADD SWAP1 DUP2 MSTORE PUSH1 0x20 ADD PUSH0 KECCAK256 PUSH0 PUSH2 0x100 EXP DUP2 SLOAD DUP2 PUSH20 0xFFFFFFFFFFFFFFFFFFFFFFFFFFFFFFFFFFFFFFFF MUL NOT AND SWAP1 DUP4 PUSH20 0xFFFFFFFFFFFFFFFFFFFFFFFFFFFFFFFFFFFFFFFF AND MUL OR SWAP1 SSTORE POP DUP3 DUP5 PUSH20 0xFFFFFFFFFFFFFFFFFFFFFFFFFFFFFFFFFFFFFFFF AND PUSH0 PUSH20 0xFFFFFFFFFFFFFFFFFFFFFFFFFFFFFFFFFFFFFFFF AND PUSH32 0xB333C813A7426A7A11E2B190CAD52C44119421594B47F6F32ACE6D8C7207B2BF CALLER DUP7 DUP7 PUSH1 0x40 MLOAD PUSH2 0x983 SWAP4 SWAP3 SWAP2 SWAP1 PUSH2 0x1659 JUMP JUMPDEST PUSH1 0x40 MLOAD DUP1 SWAP2 SUB SWAP1 LOG4 PUSH2 0x99E PUSH0 DUP6 DUP6 DUP6 DUP6 PUSH2 0xA6B PUSH1 0x20 SHL PUSH1 0x20 SHR JUMP JUMPDEST PUSH0 CALLER PUSH0 DUP7 DUP7 DUP6 PUSH1 0x40 MLOAD PUSH1 0x20 ADD PUSH2 0x9B8 SWAP6 SWAP5 SWAP4 SWAP3 SWAP2 SWAP1 PUSH2 0x1695 JUMP JUMPDEST PUSH1 0x40 MLOAD PUSH1 0x20 DUP2 DUP4 SUB SUB DUP2 MSTORE SWAP1 PUSH1 0x40 MSTORE SWAP1 POP PUSH2 0x9DA DUP6 DUP5 DUP4 PUSH2 0xA72 PUSH1 0x20 SHL PUSH1 0x20 SHR JUMP JUMPDEST POP POP POP POP POP JUMP JUMPDEST PUSH0 PUSH0 PUSH20 0xFFFFFFFFFFFFFFFFFFFFFFFFFFFFFFFFFFFFFFFF AND PUSH1 0x3 PUSH0 DUP5 DUP2 MSTORE PUSH1 0x20 ADD SWAP1 DUP2 MSTORE PUSH1 0x20 ADD PUSH0 KECCAK256 PUSH0 SWAP1 SLOAD SWAP1 PUSH2 0x100 EXP SWAP1 DIV PUSH20 0xFFFFFFFFFFFFFFFFFFFFFFFFFFFFFFFFFFFFFFFF AND PUSH20 0xFFFFFFFFFFFFFFFFFFFFFFFFFFFFFFFFFFFFFFFF AND EQ ISZERO SWAP1 POP SWAP2 SWAP1 POP JUMP JUMPDEST POP POP POP POP POP JUMP JUMPDEST PUSH0 PUSH2 0xA63 DUP4 PUSH0 ADD DUP4 PUSH2 0xBD7 PUSH1 0x20 SHL PUSH1 0x20 SHR JUMP JUMPDEST SWAP1 POP SWAP3 SWAP2 POP POP JUMP JUMPDEST POP POP POP POP POP JUMP JUMPDEST PUSH2 0xA89 DUP4 PUSH4 0x6BB56A14 PUSH1 0xE0 SHL PUSH2 0xC44 PUSH1 0x20 SHL PUSH1 0x20 SHR JUMP JUMPDEST ISZERO PUSH2 0xB34 JUMPI DUP3 PUSH20 0xFFFFFFFFFFFFFFFFFFFFFFFFFFFFFFFFFFFFFFFF AND PUSH4 0x6BB56A14 PUSH32 0xB084A55EBF70FD3C06FD755269DAC2212C4D3F0F4D09079780BFA50C1B2984D PUSH0 SHL DUP4 PUSH1 0x40 MLOAD DUP4 PUSH4 0xFFFFFFFF AND PUSH1 0xE0 SHL DUP2 MSTORE PUSH1 0x4 ADD PUSH2 0xAEB SWAP3 SWAP2 SWAP1 PUSH2 0x16ED JUMP JUMPDEST PUSH0 PUSH1 0x40 MLOAD DUP1 DUP4 SUB DUP2 PUSH0 DUP8 GAS CALL ISZERO DUP1 ISZERO PUSH2 0xB06 JUMPI RETURNDATASIZE PUSH0 PUSH0 RETURNDATACOPY RETURNDATASIZE PUSH0 REVERT JUMPDEST POP POP POP POP PUSH1 0x40 MLOAD RETURNDATASIZE PUSH0 DUP3 RETURNDATACOPY RETURNDATASIZE PUSH1 0x1F NOT PUSH1 0x1F DUP3 ADD AND DUP3 ADD DUP1 PUSH1 0x40 MSTORE POP DUP2 ADD SWAP1 PUSH2 0xB2E SWAP2 SWAP1 PUSH2 0x17B9 JUMP JUMPDEST POP PUSH2 0xBD2 JUMP JUMPDEST DUP2 PUSH2 0xBD1 JUMPI PUSH0 DUP4 PUSH20 0xFFFFFFFFFFFFFFFFFFFFFFFFFFFFFFFFFFFFFFFF AND EXTCODESIZE EQ PUSH2 0xB94 JUMPI DUP3 PUSH1 0x40 MLOAD PUSH32 0x4349776D00000000000000000000000000000000000000000000000000000000 DUP2 MSTORE PUSH1 0x4 ADD PUSH2 0xB8B SWAP2 SWAP1 PUSH2 0x1581 JUMP JUMPDEST PUSH1 0x40 MLOAD DUP1 SWAP2 SUB SWAP1 REVERT JUMPDEST DUP3 PUSH1 0x40 MLOAD PUSH32 0x317313700000000000000000000000000000000000000000000000000000000 DUP2 MSTORE PUSH1 0x4 ADD PUSH2 0xBC8 SWAP2 SWAP1 PUSH2 0x1581 JUMP JUMPDEST PUSH1 0x40 MLOAD DUP1 SWAP2 SUB SWAP1 REVERT JUMPDEST JUMPDEST POP POP POP JUMP JUMPDEST PUSH0 PUSH2 0xBE8 DUP4 DUP4 PUSH2 0xCFD PUSH1 0x20 SHL PUSH1 0x20 SHR JUMP JUMPDEST PUSH2 0xC3A JUMPI DUP3 PUSH0 ADD DUP3 SWAP1 DUP1 PUSH1 0x1 DUP2 SLOAD ADD DUP1 DUP3 SSTORE DUP1 SWAP2 POP POP PUSH1 0x1 SWAP1 SUB SWAP1 PUSH0 MSTORE PUSH1 0x20 PUSH0 KECCAK256 ADD PUSH0 SWAP1 SWAP2 SWAP1 SWAP2 SWAP1 SWAP2 POP SSTORE DUP3 PUSH0 ADD DUP1 SLOAD SWAP1 POP DUP4 PUSH1 0x1 ADD PUSH0 DUP5 DUP2 MSTORE PUSH1 0x20 ADD SWAP1 DUP2 MSTORE PUSH1 0x20 ADD PUSH0 KECCAK256 DUP2 SWAP1 SSTORE POP PUSH1 0x1 SWAP1 POP PUSH2 0xC3E JUMP JUMPDEST PUSH0 SWAP1 POP JUMPDEST SWAP3 SWAP2 POP POP JUMP JUMPDEST PUSH0 PUSH0 PUSH4 0x1FFC9A7 PUSH1 0xE0 SHL DUP4 PUSH1 0x40 MLOAD PUSH1 0x24 ADD PUSH2 0xC5F SWAP2 SWAP1 PUSH2 0x183A JUMP JUMPDEST PUSH1 0x40 MLOAD PUSH1 0x20 DUP2 DUP4 SUB SUB DUP2 MSTORE SWAP1 PUSH1 0x40 MSTORE SWAP1 PUSH28 0xFFFFFFFFFFFFFFFFFFFFFFFFFFFFFFFFFFFFFFFFFFFFFFFFFFFFFFFF NOT AND PUSH1 0x20 DUP3 ADD DUP1 MLOAD PUSH28 0xFFFFFFFFFFFFFFFFFFFFFFFFFFFFFFFFFFFFFFFFFFFFFFFFFFFFFFFF DUP4 DUP2 DUP4 AND OR DUP4 MSTORE POP POP POP POP SWAP1 POP PUSH0 PUSH0 PUSH0 PUSH1 0x20 PUSH0 DUP6 MLOAD PUSH1 0x20 DUP8 ADD DUP11 PUSH2 0x7530 STATICCALL SWAP3 POP RETURNDATASIZE SWAP2 POP PUSH0 MLOAD SWAP1 POP DUP3 DUP1 ISZERO PUSH2 0xCE6 JUMPI POP PUSH1 0x20 DUP3 LT ISZERO JUMPDEST DUP1 ISZERO PUSH2 0xCF1 JUMPI POP PUSH0 DUP2 GT JUMPDEST SWAP5 POP POP POP POP POP SWAP3 SWAP2 POP POP JUMP JUMPDEST PUSH0 PUSH0 DUP4 PUSH1 0x1 ADD PUSH0 DUP5 DUP2 MSTORE PUSH1 0x20 ADD SWAP1 DUP2 MSTORE PUSH1 0x20 ADD PUSH0 KECCAK256 SLOAD EQ ISZERO SWAP1 POP SWAP3 SWAP2 POP POP JUMP JUMPDEST PUSH0 PUSH1 0x40 MLOAD SWAP1 POP SWAP1 JUMP JUMPDEST PUSH0 PUSH0 REVERT JUMPDEST PUSH0 PUSH0 REVERT JUMPDEST PUSH0 PUSH0 REVERT JUMPDEST PUSH0 PUSH0 REVERT JUMPDEST PUSH0 PUSH1 0x1F NOT PUSH1 0x1F DUP4 ADD AND SWAP1 POP SWAP2 SWAP1 POP JUMP JUMPDEST PUSH32 0x4E487B7100000000000000000000000000000000000000000000000000000000 PUSH0 MSTORE PUSH1 0x41 PUSH1 0x4 MSTORE PUSH1 0x24 PUSH0 REVERT JUMPDEST PUSH2 0xD7C DUP3 PUSH2 0xD36 JUMP JUMPDEST DUP2 ADD DUP2 DUP2 LT PUSH8 0xFFFFFFFFFFFFFFFF DUP3 GT OR ISZERO PUSH2 0xD9B JUMPI PUSH2 0xD9A PUSH2 0xD46 JUMP JUMPDEST JUMPDEST DUP1 PUSH1 0x40 MSTORE POP POP POP JUMP JUMPDEST PUSH0 PUSH2 0xDAD PUSH2 0xD1D JUMP JUMPDEST SWAP1 POP PUSH2 0xDB9 DUP3 DUP3 PUSH2 0xD73 JUMP JUMPDEST SWAP2 SWAP1 POP JUMP JUMPDEST PUSH0 PUSH8 0xFFFFFFFFFFFFFFFF DUP3 GT ISZERO PUSH2 0xDD8 JUMPI PUSH2 0xDD7 PUSH2 0xD46 JUMP JUMPDEST JUMPDEST PUSH2 0xDE1 DUP3 PUSH2 0xD36 JUMP JUMPDEST SWAP1 POP PUSH1 0x20 DUP2 ADD SWAP1 POP SWAP2 SWAP1 POP JUMP JUMPDEST DUP3 DUP2 DUP4 MCOPY PUSH0 DUP4 DUP4 ADD MSTORE POP POP POP JUMP JUMPDEST PUSH0 PUSH2 0xE0E PUSH2 0xE09 DUP5 PUSH2 0xDBE JUMP JUMPDEST PUSH2 0xDA4 JUMP JUMPDEST SWAP1 POP DUP3 DUP2 MSTORE PUSH1 0x20 DUP2 ADD DUP5 DUP5 DUP5 ADD GT ISZERO PUSH2 0xE2A JUMPI PUSH2 0xE29 PUSH2 0xD32 JUMP JUMPDEST JUMPDEST PUSH2 0xE35 DUP5 DUP3 DUP6 PUSH2 0xDEE JUMP JUMPDEST POP SWAP4 SWAP3 POP POP POP JUMP JUMPDEST PUSH0 DUP3 PUSH1 0x1F DUP4 ADD SLT PUSH2 0xE51 JUMPI PUSH2 0xE50 PUSH2 0xD2E JUMP JUMPDEST JUMPDEST DUP2 MLOAD PUSH2 0xE61 DUP5 DUP3 PUSH1 0x20 DUP7 ADD PUSH2 0xDFC JUMP JUMPDEST SWAP2 POP POP SWAP3 SWAP2 POP POP JUMP JUMPDEST PUSH0 PUSH0 REVERT JUMPDEST PUSH0 PUSH2 0xFFFF DUP3 AND SWAP1 POP SWAP2 SWAP1 POP JUMP JUMPDEST PUSH2 0xE84 DUP2 PUSH2 0xE6E JUMP JUMPDEST DUP2 EQ PUSH2 0xE8E JUMPI PUSH0 PUSH0 REVERT JUMPDEST POP JUMP JUMPDEST PUSH0 DUP2 MLOAD SWAP1 POP PUSH2 0xE9F DUP2 PUSH2 0xE7B JUMP JUMPDEST SWAP3 SWAP2 POP POP JUMP JUMPDEST PUSH0 PUSH1 0xFF DUP3 AND SWAP1 POP SWAP2 SWAP1 POP JUMP JUMPDEST PUSH2 0xEBA DUP2 PUSH2 0xEA5 JUMP JUMPDEST DUP2 EQ PUSH2 0xEC4 JUMPI PUSH0 PUSH0 REVERT JUMPDEST POP JUMP JUMPDEST PUSH0 DUP2 MLOAD SWAP1 POP PUSH2 0xED5 DUP2 PUSH2 0xEB1 JUMP JUMPDEST SWAP3 SWAP2 POP POP JUMP JUMPDEST PUSH0 PUSH1 0x60 DUP3 DUP5 SUB SLT ISZERO PUSH2 0xEF0 JUMPI PUSH2 0xEEF PUSH2 0xE6A JUMP JUMPDEST JUMPDEST PUSH2 0xEFA PUSH1 0x60 PUSH2 0xDA4 JUMP JUMPDEST SWAP1 POP PUSH0 PUSH2 0xF09 DUP5 DUP3 DUP6 ADD PUSH2 0xE91 JUMP JUMPDEST PUSH0 DUP4 ADD MSTORE POP PUSH1 0x20 PUSH2 0xF1C DUP5 DUP3 DUP6 ADD PUSH2 0xEC7 JUMP JUMPDEST PUSH1 0x20 DUP4 ADD MSTORE POP PUSH1 0x40 PUSH2 0xF30 DUP5 DUP3 DUP6 ADD PUSH2 0xEC7 JUMP JUMPDEST PUSH1 0x40 DUP4 ADD MSTORE POP SWAP3 SWAP2 POP POP JUMP JUMPDEST PUSH0 PUSH20 0xFFFFFFFFFFFFFFFFFFFFFFFFFFFFFFFFFFFFFFFF DUP3 AND SWAP1 POP SWAP2 SWAP1 POP JUMP JUMPDEST PUSH0 PUSH2 0xF65 DUP3 PUSH2 0xF3C JUMP JUMPDEST SWAP1 POP SWAP2 SWAP1 POP JUMP JUMPDEST PUSH2 0xF75 DUP2 PUSH2 0xF5B JUMP JUMPDEST DUP2 EQ PUSH2 0xF7F JUMPI PUSH0 PUSH0 REVERT JUMPDEST POP JUMP JUMPDEST PUSH0 DUP2 MLOAD SWAP1 POP PUSH2 0xF90 DUP2 PUSH2 0xF6C JUMP JUMPDEST SWAP3 SWAP2 POP POP JUMP JUMPDEST PUSH0 PUSH0 PUSH0 PUSH0 PUSH0 PUSH0 PUSH0 PUSH2 0x160 DUP9 DUP11 SUB SLT ISZERO PUSH2 0xFB2 JUMPI PUSH2 0xFB1 PUSH2 0xD26 JUMP JUMPDEST JUMPDEST PUSH0 DUP9 ADD MLOAD PUSH8 0xFFFFFFFFFFFFFFFF DUP2 GT ISZERO PUSH2 0xFCF JUMPI PUSH2 0xFCE PUSH2 0xD2A JUMP JUMPDEST JUMPDEST PUSH2 0xFDB DUP11 DUP3 DUP12 ADD PUSH2 0xE3D JUMP JUMPDEST SWAP8 POP POP PUSH1 0x20 DUP9 ADD MLOAD PUSH8 0xFFFFFFFFFFFFFFFF DUP2 GT ISZERO PUSH2 0xFFC JUMPI PUSH2 0xFFB PUSH2 0xD2A JUMP JUMPDEST JUMPDEST PUSH2 0x1008 DUP11 DUP3 DUP12 ADD PUSH2 0xE3D JUMP JUMPDEST SWAP7 POP POP PUSH1 0x40 DUP9 ADD MLOAD PUSH8 0xFFFFFFFFFFFFFFFF DUP2 GT ISZERO PUSH2 0x1029 JUMPI PUSH2 0x1028 PUSH2 0xD2A JUMP JUMPDEST JUMPDEST PUSH2 0x1035 DUP11 DUP3 DUP12 ADD PUSH2 0xE3D JUMP JUMPDEST SWAP6 POP POP PUSH1 0x60 DUP9 ADD MLOAD PUSH8 0xFFFFFFFFFFFFFFFF DUP2 GT ISZERO PUSH2 0x1056 JUMPI PUSH2 0x1055 PUSH2 0xD2A JUMP JUMPDEST JUMPDEST PUSH2 0x1062 DUP11 DUP3 DUP12 ADD PUSH2 0xE3D JUMP JUMPDEST SWAP5 POP POP PUSH1 0x80 PUSH2 0x1073 DUP11 DUP3 DUP12 ADD PUSH2 0xEDB JUMP JUMPDEST SWAP4 POP POP PUSH1 0xE0 PUSH2 0x1084 DUP11 DUP3 DUP12 ADD PUSH2 0xEDB JUMP JUMPDEST SWAP3 POP POP PUSH2 0x140 PUSH2 0x1096 DUP11 DUP3 DUP12 ADD PUSH2 0xF82 JUMP JUMPDEST SWAP2 POP POP SWAP3 SWAP6 SWAP9 SWAP2 SWAP5 SWAP8 POP SWAP3 SWAP6 POP JUMP JUMPDEST PUSH0 DUP2 SWAP1 POP SWAP2 SWAP1 POP JUMP JUMPDEST PUSH2 0x10B7 DUP2 PUSH2 0x10A5 JUMP JUMPDEST DUP3 MSTORE POP POP JUMP JUMPDEST PUSH0 PUSH1 0x20 DUP3 ADD SWAP1 POP PUSH2 0x10D0 PUSH0 DUP4 ADD DUP5 PUSH2 0x10AE JUMP JUMPDEST SWAP3 SWAP2 POP POP JUMP JUMPDEST PUSH0 DUP2 MLOAD SWAP1 POP SWAP2 SWAP1 POP JUMP JUMPDEST PUSH32 0x4E487B7100000000000000000000000000000000000000000000000000000000 PUSH0 MSTORE PUSH1 0x22 PUSH1 0x4 MSTORE PUSH1 0x24 PUSH0 REVERT JUMPDEST PUSH0 PUSH1 0x2 DUP3 DIV SWAP1 POP PUSH1 0x1 DUP3 AND DUP1 PUSH2 0x1124 JUMPI PUSH1 0x7F DUP3 AND SWAP2 POP JUMPDEST PUSH1 0x20 DUP3 LT DUP2 SUB PUSH2 0x1137 JUMPI PUSH2 0x1136 PUSH2 0x10E0 JUMP JUMPDEST JUMPDEST POP SWAP2 SWAP1 POP JUMP JUMPDEST PUSH0 DUP2 SWAP1 POP DUP2 PUSH0 MSTORE PUSH1 0x20 PUSH0 KECCAK256 SWAP1 POP SWAP2 SWAP1 POP JUMP JUMPDEST PUSH0 PUSH1 0x20 PUSH1 0x1F DUP4 ADD DIV SWAP1 POP SWAP2 SWAP1 POP JUMP JUMPDEST PUSH0 DUP3 DUP3 SHL SWAP1 POP SWAP3 SWAP2 POP POP JUMP JUMPDEST PUSH0 PUSH1 0x8 DUP4 MUL PUSH2 0x1199 PUSH32 0xFFFFFFFFFFFFFFFFFFFFFFFFFFFFFFFFFFFFFFFFFFFFFFFFFFFFFFFFFFFFFFFF DUP3 PUSH2 0x115E JUMP JUMPDEST PUSH2 0x11A3 DUP7 DUP4 PUSH2 0x115E JUMP JUMPDEST SWAP6 POP DUP1 NOT DUP5 AND SWAP4 POP DUP1 DUP7 AND DUP5 OR SWAP3 POP POP POP SWAP4 SWAP3 POP POP POP JUMP JUMPDEST PUSH0 DUP2 SWAP1 POP SWAP2 SWAP1 POP JUMP JUMPDEST PUSH0 PUSH2 0x11DE PUSH2 0x11D9 PUSH2 0x11D4 DUP5 PUSH2 0x10A5 JUMP JUMPDEST PUSH2 0x11BB JUMP JUMPDEST PUSH2 0x10A5 JUMP JUMPDEST SWAP1 POP SWAP2 SWAP1 POP JUMP JUMPDEST PUSH0 DUP2 SWAP1 POP SWAP2 SWAP1 POP JUMP JUMPDEST PUSH2 0x11F7 DUP4 PUSH2 0x11C4 JUMP JUMPDEST PUSH2 0x120B PUSH2 0x1203 DUP3 PUSH2 0x11E5 JUMP JUMPDEST DUP5 DUP5 SLOAD PUSH2 0x116A JUMP JUMPDEST DUP3 SSTORE POP POP POP POP JUMP JUMPDEST PUSH0 PUSH0 SWAP1 POP SWAP1 JUMP JUMPDEST PUSH2 0x1222 PUSH2 0x1213 JUMP JUMPDEST PUSH2 0x122D DUP2 DUP5 DUP5 PUSH2 0x11EE JUMP JUMPDEST POP POP POP JUMP JUMPDEST JUMPDEST DUP2 DUP2 LT ISZERO PUSH2 0x1250 JUMPI PUSH2 0x1245 PUSH0 DUP3 PUSH2 0x121A JUMP JUMPDEST PUSH1 0x1 DUP2 ADD SWAP1 POP PUSH2 0x1233 JUMP JUMPDEST POP POP JUMP JUMPDEST PUSH1 0x1F DUP3 GT ISZERO PUSH2 0x1295 JUMPI PUSH2 0x1266 DUP2 PUSH2 0x113D JUMP JUMPDEST PUSH2 0x126F DUP5 PUSH2 0x114F JUMP JUMPDEST DUP2 ADD PUSH1 0x20 DUP6 LT ISZERO PUSH2 0x127E JUMPI DUP2 SWAP1 POP JUMPDEST PUSH2 0x1292 PUSH2 0x128A DUP6 PUSH2 0x114F JUMP JUMPDEST DUP4 ADD DUP3 PUSH2 0x1232 JUMP JUMPDEST POP POP JUMPDEST POP POP POP JUMP JUMPDEST PUSH0 DUP3 DUP3 SHR SWAP1 POP SWAP3 SWAP2 POP POP JUMP JUMPDEST PUSH0 PUSH2 0x12B5 PUSH0 NOT DUP5 PUSH1 0x8 MUL PUSH2 0x129A JUMP JUMPDEST NOT DUP1 DUP4 AND SWAP2 POP POP SWAP3 SWAP2 POP POP JUMP JUMPDEST PUSH0 PUSH2 0x12CD DUP4 DUP4 PUSH2 0x12A6 JUMP JUMPDEST SWAP2 POP DUP3 PUSH1 0x2 MUL DUP3 OR SWAP1 POP SWAP3 SWAP2 POP POP JUMP JUMPDEST PUSH2 0x12E6 DUP3 PUSH2 0x10D6 JUMP JUMPDEST PUSH8 0xFFFFFFFFFFFFFFFF DUP2 GT ISZERO PUSH2 0x12FF JUMPI PUSH2 0x12FE PUSH2 0xD46 JUMP JUMPDEST JUMPDEST PUSH2 0x1309 DUP3 SLOAD PUSH2 0x110D JUMP JUMPDEST PUSH2 0x1314 DUP3 DUP3 DUP6 PUSH2 0x1254 JUMP JUMPDEST PUSH0 PUSH1 0x20 SWAP1 POP PUSH1 0x1F DUP4 GT PUSH1 0x1 DUP2 EQ PUSH2 0x1345 JUMPI PUSH0 DUP5 ISZERO PUSH2 0x1333 JUMPI DUP3 DUP8 ADD MLOAD SWAP1 POP JUMPDEST PUSH2 0x133D DUP6 DUP3 PUSH2 0x12C2 JUMP JUMPDEST DUP7 SSTORE POP PUSH2 0x13A4 JUMP JUMPDEST PUSH1 0x1F NOT DUP5 AND PUSH2 0x1353 DUP7 PUSH2 0x113D JUMP JUMPDEST PUSH0 JUMPDEST DUP3 DUP2 LT ISZERO PUSH2 0x137A JUMPI DUP5 DUP10 ADD MLOAD DUP3 SSTORE PUSH1 0x1 DUP3 ADD SWAP2 POP PUSH1 0x20 DUP6 ADD SWAP5 POP PUSH1 0x20 DUP2 ADD SWAP1 POP PUSH2 0x1355 JUMP JUMPDEST DUP7 DUP4 LT ISZERO PUSH2 0x1397 JUMPI DUP5 DUP10 ADD MLOAD PUSH2 0x1393 PUSH1 0x1F DUP10 AND DUP3 PUSH2 0x12A6 JUMP JUMPDEST DUP4 SSTORE POP JUMPDEST PUSH1 0x1 PUSH1 0x2 DUP9 MUL ADD DUP9 SSTORE POP POP POP JUMPDEST POP POP POP POP POP POP JUMP JUMPDEST PUSH0 DUP2 MLOAD SWAP1 POP SWAP2 SWAP1 POP JUMP JUMPDEST PUSH0 DUP2 SWAP1 POP DUP2 PUSH0 MSTORE PUSH1 0x20 PUSH0 KECCAK256 SWAP1 POP SWAP2 SWAP1 POP JUMP JUMPDEST PUSH1 0x1F DUP3 GT ISZERO PUSH2 0x1409 JUMPI PUSH2 0x13DA DUP2 PUSH2 0x13B6 JUMP JUMPDEST PUSH2 0x13E3 DUP5 PUSH2 0x114F JUMP JUMPDEST DUP2 ADD PUSH1 0x20 DUP6 LT ISZERO PUSH2 0x13F2 JUMPI DUP2 SWAP1 POP JUMPDEST PUSH2 0x1406 PUSH2 0x13FE DUP6 PUSH2 0x114F JUMP JUMPDEST DUP4 ADD DUP3 PUSH2 0x1232 JUMP JUMPDEST POP POP JUMPDEST POP POP POP JUMP JUMPDEST PUSH2 0x1417 DUP3 PUSH2 0x13AC JUMP JUMPDEST PUSH8 0xFFFFFFFFFFFFFFFF DUP2 GT ISZERO PUSH2 0x1430 JUMPI PUSH2 0x142F PUSH2 0xD46 JUMP JUMPDEST JUMPDEST PUSH2 0x143A DUP3 SLOAD PUSH2 0x110D JUMP JUMPDEST PUSH2 0x1445 DUP3 DUP3 DUP6 PUSH2 0x13C8 JUMP JUMPDEST PUSH0 PUSH1 0x20 SWAP1 POP PUSH1 0x1F DUP4 GT PUSH1 0x1 DUP2 EQ PUSH2 0x1476 JUMPI PUSH0 DUP5 ISZERO PUSH2 0x1464 JUMPI DUP3 DUP8 ADD MLOAD SWAP1 POP JUMPDEST PUSH2 0x146E DUP6 DUP3 PUSH2 0x12C2 JUMP JUMPDEST DUP7 SSTORE POP PUSH2 0x14D5 JUMP JUMPDEST PUSH1 0x1F NOT DUP5 AND PUSH2 0x1484 DUP7 PUSH2 0x13B6 JUMP JUMPDEST PUSH0 JUMPDEST DUP3 DUP2 LT ISZERO PUSH2 0x14AB JUMPI DUP5 DUP10 ADD MLOAD DUP3 SSTORE PUSH1 0x1 DUP3 ADD SWAP2 POP PUSH1 0x20 DUP6 ADD SWAP5 POP PUSH1 0x20 DUP2 ADD SWAP1 POP PUSH2 0x1486 JUMP JUMPDEST DUP7 DUP4 LT ISZERO PUSH2 0x14C8 JUMPI DUP5 DUP10 ADD MLOAD PUSH2 0x14C4 PUSH1 0x1F DUP10 AND DUP3 PUSH2 0x12A6 JUMP JUMPDEST DUP4 SSTORE POP JUMPDEST PUSH1 0x1 PUSH1 0x2 DUP9 MUL ADD DUP9 SSTORE POP POP POP JUMPDEST POP POP POP POP POP POP JUMP JUMPDEST PUSH0 DUP3 DUP3 MSTORE PUSH1 0x20 DUP3 ADD SWAP1 POP SWAP3 SWAP2 POP POP JUMP JUMPDEST PUSH0 PUSH2 0x14F7 DUP3 PUSH2 0x13AC JUMP JUMPDEST PUSH2 0x1501 DUP2 DUP6 PUSH2 0x14DD JUMP JUMPDEST SWAP4 POP PUSH2 0x1511 DUP2 DUP6 PUSH1 0x20 DUP7 ADD PUSH2 0xDEE JUMP JUMPDEST PUSH2 0x151A DUP2 PUSH2 0xD36 JUMP JUMPDEST DUP5 ADD SWAP2 POP POP SWAP3 SWAP2 POP POP JUMP JUMPDEST PUSH0 PUSH1 0x20 DUP3 ADD SWAP1 POP DUP2 DUP2 SUB PUSH0 DUP4 ADD MSTORE PUSH2 0x153D DUP2 DUP5 PUSH2 0x14ED JUMP JUMPDEST SWAP1 POP SWAP3 SWAP2 POP POP JUMP JUMPDEST PUSH32 0x4E487B7100000000000000000000000000000000000000000000000000000000 PUSH0 MSTORE PUSH1 0x21 PUSH1 0x4 MSTORE PUSH1 0x24 PUSH0 REVERT JUMPDEST PUSH2 0x157B DUP2 PUSH2 0xF5B JUMP JUMPDEST DUP3 MSTORE POP POP JUMP JUMPDEST PUSH0 PUSH1 0x20 DUP3 ADD SWAP1 POP PUSH2 0x1594 PUSH0 DUP4 ADD DUP5 PUSH2 0x1572 JUMP JUMPDEST SWAP3 SWAP2 POP POP JUMP JUMPDEST PUSH0 DUP2 SWAP1 POP SWAP2 SWAP1 POP JUMP JUMPDEST PUSH2 0x15AC DUP2 PUSH2 0x159A JUMP JUMPDEST DUP3 MSTORE POP POP JUMP JUMPDEST PUSH0 PUSH1 0x20 DUP3 ADD SWAP1 POP PUSH2 0x15C5 PUSH0 DUP4 ADD DUP5 PUSH2 0x15A3 JUMP JUMPDEST SWAP3 SWAP2 POP POP JUMP JUMPDEST PUSH32 0x4E487B7100000000000000000000000000000000000000000000000000000000 PUSH0 MSTORE PUSH1 0x11 PUSH1 0x4 MSTORE PUSH1 0x24 PUSH0 REVERT JUMPDEST PUSH0 PUSH2 0x1602 DUP3 PUSH2 0x10A5 JUMP JUMPDEST SWAP2 POP PUSH32 0xFFFFFFFFFFFFFFFFFFFFFFFFFFFFFFFFFFFFFFFFFFFFFFFFFFFFFFFFFFFFFFFF DUP3 SUB PUSH2 0x1634 JUMPI PUSH2 0x1633 PUSH2 0x15CB JUMP JUMPDEST JUMPDEST PUSH1 0x1 DUP3 ADD SWAP1 POP SWAP2 SWAP1 POP JUMP JUMPDEST PUSH0 DUP2 ISZERO ISZERO SWAP1 POP SWAP2 SWAP1 POP JUMP JUMPDEST PUSH2 0x1653 DUP2 PUSH2 0x163F JUMP JUMPDEST DUP3 MSTORE POP POP JUMP JUMPDEST PUSH0 PUSH1 0x60 DUP3 ADD SWAP1 POP PUSH2 0x166C PUSH0 DUP4 ADD DUP7 PUSH2 0x1572 JUMP JUMPDEST PUSH2 0x1679 PUSH1 0x20 DUP4 ADD DUP6 PUSH2 0x164A JUMP JUMPDEST DUP2 DUP2 SUB PUSH1 0x40 DUP4 ADD MSTORE PUSH2 0x168B DUP2 DUP5 PUSH2 0x14ED JUMP JUMPDEST SWAP1 POP SWAP5 SWAP4 POP POP POP POP JUMP JUMPDEST PUSH0 PUSH1 0xA0 DUP3 ADD SWAP1 POP PUSH2 0x16A8 PUSH0 DUP4 ADD DUP9 PUSH2 0x1572 JUMP JUMPDEST PUSH2 0x16B5 PUSH1 0x20 DUP4 ADD DUP8 PUSH2 0x1572 JUMP JUMPDEST PUSH2 0x16C2 PUSH1 0x40 DUP4 ADD DUP7 PUSH2 0x1572 JUMP JUMPDEST PUSH2 0x16CF PUSH1 0x60 DUP4 ADD DUP6 PUSH2 0x15A3 JUMP JUMPDEST DUP2 DUP2 SUB PUSH1 0x80 DUP4 ADD MSTORE PUSH2 0x16E1 DUP2 DUP5 PUSH2 0x14ED JUMP JUMPDEST SWAP1 POP SWAP7 SWAP6 POP POP POP POP POP POP JUMP JUMPDEST PUSH0 PUSH1 0x40 DUP3 ADD SWAP1 POP PUSH2 0x1700 PUSH0 DUP4 ADD DUP6 PUSH2 0x15A3 JUMP JUMPDEST DUP2 DUP2 SUB PUSH1 0x20 DUP4 ADD MSTORE PUSH2 0x1712 DUP2 DUP5 PUSH2 0x14ED JUMP JUMPDEST SWAP1 POP SWAP4 SWAP3 POP POP POP JUMP JUMPDEST PUSH0 PUSH8 0xFFFFFFFFFFFFFFFF DUP3 GT ISZERO PUSH2 0x1735 JUMPI PUSH2 0x1734 PUSH2 0xD46 JUMP JUMPDEST JUMPDEST PUSH2 0x173E DUP3 PUSH2 0xD36 JUMP JUMPDEST SWAP1 POP PUSH1 0x20 DUP2 ADD SWAP1 POP SWAP2 SWAP1 POP JUMP JUMPDEST PUSH0 PUSH2 0x175D PUSH2 0x1758 DUP5 PUSH2 0x171B JUMP JUMPDEST PUSH2 0xDA4 JUMP JUMPDEST SWAP1 POP DUP3 DUP2 MSTORE PUSH1 0x20 DUP2 ADD DUP5 DUP5 DUP5 ADD GT ISZERO PUSH2 0x1779 JUMPI PUSH2 0x1778 PUSH2 0xD32 JUMP JUMPDEST JUMPDEST PUSH2 0x1784 DUP5 DUP3 DUP6 PUSH2 0xDEE JUMP JUMPDEST POP SWAP4 SWAP3 POP POP POP JUMP JUMPDEST PUSH0 DUP3 PUSH1 0x1F DUP4 ADD SLT PUSH2 0x17A0 JUMPI PUSH2 0x179F PUSH2 0xD2E JUMP JUMPDEST JUMPDEST DUP2 MLOAD PUSH2 0x17B0 DUP5 DUP3 PUSH1 0x20 DUP7 ADD PUSH2 0x174B JUMP JUMPDEST SWAP2 POP POP SWAP3 SWAP2 POP POP JUMP JUMPDEST PUSH0 PUSH1 0x20 DUP3 DUP5 SUB SLT ISZERO PUSH2 0x17CE JUMPI PUSH2 0x17CD PUSH2 0xD26 JUMP JUMPDEST JUMPDEST PUSH0 DUP3 ADD MLOAD PUSH8 0xFFFFFFFFFFFFFFFF DUP2 GT ISZERO PUSH2 0x17EB JUMPI PUSH2 0x17EA PUSH2 0xD2A JUMP JUMPDEST JUMPDEST PUSH2 0x17F7 DUP5 DUP3 DUP6 ADD PUSH2 0x178C JUMP JUMPDEST SWAP2 POP POP SWAP3 SWAP2 POP POP JUMP JUMPDEST PUSH0 PUSH32 0xFFFFFFFF00000000000000000000000000000000000000000000000000000000 DUP3 AND SWAP1 POP SWAP2 SWAP1 POP JUMP JUMPDEST PUSH2 0x1834 DUP2 PUSH2 0x1800 JUMP JUMPDEST DUP3 MSTORE POP POP JUMP JUMPDEST PUSH0 PUSH1 0x20 DUP3 ADD SWAP1 POP PUSH2 0x184D PUSH0 DUP4 ADD DUP5 PUSH2 0x182B JUMP JUMPDEST SWAP3 SWAP2 POP POP JUMP JUMPDEST PUSH2 0x6856 DUP1 PUSH2 0x1860 PUSH0 CODECOPY PUSH0 RETURN INVALID PUSH1 0x80 PUSH1 0x40 MSTORE PUSH1 0x4 CALLDATASIZE LT PUSH2 0x1FC JUMPI PUSH0 CALLDATALOAD PUSH1 0xE0 SHR DUP1 PUSH4 0x70A08231 GT PUSH2 0x10C JUMPI DUP1 PUSH4 0x8F81ECFC GT PUSH2 0x9F JUMPI DUP1 PUSH4 0xD6C1407C GT PUSH2 0x6E JUMPI DUP1 PUSH4 0xD6C1407C EQ PUSH2 0x823 JUMPI DUP1 PUSH4 0xDB8C9663 EQ PUSH2 0x84B JUMPI DUP1 PUSH4 0xDEDFF9C6 EQ PUSH2 0x873 JUMPI DUP1 PUSH4 0xE4AC8DBD EQ PUSH2 0x8AF JUMPI DUP1 PUSH4 0xF2FDE38B EQ PUSH2 0x8D9 JUMPI PUSH2 0x275 JUMP JUMPDEST DUP1 PUSH4 0x8F81ECFC EQ PUSH2 0x77B JUMPI DUP1 PUSH4 0x97902421 EQ PUSH2 0x7A3 JUMPI DUP1 PUSH4 0xA3B261F2 EQ PUSH2 0x7BF JUMPI DUP1 PUSH4 0xBE9F0E6F EQ PUSH2 0x7FB JUMPI PUSH2 0x275 JUMP JUMPDEST DUP1 PUSH4 0x7E913B05 GT PUSH2 0xDB JUMPI DUP1 PUSH4 0x7E913B05 EQ PUSH2 0x6E5 JUMPI DUP1 PUSH4 0x7F23690C EQ PUSH2 0x70D JUMPI DUP1 PUSH4 0x86A10DDD EQ PUSH2 0x729 JUMPI DUP1 PUSH4 0x8DA5CB5B EQ PUSH2 0x751 JUMPI PUSH2 0x275 JUMP JUMPDEST DUP1 PUSH4 0x70A08231 EQ PUSH2 0x641 JUMPI DUP1 PUSH4 0x715018A6 EQ PUSH2 0x67D JUMPI DUP1 PUSH4 0x78495BF8 EQ PUSH2 0x693 JUMPI DUP1 PUSH4 0x7E87632C EQ PUSH2 0x6BD JUMPI PUSH2 0x275 JUMP JUMPDEST DUP1 PUSH4 0x2819A215 GT PUSH2 0x18F JUMPI DUP1 PUSH4 0x4C8F9313 GT PUSH2 0x15E JUMPI DUP1 PUSH4 0x4C8F9313 EQ PUSH2 0x537 JUMPI DUP1 PUSH4 0x511B6952 EQ PUSH2 0x55F JUMPI DUP1 PUSH4 0x54F6127F EQ PUSH2 0x587 JUMPI DUP1 PUSH4 0x625D0BE9 EQ PUSH2 0x5C3 JUMPI DUP1 PUSH4 0x6963D438 EQ PUSH2 0x605 JUMPI PUSH2 0x275 JUMP JUMPDEST DUP1 PUSH4 0x2819A215 EQ PUSH2 0x46F JUMPI DUP1 PUSH4 0x2A3654A4 EQ PUSH2 0x497 JUMPI DUP1 PUSH4 0x49A6078D EQ PUSH2 0x4D3 JUMPI DUP1 PUSH4 0x49FC5686 EQ PUSH2 0x50F JUMPI PUSH2 0x275 JUMP JUMPDEST DUP1 PUSH4 0x18160DDD GT PUSH2 0x1CB JUMPI DUP1 PUSH4 0x18160DDD EQ PUSH2 0x3A3 JUMPI DUP1 PUSH4 0x1D26FCE6 EQ PUSH2 0x3CD JUMPI DUP1 PUSH4 0x1F121708 EQ PUSH2 0x409 JUMPI DUP1 PUSH4 0x217B2270 EQ PUSH2 0x433 JUMPI PUSH2 0x275 JUMP JUMPDEST DUP1 PUSH4 0x1FFC9A7 EQ PUSH2 0x2DB JUMPI DUP1 PUSH4 0x2154B4E EQ PUSH2 0x317 JUMPI DUP1 PUSH4 0xCFA4650 EQ PUSH2 0x33F JUMPI DUP1 PUSH4 0x16E023B3 EQ PUSH2 0x367 JUMPI PUSH2 0x275 JUMP JUMPDEST CALLDATASIZE PUSH2 0x275 JUMPI PUSH0 CALLVALUE SUB PUSH2 0x243 JUMPI PUSH1 0x40 MLOAD PUSH32 0xE5099EE300000000000000000000000000000000000000000000000000000000 DUP2 MSTORE PUSH1 0x4 ADD PUSH2 0x23A SWAP1 PUSH2 0x4220 JUMP JUMPDEST PUSH1 0x40 MLOAD DUP1 SWAP2 SUB SWAP1 REVERT JUMPDEST PUSH1 0x40 MLOAD PUSH32 0x61F4944200000000000000000000000000000000000000000000000000000000 DUP2 MSTORE PUSH1 0x4 ADD PUSH1 0x40 MLOAD DUP1 SWAP2 SUB SWAP1 REVERT JUMPDEST PUSH0 CALLDATASIZE PUSH1 0x60 PUSH1 0x4 PUSH0 CALLDATASIZE SWAP1 POP LT ISZERO PUSH2 0x2C4 JUMPI DUP3 DUP3 PUSH1 0x40 MLOAD PUSH32 0xE5099EE300000000000000000000000000000000000000000000000000000000 DUP2 MSTORE PUSH1 0x4 ADD PUSH2 0x2BB SWAP3 SWAP2 SWAP1 PUSH2 0x4288 JUMP JUMPDEST PUSH1 0x40 MLOAD DUP1 SWAP2 SUB SWAP1 REVERT JUMPDEST PUSH2 0x2CE DUP4 DUP4 PUSH2 0x901 JUMP JUMPDEST SWAP1 POP SWAP2 POP POP DUP1 MLOAD SWAP1 PUSH1 0x20 ADD RETURN JUMPDEST CALLVALUE DUP1 ISZERO PUSH2 0x2E6 JUMPI PUSH0 PUSH0 REVERT JUMPDEST POP PUSH2 0x301 PUSH1 0x4 DUP1 CALLDATASIZE SUB DUP2 ADD SWAP1 PUSH2 0x2FC SWAP2 SWAP1 PUSH2 0x4310 JUMP JUMPDEST PUSH2 0xA77 JUMP JUMPDEST PUSH1 0x40 MLOAD PUSH2 0x30E SWAP2 SWAP1 PUSH2 0x4355 JUMP JUMPDEST PUSH1 0x40 MLOAD DUP1 SWAP2 SUB SWAP1 RETURN JUMPDEST CALLVALUE DUP1 ISZERO PUSH2 0x322 JUMPI PUSH0 PUSH0 REVERT JUMPDEST POP PUSH2 0x33D PUSH1 0x4 DUP1 CALLDATASIZE SUB DUP2 ADD SWAP1 PUSH2 0x338 SWAP2 SWAP1 PUSH2 0x43C8 JUMP JUMPDEST PUSH2 0xAE7 JUMP JUMPDEST STOP JUMPDEST CALLVALUE DUP1 ISZERO PUSH2 0x34A JUMPI PUSH0 PUSH0 REVERT JUMPDEST POP PUSH2 0x365 PUSH1 0x4 DUP1 CALLDATASIZE SUB DUP2 ADD SWAP1 PUSH2 0x360 SWAP2 SWAP1 PUSH2 0x4511 JUMP JUMPDEST PUSH2 0xB82 JUMP JUMPDEST STOP JUMPDEST CALLVALUE DUP1 ISZERO PUSH2 0x372 JUMPI PUSH0 PUSH0 REVERT JUMPDEST POP PUSH2 0x38D PUSH1 0x4 DUP1 CALLDATASIZE SUB DUP2 ADD SWAP1 PUSH2 0x388 SWAP2 SWAP1 PUSH2 0x458B JUMP JUMPDEST PUSH2 0xBE7 JUMP JUMPDEST PUSH1 0x40 MLOAD PUSH2 0x39A SWAP2 SWAP1 PUSH2 0x4619 JUMP JUMPDEST PUSH1 0x40 MLOAD DUP1 SWAP2 SUB SWAP1 RETURN JUMPDEST CALLVALUE DUP1 ISZERO PUSH2 0x3AE JUMPI PUSH0 PUSH0 REVERT JUMPDEST POP PUSH2 0x3B7 PUSH2 0xBFB JUMP JUMPDEST PUSH1 0x40 MLOAD PUSH2 0x3C4 SWAP2 SWAP1 PUSH2 0x4651 JUMP JUMPDEST PUSH1 0x40 MLOAD DUP1 SWAP2 SUB SWAP1 RETURN JUMPDEST CALLVALUE DUP1 ISZERO PUSH2 0x3D8 JUMPI PUSH0 PUSH0 REVERT JUMPDEST POP PUSH2 0x3F3 PUSH1 0x4 DUP1 CALLDATASIZE SUB DUP2 ADD SWAP1 PUSH2 0x3EE SWAP2 SWAP1 PUSH2 0x472E JUMP JUMPDEST PUSH2 0xC04 JUMP JUMPDEST PUSH1 0x40 MLOAD PUSH2 0x400 SWAP2 SWAP1 PUSH2 0x48A7 JUMP JUMPDEST PUSH1 0x40 MLOAD DUP1 SWAP2 SUB SWAP1 RETURN JUMPDEST CALLVALUE DUP1 ISZERO PUSH2 0x414 JUMPI PUSH0 PUSH0 REVERT JUMPDEST POP PUSH2 0x41D PUSH2 0xD0B JUMP JUMPDEST PUSH1 0x40 MLOAD PUSH2 0x42A SWAP2 SWAP1 PUSH2 0x48D6 JUMP JUMPDEST PUSH1 0x40 MLOAD DUP1 SWAP2 SUB SWAP1 RETURN JUMPDEST CALLVALUE DUP1 ISZERO PUSH2 0x43E JUMPI PUSH0 PUSH0 REVERT JUMPDEST POP PUSH2 0x459 PUSH1 0x4 DUP1 CALLDATASIZE SUB DUP2 ADD SWAP1 PUSH2 0x454 SWAP2 SWAP1 PUSH2 0x48EF JUMP JUMPDEST PUSH2 0xD30 JUMP JUMPDEST PUSH1 0x40 MLOAD PUSH2 0x466 SWAP2 SWAP1 PUSH2 0x48D6 JUMP JUMPDEST PUSH1 0x40 MLOAD DUP1 SWAP2 SUB SWAP1 RETURN JUMPDEST CALLVALUE DUP1 ISZERO PUSH2 0x47A JUMPI PUSH0 PUSH0 REVERT JUMPDEST POP PUSH2 0x495 PUSH1 0x4 DUP1 CALLDATASIZE SUB DUP2 ADD SWAP1 PUSH2 0x490 SWAP2 SWAP1 PUSH2 0x4A32 JUMP JUMPDEST PUSH2 0xDDE JUMP JUMPDEST STOP JUMPDEST CALLVALUE DUP1 ISZERO PUSH2 0x4A2 JUMPI PUSH0 PUSH0 REVERT JUMPDEST POP PUSH2 0x4BD PUSH1 0x4 DUP1 CALLDATASIZE SUB DUP2 ADD SWAP1 PUSH2 0x4B8 SWAP2 SWAP1 PUSH2 0x4B31 JUMP JUMPDEST PUSH2 0xFB4 JUMP JUMPDEST PUSH1 0x40 MLOAD PUSH2 0x4CA SWAP2 SWAP1 PUSH2 0x4355 JUMP JUMPDEST PUSH1 0x40 MLOAD DUP1 SWAP2 SUB SWAP1 RETURN JUMPDEST CALLVALUE DUP1 ISZERO PUSH2 0x4DE JUMPI PUSH0 PUSH0 REVERT JUMPDEST POP PUSH2 0x4F9 PUSH1 0x4 DUP1 CALLDATASIZE SUB DUP2 ADD SWAP1 PUSH2 0x4F4 SWAP2 SWAP1 PUSH2 0x48EF JUMP JUMPDEST PUSH2 0xFC7 JUMP JUMPDEST PUSH1 0x40 MLOAD PUSH2 0x506 SWAP2 SWAP1 PUSH2 0x4C26 JUMP JUMPDEST PUSH1 0x40 MLOAD DUP1 SWAP2 SUB SWAP1 RETURN JUMPDEST CALLVALUE DUP1 ISZERO PUSH2 0x51A JUMPI PUSH0 PUSH0 REVERT JUMPDEST POP PUSH2 0x535 PUSH1 0x4 DUP1 CALLDATASIZE SUB DUP2 ADD SWAP1 PUSH2 0x530 SWAP2 SWAP1 PUSH2 0x4C46 JUMP JUMPDEST PUSH2 0xFF2 JUMP JUMPDEST STOP JUMPDEST CALLVALUE DUP1 ISZERO PUSH2 0x542 JUMPI PUSH0 PUSH0 REVERT JUMPDEST POP PUSH2 0x55D PUSH1 0x4 DUP1 CALLDATASIZE SUB DUP2 ADD SWAP1 PUSH2 0x558 SWAP2 SWAP1 PUSH2 0x4D08 JUMP JUMPDEST PUSH2 0x1214 JUMP JUMPDEST STOP JUMPDEST CALLVALUE DUP1 ISZERO PUSH2 0x56A JUMPI PUSH0 PUSH0 REVERT JUMPDEST POP PUSH2 0x585 PUSH1 0x4 DUP1 CALLDATASIZE SUB DUP2 ADD SWAP1 PUSH2 0x580 SWAP2 SWAP1 PUSH2 0x4EBC JUMP JUMPDEST PUSH2 0x144E JUMP JUMPDEST STOP JUMPDEST CALLVALUE DUP1 ISZERO PUSH2 0x592 JUMPI PUSH0 PUSH0 REVERT JUMPDEST POP PUSH2 0x5AD PUSH1 0x4 DUP1 CALLDATASIZE SUB DUP2 ADD SWAP1 PUSH2 0x5A8 SWAP2 SWAP1 PUSH2 0x48EF JUMP JUMPDEST PUSH2 0x14AF JUMP JUMPDEST PUSH1 0x40 MLOAD PUSH2 0x5BA SWAP2 SWAP1 PUSH2 0x4619 JUMP JUMPDEST PUSH1 0x40 MLOAD DUP1 SWAP2 SUB SWAP1 RETURN JUMPDEST CALLVALUE DUP1 ISZERO PUSH2 0x5CE JUMPI PUSH0 PUSH0 REVERT JUMPDEST POP PUSH2 0x5E9 PUSH1 0x4 DUP1 CALLDATASIZE SUB DUP2 ADD SWAP1 PUSH2 0x5E4 SWAP2 SWAP1 PUSH2 0x48EF JUMP JUMPDEST PUSH2 0x14C1 JUMP JUMPDEST PUSH1 0x40 MLOAD PUSH2 0x5FC SWAP8 SWAP7 SWAP6 SWAP5 SWAP4 SWAP3 SWAP2 SWAP1 PUSH2 0x5081 JUMP JUMPDEST PUSH1 0x40 MLOAD DUP1 SWAP2 SUB SWAP1 RETURN JUMPDEST CALLVALUE DUP1 ISZERO PUSH2 0x610 JUMPI PUSH0 PUSH0 REVERT JUMPDEST POP PUSH2 0x62B PUSH1 0x4 DUP1 CALLDATASIZE SUB DUP2 ADD SWAP1 PUSH2 0x626 SWAP2 SWAP1 PUSH2 0x5157 JUMP JUMPDEST PUSH2 0x16D7 JUMP JUMPDEST PUSH1 0x40 MLOAD PUSH2 0x638 SWAP2 SWAP1 PUSH2 0x48A7 JUMP JUMPDEST PUSH1 0x40 MLOAD DUP1 SWAP2 SUB SWAP1 RETURN JUMPDEST CALLVALUE DUP1 ISZERO PUSH2 0x64C JUMPI PUSH0 PUSH0 REVERT JUMPDEST POP PUSH2 0x667 PUSH1 0x4 DUP1 CALLDATASIZE SUB DUP2 ADD SWAP1 PUSH2 0x662 SWAP2 SWAP1 PUSH2 0x43C8 JUMP JUMPDEST PUSH2 0x184D JUMP JUMPDEST PUSH1 0x40 MLOAD PUSH2 0x674 SWAP2 SWAP1 PUSH2 0x4651 JUMP JUMPDEST PUSH1 0x40 MLOAD DUP1 SWAP2 SUB SWAP1 RETURN JUMPDEST CALLVALUE DUP1 ISZERO PUSH2 0x688 JUMPI PUSH0 PUSH0 REVERT JUMPDEST POP PUSH2 0x691 PUSH2 0x189A JUMP JUMPDEST STOP JUMPDEST CALLVALUE DUP1 ISZERO PUSH2 0x69E JUMPI PUSH0 PUSH0 REVERT JUMPDEST POP PUSH2 0x6A7 PUSH2 0x18AD JUMP JUMPDEST PUSH1 0x40 MLOAD PUSH2 0x6B4 SWAP2 SWAP1 PUSH2 0x4651 JUMP JUMPDEST PUSH1 0x40 MLOAD DUP1 SWAP2 SUB SWAP1 RETURN JUMPDEST CALLVALUE DUP1 ISZERO PUSH2 0x6C8 JUMPI PUSH0 PUSH0 REVERT JUMPDEST POP PUSH2 0x6E3 PUSH1 0x4 DUP1 CALLDATASIZE SUB DUP2 ADD SWAP1 PUSH2 0x6DE SWAP2 SWAP1 PUSH2 0x5400 JUMP JUMPDEST PUSH2 0x18B8 JUMP JUMPDEST STOP JUMPDEST CALLVALUE DUP1 ISZERO PUSH2 0x6F0 JUMPI PUSH0 PUSH0 REVERT JUMPDEST POP PUSH2 0x70B PUSH1 0x4 DUP1 CALLDATASIZE SUB DUP2 ADD SWAP1 PUSH2 0x706 SWAP2 SWAP1 PUSH2 0x458B JUMP JUMPDEST PUSH2 0x19CA JUMP JUMPDEST STOP JUMPDEST PUSH2 0x727 PUSH1 0x4 DUP1 CALLDATASIZE SUB DUP2 ADD SWAP1 PUSH2 0x722 SWAP2 SWAP1 PUSH2 0x5503 JUMP JUMPDEST PUSH2 0x1D97 JUMP JUMPDEST STOP JUMPDEST CALLVALUE DUP1 ISZERO PUSH2 0x734 JUMPI PUSH0 PUSH0 REVERT JUMPDEST POP PUSH2 0x74F PUSH1 0x4 DUP1 CALLDATASIZE SUB DUP2 ADD SWAP1 PUSH2 0x74A SWAP2 SWAP1 PUSH2 0x555D JUMP JUMPDEST PUSH2 0x1DE6 JUMP JUMPDEST STOP JUMPDEST CALLVALUE DUP1 ISZERO PUSH2 0x75C JUMPI PUSH0 PUSH0 REVERT JUMPDEST POP PUSH2 0x765 PUSH2 0x203C JUMP JUMPDEST PUSH1 0x40 MLOAD PUSH2 0x772 SWAP2 SWAP1 PUSH2 0x48D6 JUMP JUMPDEST PUSH1 0x40 MLOAD DUP1 SWAP2 SUB SWAP1 RETURN JUMPDEST CALLVALUE DUP1 ISZERO PUSH2 0x786 JUMPI PUSH0 PUSH0 REVERT JUMPDEST POP PUSH2 0x7A1 PUSH1 0x4 DUP1 CALLDATASIZE SUB DUP2 ADD SWAP1 PUSH2 0x79C SWAP2 SWAP1 PUSH2 0x458B JUMP JUMPDEST PUSH2 0x2063 JUMP JUMPDEST STOP JUMPDEST PUSH2 0x7BD PUSH1 0x4 DUP1 CALLDATASIZE SUB DUP2 ADD SWAP1 PUSH2 0x7B8 SWAP2 SWAP1 PUSH2 0x55C9 JUMP JUMPDEST PUSH2 0x2347 JUMP JUMPDEST STOP JUMPDEST CALLVALUE DUP1 ISZERO PUSH2 0x7CA JUMPI PUSH0 PUSH0 REVERT JUMPDEST POP PUSH2 0x7E5 PUSH1 0x4 DUP1 CALLDATASIZE SUB DUP2 ADD SWAP1 PUSH2 0x7E0 SWAP2 SWAP1 PUSH2 0x43C8 JUMP JUMPDEST PUSH2 0x2396 JUMP JUMPDEST PUSH1 0x40 MLOAD PUSH2 0x7F2 SWAP2 SWAP1 PUSH2 0x56F6 JUMP JUMPDEST PUSH1 0x40 MLOAD DUP1 SWAP2 SUB SWAP1 RETURN JUMPDEST CALLVALUE DUP1 ISZERO PUSH2 0x806 JUMPI PUSH0 PUSH0 REVERT JUMPDEST POP PUSH2 0x821 PUSH1 0x4 DUP1 CALLDATASIZE SUB DUP2 ADD SWAP1 PUSH2 0x81C SWAP2 SWAP1 PUSH2 0x5716 JUMP JUMPDEST PUSH2 0x23E4 JUMP JUMPDEST STOP JUMPDEST CALLVALUE DUP1 ISZERO PUSH2 0x82E JUMPI PUSH0 PUSH0 REVERT JUMPDEST POP PUSH2 0x849 PUSH1 0x4 DUP1 CALLDATASIZE SUB DUP2 ADD SWAP1 PUSH2 0x844 SWAP2 SWAP1 PUSH2 0x57BA JUMP JUMPDEST PUSH2 0x24E5 JUMP JUMPDEST STOP JUMPDEST CALLVALUE DUP1 ISZERO PUSH2 0x856 JUMPI PUSH0 PUSH0 REVERT JUMPDEST POP PUSH2 0x871 PUSH1 0x4 DUP1 CALLDATASIZE SUB DUP2 ADD SWAP1 PUSH2 0x86C SWAP2 SWAP1 PUSH2 0x5826 JUMP JUMPDEST PUSH2 0x25AF JUMP JUMPDEST STOP JUMPDEST CALLVALUE DUP1 ISZERO PUSH2 0x87E JUMPI PUSH0 PUSH0 REVERT JUMPDEST POP PUSH2 0x899 PUSH1 0x4 DUP1 CALLDATASIZE SUB DUP2 ADD SWAP1 PUSH2 0x894 SWAP2 SWAP1 PUSH2 0x58A6 JUMP JUMPDEST PUSH2 0x277C JUMP JUMPDEST PUSH1 0x40 MLOAD PUSH2 0x8A6 SWAP2 SWAP1 PUSH2 0x48A7 JUMP JUMPDEST PUSH1 0x40 MLOAD DUP1 SWAP2 SUB SWAP1 RETURN JUMPDEST CALLVALUE DUP1 ISZERO PUSH2 0x8BA JUMPI PUSH0 PUSH0 REVERT JUMPDEST POP PUSH2 0x8C3 PUSH2 0x282F JUMP JUMPDEST PUSH1 0x40 MLOAD PUSH2 0x8D0 SWAP2 SWAP1 PUSH2 0x58ED JUMP JUMPDEST PUSH1 0x40 MLOAD DUP1 SWAP2 SUB SWAP1 RETURN JUMPDEST CALLVALUE DUP1 ISZERO PUSH2 0x8E4 JUMPI PUSH0 PUSH0 REVERT JUMPDEST POP PUSH2 0x8FF PUSH1 0x4 DUP1 CALLDATASIZE SUB DUP2 ADD SWAP1 PUSH2 0x8FA SWAP2 SWAP1 PUSH2 0x43C8 JUMP JUMPDEST PUSH2 0x28BB JUMP JUMPDEST STOP JUMPDEST PUSH1 0x60 PUSH0 PUSH2 0x930 PUSH0 CALLDATALOAD PUSH32 0xFFFFFFFF00000000000000000000000000000000000000000000000000000000 AND PUSH2 0x293D JUMP JUMPDEST POP SWAP1 POP PUSH0 PUSH20 0xFFFFFFFFFFFFFFFFFFFFFFFFFFFFFFFFFFFFFFFF AND DUP2 PUSH20 0xFFFFFFFFFFFFFFFFFFFFFFFFFFFFFFFFFFFFFFFF AND SUB PUSH2 0x9C6 JUMPI PUSH0 CALLDATALOAD PUSH32 0xFFFFFFFF00000000000000000000000000000000000000000000000000000000 AND PUSH1 0x40 MLOAD PUSH32 0xBB370B2B00000000000000000000000000000000000000000000000000000000 DUP2 MSTORE PUSH1 0x4 ADD PUSH2 0x9BD SWAP2 SWAP1 PUSH2 0x591C JUMP JUMPDEST PUSH1 0x40 MLOAD DUP1 SWAP2 SUB SWAP1 REVERT JUMPDEST PUSH0 PUSH0 DUP3 PUSH20 0xFFFFFFFFFFFFFFFFFFFFFFFFFFFFFFFFFFFFFFFF AND CALLVALUE DUP8 DUP8 CALLER CALLVALUE PUSH1 0x40 MLOAD PUSH1 0x20 ADD PUSH2 0x9F7 SWAP5 SWAP4 SWAP3 SWAP2 SWAP1 PUSH2 0x59C8 JUMP JUMPDEST PUSH1 0x40 MLOAD PUSH1 0x20 DUP2 DUP4 SUB SUB DUP2 MSTORE SWAP1 PUSH1 0x40 MSTORE PUSH1 0x40 MLOAD PUSH2 0xA13 SWAP2 SWAP1 PUSH2 0x5A32 JUMP JUMPDEST PUSH0 PUSH1 0x40 MLOAD DUP1 DUP4 SUB DUP2 DUP6 DUP8 GAS CALL SWAP3 POP POP POP RETURNDATASIZE DUP1 PUSH0 DUP2 EQ PUSH2 0xA4D JUMPI PUSH1 0x40 MLOAD SWAP2 POP PUSH1 0x1F NOT PUSH1 0x3F RETURNDATASIZE ADD AND DUP3 ADD PUSH1 0x40 MSTORE RETURNDATASIZE DUP3 MSTORE RETURNDATASIZE PUSH0 PUSH1 0x20 DUP5 ADD RETURNDATACOPY PUSH2 0xA52 JUMP JUMPDEST PUSH1 0x60 SWAP2 POP JUMPDEST POP SWAP2 POP SWAP2 POP DUP2 ISZERO PUSH2 0xA68 JUMPI DUP1 SWAP4 POP POP POP POP PUSH2 0xA71 JUMP JUMPDEST DUP1 MLOAD DUP1 PUSH1 0x20 DUP4 ADD REVERT JUMPDEST SWAP3 SWAP2 POP POP JUMP JUMPDEST PUSH0 PUSH4 0x3A271706 PUSH1 0xE0 SHL PUSH28 0xFFFFFFFFFFFFFFFFFFFFFFFFFFFFFFFFFFFFFFFFFFFFFFFFFFFFFFFF NOT AND DUP3 PUSH28 0xFFFFFFFFFFFFFFFFFFFFFFFFFFFFFFFFFFFFFFFFFFFFFFFFFFFFFFFF NOT AND EQ DUP1 PUSH2 0xAD0 JUMPI POP PUSH2 0xACF DUP3 PUSH2 0x29F3 JUMP JUMPDEST JUMPDEST DUP1 PUSH2 0xAE0 JUMPI POP PUSH2 0xADF DUP3 PUSH2 0x2A53 JUMP JUMPDEST JUMPDEST SWAP1 POP SWAP2 SWAP1 POP JUMP JUMPDEST PUSH1 0x8 PUSH0 SWAP1 SLOAD SWAP1 PUSH2 0x100 EXP SWAP1 DIV PUSH20 0xFFFFFFFFFFFFFFFFFFFFFFFFFFFFFFFFFFFFFFFF AND PUSH20 0xFFFFFFFFFFFFFFFFFFFFFFFFFFFFFFFFFFFFFFFF AND CALLER PUSH20 0xFFFFFFFFFFFFFFFFFFFFFFFFFFFFFFFFFFFFFFFF AND EQ PUSH2 0xB76 JUMPI PUSH1 0x40 MLOAD PUSH32 0x8C379A000000000000000000000000000000000000000000000000000000000 DUP2 MSTORE PUSH1 0x4 ADD PUSH2 0xB6D SWAP1 PUSH2 0x5A92 JUMP JUMPDEST PUSH1 0x40 MLOAD DUP1 SWAP2 SUB SWAP1 REVERT JUMPDEST PUSH2 0xB7F DUP2 PUSH2 0x2AB7 JUMP JUMPDEST POP JUMP JUMPDEST PUSH2 0xB8A PUSH2 0x2B78 JUMP JUMPDEST DUP1 PUSH1 0x9 SWAP1 DUP2 PUSH2 0xB99 SWAP2 SWAP1 PUSH2 0x5CAD JUMP JUMPDEST POP PUSH2 0xBA2 PUSH2 0x203C JUMP JUMPDEST PUSH20 0xFFFFFFFFFFFFFFFFFFFFFFFFFFFFFFFFFFFFFFFF AND PUSH32 0x52DFE4FD4C28A03CD8AB0AF4995F1CAF006268A90C0E57CBD291D33F358FBC2F PUSH1 0x40 MLOAD PUSH1 0x40 MLOAD DUP1 SWAP2 SUB SWAP1 LOG2 POP JUMP JUMPDEST PUSH1 0x60 PUSH2 0xBF3 DUP4 DUP4 PUSH2 0x2BF6 JUMP JUMPDEST SWAP1 POP SWAP3 SWAP2 POP POP JUMP JUMPDEST PUSH0 PUSH1 0x2 SLOAD SWAP1 POP SWAP1 JUMP JUMPDEST PUSH1 0x60 DUP2 MLOAD DUP4 MLOAD EQ PUSH2 0xC41 JUMPI PUSH1 0x40 MLOAD PUSH32 0x2FA71DFE00000000000000000000000000000000000000000000000000000000 DUP2 MSTORE PUSH1 0x4 ADD PUSH1 0x40 MLOAD DUP1 SWAP2 SUB SWAP1 REVERT JUMPDEST DUP3 MLOAD PUSH8 0xFFFFFFFFFFFFFFFF DUP2 GT ISZERO PUSH2 0xC5C JUMPI PUSH2 0xC5B PUSH2 0x43FB JUMP JUMPDEST JUMPDEST PUSH1 0x40 MLOAD SWAP1 DUP1 DUP3 MSTORE DUP1 PUSH1 0x20 MUL PUSH1 0x20 ADD DUP3 ADD PUSH1 0x40 MSTORE DUP1 ISZERO PUSH2 0xC8F JUMPI DUP2 PUSH1 0x20 ADD JUMPDEST PUSH1 0x60 DUP2 MSTORE PUSH1 0x20 ADD SWAP1 PUSH1 0x1 SWAP1 SUB SWAP1 DUP2 PUSH2 0xC7A JUMPI SWAP1 POP JUMPDEST POP SWAP1 POP PUSH0 JUMPDEST DUP4 MLOAD DUP2 LT ISZERO PUSH2 0xD04 JUMPI PUSH2 0xCDB DUP5 DUP3 DUP2 MLOAD DUP2 LT PUSH2 0xCB3 JUMPI PUSH2 0xCB2 PUSH2 0x5D7C JUMP JUMPDEST JUMPDEST PUSH1 0x20 MUL PUSH1 0x20 ADD ADD MLOAD DUP5 DUP4 DUP2 MLOAD DUP2 LT PUSH2 0xCCE JUMPI PUSH2 0xCCD PUSH2 0x5D7C JUMP JUMPDEST JUMPDEST PUSH1 0x20 MUL PUSH1 0x20 ADD ADD MLOAD PUSH2 0x2BF6 JUMP JUMPDEST DUP3 DUP3 DUP2 MLOAD DUP2 LT PUSH2 0xCEE JUMPI PUSH2 0xCED PUSH2 0x5D7C JUMP JUMPDEST JUMPDEST PUSH1 0x20 MUL PUSH1 0x20 ADD ADD DUP2 SWAP1 MSTORE POP DUP1 PUSH1 0x1 ADD SWAP1 POP PUSH2 0xC94 JUMP JUMPDEST POP SWAP3 SWAP2 POP POP JUMP JUMPDEST PUSH1 0x8 PUSH0 SWAP1 SLOAD SWAP1 PUSH2 0x100 EXP SWAP1 DIV PUSH20 0xFFFFFFFFFFFFFFFFFFFFFFFFFFFFFFFFFFFFFFFF AND DUP2 JUMP JUMPDEST PUSH0 PUSH0 PUSH1 0x3 PUSH0 DUP5 DUP2 MSTORE PUSH1 0x20 ADD SWAP1 DUP2 MSTORE PUSH1 0x20 ADD PUSH0 KECCAK256 PUSH0 SWAP1 SLOAD SWAP1 PUSH2 0x100 EXP SWAP1 DIV PUSH20 0xFFFFFFFFFFFFFFFFFFFFFFFFFFFFFFFFFFFFFFFF AND SWAP1 POP PUSH0 PUSH20 0xFFFFFFFFFFFFFFFFFFFFFFFFFFFFFFFFFFFFFFFF AND DUP2 PUSH20 0xFFFFFFFFFFFFFFFFFFFFFFFFFFFFFFFFFFFFFFFF AND SUB PUSH2 0xDD5 JUMPI DUP3 PUSH1 0x40 MLOAD PUSH32 0xAE8F9A3600000000000000000000000000000000000000000000000000000000 DUP2 MSTORE PUSH1 0x4 ADD PUSH2 0xDCC SWAP2 SWAP1 PUSH2 0x5DA9 JUMP JUMPDEST PUSH1 0x40 MLOAD DUP1 SWAP2 SUB SWAP1 REVERT JUMPDEST DUP1 SWAP2 POP POP SWAP2 SWAP1 POP JUMP JUMPDEST DUP4 PUSH0 PUSH2 0xDE9 DUP3 PUSH2 0xD30 JUMP JUMPDEST SWAP1 POP DUP1 PUSH20 0xFFFFFFFFFFFFFFFFFFFFFFFFFFFFFFFFFFFFFFFF AND CALLER PUSH20 0xFFFFFFFFFFFFFFFFFFFFFFFFFFFFFFFFFFFFFFFF AND EQ DUP1 PUSH2 0xE57 JUMPI POP PUSH2 0xE28 PUSH2 0x203C JUMP JUMPDEST PUSH20 0xFFFFFFFFFFFFFFFFFFFFFFFFFFFFFFFFFFFFFFFF AND CALLER PUSH20 0xFFFFFFFFFFFFFFFFFFFFFFFFFFFFFFFFFFFFFFFF AND EQ JUMPDEST PUSH2 0xE96 JUMPI PUSH1 0x40 MLOAD PUSH32 0x8C379A000000000000000000000000000000000000000000000000000000000 DUP2 MSTORE PUSH1 0x4 ADD PUSH2 0xE8D SWAP1 PUSH2 0x5E0C JUMP JUMPDEST PUSH1 0x40 MLOAD DUP1 SWAP2 SUB SWAP1 REVERT JUMPDEST PUSH0 PUSH1 0x7 PUSH0 DUP9 DUP2 MSTORE PUSH1 0x20 ADD SWAP1 DUP2 MSTORE PUSH1 0x20 ADD PUSH0 KECCAK256 SWAP1 POP PUSH0 PUSH2 0xEB9 DUP14 DUP14 DUP9 DUP15 DUP15 DUP15 PUSH2 0x2CC0 JUMP JUMPDEST SWAP1 POP DUP2 PUSH1 0x3 ADD PUSH1 0x40 MLOAD DUP1 PUSH1 0x40 ADD PUSH1 0x40 MSTORE DUP1 DUP8 PUSH1 0x2 DUP2 GT ISZERO PUSH2 0xEDD JUMPI PUSH2 0xEDC PUSH2 0x4FB0 JUMP JUMPDEST JUMPDEST DUP2 MSTORE PUSH1 0x20 ADD DUP4 DUP2 MSTORE POP SWAP1 DUP1 PUSH1 0x1 DUP2 SLOAD ADD DUP1 DUP3 SSTORE DUP1 SWAP2 POP POP PUSH1 0x1 SWAP1 SUB SWAP1 PUSH0 MSTORE PUSH1 0x20 PUSH0 KECCAK256 SWAP1 PUSH1 0x2 MUL ADD PUSH0 SWAP1 SWAP2 SWAP1 SWAP2 SWAP1 SWAP2 POP PUSH0 DUP3 ADD MLOAD DUP2 PUSH0 ADD PUSH0 PUSH2 0x100 EXP DUP2 SLOAD DUP2 PUSH1 0xFF MUL NOT AND SWAP1 DUP4 PUSH1 0x2 DUP2 GT ISZERO PUSH2 0xF34 JUMPI PUSH2 0xF33 PUSH2 0x4FB0 JUMP JUMPDEST JUMPDEST MUL OR SWAP1 SSTORE POP PUSH1 0x20 DUP3 ADD MLOAD DUP2 PUSH1 0x1 ADD SSTORE POP POP DUP8 PUSH1 0x7 PUSH0 DUP4 DUP2 MSTORE PUSH1 0x20 ADD SWAP1 DUP2 MSTORE PUSH1 0x20 ADD PUSH0 KECCAK256 PUSH1 0x1 ADD DUP2 SWAP1 SSTORE POP DUP7 PUSH1 0x7 PUSH0 DUP4 DUP2 MSTORE PUSH1 0x20 ADD SWAP1 DUP2 MSTORE PUSH1 0x20 ADD PUSH0 KECCAK256 PUSH1 0x2 ADD DUP2 SWAP1 SSTORE POP DUP8 DUP2 PUSH32 0x95AFC0D374F4E4B0D262BE4433E573B5862C9FB50C22EE6438A313040F5487CC PUSH1 0x40 MLOAD PUSH1 0x40 MLOAD DUP1 SWAP2 SUB SWAP1 LOG3 POP POP POP POP POP POP POP POP POP POP POP POP POP JUMP JUMPDEST PUSH0 PUSH2 0xFBF DUP4 DUP4 PUSH2 0x2E69 JUMP JUMPDEST SWAP1 POP SWAP3 SWAP2 POP POP JUMP JUMPDEST PUSH1 0x60 PUSH2 0xFD2 DUP3 PUSH2 0x2ED3 JUMP JUMPDEST PUSH2 0xFEB PUSH1 0x5 PUSH0 DUP5 DUP2 MSTORE PUSH1 0x20 ADD SWAP1 DUP2 MSTORE PUSH1 0x20 ADD PUSH0 KECCAK256 PUSH2 0x2F20 JUMP JUMPDEST SWAP1 POP SWAP2 SWAP1 POP JUMP JUMPDEST DUP6 PUSH0 PUSH2 0xFFD DUP3 PUSH2 0xD30 JUMP JUMPDEST SWAP1 POP DUP1 PUSH20 0xFFFFFFFFFFFFFFFFFFFFFFFFFFFFFFFFFFFFFFFF AND CALLER PUSH20 0xFFFFFFFFFFFFFFFFFFFFFFFFFFFFFFFFFFFFFFFF AND EQ DUP1 PUSH2 0x106B JUMPI POP PUSH2 0x103C PUSH2 0x203C JUMP JUMPDEST PUSH20 0xFFFFFFFFFFFFFFFFFFFFFFFFFFFFFFFFFFFFFFFF AND CALLER PUSH20 0xFFFFFFFFFFFFFFFFFFFFFFFFFFFFFFFFFFFFFFFF AND EQ JUMPDEST PUSH2 0x10AA JUMPI PUSH1 0x40 MLOAD PUSH32 0x8C379A000000000000000000000000000000000000000000000000000000000 DUP2 MSTORE PUSH1 0x4 ADD PUSH2 0x10A1 SWAP1 PUSH2 0x5E0C JUMP JUMPDEST PUSH1 0x40 MLOAD DUP1 SWAP2 SUB SWAP1 REVERT JUMPDEST PUSH0 PUSH1 0x7 PUSH0 DUP11 DUP2 MSTORE PUSH1 0x20 ADD SWAP1 DUP2 MSTORE PUSH1 0x20 ADD PUSH0 KECCAK256 SWAP1 POP DUP8 DUP2 PUSH0 ADD SWAP1 DUP2 PUSH2 0x10CE SWAP2 SWAP1 PUSH2 0x5CAD JUMP JUMPDEST POP DUP5 DUP2 PUSH1 0x6 ADD PUSH0 DUP3 ADD MLOAD DUP2 PUSH0 ADD PUSH0 PUSH2 0x100 EXP DUP2 SLOAD DUP2 PUSH2 0xFFFF MUL NOT AND SWAP1 DUP4 PUSH2 0xFFFF AND MUL OR SWAP1 SSTORE POP PUSH1 0x20 DUP3 ADD MLOAD DUP2 PUSH0 ADD PUSH1 0x2 PUSH2 0x100 EXP DUP2 SLOAD DUP2 PUSH1 0xFF MUL NOT AND SWAP1 DUP4 PUSH1 0xFF AND MUL OR SWAP1 SSTORE POP PUSH1 0x40 DUP3 ADD MLOAD DUP2 PUSH0 ADD PUSH1 0x3 PUSH2 0x100 EXP DUP2 SLOAD DUP2 PUSH1 0xFF MUL NOT AND SWAP1 DUP4 PUSH1 0xFF AND MUL OR SWAP1 SSTORE POP SWAP1 POP POP DUP4 DUP2 PUSH1 0x7 ADD PUSH0 DUP3 ADD MLOAD DUP2 PUSH0 ADD PUSH0 PUSH2 0x100 EXP DUP2 SLOAD DUP2 PUSH2 0xFFFF MUL NOT AND SWAP1 DUP4 PUSH2 0xFFFF AND MUL OR SWAP1 SSTORE POP PUSH1 0x20 DUP3 ADD MLOAD DUP2 PUSH0 ADD PUSH1 0x2 PUSH2 0x100 EXP DUP2 SLOAD DUP2 PUSH1 0xFF MUL NOT AND SWAP1 DUP4 PUSH1 0xFF AND MUL OR SWAP1 SSTORE POP PUSH1 0x40 DUP3 ADD MLOAD DUP2 PUSH0 ADD PUSH1 0x3 PUSH2 0x100 EXP DUP2 SLOAD DUP2 PUSH1 0xFF MUL NOT AND SWAP1 DUP4 PUSH1 0xFF AND MUL OR SWAP1 SSTORE POP SWAP1 POP POP DUP6 DUP2 PUSH1 0x5 ADD PUSH0 PUSH2 0x100 EXP DUP2 SLOAD DUP2 PUSH1 0xFF MUL NOT AND SWAP1 DUP4 PUSH1 0x2 DUP2 GT ISZERO PUSH2 0x11C5 JUMPI PUSH2 0x11C4 PUSH2 0x4FB0 JUMP JUMPDEST JUMPDEST MUL OR SWAP1 SSTORE POP DUP7 DUP2 PUSH1 0x8 ADD SWAP1 DUP2 PUSH2 0x11DB SWAP2 SWAP1 PUSH2 0x5CAD JUMP JUMPDEST POP DUP9 PUSH32 0x88B778B9AA1C8317C051D681D7E71C9F3E40C539FBAF5CADFD37476C1B15DEC PUSH1 0x40 MLOAD PUSH1 0x40 MLOAD DUP1 SWAP2 SUB SWAP1 LOG2 POP POP POP POP POP POP POP POP POP JUMP JUMPDEST DUP8 PUSH0 PUSH2 0x121F DUP3 PUSH2 0xD30 JUMP JUMPDEST SWAP1 POP DUP1 PUSH20 0xFFFFFFFFFFFFFFFFFFFFFFFFFFFFFFFFFFFFFFFF AND CALLER PUSH20 0xFFFFFFFFFFFFFFFFFFFFFFFFFFFFFFFFFFFFFFFF AND EQ DUP1 PUSH2 0x128D JUMPI POP PUSH2 0x125E PUSH2 0x203C JUMP JUMPDEST PUSH20 0xFFFFFFFFFFFFFFFFFFFFFFFFFFFFFFFFFFFFFFFF AND CALLER PUSH20 0xFFFFFFFFFFFFFFFFFFFFFFFFFFFFFFFFFFFFFFFF AND EQ JUMPDEST PUSH2 0x12CC JUMPI PUSH1 0x40 MLOAD PUSH32 0x8C379A000000000000000000000000000000000000000000000000000000000 DUP2 MSTORE PUSH1 0x4 ADD PUSH2 0x12C3 SWAP1 PUSH2 0x5E0C JUMP JUMPDEST PUSH1 0x40 MLOAD DUP1 SWAP2 SUB SWAP1 REVERT JUMPDEST PUSH0 PUSH2 0x12DC DUP11 DUP11 DUP7 PUSH1 0x1 DUP13 DUP13 PUSH2 0x2CC0 JUMP JUMPDEST SWAP1 POP PUSH1 0x7 PUSH0 DUP3 DUP2 MSTORE PUSH1 0x20 ADD SWAP1 DUP2 MSTORE PUSH1 0x20 ADD PUSH0 KECCAK256 PUSH1 0x4 ADD PUSH1 0x40 MLOAD DUP1 PUSH1 0x60 ADD PUSH1 0x40 MSTORE DUP1 DUP4 DUP2 MSTORE PUSH1 0x20 ADD DUP9 DUP2 MSTORE PUSH1 0x20 ADD DUP8 DUP2 MSTORE POP SWAP1 DUP1 PUSH1 0x1 DUP2 SLOAD ADD DUP1 DUP3 SSTORE DUP1 SWAP2 POP POP PUSH1 0x1 SWAP1 SUB SWAP1 PUSH0 MSTORE PUSH1 0x20 PUSH0 KECCAK256 SWAP1 PUSH1 0x3 MUL ADD PUSH0 SWAP1 SWAP2 SWAP1 SWAP2 SWAP1 SWAP2 POP PUSH0 DUP3 ADD MLOAD DUP2 PUSH0 ADD SSTORE PUSH1 0x20 DUP3 ADD MLOAD DUP2 PUSH1 0x1 ADD PUSH0 DUP3 ADD MLOAD DUP2 PUSH0 ADD PUSH0 PUSH2 0x100 EXP DUP2 SLOAD DUP2 PUSH2 0xFFFF MUL NOT AND SWAP1 DUP4 PUSH2 0xFFFF AND MUL OR SWAP1 SSTORE POP PUSH1 0x20 DUP3 ADD MLOAD DUP2 PUSH0 ADD PUSH1 0x2 PUSH2 0x100 EXP DUP2 SLOAD DUP2 PUSH1 0xFF MUL NOT AND SWAP1 DUP4 PUSH1 0xFF AND MUL OR SWAP1 SSTORE POP PUSH1 0x40 DUP3 ADD MLOAD DUP2 PUSH0 ADD PUSH1 0x3 PUSH2 0x100 EXP DUP2 SLOAD DUP2 PUSH1 0xFF MUL NOT AND SWAP1 DUP4 PUSH1 0xFF AND MUL OR SWAP1 SSTORE POP POP POP PUSH1 0x40 DUP3 ADD MLOAD DUP2 PUSH1 0x2 ADD PUSH0 DUP3 ADD MLOAD DUP2 PUSH0 ADD PUSH0 PUSH2 0x100 EXP DUP2 SLOAD DUP2 PUSH2 0xFFFF MUL NOT AND SWAP1 DUP4 PUSH2 0xFFFF AND MUL OR SWAP1 SSTORE POP PUSH1 0x20 DUP3 ADD MLOAD DUP2 PUSH0 ADD PUSH1 0x2 PUSH2 0x100 EXP DUP2 SLOAD DUP2 PUSH1 0xFF MUL NOT AND SWAP1 DUP4 PUSH1 0xFF AND MUL OR SWAP1 SSTORE POP PUSH1 0x40 DUP3 ADD MLOAD DUP2 PUSH0 ADD PUSH1 0x3 PUSH2 0x100 EXP DUP2 SLOAD DUP2 PUSH1 0xFF MUL NOT AND SWAP1 DUP4 PUSH1 0xFF AND MUL OR SWAP1 SSTORE POP POP POP POP POP DUP1 DUP12 PUSH32 0xCA4757636F927657C127875C4F0C0EC6E1F84D4769348F20FFF39486A4BB2C3F PUSH1 0x40 MLOAD PUSH1 0x40 MLOAD DUP1 SWAP2 SUB SWAP1 LOG3 POP POP POP POP POP POP POP POP POP POP POP JUMP JUMPDEST PUSH2 0x1458 CALLER DUP5 PUSH2 0x2E69 JUMP JUMPDEST PUSH2 0x149B JUMPI DUP3 CALLER PUSH1 0x40 MLOAD PUSH32 0x1294D2A900000000000000000000000000000000000000000000000000000000 DUP2 MSTORE PUSH1 0x4 ADD PUSH2 0x1492 SWAP3 SWAP2 SWAP1 PUSH2 0x5E2A JUMP JUMPDEST PUSH1 0x40 MLOAD DUP1 SWAP2 SUB SWAP1 REVERT JUMPDEST PUSH2 0x14A8 DUP6 DUP6 DUP6 DUP6 DUP6 PUSH2 0x2F3F JUMP JUMPDEST POP POP POP POP POP JUMP JUMPDEST PUSH1 0x60 PUSH2 0x14BA DUP3 PUSH2 0x326B JUMP JUMPDEST SWAP1 POP SWAP2 SWAP1 POP JUMP JUMPDEST PUSH1 0x7 PUSH1 0x20 MSTORE DUP1 PUSH0 MSTORE PUSH1 0x40 PUSH0 KECCAK256 PUSH0 SWAP2 POP SWAP1 POP DUP1 PUSH0 ADD DUP1 SLOAD PUSH2 0x14E0 SWAP1 PUSH2 0x5ADD JUMP JUMPDEST DUP1 PUSH1 0x1F ADD PUSH1 0x20 DUP1 SWAP2 DIV MUL PUSH1 0x20 ADD PUSH1 0x40 MLOAD SWAP1 DUP2 ADD PUSH1 0x40 MSTORE DUP1 SWAP3 SWAP2 SWAP1 DUP2 DUP2 MSTORE PUSH1 0x20 ADD DUP3 DUP1 SLOAD PUSH2 0x150C SWAP1 PUSH2 0x5ADD JUMP JUMPDEST DUP1 ISZERO PUSH2 0x1557 JUMPI DUP1 PUSH1 0x1F LT PUSH2 0x152E JUMPI PUSH2 0x100 DUP1 DUP4 SLOAD DIV MUL DUP4 MSTORE SWAP2 PUSH1 0x20 ADD SWAP2 PUSH2 0x1557 JUMP JUMPDEST DUP3 ADD SWAP2 SWAP1 PUSH0 MSTORE PUSH1 0x20 PUSH0 KECCAK256 SWAP1 JUMPDEST DUP2 SLOAD DUP2 MSTORE SWAP1 PUSH1 0x1 ADD SWAP1 PUSH1 0x20 ADD DUP1 DUP4 GT PUSH2 0x153A JUMPI DUP3 SWAP1 SUB PUSH1 0x1F AND DUP3 ADD SWAP2 JUMPDEST POP POP POP POP POP SWAP1 DUP1 PUSH1 0x1 ADD SLOAD SWAP1 DUP1 PUSH1 0x2 ADD SLOAD SWAP1 DUP1 PUSH1 0x5 ADD PUSH0 SWAP1 SLOAD SWAP1 PUSH2 0x100 EXP SWAP1 DIV PUSH1 0xFF AND SWAP1 DUP1 PUSH1 0x6 ADD PUSH1 0x40 MLOAD DUP1 PUSH1 0x60 ADD PUSH1 0x40 MSTORE SWAP1 DUP2 PUSH0 DUP3 ADD PUSH0 SWAP1 SLOAD SWAP1 PUSH2 0x100 EXP SWAP1 DIV PUSH2 0xFFFF AND PUSH2 0xFFFF AND PUSH2 0xFFFF AND DUP2 MSTORE PUSH1 0x20 ADD PUSH0 DUP3 ADD PUSH1 0x2 SWAP1 SLOAD SWAP1 PUSH2 0x100 EXP SWAP1 DIV PUSH1 0xFF AND PUSH1 0xFF AND PUSH1 0xFF AND DUP2 MSTORE PUSH1 0x20 ADD PUSH0 DUP3 ADD PUSH1 0x3 SWAP1 SLOAD SWAP1 PUSH2 0x100 EXP SWAP1 DIV PUSH1 0xFF AND PUSH1 0xFF AND PUSH1 0xFF AND DUP2 MSTORE POP POP SWAP1 DUP1 PUSH1 0x7 ADD PUSH1 0x40 MLOAD DUP1 PUSH1 0x60 ADD PUSH1 0x40 MSTORE SWAP1 DUP2 PUSH0 DUP3 ADD PUSH0 SWAP1 SLOAD SWAP1 PUSH2 0x100 EXP SWAP1 DIV PUSH2 0xFFFF AND PUSH2 0xFFFF AND PUSH2 0xFFFF AND DUP2 MSTORE PUSH1 0x20 ADD PUSH0 DUP3 ADD PUSH1 0x2 SWAP1 SLOAD SWAP1 PUSH2 0x100 EXP SWAP1 DIV PUSH1 0xFF AND PUSH1 0xFF AND PUSH1 0xFF AND DUP2 MSTORE PUSH1 0x20 ADD PUSH0 DUP3 ADD PUSH1 0x3 SWAP1 SLOAD SWAP1 PUSH2 0x100 EXP SWAP1 DIV PUSH1 0xFF AND PUSH1 0xFF AND PUSH1 0xFF AND DUP2 MSTORE POP POP SWAP1 DUP1 PUSH1 0x8 ADD DUP1 SLOAD PUSH2 0x1656 SWAP1 PUSH2 0x5ADD JUMP JUMPDEST DUP1 PUSH1 0x1F ADD PUSH1 0x20 DUP1 SWAP2 DIV MUL PUSH1 0x20 ADD PUSH1 0x40 MLOAD SWAP1 DUP2 ADD PUSH1 0x40 MSTORE DUP1 SWAP3 SWAP2 SWAP1 DUP2 DUP2 MSTORE PUSH1 0x20 ADD DUP3 DUP1 SLOAD PUSH2 0x1682 SWAP1 PUSH2 0x5ADD JUMP JUMPDEST DUP1 ISZERO PUSH2 0x16CD JUMPI DUP1 PUSH1 0x1F LT PUSH2 0x16A4 JUMPI PUSH2 0x100 DUP1 DUP4 SLOAD DIV MUL DUP4 MSTORE SWAP2 PUSH1 0x20 ADD SWAP2 PUSH2 0x16CD JUMP JUMPDEST DUP3 ADD SWAP2 SWAP1 PUSH0 MSTORE PUSH1 0x20 PUSH0 KECCAK256 SWAP1 JUMPDEST DUP2 SLOAD DUP2 MSTORE SWAP1 PUSH1 0x1 ADD SWAP1 PUSH1 0x20 ADD DUP1 DUP4 GT PUSH2 0x16B0 JUMPI DUP3 SWAP1 SUB PUSH1 0x1F AND DUP3 ADD SWAP2 JUMPDEST POP POP POP POP POP SWAP1 POP DUP8 JUMP JUMPDEST PUSH1 0x60 DUP3 DUP3 SWAP1 POP PUSH8 0xFFFFFFFFFFFFFFFF DUP2 GT ISZERO PUSH2 0x16F6 JUMPI PUSH2 0x16F5 PUSH2 0x43FB JUMP JUMPDEST JUMPDEST PUSH1 0x40 MLOAD SWAP1 DUP1 DUP3 MSTORE DUP1 PUSH1 0x20 MUL PUSH1 0x20 ADD DUP3 ADD PUSH1 0x40 MSTORE DUP1 ISZERO PUSH2 0x1729 JUMPI DUP2 PUSH1 0x20 ADD JUMPDEST PUSH1 0x60 DUP2 MSTORE PUSH1 0x20 ADD SWAP1 PUSH1 0x1 SWAP1 SUB SWAP1 DUP2 PUSH2 0x1714 JUMPI SWAP1 POP JUMPDEST POP SWAP1 POP PUSH0 JUMPDEST DUP4 DUP4 SWAP1 POP DUP2 LT ISZERO PUSH2 0x1846 JUMPI PUSH0 PUSH0 ADDRESS PUSH20 0xFFFFFFFFFFFFFFFFFFFFFFFFFFFFFFFFFFFFFFFF AND DUP7 DUP7 DUP6 DUP2 DUP2 LT PUSH2 0x1765 JUMPI PUSH2 0x1764 PUSH2 0x5D7C JUMP JUMPDEST JUMPDEST SWAP1 POP PUSH1 0x20 MUL DUP2 ADD SWAP1 PUSH2 0x1777 SWAP2 SWAP1 PUSH2 0x5E5D JUMP JUMPDEST PUSH1 0x40 MLOAD PUSH2 0x1785 SWAP3 SWAP2 SWAP1 PUSH2 0x5EBF JUMP JUMPDEST PUSH0 PUSH1 0x40 MLOAD DUP1 DUP4 SUB DUP2 DUP6 GAS DELEGATECALL SWAP2 POP POP RETURNDATASIZE DUP1 PUSH0 DUP2 EQ PUSH2 0x17BD JUMPI PUSH1 0x40 MLOAD SWAP2 POP PUSH1 0x1F NOT PUSH1 0x3F RETURNDATASIZE ADD AND DUP3 ADD PUSH1 0x40 MSTORE RETURNDATASIZE DUP3 MSTORE RETURNDATASIZE PUSH0 PUSH1 0x20 DUP5 ADD RETURNDATACOPY PUSH2 0x17C2 JUMP JUMPDEST PUSH1 0x60 SWAP2 POP JUMPDEST POP SWAP2 POP SWAP2 POP DUP2 PUSH2 0x181A JUMPI PUSH0 DUP2 MLOAD EQ PUSH2 0x17DD JUMPI DUP1 MLOAD DUP1 DUP3 PUSH1 0x20 ADD REVERT JUMPDEST DUP3 PUSH1 0x40 MLOAD PUSH32 0x234EB81900000000000000000000000000000000000000000000000000000000 DUP2 MSTORE PUSH1 0x4 ADD PUSH2 0x1811 SWAP2 SWAP1 PUSH2 0x4651 JUMP JUMPDEST PUSH1 0x40 MLOAD DUP1 SWAP2 SUB SWAP1 REVERT JUMPDEST DUP1 DUP5 DUP5 DUP2 MLOAD DUP2 LT PUSH2 0x182E JUMPI PUSH2 0x182D PUSH2 0x5D7C JUMP JUMPDEST JUMPDEST PUSH1 0x20 MUL PUSH1 0x20 ADD ADD DUP2 SWAP1 MSTORE POP DUP3 PUSH1 0x1 ADD SWAP3 POP POP POP PUSH2 0x172E JUMP JUMPDEST POP SWAP3 SWAP2 POP POP JUMP JUMPDEST PUSH0 PUSH2 0x1893 PUSH1 0x4 PUSH0 DUP5 PUSH20 0xFFFFFFFFFFFFFFFFFFFFFFFFFFFFFFFFFFFFFFFF AND PUSH20 0xFFFFFFFFFFFFFFFFFFFFFFFFFFFFFFFFFFFFFFFF AND DUP2 MSTORE PUSH1 0x20 ADD SWAP1 DUP2 MSTORE PUSH1 0x20 ADD PUSH0 KECCAK256 PUSH2 0x330C JUMP JUMPDEST SWAP1 POP SWAP2 SWAP1 POP JUMP JUMPDEST PUSH2 0x18A2 PUSH2 0x2B78 JUMP JUMPDEST PUSH2 0x18AB PUSH0 PUSH2 0x2AB7 JUMP JUMPDEST JUMP JUMPDEST PUSH1 0x6 DUP1 PUSH0 ADD SLOAD SWAP1 POP DUP2 JUMP JUMPDEST PUSH0 DUP6 MLOAD SWAP1 POP DUP5 MLOAD DUP2 EQ ISZERO DUP1 PUSH2 0x18CE JUMPI POP DUP4 MLOAD DUP2 EQ ISZERO JUMPDEST DUP1 PUSH2 0x18DA JUMPI POP DUP3 MLOAD DUP2 EQ ISZERO JUMPDEST DUP1 PUSH2 0x18E6 JUMPI POP DUP2 MLOAD DUP2 EQ ISZERO JUMPDEST ISZERO PUSH2 0x191D JUMPI PUSH1 0x40 MLOAD PUSH32 0x93A8311900000000000000000000000000000000000000000000000000000000 DUP2 MSTORE PUSH1 0x4 ADD PUSH1 0x40 MLOAD DUP1 SWAP2 SUB SWAP1 REVERT JUMPDEST PUSH0 JUMPDEST DUP2 DUP2 LT ISZERO PUSH2 0x19C1 JUMPI PUSH2 0x19B6 DUP8 DUP3 DUP2 MLOAD DUP2 LT PUSH2 0x193D JUMPI PUSH2 0x193C PUSH2 0x5D7C JUMP JUMPDEST JUMPDEST PUSH1 0x20 MUL PUSH1 0x20 ADD ADD MLOAD DUP8 DUP4 DUP2 MLOAD DUP2 LT PUSH2 0x1958 JUMPI PUSH2 0x1957 PUSH2 0x5D7C JUMP JUMPDEST JUMPDEST PUSH1 0x20 MUL PUSH1 0x20 ADD ADD MLOAD DUP8 DUP5 DUP2 MLOAD DUP2 LT PUSH2 0x1973 JUMPI PUSH2 0x1972 PUSH2 0x5D7C JUMP JUMPDEST JUMPDEST PUSH1 0x20 MUL PUSH1 0x20 ADD ADD MLOAD DUP8 DUP6 DUP2 MLOAD DUP2 LT PUSH2 0x198E JUMPI PUSH2 0x198D PUSH2 0x5D7C JUMP JUMPDEST JUMPDEST PUSH1 0x20 MUL PUSH1 0x20 ADD ADD MLOAD DUP8 DUP7 DUP2 MLOAD DUP2 LT PUSH2 0x19A9 JUMPI PUSH2 0x19A8 PUSH2 0x5D7C JUMP JUMPDEST JUMPDEST PUSH1 0x20 MUL PUSH1 0x20 ADD ADD MLOAD PUSH2 0x144E JUMP JUMPDEST DUP1 PUSH1 0x1 ADD SWAP1 POP PUSH2 0x191F JUMP JUMPDEST POP POP POP POP POP POP POP JUMP JUMPDEST DUP1 PUSH0 PUSH2 0x19D5 DUP3 PUSH2 0xD30 JUMP JUMPDEST SWAP1 POP DUP1 PUSH20 0xFFFFFFFFFFFFFFFFFFFFFFFFFFFFFFFFFFFFFFFF AND CALLER PUSH20 0xFFFFFFFFFFFFFFFFFFFFFFFFFFFFFFFFFFFFFFFF AND EQ DUP1 PUSH2 0x1A43 JUMPI POP PUSH2 0x1A14 PUSH2 0x203C JUMP JUMPDEST PUSH20 0xFFFFFFFFFFFFFFFFFFFFFFFFFFFFFFFFFFFFFFFF AND CALLER PUSH20 0xFFFFFFFFFFFFFFFFFFFFFFFFFFFFFFFFFFFFFFFF AND EQ JUMPDEST PUSH2 0x1A82 JUMPI PUSH1 0x40 MLOAD PUSH32 0x8C379A000000000000000000000000000000000000000000000000000000000 DUP2 MSTORE PUSH1 0x4 ADD PUSH2 0x1A79 SWAP1 PUSH2 0x5E0C JUMP JUMPDEST PUSH1 0x40 MLOAD DUP1 SWAP2 SUB SWAP1 REVERT JUMPDEST PUSH0 PUSH1 0x7 PUSH0 DUP6 DUP2 MSTORE PUSH1 0x20 ADD SWAP1 DUP2 MSTORE PUSH1 0x20 ADD PUSH0 KECCAK256 SWAP1 POP PUSH0 PUSH0 SWAP1 POP JUMPDEST DUP2 PUSH1 0x4 ADD DUP1 SLOAD SWAP1 POP DUP2 LT ISZERO PUSH2 0x1D55 JUMPI DUP6 DUP3 PUSH1 0x4 ADD DUP3 DUP2 SLOAD DUP2 LT PUSH2 0x1AC1 JUMPI PUSH2 0x1AC0 PUSH2 0x5D7C JUMP JUMPDEST JUMPDEST SWAP1 PUSH0 MSTORE PUSH1 0x20 PUSH0 KECCAK256 SWAP1 PUSH1 0x3 MUL ADD PUSH0 ADD SLOAD SUB PUSH2 0x1D48 JUMPI PUSH0 PUSH1 0x1 DUP4 PUSH1 0x4 ADD DUP1 SLOAD SWAP1 POP PUSH2 0x1AEA SWAP2 SWAP1 PUSH2 0x5F04 JUMP JUMPDEST SWAP1 POP DUP1 DUP3 EQ PUSH2 0x1C61 JUMPI DUP3 PUSH1 0x4 ADD DUP2 DUP2 SLOAD DUP2 LT PUSH2 0x1B09 JUMPI PUSH2 0x1B08 PUSH2 0x5D7C JUMP JUMPDEST JUMPDEST SWAP1 PUSH0 MSTORE PUSH1 0x20 PUSH0 KECCAK256 SWAP1 PUSH1 0x3 MUL ADD DUP4 PUSH1 0x4 ADD DUP4 DUP2 SLOAD DUP2 LT PUSH2 0x1B2B JUMPI PUSH2 0x1B2A PUSH2 0x5D7C JUMP JUMPDEST JUMPDEST SWAP1 PUSH0 MSTORE PUSH1 0x20 PUSH0 KECCAK256 SWAP1 PUSH1 0x3 MUL ADD PUSH0 DUP3 ADD SLOAD DUP2 PUSH0 ADD SSTORE PUSH1 0x1 DUP3 ADD DUP2 PUSH1 0x1 ADD PUSH0 DUP3 ADD PUSH0 SWAP1 SLOAD SWAP1 PUSH2 0x100 EXP SWAP1 DIV PUSH2 0xFFFF AND DUP2 PUSH0 ADD PUSH0 PUSH2 0x100 EXP DUP2 SLOAD DUP2 PUSH2 0xFFFF MUL NOT AND SWAP1 DUP4 PUSH2 0xFFFF AND MUL OR SWAP1 SSTORE POP PUSH0 DUP3 ADD PUSH1 0x2 SWAP1 SLOAD SWAP1 PUSH2 0x100 EXP SWAP1 DIV PUSH1 0xFF AND DUP2 PUSH0 ADD PUSH1 0x2 PUSH2 0x100 EXP DUP2 SLOAD DUP2 PUSH1 0xFF MUL NOT AND SWAP1 DUP4 PUSH1 0xFF AND MUL OR SWAP1 SSTORE POP PUSH0 DUP3 ADD PUSH1 0x3 SWAP1 SLOAD SWAP1 PUSH2 0x100 EXP SWAP1 DIV PUSH1 0xFF AND DUP2 PUSH0 ADD PUSH1 0x3 PUSH2 0x100 EXP DUP2 SLOAD DUP2 PUSH1 0xFF MUL NOT AND SWAP1 DUP4 PUSH1 0xFF AND MUL OR SWAP1 SSTORE POP POP POP PUSH1 0x2 DUP3 ADD DUP2 PUSH1 0x2 ADD PUSH0 DUP3 ADD PUSH0 SWAP1 SLOAD SWAP1 PUSH2 0x100 EXP SWAP1 DIV PUSH2 0xFFFF AND DUP2 PUSH0 ADD PUSH0 PUSH2 0x100 EXP DUP2 SLOAD DUP2 PUSH2 0xFFFF MUL NOT AND SWAP1 DUP4 PUSH2 0xFFFF AND MUL OR SWAP1 SSTORE POP PUSH0 DUP3 ADD PUSH1 0x2 SWAP1 SLOAD SWAP1 PUSH2 0x100 EXP SWAP1 DIV PUSH1 0xFF AND DUP2 PUSH0 ADD PUSH1 0x2 PUSH2 0x100 EXP DUP2 SLOAD DUP2 PUSH1 0xFF MUL NOT AND SWAP1 DUP4 PUSH1 0xFF AND MUL OR SWAP1 SSTORE POP PUSH0 DUP3 ADD PUSH1 0x3 SWAP1 SLOAD SWAP1 PUSH2 0x100 EXP SWAP1 DIV PUSH1 0xFF AND DUP2 PUSH0 ADD PUSH1 0x3 PUSH2 0x100 EXP DUP2 SLOAD DUP2 PUSH1 0xFF MUL NOT AND SWAP1 DUP4 PUSH1 0xFF AND MUL OR SWAP1 SSTORE POP POP POP SWAP1 POP POP JUMPDEST DUP3 PUSH1 0x4 ADD DUP1 SLOAD DUP1 PUSH2 0x1C75 JUMPI PUSH2 0x1C74 PUSH2 0x5F37 JUMP JUMPDEST JUMPDEST PUSH1 0x1 SWAP1 SUB DUP2 DUP2 SWAP1 PUSH0 MSTORE PUSH1 0x20 PUSH0 KECCAK256 SWAP1 PUSH1 0x3 MUL ADD PUSH0 PUSH0 DUP3 ADD PUSH0 SWAP1 SSTORE PUSH1 0x1 DUP3 ADD PUSH0 PUSH0 DUP3 ADD PUSH0 PUSH2 0x100 EXP DUP2 SLOAD SWAP1 PUSH2 0xFFFF MUL NOT AND SWAP1 SSTORE PUSH0 DUP3 ADD PUSH1 0x2 PUSH2 0x100 EXP DUP2 SLOAD SWAP1 PUSH1 0xFF MUL NOT AND SWAP1 SSTORE PUSH0 DUP3 ADD PUSH1 0x3 PUSH2 0x100 EXP DUP2 SLOAD SWAP1 PUSH1 0xFF MUL NOT AND SWAP1 SSTORE POP POP PUSH1 0x2 DUP3 ADD PUSH0 PUSH0 DUP3 ADD PUSH0 PUSH2 0x100 EXP DUP2 SLOAD SWAP1 PUSH2 0xFFFF MUL NOT AND SWAP1 SSTORE PUSH0 DUP3 ADD PUSH1 0x2 PUSH2 0x100 EXP DUP2 SLOAD SWAP1 PUSH1 0xFF MUL NOT AND SWAP1 SSTORE PUSH0 DUP3 ADD PUSH1 0x3 PUSH2 0x100 EXP DUP2 SLOAD SWAP1 PUSH1 0xFF MUL NOT AND SWAP1 SSTORE POP POP POP POP SWAP1 SSTORE DUP6 DUP8 PUSH32 0xF1387B2F8963CA7947C75FAA29A4C7DE0859D44C5F9A658761ACBDC5D539976B PUSH1 0x40 MLOAD PUSH1 0x40 MLOAD DUP1 SWAP2 SUB SWAP1 LOG3 POP POP POP PUSH2 0x1D91 JUMP JUMPDEST DUP1 DUP1 PUSH1 0x1 ADD SWAP2 POP POP PUSH2 0x1A9B JUMP JUMPDEST POP PUSH1 0x40 MLOAD PUSH32 0x8C379A000000000000000000000000000000000000000000000000000000000 DUP2 MSTORE PUSH1 0x4 ADD PUSH2 0x1D88 SWAP1 PUSH2 0x5FAE JUMP JUMPDEST PUSH1 0x40 MLOAD DUP1 SWAP2 SUB SWAP1 REVERT JUMPDEST POP POP POP POP JUMP JUMPDEST PUSH2 0x1D9F PUSH2 0x2B78 JUMP JUMPDEST PUSH0 CALLVALUE EQ PUSH2 0x1DD8 JUMPI PUSH1 0x40 MLOAD PUSH32 0xF36BA73700000000000000000000000000000000000000000000000000000000 DUP2 MSTORE PUSH1 0x4 ADD PUSH1 0x40 MLOAD DUP1 SWAP2 SUB SWAP1 REVERT JUMPDEST PUSH2 0x1DE2 DUP3 DUP3 PUSH2 0x331F JUMP JUMPDEST POP POP JUMP JUMPDEST PUSH0 PUSH2 0x1DF0 DUP4 PUSH2 0xD30 JUMP JUMPDEST SWAP1 POP CALLER PUSH20 0xFFFFFFFFFFFFFFFFFFFFFFFFFFFFFFFFFFFFFFFF AND DUP2 PUSH20 0xFFFFFFFFFFFFFFFFFFFFFFFFFFFFFFFFFFFFFFFF AND EQ PUSH2 0x1E66 JUMPI DUP1 DUP4 CALLER PUSH1 0x40 MLOAD PUSH32 0x5B271EA200000000000000000000000000000000000000000000000000000000 DUP2 MSTORE PUSH1 0x4 ADD PUSH2 0x1E5D SWAP4 SWAP3 SWAP2 SWAP1 PUSH2 0x5FCC JUMP JUMPDEST PUSH1 0x40 MLOAD DUP1 SWAP2 SUB SWAP1 REVERT JUMPDEST PUSH0 PUSH20 0xFFFFFFFFFFFFFFFFFFFFFFFFFFFFFFFFFFFFFFFF AND DUP5 PUSH20 0xFFFFFFFFFFFFFFFFFFFFFFFFFFFFFFFFFFFFFFFF AND SUB PUSH2 0x1ECB JUMPI PUSH1 0x40 MLOAD PUSH32 0x9577B8B300000000000000000000000000000000000000000000000000000000 DUP2 MSTORE PUSH1 0x4 ADD PUSH1 0x40 MLOAD DUP1 SWAP2 SUB SWAP1 REVERT JUMPDEST DUP4 PUSH20 0xFFFFFFFFFFFFFFFFFFFFFFFFFFFFFFFFFFFFFFFF AND DUP2 PUSH20 0xFFFFFFFFFFFFFFFFFFFFFFFFFFFFFFFFFFFFFFFF AND SUB PUSH2 0x1F30 JUMPI PUSH1 0x40 MLOAD PUSH32 0x89FDAD6200000000000000000000000000000000000000000000000000000000 DUP2 MSTORE PUSH1 0x4 ADD PUSH1 0x40 MLOAD DUP1 SWAP2 SUB SWAP1 REVERT JUMPDEST PUSH0 PUSH2 0x1F54 DUP6 PUSH1 0x5 PUSH0 DUP8 DUP2 MSTORE PUSH1 0x20 ADD SWAP1 DUP2 MSTORE PUSH1 0x20 ADD PUSH0 KECCAK256 PUSH2 0x3388 SWAP1 SWAP2 SWAP1 PUSH4 0xFFFFFFFF AND JUMP JUMPDEST SWAP1 POP DUP1 PUSH2 0x1F9A JUMPI DUP5 DUP5 PUSH1 0x40 MLOAD PUSH32 0xA7626B6800000000000000000000000000000000000000000000000000000000 DUP2 MSTORE PUSH1 0x4 ADD PUSH2 0x1F91 SWAP3 SWAP2 SWAP1 PUSH2 0x6001 JUMP JUMPDEST PUSH1 0x40 MLOAD DUP1 SWAP2 SUB SWAP1 REVERT JUMPDEST DUP4 DUP3 PUSH20 0xFFFFFFFFFFFFFFFFFFFFFFFFFFFFFFFFFFFFFFFF AND DUP7 PUSH20 0xFFFFFFFFFFFFFFFFFFFFFFFFFFFFFFFFFFFFFFFF AND PUSH32 0x1B1B58AA2EC0CEC2228B2D37124556D41F5A1F7B12F089171F896CC236671215 DUP7 PUSH1 0x40 MLOAD PUSH2 0x1FF8 SWAP2 SWAP1 PUSH2 0x4619 JUMP JUMPDEST PUSH1 0x40 MLOAD DUP1 SWAP2 SUB SWAP1 LOG4 PUSH0 CALLER DUP6 PUSH1 0x1 DUP7 PUSH1 0x40 MLOAD PUSH1 0x20 ADD PUSH2 0x2019 SWAP5 SWAP4 SWAP3 SWAP2 SWAP1 PUSH2 0x6028 JUMP JUMPDEST PUSH1 0x40 MLOAD PUSH1 0x20 DUP2 DUP4 SUB SUB DUP2 MSTORE SWAP1 PUSH1 0x40 MSTORE SWAP1 POP PUSH2 0x2034 DUP7 DUP3 PUSH2 0x33B5 JUMP JUMPDEST POP POP POP POP POP POP JUMP JUMPDEST PUSH0 PUSH0 PUSH0 SWAP1 SLOAD SWAP1 PUSH2 0x100 EXP SWAP1 DIV PUSH20 0xFFFFFFFFFFFFFFFFFFFFFFFFFFFFFFFFFFFFFFFF AND SWAP1 POP SWAP1 JUMP JUMPDEST DUP2 PUSH0 PUSH2 0x206E DUP3 PUSH2 0xD30 JUMP JUMPDEST SWAP1 POP DUP1 PUSH20 0xFFFFFFFFFFFFFFFFFFFFFFFFFFFFFFFFFFFFFFFF AND CALLER PUSH20 0xFFFFFFFFFFFFFFFFFFFFFFFFFFFFFFFFFFFFFFFF AND EQ DUP1 PUSH2 0x20DC JUMPI POP PUSH2 0x20AD PUSH2 0x203C JUMP JUMPDEST PUSH20 0xFFFFFFFFFFFFFFFFFFFFFFFFFFFFFFFFFFFFFFFF AND CALLER PUSH20 0xFFFFFFFFFFFFFFFFFFFFFFFFFFFFFFFFFFFFFFFF AND EQ JUMPDEST PUSH2 0x211B JUMPI PUSH1 0x40 MLOAD PUSH32 0x8C379A000000000000000000000000000000000000000000000000000000000 DUP2 MSTORE PUSH1 0x4 ADD PUSH2 0x2112 SWAP1 PUSH2 0x5E0C JUMP JUMPDEST PUSH1 0x40 MLOAD DUP1 SWAP2 SUB SWAP1 REVERT JUMPDEST PUSH0 PUSH1 0x7 PUSH0 DUP7 DUP2 MSTORE PUSH1 0x20 ADD SWAP1 DUP2 MSTORE PUSH1 0x20 ADD PUSH0 KECCAK256 SWAP1 POP PUSH0 PUSH1 0x7 PUSH0 DUP7 DUP2 MSTORE PUSH1 0x20 ADD SWAP1 DUP2 MSTORE PUSH1 0x20 ADD PUSH0 KECCAK256 SWAP1 POP DUP6 DUP2 PUSH1 0x1 ADD SLOAD EQ PUSH2 0x2189 JUMPI PUSH1 0x40 MLOAD PUSH32 0x8C379A000000000000000000000000000000000000000000000000000000000 DUP2 MSTORE PUSH1 0x4 ADD PUSH2 0x2180 SWAP1 PUSH2 0x60BC JUMP JUMPDEST PUSH1 0x40 MLOAD DUP1 SWAP2 SUB SWAP1 REVERT JUMPDEST PUSH0 PUSH0 SWAP1 POP JUMPDEST DUP3 PUSH1 0x3 ADD DUP1 SLOAD SWAP1 POP DUP2 LT ISZERO PUSH2 0x2305 JUMPI DUP6 DUP4 PUSH1 0x3 ADD DUP3 DUP2 SLOAD DUP2 LT PUSH2 0x21B4 JUMPI PUSH2 0x21B3 PUSH2 0x5D7C JUMP JUMPDEST JUMPDEST SWAP1 PUSH0 MSTORE PUSH1 0x20 PUSH0 KECCAK256 SWAP1 PUSH1 0x2 MUL ADD PUSH1 0x1 ADD SLOAD SUB PUSH2 0x22F8 JUMPI PUSH0 PUSH1 0x1 DUP5 PUSH1 0x3 ADD DUP1 SLOAD SWAP1 POP PUSH2 0x21DE SWAP2 SWAP1 PUSH2 0x5F04 JUMP JUMPDEST SWAP1 POP DUP1 DUP3 EQ PUSH2 0x2272 JUMPI DUP4 PUSH1 0x3 ADD DUP2 DUP2 SLOAD DUP2 LT PUSH2 0x21FD JUMPI PUSH2 0x21FC PUSH2 0x5D7C JUMP JUMPDEST JUMPDEST SWAP1 PUSH0 MSTORE PUSH1 0x20 PUSH0 KECCAK256 SWAP1 PUSH1 0x2 MUL ADD DUP5 PUSH1 0x3 ADD DUP4 DUP2 SLOAD DUP2 LT PUSH2 0x221F JUMPI PUSH2 0x221E PUSH2 0x5D7C JUMP JUMPDEST JUMPDEST SWAP1 PUSH0 MSTORE PUSH1 0x20 PUSH0 KECCAK256 SWAP1 PUSH1 0x2 MUL ADD PUSH0 DUP3 ADD PUSH0 SWAP1 SLOAD SWAP1 PUSH2 0x100 EXP SWAP1 DIV PUSH1 0xFF AND DUP2 PUSH0 ADD PUSH0 PUSH2 0x100 EXP DUP2 SLOAD DUP2 PUSH1 0xFF MUL NOT AND SWAP1 DUP4 PUSH1 0x2 DUP2 GT ISZERO PUSH2 0x225F JUMPI PUSH2 0x225E PUSH2 0x4FB0 JUMP JUMPDEST JUMPDEST MUL OR SWAP1 SSTORE POP PUSH1 0x1 DUP3 ADD SLOAD DUP2 PUSH1 0x1 ADD SSTORE SWAP1 POP POP JUMPDEST DUP4 PUSH1 0x3 ADD DUP1 SLOAD DUP1 PUSH2 0x2286 JUMPI PUSH2 0x2285 PUSH2 0x5F37 JUMP JUMPDEST JUMPDEST PUSH1 0x1 SWAP1 SUB DUP2 DUP2 SWAP1 PUSH0 MSTORE PUSH1 0x20 PUSH0 KECCAK256 SWAP1 PUSH1 0x2 MUL ADD PUSH0 PUSH0 DUP3 ADD PUSH0 PUSH2 0x100 EXP DUP2 SLOAD SWAP1 PUSH1 0xFF MUL NOT AND SWAP1 SSTORE PUSH1 0x1 DUP3 ADD PUSH0 SWAP1 SSTORE POP POP SWAP1 SSTORE PUSH0 PUSH0 SHL DUP4 PUSH1 0x1 ADD DUP2 SWAP1 SSTORE POP DUP8 DUP8 PUSH32 0xD22EF99C12AEAECAC27F6067207B23AC6A9AE5F21E97134B39E98320AA04FA5D PUSH1 0x40 MLOAD PUSH1 0x40 MLOAD DUP1 SWAP2 SUB SWAP1 LOG3 POP POP POP POP PUSH2 0x2341 JUMP JUMPDEST DUP1 DUP1 PUSH1 0x1 ADD SWAP2 POP POP PUSH2 0x218E JUMP JUMPDEST POP PUSH1 0x40 MLOAD PUSH32 0x8C379A000000000000000000000000000000000000000000000000000000000 DUP2 MSTORE PUSH1 0x4 ADD PUSH2 0x2338 SWAP1 PUSH2 0x6124 JUMP JUMPDEST PUSH1 0x40 MLOAD DUP1 SWAP2 SUB SWAP1 REVERT JUMPDEST POP POP POP POP JUMP JUMPDEST PUSH2 0x234F PUSH2 0x2B78 JUMP JUMPDEST PUSH0 CALLVALUE EQ PUSH2 0x2388 JUMPI PUSH1 0x40 MLOAD PUSH32 0xF36BA73700000000000000000000000000000000000000000000000000000000 DUP2 MSTORE PUSH1 0x4 ADD PUSH1 0x40 MLOAD DUP1 SWAP2 SUB SWAP1 REVERT JUMPDEST PUSH2 0x2392 DUP3 DUP3 PUSH2 0x33E6 JUMP JUMPDEST POP POP JUMP JUMPDEST PUSH1 0x60 PUSH2 0x23DD PUSH1 0x4 PUSH0 DUP5 PUSH20 0xFFFFFFFFFFFFFFFFFFFFFFFFFFFFFFFFFFFFFFFF AND PUSH20 0xFFFFFFFFFFFFFFFFFFFFFFFFFFFFFFFFFFFFFFFF AND DUP2 MSTORE PUSH1 0x20 ADD SWAP1 DUP2 MSTORE PUSH1 0x20 ADD PUSH0 KECCAK256 PUSH2 0x34B7 JUMP JUMPDEST SWAP1 POP SWAP2 SWAP1 POP JUMP JUMPDEST PUSH2 0x23EC PUSH2 0x2B78 JUMP JUMPDEST DUP2 MLOAD DUP4 MLOAD EQ ISZERO DUP1 PUSH2 0x23FF JUMPI POP DUP1 MLOAD DUP3 MLOAD EQ ISZERO JUMPDEST ISZERO PUSH2 0x2436 JUMPI PUSH1 0x40 MLOAD PUSH32 0x2FA71DFE00000000000000000000000000000000000000000000000000000000 DUP2 MSTORE PUSH1 0x4 ADD PUSH1 0x40 MLOAD DUP1 SWAP2 SUB SWAP1 REVERT JUMPDEST PUSH0 DUP4 MLOAD SUB PUSH2 0x2470 JUMPI PUSH1 0x40 MLOAD PUSH32 0x80C9830500000000000000000000000000000000000000000000000000000000 DUP2 MSTORE PUSH1 0x4 ADD PUSH1 0x40 MLOAD DUP1 SWAP2 SUB SWAP1 REVERT JUMPDEST PUSH0 JUMPDEST DUP4 MLOAD DUP2 LT ISZERO PUSH2 0x24DF JUMPI PUSH2 0x24D4 DUP5 DUP3 DUP2 MLOAD DUP2 LT PUSH2 0x2491 JUMPI PUSH2 0x2490 PUSH2 0x5D7C JUMP JUMPDEST JUMPDEST PUSH1 0x20 MUL PUSH1 0x20 ADD ADD MLOAD DUP5 DUP4 DUP2 MLOAD DUP2 LT PUSH2 0x24AC JUMPI PUSH2 0x24AB PUSH2 0x5D7C JUMP JUMPDEST JUMPDEST PUSH1 0x20 MUL PUSH1 0x20 ADD ADD MLOAD DUP5 DUP5 DUP2 MLOAD DUP2 LT PUSH2 0x24C7 JUMPI PUSH2 0x24C6 PUSH2 0x5D7C JUMP JUMPDEST JUMPDEST PUSH1 0x20 MUL PUSH1 0x20 ADD ADD MLOAD PUSH2 0x34D6 JUMP JUMPDEST DUP1 PUSH1 0x1 ADD SWAP1 POP PUSH2 0x2472 JUMP JUMPDEST POP POP POP POP JUMP JUMPDEST DUP3 PUSH0 PUSH2 0x24F0 DUP3 PUSH2 0xD30 JUMP JUMPDEST SWAP1 POP DUP1 PUSH20 0xFFFFFFFFFFFFFFFFFFFFFFFFFFFFFFFFFFFFFFFF AND CALLER PUSH20 0xFFFFFFFFFFFFFFFFFFFFFFFFFFFFFFFFFFFFFFFF AND EQ DUP1 PUSH2 0x255E JUMPI POP PUSH2 0x252F PUSH2 0x203C JUMP JUMPDEST PUSH20 0xFFFFFFFFFFFFFFFFFFFFFFFFFFFFFFFFFFFFFFFF AND CALLER PUSH20 0xFFFFFFFFFFFFFFFFFFFFFFFFFFFFFFFFFFFFFFFF AND EQ JUMPDEST PUSH2 0x259D JUMPI PUSH1 0x40 MLOAD PUSH32 0x8C379A000000000000000000000000000000000000000000000000000000000 DUP2 MSTORE PUSH1 0x4 ADD PUSH2 0x2594 SWAP1 PUSH2 0x5E0C JUMP JUMPDEST PUSH1 0x40 MLOAD DUP1 SWAP2 SUB SWAP1 REVERT JUMPDEST PUSH2 0x25A8 DUP6 DUP6 DUP6 PUSH2 0x34D6 JUMP JUMPDEST POP POP POP POP POP JUMP JUMPDEST PUSH0 PUSH2 0x25B9 DUP5 PUSH2 0xD30 JUMP JUMPDEST SWAP1 POP DUP1 PUSH20 0xFFFFFFFFFFFFFFFFFFFFFFFFFFFFFFFFFFFFFFFF AND CALLER PUSH20 0xFFFFFFFFFFFFFFFFFFFFFFFFFFFFFFFFFFFFFFFF AND EQ PUSH2 0x2663 JUMPI CALLER PUSH20 0xFFFFFFFFFFFFFFFFFFFFFFFFFFFFFFFFFFFFFFFF AND DUP6 PUSH20 0xFFFFFFFFFFFFFFFFFFFFFFFFFFFFFFFFFFFFFFFF AND EQ PUSH2 0x2662 JUMPI CALLER DUP2 DUP6 PUSH1 0x40 MLOAD PUSH32 0x760B5ACD00000000000000000000000000000000000000000000000000000000 DUP2 MSTORE PUSH1 0x4 ADD PUSH2 0x2659 SWAP4 SWAP3 SWAP2 SWAP1 PUSH2 0x6142 JUMP JUMPDEST PUSH1 0x40 MLOAD DUP1 SWAP2 SUB SWAP1 REVERT JUMPDEST JUMPDEST PUSH0 PUSH20 0xFFFFFFFFFFFFFFFFFFFFFFFFFFFFFFFFFFFFFFFF AND DUP6 PUSH20 0xFFFFFFFFFFFFFFFFFFFFFFFFFFFFFFFFFFFFFFFF AND SUB PUSH2 0x26C8 JUMPI PUSH1 0x40 MLOAD PUSH32 0x9577B8B300000000000000000000000000000000000000000000000000000000 DUP2 MSTORE PUSH1 0x4 ADD PUSH1 0x40 MLOAD DUP1 SWAP2 SUB SWAP1 REVERT JUMPDEST DUP5 PUSH20 0xFFFFFFFFFFFFFFFFFFFFFFFFFFFFFFFFFFFFFFFF AND DUP2 PUSH20 0xFFFFFFFFFFFFFFFFFFFFFFFFFFFFFFFFFFFFFFFF AND SUB PUSH2 0x272D JUMPI PUSH1 0x40 MLOAD PUSH32 0x89FDAD6200000000000000000000000000000000000000000000000000000000 DUP2 MSTORE PUSH1 0x4 ADD PUSH1 0x40 MLOAD DUP1 SWAP2 SUB SWAP1 REVERT JUMPDEST PUSH2 0x273A DUP6 DUP3 DUP7 DUP7 DUP7 PUSH2 0x355B JUMP JUMPDEST DUP3 ISZERO PUSH2 0x2775 JUMPI PUSH0 DUP2 DUP6 PUSH0 DUP6 PUSH1 0x40 MLOAD PUSH1 0x20 ADD PUSH2 0x2758 SWAP5 SWAP4 SWAP3 SWAP2 SWAP1 PUSH2 0x6028 JUMP JUMPDEST PUSH1 0x40 MLOAD PUSH1 0x20 DUP2 DUP4 SUB SUB DUP2 MSTORE SWAP1 PUSH1 0x40 MSTORE SWAP1 POP PUSH2 0x2773 DUP7 DUP3 PUSH2 0x33B5 JUMP JUMPDEST POP JUMPDEST POP POP POP POP POP JUMP JUMPDEST PUSH1 0x60 DUP2 MLOAD PUSH8 0xFFFFFFFFFFFFFFFF DUP2 GT ISZERO PUSH2 0x2799 JUMPI PUSH2 0x2798 PUSH2 0x43FB JUMP JUMPDEST JUMPDEST PUSH1 0x40 MLOAD SWAP1 DUP1 DUP3 MSTORE DUP1 PUSH1 0x20 MUL PUSH1 0x20 ADD DUP3 ADD PUSH1 0x40 MSTORE DUP1 ISZERO PUSH2 0x27CC JUMPI DUP2 PUSH1 0x20 ADD JUMPDEST PUSH1 0x60 DUP2 MSTORE PUSH1 0x20 ADD SWAP1 PUSH1 0x1 SWAP1 SUB SWAP1 DUP2 PUSH2 0x27B7 JUMPI SWAP1 POP JUMPDEST POP SWAP1 POP PUSH0 PUSH0 SWAP1 POP JUMPDEST DUP3 MLOAD DUP2 LT ISZERO PUSH2 0x2829 JUMPI PUSH2 0x2800 DUP4 DUP3 DUP2 MLOAD DUP2 LT PUSH2 0x27F3 JUMPI PUSH2 0x27F2 PUSH2 0x5D7C JUMP JUMPDEST JUMPDEST PUSH1 0x20 MUL PUSH1 0x20 ADD ADD MLOAD PUSH2 0x326B JUMP JUMPDEST DUP3 DUP3 DUP2 MLOAD DUP2 LT PUSH2 0x2813 JUMPI PUSH2 0x2812 PUSH2 0x5D7C JUMP JUMPDEST JUMPDEST PUSH1 0x20 MUL PUSH1 0x20 ADD ADD DUP2 SWAP1 MSTORE POP DUP1 PUSH1 0x1 ADD SWAP1 POP PUSH2 0x27D4 JUMP JUMPDEST POP SWAP2 SWAP1 POP JUMP JUMPDEST PUSH1 0x9 DUP1 SLOAD PUSH2 0x283C SWAP1 PUSH2 0x5ADD JUMP JUMPDEST DUP1 PUSH1 0x1F ADD PUSH1 0x20 DUP1 SWAP2 DIV MUL PUSH1 0x20 ADD PUSH1 0x40 MLOAD SWAP1 DUP2 ADD PUSH1 0x40 MSTORE DUP1 SWAP3 SWAP2 SWAP1 DUP2 DUP2 MSTORE PUSH1 0x20 ADD DUP3 DUP1 SLOAD PUSH2 0x2868 SWAP1 PUSH2 0x5ADD JUMP JUMPDEST DUP1 ISZERO PUSH2 0x28B3 JUMPI DUP1 PUSH1 0x1F LT PUSH2 0x288A JUMPI PUSH2 0x100 DUP1 DUP4 SLOAD DIV MUL DUP4 MSTORE SWAP2 PUSH1 0x20 ADD SWAP2 PUSH2 0x28B3 JUMP JUMPDEST DUP3 ADD SWAP2 SWAP1 PUSH0 MSTORE PUSH1 0x20 PUSH0 KECCAK256 SWAP1 JUMPDEST DUP2 SLOAD DUP2 MSTORE SWAP1 PUSH1 0x1 ADD SWAP1 PUSH1 0x20 ADD DUP1 DUP4 GT PUSH2 0x2896 JUMPI DUP3 SWAP1 SUB PUSH1 0x1F AND DUP3 ADD SWAP2 JUMPDEST POP POP POP POP POP DUP2 JUMP JUMPDEST PUSH2 0x28C3 PUSH2 0x2B78 JUMP JUMPDEST PUSH0 PUSH20 0xFFFFFFFFFFFFFFFFFFFFFFFFFFFFFFFFFFFFFFFF AND DUP2 PUSH20 0xFFFFFFFFFFFFFFFFFFFFFFFFFFFFFFFFFFFFFFFF AND SUB PUSH2 0x2931 JUMPI PUSH1 0x40 MLOAD PUSH32 0x8C379A000000000000000000000000000000000000000000000000000000000 DUP2 MSTORE PUSH1 0x4 ADD PUSH2 0x2928 SWAP1 PUSH2 0x61E7 JUMP JUMPDEST PUSH1 0x40 MLOAD DUP1 SWAP2 SUB SWAP1 REVERT JUMPDEST PUSH2 0x293A DUP2 PUSH2 0x2AB7 JUMP JUMPDEST POP JUMP JUMPDEST PUSH0 PUSH0 PUSH0 PUSH2 0x2976 PUSH10 0xCEE78B4094DA86011096 PUSH1 0xB0 SHL DUP6 PUSH28 0xFFFFFFFFFFFFFFFFFFFFFFFFFFFFFFFFFFFFFFFFFFFFFFFFFFFFFFFF NOT AND PUSH2 0x3635 JUMP JUMPDEST SWAP1 POP PUSH0 PUSH2 0x2982 DUP3 PUSH2 0x326B JUMP JUMPDEST SWAP1 POP PUSH1 0x14 DUP2 MLOAD EQ ISZERO DUP1 ISZERO PUSH2 0x2997 JUMPI POP PUSH0 DUP2 MLOAD EQ ISZERO JUMPDEST ISZERO PUSH2 0x29D9 JUMPI DUP1 PUSH1 0x40 MLOAD PUSH32 0x42BFE79F00000000000000000000000000000000000000000000000000000000 DUP2 MSTORE PUSH1 0x4 ADD PUSH2 0x29D0 SWAP2 SWAP1 PUSH2 0x4619 JUMP JUMPDEST PUSH1 0x40 MLOAD DUP1 SWAP2 SUB SWAP1 REVERT JUMPDEST DUP1 PUSH2 0x29E3 SWAP1 PUSH2 0x6253 JUMP JUMPDEST PUSH1 0x60 SHR PUSH1 0x1 SWAP4 POP SWAP4 POP POP POP SWAP2 POP SWAP2 JUMP JUMPDEST PUSH0 PUSH4 0xA918FA6B PUSH1 0xE0 SHL PUSH28 0xFFFFFFFFFFFFFFFFFFFFFFFFFFFFFFFFFFFFFFFFFFFFFFFFFFFFFFFF NOT AND DUP3 PUSH28 0xFFFFFFFFFFFFFFFFFFFFFFFFFFFFFFFFFFFFFFFFFFFFFFFFFFFFFFFF NOT AND EQ DUP1 PUSH2 0x2A4C JUMPI POP PUSH2 0x2A4B DUP3 PUSH2 0x3673 JUMP JUMPDEST JUMPDEST SWAP1 POP SWAP2 SWAP1 POP JUMP JUMPDEST PUSH0 PUSH0 PUSH2 0x2A65 PUSH4 0x1FFC9A7 PUSH1 0xE0 SHL PUSH2 0x293D JUMP JUMPDEST POP SWAP1 POP PUSH0 PUSH20 0xFFFFFFFFFFFFFFFFFFFFFFFFFFFFFFFFFFFFFFFF AND DUP2 PUSH20 0xFFFFFFFFFFFFFFFFFFFFFFFFFFFFFFFFFFFFFFFF AND SUB PUSH2 0x2AA4 JUMPI PUSH0 SWAP2 POP POP PUSH2 0x2AB2 JUMP JUMPDEST PUSH2 0x2AAE DUP2 DUP5 PUSH2 0x373C JUMP JUMPDEST SWAP2 POP POP JUMPDEST SWAP2 SWAP1 POP JUMP JUMPDEST PUSH0 PUSH0 PUSH0 SWAP1 SLOAD SWAP1 PUSH2 0x100 EXP SWAP1 DIV PUSH20 0xFFFFFFFFFFFFFFFFFFFFFFFFFFFFFFFFFFFFFFFF AND SWAP1 POP DUP2 PUSH0 PUSH0 PUSH2 0x100 EXP DUP2 SLOAD DUP2 PUSH20 0xFFFFFFFFFFFFFFFFFFFFFFFFFFFFFFFFFFFFFFFF MUL NOT AND SWAP1 DUP4 PUSH20 0xFFFFFFFFFFFFFFFFFFFFFFFFFFFFFFFFFFFFFFFF AND MUL OR SWAP1 SSTORE POP DUP2 PUSH20 0xFFFFFFFFFFFFFFFFFFFFFFFFFFFFFFFFFFFFFFFF AND DUP2 PUSH20 0xFFFFFFFFFFFFFFFFFFFFFFFFFFFFFFFFFFFFFFFF AND PUSH32 0x8BE0079C531659141344CD1FD0A4F28419497F9722A3DAAFE3B4186F6B6457E0 PUSH1 0x40 MLOAD PUSH1 0x40 MLOAD DUP1 SWAP2 SUB SWAP1 LOG3 POP POP JUMP JUMPDEST PUSH2 0x2B80 PUSH2 0x37F5 JUMP JUMPDEST PUSH20 0xFFFFFFFFFFFFFFFFFFFFFFFFFFFFFFFFFFFFFFFF AND PUSH2 0x2B9E PUSH2 0x203C JUMP JUMPDEST PUSH20 0xFFFFFFFFFFFFFFFFFFFFFFFFFFFFFFFFFFFFFFFF AND EQ PUSH2 0x2BF4 JUMPI PUSH1 0x40 MLOAD PUSH32 0x8C379A000000000000000000000000000000000000000000000000000000000 DUP2 MSTORE PUSH1 0x4 ADD PUSH2 0x2BEB SWAP1 PUSH2 0x6303 JUMP JUMPDEST PUSH1 0x40 MLOAD DUP1 SWAP2 SUB SWAP1 REVERT JUMPDEST JUMP JUMPDEST PUSH1 0x60 PUSH1 0x1 PUSH0 DUP5 DUP5 PUSH1 0x40 MLOAD PUSH1 0x20 ADD PUSH2 0x2C0E SWAP3 SWAP2 SWAP1 PUSH2 0x6341 JUMP JUMPDEST PUSH1 0x40 MLOAD PUSH1 0x20 DUP2 DUP4 SUB SUB DUP2 MSTORE SWAP1 PUSH1 0x40 MSTORE DUP1 MLOAD SWAP1 PUSH1 0x20 ADD KECCAK256 DUP2 MSTORE PUSH1 0x20 ADD SWAP1 DUP2 MSTORE PUSH1 0x20 ADD PUSH0 KECCAK256 DUP1 SLOAD PUSH2 0x2C3C SWAP1 PUSH2 0x5ADD JUMP JUMPDEST DUP1 PUSH1 0x1F ADD PUSH1 0x20 DUP1 SWAP2 DIV MUL PUSH1 0x20 ADD PUSH1 0x40 MLOAD SWAP1 DUP2 ADD PUSH1 0x40 MSTORE DUP1 SWAP3 SWAP2 SWAP1 DUP2 DUP2 MSTORE PUSH1 0x20 ADD DUP3 DUP1 SLOAD PUSH2 0x2C68 SWAP1 PUSH2 0x5ADD JUMP JUMPDEST DUP1 ISZERO PUSH2 0x2CB3 JUMPI DUP1 PUSH1 0x1F LT PUSH2 0x2C8A JUMPI PUSH2 0x100 DUP1 DUP4 SLOAD DIV MUL DUP4 MSTORE SWAP2 PUSH1 0x20 ADD SWAP2 PUSH2 0x2CB3 JUMP JUMPDEST DUP3 ADD SWAP2 SWAP1 PUSH0 MSTORE PUSH1 0x20 PUSH0 KECCAK256 SWAP1 JUMPDEST DUP2 SLOAD DUP2 MSTORE SWAP1 PUSH1 0x1 ADD SWAP1 PUSH1 0x20 ADD DUP1 DUP4 GT PUSH2 0x2C96 JUMPI DUP3 SWAP1 SUB PUSH1 0x1F AND DUP3 ADD SWAP2 JUMPDEST POP POP POP POP POP SWAP1 POP SWAP3 SWAP2 POP POP JUMP JUMPDEST PUSH0 PUSH2 0x2CCB PUSH1 0x6 PUSH2 0x37FC JUMP JUMPDEST PUSH2 0x2CD5 PUSH1 0x6 PUSH2 0x3810 JUMP JUMPDEST PUSH0 SHL SWAP1 POP PUSH2 0x2CF4 DUP6 DUP3 PUSH1 0x1 PUSH1 0x40 MLOAD DUP1 PUSH1 0x20 ADD PUSH1 0x40 MSTORE DUP1 PUSH0 DUP2 MSTORE POP PUSH2 0x381C JUMP JUMPDEST PUSH0 PUSH1 0x7 PUSH0 DUP4 DUP2 MSTORE PUSH1 0x20 ADD SWAP1 DUP2 MSTORE PUSH1 0x20 ADD PUSH0 KECCAK256 SWAP1 POP DUP8 DUP2 PUSH0 ADD SWAP1 DUP2 PUSH2 0x2D18 SWAP2 SWAP1 PUSH2 0x5CAD JUMP JUMPDEST POP DUP4 DUP2 PUSH1 0x6 ADD PUSH0 DUP3 ADD MLOAD DUP2 PUSH0 ADD PUSH0 PUSH2 0x100 EXP DUP2 SLOAD DUP2 PUSH2 0xFFFF MUL NOT AND SWAP1 DUP4 PUSH2 0xFFFF AND MUL OR SWAP1 SSTORE POP PUSH1 0x20 DUP3 ADD MLOAD DUP2 PUSH0 ADD PUSH1 0x2 PUSH2 0x100 EXP DUP2 SLOAD DUP2 PUSH1 0xFF MUL NOT AND SWAP1 DUP4 PUSH1 0xFF AND MUL OR SWAP1 SSTORE POP PUSH1 0x40 DUP3 ADD MLOAD DUP2 PUSH0 ADD PUSH1 0x3 PUSH2 0x100 EXP DUP2 SLOAD DUP2 PUSH1 0xFF MUL NOT AND SWAP1 DUP4 PUSH1 0xFF AND MUL OR SWAP1 SSTORE POP SWAP1 POP POP DUP3 DUP2 PUSH1 0x7 ADD PUSH0 DUP3 ADD MLOAD DUP2 PUSH0 ADD PUSH0 PUSH2 0x100 EXP DUP2 SLOAD DUP2 PUSH2 0xFFFF MUL NOT AND SWAP1 DUP4 PUSH2 0xFFFF AND MUL OR SWAP1 SSTORE POP PUSH1 0x20 DUP3 ADD MLOAD DUP2 PUSH0 ADD PUSH1 0x2 PUSH2 0x100 EXP DUP2 SLOAD DUP2 PUSH1 0xFF MUL NOT AND SWAP1 DUP4 PUSH1 0xFF AND MUL OR SWAP1 SSTORE POP PUSH1 0x40 DUP3 ADD MLOAD DUP2 PUSH0 ADD PUSH1 0x3 PUSH2 0x100 EXP DUP2 SLOAD DUP2 PUSH1 0xFF MUL NOT AND SWAP1 DUP4 PUSH1 0xFF AND MUL OR SWAP1 SSTORE POP SWAP1 POP POP DUP5 DUP2 PUSH1 0x5 ADD PUSH0 PUSH2 0x100 EXP DUP2 SLOAD DUP2 PUSH1 0xFF MUL NOT AND SWAP1 DUP4 PUSH1 0x2 DUP2 GT ISZERO PUSH2 0x2E0F JUMPI PUSH2 0x2E0E PUSH2 0x4FB0 JUMP JUMPDEST JUMPDEST MUL OR SWAP1 SSTORE POP DUP7 DUP2 PUSH1 0x8 ADD SWAP1 DUP2 PUSH2 0x2E25 SWAP2 SWAP1 PUSH2 0x5CAD JUMP JUMPDEST POP DUP2 PUSH32 0xA6912C28A8CB5FC5CAB504E471CFA6BC504444025484D810E2565BC7DEAD6657 DUP8 PUSH1 0x40 MLOAD PUSH2 0x2E56 SWAP2 SWAP1 PUSH2 0x48D6 JUMP JUMPDEST PUSH1 0x40 MLOAD DUP1 SWAP2 SUB SWAP1 LOG2 POP SWAP7 SWAP6 POP POP POP POP POP POP JUMP JUMPDEST PUSH0 PUSH2 0x2E73 DUP3 PUSH2 0xD30 JUMP JUMPDEST PUSH20 0xFFFFFFFFFFFFFFFFFFFFFFFFFFFFFFFFFFFFFFFF AND DUP4 PUSH20 0xFFFFFFFFFFFFFFFFFFFFFFFFFFFFFFFFFFFFFFFF AND EQ DUP1 PUSH2 0x2ECB JUMPI POP PUSH2 0x2ECA DUP4 PUSH1 0x5 PUSH0 DUP6 DUP2 MSTORE PUSH1 0x20 ADD SWAP1 DUP2 MSTORE PUSH1 0x20 ADD PUSH0 KECCAK256 PUSH2 0x3A8C SWAP1 SWAP2 SWAP1 PUSH4 0xFFFFFFFF AND JUMP JUMPDEST JUMPDEST SWAP1 POP SWAP3 SWAP2 POP POP JUMP JUMPDEST PUSH2 0x2EDC DUP2 PUSH2 0x3AB9 JUMP JUMPDEST PUSH2 0x2F1D JUMPI DUP1 PUSH1 0x40 MLOAD PUSH32 0xAE8F9A3600000000000000000000000000000000000000000000000000000000 DUP2 MSTORE PUSH1 0x4 ADD PUSH2 0x2F14 SWAP2 SWAP1 PUSH2 0x5DA9 JUMP JUMPDEST PUSH1 0x40 MLOAD DUP1 SWAP2 SUB SWAP1 REVERT JUMPDEST POP JUMP JUMPDEST PUSH1 0x60 PUSH0 PUSH2 0x2F2E DUP4 PUSH0 ADD PUSH2 0x3B21 JUMP JUMPDEST SWAP1 POP PUSH1 0x60 DUP2 SWAP1 POP DUP1 SWAP3 POP POP POP SWAP2 SWAP1 POP JUMP JUMPDEST PUSH0 PUSH2 0x2F49 DUP5 PUSH2 0xD30 JUMP JUMPDEST SWAP1 POP DUP6 PUSH20 0xFFFFFFFFFFFFFFFFFFFFFFFFFFFFFFFFFFFFFFFF AND DUP2 PUSH20 0xFFFFFFFFFFFFFFFFFFFFFFFFFFFFFFFFFFFFFFFF AND EQ PUSH2 0x2FBF JUMPI DUP1 DUP5 DUP8 PUSH1 0x40 MLOAD PUSH32 0x5B271EA200000000000000000000000000000000000000000000000000000000 DUP2 MSTORE PUSH1 0x4 ADD PUSH2 0x2FB6 SWAP4 SWAP3 SWAP2 SWAP1 PUSH2 0x5FCC JUMP JUMPDEST PUSH1 0x40 MLOAD DUP1 SWAP2 SUB SWAP1 REVERT JUMPDEST PUSH0 PUSH20 0xFFFFFFFFFFFFFFFFFFFFFFFFFFFFFFFFFFFFFFFF AND DUP6 PUSH20 0xFFFFFFFFFFFFFFFFFFFFFFFFFFFFFFFFFFFFFFFF AND SUB PUSH2 0x3024 JUMPI PUSH1 0x40 MLOAD PUSH32 0x24ECEF4D00000000000000000000000000000000000000000000000000000000 DUP2 MSTORE PUSH1 0x4 ADD PUSH1 0x40 MLOAD DUP1 SWAP2 SUB SWAP1 REVERT JUMPDEST PUSH2 0x3031 DUP7 DUP7 DUP7 DUP7 DUP7 PUSH2 0x3B7A JUMP JUMPDEST PUSH0 PUSH2 0x303B DUP6 PUSH2 0xD30 JUMP JUMPDEST SWAP1 POP DUP1 PUSH20 0xFFFFFFFFFFFFFFFFFFFFFFFFFFFFFFFFFFFFFFFF AND DUP3 PUSH20 0xFFFFFFFFFFFFFFFFFFFFFFFFFFFFFFFFFFFFFFFF AND EQ PUSH2 0x30B1 JUMPI DUP5 DUP3 DUP3 PUSH1 0x40 MLOAD PUSH32 0x5A9C31D300000000000000000000000000000000000000000000000000000000 DUP2 MSTORE PUSH1 0x4 ADD PUSH2 0x30A8 SWAP4 SWAP3 SWAP2 SWAP1 PUSH2 0x636C JUMP JUMPDEST PUSH1 0x40 MLOAD DUP1 SWAP2 SUB SWAP1 REVERT JUMPDEST PUSH2 0x30BB DUP8 DUP7 PUSH2 0x3B81 JUMP JUMPDEST PUSH2 0x310A DUP6 PUSH1 0x4 PUSH0 DUP11 PUSH20 0xFFFFFFFFFFFFFFFFFFFFFFFFFFFFFFFFFFFFFFFF AND PUSH20 0xFFFFFFFFFFFFFFFFFFFFFFFFFFFFFFFFFFFFFFFF AND DUP2 MSTORE PUSH1 0x20 ADD SWAP1 DUP2 MSTORE PUSH1 0x20 ADD PUSH0 KECCAK256 PUSH2 0x3BEF SWAP1 SWAP2 SWAP1 PUSH4 0xFFFFFFFF AND JUMP JUMPDEST POP PUSH2 0x315A DUP6 PUSH1 0x4 PUSH0 DUP10 PUSH20 0xFFFFFFFFFFFFFFFFFFFFFFFFFFFFFFFFFFFFFFFF AND PUSH20 0xFFFFFFFFFFFFFFFFFFFFFFFFFFFFFFFFFFFFFFFF AND DUP2 MSTORE PUSH1 0x20 ADD SWAP1 DUP2 MSTORE PUSH1 0x20 ADD PUSH0 KECCAK256 PUSH2 0x3C04 SWAP1 SWAP2 SWAP1 PUSH4 0xFFFFFFFF AND JUMP JUMPDEST POP DUP6 PUSH1 0x3 PUSH0 DUP8 DUP2 MSTORE PUSH1 0x20 ADD SWAP1 DUP2 MSTORE PUSH1 0x20 ADD PUSH0 KECCAK256 PUSH0 PUSH2 0x100 EXP DUP2 SLOAD DUP2 PUSH20 0xFFFFFFFFFFFFFFFFFFFFFFFFFFFFFFFFFFFFFFFF MUL NOT AND SWAP1 DUP4 PUSH20 0xFFFFFFFFFFFFFFFFFFFFFFFFFFFFFFFFFFFFFFFF AND MUL OR SWAP1 SSTORE POP DUP5 DUP7 PUSH20 0xFFFFFFFFFFFFFFFFFFFFFFFFFFFFFFFFFFFFFFFF AND DUP9 PUSH20 0xFFFFFFFFFFFFFFFFFFFFFFFFFFFFFFFFFFFFFFFF AND PUSH32 0xB333C813A7426A7A11E2B190CAD52C44119421594B47F6F32ACE6D8C7207B2BF CALLER DUP9 DUP9 PUSH1 0x40 MLOAD PUSH2 0x320C SWAP4 SWAP3 SWAP2 SWAP1 PUSH2 0x63A1 JUMP JUMPDEST PUSH1 0x40 MLOAD DUP1 SWAP2 SUB SWAP1 LOG4 PUSH2 0x3221 DUP8 DUP8 DUP8 DUP8 DUP8 PUSH2 0x3C19 JUMP JUMPDEST PUSH0 CALLER DUP9 DUP9 DUP9 DUP8 PUSH1 0x40 MLOAD PUSH1 0x20 ADD PUSH2 0x323B SWAP6 SWAP5 SWAP4 SWAP3 SWAP2 SWAP1 PUSH2 0x63DD JUMP JUMPDEST PUSH1 0x40 MLOAD PUSH1 0x20 DUP2 DUP4 SUB SUB DUP2 MSTORE SWAP1 PUSH1 0x40 MSTORE SWAP1 POP PUSH2 0x3256 DUP9 DUP3 PUSH2 0x3C20 JUMP JUMPDEST PUSH2 0x3261 DUP8 DUP7 DUP4 PUSH2 0x3C51 JUMP JUMPDEST POP POP POP POP POP POP POP POP JUMP JUMPDEST PUSH1 0x60 PUSH1 0x1 PUSH0 DUP4 DUP2 MSTORE PUSH1 0x20 ADD SWAP1 DUP2 MSTORE PUSH1 0x20 ADD PUSH0 KECCAK256 DUP1 SLOAD PUSH2 0x3289 SWAP1 PUSH2 0x5ADD JUMP JUMPDEST DUP1 PUSH1 0x1F ADD PUSH1 0x20 DUP1 SWAP2 DIV MUL PUSH1 0x20 ADD PUSH1 0x40 MLOAD SWAP1 DUP2 ADD PUSH1 0x40 MSTORE DUP1 SWAP3 SWAP2 SWAP1 DUP2 DUP2 MSTORE PUSH1 0x20 ADD DUP3 DUP1 SLOAD PUSH2 0x32B5 SWAP1 PUSH2 0x5ADD JUMP JUMPDEST DUP1 ISZERO PUSH2 0x3300 JUMPI DUP1 PUSH1 0x1F LT PUSH2 0x32D7 JUMPI PUSH2 0x100 DUP1 DUP4 SLOAD DIV MUL DUP4 MSTORE SWAP2 PUSH1 0x20 ADD SWAP2 PUSH2 0x3300 JUMP JUMPDEST DUP3 ADD SWAP2 SWAP1 PUSH0 MSTORE PUSH1 0x20 PUSH0 KECCAK256 SWAP1 JUMPDEST DUP2 SLOAD DUP2 MSTORE SWAP1 PUSH1 0x1 ADD SWAP1 PUSH1 0x20 ADD DUP1 DUP4 GT PUSH2 0x32E3 JUMPI DUP3 SWAP1 SUB PUSH1 0x1F AND DUP3 ADD SWAP2 JUMPDEST POP POP POP POP POP SWAP1 POP SWAP2 SWAP1 POP JUMP JUMPDEST PUSH0 PUSH2 0x3318 DUP3 PUSH0 ADD PUSH2 0x3DB0 JUMP JUMPDEST SWAP1 POP SWAP2 SWAP1 POP JUMP JUMPDEST PUSH32 0xF675E9361AF1C1664C1868CFA3EB97672D6B1A513AA5B81DEC34C9EE330E818D PUSH0 SHL DUP3 SUB PUSH2 0x337A JUMPI PUSH1 0x40 MLOAD PUSH32 0x3664800A00000000000000000000000000000000000000000000000000000000 DUP2 MSTORE PUSH1 0x4 ADD PUSH1 0x40 MLOAD DUP1 SWAP2 SUB SWAP1 REVERT JUMPDEST PUSH2 0x3384 DUP3 DUP3 PUSH2 0x3DBF JUMP JUMPDEST POP POP JUMP JUMPDEST PUSH0 PUSH2 0x33AD DUP4 PUSH0 ADD DUP4 PUSH20 0xFFFFFFFFFFFFFFFFFFFFFFFFFFFFFFFFFFFFFFFF AND PUSH0 SHL PUSH2 0x3F2B JUMP JUMPDEST SWAP1 POP SWAP3 SWAP2 POP POP JUMP JUMPDEST PUSH2 0x33E2 DUP3 PUSH32 0x8A1C15A8799F71B547E08E2BCB2E85257E81B0A07EEE2CE6712549EEF1F00970 PUSH0 SHL DUP4 PUSH2 0x3F92 JUMP JUMPDEST POP POP JUMP JUMPDEST DUP1 MLOAD DUP3 MLOAD EQ PUSH2 0x3421 JUMPI PUSH1 0x40 MLOAD PUSH32 0x3BCC897900000000000000000000000000000000000000000000000000000000 DUP2 MSTORE PUSH1 0x4 ADD PUSH1 0x40 MLOAD DUP1 SWAP2 SUB SWAP1 REVERT JUMPDEST PUSH0 DUP3 MLOAD SUB PUSH2 0x345B JUMPI PUSH1 0x40 MLOAD PUSH32 0x97DA5F9500000000000000000000000000000000000000000000000000000000 DUP2 MSTORE PUSH1 0x4 ADD PUSH1 0x40 MLOAD DUP1 SWAP2 SUB SWAP1 REVERT JUMPDEST PUSH0 PUSH0 SWAP1 POP JUMPDEST DUP3 MLOAD DUP2 LT ISZERO PUSH2 0x34B2 JUMPI PUSH2 0x34A7 DUP4 DUP3 DUP2 MLOAD DUP2 LT PUSH2 0x347F JUMPI PUSH2 0x347E PUSH2 0x5D7C JUMP JUMPDEST JUMPDEST PUSH1 0x20 MUL PUSH1 0x20 ADD ADD MLOAD DUP4 DUP4 DUP2 MLOAD DUP2 LT PUSH2 0x349A JUMPI PUSH2 0x3499 PUSH2 0x5D7C JUMP JUMPDEST JUMPDEST PUSH1 0x20 MUL PUSH1 0x20 ADD ADD MLOAD PUSH2 0x331F JUMP JUMPDEST DUP1 PUSH1 0x1 ADD SWAP1 POP PUSH2 0x3460 JUMP JUMPDEST POP POP POP JUMP JUMPDEST PUSH1 0x60 PUSH0 PUSH2 0x34C5 DUP4 PUSH0 ADD PUSH2 0x3B21 JUMP JUMPDEST SWAP1 POP PUSH1 0x60 DUP2 SWAP1 POP DUP1 SWAP3 POP POP POP SWAP2 SWAP1 POP JUMP JUMPDEST DUP1 PUSH1 0x1 PUSH0 DUP6 DUP6 PUSH1 0x40 MLOAD PUSH1 0x20 ADD PUSH2 0x34ED SWAP3 SWAP2 SWAP1 PUSH2 0x6341 JUMP JUMPDEST PUSH1 0x40 MLOAD PUSH1 0x20 DUP2 DUP4 SUB SUB DUP2 MSTORE SWAP1 PUSH1 0x40 MSTORE DUP1 MLOAD SWAP1 PUSH1 0x20 ADD KECCAK256 DUP2 MSTORE PUSH1 0x20 ADD SWAP1 DUP2 MSTORE PUSH1 0x20 ADD PUSH0 KECCAK256 SWAP1 DUP2 PUSH2 0x351C SWAP2 SWAP1 PUSH2 0x648D JUMP JUMPDEST POP DUP2 DUP4 PUSH32 0xA6E4251F855F750545FE414F120DB91C76B88DEF14D120969E5BB2D3F05DEBBB DUP4 PUSH1 0x40 MLOAD PUSH2 0x354E SWAP2 SWAP1 PUSH2 0x4619 JUMP JUMPDEST PUSH1 0x40 MLOAD DUP1 SWAP2 SUB SWAP1 LOG3 POP POP POP JUMP JUMPDEST PUSH0 PUSH2 0x357F DUP7 PUSH1 0x5 PUSH0 DUP8 DUP2 MSTORE PUSH1 0x20 ADD SWAP1 DUP2 MSTORE PUSH1 0x20 ADD PUSH0 KECCAK256 PUSH2 0x404C SWAP1 SWAP2 SWAP1 PUSH4 0xFFFFFFFF AND JUMP JUMPDEST SWAP1 POP DUP1 PUSH2 0x35C5 JUMPI DUP6 DUP5 PUSH1 0x40 MLOAD PUSH32 0x4AA31A8C00000000000000000000000000000000000000000000000000000000 DUP2 MSTORE PUSH1 0x4 ADD PUSH2 0x35BC SWAP3 SWAP2 SWAP1 PUSH2 0x6001 JUMP JUMPDEST PUSH1 0x40 MLOAD DUP1 SWAP2 SUB SWAP1 REVERT JUMPDEST DUP4 DUP6 PUSH20 0xFFFFFFFFFFFFFFFFFFFFFFFFFFFFFFFFFFFFFFFF AND DUP8 PUSH20 0xFFFFFFFFFFFFFFFFFFFFFFFFFFFFFFFFFFFFFFFF AND PUSH32 0xC78CD419D6136F9F1C1C6AEC1D3FAE098CFFAF8BC86314A8F2685E32FE574E3C DUP7 DUP7 PUSH1 0x40 MLOAD PUSH2 0x3625 SWAP3 SWAP2 SWAP1 PUSH2 0x655C JUMP JUMPDEST PUSH1 0x40 MLOAD DUP1 SWAP2 SUB SWAP1 LOG4 POP POP POP POP POP POP JUMP JUMPDEST PUSH0 PUSH0 DUP4 PUSH0 PUSH1 0xF0 SHL DUP5 PUSH1 0x40 MLOAD PUSH1 0x20 ADD PUSH2 0x364F SWAP4 SWAP3 SWAP2 SWAP1 PUSH2 0x6640 JUMP JUMPDEST PUSH1 0x40 MLOAD PUSH1 0x20 DUP2 DUP4 SUB SUB DUP2 MSTORE SWAP1 PUSH1 0x40 MSTORE SWAP1 POP DUP1 PUSH2 0x366A SWAP1 PUSH2 0x6690 JUMP JUMPDEST SWAP2 POP POP SWAP3 SWAP2 POP POP JUMP JUMPDEST PUSH0 PUSH4 0x629AA694 PUSH1 0xE0 SHL PUSH28 0xFFFFFFFFFFFFFFFFFFFFFFFFFFFFFFFFFFFFFFFFFFFFFFFFFFFFFFFF NOT AND DUP3 PUSH28 0xFFFFFFFFFFFFFFFFFFFFFFFFFFFFFFFFFFFFFFFFFFFFFFFFFFFFFFFF NOT AND EQ DUP1 PUSH2 0x36CC JUMPI POP PUSH2 0x36CB DUP3 PUSH2 0x36D3 JUMP JUMPDEST JUMPDEST SWAP1 POP SWAP2 SWAP1 POP JUMP JUMPDEST PUSH0 PUSH32 0x1FFC9A700000000000000000000000000000000000000000000000000000000 PUSH28 0xFFFFFFFFFFFFFFFFFFFFFFFFFFFFFFFFFFFFFFFFFFFFFFFFFFFFFFFF NOT AND DUP3 PUSH28 0xFFFFFFFFFFFFFFFFFFFFFFFFFFFFFFFFFFFFFFFFFFFFFFFFFFFFFFFF NOT AND EQ SWAP1 POP SWAP2 SWAP1 POP JUMP JUMPDEST PUSH0 PUSH0 PUSH4 0x1FFC9A7 PUSH1 0xE0 SHL DUP4 PUSH1 0x40 MLOAD PUSH1 0x24 ADD PUSH2 0x3757 SWAP2 SWAP1 PUSH2 0x591C JUMP JUMPDEST PUSH1 0x40 MLOAD PUSH1 0x20 DUP2 DUP4 SUB SUB DUP2 MSTORE SWAP1 PUSH1 0x40 MSTORE SWAP1 PUSH28 0xFFFFFFFFFFFFFFFFFFFFFFFFFFFFFFFFFFFFFFFFFFFFFFFFFFFFFFFF NOT AND PUSH1 0x20 DUP3 ADD DUP1 MLOAD PUSH28 0xFFFFFFFFFFFFFFFFFFFFFFFFFFFFFFFFFFFFFFFFFFFFFFFFFFFFFFFF DUP4 DUP2 DUP4 AND OR DUP4 MSTORE POP POP POP POP SWAP1 POP PUSH0 PUSH0 PUSH0 PUSH1 0x20 PUSH0 DUP6 MLOAD PUSH1 0x20 DUP8 ADD DUP11 PUSH2 0x7530 STATICCALL SWAP3 POP RETURNDATASIZE SWAP2 POP PUSH0 MLOAD SWAP1 POP DUP3 DUP1 ISZERO PUSH2 0x37DE JUMPI POP PUSH1 0x20 DUP3 LT ISZERO JUMPDEST DUP1 ISZERO PUSH2 0x37E9 JUMPI POP PUSH0 DUP2 GT JUMPDEST SWAP5 POP POP POP POP POP SWAP3 SWAP2 POP POP JUMP JUMPDEST PUSH0 CALLER SWAP1 POP SWAP1 JUMP JUMPDEST PUSH1 0x1 DUP2 PUSH0 ADD PUSH0 DUP3 DUP3 SLOAD ADD SWAP3 POP POP DUP2 SWAP1 SSTORE POP POP JUMP JUMPDEST PUSH0 DUP2 PUSH0 ADD SLOAD SWAP1 POP SWAP2 SWAP1 POP JUMP JUMPDEST PUSH0 PUSH20 0xFFFFFFFFFFFFFFFFFFFFFFFFFFFFFFFFFFFFFFFF AND DUP5 PUSH20 0xFFFFFFFFFFFFFFFFFFFFFFFFFFFFFFFFFFFFFFFF AND SUB PUSH2 0x3881 JUMPI PUSH1 0x40 MLOAD PUSH32 0x24ECEF4D00000000000000000000000000000000000000000000000000000000 DUP2 MSTORE PUSH1 0x4 ADD PUSH1 0x40 MLOAD DUP1 SWAP2 SUB SWAP1 REVERT JUMPDEST PUSH2 0x388A DUP4 PUSH2 0x3AB9 JUMP JUMPDEST ISZERO PUSH2 0x38CC JUMPI DUP3 PUSH1 0x40 MLOAD PUSH32 0x34C7B51100000000000000000000000000000000000000000000000000000000 DUP2 MSTORE PUSH1 0x4 ADD PUSH2 0x38C3 SWAP2 SWAP1 PUSH2 0x5DA9 JUMP JUMPDEST PUSH1 0x40 MLOAD DUP1 SWAP2 SUB SWAP1 REVERT JUMPDEST PUSH2 0x38D9 PUSH0 DUP6 DUP6 DUP6 DUP6 PUSH2 0x3B7A JUMP JUMPDEST PUSH2 0x38E2 DUP4 PUSH2 0x3AB9 JUMP JUMPDEST ISZERO PUSH2 0x3924 JUMPI DUP3 PUSH1 0x40 MLOAD PUSH32 0x34C7B51100000000000000000000000000000000000000000000000000000000 DUP2 MSTORE PUSH1 0x4 ADD PUSH2 0x391B SWAP2 SWAP1 PUSH2 0x5DA9 JUMP JUMPDEST PUSH1 0x40 MLOAD DUP1 SWAP2 SUB SWAP1 REVERT JUMPDEST PUSH1 0x2 PUSH0 DUP2 SLOAD PUSH2 0x3932 SWAP1 PUSH2 0x66F6 JUMP JUMPDEST SWAP2 SWAP1 POP DUP2 SWAP1 SSTORE POP PUSH2 0x3988 DUP4 PUSH1 0x4 PUSH0 DUP8 PUSH20 0xFFFFFFFFFFFFFFFFFFFFFFFFFFFFFFFFFFFFFFFF AND PUSH20 0xFFFFFFFFFFFFFFFFFFFFFFFFFFFFFFFFFFFFFFFF AND DUP2 MSTORE PUSH1 0x20 ADD SWAP1 DUP2 MSTORE PUSH1 0x20 ADD PUSH0 KECCAK256 PUSH2 0x3C04 SWAP1 SWAP2 SWAP1 PUSH4 0xFFFFFFFF AND JUMP JUMPDEST POP DUP4 PUSH1 0x3 PUSH0 DUP6 DUP2 MSTORE PUSH1 0x20 ADD SWAP1 DUP2 MSTORE PUSH1 0x20 ADD PUSH0 KECCAK256 PUSH0 PUSH2 0x100 EXP DUP2 SLOAD DUP2 PUSH20 0xFFFFFFFFFFFFFFFFFFFFFFFFFFFFFFFFFFFFFFFF MUL NOT AND SWAP1 DUP4 PUSH20 0xFFFFFFFFFFFFFFFFFFFFFFFFFFFFFFFFFFFFFFFF AND MUL OR SWAP1 SSTORE POP DUP3 DUP5 PUSH20 0xFFFFFFFFFFFFFFFFFFFFFFFFFFFFFFFFFFFFFFFF AND PUSH0 PUSH20 0xFFFFFFFFFFFFFFFFFFFFFFFFFFFFFFFFFFFFFFFF AND PUSH32 0xB333C813A7426A7A11E2B190CAD52C44119421594B47F6F32ACE6D8C7207B2BF CALLER DUP7 DUP7 PUSH1 0x40 MLOAD PUSH2 0x3A3A SWAP4 SWAP3 SWAP2 SWAP1 PUSH2 0x63A1 JUMP JUMPDEST PUSH1 0x40 MLOAD DUP1 SWAP2 SUB SWAP1 LOG4 PUSH2 0x3A4F PUSH0 DUP6 DUP6 DUP6 DUP6 PUSH2 0x3C19 JUMP JUMPDEST PUSH0 CALLER PUSH0 DUP7 DUP7 DUP6 PUSH1 0x40 MLOAD PUSH1 0x20 ADD PUSH2 0x3A69 SWAP6 SWAP5 SWAP4 SWAP3 SWAP2 SWAP1 PUSH2 0x63DD JUMP JUMPDEST PUSH1 0x40 MLOAD PUSH1 0x20 DUP2 DUP4 SUB SUB DUP2 MSTORE SWAP1 PUSH1 0x40 MSTORE SWAP1 POP PUSH2 0x3A85 DUP6 DUP5 DUP4 PUSH2 0x3C51 JUMP JUMPDEST POP POP POP POP POP JUMP JUMPDEST PUSH0 PUSH2 0x3AB1 DUP4 PUSH0 ADD DUP4 PUSH20 0xFFFFFFFFFFFFFFFFFFFFFFFFFFFFFFFFFFFFFFFF AND PUSH0 SHL PUSH2 0x4079 JUMP JUMPDEST SWAP1 POP SWAP3 SWAP2 POP POP JUMP JUMPDEST PUSH0 PUSH0 PUSH20 0xFFFFFFFFFFFFFFFFFFFFFFFFFFFFFFFFFFFFFFFF AND PUSH1 0x3 PUSH0 DUP5 DUP2 MSTORE PUSH1 0x20 ADD SWAP1 DUP2 MSTORE PUSH1 0x20 ADD PUSH0 KECCAK256 PUSH0 SWAP1 SLOAD SWAP1 PUSH2 0x100 EXP SWAP1 DIV PUSH20 0xFFFFFFFFFFFFFFFFFFFFFFFFFFFFFFFFFFFFFFFF AND PUSH20 0xFFFFFFFFFFFFFFFFFFFFFFFFFFFFFFFFFFFFFFFF AND EQ ISZERO SWAP1 POP SWAP2 SWAP1 POP JUMP JUMPDEST PUSH1 0x60 DUP2 PUSH0 ADD DUP1 SLOAD DUP1 PUSH1 0x20 MUL PUSH1 0x20 ADD PUSH1 0x40 MLOAD SWAP1 DUP2 ADD PUSH1 0x40 MSTORE DUP1 SWAP3 SWAP2 SWAP1 DUP2 DUP2 MSTORE PUSH1 0x20 ADD DUP3 DUP1 SLOAD DUP1 ISZERO PUSH2 0x3B6E JUMPI PUSH1 0x20 MUL DUP3 ADD SWAP2 SWAP1 PUSH0 MSTORE PUSH1 0x20 PUSH0 KECCAK256 SWAP1 JUMPDEST DUP2 SLOAD DUP2 MSTORE PUSH1 0x20 ADD SWAP1 PUSH1 0x1 ADD SWAP1 DUP1 DUP4 GT PUSH2 0x3B5A JUMPI JUMPDEST POP POP POP POP POP SWAP1 POP SWAP2 SWAP1 POP JUMP JUMPDEST POP POP POP POP POP JUMP JUMPDEST PUSH0 PUSH1 0x5 PUSH0 DUP4 DUP2 MSTORE PUSH1 0x20 ADD SWAP1 DUP2 MSTORE PUSH1 0x20 ADD PUSH0 KECCAK256 SWAP1 POP PUSH0 PUSH2 0x3B9F DUP3 PUSH2 0x4099 JUMP JUMPDEST SWAP1 POP PUSH0 PUSH0 JUMPDEST DUP3 DUP2 LT ISZERO PUSH2 0x3BE7 JUMPI PUSH2 0x3BBF PUSH0 DUP6 PUSH2 0x40AC SWAP1 SWAP2 SWAP1 PUSH4 0xFFFFFFFF AND JUMP JUMPDEST SWAP2 POP PUSH2 0x3BDC DUP3 DUP8 DUP8 PUSH0 PUSH1 0x40 MLOAD DUP1 PUSH1 0x20 ADD PUSH1 0x40 MSTORE DUP1 PUSH0 DUP2 MSTORE POP PUSH2 0x355B JUMP JUMPDEST DUP1 PUSH1 0x1 ADD SWAP1 POP PUSH2 0x3BA4 JUMP JUMPDEST POP POP POP POP POP POP JUMP JUMPDEST PUSH0 PUSH2 0x3BFC DUP4 PUSH0 ADD DUP4 PUSH2 0x40C3 JUMP JUMPDEST SWAP1 POP SWAP3 SWAP2 POP POP JUMP JUMPDEST PUSH0 PUSH2 0x3C11 DUP4 PUSH0 ADD DUP4 PUSH2 0x3F2B JUMP JUMPDEST SWAP1 POP SWAP3 SWAP2 POP POP JUMP JUMPDEST POP POP POP POP POP JUMP JUMPDEST PUSH2 0x3C4D DUP3 PUSH32 0xB23EAE7E6D1564B295B4C3E3BE402D9A2F0776C57BDF365903496F6FA481AB00 PUSH0 SHL DUP4 PUSH2 0x3F92 JUMP JUMPDEST POP POP JUMP JUMPDEST PUSH2 0x3C62 DUP4 PUSH4 0x6BB56A14 PUSH1 0xE0 SHL PUSH2 0x373C JUMP JUMPDEST ISZERO PUSH2 0x3D0D JUMPI DUP3 PUSH20 0xFFFFFFFFFFFFFFFFFFFFFFFFFFFFFFFFFFFFFFFF AND PUSH4 0x6BB56A14 PUSH32 0xB084A55EBF70FD3C06FD755269DAC2212C4D3F0F4D09079780BFA50C1B2984D PUSH0 SHL DUP4 PUSH1 0x40 MLOAD DUP4 PUSH4 0xFFFFFFFF AND PUSH1 0xE0 SHL DUP2 MSTORE PUSH1 0x4 ADD PUSH2 0x3CC4 SWAP3 SWAP2 SWAP1 PUSH2 0x673D JUMP JUMPDEST PUSH0 PUSH1 0x40 MLOAD DUP1 DUP4 SUB DUP2 PUSH0 DUP8 GAS CALL ISZERO DUP1 ISZERO PUSH2 0x3CDF JUMPI RETURNDATASIZE PUSH0 PUSH0 RETURNDATACOPY RETURNDATASIZE PUSH0 REVERT JUMPDEST POP POP POP POP PUSH1 0x40 MLOAD RETURNDATASIZE PUSH0 DUP3 RETURNDATACOPY RETURNDATASIZE PUSH1 0x1F NOT PUSH1 0x1F DUP3 ADD AND DUP3 ADD DUP1 PUSH1 0x40 MSTORE POP DUP2 ADD SWAP1 PUSH2 0x3D07 SWAP2 SWAP1 PUSH2 0x67D9 JUMP JUMPDEST POP PUSH2 0x3DAB JUMP JUMPDEST DUP2 PUSH2 0x3DAA JUMPI PUSH0 DUP4 PUSH20 0xFFFFFFFFFFFFFFFFFFFFFFFFFFFFFFFFFFFFFFFF AND EXTCODESIZE EQ PUSH2 0x3D6D JUMPI DUP3 PUSH1 0x40 MLOAD PUSH32 0x4349776D00000000000000000000000000000000000000000000000000000000 DUP2 MSTORE PUSH1 0x4 ADD PUSH2 0x3D64 SWAP2 SWAP1 PUSH2 0x48D6 JUMP JUMPDEST PUSH1 0x40 MLOAD DUP1 SWAP2 SUB SWAP1 REVERT JUMPDEST DUP3 PUSH1 0x40 MLOAD PUSH32 0x317313700000000000000000000000000000000000000000000000000000000 DUP2 MSTORE PUSH1 0x4 ADD PUSH2 0x3DA1 SWAP2 SWAP1 PUSH2 0x48D6 JUMP JUMPDEST PUSH1 0x40 MLOAD DUP1 SWAP2 SUB SWAP1 REVERT JUMPDEST JUMPDEST POP POP POP JUMP JUMPDEST PUSH0 DUP2 PUSH0 ADD DUP1 SLOAD SWAP1 POP SWAP1 POP SWAP2 SWAP1 POP JUMP JUMPDEST PUSH32 0xDEBA1E292F8BA88238E10AB3C7F88BD4BE4FAC56CAD5194B6ECCEAF653468AF1 PUSH0 SHL DUP3 SUB PUSH2 0x3E1A JUMPI PUSH1 0x40 MLOAD PUSH32 0x85C169BD00000000000000000000000000000000000000000000000000000000 DUP2 MSTORE PUSH1 0x4 ADD PUSH1 0x40 MLOAD DUP1 SWAP2 SUB SWAP1 REVERT JUMPDEST PUSH32 0x2F0A68AB07768E01943A599E73362A0E17A63A72E94DD2E384D2C1D4DB932756 PUSH0 SHL DUP3 SUB PUSH2 0x3E75 JUMPI PUSH1 0x40 MLOAD PUSH32 0x76755B3800000000000000000000000000000000000000000000000000000000 DUP2 MSTORE PUSH1 0x4 ADD PUSH1 0x40 MLOAD DUP1 SWAP2 SUB SWAP1 REVERT JUMPDEST PUSH32 0xE0261FA95DB2EB3B5439BD033CDA66D56B96F92F243A8228FD87550ED7BDFDB3 PUSH0 SHL DUP3 SUB PUSH2 0x3ED0 JUMPI PUSH1 0x40 MLOAD PUSH32 0x4EF6D7FB00000000000000000000000000000000000000000000000000000000 DUP2 MSTORE PUSH1 0x4 ADD PUSH1 0x40 MLOAD DUP1 SWAP2 SUB SWAP1 REVERT JUMPDEST DUP1 PUSH1 0x1 PUSH0 DUP5 DUP2 MSTORE PUSH1 0x20 ADD SWAP1 DUP2 MSTORE PUSH1 0x20 ADD PUSH0 KECCAK256 SWAP1 DUP2 PUSH2 0x3EEE SWAP2 SWAP1 PUSH2 0x648D JUMP JUMPDEST POP DUP2 PUSH32 0xECE574603820D07BC9B91F2A932BAADF4628AABCB8AFBA49776529C14A6104B2 DUP3 PUSH1 0x40 MLOAD PUSH2 0x3F1F SWAP2 SWAP1 PUSH2 0x4619 JUMP JUMPDEST PUSH1 0x40 MLOAD DUP1 SWAP2 SUB SWAP1 LOG2 POP POP JUMP JUMPDEST PUSH0 PUSH2 0x3F36 DUP4 DUP4 PUSH2 0x4079 JUMP JUMPDEST PUSH2 0x3F88 JUMPI DUP3 PUSH0 ADD DUP3 SWAP1 DUP1 PUSH1 0x1 DUP2 SLOAD ADD DUP1 DUP3 SSTORE DUP1 SWAP2 POP POP PUSH1 0x1 SWAP1 SUB SWAP1 PUSH0 MSTORE PUSH1 0x20 PUSH0 KECCAK256 ADD PUSH0 SWAP1 SWAP2 SWAP1 SWAP2 SWAP1 SWAP2 POP SSTORE DUP3 PUSH0 ADD DUP1 SLOAD SWAP1 POP DUP4 PUSH1 0x1 ADD PUSH0 DUP5 DUP2 MSTORE PUSH1 0x20 ADD SWAP1 DUP2 MSTORE PUSH1 0x20 ADD PUSH0 KECCAK256 DUP2 SWAP1 SSTORE POP PUSH1 0x1 SWAP1 POP PUSH2 0x3F8C JUMP JUMPDEST PUSH0 SWAP1 POP JUMPDEST SWAP3 SWAP2 POP POP JUMP JUMPDEST PUSH2 0x3FC2 PUSH4 0x6BB56A14 PUSH1 0xE0 SHL DUP5 PUSH20 0xFFFFFFFFFFFFFFFFFFFFFFFFFFFFFFFFFFFFFFFF AND PUSH2 0x373C SWAP1 SWAP2 SWAP1 PUSH4 0xFFFFFFFF AND JUMP JUMPDEST ISZERO PUSH2 0x4047 JUMPI DUP3 PUSH20 0xFFFFFFFFFFFFFFFFFFFFFFFFFFFFFFFFFFFFFFFF AND PUSH4 0x6BB56A14 DUP4 DUP4 PUSH1 0x40 MLOAD DUP4 PUSH4 0xFFFFFFFF AND PUSH1 0xE0 SHL DUP2 MSTORE PUSH1 0x4 ADD PUSH2 0x4002 SWAP3 SWAP2 SWAP1 PUSH2 0x673D JUMP JUMPDEST PUSH0 PUSH1 0x40 MLOAD DUP1 DUP4 SUB DUP2 PUSH0 DUP8 GAS CALL ISZERO DUP1 ISZERO PUSH2 0x401D JUMPI RETURNDATASIZE PUSH0 PUSH0 RETURNDATACOPY RETURNDATASIZE PUSH0 REVERT JUMPDEST POP POP POP POP PUSH1 0x40 MLOAD RETURNDATASIZE PUSH0 DUP3 RETURNDATACOPY RETURNDATASIZE PUSH1 0x1F NOT PUSH1 0x1F DUP3 ADD AND DUP3 ADD DUP1 PUSH1 0x40 MSTORE POP DUP2 ADD SWAP1 PUSH2 0x4045 SWAP2 SWAP1 PUSH2 0x67D9 JUMP JUMPDEST POP JUMPDEST POP POP POP JUMP JUMPDEST PUSH0 PUSH2 0x4071 DUP4 PUSH0 ADD DUP4 PUSH20 0xFFFFFFFFFFFFFFFFFFFFFFFFFFFFFFFFFFFFFFFF AND PUSH0 SHL PUSH2 0x40C3 JUMP JUMPDEST SWAP1 POP SWAP3 SWAP2 POP POP JUMP JUMPDEST PUSH0 PUSH0 DUP4 PUSH1 0x1 ADD PUSH0 DUP5 DUP2 MSTORE PUSH1 0x20 ADD SWAP1 DUP2 MSTORE PUSH1 0x20 ADD PUSH0 KECCAK256 SLOAD EQ ISZERO SWAP1 POP SWAP3 SWAP2 POP POP JUMP JUMPDEST PUSH0 PUSH2 0x40A5 DUP3 PUSH0 ADD PUSH2 0x3DB0 JUMP JUMPDEST SWAP1 POP SWAP2 SWAP1 POP JUMP JUMPDEST PUSH0 PUSH2 0x40B9 DUP4 PUSH0 ADD DUP4 PUSH2 0x41BF JUMP JUMPDEST PUSH0 SHR SWAP1 POP SWAP3 SWAP2 POP POP JUMP JUMPDEST PUSH0 PUSH0 DUP4 PUSH1 0x1 ADD PUSH0 DUP5 DUP2 MSTORE PUSH1 0x20 ADD SWAP1 DUP2 MSTORE PUSH1 0x20 ADD PUSH0 KECCAK256 SLOAD SWAP1 POP PUSH0 DUP2 EQ PUSH2 0x41B4 JUMPI PUSH0 PUSH1 0x1 DUP3 PUSH2 0x40F0 SWAP2 SWAP1 PUSH2 0x5F04 JUMP JUMPDEST SWAP1 POP PUSH0 PUSH1 0x1 DUP7 PUSH0 ADD DUP1 SLOAD SWAP1 POP PUSH2 0x4106 SWAP2 SWAP1 PUSH2 0x5F04 JUMP JUMPDEST SWAP1 POP DUP2 DUP2 EQ PUSH2 0x416C JUMPI PUSH0 DUP7 PUSH0 ADD DUP3 DUP2 SLOAD DUP2 LT PUSH2 0x4125 JUMPI PUSH2 0x4124 PUSH2 0x5D7C JUMP JUMPDEST JUMPDEST SWAP1 PUSH0 MSTORE PUSH1 0x20 PUSH0 KECCAK256 ADD SLOAD SWAP1 POP DUP1 DUP8 PUSH0 ADD DUP5 DUP2 SLOAD DUP2 LT PUSH2 0x4146 JUMPI PUSH2 0x4145 PUSH2 0x5D7C JUMP JUMPDEST JUMPDEST SWAP1 PUSH0 MSTORE PUSH1 0x20 PUSH0 KECCAK256 ADD DUP2 SWAP1 SSTORE POP DUP4 DUP8 PUSH1 0x1 ADD PUSH0 DUP4 DUP2 MSTORE PUSH1 0x20 ADD SWAP1 DUP2 MSTORE PUSH1 0x20 ADD PUSH0 KECCAK256 DUP2 SWAP1 SSTORE POP POP JUMPDEST DUP6 PUSH0 ADD DUP1 SLOAD DUP1 PUSH2 0x417F JUMPI PUSH2 0x417E PUSH2 0x5F37 JUMP JUMPDEST JUMPDEST PUSH1 0x1 SWAP1 SUB DUP2 DUP2 SWAP1 PUSH0 MSTORE PUSH1 0x20 PUSH0 KECCAK256 ADD PUSH0 SWAP1 SSTORE SWAP1 SSTORE DUP6 PUSH1 0x1 ADD PUSH0 DUP7 DUP2 MSTORE PUSH1 0x20 ADD SWAP1 DUP2 MSTORE PUSH1 0x20 ADD PUSH0 KECCAK256 PUSH0 SWAP1 SSTORE PUSH1 0x1 SWAP4 POP POP POP POP PUSH2 0x41B9 JUMP JUMPDEST PUSH0 SWAP2 POP POP JUMPDEST SWAP3 SWAP2 POP POP JUMP JUMPDEST PUSH0 DUP3 PUSH0 ADD DUP3 DUP2 SLOAD DUP2 LT PUSH2 0x41D5 JUMPI PUSH2 0x41D4 PUSH2 0x5D7C JUMP JUMPDEST JUMPDEST SWAP1 PUSH0 MSTORE PUSH1 0x20 PUSH0 KECCAK256 ADD SLOAD SWAP1 POP SWAP3 SWAP2 POP POP JUMP JUMPDEST PUSH0 DUP3 DUP3 MSTORE PUSH1 0x20 DUP3 ADD SWAP1 POP SWAP3 SWAP2 POP POP JUMP JUMPDEST PUSH0 PUSH0 DUP3 ADD MSTORE POP JUMP JUMPDEST PUSH0 PUSH2 0x420A PUSH1 0x4 DUP4 PUSH2 0x41E6 JUMP JUMPDEST SWAP2 POP PUSH2 0x4215 DUP3 PUSH2 0x41F6 JUMP JUMPDEST PUSH1 0x20 DUP3 ADD SWAP1 POP SWAP2 SWAP1 POP JUMP JUMPDEST PUSH0 PUSH1 0x20 DUP3 ADD SWAP1 POP DUP2 DUP2 SUB PUSH0 DUP4 ADD MSTORE PUSH2 0x4237 DUP2 PUSH2 0x41FE JUMP JUMPDEST SWAP1 POP SWAP2 SWAP1 POP JUMP JUMPDEST DUP3 DUP2 DUP4 CALLDATACOPY PUSH0 DUP4 DUP4 ADD MSTORE POP POP POP JUMP JUMPDEST PUSH0 PUSH1 0x1F NOT PUSH1 0x1F DUP4 ADD AND SWAP1 POP SWAP2 SWAP1 POP JUMP JUMPDEST PUSH0 PUSH2 0x4267 DUP4 DUP6 PUSH2 0x41E6 JUMP JUMPDEST SWAP4 POP PUSH2 0x4274 DUP4 DUP6 DUP5 PUSH2 0x423E JUMP JUMPDEST PUSH2 0x427D DUP4 PUSH2 0x424C JUMP JUMPDEST DUP5 ADD SWAP1 POP SWAP4 SWAP3 POP POP POP JUMP JUMPDEST PUSH0 PUSH1 0x20 DUP3 ADD SWAP1 POP DUP2 DUP2 SUB PUSH0 DUP4 ADD MSTORE PUSH2 0x42A1 DUP2 DUP5 DUP7 PUSH2 0x425C JUMP JUMPDEST SWAP1 POP SWAP4 SWAP3 POP POP POP JUMP JUMPDEST PUSH0 PUSH1 0x40 MLOAD SWAP1 POP SWAP1 JUMP JUMPDEST PUSH0 PUSH0 REVERT JUMPDEST PUSH0 PUSH0 REVERT JUMPDEST PUSH0 PUSH32 0xFFFFFFFF00000000000000000000000000000000000000000000000000000000 DUP3 AND SWAP1 POP SWAP2 SWAP1 POP JUMP JUMPDEST PUSH2 0x42EF DUP2 PUSH2 0x42BB JUMP JUMPDEST DUP2 EQ PUSH2 0x42F9 JUMPI PUSH0 PUSH0 REVERT JUMPDEST POP JUMP JUMPDEST PUSH0 DUP2 CALLDATALOAD SWAP1 POP PUSH2 0x430A DUP2 PUSH2 0x42E6 JUMP JUMPDEST SWAP3 SWAP2 POP POP JUMP JUMPDEST PUSH0 PUSH1 0x20 DUP3 DUP5 SUB SLT ISZERO PUSH2 0x4325 JUMPI PUSH2 0x4324 PUSH2 0x42B3 JUMP JUMPDEST JUMPDEST PUSH0 PUSH2 0x4332 DUP5 DUP3 DUP6 ADD PUSH2 0x42FC JUMP JUMPDEST SWAP2 POP POP SWAP3 SWAP2 POP POP JUMP JUMPDEST PUSH0 DUP2 ISZERO ISZERO SWAP1 POP SWAP2 SWAP1 POP JUMP JUMPDEST PUSH2 0x434F DUP2 PUSH2 0x433B JUMP JUMPDEST DUP3 MSTORE POP POP JUMP JUMPDEST PUSH0 PUSH1 0x20 DUP3 ADD SWAP1 POP PUSH2 0x4368 PUSH0 DUP4 ADD DUP5 PUSH2 0x4346 JUMP JUMPDEST SWAP3 SWAP2 POP POP JUMP JUMPDEST PUSH0 PUSH20 0xFFFFFFFFFFFFFFFFFFFFFFFFFFFFFFFFFFFFFFFF DUP3 AND SWAP1 POP SWAP2 SWAP1 POP JUMP JUMPDEST PUSH0 PUSH2 0x4397 DUP3 PUSH2 0x436E JUMP JUMPDEST SWAP1 POP SWAP2 SWAP1 POP JUMP JUMPDEST PUSH2 0x43A7 DUP2 PUSH2 0x438D JUMP JUMPDEST DUP2 EQ PUSH2 0x43B1 JUMPI PUSH0 PUSH0 REVERT JUMPDEST POP JUMP JUMPDEST PUSH0 DUP2 CALLDATALOAD SWAP1 POP PUSH2 0x43C2 DUP2 PUSH2 0x439E JUMP JUMPDEST SWAP3 SWAP2 POP POP JUMP JUMPDEST PUSH0 PUSH1 0x20 DUP3 DUP5 SUB SLT ISZERO PUSH2 0x43DD JUMPI PUSH2 0x43DC PUSH2 0x42B3 JUMP JUMPDEST JUMPDEST PUSH0 PUSH2 0x43EA DUP5 DUP3 DUP6 ADD PUSH2 0x43B4 JUMP JUMPDEST SWAP2 POP POP SWAP3 SWAP2 POP POP JUMP JUMPDEST PUSH0 PUSH0 REVERT JUMPDEST PUSH0 PUSH0 REVERT JUMPDEST PUSH32 0x4E487B7100000000000000000000000000000000000000000000000000000000 PUSH0 MSTORE PUSH1 0x41 PUSH1 0x4 MSTORE PUSH1 0x24 PUSH0 REVERT JUMPDEST PUSH2 0x4431 DUP3 PUSH2 0x424C JUMP JUMPDEST DUP2 ADD DUP2 DUP2 LT PUSH8 0xFFFFFFFFFFFFFFFF DUP3 GT OR ISZERO PUSH2 0x4450 JUMPI PUSH2 0x444F PUSH2 0x43FB JUMP JUMPDEST JUMPDEST DUP1 PUSH1 0x40 MSTORE POP POP POP JUMP JUMPDEST PUSH0 PUSH2 0x4462 PUSH2 0x42AA JUMP JUMPDEST SWAP1 POP PUSH2 0x446E DUP3 DUP3 PUSH2 0x4428 JUMP JUMPDEST SWAP2 SWAP1 POP JUMP JUMPDEST PUSH0 PUSH8 0xFFFFFFFFFFFFFFFF DUP3 GT ISZERO PUSH2 0x448D JUMPI PUSH2 0x448C PUSH2 0x43FB JUMP JUMPDEST JUMPDEST PUSH2 0x4496 DUP3 PUSH2 0x424C JUMP JUMPDEST SWAP1 POP PUSH1 0x20 DUP2 ADD SWAP1 POP SWAP2 SWAP1 POP JUMP JUMPDEST PUSH0 PUSH2 0x44B5 PUSH2 0x44B0 DUP5 PUSH2 0x4473 JUMP JUMPDEST PUSH2 0x4459 JUMP JUMPDEST SWAP1 POP DUP3 DUP2 MSTORE PUSH1 0x20 DUP2 ADD DUP5 DUP5 DUP5 ADD GT ISZERO PUSH2 0x44D1 JUMPI PUSH2 0x44D0 PUSH2 0x43F7 JUMP JUMPDEST JUMPDEST PUSH2 0x44DC DUP5 DUP3 DUP6 PUSH2 0x423E JUMP JUMPDEST POP SWAP4 SWAP3 POP POP POP JUMP JUMPDEST PUSH0 DUP3 PUSH1 0x1F DUP4 ADD SLT PUSH2 0x44F8 JUMPI PUSH2 0x44F7 PUSH2 0x43F3 JUMP JUMPDEST JUMPDEST DUP2 CALLDATALOAD PUSH2 0x4508 DUP5 DUP3 PUSH1 0x20 DUP7 ADD PUSH2 0x44A3 JUMP JUMPDEST SWAP2 POP POP SWAP3 SWAP2 POP POP JUMP JUMPDEST PUSH0 PUSH1 0x20 DUP3 DUP5 SUB SLT ISZERO PUSH2 0x4526 JUMPI PUSH2 0x4525 PUSH2 0x42B3 JUMP JUMPDEST JUMPDEST PUSH0 DUP3 ADD CALLDATALOAD PUSH8 0xFFFFFFFFFFFFFFFF DUP2 GT ISZERO PUSH2 0x4543 JUMPI PUSH2 0x4542 PUSH2 0x42B7 JUMP JUMPDEST JUMPDEST PUSH2 0x454F DUP5 DUP3 DUP6 ADD PUSH2 0x44E4 JUMP JUMPDEST SWAP2 POP POP SWAP3 SWAP2 POP POP JUMP JUMPDEST PUSH0 DUP2 SWAP1 POP SWAP2 SWAP1 POP JUMP JUMPDEST PUSH2 0x456A DUP2 PUSH2 0x4558 JUMP JUMPDEST DUP2 EQ PUSH2 0x4574 JUMPI PUSH0 PUSH0 REVERT JUMPDEST POP JUMP JUMPDEST PUSH0 DUP2 CALLDATALOAD SWAP1 POP PUSH2 0x4585 DUP2 PUSH2 0x4561 JUMP JUMPDEST SWAP3 SWAP2 POP POP JUMP JUMPDEST PUSH0 PUSH0 PUSH1 0x40 DUP4 DUP6 SUB SLT ISZERO PUSH2 0x45A1 JUMPI PUSH2 0x45A0 PUSH2 0x42B3 JUMP JUMPDEST JUMPDEST PUSH0 PUSH2 0x45AE DUP6 DUP3 DUP7 ADD PUSH2 0x4577 JUMP JUMPDEST SWAP3 POP POP PUSH1 0x20 PUSH2 0x45BF DUP6 DUP3 DUP7 ADD PUSH2 0x4577 JUMP JUMPDEST SWAP2 POP POP SWAP3 POP SWAP3 SWAP1 POP JUMP JUMPDEST PUSH0 DUP2 MLOAD SWAP1 POP SWAP2 SWAP1 POP JUMP JUMPDEST DUP3 DUP2 DUP4 MCOPY PUSH0 DUP4 DUP4 ADD MSTORE POP POP POP JUMP JUMPDEST PUSH0 PUSH2 0x45EB DUP3 PUSH2 0x45C9 JUMP JUMPDEST PUSH2 0x45F5 DUP2 DUP6 PUSH2 0x41E6 JUMP JUMPDEST SWAP4 POP PUSH2 0x4605 DUP2 DUP6 PUSH1 0x20 DUP7 ADD PUSH2 0x45D3 JUMP JUMPDEST PUSH2 0x460E DUP2 PUSH2 0x424C JUMP JUMPDEST DUP5 ADD SWAP2 POP POP SWAP3 SWAP2 POP POP JUMP JUMPDEST PUSH0 PUSH1 0x20 DUP3 ADD SWAP1 POP DUP2 DUP2 SUB PUSH0 DUP4 ADD MSTORE PUSH2 0x4631 DUP2 DUP5 PUSH2 0x45E1 JUMP JUMPDEST SWAP1 POP SWAP3 SWAP2 POP POP JUMP JUMPDEST PUSH0 DUP2 SWAP1 POP SWAP2 SWAP1 POP JUMP JUMPDEST PUSH2 0x464B DUP2 PUSH2 0x4639 JUMP JUMPDEST DUP3 MSTORE POP POP JUMP JUMPDEST PUSH0 PUSH1 0x20 DUP3 ADD SWAP1 POP PUSH2 0x4664 PUSH0 DUP4 ADD DUP5 PUSH2 0x4642 JUMP JUMPDEST SWAP3 SWAP2 POP POP JUMP JUMPDEST PUSH0 PUSH8 0xFFFFFFFFFFFFFFFF DUP3 GT ISZERO PUSH2 0x4684 JUMPI PUSH2 0x4683 PUSH2 0x43FB JUMP JUMPDEST JUMPDEST PUSH1 0x20 DUP3 MUL SWAP1 POP PUSH1 0x20 DUP2 ADD SWAP1 POP SWAP2 SWAP1 POP JUMP JUMPDEST PUSH0 PUSH0 REVERT JUMPDEST PUSH0 PUSH2 0x46AB PUSH2 0x46A6 DUP5 PUSH2 0x466A JUMP JUMPDEST PUSH2 0x4459 JUMP JUMPDEST SWAP1 POP DUP1 DUP4 DUP3 MSTORE PUSH1 0x20 DUP3 ADD SWAP1 POP PUSH1 0x20 DUP5 MUL DUP4 ADD DUP6 DUP2 GT ISZERO PUSH2 0x46CE JUMPI PUSH2 0x46CD PUSH2 0x4695 JUMP JUMPDEST JUMPDEST DUP4 JUMPDEST DUP2 DUP2 LT ISZERO PUSH2 0x46F7 JUMPI DUP1 PUSH2 0x46E3 DUP9 DUP3 PUSH2 0x4577 JUMP JUMPDEST DUP5 MSTORE PUSH1 0x20 DUP5 ADD SWAP4 POP POP PUSH1 0x20 DUP2 ADD SWAP1 POP PUSH2 0x46D0 JUMP JUMPDEST POP POP POP SWAP4 SWAP3 POP POP POP JUMP JUMPDEST PUSH0 DUP3 PUSH1 0x1F DUP4 ADD SLT PUSH2 0x4715 JUMPI PUSH2 0x4714 PUSH2 0x43F3 JUMP JUMPDEST JUMPDEST DUP2 CALLDATALOAD PUSH2 0x4725 DUP5 DUP3 PUSH1 0x20 DUP7 ADD PUSH2 0x4699 JUMP JUMPDEST SWAP2 POP POP SWAP3 SWAP2 POP POP JUMP JUMPDEST PUSH0 PUSH0 PUSH1 0x40 DUP4 DUP6 SUB SLT ISZERO PUSH2 0x4744 JUMPI PUSH2 0x4743 PUSH2 0x42B3 JUMP JUMPDEST JUMPDEST PUSH0 DUP4 ADD CALLDATALOAD PUSH8 0xFFFFFFFFFFFFFFFF DUP2 GT ISZERO PUSH2 0x4761 JUMPI PUSH2 0x4760 PUSH2 0x42B7 JUMP JUMPDEST JUMPDEST PUSH2 0x476D DUP6 DUP3 DUP7 ADD PUSH2 0x4701 JUMP JUMPDEST SWAP3 POP POP PUSH1 0x20 DUP4 ADD CALLDATALOAD PUSH8 0xFFFFFFFFFFFFFFFF DUP2 GT ISZERO PUSH2 0x478E JUMPI PUSH2 0x478D PUSH2 0x42B7 JUMP JUMPDEST JUMPDEST PUSH2 0x479A DUP6 DUP3 DUP7 ADD PUSH2 0x4701 JUMP JUMPDEST SWAP2 POP POP SWAP3 POP SWAP3 SWAP1 POP JUMP JUMPDEST PUSH0 DUP2 MLOAD SWAP1 POP SWAP2 SWAP1 POP JUMP JUMPDEST PUSH0 DUP3 DUP3 MSTORE PUSH1 0x20 DUP3 ADD SWAP1 POP SWAP3 SWAP2 POP POP JUMP JUMPDEST PUSH0 DUP2 SWAP1 POP PUSH1 0x20 DUP3 ADD SWAP1 POP SWAP2 SWAP1 POP JUMP JUMPDEST PUSH0 DUP3 DUP3 MSTORE PUSH1 0x20 DUP3 ADD SWAP1 POP SWAP3 SWAP2 POP POP JUMP JUMPDEST PUSH0 PUSH2 0x47E7 DUP3 PUSH2 0x45C9 JUMP JUMPDEST PUSH2 0x47F1 DUP2 DUP6 PUSH2 0x47CD JUMP JUMPDEST SWAP4 POP PUSH2 0x4801 DUP2 DUP6 PUSH1 0x20 DUP7 ADD PUSH2 0x45D3 JUMP JUMPDEST PUSH2 0x480A DUP2 PUSH2 0x424C JUMP JUMPDEST DUP5 ADD SWAP2 POP POP SWAP3 SWAP2 POP POP JUMP JUMPDEST PUSH0 PUSH2 0x4820 DUP4 DUP4 PUSH2 0x47DD JUMP JUMPDEST SWAP1 POP SWAP3 SWAP2 POP POP JUMP JUMPDEST PUSH0 PUSH1 0x20 DUP3 ADD SWAP1 POP SWAP2 SWAP1 POP JUMP JUMPDEST PUSH0 PUSH2 0x483E DUP3 PUSH2 0x47A4 JUMP JUMPDEST PUSH2 0x4848 DUP2 DUP6 PUSH2 0x47AE JUMP JUMPDEST SWAP4 POP DUP4 PUSH1 0x20 DUP3 MUL DUP6 ADD PUSH2 0x485A DUP6 PUSH2 0x47BE JUMP JUMPDEST DUP1 PUSH0 JUMPDEST DUP6 DUP2 LT ISZERO PUSH2 0x4895 JUMPI DUP5 DUP5 SUB DUP10 MSTORE DUP2 MLOAD PUSH2 0x4876 DUP6 DUP3 PUSH2 0x4815 JUMP JUMPDEST SWAP5 POP PUSH2 0x4881 DUP4 PUSH2 0x4828 JUMP JUMPDEST SWAP3 POP PUSH1 0x20 DUP11 ADD SWAP10 POP POP PUSH1 0x1 DUP2 ADD SWAP1 POP PUSH2 0x485D JUMP JUMPDEST POP DUP3 SWAP8 POP DUP8 SWAP6 POP POP POP POP POP POP SWAP3 SWAP2 POP POP JUMP JUMPDEST PUSH0 PUSH1 0x20 DUP3 ADD SWAP1 POP DUP2 DUP2 SUB PUSH0 DUP4 ADD MSTORE PUSH2 0x48BF DUP2 DUP5 PUSH2 0x4834 JUMP JUMPDEST SWAP1 POP SWAP3 SWAP2 POP POP JUMP JUMPDEST PUSH2 0x48D0 DUP2 PUSH2 0x438D JUMP JUMPDEST DUP3 MSTORE POP POP JUMP JUMPDEST PUSH0 PUSH1 0x20 DUP3 ADD SWAP1 POP PUSH2 0x48E9 PUSH0 DUP4 ADD DUP5 PUSH2 0x48C7 JUMP JUMPDEST SWAP3 SWAP2 POP POP JUMP JUMPDEST PUSH0 PUSH1 0x20 DUP3 DUP5 SUB SLT ISZERO PUSH2 0x4904 JUMPI PUSH2 0x4903 PUSH2 0x42B3 JUMP JUMPDEST JUMPDEST PUSH0 PUSH2 0x4911 DUP5 DUP3 DUP6 ADD PUSH2 0x4577 JUMP JUMPDEST SWAP2 POP POP SWAP3 SWAP2 POP POP JUMP JUMPDEST PUSH1 0x3 DUP2 LT PUSH2 0x4926 JUMPI PUSH0 PUSH0 REVERT JUMPDEST POP JUMP JUMPDEST PUSH0 DUP2 CALLDATALOAD SWAP1 POP PUSH2 0x4937 DUP2 PUSH2 0x491A JUMP JUMPDEST SWAP3 SWAP2 POP POP JUMP JUMPDEST PUSH0 PUSH0 REVERT JUMPDEST PUSH0 PUSH2 0xFFFF DUP3 AND SWAP1 POP SWAP2 SWAP1 POP JUMP JUMPDEST PUSH2 0x4957 DUP2 PUSH2 0x4941 JUMP JUMPDEST DUP2 EQ PUSH2 0x4961 JUMPI PUSH0 PUSH0 REVERT JUMPDEST POP JUMP JUMPDEST PUSH0 DUP2 CALLDATALOAD SWAP1 POP PUSH2 0x4972 DUP2 PUSH2 0x494E JUMP JUMPDEST SWAP3 SWAP2 POP POP JUMP JUMPDEST PUSH0 PUSH1 0xFF DUP3 AND SWAP1 POP SWAP2 SWAP1 POP JUMP JUMPDEST PUSH2 0x498D DUP2 PUSH2 0x4978 JUMP JUMPDEST DUP2 EQ PUSH2 0x4997 JUMPI PUSH0 PUSH0 REVERT JUMPDEST POP JUMP JUMPDEST PUSH0 DUP2 CALLDATALOAD SWAP1 POP PUSH2 0x49A8 DUP2 PUSH2 0x4984 JUMP JUMPDEST SWAP3 SWAP2 POP POP JUMP JUMPDEST PUSH0 PUSH1 0x60 DUP3 DUP5 SUB SLT ISZERO PUSH2 0x49C3 JUMPI PUSH2 0x49C2 PUSH2 0x493D JUMP JUMPDEST JUMPDEST PUSH2 0x49CD PUSH1 0x60 PUSH2 0x4459 JUMP JUMPDEST SWAP1 POP PUSH0 PUSH2 0x49DC DUP5 DUP3 DUP6 ADD PUSH2 0x4964 JUMP JUMPDEST PUSH0 DUP4 ADD MSTORE POP PUSH1 0x20 PUSH2 0x49EF DUP5 DUP3 DUP6 ADD PUSH2 0x499A JUMP JUMPDEST PUSH1 0x20 DUP4 ADD MSTORE POP PUSH1 0x40 PUSH2 0x4A03 DUP5 DUP3 DUP6 ADD PUSH2 0x499A JUMP JUMPDEST PUSH1 0x40 DUP4 ADD MSTORE POP SWAP3 SWAP2 POP POP JUMP JUMPDEST PUSH1 0x3 DUP2 LT PUSH2 0x4A1B JUMPI PUSH0 PUSH0 REVERT JUMPDEST POP JUMP JUMPDEST PUSH0 DUP2 CALLDATALOAD SWAP1 POP PUSH2 0x4A2C DUP2 PUSH2 0x4A0F JUMP JUMPDEST SWAP3 SWAP2 POP POP JUMP JUMPDEST PUSH0 PUSH0 PUSH0 PUSH0 PUSH0 PUSH0 PUSH0 PUSH0 PUSH0 PUSH2 0x1A0 DUP11 DUP13 SUB SLT ISZERO PUSH2 0x4A50 JUMPI PUSH2 0x4A4F PUSH2 0x42B3 JUMP JUMPDEST JUMPDEST PUSH0 DUP11 ADD CALLDATALOAD PUSH8 0xFFFFFFFFFFFFFFFF DUP2 GT ISZERO PUSH2 0x4A6D JUMPI PUSH2 0x4A6C PUSH2 0x42B7 JUMP JUMPDEST JUMPDEST PUSH2 0x4A79 DUP13 DUP3 DUP14 ADD PUSH2 0x44E4 JUMP JUMPDEST SWAP10 POP POP PUSH1 0x20 DUP11 ADD CALLDATALOAD PUSH8 0xFFFFFFFFFFFFFFFF DUP2 GT ISZERO PUSH2 0x4A9A JUMPI PUSH2 0x4A99 PUSH2 0x42B7 JUMP JUMPDEST JUMPDEST PUSH2 0x4AA6 DUP13 DUP3 DUP14 ADD PUSH2 0x44E4 JUMP JUMPDEST SWAP9 POP POP PUSH1 0x40 PUSH2 0x4AB7 DUP13 DUP3 DUP14 ADD PUSH2 0x4929 JUMP JUMPDEST SWAP8 POP POP PUSH1 0x60 PUSH2 0x4AC8 DUP13 DUP3 DUP14 ADD PUSH2 0x49AE JUMP JUMPDEST SWAP7 POP POP PUSH1 0xC0 PUSH2 0x4AD9 DUP13 DUP3 DUP14 ADD PUSH2 0x49AE JUMP JUMPDEST SWAP6 POP POP PUSH2 0x120 PUSH2 0x4AEB DUP13 DUP3 DUP14 ADD PUSH2 0x4577 JUMP JUMPDEST SWAP5 POP POP PUSH2 0x140 PUSH2 0x4AFD DUP13 DUP3 DUP14 ADD PUSH2 0x4577 JUMP JUMPDEST SWAP4 POP POP PUSH2 0x160 PUSH2 0x4B0F DUP13 DUP3 DUP14 ADD PUSH2 0x43B4 JUMP JUMPDEST SWAP3 POP POP PUSH2 0x180 PUSH2 0x4B21 DUP13 DUP3 DUP14 ADD PUSH2 0x4A1E JUMP JUMPDEST SWAP2 POP POP SWAP3 SWAP6 SWAP9 POP SWAP3 SWAP6 SWAP9 POP SWAP3 SWAP6 SWAP9 JUMP JUMPDEST PUSH0 PUSH0 PUSH1 0x40 DUP4 DUP6 SUB SLT ISZERO PUSH2 0x4B47 JUMPI PUSH2 0x4B46 PUSH2 0x42B3 JUMP JUMPDEST JUMPDEST PUSH0 PUSH2 0x4B54 DUP6 DUP3 DUP7 ADD PUSH2 0x43B4 JUMP JUMPDEST SWAP3 POP POP PUSH1 0x20 PUSH2 0x4B65 DUP6 DUP3 DUP7 ADD PUSH2 0x4577 JUMP JUMPDEST SWAP2 POP POP SWAP3 POP SWAP3 SWAP1 POP JUMP JUMPDEST PUSH0 DUP2 MLOAD SWAP1 POP SWAP2 SWAP1 POP JUMP JUMPDEST PUSH0 DUP3 DUP3 MSTORE PUSH1 0x20 DUP3 ADD SWAP1 POP SWAP3 SWAP2 POP POP JUMP JUMPDEST PUSH0 DUP2 SWAP1 POP PUSH1 0x20 DUP3 ADD SWAP1 POP SWAP2 SWAP1 POP JUMP JUMPDEST PUSH2 0x4BA1 DUP2 PUSH2 0x438D JUMP JUMPDEST DUP3 MSTORE POP POP JUMP JUMPDEST PUSH0 PUSH2 0x4BB2 DUP4 DUP4 PUSH2 0x4B98 JUMP JUMPDEST PUSH1 0x20 DUP4 ADD SWAP1 POP SWAP3 SWAP2 POP POP JUMP JUMPDEST PUSH0 PUSH1 0x20 DUP3 ADD SWAP1 POP SWAP2 SWAP1 POP JUMP JUMPDEST PUSH0 PUSH2 0x4BD4 DUP3 PUSH2 0x4B6F JUMP JUMPDEST PUSH2 0x4BDE DUP2 DUP6 PUSH2 0x4B79 JUMP JUMPDEST SWAP4 POP PUSH2 0x4BE9 DUP4 PUSH2 0x4B89 JUMP JUMPDEST DUP1 PUSH0 JUMPDEST DUP4 DUP2 LT ISZERO PUSH2 0x4C19 JUMPI DUP2 MLOAD PUSH2 0x4C00 DUP9 DUP3 PUSH2 0x4BA7 JUMP JUMPDEST SWAP8 POP PUSH2 0x4C0B DUP4 PUSH2 0x4BBE JUMP JUMPDEST SWAP3 POP POP PUSH1 0x1 DUP2 ADD SWAP1 POP PUSH2 0x4BEC JUMP JUMPDEST POP DUP6 SWAP4 POP POP POP POP SWAP3 SWAP2 POP POP JUMP JUMPDEST PUSH0 PUSH1 0x20 DUP3 ADD SWAP1 POP DUP2 DUP2 SUB PUSH0 DUP4 ADD MSTORE PUSH2 0x4C3E DUP2 DUP5 PUSH2 0x4BCA JUMP JUMPDEST SWAP1 POP SWAP3 SWAP2 POP POP JUMP JUMPDEST PUSH0 PUSH0 PUSH0 PUSH0 PUSH0 PUSH0 PUSH2 0x140 DUP8 DUP10 SUB SLT ISZERO PUSH2 0x4C61 JUMPI PUSH2 0x4C60 PUSH2 0x42B3 JUMP JUMPDEST JUMPDEST PUSH0 PUSH2 0x4C6E DUP10 DUP3 DUP11 ADD PUSH2 0x4577 JUMP JUMPDEST SWAP7 POP POP PUSH1 0x20 DUP8 ADD CALLDATALOAD PUSH8 0xFFFFFFFFFFFFFFFF DUP2 GT ISZERO PUSH2 0x4C8F JUMPI PUSH2 0x4C8E PUSH2 0x42B7 JUMP JUMPDEST JUMPDEST PUSH2 0x4C9B DUP10 DUP3 DUP11 ADD PUSH2 0x44E4 JUMP JUMPDEST SWAP6 POP POP PUSH1 0x40 DUP8 ADD CALLDATALOAD PUSH8 0xFFFFFFFFFFFFFFFF DUP2 GT ISZERO PUSH2 0x4CBC JUMPI PUSH2 0x4CBB PUSH2 0x42B7 JUMP JUMPDEST JUMPDEST PUSH2 0x4CC8 DUP10 DUP3 DUP11 ADD PUSH2 0x44E4 JUMP JUMPDEST SWAP5 POP POP PUSH1 0x60 PUSH2 0x4CD9 DUP10 DUP3 DUP11 ADD PUSH2 0x4929 JUMP JUMPDEST SWAP4 POP POP PUSH1 0x80 PUSH2 0x4CEA DUP10 DUP3 DUP11 ADD PUSH2 0x49AE JUMP JUMPDEST SWAP3 POP POP PUSH1 0xE0 PUSH2 0x4CFB DUP10 DUP3 DUP11 ADD PUSH2 0x49AE JUMP JUMPDEST SWAP2 POP POP SWAP3 SWAP6 POP SWAP3 SWAP6 POP SWAP3 SWAP6 JUMP JUMPDEST PUSH0 PUSH0 PUSH0 PUSH0 PUSH0 PUSH0 PUSH0 PUSH0 PUSH2 0x200 DUP10 DUP12 SUB SLT ISZERO PUSH2 0x4D25 JUMPI PUSH2 0x4D24 PUSH2 0x42B3 JUMP JUMPDEST JUMPDEST PUSH0 PUSH2 0x4D32 DUP12 DUP3 DUP13 ADD PUSH2 0x4577 JUMP JUMPDEST SWAP9 POP POP PUSH1 0x20 DUP10 ADD CALLDATALOAD PUSH8 0xFFFFFFFFFFFFFFFF DUP2 GT ISZERO PUSH2 0x4D53 JUMPI PUSH2 0x4D52 PUSH2 0x42B7 JUMP JUMPDEST JUMPDEST PUSH2 0x4D5F DUP12 DUP3 DUP13 ADD PUSH2 0x44E4 JUMP JUMPDEST SWAP8 POP POP PUSH1 0x40 DUP10 ADD CALLDATALOAD PUSH8 0xFFFFFFFFFFFFFFFF DUP2 GT ISZERO PUSH2 0x4D80 JUMPI PUSH2 0x4D7F PUSH2 0x42B7 JUMP JUMPDEST JUMPDEST PUSH2 0x4D8C DUP12 DUP3 DUP13 ADD PUSH2 0x44E4 JUMP JUMPDEST SWAP7 POP POP PUSH1 0x60 PUSH2 0x4D9D DUP12 DUP3 DUP13 ADD PUSH2 0x49AE JUMP JUMPDEST SWAP6 POP POP PUSH1 0xC0 PUSH2 0x4DAE DUP12 DUP3 DUP13 ADD PUSH2 0x49AE JUMP JUMPDEST SWAP5 POP POP PUSH2 0x120 PUSH2 0x4DC0 DUP12 DUP3 DUP13 ADD PUSH2 0x49AE JUMP JUMPDEST SWAP4 POP POP PUSH2 0x180 PUSH2 0x4DD2 DUP12 DUP3 DUP13 ADD PUSH2 0x49AE JUMP JUMPDEST SWAP3 POP POP PUSH2 0x1E0 PUSH2 0x4DE4 DUP12 DUP3 DUP13 ADD PUSH2 0x43B4 JUMP JUMPDEST SWAP2 POP POP SWAP3 SWAP6 SWAP9 POP SWAP3 SWAP6 SWAP9 SWAP1 SWAP4 SWAP7 POP JUMP JUMPDEST PUSH2 0x4DFD DUP2 PUSH2 0x433B JUMP JUMPDEST DUP2 EQ PUSH2 0x4E07 JUMPI PUSH0 PUSH0 REVERT JUMPDEST POP JUMP JUMPDEST PUSH0 DUP2 CALLDATALOAD SWAP1 POP PUSH2 0x4E18 DUP2 PUSH2 0x4DF4 JUMP JUMPDEST SWAP3 SWAP2 POP POP JUMP JUMPDEST PUSH0 PUSH8 0xFFFFFFFFFFFFFFFF DUP3 GT ISZERO PUSH2 0x4E38 JUMPI PUSH2 0x4E37 PUSH2 0x43FB JUMP JUMPDEST JUMPDEST PUSH2 0x4E41 DUP3 PUSH2 0x424C JUMP JUMPDEST SWAP1 POP PUSH1 0x20 DUP2 ADD SWAP1 POP SWAP2 SWAP1 POP JUMP JUMPDEST PUSH0 PUSH2 0x4E60 PUSH2 0x4E5B DUP5 PUSH2 0x4E1E JUMP JUMPDEST PUSH2 0x4459 JUMP JUMPDEST SWAP1 POP DUP3 DUP2 MSTORE PUSH1 0x20 DUP2 ADD DUP5 DUP5 DUP5 ADD GT ISZERO PUSH2 0x4E7C JUMPI PUSH2 0x4E7B PUSH2 0x43F7 JUMP JUMPDEST JUMPDEST PUSH2 0x4E87 DUP5 DUP3 DUP6 PUSH2 0x423E JUMP JUMPDEST POP SWAP4 SWAP3 POP POP POP JUMP JUMPDEST PUSH0 DUP3 PUSH1 0x1F DUP4 ADD SLT PUSH2 0x4EA3 JUMPI PUSH2 0x4EA2 PUSH2 0x43F3 JUMP JUMPDEST JUMPDEST DUP2 CALLDATALOAD PUSH2 0x4EB3 DUP5 DUP3 PUSH1 0x20 DUP7 ADD PUSH2 0x4E4E JUMP JUMPDEST SWAP2 POP POP SWAP3 SWAP2 POP POP JUMP JUMPDEST PUSH0 PUSH0 PUSH0 PUSH0 PUSH0 PUSH1 0xA0 DUP7 DUP9 SUB SLT ISZERO PUSH2 0x4ED5 JUMPI PUSH2 0x4ED4 PUSH2 0x42B3 JUMP JUMPDEST JUMPDEST PUSH0 PUSH2 0x4EE2 DUP9 DUP3 DUP10 ADD PUSH2 0x43B4 JUMP JUMPDEST SWAP6 POP POP PUSH1 0x20 PUSH2 0x4EF3 DUP9 DUP3 DUP10 ADD PUSH2 0x43B4 JUMP JUMPDEST SWAP5 POP POP PUSH1 0x40 PUSH2 0x4F04 DUP9 DUP3 DUP10 ADD PUSH2 0x4577 JUMP JUMPDEST SWAP4 POP POP PUSH1 0x60 PUSH2 0x4F15 DUP9 DUP3 DUP10 ADD PUSH2 0x4E0A JUMP JUMPDEST SWAP3 POP POP PUSH1 0x80 DUP7 ADD CALLDATALOAD PUSH8 0xFFFFFFFFFFFFFFFF DUP2 GT ISZERO PUSH2 0x4F36 JUMPI PUSH2 0x4F35 PUSH2 0x42B7 JUMP JUMPDEST JUMPDEST PUSH2 0x4F42 DUP9 DUP3 DUP10 ADD PUSH2 0x4E8F JUMP JUMPDEST SWAP2 POP POP SWAP3 SWAP6 POP SWAP3 SWAP6 SWAP1 SWAP4 POP JUMP JUMPDEST PUSH0 DUP2 MLOAD SWAP1 POP SWAP2 SWAP1 POP JUMP JUMPDEST PUSH0 DUP3 DUP3 MSTORE PUSH1 0x20 DUP3 ADD SWAP1 POP SWAP3 SWAP2 POP POP JUMP JUMPDEST PUSH0 PUSH2 0x4F73 DUP3 PUSH2 0x4F4F JUMP JUMPDEST PUSH2 0x4F7D DUP2 DUP6 PUSH2 0x4F59 JUMP JUMPDEST SWAP4 POP PUSH2 0x4F8D DUP2 DUP6 PUSH1 0x20 DUP7 ADD PUSH2 0x45D3 JUMP JUMPDEST PUSH2 0x4F96 DUP2 PUSH2 0x424C JUMP JUMPDEST DUP5 ADD SWAP2 POP POP SWAP3 SWAP2 POP POP JUMP JUMPDEST PUSH2 0x4FAA DUP2 PUSH2 0x4558 JUMP JUMPDEST DUP3 MSTORE POP POP JUMP JUMPDEST PUSH32 0x4E487B7100000000000000000000000000000000000000000000000000000000 PUSH0 MSTORE PUSH1 0x21 PUSH1 0x4 MSTORE PUSH1 0x24 PUSH0 REVERT JUMPDEST PUSH1 0x3 DUP2 LT PUSH2 0x4FEE JUMPI PUSH2 0x4FED PUSH2 0x4FB0 JUMP JUMPDEST JUMPDEST POP JUMP JUMPDEST PUSH0 DUP2 SWAP1 POP PUSH2 0x4FFE DUP3 PUSH2 0x4FDD JUMP JUMPDEST SWAP2 SWAP1 POP JUMP JUMPDEST PUSH0 PUSH2 0x500D DUP3 PUSH2 0x4FF1 JUMP JUMPDEST SWAP1 POP SWAP2 SWAP1 POP JUMP JUMPDEST PUSH2 0x501D DUP2 PUSH2 0x5003 JUMP JUMPDEST DUP3 MSTORE POP POP JUMP JUMPDEST PUSH2 0x502C DUP2 PUSH2 0x4941 JUMP JUMPDEST DUP3 MSTORE POP POP JUMP JUMPDEST PUSH2 0x503B DUP2 PUSH2 0x4978 JUMP JUMPDEST DUP3 MSTORE POP POP JUMP JUMPDEST PUSH1 0x60 DUP3 ADD PUSH0 DUP3 ADD MLOAD PUSH2 0x5055 PUSH0 DUP6 ADD DUP3 PUSH2 0x5023 JUMP JUMPDEST POP PUSH1 0x20 DUP3 ADD MLOAD PUSH2 0x5068 PUSH1 0x20 DUP6 ADD DUP3 PUSH2 0x5032 JUMP JUMPDEST POP PUSH1 0x40 DUP3 ADD MLOAD PUSH2 0x507B PUSH1 0x40 DUP6 ADD DUP3 PUSH2 0x5032 JUMP JUMPDEST POP POP POP POP JUMP JUMPDEST PUSH0 PUSH2 0x160 DUP3 ADD SWAP1 POP DUP2 DUP2 SUB PUSH0 DUP4 ADD MSTORE PUSH2 0x509A DUP2 DUP11 PUSH2 0x4F69 JUMP JUMPDEST SWAP1 POP PUSH2 0x50A9 PUSH1 0x20 DUP4 ADD DUP10 PUSH2 0x4FA1 JUMP JUMPDEST PUSH2 0x50B6 PUSH1 0x40 DUP4 ADD DUP9 PUSH2 0x4FA1 JUMP JUMPDEST PUSH2 0x50C3 PUSH1 0x60 DUP4 ADD DUP8 PUSH2 0x5014 JUMP JUMPDEST PUSH2 0x50D0 PUSH1 0x80 DUP4 ADD DUP7 PUSH2 0x5041 JUMP JUMPDEST PUSH2 0x50DD PUSH1 0xE0 DUP4 ADD DUP6 PUSH2 0x5041 JUMP JUMPDEST DUP2 DUP2 SUB PUSH2 0x140 DUP4 ADD MSTORE PUSH2 0x50F0 DUP2 DUP5 PUSH2 0x4F69 JUMP JUMPDEST SWAP1 POP SWAP9 SWAP8 POP POP POP POP POP POP POP POP JUMP JUMPDEST PUSH0 PUSH0 REVERT JUMPDEST PUSH0 PUSH0 DUP4 PUSH1 0x1F DUP5 ADD SLT PUSH2 0x5117 JUMPI PUSH2 0x5116 PUSH2 0x43F3 JUMP JUMPDEST JUMPDEST DUP3 CALLDATALOAD SWAP1 POP PUSH8 0xFFFFFFFFFFFFFFFF DUP2 GT ISZERO PUSH2 0x5134 JUMPI PUSH2 0x5133 PUSH2 0x50FE JUMP JUMPDEST JUMPDEST PUSH1 0x20 DUP4 ADD SWAP2 POP DUP4 PUSH1 0x20 DUP3 MUL DUP4 ADD GT ISZERO PUSH2 0x5150 JUMPI PUSH2 0x514F PUSH2 0x4695 JUMP JUMPDEST JUMPDEST SWAP3 POP SWAP3 SWAP1 POP JUMP JUMPDEST PUSH0 PUSH0 PUSH1 0x20 DUP4 DUP6 SUB SLT ISZERO PUSH2 0x516D JUMPI PUSH2 0x516C PUSH2 0x42B3 JUMP JUMPDEST JUMPDEST PUSH0 DUP4 ADD CALLDATALOAD PUSH8 0xFFFFFFFFFFFFFFFF DUP2 GT ISZERO PUSH2 0x518A JUMPI PUSH2 0x5189 PUSH2 0x42B7 JUMP JUMPDEST JUMPDEST PUSH2 0x5196 DUP6 DUP3 DUP7 ADD PUSH2 0x5102 JUMP JUMPDEST SWAP3 POP SWAP3 POP POP SWAP3 POP SWAP3 SWAP1 POP JUMP JUMPDEST PUSH0 PUSH8 0xFFFFFFFFFFFFFFFF DUP3 GT ISZERO PUSH2 0x51BC JUMPI PUSH2 0x51BB PUSH2 0x43FB JUMP JUMPDEST JUMPDEST PUSH1 0x20 DUP3 MUL SWAP1 POP PUSH1 0x20 DUP2 ADD SWAP1 POP SWAP2 SWAP1 POP JUMP JUMPDEST PUSH0 PUSH2 0x51DF PUSH2 0x51DA DUP5 PUSH2 0x51A2 JUMP JUMPDEST PUSH2 0x4459 JUMP JUMPDEST SWAP1 POP DUP1 DUP4 DUP3 MSTORE PUSH1 0x20 DUP3 ADD SWAP1 POP PUSH1 0x20 DUP5 MUL DUP4 ADD DUP6 DUP2 GT ISZERO PUSH2 0x5202 JUMPI PUSH2 0x5201 PUSH2 0x4695 JUMP JUMPDEST JUMPDEST DUP4 JUMPDEST DUP2 DUP2 LT ISZERO PUSH2 0x522B JUMPI DUP1 PUSH2 0x5217 DUP9 DUP3 PUSH2 0x43B4 JUMP JUMPDEST DUP5 MSTORE PUSH1 0x20 DUP5 ADD SWAP4 POP POP PUSH1 0x20 DUP2 ADD SWAP1 POP PUSH2 0x5204 JUMP JUMPDEST POP POP POP SWAP4 SWAP3 POP POP POP JUMP JUMPDEST PUSH0 DUP3 PUSH1 0x1F DUP4 ADD SLT PUSH2 0x5249 JUMPI PUSH2 0x5248 PUSH2 0x43F3 JUMP JUMPDEST JUMPDEST DUP2 CALLDATALOAD PUSH2 0x5259 DUP5 DUP3 PUSH1 0x20 DUP7 ADD PUSH2 0x51CD JUMP JUMPDEST SWAP2 POP POP SWAP3 SWAP2 POP POP JUMP JUMPDEST PUSH0 PUSH8 0xFFFFFFFFFFFFFFFF DUP3 GT ISZERO PUSH2 0x527C JUMPI PUSH2 0x527B PUSH2 0x43FB JUMP JUMPDEST JUMPDEST PUSH1 0x20 DUP3 MUL SWAP1 POP PUSH1 0x20 DUP2 ADD SWAP1 POP SWAP2 SWAP1 POP JUMP JUMPDEST PUSH0 PUSH2 0x529F PUSH2 0x529A DUP5 PUSH2 0x5262 JUMP JUMPDEST PUSH2 0x4459 JUMP JUMPDEST SWAP1 POP DUP1 DUP4 DUP3 MSTORE PUSH1 0x20 DUP3 ADD SWAP1 POP PUSH1 0x20 DUP5 MUL DUP4 ADD DUP6 DUP2 GT ISZERO PUSH2 0x52C2 JUMPI PUSH2 0x52C1 PUSH2 0x4695 JUMP JUMPDEST JUMPDEST DUP4 JUMPDEST DUP2 DUP2 LT ISZERO PUSH2 0x52EB JUMPI DUP1 PUSH2 0x52D7 DUP9 DUP3 PUSH2 0x4E0A JUMP JUMPDEST DUP5 MSTORE PUSH1 0x20 DUP5 ADD SWAP4 POP POP PUSH1 0x20 DUP2 ADD SWAP1 POP PUSH2 0x52C4 JUMP JUMPDEST POP POP POP SWAP4 SWAP3 POP POP POP JUMP JUMPDEST PUSH0 DUP3 PUSH1 0x1F DUP4 ADD SLT PUSH2 0x5309 JUMPI PUSH2 0x5308 PUSH2 0x43F3 JUMP JUMPDEST JUMPDEST DUP2 CALLDATALOAD PUSH2 0x5319 DUP5 DUP3 PUSH1 0x20 DUP7 ADD PUSH2 0x528D JUMP JUMPDEST SWAP2 POP POP SWAP3 SWAP2 POP POP JUMP JUMPDEST PUSH0 PUSH8 0xFFFFFFFFFFFFFFFF DUP3 GT ISZERO PUSH2 0x533C JUMPI PUSH2 0x533B PUSH2 0x43FB JUMP JUMPDEST JUMPDEST PUSH1 0x20 DUP3 MUL SWAP1 POP PUSH1 0x20 DUP2 ADD SWAP1 POP SWAP2 SWAP1 POP JUMP JUMPDEST PUSH0 PUSH2 0x535F PUSH2 0x535A DUP5 PUSH2 0x5322 JUMP JUMPDEST PUSH2 0x4459 JUMP JUMPDEST SWAP1 POP DUP1 DUP4 DUP3 MSTORE PUSH1 0x20 DUP3 ADD SWAP1 POP PUSH1 0x20 DUP5 MUL DUP4 ADD DUP6 DUP2 GT ISZERO PUSH2 0x5382 JUMPI PUSH2 0x5381 PUSH2 0x4695 JUMP JUMPDEST JUMPDEST DUP4 JUMPDEST DUP2 DUP2 LT ISZERO PUSH2 0x53C9 JUMPI DUP1 CALLDATALOAD PUSH8 0xFFFFFFFFFFFFFFFF DUP2 GT ISZERO PUSH2 0x53A7 JUMPI PUSH2 0x53A6 PUSH2 0x43F3 JUMP JUMPDEST JUMPDEST DUP1 DUP7 ADD PUSH2 0x53B4 DUP10 DUP3 PUSH2 0x4E8F JUMP JUMPDEST DUP6 MSTORE PUSH1 0x20 DUP6 ADD SWAP5 POP POP POP PUSH1 0x20 DUP2 ADD SWAP1 POP PUSH2 0x5384 JUMP JUMPDEST POP POP POP SWAP4 SWAP3 POP POP POP JUMP JUMPDEST PUSH0 DUP3 PUSH1 0x1F DUP4 ADD SLT PUSH2 0x53E7 JUMPI PUSH2 0x53E6 PUSH2 0x43F3 JUMP JUMPDEST JUMPDEST DUP2 CALLDATALOAD PUSH2 0x53F7 DUP5 DUP3 PUSH1 0x20 DUP7 ADD PUSH2 0x534D JUMP JUMPDEST SWAP2 POP POP SWAP3 SWAP2 POP POP JUMP JUMPDEST PUSH0 PUSH0 PUSH0 PUSH0 PUSH0 PUSH1 0xA0 DUP7 DUP9 SUB SLT ISZERO PUSH2 0x5419 JUMPI PUSH2 0x5418 PUSH2 0x42B3 JUMP JUMPDEST JUMPDEST PUSH0 DUP7 ADD CALLDATALOAD PUSH8 0xFFFFFFFFFFFFFFFF DUP2 GT ISZERO PUSH2 0x5436 JUMPI PUSH2 0x5435 PUSH2 0x42B7 JUMP JUMPDEST JUMPDEST PUSH2 0x5442 DUP9 DUP3 DUP10 ADD PUSH2 0x5235 JUMP JUMPDEST SWAP6 POP POP PUSH1 0x20 DUP7 ADD CALLDATALOAD PUSH8 0xFFFFFFFFFFFFFFFF DUP2 GT ISZERO PUSH2 0x5463 JUMPI PUSH2 0x5462 PUSH2 0x42B7 JUMP JUMPDEST JUMPDEST PUSH2 0x546F DUP9 DUP3 DUP10 ADD PUSH2 0x5235 JUMP JUMPDEST SWAP5 POP POP PUSH1 0x40 DUP7 ADD CALLDATALOAD PUSH8 0xFFFFFFFFFFFFFFFF DUP2 GT ISZERO PUSH2 0x5490 JUMPI PUSH2 0x548F PUSH2 0x42B7 JUMP JUMPDEST JUMPDEST PUSH2 0x549C DUP9 DUP3 DUP10 ADD PUSH2 0x4701 JUMP JUMPDEST SWAP4 POP POP PUSH1 0x60 DUP7 ADD CALLDATALOAD PUSH8 0xFFFFFFFFFFFFFFFF DUP2 GT ISZERO PUSH2 0x54BD JUMPI PUSH2 0x54BC PUSH2 0x42B7 JUMP JUMPDEST JUMPDEST PUSH2 0x54C9 DUP9 DUP3 DUP10 ADD PUSH2 0x52F5 JUMP JUMPDEST SWAP3 POP POP PUSH1 0x80 DUP7 ADD CALLDATALOAD PUSH8 0xFFFFFFFFFFFFFFFF DUP2 GT ISZERO PUSH2 0x54EA JUMPI PUSH2 0x54E9 PUSH2 0x42B7 JUMP JUMPDEST JUMPDEST PUSH2 0x54F6 DUP9 DUP3 DUP10 ADD PUSH2 0x53D3 JUMP JUMPDEST SWAP2 POP POP SWAP3 SWAP6 POP SWAP3 SWAP6 SWAP1 SWAP4 POP JUMP JUMPDEST PUSH0 PUSH0 PUSH1 0x40 DUP4 DUP6 SUB SLT ISZERO PUSH2 0x5519 JUMPI PUSH2 0x5518 PUSH2 0x42B3 JUMP JUMPDEST JUMPDEST PUSH0 PUSH2 0x5526 DUP6 DUP3 DUP7 ADD PUSH2 0x4577 JUMP JUMPDEST SWAP3 POP POP PUSH1 0x20 DUP4 ADD CALLDATALOAD PUSH8 0xFFFFFFFFFFFFFFFF DUP2 GT ISZERO PUSH2 0x5547 JUMPI PUSH2 0x5546 PUSH2 0x42B7 JUMP JUMPDEST JUMPDEST PUSH2 0x5553 DUP6 DUP3 DUP7 ADD PUSH2 0x4E8F JUMP JUMPDEST SWAP2 POP POP SWAP3 POP SWAP3 SWAP1 POP JUMP JUMPDEST PUSH0 PUSH0 PUSH0 PUSH1 0x60 DUP5 DUP7 SUB SLT ISZERO PUSH2 0x5574 JUMPI PUSH2 0x5573 PUSH2 0x42B3 JUMP JUMPDEST JUMPDEST PUSH0 PUSH2 0x5581 DUP7 DUP3 DUP8 ADD PUSH2 0x43B4 JUMP JUMPDEST SWAP4 POP POP PUSH1 0x20 PUSH2 0x5592 DUP7 DUP3 DUP8 ADD PUSH2 0x4577 JUMP JUMPDEST SWAP3 POP POP PUSH1 0x40 DUP5 ADD CALLDATALOAD PUSH8 0xFFFFFFFFFFFFFFFF DUP2 GT ISZERO PUSH2 0x55B3 JUMPI PUSH2 0x55B2 PUSH2 0x42B7 JUMP JUMPDEST JUMPDEST PUSH2 0x55BF DUP7 DUP3 DUP8 ADD PUSH2 0x4E8F JUMP JUMPDEST SWAP2 POP POP SWAP3 POP SWAP3 POP SWAP3 JUMP JUMPDEST PUSH0 PUSH0 PUSH1 0x40 DUP4 DUP6 SUB SLT ISZERO PUSH2 0x55DF JUMPI PUSH2 0x55DE PUSH2 0x42B3 JUMP JUMPDEST JUMPDEST PUSH0 DUP4 ADD CALLDATALOAD PUSH8 0xFFFFFFFFFFFFFFFF DUP2 GT ISZERO PUSH2 0x55FC JUMPI PUSH2 0x55FB PUSH2 0x42B7 JUMP JUMPDEST JUMPDEST PUSH2 0x5608 DUP6 DUP3 DUP7 ADD PUSH2 0x4701 JUMP JUMPDEST SWAP3 POP POP PUSH1 0x20 DUP4 ADD CALLDATALOAD PUSH8 0xFFFFFFFFFFFFFFFF DUP2 GT ISZERO PUSH2 0x5629 JUMPI PUSH2 0x5628 PUSH2 0x42B7 JUMP JUMPDEST JUMPDEST PUSH2 0x5635 DUP6 DUP3 DUP7 ADD PUSH2 0x53D3 JUMP JUMPDEST SWAP2 POP POP SWAP3 POP SWAP3 SWAP1 POP JUMP JUMPDEST PUSH0 DUP2 MLOAD SWAP1 POP SWAP2 SWAP1 POP JUMP JUMPDEST PUSH0 DUP3 DUP3 MSTORE PUSH1 0x20 DUP3 ADD SWAP1 POP SWAP3 SWAP2 POP POP JUMP JUMPDEST PUSH0 DUP2 SWAP1 POP PUSH1 0x20 DUP3 ADD SWAP1 POP SWAP2 SWAP1 POP JUMP JUMPDEST PUSH2 0x5671 DUP2 PUSH2 0x4558 JUMP JUMPDEST DUP3 MSTORE POP POP JUMP JUMPDEST PUSH0 PUSH2 0x5682 DUP4 DUP4 PUSH2 0x5668 JUMP JUMPDEST PUSH1 0x20 DUP4 ADD SWAP1 POP SWAP3 SWAP2 POP POP JUMP JUMPDEST PUSH0 PUSH1 0x20 DUP3 ADD SWAP1 POP SWAP2 SWAP1 POP JUMP JUMPDEST PUSH0 PUSH2 0x56A4 DUP3 PUSH2 0x563F JUMP JUMPDEST PUSH2 0x56AE DUP2 DUP6 PUSH2 0x5649 JUMP JUMPDEST SWAP4 POP PUSH2 0x56B9 DUP4 PUSH2 0x5659 JUMP JUMPDEST DUP1 PUSH0 JUMPDEST DUP4 DUP2 LT ISZERO PUSH2 0x56E9 JUMPI DUP2 MLOAD PUSH2 0x56D0 DUP9 DUP3 PUSH2 0x5677 JUMP JUMPDEST SWAP8 POP PUSH2 0x56DB DUP4 PUSH2 0x568E JUMP JUMPDEST SWAP3 POP POP PUSH1 0x1 DUP2 ADD SWAP1 POP PUSH2 0x56BC JUMP JUMPDEST POP DUP6 SWAP4 POP POP POP POP SWAP3 SWAP2 POP POP JUMP JUMPDEST PUSH0 PUSH1 0x20 DUP3 ADD SWAP1 POP DUP2 DUP2 SUB PUSH0 DUP4 ADD MSTORE PUSH2 0x570E DUP2 DUP5 PUSH2 0x569A JUMP JUMPDEST SWAP1 POP SWAP3 SWAP2 POP POP JUMP JUMPDEST PUSH0 PUSH0 PUSH0 PUSH1 0x60 DUP5 DUP7 SUB SLT ISZERO PUSH2 0x572D JUMPI PUSH2 0x572C PUSH2 0x42B3 JUMP JUMPDEST JUMPDEST PUSH0 DUP5 ADD CALLDATALOAD PUSH8 0xFFFFFFFFFFFFFFFF DUP2 GT ISZERO PUSH2 0x574A JUMPI PUSH2 0x5749 PUSH2 0x42B7 JUMP JUMPDEST JUMPDEST PUSH2 0x5756 DUP7 DUP3 DUP8 ADD PUSH2 0x4701 JUMP JUMPDEST SWAP4 POP POP PUSH1 0x20 DUP5 ADD CALLDATALOAD PUSH8 0xFFFFFFFFFFFFFFFF DUP2 GT ISZERO PUSH2 0x5777 JUMPI PUSH2 0x5776 PUSH2 0x42B7 JUMP JUMPDEST JUMPDEST PUSH2 0x5783 DUP7 DUP3 DUP8 ADD PUSH2 0x4701 JUMP JUMPDEST SWAP3 POP POP PUSH1 0x40 DUP5 ADD CALLDATALOAD PUSH8 0xFFFFFFFFFFFFFFFF DUP2 GT ISZERO PUSH2 0x57A4 JUMPI PUSH2 0x57A3 PUSH2 0x42B7 JUMP JUMPDEST JUMPDEST PUSH2 0x57B0 DUP7 DUP3 DUP8 ADD PUSH2 0x53D3 JUMP JUMPDEST SWAP2 POP POP SWAP3 POP SWAP3 POP SWAP3 JUMP JUMPDEST PUSH0 PUSH0 PUSH0 PUSH1 0x60 DUP5 DUP7 SUB SLT ISZERO PUSH2 0x57D1 JUMPI PUSH2 0x57D0 PUSH2 0x42B3 JUMP JUMPDEST JUMPDEST PUSH0 PUSH2 0x57DE DUP7 DUP3 DUP8 ADD PUSH2 0x4577 JUMP JUMPDEST SWAP4 POP POP PUSH1 0x20 PUSH2 0x57EF DUP7 DUP3 DUP8 ADD PUSH2 0x4577 JUMP JUMPDEST SWAP3 POP POP PUSH1 0x40 DUP5 ADD CALLDATALOAD PUSH8 0xFFFFFFFFFFFFFFFF DUP2 GT ISZERO PUSH2 0x5810 JUMPI PUSH2 0x580F PUSH2 0x42B7 JUMP JUMPDEST JUMPDEST PUSH2 0x581C DUP7 DUP3 DUP8 ADD PUSH2 0x4E8F JUMP JUMPDEST SWAP2 POP POP SWAP3 POP SWAP3 POP SWAP3 JUMP JUMPDEST PUSH0 PUSH0 PUSH0 PUSH0 PUSH1 0x80 DUP6 DUP8 SUB SLT ISZERO PUSH2 0x583E JUMPI PUSH2 0x583D PUSH2 0x42B3 JUMP JUMPDEST JUMPDEST PUSH0 PUSH2 0x584B DUP8 DUP3 DUP9 ADD PUSH2 0x43B4 JUMP JUMPDEST SWAP5 POP POP PUSH1 0x20 PUSH2 0x585C DUP8 DUP3 DUP9 ADD PUSH2 0x4577 JUMP JUMPDEST SWAP4 POP POP PUSH1 0x40 PUSH2 0x586D DUP8 DUP3 DUP9 ADD PUSH2 0x4E0A JUMP JUMPDEST SWAP3 POP POP PUSH1 0x60 DUP6 ADD CALLDATALOAD PUSH8 0xFFFFFFFFFFFFFFFF DUP2 GT ISZERO PUSH2 0x588E JUMPI PUSH2 0x588D PUSH2 0x42B7 JUMP JUMPDEST JUMPDEST PUSH2 0x589A DUP8 DUP3 DUP9 ADD PUSH2 0x4E8F JUMP JUMPDEST SWAP2 POP POP SWAP3 SWAP6 SWAP2 SWAP5 POP SWAP3 POP JUMP JUMPDEST PUSH0 PUSH1 0x20 DUP3 DUP5 SUB SLT ISZERO PUSH2 0x58BB JUMPI PUSH2 0x58BA PUSH2 0x42B3 JUMP JUMPDEST JUMPDEST PUSH0 DUP3 ADD CALLDATALOAD PUSH8 0xFFFFFFFFFFFFFFFF DUP2 GT ISZERO PUSH2 0x58D8 JUMPI PUSH2 0x58D7 PUSH2 0x42B7 JUMP JUMPDEST JUMPDEST PUSH2 0x58E4 DUP5 DUP3 DUP6 ADD PUSH2 0x4701 JUMP JUMPDEST SWAP2 POP POP SWAP3 SWAP2 POP POP JUMP JUMPDEST PUSH0 PUSH1 0x20 DUP3 ADD SWAP1 POP DUP2 DUP2 SUB PUSH0 DUP4 ADD MSTORE PUSH2 0x5905 DUP2 DUP5 PUSH2 0x4F69 JUMP JUMPDEST SWAP1 POP SWAP3 SWAP2 POP POP JUMP JUMPDEST PUSH2 0x5916 DUP2 PUSH2 0x42BB JUMP JUMPDEST DUP3 MSTORE POP POP JUMP JUMPDEST PUSH0 PUSH1 0x20 DUP3 ADD SWAP1 POP PUSH2 0x592F PUSH0 DUP4 ADD DUP5 PUSH2 0x590D JUMP JUMPDEST SWAP3 SWAP2 POP POP JUMP JUMPDEST PUSH0 DUP2 SWAP1 POP SWAP3 SWAP2 POP POP JUMP JUMPDEST PUSH0 PUSH2 0x594A DUP4 DUP6 PUSH2 0x5935 JUMP JUMPDEST SWAP4 POP PUSH2 0x5957 DUP4 DUP6 DUP5 PUSH2 0x423E JUMP JUMPDEST DUP3 DUP5 ADD SWAP1 POP SWAP4 SWAP3 POP POP POP JUMP JUMPDEST PUSH0 DUP2 PUSH1 0x60 SHL SWAP1 POP SWAP2 SWAP1 POP JUMP JUMPDEST PUSH0 PUSH2 0x5979 DUP3 PUSH2 0x5963 JUMP JUMPDEST SWAP1 POP SWAP2 SWAP1 POP JUMP JUMPDEST PUSH0 PUSH2 0x598A DUP3 PUSH2 0x596F JUMP JUMPDEST SWAP1 POP SWAP2 SWAP1 POP JUMP JUMPDEST PUSH2 0x59A2 PUSH2 0x599D DUP3 PUSH2 0x438D JUMP JUMPDEST PUSH2 0x5980 JUMP JUMPDEST DUP3 MSTORE POP POP JUMP JUMPDEST PUSH0 DUP2 SWAP1 POP SWAP2 SWAP1 POP JUMP JUMPDEST PUSH2 0x59C2 PUSH2 0x59BD DUP3 PUSH2 0x4639 JUMP JUMPDEST PUSH2 0x59A8 JUMP JUMPDEST DUP3 MSTORE POP POP JUMP JUMPDEST PUSH0 PUSH2 0x59D4 DUP3 DUP7 DUP9 PUSH2 0x593F JUMP JUMPDEST SWAP2 POP PUSH2 0x59E0 DUP3 DUP6 PUSH2 0x5991 JUMP JUMPDEST PUSH1 0x14 DUP3 ADD SWAP2 POP PUSH2 0x59F0 DUP3 DUP5 PUSH2 0x59B1 JUMP JUMPDEST PUSH1 0x20 DUP3 ADD SWAP2 POP DUP2 SWAP1 POP SWAP6 SWAP5 POP POP POP POP POP JUMP JUMPDEST PUSH0 PUSH2 0x5A0C DUP3 PUSH2 0x45C9 JUMP JUMPDEST PUSH2 0x5A16 DUP2 DUP6 PUSH2 0x5935 JUMP JUMPDEST SWAP4 POP PUSH2 0x5A26 DUP2 DUP6 PUSH1 0x20 DUP7 ADD PUSH2 0x45D3 JUMP JUMPDEST DUP1 DUP5 ADD SWAP2 POP POP SWAP3 SWAP2 POP POP JUMP JUMPDEST PUSH0 PUSH2 0x5A3D DUP3 DUP5 PUSH2 0x5A02 JUMP JUMPDEST SWAP2 POP DUP2 SWAP1 POP SWAP3 SWAP2 POP POP JUMP JUMPDEST PUSH32 0x4E6F74207065726D697400000000000000000000000000000000000000000000 PUSH0 DUP3 ADD MSTORE POP JUMP JUMPDEST PUSH0 PUSH2 0x5A7C PUSH1 0xA DUP4 PUSH2 0x4F59 JUMP JUMPDEST SWAP2 POP PUSH2 0x5A87 DUP3 PUSH2 0x5A48 JUMP JUMPDEST PUSH1 0x20 DUP3 ADD SWAP1 POP SWAP2 SWAP1 POP JUMP JUMPDEST PUSH0 PUSH1 0x20 DUP3 ADD SWAP1 POP DUP2 DUP2 SUB PUSH0 DUP4 ADD MSTORE PUSH2 0x5AA9 DUP2 PUSH2 0x5A70 JUMP JUMPDEST SWAP1 POP SWAP2 SWAP1 POP JUMP JUMPDEST PUSH32 0x4E487B7100000000000000000000000000000000000000000000000000000000 PUSH0 MSTORE PUSH1 0x22 PUSH1 0x4 MSTORE PUSH1 0x24 PUSH0 REVERT JUMPDEST PUSH0 PUSH1 0x2 DUP3 DIV SWAP1 POP PUSH1 0x1 DUP3 AND DUP1 PUSH2 0x5AF4 JUMPI PUSH1 0x7F DUP3 AND SWAP2 POP JUMPDEST PUSH1 0x20 DUP3 LT DUP2 SUB PUSH2 0x5B07 JUMPI PUSH2 0x5B06 PUSH2 0x5AB0 JUMP JUMPDEST JUMPDEST POP SWAP2 SWAP1 POP JUMP JUMPDEST PUSH0 DUP2 SWAP1 POP DUP2 PUSH0 MSTORE PUSH1 0x20 PUSH0 KECCAK256 SWAP1 POP SWAP2 SWAP1 POP JUMP JUMPDEST PUSH0 PUSH1 0x20 PUSH1 0x1F DUP4 ADD DIV SWAP1 POP SWAP2 SWAP1 POP JUMP JUMPDEST PUSH0 DUP3 DUP3 SHL SWAP1 POP SWAP3 SWAP2 POP POP JUMP JUMPDEST PUSH0 PUSH1 0x8 DUP4 MUL PUSH2 0x5B69 PUSH32 0xFFFFFFFFFFFFFFFFFFFFFFFFFFFFFFFFFFFFFFFFFFFFFFFFFFFFFFFFFFFFFFFF DUP3 PUSH2 0x5B2E JUMP JUMPDEST PUSH2 0x5B73 DUP7 DUP4 PUSH2 0x5B2E JUMP JUMPDEST SWAP6 POP DUP1 NOT DUP5 AND SWAP4 POP DUP1 DUP7 AND DUP5 OR SWAP3 POP POP POP SWAP4 SWAP3 POP POP POP JUMP JUMPDEST PUSH0 DUP2 SWAP1 POP SWAP2 SWAP1 POP JUMP JUMPDEST PUSH0 PUSH2 0x5BAE PUSH2 0x5BA9 PUSH2 0x5BA4 DUP5 PUSH2 0x4639 JUMP JUMPDEST PUSH2 0x5B8B JUMP JUMPDEST PUSH2 0x4639 JUMP JUMPDEST SWAP1 POP SWAP2 SWAP1 POP JUMP JUMPDEST PUSH0 DUP2 SWAP1 POP SWAP2 SWAP1 POP JUMP JUMPDEST PUSH2 0x5BC7 DUP4 PUSH2 0x5B94 JUMP JUMPDEST PUSH2 0x5BDB PUSH2 0x5BD3 DUP3 PUSH2 0x5BB5 JUMP JUMPDEST DUP5 DUP5 SLOAD PUSH2 0x5B3A JUMP JUMPDEST DUP3 SSTORE POP POP POP POP JUMP JUMPDEST PUSH0 PUSH0 SWAP1 POP SWAP1 JUMP JUMPDEST PUSH2 0x5BF2 PUSH2 0x5BE3 JUMP JUMPDEST PUSH2 0x5BFD DUP2 DUP5 DUP5 PUSH2 0x5BBE JUMP JUMPDEST POP POP POP JUMP JUMPDEST JUMPDEST DUP2 DUP2 LT ISZERO PUSH2 0x5C20 JUMPI PUSH2 0x5C15 PUSH0 DUP3 PUSH2 0x5BEA JUMP JUMPDEST PUSH1 0x1 DUP2 ADD SWAP1 POP PUSH2 0x5C03 JUMP JUMPDEST POP POP JUMP JUMPDEST PUSH1 0x1F DUP3 GT ISZERO PUSH2 0x5C65 JUMPI PUSH2 0x5C36 DUP2 PUSH2 0x5B0D JUMP JUMPDEST PUSH2 0x5C3F DUP5 PUSH2 0x5B1F JUMP JUMPDEST DUP2 ADD PUSH1 0x20 DUP6 LT ISZERO PUSH2 0x5C4E JUMPI DUP2 SWAP1 POP JUMPDEST PUSH2 0x5C62 PUSH2 0x5C5A DUP6 PUSH2 0x5B1F JUMP JUMPDEST DUP4 ADD DUP3 PUSH2 0x5C02 JUMP JUMPDEST POP POP JUMPDEST POP POP POP JUMP JUMPDEST PUSH0 DUP3 DUP3 SHR SWAP1 POP SWAP3 SWAP2 POP POP JUMP JUMPDEST PUSH0 PUSH2 0x5C85 PUSH0 NOT DUP5 PUSH1 0x8 MUL PUSH2 0x5C6A JUMP JUMPDEST NOT DUP1 DUP4 AND SWAP2 POP POP SWAP3 SWAP2 POP POP JUMP JUMPDEST PUSH0 PUSH2 0x5C9D DUP4 DUP4 PUSH2 0x5C76 JUMP JUMPDEST SWAP2 POP DUP3 PUSH1 0x2 MUL DUP3 OR SWAP1 POP SWAP3 SWAP2 POP POP JUMP JUMPDEST PUSH2 0x5CB6 DUP3 PUSH2 0x4F4F JUMP JUMPDEST PUSH8 0xFFFFFFFFFFFFFFFF DUP2 GT ISZERO PUSH2 0x5CCF JUMPI PUSH2 0x5CCE PUSH2 0x43FB JUMP JUMPDEST JUMPDEST PUSH2 0x5CD9 DUP3 SLOAD PUSH2 0x5ADD JUMP JUMPDEST PUSH2 0x5CE4 DUP3 DUP3 DUP6 PUSH2 0x5C24 JUMP JUMPDEST PUSH0 PUSH1 0x20 SWAP1 POP PUSH1 0x1F DUP4 GT PUSH1 0x1 DUP2 EQ PUSH2 0x5D15 JUMPI PUSH0 DUP5 ISZERO PUSH2 0x5D03 JUMPI DUP3 DUP8 ADD MLOAD SWAP1 POP JUMPDEST PUSH2 0x5D0D DUP6 DUP3 PUSH2 0x5C92 JUMP JUMPDEST DUP7 SSTORE POP PUSH2 0x5D74 JUMP JUMPDEST PUSH1 0x1F NOT DUP5 AND PUSH2 0x5D23 DUP7 PUSH2 0x5B0D JUMP JUMPDEST PUSH0 JUMPDEST DUP3 DUP2 LT ISZERO PUSH2 0x5D4A JUMPI DUP5 DUP10 ADD MLOAD DUP3 SSTORE PUSH1 0x1 DUP3 ADD SWAP2 POP PUSH1 0x20 DUP6 ADD SWAP5 POP PUSH1 0x20 DUP2 ADD SWAP1 POP PUSH2 0x5D25 JUMP JUMPDEST DUP7 DUP4 LT ISZERO PUSH2 0x5D67 JUMPI DUP5 DUP10 ADD MLOAD PUSH2 0x5D63 PUSH1 0x1F DUP10 AND DUP3 PUSH2 0x5C76 JUMP JUMPDEST DUP4 SSTORE POP JUMPDEST PUSH1 0x1 PUSH1 0x2 DUP9 MUL ADD DUP9 SSTORE POP POP POP JUMPDEST POP POP POP POP POP POP JUMP JUMPDEST PUSH32 0x4E487B7100000000000000000000000000000000000000000000000000000000 PUSH0 MSTORE PUSH1 0x32 PUSH1 0x4 MSTORE PUSH1 0x24 PUSH0 REVERT JUMPDEST PUSH0 PUSH1 0x20 DUP3 ADD SWAP1 POP PUSH2 0x5DBC PUSH0 DUP4 ADD DUP5 PUSH2 0x4FA1 JUMP JUMPDEST SWAP3 SWAP2 POP POP JUMP JUMPDEST PUSH32 0x4E6F7420617574686F72697A6564000000000000000000000000000000000000 PUSH0 DUP3 ADD MSTORE POP JUMP JUMPDEST PUSH0 PUSH2 0x5DF6 PUSH1 0xE DUP4 PUSH2 0x4F59 JUMP JUMPDEST SWAP2 POP PUSH2 0x5E01 DUP3 PUSH2 0x5DC2 JUMP JUMPDEST PUSH1 0x20 DUP3 ADD SWAP1 POP SWAP2 SWAP1 POP JUMP JUMPDEST PUSH0 PUSH1 0x20 DUP3 ADD SWAP1 POP DUP2 DUP2 SUB PUSH0 DUP4 ADD MSTORE PUSH2 0x5E23 DUP2 PUSH2 0x5DEA JUMP JUMPDEST SWAP1 POP SWAP2 SWAP1 POP JUMP JUMPDEST PUSH0 PUSH1 0x40 DUP3 ADD SWAP1 POP PUSH2 0x5E3D PUSH0 DUP4 ADD DUP6 PUSH2 0x4FA1 JUMP JUMPDEST PUSH2 0x5E4A PUSH1 0x20 DUP4 ADD DUP5 PUSH2 0x48C7 JUMP JUMPDEST SWAP4 SWAP3 POP POP POP JUMP JUMPDEST PUSH0 PUSH0 REVERT JUMPDEST PUSH0 PUSH0 REVERT JUMPDEST PUSH0 PUSH0 REVERT JUMPDEST PUSH0 PUSH0 DUP4 CALLDATALOAD PUSH1 0x1 PUSH1 0x20 SUB DUP5 CALLDATASIZE SUB SUB DUP2 SLT PUSH2 0x5E79 JUMPI PUSH2 0x5E78 PUSH2 0x5E51 JUMP JUMPDEST JUMPDEST DUP1 DUP5 ADD SWAP3 POP DUP3 CALLDATALOAD SWAP2 POP PUSH8 0xFFFFFFFFFFFFFFFF DUP3 GT ISZERO PUSH2 0x5E9B JUMPI PUSH2 0x5E9A PUSH2 0x5E55 JUMP JUMPDEST JUMPDEST PUSH1 0x20 DUP4 ADD SWAP3 POP PUSH1 0x1 DUP3 MUL CALLDATASIZE SUB DUP4 SGT ISZERO PUSH2 0x5EB7 JUMPI PUSH2 0x5EB6 PUSH2 0x5E59 JUMP JUMPDEST JUMPDEST POP SWAP3 POP SWAP3 SWAP1 POP JUMP JUMPDEST PUSH0 PUSH2 0x5ECB DUP3 DUP5 DUP7 PUSH2 0x593F JUMP JUMPDEST SWAP2 POP DUP2 SWAP1 POP SWAP4 SWAP3 POP POP POP JUMP JUMPDEST PUSH32 0x4E487B7100000000000000000000000000000000000000000000000000000000 PUSH0 MSTORE PUSH1 0x11 PUSH1 0x4 MSTORE PUSH1 0x24 PUSH0 REVERT JUMPDEST PUSH0 PUSH2 0x5F0E DUP3 PUSH2 0x4639 JUMP JUMPDEST SWAP2 POP PUSH2 0x5F19 DUP4 PUSH2 0x4639 JUMP JUMPDEST SWAP3 POP DUP3 DUP3 SUB SWAP1 POP DUP2 DUP2 GT ISZERO PUSH2 0x5F31 JUMPI PUSH2 0x5F30 PUSH2 0x5ED7 JUMP JUMPDEST JUMPDEST SWAP3 SWAP2 POP POP JUMP JUMPDEST PUSH32 0x4E487B7100000000000000000000000000000000000000000000000000000000 PUSH0 MSTORE PUSH1 0x31 PUSH1 0x4 MSTORE PUSH1 0x24 PUSH0 REVERT JUMPDEST PUSH32 0x53706F757365206E6F7420666F756E6400000000000000000000000000000000 PUSH0 DUP3 ADD MSTORE POP JUMP JUMPDEST PUSH0 PUSH2 0x5F98 PUSH1 0x10 DUP4 PUSH2 0x4F59 JUMP JUMPDEST SWAP2 POP PUSH2 0x5FA3 DUP3 PUSH2 0x5F64 JUMP JUMPDEST PUSH1 0x20 DUP3 ADD SWAP1 POP SWAP2 SWAP1 POP JUMP JUMPDEST PUSH0 PUSH1 0x20 DUP3 ADD SWAP1 POP DUP2 DUP2 SUB PUSH0 DUP4 ADD MSTORE PUSH2 0x5FC5 DUP2 PUSH2 0x5F8C JUMP JUMPDEST SWAP1 POP SWAP2 SWAP1 POP JUMP JUMPDEST PUSH0 PUSH1 0x60 DUP3 ADD SWAP1 POP PUSH2 0x5FDF PUSH0 DUP4 ADD DUP7 PUSH2 0x48C7 JUMP JUMPDEST PUSH2 0x5FEC PUSH1 0x20 DUP4 ADD DUP6 PUSH2 0x4FA1 JUMP JUMPDEST PUSH2 0x5FF9 PUSH1 0x40 DUP4 ADD DUP5 PUSH2 0x48C7 JUMP JUMPDEST SWAP5 SWAP4 POP POP POP POP JUMP JUMPDEST PUSH0 PUSH1 0x40 DUP3 ADD SWAP1 POP PUSH2 0x6014 PUSH0 DUP4 ADD DUP6 PUSH2 0x48C7 JUMP JUMPDEST PUSH2 0x6021 PUSH1 0x20 DUP4 ADD DUP5 PUSH2 0x4FA1 JUMP JUMPDEST SWAP4 SWAP3 POP POP POP JUMP JUMPDEST PUSH0 PUSH1 0x80 DUP3 ADD SWAP1 POP PUSH2 0x603B PUSH0 DUP4 ADD DUP8 PUSH2 0x48C7 JUMP JUMPDEST PUSH2 0x6048 PUSH1 0x20 DUP4 ADD DUP7 PUSH2 0x4FA1 JUMP JUMPDEST PUSH2 0x6055 PUSH1 0x40 DUP4 ADD DUP6 PUSH2 0x4346 JUMP JUMPDEST DUP2 DUP2 SUB PUSH1 0x60 DUP4 ADD MSTORE PUSH2 0x6067 DUP2 DUP5 PUSH2 0x45E1 JUMP JUMPDEST SWAP1 POP SWAP6 SWAP5 POP POP POP POP POP JUMP JUMPDEST PUSH32 0x4E6F74206368696C64206F66207468697320706572736F6E0000000000000000 PUSH0 DUP3 ADD MSTORE POP JUMP JUMPDEST PUSH0 PUSH2 0x60A6 PUSH1 0x18 DUP4 PUSH2 0x4F59 JUMP JUMPDEST SWAP2 POP PUSH2 0x60B1 DUP3 PUSH2 0x6072 JUMP JUMPDEST PUSH1 0x20 DUP3 ADD SWAP1 POP SWAP2 SWAP1 POP JUMP JUMPDEST PUSH0 PUSH1 0x20 DUP3 ADD SWAP1 POP DUP2 DUP2 SUB PUSH0 DUP4 ADD MSTORE PUSH2 0x60D3 DUP2 PUSH2 0x609A JUMP JUMPDEST SWAP1 POP SWAP2 SWAP1 POP JUMP JUMPDEST PUSH32 0x4368696C64206E6F7420666F756E640000000000000000000000000000000000 PUSH0 DUP3 ADD MSTORE POP JUMP JUMPDEST PUSH0 PUSH2 0x610E PUSH1 0xF DUP4 PUSH2 0x4F59 JUMP JUMPDEST SWAP2 POP PUSH2 0x6119 DUP3 PUSH2 0x60DA JUMP JUMPDEST PUSH1 0x20 DUP3 ADD SWAP1 POP SWAP2 SWAP1 POP JUMP JUMPDEST PUSH0 PUSH1 0x20 DUP3 ADD SWAP1 POP DUP2 DUP2 SUB PUSH0 DUP4 ADD MSTORE PUSH2 0x613B DUP2 PUSH2 0x6102 JUMP JUMPDEST SWAP1 POP SWAP2 SWAP1 POP JUMP JUMPDEST PUSH0 PUSH1 0x60 DUP3 ADD SWAP1 POP PUSH2 0x6155 PUSH0 DUP4 ADD DUP7 PUSH2 0x48C7 JUMP JUMPDEST PUSH2 0x6162 PUSH1 0x20 DUP4 ADD DUP6 PUSH2 0x48C7 JUMP JUMPDEST PUSH2 0x616F PUSH1 0x40 DUP4 ADD DUP5 PUSH2 0x4FA1 JUMP JUMPDEST SWAP5 SWAP4 POP POP POP POP JUMP JUMPDEST PUSH32 0x4F776E61626C653A206E6577206F776E657220697320746865207A65726F2061 PUSH0 DUP3 ADD MSTORE PUSH32 0x6464726573730000000000000000000000000000000000000000000000000000 PUSH1 0x20 DUP3 ADD MSTORE POP JUMP JUMPDEST PUSH0 PUSH2 0x61D1 PUSH1 0x26 DUP4 PUSH2 0x4F59 JUMP JUMPDEST SWAP2 POP PUSH2 0x61DC DUP3 PUSH2 0x6177 JUMP JUMPDEST PUSH1 0x40 DUP3 ADD SWAP1 POP SWAP2 SWAP1 POP JUMP JUMPDEST PUSH0 PUSH1 0x20 DUP3 ADD SWAP1 POP DUP2 DUP2 SUB PUSH0 DUP4 ADD MSTORE PUSH2 0x61FE DUP2 PUSH2 0x61C5 JUMP JUMPDEST SWAP1 POP SWAP2 SWAP1 POP JUMP JUMPDEST PUSH0 DUP2 SWAP1 POP PUSH1 0x20 DUP3 ADD SWAP1 POP SWAP2 SWAP1 POP JUMP JUMPDEST PUSH0 PUSH32 0xFFFFFFFFFFFFFFFFFFFFFFFFFFFFFFFFFFFFFFFF000000000000000000000000 DUP3 AND SWAP1 POP SWAP2 SWAP1 POP JUMP JUMPDEST PUSH0 PUSH2 0x624A DUP3 MLOAD PUSH2 0x6214 JUMP JUMPDEST DUP1 SWAP2 POP POP SWAP2 SWAP1 POP JUMP JUMPDEST PUSH0 PUSH2 0x625D DUP3 PUSH2 0x45C9 JUMP JUMPDEST DUP3 PUSH2 0x6267 DUP5 PUSH2 0x6205 JUMP JUMPDEST SWAP1 POP PUSH2 0x6272 DUP2 PUSH2 0x623F JUMP JUMPDEST SWAP3 POP PUSH1 0x14 DUP3 LT ISZERO PUSH2 0x62B2 JUMPI PUSH2 0x62AD PUSH32 0xFFFFFFFFFFFFFFFFFFFFFFFFFFFFFFFFFFFFFFFF000000000000000000000000 DUP4 PUSH1 0x14 SUB PUSH1 0x8 MUL PUSH2 0x5B2E JUMP JUMPDEST DUP4 AND SWAP3 POP JUMPDEST POP POP SWAP2 SWAP1 POP JUMP JUMPDEST PUSH32 0x4F776E61626C653A2063616C6C6572206973206E6F7420746865206F776E6572 PUSH0 DUP3 ADD MSTORE POP JUMP JUMPDEST PUSH0 PUSH2 0x62ED PUSH1 0x20 DUP4 PUSH2 0x4F59 JUMP JUMPDEST SWAP2 POP PUSH2 0x62F8 DUP3 PUSH2 0x62B9 JUMP JUMPDEST PUSH1 0x20 DUP3 ADD SWAP1 POP SWAP2 SWAP1 POP JUMP JUMPDEST PUSH0 PUSH1 0x20 DUP3 ADD SWAP1 POP DUP2 DUP2 SUB PUSH0 DUP4 ADD MSTORE PUSH2 0x631A DUP2 PUSH2 0x62E1 JUMP JUMPDEST SWAP1 POP SWAP2 SWAP1 POP JUMP JUMPDEST PUSH0 DUP2 SWAP1 POP SWAP2 SWAP1 POP JUMP JUMPDEST PUSH2 0x633B PUSH2 0x6336 DUP3 PUSH2 0x4558 JUMP JUMPDEST PUSH2 0x6321 JUMP JUMPDEST DUP3 MSTORE POP POP JUMP JUMPDEST PUSH0 PUSH2 0x634C DUP3 DUP6 PUSH2 0x632A JUMP JUMPDEST PUSH1 0x20 DUP3 ADD SWAP2 POP PUSH2 0x635C DUP3 DUP5 PUSH2 0x632A JUMP JUMPDEST PUSH1 0x20 DUP3 ADD SWAP2 POP DUP2 SWAP1 POP SWAP4 SWAP3 POP POP POP JUMP JUMPDEST PUSH0 PUSH1 0x60 DUP3 ADD SWAP1 POP PUSH2 0x637F PUSH0 DUP4 ADD DUP7 PUSH2 0x4FA1 JUMP JUMPDEST PUSH2 0x638C PUSH1 0x20 DUP4 ADD DUP6 PUSH2 0x48C7 JUMP JUMPDEST PUSH2 0x6399 PUSH1 0x40 DUP4 ADD DUP5 PUSH2 0x48C7 JUMP JUMPDEST SWAP5 SWAP4 POP POP POP POP JUMP JUMPDEST PUSH0 PUSH1 0x60 DUP3 ADD SWAP1 POP PUSH2 0x63B4 PUSH0 DUP4 ADD DUP7 PUSH2 0x48C7 JUMP JUMPDEST PUSH2 0x63C1 PUSH1 0x20 DUP4 ADD DUP6 PUSH2 0x4346 JUMP JUMPDEST DUP2 DUP2 SUB PUSH1 0x40 DUP4 ADD MSTORE PUSH2 0x63D3 DUP2 DUP5 PUSH2 0x45E1 JUMP JUMPDEST SWAP1 POP SWAP5 SWAP4 POP POP POP POP JUMP JUMPDEST PUSH0 PUSH1 0xA0 DUP3 ADD SWAP1 POP PUSH2 0x63F0 PUSH0 DUP4 ADD DUP9 PUSH2 0x48C7 JUMP JUMPDEST PUSH2 0x63FD PUSH1 0x20 DUP4 ADD DUP8 PUSH2 0x48C7 JUMP JUMPDEST PUSH2 0x640A PUSH1 0x40 DUP4 ADD DUP7 PUSH2 0x48C7 JUMP JUMPDEST PUSH2 0x6417 PUSH1 0x60 DUP4 ADD DUP6 PUSH2 0x4FA1 JUMP JUMPDEST DUP2 DUP2 SUB PUSH1 0x80 DUP4 ADD MSTORE PUSH2 0x6429 DUP2 DUP5 PUSH2 0x45E1 JUMP JUMPDEST SWAP1 POP SWAP7 SWAP6 POP POP POP POP POP POP JUMP JUMPDEST PUSH0 DUP2 SWAP1 POP DUP2 PUSH0 MSTORE PUSH1 0x20 PUSH0 KECCAK256 SWAP1 POP SWAP2 SWAP1 POP JUMP JUMPDEST PUSH1 0x1F DUP3 GT ISZERO PUSH2 0x6488 JUMPI PUSH2 0x6459 DUP2 PUSH2 0x6435 JUMP JUMPDEST PUSH2 0x6462 DUP5 PUSH2 0x5B1F JUMP JUMPDEST DUP2 ADD PUSH1 0x20 DUP6 LT ISZERO PUSH2 0x6471 JUMPI DUP2 SWAP1 POP JUMPDEST PUSH2 0x6485 PUSH2 0x647D DUP6 PUSH2 0x5B1F JUMP JUMPDEST DUP4 ADD DUP3 PUSH2 0x5C02 JUMP JUMPDEST POP POP JUMPDEST POP POP POP JUMP JUMPDEST PUSH2 0x6496 DUP3 PUSH2 0x45C9 JUMP JUMPDEST PUSH8 0xFFFFFFFFFFFFFFFF DUP2 GT ISZERO PUSH2 0x64AF JUMPI PUSH2 0x64AE PUSH2 0x43FB JUMP JUMPDEST JUMPDEST PUSH2 0x64B9 DUP3 SLOAD PUSH2 0x5ADD JUMP JUMPDEST PUSH2 0x64C4 DUP3 DUP3 DUP6 PUSH2 0x6447 JUMP JUMPDEST PUSH0 PUSH1 0x20 SWAP1 POP PUSH1 0x1F DUP4 GT PUSH1 0x1 DUP2 EQ PUSH2 0x64F5 JUMPI PUSH0 DUP5 ISZERO PUSH2 0x64E3 JUMPI DUP3 DUP8 ADD MLOAD SWAP1 POP JUMPDEST PUSH2 0x64ED DUP6 DUP3 PUSH2 0x5C92 JUMP JUMPDEST DUP7 SSTORE POP PUSH2 0x6554 JUMP JUMPDEST PUSH1 0x1F NOT DUP5 AND PUSH2 0x6503 DUP7 PUSH2 0x6435 JUMP JUMPDEST PUSH0 JUMPDEST DUP3 DUP2 LT ISZERO PUSH2 0x652A JUMPI DUP5 DUP10 ADD MLOAD DUP3 SSTORE PUSH1 0x1 DUP3 ADD SWAP2 POP PUSH1 0x20 DUP6 ADD SWAP5 POP PUSH1 0x20 DUP2 ADD SWAP1 POP PUSH2 0x6505 JUMP JUMPDEST DUP7 DUP4 LT ISZERO PUSH2 0x6547 JUMPI DUP5 DUP10 ADD MLOAD PUSH2 0x6543 PUSH1 0x1F DUP10 AND DUP3 PUSH2 0x5C76 JUMP JUMPDEST DUP4 SSTORE POP JUMPDEST PUSH1 0x1 PUSH1 0x2 DUP9 MUL ADD DUP9 SSTORE POP POP POP JUMPDEST POP POP POP POP POP POP JUMP JUMPDEST PUSH0 PUSH1 0x40 DUP3 ADD SWAP1 POP PUSH2 0x656F PUSH0 DUP4 ADD DUP6 PUSH2 0x4346 JUMP JUMPDEST DUP2 DUP2 SUB PUSH1 0x20 DUP4 ADD MSTORE PUSH2 0x6581 DUP2 DUP5 PUSH2 0x45E1 JUMP JUMPDEST SWAP1 POP SWAP4 SWAP3 POP POP POP JUMP JUMPDEST PUSH0 PUSH32 0xFFFFFFFFFFFFFFFFFFFF00000000000000000000000000000000000000000000 DUP3 AND SWAP1 POP SWAP2 SWAP1 POP JUMP JUMPDEST PUSH0 DUP2 SWAP1 POP SWAP2 SWAP1 POP JUMP JUMPDEST PUSH2 0x65CF PUSH2 0x65CA DUP3 PUSH2 0x658A JUMP JUMPDEST PUSH2 0x65B5 JUMP JUMPDEST DUP3 MSTORE POP POP JUMP JUMPDEST PUSH0 PUSH32 0xFFFF000000000000000000000000000000000000000000000000000000000000 DUP3 AND SWAP1 POP SWAP2 SWAP1 POP JUMP JUMPDEST PUSH0 DUP2 SWAP1 POP SWAP2 SWAP1 POP JUMP JUMPDEST PUSH2 0x661A PUSH2 0x6615 DUP3 PUSH2 0x65D5 JUMP JUMPDEST PUSH2 0x6600 JUMP JUMPDEST DUP3 MSTORE POP POP JUMP JUMPDEST PUSH0 DUP2 SWAP1 POP SWAP2 SWAP1 POP JUMP JUMPDEST PUSH2 0x663A PUSH2 0x6635 DUP3 PUSH2 0x6214 JUMP JUMPDEST PUSH2 0x6620 JUMP JUMPDEST DUP3 MSTORE POP POP JUMP JUMPDEST PUSH0 PUSH2 0x664B DUP3 DUP7 PUSH2 0x65BE JUMP JUMPDEST PUSH1 0xA DUP3 ADD SWAP2 POP PUSH2 0x665B DUP3 DUP6 PUSH2 0x6609 JUMP JUMPDEST PUSH1 0x2 DUP3 ADD SWAP2 POP PUSH2 0x666B DUP3 DUP5 PUSH2 0x6629 JUMP JUMPDEST PUSH1 0x14 DUP3 ADD SWAP2 POP DUP2 SWAP1 POP SWAP5 SWAP4 POP POP POP POP JUMP JUMPDEST PUSH0 PUSH2 0x6687 DUP3 MLOAD PUSH2 0x4558 JUMP JUMPDEST DUP1 SWAP2 POP POP SWAP2 SWAP1 POP JUMP JUMPDEST PUSH0 PUSH2 0x669A DUP3 PUSH2 0x45C9 JUMP JUMPDEST DUP3 PUSH2 0x66A4 DUP5 PUSH2 0x6205 JUMP JUMPDEST SWAP1 POP PUSH2 0x66AF DUP2 PUSH2 0x667C JUMP JUMPDEST SWAP3 POP PUSH1 0x20 DUP3 LT ISZERO PUSH2 0x66EF JUMPI PUSH2 0x66EA PUSH32 0xFFFFFFFFFFFFFFFFFFFFFFFFFFFFFFFFFFFFFFFFFFFFFFFFFFFFFFFFFFFFFFFF DUP4 PUSH1 0x20 SUB PUSH1 0x8 MUL PUSH2 0x5B2E JUMP JUMPDEST DUP4 AND SWAP3 POP JUMPDEST POP POP SWAP2 SWAP1 POP JUMP JUMPDEST PUSH0 PUSH2 0x6700 DUP3 PUSH2 0x4639 JUMP JUMPDEST SWAP2 POP PUSH32 0xFFFFFFFFFFFFFFFFFFFFFFFFFFFFFFFFFFFFFFFFFFFFFFFFFFFFFFFFFFFFFFFF DUP3 SUB PUSH2 0x6732 JUMPI PUSH2 0x6731 PUSH2 0x5ED7 JUMP JUMPDEST JUMPDEST PUSH1 0x1 DUP3 ADD SWAP1 POP SWAP2 SWAP1 POP JUMP JUMPDEST PUSH0 PUSH1 0x40 DUP3 ADD SWAP1 POP PUSH2 0x6750 PUSH0 DUP4 ADD DUP6 PUSH2 0x4FA1 JUMP JUMPDEST DUP2 DUP2 SUB PUSH1 0x20 DUP4 ADD MSTORE PUSH2 0x6762 DUP2 DUP5 PUSH2 0x45E1 JUMP JUMPDEST SWAP1 POP SWAP4 SWAP3 POP POP POP JUMP JUMPDEST PUSH0 PUSH2 0x677D PUSH2 0x6778 DUP5 PUSH2 0x4E1E JUMP JUMPDEST PUSH2 0x4459 JUMP JUMPDEST SWAP1 POP DUP3 DUP2 MSTORE PUSH1 0x20 DUP2 ADD DUP5 DUP5 DUP5 ADD GT ISZERO PUSH2 0x6799 JUMPI PUSH2 0x6798 PUSH2 0x43F7 JUMP JUMPDEST JUMPDEST PUSH2 0x67A4 DUP5 DUP3 DUP6 PUSH2 0x45D3 JUMP JUMPDEST POP SWAP4 SWAP3 POP POP POP JUMP JUMPDEST PUSH0 DUP3 PUSH1 0x1F DUP4 ADD SLT PUSH2 0x67C0 JUMPI PUSH2 0x67BF PUSH2 0x43F3 JUMP JUMPDEST JUMPDEST DUP2 MLOAD PUSH2 0x67D0 DUP5 DUP3 PUSH1 0x20 DUP7 ADD PUSH2 0x676B JUMP JUMPDEST SWAP2 POP POP SWAP3 SWAP2 POP POP JUMP JUMPDEST PUSH0 PUSH1 0x20 DUP3 DUP5 SUB SLT ISZERO PUSH2 0x67EE JUMPI PUSH2 0x67ED PUSH2 0x42B3 JUMP JUMPDEST JUMPDEST PUSH0 DUP3 ADD MLOAD PUSH8 0xFFFFFFFFFFFFFFFF DUP2 GT ISZERO PUSH2 0x680B JUMPI PUSH2 0x680A PUSH2 0x42B7 JUMP JUMPDEST JUMPDEST PUSH2 0x6817 DUP5 DUP3 DUP6 ADD PUSH2 0x67AC JUMP JUMPDEST SWAP2 POP POP SWAP3 SWAP2 POP POP JUMP INVALID LOG2 PUSH5 0x6970667358 0x22 SLT KECCAK256 SELFBALANCE MSTORE 0xB1 SWAP3 SWAP6 EQ 0xFC 0xDC 0x2D DATALOADN 0x5EF3 0xCE PUSH31 0x19592FF982BAC182FB533EBE2794A482F07E64736F6C634300081F00330000 "
		},
		"gasEstimates": {
			"creation": {
				"codeDepositCost": "5342000",
				"executionCost": "infinite",
				"totalCost": "infinite"
			},
			"external": {
				"": "infinite",
				"addChild(string,string,uint8,(uint16,uint8,uint8),(uint16,uint8,uint8),bytes32,bytes32,address,uint8)": "infinite",
				"addSpouse(bytes32,string,string,(uint16,uint8,uint8),(uint16,uint8,uint8),(uint16,uint8,uint8),(uint16,uint8,uint8),address)": "infinite",
				"authorizeOperator(address,bytes32,bytes)": "infinite",
				"balanceOf(address)": "2977",
				"batchCalls(bytes[])": "infinite",
				"clanShortDesc()": "infinite",
				"genealogyAddress()": "2598",
				"getData(bytes32)": "infinite",
				"getDataBatch(bytes32[])": "infinite",
				"getDataBatchForTokenIds(bytes32[],bytes32[])": "infinite",
				"getDataForTokenId(bytes32,bytes32)": "infinite",
				"getOperatorsOf(bytes32)": "infinite",
				"isOperatorFor(address,bytes32)": "infinite",
				"owner()": "2625",
				"personCount()": "2528",
				"persons(bytes32)": "infinite",
				"removeChild(bytes32,bytes32)": "infinite",
				"removeSpouse(bytes32,bytes32)": "infinite",
				"renounceOwnership()": "30455",
				"revokeOperator(address,bytes32,bool,bytes)": "infinite",
				"setClanShortDesc(string)": "infinite",
				"setData(bytes32,bytes)": "infinite",
				"setDataBatch(bytes32[],bytes[])": "infinite",
				"setDataBatchForTokenIds(bytes32[],bytes32[],bytes[])": "infinite",
				"setDataForTokenId(bytes32,bytes32,bytes)": "infinite",
				"supportsInterface(bytes4)": "infinite",
				"tokenIdsOf(address)": "infinite",
				"tokenOwnerOf(bytes32)": "infinite",
				"totalSupply()": "2478",
				"transfer(address,address,bytes32,bool,bytes)": "infinite",
				"transferBatch(address[],address[],bytes32[],bool[],bytes[])": "infinite",
				"transferGenealogyOwner(address)": "30672",
				"transferOwnership(address)": "30860",
				"updatePersonData(bytes32,string,string,uint8,(uint16,uint8,uint8),(uint16,uint8,uint8))": "infinite"
			},
			"internal": {
				"_createNewPerson(string memory,string memory,address,enum FamilyTypes.Sex,struct FamilyTypes.DateInfo memory,struct FamilyTypes.DateInfo memory)": "infinite"
			}
		},
		"methodIdentifiers": {
			"addChild(string,string,uint8,(uint16,uint8,uint8),(uint16,uint8,uint8),bytes32,bytes32,address,uint8)": "2819a215",
			"addSpouse(bytes32,string,string,(uint16,uint8,uint8),(uint16,uint8,uint8),(uint16,uint8,uint8),(uint16,uint8,uint8),address)": "4c8f9313",
			"authorizeOperator(address,bytes32,bytes)": "86a10ddd",
			"balanceOf(address)": "70a08231",
			"batchCalls(bytes[])": "6963d438",
			"clanShortDesc()": "e4ac8dbd",
			"genealogyAddress()": "1f121708",
			"getData(bytes32)": "54f6127f",
			"getDataBatch(bytes32[])": "dedff9c6",
			"getDataBatchForTokenIds(bytes32[],bytes32[])": "1d26fce6",
			"getDataForTokenId(bytes32,bytes32)": "16e023b3",
			"getOperatorsOf(bytes32)": "49a6078d",
			"isOperatorFor(address,bytes32)": "2a3654a4",
			"owner()": "8da5cb5b",
			"personCount()": "78495bf8",
			"persons(bytes32)": "625d0be9",
			"removeChild(bytes32,bytes32)": "8f81ecfc",
			"removeSpouse(bytes32,bytes32)": "7e913b05",
			"renounceOwnership()": "715018a6",
			"revokeOperator(address,bytes32,bool,bytes)": "db8c9663",
			"setClanShortDesc(string)": "0cfa4650",
			"setData(bytes32,bytes)": "7f23690c",
			"setDataBatch(bytes32[],bytes[])": "97902421",
			"setDataBatchForTokenIds(bytes32[],bytes32[],bytes[])": "be9f0e6f",
			"setDataForTokenId(bytes32,bytes32,bytes)": "d6c1407c",
			"supportsInterface(bytes4)": "01ffc9a7",
			"tokenIdsOf(address)": "a3b261f2",
			"tokenOwnerOf(bytes32)": "217b2270",
			"totalSupply()": "18160ddd",
			"transfer(address,address,bytes32,bool,bytes)": "511b6952",
			"transferBatch(address[],address[],bytes32[],bool[],bytes[])": "7e87632c",
			"transferGenealogyOwner(address)": "02154b4e",
			"transferOwnership(address)": "f2fde38b",
			"updatePersonData(bytes32,string,string,uint8,(uint16,uint8,uint8),(uint16,uint8,uint8))": "49fc5686"
		}
	},
	"abi": [
		{
			"inputs": [
				{
					"internalType": "string",
					"name": "clanName",
					"type": "string"
				},
				{
					"internalType": "string",
					"name": "clanDesc",
					"type": "string"
				},
				{
					"internalType": "string",
					"name": "ancestorName",
					"type": "string"
				},
				{
					"internalType": "string",
					"name": "ancestorShortDesc",
					"type": "string"
				},
				{
					"components": [
						{
							"internalType": "uint16",
							"name": "year",
							"type": "uint16"
						},
						{
							"internalType": "uint8",
							"name": "month",
							"type": "uint8"
						},
						{
							"internalType": "uint8",
							"name": "day",
							"type": "uint8"
						}
					],
					"internalType": "struct FamilyTypes.DateInfo",
					"name": "birthDate",
					"type": "tuple"
				},
				{
					"components": [
						{
							"internalType": "uint16",
							"name": "year",
							"type": "uint16"
						},
						{
							"internalType": "uint8",
							"name": "month",
							"type": "uint8"
						},
						{
							"internalType": "uint8",
							"name": "day",
							"type": "uint8"
						}
					],
					"internalType": "struct FamilyTypes.DateInfo",
					"name": "deathDate",
					"type": "tuple"
				},
				{
					"internalType": "address",
					"name": "owner",
					"type": "address"
				}
			],
			"stateMutability": "nonpayable",
			"type": "constructor"
		},
		{
			"inputs": [],
			"name": "ERC725Y_DataKeysValuesEmptyArray",
			"type": "error"
		},
		{
			"inputs": [],
			"name": "ERC725Y_DataKeysValuesLengthMismatch",
			"type": "error"
		},
		{
			"inputs": [],
			"name": "ERC725Y_MsgValueDisallowed",
			"type": "error"
		},
		{
			"inputs": [
				{
					"internalType": "bytes",
					"name": "storedData",
					"type": "bytes"
				}
			],
			"name": "InvalidExtensionAddress",
			"type": "error"
		},
		{
			"inputs": [
				{
					"internalType": "bytes",
					"name": "data",
					"type": "bytes"
				}
			],
			"name": "InvalidFunctionSelector",
			"type": "error"
		},
		{
			"inputs": [],
			"name": "LSP4TokenNameNotEditable",
			"type": "error"
		},
		{
			"inputs": [],
			"name": "LSP4TokenSymbolNotEditable",
			"type": "error"
		},
		{
			"inputs": [],
			"name": "LSP4TokenTypeNotEditable",
			"type": "error"
		},
		{
			"inputs": [
				{
					"internalType": "uint256",
					"name": "callIndex",
					"type": "uint256"
				}
			],
			"name": "LSP8BatchCallFailed",
			"type": "error"
		},
		{
			"inputs": [],
			"name": "LSP8CannotSendToAddressZero",
			"type": "error"
		},
		{
			"inputs": [],
			"name": "LSP8CannotUseAddressZeroAsOperator",
			"type": "error"
		},
		{
			"inputs": [],
			"name": "LSP8InvalidTransferBatch",
			"type": "error"
		},
		{
			"inputs": [
				{
					"internalType": "bytes32",
					"name": "tokenId",
					"type": "bytes32"
				}
			],
			"name": "LSP8NonExistentTokenId",
			"type": "error"
		},
		{
			"inputs": [
				{
					"internalType": "address",
					"name": "operator",
					"type": "address"
				},
				{
					"internalType": "bytes32",
					"name": "tokenId",
					"type": "bytes32"
				}
			],
			"name": "LSP8NonExistingOperator",
			"type": "error"
		},
		{
			"inputs": [
				{
					"internalType": "bytes32",
					"name": "tokenId",
					"type": "bytes32"
				},
				{
					"internalType": "address",
					"name": "caller",
					"type": "address"
				}
			],
			"name": "LSP8NotTokenOperator",
			"type": "error"
		},
		{
			"inputs": [
				{
					"internalType": "address",
					"name": "tokenOwner",
					"type": "address"
				},
				{
					"internalType": "bytes32",
					"name": "tokenId",
					"type": "bytes32"
				},
				{
					"internalType": "address",
					"name": "caller",
					"type": "address"
				}
			],
			"name": "LSP8NotTokenOwner",
			"type": "error"
		},
		{
			"inputs": [
				{
					"internalType": "address",
					"name": "tokenReceiver",
					"type": "address"
				}
			],
			"name": "LSP8NotifyTokenReceiverContractMissingLSP1Interface",
			"type": "error"
		},
		{
			"inputs": [
				{
					"internalType": "address",
					"name": "tokenReceiver",
					"type": "address"
				}
			],
			"name": "LSP8NotifyTokenReceiverIsEOA",
			"type": "error"
		},
		{
			"inputs": [
				{
					"internalType": "address",
					"name": "operator",
					"type": "address"
				},
				{
					"internalType": "bytes32",
					"name": "tokenId",
					"type": "bytes32"
				}
			],
			"name": "LSP8OperatorAlreadyAuthorized",
			"type": "error"
		},
		{
			"inputs": [
				{
					"internalType": "address",
					"name": "caller",
					"type": "address"
				},
				{
					"internalType": "address",
					"name": "tokenOwner",
					"type": "address"
				},
				{
					"internalType": "bytes32",
					"name": "tokenId",
					"type": "bytes32"
				}
			],
			"name": "LSP8RevokeOperatorNotAuthorized",
			"type": "error"
		},
		{
			"inputs": [],
			"name": "LSP8TokenContractCannotHoldValue",
			"type": "error"
		},
		{
			"inputs": [
				{
					"internalType": "bytes32",
					"name": "tokenId",
					"type": "bytes32"
				}
			],
			"name": "LSP8TokenIdAlreadyMinted",
			"type": "error"
		},
		{
			"inputs": [],
			"name": "LSP8TokenIdFormatNotEditable",
			"type": "error"
		},
		{
			"inputs": [],
			"name": "LSP8TokenIdsDataEmptyArray",
			"type": "error"
		},
		{
			"inputs": [],
			"name": "LSP8TokenIdsDataLengthMismatch",
			"type": "error"
		},
		{
			"inputs": [],
			"name": "LSP8TokenOwnerCannotBeOperator",
			"type": "error"
		},
		{
			"inputs": [
				{
					"internalType": "bytes32",
					"name": "tokenId",
					"type": "bytes32"
				},
				{
					"internalType": "address",
					"name": "oldOwner",
					"type": "address"
				},
				{
					"internalType": "address",
					"name": "newOwner",
					"type": "address"
				}
			],
			"name": "LSP8TokenOwnerChanged",
			"type": "error"
		},
		{
			"inputs": [
				{
					"internalType": "bytes4",
					"name": "functionSelector",
					"type": "bytes4"
				}
			],
			"name": "NoExtensionFoundForFunctionSelector",
			"type": "error"
		},
		{
			"inputs": [],
			"name": "OwnableCannotSetZeroAddressAsOwner",
			"type": "error"
		},
		{
			"anonymous": false,
			"inputs": [
				{
					"indexed": true,
					"internalType": "bytes32",
					"name": "childId",
					"type": "bytes32"
				},
				{
					"indexed": true,
					"internalType": "bytes32",
					"name": "fatherId",
					"type": "bytes32"
				}
			],
			"name": "ChildAdded",
			"type": "event"
		},
		{
			"anonymous": false,
			"inputs": [
				{
					"indexed": true,
					"internalType": "bytes32",
					"name": "childId",
					"type": "bytes32"
				},
				{
					"indexed": true,
					"internalType": "bytes32",
					"name": "parentId",
					"type": "bytes32"
				}
			],
			"name": "ChildRemoved",
			"type": "event"
		},
		{
			"anonymous": false,
			"inputs": [
				{
					"indexed": true,
					"internalType": "address",
					"name": "owner",
					"type": "address"
				}
			],
			"name": "ClanShortDescChanged",
			"type": "event"
		},
		{
			"anonymous": false,
			"inputs": [
				{
					"indexed": true,
					"internalType": "bytes32",
					"name": "dataKey",
					"type": "bytes32"
				},
				{
					"indexed": false,
					"internalType": "bytes",
					"name": "dataValue",
					"type": "bytes"
				}
			],
			"name": "DataChanged",
			"type": "event"
		},
		{
			"anonymous": false,
			"inputs": [
				{
					"indexed": true,
					"internalType": "address",
					"name": "operator",
					"type": "address"
				},
				{
					"indexed": true,
					"internalType": "address",
					"name": "tokenOwner",
					"type": "address"
				},
				{
					"indexed": true,
					"internalType": "bytes32",
					"name": "tokenId",
					"type": "bytes32"
				},
				{
					"indexed": false,
					"internalType": "bytes",
					"name": "operatorNotificationData",
					"type": "bytes"
				}
			],
			"name": "OperatorAuthorizationChanged",
			"type": "event"
		},
		{
			"anonymous": false,
			"inputs": [
				{
					"indexed": true,
					"internalType": "address",
					"name": "operator",
					"type": "address"
				},
				{
					"indexed": true,
					"internalType": "address",
					"name": "tokenOwner",
					"type": "address"
				},
				{
					"indexed": true,
					"internalType": "bytes32",
					"name": "tokenId",
					"type": "bytes32"
				},
				{
					"indexed": false,
					"internalType": "bool",
					"name": "notified",
					"type": "bool"
				},
				{
					"indexed": false,
					"internalType": "bytes",
					"name": "operatorNotificationData",
					"type": "bytes"
				}
			],
			"name": "OperatorRevoked",
			"type": "event"
		},
		{
			"anonymous": false,
			"inputs": [
				{
					"indexed": true,
					"internalType": "address",
					"name": "previousOwner",
					"type": "address"
				},
				{
					"indexed": true,
					"internalType": "address",
					"name": "newOwner",
					"type": "address"
				}
			],
			"name": "OwnershipTransferred",
			"type": "event"
		},
		{
			"anonymous": false,
			"inputs": [
				{
					"indexed": true,
					"internalType": "bytes32",
					"name": "personId",
					"type": "bytes32"
				},
				{
					"indexed": false,
					"internalType": "address",
					"name": "ownership",
					"type": "address"
				}
			],
			"name": "PersonCreated",
			"type": "event"
		},
		{
			"anonymous": false,
			"inputs": [
				{
					"indexed": true,
					"internalType": "bytes32",
					"name": "husbanId",
					"type": "bytes32"
				},
				{
					"indexed": true,
					"internalType": "bytes32",
					"name": "spouseId",
					"type": "bytes32"
				}
			],
			"name": "SpouseAdded",
			"type": "event"
		},
		{
			"anonymous": false,
			"inputs": [
				{
					"indexed": true,
					"internalType": "bytes32",
					"name": "spouseId",
					"type": "bytes32"
				},
				{
					"indexed": true,
					"internalType": "bytes32",
					"name": "husbanId",
					"type": "bytes32"
				}
			],
			"name": "SpouseRemoved",
			"type": "event"
		},
		{
			"anonymous": false,
			"inputs": [
				{
					"indexed": true,
					"internalType": "bytes32",
					"name": "tokenId",
					"type": "bytes32"
				},
				{
					"indexed": true,
					"internalType": "bytes32",
					"name": "dataKey",
					"type": "bytes32"
				},
				{
					"indexed": false,
					"internalType": "bytes",
					"name": "dataValue",
					"type": "bytes"
				}
			],
			"name": "TokenIdDataChanged",
			"type": "event"
		},
		{
			"anonymous": false,
			"inputs": [
				{
					"indexed": false,
					"internalType": "address",
					"name": "operator",
					"type": "address"
				},
				{
					"indexed": true,
					"internalType": "address",
					"name": "from",
					"type": "address"
				},
				{
					"indexed": true,
					"internalType": "address",
					"name": "to",
					"type": "address"
				},
				{
					"indexed": true,
					"internalType": "bytes32",
					"name": "tokenId",
					"type": "bytes32"
				},
				{
					"indexed": false,
					"internalType": "bool",
					"name": "force",
					"type": "bool"
				},
				{
					"indexed": false,
					"internalType": "bytes",
					"name": "data",
					"type": "bytes"
				}
			],
			"name": "Transfer",
			"type": "event"
		},
		{
			"anonymous": false,
			"inputs": [
				{
					"indexed": true,
					"internalType": "bytes32",
					"name": "personId",
					"type": "bytes32"
				}
			],
			"name": "UpdatePersonData",
			"type": "event"
		},
		{
			"stateMutability": "payable",
			"type": "fallback"
		},
		{
			"inputs": [
				{
					"internalType": "string",
					"name": "childName",
					"type": "string"
				},
				{
					"internalType": "string",
					"name": "shortDesc",
					"type": "string"
				},
				{
					"internalType": "enum FamilyTypes.Sex",
					"name": "sex",
					"type": "uint8"
				},
				{
					"components": [
						{
							"internalType": "uint16",
							"name": "year",
							"type": "uint16"
						},
						{
							"internalType": "uint8",
							"name": "month",
							"type": "uint8"
						},
						{
							"internalType": "uint8",
							"name": "day",
							"type": "uint8"
						}
					],
					"internalType": "struct FamilyTypes.DateInfo",
					"name": "birthDate",
					"type": "tuple"
				},
				{
					"components": [
						{
							"internalType": "uint16",
							"name": "year",
							"type": "uint16"
						},
						{
							"internalType": "uint8",
							"name": "month",
							"type": "uint8"
						},
						{
							"internalType": "uint8",
							"name": "day",
							"type": "uint8"
						}
					],
					"internalType": "struct FamilyTypes.DateInfo",
					"name": "deathDate",
					"type": "tuple"
				},
				{
					"internalType": "bytes32",
					"name": "fatherId",
					"type": "bytes32"
				},
				{
					"internalType": "bytes32",
					"name": "motherId",
					"type": "bytes32"
				},
				{
					"internalType": "address",
					"name": "owner",
					"type": "address"
				},
				{
					"internalType": "enum FamilyTypes.ChildType",
					"name": "childType",
					"type": "uint8"
				}
			],
			"name": "addChild",
			"outputs": [],
			"stateMutability": "nonpayable",
			"type": "function"
		},
		{
			"inputs": [
				{
					"internalType": "bytes32",
					"name": "husbanId",
					"type": "bytes32"
				},
				{
					"internalType": "string",
					"name": "name",
					"type": "string"
				},
				{
					"internalType": "string",
					"name": "descShort",
					"type": "string"
				},
				{
					"components": [
						{
							"internalType": "uint16",
							"name": "year",
							"type": "uint16"
						},
						{
							"internalType": "uint8",
							"name": "month",
							"type": "uint8"
						},
						{
							"internalType": "uint8",
							"name": "day",
							"type": "uint8"
						}
					],
					"internalType": "struct FamilyTypes.DateInfo",
					"name": "birthDate",
					"type": "tuple"
				},
				{
					"components": [
						{
							"internalType": "uint16",
							"name": "year",
							"type": "uint16"
						},
						{
							"internalType": "uint8",
							"name": "month",
							"type": "uint8"
						},
						{
							"internalType": "uint8",
							"name": "day",
							"type": "uint8"
						}
					],
					"internalType": "struct FamilyTypes.DateInfo",
					"name": "deathDate",
					"type": "tuple"
				},
				{
					"components": [
						{
							"internalType": "uint16",
							"name": "year",
							"type": "uint16"
						},
						{
							"internalType": "uint8",
							"name": "month",
							"type": "uint8"
						},
						{
							"internalType": "uint8",
							"name": "day",
							"type": "uint8"
						}
					],
					"internalType": "struct FamilyTypes.DateInfo",
					"name": "marriedDate",
					"type": "tuple"
				},
				{
					"components": [
						{
							"internalType": "uint16",
							"name": "year",
							"type": "uint16"
						},
						{
							"internalType": "uint8",
							"name": "month",
							"type": "uint8"
						},
						{
							"internalType": "uint8",
							"name": "day",
							"type": "uint8"
						}
					],
					"internalType": "struct FamilyTypes.DateInfo",
					"name": "divorcedDate",
					"type": "tuple"
				},
				{
					"internalType": "address",
					"name": "ownership",
					"type": "address"
				}
			],
			"name": "addSpouse",
			"outputs": [],
			"stateMutability": "nonpayable",
			"type": "function"
		},
		{
			"inputs": [
				{
					"internalType": "address",
					"name": "operator",
					"type": "address"
				},
				{
					"internalType": "bytes32",
					"name": "tokenId",
					"type": "bytes32"
				},
				{
					"internalType": "bytes",
					"name": "operatorNotificationData",
					"type": "bytes"
				}
			],
			"name": "authorizeOperator",
			"outputs": [],
			"stateMutability": "nonpayable",
			"type": "function"
		},
		{
			"inputs": [
				{
					"internalType": "address",
					"name": "tokenOwner",
					"type": "address"
				}
			],
			"name": "balanceOf",
			"outputs": [
				{
					"internalType": "uint256",
					"name": "",
					"type": "uint256"
				}
			],
			"stateMutability": "view",
			"type": "function"
		},
		{
			"inputs": [
				{
					"internalType": "bytes[]",
					"name": "data",
					"type": "bytes[]"
				}
			],
			"name": "batchCalls",
			"outputs": [
				{
					"internalType": "bytes[]",
					"name": "results",
					"type": "bytes[]"
				}
			],
			"stateMutability": "nonpayable",
			"type": "function"
		},
		{
			"inputs": [],
			"name": "clanShortDesc",
			"outputs": [
				{
					"internalType": "string",
					"name": "",
					"type": "string"
				}
			],
			"stateMutability": "view",
			"type": "function"
		},
		{
			"inputs": [],
			"name": "genealogyAddress",
			"outputs": [
				{
					"internalType": "address",
					"name": "",
					"type": "address"
				}
			],
			"stateMutability": "view",
			"type": "function"
		},
		{
			"inputs": [
				{
					"internalType": "bytes32",
					"name": "dataKey",
					"type": "bytes32"
				}
			],
			"name": "getData",
			"outputs": [
				{
					"internalType": "bytes",
					"name": "dataValue",
					"type": "bytes"
				}
			],
			"stateMutability": "view",
			"type": "function"
		},
		{
			"inputs": [
				{
					"internalType": "bytes32[]",
					"name": "dataKeys",
					"type": "bytes32[]"
				}
			],
			"name": "getDataBatch",
			"outputs": [
				{
					"internalType": "bytes[]",
					"name": "dataValues",
					"type": "bytes[]"
				}
			],
			"stateMutability": "view",
			"type": "function"
		},
		{
			"inputs": [
				{
					"internalType": "bytes32[]",
					"name": "tokenIds",
					"type": "bytes32[]"
				},
				{
					"internalType": "bytes32[]",
					"name": "dataKeys",
					"type": "bytes32[]"
				}
			],
			"name": "getDataBatchForTokenIds",
			"outputs": [
				{
					"internalType": "bytes[]",
					"name": "dataValues",
					"type": "bytes[]"
				}
			],
			"stateMutability": "view",
			"type": "function"
		},
		{
			"inputs": [
				{
					"internalType": "bytes32",
					"name": "tokenId",
					"type": "bytes32"
				},
				{
					"internalType": "bytes32",
					"name": "dataKey",
					"type": "bytes32"
				}
			],
			"name": "getDataForTokenId",
			"outputs": [
				{
					"internalType": "bytes",
					"name": "dataValue",
					"type": "bytes"
				}
			],
			"stateMutability": "view",
			"type": "function"
		},
		{
			"inputs": [
				{
					"internalType": "bytes32",
					"name": "tokenId",
					"type": "bytes32"
				}
			],
			"name": "getOperatorsOf",
			"outputs": [
				{
					"internalType": "address[]",
					"name": "",
					"type": "address[]"
				}
			],
			"stateMutability": "view",
			"type": "function"
		},
		{
			"inputs": [
				{
					"internalType": "address",
					"name": "operator",
					"type": "address"
				},
				{
					"internalType": "bytes32",
					"name": "tokenId",
					"type": "bytes32"
				}
			],
			"name": "isOperatorFor",
			"outputs": [
				{
					"internalType": "bool",
					"name": "",
					"type": "bool"
				}
			],
			"stateMutability": "view",
			"type": "function"
		},
		{
			"inputs": [],
			"name": "owner",
			"outputs": [
				{
					"internalType": "address",
					"name": "",
					"type": "address"
				}
			],
			"stateMutability": "view",
			"type": "function"
		},
		{
			"inputs": [],
			"name": "personCount",
			"outputs": [
				{
					"internalType": "uint256",
					"name": "_value",
					"type": "uint256"
				}
			],
			"stateMutability": "view",
			"type": "function"
		},
		{
			"inputs": [
				{
					"internalType": "bytes32",
					"name": "",
					"type": "bytes32"
				}
			],
			"name": "persons",
			"outputs": [
				{
					"internalType": "string",
					"name": "name",
					"type": "string"
				},
				{
					"internalType": "bytes32",
					"name": "fatherId",
					"type": "bytes32"
				},
				{
					"internalType": "bytes32",
					"name": "motherId",
					"type": "bytes32"
				},
				{
					"internalType": "enum FamilyTypes.Sex",
					"name": "sex",
					"type": "uint8"
				},
				{
					"components": [
						{
							"internalType": "uint16",
							"name": "year",
							"type": "uint16"
						},
						{
							"internalType": "uint8",
							"name": "month",
							"type": "uint8"
						},
						{
							"internalType": "uint8",
							"name": "day",
							"type": "uint8"
						}
					],
					"internalType": "struct FamilyTypes.DateInfo",
					"name": "birthDate",
					"type": "tuple"
				},
				{
					"components": [
						{
							"internalType": "uint16",
							"name": "year",
							"type": "uint16"
						},
						{
							"internalType": "uint8",
							"name": "month",
							"type": "uint8"
						},
						{
							"internalType": "uint8",
							"name": "day",
							"type": "uint8"
						}
					],
					"internalType": "struct FamilyTypes.DateInfo",
					"name": "deathDate",
					"type": "tuple"
				},
				{
					"internalType": "string",
					"name": "shortDesc",
					"type": "string"
				}
			],
			"stateMutability": "view",
			"type": "function"
		},
		{
			"inputs": [
				{
					"internalType": "bytes32",
					"name": "parentId",
					"type": "bytes32"
				},
				{
					"internalType": "bytes32",
					"name": "childId",
					"type": "bytes32"
				}
			],
			"name": "removeChild",
			"outputs": [],
			"stateMutability": "nonpayable",
			"type": "function"
		},
		{
			"inputs": [
				{
					"internalType": "bytes32",
					"name": "spouseId",
					"type": "bytes32"
				},
				{
					"internalType": "bytes32",
					"name": "husbanId",
					"type": "bytes32"
				}
			],
			"name": "removeSpouse",
			"outputs": [],
			"stateMutability": "nonpayable",
			"type": "function"
		},
		{
			"inputs": [],
			"name": "renounceOwnership",
			"outputs": [],
			"stateMutability": "nonpayable",
			"type": "function"
		},
		{
			"inputs": [
				{
					"internalType": "address",
					"name": "operator",
					"type": "address"
				},
				{
					"internalType": "bytes32",
					"name": "tokenId",
					"type": "bytes32"
				},
				{
					"internalType": "bool",
					"name": "notify",
					"type": "bool"
				},
				{
					"internalType": "bytes",
					"name": "operatorNotificationData",
					"type": "bytes"
				}
			],
			"name": "revokeOperator",
			"outputs": [],
			"stateMutability": "nonpayable",
			"type": "function"
		},
		{
			"inputs": [
				{
					"internalType": "string",
					"name": "newClanShortDesc",
					"type": "string"
				}
			],
			"name": "setClanShortDesc",
			"outputs": [],
			"stateMutability": "nonpayable",
			"type": "function"
		},
		{
			"inputs": [
				{
					"internalType": "bytes32",
					"name": "dataKey",
					"type": "bytes32"
				},
				{
					"internalType": "bytes",
					"name": "dataValue",
					"type": "bytes"
				}
			],
			"name": "setData",
			"outputs": [],
			"stateMutability": "payable",
			"type": "function"
		},
		{
			"inputs": [
				{
					"internalType": "bytes32[]",
					"name": "dataKeys",
					"type": "bytes32[]"
				},
				{
					"internalType": "bytes[]",
					"name": "dataValues",
					"type": "bytes[]"
				}
			],
			"name": "setDataBatch",
			"outputs": [],
			"stateMutability": "payable",
			"type": "function"
		},
		{
			"inputs": [
				{
					"internalType": "bytes32[]",
					"name": "tokenIds",
					"type": "bytes32[]"
				},
				{
					"internalType": "bytes32[]",
					"name": "dataKeys",
					"type": "bytes32[]"
				},
				{
					"internalType": "bytes[]",
					"name": "dataValues",
					"type": "bytes[]"
				}
			],
			"name": "setDataBatchForTokenIds",
			"outputs": [],
			"stateMutability": "nonpayable",
			"type": "function"
		},
		{
			"inputs": [
				{
					"internalType": "bytes32",
					"name": "tokenId",
					"type": "bytes32"
				},
				{
					"internalType": "bytes32",
					"name": "dataKey",
					"type": "bytes32"
				},
				{
					"internalType": "bytes",
					"name": "dataValue",
					"type": "bytes"
				}
			],
			"name": "setDataForTokenId",
			"outputs": [],
			"stateMutability": "nonpayable",
			"type": "function"
		},
		{
			"inputs": [
				{
					"internalType": "bytes4",
					"name": "interfaceId",
					"type": "bytes4"
				}
			],
			"name": "supportsInterface",
			"outputs": [
				{
					"internalType": "bool",
					"name": "",
					"type": "bool"
				}
			],
			"stateMutability": "view",
			"type": "function"
		},
		{
			"inputs": [
				{
					"internalType": "address",
					"name": "tokenOwner",
					"type": "address"
				}
			],
			"name": "tokenIdsOf",
			"outputs": [
				{
					"internalType": "bytes32[]",
					"name": "",
					"type": "bytes32[]"
				}
			],
			"stateMutability": "view",
			"type": "function"
		},
		{
			"inputs": [
				{
					"internalType": "bytes32",
					"name": "tokenId",
					"type": "bytes32"
				}
			],
			"name": "tokenOwnerOf",
			"outputs": [
				{
					"internalType": "address",
					"name": "",
					"type": "address"
				}
			],
			"stateMutability": "view",
			"type": "function"
		},
		{
			"inputs": [],
			"name": "totalSupply",
			"outputs": [
				{
					"internalType": "uint256",
					"name": "",
					"type": "uint256"
				}
			],
			"stateMutability": "view",
			"type": "function"
		},
		{
			"inputs": [
				{
					"internalType": "address",
					"name": "from",
					"type": "address"
				},
				{
					"internalType": "address",
					"name": "to",
					"type": "address"
				},
				{
					"internalType": "bytes32",
					"name": "tokenId",
					"type": "bytes32"
				},
				{
					"internalType": "bool",
					"name": "force",
					"type": "bool"
				},
				{
					"internalType": "bytes",
					"name": "data",
					"type": "bytes"
				}
			],
			"name": "transfer",
			"outputs": [],
			"stateMutability": "nonpayable",
			"type": "function"
		},
		{
			"inputs": [
				{
					"internalType": "address[]",
					"name": "from",
					"type": "address[]"
				},
				{
					"internalType": "address[]",
					"name": "to",
					"type": "address[]"
				},
				{
					"internalType": "bytes32[]",
					"name": "tokenId",
					"type": "bytes32[]"
				},
				{
					"internalType": "bool[]",
					"name": "force",
					"type": "bool[]"
				},
				{
					"internalType": "bytes[]",
					"name": "data",
					"type": "bytes[]"
				}
			],
			"name": "transferBatch",
			"outputs": [],
			"stateMutability": "nonpayable",
			"type": "function"
		},
		{
			"inputs": [
				{
					"internalType": "address",
					"name": "newOwner",
					"type": "address"
				}
			],
			"name": "transferGenealogyOwner",
			"outputs": [],
			"stateMutability": "nonpayable",
			"type": "function"
		},
		{
			"inputs": [
				{
					"internalType": "address",
					"name": "newOwner",
					"type": "address"
				}
			],
			"name": "transferOwnership",
			"outputs": [],
			"stateMutability": "nonpayable",
			"type": "function"
		},
		{
			"inputs": [
				{
					"internalType": "bytes32",
					"name": "personId",
					"type": "bytes32"
				},
				{
					"internalType": "string",
					"name": "newName",
					"type": "string"
				},
				{
					"internalType": "string",
					"name": "newDescShort",
					"type": "string"
				},
				{
					"internalType": "enum FamilyTypes.Sex",
					"name": "sex",
					"type": "uint8"
				},
				{
					"components": [
						{
							"internalType": "uint16",
							"name": "year",
							"type": "uint16"
						},
						{
							"internalType": "uint8",
							"name": "month",
							"type": "uint8"
						},
						{
							"internalType": "uint8",
							"name": "day",
							"type": "uint8"
						}
					],
					"internalType": "struct FamilyTypes.DateInfo",
					"name": "birthDate",
					"type": "tuple"
				},
				{
					"components": [
						{
							"internalType": "uint16",
							"name": "year",
							"type": "uint16"
						},
						{
							"internalType": "uint8",
							"name": "month",
							"type": "uint8"
						},
						{
							"internalType": "uint8",
							"name": "day",
							"type": "uint8"
						}
					],
					"internalType": "struct FamilyTypes.DateInfo",
					"name": "deathDate",
					"type": "tuple"
				}
			],
			"name": "updatePersonData",
			"outputs": [],
			"stateMutability": "nonpayable",
			"type": "function"
		},
		{
			"stateMutability": "payable",
			"type": "receive"
		}
	]
}