{
	"data": {
		"bytecode": {
			"linkReferences": {},
			"object": "608060405234801561000f575f5ffd5b506040516148d23803806148d283398101604081905261002e91610950565b60408051808201909152600681526546414d494c5960d01b602082015287908260025f848484848161005f336101fd565b6001600160a01b038116610086576040516306b620db60e21b815260040160405180910390fd5b61008f816101fd565b506040805180820190915260048152632936598960e21b60208201526100d6907feafec4d89fa9619884b60000a4d96624a38f7ac2d8d9a604ecf07c12c77e480c9061024c565b6101007fdeba1e292f8ba88238e10ab3c7f88bd4be4fac56cad5194b6ecceaf653468af18561024c565b61012a7f2f0a68ab07768e01943a599e73362a0e17a63a72e94dd2e384d2c1d4db9327568461024c565b6040805160208101839052610171917fe0261fa95db2eb3b5439bd033cda66d56b96f92f243a8228fd87550ed7bdfdb3910160408051601f1981840301815291905261024c565b505060408051602081018590526101bc93507ff675e9361af1c1664c1868cfa3eb97672d6b1a513aa5b81dec34c9ee330e818d92500160408051601f198184030181529190526102a0565b5050600880546001600160a01b0319163317905550600991506101e190508782610abb565b506101f08585835f8787610360565b5050505050505050610cbf565b5f80546001600160a01b038381166001600160a01b0319831681178455604051919092169283917f8be0079c531659141344cd1fd0a4f28419497f9722a3daafe3b4186f6b6457e09190a35050565b5f8281526001602052604090206102638282610abb565b50817fece574603820d07bc9b91f2a932baadf4628aabcb8afba49776529c14a6104b2826040516102949190610ba3565b60405180910390a25050565b7f2145e1d6d074577dc71ef54c3807742b41b053a9352ae6b491331509acb9750f82016102e0576040516385c169bd60e01b815260040160405180910390fd5b7fd0f59754f88971fe6bc5a6618cc9d5f1e859c58d16b22d1c7b2d3e2b246cd8aa820161032057604051630eceab6760e31b815260040160405180910390fd5b7f1fd9e056a24d14c4abc642fcc325992a946906d0dbc57dd70278aaf12842024d820161024c57604051634ef6d7fb60e01b815260040160405180910390fd5b5f61036f600680546001019055565b5060065460408051602081019091525f8152610391908690839060019061049f565b5f818152600760205260409020806103a98982610abb565b5083516006820180546020808801516040808a015160ff96871661ffff199586161761010093881684021763ffff0000199081166201000061ffff9384168102919091179097558a5160078a018054968d0151948d0151918a1696909716959095179290971690920217909416931690910291909117905560058101805486919060ff1916600183600281111561044257610442610bb5565b0217905550600881016104558882610abb565b506040516001600160a01b038716815282907fa6912c28a8cb5fc5cab504e471cfa6bc504444025484d810e2565bc7dead66579060200160405180910390a2509695505050505050565b6001600160a01b0384166104c6576040516324ecef4d60e01b815260040160405180910390fd5b5f838152600360205260409020546001600160a01b031615610503576040516334c7b51160e01b8152600481018490526024015b60405180910390fd5b5f838152600360205260409020546001600160a01b03161561053b576040516334c7b51160e01b8152600481018490526024016104fa565b60025f815461054990610bc9565b909155506001600160a01b0384165f90815260046020526040902061056e9084610615565b505f8381526003602052604080822080546001600160a01b0319166001600160a01b03881690811790915590518592907fb333c813a7426a7a11e2b190cad52c44119421594b47f6f32ace6d8c7207b2bf906105cf90339088908890610bed565b60405180910390a45f335f8686856040516020016105f1959493929190610c21565b60408051601f19818403018152919052905061060e858483610629565b5050505050565b5f6106208383610737565b90505b92915050565b61063a83631aed5a8560e21b610783565b156106d557604051631aed5a8560e21b81526001600160a01b03841690636bb56a149061068d907f0b084a55ebf70fd3c06fd755269dac2212c4d3f0f4d09079780bfa50c1b2984d908590600401610c5b565b5f604051808303815f875af11580156106a8573d5f5f3e3d5ffd5b505050506040513d5f823e601f3d908101601f191682016040526106cf9190810190610c7b565b50505050565b81610732576001600160a01b0383163b1561070e57604051634349776d60e01b81526001600160a01b03841660048201526024016104fa565b604051630317313760e01b81526001600160a01b03841660048201526024016104fa565b505050565b5f81815260018301602052604081205461077c57508154600181810184555f848152602080822090930184905584548482528286019093526040902091909155610623565b505f610623565b604080516001600160e01b03198316602480830191909152825180830390910181526044909101909152602080820180516001600160e01b03166301ffc9a760e01b17815282515f9392849283928392918391908a617530fa92503d91505f5190508280156107f3575060208210155b80156107fe57505f81115b979650505050505050565b634e487b7160e01b5f52604160045260245ffd5b5f806001600160401b0384111561083657610836610809565b50604051601f19601f85018116603f011681018181106001600160401b038211171561086457610864610809565b60405283815290508082840185101561087b575f5ffd5b8383602083015e5f60208583010152509392505050565b5f82601f8301126108a1575f5ffd5b6106208383516020850161081d565b805160ff811681146108c0575f5ffd5b919050565b5f606082840312156108d5575f5ffd5b604051606081016001600160401b03811182821017156108f7576108f7610809565b604052905080610906836108b0565b8152610914602084016108b0565b6020820152604083015161ffff8116811461092d575f5ffd5b6040919091015292915050565b80516001600160a01b03811681146108c0575f5ffd5b5f5f5f5f5f5f5f610160888a031215610967575f5ffd5b87516001600160401b0381111561097c575f5ffd5b6109888a828b01610892565b60208a015190985090506001600160401b038111156109a5575f5ffd5b6109b18a828b01610892565b60408a015190975090506001600160401b038111156109ce575f5ffd5b6109da8a828b01610892565b60608a015190965090506001600160401b038111156109f7575f5ffd5b610a038a828b01610892565b945050610a138960808a016108c5565b9250610a228960e08a016108c5565b9150610a31610140890161093a565b905092959891949750929550565b600181811c90821680610a5357607f821691505b602082108103610a7157634e487b7160e01b5f52602260045260245ffd5b50919050565b601f82111561073257805f5260205f20601f840160051c81016020851015610a9c5750805b601f840160051c820191505b8181101561060e575f8155600101610aa8565b81516001600160401b03811115610ad457610ad4610809565b610ae881610ae28454610a3f565b84610a77565b6020601f821160018114610b1a575f8315610b035750848201515b5f19600385901b1c1916600184901b17845561060e565b5f84815260208120601f198516915b82811015610b495787850151825560209485019460019092019101610b29565b5084821015610b6657868401515f19600387901b60f8161c191681555b50505050600190811b01905550565b5f81518084528060208401602086015e5f602082860101526020601f19601f83011685010191505092915050565b602081525f6106206020830184610b75565b634e487b7160e01b5f52602160045260245ffd5b5f60018201610be657634e487b7160e01b5f52601160045260245ffd5b5060010190565b6001600160a01b038416815282151560208201526060604082018190525f90610c1890830184610b75565b95945050505050565b6001600160a01b0386811682528581166020830152841660408201526060810183905260a0608082018190525f906107fe90830184610b75565b828152604060208201525f610c736040830184610b75565b949350505050565b5f60208284031215610c8b575f5ffd5b81516001600160401b03811115610ca0575f5ffd5b8201601f81018413610cb0575f5ffd5b610c738482516020840161081d565b613c0680610ccc5f395ff3fe6080604052600436106101fc575f3560e01c80637e87632c1161010c578063a07e80c61161009f578063db8c96631161006e578063db8c966314610658578063dedff9c614610677578063e4ac8dbd14610696578063eb445de4146106aa578063f2fde38b146106c957610255565b8063a07e80c6146105cf578063a3b261f2146105ee578063be9f0e6f1461061a578063d6c1407c1461063957610255565b80638da5cb5b116100db5780638da5cb5b146105555780638f81ecfc1461057157806392b88f061461059057806397902421146105bc57610255565b80637e87632c146104e55780637e913b05146105045780637f23690c1461052357806386a10ddd1461053657610255565b80632a3654a41161018f578063598147561161015e578063598147561461045e5780636963d4381461047d57806370a082311461049c578063715018a6146104bb57806378495bf8146104cf57610255565b80632a3654a4146103d557806349a6078d146103f4578063511b69521461042057806354f6127f1461043f57610255565b806318160ddd116101cb57806318160ddd146103355780631d26fce6146103535780631f1217081461037f578063217b2270146103b657610255565b806301ffc9a71461029557806302154b4e146102c95780630cfa4650146102ea57806316e023b31461030957610255565b3661025557345f0361023c5760405163e5099ee360e01b81526004016102339060208082526004908201525f604082015260600190565b60405180910390fd5b6040516330fa4a2160e11b815260040160405180910390fd5b5f366060600482101561027f57828260405163e5099ee360e01b8152600401610233929190612ba9565b61028983836106e8565b80519350602001915050f35b3480156102a0575f5ffd5b506102b46102af366004612bd7565b6107d7565b60405190151581526020015b60405180910390f35b3480156102d4575f5ffd5b506102e86102e3366004612c19565b61080a565b005b3480156102f5575f5ffd5b506102e8610304366004612cf0565b61085d565b348015610314575f5ffd5b50610328610323366004612d21565b6108aa565b6040516102c09190612d6f565b348015610340575f5ffd5b506002545b6040519081526020016102c0565b34801561035e575f5ffd5b5061037261036d366004612e08565b6108bd565b6040516102c09190612e6b565b34801561038a575f5ffd5b5060085461039e906001600160a01b031681565b6040516001600160a01b0390911681526020016102c0565b3480156103c1575f5ffd5b5061039e6103d0366004612ece565b6109a3565b3480156103e0575f5ffd5b506102b46103ef366004612ee5565b6109db565b3480156103ff575f5ffd5b5061041361040e366004612ece565b6109e6565b6040516102c09190612f0d565b34801561042b575f5ffd5b506102e861043a366004612f67565b610a07565b34801561044a575f5ffd5b50610328610459366004612ece565b610a4b565b348015610469575f5ffd5b506102e861047836600461305f565b610a56565b348015610488575f5ffd5b506103726104973660046130ee565b610b0b565b3480156104a7575f5ffd5b506103456104b6366004612c19565b610c35565b3480156104c6575f5ffd5b506102e8610c55565b3480156104da575f5ffd5b506006546103459081565b3480156104f0575f5ffd5b506102e86104ff36600461329f565b610c68565b34801561050f575f5ffd5b506102e861051e366004612d21565b610d56565b6102e8610531366004613370565b610edf565b348015610541575f5ffd5b506102e86105503660046133a9565b610f14565b348015610560575f5ffd5b505f546001600160a01b031661039e565b34801561057c575f5ffd5b506102e861058b366004612d21565b61108b565b34801561059b575f5ffd5b506105af6105aa366004612ece565b611270565b6040516102c09190613469565b6102e86105ca36600461356c565b611517565b3480156105da575f5ffd5b506102e86105e936600461305f565b611548565b3480156105f9575f5ffd5b5061060d610608366004612c19565b611664565b6040516102c091906135c5565b348015610625575f5ffd5b506102e86106343660046135d7565b611687565b348015610644575f5ffd5b506102e8610653366004613658565b61174a565b348015610663575f5ffd5b506102e861067236600461368d565b61179e565b348015610682575f5ffd5b506103726106913660046136f0565b61187f565b3480156106a1575f5ffd5b50610328611928565b3480156106b5575f5ffd5b506102e86106c4366004613721565b6119b4565b3480156106d4575f5ffd5b506102e86106e3366004612c19565b611a7f565b60605f6106ff5f356001600160e01b031916611aec565b5090506001600160a01b0381166107365760405163bb370b2b60e01b81526001600160e01b03195f35166004820152602401610233565b5f5f826001600160a01b0316348787333460405160200161075a94939291906137c4565b60408051601f1981840301815290829052610774916137ef565b5f6040518083038185875af1925050503d805f81146107ae576040519150601f19603f3d011682016040523d82523d5f602084013e6107b3565b606091505b509150915081156107c85792506107d1915050565b80518060208301fd5b92915050565b5f6001600160e01b03198216631d138b8360e11b14806107fb57506107fb82611b68565b806107d157506107d182611b8c565b6008546001600160a01b031633146108515760405162461bcd60e51b815260206004820152600a602482015269139bdd081c195c9b5a5d60b21b6044820152606401610233565b61085a81611bc1565b50565b610865611c10565b6009610871828261387b565b505f80546040516001600160a01b03909116917f52dfe4fd4c28a03cd8ab0af4995f1caf006268a90c0e57cbd291d33f358fbc2f91a250565b60606108b68383611c69565b9392505050565b606081518351146108e1576040516317d38eff60e11b815260040160405180910390fd5b82516001600160401b038111156108fa576108fa612c32565b60405190808252806020026020018201604052801561092d57816020015b60608152602001906001900390816109185790505b5090505f5b835181101561099c5761097784828151811061095057610950613935565b602002602001015184838151811061096a5761096a613935565b6020026020010151611c69565b82828151811061098957610989613935565b6020908102919091010152600101610932565b5092915050565b5f818152600360205260408120546001600160a01b0316806107d157604051635747cd1b60e11b815260048101849052602401610233565b5f6108b68383611d3c565b60606109f182611d77565b5f8281526005602052604090206107d190611dae565b610a113384611d3c565b610a3757604051631294d2a960e01b815260048101849052336024820152604401610233565b610a448585858585611dba565b5050505050565b60606107d182611f96565b845f610a61826109a3565b9050336001600160a01b0382161480610a8357505f546001600160a01b031633145b610a9f5760405162461bcd60e51b815260040161023390613949565b5f610aaf87873360018989612035565b5f81815260076020908152604080832060040180546001810182559084529183209091018390555191925082918a917fca4757636f927657c127875c4f0c0ec6e1f84d4769348f20fff39486a4bb2c3f91a35050505050505050565b6060816001600160401b03811115610b2557610b25612c32565b604051908082528060200260200182016040528015610b5857816020015b6060815260200190600190039081610b435790505b5090505f5b8281101561099c575f8030868685818110610b7a57610b7a613935565b9050602002810190610b8c9190613971565b604051610b9a9291906139ba565b5f60405180830381855af49150503d805f8114610bd2576040519150601f19603f3d011682016040523d82523d5f602084013e610bd7565b606091505b509150915081610c0d57805115610bf15780518082602001fd5b60405163234eb81960e01b815260048101849052602401610233565b80848481518110610c2057610c20613935565b60209081029190910101525050600101610b5d565b6001600160a01b0381165f9081526004602052604081206107d190612174565b610c5d611c10565b610c665f611bc1565b565b8451845181141580610c7b575083518114155b80610c87575082518114155b80610c93575081518114155b15610cb1576040516393a8311960e01b815260040160405180910390fd5b5f5b81811015610d4d57610d45878281518110610cd057610cd0613935565b6020026020010151878381518110610cea57610cea613935565b6020026020010151878481518110610d0457610d04613935565b6020026020010151878581518110610d1e57610d1e613935565b6020026020010151878681518110610d3857610d38613935565b6020026020010151610a07565b600101610cb3565b50505050505050565b815f610d61826109a3565b9050336001600160a01b0382161480610d8357505f546001600160a01b031633145b610d9f5760405162461bcd60e51b815260040161023390613949565b5f848152600760205260408120905b6004820154811015610e9d5784826004018281548110610dd057610dd0613935565b905f5260205f20015403610e955760048201545f90610df1906001906139dd565b9050808214610e3957826004018181548110610e0f57610e0f613935565b905f5260205f200154836004018381548110610e2d57610e2d613935565b5f918252602090912001555b82600401805480610e4c57610e4c6139f0565b600190038181905f5260205f20015f9055905585877ff1387b2f8963ca7947c75faa29a4c7de0859d44c5f9a658761acbdc5d539976b60405160405180910390a3505050610ed9565b600101610dae565b5060405162461bcd60e51b815260206004820152601060248201526f14dc1bdd5cd9481b9bdd08199bdd5b9960821b6044820152606401610233565b50505050565b610ee7611c10565b3415610f065760405163f36ba73760e01b815260040160405180910390fd5b610f10828261217d565b5050565b5f610f1e836109a3565b90506001600160a01b0381163314610f6157604051632d938f5160e11b81526001600160a01b038216600482015260248101849052336044820152606401610233565b6001600160a01b038416610f8857604051639577b8b360e01b815260040160405180910390fd5b836001600160a01b0316816001600160a01b031603610fba576040516344fed6b160e11b815260040160405180910390fd5b5f838152600560205260408120610fd190866121c7565b905080611003576040516314ec4d6d60e31b81526001600160a01b038616600482015260248101859052604401610233565b83826001600160a01b0316866001600160a01b03167f1b1b58aa2ec0cec2228b2d37124556d41f5a1f7b12f089171f896cc236671215866040516110479190612d6f565b60405180910390a45f33856001866040516020016110689493929190613a04565b604051602081830303815290604052905061108386826121db565b505050505050565b815f611096826109a3565b9050336001600160a01b03821614806110b857505f546001600160a01b031633145b6110d45760405162461bcd60e51b815260040161023390613949565b5f8481526007602052604080822085835291206001810154861461113a5760405162461bcd60e51b815260206004820152601860248201527f4e6f74206368696c64206f66207468697320706572736f6e00000000000000006044820152606401610233565b5f5b6003830154811015611235578583600301828154811061115e5761115e613935565b905f5260205f2001540361122d5760038301545f9061117f906001906139dd565b90508082146111c75783600301818154811061119d5761119d613935565b905f5260205f2001548460030183815481106111bb576111bb613935565b5f918252602090912001555b836003018054806111da576111da6139f0565b5f8281526020812082015f199081018290559091019091556001840181905560405188918a917fd22ef99c12aeaecac27f6067207b23ac6a9ae5f21e97134b39e98320aa04fa5d9190a350505050610ed9565b60010161113c565b5060405162461bcd60e51b815260206004820152600f60248201526e10da1a5b19081b9bdd08199bdd5b99608a1b6044820152606401610233565b611278612b25565b5f8281526007602052604090819020815161012081019092528054829082906112a090613805565b80601f01602080910402602001604051908101604052809291908181526020018280546112cc90613805565b80156113175780601f106112ee57610100808354040283529160200191611317565b820191905f5260205f20905b8154815290600101906020018083116112fa57829003601f168201915b5050505050815260200160018201548152602001600282015481526020016003820180548060200260200160405190810160405280929190818152602001828054801561138157602002820191905f5260205f20905b81548152602001906001019080831161136d575b50505050508152602001600482018054806020026020016040519081016040528092919081815260200182805480156113d757602002820191905f5260205f20905b8154815260200190600101908083116113c3575b5050509183525050600582015460209091019060ff1660028111156113fe576113fe613435565b600281111561140f5761140f613435565b81526040805160608082018352600685015460ff8082168452610100808304821660208681019190915261ffff6201000094859004811687890152818901969096528651808601885260078a015480851682529283049093169083015291909104909216828401529183015260088301805491909201919061149090613805565b80601f01602080910402602001604051908101604052809291908181526020018280546114bc90613805565b80156115075780601f106114de57610100808354040283529160200191611507565b820191905f5260205f20905b8154815290600101906020018083116114ea57829003601f168201915b5050505050815250509050919050565b61151f611c10565b341561153e5760405163f36ba73760e01b815260040160405180910390fd5b610f108282612206565b845f611553826109a3565b9050336001600160a01b038216148061157557505f546001600160a01b031633145b6115915760405162461bcd60e51b815260040161023390613949565b5f878152600760205260409020806115a9888261387b565b5084516006820180546020808901516040808b015160ff96871661ffff199586161761010093881684021763ffff0000199081166201000061ffff9384168102919091179097558b5160078a018054968e0151948e0151918a169690971695909517929097169092021790941693169091029190911790556008810161162f878261387b565b5060405188907f088b778b9aa1c8317c051d681d7e71c9f3e40c539fbaf5cadfd37476c1b15dec905f90a25050505050505050565b6001600160a01b0381165f9081526004602052604090206060906107d190611dae565b61168f611c10565b815183511415806116a257508051825114155b156116c0576040516317d38eff60e11b815260040160405180910390fd5b82515f036116e1576040516380c9830560e01b815260040160405180910390fd5b5f5b8351811015610ed95761174284828151811061170157611701613935565b602002602001015184838151811061171b5761171b613935565b602002602001015184848151811061173557611735613935565b602002602001015161229d565b6001016116e3565b825f611755826109a3565b9050336001600160a01b038216148061177757505f546001600160a01b031633145b6117935760405162461bcd60e51b815260040161023390613949565b610a4485858561229d565b5f6117a8846109a3565b9050336001600160a01b038216146117fb576001600160a01b03851633146117fb5760405163760b5acd60e01b81523360048201526001600160a01b038216602482015260448101859052606401610233565b6001600160a01b03851661182257604051639577b8b360e01b815260040160405180910390fd5b846001600160a01b0316816001600160a01b031603611854576040516344fed6b160e11b815260040160405180910390fd5b611861858286868661232b565b8215610a44575f81855f856040516020016110689493929190613a04565b606081516001600160401b0381111561189a5761189a612c32565b6040519080825280602002602001820160405280156118cd57816020015b60608152602001906001900390816118b85790505b5090505f5b8251811015611922576118fd8382815181106118f0576118f0613935565b6020026020010151611f96565b82828151811061190f5761190f613935565b60209081029190910101526001016118d2565b50919050565b6009805461193590613805565b80601f016020809104026020016040519081016040528092919081815260200182805461196190613805565b80156119ac5780601f10611983576101008083540402835291602001916119ac565b820191905f5260205f20905b81548152906001019060200180831161198f57829003601f168201915b505050505081565b855f6119bf826109a3565b9050336001600160a01b03821614806119e157505f546001600160a01b031633145b6119fd5760405162461bcd60e51b815260040161023390613949565b5f88815260076020526040812090611a198989338a8a8a612035565b600383018054600181810183555f9283526020808420909201849055838352600790915260408083209091018d90555191925082918c917f95afc0d374f4e4b0d262be4433e573b5862c9fb50c22ee6438a313040f5487cc91a350505050505050505050565b611a87611c10565b6001600160a01b0381166108515760405162461bcd60e51b815260206004820152602660248201527f4f776e61626c653a206e6577206f776e657220697320746865207a65726f206160448201526564647265737360d01b6064820152608401610233565b5f8080611b10696773c5a04a6d4300884b60b11b6001600160e01b031986166123ca565b90505f611b1c82611f96565b90508051601414158015611b305750805115155b15611b5057806040516342bfe79f60e01b81526004016102339190612d6f565b611b5981613a3c565b60601c95600195509350505050565b5f6001600160e01b0319821663a918fa6b60e01b14806107d157506107d18261241d565b5f80611b9e6301ffc9a760e01b611aec565b5090506001600160a01b038116611bb757505f92915050565b6108b68184612451565b5f80546001600160a01b038381166001600160a01b0319831681178455604051919092169283917f8be0079c531659141344cd1fd0a4f28419497f9722a3daafe3b4186f6b6457e09190a35050565b5f546001600160a01b03163314610c665760405162461bcd60e51b815260206004820181905260248201527f4f776e61626c653a2063616c6c6572206973206e6f7420746865206f776e65726044820152606401610233565b606060015f8484604051602001611c8a929190918252602082015260400190565b6040516020818303038152906040528051906020012081526020019081526020015f208054611cb890613805565b80601f0160208091040260200160405190810160405280929190818152602001828054611ce490613805565b8015611d2f5780601f10611d0657610100808354040283529160200191611d2f565b820191905f5260205f20905b815481529060010190602001808311611d1257829003601f168201915b5050505050905092915050565b5f611d46826109a3565b6001600160a01b0316836001600160a01b031614806108b657505f8281526005602052604090206108b690846124d7565b5f818152600360205260409020546001600160a01b031661085a57604051635747cd1b60e11b815260048101829052602401610233565b60605f6108b6836124f8565b5f611dc4846109a3565b9050856001600160a01b0316816001600160a01b031614611e1257604051632d938f5160e11b81526001600160a01b0380831660048301526024820186905287166044820152606401610233565b6001600160a01b038516611e39576040516324ecef4d60e01b815260040160405180910390fd5b5f611e43856109a3565b9050806001600160a01b0316826001600160a01b031614611e9157604051635a9c31d360e01b8152600481018690526001600160a01b03808416602483015282166044820152606401610233565b611e9b8786612550565b6001600160a01b0387165f908152600460205260409020611ebc90866125a3565b506001600160a01b0386165f908152600460205260409020611ede90866125ae565b505f858152600360205260409081902080546001600160a01b0319166001600160a01b0389811691821790925591518792918a16907fb333c813a7426a7a11e2b190cad52c44119421594b47f6f32ace6d8c7207b2bf90611f449033908a908a90613a8a565b60405180910390a45f3388888887604051602001611f66959493929190613ab5565b6040516020818303038152906040529050611f8188826125b9565b611f8c8786836125e4565b5050505050505050565b5f818152600160205260409020805460609190611fb290613805565b80601f0160208091040260200160405190810160405280929190818152602001828054611fde90613805565b80156120295780601f1061200057610100808354040283529160200191612029565b820191905f5260205f20905b81548152906001019060200180831161200c57829003601f168201915b50505050509050919050565b5f612044600680546001019055565b6006545f1b90506120668582600160405180602001604052805f8152506126e7565b5f8181526007602052604090208061207e898261387b565b5083516006820180546020808801516040808a015160ff96871661ffff199586161761010093881684021763ffff0000199081166201000061ffff9384168102919091179097558a5160078a018054968d0151948d0151918a1696909716959095179290971690920217909416931690910291909117905560058101805486919060ff1916600183600281111561211757612117613435565b02179055506008810161212a888261387b565b506040516001600160a01b038716815282907fa6912c28a8cb5fc5cab504e471cfa6bc504444025484d810e2565bc7dead66579060200160405180910390a2509695505050505050565b5f6107d1825490565b7f098a16c9e50e3e99b3e797305c146898d294e5aec55a47e213cb3611ccf17e7382016121bd57604051631b32400560e11b815260040160405180910390fd5b610f108282612850565b5f6108b6836001600160a01b038416612964565b610f10827f8a1c15a8799f71b547e08e2bcb2e85257e81b0a07eee2ce6712549eef1f00970836129b0565b805182511461222857604051633bcc897960e01b815260040160405180910390fd5b81515f03612249576040516397da5f9560e01b815260040160405180910390fd5b5f5b82518110156122985761229083828151811061226957612269613935565b602002602001015183838151811061228357612283613935565b602002602001015161217d565b60010161224b565b505050565b8060015f85856040516020016122bd929190918252602082015260400190565b6040516020818303038152906040528051906020012081526020019081526020015f2090816122ec919061387b565b5081837fa6e4251f855f750545fe414f120db91c76b88def14d120969e5bb2d3f05debbb8360405161231e9190612d6f565b60405180910390a3505050565b5f83815260056020526040812061234290876129fd565b905080612374576040516312a8c6a360e21b81526001600160a01b038716600482015260248101859052604401610233565b83856001600160a01b0316876001600160a01b03167fc78cd419d6136f9f1c1c6aec1d3fae098cffaf8bc86314a8f2685e32fe574e3c86866040516123ba929190613aef565b60405180910390a4505050505050565b604080516001600160b01b0319841660208201525f602a82018190526001600160601b03198416602c8301529182910160405160208183030381529060405290508061241590613b09565b949350505050565b5f6001600160e01b031982166318a6a9a560e21b14806107d157506301ffc9a760e01b6001600160e01b03198316146107d1565b604080516001600160e01b03198316602480830191909152825180830390910181526044909101909152602080820180516001600160e01b03166301ffc9a760e01b17815282515f9392849283928392918391908a617530fa92503d91505f5190508280156124c1575060208210155b80156124cc57505f81115b979650505050505050565b6001600160a01b0381165f90815260018301602052604081205415156108b6565b6060815f0180548060200260200160405190810160405280929190818152602001828054801561202957602002820191905f5260205f20905b8154815260200190600101908083116125315750505050509050919050565b5f8181526005602052604081209061256782612174565b90505f5f5b828110156110835761257e845f612a11565b915061259b8287875f60405180602001604052805f81525061232b565b60010161256c565b5f6108b68383612a1c565b5f6108b68383612964565b610f10827fb23eae7e6d1564b295b4c3e3be402d9a2f0776c57bdf365903496f6fa481ab00836129b0565b6125f583631aed5a8560e21b612451565b1561268a57604051631aed5a8560e21b81526001600160a01b03841690636bb56a1490612648907f0b084a55ebf70fd3c06fd755269dac2212c4d3f0f4d09079780bfa50c1b2984d908590600401613b2c565b5f604051808303815f875af1158015612663573d5f5f3e3d5ffd5b505050506040513d5f823e601f3d908101601f19168201604052610ed99190810190613b44565b81612298576001600160a01b0383163b156126c357604051634349776d60e01b81526001600160a01b0384166004820152602401610233565b604051630317313760e01b81526001600160a01b0384166004820152602401610233565b6001600160a01b03841661270e576040516324ecef4d60e01b815260040160405180910390fd5b5f838152600360205260409020546001600160a01b031615612746576040516334c7b51160e01b815260048101849052602401610233565b5f838152600360205260409020546001600160a01b03161561277e576040516334c7b51160e01b815260048101849052602401610233565b60025f815461278c90613bb8565b909155506001600160a01b0384165f9081526004602052604090206127b190846125ae565b505f8381526003602052604080822080546001600160a01b0319166001600160a01b03881690811790915590518592907fb333c813a7426a7a11e2b190cad52c44119421594b47f6f32ace6d8c7207b2bf9061281290339088908890613a8a565b60405180910390a45f335f868685604051602001612834959493929190613ab5565b6040516020818303038152906040529050610a448584836125e4565b7f2145e1d6d074577dc71ef54c3807742b41b053a9352ae6b491331509acb9750f8201612890576040516385c169bd60e01b815260040160405180910390fd5b7fd0f59754f88971fe6bc5a6618cc9d5f1e859c58d16b22d1c7b2d3e2b246cd8aa82016128d057604051630eceab6760e31b815260040160405180910390fd5b7f1fd9e056a24d14c4abc642fcc325992a946906d0dbc57dd70278aaf12842024d820161291057604051634ef6d7fb60e01b815260040160405180910390fd5b5f828152600160205260409020612927828261387b565b50817fece574603820d07bc9b91f2a932baadf4628aabcb8afba49776529c14a6104b2826040516129589190612d6f565b60405180910390a25050565b5f8181526001830160205260408120546129a957508154600181810184555f8481526020808220909301849055845484825282860190935260409020919091556107d1565b505f6107d1565b6129ca6001600160a01b038416631aed5a8560e21b612451565b1561229857604051631aed5a8560e21b81526001600160a01b03841690636bb56a14906126489085908590600401613b2c565b5f6108b6836001600160a01b038416612a1c565b5f6108b68383612aff565b5f8181526001830160205260408120548015612af6575f612a3e6001836139dd565b85549091505f90612a51906001906139dd565b9050818114612ab0575f865f018281548110612a6f57612a6f613935565b905f5260205f200154905080875f018481548110612a8f57612a8f613935565b5f918252602080832090910192909255918252600188019052604090208390555b8554869080612ac157612ac16139f0565b600190038181905f5260205f20015f90559055856001015f8681526020019081526020015f205f9055600193505050506107d1565b5f9150506107d1565b5f825f018281548110612b1457612b14613935565b905f5260205f200154905092915050565b604051806101200160405280606081526020015f81526020015f815260200160608152602001606081526020015f6002811115612b6457612b64613435565b815260408051606080820183525f8083526020808401829052838501829052808601939093528351808301855281815292830181905282840152918301529081015290565b60208152816020820152818360408301375f818301604090810191909152601f909201601f19160101919050565b5f60208284031215612be7575f5ffd5b81356001600160e01b0319811681146108b6575f5ffd5b80356001600160a01b0381168114612c14575f5ffd5b919050565b5f60208284031215612c29575f5ffd5b6108b682612bfe565b634e487b7160e01b5f52604160045260245ffd5b604051601f8201601f191681016001600160401b0381118282101715612c6e57612c6e612c32565b604052919050565b5f6001600160401b03821115612c8e57612c8e612c32565b50601f01601f191660200190565b5f82601f830112612cab575f5ffd5b8135602083015f612cc3612cbe84612c76565b612c46565b9050828152858383011115612cd6575f5ffd5b828260208301375f92810160200192909252509392505050565b5f60208284031215612d00575f5ffd5b81356001600160401b03811115612d15575f5ffd5b61241584828501612c9c565b5f5f60408385031215612d32575f5ffd5b50508035926020909101359150565b5f81518084528060208401602086015e5f602082860101526020601f19601f83011685010191505092915050565b602081525f6108b66020830184612d41565b5f6001600160401b03821115612d9957612d99612c32565b5060051b60200190565b5f82601f830112612db2575f5ffd5b8135612dc0612cbe82612d81565b8082825260208201915060208360051b860101925085831115612de1575f5ffd5b602085015b83811015612dfe578035835260209283019201612de6565b5095945050505050565b5f5f60408385031215612e19575f5ffd5b82356001600160401b03811115612e2e575f5ffd5b612e3a85828601612da3565b92505060208301356001600160401b03811115612e55575f5ffd5b612e6185828601612da3565b9150509250929050565b5f602082016020835280845180835260408501915060408160051b8601019250602086015f5b82811015612ec257603f19878603018452612ead858351612d41565b94506020938401939190910190600101612e91565b50929695505050505050565b5f60208284031215612ede575f5ffd5b5035919050565b5f5f60408385031215612ef6575f5ffd5b612eff83612bfe565b946020939093013593505050565b602080825282518282018190525f918401906040840190835b81811015612f4d5783516001600160a01b0316835260209384019390920191600101612f26565b509095945050505050565b80358015158114612c14575f5ffd5b5f5f5f5f5f60a08688031215612f7b575f5ffd5b612f8486612bfe565b9450612f9260208701612bfe565b935060408601359250612fa760608701612f58565b915060808601356001600160401b03811115612fc1575f5ffd5b612fcd88828901612c9c565b9150509295509295909350565b803560ff81168114612c14575f5ffd5b5f60608284031215612ffa575f5ffd5b604051606081016001600160401b038111828210171561301c5761301c612c32565b60405290508061302b83612fda565b815261303960208401612fda565b6020820152604083013561ffff81168114613052575f5ffd5b6040919091015292915050565b5f5f5f5f5f6101208688031215613074575f5ffd5b8535945060208601356001600160401b03811115613090575f5ffd5b61309c88828901612c9c565b94505060408601356001600160401b038111156130b7575f5ffd5b6130c388828901612c9c565b9350506130d38760608801612fea565b91506130e28760c08801612fea565b90509295509295909350565b5f5f602083850312156130ff575f5ffd5b82356001600160401b03811115613114575f5ffd5b8301601f81018513613124575f5ffd5b80356001600160401b03811115613139575f5ffd5b8560208260051b840101111561314d575f5ffd5b6020919091019590945092505050565b5f82601f83011261316c575f5ffd5b813561317a612cbe82612d81565b8082825260208201915060208360051b86010192508583111561319b575f5ffd5b602085015b83811015612dfe576131b181612bfe565b8352602092830192016131a0565b5f82601f8301126131ce575f5ffd5b81356131dc612cbe82612d81565b8082825260208201915060208360051b8601019250858311156131fd575f5ffd5b602085015b83811015612dfe5761321381612f58565b835260209283019201613202565b5f82601f830112613230575f5ffd5b813561323e612cbe82612d81565b8082825260208201915060208360051b86010192508583111561325f575f5ffd5b602085015b83811015612dfe5780356001600160401b03811115613281575f5ffd5b613290886020838a0101612c9c565b84525060209283019201613264565b5f5f5f5f5f60a086880312156132b3575f5ffd5b85356001600160401b038111156132c8575f5ffd5b6132d48882890161315d565b95505060208601356001600160401b038111156132ef575f5ffd5b6132fb8882890161315d565b94505060408601356001600160401b03811115613316575f5ffd5b61332288828901612da3565b93505060608601356001600160401b0381111561333d575f5ffd5b613349888289016131bf565b92505060808601356001600160401b03811115613364575f5ffd5b612fcd88828901613221565b5f5f60408385031215613381575f5ffd5b8235915060208301356001600160401b0381111561339d575f5ffd5b612e6185828601612c9c565b5f5f5f606084860312156133bb575f5ffd5b6133c484612bfe565b92506020840135915060408401356001600160401b038111156133e5575f5ffd5b6133f186828701612c9c565b9150509250925092565b5f8151808452602084019350602083015f5b8281101561342b57815186526020958601959091019060010161340d565b5093949350505050565b634e487b7160e01b5f52602160045260245ffd5b6003811061346557634e487b7160e01b5f52602160045260245ffd5b9052565b602081525f82516101a060208401526134866101c0840182612d41565b905060208401516040840152604084015160608401526060840151601f198483030160808501526134b782826133fb565b9150506080840151601f198483030160a08501526134d582826133fb565b91505060a08401516134ea60c0850182613449565b5060c0840151805160ff90811660e0860152602082015116610100850152604081015161ffff166101208501525060e0840151805160ff908116610140860152602082015116610160850152604081015161ffff1661018085015250610100840151838203601f19016101a08501526135638282612d41565b95945050505050565b5f5f6040838503121561357d575f5ffd5b82356001600160401b03811115613592575f5ffd5b61359e85828601612da3565b92505060208301356001600160401b038111156135b9575f5ffd5b612e6185828601613221565b602081525f6108b660208301846133fb565b5f5f5f606084860312156135e9575f5ffd5b83356001600160401b038111156135fe575f5ffd5b61360a86828701612da3565b93505060208401356001600160401b03811115613625575f5ffd5b61363186828701612da3565b92505060408401356001600160401b0381111561364c575f5ffd5b6133f186828701613221565b5f5f5f6060848603121561366a575f5ffd5b833592506020840135915060408401356001600160401b038111156133e5575f5ffd5b5f5f5f5f608085870312156136a0575f5ffd5b6136a985612bfe565b9350602085013592506136be60408601612f58565b915060608501356001600160401b038111156136d8575f5ffd5b6136e487828801612c9c565b91505092959194509250565b5f60208284031215613700575f5ffd5b81356001600160401b03811115613715575f5ffd5b61241584828501612da3565b5f5f5f5f5f5f6101408789031215613737575f5ffd5b8635955060208701356001600160401b03811115613753575f5ffd5b61375f89828a01612c9c565b95505060408701356001600160401b0381111561377a575f5ffd5b61378689828a01612c9c565b94505060608701356003811061379a575f5ffd5b92506137a98860808901612fea565b91506137b88860e08901612fea565b90509295509295509295565b8385823760609290921b6001600160601b031916919092019081526014810191909152603401919050565b5f82518060208501845e5f920191825250919050565b600181811c9082168061381957607f821691505b60208210810361192257634e487b7160e01b5f52602260045260245ffd5b601f82111561229857805f5260205f20601f840160051c8101602085101561385c5750805b601f840160051c820191505b81811015610a44575f8155600101613868565b81516001600160401b0381111561389457613894612c32565b6138a8816138a28454613805565b84613837565b6020601f8211600181146138da575f83156138c35750848201515b5f19600385901b1c1916600184901b178455610a44565b5f84815260208120601f198516915b8281101561390957878501518255602094850194600190920191016138e9565b508482101561392657868401515f19600387901b60f8161c191681555b50505050600190811b01905550565b634e487b7160e01b5f52603260045260245ffd5b6020808252600e908201526d139bdd08185d5d1a1bdc9a5e995960921b604082015260600190565b5f5f8335601e19843603018112613986575f5ffd5b8301803591506001600160401b0382111561399f575f5ffd5b6020019150368190038213156139b3575f5ffd5b9250929050565b818382375f9101908152919050565b634e487b7160e01b5f52601160045260245ffd5b818103818111156107d1576107d16139c9565b634e487b7160e01b5f52603160045260245ffd5b60018060a01b03851681528360208201528215156040820152608060608201525f613a326080830184612d41565b9695505050505050565b805160208201516001600160601b0319811691906014821015613a83576bffffffffffffffffffffffff196bffffffffffffffffffffffff198360140360031b1b82161692505b5050919050565b6001600160a01b038416815282151560208201526060604082018190525f9061356390830184612d41565b6001600160a01b0386811682528581166020830152841660408201526060810183905260a0608082018190525f906124cc90830184612d41565b8215158152604060208201525f6124156040830184612d41565b80516020808301519190811015611922575f1960209190910360031b1b16919050565b828152604060208201525f6124156040830184612d41565b5f60208284031215613b54575f5ffd5b81516001600160401b03811115613b69575f5ffd5b8201601f81018413613b79575f5ffd5b8051613b87612cbe82612c76565b818152856020838501011115613b9b575f5ffd5b8160208401602083015e5f91810160200191909152949350505050565b5f60018201613bc957613bc96139c9565b506001019056fea264697066735822122049eddc7ba52547b2c32c2a8db722a5a72495a2663bb34703569b0a426f32bed964736f6c634300081f0033",
			"opcodes": "PUSH1 0x80 PUSH1 0x40 MSTORE CALLVALUE DUP1 ISZERO PUSH2 0xF JUMPI PUSH0 PUSH0 REVERT JUMPDEST POP PUSH1 0x40 MLOAD PUSH2 0x48D2 CODESIZE SUB DUP1 PUSH2 0x48D2 DUP4 CODECOPY DUP2 ADD PUSH1 0x40 DUP2 SWAP1 MSTORE PUSH2 0x2E SWAP2 PUSH2 0x950 JUMP JUMPDEST PUSH1 0x40 DUP1 MLOAD DUP1 DUP3 ADD SWAP1 SWAP2 MSTORE PUSH1 0x6 DUP2 MSTORE PUSH6 0x46414D494C59 PUSH1 0xD0 SHL PUSH1 0x20 DUP3 ADD MSTORE DUP8 SWAP1 DUP3 PUSH1 0x2 PUSH0 DUP5 DUP5 DUP5 DUP5 DUP2 PUSH2 0x5F CALLER PUSH2 0x1FD JUMP JUMPDEST PUSH1 0x1 PUSH1 0x1 PUSH1 0xA0 SHL SUB DUP2 AND PUSH2 0x86 JUMPI PUSH1 0x40 MLOAD PUSH4 0x6B620DB PUSH1 0xE2 SHL DUP2 MSTORE PUSH1 0x4 ADD PUSH1 0x40 MLOAD DUP1 SWAP2 SUB SWAP1 REVERT JUMPDEST PUSH2 0x8F DUP2 PUSH2 0x1FD JUMP JUMPDEST POP PUSH1 0x40 DUP1 MLOAD DUP1 DUP3 ADD SWAP1 SWAP2 MSTORE PUSH1 0x4 DUP2 MSTORE PUSH4 0x29365989 PUSH1 0xE2 SHL PUSH1 0x20 DUP3 ADD MSTORE PUSH2 0xD6 SWAP1 PUSH32 0xEAFEC4D89FA9619884B60000A4D96624A38F7AC2D8D9A604ECF07C12C77E480C SWAP1 PUSH2 0x24C JUMP JUMPDEST PUSH2 0x100 PUSH32 0xDEBA1E292F8BA88238E10AB3C7F88BD4BE4FAC56CAD5194B6ECCEAF653468AF1 DUP6 PUSH2 0x24C JUMP JUMPDEST PUSH2 0x12A PUSH32 0x2F0A68AB07768E01943A599E73362A0E17A63A72E94DD2E384D2C1D4DB932756 DUP5 PUSH2 0x24C JUMP JUMPDEST PUSH1 0x40 DUP1 MLOAD PUSH1 0x20 DUP2 ADD DUP4 SWAP1 MSTORE PUSH2 0x171 SWAP2 PUSH32 0xE0261FA95DB2EB3B5439BD033CDA66D56B96F92F243A8228FD87550ED7BDFDB3 SWAP2 ADD PUSH1 0x40 DUP1 MLOAD PUSH1 0x1F NOT DUP2 DUP5 SUB ADD DUP2 MSTORE SWAP2 SWAP1 MSTORE PUSH2 0x24C JUMP JUMPDEST POP POP PUSH1 0x40 DUP1 MLOAD PUSH1 0x20 DUP2 ADD DUP6 SWAP1 MSTORE PUSH2 0x1BC SWAP4 POP PUSH32 0xF675E9361AF1C1664C1868CFA3EB97672D6B1A513AA5B81DEC34C9EE330E818D SWAP3 POP ADD PUSH1 0x40 DUP1 MLOAD PUSH1 0x1F NOT DUP2 DUP5 SUB ADD DUP2 MSTORE SWAP2 SWAP1 MSTORE PUSH2 0x2A0 JUMP JUMPDEST POP POP PUSH1 0x8 DUP1 SLOAD PUSH1 0x1 PUSH1 0x1 PUSH1 0xA0 SHL SUB NOT AND CALLER OR SWAP1 SSTORE POP PUSH1 0x9 SWAP2 POP PUSH2 0x1E1 SWAP1 POP DUP8 DUP3 PUSH2 0xABB JUMP JUMPDEST POP PUSH2 0x1F0 DUP6 DUP6 DUP4 PUSH0 DUP8 DUP8 PUSH2 0x360 JUMP JUMPDEST POP POP POP POP POP POP POP POP PUSH2 0xCBF JUMP JUMPDEST PUSH0 DUP1 SLOAD PUSH1 0x1 PUSH1 0x1 PUSH1 0xA0 SHL SUB DUP4 DUP2 AND PUSH1 0x1 PUSH1 0x1 PUSH1 0xA0 SHL SUB NOT DUP4 AND DUP2 OR DUP5 SSTORE PUSH1 0x40 MLOAD SWAP2 SWAP1 SWAP3 AND SWAP3 DUP4 SWAP2 PUSH32 0x8BE0079C531659141344CD1FD0A4F28419497F9722A3DAAFE3B4186F6B6457E0 SWAP2 SWAP1 LOG3 POP POP JUMP JUMPDEST PUSH0 DUP3 DUP2 MSTORE PUSH1 0x1 PUSH1 0x20 MSTORE PUSH1 0x40 SWAP1 KECCAK256 PUSH2 0x263 DUP3 DUP3 PUSH2 0xABB JUMP JUMPDEST POP DUP2 PUSH32 0xECE574603820D07BC9B91F2A932BAADF4628AABCB8AFBA49776529C14A6104B2 DUP3 PUSH1 0x40 MLOAD PUSH2 0x294 SWAP2 SWAP1 PUSH2 0xBA3 JUMP JUMPDEST PUSH1 0x40 MLOAD DUP1 SWAP2 SUB SWAP1 LOG2 POP POP JUMP JUMPDEST PUSH32 0x2145E1D6D074577DC71EF54C3807742B41B053A9352AE6B491331509ACB9750F DUP3 ADD PUSH2 0x2E0 JUMPI PUSH1 0x40 MLOAD PUSH4 0x85C169BD PUSH1 0xE0 SHL DUP2 MSTORE PUSH1 0x4 ADD PUSH1 0x40 MLOAD DUP1 SWAP2 SUB SWAP1 REVERT JUMPDEST PUSH32 0xD0F59754F88971FE6BC5A6618CC9D5F1E859C58D16B22D1C7B2D3E2B246CD8AA DUP3 ADD PUSH2 0x320 JUMPI PUSH1 0x40 MLOAD PUSH4 0xECEAB67 PUSH1 0xE3 SHL DUP2 MSTORE PUSH1 0x4 ADD PUSH1 0x40 MLOAD DUP1 SWAP2 SUB SWAP1 REVERT JUMPDEST PUSH32 0x1FD9E056A24D14C4ABC642FCC325992A946906D0DBC57DD70278AAF12842024D DUP3 ADD PUSH2 0x24C JUMPI PUSH1 0x40 MLOAD PUSH4 0x4EF6D7FB PUSH1 0xE0 SHL DUP2 MSTORE PUSH1 0x4 ADD PUSH1 0x40 MLOAD DUP1 SWAP2 SUB SWAP1 REVERT JUMPDEST PUSH0 PUSH2 0x36F PUSH1 0x6 DUP1 SLOAD PUSH1 0x1 ADD SWAP1 SSTORE JUMP JUMPDEST POP PUSH1 0x6 SLOAD PUSH1 0x40 DUP1 MLOAD PUSH1 0x20 DUP2 ADD SWAP1 SWAP2 MSTORE PUSH0 DUP2 MSTORE PUSH2 0x391 SWAP1 DUP7 SWAP1 DUP4 SWAP1 PUSH1 0x1 SWAP1 PUSH2 0x49F JUMP JUMPDEST PUSH0 DUP2 DUP2 MSTORE PUSH1 0x7 PUSH1 0x20 MSTORE PUSH1 0x40 SWAP1 KECCAK256 DUP1 PUSH2 0x3A9 DUP10 DUP3 PUSH2 0xABB JUMP JUMPDEST POP DUP4 MLOAD PUSH1 0x6 DUP3 ADD DUP1 SLOAD PUSH1 0x20 DUP1 DUP9 ADD MLOAD PUSH1 0x40 DUP1 DUP11 ADD MLOAD PUSH1 0xFF SWAP7 DUP8 AND PUSH2 0xFFFF NOT SWAP6 DUP7 AND OR PUSH2 0x100 SWAP4 DUP9 AND DUP5 MUL OR PUSH4 0xFFFF0000 NOT SWAP1 DUP2 AND PUSH3 0x10000 PUSH2 0xFFFF SWAP4 DUP5 AND DUP2 MUL SWAP2 SWAP1 SWAP2 OR SWAP1 SWAP8 SSTORE DUP11 MLOAD PUSH1 0x7 DUP11 ADD DUP1 SLOAD SWAP7 DUP14 ADD MLOAD SWAP5 DUP14 ADD MLOAD SWAP2 DUP11 AND SWAP7 SWAP1 SWAP8 AND SWAP6 SWAP1 SWAP6 OR SWAP3 SWAP1 SWAP8 AND SWAP1 SWAP3 MUL OR SWAP1 SWAP5 AND SWAP4 AND SWAP1 SWAP2 MUL SWAP2 SWAP1 SWAP2 OR SWAP1 SSTORE PUSH1 0x5 DUP2 ADD DUP1 SLOAD DUP7 SWAP2 SWAP1 PUSH1 0xFF NOT AND PUSH1 0x1 DUP4 PUSH1 0x2 DUP2 GT ISZERO PUSH2 0x442 JUMPI PUSH2 0x442 PUSH2 0xBB5 JUMP JUMPDEST MUL OR SWAP1 SSTORE POP PUSH1 0x8 DUP2 ADD PUSH2 0x455 DUP9 DUP3 PUSH2 0xABB JUMP JUMPDEST POP PUSH1 0x40 MLOAD PUSH1 0x1 PUSH1 0x1 PUSH1 0xA0 SHL SUB DUP8 AND DUP2 MSTORE DUP3 SWAP1 PUSH32 0xA6912C28A8CB5FC5CAB504E471CFA6BC504444025484D810E2565BC7DEAD6657 SWAP1 PUSH1 0x20 ADD PUSH1 0x40 MLOAD DUP1 SWAP2 SUB SWAP1 LOG2 POP SWAP7 SWAP6 POP POP POP POP POP POP JUMP JUMPDEST PUSH1 0x1 PUSH1 0x1 PUSH1 0xA0 SHL SUB DUP5 AND PUSH2 0x4C6 JUMPI PUSH1 0x40 MLOAD PUSH4 0x24ECEF4D PUSH1 0xE0 SHL DUP2 MSTORE PUSH1 0x4 ADD PUSH1 0x40 MLOAD DUP1 SWAP2 SUB SWAP1 REVERT JUMPDEST PUSH0 DUP4 DUP2 MSTORE PUSH1 0x3 PUSH1 0x20 MSTORE PUSH1 0x40 SWAP1 KECCAK256 SLOAD PUSH1 0x1 PUSH1 0x1 PUSH1 0xA0 SHL SUB AND ISZERO PUSH2 0x503 JUMPI PUSH1 0x40 MLOAD PUSH4 0x34C7B511 PUSH1 0xE0 SHL DUP2 MSTORE PUSH1 0x4 DUP2 ADD DUP5 SWAP1 MSTORE PUSH1 0x24 ADD JUMPDEST PUSH1 0x40 MLOAD DUP1 SWAP2 SUB SWAP1 REVERT JUMPDEST PUSH0 DUP4 DUP2 MSTORE PUSH1 0x3 PUSH1 0x20 MSTORE PUSH1 0x40 SWAP1 KECCAK256 SLOAD PUSH1 0x1 PUSH1 0x1 PUSH1 0xA0 SHL SUB AND ISZERO PUSH2 0x53B JUMPI PUSH1 0x40 MLOAD PUSH4 0x34C7B511 PUSH1 0xE0 SHL DUP2 MSTORE PUSH1 0x4 DUP2 ADD DUP5 SWAP1 MSTORE PUSH1 0x24 ADD PUSH2 0x4FA JUMP JUMPDEST PUSH1 0x2 PUSH0 DUP2 SLOAD PUSH2 0x549 SWAP1 PUSH2 0xBC9 JUMP JUMPDEST SWAP1 SWAP2 SSTORE POP PUSH1 0x1 PUSH1 0x1 PUSH1 0xA0 SHL SUB DUP5 AND PUSH0 SWAP1 DUP2 MSTORE PUSH1 0x4 PUSH1 0x20 MSTORE PUSH1 0x40 SWAP1 KECCAK256 PUSH2 0x56E SWAP1 DUP5 PUSH2 0x615 JUMP JUMPDEST POP PUSH0 DUP4 DUP2 MSTORE PUSH1 0x3 PUSH1 0x20 MSTORE PUSH1 0x40 DUP1 DUP3 KECCAK256 DUP1 SLOAD PUSH1 0x1 PUSH1 0x1 PUSH1 0xA0 SHL SUB NOT AND PUSH1 0x1 PUSH1 0x1 PUSH1 0xA0 SHL SUB DUP9 AND SWAP1 DUP2 OR SWAP1 SWAP2 SSTORE SWAP1 MLOAD DUP6 SWAP3 SWAP1 PUSH32 0xB333C813A7426A7A11E2B190CAD52C44119421594B47F6F32ACE6D8C7207B2BF SWAP1 PUSH2 0x5CF SWAP1 CALLER SWAP1 DUP9 SWAP1 DUP9 SWAP1 PUSH2 0xBED JUMP JUMPDEST PUSH1 0x40 MLOAD DUP1 SWAP2 SUB SWAP1 LOG4 PUSH0 CALLER PUSH0 DUP7 DUP7 DUP6 PUSH1 0x40 MLOAD PUSH1 0x20 ADD PUSH2 0x5F1 SWAP6 SWAP5 SWAP4 SWAP3 SWAP2 SWAP1 PUSH2 0xC21 JUMP JUMPDEST PUSH1 0x40 DUP1 MLOAD PUSH1 0x1F NOT DUP2 DUP5 SUB ADD DUP2 MSTORE SWAP2 SWAP1 MSTORE SWAP1 POP PUSH2 0x60E DUP6 DUP5 DUP4 PUSH2 0x629 JUMP JUMPDEST POP POP POP POP POP JUMP JUMPDEST PUSH0 PUSH2 0x620 DUP4 DUP4 PUSH2 0x737 JUMP JUMPDEST SWAP1 POP JUMPDEST SWAP3 SWAP2 POP POP JUMP JUMPDEST PUSH2 0x63A DUP4 PUSH4 0x1AED5A85 PUSH1 0xE2 SHL PUSH2 0x783 JUMP JUMPDEST ISZERO PUSH2 0x6D5 JUMPI PUSH1 0x40 MLOAD PUSH4 0x1AED5A85 PUSH1 0xE2 SHL DUP2 MSTORE PUSH1 0x1 PUSH1 0x1 PUSH1 0xA0 SHL SUB DUP5 AND SWAP1 PUSH4 0x6BB56A14 SWAP1 PUSH2 0x68D SWAP1 PUSH32 0xB084A55EBF70FD3C06FD755269DAC2212C4D3F0F4D09079780BFA50C1B2984D SWAP1 DUP6 SWAP1 PUSH1 0x4 ADD PUSH2 0xC5B JUMP JUMPDEST PUSH0 PUSH1 0x40 MLOAD DUP1 DUP4 SUB DUP2 PUSH0 DUP8 GAS CALL ISZERO DUP1 ISZERO PUSH2 0x6A8 JUMPI RETURNDATASIZE PUSH0 PUSH0 RETURNDATACOPY RETURNDATASIZE PUSH0 REVERT JUMPDEST POP POP POP POP PUSH1 0x40 MLOAD RETURNDATASIZE PUSH0 DUP3 RETURNDATACOPY PUSH1 0x1F RETURNDATASIZE SWAP1 DUP2 ADD PUSH1 0x1F NOT AND DUP3 ADD PUSH1 0x40 MSTORE PUSH2 0x6CF SWAP2 SWAP1 DUP2 ADD SWAP1 PUSH2 0xC7B JUMP JUMPDEST POP POP POP POP JUMP JUMPDEST DUP2 PUSH2 0x732 JUMPI PUSH1 0x1 PUSH1 0x1 PUSH1 0xA0 SHL SUB DUP4 AND EXTCODESIZE ISZERO PUSH2 0x70E JUMPI PUSH1 0x40 MLOAD PUSH4 0x4349776D PUSH1 0xE0 SHL DUP2 MSTORE PUSH1 0x1 PUSH1 0x1 PUSH1 0xA0 SHL SUB DUP5 AND PUSH1 0x4 DUP3 ADD MSTORE PUSH1 0x24 ADD PUSH2 0x4FA JUMP JUMPDEST PUSH1 0x40 MLOAD PUSH4 0x3173137 PUSH1 0xE0 SHL DUP2 MSTORE PUSH1 0x1 PUSH1 0x1 PUSH1 0xA0 SHL SUB DUP5 AND PUSH1 0x4 DUP3 ADD MSTORE PUSH1 0x24 ADD PUSH2 0x4FA JUMP JUMPDEST POP POP POP JUMP JUMPDEST PUSH0 DUP2 DUP2 MSTORE PUSH1 0x1 DUP4 ADD PUSH1 0x20 MSTORE PUSH1 0x40 DUP2 KECCAK256 SLOAD PUSH2 0x77C JUMPI POP DUP2 SLOAD PUSH1 0x1 DUP2 DUP2 ADD DUP5 SSTORE PUSH0 DUP5 DUP2 MSTORE PUSH1 0x20 DUP1 DUP3 KECCAK256 SWAP1 SWAP4 ADD DUP5 SWAP1 SSTORE DUP5 SLOAD DUP5 DUP3 MSTORE DUP3 DUP7 ADD SWAP1 SWAP4 MSTORE PUSH1 0x40 SWAP1 KECCAK256 SWAP2 SWAP1 SWAP2 SSTORE PUSH2 0x623 JUMP JUMPDEST POP PUSH0 PUSH2 0x623 JUMP JUMPDEST PUSH1 0x40 DUP1 MLOAD PUSH1 0x1 PUSH1 0x1 PUSH1 0xE0 SHL SUB NOT DUP4 AND PUSH1 0x24 DUP1 DUP4 ADD SWAP2 SWAP1 SWAP2 MSTORE DUP3 MLOAD DUP1 DUP4 SUB SWAP1 SWAP2 ADD DUP2 MSTORE PUSH1 0x44 SWAP1 SWAP2 ADD SWAP1 SWAP2 MSTORE PUSH1 0x20 DUP1 DUP3 ADD DUP1 MLOAD PUSH1 0x1 PUSH1 0x1 PUSH1 0xE0 SHL SUB AND PUSH4 0x1FFC9A7 PUSH1 0xE0 SHL OR DUP2 MSTORE DUP3 MLOAD PUSH0 SWAP4 SWAP3 DUP5 SWAP3 DUP4 SWAP3 DUP4 SWAP3 SWAP2 DUP4 SWAP2 SWAP1 DUP11 PUSH2 0x7530 STATICCALL SWAP3 POP RETURNDATASIZE SWAP2 POP PUSH0 MLOAD SWAP1 POP DUP3 DUP1 ISZERO PUSH2 0x7F3 JUMPI POP PUSH1 0x20 DUP3 LT ISZERO JUMPDEST DUP1 ISZERO PUSH2 0x7FE JUMPI POP PUSH0 DUP2 GT JUMPDEST SWAP8 SWAP7 POP POP POP POP POP POP POP JUMP JUMPDEST PUSH4 0x4E487B71 PUSH1 0xE0 SHL PUSH0 MSTORE PUSH1 0x41 PUSH1 0x4 MSTORE PUSH1 0x24 PUSH0 REVERT JUMPDEST PUSH0 DUP1 PUSH1 0x1 PUSH1 0x1 PUSH1 0x40 SHL SUB DUP5 GT ISZERO PUSH2 0x836 JUMPI PUSH2 0x836 PUSH2 0x809 JUMP JUMPDEST POP PUSH1 0x40 MLOAD PUSH1 0x1F NOT PUSH1 0x1F DUP6 ADD DUP2 AND PUSH1 0x3F ADD AND DUP2 ADD DUP2 DUP2 LT PUSH1 0x1 PUSH1 0x1 PUSH1 0x40 SHL SUB DUP3 GT OR ISZERO PUSH2 0x864 JUMPI PUSH2 0x864 PUSH2 0x809 JUMP JUMPDEST PUSH1 0x40 MSTORE DUP4 DUP2 MSTORE SWAP1 POP DUP1 DUP3 DUP5 ADD DUP6 LT ISZERO PUSH2 0x87B JUMPI PUSH0 PUSH0 REVERT JUMPDEST DUP4 DUP4 PUSH1 0x20 DUP4 ADD MCOPY PUSH0 PUSH1 0x20 DUP6 DUP4 ADD ADD MSTORE POP SWAP4 SWAP3 POP POP POP JUMP JUMPDEST PUSH0 DUP3 PUSH1 0x1F DUP4 ADD SLT PUSH2 0x8A1 JUMPI PUSH0 PUSH0 REVERT JUMPDEST PUSH2 0x620 DUP4 DUP4 MLOAD PUSH1 0x20 DUP6 ADD PUSH2 0x81D JUMP JUMPDEST DUP1 MLOAD PUSH1 0xFF DUP2 AND DUP2 EQ PUSH2 0x8C0 JUMPI PUSH0 PUSH0 REVERT JUMPDEST SWAP2 SWAP1 POP JUMP JUMPDEST PUSH0 PUSH1 0x60 DUP3 DUP5 SUB SLT ISZERO PUSH2 0x8D5 JUMPI PUSH0 PUSH0 REVERT JUMPDEST PUSH1 0x40 MLOAD PUSH1 0x60 DUP2 ADD PUSH1 0x1 PUSH1 0x1 PUSH1 0x40 SHL SUB DUP2 GT DUP3 DUP3 LT OR ISZERO PUSH2 0x8F7 JUMPI PUSH2 0x8F7 PUSH2 0x809 JUMP JUMPDEST PUSH1 0x40 MSTORE SWAP1 POP DUP1 PUSH2 0x906 DUP4 PUSH2 0x8B0 JUMP JUMPDEST DUP2 MSTORE PUSH2 0x914 PUSH1 0x20 DUP5 ADD PUSH2 0x8B0 JUMP JUMPDEST PUSH1 0x20 DUP3 ADD MSTORE PUSH1 0x40 DUP4 ADD MLOAD PUSH2 0xFFFF DUP2 AND DUP2 EQ PUSH2 0x92D JUMPI PUSH0 PUSH0 REVERT JUMPDEST PUSH1 0x40 SWAP2 SWAP1 SWAP2 ADD MSTORE SWAP3 SWAP2 POP POP JUMP JUMPDEST DUP1 MLOAD PUSH1 0x1 PUSH1 0x1 PUSH1 0xA0 SHL SUB DUP2 AND DUP2 EQ PUSH2 0x8C0 JUMPI PUSH0 PUSH0 REVERT JUMPDEST PUSH0 PUSH0 PUSH0 PUSH0 PUSH0 PUSH0 PUSH0 PUSH2 0x160 DUP9 DUP11 SUB SLT ISZERO PUSH2 0x967 JUMPI PUSH0 PUSH0 REVERT JUMPDEST DUP8 MLOAD PUSH1 0x1 PUSH1 0x1 PUSH1 0x40 SHL SUB DUP2 GT ISZERO PUSH2 0x97C JUMPI PUSH0 PUSH0 REVERT JUMPDEST PUSH2 0x988 DUP11 DUP3 DUP12 ADD PUSH2 0x892 JUMP JUMPDEST PUSH1 0x20 DUP11 ADD MLOAD SWAP1 SWAP9 POP SWAP1 POP PUSH1 0x1 PUSH1 0x1 PUSH1 0x40 SHL SUB DUP2 GT ISZERO PUSH2 0x9A5 JUMPI PUSH0 PUSH0 REVERT JUMPDEST PUSH2 0x9B1 DUP11 DUP3 DUP12 ADD PUSH2 0x892 JUMP JUMPDEST PUSH1 0x40 DUP11 ADD MLOAD SWAP1 SWAP8 POP SWAP1 POP PUSH1 0x1 PUSH1 0x1 PUSH1 0x40 SHL SUB DUP2 GT ISZERO PUSH2 0x9CE JUMPI PUSH0 PUSH0 REVERT JUMPDEST PUSH2 0x9DA DUP11 DUP3 DUP12 ADD PUSH2 0x892 JUMP JUMPDEST PUSH1 0x60 DUP11 ADD MLOAD SWAP1 SWAP7 POP SWAP1 POP PUSH1 0x1 PUSH1 0x1 PUSH1 0x40 SHL SUB DUP2 GT ISZERO PUSH2 0x9F7 JUMPI PUSH0 PUSH0 REVERT JUMPDEST PUSH2 0xA03 DUP11 DUP3 DUP12 ADD PUSH2 0x892 JUMP JUMPDEST SWAP5 POP POP PUSH2 0xA13 DUP10 PUSH1 0x80 DUP11 ADD PUSH2 0x8C5 JUMP JUMPDEST SWAP3 POP PUSH2 0xA22 DUP10 PUSH1 0xE0 DUP11 ADD PUSH2 0x8C5 JUMP JUMPDEST SWAP2 POP PUSH2 0xA31 PUSH2 0x140 DUP10 ADD PUSH2 0x93A JUMP JUMPDEST SWAP1 POP SWAP3 SWAP6 SWAP9 SWAP2 SWAP5 SWAP8 POP SWAP3 SWAP6 POP JUMP JUMPDEST PUSH1 0x1 DUP2 DUP2 SHR SWAP1 DUP3 AND DUP1 PUSH2 0xA53 JUMPI PUSH1 0x7F DUP3 AND SWAP2 POP JUMPDEST PUSH1 0x20 DUP3 LT DUP2 SUB PUSH2 0xA71 JUMPI PUSH4 0x4E487B71 PUSH1 0xE0 SHL PUSH0 MSTORE PUSH1 0x22 PUSH1 0x4 MSTORE PUSH1 0x24 PUSH0 REVERT JUMPDEST POP SWAP2 SWAP1 POP JUMP JUMPDEST PUSH1 0x1F DUP3 GT ISZERO PUSH2 0x732 JUMPI DUP1 PUSH0 MSTORE PUSH1 0x20 PUSH0 KECCAK256 PUSH1 0x1F DUP5 ADD PUSH1 0x5 SHR DUP2 ADD PUSH1 0x20 DUP6 LT ISZERO PUSH2 0xA9C JUMPI POP DUP1 JUMPDEST PUSH1 0x1F DUP5 ADD PUSH1 0x5 SHR DUP3 ADD SWAP2 POP JUMPDEST DUP2 DUP2 LT ISZERO PUSH2 0x60E JUMPI PUSH0 DUP2 SSTORE PUSH1 0x1 ADD PUSH2 0xAA8 JUMP JUMPDEST DUP2 MLOAD PUSH1 0x1 PUSH1 0x1 PUSH1 0x40 SHL SUB DUP2 GT ISZERO PUSH2 0xAD4 JUMPI PUSH2 0xAD4 PUSH2 0x809 JUMP JUMPDEST PUSH2 0xAE8 DUP2 PUSH2 0xAE2 DUP5 SLOAD PUSH2 0xA3F JUMP JUMPDEST DUP5 PUSH2 0xA77 JUMP JUMPDEST PUSH1 0x20 PUSH1 0x1F DUP3 GT PUSH1 0x1 DUP2 EQ PUSH2 0xB1A JUMPI PUSH0 DUP4 ISZERO PUSH2 0xB03 JUMPI POP DUP5 DUP3 ADD MLOAD JUMPDEST PUSH0 NOT PUSH1 0x3 DUP6 SWAP1 SHL SHR NOT AND PUSH1 0x1 DUP5 SWAP1 SHL OR DUP5 SSTORE PUSH2 0x60E JUMP JUMPDEST PUSH0 DUP5 DUP2 MSTORE PUSH1 0x20 DUP2 KECCAK256 PUSH1 0x1F NOT DUP6 AND SWAP2 JUMPDEST DUP3 DUP2 LT ISZERO PUSH2 0xB49 JUMPI DUP8 DUP6 ADD MLOAD DUP3 SSTORE PUSH1 0x20 SWAP5 DUP6 ADD SWAP5 PUSH1 0x1 SWAP1 SWAP3 ADD SWAP2 ADD PUSH2 0xB29 JUMP JUMPDEST POP DUP5 DUP3 LT ISZERO PUSH2 0xB66 JUMPI DUP7 DUP5 ADD MLOAD PUSH0 NOT PUSH1 0x3 DUP8 SWAP1 SHL PUSH1 0xF8 AND SHR NOT AND DUP2 SSTORE JUMPDEST POP POP POP POP PUSH1 0x1 SWAP1 DUP2 SHL ADD SWAP1 SSTORE POP JUMP JUMPDEST PUSH0 DUP2 MLOAD DUP1 DUP5 MSTORE DUP1 PUSH1 0x20 DUP5 ADD PUSH1 0x20 DUP7 ADD MCOPY PUSH0 PUSH1 0x20 DUP3 DUP7 ADD ADD MSTORE PUSH1 0x20 PUSH1 0x1F NOT PUSH1 0x1F DUP4 ADD AND DUP6 ADD ADD SWAP2 POP POP SWAP3 SWAP2 POP POP JUMP JUMPDEST PUSH1 0x20 DUP2 MSTORE PUSH0 PUSH2 0x620 PUSH1 0x20 DUP4 ADD DUP5 PUSH2 0xB75 JUMP JUMPDEST PUSH4 0x4E487B71 PUSH1 0xE0 SHL PUSH0 MSTORE PUSH1 0x21 PUSH1 0x4 MSTORE PUSH1 0x24 PUSH0 REVERT JUMPDEST PUSH0 PUSH1 0x1 DUP3 ADD PUSH2 0xBE6 JUMPI PUSH4 0x4E487B71 PUSH1 0xE0 SHL PUSH0 MSTORE PUSH1 0x11 PUSH1 0x4 MSTORE PUSH1 0x24 PUSH0 REVERT JUMPDEST POP PUSH1 0x1 ADD SWAP1 JUMP JUMPDEST PUSH1 0x1 PUSH1 0x1 PUSH1 0xA0 SHL SUB DUP5 AND DUP2 MSTORE DUP3 ISZERO ISZERO PUSH1 0x20 DUP3 ADD MSTORE PUSH1 0x60 PUSH1 0x40 DUP3 ADD DUP2 SWAP1 MSTORE PUSH0 SWAP1 PUSH2 0xC18 SWAP1 DUP4 ADD DUP5 PUSH2 0xB75 JUMP JUMPDEST SWAP6 SWAP5 POP POP POP POP POP JUMP JUMPDEST PUSH1 0x1 PUSH1 0x1 PUSH1 0xA0 SHL SUB DUP7 DUP2 AND DUP3 MSTORE DUP6 DUP2 AND PUSH1 0x20 DUP4 ADD MSTORE DUP5 AND PUSH1 0x40 DUP3 ADD MSTORE PUSH1 0x60 DUP2 ADD DUP4 SWAP1 MSTORE PUSH1 0xA0 PUSH1 0x80 DUP3 ADD DUP2 SWAP1 MSTORE PUSH0 SWAP1 PUSH2 0x7FE SWAP1 DUP4 ADD DUP5 PUSH2 0xB75 JUMP JUMPDEST DUP3 DUP2 MSTORE PUSH1 0x40 PUSH1 0x20 DUP3 ADD MSTORE PUSH0 PUSH2 0xC73 PUSH1 0x40 DUP4 ADD DUP5 PUSH2 0xB75 JUMP JUMPDEST SWAP5 SWAP4 POP POP POP POP JUMP JUMPDEST PUSH0 PUSH1 0x20 DUP3 DUP5 SUB SLT ISZERO PUSH2 0xC8B JUMPI PUSH0 PUSH0 REVERT JUMPDEST DUP2 MLOAD PUSH1 0x1 PUSH1 0x1 PUSH1 0x40 SHL SUB DUP2 GT ISZERO PUSH2 0xCA0 JUMPI PUSH0 PUSH0 REVERT JUMPDEST DUP3 ADD PUSH1 0x1F DUP2 ADD DUP5 SGT PUSH2 0xCB0 JUMPI PUSH0 PUSH0 REVERT JUMPDEST PUSH2 0xC73 DUP5 DUP3 MLOAD PUSH1 0x20 DUP5 ADD PUSH2 0x81D JUMP JUMPDEST PUSH2 0x3C06 DUP1 PUSH2 0xCCC PUSH0 CODECOPY PUSH0 RETURN INVALID PUSH1 0x80 PUSH1 0x40 MSTORE PUSH1 0x4 CALLDATASIZE LT PUSH2 0x1FC JUMPI PUSH0 CALLDATALOAD PUSH1 0xE0 SHR DUP1 PUSH4 0x7E87632C GT PUSH2 0x10C JUMPI DUP1 PUSH4 0xA07E80C6 GT PUSH2 0x9F JUMPI DUP1 PUSH4 0xDB8C9663 GT PUSH2 0x6E JUMPI DUP1 PUSH4 0xDB8C9663 EQ PUSH2 0x658 JUMPI DUP1 PUSH4 0xDEDFF9C6 EQ PUSH2 0x677 JUMPI DUP1 PUSH4 0xE4AC8DBD EQ PUSH2 0x696 JUMPI DUP1 PUSH4 0xEB445DE4 EQ PUSH2 0x6AA JUMPI DUP1 PUSH4 0xF2FDE38B EQ PUSH2 0x6C9 JUMPI PUSH2 0x255 JUMP JUMPDEST DUP1 PUSH4 0xA07E80C6 EQ PUSH2 0x5CF JUMPI DUP1 PUSH4 0xA3B261F2 EQ PUSH2 0x5EE JUMPI DUP1 PUSH4 0xBE9F0E6F EQ PUSH2 0x61A JUMPI DUP1 PUSH4 0xD6C1407C EQ PUSH2 0x639 JUMPI PUSH2 0x255 JUMP JUMPDEST DUP1 PUSH4 0x8DA5CB5B GT PUSH2 0xDB JUMPI DUP1 PUSH4 0x8DA5CB5B EQ PUSH2 0x555 JUMPI DUP1 PUSH4 0x8F81ECFC EQ PUSH2 0x571 JUMPI DUP1 PUSH4 0x92B88F06 EQ PUSH2 0x590 JUMPI DUP1 PUSH4 0x97902421 EQ PUSH2 0x5BC JUMPI PUSH2 0x255 JUMP JUMPDEST DUP1 PUSH4 0x7E87632C EQ PUSH2 0x4E5 JUMPI DUP1 PUSH4 0x7E913B05 EQ PUSH2 0x504 JUMPI DUP1 PUSH4 0x7F23690C EQ PUSH2 0x523 JUMPI DUP1 PUSH4 0x86A10DDD EQ PUSH2 0x536 JUMPI PUSH2 0x255 JUMP JUMPDEST DUP1 PUSH4 0x2A3654A4 GT PUSH2 0x18F JUMPI DUP1 PUSH4 0x59814756 GT PUSH2 0x15E JUMPI DUP1 PUSH4 0x59814756 EQ PUSH2 0x45E JUMPI DUP1 PUSH4 0x6963D438 EQ PUSH2 0x47D JUMPI DUP1 PUSH4 0x70A08231 EQ PUSH2 0x49C JUMPI DUP1 PUSH4 0x715018A6 EQ PUSH2 0x4BB JUMPI DUP1 PUSH4 0x78495BF8 EQ PUSH2 0x4CF JUMPI PUSH2 0x255 JUMP JUMPDEST DUP1 PUSH4 0x2A3654A4 EQ PUSH2 0x3D5 JUMPI DUP1 PUSH4 0x49A6078D EQ PUSH2 0x3F4 JUMPI DUP1 PUSH4 0x511B6952 EQ PUSH2 0x420 JUMPI DUP1 PUSH4 0x54F6127F EQ PUSH2 0x43F JUMPI PUSH2 0x255 JUMP JUMPDEST DUP1 PUSH4 0x18160DDD GT PUSH2 0x1CB JUMPI DUP1 PUSH4 0x18160DDD EQ PUSH2 0x335 JUMPI DUP1 PUSH4 0x1D26FCE6 EQ PUSH2 0x353 JUMPI DUP1 PUSH4 0x1F121708 EQ PUSH2 0x37F JUMPI DUP1 PUSH4 0x217B2270 EQ PUSH2 0x3B6 JUMPI PUSH2 0x255 JUMP JUMPDEST DUP1 PUSH4 0x1FFC9A7 EQ PUSH2 0x295 JUMPI DUP1 PUSH4 0x2154B4E EQ PUSH2 0x2C9 JUMPI DUP1 PUSH4 0xCFA4650 EQ PUSH2 0x2EA JUMPI DUP1 PUSH4 0x16E023B3 EQ PUSH2 0x309 JUMPI PUSH2 0x255 JUMP JUMPDEST CALLDATASIZE PUSH2 0x255 JUMPI CALLVALUE PUSH0 SUB PUSH2 0x23C JUMPI PUSH1 0x40 MLOAD PUSH4 0xE5099EE3 PUSH1 0xE0 SHL DUP2 MSTORE PUSH1 0x4 ADD PUSH2 0x233 SWAP1 PUSH1 0x20 DUP1 DUP3 MSTORE PUSH1 0x4 SWAP1 DUP3 ADD MSTORE PUSH0 PUSH1 0x40 DUP3 ADD MSTORE PUSH1 0x60 ADD SWAP1 JUMP JUMPDEST PUSH1 0x40 MLOAD DUP1 SWAP2 SUB SWAP1 REVERT JUMPDEST PUSH1 0x40 MLOAD PUSH4 0x30FA4A21 PUSH1 0xE1 SHL DUP2 MSTORE PUSH1 0x4 ADD PUSH1 0x40 MLOAD DUP1 SWAP2 SUB SWAP1 REVERT JUMPDEST PUSH0 CALLDATASIZE PUSH1 0x60 PUSH1 0x4 DUP3 LT ISZERO PUSH2 0x27F JUMPI DUP3 DUP3 PUSH1 0x40 MLOAD PUSH4 0xE5099EE3 PUSH1 0xE0 SHL DUP2 MSTORE PUSH1 0x4 ADD PUSH2 0x233 SWAP3 SWAP2 SWAP1 PUSH2 0x2BA9 JUMP JUMPDEST PUSH2 0x289 DUP4 DUP4 PUSH2 0x6E8 JUMP JUMPDEST DUP1 MLOAD SWAP4 POP PUSH1 0x20 ADD SWAP2 POP POP RETURN JUMPDEST CALLVALUE DUP1 ISZERO PUSH2 0x2A0 JUMPI PUSH0 PUSH0 REVERT JUMPDEST POP PUSH2 0x2B4 PUSH2 0x2AF CALLDATASIZE PUSH1 0x4 PUSH2 0x2BD7 JUMP JUMPDEST PUSH2 0x7D7 JUMP JUMPDEST PUSH1 0x40 MLOAD SWAP1 ISZERO ISZERO DUP2 MSTORE PUSH1 0x20 ADD JUMPDEST PUSH1 0x40 MLOAD DUP1 SWAP2 SUB SWAP1 RETURN JUMPDEST CALLVALUE DUP1 ISZERO PUSH2 0x2D4 JUMPI PUSH0 PUSH0 REVERT JUMPDEST POP PUSH2 0x2E8 PUSH2 0x2E3 CALLDATASIZE PUSH1 0x4 PUSH2 0x2C19 JUMP JUMPDEST PUSH2 0x80A JUMP JUMPDEST STOP JUMPDEST CALLVALUE DUP1 ISZERO PUSH2 0x2F5 JUMPI PUSH0 PUSH0 REVERT JUMPDEST POP PUSH2 0x2E8 PUSH2 0x304 CALLDATASIZE PUSH1 0x4 PUSH2 0x2CF0 JUMP JUMPDEST PUSH2 0x85D JUMP JUMPDEST CALLVALUE DUP1 ISZERO PUSH2 0x314 JUMPI PUSH0 PUSH0 REVERT JUMPDEST POP PUSH2 0x328 PUSH2 0x323 CALLDATASIZE PUSH1 0x4 PUSH2 0x2D21 JUMP JUMPDEST PUSH2 0x8AA JUMP JUMPDEST PUSH1 0x40 MLOAD PUSH2 0x2C0 SWAP2 SWAP1 PUSH2 0x2D6F JUMP JUMPDEST CALLVALUE DUP1 ISZERO PUSH2 0x340 JUMPI PUSH0 PUSH0 REVERT JUMPDEST POP PUSH1 0x2 SLOAD JUMPDEST PUSH1 0x40 MLOAD SWAP1 DUP2 MSTORE PUSH1 0x20 ADD PUSH2 0x2C0 JUMP JUMPDEST CALLVALUE DUP1 ISZERO PUSH2 0x35E JUMPI PUSH0 PUSH0 REVERT JUMPDEST POP PUSH2 0x372 PUSH2 0x36D CALLDATASIZE PUSH1 0x4 PUSH2 0x2E08 JUMP JUMPDEST PUSH2 0x8BD JUMP JUMPDEST PUSH1 0x40 MLOAD PUSH2 0x2C0 SWAP2 SWAP1 PUSH2 0x2E6B JUMP JUMPDEST CALLVALUE DUP1 ISZERO PUSH2 0x38A JUMPI PUSH0 PUSH0 REVERT JUMPDEST POP PUSH1 0x8 SLOAD PUSH2 0x39E SWAP1 PUSH1 0x1 PUSH1 0x1 PUSH1 0xA0 SHL SUB AND DUP2 JUMP JUMPDEST PUSH1 0x40 MLOAD PUSH1 0x1 PUSH1 0x1 PUSH1 0xA0 SHL SUB SWAP1 SWAP2 AND DUP2 MSTORE PUSH1 0x20 ADD PUSH2 0x2C0 JUMP JUMPDEST CALLVALUE DUP1 ISZERO PUSH2 0x3C1 JUMPI PUSH0 PUSH0 REVERT JUMPDEST POP PUSH2 0x39E PUSH2 0x3D0 CALLDATASIZE PUSH1 0x4 PUSH2 0x2ECE JUMP JUMPDEST PUSH2 0x9A3 JUMP JUMPDEST CALLVALUE DUP1 ISZERO PUSH2 0x3E0 JUMPI PUSH0 PUSH0 REVERT JUMPDEST POP PUSH2 0x2B4 PUSH2 0x3EF CALLDATASIZE PUSH1 0x4 PUSH2 0x2EE5 JUMP JUMPDEST PUSH2 0x9DB JUMP JUMPDEST CALLVALUE DUP1 ISZERO PUSH2 0x3FF JUMPI PUSH0 PUSH0 REVERT JUMPDEST POP PUSH2 0x413 PUSH2 0x40E CALLDATASIZE PUSH1 0x4 PUSH2 0x2ECE JUMP JUMPDEST PUSH2 0x9E6 JUMP JUMPDEST PUSH1 0x40 MLOAD PUSH2 0x2C0 SWAP2 SWAP1 PUSH2 0x2F0D JUMP JUMPDEST CALLVALUE DUP1 ISZERO PUSH2 0x42B JUMPI PUSH0 PUSH0 REVERT JUMPDEST POP PUSH2 0x2E8 PUSH2 0x43A CALLDATASIZE PUSH1 0x4 PUSH2 0x2F67 JUMP JUMPDEST PUSH2 0xA07 JUMP JUMPDEST CALLVALUE DUP1 ISZERO PUSH2 0x44A JUMPI PUSH0 PUSH0 REVERT JUMPDEST POP PUSH2 0x328 PUSH2 0x459 CALLDATASIZE PUSH1 0x4 PUSH2 0x2ECE JUMP JUMPDEST PUSH2 0xA4B JUMP JUMPDEST CALLVALUE DUP1 ISZERO PUSH2 0x469 JUMPI PUSH0 PUSH0 REVERT JUMPDEST POP PUSH2 0x2E8 PUSH2 0x478 CALLDATASIZE PUSH1 0x4 PUSH2 0x305F JUMP JUMPDEST PUSH2 0xA56 JUMP JUMPDEST CALLVALUE DUP1 ISZERO PUSH2 0x488 JUMPI PUSH0 PUSH0 REVERT JUMPDEST POP PUSH2 0x372 PUSH2 0x497 CALLDATASIZE PUSH1 0x4 PUSH2 0x30EE JUMP JUMPDEST PUSH2 0xB0B JUMP JUMPDEST CALLVALUE DUP1 ISZERO PUSH2 0x4A7 JUMPI PUSH0 PUSH0 REVERT JUMPDEST POP PUSH2 0x345 PUSH2 0x4B6 CALLDATASIZE PUSH1 0x4 PUSH2 0x2C19 JUMP JUMPDEST PUSH2 0xC35 JUMP JUMPDEST CALLVALUE DUP1 ISZERO PUSH2 0x4C6 JUMPI PUSH0 PUSH0 REVERT JUMPDEST POP PUSH2 0x2E8 PUSH2 0xC55 JUMP JUMPDEST CALLVALUE DUP1 ISZERO PUSH2 0x4DA JUMPI PUSH0 PUSH0 REVERT JUMPDEST POP PUSH1 0x6 SLOAD PUSH2 0x345 SWAP1 DUP2 JUMP JUMPDEST CALLVALUE DUP1 ISZERO PUSH2 0x4F0 JUMPI PUSH0 PUSH0 REVERT JUMPDEST POP PUSH2 0x2E8 PUSH2 0x4FF CALLDATASIZE PUSH1 0x4 PUSH2 0x329F JUMP JUMPDEST PUSH2 0xC68 JUMP JUMPDEST CALLVALUE DUP1 ISZERO PUSH2 0x50F JUMPI PUSH0 PUSH0 REVERT JUMPDEST POP PUSH2 0x2E8 PUSH2 0x51E CALLDATASIZE PUSH1 0x4 PUSH2 0x2D21 JUMP JUMPDEST PUSH2 0xD56 JUMP JUMPDEST PUSH2 0x2E8 PUSH2 0x531 CALLDATASIZE PUSH1 0x4 PUSH2 0x3370 JUMP JUMPDEST PUSH2 0xEDF JUMP JUMPDEST CALLVALUE DUP1 ISZERO PUSH2 0x541 JUMPI PUSH0 PUSH0 REVERT JUMPDEST POP PUSH2 0x2E8 PUSH2 0x550 CALLDATASIZE PUSH1 0x4 PUSH2 0x33A9 JUMP JUMPDEST PUSH2 0xF14 JUMP JUMPDEST CALLVALUE DUP1 ISZERO PUSH2 0x560 JUMPI PUSH0 PUSH0 REVERT JUMPDEST POP PUSH0 SLOAD PUSH1 0x1 PUSH1 0x1 PUSH1 0xA0 SHL SUB AND PUSH2 0x39E JUMP JUMPDEST CALLVALUE DUP1 ISZERO PUSH2 0x57C JUMPI PUSH0 PUSH0 REVERT JUMPDEST POP PUSH2 0x2E8 PUSH2 0x58B CALLDATASIZE PUSH1 0x4 PUSH2 0x2D21 JUMP JUMPDEST PUSH2 0x108B JUMP JUMPDEST CALLVALUE DUP1 ISZERO PUSH2 0x59B JUMPI PUSH0 PUSH0 REVERT JUMPDEST POP PUSH2 0x5AF PUSH2 0x5AA CALLDATASIZE PUSH1 0x4 PUSH2 0x2ECE JUMP JUMPDEST PUSH2 0x1270 JUMP JUMPDEST PUSH1 0x40 MLOAD PUSH2 0x2C0 SWAP2 SWAP1 PUSH2 0x3469 JUMP JUMPDEST PUSH2 0x2E8 PUSH2 0x5CA CALLDATASIZE PUSH1 0x4 PUSH2 0x356C JUMP JUMPDEST PUSH2 0x1517 JUMP JUMPDEST CALLVALUE DUP1 ISZERO PUSH2 0x5DA JUMPI PUSH0 PUSH0 REVERT JUMPDEST POP PUSH2 0x2E8 PUSH2 0x5E9 CALLDATASIZE PUSH1 0x4 PUSH2 0x305F JUMP JUMPDEST PUSH2 0x1548 JUMP JUMPDEST CALLVALUE DUP1 ISZERO PUSH2 0x5F9 JUMPI PUSH0 PUSH0 REVERT JUMPDEST POP PUSH2 0x60D PUSH2 0x608 CALLDATASIZE PUSH1 0x4 PUSH2 0x2C19 JUMP JUMPDEST PUSH2 0x1664 JUMP JUMPDEST PUSH1 0x40 MLOAD PUSH2 0x2C0 SWAP2 SWAP1 PUSH2 0x35C5 JUMP JUMPDEST CALLVALUE DUP1 ISZERO PUSH2 0x625 JUMPI PUSH0 PUSH0 REVERT JUMPDEST POP PUSH2 0x2E8 PUSH2 0x634 CALLDATASIZE PUSH1 0x4 PUSH2 0x35D7 JUMP JUMPDEST PUSH2 0x1687 JUMP JUMPDEST CALLVALUE DUP1 ISZERO PUSH2 0x644 JUMPI PUSH0 PUSH0 REVERT JUMPDEST POP PUSH2 0x2E8 PUSH2 0x653 CALLDATASIZE PUSH1 0x4 PUSH2 0x3658 JUMP JUMPDEST PUSH2 0x174A JUMP JUMPDEST CALLVALUE DUP1 ISZERO PUSH2 0x663 JUMPI PUSH0 PUSH0 REVERT JUMPDEST POP PUSH2 0x2E8 PUSH2 0x672 CALLDATASIZE PUSH1 0x4 PUSH2 0x368D JUMP JUMPDEST PUSH2 0x179E JUMP JUMPDEST CALLVALUE DUP1 ISZERO PUSH2 0x682 JUMPI PUSH0 PUSH0 REVERT JUMPDEST POP PUSH2 0x372 PUSH2 0x691 CALLDATASIZE PUSH1 0x4 PUSH2 0x36F0 JUMP JUMPDEST PUSH2 0x187F JUMP JUMPDEST CALLVALUE DUP1 ISZERO PUSH2 0x6A1 JUMPI PUSH0 PUSH0 REVERT JUMPDEST POP PUSH2 0x328 PUSH2 0x1928 JUMP JUMPDEST CALLVALUE DUP1 ISZERO PUSH2 0x6B5 JUMPI PUSH0 PUSH0 REVERT JUMPDEST POP PUSH2 0x2E8 PUSH2 0x6C4 CALLDATASIZE PUSH1 0x4 PUSH2 0x3721 JUMP JUMPDEST PUSH2 0x19B4 JUMP JUMPDEST CALLVALUE DUP1 ISZERO PUSH2 0x6D4 JUMPI PUSH0 PUSH0 REVERT JUMPDEST POP PUSH2 0x2E8 PUSH2 0x6E3 CALLDATASIZE PUSH1 0x4 PUSH2 0x2C19 JUMP JUMPDEST PUSH2 0x1A7F JUMP JUMPDEST PUSH1 0x60 PUSH0 PUSH2 0x6FF PUSH0 CALLDATALOAD PUSH1 0x1 PUSH1 0x1 PUSH1 0xE0 SHL SUB NOT AND PUSH2 0x1AEC JUMP JUMPDEST POP SWAP1 POP PUSH1 0x1 PUSH1 0x1 PUSH1 0xA0 SHL SUB DUP2 AND PUSH2 0x736 JUMPI PUSH1 0x40 MLOAD PUSH4 0xBB370B2B PUSH1 0xE0 SHL DUP2 MSTORE PUSH1 0x1 PUSH1 0x1 PUSH1 0xE0 SHL SUB NOT PUSH0 CALLDATALOAD AND PUSH1 0x4 DUP3 ADD MSTORE PUSH1 0x24 ADD PUSH2 0x233 JUMP JUMPDEST PUSH0 PUSH0 DUP3 PUSH1 0x1 PUSH1 0x1 PUSH1 0xA0 SHL SUB AND CALLVALUE DUP8 DUP8 CALLER CALLVALUE PUSH1 0x40 MLOAD PUSH1 0x20 ADD PUSH2 0x75A SWAP5 SWAP4 SWAP3 SWAP2 SWAP1 PUSH2 0x37C4 JUMP JUMPDEST PUSH1 0x40 DUP1 MLOAD PUSH1 0x1F NOT DUP2 DUP5 SUB ADD DUP2 MSTORE SWAP1 DUP3 SWAP1 MSTORE PUSH2 0x774 SWAP2 PUSH2 0x37EF JUMP JUMPDEST PUSH0 PUSH1 0x40 MLOAD DUP1 DUP4 SUB DUP2 DUP6 DUP8 GAS CALL SWAP3 POP POP POP RETURNDATASIZE DUP1 PUSH0 DUP2 EQ PUSH2 0x7AE JUMPI PUSH1 0x40 MLOAD SWAP2 POP PUSH1 0x1F NOT PUSH1 0x3F RETURNDATASIZE ADD AND DUP3 ADD PUSH1 0x40 MSTORE RETURNDATASIZE DUP3 MSTORE RETURNDATASIZE PUSH0 PUSH1 0x20 DUP5 ADD RETURNDATACOPY PUSH2 0x7B3 JUMP JUMPDEST PUSH1 0x60 SWAP2 POP JUMPDEST POP SWAP2 POP SWAP2 POP DUP2 ISZERO PUSH2 0x7C8 JUMPI SWAP3 POP PUSH2 0x7D1 SWAP2 POP POP JUMP JUMPDEST DUP1 MLOAD DUP1 PUSH1 0x20 DUP4 ADD REVERT JUMPDEST SWAP3 SWAP2 POP POP JUMP JUMPDEST PUSH0 PUSH1 0x1 PUSH1 0x1 PUSH1 0xE0 SHL SUB NOT DUP3 AND PUSH4 0x1D138B83 PUSH1 0xE1 SHL EQ DUP1 PUSH2 0x7FB JUMPI POP PUSH2 0x7FB DUP3 PUSH2 0x1B68 JUMP JUMPDEST DUP1 PUSH2 0x7D1 JUMPI POP PUSH2 0x7D1 DUP3 PUSH2 0x1B8C JUMP JUMPDEST PUSH1 0x8 SLOAD PUSH1 0x1 PUSH1 0x1 PUSH1 0xA0 SHL SUB AND CALLER EQ PUSH2 0x851 JUMPI PUSH1 0x40 MLOAD PUSH3 0x461BCD PUSH1 0xE5 SHL DUP2 MSTORE PUSH1 0x20 PUSH1 0x4 DUP3 ADD MSTORE PUSH1 0xA PUSH1 0x24 DUP3 ADD MSTORE PUSH10 0x139BDD081C195C9B5A5D PUSH1 0xB2 SHL PUSH1 0x44 DUP3 ADD MSTORE PUSH1 0x64 ADD PUSH2 0x233 JUMP JUMPDEST PUSH2 0x85A DUP2 PUSH2 0x1BC1 JUMP JUMPDEST POP JUMP JUMPDEST PUSH2 0x865 PUSH2 0x1C10 JUMP JUMPDEST PUSH1 0x9 PUSH2 0x871 DUP3 DUP3 PUSH2 0x387B JUMP JUMPDEST POP PUSH0 DUP1 SLOAD PUSH1 0x40 MLOAD PUSH1 0x1 PUSH1 0x1 PUSH1 0xA0 SHL SUB SWAP1 SWAP2 AND SWAP2 PUSH32 0x52DFE4FD4C28A03CD8AB0AF4995F1CAF006268A90C0E57CBD291D33F358FBC2F SWAP2 LOG2 POP JUMP JUMPDEST PUSH1 0x60 PUSH2 0x8B6 DUP4 DUP4 PUSH2 0x1C69 JUMP JUMPDEST SWAP4 SWAP3 POP POP POP JUMP JUMPDEST PUSH1 0x60 DUP2 MLOAD DUP4 MLOAD EQ PUSH2 0x8E1 JUMPI PUSH1 0x40 MLOAD PUSH4 0x17D38EFF PUSH1 0xE1 SHL DUP2 MSTORE PUSH1 0x4 ADD PUSH1 0x40 MLOAD DUP1 SWAP2 SUB SWAP1 REVERT JUMPDEST DUP3 MLOAD PUSH1 0x1 PUSH1 0x1 PUSH1 0x40 SHL SUB DUP2 GT ISZERO PUSH2 0x8FA JUMPI PUSH2 0x8FA PUSH2 0x2C32 JUMP JUMPDEST PUSH1 0x40 MLOAD SWAP1 DUP1 DUP3 MSTORE DUP1 PUSH1 0x20 MUL PUSH1 0x20 ADD DUP3 ADD PUSH1 0x40 MSTORE DUP1 ISZERO PUSH2 0x92D JUMPI DUP2 PUSH1 0x20 ADD JUMPDEST PUSH1 0x60 DUP2 MSTORE PUSH1 0x20 ADD SWAP1 PUSH1 0x1 SWAP1 SUB SWAP1 DUP2 PUSH2 0x918 JUMPI SWAP1 POP JUMPDEST POP SWAP1 POP PUSH0 JUMPDEST DUP4 MLOAD DUP2 LT ISZERO PUSH2 0x99C JUMPI PUSH2 0x977 DUP5 DUP3 DUP2 MLOAD DUP2 LT PUSH2 0x950 JUMPI PUSH2 0x950 PUSH2 0x3935 JUMP JUMPDEST PUSH1 0x20 MUL PUSH1 0x20 ADD ADD MLOAD DUP5 DUP4 DUP2 MLOAD DUP2 LT PUSH2 0x96A JUMPI PUSH2 0x96A PUSH2 0x3935 JUMP JUMPDEST PUSH1 0x20 MUL PUSH1 0x20 ADD ADD MLOAD PUSH2 0x1C69 JUMP JUMPDEST DUP3 DUP3 DUP2 MLOAD DUP2 LT PUSH2 0x989 JUMPI PUSH2 0x989 PUSH2 0x3935 JUMP JUMPDEST PUSH1 0x20 SWAP1 DUP2 MUL SWAP2 SWAP1 SWAP2 ADD ADD MSTORE PUSH1 0x1 ADD PUSH2 0x932 JUMP JUMPDEST POP SWAP3 SWAP2 POP POP JUMP JUMPDEST PUSH0 DUP2 DUP2 MSTORE PUSH1 0x3 PUSH1 0x20 MSTORE PUSH1 0x40 DUP2 KECCAK256 SLOAD PUSH1 0x1 PUSH1 0x1 PUSH1 0xA0 SHL SUB AND DUP1 PUSH2 0x7D1 JUMPI PUSH1 0x40 MLOAD PUSH4 0x5747CD1B PUSH1 0xE1 SHL DUP2 MSTORE PUSH1 0x4 DUP2 ADD DUP5 SWAP1 MSTORE PUSH1 0x24 ADD PUSH2 0x233 JUMP JUMPDEST PUSH0 PUSH2 0x8B6 DUP4 DUP4 PUSH2 0x1D3C JUMP JUMPDEST PUSH1 0x60 PUSH2 0x9F1 DUP3 PUSH2 0x1D77 JUMP JUMPDEST PUSH0 DUP3 DUP2 MSTORE PUSH1 0x5 PUSH1 0x20 MSTORE PUSH1 0x40 SWAP1 KECCAK256 PUSH2 0x7D1 SWAP1 PUSH2 0x1DAE JUMP JUMPDEST PUSH2 0xA11 CALLER DUP5 PUSH2 0x1D3C JUMP JUMPDEST PUSH2 0xA37 JUMPI PUSH1 0x40 MLOAD PUSH4 0x1294D2A9 PUSH1 0xE0 SHL DUP2 MSTORE PUSH1 0x4 DUP2 ADD DUP5 SWAP1 MSTORE CALLER PUSH1 0x24 DUP3 ADD MSTORE PUSH1 0x44 ADD PUSH2 0x233 JUMP JUMPDEST PUSH2 0xA44 DUP6 DUP6 DUP6 DUP6 DUP6 PUSH2 0x1DBA JUMP JUMPDEST POP POP POP POP POP JUMP JUMPDEST PUSH1 0x60 PUSH2 0x7D1 DUP3 PUSH2 0x1F96 JUMP JUMPDEST DUP5 PUSH0 PUSH2 0xA61 DUP3 PUSH2 0x9A3 JUMP JUMPDEST SWAP1 POP CALLER PUSH1 0x1 PUSH1 0x1 PUSH1 0xA0 SHL SUB DUP3 AND EQ DUP1 PUSH2 0xA83 JUMPI POP PUSH0 SLOAD PUSH1 0x1 PUSH1 0x1 PUSH1 0xA0 SHL SUB AND CALLER EQ JUMPDEST PUSH2 0xA9F JUMPI PUSH1 0x40 MLOAD PUSH3 0x461BCD PUSH1 0xE5 SHL DUP2 MSTORE PUSH1 0x4 ADD PUSH2 0x233 SWAP1 PUSH2 0x3949 JUMP JUMPDEST PUSH0 PUSH2 0xAAF DUP8 DUP8 CALLER PUSH1 0x1 DUP10 DUP10 PUSH2 0x2035 JUMP JUMPDEST PUSH0 DUP2 DUP2 MSTORE PUSH1 0x7 PUSH1 0x20 SWAP1 DUP2 MSTORE PUSH1 0x40 DUP1 DUP4 KECCAK256 PUSH1 0x4 ADD DUP1 SLOAD PUSH1 0x1 DUP2 ADD DUP3 SSTORE SWAP1 DUP5 MSTORE SWAP2 DUP4 KECCAK256 SWAP1 SWAP2 ADD DUP4 SWAP1 SSTORE MLOAD SWAP2 SWAP3 POP DUP3 SWAP2 DUP11 SWAP2 PUSH32 0xCA4757636F927657C127875C4F0C0EC6E1F84D4769348F20FFF39486A4BB2C3F SWAP2 LOG3 POP POP POP POP POP POP POP POP JUMP JUMPDEST PUSH1 0x60 DUP2 PUSH1 0x1 PUSH1 0x1 PUSH1 0x40 SHL SUB DUP2 GT ISZERO PUSH2 0xB25 JUMPI PUSH2 0xB25 PUSH2 0x2C32 JUMP JUMPDEST PUSH1 0x40 MLOAD SWAP1 DUP1 DUP3 MSTORE DUP1 PUSH1 0x20 MUL PUSH1 0x20 ADD DUP3 ADD PUSH1 0x40 MSTORE DUP1 ISZERO PUSH2 0xB58 JUMPI DUP2 PUSH1 0x20 ADD JUMPDEST PUSH1 0x60 DUP2 MSTORE PUSH1 0x20 ADD SWAP1 PUSH1 0x1 SWAP1 SUB SWAP1 DUP2 PUSH2 0xB43 JUMPI SWAP1 POP JUMPDEST POP SWAP1 POP PUSH0 JUMPDEST DUP3 DUP2 LT ISZERO PUSH2 0x99C JUMPI PUSH0 DUP1 ADDRESS DUP7 DUP7 DUP6 DUP2 DUP2 LT PUSH2 0xB7A JUMPI PUSH2 0xB7A PUSH2 0x3935 JUMP JUMPDEST SWAP1 POP PUSH1 0x20 MUL DUP2 ADD SWAP1 PUSH2 0xB8C SWAP2 SWAP1 PUSH2 0x3971 JUMP JUMPDEST PUSH1 0x40 MLOAD PUSH2 0xB9A SWAP3 SWAP2 SWAP1 PUSH2 0x39BA JUMP JUMPDEST PUSH0 PUSH1 0x40 MLOAD DUP1 DUP4 SUB DUP2 DUP6 GAS DELEGATECALL SWAP2 POP POP RETURNDATASIZE DUP1 PUSH0 DUP2 EQ PUSH2 0xBD2 JUMPI PUSH1 0x40 MLOAD SWAP2 POP PUSH1 0x1F NOT PUSH1 0x3F RETURNDATASIZE ADD AND DUP3 ADD PUSH1 0x40 MSTORE RETURNDATASIZE DUP3 MSTORE RETURNDATASIZE PUSH0 PUSH1 0x20 DUP5 ADD RETURNDATACOPY PUSH2 0xBD7 JUMP JUMPDEST PUSH1 0x60 SWAP2 POP JUMPDEST POP SWAP2 POP SWAP2 POP DUP2 PUSH2 0xC0D JUMPI DUP1 MLOAD ISZERO PUSH2 0xBF1 JUMPI DUP1 MLOAD DUP1 DUP3 PUSH1 0x20 ADD REVERT JUMPDEST PUSH1 0x40 MLOAD PUSH4 0x234EB819 PUSH1 0xE0 SHL DUP2 MSTORE PUSH1 0x4 DUP2 ADD DUP5 SWAP1 MSTORE PUSH1 0x24 ADD PUSH2 0x233 JUMP JUMPDEST DUP1 DUP5 DUP5 DUP2 MLOAD DUP2 LT PUSH2 0xC20 JUMPI PUSH2 0xC20 PUSH2 0x3935 JUMP JUMPDEST PUSH1 0x20 SWAP1 DUP2 MUL SWAP2 SWAP1 SWAP2 ADD ADD MSTORE POP POP PUSH1 0x1 ADD PUSH2 0xB5D JUMP JUMPDEST PUSH1 0x1 PUSH1 0x1 PUSH1 0xA0 SHL SUB DUP2 AND PUSH0 SWAP1 DUP2 MSTORE PUSH1 0x4 PUSH1 0x20 MSTORE PUSH1 0x40 DUP2 KECCAK256 PUSH2 0x7D1 SWAP1 PUSH2 0x2174 JUMP JUMPDEST PUSH2 0xC5D PUSH2 0x1C10 JUMP JUMPDEST PUSH2 0xC66 PUSH0 PUSH2 0x1BC1 JUMP JUMPDEST JUMP JUMPDEST DUP5 MLOAD DUP5 MLOAD DUP2 EQ ISZERO DUP1 PUSH2 0xC7B JUMPI POP DUP4 MLOAD DUP2 EQ ISZERO JUMPDEST DUP1 PUSH2 0xC87 JUMPI POP DUP3 MLOAD DUP2 EQ ISZERO JUMPDEST DUP1 PUSH2 0xC93 JUMPI POP DUP2 MLOAD DUP2 EQ ISZERO JUMPDEST ISZERO PUSH2 0xCB1 JUMPI PUSH1 0x40 MLOAD PUSH4 0x93A83119 PUSH1 0xE0 SHL DUP2 MSTORE PUSH1 0x4 ADD PUSH1 0x40 MLOAD DUP1 SWAP2 SUB SWAP1 REVERT JUMPDEST PUSH0 JUMPDEST DUP2 DUP2 LT ISZERO PUSH2 0xD4D JUMPI PUSH2 0xD45 DUP8 DUP3 DUP2 MLOAD DUP2 LT PUSH2 0xCD0 JUMPI PUSH2 0xCD0 PUSH2 0x3935 JUMP JUMPDEST PUSH1 0x20 MUL PUSH1 0x20 ADD ADD MLOAD DUP8 DUP4 DUP2 MLOAD DUP2 LT PUSH2 0xCEA JUMPI PUSH2 0xCEA PUSH2 0x3935 JUMP JUMPDEST PUSH1 0x20 MUL PUSH1 0x20 ADD ADD MLOAD DUP8 DUP5 DUP2 MLOAD DUP2 LT PUSH2 0xD04 JUMPI PUSH2 0xD04 PUSH2 0x3935 JUMP JUMPDEST PUSH1 0x20 MUL PUSH1 0x20 ADD ADD MLOAD DUP8 DUP6 DUP2 MLOAD DUP2 LT PUSH2 0xD1E JUMPI PUSH2 0xD1E PUSH2 0x3935 JUMP JUMPDEST PUSH1 0x20 MUL PUSH1 0x20 ADD ADD MLOAD DUP8 DUP7 DUP2 MLOAD DUP2 LT PUSH2 0xD38 JUMPI PUSH2 0xD38 PUSH2 0x3935 JUMP JUMPDEST PUSH1 0x20 MUL PUSH1 0x20 ADD ADD MLOAD PUSH2 0xA07 JUMP JUMPDEST PUSH1 0x1 ADD PUSH2 0xCB3 JUMP JUMPDEST POP POP POP POP POP POP POP JUMP JUMPDEST DUP2 PUSH0 PUSH2 0xD61 DUP3 PUSH2 0x9A3 JUMP JUMPDEST SWAP1 POP CALLER PUSH1 0x1 PUSH1 0x1 PUSH1 0xA0 SHL SUB DUP3 AND EQ DUP1 PUSH2 0xD83 JUMPI POP PUSH0 SLOAD PUSH1 0x1 PUSH1 0x1 PUSH1 0xA0 SHL SUB AND CALLER EQ JUMPDEST PUSH2 0xD9F JUMPI PUSH1 0x40 MLOAD PUSH3 0x461BCD PUSH1 0xE5 SHL DUP2 MSTORE PUSH1 0x4 ADD PUSH2 0x233 SWAP1 PUSH2 0x3949 JUMP JUMPDEST PUSH0 DUP5 DUP2 MSTORE PUSH1 0x7 PUSH1 0x20 MSTORE PUSH1 0x40 DUP2 KECCAK256 SWAP1 JUMPDEST PUSH1 0x4 DUP3 ADD SLOAD DUP2 LT ISZERO PUSH2 0xE9D JUMPI DUP5 DUP3 PUSH1 0x4 ADD DUP3 DUP2 SLOAD DUP2 LT PUSH2 0xDD0 JUMPI PUSH2 0xDD0 PUSH2 0x3935 JUMP JUMPDEST SWAP1 PUSH0 MSTORE PUSH1 0x20 PUSH0 KECCAK256 ADD SLOAD SUB PUSH2 0xE95 JUMPI PUSH1 0x4 DUP3 ADD SLOAD PUSH0 SWAP1 PUSH2 0xDF1 SWAP1 PUSH1 0x1 SWAP1 PUSH2 0x39DD JUMP JUMPDEST SWAP1 POP DUP1 DUP3 EQ PUSH2 0xE39 JUMPI DUP3 PUSH1 0x4 ADD DUP2 DUP2 SLOAD DUP2 LT PUSH2 0xE0F JUMPI PUSH2 0xE0F PUSH2 0x3935 JUMP JUMPDEST SWAP1 PUSH0 MSTORE PUSH1 0x20 PUSH0 KECCAK256 ADD SLOAD DUP4 PUSH1 0x4 ADD DUP4 DUP2 SLOAD DUP2 LT PUSH2 0xE2D JUMPI PUSH2 0xE2D PUSH2 0x3935 JUMP JUMPDEST PUSH0 SWAP2 DUP3 MSTORE PUSH1 0x20 SWAP1 SWAP2 KECCAK256 ADD SSTORE JUMPDEST DUP3 PUSH1 0x4 ADD DUP1 SLOAD DUP1 PUSH2 0xE4C JUMPI PUSH2 0xE4C PUSH2 0x39F0 JUMP JUMPDEST PUSH1 0x1 SWAP1 SUB DUP2 DUP2 SWAP1 PUSH0 MSTORE PUSH1 0x20 PUSH0 KECCAK256 ADD PUSH0 SWAP1 SSTORE SWAP1 SSTORE DUP6 DUP8 PUSH32 0xF1387B2F8963CA7947C75FAA29A4C7DE0859D44C5F9A658761ACBDC5D539976B PUSH1 0x40 MLOAD PUSH1 0x40 MLOAD DUP1 SWAP2 SUB SWAP1 LOG3 POP POP POP PUSH2 0xED9 JUMP JUMPDEST PUSH1 0x1 ADD PUSH2 0xDAE JUMP JUMPDEST POP PUSH1 0x40 MLOAD PUSH3 0x461BCD PUSH1 0xE5 SHL DUP2 MSTORE PUSH1 0x20 PUSH1 0x4 DUP3 ADD MSTORE PUSH1 0x10 PUSH1 0x24 DUP3 ADD MSTORE PUSH16 0x14DC1BDD5CD9481B9BDD08199BDD5B99 PUSH1 0x82 SHL PUSH1 0x44 DUP3 ADD MSTORE PUSH1 0x64 ADD PUSH2 0x233 JUMP JUMPDEST POP POP POP POP JUMP JUMPDEST PUSH2 0xEE7 PUSH2 0x1C10 JUMP JUMPDEST CALLVALUE ISZERO PUSH2 0xF06 JUMPI PUSH1 0x40 MLOAD PUSH4 0xF36BA737 PUSH1 0xE0 SHL DUP2 MSTORE PUSH1 0x4 ADD PUSH1 0x40 MLOAD DUP1 SWAP2 SUB SWAP1 REVERT JUMPDEST PUSH2 0xF10 DUP3 DUP3 PUSH2 0x217D JUMP JUMPDEST POP POP JUMP JUMPDEST PUSH0 PUSH2 0xF1E DUP4 PUSH2 0x9A3 JUMP JUMPDEST SWAP1 POP PUSH1 0x1 PUSH1 0x1 PUSH1 0xA0 SHL SUB DUP2 AND CALLER EQ PUSH2 0xF61 JUMPI PUSH1 0x40 MLOAD PUSH4 0x2D938F51 PUSH1 0xE1 SHL DUP2 MSTORE PUSH1 0x1 PUSH1 0x1 PUSH1 0xA0 SHL SUB DUP3 AND PUSH1 0x4 DUP3 ADD MSTORE PUSH1 0x24 DUP2 ADD DUP5 SWAP1 MSTORE CALLER PUSH1 0x44 DUP3 ADD MSTORE PUSH1 0x64 ADD PUSH2 0x233 JUMP JUMPDEST PUSH1 0x1 PUSH1 0x1 PUSH1 0xA0 SHL SUB DUP5 AND PUSH2 0xF88 JUMPI PUSH1 0x40 MLOAD PUSH4 0x9577B8B3 PUSH1 0xE0 SHL DUP2 MSTORE PUSH1 0x4 ADD PUSH1 0x40 MLOAD DUP1 SWAP2 SUB SWAP1 REVERT JUMPDEST DUP4 PUSH1 0x1 PUSH1 0x1 PUSH1 0xA0 SHL SUB AND DUP2 PUSH1 0x1 PUSH1 0x1 PUSH1 0xA0 SHL SUB AND SUB PUSH2 0xFBA JUMPI PUSH1 0x40 MLOAD PUSH4 0x44FED6B1 PUSH1 0xE1 SHL DUP2 MSTORE PUSH1 0x4 ADD PUSH1 0x40 MLOAD DUP1 SWAP2 SUB SWAP1 REVERT JUMPDEST PUSH0 DUP4 DUP2 MSTORE PUSH1 0x5 PUSH1 0x20 MSTORE PUSH1 0x40 DUP2 KECCAK256 PUSH2 0xFD1 SWAP1 DUP7 PUSH2 0x21C7 JUMP JUMPDEST SWAP1 POP DUP1 PUSH2 0x1003 JUMPI PUSH1 0x40 MLOAD PUSH4 0x14EC4D6D PUSH1 0xE3 SHL DUP2 MSTORE PUSH1 0x1 PUSH1 0x1 PUSH1 0xA0 SHL SUB DUP7 AND PUSH1 0x4 DUP3 ADD MSTORE PUSH1 0x24 DUP2 ADD DUP6 SWAP1 MSTORE PUSH1 0x44 ADD PUSH2 0x233 JUMP JUMPDEST DUP4 DUP3 PUSH1 0x1 PUSH1 0x1 PUSH1 0xA0 SHL SUB AND DUP7 PUSH1 0x1 PUSH1 0x1 PUSH1 0xA0 SHL SUB AND PUSH32 0x1B1B58AA2EC0CEC2228B2D37124556D41F5A1F7B12F089171F896CC236671215 DUP7 PUSH1 0x40 MLOAD PUSH2 0x1047 SWAP2 SWAP1 PUSH2 0x2D6F JUMP JUMPDEST PUSH1 0x40 MLOAD DUP1 SWAP2 SUB SWAP1 LOG4 PUSH0 CALLER DUP6 PUSH1 0x1 DUP7 PUSH1 0x40 MLOAD PUSH1 0x20 ADD PUSH2 0x1068 SWAP5 SWAP4 SWAP3 SWAP2 SWAP1 PUSH2 0x3A04 JUMP JUMPDEST PUSH1 0x40 MLOAD PUSH1 0x20 DUP2 DUP4 SUB SUB DUP2 MSTORE SWAP1 PUSH1 0x40 MSTORE SWAP1 POP PUSH2 0x1083 DUP7 DUP3 PUSH2 0x21DB JUMP JUMPDEST POP POP POP POP POP POP JUMP JUMPDEST DUP2 PUSH0 PUSH2 0x1096 DUP3 PUSH2 0x9A3 JUMP JUMPDEST SWAP1 POP CALLER PUSH1 0x1 PUSH1 0x1 PUSH1 0xA0 SHL SUB DUP3 AND EQ DUP1 PUSH2 0x10B8 JUMPI POP PUSH0 SLOAD PUSH1 0x1 PUSH1 0x1 PUSH1 0xA0 SHL SUB AND CALLER EQ JUMPDEST PUSH2 0x10D4 JUMPI PUSH1 0x40 MLOAD PUSH3 0x461BCD PUSH1 0xE5 SHL DUP2 MSTORE PUSH1 0x4 ADD PUSH2 0x233 SWAP1 PUSH2 0x3949 JUMP JUMPDEST PUSH0 DUP5 DUP2 MSTORE PUSH1 0x7 PUSH1 0x20 MSTORE PUSH1 0x40 DUP1 DUP3 KECCAK256 DUP6 DUP4 MSTORE SWAP2 KECCAK256 PUSH1 0x1 DUP2 ADD SLOAD DUP7 EQ PUSH2 0x113A JUMPI PUSH1 0x40 MLOAD PUSH3 0x461BCD PUSH1 0xE5 SHL DUP2 MSTORE PUSH1 0x20 PUSH1 0x4 DUP3 ADD MSTORE PUSH1 0x18 PUSH1 0x24 DUP3 ADD MSTORE PUSH32 0x4E6F74206368696C64206F66207468697320706572736F6E0000000000000000 PUSH1 0x44 DUP3 ADD MSTORE PUSH1 0x64 ADD PUSH2 0x233 JUMP JUMPDEST PUSH0 JUMPDEST PUSH1 0x3 DUP4 ADD SLOAD DUP2 LT ISZERO PUSH2 0x1235 JUMPI DUP6 DUP4 PUSH1 0x3 ADD DUP3 DUP2 SLOAD DUP2 LT PUSH2 0x115E JUMPI PUSH2 0x115E PUSH2 0x3935 JUMP JUMPDEST SWAP1 PUSH0 MSTORE PUSH1 0x20 PUSH0 KECCAK256 ADD SLOAD SUB PUSH2 0x122D JUMPI PUSH1 0x3 DUP4 ADD SLOAD PUSH0 SWAP1 PUSH2 0x117F SWAP1 PUSH1 0x1 SWAP1 PUSH2 0x39DD JUMP JUMPDEST SWAP1 POP DUP1 DUP3 EQ PUSH2 0x11C7 JUMPI DUP4 PUSH1 0x3 ADD DUP2 DUP2 SLOAD DUP2 LT PUSH2 0x119D JUMPI PUSH2 0x119D PUSH2 0x3935 JUMP JUMPDEST SWAP1 PUSH0 MSTORE PUSH1 0x20 PUSH0 KECCAK256 ADD SLOAD DUP5 PUSH1 0x3 ADD DUP4 DUP2 SLOAD DUP2 LT PUSH2 0x11BB JUMPI PUSH2 0x11BB PUSH2 0x3935 JUMP JUMPDEST PUSH0 SWAP2 DUP3 MSTORE PUSH1 0x20 SWAP1 SWAP2 KECCAK256 ADD SSTORE JUMPDEST DUP4 PUSH1 0x3 ADD DUP1 SLOAD DUP1 PUSH2 0x11DA JUMPI PUSH2 0x11DA PUSH2 0x39F0 JUMP JUMPDEST PUSH0 DUP3 DUP2 MSTORE PUSH1 0x20 DUP2 KECCAK256 DUP3 ADD PUSH0 NOT SWAP1 DUP2 ADD DUP3 SWAP1 SSTORE SWAP1 SWAP2 ADD SWAP1 SWAP2 SSTORE PUSH1 0x1 DUP5 ADD DUP2 SWAP1 SSTORE PUSH1 0x40 MLOAD DUP9 SWAP2 DUP11 SWAP2 PUSH32 0xD22EF99C12AEAECAC27F6067207B23AC6A9AE5F21E97134B39E98320AA04FA5D SWAP2 SWAP1 LOG3 POP POP POP POP PUSH2 0xED9 JUMP JUMPDEST PUSH1 0x1 ADD PUSH2 0x113C JUMP JUMPDEST POP PUSH1 0x40 MLOAD PUSH3 0x461BCD PUSH1 0xE5 SHL DUP2 MSTORE PUSH1 0x20 PUSH1 0x4 DUP3 ADD MSTORE PUSH1 0xF PUSH1 0x24 DUP3 ADD MSTORE PUSH15 0x10DA1A5B19081B9BDD08199BDD5B99 PUSH1 0x8A SHL PUSH1 0x44 DUP3 ADD MSTORE PUSH1 0x64 ADD PUSH2 0x233 JUMP JUMPDEST PUSH2 0x1278 PUSH2 0x2B25 JUMP JUMPDEST PUSH0 DUP3 DUP2 MSTORE PUSH1 0x7 PUSH1 0x20 MSTORE PUSH1 0x40 SWAP1 DUP2 SWAP1 KECCAK256 DUP2 MLOAD PUSH2 0x120 DUP2 ADD SWAP1 SWAP3 MSTORE DUP1 SLOAD DUP3 SWAP1 DUP3 SWAP1 PUSH2 0x12A0 SWAP1 PUSH2 0x3805 JUMP JUMPDEST DUP1 PUSH1 0x1F ADD PUSH1 0x20 DUP1 SWAP2 DIV MUL PUSH1 0x20 ADD PUSH1 0x40 MLOAD SWAP1 DUP2 ADD PUSH1 0x40 MSTORE DUP1 SWAP3 SWAP2 SWAP1 DUP2 DUP2 MSTORE PUSH1 0x20 ADD DUP3 DUP1 SLOAD PUSH2 0x12CC SWAP1 PUSH2 0x3805 JUMP JUMPDEST DUP1 ISZERO PUSH2 0x1317 JUMPI DUP1 PUSH1 0x1F LT PUSH2 0x12EE JUMPI PUSH2 0x100 DUP1 DUP4 SLOAD DIV MUL DUP4 MSTORE SWAP2 PUSH1 0x20 ADD SWAP2 PUSH2 0x1317 JUMP JUMPDEST DUP3 ADD SWAP2 SWAP1 PUSH0 MSTORE PUSH1 0x20 PUSH0 KECCAK256 SWAP1 JUMPDEST DUP2 SLOAD DUP2 MSTORE SWAP1 PUSH1 0x1 ADD SWAP1 PUSH1 0x20 ADD DUP1 DUP4 GT PUSH2 0x12FA JUMPI DUP3 SWAP1 SUB PUSH1 0x1F AND DUP3 ADD SWAP2 JUMPDEST POP POP POP POP POP DUP2 MSTORE PUSH1 0x20 ADD PUSH1 0x1 DUP3 ADD SLOAD DUP2 MSTORE PUSH1 0x20 ADD PUSH1 0x2 DUP3 ADD SLOAD DUP2 MSTORE PUSH1 0x20 ADD PUSH1 0x3 DUP3 ADD DUP1 SLOAD DUP1 PUSH1 0x20 MUL PUSH1 0x20 ADD PUSH1 0x40 MLOAD SWAP1 DUP2 ADD PUSH1 0x40 MSTORE DUP1 SWAP3 SWAP2 SWAP1 DUP2 DUP2 MSTORE PUSH1 0x20 ADD DUP3 DUP1 SLOAD DUP1 ISZERO PUSH2 0x1381 JUMPI PUSH1 0x20 MUL DUP3 ADD SWAP2 SWAP1 PUSH0 MSTORE PUSH1 0x20 PUSH0 KECCAK256 SWAP1 JUMPDEST DUP2 SLOAD DUP2 MSTORE PUSH1 0x20 ADD SWAP1 PUSH1 0x1 ADD SWAP1 DUP1 DUP4 GT PUSH2 0x136D JUMPI JUMPDEST POP POP POP POP POP DUP2 MSTORE PUSH1 0x20 ADD PUSH1 0x4 DUP3 ADD DUP1 SLOAD DUP1 PUSH1 0x20 MUL PUSH1 0x20 ADD PUSH1 0x40 MLOAD SWAP1 DUP2 ADD PUSH1 0x40 MSTORE DUP1 SWAP3 SWAP2 SWAP1 DUP2 DUP2 MSTORE PUSH1 0x20 ADD DUP3 DUP1 SLOAD DUP1 ISZERO PUSH2 0x13D7 JUMPI PUSH1 0x20 MUL DUP3 ADD SWAP2 SWAP1 PUSH0 MSTORE PUSH1 0x20 PUSH0 KECCAK256 SWAP1 JUMPDEST DUP2 SLOAD DUP2 MSTORE PUSH1 0x20 ADD SWAP1 PUSH1 0x1 ADD SWAP1 DUP1 DUP4 GT PUSH2 0x13C3 JUMPI JUMPDEST POP POP POP SWAP2 DUP4 MSTORE POP POP PUSH1 0x5 DUP3 ADD SLOAD PUSH1 0x20 SWAP1 SWAP2 ADD SWAP1 PUSH1 0xFF AND PUSH1 0x2 DUP2 GT ISZERO PUSH2 0x13FE JUMPI PUSH2 0x13FE PUSH2 0x3435 JUMP JUMPDEST PUSH1 0x2 DUP2 GT ISZERO PUSH2 0x140F JUMPI PUSH2 0x140F PUSH2 0x3435 JUMP JUMPDEST DUP2 MSTORE PUSH1 0x40 DUP1 MLOAD PUSH1 0x60 DUP1 DUP3 ADD DUP4 MSTORE PUSH1 0x6 DUP6 ADD SLOAD PUSH1 0xFF DUP1 DUP3 AND DUP5 MSTORE PUSH2 0x100 DUP1 DUP4 DIV DUP3 AND PUSH1 0x20 DUP7 DUP2 ADD SWAP2 SWAP1 SWAP2 MSTORE PUSH2 0xFFFF PUSH3 0x10000 SWAP5 DUP6 SWAP1 DIV DUP2 AND DUP8 DUP10 ADD MSTORE DUP2 DUP10 ADD SWAP7 SWAP1 SWAP7 MSTORE DUP7 MLOAD DUP1 DUP7 ADD DUP9 MSTORE PUSH1 0x7 DUP11 ADD SLOAD DUP1 DUP6 AND DUP3 MSTORE SWAP3 DUP4 DIV SWAP1 SWAP4 AND SWAP1 DUP4 ADD MSTORE SWAP2 SWAP1 SWAP2 DIV SWAP1 SWAP3 AND DUP3 DUP5 ADD MSTORE SWAP2 DUP4 ADD MSTORE PUSH1 0x8 DUP4 ADD DUP1 SLOAD SWAP2 SWAP1 SWAP3 ADD SWAP2 SWAP1 PUSH2 0x1490 SWAP1 PUSH2 0x3805 JUMP JUMPDEST DUP1 PUSH1 0x1F ADD PUSH1 0x20 DUP1 SWAP2 DIV MUL PUSH1 0x20 ADD PUSH1 0x40 MLOAD SWAP1 DUP2 ADD PUSH1 0x40 MSTORE DUP1 SWAP3 SWAP2 SWAP1 DUP2 DUP2 MSTORE PUSH1 0x20 ADD DUP3 DUP1 SLOAD PUSH2 0x14BC SWAP1 PUSH2 0x3805 JUMP JUMPDEST DUP1 ISZERO PUSH2 0x1507 JUMPI DUP1 PUSH1 0x1F LT PUSH2 0x14DE JUMPI PUSH2 0x100 DUP1 DUP4 SLOAD DIV MUL DUP4 MSTORE SWAP2 PUSH1 0x20 ADD SWAP2 PUSH2 0x1507 JUMP JUMPDEST DUP3 ADD SWAP2 SWAP1 PUSH0 MSTORE PUSH1 0x20 PUSH0 KECCAK256 SWAP1 JUMPDEST DUP2 SLOAD DUP2 MSTORE SWAP1 PUSH1 0x1 ADD SWAP1 PUSH1 0x20 ADD DUP1 DUP4 GT PUSH2 0x14EA JUMPI DUP3 SWAP1 SUB PUSH1 0x1F AND DUP3 ADD SWAP2 JUMPDEST POP POP POP POP POP DUP2 MSTORE POP POP SWAP1 POP SWAP2 SWAP1 POP JUMP JUMPDEST PUSH2 0x151F PUSH2 0x1C10 JUMP JUMPDEST CALLVALUE ISZERO PUSH2 0x153E JUMPI PUSH1 0x40 MLOAD PUSH4 0xF36BA737 PUSH1 0xE0 SHL DUP2 MSTORE PUSH1 0x4 ADD PUSH1 0x40 MLOAD DUP1 SWAP2 SUB SWAP1 REVERT JUMPDEST PUSH2 0xF10 DUP3 DUP3 PUSH2 0x2206 JUMP JUMPDEST DUP5 PUSH0 PUSH2 0x1553 DUP3 PUSH2 0x9A3 JUMP JUMPDEST SWAP1 POP CALLER PUSH1 0x1 PUSH1 0x1 PUSH1 0xA0 SHL SUB DUP3 AND EQ DUP1 PUSH2 0x1575 JUMPI POP PUSH0 SLOAD PUSH1 0x1 PUSH1 0x1 PUSH1 0xA0 SHL SUB AND CALLER EQ JUMPDEST PUSH2 0x1591 JUMPI PUSH1 0x40 MLOAD PUSH3 0x461BCD PUSH1 0xE5 SHL DUP2 MSTORE PUSH1 0x4 ADD PUSH2 0x233 SWAP1 PUSH2 0x3949 JUMP JUMPDEST PUSH0 DUP8 DUP2 MSTORE PUSH1 0x7 PUSH1 0x20 MSTORE PUSH1 0x40 SWAP1 KECCAK256 DUP1 PUSH2 0x15A9 DUP9 DUP3 PUSH2 0x387B JUMP JUMPDEST POP DUP5 MLOAD PUSH1 0x6 DUP3 ADD DUP1 SLOAD PUSH1 0x20 DUP1 DUP10 ADD MLOAD PUSH1 0x40 DUP1 DUP12 ADD MLOAD PUSH1 0xFF SWAP7 DUP8 AND PUSH2 0xFFFF NOT SWAP6 DUP7 AND OR PUSH2 0x100 SWAP4 DUP9 AND DUP5 MUL OR PUSH4 0xFFFF0000 NOT SWAP1 DUP2 AND PUSH3 0x10000 PUSH2 0xFFFF SWAP4 DUP5 AND DUP2 MUL SWAP2 SWAP1 SWAP2 OR SWAP1 SWAP8 SSTORE DUP12 MLOAD PUSH1 0x7 DUP11 ADD DUP1 SLOAD SWAP7 DUP15 ADD MLOAD SWAP5 DUP15 ADD MLOAD SWAP2 DUP11 AND SWAP7 SWAP1 SWAP8 AND SWAP6 SWAP1 SWAP6 OR SWAP3 SWAP1 SWAP8 AND SWAP1 SWAP3 MUL OR SWAP1 SWAP5 AND SWAP4 AND SWAP1 SWAP2 MUL SWAP2 SWAP1 SWAP2 OR SWAP1 SSTORE PUSH1 0x8 DUP2 ADD PUSH2 0x162F DUP8 DUP3 PUSH2 0x387B JUMP JUMPDEST POP PUSH1 0x40 MLOAD DUP9 SWAP1 PUSH32 0x88B778B9AA1C8317C051D681D7E71C9F3E40C539FBAF5CADFD37476C1B15DEC SWAP1 PUSH0 SWAP1 LOG2 POP POP POP POP POP POP POP POP JUMP JUMPDEST PUSH1 0x1 PUSH1 0x1 PUSH1 0xA0 SHL SUB DUP2 AND PUSH0 SWAP1 DUP2 MSTORE PUSH1 0x4 PUSH1 0x20 MSTORE PUSH1 0x40 SWAP1 KECCAK256 PUSH1 0x60 SWAP1 PUSH2 0x7D1 SWAP1 PUSH2 0x1DAE JUMP JUMPDEST PUSH2 0x168F PUSH2 0x1C10 JUMP JUMPDEST DUP2 MLOAD DUP4 MLOAD EQ ISZERO DUP1 PUSH2 0x16A2 JUMPI POP DUP1 MLOAD DUP3 MLOAD EQ ISZERO JUMPDEST ISZERO PUSH2 0x16C0 JUMPI PUSH1 0x40 MLOAD PUSH4 0x17D38EFF PUSH1 0xE1 SHL DUP2 MSTORE PUSH1 0x4 ADD PUSH1 0x40 MLOAD DUP1 SWAP2 SUB SWAP1 REVERT JUMPDEST DUP3 MLOAD PUSH0 SUB PUSH2 0x16E1 JUMPI PUSH1 0x40 MLOAD PUSH4 0x80C98305 PUSH1 0xE0 SHL DUP2 MSTORE PUSH1 0x4 ADD PUSH1 0x40 MLOAD DUP1 SWAP2 SUB SWAP1 REVERT JUMPDEST PUSH0 JUMPDEST DUP4 MLOAD DUP2 LT ISZERO PUSH2 0xED9 JUMPI PUSH2 0x1742 DUP5 DUP3 DUP2 MLOAD DUP2 LT PUSH2 0x1701 JUMPI PUSH2 0x1701 PUSH2 0x3935 JUMP JUMPDEST PUSH1 0x20 MUL PUSH1 0x20 ADD ADD MLOAD DUP5 DUP4 DUP2 MLOAD DUP2 LT PUSH2 0x171B JUMPI PUSH2 0x171B PUSH2 0x3935 JUMP JUMPDEST PUSH1 0x20 MUL PUSH1 0x20 ADD ADD MLOAD DUP5 DUP5 DUP2 MLOAD DUP2 LT PUSH2 0x1735 JUMPI PUSH2 0x1735 PUSH2 0x3935 JUMP JUMPDEST PUSH1 0x20 MUL PUSH1 0x20 ADD ADD MLOAD PUSH2 0x229D JUMP JUMPDEST PUSH1 0x1 ADD PUSH2 0x16E3 JUMP JUMPDEST DUP3 PUSH0 PUSH2 0x1755 DUP3 PUSH2 0x9A3 JUMP JUMPDEST SWAP1 POP CALLER PUSH1 0x1 PUSH1 0x1 PUSH1 0xA0 SHL SUB DUP3 AND EQ DUP1 PUSH2 0x1777 JUMPI POP PUSH0 SLOAD PUSH1 0x1 PUSH1 0x1 PUSH1 0xA0 SHL SUB AND CALLER EQ JUMPDEST PUSH2 0x1793 JUMPI PUSH1 0x40 MLOAD PUSH3 0x461BCD PUSH1 0xE5 SHL DUP2 MSTORE PUSH1 0x4 ADD PUSH2 0x233 SWAP1 PUSH2 0x3949 JUMP JUMPDEST PUSH2 0xA44 DUP6 DUP6 DUP6 PUSH2 0x229D JUMP JUMPDEST PUSH0 PUSH2 0x17A8 DUP5 PUSH2 0x9A3 JUMP JUMPDEST SWAP1 POP CALLER PUSH1 0x1 PUSH1 0x1 PUSH1 0xA0 SHL SUB DUP3 AND EQ PUSH2 0x17FB JUMPI PUSH1 0x1 PUSH1 0x1 PUSH1 0xA0 SHL SUB DUP6 AND CALLER EQ PUSH2 0x17FB JUMPI PUSH1 0x40 MLOAD PUSH4 0x760B5ACD PUSH1 0xE0 SHL DUP2 MSTORE CALLER PUSH1 0x4 DUP3 ADD MSTORE PUSH1 0x1 PUSH1 0x1 PUSH1 0xA0 SHL SUB DUP3 AND PUSH1 0x24 DUP3 ADD MSTORE PUSH1 0x44 DUP2 ADD DUP6 SWAP1 MSTORE PUSH1 0x64 ADD PUSH2 0x233 JUMP JUMPDEST PUSH1 0x1 PUSH1 0x1 PUSH1 0xA0 SHL SUB DUP6 AND PUSH2 0x1822 JUMPI PUSH1 0x40 MLOAD PUSH4 0x9577B8B3 PUSH1 0xE0 SHL DUP2 MSTORE PUSH1 0x4 ADD PUSH1 0x40 MLOAD DUP1 SWAP2 SUB SWAP1 REVERT JUMPDEST DUP5 PUSH1 0x1 PUSH1 0x1 PUSH1 0xA0 SHL SUB AND DUP2 PUSH1 0x1 PUSH1 0x1 PUSH1 0xA0 SHL SUB AND SUB PUSH2 0x1854 JUMPI PUSH1 0x40 MLOAD PUSH4 0x44FED6B1 PUSH1 0xE1 SHL DUP2 MSTORE PUSH1 0x4 ADD PUSH1 0x40 MLOAD DUP1 SWAP2 SUB SWAP1 REVERT JUMPDEST PUSH2 0x1861 DUP6 DUP3 DUP7 DUP7 DUP7 PUSH2 0x232B JUMP JUMPDEST DUP3 ISZERO PUSH2 0xA44 JUMPI PUSH0 DUP2 DUP6 PUSH0 DUP6 PUSH1 0x40 MLOAD PUSH1 0x20 ADD PUSH2 0x1068 SWAP5 SWAP4 SWAP3 SWAP2 SWAP1 PUSH2 0x3A04 JUMP JUMPDEST PUSH1 0x60 DUP2 MLOAD PUSH1 0x1 PUSH1 0x1 PUSH1 0x40 SHL SUB DUP2 GT ISZERO PUSH2 0x189A JUMPI PUSH2 0x189A PUSH2 0x2C32 JUMP JUMPDEST PUSH1 0x40 MLOAD SWAP1 DUP1 DUP3 MSTORE DUP1 PUSH1 0x20 MUL PUSH1 0x20 ADD DUP3 ADD PUSH1 0x40 MSTORE DUP1 ISZERO PUSH2 0x18CD JUMPI DUP2 PUSH1 0x20 ADD JUMPDEST PUSH1 0x60 DUP2 MSTORE PUSH1 0x20 ADD SWAP1 PUSH1 0x1 SWAP1 SUB SWAP1 DUP2 PUSH2 0x18B8 JUMPI SWAP1 POP JUMPDEST POP SWAP1 POP PUSH0 JUMPDEST DUP3 MLOAD DUP2 LT ISZERO PUSH2 0x1922 JUMPI PUSH2 0x18FD DUP4 DUP3 DUP2 MLOAD DUP2 LT PUSH2 0x18F0 JUMPI PUSH2 0x18F0 PUSH2 0x3935 JUMP JUMPDEST PUSH1 0x20 MUL PUSH1 0x20 ADD ADD MLOAD PUSH2 0x1F96 JUMP JUMPDEST DUP3 DUP3 DUP2 MLOAD DUP2 LT PUSH2 0x190F JUMPI PUSH2 0x190F PUSH2 0x3935 JUMP JUMPDEST PUSH1 0x20 SWAP1 DUP2 MUL SWAP2 SWAP1 SWAP2 ADD ADD MSTORE PUSH1 0x1 ADD PUSH2 0x18D2 JUMP JUMPDEST POP SWAP2 SWAP1 POP JUMP JUMPDEST PUSH1 0x9 DUP1 SLOAD PUSH2 0x1935 SWAP1 PUSH2 0x3805 JUMP JUMPDEST DUP1 PUSH1 0x1F ADD PUSH1 0x20 DUP1 SWAP2 DIV MUL PUSH1 0x20 ADD PUSH1 0x40 MLOAD SWAP1 DUP2 ADD PUSH1 0x40 MSTORE DUP1 SWAP3 SWAP2 SWAP1 DUP2 DUP2 MSTORE PUSH1 0x20 ADD DUP3 DUP1 SLOAD PUSH2 0x1961 SWAP1 PUSH2 0x3805 JUMP JUMPDEST DUP1 ISZERO PUSH2 0x19AC JUMPI DUP1 PUSH1 0x1F LT PUSH2 0x1983 JUMPI PUSH2 0x100 DUP1 DUP4 SLOAD DIV MUL DUP4 MSTORE SWAP2 PUSH1 0x20 ADD SWAP2 PUSH2 0x19AC JUMP JUMPDEST DUP3 ADD SWAP2 SWAP1 PUSH0 MSTORE PUSH1 0x20 PUSH0 KECCAK256 SWAP1 JUMPDEST DUP2 SLOAD DUP2 MSTORE SWAP1 PUSH1 0x1 ADD SWAP1 PUSH1 0x20 ADD DUP1 DUP4 GT PUSH2 0x198F JUMPI DUP3 SWAP1 SUB PUSH1 0x1F AND DUP3 ADD SWAP2 JUMPDEST POP POP POP POP POP DUP2 JUMP JUMPDEST DUP6 PUSH0 PUSH2 0x19BF DUP3 PUSH2 0x9A3 JUMP JUMPDEST SWAP1 POP CALLER PUSH1 0x1 PUSH1 0x1 PUSH1 0xA0 SHL SUB DUP3 AND EQ DUP1 PUSH2 0x19E1 JUMPI POP PUSH0 SLOAD PUSH1 0x1 PUSH1 0x1 PUSH1 0xA0 SHL SUB AND CALLER EQ JUMPDEST PUSH2 0x19FD JUMPI PUSH1 0x40 MLOAD PUSH3 0x461BCD PUSH1 0xE5 SHL DUP2 MSTORE PUSH1 0x4 ADD PUSH2 0x233 SWAP1 PUSH2 0x3949 JUMP JUMPDEST PUSH0 DUP9 DUP2 MSTORE PUSH1 0x7 PUSH1 0x20 MSTORE PUSH1 0x40 DUP2 KECCAK256 SWAP1 PUSH2 0x1A19 DUP10 DUP10 CALLER DUP11 DUP11 DUP11 PUSH2 0x2035 JUMP JUMPDEST PUSH1 0x3 DUP4 ADD DUP1 SLOAD PUSH1 0x1 DUP2 DUP2 ADD DUP4 SSTORE PUSH0 SWAP3 DUP4 MSTORE PUSH1 0x20 DUP1 DUP5 KECCAK256 SWAP1 SWAP3 ADD DUP5 SWAP1 SSTORE DUP4 DUP4 MSTORE PUSH1 0x7 SWAP1 SWAP2 MSTORE PUSH1 0x40 DUP1 DUP4 KECCAK256 SWAP1 SWAP2 ADD DUP14 SWAP1 SSTORE MLOAD SWAP2 SWAP3 POP DUP3 SWAP2 DUP13 SWAP2 PUSH32 0x95AFC0D374F4E4B0D262BE4433E573B5862C9FB50C22EE6438A313040F5487CC SWAP2 LOG3 POP POP POP POP POP POP POP POP POP POP JUMP JUMPDEST PUSH2 0x1A87 PUSH2 0x1C10 JUMP JUMPDEST PUSH1 0x1 PUSH1 0x1 PUSH1 0xA0 SHL SUB DUP2 AND PUSH2 0x851 JUMPI PUSH1 0x40 MLOAD PUSH3 0x461BCD PUSH1 0xE5 SHL DUP2 MSTORE PUSH1 0x20 PUSH1 0x4 DUP3 ADD MSTORE PUSH1 0x26 PUSH1 0x24 DUP3 ADD MSTORE PUSH32 0x4F776E61626C653A206E6577206F776E657220697320746865207A65726F2061 PUSH1 0x44 DUP3 ADD MSTORE PUSH6 0x646472657373 PUSH1 0xD0 SHL PUSH1 0x64 DUP3 ADD MSTORE PUSH1 0x84 ADD PUSH2 0x233 JUMP JUMPDEST PUSH0 DUP1 DUP1 PUSH2 0x1B10 PUSH10 0x6773C5A04A6D4300884B PUSH1 0xB1 SHL PUSH1 0x1 PUSH1 0x1 PUSH1 0xE0 SHL SUB NOT DUP7 AND PUSH2 0x23CA JUMP JUMPDEST SWAP1 POP PUSH0 PUSH2 0x1B1C DUP3 PUSH2 0x1F96 JUMP JUMPDEST SWAP1 POP DUP1 MLOAD PUSH1 0x14 EQ ISZERO DUP1 ISZERO PUSH2 0x1B30 JUMPI POP DUP1 MLOAD ISZERO ISZERO JUMPDEST ISZERO PUSH2 0x1B50 JUMPI DUP1 PUSH1 0x40 MLOAD PUSH4 0x42BFE79F PUSH1 0xE0 SHL DUP2 MSTORE PUSH1 0x4 ADD PUSH2 0x233 SWAP2 SWAP1 PUSH2 0x2D6F JUMP JUMPDEST PUSH2 0x1B59 DUP2 PUSH2 0x3A3C JUMP JUMPDEST PUSH1 0x60 SHR SWAP6 PUSH1 0x1 SWAP6 POP SWAP4 POP POP POP POP JUMP JUMPDEST PUSH0 PUSH1 0x1 PUSH1 0x1 PUSH1 0xE0 SHL SUB NOT DUP3 AND PUSH4 0xA918FA6B PUSH1 0xE0 SHL EQ DUP1 PUSH2 0x7D1 JUMPI POP PUSH2 0x7D1 DUP3 PUSH2 0x241D JUMP JUMPDEST PUSH0 DUP1 PUSH2 0x1B9E PUSH4 0x1FFC9A7 PUSH1 0xE0 SHL PUSH2 0x1AEC JUMP JUMPDEST POP SWAP1 POP PUSH1 0x1 PUSH1 0x1 PUSH1 0xA0 SHL SUB DUP2 AND PUSH2 0x1BB7 JUMPI POP PUSH0 SWAP3 SWAP2 POP POP JUMP JUMPDEST PUSH2 0x8B6 DUP2 DUP5 PUSH2 0x2451 JUMP JUMPDEST PUSH0 DUP1 SLOAD PUSH1 0x1 PUSH1 0x1 PUSH1 0xA0 SHL SUB DUP4 DUP2 AND PUSH1 0x1 PUSH1 0x1 PUSH1 0xA0 SHL SUB NOT DUP4 AND DUP2 OR DUP5 SSTORE PUSH1 0x40 MLOAD SWAP2 SWAP1 SWAP3 AND SWAP3 DUP4 SWAP2 PUSH32 0x8BE0079C531659141344CD1FD0A4F28419497F9722A3DAAFE3B4186F6B6457E0 SWAP2 SWAP1 LOG3 POP POP JUMP JUMPDEST PUSH0 SLOAD PUSH1 0x1 PUSH1 0x1 PUSH1 0xA0 SHL SUB AND CALLER EQ PUSH2 0xC66 JUMPI PUSH1 0x40 MLOAD PUSH3 0x461BCD PUSH1 0xE5 SHL DUP2 MSTORE PUSH1 0x20 PUSH1 0x4 DUP3 ADD DUP2 SWAP1 MSTORE PUSH1 0x24 DUP3 ADD MSTORE PUSH32 0x4F776E61626C653A2063616C6C6572206973206E6F7420746865206F776E6572 PUSH1 0x44 DUP3 ADD MSTORE PUSH1 0x64 ADD PUSH2 0x233 JUMP JUMPDEST PUSH1 0x60 PUSH1 0x1 PUSH0 DUP5 DUP5 PUSH1 0x40 MLOAD PUSH1 0x20 ADD PUSH2 0x1C8A SWAP3 SWAP2 SWAP1 SWAP2 DUP3 MSTORE PUSH1 0x20 DUP3 ADD MSTORE PUSH1 0x40 ADD SWAP1 JUMP JUMPDEST PUSH1 0x40 MLOAD PUSH1 0x20 DUP2 DUP4 SUB SUB DUP2 MSTORE SWAP1 PUSH1 0x40 MSTORE DUP1 MLOAD SWAP1 PUSH1 0x20 ADD KECCAK256 DUP2 MSTORE PUSH1 0x20 ADD SWAP1 DUP2 MSTORE PUSH1 0x20 ADD PUSH0 KECCAK256 DUP1 SLOAD PUSH2 0x1CB8 SWAP1 PUSH2 0x3805 JUMP JUMPDEST DUP1 PUSH1 0x1F ADD PUSH1 0x20 DUP1 SWAP2 DIV MUL PUSH1 0x20 ADD PUSH1 0x40 MLOAD SWAP1 DUP2 ADD PUSH1 0x40 MSTORE DUP1 SWAP3 SWAP2 SWAP1 DUP2 DUP2 MSTORE PUSH1 0x20 ADD DUP3 DUP1 SLOAD PUSH2 0x1CE4 SWAP1 PUSH2 0x3805 JUMP JUMPDEST DUP1 ISZERO PUSH2 0x1D2F JUMPI DUP1 PUSH1 0x1F LT PUSH2 0x1D06 JUMPI PUSH2 0x100 DUP1 DUP4 SLOAD DIV MUL DUP4 MSTORE SWAP2 PUSH1 0x20 ADD SWAP2 PUSH2 0x1D2F JUMP JUMPDEST DUP3 ADD SWAP2 SWAP1 PUSH0 MSTORE PUSH1 0x20 PUSH0 KECCAK256 SWAP1 JUMPDEST DUP2 SLOAD DUP2 MSTORE SWAP1 PUSH1 0x1 ADD SWAP1 PUSH1 0x20 ADD DUP1 DUP4 GT PUSH2 0x1D12 JUMPI DUP3 SWAP1 SUB PUSH1 0x1F AND DUP3 ADD SWAP2 JUMPDEST POP POP POP POP POP SWAP1 POP SWAP3 SWAP2 POP POP JUMP JUMPDEST PUSH0 PUSH2 0x1D46 DUP3 PUSH2 0x9A3 JUMP JUMPDEST PUSH1 0x1 PUSH1 0x1 PUSH1 0xA0 SHL SUB AND DUP4 PUSH1 0x1 PUSH1 0x1 PUSH1 0xA0 SHL SUB AND EQ DUP1 PUSH2 0x8B6 JUMPI POP PUSH0 DUP3 DUP2 MSTORE PUSH1 0x5 PUSH1 0x20 MSTORE PUSH1 0x40 SWAP1 KECCAK256 PUSH2 0x8B6 SWAP1 DUP5 PUSH2 0x24D7 JUMP JUMPDEST PUSH0 DUP2 DUP2 MSTORE PUSH1 0x3 PUSH1 0x20 MSTORE PUSH1 0x40 SWAP1 KECCAK256 SLOAD PUSH1 0x1 PUSH1 0x1 PUSH1 0xA0 SHL SUB AND PUSH2 0x85A JUMPI PUSH1 0x40 MLOAD PUSH4 0x5747CD1B PUSH1 0xE1 SHL DUP2 MSTORE PUSH1 0x4 DUP2 ADD DUP3 SWAP1 MSTORE PUSH1 0x24 ADD PUSH2 0x233 JUMP JUMPDEST PUSH1 0x60 PUSH0 PUSH2 0x8B6 DUP4 PUSH2 0x24F8 JUMP JUMPDEST PUSH0 PUSH2 0x1DC4 DUP5 PUSH2 0x9A3 JUMP JUMPDEST SWAP1 POP DUP6 PUSH1 0x1 PUSH1 0x1 PUSH1 0xA0 SHL SUB AND DUP2 PUSH1 0x1 PUSH1 0x1 PUSH1 0xA0 SHL SUB AND EQ PUSH2 0x1E12 JUMPI PUSH1 0x40 MLOAD PUSH4 0x2D938F51 PUSH1 0xE1 SHL DUP2 MSTORE PUSH1 0x1 PUSH1 0x1 PUSH1 0xA0 SHL SUB DUP1 DUP4 AND PUSH1 0x4 DUP4 ADD MSTORE PUSH1 0x24 DUP3 ADD DUP7 SWAP1 MSTORE DUP8 AND PUSH1 0x44 DUP3 ADD MSTORE PUSH1 0x64 ADD PUSH2 0x233 JUMP JUMPDEST PUSH1 0x1 PUSH1 0x1 PUSH1 0xA0 SHL SUB DUP6 AND PUSH2 0x1E39 JUMPI PUSH1 0x40 MLOAD PUSH4 0x24ECEF4D PUSH1 0xE0 SHL DUP2 MSTORE PUSH1 0x4 ADD PUSH1 0x40 MLOAD DUP1 SWAP2 SUB SWAP1 REVERT JUMPDEST PUSH0 PUSH2 0x1E43 DUP6 PUSH2 0x9A3 JUMP JUMPDEST SWAP1 POP DUP1 PUSH1 0x1 PUSH1 0x1 PUSH1 0xA0 SHL SUB AND DUP3 PUSH1 0x1 PUSH1 0x1 PUSH1 0xA0 SHL SUB AND EQ PUSH2 0x1E91 JUMPI PUSH1 0x40 MLOAD PUSH4 0x5A9C31D3 PUSH1 0xE0 SHL DUP2 MSTORE PUSH1 0x4 DUP2 ADD DUP7 SWAP1 MSTORE PUSH1 0x1 PUSH1 0x1 PUSH1 0xA0 SHL SUB DUP1 DUP5 AND PUSH1 0x24 DUP4 ADD MSTORE DUP3 AND PUSH1 0x44 DUP3 ADD MSTORE PUSH1 0x64 ADD PUSH2 0x233 JUMP JUMPDEST PUSH2 0x1E9B DUP8 DUP7 PUSH2 0x2550 JUMP JUMPDEST PUSH1 0x1 PUSH1 0x1 PUSH1 0xA0 SHL SUB DUP8 AND PUSH0 SWAP1 DUP2 MSTORE PUSH1 0x4 PUSH1 0x20 MSTORE PUSH1 0x40 SWAP1 KECCAK256 PUSH2 0x1EBC SWAP1 DUP7 PUSH2 0x25A3 JUMP JUMPDEST POP PUSH1 0x1 PUSH1 0x1 PUSH1 0xA0 SHL SUB DUP7 AND PUSH0 SWAP1 DUP2 MSTORE PUSH1 0x4 PUSH1 0x20 MSTORE PUSH1 0x40 SWAP1 KECCAK256 PUSH2 0x1EDE SWAP1 DUP7 PUSH2 0x25AE JUMP JUMPDEST POP PUSH0 DUP6 DUP2 MSTORE PUSH1 0x3 PUSH1 0x20 MSTORE PUSH1 0x40 SWAP1 DUP2 SWAP1 KECCAK256 DUP1 SLOAD PUSH1 0x1 PUSH1 0x1 PUSH1 0xA0 SHL SUB NOT AND PUSH1 0x1 PUSH1 0x1 PUSH1 0xA0 SHL SUB DUP10 DUP2 AND SWAP2 DUP3 OR SWAP1 SWAP3 SSTORE SWAP2 MLOAD DUP8 SWAP3 SWAP2 DUP11 AND SWAP1 PUSH32 0xB333C813A7426A7A11E2B190CAD52C44119421594B47F6F32ACE6D8C7207B2BF SWAP1 PUSH2 0x1F44 SWAP1 CALLER SWAP1 DUP11 SWAP1 DUP11 SWAP1 PUSH2 0x3A8A JUMP JUMPDEST PUSH1 0x40 MLOAD DUP1 SWAP2 SUB SWAP1 LOG4 PUSH0 CALLER DUP9 DUP9 DUP9 DUP8 PUSH1 0x40 MLOAD PUSH1 0x20 ADD PUSH2 0x1F66 SWAP6 SWAP5 SWAP4 SWAP3 SWAP2 SWAP1 PUSH2 0x3AB5 JUMP JUMPDEST PUSH1 0x40 MLOAD PUSH1 0x20 DUP2 DUP4 SUB SUB DUP2 MSTORE SWAP1 PUSH1 0x40 MSTORE SWAP1 POP PUSH2 0x1F81 DUP9 DUP3 PUSH2 0x25B9 JUMP JUMPDEST PUSH2 0x1F8C DUP8 DUP7 DUP4 PUSH2 0x25E4 JUMP JUMPDEST POP POP POP POP POP POP POP POP JUMP JUMPDEST PUSH0 DUP2 DUP2 MSTORE PUSH1 0x1 PUSH1 0x20 MSTORE PUSH1 0x40 SWAP1 KECCAK256 DUP1 SLOAD PUSH1 0x60 SWAP2 SWAP1 PUSH2 0x1FB2 SWAP1 PUSH2 0x3805 JUMP JUMPDEST DUP1 PUSH1 0x1F ADD PUSH1 0x20 DUP1 SWAP2 DIV MUL PUSH1 0x20 ADD PUSH1 0x40 MLOAD SWAP1 DUP2 ADD PUSH1 0x40 MSTORE DUP1 SWAP3 SWAP2 SWAP1 DUP2 DUP2 MSTORE PUSH1 0x20 ADD DUP3 DUP1 SLOAD PUSH2 0x1FDE SWAP1 PUSH2 0x3805 JUMP JUMPDEST DUP1 ISZERO PUSH2 0x2029 JUMPI DUP1 PUSH1 0x1F LT PUSH2 0x2000 JUMPI PUSH2 0x100 DUP1 DUP4 SLOAD DIV MUL DUP4 MSTORE SWAP2 PUSH1 0x20 ADD SWAP2 PUSH2 0x2029 JUMP JUMPDEST DUP3 ADD SWAP2 SWAP1 PUSH0 MSTORE PUSH1 0x20 PUSH0 KECCAK256 SWAP1 JUMPDEST DUP2 SLOAD DUP2 MSTORE SWAP1 PUSH1 0x1 ADD SWAP1 PUSH1 0x20 ADD DUP1 DUP4 GT PUSH2 0x200C JUMPI DUP3 SWAP1 SUB PUSH1 0x1F AND DUP3 ADD SWAP2 JUMPDEST POP POP POP POP POP SWAP1 POP SWAP2 SWAP1 POP JUMP JUMPDEST PUSH0 PUSH2 0x2044 PUSH1 0x6 DUP1 SLOAD PUSH1 0x1 ADD SWAP1 SSTORE JUMP JUMPDEST PUSH1 0x6 SLOAD PUSH0 SHL SWAP1 POP PUSH2 0x2066 DUP6 DUP3 PUSH1 0x1 PUSH1 0x40 MLOAD DUP1 PUSH1 0x20 ADD PUSH1 0x40 MSTORE DUP1 PUSH0 DUP2 MSTORE POP PUSH2 0x26E7 JUMP JUMPDEST PUSH0 DUP2 DUP2 MSTORE PUSH1 0x7 PUSH1 0x20 MSTORE PUSH1 0x40 SWAP1 KECCAK256 DUP1 PUSH2 0x207E DUP10 DUP3 PUSH2 0x387B JUMP JUMPDEST POP DUP4 MLOAD PUSH1 0x6 DUP3 ADD DUP1 SLOAD PUSH1 0x20 DUP1 DUP9 ADD MLOAD PUSH1 0x40 DUP1 DUP11 ADD MLOAD PUSH1 0xFF SWAP7 DUP8 AND PUSH2 0xFFFF NOT SWAP6 DUP7 AND OR PUSH2 0x100 SWAP4 DUP9 AND DUP5 MUL OR PUSH4 0xFFFF0000 NOT SWAP1 DUP2 AND PUSH3 0x10000 PUSH2 0xFFFF SWAP4 DUP5 AND DUP2 MUL SWAP2 SWAP1 SWAP2 OR SWAP1 SWAP8 SSTORE DUP11 MLOAD PUSH1 0x7 DUP11 ADD DUP1 SLOAD SWAP7 DUP14 ADD MLOAD SWAP5 DUP14 ADD MLOAD SWAP2 DUP11 AND SWAP7 SWAP1 SWAP8 AND SWAP6 SWAP1 SWAP6 OR SWAP3 SWAP1 SWAP8 AND SWAP1 SWAP3 MUL OR SWAP1 SWAP5 AND SWAP4 AND SWAP1 SWAP2 MUL SWAP2 SWAP1 SWAP2 OR SWAP1 SSTORE PUSH1 0x5 DUP2 ADD DUP1 SLOAD DUP7 SWAP2 SWAP1 PUSH1 0xFF NOT AND PUSH1 0x1 DUP4 PUSH1 0x2 DUP2 GT ISZERO PUSH2 0x2117 JUMPI PUSH2 0x2117 PUSH2 0x3435 JUMP JUMPDEST MUL OR SWAP1 SSTORE POP PUSH1 0x8 DUP2 ADD PUSH2 0x212A DUP9 DUP3 PUSH2 0x387B JUMP JUMPDEST POP PUSH1 0x40 MLOAD PUSH1 0x1 PUSH1 0x1 PUSH1 0xA0 SHL SUB DUP8 AND DUP2 MSTORE DUP3 SWAP1 PUSH32 0xA6912C28A8CB5FC5CAB504E471CFA6BC504444025484D810E2565BC7DEAD6657 SWAP1 PUSH1 0x20 ADD PUSH1 0x40 MLOAD DUP1 SWAP2 SUB SWAP1 LOG2 POP SWAP7 SWAP6 POP POP POP POP POP POP JUMP JUMPDEST PUSH0 PUSH2 0x7D1 DUP3 SLOAD SWAP1 JUMP JUMPDEST PUSH32 0x98A16C9E50E3E99B3E797305C146898D294E5AEC55A47E213CB3611CCF17E73 DUP3 ADD PUSH2 0x21BD JUMPI PUSH1 0x40 MLOAD PUSH4 0x1B324005 PUSH1 0xE1 SHL DUP2 MSTORE PUSH1 0x4 ADD PUSH1 0x40 MLOAD DUP1 SWAP2 SUB SWAP1 REVERT JUMPDEST PUSH2 0xF10 DUP3 DUP3 PUSH2 0x2850 JUMP JUMPDEST PUSH0 PUSH2 0x8B6 DUP4 PUSH1 0x1 PUSH1 0x1 PUSH1 0xA0 SHL SUB DUP5 AND PUSH2 0x2964 JUMP JUMPDEST PUSH2 0xF10 DUP3 PUSH32 0x8A1C15A8799F71B547E08E2BCB2E85257E81B0A07EEE2CE6712549EEF1F00970 DUP4 PUSH2 0x29B0 JUMP JUMPDEST DUP1 MLOAD DUP3 MLOAD EQ PUSH2 0x2228 JUMPI PUSH1 0x40 MLOAD PUSH4 0x3BCC8979 PUSH1 0xE0 SHL DUP2 MSTORE PUSH1 0x4 ADD PUSH1 0x40 MLOAD DUP1 SWAP2 SUB SWAP1 REVERT JUMPDEST DUP2 MLOAD PUSH0 SUB PUSH2 0x2249 JUMPI PUSH1 0x40 MLOAD PUSH4 0x97DA5F95 PUSH1 0xE0 SHL DUP2 MSTORE PUSH1 0x4 ADD PUSH1 0x40 MLOAD DUP1 SWAP2 SUB SWAP1 REVERT JUMPDEST PUSH0 JUMPDEST DUP3 MLOAD DUP2 LT ISZERO PUSH2 0x2298 JUMPI PUSH2 0x2290 DUP4 DUP3 DUP2 MLOAD DUP2 LT PUSH2 0x2269 JUMPI PUSH2 0x2269 PUSH2 0x3935 JUMP JUMPDEST PUSH1 0x20 MUL PUSH1 0x20 ADD ADD MLOAD DUP4 DUP4 DUP2 MLOAD DUP2 LT PUSH2 0x2283 JUMPI PUSH2 0x2283 PUSH2 0x3935 JUMP JUMPDEST PUSH1 0x20 MUL PUSH1 0x20 ADD ADD MLOAD PUSH2 0x217D JUMP JUMPDEST PUSH1 0x1 ADD PUSH2 0x224B JUMP JUMPDEST POP POP POP JUMP JUMPDEST DUP1 PUSH1 0x1 PUSH0 DUP6 DUP6 PUSH1 0x40 MLOAD PUSH1 0x20 ADD PUSH2 0x22BD SWAP3 SWAP2 SWAP1 SWAP2 DUP3 MSTORE PUSH1 0x20 DUP3 ADD MSTORE PUSH1 0x40 ADD SWAP1 JUMP JUMPDEST PUSH1 0x40 MLOAD PUSH1 0x20 DUP2 DUP4 SUB SUB DUP2 MSTORE SWAP1 PUSH1 0x40 MSTORE DUP1 MLOAD SWAP1 PUSH1 0x20 ADD KECCAK256 DUP2 MSTORE PUSH1 0x20 ADD SWAP1 DUP2 MSTORE PUSH1 0x20 ADD PUSH0 KECCAK256 SWAP1 DUP2 PUSH2 0x22EC SWAP2 SWAP1 PUSH2 0x387B JUMP JUMPDEST POP DUP2 DUP4 PUSH32 0xA6E4251F855F750545FE414F120DB91C76B88DEF14D120969E5BB2D3F05DEBBB DUP4 PUSH1 0x40 MLOAD PUSH2 0x231E SWAP2 SWAP1 PUSH2 0x2D6F JUMP JUMPDEST PUSH1 0x40 MLOAD DUP1 SWAP2 SUB SWAP1 LOG3 POP POP POP JUMP JUMPDEST PUSH0 DUP4 DUP2 MSTORE PUSH1 0x5 PUSH1 0x20 MSTORE PUSH1 0x40 DUP2 KECCAK256 PUSH2 0x2342 SWAP1 DUP8 PUSH2 0x29FD JUMP JUMPDEST SWAP1 POP DUP1 PUSH2 0x2374 JUMPI PUSH1 0x40 MLOAD PUSH4 0x12A8C6A3 PUSH1 0xE2 SHL DUP2 MSTORE PUSH1 0x1 PUSH1 0x1 PUSH1 0xA0 SHL SUB DUP8 AND PUSH1 0x4 DUP3 ADD MSTORE PUSH1 0x24 DUP2 ADD DUP6 SWAP1 MSTORE PUSH1 0x44 ADD PUSH2 0x233 JUMP JUMPDEST DUP4 DUP6 PUSH1 0x1 PUSH1 0x1 PUSH1 0xA0 SHL SUB AND DUP8 PUSH1 0x1 PUSH1 0x1 PUSH1 0xA0 SHL SUB AND PUSH32 0xC78CD419D6136F9F1C1C6AEC1D3FAE098CFFAF8BC86314A8F2685E32FE574E3C DUP7 DUP7 PUSH1 0x40 MLOAD PUSH2 0x23BA SWAP3 SWAP2 SWAP1 PUSH2 0x3AEF JUMP JUMPDEST PUSH1 0x40 MLOAD DUP1 SWAP2 SUB SWAP1 LOG4 POP POP POP POP POP POP JUMP JUMPDEST PUSH1 0x40 DUP1 MLOAD PUSH1 0x1 PUSH1 0x1 PUSH1 0xB0 SHL SUB NOT DUP5 AND PUSH1 0x20 DUP3 ADD MSTORE PUSH0 PUSH1 0x2A DUP3 ADD DUP2 SWAP1 MSTORE PUSH1 0x1 PUSH1 0x1 PUSH1 0x60 SHL SUB NOT DUP5 AND PUSH1 0x2C DUP4 ADD MSTORE SWAP2 DUP3 SWAP2 ADD PUSH1 0x40 MLOAD PUSH1 0x20 DUP2 DUP4 SUB SUB DUP2 MSTORE SWAP1 PUSH1 0x40 MSTORE SWAP1 POP DUP1 PUSH2 0x2415 SWAP1 PUSH2 0x3B09 JUMP JUMPDEST SWAP5 SWAP4 POP POP POP POP JUMP JUMPDEST PUSH0 PUSH1 0x1 PUSH1 0x1 PUSH1 0xE0 SHL SUB NOT DUP3 AND PUSH4 0x18A6A9A5 PUSH1 0xE2 SHL EQ DUP1 PUSH2 0x7D1 JUMPI POP PUSH4 0x1FFC9A7 PUSH1 0xE0 SHL PUSH1 0x1 PUSH1 0x1 PUSH1 0xE0 SHL SUB NOT DUP4 AND EQ PUSH2 0x7D1 JUMP JUMPDEST PUSH1 0x40 DUP1 MLOAD PUSH1 0x1 PUSH1 0x1 PUSH1 0xE0 SHL SUB NOT DUP4 AND PUSH1 0x24 DUP1 DUP4 ADD SWAP2 SWAP1 SWAP2 MSTORE DUP3 MLOAD DUP1 DUP4 SUB SWAP1 SWAP2 ADD DUP2 MSTORE PUSH1 0x44 SWAP1 SWAP2 ADD SWAP1 SWAP2 MSTORE PUSH1 0x20 DUP1 DUP3 ADD DUP1 MLOAD PUSH1 0x1 PUSH1 0x1 PUSH1 0xE0 SHL SUB AND PUSH4 0x1FFC9A7 PUSH1 0xE0 SHL OR DUP2 MSTORE DUP3 MLOAD PUSH0 SWAP4 SWAP3 DUP5 SWAP3 DUP4 SWAP3 DUP4 SWAP3 SWAP2 DUP4 SWAP2 SWAP1 DUP11 PUSH2 0x7530 STATICCALL SWAP3 POP RETURNDATASIZE SWAP2 POP PUSH0 MLOAD SWAP1 POP DUP3 DUP1 ISZERO PUSH2 0x24C1 JUMPI POP PUSH1 0x20 DUP3 LT ISZERO JUMPDEST DUP1 ISZERO PUSH2 0x24CC JUMPI POP PUSH0 DUP2 GT JUMPDEST SWAP8 SWAP7 POP POP POP POP POP POP POP JUMP JUMPDEST PUSH1 0x1 PUSH1 0x1 PUSH1 0xA0 SHL SUB DUP2 AND PUSH0 SWAP1 DUP2 MSTORE PUSH1 0x1 DUP4 ADD PUSH1 0x20 MSTORE PUSH1 0x40 DUP2 KECCAK256 SLOAD ISZERO ISZERO PUSH2 0x8B6 JUMP JUMPDEST PUSH1 0x60 DUP2 PUSH0 ADD DUP1 SLOAD DUP1 PUSH1 0x20 MUL PUSH1 0x20 ADD PUSH1 0x40 MLOAD SWAP1 DUP2 ADD PUSH1 0x40 MSTORE DUP1 SWAP3 SWAP2 SWAP1 DUP2 DUP2 MSTORE PUSH1 0x20 ADD DUP3 DUP1 SLOAD DUP1 ISZERO PUSH2 0x2029 JUMPI PUSH1 0x20 MUL DUP3 ADD SWAP2 SWAP1 PUSH0 MSTORE PUSH1 0x20 PUSH0 KECCAK256 SWAP1 JUMPDEST DUP2 SLOAD DUP2 MSTORE PUSH1 0x20 ADD SWAP1 PUSH1 0x1 ADD SWAP1 DUP1 DUP4 GT PUSH2 0x2531 JUMPI POP POP POP POP POP SWAP1 POP SWAP2 SWAP1 POP JUMP JUMPDEST PUSH0 DUP2 DUP2 MSTORE PUSH1 0x5 PUSH1 0x20 MSTORE PUSH1 0x40 DUP2 KECCAK256 SWAP1 PUSH2 0x2567 DUP3 PUSH2 0x2174 JUMP JUMPDEST SWAP1 POP PUSH0 PUSH0 JUMPDEST DUP3 DUP2 LT ISZERO PUSH2 0x1083 JUMPI PUSH2 0x257E DUP5 PUSH0 PUSH2 0x2A11 JUMP JUMPDEST SWAP2 POP PUSH2 0x259B DUP3 DUP8 DUP8 PUSH0 PUSH1 0x40 MLOAD DUP1 PUSH1 0x20 ADD PUSH1 0x40 MSTORE DUP1 PUSH0 DUP2 MSTORE POP PUSH2 0x232B JUMP JUMPDEST PUSH1 0x1 ADD PUSH2 0x256C JUMP JUMPDEST PUSH0 PUSH2 0x8B6 DUP4 DUP4 PUSH2 0x2A1C JUMP JUMPDEST PUSH0 PUSH2 0x8B6 DUP4 DUP4 PUSH2 0x2964 JUMP JUMPDEST PUSH2 0xF10 DUP3 PUSH32 0xB23EAE7E6D1564B295B4C3E3BE402D9A2F0776C57BDF365903496F6FA481AB00 DUP4 PUSH2 0x29B0 JUMP JUMPDEST PUSH2 0x25F5 DUP4 PUSH4 0x1AED5A85 PUSH1 0xE2 SHL PUSH2 0x2451 JUMP JUMPDEST ISZERO PUSH2 0x268A JUMPI PUSH1 0x40 MLOAD PUSH4 0x1AED5A85 PUSH1 0xE2 SHL DUP2 MSTORE PUSH1 0x1 PUSH1 0x1 PUSH1 0xA0 SHL SUB DUP5 AND SWAP1 PUSH4 0x6BB56A14 SWAP1 PUSH2 0x2648 SWAP1 PUSH32 0xB084A55EBF70FD3C06FD755269DAC2212C4D3F0F4D09079780BFA50C1B2984D SWAP1 DUP6 SWAP1 PUSH1 0x4 ADD PUSH2 0x3B2C JUMP JUMPDEST PUSH0 PUSH1 0x40 MLOAD DUP1 DUP4 SUB DUP2 PUSH0 DUP8 GAS CALL ISZERO DUP1 ISZERO PUSH2 0x2663 JUMPI RETURNDATASIZE PUSH0 PUSH0 RETURNDATACOPY RETURNDATASIZE PUSH0 REVERT JUMPDEST POP POP POP POP PUSH1 0x40 MLOAD RETURNDATASIZE PUSH0 DUP3 RETURNDATACOPY PUSH1 0x1F RETURNDATASIZE SWAP1 DUP2 ADD PUSH1 0x1F NOT AND DUP3 ADD PUSH1 0x40 MSTORE PUSH2 0xED9 SWAP2 SWAP1 DUP2 ADD SWAP1 PUSH2 0x3B44 JUMP JUMPDEST DUP2 PUSH2 0x2298 JUMPI PUSH1 0x1 PUSH1 0x1 PUSH1 0xA0 SHL SUB DUP4 AND EXTCODESIZE ISZERO PUSH2 0x26C3 JUMPI PUSH1 0x40 MLOAD PUSH4 0x4349776D PUSH1 0xE0 SHL DUP2 MSTORE PUSH1 0x1 PUSH1 0x1 PUSH1 0xA0 SHL SUB DUP5 AND PUSH1 0x4 DUP3 ADD MSTORE PUSH1 0x24 ADD PUSH2 0x233 JUMP JUMPDEST PUSH1 0x40 MLOAD PUSH4 0x3173137 PUSH1 0xE0 SHL DUP2 MSTORE PUSH1 0x1 PUSH1 0x1 PUSH1 0xA0 SHL SUB DUP5 AND PUSH1 0x4 DUP3 ADD MSTORE PUSH1 0x24 ADD PUSH2 0x233 JUMP JUMPDEST PUSH1 0x1 PUSH1 0x1 PUSH1 0xA0 SHL SUB DUP5 AND PUSH2 0x270E JUMPI PUSH1 0x40 MLOAD PUSH4 0x24ECEF4D PUSH1 0xE0 SHL DUP2 MSTORE PUSH1 0x4 ADD PUSH1 0x40 MLOAD DUP1 SWAP2 SUB SWAP1 REVERT JUMPDEST PUSH0 DUP4 DUP2 MSTORE PUSH1 0x3 PUSH1 0x20 MSTORE PUSH1 0x40 SWAP1 KECCAK256 SLOAD PUSH1 0x1 PUSH1 0x1 PUSH1 0xA0 SHL SUB AND ISZERO PUSH2 0x2746 JUMPI PUSH1 0x40 MLOAD PUSH4 0x34C7B511 PUSH1 0xE0 SHL DUP2 MSTORE PUSH1 0x4 DUP2 ADD DUP5 SWAP1 MSTORE PUSH1 0x24 ADD PUSH2 0x233 JUMP JUMPDEST PUSH0 DUP4 DUP2 MSTORE PUSH1 0x3 PUSH1 0x20 MSTORE PUSH1 0x40 SWAP1 KECCAK256 SLOAD PUSH1 0x1 PUSH1 0x1 PUSH1 0xA0 SHL SUB AND ISZERO PUSH2 0x277E JUMPI PUSH1 0x40 MLOAD PUSH4 0x34C7B511 PUSH1 0xE0 SHL DUP2 MSTORE PUSH1 0x4 DUP2 ADD DUP5 SWAP1 MSTORE PUSH1 0x24 ADD PUSH2 0x233 JUMP JUMPDEST PUSH1 0x2 PUSH0 DUP2 SLOAD PUSH2 0x278C SWAP1 PUSH2 0x3BB8 JUMP JUMPDEST SWAP1 SWAP2 SSTORE POP PUSH1 0x1 PUSH1 0x1 PUSH1 0xA0 SHL SUB DUP5 AND PUSH0 SWAP1 DUP2 MSTORE PUSH1 0x4 PUSH1 0x20 MSTORE PUSH1 0x40 SWAP1 KECCAK256 PUSH2 0x27B1 SWAP1 DUP5 PUSH2 0x25AE JUMP JUMPDEST POP PUSH0 DUP4 DUP2 MSTORE PUSH1 0x3 PUSH1 0x20 MSTORE PUSH1 0x40 DUP1 DUP3 KECCAK256 DUP1 SLOAD PUSH1 0x1 PUSH1 0x1 PUSH1 0xA0 SHL SUB NOT AND PUSH1 0x1 PUSH1 0x1 PUSH1 0xA0 SHL SUB DUP9 AND SWAP1 DUP2 OR SWAP1 SWAP2 SSTORE SWAP1 MLOAD DUP6 SWAP3 SWAP1 PUSH32 0xB333C813A7426A7A11E2B190CAD52C44119421594B47F6F32ACE6D8C7207B2BF SWAP1 PUSH2 0x2812 SWAP1 CALLER SWAP1 DUP9 SWAP1 DUP9 SWAP1 PUSH2 0x3A8A JUMP JUMPDEST PUSH1 0x40 MLOAD DUP1 SWAP2 SUB SWAP1 LOG4 PUSH0 CALLER PUSH0 DUP7 DUP7 DUP6 PUSH1 0x40 MLOAD PUSH1 0x20 ADD PUSH2 0x2834 SWAP6 SWAP5 SWAP4 SWAP3 SWAP2 SWAP1 PUSH2 0x3AB5 JUMP JUMPDEST PUSH1 0x40 MLOAD PUSH1 0x20 DUP2 DUP4 SUB SUB DUP2 MSTORE SWAP1 PUSH1 0x40 MSTORE SWAP1 POP PUSH2 0xA44 DUP6 DUP5 DUP4 PUSH2 0x25E4 JUMP JUMPDEST PUSH32 0x2145E1D6D074577DC71EF54C3807742B41B053A9352AE6B491331509ACB9750F DUP3 ADD PUSH2 0x2890 JUMPI PUSH1 0x40 MLOAD PUSH4 0x85C169BD PUSH1 0xE0 SHL DUP2 MSTORE PUSH1 0x4 ADD PUSH1 0x40 MLOAD DUP1 SWAP2 SUB SWAP1 REVERT JUMPDEST PUSH32 0xD0F59754F88971FE6BC5A6618CC9D5F1E859C58D16B22D1C7B2D3E2B246CD8AA DUP3 ADD PUSH2 0x28D0 JUMPI PUSH1 0x40 MLOAD PUSH4 0xECEAB67 PUSH1 0xE3 SHL DUP2 MSTORE PUSH1 0x4 ADD PUSH1 0x40 MLOAD DUP1 SWAP2 SUB SWAP1 REVERT JUMPDEST PUSH32 0x1FD9E056A24D14C4ABC642FCC325992A946906D0DBC57DD70278AAF12842024D DUP3 ADD PUSH2 0x2910 JUMPI PUSH1 0x40 MLOAD PUSH4 0x4EF6D7FB PUSH1 0xE0 SHL DUP2 MSTORE PUSH1 0x4 ADD PUSH1 0x40 MLOAD DUP1 SWAP2 SUB SWAP1 REVERT JUMPDEST PUSH0 DUP3 DUP2 MSTORE PUSH1 0x1 PUSH1 0x20 MSTORE PUSH1 0x40 SWAP1 KECCAK256 PUSH2 0x2927 DUP3 DUP3 PUSH2 0x387B JUMP JUMPDEST POP DUP2 PUSH32 0xECE574603820D07BC9B91F2A932BAADF4628AABCB8AFBA49776529C14A6104B2 DUP3 PUSH1 0x40 MLOAD PUSH2 0x2958 SWAP2 SWAP1 PUSH2 0x2D6F JUMP JUMPDEST PUSH1 0x40 MLOAD DUP1 SWAP2 SUB SWAP1 LOG2 POP POP JUMP JUMPDEST PUSH0 DUP2 DUP2 MSTORE PUSH1 0x1 DUP4 ADD PUSH1 0x20 MSTORE PUSH1 0x40 DUP2 KECCAK256 SLOAD PUSH2 0x29A9 JUMPI POP DUP2 SLOAD PUSH1 0x1 DUP2 DUP2 ADD DUP5 SSTORE PUSH0 DUP5 DUP2 MSTORE PUSH1 0x20 DUP1 DUP3 KECCAK256 SWAP1 SWAP4 ADD DUP5 SWAP1 SSTORE DUP5 SLOAD DUP5 DUP3 MSTORE DUP3 DUP7 ADD SWAP1 SWAP4 MSTORE PUSH1 0x40 SWAP1 KECCAK256 SWAP2 SWAP1 SWAP2 SSTORE PUSH2 0x7D1 JUMP JUMPDEST POP PUSH0 PUSH2 0x7D1 JUMP JUMPDEST PUSH2 0x29CA PUSH1 0x1 PUSH1 0x1 PUSH1 0xA0 SHL SUB DUP5 AND PUSH4 0x1AED5A85 PUSH1 0xE2 SHL PUSH2 0x2451 JUMP JUMPDEST ISZERO PUSH2 0x2298 JUMPI PUSH1 0x40 MLOAD PUSH4 0x1AED5A85 PUSH1 0xE2 SHL DUP2 MSTORE PUSH1 0x1 PUSH1 0x1 PUSH1 0xA0 SHL SUB DUP5 AND SWAP1 PUSH4 0x6BB56A14 SWAP1 PUSH2 0x2648 SWAP1 DUP6 SWAP1 DUP6 SWAP1 PUSH1 0x4 ADD PUSH2 0x3B2C JUMP JUMPDEST PUSH0 PUSH2 0x8B6 DUP4 PUSH1 0x1 PUSH1 0x1 PUSH1 0xA0 SHL SUB DUP5 AND PUSH2 0x2A1C JUMP JUMPDEST PUSH0 PUSH2 0x8B6 DUP4 DUP4 PUSH2 0x2AFF JUMP JUMPDEST PUSH0 DUP2 DUP2 MSTORE PUSH1 0x1 DUP4 ADD PUSH1 0x20 MSTORE PUSH1 0x40 DUP2 KECCAK256 SLOAD DUP1 ISZERO PUSH2 0x2AF6 JUMPI PUSH0 PUSH2 0x2A3E PUSH1 0x1 DUP4 PUSH2 0x39DD JUMP JUMPDEST DUP6 SLOAD SWAP1 SWAP2 POP PUSH0 SWAP1 PUSH2 0x2A51 SWAP1 PUSH1 0x1 SWAP1 PUSH2 0x39DD JUMP JUMPDEST SWAP1 POP DUP2 DUP2 EQ PUSH2 0x2AB0 JUMPI PUSH0 DUP7 PUSH0 ADD DUP3 DUP2 SLOAD DUP2 LT PUSH2 0x2A6F JUMPI PUSH2 0x2A6F PUSH2 0x3935 JUMP JUMPDEST SWAP1 PUSH0 MSTORE PUSH1 0x20 PUSH0 KECCAK256 ADD SLOAD SWAP1 POP DUP1 DUP8 PUSH0 ADD DUP5 DUP2 SLOAD DUP2 LT PUSH2 0x2A8F JUMPI PUSH2 0x2A8F PUSH2 0x3935 JUMP JUMPDEST PUSH0 SWAP2 DUP3 MSTORE PUSH1 0x20 DUP1 DUP4 KECCAK256 SWAP1 SWAP2 ADD SWAP3 SWAP1 SWAP3 SSTORE SWAP2 DUP3 MSTORE PUSH1 0x1 DUP9 ADD SWAP1 MSTORE PUSH1 0x40 SWAP1 KECCAK256 DUP4 SWAP1 SSTORE JUMPDEST DUP6 SLOAD DUP7 SWAP1 DUP1 PUSH2 0x2AC1 JUMPI PUSH2 0x2AC1 PUSH2 0x39F0 JUMP JUMPDEST PUSH1 0x1 SWAP1 SUB DUP2 DUP2 SWAP1 PUSH0 MSTORE PUSH1 0x20 PUSH0 KECCAK256 ADD PUSH0 SWAP1 SSTORE SWAP1 SSTORE DUP6 PUSH1 0x1 ADD PUSH0 DUP7 DUP2 MSTORE PUSH1 0x20 ADD SWAP1 DUP2 MSTORE PUSH1 0x20 ADD PUSH0 KECCAK256 PUSH0 SWAP1 SSTORE PUSH1 0x1 SWAP4 POP POP POP POP PUSH2 0x7D1 JUMP JUMPDEST PUSH0 SWAP2 POP POP PUSH2 0x7D1 JUMP JUMPDEST PUSH0 DUP3 PUSH0 ADD DUP3 DUP2 SLOAD DUP2 LT PUSH2 0x2B14 JUMPI PUSH2 0x2B14 PUSH2 0x3935 JUMP JUMPDEST SWAP1 PUSH0 MSTORE PUSH1 0x20 PUSH0 KECCAK256 ADD SLOAD SWAP1 POP SWAP3 SWAP2 POP POP JUMP JUMPDEST PUSH1 0x40 MLOAD DUP1 PUSH2 0x120 ADD PUSH1 0x40 MSTORE DUP1 PUSH1 0x60 DUP2 MSTORE PUSH1 0x20 ADD PUSH0 DUP2 MSTORE PUSH1 0x20 ADD PUSH0 DUP2 MSTORE PUSH1 0x20 ADD PUSH1 0x60 DUP2 MSTORE PUSH1 0x20 ADD PUSH1 0x60 DUP2 MSTORE PUSH1 0x20 ADD PUSH0 PUSH1 0x2 DUP2 GT ISZERO PUSH2 0x2B64 JUMPI PUSH2 0x2B64 PUSH2 0x3435 JUMP JUMPDEST DUP2 MSTORE PUSH1 0x40 DUP1 MLOAD PUSH1 0x60 DUP1 DUP3 ADD DUP4 MSTORE PUSH0 DUP1 DUP4 MSTORE PUSH1 0x20 DUP1 DUP5 ADD DUP3 SWAP1 MSTORE DUP4 DUP6 ADD DUP3 SWAP1 MSTORE DUP1 DUP7 ADD SWAP4 SWAP1 SWAP4 MSTORE DUP4 MLOAD DUP1 DUP4 ADD DUP6 MSTORE DUP2 DUP2 MSTORE SWAP3 DUP4 ADD DUP2 SWAP1 MSTORE DUP3 DUP5 ADD MSTORE SWAP2 DUP4 ADD MSTORE SWAP1 DUP2 ADD MSTORE SWAP1 JUMP JUMPDEST PUSH1 0x20 DUP2 MSTORE DUP2 PUSH1 0x20 DUP3 ADD MSTORE DUP2 DUP4 PUSH1 0x40 DUP4 ADD CALLDATACOPY PUSH0 DUP2 DUP4 ADD PUSH1 0x40 SWAP1 DUP2 ADD SWAP2 SWAP1 SWAP2 MSTORE PUSH1 0x1F SWAP1 SWAP3 ADD PUSH1 0x1F NOT AND ADD ADD SWAP2 SWAP1 POP JUMP JUMPDEST PUSH0 PUSH1 0x20 DUP3 DUP5 SUB SLT ISZERO PUSH2 0x2BE7 JUMPI PUSH0 PUSH0 REVERT JUMPDEST DUP2 CALLDATALOAD PUSH1 0x1 PUSH1 0x1 PUSH1 0xE0 SHL SUB NOT DUP2 AND DUP2 EQ PUSH2 0x8B6 JUMPI PUSH0 PUSH0 REVERT JUMPDEST DUP1 CALLDATALOAD PUSH1 0x1 PUSH1 0x1 PUSH1 0xA0 SHL SUB DUP2 AND DUP2 EQ PUSH2 0x2C14 JUMPI PUSH0 PUSH0 REVERT JUMPDEST SWAP2 SWAP1 POP JUMP JUMPDEST PUSH0 PUSH1 0x20 DUP3 DUP5 SUB SLT ISZERO PUSH2 0x2C29 JUMPI PUSH0 PUSH0 REVERT JUMPDEST PUSH2 0x8B6 DUP3 PUSH2 0x2BFE JUMP JUMPDEST PUSH4 0x4E487B71 PUSH1 0xE0 SHL PUSH0 MSTORE PUSH1 0x41 PUSH1 0x4 MSTORE PUSH1 0x24 PUSH0 REVERT JUMPDEST PUSH1 0x40 MLOAD PUSH1 0x1F DUP3 ADD PUSH1 0x1F NOT AND DUP2 ADD PUSH1 0x1 PUSH1 0x1 PUSH1 0x40 SHL SUB DUP2 GT DUP3 DUP3 LT OR ISZERO PUSH2 0x2C6E JUMPI PUSH2 0x2C6E PUSH2 0x2C32 JUMP JUMPDEST PUSH1 0x40 MSTORE SWAP2 SWAP1 POP JUMP JUMPDEST PUSH0 PUSH1 0x1 PUSH1 0x1 PUSH1 0x40 SHL SUB DUP3 GT ISZERO PUSH2 0x2C8E JUMPI PUSH2 0x2C8E PUSH2 0x2C32 JUMP JUMPDEST POP PUSH1 0x1F ADD PUSH1 0x1F NOT AND PUSH1 0x20 ADD SWAP1 JUMP JUMPDEST PUSH0 DUP3 PUSH1 0x1F DUP4 ADD SLT PUSH2 0x2CAB JUMPI PUSH0 PUSH0 REVERT JUMPDEST DUP2 CALLDATALOAD PUSH1 0x20 DUP4 ADD PUSH0 PUSH2 0x2CC3 PUSH2 0x2CBE DUP5 PUSH2 0x2C76 JUMP JUMPDEST PUSH2 0x2C46 JUMP JUMPDEST SWAP1 POP DUP3 DUP2 MSTORE DUP6 DUP4 DUP4 ADD GT ISZERO PUSH2 0x2CD6 JUMPI PUSH0 PUSH0 REVERT JUMPDEST DUP3 DUP3 PUSH1 0x20 DUP4 ADD CALLDATACOPY PUSH0 SWAP3 DUP2 ADD PUSH1 0x20 ADD SWAP3 SWAP1 SWAP3 MSTORE POP SWAP4 SWAP3 POP POP POP JUMP JUMPDEST PUSH0 PUSH1 0x20 DUP3 DUP5 SUB SLT ISZERO PUSH2 0x2D00 JUMPI PUSH0 PUSH0 REVERT JUMPDEST DUP2 CALLDATALOAD PUSH1 0x1 PUSH1 0x1 PUSH1 0x40 SHL SUB DUP2 GT ISZERO PUSH2 0x2D15 JUMPI PUSH0 PUSH0 REVERT JUMPDEST PUSH2 0x2415 DUP5 DUP3 DUP6 ADD PUSH2 0x2C9C JUMP JUMPDEST PUSH0 PUSH0 PUSH1 0x40 DUP4 DUP6 SUB SLT ISZERO PUSH2 0x2D32 JUMPI PUSH0 PUSH0 REVERT JUMPDEST POP POP DUP1 CALLDATALOAD SWAP3 PUSH1 0x20 SWAP1 SWAP2 ADD CALLDATALOAD SWAP2 POP JUMP JUMPDEST PUSH0 DUP2 MLOAD DUP1 DUP5 MSTORE DUP1 PUSH1 0x20 DUP5 ADD PUSH1 0x20 DUP7 ADD MCOPY PUSH0 PUSH1 0x20 DUP3 DUP7 ADD ADD MSTORE PUSH1 0x20 PUSH1 0x1F NOT PUSH1 0x1F DUP4 ADD AND DUP6 ADD ADD SWAP2 POP POP SWAP3 SWAP2 POP POP JUMP JUMPDEST PUSH1 0x20 DUP2 MSTORE PUSH0 PUSH2 0x8B6 PUSH1 0x20 DUP4 ADD DUP5 PUSH2 0x2D41 JUMP JUMPDEST PUSH0 PUSH1 0x1 PUSH1 0x1 PUSH1 0x40 SHL SUB DUP3 GT ISZERO PUSH2 0x2D99 JUMPI PUSH2 0x2D99 PUSH2 0x2C32 JUMP JUMPDEST POP PUSH1 0x5 SHL PUSH1 0x20 ADD SWAP1 JUMP JUMPDEST PUSH0 DUP3 PUSH1 0x1F DUP4 ADD SLT PUSH2 0x2DB2 JUMPI PUSH0 PUSH0 REVERT JUMPDEST DUP2 CALLDATALOAD PUSH2 0x2DC0 PUSH2 0x2CBE DUP3 PUSH2 0x2D81 JUMP JUMPDEST DUP1 DUP3 DUP3 MSTORE PUSH1 0x20 DUP3 ADD SWAP2 POP PUSH1 0x20 DUP4 PUSH1 0x5 SHL DUP7 ADD ADD SWAP3 POP DUP6 DUP4 GT ISZERO PUSH2 0x2DE1 JUMPI PUSH0 PUSH0 REVERT JUMPDEST PUSH1 0x20 DUP6 ADD JUMPDEST DUP4 DUP2 LT ISZERO PUSH2 0x2DFE JUMPI DUP1 CALLDATALOAD DUP4 MSTORE PUSH1 0x20 SWAP3 DUP4 ADD SWAP3 ADD PUSH2 0x2DE6 JUMP JUMPDEST POP SWAP6 SWAP5 POP POP POP POP POP JUMP JUMPDEST PUSH0 PUSH0 PUSH1 0x40 DUP4 DUP6 SUB SLT ISZERO PUSH2 0x2E19 JUMPI PUSH0 PUSH0 REVERT JUMPDEST DUP3 CALLDATALOAD PUSH1 0x1 PUSH1 0x1 PUSH1 0x40 SHL SUB DUP2 GT ISZERO PUSH2 0x2E2E JUMPI PUSH0 PUSH0 REVERT JUMPDEST PUSH2 0x2E3A DUP6 DUP3 DUP7 ADD PUSH2 0x2DA3 JUMP JUMPDEST SWAP3 POP POP PUSH1 0x20 DUP4 ADD CALLDATALOAD PUSH1 0x1 PUSH1 0x1 PUSH1 0x40 SHL SUB DUP2 GT ISZERO PUSH2 0x2E55 JUMPI PUSH0 PUSH0 REVERT JUMPDEST PUSH2 0x2E61 DUP6 DUP3 DUP7 ADD PUSH2 0x2DA3 JUMP JUMPDEST SWAP2 POP POP SWAP3 POP SWAP3 SWAP1 POP JUMP JUMPDEST PUSH0 PUSH1 0x20 DUP3 ADD PUSH1 0x20 DUP4 MSTORE DUP1 DUP5 MLOAD DUP1 DUP4 MSTORE PUSH1 0x40 DUP6 ADD SWAP2 POP PUSH1 0x40 DUP2 PUSH1 0x5 SHL DUP7 ADD ADD SWAP3 POP PUSH1 0x20 DUP7 ADD PUSH0 JUMPDEST DUP3 DUP2 LT ISZERO PUSH2 0x2EC2 JUMPI PUSH1 0x3F NOT DUP8 DUP7 SUB ADD DUP5 MSTORE PUSH2 0x2EAD DUP6 DUP4 MLOAD PUSH2 0x2D41 JUMP JUMPDEST SWAP5 POP PUSH1 0x20 SWAP4 DUP5 ADD SWAP4 SWAP2 SWAP1 SWAP2 ADD SWAP1 PUSH1 0x1 ADD PUSH2 0x2E91 JUMP JUMPDEST POP SWAP3 SWAP7 SWAP6 POP POP POP POP POP POP JUMP JUMPDEST PUSH0 PUSH1 0x20 DUP3 DUP5 SUB SLT ISZERO PUSH2 0x2EDE JUMPI PUSH0 PUSH0 REVERT JUMPDEST POP CALLDATALOAD SWAP2 SWAP1 POP JUMP JUMPDEST PUSH0 PUSH0 PUSH1 0x40 DUP4 DUP6 SUB SLT ISZERO PUSH2 0x2EF6 JUMPI PUSH0 PUSH0 REVERT JUMPDEST PUSH2 0x2EFF DUP4 PUSH2 0x2BFE JUMP JUMPDEST SWAP5 PUSH1 0x20 SWAP4 SWAP1 SWAP4 ADD CALLDATALOAD SWAP4 POP POP POP JUMP JUMPDEST PUSH1 0x20 DUP1 DUP3 MSTORE DUP3 MLOAD DUP3 DUP3 ADD DUP2 SWAP1 MSTORE PUSH0 SWAP2 DUP5 ADD SWAP1 PUSH1 0x40 DUP5 ADD SWAP1 DUP4 JUMPDEST DUP2 DUP2 LT ISZERO PUSH2 0x2F4D JUMPI DUP4 MLOAD PUSH1 0x1 PUSH1 0x1 PUSH1 0xA0 SHL SUB AND DUP4 MSTORE PUSH1 0x20 SWAP4 DUP5 ADD SWAP4 SWAP1 SWAP3 ADD SWAP2 PUSH1 0x1 ADD PUSH2 0x2F26 JUMP JUMPDEST POP SWAP1 SWAP6 SWAP5 POP POP POP POP POP JUMP JUMPDEST DUP1 CALLDATALOAD DUP1 ISZERO ISZERO DUP2 EQ PUSH2 0x2C14 JUMPI PUSH0 PUSH0 REVERT JUMPDEST PUSH0 PUSH0 PUSH0 PUSH0 PUSH0 PUSH1 0xA0 DUP7 DUP9 SUB SLT ISZERO PUSH2 0x2F7B JUMPI PUSH0 PUSH0 REVERT JUMPDEST PUSH2 0x2F84 DUP7 PUSH2 0x2BFE JUMP JUMPDEST SWAP5 POP PUSH2 0x2F92 PUSH1 0x20 DUP8 ADD PUSH2 0x2BFE JUMP JUMPDEST SWAP4 POP PUSH1 0x40 DUP7 ADD CALLDATALOAD SWAP3 POP PUSH2 0x2FA7 PUSH1 0x60 DUP8 ADD PUSH2 0x2F58 JUMP JUMPDEST SWAP2 POP PUSH1 0x80 DUP7 ADD CALLDATALOAD PUSH1 0x1 PUSH1 0x1 PUSH1 0x40 SHL SUB DUP2 GT ISZERO PUSH2 0x2FC1 JUMPI PUSH0 PUSH0 REVERT JUMPDEST PUSH2 0x2FCD DUP9 DUP3 DUP10 ADD PUSH2 0x2C9C JUMP JUMPDEST SWAP2 POP POP SWAP3 SWAP6 POP SWAP3 SWAP6 SWAP1 SWAP4 POP JUMP JUMPDEST DUP1 CALLDATALOAD PUSH1 0xFF DUP2 AND DUP2 EQ PUSH2 0x2C14 JUMPI PUSH0 PUSH0 REVERT JUMPDEST PUSH0 PUSH1 0x60 DUP3 DUP5 SUB SLT ISZERO PUSH2 0x2FFA JUMPI PUSH0 PUSH0 REVERT JUMPDEST PUSH1 0x40 MLOAD PUSH1 0x60 DUP2 ADD PUSH1 0x1 PUSH1 0x1 PUSH1 0x40 SHL SUB DUP2 GT DUP3 DUP3 LT OR ISZERO PUSH2 0x301C JUMPI PUSH2 0x301C PUSH2 0x2C32 JUMP JUMPDEST PUSH1 0x40 MSTORE SWAP1 POP DUP1 PUSH2 0x302B DUP4 PUSH2 0x2FDA JUMP JUMPDEST DUP2 MSTORE PUSH2 0x3039 PUSH1 0x20 DUP5 ADD PUSH2 0x2FDA JUMP JUMPDEST PUSH1 0x20 DUP3 ADD MSTORE PUSH1 0x40 DUP4 ADD CALLDATALOAD PUSH2 0xFFFF DUP2 AND DUP2 EQ PUSH2 0x3052 JUMPI PUSH0 PUSH0 REVERT JUMPDEST PUSH1 0x40 SWAP2 SWAP1 SWAP2 ADD MSTORE SWAP3 SWAP2 POP POP JUMP JUMPDEST PUSH0 PUSH0 PUSH0 PUSH0 PUSH0 PUSH2 0x120 DUP7 DUP9 SUB SLT ISZERO PUSH2 0x3074 JUMPI PUSH0 PUSH0 REVERT JUMPDEST DUP6 CALLDATALOAD SWAP5 POP PUSH1 0x20 DUP7 ADD CALLDATALOAD PUSH1 0x1 PUSH1 0x1 PUSH1 0x40 SHL SUB DUP2 GT ISZERO PUSH2 0x3090 JUMPI PUSH0 PUSH0 REVERT JUMPDEST PUSH2 0x309C DUP9 DUP3 DUP10 ADD PUSH2 0x2C9C JUMP JUMPDEST SWAP5 POP POP PUSH1 0x40 DUP7 ADD CALLDATALOAD PUSH1 0x1 PUSH1 0x1 PUSH1 0x40 SHL SUB DUP2 GT ISZERO PUSH2 0x30B7 JUMPI PUSH0 PUSH0 REVERT JUMPDEST PUSH2 0x30C3 DUP9 DUP3 DUP10 ADD PUSH2 0x2C9C JUMP JUMPDEST SWAP4 POP POP PUSH2 0x30D3 DUP8 PUSH1 0x60 DUP9 ADD PUSH2 0x2FEA JUMP JUMPDEST SWAP2 POP PUSH2 0x30E2 DUP8 PUSH1 0xC0 DUP9 ADD PUSH2 0x2FEA JUMP JUMPDEST SWAP1 POP SWAP3 SWAP6 POP SWAP3 SWAP6 SWAP1 SWAP4 POP JUMP JUMPDEST PUSH0 PUSH0 PUSH1 0x20 DUP4 DUP6 SUB SLT ISZERO PUSH2 0x30FF JUMPI PUSH0 PUSH0 REVERT JUMPDEST DUP3 CALLDATALOAD PUSH1 0x1 PUSH1 0x1 PUSH1 0x40 SHL SUB DUP2 GT ISZERO PUSH2 0x3114 JUMPI PUSH0 PUSH0 REVERT JUMPDEST DUP4 ADD PUSH1 0x1F DUP2 ADD DUP6 SGT PUSH2 0x3124 JUMPI PUSH0 PUSH0 REVERT JUMPDEST DUP1 CALLDATALOAD PUSH1 0x1 PUSH1 0x1 PUSH1 0x40 SHL SUB DUP2 GT ISZERO PUSH2 0x3139 JUMPI PUSH0 PUSH0 REVERT JUMPDEST DUP6 PUSH1 0x20 DUP3 PUSH1 0x5 SHL DUP5 ADD ADD GT ISZERO PUSH2 0x314D JUMPI PUSH0 PUSH0 REVERT JUMPDEST PUSH1 0x20 SWAP2 SWAP1 SWAP2 ADD SWAP6 SWAP1 SWAP5 POP SWAP3 POP POP POP JUMP JUMPDEST PUSH0 DUP3 PUSH1 0x1F DUP4 ADD SLT PUSH2 0x316C JUMPI PUSH0 PUSH0 REVERT JUMPDEST DUP2 CALLDATALOAD PUSH2 0x317A PUSH2 0x2CBE DUP3 PUSH2 0x2D81 JUMP JUMPDEST DUP1 DUP3 DUP3 MSTORE PUSH1 0x20 DUP3 ADD SWAP2 POP PUSH1 0x20 DUP4 PUSH1 0x5 SHL DUP7 ADD ADD SWAP3 POP DUP6 DUP4 GT ISZERO PUSH2 0x319B JUMPI PUSH0 PUSH0 REVERT JUMPDEST PUSH1 0x20 DUP6 ADD JUMPDEST DUP4 DUP2 LT ISZERO PUSH2 0x2DFE JUMPI PUSH2 0x31B1 DUP2 PUSH2 0x2BFE JUMP JUMPDEST DUP4 MSTORE PUSH1 0x20 SWAP3 DUP4 ADD SWAP3 ADD PUSH2 0x31A0 JUMP JUMPDEST PUSH0 DUP3 PUSH1 0x1F DUP4 ADD SLT PUSH2 0x31CE JUMPI PUSH0 PUSH0 REVERT JUMPDEST DUP2 CALLDATALOAD PUSH2 0x31DC PUSH2 0x2CBE DUP3 PUSH2 0x2D81 JUMP JUMPDEST DUP1 DUP3 DUP3 MSTORE PUSH1 0x20 DUP3 ADD SWAP2 POP PUSH1 0x20 DUP4 PUSH1 0x5 SHL DUP7 ADD ADD SWAP3 POP DUP6 DUP4 GT ISZERO PUSH2 0x31FD JUMPI PUSH0 PUSH0 REVERT JUMPDEST PUSH1 0x20 DUP6 ADD JUMPDEST DUP4 DUP2 LT ISZERO PUSH2 0x2DFE JUMPI PUSH2 0x3213 DUP2 PUSH2 0x2F58 JUMP JUMPDEST DUP4 MSTORE PUSH1 0x20 SWAP3 DUP4 ADD SWAP3 ADD PUSH2 0x3202 JUMP JUMPDEST PUSH0 DUP3 PUSH1 0x1F DUP4 ADD SLT PUSH2 0x3230 JUMPI PUSH0 PUSH0 REVERT JUMPDEST DUP2 CALLDATALOAD PUSH2 0x323E PUSH2 0x2CBE DUP3 PUSH2 0x2D81 JUMP JUMPDEST DUP1 DUP3 DUP3 MSTORE PUSH1 0x20 DUP3 ADD SWAP2 POP PUSH1 0x20 DUP4 PUSH1 0x5 SHL DUP7 ADD ADD SWAP3 POP DUP6 DUP4 GT ISZERO PUSH2 0x325F JUMPI PUSH0 PUSH0 REVERT JUMPDEST PUSH1 0x20 DUP6 ADD JUMPDEST DUP4 DUP2 LT ISZERO PUSH2 0x2DFE JUMPI DUP1 CALLDATALOAD PUSH1 0x1 PUSH1 0x1 PUSH1 0x40 SHL SUB DUP2 GT ISZERO PUSH2 0x3281 JUMPI PUSH0 PUSH0 REVERT JUMPDEST PUSH2 0x3290 DUP9 PUSH1 0x20 DUP4 DUP11 ADD ADD PUSH2 0x2C9C JUMP JUMPDEST DUP5 MSTORE POP PUSH1 0x20 SWAP3 DUP4 ADD SWAP3 ADD PUSH2 0x3264 JUMP JUMPDEST PUSH0 PUSH0 PUSH0 PUSH0 PUSH0 PUSH1 0xA0 DUP7 DUP9 SUB SLT ISZERO PUSH2 0x32B3 JUMPI PUSH0 PUSH0 REVERT JUMPDEST DUP6 CALLDATALOAD PUSH1 0x1 PUSH1 0x1 PUSH1 0x40 SHL SUB DUP2 GT ISZERO PUSH2 0x32C8 JUMPI PUSH0 PUSH0 REVERT JUMPDEST PUSH2 0x32D4 DUP9 DUP3 DUP10 ADD PUSH2 0x315D JUMP JUMPDEST SWAP6 POP POP PUSH1 0x20 DUP7 ADD CALLDATALOAD PUSH1 0x1 PUSH1 0x1 PUSH1 0x40 SHL SUB DUP2 GT ISZERO PUSH2 0x32EF JUMPI PUSH0 PUSH0 REVERT JUMPDEST PUSH2 0x32FB DUP9 DUP3 DUP10 ADD PUSH2 0x315D JUMP JUMPDEST SWAP5 POP POP PUSH1 0x40 DUP7 ADD CALLDATALOAD PUSH1 0x1 PUSH1 0x1 PUSH1 0x40 SHL SUB DUP2 GT ISZERO PUSH2 0x3316 JUMPI PUSH0 PUSH0 REVERT JUMPDEST PUSH2 0x3322 DUP9 DUP3 DUP10 ADD PUSH2 0x2DA3 JUMP JUMPDEST SWAP4 POP POP PUSH1 0x60 DUP7 ADD CALLDATALOAD PUSH1 0x1 PUSH1 0x1 PUSH1 0x40 SHL SUB DUP2 GT ISZERO PUSH2 0x333D JUMPI PUSH0 PUSH0 REVERT JUMPDEST PUSH2 0x3349 DUP9 DUP3 DUP10 ADD PUSH2 0x31BF JUMP JUMPDEST SWAP3 POP POP PUSH1 0x80 DUP7 ADD CALLDATALOAD PUSH1 0x1 PUSH1 0x1 PUSH1 0x40 SHL SUB DUP2 GT ISZERO PUSH2 0x3364 JUMPI PUSH0 PUSH0 REVERT JUMPDEST PUSH2 0x2FCD DUP9 DUP3 DUP10 ADD PUSH2 0x3221 JUMP JUMPDEST PUSH0 PUSH0 PUSH1 0x40 DUP4 DUP6 SUB SLT ISZERO PUSH2 0x3381 JUMPI PUSH0 PUSH0 REVERT JUMPDEST DUP3 CALLDATALOAD SWAP2 POP PUSH1 0x20 DUP4 ADD CALLDATALOAD PUSH1 0x1 PUSH1 0x1 PUSH1 0x40 SHL SUB DUP2 GT ISZERO PUSH2 0x339D JUMPI PUSH0 PUSH0 REVERT JUMPDEST PUSH2 0x2E61 DUP6 DUP3 DUP7 ADD PUSH2 0x2C9C JUMP JUMPDEST PUSH0 PUSH0 PUSH0 PUSH1 0x60 DUP5 DUP7 SUB SLT ISZERO PUSH2 0x33BB JUMPI PUSH0 PUSH0 REVERT JUMPDEST PUSH2 0x33C4 DUP5 PUSH2 0x2BFE JUMP JUMPDEST SWAP3 POP PUSH1 0x20 DUP5 ADD CALLDATALOAD SWAP2 POP PUSH1 0x40 DUP5 ADD CALLDATALOAD PUSH1 0x1 PUSH1 0x1 PUSH1 0x40 SHL SUB DUP2 GT ISZERO PUSH2 0x33E5 JUMPI PUSH0 PUSH0 REVERT JUMPDEST PUSH2 0x33F1 DUP7 DUP3 DUP8 ADD PUSH2 0x2C9C JUMP JUMPDEST SWAP2 POP POP SWAP3 POP SWAP3 POP SWAP3 JUMP JUMPDEST PUSH0 DUP2 MLOAD DUP1 DUP5 MSTORE PUSH1 0x20 DUP5 ADD SWAP4 POP PUSH1 0x20 DUP4 ADD PUSH0 JUMPDEST DUP3 DUP2 LT ISZERO PUSH2 0x342B JUMPI DUP2 MLOAD DUP7 MSTORE PUSH1 0x20 SWAP6 DUP7 ADD SWAP6 SWAP1 SWAP2 ADD SWAP1 PUSH1 0x1 ADD PUSH2 0x340D JUMP JUMPDEST POP SWAP4 SWAP5 SWAP4 POP POP POP POP JUMP JUMPDEST PUSH4 0x4E487B71 PUSH1 0xE0 SHL PUSH0 MSTORE PUSH1 0x21 PUSH1 0x4 MSTORE PUSH1 0x24 PUSH0 REVERT JUMPDEST PUSH1 0x3 DUP2 LT PUSH2 0x3465 JUMPI PUSH4 0x4E487B71 PUSH1 0xE0 SHL PUSH0 MSTORE PUSH1 0x21 PUSH1 0x4 MSTORE PUSH1 0x24 PUSH0 REVERT JUMPDEST SWAP1 MSTORE JUMP JUMPDEST PUSH1 0x20 DUP2 MSTORE PUSH0 DUP3 MLOAD PUSH2 0x1A0 PUSH1 0x20 DUP5 ADD MSTORE PUSH2 0x3486 PUSH2 0x1C0 DUP5 ADD DUP3 PUSH2 0x2D41 JUMP JUMPDEST SWAP1 POP PUSH1 0x20 DUP5 ADD MLOAD PUSH1 0x40 DUP5 ADD MSTORE PUSH1 0x40 DUP5 ADD MLOAD PUSH1 0x60 DUP5 ADD MSTORE PUSH1 0x60 DUP5 ADD MLOAD PUSH1 0x1F NOT DUP5 DUP4 SUB ADD PUSH1 0x80 DUP6 ADD MSTORE PUSH2 0x34B7 DUP3 DUP3 PUSH2 0x33FB JUMP JUMPDEST SWAP2 POP POP PUSH1 0x80 DUP5 ADD MLOAD PUSH1 0x1F NOT DUP5 DUP4 SUB ADD PUSH1 0xA0 DUP6 ADD MSTORE PUSH2 0x34D5 DUP3 DUP3 PUSH2 0x33FB JUMP JUMPDEST SWAP2 POP POP PUSH1 0xA0 DUP5 ADD MLOAD PUSH2 0x34EA PUSH1 0xC0 DUP6 ADD DUP3 PUSH2 0x3449 JUMP JUMPDEST POP PUSH1 0xC0 DUP5 ADD MLOAD DUP1 MLOAD PUSH1 0xFF SWAP1 DUP2 AND PUSH1 0xE0 DUP7 ADD MSTORE PUSH1 0x20 DUP3 ADD MLOAD AND PUSH2 0x100 DUP6 ADD MSTORE PUSH1 0x40 DUP2 ADD MLOAD PUSH2 0xFFFF AND PUSH2 0x120 DUP6 ADD MSTORE POP PUSH1 0xE0 DUP5 ADD MLOAD DUP1 MLOAD PUSH1 0xFF SWAP1 DUP2 AND PUSH2 0x140 DUP7 ADD MSTORE PUSH1 0x20 DUP3 ADD MLOAD AND PUSH2 0x160 DUP6 ADD MSTORE PUSH1 0x40 DUP2 ADD MLOAD PUSH2 0xFFFF AND PUSH2 0x180 DUP6 ADD MSTORE POP PUSH2 0x100 DUP5 ADD MLOAD DUP4 DUP3 SUB PUSH1 0x1F NOT ADD PUSH2 0x1A0 DUP6 ADD MSTORE PUSH2 0x3563 DUP3 DUP3 PUSH2 0x2D41 JUMP JUMPDEST SWAP6 SWAP5 POP POP POP POP POP JUMP JUMPDEST PUSH0 PUSH0 PUSH1 0x40 DUP4 DUP6 SUB SLT ISZERO PUSH2 0x357D JUMPI PUSH0 PUSH0 REVERT JUMPDEST DUP3 CALLDATALOAD PUSH1 0x1 PUSH1 0x1 PUSH1 0x40 SHL SUB DUP2 GT ISZERO PUSH2 0x3592 JUMPI PUSH0 PUSH0 REVERT JUMPDEST PUSH2 0x359E DUP6 DUP3 DUP7 ADD PUSH2 0x2DA3 JUMP JUMPDEST SWAP3 POP POP PUSH1 0x20 DUP4 ADD CALLDATALOAD PUSH1 0x1 PUSH1 0x1 PUSH1 0x40 SHL SUB DUP2 GT ISZERO PUSH2 0x35B9 JUMPI PUSH0 PUSH0 REVERT JUMPDEST PUSH2 0x2E61 DUP6 DUP3 DUP7 ADD PUSH2 0x3221 JUMP JUMPDEST PUSH1 0x20 DUP2 MSTORE PUSH0 PUSH2 0x8B6 PUSH1 0x20 DUP4 ADD DUP5 PUSH2 0x33FB JUMP JUMPDEST PUSH0 PUSH0 PUSH0 PUSH1 0x60 DUP5 DUP7 SUB SLT ISZERO PUSH2 0x35E9 JUMPI PUSH0 PUSH0 REVERT JUMPDEST DUP4 CALLDATALOAD PUSH1 0x1 PUSH1 0x1 PUSH1 0x40 SHL SUB DUP2 GT ISZERO PUSH2 0x35FE JUMPI PUSH0 PUSH0 REVERT JUMPDEST PUSH2 0x360A DUP7 DUP3 DUP8 ADD PUSH2 0x2DA3 JUMP JUMPDEST SWAP4 POP POP PUSH1 0x20 DUP5 ADD CALLDATALOAD PUSH1 0x1 PUSH1 0x1 PUSH1 0x40 SHL SUB DUP2 GT ISZERO PUSH2 0x3625 JUMPI PUSH0 PUSH0 REVERT JUMPDEST PUSH2 0x3631 DUP7 DUP3 DUP8 ADD PUSH2 0x2DA3 JUMP JUMPDEST SWAP3 POP POP PUSH1 0x40 DUP5 ADD CALLDATALOAD PUSH1 0x1 PUSH1 0x1 PUSH1 0x40 SHL SUB DUP2 GT ISZERO PUSH2 0x364C JUMPI PUSH0 PUSH0 REVERT JUMPDEST PUSH2 0x33F1 DUP7 DUP3 DUP8 ADD PUSH2 0x3221 JUMP JUMPDEST PUSH0 PUSH0 PUSH0 PUSH1 0x60 DUP5 DUP7 SUB SLT ISZERO PUSH2 0x366A JUMPI PUSH0 PUSH0 REVERT JUMPDEST DUP4 CALLDATALOAD SWAP3 POP PUSH1 0x20 DUP5 ADD CALLDATALOAD SWAP2 POP PUSH1 0x40 DUP5 ADD CALLDATALOAD PUSH1 0x1 PUSH1 0x1 PUSH1 0x40 SHL SUB DUP2 GT ISZERO PUSH2 0x33E5 JUMPI PUSH0 PUSH0 REVERT JUMPDEST PUSH0 PUSH0 PUSH0 PUSH0 PUSH1 0x80 DUP6 DUP8 SUB SLT ISZERO PUSH2 0x36A0 JUMPI PUSH0 PUSH0 REVERT JUMPDEST PUSH2 0x36A9 DUP6 PUSH2 0x2BFE JUMP JUMPDEST SWAP4 POP PUSH1 0x20 DUP6 ADD CALLDATALOAD SWAP3 POP PUSH2 0x36BE PUSH1 0x40 DUP7 ADD PUSH2 0x2F58 JUMP JUMPDEST SWAP2 POP PUSH1 0x60 DUP6 ADD CALLDATALOAD PUSH1 0x1 PUSH1 0x1 PUSH1 0x40 SHL SUB DUP2 GT ISZERO PUSH2 0x36D8 JUMPI PUSH0 PUSH0 REVERT JUMPDEST PUSH2 0x36E4 DUP8 DUP3 DUP9 ADD PUSH2 0x2C9C JUMP JUMPDEST SWAP2 POP POP SWAP3 SWAP6 SWAP2 SWAP5 POP SWAP3 POP JUMP JUMPDEST PUSH0 PUSH1 0x20 DUP3 DUP5 SUB SLT ISZERO PUSH2 0x3700 JUMPI PUSH0 PUSH0 REVERT JUMPDEST DUP2 CALLDATALOAD PUSH1 0x1 PUSH1 0x1 PUSH1 0x40 SHL SUB DUP2 GT ISZERO PUSH2 0x3715 JUMPI PUSH0 PUSH0 REVERT JUMPDEST PUSH2 0x2415 DUP5 DUP3 DUP6 ADD PUSH2 0x2DA3 JUMP JUMPDEST PUSH0 PUSH0 PUSH0 PUSH0 PUSH0 PUSH0 PUSH2 0x140 DUP8 DUP10 SUB SLT ISZERO PUSH2 0x3737 JUMPI PUSH0 PUSH0 REVERT JUMPDEST DUP7 CALLDATALOAD SWAP6 POP PUSH1 0x20 DUP8 ADD CALLDATALOAD PUSH1 0x1 PUSH1 0x1 PUSH1 0x40 SHL SUB DUP2 GT ISZERO PUSH2 0x3753 JUMPI PUSH0 PUSH0 REVERT JUMPDEST PUSH2 0x375F DUP10 DUP3 DUP11 ADD PUSH2 0x2C9C JUMP JUMPDEST SWAP6 POP POP PUSH1 0x40 DUP8 ADD CALLDATALOAD PUSH1 0x1 PUSH1 0x1 PUSH1 0x40 SHL SUB DUP2 GT ISZERO PUSH2 0x377A JUMPI PUSH0 PUSH0 REVERT JUMPDEST PUSH2 0x3786 DUP10 DUP3 DUP11 ADD PUSH2 0x2C9C JUMP JUMPDEST SWAP5 POP POP PUSH1 0x60 DUP8 ADD CALLDATALOAD PUSH1 0x3 DUP2 LT PUSH2 0x379A JUMPI PUSH0 PUSH0 REVERT JUMPDEST SWAP3 POP PUSH2 0x37A9 DUP9 PUSH1 0x80 DUP10 ADD PUSH2 0x2FEA JUMP JUMPDEST SWAP2 POP PUSH2 0x37B8 DUP9 PUSH1 0xE0 DUP10 ADD PUSH2 0x2FEA JUMP JUMPDEST SWAP1 POP SWAP3 SWAP6 POP SWAP3 SWAP6 POP SWAP3 SWAP6 JUMP JUMPDEST DUP4 DUP6 DUP3 CALLDATACOPY PUSH1 0x60 SWAP3 SWAP1 SWAP3 SHL PUSH1 0x1 PUSH1 0x1 PUSH1 0x60 SHL SUB NOT AND SWAP2 SWAP1 SWAP3 ADD SWAP1 DUP2 MSTORE PUSH1 0x14 DUP2 ADD SWAP2 SWAP1 SWAP2 MSTORE PUSH1 0x34 ADD SWAP2 SWAP1 POP JUMP JUMPDEST PUSH0 DUP3 MLOAD DUP1 PUSH1 0x20 DUP6 ADD DUP5 MCOPY PUSH0 SWAP3 ADD SWAP2 DUP3 MSTORE POP SWAP2 SWAP1 POP JUMP JUMPDEST PUSH1 0x1 DUP2 DUP2 SHR SWAP1 DUP3 AND DUP1 PUSH2 0x3819 JUMPI PUSH1 0x7F DUP3 AND SWAP2 POP JUMPDEST PUSH1 0x20 DUP3 LT DUP2 SUB PUSH2 0x1922 JUMPI PUSH4 0x4E487B71 PUSH1 0xE0 SHL PUSH0 MSTORE PUSH1 0x22 PUSH1 0x4 MSTORE PUSH1 0x24 PUSH0 REVERT JUMPDEST PUSH1 0x1F DUP3 GT ISZERO PUSH2 0x2298 JUMPI DUP1 PUSH0 MSTORE PUSH1 0x20 PUSH0 KECCAK256 PUSH1 0x1F DUP5 ADD PUSH1 0x5 SHR DUP2 ADD PUSH1 0x20 DUP6 LT ISZERO PUSH2 0x385C JUMPI POP DUP1 JUMPDEST PUSH1 0x1F DUP5 ADD PUSH1 0x5 SHR DUP3 ADD SWAP2 POP JUMPDEST DUP2 DUP2 LT ISZERO PUSH2 0xA44 JUMPI PUSH0 DUP2 SSTORE PUSH1 0x1 ADD PUSH2 0x3868 JUMP JUMPDEST DUP2 MLOAD PUSH1 0x1 PUSH1 0x1 PUSH1 0x40 SHL SUB DUP2 GT ISZERO PUSH2 0x3894 JUMPI PUSH2 0x3894 PUSH2 0x2C32 JUMP JUMPDEST PUSH2 0x38A8 DUP2 PUSH2 0x38A2 DUP5 SLOAD PUSH2 0x3805 JUMP JUMPDEST DUP5 PUSH2 0x3837 JUMP JUMPDEST PUSH1 0x20 PUSH1 0x1F DUP3 GT PUSH1 0x1 DUP2 EQ PUSH2 0x38DA JUMPI PUSH0 DUP4 ISZERO PUSH2 0x38C3 JUMPI POP DUP5 DUP3 ADD MLOAD JUMPDEST PUSH0 NOT PUSH1 0x3 DUP6 SWAP1 SHL SHR NOT AND PUSH1 0x1 DUP5 SWAP1 SHL OR DUP5 SSTORE PUSH2 0xA44 JUMP JUMPDEST PUSH0 DUP5 DUP2 MSTORE PUSH1 0x20 DUP2 KECCAK256 PUSH1 0x1F NOT DUP6 AND SWAP2 JUMPDEST DUP3 DUP2 LT ISZERO PUSH2 0x3909 JUMPI DUP8 DUP6 ADD MLOAD DUP3 SSTORE PUSH1 0x20 SWAP5 DUP6 ADD SWAP5 PUSH1 0x1 SWAP1 SWAP3 ADD SWAP2 ADD PUSH2 0x38E9 JUMP JUMPDEST POP DUP5 DUP3 LT ISZERO PUSH2 0x3926 JUMPI DUP7 DUP5 ADD MLOAD PUSH0 NOT PUSH1 0x3 DUP8 SWAP1 SHL PUSH1 0xF8 AND SHR NOT AND DUP2 SSTORE JUMPDEST POP POP POP POP PUSH1 0x1 SWAP1 DUP2 SHL ADD SWAP1 SSTORE POP JUMP JUMPDEST PUSH4 0x4E487B71 PUSH1 0xE0 SHL PUSH0 MSTORE PUSH1 0x32 PUSH1 0x4 MSTORE PUSH1 0x24 PUSH0 REVERT JUMPDEST PUSH1 0x20 DUP1 DUP3 MSTORE PUSH1 0xE SWAP1 DUP3 ADD MSTORE PUSH14 0x139BDD08185D5D1A1BDC9A5E9959 PUSH1 0x92 SHL PUSH1 0x40 DUP3 ADD MSTORE PUSH1 0x60 ADD SWAP1 JUMP JUMPDEST PUSH0 PUSH0 DUP4 CALLDATALOAD PUSH1 0x1E NOT DUP5 CALLDATASIZE SUB ADD DUP2 SLT PUSH2 0x3986 JUMPI PUSH0 PUSH0 REVERT JUMPDEST DUP4 ADD DUP1 CALLDATALOAD SWAP2 POP PUSH1 0x1 PUSH1 0x1 PUSH1 0x40 SHL SUB DUP3 GT ISZERO PUSH2 0x399F JUMPI PUSH0 PUSH0 REVERT JUMPDEST PUSH1 0x20 ADD SWAP2 POP CALLDATASIZE DUP2 SWAP1 SUB DUP3 SGT ISZERO PUSH2 0x39B3 JUMPI PUSH0 PUSH0 REVERT JUMPDEST SWAP3 POP SWAP3 SWAP1 POP JUMP JUMPDEST DUP2 DUP4 DUP3 CALLDATACOPY PUSH0 SWAP2 ADD SWAP1 DUP2 MSTORE SWAP2 SWAP1 POP JUMP JUMPDEST PUSH4 0x4E487B71 PUSH1 0xE0 SHL PUSH0 MSTORE PUSH1 0x11 PUSH1 0x4 MSTORE PUSH1 0x24 PUSH0 REVERT JUMPDEST DUP2 DUP2 SUB DUP2 DUP2 GT ISZERO PUSH2 0x7D1 JUMPI PUSH2 0x7D1 PUSH2 0x39C9 JUMP JUMPDEST PUSH4 0x4E487B71 PUSH1 0xE0 SHL PUSH0 MSTORE PUSH1 0x31 PUSH1 0x4 MSTORE PUSH1 0x24 PUSH0 REVERT JUMPDEST PUSH1 0x1 DUP1 PUSH1 0xA0 SHL SUB DUP6 AND DUP2 MSTORE DUP4 PUSH1 0x20 DUP3 ADD MSTORE DUP3 ISZERO ISZERO PUSH1 0x40 DUP3 ADD MSTORE PUSH1 0x80 PUSH1 0x60 DUP3 ADD MSTORE PUSH0 PUSH2 0x3A32 PUSH1 0x80 DUP4 ADD DUP5 PUSH2 0x2D41 JUMP JUMPDEST SWAP7 SWAP6 POP POP POP POP POP POP JUMP JUMPDEST DUP1 MLOAD PUSH1 0x20 DUP3 ADD MLOAD PUSH1 0x1 PUSH1 0x1 PUSH1 0x60 SHL SUB NOT DUP2 AND SWAP2 SWAP1 PUSH1 0x14 DUP3 LT ISZERO PUSH2 0x3A83 JUMPI PUSH12 0xFFFFFFFFFFFFFFFFFFFFFFFF NOT PUSH12 0xFFFFFFFFFFFFFFFFFFFFFFFF NOT DUP4 PUSH1 0x14 SUB PUSH1 0x3 SHL SHL DUP3 AND AND SWAP3 POP JUMPDEST POP POP SWAP2 SWAP1 POP JUMP JUMPDEST PUSH1 0x1 PUSH1 0x1 PUSH1 0xA0 SHL SUB DUP5 AND DUP2 MSTORE DUP3 ISZERO ISZERO PUSH1 0x20 DUP3 ADD MSTORE PUSH1 0x60 PUSH1 0x40 DUP3 ADD DUP2 SWAP1 MSTORE PUSH0 SWAP1 PUSH2 0x3563 SWAP1 DUP4 ADD DUP5 PUSH2 0x2D41 JUMP JUMPDEST PUSH1 0x1 PUSH1 0x1 PUSH1 0xA0 SHL SUB DUP7 DUP2 AND DUP3 MSTORE DUP6 DUP2 AND PUSH1 0x20 DUP4 ADD MSTORE DUP5 AND PUSH1 0x40 DUP3 ADD MSTORE PUSH1 0x60 DUP2 ADD DUP4 SWAP1 MSTORE PUSH1 0xA0 PUSH1 0x80 DUP3 ADD DUP2 SWAP1 MSTORE PUSH0 SWAP1 PUSH2 0x24CC SWAP1 DUP4 ADD DUP5 PUSH2 0x2D41 JUMP JUMPDEST DUP3 ISZERO ISZERO DUP2 MSTORE PUSH1 0x40 PUSH1 0x20 DUP3 ADD MSTORE PUSH0 PUSH2 0x2415 PUSH1 0x40 DUP4 ADD DUP5 PUSH2 0x2D41 JUMP JUMPDEST DUP1 MLOAD PUSH1 0x20 DUP1 DUP4 ADD MLOAD SWAP2 SWAP1 DUP2 LT ISZERO PUSH2 0x1922 JUMPI PUSH0 NOT PUSH1 0x20 SWAP2 SWAP1 SWAP2 SUB PUSH1 0x3 SHL SHL AND SWAP2 SWAP1 POP JUMP JUMPDEST DUP3 DUP2 MSTORE PUSH1 0x40 PUSH1 0x20 DUP3 ADD MSTORE PUSH0 PUSH2 0x2415 PUSH1 0x40 DUP4 ADD DUP5 PUSH2 0x2D41 JUMP JUMPDEST PUSH0 PUSH1 0x20 DUP3 DUP5 SUB SLT ISZERO PUSH2 0x3B54 JUMPI PUSH0 PUSH0 REVERT JUMPDEST DUP2 MLOAD PUSH1 0x1 PUSH1 0x1 PUSH1 0x40 SHL SUB DUP2 GT ISZERO PUSH2 0x3B69 JUMPI PUSH0 PUSH0 REVERT JUMPDEST DUP3 ADD PUSH1 0x1F DUP2 ADD DUP5 SGT PUSH2 0x3B79 JUMPI PUSH0 PUSH0 REVERT JUMPDEST DUP1 MLOAD PUSH2 0x3B87 PUSH2 0x2CBE DUP3 PUSH2 0x2C76 JUMP JUMPDEST DUP2 DUP2 MSTORE DUP6 PUSH1 0x20 DUP4 DUP6 ADD ADD GT ISZERO PUSH2 0x3B9B JUMPI PUSH0 PUSH0 REVERT JUMPDEST DUP2 PUSH1 0x20 DUP5 ADD PUSH1 0x20 DUP4 ADD MCOPY PUSH0 SWAP2 DUP2 ADD PUSH1 0x20 ADD SWAP2 SWAP1 SWAP2 MSTORE SWAP5 SWAP4 POP POP POP POP JUMP JUMPDEST PUSH0 PUSH1 0x1 DUP3 ADD PUSH2 0x3BC9 JUMPI PUSH2 0x3BC9 PUSH2 0x39C9 JUMP JUMPDEST POP PUSH1 0x1 ADD SWAP1 JUMP INVALID LOG2 PUSH5 0x6970667358 0x22 SLT KECCAK256 BLOBHASH 0xED 0xDC PUSH28 0xA52547B2C32C2A8DB722A5A72495A2663BB34703569B0A426F32BED9 PUSH5 0x736F6C6343 STOP ADDMOD 0x1F STOP CALLER "
		},
		"gasEstimates": {
			"creation": {
				"codeDepositCost": "3073200",
				"executionCost": "infinite",
				"totalCost": "infinite"
			},
			"external": {
				"": "infinite",
				"addChild(bytes32,string,string,uint8,(uint8,uint8,uint16),(uint8,uint8,uint16))": "infinite",
				"addSpouse(bytes32,string,string,(uint8,uint8,uint16),(uint8,uint8,uint16))": "infinite",
				"authorizeOperator(address,bytes32,bytes)": "infinite",
				"balanceOf(address)": "infinite",
				"batchCalls(bytes[])": "infinite",
				"clanShortDesc()": "infinite",
				"genealogyAddress()": "2426",
				"getData(bytes32)": "infinite",
				"getDataBatch(bytes32[])": "infinite",
				"getDataBatchForTokenIds(bytes32[],bytes32[])": "infinite",
				"getDataForTokenId(bytes32,bytes32)": "infinite",
				"getOperatorsOf(bytes32)": "infinite",
				"getPersonInfo(bytes32)": "infinite",
				"isOperatorFor(address,bytes32)": "infinite",
				"owner()": "2374",
				"personCount()": "2430",
				"removeChild(bytes32,bytes32)": "infinite",
				"removeSpouse(bytes32,bytes32)": "infinite",
				"renounceOwnership()": "infinite",
				"revokeOperator(address,bytes32,bool,bytes)": "infinite",
				"setClanShortDesc(string)": "infinite",
				"setData(bytes32,bytes)": "infinite",
				"setDataBatch(bytes32[],bytes[])": "infinite",
				"setDataBatchForTokenIds(bytes32[],bytes32[],bytes[])": "infinite",
				"setDataForTokenId(bytes32,bytes32,bytes)": "infinite",
				"supportsInterface(bytes4)": "infinite",
				"tokenIdsOf(address)": "infinite",
				"tokenOwnerOf(bytes32)": "2622",
				"totalSupply()": "2326",
				"transfer(address,address,bytes32,bool,bytes)": "infinite",
				"transferBatch(address[],address[],bytes32[],bool[],bytes[])": "infinite",
				"transferGenealogyOwner(address)": "28340",
				"transferOwnership(address)": "28461",
				"updatePersonData(bytes32,string,string,(uint8,uint8,uint16),(uint8,uint8,uint16))": "infinite"
			},
			"internal": {
				"_createNewPerson(string memory,string memory,address,enum FamilyTypes.Sex,struct FamilyTypes.DateInfo memory,struct FamilyTypes.DateInfo memory)": "infinite"
			}
		},
		"methodIdentifiers": {
			"addChild(bytes32,string,string,uint8,(uint8,uint8,uint16),(uint8,uint8,uint16))": "eb445de4",
			"addSpouse(bytes32,string,string,(uint8,uint8,uint16),(uint8,uint8,uint16))": "59814756",
			"authorizeOperator(address,bytes32,bytes)": "86a10ddd",
			"balanceOf(address)": "70a08231",
			"batchCalls(bytes[])": "6963d438",
			"clanShortDesc()": "e4ac8dbd",
			"genealogyAddress()": "1f121708",
			"getData(bytes32)": "54f6127f",
			"getDataBatch(bytes32[])": "dedff9c6",
			"getDataBatchForTokenIds(bytes32[],bytes32[])": "1d26fce6",
			"getDataForTokenId(bytes32,bytes32)": "16e023b3",
			"getOperatorsOf(bytes32)": "49a6078d",
			"getPersonInfo(bytes32)": "92b88f06",
			"isOperatorFor(address,bytes32)": "2a3654a4",
			"owner()": "8da5cb5b",
			"personCount()": "78495bf8",
			"removeChild(bytes32,bytes32)": "8f81ecfc",
			"removeSpouse(bytes32,bytes32)": "7e913b05",
			"renounceOwnership()": "715018a6",
			"revokeOperator(address,bytes32,bool,bytes)": "db8c9663",
			"setClanShortDesc(string)": "0cfa4650",
			"setData(bytes32,bytes)": "7f23690c",
			"setDataBatch(bytes32[],bytes[])": "97902421",
			"setDataBatchForTokenIds(bytes32[],bytes32[],bytes[])": "be9f0e6f",
			"setDataForTokenId(bytes32,bytes32,bytes)": "d6c1407c",
			"supportsInterface(bytes4)": "01ffc9a7",
			"tokenIdsOf(address)": "a3b261f2",
			"tokenOwnerOf(bytes32)": "217b2270",
			"totalSupply()": "18160ddd",
			"transfer(address,address,bytes32,bool,bytes)": "511b6952",
			"transferBatch(address[],address[],bytes32[],bool[],bytes[])": "7e87632c",
			"transferGenealogyOwner(address)": "02154b4e",
			"transferOwnership(address)": "f2fde38b",
			"updatePersonData(bytes32,string,string,(uint8,uint8,uint16),(uint8,uint8,uint16))": "a07e80c6"
		}
	},
	"abi": [
		{
			"inputs": [
				{
					"internalType": "string",
					"name": "clanName",
					"type": "string"
				},
				{
					"internalType": "string",
					"name": "clanDesc",
					"type": "string"
				},
				{
					"internalType": "string",
					"name": "ancestorName",
					"type": "string"
				},
				{
					"internalType": "string",
					"name": "ancestorShortDesc",
					"type": "string"
				},
				{
					"components": [
						{
							"internalType": "uint8",
							"name": "day",
							"type": "uint8"
						},
						{
							"internalType": "uint8",
							"name": "month",
							"type": "uint8"
						},
						{
							"internalType": "uint16",
							"name": "year",
							"type": "uint16"
						}
					],
					"internalType": "struct FamilyTypes.DateInfo",
					"name": "birthDate",
					"type": "tuple"
				},
				{
					"components": [
						{
							"internalType": "uint8",
							"name": "day",
							"type": "uint8"
						},
						{
							"internalType": "uint8",
							"name": "month",
							"type": "uint8"
						},
						{
							"internalType": "uint16",
							"name": "year",
							"type": "uint16"
						}
					],
					"internalType": "struct FamilyTypes.DateInfo",
					"name": "deathDate",
					"type": "tuple"
				},
				{
					"internalType": "address",
					"name": "owner",
					"type": "address"
				}
			],
			"stateMutability": "nonpayable",
			"type": "constructor"
		},
		{
			"inputs": [],
			"name": "ERC725Y_DataKeysValuesEmptyArray",
			"type": "error"
		},
		{
			"inputs": [],
			"name": "ERC725Y_DataKeysValuesLengthMismatch",
			"type": "error"
		},
		{
			"inputs": [],
			"name": "ERC725Y_MsgValueDisallowed",
			"type": "error"
		},
		{
			"inputs": [
				{
					"internalType": "bytes",
					"name": "storedData",
					"type": "bytes"
				}
			],
			"name": "InvalidExtensionAddress",
			"type": "error"
		},
		{
			"inputs": [
				{
					"internalType": "bytes",
					"name": "data",
					"type": "bytes"
				}
			],
			"name": "InvalidFunctionSelector",
			"type": "error"
		},
		{
			"inputs": [],
			"name": "LSP4TokenNameNotEditable",
			"type": "error"
		},
		{
			"inputs": [],
			"name": "LSP4TokenSymbolNotEditable",
			"type": "error"
		},
		{
			"inputs": [],
			"name": "LSP4TokenTypeNotEditable",
			"type": "error"
		},
		{
			"inputs": [
				{
					"internalType": "uint256",
					"name": "callIndex",
					"type": "uint256"
				}
			],
			"name": "LSP8BatchCallFailed",
			"type": "error"
		},
		{
			"inputs": [],
			"name": "LSP8CannotSendToAddressZero",
			"type": "error"
		},
		{
			"inputs": [],
			"name": "LSP8CannotUseAddressZeroAsOperator",
			"type": "error"
		},
		{
			"inputs": [],
			"name": "LSP8InvalidTransferBatch",
			"type": "error"
		},
		{
			"inputs": [
				{
					"internalType": "bytes32",
					"name": "tokenId",
					"type": "bytes32"
				}
			],
			"name": "LSP8NonExistentTokenId",
			"type": "error"
		},
		{
			"inputs": [
				{
					"internalType": "address",
					"name": "operator",
					"type": "address"
				},
				{
					"internalType": "bytes32",
					"name": "tokenId",
					"type": "bytes32"
				}
			],
			"name": "LSP8NonExistingOperator",
			"type": "error"
		},
		{
			"inputs": [
				{
					"internalType": "bytes32",
					"name": "tokenId",
					"type": "bytes32"
				},
				{
					"internalType": "address",
					"name": "caller",
					"type": "address"
				}
			],
			"name": "LSP8NotTokenOperator",
			"type": "error"
		},
		{
			"inputs": [
				{
					"internalType": "address",
					"name": "tokenOwner",
					"type": "address"
				},
				{
					"internalType": "bytes32",
					"name": "tokenId",
					"type": "bytes32"
				},
				{
					"internalType": "address",
					"name": "caller",
					"type": "address"
				}
			],
			"name": "LSP8NotTokenOwner",
			"type": "error"
		},
		{
			"inputs": [
				{
					"internalType": "address",
					"name": "tokenReceiver",
					"type": "address"
				}
			],
			"name": "LSP8NotifyTokenReceiverContractMissingLSP1Interface",
			"type": "error"
		},
		{
			"inputs": [
				{
					"internalType": "address",
					"name": "tokenReceiver",
					"type": "address"
				}
			],
			"name": "LSP8NotifyTokenReceiverIsEOA",
			"type": "error"
		},
		{
			"inputs": [
				{
					"internalType": "address",
					"name": "operator",
					"type": "address"
				},
				{
					"internalType": "bytes32",
					"name": "tokenId",
					"type": "bytes32"
				}
			],
			"name": "LSP8OperatorAlreadyAuthorized",
			"type": "error"
		},
		{
			"inputs": [
				{
					"internalType": "address",
					"name": "caller",
					"type": "address"
				},
				{
					"internalType": "address",
					"name": "tokenOwner",
					"type": "address"
				},
				{
					"internalType": "bytes32",
					"name": "tokenId",
					"type": "bytes32"
				}
			],
			"name": "LSP8RevokeOperatorNotAuthorized",
			"type": "error"
		},
		{
			"inputs": [],
			"name": "LSP8TokenContractCannotHoldValue",
			"type": "error"
		},
		{
			"inputs": [
				{
					"internalType": "bytes32",
					"name": "tokenId",
					"type": "bytes32"
				}
			],
			"name": "LSP8TokenIdAlreadyMinted",
			"type": "error"
		},
		{
			"inputs": [],
			"name": "LSP8TokenIdFormatNotEditable",
			"type": "error"
		},
		{
			"inputs": [],
			"name": "LSP8TokenIdsDataEmptyArray",
			"type": "error"
		},
		{
			"inputs": [],
			"name": "LSP8TokenIdsDataLengthMismatch",
			"type": "error"
		},
		{
			"inputs": [],
			"name": "LSP8TokenOwnerCannotBeOperator",
			"type": "error"
		},
		{
			"inputs": [
				{
					"internalType": "bytes32",
					"name": "tokenId",
					"type": "bytes32"
				},
				{
					"internalType": "address",
					"name": "oldOwner",
					"type": "address"
				},
				{
					"internalType": "address",
					"name": "newOwner",
					"type": "address"
				}
			],
			"name": "LSP8TokenOwnerChanged",
			"type": "error"
		},
		{
			"inputs": [
				{
					"internalType": "bytes4",
					"name": "functionSelector",
					"type": "bytes4"
				}
			],
			"name": "NoExtensionFoundForFunctionSelector",
			"type": "error"
		},
		{
			"inputs": [],
			"name": "OwnableCannotSetZeroAddressAsOwner",
			"type": "error"
		},
		{
			"anonymous": false,
			"inputs": [
				{
					"indexed": true,
					"internalType": "bytes32",
					"name": "fatherId",
					"type": "bytes32"
				},
				{
					"indexed": true,
					"internalType": "bytes32",
					"name": "childId",
					"type": "bytes32"
				}
			],
			"name": "ChildAdded",
			"type": "event"
		},
		{
			"anonymous": false,
			"inputs": [
				{
					"indexed": true,
					"internalType": "bytes32",
					"name": "parentId",
					"type": "bytes32"
				},
				{
					"indexed": true,
					"internalType": "bytes32",
					"name": "childId",
					"type": "bytes32"
				}
			],
			"name": "ChildRemoved",
			"type": "event"
		},
		{
			"anonymous": false,
			"inputs": [
				{
					"indexed": true,
					"internalType": "address",
					"name": "owner",
					"type": "address"
				}
			],
			"name": "ClanShortDescChanged",
			"type": "event"
		},
		{
			"anonymous": false,
			"inputs": [
				{
					"indexed": true,
					"internalType": "bytes32",
					"name": "dataKey",
					"type": "bytes32"
				},
				{
					"indexed": false,
					"internalType": "bytes",
					"name": "dataValue",
					"type": "bytes"
				}
			],
			"name": "DataChanged",
			"type": "event"
		},
		{
			"anonymous": false,
			"inputs": [
				{
					"indexed": true,
					"internalType": "address",
					"name": "operator",
					"type": "address"
				},
				{
					"indexed": true,
					"internalType": "address",
					"name": "tokenOwner",
					"type": "address"
				},
				{
					"indexed": true,
					"internalType": "bytes32",
					"name": "tokenId",
					"type": "bytes32"
				},
				{
					"indexed": false,
					"internalType": "bytes",
					"name": "operatorNotificationData",
					"type": "bytes"
				}
			],
			"name": "OperatorAuthorizationChanged",
			"type": "event"
		},
		{
			"anonymous": false,
			"inputs": [
				{
					"indexed": true,
					"internalType": "address",
					"name": "operator",
					"type": "address"
				},
				{
					"indexed": true,
					"internalType": "address",
					"name": "tokenOwner",
					"type": "address"
				},
				{
					"indexed": true,
					"internalType": "bytes32",
					"name": "tokenId",
					"type": "bytes32"
				},
				{
					"indexed": false,
					"internalType": "bool",
					"name": "notified",
					"type": "bool"
				},
				{
					"indexed": false,
					"internalType": "bytes",
					"name": "operatorNotificationData",
					"type": "bytes"
				}
			],
			"name": "OperatorRevoked",
			"type": "event"
		},
		{
			"anonymous": false,
			"inputs": [
				{
					"indexed": true,
					"internalType": "address",
					"name": "previousOwner",
					"type": "address"
				},
				{
					"indexed": true,
					"internalType": "address",
					"name": "newOwner",
					"type": "address"
				}
			],
			"name": "OwnershipTransferred",
			"type": "event"
		},
		{
			"anonymous": false,
			"inputs": [
				{
					"indexed": true,
					"internalType": "bytes32",
					"name": "personId",
					"type": "bytes32"
				},
				{
					"indexed": false,
					"internalType": "address",
					"name": "ownership",
					"type": "address"
				}
			],
			"name": "PersonCreated",
			"type": "event"
		},
		{
			"anonymous": false,
			"inputs": [
				{
					"indexed": true,
					"internalType": "bytes32",
					"name": "husbandId",
					"type": "bytes32"
				},
				{
					"indexed": true,
					"internalType": "bytes32",
					"name": "spouseId",
					"type": "bytes32"
				}
			],
			"name": "SpouseAdded",
			"type": "event"
		},
		{
			"anonymous": false,
			"inputs": [
				{
					"indexed": true,
					"internalType": "bytes32",
					"name": "husbandId",
					"type": "bytes32"
				},
				{
					"indexed": true,
					"internalType": "bytes32",
					"name": "spouseId",
					"type": "bytes32"
				}
			],
			"name": "SpouseRemoved",
			"type": "event"
		},
		{
			"anonymous": false,
			"inputs": [
				{
					"indexed": true,
					"internalType": "bytes32",
					"name": "tokenId",
					"type": "bytes32"
				},
				{
					"indexed": true,
					"internalType": "bytes32",
					"name": "dataKey",
					"type": "bytes32"
				},
				{
					"indexed": false,
					"internalType": "bytes",
					"name": "dataValue",
					"type": "bytes"
				}
			],
			"name": "TokenIdDataChanged",
			"type": "event"
		},
		{
			"anonymous": false,
			"inputs": [
				{
					"indexed": false,
					"internalType": "address",
					"name": "operator",
					"type": "address"
				},
				{
					"indexed": true,
					"internalType": "address",
					"name": "from",
					"type": "address"
				},
				{
					"indexed": true,
					"internalType": "address",
					"name": "to",
					"type": "address"
				},
				{
					"indexed": true,
					"internalType": "bytes32",
					"name": "tokenId",
					"type": "bytes32"
				},
				{
					"indexed": false,
					"internalType": "bool",
					"name": "force",
					"type": "bool"
				},
				{
					"indexed": false,
					"internalType": "bytes",
					"name": "data",
					"type": "bytes"
				}
			],
			"name": "Transfer",
			"type": "event"
		},
		{
			"anonymous": false,
			"inputs": [
				{
					"indexed": true,
					"internalType": "bytes32",
					"name": "personId",
					"type": "bytes32"
				}
			],
			"name": "UpdatePersonData",
			"type": "event"
		},
		{
			"stateMutability": "payable",
			"type": "fallback"
		},
		{
			"inputs": [
				{
					"internalType": "bytes32",
					"name": "fatherId",
					"type": "bytes32"
				},
				{
					"internalType": "string",
					"name": "childName",
					"type": "string"
				},
				{
					"internalType": "string",
					"name": "shortDesc",
					"type": "string"
				},
				{
					"internalType": "enum FamilyTypes.Sex",
					"name": "sex",
					"type": "uint8"
				},
				{
					"components": [
						{
							"internalType": "uint8",
							"name": "day",
							"type": "uint8"
						},
						{
							"internalType": "uint8",
							"name": "month",
							"type": "uint8"
						},
						{
							"internalType": "uint16",
							"name": "year",
							"type": "uint16"
						}
					],
					"internalType": "struct FamilyTypes.DateInfo",
					"name": "birthDate",
					"type": "tuple"
				},
				{
					"components": [
						{
							"internalType": "uint8",
							"name": "day",
							"type": "uint8"
						},
						{
							"internalType": "uint8",
							"name": "month",
							"type": "uint8"
						},
						{
							"internalType": "uint16",
							"name": "year",
							"type": "uint16"
						}
					],
					"internalType": "struct FamilyTypes.DateInfo",
					"name": "deathDate",
					"type": "tuple"
				}
			],
			"name": "addChild",
			"outputs": [],
			"stateMutability": "nonpayable",
			"type": "function"
		},
		{
			"inputs": [
				{
					"internalType": "bytes32",
					"name": "husbandId",
					"type": "bytes32"
				},
				{
					"internalType": "string",
					"name": "name",
					"type": "string"
				},
				{
					"internalType": "string",
					"name": "descShort",
					"type": "string"
				},
				{
					"components": [
						{
							"internalType": "uint8",
							"name": "day",
							"type": "uint8"
						},
						{
							"internalType": "uint8",
							"name": "month",
							"type": "uint8"
						},
						{
							"internalType": "uint16",
							"name": "year",
							"type": "uint16"
						}
					],
					"internalType": "struct FamilyTypes.DateInfo",
					"name": "birthDate",
					"type": "tuple"
				},
				{
					"components": [
						{
							"internalType": "uint8",
							"name": "day",
							"type": "uint8"
						},
						{
							"internalType": "uint8",
							"name": "month",
							"type": "uint8"
						},
						{
							"internalType": "uint16",
							"name": "year",
							"type": "uint16"
						}
					],
					"internalType": "struct FamilyTypes.DateInfo",
					"name": "deathDate",
					"type": "tuple"
				}
			],
			"name": "addSpouse",
			"outputs": [],
			"stateMutability": "nonpayable",
			"type": "function"
		},
		{
			"inputs": [
				{
					"internalType": "address",
					"name": "operator",
					"type": "address"
				},
				{
					"internalType": "bytes32",
					"name": "tokenId",
					"type": "bytes32"
				},
				{
					"internalType": "bytes",
					"name": "operatorNotificationData",
					"type": "bytes"
				}
			],
			"name": "authorizeOperator",
			"outputs": [],
			"stateMutability": "nonpayable",
			"type": "function"
		},
		{
			"inputs": [
				{
					"internalType": "address",
					"name": "tokenOwner",
					"type": "address"
				}
			],
			"name": "balanceOf",
			"outputs": [
				{
					"internalType": "uint256",
					"name": "",
					"type": "uint256"
				}
			],
			"stateMutability": "view",
			"type": "function"
		},
		{
			"inputs": [
				{
					"internalType": "bytes[]",
					"name": "data",
					"type": "bytes[]"
				}
			],
			"name": "batchCalls",
			"outputs": [
				{
					"internalType": "bytes[]",
					"name": "results",
					"type": "bytes[]"
				}
			],
			"stateMutability": "nonpayable",
			"type": "function"
		},
		{
			"inputs": [],
			"name": "clanShortDesc",
			"outputs": [
				{
					"internalType": "string",
					"name": "",
					"type": "string"
				}
			],
			"stateMutability": "view",
			"type": "function"
		},
		{
			"inputs": [],
			"name": "genealogyAddress",
			"outputs": [
				{
					"internalType": "address",
					"name": "",
					"type": "address"
				}
			],
			"stateMutability": "view",
			"type": "function"
		},
		{
			"inputs": [
				{
					"internalType": "bytes32",
					"name": "dataKey",
					"type": "bytes32"
				}
			],
			"name": "getData",
			"outputs": [
				{
					"internalType": "bytes",
					"name": "dataValue",
					"type": "bytes"
				}
			],
			"stateMutability": "view",
			"type": "function"
		},
		{
			"inputs": [
				{
					"internalType": "bytes32[]",
					"name": "dataKeys",
					"type": "bytes32[]"
				}
			],
			"name": "getDataBatch",
			"outputs": [
				{
					"internalType": "bytes[]",
					"name": "dataValues",
					"type": "bytes[]"
				}
			],
			"stateMutability": "view",
			"type": "function"
		},
		{
			"inputs": [
				{
					"internalType": "bytes32[]",
					"name": "tokenIds",
					"type": "bytes32[]"
				},
				{
					"internalType": "bytes32[]",
					"name": "dataKeys",
					"type": "bytes32[]"
				}
			],
			"name": "getDataBatchForTokenIds",
			"outputs": [
				{
					"internalType": "bytes[]",
					"name": "dataValues",
					"type": "bytes[]"
				}
			],
			"stateMutability": "view",
			"type": "function"
		},
		{
			"inputs": [
				{
					"internalType": "bytes32",
					"name": "tokenId",
					"type": "bytes32"
				},
				{
					"internalType": "bytes32",
					"name": "dataKey",
					"type": "bytes32"
				}
			],
			"name": "getDataForTokenId",
			"outputs": [
				{
					"internalType": "bytes",
					"name": "dataValue",
					"type": "bytes"
				}
			],
			"stateMutability": "view",
			"type": "function"
		},
		{
			"inputs": [
				{
					"internalType": "bytes32",
					"name": "tokenId",
					"type": "bytes32"
				}
			],
			"name": "getOperatorsOf",
			"outputs": [
				{
					"internalType": "address[]",
					"name": "",
					"type": "address[]"
				}
			],
			"stateMutability": "view",
			"type": "function"
		},
		{
			"inputs": [
				{
					"internalType": "bytes32",
					"name": "personId",
					"type": "bytes32"
				}
			],
			"name": "getPersonInfo",
			"outputs": [
				{
					"components": [
						{
							"internalType": "string",
							"name": "name",
							"type": "string"
						},
						{
							"internalType": "bytes32",
							"name": "fatherId",
							"type": "bytes32"
						},
						{
							"internalType": "bytes32",
							"name": "motherId",
							"type": "bytes32"
						},
						{
							"internalType": "bytes32[]",
							"name": "children",
							"type": "bytes32[]"
						},
						{
							"internalType": "bytes32[]",
							"name": "spouses",
							"type": "bytes32[]"
						},
						{
							"internalType": "enum FamilyTypes.Sex",
							"name": "sex",
							"type": "uint8"
						},
						{
							"components": [
								{
									"internalType": "uint8",
									"name": "day",
									"type": "uint8"
								},
								{
									"internalType": "uint8",
									"name": "month",
									"type": "uint8"
								},
								{
									"internalType": "uint16",
									"name": "year",
									"type": "uint16"
								}
							],
							"internalType": "struct FamilyTypes.DateInfo",
							"name": "birthDate",
							"type": "tuple"
						},
						{
							"components": [
								{
									"internalType": "uint8",
									"name": "day",
									"type": "uint8"
								},
								{
									"internalType": "uint8",
									"name": "month",
									"type": "uint8"
								},
								{
									"internalType": "uint16",
									"name": "year",
									"type": "uint16"
								}
							],
							"internalType": "struct FamilyTypes.DateInfo",
							"name": "deathDate",
							"type": "tuple"
						},
						{
							"internalType": "string",
							"name": "shortDesc",
							"type": "string"
						}
					],
					"internalType": "struct FamilyTypes.Person",
					"name": "",
					"type": "tuple"
				}
			],
			"stateMutability": "view",
			"type": "function"
		},
		{
			"inputs": [
				{
					"internalType": "address",
					"name": "operator",
					"type": "address"
				},
				{
					"internalType": "bytes32",
					"name": "tokenId",
					"type": "bytes32"
				}
			],
			"name": "isOperatorFor",
			"outputs": [
				{
					"internalType": "bool",
					"name": "",
					"type": "bool"
				}
			],
			"stateMutability": "view",
			"type": "function"
		},
		{
			"inputs": [],
			"name": "owner",
			"outputs": [
				{
					"internalType": "address",
					"name": "",
					"type": "address"
				}
			],
			"stateMutability": "view",
			"type": "function"
		},
		{
			"inputs": [],
			"name": "personCount",
			"outputs": [
				{
					"internalType": "uint256",
					"name": "_value",
					"type": "uint256"
				}
			],
			"stateMutability": "view",
			"type": "function"
		},
		{
			"inputs": [
				{
					"internalType": "bytes32",
					"name": "parentId",
					"type": "bytes32"
				},
				{
					"internalType": "bytes32",
					"name": "childId",
					"type": "bytes32"
				}
			],
			"name": "removeChild",
			"outputs": [],
			"stateMutability": "nonpayable",
			"type": "function"
		},
		{
			"inputs": [
				{
					"internalType": "bytes32",
					"name": "husbandId",
					"type": "bytes32"
				},
				{
					"internalType": "bytes32",
					"name": "spouseId",
					"type": "bytes32"
				}
			],
			"name": "removeSpouse",
			"outputs": [],
			"stateMutability": "nonpayable",
			"type": "function"
		},
		{
			"inputs": [],
			"name": "renounceOwnership",
			"outputs": [],
			"stateMutability": "nonpayable",
			"type": "function"
		},
		{
			"inputs": [
				{
					"internalType": "address",
					"name": "operator",
					"type": "address"
				},
				{
					"internalType": "bytes32",
					"name": "tokenId",
					"type": "bytes32"
				},
				{
					"internalType": "bool",
					"name": "notify",
					"type": "bool"
				},
				{
					"internalType": "bytes",
					"name": "operatorNotificationData",
					"type": "bytes"
				}
			],
			"name": "revokeOperator",
			"outputs": [],
			"stateMutability": "nonpayable",
			"type": "function"
		},
		{
			"inputs": [
				{
					"internalType": "string",
					"name": "newClanShortDesc",
					"type": "string"
				}
			],
			"name": "setClanShortDesc",
			"outputs": [],
			"stateMutability": "nonpayable",
			"type": "function"
		},
		{
			"inputs": [
				{
					"internalType": "bytes32",
					"name": "dataKey",
					"type": "bytes32"
				},
				{
					"internalType": "bytes",
					"name": "dataValue",
					"type": "bytes"
				}
			],
			"name": "setData",
			"outputs": [],
			"stateMutability": "payable",
			"type": "function"
		},
		{
			"inputs": [
				{
					"internalType": "bytes32[]",
					"name": "dataKeys",
					"type": "bytes32[]"
				},
				{
					"internalType": "bytes[]",
					"name": "dataValues",
					"type": "bytes[]"
				}
			],
			"name": "setDataBatch",
			"outputs": [],
			"stateMutability": "payable",
			"type": "function"
		},
		{
			"inputs": [
				{
					"internalType": "bytes32[]",
					"name": "tokenIds",
					"type": "bytes32[]"
				},
				{
					"internalType": "bytes32[]",
					"name": "dataKeys",
					"type": "bytes32[]"
				},
				{
					"internalType": "bytes[]",
					"name": "dataValues",
					"type": "bytes[]"
				}
			],
			"name": "setDataBatchForTokenIds",
			"outputs": [],
			"stateMutability": "nonpayable",
			"type": "function"
		},
		{
			"inputs": [
				{
					"internalType": "bytes32",
					"name": "tokenId",
					"type": "bytes32"
				},
				{
					"internalType": "bytes32",
					"name": "dataKey",
					"type": "bytes32"
				},
				{
					"internalType": "bytes",
					"name": "dataValue",
					"type": "bytes"
				}
			],
			"name": "setDataForTokenId",
			"outputs": [],
			"stateMutability": "nonpayable",
			"type": "function"
		},
		{
			"inputs": [
				{
					"internalType": "bytes4",
					"name": "interfaceId",
					"type": "bytes4"
				}
			],
			"name": "supportsInterface",
			"outputs": [
				{
					"internalType": "bool",
					"name": "",
					"type": "bool"
				}
			],
			"stateMutability": "view",
			"type": "function"
		},
		{
			"inputs": [
				{
					"internalType": "address",
					"name": "tokenOwner",
					"type": "address"
				}
			],
			"name": "tokenIdsOf",
			"outputs": [
				{
					"internalType": "bytes32[]",
					"name": "",
					"type": "bytes32[]"
				}
			],
			"stateMutability": "view",
			"type": "function"
		},
		{
			"inputs": [
				{
					"internalType": "bytes32",
					"name": "tokenId",
					"type": "bytes32"
				}
			],
			"name": "tokenOwnerOf",
			"outputs": [
				{
					"internalType": "address",
					"name": "",
					"type": "address"
				}
			],
			"stateMutability": "view",
			"type": "function"
		},
		{
			"inputs": [],
			"name": "totalSupply",
			"outputs": [
				{
					"internalType": "uint256",
					"name": "",
					"type": "uint256"
				}
			],
			"stateMutability": "view",
			"type": "function"
		},
		{
			"inputs": [
				{
					"internalType": "address",
					"name": "from",
					"type": "address"
				},
				{
					"internalType": "address",
					"name": "to",
					"type": "address"
				},
				{
					"internalType": "bytes32",
					"name": "tokenId",
					"type": "bytes32"
				},
				{
					"internalType": "bool",
					"name": "force",
					"type": "bool"
				},
				{
					"internalType": "bytes",
					"name": "data",
					"type": "bytes"
				}
			],
			"name": "transfer",
			"outputs": [],
			"stateMutability": "nonpayable",
			"type": "function"
		},
		{
			"inputs": [
				{
					"internalType": "address[]",
					"name": "from",
					"type": "address[]"
				},
				{
					"internalType": "address[]",
					"name": "to",
					"type": "address[]"
				},
				{
					"internalType": "bytes32[]",
					"name": "tokenId",
					"type": "bytes32[]"
				},
				{
					"internalType": "bool[]",
					"name": "force",
					"type": "bool[]"
				},
				{
					"internalType": "bytes[]",
					"name": "data",
					"type": "bytes[]"
				}
			],
			"name": "transferBatch",
			"outputs": [],
			"stateMutability": "nonpayable",
			"type": "function"
		},
		{
			"inputs": [
				{
					"internalType": "address",
					"name": "newOwner",
					"type": "address"
				}
			],
			"name": "transferGenealogyOwner",
			"outputs": [],
			"stateMutability": "nonpayable",
			"type": "function"
		},
		{
			"inputs": [
				{
					"internalType": "address",
					"name": "newOwner",
					"type": "address"
				}
			],
			"name": "transferOwnership",
			"outputs": [],
			"stateMutability": "nonpayable",
			"type": "function"
		},
		{
			"inputs": [
				{
					"internalType": "bytes32",
					"name": "personId",
					"type": "bytes32"
				},
				{
					"internalType": "string",
					"name": "newName",
					"type": "string"
				},
				{
					"internalType": "string",
					"name": "newDescShort",
					"type": "string"
				},
				{
					"components": [
						{
							"internalType": "uint8",
							"name": "day",
							"type": "uint8"
						},
						{
							"internalType": "uint8",
							"name": "month",
							"type": "uint8"
						},
						{
							"internalType": "uint16",
							"name": "year",
							"type": "uint16"
						}
					],
					"internalType": "struct FamilyTypes.DateInfo",
					"name": "birthDate",
					"type": "tuple"
				},
				{
					"components": [
						{
							"internalType": "uint8",
							"name": "day",
							"type": "uint8"
						},
						{
							"internalType": "uint8",
							"name": "month",
							"type": "uint8"
						},
						{
							"internalType": "uint16",
							"name": "year",
							"type": "uint16"
						}
					],
					"internalType": "struct FamilyTypes.DateInfo",
					"name": "deathDate",
					"type": "tuple"
				}
			],
			"name": "updatePersonData",
			"outputs": [],
			"stateMutability": "nonpayable",
			"type": "function"
		},
		{
			"stateMutability": "payable",
			"type": "receive"
		}
	]
}