{
	"data": {
		"bytecode": {
			"linkReferences": {},
			"object": "608060405234801561000f575f5ffd5b506040516147bf3803806147bf83398101604081905261002e9161092f565b60408051808201909152600681526546414d494c5960d01b602082015286908260025f848484848161005f336101ef565b6001600160a01b038116610086576040516306b620db60e21b815260040160405180910390fd5b61008f816101ef565b506040805180820190915260048152632936598960e21b60208201526100d6907feafec4d89fa9619884b60000a4d96624a38f7ac2d8d9a604ecf07c12c77e480c9061023e565b6101007fdeba1e292f8ba88238e10ab3c7f88bd4be4fac56cad5194b6ecceaf653468af18561023e565b61012a7f2f0a68ab07768e01943a599e73362a0e17a63a72e94dd2e384d2c1d4db9327568461023e565b6040805160208101839052610171917fe0261fa95db2eb3b5439bd033cda66d56b96f92f243a8228fd87550ed7bdfdb3910160408051601f1981840301815291905261023e565b505060408051602081018590526101bc93507ff675e9361af1c1664c1868cfa3eb97672d6b1a513aa5b81dec34c9ee330e818d92500160408051601f19818403018152919052610292565b5050600880546001600160a01b03191633179055506101e3915086905085835f8787610352565b50505050505050610c82565b5f80546001600160a01b038381166001600160a01b0319831681178455604051919092169283917f8be0079c531659141344cd1fd0a4f28419497f9722a3daafe3b4186f6b6457e09190a35050565b5f8281526001602052604090206102558282610a7e565b50817fece574603820d07bc9b91f2a932baadf4628aabcb8afba49776529c14a6104b2826040516102869190610b66565b60405180910390a25050565b7f2145e1d6d074577dc71ef54c3807742b41b053a9352ae6b491331509acb9750f82016102d2576040516385c169bd60e01b815260040160405180910390fd5b7fd0f59754f88971fe6bc5a6618cc9d5f1e859c58d16b22d1c7b2d3e2b246cd8aa820161031257604051630eceab6760e31b815260040160405180910390fd5b7f1fd9e056a24d14c4abc642fcc325992a946906d0dbc57dd70278aaf12842024d820161023e57604051634ef6d7fb60e01b815260040160405180910390fd5b5f610361600680546001019055565b5060065460408051602081019091525f81526103839086908390600190610493565b5f8181526007602052604090208061039b8982610a7e565b5083516006820180546020808801516040808a015161ffff96871662ffffff19958616176201000060ff94851681029190911763ff0000001990811663010000009386168402179097558a5160078a018054968d0151948d0151919099169590961694909417918316909302179093169190921690910217905560058101805486919060ff1916600183600281111561043657610436610b78565b0217905550600881016104498882610a7e565b506040516001600160a01b038716815282907fa6912c28a8cb5fc5cab504e471cfa6bc504444025484d810e2565bc7dead66579060200160405180910390a2509695505050505050565b6001600160a01b0384166104ba576040516324ecef4d60e01b815260040160405180910390fd5b5f838152600360205260409020546001600160a01b0316156104f7576040516334c7b51160e01b8152600481018490526024015b60405180910390fd5b5f838152600360205260409020546001600160a01b03161561052f576040516334c7b51160e01b8152600481018490526024016104ee565b60025f815461053d90610b8c565b909155506001600160a01b0384165f9081526004602052604090206105629084610609565b505f8381526003602052604080822080546001600160a01b0319166001600160a01b03881690811790915590518592907fb333c813a7426a7a11e2b190cad52c44119421594b47f6f32ace6d8c7207b2bf906105c390339088908890610bb0565b60405180910390a45f335f8686856040516020016105e5959493929190610be4565b60408051601f19818403018152919052905061060285848361061d565b5050505050565b5f610614838361072b565b90505b92915050565b61062e83631aed5a8560e21b610777565b156106c957604051631aed5a8560e21b81526001600160a01b03841690636bb56a1490610681907f0b084a55ebf70fd3c06fd755269dac2212c4d3f0f4d09079780bfa50c1b2984d908590600401610c1e565b5f604051808303815f875af115801561069c573d5f5f3e3d5ffd5b505050506040513d5f823e601f3d908101601f191682016040526106c39190810190610c3e565b50505050565b81610726576001600160a01b0383163b1561070257604051634349776d60e01b81526001600160a01b03841660048201526024016104ee565b604051630317313760e01b81526001600160a01b03841660048201526024016104ee565b505050565b5f81815260018301602052604081205461077057508154600181810184555f848152602080822090930184905584548482528286019093526040902091909155610617565b505f610617565b604080516001600160e01b03198316602480830191909152825180830390910181526044909101909152602080820180516001600160e01b03166301ffc9a760e01b17815282515f9392849283928392918391908a617530fa92503d91505f5190508280156107e7575060208210155b80156107f257505f81115b979650505050505050565b634e487b7160e01b5f52604160045260245ffd5b5f806001600160401b0384111561082a5761082a6107fd565b50604051601f19601f85018116603f011681018181106001600160401b0382111715610858576108586107fd565b60405283815290508082840185101561086f575f5ffd5b8383602083015e5f60208583010152509392505050565b5f82601f830112610895575f5ffd5b61061483835160208501610811565b805160ff811681146108b4575f5ffd5b919050565b5f606082840312156108c9575f5ffd5b604051606081016001600160401b03811182821017156108eb576108eb6107fd565b8060405250809150825161ffff81168114610904575f5ffd5b8152610912602084016108a4565b6020820152610923604084016108a4565b60408201525092915050565b5f5f5f5f5f5f6101408789031215610945575f5ffd5b86516001600160401b0381111561095a575f5ffd5b61096689828a01610886565b602089015190975090506001600160401b03811115610983575f5ffd5b61098f89828a01610886565b604089015190965090506001600160401b038111156109ac575f5ffd5b6109b889828a01610886565b9450506109c888606089016108b9565b92506109d78860c089016108b9565b6101208801519092506001600160a01b03811681146109f4575f5ffd5b809150509295509295509295565b600181811c90821680610a1657607f821691505b602082108103610a3457634e487b7160e01b5f52602260045260245ffd5b50919050565b601f82111561072657805f5260205f20601f840160051c81016020851015610a5f5750805b601f840160051c820191505b81811015610602575f8155600101610a6b565b81516001600160401b03811115610a9757610a976107fd565b610aab81610aa58454610a02565b84610a3a565b6020601f821160018114610add575f8315610ac65750848201515b5f19600385901b1c1916600184901b178455610602565b5f84815260208120601f198516915b82811015610b0c5787850151825560209485019460019092019101610aec565b5084821015610b2957868401515f19600387901b60f8161c191681555b50505050600190811b01905550565b5f81518084528060208401602086015e5f602082860101526020601f19601f83011685010191505092915050565b602081525f6106146020830184610b38565b634e487b7160e01b5f52602160045260245ffd5b5f60018201610ba957634e487b7160e01b5f52601160045260245ffd5b5060010190565b6001600160a01b038416815282151560208201526060604082018190525f90610bdb90830184610b38565b95945050505050565b6001600160a01b0386811682528581166020830152841660408201526060810183905260a0608082018190525f906107f290830184610b38565b828152604060208201525f610c366040830184610b38565b949350505050565b5f60208284031215610c4e575f5ffd5b81516001600160401b03811115610c63575f5ffd5b8201601f81018413610c73575f5ffd5b610c3684825160208401610811565b613b3080610c8f5f395ff3fe6080604052600436106101e6575f3560e01c8063715018a6116101015780639790242111610094578063db8c966311610063578063db8c966314610629578063dedff9c614610648578063f08b15eb14610667578063f2fde38b146106865761023f565b806397902421146105ac578063a3b261f2146105bf578063be9f0e6f146105eb578063d6c1407c1461060a5761023f565b80637f23690c116100d05780637f23690c1461053f57806386a10ddd146105525780638da5cb5b146105715780638f81ecfc1461058d5761023f565b8063715018a6146104d757806378495bf8146104eb5780637e87632c146105015780637e913b05146105205761023f565b80632a3654a41161017957806354f6127f1161014857806354f6127f14610448578063625d0be9146104675780636963d4381461049957806370a08231146104b85761023f565b80632a3654a4146103bf57806349a6078d146103de5780634c8f93131461040a578063511b6952146104295761023f565b80631d26fce6116101b55780631d26fce61461031e5780631f1217081461034a578063217b2270146103815780632819a215146103a05761023f565b806301ffc9a71461027f57806302154b4e146102b357806316e023b3146102d457806318160ddd146103005761023f565b3661023f57345f036102265760405163e5099ee360e01b815260040161021d9060208082526004908201525f604082015260600190565b60405180910390fd5b6040516330fa4a2160e11b815260040160405180910390fd5b5f366060600482101561026957828260405163e5099ee360e01b815260040161021d929190612ae3565b61027383836106a5565b80519350602001915050f35b34801561028a575f5ffd5b5061029e610299366004612b11565b610794565b60405190151581526020015b60405180910390f35b3480156102be575f5ffd5b506102d26102cd366004612b53565b6107c7565b005b3480156102df575f5ffd5b506102f36102ee366004612b6c565b61081a565b6040516102aa9190612bba565b34801561030b575f5ffd5b506002545b6040519081526020016102aa565b348015610329575f5ffd5b5061033d610338366004612c9c565b61082d565b6040516102aa9190612cff565b348015610355575f5ffd5b50600854610369906001600160a01b031681565b6040516001600160a01b0390911681526020016102aa565b34801561038c575f5ffd5b5061036961039b366004612d62565b610913565b3480156103ab575f5ffd5b506102d26103ba366004612e89565b61094b565b3480156103ca575f5ffd5b5061029e6103d9366004612f56565b610a7d565b3480156103e9575f5ffd5b506103fd6103f8366004612d62565b610a88565b6040516102aa9190612f7e565b348015610415575f5ffd5b506102d2610424366004612fc9565b610aa9565b348015610434575f5ffd5b506102d261044336600461309c565b610bfc565b348015610453575f5ffd5b506102f3610462366004612d62565b610c40565b348015610472575f5ffd5b50610486610481366004612d62565b610c4b565b6040516102aa9796959493929190613123565b3480156104a4575f5ffd5b5061033d6104b33660046131d3565b610df1565b3480156104c3575f5ffd5b506103106104d2366004612b53565b610f1b565b3480156104e2575f5ffd5b506102d2610f3b565b3480156104f6575f5ffd5b506006546103109081565b34801561050c575f5ffd5b506102d261051b366004613384565b610f4e565b34801561052b575f5ffd5b506102d261053a366004612b6c565b61103c565b6102d261054d366004613455565b611293565b34801561055d575f5ffd5b506102d261056c36600461348e565b6112c8565b34801561057c575f5ffd5b505f546001600160a01b0316610369565b348015610598575f5ffd5b506102d26105a7366004612b6c565b61143f565b6102d26105ba3660046134e0565b611676565b3480156105ca575f5ffd5b506105de6105d9366004612b53565b6116a7565b6040516102aa9190613539565b3480156105f6575f5ffd5b506102d2610605366004613570565b6116ca565b348015610615575f5ffd5b506102d26106243660046135f1565b61178d565b348015610634575f5ffd5b506102d2610643366004613626565b6117e1565b348015610653575f5ffd5b5061033d610662366004613689565b6118c2565b348015610672575f5ffd5b506102d26106813660046136ba565b61196b565b348015610691575f5ffd5b506102d26106a0366004612b53565b611a3b565b60605f6106bc5f356001600160e01b031916611aa8565b5090506001600160a01b0381166106f35760405163bb370b2b60e01b81526001600160e01b03195f3516600482015260240161021d565b5f5f826001600160a01b0316348787333460405160200161071794939291906136e5565b60408051601f198184030181529082905261073191613710565b5f6040518083038185875af1925050503d805f811461076b576040519150601f19603f3d011682016040523d82523d5f602084013e610770565b606091505b5091509150811561078557925061078e915050565b80518060208301fd5b92915050565b5f6001600160e01b03198216631d138b8360e11b14806107b857506107b882611b24565b8061078e575061078e82611b48565b6008546001600160a01b0316331461080e5760405162461bcd60e51b815260206004820152600a602482015269139bdd081c195c9b5a5d60b21b604482015260640161021d565b61081781611b7d565b50565b60606108268383611bcc565b9392505050565b60608151835114610851576040516317d38eff60e11b815260040160405180910390fd5b82516001600160401b0381111561086a5761086a612bcc565b60405190808252806020026020018201604052801561089d57816020015b60608152602001906001900390816108885790505b5090505f5b835181101561090c576108e78482815181106108c0576108c0613726565b60200260200101518483815181106108da576108da613726565b6020026020010151611bcc565b8282815181106108f9576108f9613726565b60209081029190910101526001016108a2565b5092915050565b5f818152600360205260408120546001600160a01b03168061078e57604051635747cd1b60e11b81526004810184905260240161021d565b835f61095682610913565b9050336001600160a01b038216148061097857505f546001600160a01b031633145b6109945760405162461bcd60e51b815260040161021d9061373a565b5f868152600760205260408120906109b08d8d888e8e8e611c9f565b90508160030160405180604001604052808760028111156109d3576109d361310f565b815260209081018490528254600181810185555f94855291909320825160029485029091018054939490939192849260ff1916918490811115610a1857610a1861310f565b02179055506020918201516001918201555f838152600790925260408083209182018b9055600290910189905551899183917f95afc0d374f4e4b0d262be4433e573b5862c9fb50c22ee6438a313040f5487cc9190a350505050505050505050505050565b5f6108268383611de0565b6060610a9382611e1b565b5f82815260056020526040902061078e90611e52565b875f610ab482610913565b9050336001600160a01b0382161480610ad657505f546001600160a01b031633145b610af25760405162461bcd60e51b815260040161021d9061373a565b5f610b028a8a8660018c8c611c9f565b5f81815260076020908152604080832081516060810183528581528084018c81528184018c8152600490930180546001818101835591885286882093516003909102909301928355905180519183018054828801519287015160ff908116630100000090810263ff000000199583166201000090810262ffffff1995861661ffff998a16171787169190911790945596518051600290970180549a820151918a015183169098029116909202971693909216929092179490941716929092179091555191925082918d917fca4757636f927657c127875c4f0c0ec6e1f84d4769348f20fff39486a4bb2c3f91a35050505050505050505050565b610c063384611de0565b610c2c57604051631294d2a960e01b81526004810184905233602482015260440161021d565b610c398585858585611e5e565b5050505050565b606061078e8261203a565b60076020525f9081526040902080548190610c6590613762565b80601f0160208091040260200160405190810160405280929190818152602001828054610c9190613762565b8015610cdc5780601f10610cb357610100808354040283529160200191610cdc565b820191905f5260205f20905b815481529060010190602001808311610cbf57829003601f168201915b505050506001830154600284015460058501546040805160608082018352600689015461ffff808216845260ff6201000080840482166020808801919091526301000000948590048316878901528751958601885260078e015493841686529083048216908501529190048116938201939093526008890180549899969895975092909316949093909190610d7090613762565b80601f0160208091040260200160405190810160405280929190818152602001828054610d9c90613762565b8015610de75780601f10610dbe57610100808354040283529160200191610de7565b820191905f5260205f20905b815481529060010190602001808311610dca57829003601f168201915b5050505050905087565b6060816001600160401b03811115610e0b57610e0b612bcc565b604051908082528060200260200182016040528015610e3e57816020015b6060815260200190600190039081610e295790505b5090505f5b8281101561090c575f8030868685818110610e6057610e60613726565b9050602002810190610e729190613794565b604051610e809291906137dd565b5f60405180830381855af49150503d805f8114610eb8576040519150601f19603f3d011682016040523d82523d5f602084013e610ebd565b606091505b509150915081610ef357805115610ed75780518082602001fd5b60405163234eb81960e01b81526004810184905260240161021d565b80848481518110610f0657610f06613726565b60209081029190910101525050600101610e43565b6001600160a01b0381165f90815260046020526040812061078e906120d9565b610f436120e2565b610f4c5f611b7d565b565b8451845181141580610f61575083518114155b80610f6d575082518114155b80610f79575081518114155b15610f97576040516393a8311960e01b815260040160405180910390fd5b5f5b818110156110335761102b878281518110610fb657610fb6613726565b6020026020010151878381518110610fd057610fd0613726565b6020026020010151878481518110610fea57610fea613726565b602002602001015187858151811061100457611004613726565b602002602001015187868151811061101e5761101e613726565b6020026020010151610bfc565b600101610f99565b50505050505050565b805f61104782610913565b9050336001600160a01b038216148061106957505f546001600160a01b031633145b6110855760405162461bcd60e51b815260040161021d9061373a565b5f838152600760205260408120905b600482015481101561125157858260040182815481106110b6576110b6613726565b905f5260205f2090600302015f0154036112495760048201545f906110dd90600190613800565b90508082146111cd578260040181815481106110fb576110fb613726565b905f5260205f20906003020183600401838154811061111c5761111c613726565b5f9182526020909120825460039092020190815560018083018054918301805461ffff93841661ffff1980831682178455845462ffffff19938416909217620100009283900460ff908116840291909117808655955463ff000000199687166301000000918290048316820217909555600298890180549990980180549990971691891682178755875498909316179681900482160295909517808455935493909116928190049093169092021790555b826004018054806111e0576111e0613813565b5f8281526020812060035f199093019283020181815560018101805463ffffffff199081169091556002909101805490911690559155604051879189917ff1387b2f8963ca7947c75faa29a4c7de0859d44c5f9a658761acbdc5d539976b9190a350505061128d565b600101611094565b5060405162461bcd60e51b815260206004820152601060248201526f14dc1bdd5cd9481b9bdd08199bdd5b9960821b604482015260640161021d565b50505050565b61129b6120e2565b34156112ba5760405163f36ba73760e01b815260040160405180910390fd5b6112c4828261213b565b5050565b5f6112d283610913565b90506001600160a01b038116331461131557604051632d938f5160e11b81526001600160a01b03821660048201526024810184905233604482015260640161021d565b6001600160a01b03841661133c57604051639577b8b360e01b815260040160405180910390fd5b836001600160a01b0316816001600160a01b03160361136e576040516344fed6b160e11b815260040160405180910390fd5b5f8381526005602052604081206113859086612185565b9050806113b7576040516314ec4d6d60e31b81526001600160a01b03861660048201526024810185905260440161021d565b83826001600160a01b0316866001600160a01b03167f1b1b58aa2ec0cec2228b2d37124556d41f5a1f7b12f089171f896cc236671215866040516113fb9190612bba565b60405180910390a45f338560018660405160200161141c9493929190613827565b60405160208183030381529060405290506114378682612199565b505050505050565b815f61144a82610913565b9050336001600160a01b038216148061146c57505f546001600160a01b031633145b6114885760405162461bcd60e51b815260040161021d9061373a565b5f848152600760205260408082208583529120600181015486146114ee5760405162461bcd60e51b815260206004820152601860248201527f4e6f74206368696c64206f66207468697320706572736f6e0000000000000000604482015260640161021d565b5f5b600383015481101561163b578583600301828154811061151257611512613726565b905f5260205f20906002020160010154036116335760038301545f9061153a90600190613800565b90508082146115c05783600301818154811061155857611558613726565b905f5260205f20906002020184600301838154811061157957611579613726565b5f9182526020909120825460029283029091018054909260ff90921691839160ff19169060019084908111156115b1576115b161310f565b02179055506001918201549101555b836003018054806115d3576115d3613813565b5f8281526020812060025f1990930192830201805460ff191681556001908101829055919092558401819055604051899189917fd22ef99c12aeaecac27f6067207b23ac6a9ae5f21e97134b39e98320aa04fa5d9190a35050505061128d565b6001016114f0565b5060405162461bcd60e51b815260206004820152600f60248201526e10da1a5b19081b9bdd08199bdd5b99608a1b604482015260640161021d565b61167e6120e2565b341561169d5760405163f36ba73760e01b815260040160405180910390fd5b6112c482826121c4565b6001600160a01b0381165f90815260046020526040902060609061078e90611e52565b6116d26120e2565b815183511415806116e557508051825114155b15611703576040516317d38eff60e11b815260040160405180910390fd5b82515f03611724576040516380c9830560e01b815260040160405180910390fd5b5f5b835181101561128d5761178584828151811061174457611744613726565b602002602001015184838151811061175e5761175e613726565b602002602001015184848151811061177857611778613726565b602002602001015161225b565b600101611726565b825f61179882610913565b9050336001600160a01b03821614806117ba57505f546001600160a01b031633145b6117d65760405162461bcd60e51b815260040161021d9061373a565b610c3985858561225b565b5f6117eb84610913565b9050336001600160a01b0382161461183e576001600160a01b038516331461183e5760405163760b5acd60e01b81523360048201526001600160a01b03821660248201526044810185905260640161021d565b6001600160a01b03851661186557604051639577b8b360e01b815260040160405180910390fd5b846001600160a01b0316816001600160a01b031603611897576040516344fed6b160e11b815260040160405180910390fd5b6118a485828686866122e9565b8215610c39575f81855f8560405160200161141c9493929190613827565b606081516001600160401b038111156118dd576118dd612bcc565b60405190808252806020026020018201604052801561191057816020015b60608152602001906001900390816118fb5790505b5090505f5b82518110156119655761194083828151811061193357611933613726565b602002602001015161203a565b82828151811061195257611952613726565b6020908102919091010152600101611915565b50919050565b815f61197682610913565b9050336001600160a01b038216148061199857505f546001600160a01b031633145b6119b45760405162461bcd60e51b815260040161021d9061373a565b5f84815260076020818152604080842087519381018054938901518984015161ffff90961662ffffff19909516949094176201000060ff958616021763ff0000001916630100000094909516939093029390931790915551909186917fad34eedbbe447a1468a6771178d1113c13b7c37767219802a018f1312261a0879190a25050505050565b611a436120e2565b6001600160a01b03811661080e5760405162461bcd60e51b815260206004820152602660248201527f4f776e61626c653a206e6577206f776e657220697320746865207a65726f206160448201526564647265737360d01b606482015260840161021d565b5f8080611acc696773c5a04a6d4300884b60b11b6001600160e01b03198616612388565b90505f611ad88261203a565b90508051601414158015611aec5750805115155b15611b0c57806040516342bfe79f60e01b815260040161021d9190612bba565b611b158161385f565b60601c95600195509350505050565b5f6001600160e01b0319821663a918fa6b60e01b148061078e575061078e826123db565b5f80611b5a6301ffc9a760e01b611aa8565b5090506001600160a01b038116611b7357505f92915050565b610826818461240f565b5f80546001600160a01b038381166001600160a01b0319831681178455604051919092169283917f8be0079c531659141344cd1fd0a4f28419497f9722a3daafe3b4186f6b6457e09190a35050565b606060015f8484604051602001611bed929190918252602082015260400190565b6040516020818303038152906040528051906020012081526020019081526020015f208054611c1b90613762565b80601f0160208091040260200160405190810160405280929190818152602001828054611c4790613762565b8015611c925780601f10611c6957610100808354040283529160200191611c92565b820191905f5260205f20905b815481529060010190602001808311611c7557829003601f168201915b5050505050905092915050565b5f611cae600680546001019055565b6006545f1b9050611cd08582600160405180602001604052805f815250612495565b5f81815260076020526040902080611ce889826138f1565b5083516006820180546020808801516040808a015161ffff96871662ffffff19958616176201000060ff94851681029190911763ff0000001990811663010000009386168402179097558a5160078a018054968d0151948d0151919099169590961694909417918316909302179093169190921690910217905560058101805486919060ff19166001836002811115611d8357611d8361310f565b021790555060088101611d9688826138f1565b506040516001600160a01b038716815282907fa6912c28a8cb5fc5cab504e471cfa6bc504444025484d810e2565bc7dead66579060200160405180910390a2509695505050505050565b5f611dea82610913565b6001600160a01b0316836001600160a01b0316148061082657505f82815260056020526040902061082690846125fe565b5f818152600360205260409020546001600160a01b031661081757604051635747cd1b60e11b81526004810182905260240161021d565b60605f6108268361261f565b5f611e6884610913565b9050856001600160a01b0316816001600160a01b031614611eb657604051632d938f5160e11b81526001600160a01b038083166004830152602482018690528716604482015260640161021d565b6001600160a01b038516611edd576040516324ecef4d60e01b815260040160405180910390fd5b5f611ee785610913565b9050806001600160a01b0316826001600160a01b031614611f3557604051635a9c31d360e01b8152600481018690526001600160a01b0380841660248301528216604482015260640161021d565b611f3f8786612677565b6001600160a01b0387165f908152600460205260409020611f6090866126ca565b506001600160a01b0386165f908152600460205260409020611f8290866126d5565b505f858152600360205260409081902080546001600160a01b0319166001600160a01b0389811691821790925591518792918a16907fb333c813a7426a7a11e2b190cad52c44119421594b47f6f32ace6d8c7207b2bf90611fe89033908a908a906139ab565b60405180910390a45f338888888760405160200161200a9594939291906139df565b604051602081830303815290604052905061202588826126e0565b61203087868361270b565b5050505050505050565b5f81815260016020526040902080546060919061205690613762565b80601f016020809104026020016040519081016040528092919081815260200182805461208290613762565b80156120cd5780601f106120a4576101008083540402835291602001916120cd565b820191905f5260205f20905b8154815290600101906020018083116120b057829003601f168201915b50505050509050919050565b5f61078e825490565b5f546001600160a01b03163314610f4c5760405162461bcd60e51b815260206004820181905260248201527f4f776e61626c653a2063616c6c6572206973206e6f7420746865206f776e6572604482015260640161021d565b7f098a16c9e50e3e99b3e797305c146898d294e5aec55a47e213cb3611ccf17e73820161217b57604051631b32400560e11b815260040160405180910390fd5b6112c4828261280e565b5f610826836001600160a01b038416612922565b6112c4827f8a1c15a8799f71b547e08e2bcb2e85257e81b0a07eee2ce6712549eef1f009708361296e565b80518251146121e657604051633bcc897960e01b815260040160405180910390fd5b81515f03612207576040516397da5f9560e01b815260040160405180910390fd5b5f5b82518110156122565761224e83828151811061222757612227613726565b602002602001015183838151811061224157612241613726565b602002602001015161213b565b600101612209565b505050565b8060015f858560405160200161227b929190918252602082015260400190565b6040516020818303038152906040528051906020012081526020019081526020015f2090816122aa91906138f1565b5081837fa6e4251f855f750545fe414f120db91c76b88def14d120969e5bb2d3f05debbb836040516122dc9190612bba565b60405180910390a3505050565b5f83815260056020526040812061230090876129bb565b905080612332576040516312a8c6a360e21b81526001600160a01b03871660048201526024810185905260440161021d565b83856001600160a01b0316876001600160a01b03167fc78cd419d6136f9f1c1c6aec1d3fae098cffaf8bc86314a8f2685e32fe574e3c8686604051612378929190613a19565b60405180910390a4505050505050565b604080516001600160b01b0319841660208201525f602a82018190526001600160601b03198416602c830152918291016040516020818303038152906040529050806123d390613a33565b949350505050565b5f6001600160e01b031982166318a6a9a560e21b148061078e57506301ffc9a760e01b6001600160e01b031983161461078e565b604080516001600160e01b03198316602480830191909152825180830390910181526044909101909152602080820180516001600160e01b03166301ffc9a760e01b17815282515f9392849283928392918391908a617530fa92503d91505f51905082801561247f575060208210155b801561248a57505f81115b979650505050505050565b6001600160a01b0384166124bc576040516324ecef4d60e01b815260040160405180910390fd5b5f838152600360205260409020546001600160a01b0316156124f4576040516334c7b51160e01b81526004810184905260240161021d565b5f838152600360205260409020546001600160a01b03161561252c576040516334c7b51160e01b81526004810184905260240161021d565b60025f815461253a90613a56565b909155506001600160a01b0384165f90815260046020526040902061255f90846126d5565b505f8381526003602052604080822080546001600160a01b0319166001600160a01b03881690811790915590518592907fb333c813a7426a7a11e2b190cad52c44119421594b47f6f32ace6d8c7207b2bf906125c0903390889088906139ab565b60405180910390a45f335f8686856040516020016125e29594939291906139df565b6040516020818303038152906040529050610c3985848361270b565b6001600160a01b0381165f9081526001830160205260408120541515610826565b6060815f018054806020026020016040519081016040528092919081815260200182805480156120cd57602002820191905f5260205f20905b8154815260200190600101908083116126585750505050509050919050565b5f8181526005602052604081209061268e826120d9565b90505f5f5b82811015611437576126a5845f6129cf565b91506126c28287875f60405180602001604052805f8152506122e9565b600101612693565b5f61082683836129da565b5f6108268383612922565b6112c4827fb23eae7e6d1564b295b4c3e3be402d9a2f0776c57bdf365903496f6fa481ab008361296e565b61271c83631aed5a8560e21b61240f565b156127b157604051631aed5a8560e21b81526001600160a01b03841690636bb56a149061276f907f0b084a55ebf70fd3c06fd755269dac2212c4d3f0f4d09079780bfa50c1b2984d908590600401613a6e565b5f604051808303815f875af115801561278a573d5f5f3e3d5ffd5b505050506040513d5f823e601f3d908101601f1916820160405261128d9190810190613a86565b81612256576001600160a01b0383163b156127ea57604051634349776d60e01b81526001600160a01b038416600482015260240161021d565b604051630317313760e01b81526001600160a01b038416600482015260240161021d565b7f2145e1d6d074577dc71ef54c3807742b41b053a9352ae6b491331509acb9750f820161284e576040516385c169bd60e01b815260040160405180910390fd5b7fd0f59754f88971fe6bc5a6618cc9d5f1e859c58d16b22d1c7b2d3e2b246cd8aa820161288e57604051630eceab6760e31b815260040160405180910390fd5b7f1fd9e056a24d14c4abc642fcc325992a946906d0dbc57dd70278aaf12842024d82016128ce57604051634ef6d7fb60e01b815260040160405180910390fd5b5f8281526001602052604090206128e582826138f1565b50817fece574603820d07bc9b91f2a932baadf4628aabcb8afba49776529c14a6104b2826040516129169190612bba565b60405180910390a25050565b5f81815260018301602052604081205461296757508154600181810184555f84815260208082209093018490558454848252828601909352604090209190915561078e565b505f61078e565b6129886001600160a01b038416631aed5a8560e21b61240f565b1561225657604051631aed5a8560e21b81526001600160a01b03841690636bb56a149061276f9085908590600401613a6e565b5f610826836001600160a01b0384166129da565b5f6108268383612abd565b5f8181526001830160205260408120548015612ab4575f6129fc600183613800565b85549091505f90612a0f90600190613800565b9050818114612a6e575f865f018281548110612a2d57612a2d613726565b905f5260205f200154905080875f018481548110612a4d57612a4d613726565b5f918252602080832090910192909255918252600188019052604090208390555b8554869080612a7f57612a7f613813565b600190038181905f5260205f20015f90559055856001015f8681526020019081526020015f205f90556001935050505061078e565b5f91505061078e565b5f825f018281548110612ad257612ad2613726565b905f5260205f200154905092915050565b60208152816020820152818360408301375f818301604090810191909152601f909201601f19160101919050565b5f60208284031215612b21575f5ffd5b81356001600160e01b031981168114610826575f5ffd5b80356001600160a01b0381168114612b4e575f5ffd5b919050565b5f60208284031215612b63575f5ffd5b61082682612b38565b5f5f60408385031215612b7d575f5ffd5b50508035926020909101359150565b5f81518084528060208401602086015e5f602082860101526020601f19601f83011685010191505092915050565b602081525f6108266020830184612b8c565b634e487b7160e01b5f52604160045260245ffd5b604051601f8201601f191681016001600160401b0381118282101715612c0857612c08612bcc565b604052919050565b5f6001600160401b03821115612c2857612c28612bcc565b5060051b60200190565b5f82601f830112612c41575f5ffd5b8135612c54612c4f82612c10565b612be0565b8082825260208201915060208360051b860101925085831115612c75575f5ffd5b602085015b83811015612c92578035835260209283019201612c7a565b5095945050505050565b5f5f60408385031215612cad575f5ffd5b82356001600160401b03811115612cc2575f5ffd5b612cce85828601612c32565b92505060208301356001600160401b03811115612ce9575f5ffd5b612cf585828601612c32565b9150509250929050565b5f602082016020835280845180835260408501915060408160051b8601019250602086015f5b82811015612d5657603f19878603018452612d41858351612b8c565b94506020938401939190910190600101612d25565b50929695505050505050565b5f60208284031215612d72575f5ffd5b5035919050565b5f6001600160401b03821115612d9157612d91612bcc565b50601f01601f191660200190565b5f82601f830112612dae575f5ffd5b8135602083015f612dc1612c4f84612d79565b9050828152858383011115612dd4575f5ffd5b828260208301375f92810160200192909252509392505050565b60038110610817575f5ffd5b8035612b4e81612dee565b803560ff81168114612b4e575f5ffd5b5f60608284031215612e25575f5ffd5b604051606081016001600160401b0381118282101715612e4757612e47612bcc565b604052905080823561ffff81168114612e5e575f5ffd5b8152612e6c60208401612e05565b6020820152612e7d60408401612e05565b60408201525092915050565b5f5f5f5f5f5f5f5f5f6101a08a8c031215612ea2575f5ffd5b89356001600160401b03811115612eb7575f5ffd5b612ec38c828d01612d9f565b99505060208a01356001600160401b03811115612ede575f5ffd5b612eea8c828d01612d9f565b98505060408a0135612efb81612dee565b9650612f0a8b60608c01612e15565b9550612f198b60c08c01612e15565b94506101208a013593506101408a01359250612f386101608b01612b38565b9150612f476101808b01612dfa565b90509295985092959850929598565b5f5f60408385031215612f67575f5ffd5b612f7083612b38565b946020939093013593505050565b602080825282518282018190525f918401906040840190835b81811015612fbe5783516001600160a01b0316835260209384019390920191600101612f97565b509095945050505050565b5f5f5f5f5f5f5f5f610200898b031215612fe1575f5ffd5b8835975060208901356001600160401b03811115612ffd575f5ffd5b6130098b828c01612d9f565b97505060408901356001600160401b03811115613024575f5ffd5b6130308b828c01612d9f565b9650506130408a60608b01612e15565b945061304f8a60c08b01612e15565b935061305f8a6101208b01612e15565b925061306f8a6101808b01612e15565b915061307e6101e08a01612b38565b90509295985092959890939650565b80358015158114612b4e575f5ffd5b5f5f5f5f5f60a086880312156130b0575f5ffd5b6130b986612b38565b94506130c760208701612b38565b9350604086013592506130dc6060870161308d565b915060808601356001600160401b038111156130f6575f5ffd5b61310288828901612d9f565b9150509295509295909350565b634e487b7160e01b5f52602160045260245ffd5b61016081525f61313761016083018a612b8c565b8860208401528760408401526003871061315f57634e487b7160e01b5f52602160045260245ffd5b60608301879052855161ffff166080840152602086015160ff90811660a085015260408701511660c0840152845161ffff1660e0840152602085015160ff9081166101008501526040860151166101208401528281036101408401526131c58185612b8c565b9a9950505050505050505050565b5f5f602083850312156131e4575f5ffd5b82356001600160401b038111156131f9575f5ffd5b8301601f81018513613209575f5ffd5b80356001600160401b0381111561321e575f5ffd5b8560208260051b8401011115613232575f5ffd5b6020919091019590945092505050565b5f82601f830112613251575f5ffd5b813561325f612c4f82612c10565b8082825260208201915060208360051b860101925085831115613280575f5ffd5b602085015b83811015612c925761329681612b38565b835260209283019201613285565b5f82601f8301126132b3575f5ffd5b81356132c1612c4f82612c10565b8082825260208201915060208360051b8601019250858311156132e2575f5ffd5b602085015b83811015612c92576132f88161308d565b8352602092830192016132e7565b5f82601f830112613315575f5ffd5b8135613323612c4f82612c10565b8082825260208201915060208360051b860101925085831115613344575f5ffd5b602085015b83811015612c925780356001600160401b03811115613366575f5ffd5b613375886020838a0101612d9f565b84525060209283019201613349565b5f5f5f5f5f60a08688031215613398575f5ffd5b85356001600160401b038111156133ad575f5ffd5b6133b988828901613242565b95505060208601356001600160401b038111156133d4575f5ffd5b6133e088828901613242565b94505060408601356001600160401b038111156133fb575f5ffd5b61340788828901612c32565b93505060608601356001600160401b03811115613422575f5ffd5b61342e888289016132a4565b92505060808601356001600160401b03811115613449575f5ffd5b61310288828901613306565b5f5f60408385031215613466575f5ffd5b8235915060208301356001600160401b03811115613482575f5ffd5b612cf585828601612d9f565b5f5f5f606084860312156134a0575f5ffd5b6134a984612b38565b92506020840135915060408401356001600160401b038111156134ca575f5ffd5b6134d686828701612d9f565b9150509250925092565b5f5f604083850312156134f1575f5ffd5b82356001600160401b03811115613506575f5ffd5b61351285828601612c32565b92505060208301356001600160401b0381111561352d575f5ffd5b612cf585828601613306565b602080825282518282018190525f918401906040840190835b81811015612fbe578351835260209384019390920191600101613552565b5f5f5f60608486031215613582575f5ffd5b83356001600160401b03811115613597575f5ffd5b6135a386828701612c32565b93505060208401356001600160401b038111156135be575f5ffd5b6135ca86828701612c32565b92505060408401356001600160401b038111156135e5575f5ffd5b6134d686828701613306565b5f5f5f60608486031215613603575f5ffd5b833592506020840135915060408401356001600160401b038111156134ca575f5ffd5b5f5f5f5f60808587031215613639575f5ffd5b61364285612b38565b9350602085013592506136576040860161308d565b915060608501356001600160401b03811115613671575f5ffd5b61367d87828801612d9f565b91505092959194509250565b5f60208284031215613699575f5ffd5b81356001600160401b038111156136ae575f5ffd5b6123d384828501612c32565b5f5f608083850312156136cb575f5ffd5b823591506136dc8460208501612e15565b90509250929050565b8385823760609290921b6001600160601b031916919092019081526014810191909152603401919050565b5f82518060208501845e5f920191825250919050565b634e487b7160e01b5f52603260045260245ffd5b6020808252600e908201526d139bdd08185d5d1a1bdc9a5e995960921b604082015260600190565b600181811c9082168061377657607f821691505b60208210810361196557634e487b7160e01b5f52602260045260245ffd5b5f5f8335601e198436030181126137a9575f5ffd5b8301803591506001600160401b038211156137c2575f5ffd5b6020019150368190038213156137d6575f5ffd5b9250929050565b818382375f9101908152919050565b634e487b7160e01b5f52601160045260245ffd5b8181038181111561078e5761078e6137ec565b634e487b7160e01b5f52603160045260245ffd5b60018060a01b03851681528360208201528215156040820152608060608201525f6138556080830184612b8c565b9695505050505050565b805160208201516001600160601b03198116919060148210156138a6576bffffffffffffffffffffffff196bffffffffffffffffffffffff198360140360031b1b82161692505b5050919050565b601f82111561225657805f5260205f20601f840160051c810160208510156138d25750805b601f840160051c820191505b81811015610c39575f81556001016138de565b81516001600160401b0381111561390a5761390a612bcc565b61391e816139188454613762565b846138ad565b6020601f821160018114613950575f83156139395750848201515b5f19600385901b1c1916600184901b178455610c39565b5f84815260208120601f198516915b8281101561397f578785015182556020948501946001909201910161395f565b508482101561399c57868401515f19600387901b60f8161c191681555b50505050600190811b01905550565b6001600160a01b038416815282151560208201526060604082018190525f906139d690830184612b8c565b95945050505050565b6001600160a01b0386811682528581166020830152841660408201526060810183905260a0608082018190525f9061248a90830184612b8c565b8215158152604060208201525f6123d36040830184612b8c565b80516020808301519190811015611965575f1960209190910360031b1b16919050565b5f60018201613a6757613a676137ec565b5060010190565b828152604060208201525f6123d36040830184612b8c565b5f60208284031215613a96575f5ffd5b81516001600160401b03811115613aab575f5ffd5b8201601f81018413613abb575f5ffd5b8051613ac9612c4f82612d79565b818152856020838501011115613add575f5ffd5b8160208401602083015e5f9181016020019190915294935050505056fea26469706673582212203376f1c96b9b653244a5c54e8bd47a93cd19f5c3cb09cb2c46067367baf8c3fd64736f6c634300081f0033",
			"opcodes": "PUSH1 0x80 PUSH1 0x40 MSTORE CALLVALUE DUP1 ISZERO PUSH2 0xF JUMPI PUSH0 PUSH0 REVERT JUMPDEST POP PUSH1 0x40 MLOAD PUSH2 0x47BF CODESIZE SUB DUP1 PUSH2 0x47BF DUP4 CODECOPY DUP2 ADD PUSH1 0x40 DUP2 SWAP1 MSTORE PUSH2 0x2E SWAP2 PUSH2 0x92F JUMP JUMPDEST PUSH1 0x40 DUP1 MLOAD DUP1 DUP3 ADD SWAP1 SWAP2 MSTORE PUSH1 0x6 DUP2 MSTORE PUSH6 0x46414D494C59 PUSH1 0xD0 SHL PUSH1 0x20 DUP3 ADD MSTORE DUP7 SWAP1 DUP3 PUSH1 0x2 PUSH0 DUP5 DUP5 DUP5 DUP5 DUP2 PUSH2 0x5F CALLER PUSH2 0x1EF JUMP JUMPDEST PUSH1 0x1 PUSH1 0x1 PUSH1 0xA0 SHL SUB DUP2 AND PUSH2 0x86 JUMPI PUSH1 0x40 MLOAD PUSH4 0x6B620DB PUSH1 0xE2 SHL DUP2 MSTORE PUSH1 0x4 ADD PUSH1 0x40 MLOAD DUP1 SWAP2 SUB SWAP1 REVERT JUMPDEST PUSH2 0x8F DUP2 PUSH2 0x1EF JUMP JUMPDEST POP PUSH1 0x40 DUP1 MLOAD DUP1 DUP3 ADD SWAP1 SWAP2 MSTORE PUSH1 0x4 DUP2 MSTORE PUSH4 0x29365989 PUSH1 0xE2 SHL PUSH1 0x20 DUP3 ADD MSTORE PUSH2 0xD6 SWAP1 PUSH32 0xEAFEC4D89FA9619884B60000A4D96624A38F7AC2D8D9A604ECF07C12C77E480C SWAP1 PUSH2 0x23E JUMP JUMPDEST PUSH2 0x100 PUSH32 0xDEBA1E292F8BA88238E10AB3C7F88BD4BE4FAC56CAD5194B6ECCEAF653468AF1 DUP6 PUSH2 0x23E JUMP JUMPDEST PUSH2 0x12A PUSH32 0x2F0A68AB07768E01943A599E73362A0E17A63A72E94DD2E384D2C1D4DB932756 DUP5 PUSH2 0x23E JUMP JUMPDEST PUSH1 0x40 DUP1 MLOAD PUSH1 0x20 DUP2 ADD DUP4 SWAP1 MSTORE PUSH2 0x171 SWAP2 PUSH32 0xE0261FA95DB2EB3B5439BD033CDA66D56B96F92F243A8228FD87550ED7BDFDB3 SWAP2 ADD PUSH1 0x40 DUP1 MLOAD PUSH1 0x1F NOT DUP2 DUP5 SUB ADD DUP2 MSTORE SWAP2 SWAP1 MSTORE PUSH2 0x23E JUMP JUMPDEST POP POP PUSH1 0x40 DUP1 MLOAD PUSH1 0x20 DUP2 ADD DUP6 SWAP1 MSTORE PUSH2 0x1BC SWAP4 POP PUSH32 0xF675E9361AF1C1664C1868CFA3EB97672D6B1A513AA5B81DEC34C9EE330E818D SWAP3 POP ADD PUSH1 0x40 DUP1 MLOAD PUSH1 0x1F NOT DUP2 DUP5 SUB ADD DUP2 MSTORE SWAP2 SWAP1 MSTORE PUSH2 0x292 JUMP JUMPDEST POP POP PUSH1 0x8 DUP1 SLOAD PUSH1 0x1 PUSH1 0x1 PUSH1 0xA0 SHL SUB NOT AND CALLER OR SWAP1 SSTORE POP PUSH2 0x1E3 SWAP2 POP DUP7 SWAP1 POP DUP6 DUP4 PUSH0 DUP8 DUP8 PUSH2 0x352 JUMP JUMPDEST POP POP POP POP POP POP POP PUSH2 0xC82 JUMP JUMPDEST PUSH0 DUP1 SLOAD PUSH1 0x1 PUSH1 0x1 PUSH1 0xA0 SHL SUB DUP4 DUP2 AND PUSH1 0x1 PUSH1 0x1 PUSH1 0xA0 SHL SUB NOT DUP4 AND DUP2 OR DUP5 SSTORE PUSH1 0x40 MLOAD SWAP2 SWAP1 SWAP3 AND SWAP3 DUP4 SWAP2 PUSH32 0x8BE0079C531659141344CD1FD0A4F28419497F9722A3DAAFE3B4186F6B6457E0 SWAP2 SWAP1 LOG3 POP POP JUMP JUMPDEST PUSH0 DUP3 DUP2 MSTORE PUSH1 0x1 PUSH1 0x20 MSTORE PUSH1 0x40 SWAP1 KECCAK256 PUSH2 0x255 DUP3 DUP3 PUSH2 0xA7E JUMP JUMPDEST POP DUP2 PUSH32 0xECE574603820D07BC9B91F2A932BAADF4628AABCB8AFBA49776529C14A6104B2 DUP3 PUSH1 0x40 MLOAD PUSH2 0x286 SWAP2 SWAP1 PUSH2 0xB66 JUMP JUMPDEST PUSH1 0x40 MLOAD DUP1 SWAP2 SUB SWAP1 LOG2 POP POP JUMP JUMPDEST PUSH32 0x2145E1D6D074577DC71EF54C3807742B41B053A9352AE6B491331509ACB9750F DUP3 ADD PUSH2 0x2D2 JUMPI PUSH1 0x40 MLOAD PUSH4 0x85C169BD PUSH1 0xE0 SHL DUP2 MSTORE PUSH1 0x4 ADD PUSH1 0x40 MLOAD DUP1 SWAP2 SUB SWAP1 REVERT JUMPDEST PUSH32 0xD0F59754F88971FE6BC5A6618CC9D5F1E859C58D16B22D1C7B2D3E2B246CD8AA DUP3 ADD PUSH2 0x312 JUMPI PUSH1 0x40 MLOAD PUSH4 0xECEAB67 PUSH1 0xE3 SHL DUP2 MSTORE PUSH1 0x4 ADD PUSH1 0x40 MLOAD DUP1 SWAP2 SUB SWAP1 REVERT JUMPDEST PUSH32 0x1FD9E056A24D14C4ABC642FCC325992A946906D0DBC57DD70278AAF12842024D DUP3 ADD PUSH2 0x23E JUMPI PUSH1 0x40 MLOAD PUSH4 0x4EF6D7FB PUSH1 0xE0 SHL DUP2 MSTORE PUSH1 0x4 ADD PUSH1 0x40 MLOAD DUP1 SWAP2 SUB SWAP1 REVERT JUMPDEST PUSH0 PUSH2 0x361 PUSH1 0x6 DUP1 SLOAD PUSH1 0x1 ADD SWAP1 SSTORE JUMP JUMPDEST POP PUSH1 0x6 SLOAD PUSH1 0x40 DUP1 MLOAD PUSH1 0x20 DUP2 ADD SWAP1 SWAP2 MSTORE PUSH0 DUP2 MSTORE PUSH2 0x383 SWAP1 DUP7 SWAP1 DUP4 SWAP1 PUSH1 0x1 SWAP1 PUSH2 0x493 JUMP JUMPDEST PUSH0 DUP2 DUP2 MSTORE PUSH1 0x7 PUSH1 0x20 MSTORE PUSH1 0x40 SWAP1 KECCAK256 DUP1 PUSH2 0x39B DUP10 DUP3 PUSH2 0xA7E JUMP JUMPDEST POP DUP4 MLOAD PUSH1 0x6 DUP3 ADD DUP1 SLOAD PUSH1 0x20 DUP1 DUP9 ADD MLOAD PUSH1 0x40 DUP1 DUP11 ADD MLOAD PUSH2 0xFFFF SWAP7 DUP8 AND PUSH3 0xFFFFFF NOT SWAP6 DUP7 AND OR PUSH3 0x10000 PUSH1 0xFF SWAP5 DUP6 AND DUP2 MUL SWAP2 SWAP1 SWAP2 OR PUSH4 0xFF000000 NOT SWAP1 DUP2 AND PUSH4 0x1000000 SWAP4 DUP7 AND DUP5 MUL OR SWAP1 SWAP8 SSTORE DUP11 MLOAD PUSH1 0x7 DUP11 ADD DUP1 SLOAD SWAP7 DUP14 ADD MLOAD SWAP5 DUP14 ADD MLOAD SWAP2 SWAP1 SWAP10 AND SWAP6 SWAP1 SWAP7 AND SWAP5 SWAP1 SWAP5 OR SWAP2 DUP4 AND SWAP1 SWAP4 MUL OR SWAP1 SWAP4 AND SWAP2 SWAP1 SWAP3 AND SWAP1 SWAP2 MUL OR SWAP1 SSTORE PUSH1 0x5 DUP2 ADD DUP1 SLOAD DUP7 SWAP2 SWAP1 PUSH1 0xFF NOT AND PUSH1 0x1 DUP4 PUSH1 0x2 DUP2 GT ISZERO PUSH2 0x436 JUMPI PUSH2 0x436 PUSH2 0xB78 JUMP JUMPDEST MUL OR SWAP1 SSTORE POP PUSH1 0x8 DUP2 ADD PUSH2 0x449 DUP9 DUP3 PUSH2 0xA7E JUMP JUMPDEST POP PUSH1 0x40 MLOAD PUSH1 0x1 PUSH1 0x1 PUSH1 0xA0 SHL SUB DUP8 AND DUP2 MSTORE DUP3 SWAP1 PUSH32 0xA6912C28A8CB5FC5CAB504E471CFA6BC504444025484D810E2565BC7DEAD6657 SWAP1 PUSH1 0x20 ADD PUSH1 0x40 MLOAD DUP1 SWAP2 SUB SWAP1 LOG2 POP SWAP7 SWAP6 POP POP POP POP POP POP JUMP JUMPDEST PUSH1 0x1 PUSH1 0x1 PUSH1 0xA0 SHL SUB DUP5 AND PUSH2 0x4BA JUMPI PUSH1 0x40 MLOAD PUSH4 0x24ECEF4D PUSH1 0xE0 SHL DUP2 MSTORE PUSH1 0x4 ADD PUSH1 0x40 MLOAD DUP1 SWAP2 SUB SWAP1 REVERT JUMPDEST PUSH0 DUP4 DUP2 MSTORE PUSH1 0x3 PUSH1 0x20 MSTORE PUSH1 0x40 SWAP1 KECCAK256 SLOAD PUSH1 0x1 PUSH1 0x1 PUSH1 0xA0 SHL SUB AND ISZERO PUSH2 0x4F7 JUMPI PUSH1 0x40 MLOAD PUSH4 0x34C7B511 PUSH1 0xE0 SHL DUP2 MSTORE PUSH1 0x4 DUP2 ADD DUP5 SWAP1 MSTORE PUSH1 0x24 ADD JUMPDEST PUSH1 0x40 MLOAD DUP1 SWAP2 SUB SWAP1 REVERT JUMPDEST PUSH0 DUP4 DUP2 MSTORE PUSH1 0x3 PUSH1 0x20 MSTORE PUSH1 0x40 SWAP1 KECCAK256 SLOAD PUSH1 0x1 PUSH1 0x1 PUSH1 0xA0 SHL SUB AND ISZERO PUSH2 0x52F JUMPI PUSH1 0x40 MLOAD PUSH4 0x34C7B511 PUSH1 0xE0 SHL DUP2 MSTORE PUSH1 0x4 DUP2 ADD DUP5 SWAP1 MSTORE PUSH1 0x24 ADD PUSH2 0x4EE JUMP JUMPDEST PUSH1 0x2 PUSH0 DUP2 SLOAD PUSH2 0x53D SWAP1 PUSH2 0xB8C JUMP JUMPDEST SWAP1 SWAP2 SSTORE POP PUSH1 0x1 PUSH1 0x1 PUSH1 0xA0 SHL SUB DUP5 AND PUSH0 SWAP1 DUP2 MSTORE PUSH1 0x4 PUSH1 0x20 MSTORE PUSH1 0x40 SWAP1 KECCAK256 PUSH2 0x562 SWAP1 DUP5 PUSH2 0x609 JUMP JUMPDEST POP PUSH0 DUP4 DUP2 MSTORE PUSH1 0x3 PUSH1 0x20 MSTORE PUSH1 0x40 DUP1 DUP3 KECCAK256 DUP1 SLOAD PUSH1 0x1 PUSH1 0x1 PUSH1 0xA0 SHL SUB NOT AND PUSH1 0x1 PUSH1 0x1 PUSH1 0xA0 SHL SUB DUP9 AND SWAP1 DUP2 OR SWAP1 SWAP2 SSTORE SWAP1 MLOAD DUP6 SWAP3 SWAP1 PUSH32 0xB333C813A7426A7A11E2B190CAD52C44119421594B47F6F32ACE6D8C7207B2BF SWAP1 PUSH2 0x5C3 SWAP1 CALLER SWAP1 DUP9 SWAP1 DUP9 SWAP1 PUSH2 0xBB0 JUMP JUMPDEST PUSH1 0x40 MLOAD DUP1 SWAP2 SUB SWAP1 LOG4 PUSH0 CALLER PUSH0 DUP7 DUP7 DUP6 PUSH1 0x40 MLOAD PUSH1 0x20 ADD PUSH2 0x5E5 SWAP6 SWAP5 SWAP4 SWAP3 SWAP2 SWAP1 PUSH2 0xBE4 JUMP JUMPDEST PUSH1 0x40 DUP1 MLOAD PUSH1 0x1F NOT DUP2 DUP5 SUB ADD DUP2 MSTORE SWAP2 SWAP1 MSTORE SWAP1 POP PUSH2 0x602 DUP6 DUP5 DUP4 PUSH2 0x61D JUMP JUMPDEST POP POP POP POP POP JUMP JUMPDEST PUSH0 PUSH2 0x614 DUP4 DUP4 PUSH2 0x72B JUMP JUMPDEST SWAP1 POP JUMPDEST SWAP3 SWAP2 POP POP JUMP JUMPDEST PUSH2 0x62E DUP4 PUSH4 0x1AED5A85 PUSH1 0xE2 SHL PUSH2 0x777 JUMP JUMPDEST ISZERO PUSH2 0x6C9 JUMPI PUSH1 0x40 MLOAD PUSH4 0x1AED5A85 PUSH1 0xE2 SHL DUP2 MSTORE PUSH1 0x1 PUSH1 0x1 PUSH1 0xA0 SHL SUB DUP5 AND SWAP1 PUSH4 0x6BB56A14 SWAP1 PUSH2 0x681 SWAP1 PUSH32 0xB084A55EBF70FD3C06FD755269DAC2212C4D3F0F4D09079780BFA50C1B2984D SWAP1 DUP6 SWAP1 PUSH1 0x4 ADD PUSH2 0xC1E JUMP JUMPDEST PUSH0 PUSH1 0x40 MLOAD DUP1 DUP4 SUB DUP2 PUSH0 DUP8 GAS CALL ISZERO DUP1 ISZERO PUSH2 0x69C JUMPI RETURNDATASIZE PUSH0 PUSH0 RETURNDATACOPY RETURNDATASIZE PUSH0 REVERT JUMPDEST POP POP POP POP PUSH1 0x40 MLOAD RETURNDATASIZE PUSH0 DUP3 RETURNDATACOPY PUSH1 0x1F RETURNDATASIZE SWAP1 DUP2 ADD PUSH1 0x1F NOT AND DUP3 ADD PUSH1 0x40 MSTORE PUSH2 0x6C3 SWAP2 SWAP1 DUP2 ADD SWAP1 PUSH2 0xC3E JUMP JUMPDEST POP POP POP POP JUMP JUMPDEST DUP2 PUSH2 0x726 JUMPI PUSH1 0x1 PUSH1 0x1 PUSH1 0xA0 SHL SUB DUP4 AND EXTCODESIZE ISZERO PUSH2 0x702 JUMPI PUSH1 0x40 MLOAD PUSH4 0x4349776D PUSH1 0xE0 SHL DUP2 MSTORE PUSH1 0x1 PUSH1 0x1 PUSH1 0xA0 SHL SUB DUP5 AND PUSH1 0x4 DUP3 ADD MSTORE PUSH1 0x24 ADD PUSH2 0x4EE JUMP JUMPDEST PUSH1 0x40 MLOAD PUSH4 0x3173137 PUSH1 0xE0 SHL DUP2 MSTORE PUSH1 0x1 PUSH1 0x1 PUSH1 0xA0 SHL SUB DUP5 AND PUSH1 0x4 DUP3 ADD MSTORE PUSH1 0x24 ADD PUSH2 0x4EE JUMP JUMPDEST POP POP POP JUMP JUMPDEST PUSH0 DUP2 DUP2 MSTORE PUSH1 0x1 DUP4 ADD PUSH1 0x20 MSTORE PUSH1 0x40 DUP2 KECCAK256 SLOAD PUSH2 0x770 JUMPI POP DUP2 SLOAD PUSH1 0x1 DUP2 DUP2 ADD DUP5 SSTORE PUSH0 DUP5 DUP2 MSTORE PUSH1 0x20 DUP1 DUP3 KECCAK256 SWAP1 SWAP4 ADD DUP5 SWAP1 SSTORE DUP5 SLOAD DUP5 DUP3 MSTORE DUP3 DUP7 ADD SWAP1 SWAP4 MSTORE PUSH1 0x40 SWAP1 KECCAK256 SWAP2 SWAP1 SWAP2 SSTORE PUSH2 0x617 JUMP JUMPDEST POP PUSH0 PUSH2 0x617 JUMP JUMPDEST PUSH1 0x40 DUP1 MLOAD PUSH1 0x1 PUSH1 0x1 PUSH1 0xE0 SHL SUB NOT DUP4 AND PUSH1 0x24 DUP1 DUP4 ADD SWAP2 SWAP1 SWAP2 MSTORE DUP3 MLOAD DUP1 DUP4 SUB SWAP1 SWAP2 ADD DUP2 MSTORE PUSH1 0x44 SWAP1 SWAP2 ADD SWAP1 SWAP2 MSTORE PUSH1 0x20 DUP1 DUP3 ADD DUP1 MLOAD PUSH1 0x1 PUSH1 0x1 PUSH1 0xE0 SHL SUB AND PUSH4 0x1FFC9A7 PUSH1 0xE0 SHL OR DUP2 MSTORE DUP3 MLOAD PUSH0 SWAP4 SWAP3 DUP5 SWAP3 DUP4 SWAP3 DUP4 SWAP3 SWAP2 DUP4 SWAP2 SWAP1 DUP11 PUSH2 0x7530 STATICCALL SWAP3 POP RETURNDATASIZE SWAP2 POP PUSH0 MLOAD SWAP1 POP DUP3 DUP1 ISZERO PUSH2 0x7E7 JUMPI POP PUSH1 0x20 DUP3 LT ISZERO JUMPDEST DUP1 ISZERO PUSH2 0x7F2 JUMPI POP PUSH0 DUP2 GT JUMPDEST SWAP8 SWAP7 POP POP POP POP POP POP POP JUMP JUMPDEST PUSH4 0x4E487B71 PUSH1 0xE0 SHL PUSH0 MSTORE PUSH1 0x41 PUSH1 0x4 MSTORE PUSH1 0x24 PUSH0 REVERT JUMPDEST PUSH0 DUP1 PUSH1 0x1 PUSH1 0x1 PUSH1 0x40 SHL SUB DUP5 GT ISZERO PUSH2 0x82A JUMPI PUSH2 0x82A PUSH2 0x7FD JUMP JUMPDEST POP PUSH1 0x40 MLOAD PUSH1 0x1F NOT PUSH1 0x1F DUP6 ADD DUP2 AND PUSH1 0x3F ADD AND DUP2 ADD DUP2 DUP2 LT PUSH1 0x1 PUSH1 0x1 PUSH1 0x40 SHL SUB DUP3 GT OR ISZERO PUSH2 0x858 JUMPI PUSH2 0x858 PUSH2 0x7FD JUMP JUMPDEST PUSH1 0x40 MSTORE DUP4 DUP2 MSTORE SWAP1 POP DUP1 DUP3 DUP5 ADD DUP6 LT ISZERO PUSH2 0x86F JUMPI PUSH0 PUSH0 REVERT JUMPDEST DUP4 DUP4 PUSH1 0x20 DUP4 ADD MCOPY PUSH0 PUSH1 0x20 DUP6 DUP4 ADD ADD MSTORE POP SWAP4 SWAP3 POP POP POP JUMP JUMPDEST PUSH0 DUP3 PUSH1 0x1F DUP4 ADD SLT PUSH2 0x895 JUMPI PUSH0 PUSH0 REVERT JUMPDEST PUSH2 0x614 DUP4 DUP4 MLOAD PUSH1 0x20 DUP6 ADD PUSH2 0x811 JUMP JUMPDEST DUP1 MLOAD PUSH1 0xFF DUP2 AND DUP2 EQ PUSH2 0x8B4 JUMPI PUSH0 PUSH0 REVERT JUMPDEST SWAP2 SWAP1 POP JUMP JUMPDEST PUSH0 PUSH1 0x60 DUP3 DUP5 SUB SLT ISZERO PUSH2 0x8C9 JUMPI PUSH0 PUSH0 REVERT JUMPDEST PUSH1 0x40 MLOAD PUSH1 0x60 DUP2 ADD PUSH1 0x1 PUSH1 0x1 PUSH1 0x40 SHL SUB DUP2 GT DUP3 DUP3 LT OR ISZERO PUSH2 0x8EB JUMPI PUSH2 0x8EB PUSH2 0x7FD JUMP JUMPDEST DUP1 PUSH1 0x40 MSTORE POP DUP1 SWAP2 POP DUP3 MLOAD PUSH2 0xFFFF DUP2 AND DUP2 EQ PUSH2 0x904 JUMPI PUSH0 PUSH0 REVERT JUMPDEST DUP2 MSTORE PUSH2 0x912 PUSH1 0x20 DUP5 ADD PUSH2 0x8A4 JUMP JUMPDEST PUSH1 0x20 DUP3 ADD MSTORE PUSH2 0x923 PUSH1 0x40 DUP5 ADD PUSH2 0x8A4 JUMP JUMPDEST PUSH1 0x40 DUP3 ADD MSTORE POP SWAP3 SWAP2 POP POP JUMP JUMPDEST PUSH0 PUSH0 PUSH0 PUSH0 PUSH0 PUSH0 PUSH2 0x140 DUP8 DUP10 SUB SLT ISZERO PUSH2 0x945 JUMPI PUSH0 PUSH0 REVERT JUMPDEST DUP7 MLOAD PUSH1 0x1 PUSH1 0x1 PUSH1 0x40 SHL SUB DUP2 GT ISZERO PUSH2 0x95A JUMPI PUSH0 PUSH0 REVERT JUMPDEST PUSH2 0x966 DUP10 DUP3 DUP11 ADD PUSH2 0x886 JUMP JUMPDEST PUSH1 0x20 DUP10 ADD MLOAD SWAP1 SWAP8 POP SWAP1 POP PUSH1 0x1 PUSH1 0x1 PUSH1 0x40 SHL SUB DUP2 GT ISZERO PUSH2 0x983 JUMPI PUSH0 PUSH0 REVERT JUMPDEST PUSH2 0x98F DUP10 DUP3 DUP11 ADD PUSH2 0x886 JUMP JUMPDEST PUSH1 0x40 DUP10 ADD MLOAD SWAP1 SWAP7 POP SWAP1 POP PUSH1 0x1 PUSH1 0x1 PUSH1 0x40 SHL SUB DUP2 GT ISZERO PUSH2 0x9AC JUMPI PUSH0 PUSH0 REVERT JUMPDEST PUSH2 0x9B8 DUP10 DUP3 DUP11 ADD PUSH2 0x886 JUMP JUMPDEST SWAP5 POP POP PUSH2 0x9C8 DUP9 PUSH1 0x60 DUP10 ADD PUSH2 0x8B9 JUMP JUMPDEST SWAP3 POP PUSH2 0x9D7 DUP9 PUSH1 0xC0 DUP10 ADD PUSH2 0x8B9 JUMP JUMPDEST PUSH2 0x120 DUP9 ADD MLOAD SWAP1 SWAP3 POP PUSH1 0x1 PUSH1 0x1 PUSH1 0xA0 SHL SUB DUP2 AND DUP2 EQ PUSH2 0x9F4 JUMPI PUSH0 PUSH0 REVERT JUMPDEST DUP1 SWAP2 POP POP SWAP3 SWAP6 POP SWAP3 SWAP6 POP SWAP3 SWAP6 JUMP JUMPDEST PUSH1 0x1 DUP2 DUP2 SHR SWAP1 DUP3 AND DUP1 PUSH2 0xA16 JUMPI PUSH1 0x7F DUP3 AND SWAP2 POP JUMPDEST PUSH1 0x20 DUP3 LT DUP2 SUB PUSH2 0xA34 JUMPI PUSH4 0x4E487B71 PUSH1 0xE0 SHL PUSH0 MSTORE PUSH1 0x22 PUSH1 0x4 MSTORE PUSH1 0x24 PUSH0 REVERT JUMPDEST POP SWAP2 SWAP1 POP JUMP JUMPDEST PUSH1 0x1F DUP3 GT ISZERO PUSH2 0x726 JUMPI DUP1 PUSH0 MSTORE PUSH1 0x20 PUSH0 KECCAK256 PUSH1 0x1F DUP5 ADD PUSH1 0x5 SHR DUP2 ADD PUSH1 0x20 DUP6 LT ISZERO PUSH2 0xA5F JUMPI POP DUP1 JUMPDEST PUSH1 0x1F DUP5 ADD PUSH1 0x5 SHR DUP3 ADD SWAP2 POP JUMPDEST DUP2 DUP2 LT ISZERO PUSH2 0x602 JUMPI PUSH0 DUP2 SSTORE PUSH1 0x1 ADD PUSH2 0xA6B JUMP JUMPDEST DUP2 MLOAD PUSH1 0x1 PUSH1 0x1 PUSH1 0x40 SHL SUB DUP2 GT ISZERO PUSH2 0xA97 JUMPI PUSH2 0xA97 PUSH2 0x7FD JUMP JUMPDEST PUSH2 0xAAB DUP2 PUSH2 0xAA5 DUP5 SLOAD PUSH2 0xA02 JUMP JUMPDEST DUP5 PUSH2 0xA3A JUMP JUMPDEST PUSH1 0x20 PUSH1 0x1F DUP3 GT PUSH1 0x1 DUP2 EQ PUSH2 0xADD JUMPI PUSH0 DUP4 ISZERO PUSH2 0xAC6 JUMPI POP DUP5 DUP3 ADD MLOAD JUMPDEST PUSH0 NOT PUSH1 0x3 DUP6 SWAP1 SHL SHR NOT AND PUSH1 0x1 DUP5 SWAP1 SHL OR DUP5 SSTORE PUSH2 0x602 JUMP JUMPDEST PUSH0 DUP5 DUP2 MSTORE PUSH1 0x20 DUP2 KECCAK256 PUSH1 0x1F NOT DUP6 AND SWAP2 JUMPDEST DUP3 DUP2 LT ISZERO PUSH2 0xB0C JUMPI DUP8 DUP6 ADD MLOAD DUP3 SSTORE PUSH1 0x20 SWAP5 DUP6 ADD SWAP5 PUSH1 0x1 SWAP1 SWAP3 ADD SWAP2 ADD PUSH2 0xAEC JUMP JUMPDEST POP DUP5 DUP3 LT ISZERO PUSH2 0xB29 JUMPI DUP7 DUP5 ADD MLOAD PUSH0 NOT PUSH1 0x3 DUP8 SWAP1 SHL PUSH1 0xF8 AND SHR NOT AND DUP2 SSTORE JUMPDEST POP POP POP POP PUSH1 0x1 SWAP1 DUP2 SHL ADD SWAP1 SSTORE POP JUMP JUMPDEST PUSH0 DUP2 MLOAD DUP1 DUP5 MSTORE DUP1 PUSH1 0x20 DUP5 ADD PUSH1 0x20 DUP7 ADD MCOPY PUSH0 PUSH1 0x20 DUP3 DUP7 ADD ADD MSTORE PUSH1 0x20 PUSH1 0x1F NOT PUSH1 0x1F DUP4 ADD AND DUP6 ADD ADD SWAP2 POP POP SWAP3 SWAP2 POP POP JUMP JUMPDEST PUSH1 0x20 DUP2 MSTORE PUSH0 PUSH2 0x614 PUSH1 0x20 DUP4 ADD DUP5 PUSH2 0xB38 JUMP JUMPDEST PUSH4 0x4E487B71 PUSH1 0xE0 SHL PUSH0 MSTORE PUSH1 0x21 PUSH1 0x4 MSTORE PUSH1 0x24 PUSH0 REVERT JUMPDEST PUSH0 PUSH1 0x1 DUP3 ADD PUSH2 0xBA9 JUMPI PUSH4 0x4E487B71 PUSH1 0xE0 SHL PUSH0 MSTORE PUSH1 0x11 PUSH1 0x4 MSTORE PUSH1 0x24 PUSH0 REVERT JUMPDEST POP PUSH1 0x1 ADD SWAP1 JUMP JUMPDEST PUSH1 0x1 PUSH1 0x1 PUSH1 0xA0 SHL SUB DUP5 AND DUP2 MSTORE DUP3 ISZERO ISZERO PUSH1 0x20 DUP3 ADD MSTORE PUSH1 0x60 PUSH1 0x40 DUP3 ADD DUP2 SWAP1 MSTORE PUSH0 SWAP1 PUSH2 0xBDB SWAP1 DUP4 ADD DUP5 PUSH2 0xB38 JUMP JUMPDEST SWAP6 SWAP5 POP POP POP POP POP JUMP JUMPDEST PUSH1 0x1 PUSH1 0x1 PUSH1 0xA0 SHL SUB DUP7 DUP2 AND DUP3 MSTORE DUP6 DUP2 AND PUSH1 0x20 DUP4 ADD MSTORE DUP5 AND PUSH1 0x40 DUP3 ADD MSTORE PUSH1 0x60 DUP2 ADD DUP4 SWAP1 MSTORE PUSH1 0xA0 PUSH1 0x80 DUP3 ADD DUP2 SWAP1 MSTORE PUSH0 SWAP1 PUSH2 0x7F2 SWAP1 DUP4 ADD DUP5 PUSH2 0xB38 JUMP JUMPDEST DUP3 DUP2 MSTORE PUSH1 0x40 PUSH1 0x20 DUP3 ADD MSTORE PUSH0 PUSH2 0xC36 PUSH1 0x40 DUP4 ADD DUP5 PUSH2 0xB38 JUMP JUMPDEST SWAP5 SWAP4 POP POP POP POP JUMP JUMPDEST PUSH0 PUSH1 0x20 DUP3 DUP5 SUB SLT ISZERO PUSH2 0xC4E JUMPI PUSH0 PUSH0 REVERT JUMPDEST DUP2 MLOAD PUSH1 0x1 PUSH1 0x1 PUSH1 0x40 SHL SUB DUP2 GT ISZERO PUSH2 0xC63 JUMPI PUSH0 PUSH0 REVERT JUMPDEST DUP3 ADD PUSH1 0x1F DUP2 ADD DUP5 SGT PUSH2 0xC73 JUMPI PUSH0 PUSH0 REVERT JUMPDEST PUSH2 0xC36 DUP5 DUP3 MLOAD PUSH1 0x20 DUP5 ADD PUSH2 0x811 JUMP JUMPDEST PUSH2 0x3B30 DUP1 PUSH2 0xC8F PUSH0 CODECOPY PUSH0 RETURN INVALID PUSH1 0x80 PUSH1 0x40 MSTORE PUSH1 0x4 CALLDATASIZE LT PUSH2 0x1E6 JUMPI PUSH0 CALLDATALOAD PUSH1 0xE0 SHR DUP1 PUSH4 0x715018A6 GT PUSH2 0x101 JUMPI DUP1 PUSH4 0x97902421 GT PUSH2 0x94 JUMPI DUP1 PUSH4 0xDB8C9663 GT PUSH2 0x63 JUMPI DUP1 PUSH4 0xDB8C9663 EQ PUSH2 0x629 JUMPI DUP1 PUSH4 0xDEDFF9C6 EQ PUSH2 0x648 JUMPI DUP1 PUSH4 0xF08B15EB EQ PUSH2 0x667 JUMPI DUP1 PUSH4 0xF2FDE38B EQ PUSH2 0x686 JUMPI PUSH2 0x23F JUMP JUMPDEST DUP1 PUSH4 0x97902421 EQ PUSH2 0x5AC JUMPI DUP1 PUSH4 0xA3B261F2 EQ PUSH2 0x5BF JUMPI DUP1 PUSH4 0xBE9F0E6F EQ PUSH2 0x5EB JUMPI DUP1 PUSH4 0xD6C1407C EQ PUSH2 0x60A JUMPI PUSH2 0x23F JUMP JUMPDEST DUP1 PUSH4 0x7F23690C GT PUSH2 0xD0 JUMPI DUP1 PUSH4 0x7F23690C EQ PUSH2 0x53F JUMPI DUP1 PUSH4 0x86A10DDD EQ PUSH2 0x552 JUMPI DUP1 PUSH4 0x8DA5CB5B EQ PUSH2 0x571 JUMPI DUP1 PUSH4 0x8F81ECFC EQ PUSH2 0x58D JUMPI PUSH2 0x23F JUMP JUMPDEST DUP1 PUSH4 0x715018A6 EQ PUSH2 0x4D7 JUMPI DUP1 PUSH4 0x78495BF8 EQ PUSH2 0x4EB JUMPI DUP1 PUSH4 0x7E87632C EQ PUSH2 0x501 JUMPI DUP1 PUSH4 0x7E913B05 EQ PUSH2 0x520 JUMPI PUSH2 0x23F JUMP JUMPDEST DUP1 PUSH4 0x2A3654A4 GT PUSH2 0x179 JUMPI DUP1 PUSH4 0x54F6127F GT PUSH2 0x148 JUMPI DUP1 PUSH4 0x54F6127F EQ PUSH2 0x448 JUMPI DUP1 PUSH4 0x625D0BE9 EQ PUSH2 0x467 JUMPI DUP1 PUSH4 0x6963D438 EQ PUSH2 0x499 JUMPI DUP1 PUSH4 0x70A08231 EQ PUSH2 0x4B8 JUMPI PUSH2 0x23F JUMP JUMPDEST DUP1 PUSH4 0x2A3654A4 EQ PUSH2 0x3BF JUMPI DUP1 PUSH4 0x49A6078D EQ PUSH2 0x3DE JUMPI DUP1 PUSH4 0x4C8F9313 EQ PUSH2 0x40A JUMPI DUP1 PUSH4 0x511B6952 EQ PUSH2 0x429 JUMPI PUSH2 0x23F JUMP JUMPDEST DUP1 PUSH4 0x1D26FCE6 GT PUSH2 0x1B5 JUMPI DUP1 PUSH4 0x1D26FCE6 EQ PUSH2 0x31E JUMPI DUP1 PUSH4 0x1F121708 EQ PUSH2 0x34A JUMPI DUP1 PUSH4 0x217B2270 EQ PUSH2 0x381 JUMPI DUP1 PUSH4 0x2819A215 EQ PUSH2 0x3A0 JUMPI PUSH2 0x23F JUMP JUMPDEST DUP1 PUSH4 0x1FFC9A7 EQ PUSH2 0x27F JUMPI DUP1 PUSH4 0x2154B4E EQ PUSH2 0x2B3 JUMPI DUP1 PUSH4 0x16E023B3 EQ PUSH2 0x2D4 JUMPI DUP1 PUSH4 0x18160DDD EQ PUSH2 0x300 JUMPI PUSH2 0x23F JUMP JUMPDEST CALLDATASIZE PUSH2 0x23F JUMPI CALLVALUE PUSH0 SUB PUSH2 0x226 JUMPI PUSH1 0x40 MLOAD PUSH4 0xE5099EE3 PUSH1 0xE0 SHL DUP2 MSTORE PUSH1 0x4 ADD PUSH2 0x21D SWAP1 PUSH1 0x20 DUP1 DUP3 MSTORE PUSH1 0x4 SWAP1 DUP3 ADD MSTORE PUSH0 PUSH1 0x40 DUP3 ADD MSTORE PUSH1 0x60 ADD SWAP1 JUMP JUMPDEST PUSH1 0x40 MLOAD DUP1 SWAP2 SUB SWAP1 REVERT JUMPDEST PUSH1 0x40 MLOAD PUSH4 0x30FA4A21 PUSH1 0xE1 SHL DUP2 MSTORE PUSH1 0x4 ADD PUSH1 0x40 MLOAD DUP1 SWAP2 SUB SWAP1 REVERT JUMPDEST PUSH0 CALLDATASIZE PUSH1 0x60 PUSH1 0x4 DUP3 LT ISZERO PUSH2 0x269 JUMPI DUP3 DUP3 PUSH1 0x40 MLOAD PUSH4 0xE5099EE3 PUSH1 0xE0 SHL DUP2 MSTORE PUSH1 0x4 ADD PUSH2 0x21D SWAP3 SWAP2 SWAP1 PUSH2 0x2AE3 JUMP JUMPDEST PUSH2 0x273 DUP4 DUP4 PUSH2 0x6A5 JUMP JUMPDEST DUP1 MLOAD SWAP4 POP PUSH1 0x20 ADD SWAP2 POP POP RETURN JUMPDEST CALLVALUE DUP1 ISZERO PUSH2 0x28A JUMPI PUSH0 PUSH0 REVERT JUMPDEST POP PUSH2 0x29E PUSH2 0x299 CALLDATASIZE PUSH1 0x4 PUSH2 0x2B11 JUMP JUMPDEST PUSH2 0x794 JUMP JUMPDEST PUSH1 0x40 MLOAD SWAP1 ISZERO ISZERO DUP2 MSTORE PUSH1 0x20 ADD JUMPDEST PUSH1 0x40 MLOAD DUP1 SWAP2 SUB SWAP1 RETURN JUMPDEST CALLVALUE DUP1 ISZERO PUSH2 0x2BE JUMPI PUSH0 PUSH0 REVERT JUMPDEST POP PUSH2 0x2D2 PUSH2 0x2CD CALLDATASIZE PUSH1 0x4 PUSH2 0x2B53 JUMP JUMPDEST PUSH2 0x7C7 JUMP JUMPDEST STOP JUMPDEST CALLVALUE DUP1 ISZERO PUSH2 0x2DF JUMPI PUSH0 PUSH0 REVERT JUMPDEST POP PUSH2 0x2F3 PUSH2 0x2EE CALLDATASIZE PUSH1 0x4 PUSH2 0x2B6C JUMP JUMPDEST PUSH2 0x81A JUMP JUMPDEST PUSH1 0x40 MLOAD PUSH2 0x2AA SWAP2 SWAP1 PUSH2 0x2BBA JUMP JUMPDEST CALLVALUE DUP1 ISZERO PUSH2 0x30B JUMPI PUSH0 PUSH0 REVERT JUMPDEST POP PUSH1 0x2 SLOAD JUMPDEST PUSH1 0x40 MLOAD SWAP1 DUP2 MSTORE PUSH1 0x20 ADD PUSH2 0x2AA JUMP JUMPDEST CALLVALUE DUP1 ISZERO PUSH2 0x329 JUMPI PUSH0 PUSH0 REVERT JUMPDEST POP PUSH2 0x33D PUSH2 0x338 CALLDATASIZE PUSH1 0x4 PUSH2 0x2C9C JUMP JUMPDEST PUSH2 0x82D JUMP JUMPDEST PUSH1 0x40 MLOAD PUSH2 0x2AA SWAP2 SWAP1 PUSH2 0x2CFF JUMP JUMPDEST CALLVALUE DUP1 ISZERO PUSH2 0x355 JUMPI PUSH0 PUSH0 REVERT JUMPDEST POP PUSH1 0x8 SLOAD PUSH2 0x369 SWAP1 PUSH1 0x1 PUSH1 0x1 PUSH1 0xA0 SHL SUB AND DUP2 JUMP JUMPDEST PUSH1 0x40 MLOAD PUSH1 0x1 PUSH1 0x1 PUSH1 0xA0 SHL SUB SWAP1 SWAP2 AND DUP2 MSTORE PUSH1 0x20 ADD PUSH2 0x2AA JUMP JUMPDEST CALLVALUE DUP1 ISZERO PUSH2 0x38C JUMPI PUSH0 PUSH0 REVERT JUMPDEST POP PUSH2 0x369 PUSH2 0x39B CALLDATASIZE PUSH1 0x4 PUSH2 0x2D62 JUMP JUMPDEST PUSH2 0x913 JUMP JUMPDEST CALLVALUE DUP1 ISZERO PUSH2 0x3AB JUMPI PUSH0 PUSH0 REVERT JUMPDEST POP PUSH2 0x2D2 PUSH2 0x3BA CALLDATASIZE PUSH1 0x4 PUSH2 0x2E89 JUMP JUMPDEST PUSH2 0x94B JUMP JUMPDEST CALLVALUE DUP1 ISZERO PUSH2 0x3CA JUMPI PUSH0 PUSH0 REVERT JUMPDEST POP PUSH2 0x29E PUSH2 0x3D9 CALLDATASIZE PUSH1 0x4 PUSH2 0x2F56 JUMP JUMPDEST PUSH2 0xA7D JUMP JUMPDEST CALLVALUE DUP1 ISZERO PUSH2 0x3E9 JUMPI PUSH0 PUSH0 REVERT JUMPDEST POP PUSH2 0x3FD PUSH2 0x3F8 CALLDATASIZE PUSH1 0x4 PUSH2 0x2D62 JUMP JUMPDEST PUSH2 0xA88 JUMP JUMPDEST PUSH1 0x40 MLOAD PUSH2 0x2AA SWAP2 SWAP1 PUSH2 0x2F7E JUMP JUMPDEST CALLVALUE DUP1 ISZERO PUSH2 0x415 JUMPI PUSH0 PUSH0 REVERT JUMPDEST POP PUSH2 0x2D2 PUSH2 0x424 CALLDATASIZE PUSH1 0x4 PUSH2 0x2FC9 JUMP JUMPDEST PUSH2 0xAA9 JUMP JUMPDEST CALLVALUE DUP1 ISZERO PUSH2 0x434 JUMPI PUSH0 PUSH0 REVERT JUMPDEST POP PUSH2 0x2D2 PUSH2 0x443 CALLDATASIZE PUSH1 0x4 PUSH2 0x309C JUMP JUMPDEST PUSH2 0xBFC JUMP JUMPDEST CALLVALUE DUP1 ISZERO PUSH2 0x453 JUMPI PUSH0 PUSH0 REVERT JUMPDEST POP PUSH2 0x2F3 PUSH2 0x462 CALLDATASIZE PUSH1 0x4 PUSH2 0x2D62 JUMP JUMPDEST PUSH2 0xC40 JUMP JUMPDEST CALLVALUE DUP1 ISZERO PUSH2 0x472 JUMPI PUSH0 PUSH0 REVERT JUMPDEST POP PUSH2 0x486 PUSH2 0x481 CALLDATASIZE PUSH1 0x4 PUSH2 0x2D62 JUMP JUMPDEST PUSH2 0xC4B JUMP JUMPDEST PUSH1 0x40 MLOAD PUSH2 0x2AA SWAP8 SWAP7 SWAP6 SWAP5 SWAP4 SWAP3 SWAP2 SWAP1 PUSH2 0x3123 JUMP JUMPDEST CALLVALUE DUP1 ISZERO PUSH2 0x4A4 JUMPI PUSH0 PUSH0 REVERT JUMPDEST POP PUSH2 0x33D PUSH2 0x4B3 CALLDATASIZE PUSH1 0x4 PUSH2 0x31D3 JUMP JUMPDEST PUSH2 0xDF1 JUMP JUMPDEST CALLVALUE DUP1 ISZERO PUSH2 0x4C3 JUMPI PUSH0 PUSH0 REVERT JUMPDEST POP PUSH2 0x310 PUSH2 0x4D2 CALLDATASIZE PUSH1 0x4 PUSH2 0x2B53 JUMP JUMPDEST PUSH2 0xF1B JUMP JUMPDEST CALLVALUE DUP1 ISZERO PUSH2 0x4E2 JUMPI PUSH0 PUSH0 REVERT JUMPDEST POP PUSH2 0x2D2 PUSH2 0xF3B JUMP JUMPDEST CALLVALUE DUP1 ISZERO PUSH2 0x4F6 JUMPI PUSH0 PUSH0 REVERT JUMPDEST POP PUSH1 0x6 SLOAD PUSH2 0x310 SWAP1 DUP2 JUMP JUMPDEST CALLVALUE DUP1 ISZERO PUSH2 0x50C JUMPI PUSH0 PUSH0 REVERT JUMPDEST POP PUSH2 0x2D2 PUSH2 0x51B CALLDATASIZE PUSH1 0x4 PUSH2 0x3384 JUMP JUMPDEST PUSH2 0xF4E JUMP JUMPDEST CALLVALUE DUP1 ISZERO PUSH2 0x52B JUMPI PUSH0 PUSH0 REVERT JUMPDEST POP PUSH2 0x2D2 PUSH2 0x53A CALLDATASIZE PUSH1 0x4 PUSH2 0x2B6C JUMP JUMPDEST PUSH2 0x103C JUMP JUMPDEST PUSH2 0x2D2 PUSH2 0x54D CALLDATASIZE PUSH1 0x4 PUSH2 0x3455 JUMP JUMPDEST PUSH2 0x1293 JUMP JUMPDEST CALLVALUE DUP1 ISZERO PUSH2 0x55D JUMPI PUSH0 PUSH0 REVERT JUMPDEST POP PUSH2 0x2D2 PUSH2 0x56C CALLDATASIZE PUSH1 0x4 PUSH2 0x348E JUMP JUMPDEST PUSH2 0x12C8 JUMP JUMPDEST CALLVALUE DUP1 ISZERO PUSH2 0x57C JUMPI PUSH0 PUSH0 REVERT JUMPDEST POP PUSH0 SLOAD PUSH1 0x1 PUSH1 0x1 PUSH1 0xA0 SHL SUB AND PUSH2 0x369 JUMP JUMPDEST CALLVALUE DUP1 ISZERO PUSH2 0x598 JUMPI PUSH0 PUSH0 REVERT JUMPDEST POP PUSH2 0x2D2 PUSH2 0x5A7 CALLDATASIZE PUSH1 0x4 PUSH2 0x2B6C JUMP JUMPDEST PUSH2 0x143F JUMP JUMPDEST PUSH2 0x2D2 PUSH2 0x5BA CALLDATASIZE PUSH1 0x4 PUSH2 0x34E0 JUMP JUMPDEST PUSH2 0x1676 JUMP JUMPDEST CALLVALUE DUP1 ISZERO PUSH2 0x5CA JUMPI PUSH0 PUSH0 REVERT JUMPDEST POP PUSH2 0x5DE PUSH2 0x5D9 CALLDATASIZE PUSH1 0x4 PUSH2 0x2B53 JUMP JUMPDEST PUSH2 0x16A7 JUMP JUMPDEST PUSH1 0x40 MLOAD PUSH2 0x2AA SWAP2 SWAP1 PUSH2 0x3539 JUMP JUMPDEST CALLVALUE DUP1 ISZERO PUSH2 0x5F6 JUMPI PUSH0 PUSH0 REVERT JUMPDEST POP PUSH2 0x2D2 PUSH2 0x605 CALLDATASIZE PUSH1 0x4 PUSH2 0x3570 JUMP JUMPDEST PUSH2 0x16CA JUMP JUMPDEST CALLVALUE DUP1 ISZERO PUSH2 0x615 JUMPI PUSH0 PUSH0 REVERT JUMPDEST POP PUSH2 0x2D2 PUSH2 0x624 CALLDATASIZE PUSH1 0x4 PUSH2 0x35F1 JUMP JUMPDEST PUSH2 0x178D JUMP JUMPDEST CALLVALUE DUP1 ISZERO PUSH2 0x634 JUMPI PUSH0 PUSH0 REVERT JUMPDEST POP PUSH2 0x2D2 PUSH2 0x643 CALLDATASIZE PUSH1 0x4 PUSH2 0x3626 JUMP JUMPDEST PUSH2 0x17E1 JUMP JUMPDEST CALLVALUE DUP1 ISZERO PUSH2 0x653 JUMPI PUSH0 PUSH0 REVERT JUMPDEST POP PUSH2 0x33D PUSH2 0x662 CALLDATASIZE PUSH1 0x4 PUSH2 0x3689 JUMP JUMPDEST PUSH2 0x18C2 JUMP JUMPDEST CALLVALUE DUP1 ISZERO PUSH2 0x672 JUMPI PUSH0 PUSH0 REVERT JUMPDEST POP PUSH2 0x2D2 PUSH2 0x681 CALLDATASIZE PUSH1 0x4 PUSH2 0x36BA JUMP JUMPDEST PUSH2 0x196B JUMP JUMPDEST CALLVALUE DUP1 ISZERO PUSH2 0x691 JUMPI PUSH0 PUSH0 REVERT JUMPDEST POP PUSH2 0x2D2 PUSH2 0x6A0 CALLDATASIZE PUSH1 0x4 PUSH2 0x2B53 JUMP JUMPDEST PUSH2 0x1A3B JUMP JUMPDEST PUSH1 0x60 PUSH0 PUSH2 0x6BC PUSH0 CALLDATALOAD PUSH1 0x1 PUSH1 0x1 PUSH1 0xE0 SHL SUB NOT AND PUSH2 0x1AA8 JUMP JUMPDEST POP SWAP1 POP PUSH1 0x1 PUSH1 0x1 PUSH1 0xA0 SHL SUB DUP2 AND PUSH2 0x6F3 JUMPI PUSH1 0x40 MLOAD PUSH4 0xBB370B2B PUSH1 0xE0 SHL DUP2 MSTORE PUSH1 0x1 PUSH1 0x1 PUSH1 0xE0 SHL SUB NOT PUSH0 CALLDATALOAD AND PUSH1 0x4 DUP3 ADD MSTORE PUSH1 0x24 ADD PUSH2 0x21D JUMP JUMPDEST PUSH0 PUSH0 DUP3 PUSH1 0x1 PUSH1 0x1 PUSH1 0xA0 SHL SUB AND CALLVALUE DUP8 DUP8 CALLER CALLVALUE PUSH1 0x40 MLOAD PUSH1 0x20 ADD PUSH2 0x717 SWAP5 SWAP4 SWAP3 SWAP2 SWAP1 PUSH2 0x36E5 JUMP JUMPDEST PUSH1 0x40 DUP1 MLOAD PUSH1 0x1F NOT DUP2 DUP5 SUB ADD DUP2 MSTORE SWAP1 DUP3 SWAP1 MSTORE PUSH2 0x731 SWAP2 PUSH2 0x3710 JUMP JUMPDEST PUSH0 PUSH1 0x40 MLOAD DUP1 DUP4 SUB DUP2 DUP6 DUP8 GAS CALL SWAP3 POP POP POP RETURNDATASIZE DUP1 PUSH0 DUP2 EQ PUSH2 0x76B JUMPI PUSH1 0x40 MLOAD SWAP2 POP PUSH1 0x1F NOT PUSH1 0x3F RETURNDATASIZE ADD AND DUP3 ADD PUSH1 0x40 MSTORE RETURNDATASIZE DUP3 MSTORE RETURNDATASIZE PUSH0 PUSH1 0x20 DUP5 ADD RETURNDATACOPY PUSH2 0x770 JUMP JUMPDEST PUSH1 0x60 SWAP2 POP JUMPDEST POP SWAP2 POP SWAP2 POP DUP2 ISZERO PUSH2 0x785 JUMPI SWAP3 POP PUSH2 0x78E SWAP2 POP POP JUMP JUMPDEST DUP1 MLOAD DUP1 PUSH1 0x20 DUP4 ADD REVERT JUMPDEST SWAP3 SWAP2 POP POP JUMP JUMPDEST PUSH0 PUSH1 0x1 PUSH1 0x1 PUSH1 0xE0 SHL SUB NOT DUP3 AND PUSH4 0x1D138B83 PUSH1 0xE1 SHL EQ DUP1 PUSH2 0x7B8 JUMPI POP PUSH2 0x7B8 DUP3 PUSH2 0x1B24 JUMP JUMPDEST DUP1 PUSH2 0x78E JUMPI POP PUSH2 0x78E DUP3 PUSH2 0x1B48 JUMP JUMPDEST PUSH1 0x8 SLOAD PUSH1 0x1 PUSH1 0x1 PUSH1 0xA0 SHL SUB AND CALLER EQ PUSH2 0x80E JUMPI PUSH1 0x40 MLOAD PUSH3 0x461BCD PUSH1 0xE5 SHL DUP2 MSTORE PUSH1 0x20 PUSH1 0x4 DUP3 ADD MSTORE PUSH1 0xA PUSH1 0x24 DUP3 ADD MSTORE PUSH10 0x139BDD081C195C9B5A5D PUSH1 0xB2 SHL PUSH1 0x44 DUP3 ADD MSTORE PUSH1 0x64 ADD PUSH2 0x21D JUMP JUMPDEST PUSH2 0x817 DUP2 PUSH2 0x1B7D JUMP JUMPDEST POP JUMP JUMPDEST PUSH1 0x60 PUSH2 0x826 DUP4 DUP4 PUSH2 0x1BCC JUMP JUMPDEST SWAP4 SWAP3 POP POP POP JUMP JUMPDEST PUSH1 0x60 DUP2 MLOAD DUP4 MLOAD EQ PUSH2 0x851 JUMPI PUSH1 0x40 MLOAD PUSH4 0x17D38EFF PUSH1 0xE1 SHL DUP2 MSTORE PUSH1 0x4 ADD PUSH1 0x40 MLOAD DUP1 SWAP2 SUB SWAP1 REVERT JUMPDEST DUP3 MLOAD PUSH1 0x1 PUSH1 0x1 PUSH1 0x40 SHL SUB DUP2 GT ISZERO PUSH2 0x86A JUMPI PUSH2 0x86A PUSH2 0x2BCC JUMP JUMPDEST PUSH1 0x40 MLOAD SWAP1 DUP1 DUP3 MSTORE DUP1 PUSH1 0x20 MUL PUSH1 0x20 ADD DUP3 ADD PUSH1 0x40 MSTORE DUP1 ISZERO PUSH2 0x89D JUMPI DUP2 PUSH1 0x20 ADD JUMPDEST PUSH1 0x60 DUP2 MSTORE PUSH1 0x20 ADD SWAP1 PUSH1 0x1 SWAP1 SUB SWAP1 DUP2 PUSH2 0x888 JUMPI SWAP1 POP JUMPDEST POP SWAP1 POP PUSH0 JUMPDEST DUP4 MLOAD DUP2 LT ISZERO PUSH2 0x90C JUMPI PUSH2 0x8E7 DUP5 DUP3 DUP2 MLOAD DUP2 LT PUSH2 0x8C0 JUMPI PUSH2 0x8C0 PUSH2 0x3726 JUMP JUMPDEST PUSH1 0x20 MUL PUSH1 0x20 ADD ADD MLOAD DUP5 DUP4 DUP2 MLOAD DUP2 LT PUSH2 0x8DA JUMPI PUSH2 0x8DA PUSH2 0x3726 JUMP JUMPDEST PUSH1 0x20 MUL PUSH1 0x20 ADD ADD MLOAD PUSH2 0x1BCC JUMP JUMPDEST DUP3 DUP3 DUP2 MLOAD DUP2 LT PUSH2 0x8F9 JUMPI PUSH2 0x8F9 PUSH2 0x3726 JUMP JUMPDEST PUSH1 0x20 SWAP1 DUP2 MUL SWAP2 SWAP1 SWAP2 ADD ADD MSTORE PUSH1 0x1 ADD PUSH2 0x8A2 JUMP JUMPDEST POP SWAP3 SWAP2 POP POP JUMP JUMPDEST PUSH0 DUP2 DUP2 MSTORE PUSH1 0x3 PUSH1 0x20 MSTORE PUSH1 0x40 DUP2 KECCAK256 SLOAD PUSH1 0x1 PUSH1 0x1 PUSH1 0xA0 SHL SUB AND DUP1 PUSH2 0x78E JUMPI PUSH1 0x40 MLOAD PUSH4 0x5747CD1B PUSH1 0xE1 SHL DUP2 MSTORE PUSH1 0x4 DUP2 ADD DUP5 SWAP1 MSTORE PUSH1 0x24 ADD PUSH2 0x21D JUMP JUMPDEST DUP4 PUSH0 PUSH2 0x956 DUP3 PUSH2 0x913 JUMP JUMPDEST SWAP1 POP CALLER PUSH1 0x1 PUSH1 0x1 PUSH1 0xA0 SHL SUB DUP3 AND EQ DUP1 PUSH2 0x978 JUMPI POP PUSH0 SLOAD PUSH1 0x1 PUSH1 0x1 PUSH1 0xA0 SHL SUB AND CALLER EQ JUMPDEST PUSH2 0x994 JUMPI PUSH1 0x40 MLOAD PUSH3 0x461BCD PUSH1 0xE5 SHL DUP2 MSTORE PUSH1 0x4 ADD PUSH2 0x21D SWAP1 PUSH2 0x373A JUMP JUMPDEST PUSH0 DUP7 DUP2 MSTORE PUSH1 0x7 PUSH1 0x20 MSTORE PUSH1 0x40 DUP2 KECCAK256 SWAP1 PUSH2 0x9B0 DUP14 DUP14 DUP9 DUP15 DUP15 DUP15 PUSH2 0x1C9F JUMP JUMPDEST SWAP1 POP DUP2 PUSH1 0x3 ADD PUSH1 0x40 MLOAD DUP1 PUSH1 0x40 ADD PUSH1 0x40 MSTORE DUP1 DUP8 PUSH1 0x2 DUP2 GT ISZERO PUSH2 0x9D3 JUMPI PUSH2 0x9D3 PUSH2 0x310F JUMP JUMPDEST DUP2 MSTORE PUSH1 0x20 SWAP1 DUP2 ADD DUP5 SWAP1 MSTORE DUP3 SLOAD PUSH1 0x1 DUP2 DUP2 ADD DUP6 SSTORE PUSH0 SWAP5 DUP6 MSTORE SWAP2 SWAP1 SWAP4 KECCAK256 DUP3 MLOAD PUSH1 0x2 SWAP5 DUP6 MUL SWAP1 SWAP2 ADD DUP1 SLOAD SWAP4 SWAP5 SWAP1 SWAP4 SWAP2 SWAP3 DUP5 SWAP3 PUSH1 0xFF NOT AND SWAP2 DUP5 SWAP1 DUP2 GT ISZERO PUSH2 0xA18 JUMPI PUSH2 0xA18 PUSH2 0x310F JUMP JUMPDEST MUL OR SWAP1 SSTORE POP PUSH1 0x20 SWAP2 DUP3 ADD MLOAD PUSH1 0x1 SWAP2 DUP3 ADD SSTORE PUSH0 DUP4 DUP2 MSTORE PUSH1 0x7 SWAP1 SWAP3 MSTORE PUSH1 0x40 DUP1 DUP4 KECCAK256 SWAP2 DUP3 ADD DUP12 SWAP1 SSTORE PUSH1 0x2 SWAP1 SWAP2 ADD DUP10 SWAP1 SSTORE MLOAD DUP10 SWAP2 DUP4 SWAP2 PUSH32 0x95AFC0D374F4E4B0D262BE4433E573B5862C9FB50C22EE6438A313040F5487CC SWAP2 SWAP1 LOG3 POP POP POP POP POP POP POP POP POP POP POP POP POP JUMP JUMPDEST PUSH0 PUSH2 0x826 DUP4 DUP4 PUSH2 0x1DE0 JUMP JUMPDEST PUSH1 0x60 PUSH2 0xA93 DUP3 PUSH2 0x1E1B JUMP JUMPDEST PUSH0 DUP3 DUP2 MSTORE PUSH1 0x5 PUSH1 0x20 MSTORE PUSH1 0x40 SWAP1 KECCAK256 PUSH2 0x78E SWAP1 PUSH2 0x1E52 JUMP JUMPDEST DUP8 PUSH0 PUSH2 0xAB4 DUP3 PUSH2 0x913 JUMP JUMPDEST SWAP1 POP CALLER PUSH1 0x1 PUSH1 0x1 PUSH1 0xA0 SHL SUB DUP3 AND EQ DUP1 PUSH2 0xAD6 JUMPI POP PUSH0 SLOAD PUSH1 0x1 PUSH1 0x1 PUSH1 0xA0 SHL SUB AND CALLER EQ JUMPDEST PUSH2 0xAF2 JUMPI PUSH1 0x40 MLOAD PUSH3 0x461BCD PUSH1 0xE5 SHL DUP2 MSTORE PUSH1 0x4 ADD PUSH2 0x21D SWAP1 PUSH2 0x373A JUMP JUMPDEST PUSH0 PUSH2 0xB02 DUP11 DUP11 DUP7 PUSH1 0x1 DUP13 DUP13 PUSH2 0x1C9F JUMP JUMPDEST PUSH0 DUP2 DUP2 MSTORE PUSH1 0x7 PUSH1 0x20 SWAP1 DUP2 MSTORE PUSH1 0x40 DUP1 DUP4 KECCAK256 DUP2 MLOAD PUSH1 0x60 DUP2 ADD DUP4 MSTORE DUP6 DUP2 MSTORE DUP1 DUP5 ADD DUP13 DUP2 MSTORE DUP2 DUP5 ADD DUP13 DUP2 MSTORE PUSH1 0x4 SWAP1 SWAP4 ADD DUP1 SLOAD PUSH1 0x1 DUP2 DUP2 ADD DUP4 SSTORE SWAP2 DUP9 MSTORE DUP7 DUP9 KECCAK256 SWAP4 MLOAD PUSH1 0x3 SWAP1 SWAP2 MUL SWAP1 SWAP4 ADD SWAP3 DUP4 SSTORE SWAP1 MLOAD DUP1 MLOAD SWAP2 DUP4 ADD DUP1 SLOAD DUP3 DUP9 ADD MLOAD SWAP3 DUP8 ADD MLOAD PUSH1 0xFF SWAP1 DUP2 AND PUSH4 0x1000000 SWAP1 DUP2 MUL PUSH4 0xFF000000 NOT SWAP6 DUP4 AND PUSH3 0x10000 SWAP1 DUP2 MUL PUSH3 0xFFFFFF NOT SWAP6 DUP7 AND PUSH2 0xFFFF SWAP10 DUP11 AND OR OR DUP8 AND SWAP2 SWAP1 SWAP2 OR SWAP1 SWAP5 SSTORE SWAP7 MLOAD DUP1 MLOAD PUSH1 0x2 SWAP1 SWAP8 ADD DUP1 SLOAD SWAP11 DUP3 ADD MLOAD SWAP2 DUP11 ADD MLOAD DUP4 AND SWAP1 SWAP9 MUL SWAP2 AND SWAP1 SWAP3 MUL SWAP8 AND SWAP4 SWAP1 SWAP3 AND SWAP3 SWAP1 SWAP3 OR SWAP5 SWAP1 SWAP5 OR AND SWAP3 SWAP1 SWAP3 OR SWAP1 SWAP2 SSTORE MLOAD SWAP2 SWAP3 POP DUP3 SWAP2 DUP14 SWAP2 PUSH32 0xCA4757636F927657C127875C4F0C0EC6E1F84D4769348F20FFF39486A4BB2C3F SWAP2 LOG3 POP POP POP POP POP POP POP POP POP POP POP JUMP JUMPDEST PUSH2 0xC06 CALLER DUP5 PUSH2 0x1DE0 JUMP JUMPDEST PUSH2 0xC2C JUMPI PUSH1 0x40 MLOAD PUSH4 0x1294D2A9 PUSH1 0xE0 SHL DUP2 MSTORE PUSH1 0x4 DUP2 ADD DUP5 SWAP1 MSTORE CALLER PUSH1 0x24 DUP3 ADD MSTORE PUSH1 0x44 ADD PUSH2 0x21D JUMP JUMPDEST PUSH2 0xC39 DUP6 DUP6 DUP6 DUP6 DUP6 PUSH2 0x1E5E JUMP JUMPDEST POP POP POP POP POP JUMP JUMPDEST PUSH1 0x60 PUSH2 0x78E DUP3 PUSH2 0x203A JUMP JUMPDEST PUSH1 0x7 PUSH1 0x20 MSTORE PUSH0 SWAP1 DUP2 MSTORE PUSH1 0x40 SWAP1 KECCAK256 DUP1 SLOAD DUP2 SWAP1 PUSH2 0xC65 SWAP1 PUSH2 0x3762 JUMP JUMPDEST DUP1 PUSH1 0x1F ADD PUSH1 0x20 DUP1 SWAP2 DIV MUL PUSH1 0x20 ADD PUSH1 0x40 MLOAD SWAP1 DUP2 ADD PUSH1 0x40 MSTORE DUP1 SWAP3 SWAP2 SWAP1 DUP2 DUP2 MSTORE PUSH1 0x20 ADD DUP3 DUP1 SLOAD PUSH2 0xC91 SWAP1 PUSH2 0x3762 JUMP JUMPDEST DUP1 ISZERO PUSH2 0xCDC JUMPI DUP1 PUSH1 0x1F LT PUSH2 0xCB3 JUMPI PUSH2 0x100 DUP1 DUP4 SLOAD DIV MUL DUP4 MSTORE SWAP2 PUSH1 0x20 ADD SWAP2 PUSH2 0xCDC JUMP JUMPDEST DUP3 ADD SWAP2 SWAP1 PUSH0 MSTORE PUSH1 0x20 PUSH0 KECCAK256 SWAP1 JUMPDEST DUP2 SLOAD DUP2 MSTORE SWAP1 PUSH1 0x1 ADD SWAP1 PUSH1 0x20 ADD DUP1 DUP4 GT PUSH2 0xCBF JUMPI DUP3 SWAP1 SUB PUSH1 0x1F AND DUP3 ADD SWAP2 JUMPDEST POP POP POP POP PUSH1 0x1 DUP4 ADD SLOAD PUSH1 0x2 DUP5 ADD SLOAD PUSH1 0x5 DUP6 ADD SLOAD PUSH1 0x40 DUP1 MLOAD PUSH1 0x60 DUP1 DUP3 ADD DUP4 MSTORE PUSH1 0x6 DUP10 ADD SLOAD PUSH2 0xFFFF DUP1 DUP3 AND DUP5 MSTORE PUSH1 0xFF PUSH3 0x10000 DUP1 DUP5 DIV DUP3 AND PUSH1 0x20 DUP1 DUP9 ADD SWAP2 SWAP1 SWAP2 MSTORE PUSH4 0x1000000 SWAP5 DUP6 SWAP1 DIV DUP4 AND DUP8 DUP10 ADD MSTORE DUP8 MLOAD SWAP6 DUP7 ADD DUP9 MSTORE PUSH1 0x7 DUP15 ADD SLOAD SWAP4 DUP5 AND DUP7 MSTORE SWAP1 DUP4 DIV DUP3 AND SWAP1 DUP6 ADD MSTORE SWAP2 SWAP1 DIV DUP2 AND SWAP4 DUP3 ADD SWAP4 SWAP1 SWAP4 MSTORE PUSH1 0x8 DUP10 ADD DUP1 SLOAD SWAP9 SWAP10 SWAP7 SWAP9 SWAP6 SWAP8 POP SWAP3 SWAP1 SWAP4 AND SWAP5 SWAP1 SWAP4 SWAP1 SWAP2 SWAP1 PUSH2 0xD70 SWAP1 PUSH2 0x3762 JUMP JUMPDEST DUP1 PUSH1 0x1F ADD PUSH1 0x20 DUP1 SWAP2 DIV MUL PUSH1 0x20 ADD PUSH1 0x40 MLOAD SWAP1 DUP2 ADD PUSH1 0x40 MSTORE DUP1 SWAP3 SWAP2 SWAP1 DUP2 DUP2 MSTORE PUSH1 0x20 ADD DUP3 DUP1 SLOAD PUSH2 0xD9C SWAP1 PUSH2 0x3762 JUMP JUMPDEST DUP1 ISZERO PUSH2 0xDE7 JUMPI DUP1 PUSH1 0x1F LT PUSH2 0xDBE JUMPI PUSH2 0x100 DUP1 DUP4 SLOAD DIV MUL DUP4 MSTORE SWAP2 PUSH1 0x20 ADD SWAP2 PUSH2 0xDE7 JUMP JUMPDEST DUP3 ADD SWAP2 SWAP1 PUSH0 MSTORE PUSH1 0x20 PUSH0 KECCAK256 SWAP1 JUMPDEST DUP2 SLOAD DUP2 MSTORE SWAP1 PUSH1 0x1 ADD SWAP1 PUSH1 0x20 ADD DUP1 DUP4 GT PUSH2 0xDCA JUMPI DUP3 SWAP1 SUB PUSH1 0x1F AND DUP3 ADD SWAP2 JUMPDEST POP POP POP POP POP SWAP1 POP DUP8 JUMP JUMPDEST PUSH1 0x60 DUP2 PUSH1 0x1 PUSH1 0x1 PUSH1 0x40 SHL SUB DUP2 GT ISZERO PUSH2 0xE0B JUMPI PUSH2 0xE0B PUSH2 0x2BCC JUMP JUMPDEST PUSH1 0x40 MLOAD SWAP1 DUP1 DUP3 MSTORE DUP1 PUSH1 0x20 MUL PUSH1 0x20 ADD DUP3 ADD PUSH1 0x40 MSTORE DUP1 ISZERO PUSH2 0xE3E JUMPI DUP2 PUSH1 0x20 ADD JUMPDEST PUSH1 0x60 DUP2 MSTORE PUSH1 0x20 ADD SWAP1 PUSH1 0x1 SWAP1 SUB SWAP1 DUP2 PUSH2 0xE29 JUMPI SWAP1 POP JUMPDEST POP SWAP1 POP PUSH0 JUMPDEST DUP3 DUP2 LT ISZERO PUSH2 0x90C JUMPI PUSH0 DUP1 ADDRESS DUP7 DUP7 DUP6 DUP2 DUP2 LT PUSH2 0xE60 JUMPI PUSH2 0xE60 PUSH2 0x3726 JUMP JUMPDEST SWAP1 POP PUSH1 0x20 MUL DUP2 ADD SWAP1 PUSH2 0xE72 SWAP2 SWAP1 PUSH2 0x3794 JUMP JUMPDEST PUSH1 0x40 MLOAD PUSH2 0xE80 SWAP3 SWAP2 SWAP1 PUSH2 0x37DD JUMP JUMPDEST PUSH0 PUSH1 0x40 MLOAD DUP1 DUP4 SUB DUP2 DUP6 GAS DELEGATECALL SWAP2 POP POP RETURNDATASIZE DUP1 PUSH0 DUP2 EQ PUSH2 0xEB8 JUMPI PUSH1 0x40 MLOAD SWAP2 POP PUSH1 0x1F NOT PUSH1 0x3F RETURNDATASIZE ADD AND DUP3 ADD PUSH1 0x40 MSTORE RETURNDATASIZE DUP3 MSTORE RETURNDATASIZE PUSH0 PUSH1 0x20 DUP5 ADD RETURNDATACOPY PUSH2 0xEBD JUMP JUMPDEST PUSH1 0x60 SWAP2 POP JUMPDEST POP SWAP2 POP SWAP2 POP DUP2 PUSH2 0xEF3 JUMPI DUP1 MLOAD ISZERO PUSH2 0xED7 JUMPI DUP1 MLOAD DUP1 DUP3 PUSH1 0x20 ADD REVERT JUMPDEST PUSH1 0x40 MLOAD PUSH4 0x234EB819 PUSH1 0xE0 SHL DUP2 MSTORE PUSH1 0x4 DUP2 ADD DUP5 SWAP1 MSTORE PUSH1 0x24 ADD PUSH2 0x21D JUMP JUMPDEST DUP1 DUP5 DUP5 DUP2 MLOAD DUP2 LT PUSH2 0xF06 JUMPI PUSH2 0xF06 PUSH2 0x3726 JUMP JUMPDEST PUSH1 0x20 SWAP1 DUP2 MUL SWAP2 SWAP1 SWAP2 ADD ADD MSTORE POP POP PUSH1 0x1 ADD PUSH2 0xE43 JUMP JUMPDEST PUSH1 0x1 PUSH1 0x1 PUSH1 0xA0 SHL SUB DUP2 AND PUSH0 SWAP1 DUP2 MSTORE PUSH1 0x4 PUSH1 0x20 MSTORE PUSH1 0x40 DUP2 KECCAK256 PUSH2 0x78E SWAP1 PUSH2 0x20D9 JUMP JUMPDEST PUSH2 0xF43 PUSH2 0x20E2 JUMP JUMPDEST PUSH2 0xF4C PUSH0 PUSH2 0x1B7D JUMP JUMPDEST JUMP JUMPDEST DUP5 MLOAD DUP5 MLOAD DUP2 EQ ISZERO DUP1 PUSH2 0xF61 JUMPI POP DUP4 MLOAD DUP2 EQ ISZERO JUMPDEST DUP1 PUSH2 0xF6D JUMPI POP DUP3 MLOAD DUP2 EQ ISZERO JUMPDEST DUP1 PUSH2 0xF79 JUMPI POP DUP2 MLOAD DUP2 EQ ISZERO JUMPDEST ISZERO PUSH2 0xF97 JUMPI PUSH1 0x40 MLOAD PUSH4 0x93A83119 PUSH1 0xE0 SHL DUP2 MSTORE PUSH1 0x4 ADD PUSH1 0x40 MLOAD DUP1 SWAP2 SUB SWAP1 REVERT JUMPDEST PUSH0 JUMPDEST DUP2 DUP2 LT ISZERO PUSH2 0x1033 JUMPI PUSH2 0x102B DUP8 DUP3 DUP2 MLOAD DUP2 LT PUSH2 0xFB6 JUMPI PUSH2 0xFB6 PUSH2 0x3726 JUMP JUMPDEST PUSH1 0x20 MUL PUSH1 0x20 ADD ADD MLOAD DUP8 DUP4 DUP2 MLOAD DUP2 LT PUSH2 0xFD0 JUMPI PUSH2 0xFD0 PUSH2 0x3726 JUMP JUMPDEST PUSH1 0x20 MUL PUSH1 0x20 ADD ADD MLOAD DUP8 DUP5 DUP2 MLOAD DUP2 LT PUSH2 0xFEA JUMPI PUSH2 0xFEA PUSH2 0x3726 JUMP JUMPDEST PUSH1 0x20 MUL PUSH1 0x20 ADD ADD MLOAD DUP8 DUP6 DUP2 MLOAD DUP2 LT PUSH2 0x1004 JUMPI PUSH2 0x1004 PUSH2 0x3726 JUMP JUMPDEST PUSH1 0x20 MUL PUSH1 0x20 ADD ADD MLOAD DUP8 DUP7 DUP2 MLOAD DUP2 LT PUSH2 0x101E JUMPI PUSH2 0x101E PUSH2 0x3726 JUMP JUMPDEST PUSH1 0x20 MUL PUSH1 0x20 ADD ADD MLOAD PUSH2 0xBFC JUMP JUMPDEST PUSH1 0x1 ADD PUSH2 0xF99 JUMP JUMPDEST POP POP POP POP POP POP POP JUMP JUMPDEST DUP1 PUSH0 PUSH2 0x1047 DUP3 PUSH2 0x913 JUMP JUMPDEST SWAP1 POP CALLER PUSH1 0x1 PUSH1 0x1 PUSH1 0xA0 SHL SUB DUP3 AND EQ DUP1 PUSH2 0x1069 JUMPI POP PUSH0 SLOAD PUSH1 0x1 PUSH1 0x1 PUSH1 0xA0 SHL SUB AND CALLER EQ JUMPDEST PUSH2 0x1085 JUMPI PUSH1 0x40 MLOAD PUSH3 0x461BCD PUSH1 0xE5 SHL DUP2 MSTORE PUSH1 0x4 ADD PUSH2 0x21D SWAP1 PUSH2 0x373A JUMP JUMPDEST PUSH0 DUP4 DUP2 MSTORE PUSH1 0x7 PUSH1 0x20 MSTORE PUSH1 0x40 DUP2 KECCAK256 SWAP1 JUMPDEST PUSH1 0x4 DUP3 ADD SLOAD DUP2 LT ISZERO PUSH2 0x1251 JUMPI DUP6 DUP3 PUSH1 0x4 ADD DUP3 DUP2 SLOAD DUP2 LT PUSH2 0x10B6 JUMPI PUSH2 0x10B6 PUSH2 0x3726 JUMP JUMPDEST SWAP1 PUSH0 MSTORE PUSH1 0x20 PUSH0 KECCAK256 SWAP1 PUSH1 0x3 MUL ADD PUSH0 ADD SLOAD SUB PUSH2 0x1249 JUMPI PUSH1 0x4 DUP3 ADD SLOAD PUSH0 SWAP1 PUSH2 0x10DD SWAP1 PUSH1 0x1 SWAP1 PUSH2 0x3800 JUMP JUMPDEST SWAP1 POP DUP1 DUP3 EQ PUSH2 0x11CD JUMPI DUP3 PUSH1 0x4 ADD DUP2 DUP2 SLOAD DUP2 LT PUSH2 0x10FB JUMPI PUSH2 0x10FB PUSH2 0x3726 JUMP JUMPDEST SWAP1 PUSH0 MSTORE PUSH1 0x20 PUSH0 KECCAK256 SWAP1 PUSH1 0x3 MUL ADD DUP4 PUSH1 0x4 ADD DUP4 DUP2 SLOAD DUP2 LT PUSH2 0x111C JUMPI PUSH2 0x111C PUSH2 0x3726 JUMP JUMPDEST PUSH0 SWAP2 DUP3 MSTORE PUSH1 0x20 SWAP1 SWAP2 KECCAK256 DUP3 SLOAD PUSH1 0x3 SWAP1 SWAP3 MUL ADD SWAP1 DUP2 SSTORE PUSH1 0x1 DUP1 DUP4 ADD DUP1 SLOAD SWAP2 DUP4 ADD DUP1 SLOAD PUSH2 0xFFFF SWAP4 DUP5 AND PUSH2 0xFFFF NOT DUP1 DUP4 AND DUP3 OR DUP5 SSTORE DUP5 SLOAD PUSH3 0xFFFFFF NOT SWAP4 DUP5 AND SWAP1 SWAP3 OR PUSH3 0x10000 SWAP3 DUP4 SWAP1 DIV PUSH1 0xFF SWAP1 DUP2 AND DUP5 MUL SWAP2 SWAP1 SWAP2 OR DUP1 DUP7 SSTORE SWAP6 SLOAD PUSH4 0xFF000000 NOT SWAP7 DUP8 AND PUSH4 0x1000000 SWAP2 DUP3 SWAP1 DIV DUP4 AND DUP3 MUL OR SWAP1 SWAP6 SSTORE PUSH1 0x2 SWAP9 DUP10 ADD DUP1 SLOAD SWAP10 SWAP1 SWAP9 ADD DUP1 SLOAD SWAP10 SWAP1 SWAP8 AND SWAP2 DUP10 AND DUP3 OR DUP8 SSTORE DUP8 SLOAD SWAP9 SWAP1 SWAP4 AND OR SWAP7 DUP2 SWAP1 DIV DUP3 AND MUL SWAP6 SWAP1 SWAP6 OR DUP1 DUP5 SSTORE SWAP4 SLOAD SWAP4 SWAP1 SWAP2 AND SWAP3 DUP2 SWAP1 DIV SWAP1 SWAP4 AND SWAP1 SWAP3 MUL OR SWAP1 SSTORE JUMPDEST DUP3 PUSH1 0x4 ADD DUP1 SLOAD DUP1 PUSH2 0x11E0 JUMPI PUSH2 0x11E0 PUSH2 0x3813 JUMP JUMPDEST PUSH0 DUP3 DUP2 MSTORE PUSH1 0x20 DUP2 KECCAK256 PUSH1 0x3 PUSH0 NOT SWAP1 SWAP4 ADD SWAP3 DUP4 MUL ADD DUP2 DUP2 SSTORE PUSH1 0x1 DUP2 ADD DUP1 SLOAD PUSH4 0xFFFFFFFF NOT SWAP1 DUP2 AND SWAP1 SWAP2 SSTORE PUSH1 0x2 SWAP1 SWAP2 ADD DUP1 SLOAD SWAP1 SWAP2 AND SWAP1 SSTORE SWAP2 SSTORE PUSH1 0x40 MLOAD DUP8 SWAP2 DUP10 SWAP2 PUSH32 0xF1387B2F8963CA7947C75FAA29A4C7DE0859D44C5F9A658761ACBDC5D539976B SWAP2 SWAP1 LOG3 POP POP POP PUSH2 0x128D JUMP JUMPDEST PUSH1 0x1 ADD PUSH2 0x1094 JUMP JUMPDEST POP PUSH1 0x40 MLOAD PUSH3 0x461BCD PUSH1 0xE5 SHL DUP2 MSTORE PUSH1 0x20 PUSH1 0x4 DUP3 ADD MSTORE PUSH1 0x10 PUSH1 0x24 DUP3 ADD MSTORE PUSH16 0x14DC1BDD5CD9481B9BDD08199BDD5B99 PUSH1 0x82 SHL PUSH1 0x44 DUP3 ADD MSTORE PUSH1 0x64 ADD PUSH2 0x21D JUMP JUMPDEST POP POP POP POP JUMP JUMPDEST PUSH2 0x129B PUSH2 0x20E2 JUMP JUMPDEST CALLVALUE ISZERO PUSH2 0x12BA JUMPI PUSH1 0x40 MLOAD PUSH4 0xF36BA737 PUSH1 0xE0 SHL DUP2 MSTORE PUSH1 0x4 ADD PUSH1 0x40 MLOAD DUP1 SWAP2 SUB SWAP1 REVERT JUMPDEST PUSH2 0x12C4 DUP3 DUP3 PUSH2 0x213B JUMP JUMPDEST POP POP JUMP JUMPDEST PUSH0 PUSH2 0x12D2 DUP4 PUSH2 0x913 JUMP JUMPDEST SWAP1 POP PUSH1 0x1 PUSH1 0x1 PUSH1 0xA0 SHL SUB DUP2 AND CALLER EQ PUSH2 0x1315 JUMPI PUSH1 0x40 MLOAD PUSH4 0x2D938F51 PUSH1 0xE1 SHL DUP2 MSTORE PUSH1 0x1 PUSH1 0x1 PUSH1 0xA0 SHL SUB DUP3 AND PUSH1 0x4 DUP3 ADD MSTORE PUSH1 0x24 DUP2 ADD DUP5 SWAP1 MSTORE CALLER PUSH1 0x44 DUP3 ADD MSTORE PUSH1 0x64 ADD PUSH2 0x21D JUMP JUMPDEST PUSH1 0x1 PUSH1 0x1 PUSH1 0xA0 SHL SUB DUP5 AND PUSH2 0x133C JUMPI PUSH1 0x40 MLOAD PUSH4 0x9577B8B3 PUSH1 0xE0 SHL DUP2 MSTORE PUSH1 0x4 ADD PUSH1 0x40 MLOAD DUP1 SWAP2 SUB SWAP1 REVERT JUMPDEST DUP4 PUSH1 0x1 PUSH1 0x1 PUSH1 0xA0 SHL SUB AND DUP2 PUSH1 0x1 PUSH1 0x1 PUSH1 0xA0 SHL SUB AND SUB PUSH2 0x136E JUMPI PUSH1 0x40 MLOAD PUSH4 0x44FED6B1 PUSH1 0xE1 SHL DUP2 MSTORE PUSH1 0x4 ADD PUSH1 0x40 MLOAD DUP1 SWAP2 SUB SWAP1 REVERT JUMPDEST PUSH0 DUP4 DUP2 MSTORE PUSH1 0x5 PUSH1 0x20 MSTORE PUSH1 0x40 DUP2 KECCAK256 PUSH2 0x1385 SWAP1 DUP7 PUSH2 0x2185 JUMP JUMPDEST SWAP1 POP DUP1 PUSH2 0x13B7 JUMPI PUSH1 0x40 MLOAD PUSH4 0x14EC4D6D PUSH1 0xE3 SHL DUP2 MSTORE PUSH1 0x1 PUSH1 0x1 PUSH1 0xA0 SHL SUB DUP7 AND PUSH1 0x4 DUP3 ADD MSTORE PUSH1 0x24 DUP2 ADD DUP6 SWAP1 MSTORE PUSH1 0x44 ADD PUSH2 0x21D JUMP JUMPDEST DUP4 DUP3 PUSH1 0x1 PUSH1 0x1 PUSH1 0xA0 SHL SUB AND DUP7 PUSH1 0x1 PUSH1 0x1 PUSH1 0xA0 SHL SUB AND PUSH32 0x1B1B58AA2EC0CEC2228B2D37124556D41F5A1F7B12F089171F896CC236671215 DUP7 PUSH1 0x40 MLOAD PUSH2 0x13FB SWAP2 SWAP1 PUSH2 0x2BBA JUMP JUMPDEST PUSH1 0x40 MLOAD DUP1 SWAP2 SUB SWAP1 LOG4 PUSH0 CALLER DUP6 PUSH1 0x1 DUP7 PUSH1 0x40 MLOAD PUSH1 0x20 ADD PUSH2 0x141C SWAP5 SWAP4 SWAP3 SWAP2 SWAP1 PUSH2 0x3827 JUMP JUMPDEST PUSH1 0x40 MLOAD PUSH1 0x20 DUP2 DUP4 SUB SUB DUP2 MSTORE SWAP1 PUSH1 0x40 MSTORE SWAP1 POP PUSH2 0x1437 DUP7 DUP3 PUSH2 0x2199 JUMP JUMPDEST POP POP POP POP POP POP JUMP JUMPDEST DUP2 PUSH0 PUSH2 0x144A DUP3 PUSH2 0x913 JUMP JUMPDEST SWAP1 POP CALLER PUSH1 0x1 PUSH1 0x1 PUSH1 0xA0 SHL SUB DUP3 AND EQ DUP1 PUSH2 0x146C JUMPI POP PUSH0 SLOAD PUSH1 0x1 PUSH1 0x1 PUSH1 0xA0 SHL SUB AND CALLER EQ JUMPDEST PUSH2 0x1488 JUMPI PUSH1 0x40 MLOAD PUSH3 0x461BCD PUSH1 0xE5 SHL DUP2 MSTORE PUSH1 0x4 ADD PUSH2 0x21D SWAP1 PUSH2 0x373A JUMP JUMPDEST PUSH0 DUP5 DUP2 MSTORE PUSH1 0x7 PUSH1 0x20 MSTORE PUSH1 0x40 DUP1 DUP3 KECCAK256 DUP6 DUP4 MSTORE SWAP2 KECCAK256 PUSH1 0x1 DUP2 ADD SLOAD DUP7 EQ PUSH2 0x14EE JUMPI PUSH1 0x40 MLOAD PUSH3 0x461BCD PUSH1 0xE5 SHL DUP2 MSTORE PUSH1 0x20 PUSH1 0x4 DUP3 ADD MSTORE PUSH1 0x18 PUSH1 0x24 DUP3 ADD MSTORE PUSH32 0x4E6F74206368696C64206F66207468697320706572736F6E0000000000000000 PUSH1 0x44 DUP3 ADD MSTORE PUSH1 0x64 ADD PUSH2 0x21D JUMP JUMPDEST PUSH0 JUMPDEST PUSH1 0x3 DUP4 ADD SLOAD DUP2 LT ISZERO PUSH2 0x163B JUMPI DUP6 DUP4 PUSH1 0x3 ADD DUP3 DUP2 SLOAD DUP2 LT PUSH2 0x1512 JUMPI PUSH2 0x1512 PUSH2 0x3726 JUMP JUMPDEST SWAP1 PUSH0 MSTORE PUSH1 0x20 PUSH0 KECCAK256 SWAP1 PUSH1 0x2 MUL ADD PUSH1 0x1 ADD SLOAD SUB PUSH2 0x1633 JUMPI PUSH1 0x3 DUP4 ADD SLOAD PUSH0 SWAP1 PUSH2 0x153A SWAP1 PUSH1 0x1 SWAP1 PUSH2 0x3800 JUMP JUMPDEST SWAP1 POP DUP1 DUP3 EQ PUSH2 0x15C0 JUMPI DUP4 PUSH1 0x3 ADD DUP2 DUP2 SLOAD DUP2 LT PUSH2 0x1558 JUMPI PUSH2 0x1558 PUSH2 0x3726 JUMP JUMPDEST SWAP1 PUSH0 MSTORE PUSH1 0x20 PUSH0 KECCAK256 SWAP1 PUSH1 0x2 MUL ADD DUP5 PUSH1 0x3 ADD DUP4 DUP2 SLOAD DUP2 LT PUSH2 0x1579 JUMPI PUSH2 0x1579 PUSH2 0x3726 JUMP JUMPDEST PUSH0 SWAP2 DUP3 MSTORE PUSH1 0x20 SWAP1 SWAP2 KECCAK256 DUP3 SLOAD PUSH1 0x2 SWAP3 DUP4 MUL SWAP1 SWAP2 ADD DUP1 SLOAD SWAP1 SWAP3 PUSH1 0xFF SWAP1 SWAP3 AND SWAP2 DUP4 SWAP2 PUSH1 0xFF NOT AND SWAP1 PUSH1 0x1 SWAP1 DUP5 SWAP1 DUP2 GT ISZERO PUSH2 0x15B1 JUMPI PUSH2 0x15B1 PUSH2 0x310F JUMP JUMPDEST MUL OR SWAP1 SSTORE POP PUSH1 0x1 SWAP2 DUP3 ADD SLOAD SWAP2 ADD SSTORE JUMPDEST DUP4 PUSH1 0x3 ADD DUP1 SLOAD DUP1 PUSH2 0x15D3 JUMPI PUSH2 0x15D3 PUSH2 0x3813 JUMP JUMPDEST PUSH0 DUP3 DUP2 MSTORE PUSH1 0x20 DUP2 KECCAK256 PUSH1 0x2 PUSH0 NOT SWAP1 SWAP4 ADD SWAP3 DUP4 MUL ADD DUP1 SLOAD PUSH1 0xFF NOT AND DUP2 SSTORE PUSH1 0x1 SWAP1 DUP2 ADD DUP3 SWAP1 SSTORE SWAP2 SWAP1 SWAP3 SSTORE DUP5 ADD DUP2 SWAP1 SSTORE PUSH1 0x40 MLOAD DUP10 SWAP2 DUP10 SWAP2 PUSH32 0xD22EF99C12AEAECAC27F6067207B23AC6A9AE5F21E97134B39E98320AA04FA5D SWAP2 SWAP1 LOG3 POP POP POP POP PUSH2 0x128D JUMP JUMPDEST PUSH1 0x1 ADD PUSH2 0x14F0 JUMP JUMPDEST POP PUSH1 0x40 MLOAD PUSH3 0x461BCD PUSH1 0xE5 SHL DUP2 MSTORE PUSH1 0x20 PUSH1 0x4 DUP3 ADD MSTORE PUSH1 0xF PUSH1 0x24 DUP3 ADD MSTORE PUSH15 0x10DA1A5B19081B9BDD08199BDD5B99 PUSH1 0x8A SHL PUSH1 0x44 DUP3 ADD MSTORE PUSH1 0x64 ADD PUSH2 0x21D JUMP JUMPDEST PUSH2 0x167E PUSH2 0x20E2 JUMP JUMPDEST CALLVALUE ISZERO PUSH2 0x169D JUMPI PUSH1 0x40 MLOAD PUSH4 0xF36BA737 PUSH1 0xE0 SHL DUP2 MSTORE PUSH1 0x4 ADD PUSH1 0x40 MLOAD DUP1 SWAP2 SUB SWAP1 REVERT JUMPDEST PUSH2 0x12C4 DUP3 DUP3 PUSH2 0x21C4 JUMP JUMPDEST PUSH1 0x1 PUSH1 0x1 PUSH1 0xA0 SHL SUB DUP2 AND PUSH0 SWAP1 DUP2 MSTORE PUSH1 0x4 PUSH1 0x20 MSTORE PUSH1 0x40 SWAP1 KECCAK256 PUSH1 0x60 SWAP1 PUSH2 0x78E SWAP1 PUSH2 0x1E52 JUMP JUMPDEST PUSH2 0x16D2 PUSH2 0x20E2 JUMP JUMPDEST DUP2 MLOAD DUP4 MLOAD EQ ISZERO DUP1 PUSH2 0x16E5 JUMPI POP DUP1 MLOAD DUP3 MLOAD EQ ISZERO JUMPDEST ISZERO PUSH2 0x1703 JUMPI PUSH1 0x40 MLOAD PUSH4 0x17D38EFF PUSH1 0xE1 SHL DUP2 MSTORE PUSH1 0x4 ADD PUSH1 0x40 MLOAD DUP1 SWAP2 SUB SWAP1 REVERT JUMPDEST DUP3 MLOAD PUSH0 SUB PUSH2 0x1724 JUMPI PUSH1 0x40 MLOAD PUSH4 0x80C98305 PUSH1 0xE0 SHL DUP2 MSTORE PUSH1 0x4 ADD PUSH1 0x40 MLOAD DUP1 SWAP2 SUB SWAP1 REVERT JUMPDEST PUSH0 JUMPDEST DUP4 MLOAD DUP2 LT ISZERO PUSH2 0x128D JUMPI PUSH2 0x1785 DUP5 DUP3 DUP2 MLOAD DUP2 LT PUSH2 0x1744 JUMPI PUSH2 0x1744 PUSH2 0x3726 JUMP JUMPDEST PUSH1 0x20 MUL PUSH1 0x20 ADD ADD MLOAD DUP5 DUP4 DUP2 MLOAD DUP2 LT PUSH2 0x175E JUMPI PUSH2 0x175E PUSH2 0x3726 JUMP JUMPDEST PUSH1 0x20 MUL PUSH1 0x20 ADD ADD MLOAD DUP5 DUP5 DUP2 MLOAD DUP2 LT PUSH2 0x1778 JUMPI PUSH2 0x1778 PUSH2 0x3726 JUMP JUMPDEST PUSH1 0x20 MUL PUSH1 0x20 ADD ADD MLOAD PUSH2 0x225B JUMP JUMPDEST PUSH1 0x1 ADD PUSH2 0x1726 JUMP JUMPDEST DUP3 PUSH0 PUSH2 0x1798 DUP3 PUSH2 0x913 JUMP JUMPDEST SWAP1 POP CALLER PUSH1 0x1 PUSH1 0x1 PUSH1 0xA0 SHL SUB DUP3 AND EQ DUP1 PUSH2 0x17BA JUMPI POP PUSH0 SLOAD PUSH1 0x1 PUSH1 0x1 PUSH1 0xA0 SHL SUB AND CALLER EQ JUMPDEST PUSH2 0x17D6 JUMPI PUSH1 0x40 MLOAD PUSH3 0x461BCD PUSH1 0xE5 SHL DUP2 MSTORE PUSH1 0x4 ADD PUSH2 0x21D SWAP1 PUSH2 0x373A JUMP JUMPDEST PUSH2 0xC39 DUP6 DUP6 DUP6 PUSH2 0x225B JUMP JUMPDEST PUSH0 PUSH2 0x17EB DUP5 PUSH2 0x913 JUMP JUMPDEST SWAP1 POP CALLER PUSH1 0x1 PUSH1 0x1 PUSH1 0xA0 SHL SUB DUP3 AND EQ PUSH2 0x183E JUMPI PUSH1 0x1 PUSH1 0x1 PUSH1 0xA0 SHL SUB DUP6 AND CALLER EQ PUSH2 0x183E JUMPI PUSH1 0x40 MLOAD PUSH4 0x760B5ACD PUSH1 0xE0 SHL DUP2 MSTORE CALLER PUSH1 0x4 DUP3 ADD MSTORE PUSH1 0x1 PUSH1 0x1 PUSH1 0xA0 SHL SUB DUP3 AND PUSH1 0x24 DUP3 ADD MSTORE PUSH1 0x44 DUP2 ADD DUP6 SWAP1 MSTORE PUSH1 0x64 ADD PUSH2 0x21D JUMP JUMPDEST PUSH1 0x1 PUSH1 0x1 PUSH1 0xA0 SHL SUB DUP6 AND PUSH2 0x1865 JUMPI PUSH1 0x40 MLOAD PUSH4 0x9577B8B3 PUSH1 0xE0 SHL DUP2 MSTORE PUSH1 0x4 ADD PUSH1 0x40 MLOAD DUP1 SWAP2 SUB SWAP1 REVERT JUMPDEST DUP5 PUSH1 0x1 PUSH1 0x1 PUSH1 0xA0 SHL SUB AND DUP2 PUSH1 0x1 PUSH1 0x1 PUSH1 0xA0 SHL SUB AND SUB PUSH2 0x1897 JUMPI PUSH1 0x40 MLOAD PUSH4 0x44FED6B1 PUSH1 0xE1 SHL DUP2 MSTORE PUSH1 0x4 ADD PUSH1 0x40 MLOAD DUP1 SWAP2 SUB SWAP1 REVERT JUMPDEST PUSH2 0x18A4 DUP6 DUP3 DUP7 DUP7 DUP7 PUSH2 0x22E9 JUMP JUMPDEST DUP3 ISZERO PUSH2 0xC39 JUMPI PUSH0 DUP2 DUP6 PUSH0 DUP6 PUSH1 0x40 MLOAD PUSH1 0x20 ADD PUSH2 0x141C SWAP5 SWAP4 SWAP3 SWAP2 SWAP1 PUSH2 0x3827 JUMP JUMPDEST PUSH1 0x60 DUP2 MLOAD PUSH1 0x1 PUSH1 0x1 PUSH1 0x40 SHL SUB DUP2 GT ISZERO PUSH2 0x18DD JUMPI PUSH2 0x18DD PUSH2 0x2BCC JUMP JUMPDEST PUSH1 0x40 MLOAD SWAP1 DUP1 DUP3 MSTORE DUP1 PUSH1 0x20 MUL PUSH1 0x20 ADD DUP3 ADD PUSH1 0x40 MSTORE DUP1 ISZERO PUSH2 0x1910 JUMPI DUP2 PUSH1 0x20 ADD JUMPDEST PUSH1 0x60 DUP2 MSTORE PUSH1 0x20 ADD SWAP1 PUSH1 0x1 SWAP1 SUB SWAP1 DUP2 PUSH2 0x18FB JUMPI SWAP1 POP JUMPDEST POP SWAP1 POP PUSH0 JUMPDEST DUP3 MLOAD DUP2 LT ISZERO PUSH2 0x1965 JUMPI PUSH2 0x1940 DUP4 DUP3 DUP2 MLOAD DUP2 LT PUSH2 0x1933 JUMPI PUSH2 0x1933 PUSH2 0x3726 JUMP JUMPDEST PUSH1 0x20 MUL PUSH1 0x20 ADD ADD MLOAD PUSH2 0x203A JUMP JUMPDEST DUP3 DUP3 DUP2 MLOAD DUP2 LT PUSH2 0x1952 JUMPI PUSH2 0x1952 PUSH2 0x3726 JUMP JUMPDEST PUSH1 0x20 SWAP1 DUP2 MUL SWAP2 SWAP1 SWAP2 ADD ADD MSTORE PUSH1 0x1 ADD PUSH2 0x1915 JUMP JUMPDEST POP SWAP2 SWAP1 POP JUMP JUMPDEST DUP2 PUSH0 PUSH2 0x1976 DUP3 PUSH2 0x913 JUMP JUMPDEST SWAP1 POP CALLER PUSH1 0x1 PUSH1 0x1 PUSH1 0xA0 SHL SUB DUP3 AND EQ DUP1 PUSH2 0x1998 JUMPI POP PUSH0 SLOAD PUSH1 0x1 PUSH1 0x1 PUSH1 0xA0 SHL SUB AND CALLER EQ JUMPDEST PUSH2 0x19B4 JUMPI PUSH1 0x40 MLOAD PUSH3 0x461BCD PUSH1 0xE5 SHL DUP2 MSTORE PUSH1 0x4 ADD PUSH2 0x21D SWAP1 PUSH2 0x373A JUMP JUMPDEST PUSH0 DUP5 DUP2 MSTORE PUSH1 0x7 PUSH1 0x20 DUP2 DUP2 MSTORE PUSH1 0x40 DUP1 DUP5 KECCAK256 DUP8 MLOAD SWAP4 DUP2 ADD DUP1 SLOAD SWAP4 DUP10 ADD MLOAD DUP10 DUP5 ADD MLOAD PUSH2 0xFFFF SWAP1 SWAP7 AND PUSH3 0xFFFFFF NOT SWAP1 SWAP6 AND SWAP5 SWAP1 SWAP5 OR PUSH3 0x10000 PUSH1 0xFF SWAP6 DUP7 AND MUL OR PUSH4 0xFF000000 NOT AND PUSH4 0x1000000 SWAP5 SWAP1 SWAP6 AND SWAP4 SWAP1 SWAP4 MUL SWAP4 SWAP1 SWAP4 OR SWAP1 SWAP2 SSTORE MLOAD SWAP1 SWAP2 DUP7 SWAP2 PUSH32 0xAD34EEDBBE447A1468A6771178D1113C13B7C37767219802A018F1312261A087 SWAP2 SWAP1 LOG2 POP POP POP POP POP JUMP JUMPDEST PUSH2 0x1A43 PUSH2 0x20E2 JUMP JUMPDEST PUSH1 0x1 PUSH1 0x1 PUSH1 0xA0 SHL SUB DUP2 AND PUSH2 0x80E JUMPI PUSH1 0x40 MLOAD PUSH3 0x461BCD PUSH1 0xE5 SHL DUP2 MSTORE PUSH1 0x20 PUSH1 0x4 DUP3 ADD MSTORE PUSH1 0x26 PUSH1 0x24 DUP3 ADD MSTORE PUSH32 0x4F776E61626C653A206E6577206F776E657220697320746865207A65726F2061 PUSH1 0x44 DUP3 ADD MSTORE PUSH6 0x646472657373 PUSH1 0xD0 SHL PUSH1 0x64 DUP3 ADD MSTORE PUSH1 0x84 ADD PUSH2 0x21D JUMP JUMPDEST PUSH0 DUP1 DUP1 PUSH2 0x1ACC PUSH10 0x6773C5A04A6D4300884B PUSH1 0xB1 SHL PUSH1 0x1 PUSH1 0x1 PUSH1 0xE0 SHL SUB NOT DUP7 AND PUSH2 0x2388 JUMP JUMPDEST SWAP1 POP PUSH0 PUSH2 0x1AD8 DUP3 PUSH2 0x203A JUMP JUMPDEST SWAP1 POP DUP1 MLOAD PUSH1 0x14 EQ ISZERO DUP1 ISZERO PUSH2 0x1AEC JUMPI POP DUP1 MLOAD ISZERO ISZERO JUMPDEST ISZERO PUSH2 0x1B0C JUMPI DUP1 PUSH1 0x40 MLOAD PUSH4 0x42BFE79F PUSH1 0xE0 SHL DUP2 MSTORE PUSH1 0x4 ADD PUSH2 0x21D SWAP2 SWAP1 PUSH2 0x2BBA JUMP JUMPDEST PUSH2 0x1B15 DUP2 PUSH2 0x385F JUMP JUMPDEST PUSH1 0x60 SHR SWAP6 PUSH1 0x1 SWAP6 POP SWAP4 POP POP POP POP JUMP JUMPDEST PUSH0 PUSH1 0x1 PUSH1 0x1 PUSH1 0xE0 SHL SUB NOT DUP3 AND PUSH4 0xA918FA6B PUSH1 0xE0 SHL EQ DUP1 PUSH2 0x78E JUMPI POP PUSH2 0x78E DUP3 PUSH2 0x23DB JUMP JUMPDEST PUSH0 DUP1 PUSH2 0x1B5A PUSH4 0x1FFC9A7 PUSH1 0xE0 SHL PUSH2 0x1AA8 JUMP JUMPDEST POP SWAP1 POP PUSH1 0x1 PUSH1 0x1 PUSH1 0xA0 SHL SUB DUP2 AND PUSH2 0x1B73 JUMPI POP PUSH0 SWAP3 SWAP2 POP POP JUMP JUMPDEST PUSH2 0x826 DUP2 DUP5 PUSH2 0x240F JUMP JUMPDEST PUSH0 DUP1 SLOAD PUSH1 0x1 PUSH1 0x1 PUSH1 0xA0 SHL SUB DUP4 DUP2 AND PUSH1 0x1 PUSH1 0x1 PUSH1 0xA0 SHL SUB NOT DUP4 AND DUP2 OR DUP5 SSTORE PUSH1 0x40 MLOAD SWAP2 SWAP1 SWAP3 AND SWAP3 DUP4 SWAP2 PUSH32 0x8BE0079C531659141344CD1FD0A4F28419497F9722A3DAAFE3B4186F6B6457E0 SWAP2 SWAP1 LOG3 POP POP JUMP JUMPDEST PUSH1 0x60 PUSH1 0x1 PUSH0 DUP5 DUP5 PUSH1 0x40 MLOAD PUSH1 0x20 ADD PUSH2 0x1BED SWAP3 SWAP2 SWAP1 SWAP2 DUP3 MSTORE PUSH1 0x20 DUP3 ADD MSTORE PUSH1 0x40 ADD SWAP1 JUMP JUMPDEST PUSH1 0x40 MLOAD PUSH1 0x20 DUP2 DUP4 SUB SUB DUP2 MSTORE SWAP1 PUSH1 0x40 MSTORE DUP1 MLOAD SWAP1 PUSH1 0x20 ADD KECCAK256 DUP2 MSTORE PUSH1 0x20 ADD SWAP1 DUP2 MSTORE PUSH1 0x20 ADD PUSH0 KECCAK256 DUP1 SLOAD PUSH2 0x1C1B SWAP1 PUSH2 0x3762 JUMP JUMPDEST DUP1 PUSH1 0x1F ADD PUSH1 0x20 DUP1 SWAP2 DIV MUL PUSH1 0x20 ADD PUSH1 0x40 MLOAD SWAP1 DUP2 ADD PUSH1 0x40 MSTORE DUP1 SWAP3 SWAP2 SWAP1 DUP2 DUP2 MSTORE PUSH1 0x20 ADD DUP3 DUP1 SLOAD PUSH2 0x1C47 SWAP1 PUSH2 0x3762 JUMP JUMPDEST DUP1 ISZERO PUSH2 0x1C92 JUMPI DUP1 PUSH1 0x1F LT PUSH2 0x1C69 JUMPI PUSH2 0x100 DUP1 DUP4 SLOAD DIV MUL DUP4 MSTORE SWAP2 PUSH1 0x20 ADD SWAP2 PUSH2 0x1C92 JUMP JUMPDEST DUP3 ADD SWAP2 SWAP1 PUSH0 MSTORE PUSH1 0x20 PUSH0 KECCAK256 SWAP1 JUMPDEST DUP2 SLOAD DUP2 MSTORE SWAP1 PUSH1 0x1 ADD SWAP1 PUSH1 0x20 ADD DUP1 DUP4 GT PUSH2 0x1C75 JUMPI DUP3 SWAP1 SUB PUSH1 0x1F AND DUP3 ADD SWAP2 JUMPDEST POP POP POP POP POP SWAP1 POP SWAP3 SWAP2 POP POP JUMP JUMPDEST PUSH0 PUSH2 0x1CAE PUSH1 0x6 DUP1 SLOAD PUSH1 0x1 ADD SWAP1 SSTORE JUMP JUMPDEST PUSH1 0x6 SLOAD PUSH0 SHL SWAP1 POP PUSH2 0x1CD0 DUP6 DUP3 PUSH1 0x1 PUSH1 0x40 MLOAD DUP1 PUSH1 0x20 ADD PUSH1 0x40 MSTORE DUP1 PUSH0 DUP2 MSTORE POP PUSH2 0x2495 JUMP JUMPDEST PUSH0 DUP2 DUP2 MSTORE PUSH1 0x7 PUSH1 0x20 MSTORE PUSH1 0x40 SWAP1 KECCAK256 DUP1 PUSH2 0x1CE8 DUP10 DUP3 PUSH2 0x38F1 JUMP JUMPDEST POP DUP4 MLOAD PUSH1 0x6 DUP3 ADD DUP1 SLOAD PUSH1 0x20 DUP1 DUP9 ADD MLOAD PUSH1 0x40 DUP1 DUP11 ADD MLOAD PUSH2 0xFFFF SWAP7 DUP8 AND PUSH3 0xFFFFFF NOT SWAP6 DUP7 AND OR PUSH3 0x10000 PUSH1 0xFF SWAP5 DUP6 AND DUP2 MUL SWAP2 SWAP1 SWAP2 OR PUSH4 0xFF000000 NOT SWAP1 DUP2 AND PUSH4 0x1000000 SWAP4 DUP7 AND DUP5 MUL OR SWAP1 SWAP8 SSTORE DUP11 MLOAD PUSH1 0x7 DUP11 ADD DUP1 SLOAD SWAP7 DUP14 ADD MLOAD SWAP5 DUP14 ADD MLOAD SWAP2 SWAP1 SWAP10 AND SWAP6 SWAP1 SWAP7 AND SWAP5 SWAP1 SWAP5 OR SWAP2 DUP4 AND SWAP1 SWAP4 MUL OR SWAP1 SWAP4 AND SWAP2 SWAP1 SWAP3 AND SWAP1 SWAP2 MUL OR SWAP1 SSTORE PUSH1 0x5 DUP2 ADD DUP1 SLOAD DUP7 SWAP2 SWAP1 PUSH1 0xFF NOT AND PUSH1 0x1 DUP4 PUSH1 0x2 DUP2 GT ISZERO PUSH2 0x1D83 JUMPI PUSH2 0x1D83 PUSH2 0x310F JUMP JUMPDEST MUL OR SWAP1 SSTORE POP PUSH1 0x8 DUP2 ADD PUSH2 0x1D96 DUP9 DUP3 PUSH2 0x38F1 JUMP JUMPDEST POP PUSH1 0x40 MLOAD PUSH1 0x1 PUSH1 0x1 PUSH1 0xA0 SHL SUB DUP8 AND DUP2 MSTORE DUP3 SWAP1 PUSH32 0xA6912C28A8CB5FC5CAB504E471CFA6BC504444025484D810E2565BC7DEAD6657 SWAP1 PUSH1 0x20 ADD PUSH1 0x40 MLOAD DUP1 SWAP2 SUB SWAP1 LOG2 POP SWAP7 SWAP6 POP POP POP POP POP POP JUMP JUMPDEST PUSH0 PUSH2 0x1DEA DUP3 PUSH2 0x913 JUMP JUMPDEST PUSH1 0x1 PUSH1 0x1 PUSH1 0xA0 SHL SUB AND DUP4 PUSH1 0x1 PUSH1 0x1 PUSH1 0xA0 SHL SUB AND EQ DUP1 PUSH2 0x826 JUMPI POP PUSH0 DUP3 DUP2 MSTORE PUSH1 0x5 PUSH1 0x20 MSTORE PUSH1 0x40 SWAP1 KECCAK256 PUSH2 0x826 SWAP1 DUP5 PUSH2 0x25FE JUMP JUMPDEST PUSH0 DUP2 DUP2 MSTORE PUSH1 0x3 PUSH1 0x20 MSTORE PUSH1 0x40 SWAP1 KECCAK256 SLOAD PUSH1 0x1 PUSH1 0x1 PUSH1 0xA0 SHL SUB AND PUSH2 0x817 JUMPI PUSH1 0x40 MLOAD PUSH4 0x5747CD1B PUSH1 0xE1 SHL DUP2 MSTORE PUSH1 0x4 DUP2 ADD DUP3 SWAP1 MSTORE PUSH1 0x24 ADD PUSH2 0x21D JUMP JUMPDEST PUSH1 0x60 PUSH0 PUSH2 0x826 DUP4 PUSH2 0x261F JUMP JUMPDEST PUSH0 PUSH2 0x1E68 DUP5 PUSH2 0x913 JUMP JUMPDEST SWAP1 POP DUP6 PUSH1 0x1 PUSH1 0x1 PUSH1 0xA0 SHL SUB AND DUP2 PUSH1 0x1 PUSH1 0x1 PUSH1 0xA0 SHL SUB AND EQ PUSH2 0x1EB6 JUMPI PUSH1 0x40 MLOAD PUSH4 0x2D938F51 PUSH1 0xE1 SHL DUP2 MSTORE PUSH1 0x1 PUSH1 0x1 PUSH1 0xA0 SHL SUB DUP1 DUP4 AND PUSH1 0x4 DUP4 ADD MSTORE PUSH1 0x24 DUP3 ADD DUP7 SWAP1 MSTORE DUP8 AND PUSH1 0x44 DUP3 ADD MSTORE PUSH1 0x64 ADD PUSH2 0x21D JUMP JUMPDEST PUSH1 0x1 PUSH1 0x1 PUSH1 0xA0 SHL SUB DUP6 AND PUSH2 0x1EDD JUMPI PUSH1 0x40 MLOAD PUSH4 0x24ECEF4D PUSH1 0xE0 SHL DUP2 MSTORE PUSH1 0x4 ADD PUSH1 0x40 MLOAD DUP1 SWAP2 SUB SWAP1 REVERT JUMPDEST PUSH0 PUSH2 0x1EE7 DUP6 PUSH2 0x913 JUMP JUMPDEST SWAP1 POP DUP1 PUSH1 0x1 PUSH1 0x1 PUSH1 0xA0 SHL SUB AND DUP3 PUSH1 0x1 PUSH1 0x1 PUSH1 0xA0 SHL SUB AND EQ PUSH2 0x1F35 JUMPI PUSH1 0x40 MLOAD PUSH4 0x5A9C31D3 PUSH1 0xE0 SHL DUP2 MSTORE PUSH1 0x4 DUP2 ADD DUP7 SWAP1 MSTORE PUSH1 0x1 PUSH1 0x1 PUSH1 0xA0 SHL SUB DUP1 DUP5 AND PUSH1 0x24 DUP4 ADD MSTORE DUP3 AND PUSH1 0x44 DUP3 ADD MSTORE PUSH1 0x64 ADD PUSH2 0x21D JUMP JUMPDEST PUSH2 0x1F3F DUP8 DUP7 PUSH2 0x2677 JUMP JUMPDEST PUSH1 0x1 PUSH1 0x1 PUSH1 0xA0 SHL SUB DUP8 AND PUSH0 SWAP1 DUP2 MSTORE PUSH1 0x4 PUSH1 0x20 MSTORE PUSH1 0x40 SWAP1 KECCAK256 PUSH2 0x1F60 SWAP1 DUP7 PUSH2 0x26CA JUMP JUMPDEST POP PUSH1 0x1 PUSH1 0x1 PUSH1 0xA0 SHL SUB DUP7 AND PUSH0 SWAP1 DUP2 MSTORE PUSH1 0x4 PUSH1 0x20 MSTORE PUSH1 0x40 SWAP1 KECCAK256 PUSH2 0x1F82 SWAP1 DUP7 PUSH2 0x26D5 JUMP JUMPDEST POP PUSH0 DUP6 DUP2 MSTORE PUSH1 0x3 PUSH1 0x20 MSTORE PUSH1 0x40 SWAP1 DUP2 SWAP1 KECCAK256 DUP1 SLOAD PUSH1 0x1 PUSH1 0x1 PUSH1 0xA0 SHL SUB NOT AND PUSH1 0x1 PUSH1 0x1 PUSH1 0xA0 SHL SUB DUP10 DUP2 AND SWAP2 DUP3 OR SWAP1 SWAP3 SSTORE SWAP2 MLOAD DUP8 SWAP3 SWAP2 DUP11 AND SWAP1 PUSH32 0xB333C813A7426A7A11E2B190CAD52C44119421594B47F6F32ACE6D8C7207B2BF SWAP1 PUSH2 0x1FE8 SWAP1 CALLER SWAP1 DUP11 SWAP1 DUP11 SWAP1 PUSH2 0x39AB JUMP JUMPDEST PUSH1 0x40 MLOAD DUP1 SWAP2 SUB SWAP1 LOG4 PUSH0 CALLER DUP9 DUP9 DUP9 DUP8 PUSH1 0x40 MLOAD PUSH1 0x20 ADD PUSH2 0x200A SWAP6 SWAP5 SWAP4 SWAP3 SWAP2 SWAP1 PUSH2 0x39DF JUMP JUMPDEST PUSH1 0x40 MLOAD PUSH1 0x20 DUP2 DUP4 SUB SUB DUP2 MSTORE SWAP1 PUSH1 0x40 MSTORE SWAP1 POP PUSH2 0x2025 DUP9 DUP3 PUSH2 0x26E0 JUMP JUMPDEST PUSH2 0x2030 DUP8 DUP7 DUP4 PUSH2 0x270B JUMP JUMPDEST POP POP POP POP POP POP POP POP JUMP JUMPDEST PUSH0 DUP2 DUP2 MSTORE PUSH1 0x1 PUSH1 0x20 MSTORE PUSH1 0x40 SWAP1 KECCAK256 DUP1 SLOAD PUSH1 0x60 SWAP2 SWAP1 PUSH2 0x2056 SWAP1 PUSH2 0x3762 JUMP JUMPDEST DUP1 PUSH1 0x1F ADD PUSH1 0x20 DUP1 SWAP2 DIV MUL PUSH1 0x20 ADD PUSH1 0x40 MLOAD SWAP1 DUP2 ADD PUSH1 0x40 MSTORE DUP1 SWAP3 SWAP2 SWAP1 DUP2 DUP2 MSTORE PUSH1 0x20 ADD DUP3 DUP1 SLOAD PUSH2 0x2082 SWAP1 PUSH2 0x3762 JUMP JUMPDEST DUP1 ISZERO PUSH2 0x20CD JUMPI DUP1 PUSH1 0x1F LT PUSH2 0x20A4 JUMPI PUSH2 0x100 DUP1 DUP4 SLOAD DIV MUL DUP4 MSTORE SWAP2 PUSH1 0x20 ADD SWAP2 PUSH2 0x20CD JUMP JUMPDEST DUP3 ADD SWAP2 SWAP1 PUSH0 MSTORE PUSH1 0x20 PUSH0 KECCAK256 SWAP1 JUMPDEST DUP2 SLOAD DUP2 MSTORE SWAP1 PUSH1 0x1 ADD SWAP1 PUSH1 0x20 ADD DUP1 DUP4 GT PUSH2 0x20B0 JUMPI DUP3 SWAP1 SUB PUSH1 0x1F AND DUP3 ADD SWAP2 JUMPDEST POP POP POP POP POP SWAP1 POP SWAP2 SWAP1 POP JUMP JUMPDEST PUSH0 PUSH2 0x78E DUP3 SLOAD SWAP1 JUMP JUMPDEST PUSH0 SLOAD PUSH1 0x1 PUSH1 0x1 PUSH1 0xA0 SHL SUB AND CALLER EQ PUSH2 0xF4C JUMPI PUSH1 0x40 MLOAD PUSH3 0x461BCD PUSH1 0xE5 SHL DUP2 MSTORE PUSH1 0x20 PUSH1 0x4 DUP3 ADD DUP2 SWAP1 MSTORE PUSH1 0x24 DUP3 ADD MSTORE PUSH32 0x4F776E61626C653A2063616C6C6572206973206E6F7420746865206F776E6572 PUSH1 0x44 DUP3 ADD MSTORE PUSH1 0x64 ADD PUSH2 0x21D JUMP JUMPDEST PUSH32 0x98A16C9E50E3E99B3E797305C146898D294E5AEC55A47E213CB3611CCF17E73 DUP3 ADD PUSH2 0x217B JUMPI PUSH1 0x40 MLOAD PUSH4 0x1B324005 PUSH1 0xE1 SHL DUP2 MSTORE PUSH1 0x4 ADD PUSH1 0x40 MLOAD DUP1 SWAP2 SUB SWAP1 REVERT JUMPDEST PUSH2 0x12C4 DUP3 DUP3 PUSH2 0x280E JUMP JUMPDEST PUSH0 PUSH2 0x826 DUP4 PUSH1 0x1 PUSH1 0x1 PUSH1 0xA0 SHL SUB DUP5 AND PUSH2 0x2922 JUMP JUMPDEST PUSH2 0x12C4 DUP3 PUSH32 0x8A1C15A8799F71B547E08E2BCB2E85257E81B0A07EEE2CE6712549EEF1F00970 DUP4 PUSH2 0x296E JUMP JUMPDEST DUP1 MLOAD DUP3 MLOAD EQ PUSH2 0x21E6 JUMPI PUSH1 0x40 MLOAD PUSH4 0x3BCC8979 PUSH1 0xE0 SHL DUP2 MSTORE PUSH1 0x4 ADD PUSH1 0x40 MLOAD DUP1 SWAP2 SUB SWAP1 REVERT JUMPDEST DUP2 MLOAD PUSH0 SUB PUSH2 0x2207 JUMPI PUSH1 0x40 MLOAD PUSH4 0x97DA5F95 PUSH1 0xE0 SHL DUP2 MSTORE PUSH1 0x4 ADD PUSH1 0x40 MLOAD DUP1 SWAP2 SUB SWAP1 REVERT JUMPDEST PUSH0 JUMPDEST DUP3 MLOAD DUP2 LT ISZERO PUSH2 0x2256 JUMPI PUSH2 0x224E DUP4 DUP3 DUP2 MLOAD DUP2 LT PUSH2 0x2227 JUMPI PUSH2 0x2227 PUSH2 0x3726 JUMP JUMPDEST PUSH1 0x20 MUL PUSH1 0x20 ADD ADD MLOAD DUP4 DUP4 DUP2 MLOAD DUP2 LT PUSH2 0x2241 JUMPI PUSH2 0x2241 PUSH2 0x3726 JUMP JUMPDEST PUSH1 0x20 MUL PUSH1 0x20 ADD ADD MLOAD PUSH2 0x213B JUMP JUMPDEST PUSH1 0x1 ADD PUSH2 0x2209 JUMP JUMPDEST POP POP POP JUMP JUMPDEST DUP1 PUSH1 0x1 PUSH0 DUP6 DUP6 PUSH1 0x40 MLOAD PUSH1 0x20 ADD PUSH2 0x227B SWAP3 SWAP2 SWAP1 SWAP2 DUP3 MSTORE PUSH1 0x20 DUP3 ADD MSTORE PUSH1 0x40 ADD SWAP1 JUMP JUMPDEST PUSH1 0x40 MLOAD PUSH1 0x20 DUP2 DUP4 SUB SUB DUP2 MSTORE SWAP1 PUSH1 0x40 MSTORE DUP1 MLOAD SWAP1 PUSH1 0x20 ADD KECCAK256 DUP2 MSTORE PUSH1 0x20 ADD SWAP1 DUP2 MSTORE PUSH1 0x20 ADD PUSH0 KECCAK256 SWAP1 DUP2 PUSH2 0x22AA SWAP2 SWAP1 PUSH2 0x38F1 JUMP JUMPDEST POP DUP2 DUP4 PUSH32 0xA6E4251F855F750545FE414F120DB91C76B88DEF14D120969E5BB2D3F05DEBBB DUP4 PUSH1 0x40 MLOAD PUSH2 0x22DC SWAP2 SWAP1 PUSH2 0x2BBA JUMP JUMPDEST PUSH1 0x40 MLOAD DUP1 SWAP2 SUB SWAP1 LOG3 POP POP POP JUMP JUMPDEST PUSH0 DUP4 DUP2 MSTORE PUSH1 0x5 PUSH1 0x20 MSTORE PUSH1 0x40 DUP2 KECCAK256 PUSH2 0x2300 SWAP1 DUP8 PUSH2 0x29BB JUMP JUMPDEST SWAP1 POP DUP1 PUSH2 0x2332 JUMPI PUSH1 0x40 MLOAD PUSH4 0x12A8C6A3 PUSH1 0xE2 SHL DUP2 MSTORE PUSH1 0x1 PUSH1 0x1 PUSH1 0xA0 SHL SUB DUP8 AND PUSH1 0x4 DUP3 ADD MSTORE PUSH1 0x24 DUP2 ADD DUP6 SWAP1 MSTORE PUSH1 0x44 ADD PUSH2 0x21D JUMP JUMPDEST DUP4 DUP6 PUSH1 0x1 PUSH1 0x1 PUSH1 0xA0 SHL SUB AND DUP8 PUSH1 0x1 PUSH1 0x1 PUSH1 0xA0 SHL SUB AND PUSH32 0xC78CD419D6136F9F1C1C6AEC1D3FAE098CFFAF8BC86314A8F2685E32FE574E3C DUP7 DUP7 PUSH1 0x40 MLOAD PUSH2 0x2378 SWAP3 SWAP2 SWAP1 PUSH2 0x3A19 JUMP JUMPDEST PUSH1 0x40 MLOAD DUP1 SWAP2 SUB SWAP1 LOG4 POP POP POP POP POP POP JUMP JUMPDEST PUSH1 0x40 DUP1 MLOAD PUSH1 0x1 PUSH1 0x1 PUSH1 0xB0 SHL SUB NOT DUP5 AND PUSH1 0x20 DUP3 ADD MSTORE PUSH0 PUSH1 0x2A DUP3 ADD DUP2 SWAP1 MSTORE PUSH1 0x1 PUSH1 0x1 PUSH1 0x60 SHL SUB NOT DUP5 AND PUSH1 0x2C DUP4 ADD MSTORE SWAP2 DUP3 SWAP2 ADD PUSH1 0x40 MLOAD PUSH1 0x20 DUP2 DUP4 SUB SUB DUP2 MSTORE SWAP1 PUSH1 0x40 MSTORE SWAP1 POP DUP1 PUSH2 0x23D3 SWAP1 PUSH2 0x3A33 JUMP JUMPDEST SWAP5 SWAP4 POP POP POP POP JUMP JUMPDEST PUSH0 PUSH1 0x1 PUSH1 0x1 PUSH1 0xE0 SHL SUB NOT DUP3 AND PUSH4 0x18A6A9A5 PUSH1 0xE2 SHL EQ DUP1 PUSH2 0x78E JUMPI POP PUSH4 0x1FFC9A7 PUSH1 0xE0 SHL PUSH1 0x1 PUSH1 0x1 PUSH1 0xE0 SHL SUB NOT DUP4 AND EQ PUSH2 0x78E JUMP JUMPDEST PUSH1 0x40 DUP1 MLOAD PUSH1 0x1 PUSH1 0x1 PUSH1 0xE0 SHL SUB NOT DUP4 AND PUSH1 0x24 DUP1 DUP4 ADD SWAP2 SWAP1 SWAP2 MSTORE DUP3 MLOAD DUP1 DUP4 SUB SWAP1 SWAP2 ADD DUP2 MSTORE PUSH1 0x44 SWAP1 SWAP2 ADD SWAP1 SWAP2 MSTORE PUSH1 0x20 DUP1 DUP3 ADD DUP1 MLOAD PUSH1 0x1 PUSH1 0x1 PUSH1 0xE0 SHL SUB AND PUSH4 0x1FFC9A7 PUSH1 0xE0 SHL OR DUP2 MSTORE DUP3 MLOAD PUSH0 SWAP4 SWAP3 DUP5 SWAP3 DUP4 SWAP3 DUP4 SWAP3 SWAP2 DUP4 SWAP2 SWAP1 DUP11 PUSH2 0x7530 STATICCALL SWAP3 POP RETURNDATASIZE SWAP2 POP PUSH0 MLOAD SWAP1 POP DUP3 DUP1 ISZERO PUSH2 0x247F JUMPI POP PUSH1 0x20 DUP3 LT ISZERO JUMPDEST DUP1 ISZERO PUSH2 0x248A JUMPI POP PUSH0 DUP2 GT JUMPDEST SWAP8 SWAP7 POP POP POP POP POP POP POP JUMP JUMPDEST PUSH1 0x1 PUSH1 0x1 PUSH1 0xA0 SHL SUB DUP5 AND PUSH2 0x24BC JUMPI PUSH1 0x40 MLOAD PUSH4 0x24ECEF4D PUSH1 0xE0 SHL DUP2 MSTORE PUSH1 0x4 ADD PUSH1 0x40 MLOAD DUP1 SWAP2 SUB SWAP1 REVERT JUMPDEST PUSH0 DUP4 DUP2 MSTORE PUSH1 0x3 PUSH1 0x20 MSTORE PUSH1 0x40 SWAP1 KECCAK256 SLOAD PUSH1 0x1 PUSH1 0x1 PUSH1 0xA0 SHL SUB AND ISZERO PUSH2 0x24F4 JUMPI PUSH1 0x40 MLOAD PUSH4 0x34C7B511 PUSH1 0xE0 SHL DUP2 MSTORE PUSH1 0x4 DUP2 ADD DUP5 SWAP1 MSTORE PUSH1 0x24 ADD PUSH2 0x21D JUMP JUMPDEST PUSH0 DUP4 DUP2 MSTORE PUSH1 0x3 PUSH1 0x20 MSTORE PUSH1 0x40 SWAP1 KECCAK256 SLOAD PUSH1 0x1 PUSH1 0x1 PUSH1 0xA0 SHL SUB AND ISZERO PUSH2 0x252C JUMPI PUSH1 0x40 MLOAD PUSH4 0x34C7B511 PUSH1 0xE0 SHL DUP2 MSTORE PUSH1 0x4 DUP2 ADD DUP5 SWAP1 MSTORE PUSH1 0x24 ADD PUSH2 0x21D JUMP JUMPDEST PUSH1 0x2 PUSH0 DUP2 SLOAD PUSH2 0x253A SWAP1 PUSH2 0x3A56 JUMP JUMPDEST SWAP1 SWAP2 SSTORE POP PUSH1 0x1 PUSH1 0x1 PUSH1 0xA0 SHL SUB DUP5 AND PUSH0 SWAP1 DUP2 MSTORE PUSH1 0x4 PUSH1 0x20 MSTORE PUSH1 0x40 SWAP1 KECCAK256 PUSH2 0x255F SWAP1 DUP5 PUSH2 0x26D5 JUMP JUMPDEST POP PUSH0 DUP4 DUP2 MSTORE PUSH1 0x3 PUSH1 0x20 MSTORE PUSH1 0x40 DUP1 DUP3 KECCAK256 DUP1 SLOAD PUSH1 0x1 PUSH1 0x1 PUSH1 0xA0 SHL SUB NOT AND PUSH1 0x1 PUSH1 0x1 PUSH1 0xA0 SHL SUB DUP9 AND SWAP1 DUP2 OR SWAP1 SWAP2 SSTORE SWAP1 MLOAD DUP6 SWAP3 SWAP1 PUSH32 0xB333C813A7426A7A11E2B190CAD52C44119421594B47F6F32ACE6D8C7207B2BF SWAP1 PUSH2 0x25C0 SWAP1 CALLER SWAP1 DUP9 SWAP1 DUP9 SWAP1 PUSH2 0x39AB JUMP JUMPDEST PUSH1 0x40 MLOAD DUP1 SWAP2 SUB SWAP1 LOG4 PUSH0 CALLER PUSH0 DUP7 DUP7 DUP6 PUSH1 0x40 MLOAD PUSH1 0x20 ADD PUSH2 0x25E2 SWAP6 SWAP5 SWAP4 SWAP3 SWAP2 SWAP1 PUSH2 0x39DF JUMP JUMPDEST PUSH1 0x40 MLOAD PUSH1 0x20 DUP2 DUP4 SUB SUB DUP2 MSTORE SWAP1 PUSH1 0x40 MSTORE SWAP1 POP PUSH2 0xC39 DUP6 DUP5 DUP4 PUSH2 0x270B JUMP JUMPDEST PUSH1 0x1 PUSH1 0x1 PUSH1 0xA0 SHL SUB DUP2 AND PUSH0 SWAP1 DUP2 MSTORE PUSH1 0x1 DUP4 ADD PUSH1 0x20 MSTORE PUSH1 0x40 DUP2 KECCAK256 SLOAD ISZERO ISZERO PUSH2 0x826 JUMP JUMPDEST PUSH1 0x60 DUP2 PUSH0 ADD DUP1 SLOAD DUP1 PUSH1 0x20 MUL PUSH1 0x20 ADD PUSH1 0x40 MLOAD SWAP1 DUP2 ADD PUSH1 0x40 MSTORE DUP1 SWAP3 SWAP2 SWAP1 DUP2 DUP2 MSTORE PUSH1 0x20 ADD DUP3 DUP1 SLOAD DUP1 ISZERO PUSH2 0x20CD JUMPI PUSH1 0x20 MUL DUP3 ADD SWAP2 SWAP1 PUSH0 MSTORE PUSH1 0x20 PUSH0 KECCAK256 SWAP1 JUMPDEST DUP2 SLOAD DUP2 MSTORE PUSH1 0x20 ADD SWAP1 PUSH1 0x1 ADD SWAP1 DUP1 DUP4 GT PUSH2 0x2658 JUMPI POP POP POP POP POP SWAP1 POP SWAP2 SWAP1 POP JUMP JUMPDEST PUSH0 DUP2 DUP2 MSTORE PUSH1 0x5 PUSH1 0x20 MSTORE PUSH1 0x40 DUP2 KECCAK256 SWAP1 PUSH2 0x268E DUP3 PUSH2 0x20D9 JUMP JUMPDEST SWAP1 POP PUSH0 PUSH0 JUMPDEST DUP3 DUP2 LT ISZERO PUSH2 0x1437 JUMPI PUSH2 0x26A5 DUP5 PUSH0 PUSH2 0x29CF JUMP JUMPDEST SWAP2 POP PUSH2 0x26C2 DUP3 DUP8 DUP8 PUSH0 PUSH1 0x40 MLOAD DUP1 PUSH1 0x20 ADD PUSH1 0x40 MSTORE DUP1 PUSH0 DUP2 MSTORE POP PUSH2 0x22E9 JUMP JUMPDEST PUSH1 0x1 ADD PUSH2 0x2693 JUMP JUMPDEST PUSH0 PUSH2 0x826 DUP4 DUP4 PUSH2 0x29DA JUMP JUMPDEST PUSH0 PUSH2 0x826 DUP4 DUP4 PUSH2 0x2922 JUMP JUMPDEST PUSH2 0x12C4 DUP3 PUSH32 0xB23EAE7E6D1564B295B4C3E3BE402D9A2F0776C57BDF365903496F6FA481AB00 DUP4 PUSH2 0x296E JUMP JUMPDEST PUSH2 0x271C DUP4 PUSH4 0x1AED5A85 PUSH1 0xE2 SHL PUSH2 0x240F JUMP JUMPDEST ISZERO PUSH2 0x27B1 JUMPI PUSH1 0x40 MLOAD PUSH4 0x1AED5A85 PUSH1 0xE2 SHL DUP2 MSTORE PUSH1 0x1 PUSH1 0x1 PUSH1 0xA0 SHL SUB DUP5 AND SWAP1 PUSH4 0x6BB56A14 SWAP1 PUSH2 0x276F SWAP1 PUSH32 0xB084A55EBF70FD3C06FD755269DAC2212C4D3F0F4D09079780BFA50C1B2984D SWAP1 DUP6 SWAP1 PUSH1 0x4 ADD PUSH2 0x3A6E JUMP JUMPDEST PUSH0 PUSH1 0x40 MLOAD DUP1 DUP4 SUB DUP2 PUSH0 DUP8 GAS CALL ISZERO DUP1 ISZERO PUSH2 0x278A JUMPI RETURNDATASIZE PUSH0 PUSH0 RETURNDATACOPY RETURNDATASIZE PUSH0 REVERT JUMPDEST POP POP POP POP PUSH1 0x40 MLOAD RETURNDATASIZE PUSH0 DUP3 RETURNDATACOPY PUSH1 0x1F RETURNDATASIZE SWAP1 DUP2 ADD PUSH1 0x1F NOT AND DUP3 ADD PUSH1 0x40 MSTORE PUSH2 0x128D SWAP2 SWAP1 DUP2 ADD SWAP1 PUSH2 0x3A86 JUMP JUMPDEST DUP2 PUSH2 0x2256 JUMPI PUSH1 0x1 PUSH1 0x1 PUSH1 0xA0 SHL SUB DUP4 AND EXTCODESIZE ISZERO PUSH2 0x27EA JUMPI PUSH1 0x40 MLOAD PUSH4 0x4349776D PUSH1 0xE0 SHL DUP2 MSTORE PUSH1 0x1 PUSH1 0x1 PUSH1 0xA0 SHL SUB DUP5 AND PUSH1 0x4 DUP3 ADD MSTORE PUSH1 0x24 ADD PUSH2 0x21D JUMP JUMPDEST PUSH1 0x40 MLOAD PUSH4 0x3173137 PUSH1 0xE0 SHL DUP2 MSTORE PUSH1 0x1 PUSH1 0x1 PUSH1 0xA0 SHL SUB DUP5 AND PUSH1 0x4 DUP3 ADD MSTORE PUSH1 0x24 ADD PUSH2 0x21D JUMP JUMPDEST PUSH32 0x2145E1D6D074577DC71EF54C3807742B41B053A9352AE6B491331509ACB9750F DUP3 ADD PUSH2 0x284E JUMPI PUSH1 0x40 MLOAD PUSH4 0x85C169BD PUSH1 0xE0 SHL DUP2 MSTORE PUSH1 0x4 ADD PUSH1 0x40 MLOAD DUP1 SWAP2 SUB SWAP1 REVERT JUMPDEST PUSH32 0xD0F59754F88971FE6BC5A6618CC9D5F1E859C58D16B22D1C7B2D3E2B246CD8AA DUP3 ADD PUSH2 0x288E JUMPI PUSH1 0x40 MLOAD PUSH4 0xECEAB67 PUSH1 0xE3 SHL DUP2 MSTORE PUSH1 0x4 ADD PUSH1 0x40 MLOAD DUP1 SWAP2 SUB SWAP1 REVERT JUMPDEST PUSH32 0x1FD9E056A24D14C4ABC642FCC325992A946906D0DBC57DD70278AAF12842024D DUP3 ADD PUSH2 0x28CE JUMPI PUSH1 0x40 MLOAD PUSH4 0x4EF6D7FB PUSH1 0xE0 SHL DUP2 MSTORE PUSH1 0x4 ADD PUSH1 0x40 MLOAD DUP1 SWAP2 SUB SWAP1 REVERT JUMPDEST PUSH0 DUP3 DUP2 MSTORE PUSH1 0x1 PUSH1 0x20 MSTORE PUSH1 0x40 SWAP1 KECCAK256 PUSH2 0x28E5 DUP3 DUP3 PUSH2 0x38F1 JUMP JUMPDEST POP DUP2 PUSH32 0xECE574603820D07BC9B91F2A932BAADF4628AABCB8AFBA49776529C14A6104B2 DUP3 PUSH1 0x40 MLOAD PUSH2 0x2916 SWAP2 SWAP1 PUSH2 0x2BBA JUMP JUMPDEST PUSH1 0x40 MLOAD DUP1 SWAP2 SUB SWAP1 LOG2 POP POP JUMP JUMPDEST PUSH0 DUP2 DUP2 MSTORE PUSH1 0x1 DUP4 ADD PUSH1 0x20 MSTORE PUSH1 0x40 DUP2 KECCAK256 SLOAD PUSH2 0x2967 JUMPI POP DUP2 SLOAD PUSH1 0x1 DUP2 DUP2 ADD DUP5 SSTORE PUSH0 DUP5 DUP2 MSTORE PUSH1 0x20 DUP1 DUP3 KECCAK256 SWAP1 SWAP4 ADD DUP5 SWAP1 SSTORE DUP5 SLOAD DUP5 DUP3 MSTORE DUP3 DUP7 ADD SWAP1 SWAP4 MSTORE PUSH1 0x40 SWAP1 KECCAK256 SWAP2 SWAP1 SWAP2 SSTORE PUSH2 0x78E JUMP JUMPDEST POP PUSH0 PUSH2 0x78E JUMP JUMPDEST PUSH2 0x2988 PUSH1 0x1 PUSH1 0x1 PUSH1 0xA0 SHL SUB DUP5 AND PUSH4 0x1AED5A85 PUSH1 0xE2 SHL PUSH2 0x240F JUMP JUMPDEST ISZERO PUSH2 0x2256 JUMPI PUSH1 0x40 MLOAD PUSH4 0x1AED5A85 PUSH1 0xE2 SHL DUP2 MSTORE PUSH1 0x1 PUSH1 0x1 PUSH1 0xA0 SHL SUB DUP5 AND SWAP1 PUSH4 0x6BB56A14 SWAP1 PUSH2 0x276F SWAP1 DUP6 SWAP1 DUP6 SWAP1 PUSH1 0x4 ADD PUSH2 0x3A6E JUMP JUMPDEST PUSH0 PUSH2 0x826 DUP4 PUSH1 0x1 PUSH1 0x1 PUSH1 0xA0 SHL SUB DUP5 AND PUSH2 0x29DA JUMP JUMPDEST PUSH0 PUSH2 0x826 DUP4 DUP4 PUSH2 0x2ABD JUMP JUMPDEST PUSH0 DUP2 DUP2 MSTORE PUSH1 0x1 DUP4 ADD PUSH1 0x20 MSTORE PUSH1 0x40 DUP2 KECCAK256 SLOAD DUP1 ISZERO PUSH2 0x2AB4 JUMPI PUSH0 PUSH2 0x29FC PUSH1 0x1 DUP4 PUSH2 0x3800 JUMP JUMPDEST DUP6 SLOAD SWAP1 SWAP2 POP PUSH0 SWAP1 PUSH2 0x2A0F SWAP1 PUSH1 0x1 SWAP1 PUSH2 0x3800 JUMP JUMPDEST SWAP1 POP DUP2 DUP2 EQ PUSH2 0x2A6E JUMPI PUSH0 DUP7 PUSH0 ADD DUP3 DUP2 SLOAD DUP2 LT PUSH2 0x2A2D JUMPI PUSH2 0x2A2D PUSH2 0x3726 JUMP JUMPDEST SWAP1 PUSH0 MSTORE PUSH1 0x20 PUSH0 KECCAK256 ADD SLOAD SWAP1 POP DUP1 DUP8 PUSH0 ADD DUP5 DUP2 SLOAD DUP2 LT PUSH2 0x2A4D JUMPI PUSH2 0x2A4D PUSH2 0x3726 JUMP JUMPDEST PUSH0 SWAP2 DUP3 MSTORE PUSH1 0x20 DUP1 DUP4 KECCAK256 SWAP1 SWAP2 ADD SWAP3 SWAP1 SWAP3 SSTORE SWAP2 DUP3 MSTORE PUSH1 0x1 DUP9 ADD SWAP1 MSTORE PUSH1 0x40 SWAP1 KECCAK256 DUP4 SWAP1 SSTORE JUMPDEST DUP6 SLOAD DUP7 SWAP1 DUP1 PUSH2 0x2A7F JUMPI PUSH2 0x2A7F PUSH2 0x3813 JUMP JUMPDEST PUSH1 0x1 SWAP1 SUB DUP2 DUP2 SWAP1 PUSH0 MSTORE PUSH1 0x20 PUSH0 KECCAK256 ADD PUSH0 SWAP1 SSTORE SWAP1 SSTORE DUP6 PUSH1 0x1 ADD PUSH0 DUP7 DUP2 MSTORE PUSH1 0x20 ADD SWAP1 DUP2 MSTORE PUSH1 0x20 ADD PUSH0 KECCAK256 PUSH0 SWAP1 SSTORE PUSH1 0x1 SWAP4 POP POP POP POP PUSH2 0x78E JUMP JUMPDEST PUSH0 SWAP2 POP POP PUSH2 0x78E JUMP JUMPDEST PUSH0 DUP3 PUSH0 ADD DUP3 DUP2 SLOAD DUP2 LT PUSH2 0x2AD2 JUMPI PUSH2 0x2AD2 PUSH2 0x3726 JUMP JUMPDEST SWAP1 PUSH0 MSTORE PUSH1 0x20 PUSH0 KECCAK256 ADD SLOAD SWAP1 POP SWAP3 SWAP2 POP POP JUMP JUMPDEST PUSH1 0x20 DUP2 MSTORE DUP2 PUSH1 0x20 DUP3 ADD MSTORE DUP2 DUP4 PUSH1 0x40 DUP4 ADD CALLDATACOPY PUSH0 DUP2 DUP4 ADD PUSH1 0x40 SWAP1 DUP2 ADD SWAP2 SWAP1 SWAP2 MSTORE PUSH1 0x1F SWAP1 SWAP3 ADD PUSH1 0x1F NOT AND ADD ADD SWAP2 SWAP1 POP JUMP JUMPDEST PUSH0 PUSH1 0x20 DUP3 DUP5 SUB SLT ISZERO PUSH2 0x2B21 JUMPI PUSH0 PUSH0 REVERT JUMPDEST DUP2 CALLDATALOAD PUSH1 0x1 PUSH1 0x1 PUSH1 0xE0 SHL SUB NOT DUP2 AND DUP2 EQ PUSH2 0x826 JUMPI PUSH0 PUSH0 REVERT JUMPDEST DUP1 CALLDATALOAD PUSH1 0x1 PUSH1 0x1 PUSH1 0xA0 SHL SUB DUP2 AND DUP2 EQ PUSH2 0x2B4E JUMPI PUSH0 PUSH0 REVERT JUMPDEST SWAP2 SWAP1 POP JUMP JUMPDEST PUSH0 PUSH1 0x20 DUP3 DUP5 SUB SLT ISZERO PUSH2 0x2B63 JUMPI PUSH0 PUSH0 REVERT JUMPDEST PUSH2 0x826 DUP3 PUSH2 0x2B38 JUMP JUMPDEST PUSH0 PUSH0 PUSH1 0x40 DUP4 DUP6 SUB SLT ISZERO PUSH2 0x2B7D JUMPI PUSH0 PUSH0 REVERT JUMPDEST POP POP DUP1 CALLDATALOAD SWAP3 PUSH1 0x20 SWAP1 SWAP2 ADD CALLDATALOAD SWAP2 POP JUMP JUMPDEST PUSH0 DUP2 MLOAD DUP1 DUP5 MSTORE DUP1 PUSH1 0x20 DUP5 ADD PUSH1 0x20 DUP7 ADD MCOPY PUSH0 PUSH1 0x20 DUP3 DUP7 ADD ADD MSTORE PUSH1 0x20 PUSH1 0x1F NOT PUSH1 0x1F DUP4 ADD AND DUP6 ADD ADD SWAP2 POP POP SWAP3 SWAP2 POP POP JUMP JUMPDEST PUSH1 0x20 DUP2 MSTORE PUSH0 PUSH2 0x826 PUSH1 0x20 DUP4 ADD DUP5 PUSH2 0x2B8C JUMP JUMPDEST PUSH4 0x4E487B71 PUSH1 0xE0 SHL PUSH0 MSTORE PUSH1 0x41 PUSH1 0x4 MSTORE PUSH1 0x24 PUSH0 REVERT JUMPDEST PUSH1 0x40 MLOAD PUSH1 0x1F DUP3 ADD PUSH1 0x1F NOT AND DUP2 ADD PUSH1 0x1 PUSH1 0x1 PUSH1 0x40 SHL SUB DUP2 GT DUP3 DUP3 LT OR ISZERO PUSH2 0x2C08 JUMPI PUSH2 0x2C08 PUSH2 0x2BCC JUMP JUMPDEST PUSH1 0x40 MSTORE SWAP2 SWAP1 POP JUMP JUMPDEST PUSH0 PUSH1 0x1 PUSH1 0x1 PUSH1 0x40 SHL SUB DUP3 GT ISZERO PUSH2 0x2C28 JUMPI PUSH2 0x2C28 PUSH2 0x2BCC JUMP JUMPDEST POP PUSH1 0x5 SHL PUSH1 0x20 ADD SWAP1 JUMP JUMPDEST PUSH0 DUP3 PUSH1 0x1F DUP4 ADD SLT PUSH2 0x2C41 JUMPI PUSH0 PUSH0 REVERT JUMPDEST DUP2 CALLDATALOAD PUSH2 0x2C54 PUSH2 0x2C4F DUP3 PUSH2 0x2C10 JUMP JUMPDEST PUSH2 0x2BE0 JUMP JUMPDEST DUP1 DUP3 DUP3 MSTORE PUSH1 0x20 DUP3 ADD SWAP2 POP PUSH1 0x20 DUP4 PUSH1 0x5 SHL DUP7 ADD ADD SWAP3 POP DUP6 DUP4 GT ISZERO PUSH2 0x2C75 JUMPI PUSH0 PUSH0 REVERT JUMPDEST PUSH1 0x20 DUP6 ADD JUMPDEST DUP4 DUP2 LT ISZERO PUSH2 0x2C92 JUMPI DUP1 CALLDATALOAD DUP4 MSTORE PUSH1 0x20 SWAP3 DUP4 ADD SWAP3 ADD PUSH2 0x2C7A JUMP JUMPDEST POP SWAP6 SWAP5 POP POP POP POP POP JUMP JUMPDEST PUSH0 PUSH0 PUSH1 0x40 DUP4 DUP6 SUB SLT ISZERO PUSH2 0x2CAD JUMPI PUSH0 PUSH0 REVERT JUMPDEST DUP3 CALLDATALOAD PUSH1 0x1 PUSH1 0x1 PUSH1 0x40 SHL SUB DUP2 GT ISZERO PUSH2 0x2CC2 JUMPI PUSH0 PUSH0 REVERT JUMPDEST PUSH2 0x2CCE DUP6 DUP3 DUP7 ADD PUSH2 0x2C32 JUMP JUMPDEST SWAP3 POP POP PUSH1 0x20 DUP4 ADD CALLDATALOAD PUSH1 0x1 PUSH1 0x1 PUSH1 0x40 SHL SUB DUP2 GT ISZERO PUSH2 0x2CE9 JUMPI PUSH0 PUSH0 REVERT JUMPDEST PUSH2 0x2CF5 DUP6 DUP3 DUP7 ADD PUSH2 0x2C32 JUMP JUMPDEST SWAP2 POP POP SWAP3 POP SWAP3 SWAP1 POP JUMP JUMPDEST PUSH0 PUSH1 0x20 DUP3 ADD PUSH1 0x20 DUP4 MSTORE DUP1 DUP5 MLOAD DUP1 DUP4 MSTORE PUSH1 0x40 DUP6 ADD SWAP2 POP PUSH1 0x40 DUP2 PUSH1 0x5 SHL DUP7 ADD ADD SWAP3 POP PUSH1 0x20 DUP7 ADD PUSH0 JUMPDEST DUP3 DUP2 LT ISZERO PUSH2 0x2D56 JUMPI PUSH1 0x3F NOT DUP8 DUP7 SUB ADD DUP5 MSTORE PUSH2 0x2D41 DUP6 DUP4 MLOAD PUSH2 0x2B8C JUMP JUMPDEST SWAP5 POP PUSH1 0x20 SWAP4 DUP5 ADD SWAP4 SWAP2 SWAP1 SWAP2 ADD SWAP1 PUSH1 0x1 ADD PUSH2 0x2D25 JUMP JUMPDEST POP SWAP3 SWAP7 SWAP6 POP POP POP POP POP POP JUMP JUMPDEST PUSH0 PUSH1 0x20 DUP3 DUP5 SUB SLT ISZERO PUSH2 0x2D72 JUMPI PUSH0 PUSH0 REVERT JUMPDEST POP CALLDATALOAD SWAP2 SWAP1 POP JUMP JUMPDEST PUSH0 PUSH1 0x1 PUSH1 0x1 PUSH1 0x40 SHL SUB DUP3 GT ISZERO PUSH2 0x2D91 JUMPI PUSH2 0x2D91 PUSH2 0x2BCC JUMP JUMPDEST POP PUSH1 0x1F ADD PUSH1 0x1F NOT AND PUSH1 0x20 ADD SWAP1 JUMP JUMPDEST PUSH0 DUP3 PUSH1 0x1F DUP4 ADD SLT PUSH2 0x2DAE JUMPI PUSH0 PUSH0 REVERT JUMPDEST DUP2 CALLDATALOAD PUSH1 0x20 DUP4 ADD PUSH0 PUSH2 0x2DC1 PUSH2 0x2C4F DUP5 PUSH2 0x2D79 JUMP JUMPDEST SWAP1 POP DUP3 DUP2 MSTORE DUP6 DUP4 DUP4 ADD GT ISZERO PUSH2 0x2DD4 JUMPI PUSH0 PUSH0 REVERT JUMPDEST DUP3 DUP3 PUSH1 0x20 DUP4 ADD CALLDATACOPY PUSH0 SWAP3 DUP2 ADD PUSH1 0x20 ADD SWAP3 SWAP1 SWAP3 MSTORE POP SWAP4 SWAP3 POP POP POP JUMP JUMPDEST PUSH1 0x3 DUP2 LT PUSH2 0x817 JUMPI PUSH0 PUSH0 REVERT JUMPDEST DUP1 CALLDATALOAD PUSH2 0x2B4E DUP2 PUSH2 0x2DEE JUMP JUMPDEST DUP1 CALLDATALOAD PUSH1 0xFF DUP2 AND DUP2 EQ PUSH2 0x2B4E JUMPI PUSH0 PUSH0 REVERT JUMPDEST PUSH0 PUSH1 0x60 DUP3 DUP5 SUB SLT ISZERO PUSH2 0x2E25 JUMPI PUSH0 PUSH0 REVERT JUMPDEST PUSH1 0x40 MLOAD PUSH1 0x60 DUP2 ADD PUSH1 0x1 PUSH1 0x1 PUSH1 0x40 SHL SUB DUP2 GT DUP3 DUP3 LT OR ISZERO PUSH2 0x2E47 JUMPI PUSH2 0x2E47 PUSH2 0x2BCC JUMP JUMPDEST PUSH1 0x40 MSTORE SWAP1 POP DUP1 DUP3 CALLDATALOAD PUSH2 0xFFFF DUP2 AND DUP2 EQ PUSH2 0x2E5E JUMPI PUSH0 PUSH0 REVERT JUMPDEST DUP2 MSTORE PUSH2 0x2E6C PUSH1 0x20 DUP5 ADD PUSH2 0x2E05 JUMP JUMPDEST PUSH1 0x20 DUP3 ADD MSTORE PUSH2 0x2E7D PUSH1 0x40 DUP5 ADD PUSH2 0x2E05 JUMP JUMPDEST PUSH1 0x40 DUP3 ADD MSTORE POP SWAP3 SWAP2 POP POP JUMP JUMPDEST PUSH0 PUSH0 PUSH0 PUSH0 PUSH0 PUSH0 PUSH0 PUSH0 PUSH0 PUSH2 0x1A0 DUP11 DUP13 SUB SLT ISZERO PUSH2 0x2EA2 JUMPI PUSH0 PUSH0 REVERT JUMPDEST DUP10 CALLDATALOAD PUSH1 0x1 PUSH1 0x1 PUSH1 0x40 SHL SUB DUP2 GT ISZERO PUSH2 0x2EB7 JUMPI PUSH0 PUSH0 REVERT JUMPDEST PUSH2 0x2EC3 DUP13 DUP3 DUP14 ADD PUSH2 0x2D9F JUMP JUMPDEST SWAP10 POP POP PUSH1 0x20 DUP11 ADD CALLDATALOAD PUSH1 0x1 PUSH1 0x1 PUSH1 0x40 SHL SUB DUP2 GT ISZERO PUSH2 0x2EDE JUMPI PUSH0 PUSH0 REVERT JUMPDEST PUSH2 0x2EEA DUP13 DUP3 DUP14 ADD PUSH2 0x2D9F JUMP JUMPDEST SWAP9 POP POP PUSH1 0x40 DUP11 ADD CALLDATALOAD PUSH2 0x2EFB DUP2 PUSH2 0x2DEE JUMP JUMPDEST SWAP7 POP PUSH2 0x2F0A DUP12 PUSH1 0x60 DUP13 ADD PUSH2 0x2E15 JUMP JUMPDEST SWAP6 POP PUSH2 0x2F19 DUP12 PUSH1 0xC0 DUP13 ADD PUSH2 0x2E15 JUMP JUMPDEST SWAP5 POP PUSH2 0x120 DUP11 ADD CALLDATALOAD SWAP4 POP PUSH2 0x140 DUP11 ADD CALLDATALOAD SWAP3 POP PUSH2 0x2F38 PUSH2 0x160 DUP12 ADD PUSH2 0x2B38 JUMP JUMPDEST SWAP2 POP PUSH2 0x2F47 PUSH2 0x180 DUP12 ADD PUSH2 0x2DFA JUMP JUMPDEST SWAP1 POP SWAP3 SWAP6 SWAP9 POP SWAP3 SWAP6 SWAP9 POP SWAP3 SWAP6 SWAP9 JUMP JUMPDEST PUSH0 PUSH0 PUSH1 0x40 DUP4 DUP6 SUB SLT ISZERO PUSH2 0x2F67 JUMPI PUSH0 PUSH0 REVERT JUMPDEST PUSH2 0x2F70 DUP4 PUSH2 0x2B38 JUMP JUMPDEST SWAP5 PUSH1 0x20 SWAP4 SWAP1 SWAP4 ADD CALLDATALOAD SWAP4 POP POP POP JUMP JUMPDEST PUSH1 0x20 DUP1 DUP3 MSTORE DUP3 MLOAD DUP3 DUP3 ADD DUP2 SWAP1 MSTORE PUSH0 SWAP2 DUP5 ADD SWAP1 PUSH1 0x40 DUP5 ADD SWAP1 DUP4 JUMPDEST DUP2 DUP2 LT ISZERO PUSH2 0x2FBE JUMPI DUP4 MLOAD PUSH1 0x1 PUSH1 0x1 PUSH1 0xA0 SHL SUB AND DUP4 MSTORE PUSH1 0x20 SWAP4 DUP5 ADD SWAP4 SWAP1 SWAP3 ADD SWAP2 PUSH1 0x1 ADD PUSH2 0x2F97 JUMP JUMPDEST POP SWAP1 SWAP6 SWAP5 POP POP POP POP POP JUMP JUMPDEST PUSH0 PUSH0 PUSH0 PUSH0 PUSH0 PUSH0 PUSH0 PUSH0 PUSH2 0x200 DUP10 DUP12 SUB SLT ISZERO PUSH2 0x2FE1 JUMPI PUSH0 PUSH0 REVERT JUMPDEST DUP9 CALLDATALOAD SWAP8 POP PUSH1 0x20 DUP10 ADD CALLDATALOAD PUSH1 0x1 PUSH1 0x1 PUSH1 0x40 SHL SUB DUP2 GT ISZERO PUSH2 0x2FFD JUMPI PUSH0 PUSH0 REVERT JUMPDEST PUSH2 0x3009 DUP12 DUP3 DUP13 ADD PUSH2 0x2D9F JUMP JUMPDEST SWAP8 POP POP PUSH1 0x40 DUP10 ADD CALLDATALOAD PUSH1 0x1 PUSH1 0x1 PUSH1 0x40 SHL SUB DUP2 GT ISZERO PUSH2 0x3024 JUMPI PUSH0 PUSH0 REVERT JUMPDEST PUSH2 0x3030 DUP12 DUP3 DUP13 ADD PUSH2 0x2D9F JUMP JUMPDEST SWAP7 POP POP PUSH2 0x3040 DUP11 PUSH1 0x60 DUP12 ADD PUSH2 0x2E15 JUMP JUMPDEST SWAP5 POP PUSH2 0x304F DUP11 PUSH1 0xC0 DUP12 ADD PUSH2 0x2E15 JUMP JUMPDEST SWAP4 POP PUSH2 0x305F DUP11 PUSH2 0x120 DUP12 ADD PUSH2 0x2E15 JUMP JUMPDEST SWAP3 POP PUSH2 0x306F DUP11 PUSH2 0x180 DUP12 ADD PUSH2 0x2E15 JUMP JUMPDEST SWAP2 POP PUSH2 0x307E PUSH2 0x1E0 DUP11 ADD PUSH2 0x2B38 JUMP JUMPDEST SWAP1 POP SWAP3 SWAP6 SWAP9 POP SWAP3 SWAP6 SWAP9 SWAP1 SWAP4 SWAP7 POP JUMP JUMPDEST DUP1 CALLDATALOAD DUP1 ISZERO ISZERO DUP2 EQ PUSH2 0x2B4E JUMPI PUSH0 PUSH0 REVERT JUMPDEST PUSH0 PUSH0 PUSH0 PUSH0 PUSH0 PUSH1 0xA0 DUP7 DUP9 SUB SLT ISZERO PUSH2 0x30B0 JUMPI PUSH0 PUSH0 REVERT JUMPDEST PUSH2 0x30B9 DUP7 PUSH2 0x2B38 JUMP JUMPDEST SWAP5 POP PUSH2 0x30C7 PUSH1 0x20 DUP8 ADD PUSH2 0x2B38 JUMP JUMPDEST SWAP4 POP PUSH1 0x40 DUP7 ADD CALLDATALOAD SWAP3 POP PUSH2 0x30DC PUSH1 0x60 DUP8 ADD PUSH2 0x308D JUMP JUMPDEST SWAP2 POP PUSH1 0x80 DUP7 ADD CALLDATALOAD PUSH1 0x1 PUSH1 0x1 PUSH1 0x40 SHL SUB DUP2 GT ISZERO PUSH2 0x30F6 JUMPI PUSH0 PUSH0 REVERT JUMPDEST PUSH2 0x3102 DUP9 DUP3 DUP10 ADD PUSH2 0x2D9F JUMP JUMPDEST SWAP2 POP POP SWAP3 SWAP6 POP SWAP3 SWAP6 SWAP1 SWAP4 POP JUMP JUMPDEST PUSH4 0x4E487B71 PUSH1 0xE0 SHL PUSH0 MSTORE PUSH1 0x21 PUSH1 0x4 MSTORE PUSH1 0x24 PUSH0 REVERT JUMPDEST PUSH2 0x160 DUP2 MSTORE PUSH0 PUSH2 0x3137 PUSH2 0x160 DUP4 ADD DUP11 PUSH2 0x2B8C JUMP JUMPDEST DUP9 PUSH1 0x20 DUP5 ADD MSTORE DUP8 PUSH1 0x40 DUP5 ADD MSTORE PUSH1 0x3 DUP8 LT PUSH2 0x315F JUMPI PUSH4 0x4E487B71 PUSH1 0xE0 SHL PUSH0 MSTORE PUSH1 0x21 PUSH1 0x4 MSTORE PUSH1 0x24 PUSH0 REVERT JUMPDEST PUSH1 0x60 DUP4 ADD DUP8 SWAP1 MSTORE DUP6 MLOAD PUSH2 0xFFFF AND PUSH1 0x80 DUP5 ADD MSTORE PUSH1 0x20 DUP7 ADD MLOAD PUSH1 0xFF SWAP1 DUP2 AND PUSH1 0xA0 DUP6 ADD MSTORE PUSH1 0x40 DUP8 ADD MLOAD AND PUSH1 0xC0 DUP5 ADD MSTORE DUP5 MLOAD PUSH2 0xFFFF AND PUSH1 0xE0 DUP5 ADD MSTORE PUSH1 0x20 DUP6 ADD MLOAD PUSH1 0xFF SWAP1 DUP2 AND PUSH2 0x100 DUP6 ADD MSTORE PUSH1 0x40 DUP7 ADD MLOAD AND PUSH2 0x120 DUP5 ADD MSTORE DUP3 DUP2 SUB PUSH2 0x140 DUP5 ADD MSTORE PUSH2 0x31C5 DUP2 DUP6 PUSH2 0x2B8C JUMP JUMPDEST SWAP11 SWAP10 POP POP POP POP POP POP POP POP POP POP JUMP JUMPDEST PUSH0 PUSH0 PUSH1 0x20 DUP4 DUP6 SUB SLT ISZERO PUSH2 0x31E4 JUMPI PUSH0 PUSH0 REVERT JUMPDEST DUP3 CALLDATALOAD PUSH1 0x1 PUSH1 0x1 PUSH1 0x40 SHL SUB DUP2 GT ISZERO PUSH2 0x31F9 JUMPI PUSH0 PUSH0 REVERT JUMPDEST DUP4 ADD PUSH1 0x1F DUP2 ADD DUP6 SGT PUSH2 0x3209 JUMPI PUSH0 PUSH0 REVERT JUMPDEST DUP1 CALLDATALOAD PUSH1 0x1 PUSH1 0x1 PUSH1 0x40 SHL SUB DUP2 GT ISZERO PUSH2 0x321E JUMPI PUSH0 PUSH0 REVERT JUMPDEST DUP6 PUSH1 0x20 DUP3 PUSH1 0x5 SHL DUP5 ADD ADD GT ISZERO PUSH2 0x3232 JUMPI PUSH0 PUSH0 REVERT JUMPDEST PUSH1 0x20 SWAP2 SWAP1 SWAP2 ADD SWAP6 SWAP1 SWAP5 POP SWAP3 POP POP POP JUMP JUMPDEST PUSH0 DUP3 PUSH1 0x1F DUP4 ADD SLT PUSH2 0x3251 JUMPI PUSH0 PUSH0 REVERT JUMPDEST DUP2 CALLDATALOAD PUSH2 0x325F PUSH2 0x2C4F DUP3 PUSH2 0x2C10 JUMP JUMPDEST DUP1 DUP3 DUP3 MSTORE PUSH1 0x20 DUP3 ADD SWAP2 POP PUSH1 0x20 DUP4 PUSH1 0x5 SHL DUP7 ADD ADD SWAP3 POP DUP6 DUP4 GT ISZERO PUSH2 0x3280 JUMPI PUSH0 PUSH0 REVERT JUMPDEST PUSH1 0x20 DUP6 ADD JUMPDEST DUP4 DUP2 LT ISZERO PUSH2 0x2C92 JUMPI PUSH2 0x3296 DUP2 PUSH2 0x2B38 JUMP JUMPDEST DUP4 MSTORE PUSH1 0x20 SWAP3 DUP4 ADD SWAP3 ADD PUSH2 0x3285 JUMP JUMPDEST PUSH0 DUP3 PUSH1 0x1F DUP4 ADD SLT PUSH2 0x32B3 JUMPI PUSH0 PUSH0 REVERT JUMPDEST DUP2 CALLDATALOAD PUSH2 0x32C1 PUSH2 0x2C4F DUP3 PUSH2 0x2C10 JUMP JUMPDEST DUP1 DUP3 DUP3 MSTORE PUSH1 0x20 DUP3 ADD SWAP2 POP PUSH1 0x20 DUP4 PUSH1 0x5 SHL DUP7 ADD ADD SWAP3 POP DUP6 DUP4 GT ISZERO PUSH2 0x32E2 JUMPI PUSH0 PUSH0 REVERT JUMPDEST PUSH1 0x20 DUP6 ADD JUMPDEST DUP4 DUP2 LT ISZERO PUSH2 0x2C92 JUMPI PUSH2 0x32F8 DUP2 PUSH2 0x308D JUMP JUMPDEST DUP4 MSTORE PUSH1 0x20 SWAP3 DUP4 ADD SWAP3 ADD PUSH2 0x32E7 JUMP JUMPDEST PUSH0 DUP3 PUSH1 0x1F DUP4 ADD SLT PUSH2 0x3315 JUMPI PUSH0 PUSH0 REVERT JUMPDEST DUP2 CALLDATALOAD PUSH2 0x3323 PUSH2 0x2C4F DUP3 PUSH2 0x2C10 JUMP JUMPDEST DUP1 DUP3 DUP3 MSTORE PUSH1 0x20 DUP3 ADD SWAP2 POP PUSH1 0x20 DUP4 PUSH1 0x5 SHL DUP7 ADD ADD SWAP3 POP DUP6 DUP4 GT ISZERO PUSH2 0x3344 JUMPI PUSH0 PUSH0 REVERT JUMPDEST PUSH1 0x20 DUP6 ADD JUMPDEST DUP4 DUP2 LT ISZERO PUSH2 0x2C92 JUMPI DUP1 CALLDATALOAD PUSH1 0x1 PUSH1 0x1 PUSH1 0x40 SHL SUB DUP2 GT ISZERO PUSH2 0x3366 JUMPI PUSH0 PUSH0 REVERT JUMPDEST PUSH2 0x3375 DUP9 PUSH1 0x20 DUP4 DUP11 ADD ADD PUSH2 0x2D9F JUMP JUMPDEST DUP5 MSTORE POP PUSH1 0x20 SWAP3 DUP4 ADD SWAP3 ADD PUSH2 0x3349 JUMP JUMPDEST PUSH0 PUSH0 PUSH0 PUSH0 PUSH0 PUSH1 0xA0 DUP7 DUP9 SUB SLT ISZERO PUSH2 0x3398 JUMPI PUSH0 PUSH0 REVERT JUMPDEST DUP6 CALLDATALOAD PUSH1 0x1 PUSH1 0x1 PUSH1 0x40 SHL SUB DUP2 GT ISZERO PUSH2 0x33AD JUMPI PUSH0 PUSH0 REVERT JUMPDEST PUSH2 0x33B9 DUP9 DUP3 DUP10 ADD PUSH2 0x3242 JUMP JUMPDEST SWAP6 POP POP PUSH1 0x20 DUP7 ADD CALLDATALOAD PUSH1 0x1 PUSH1 0x1 PUSH1 0x40 SHL SUB DUP2 GT ISZERO PUSH2 0x33D4 JUMPI PUSH0 PUSH0 REVERT JUMPDEST PUSH2 0x33E0 DUP9 DUP3 DUP10 ADD PUSH2 0x3242 JUMP JUMPDEST SWAP5 POP POP PUSH1 0x40 DUP7 ADD CALLDATALOAD PUSH1 0x1 PUSH1 0x1 PUSH1 0x40 SHL SUB DUP2 GT ISZERO PUSH2 0x33FB JUMPI PUSH0 PUSH0 REVERT JUMPDEST PUSH2 0x3407 DUP9 DUP3 DUP10 ADD PUSH2 0x2C32 JUMP JUMPDEST SWAP4 POP POP PUSH1 0x60 DUP7 ADD CALLDATALOAD PUSH1 0x1 PUSH1 0x1 PUSH1 0x40 SHL SUB DUP2 GT ISZERO PUSH2 0x3422 JUMPI PUSH0 PUSH0 REVERT JUMPDEST PUSH2 0x342E DUP9 DUP3 DUP10 ADD PUSH2 0x32A4 JUMP JUMPDEST SWAP3 POP POP PUSH1 0x80 DUP7 ADD CALLDATALOAD PUSH1 0x1 PUSH1 0x1 PUSH1 0x40 SHL SUB DUP2 GT ISZERO PUSH2 0x3449 JUMPI PUSH0 PUSH0 REVERT JUMPDEST PUSH2 0x3102 DUP9 DUP3 DUP10 ADD PUSH2 0x3306 JUMP JUMPDEST PUSH0 PUSH0 PUSH1 0x40 DUP4 DUP6 SUB SLT ISZERO PUSH2 0x3466 JUMPI PUSH0 PUSH0 REVERT JUMPDEST DUP3 CALLDATALOAD SWAP2 POP PUSH1 0x20 DUP4 ADD CALLDATALOAD PUSH1 0x1 PUSH1 0x1 PUSH1 0x40 SHL SUB DUP2 GT ISZERO PUSH2 0x3482 JUMPI PUSH0 PUSH0 REVERT JUMPDEST PUSH2 0x2CF5 DUP6 DUP3 DUP7 ADD PUSH2 0x2D9F JUMP JUMPDEST PUSH0 PUSH0 PUSH0 PUSH1 0x60 DUP5 DUP7 SUB SLT ISZERO PUSH2 0x34A0 JUMPI PUSH0 PUSH0 REVERT JUMPDEST PUSH2 0x34A9 DUP5 PUSH2 0x2B38 JUMP JUMPDEST SWAP3 POP PUSH1 0x20 DUP5 ADD CALLDATALOAD SWAP2 POP PUSH1 0x40 DUP5 ADD CALLDATALOAD PUSH1 0x1 PUSH1 0x1 PUSH1 0x40 SHL SUB DUP2 GT ISZERO PUSH2 0x34CA JUMPI PUSH0 PUSH0 REVERT JUMPDEST PUSH2 0x34D6 DUP7 DUP3 DUP8 ADD PUSH2 0x2D9F JUMP JUMPDEST SWAP2 POP POP SWAP3 POP SWAP3 POP SWAP3 JUMP JUMPDEST PUSH0 PUSH0 PUSH1 0x40 DUP4 DUP6 SUB SLT ISZERO PUSH2 0x34F1 JUMPI PUSH0 PUSH0 REVERT JUMPDEST DUP3 CALLDATALOAD PUSH1 0x1 PUSH1 0x1 PUSH1 0x40 SHL SUB DUP2 GT ISZERO PUSH2 0x3506 JUMPI PUSH0 PUSH0 REVERT JUMPDEST PUSH2 0x3512 DUP6 DUP3 DUP7 ADD PUSH2 0x2C32 JUMP JUMPDEST SWAP3 POP POP PUSH1 0x20 DUP4 ADD CALLDATALOAD PUSH1 0x1 PUSH1 0x1 PUSH1 0x40 SHL SUB DUP2 GT ISZERO PUSH2 0x352D JUMPI PUSH0 PUSH0 REVERT JUMPDEST PUSH2 0x2CF5 DUP6 DUP3 DUP7 ADD PUSH2 0x3306 JUMP JUMPDEST PUSH1 0x20 DUP1 DUP3 MSTORE DUP3 MLOAD DUP3 DUP3 ADD DUP2 SWAP1 MSTORE PUSH0 SWAP2 DUP5 ADD SWAP1 PUSH1 0x40 DUP5 ADD SWAP1 DUP4 JUMPDEST DUP2 DUP2 LT ISZERO PUSH2 0x2FBE JUMPI DUP4 MLOAD DUP4 MSTORE PUSH1 0x20 SWAP4 DUP5 ADD SWAP4 SWAP1 SWAP3 ADD SWAP2 PUSH1 0x1 ADD PUSH2 0x3552 JUMP JUMPDEST PUSH0 PUSH0 PUSH0 PUSH1 0x60 DUP5 DUP7 SUB SLT ISZERO PUSH2 0x3582 JUMPI PUSH0 PUSH0 REVERT JUMPDEST DUP4 CALLDATALOAD PUSH1 0x1 PUSH1 0x1 PUSH1 0x40 SHL SUB DUP2 GT ISZERO PUSH2 0x3597 JUMPI PUSH0 PUSH0 REVERT JUMPDEST PUSH2 0x35A3 DUP7 DUP3 DUP8 ADD PUSH2 0x2C32 JUMP JUMPDEST SWAP4 POP POP PUSH1 0x20 DUP5 ADD CALLDATALOAD PUSH1 0x1 PUSH1 0x1 PUSH1 0x40 SHL SUB DUP2 GT ISZERO PUSH2 0x35BE JUMPI PUSH0 PUSH0 REVERT JUMPDEST PUSH2 0x35CA DUP7 DUP3 DUP8 ADD PUSH2 0x2C32 JUMP JUMPDEST SWAP3 POP POP PUSH1 0x40 DUP5 ADD CALLDATALOAD PUSH1 0x1 PUSH1 0x1 PUSH1 0x40 SHL SUB DUP2 GT ISZERO PUSH2 0x35E5 JUMPI PUSH0 PUSH0 REVERT JUMPDEST PUSH2 0x34D6 DUP7 DUP3 DUP8 ADD PUSH2 0x3306 JUMP JUMPDEST PUSH0 PUSH0 PUSH0 PUSH1 0x60 DUP5 DUP7 SUB SLT ISZERO PUSH2 0x3603 JUMPI PUSH0 PUSH0 REVERT JUMPDEST DUP4 CALLDATALOAD SWAP3 POP PUSH1 0x20 DUP5 ADD CALLDATALOAD SWAP2 POP PUSH1 0x40 DUP5 ADD CALLDATALOAD PUSH1 0x1 PUSH1 0x1 PUSH1 0x40 SHL SUB DUP2 GT ISZERO PUSH2 0x34CA JUMPI PUSH0 PUSH0 REVERT JUMPDEST PUSH0 PUSH0 PUSH0 PUSH0 PUSH1 0x80 DUP6 DUP8 SUB SLT ISZERO PUSH2 0x3639 JUMPI PUSH0 PUSH0 REVERT JUMPDEST PUSH2 0x3642 DUP6 PUSH2 0x2B38 JUMP JUMPDEST SWAP4 POP PUSH1 0x20 DUP6 ADD CALLDATALOAD SWAP3 POP PUSH2 0x3657 PUSH1 0x40 DUP7 ADD PUSH2 0x308D JUMP JUMPDEST SWAP2 POP PUSH1 0x60 DUP6 ADD CALLDATALOAD PUSH1 0x1 PUSH1 0x1 PUSH1 0x40 SHL SUB DUP2 GT ISZERO PUSH2 0x3671 JUMPI PUSH0 PUSH0 REVERT JUMPDEST PUSH2 0x367D DUP8 DUP3 DUP9 ADD PUSH2 0x2D9F JUMP JUMPDEST SWAP2 POP POP SWAP3 SWAP6 SWAP2 SWAP5 POP SWAP3 POP JUMP JUMPDEST PUSH0 PUSH1 0x20 DUP3 DUP5 SUB SLT ISZERO PUSH2 0x3699 JUMPI PUSH0 PUSH0 REVERT JUMPDEST DUP2 CALLDATALOAD PUSH1 0x1 PUSH1 0x1 PUSH1 0x40 SHL SUB DUP2 GT ISZERO PUSH2 0x36AE JUMPI PUSH0 PUSH0 REVERT JUMPDEST PUSH2 0x23D3 DUP5 DUP3 DUP6 ADD PUSH2 0x2C32 JUMP JUMPDEST PUSH0 PUSH0 PUSH1 0x80 DUP4 DUP6 SUB SLT ISZERO PUSH2 0x36CB JUMPI PUSH0 PUSH0 REVERT JUMPDEST DUP3 CALLDATALOAD SWAP2 POP PUSH2 0x36DC DUP5 PUSH1 0x20 DUP6 ADD PUSH2 0x2E15 JUMP JUMPDEST SWAP1 POP SWAP3 POP SWAP3 SWAP1 POP JUMP JUMPDEST DUP4 DUP6 DUP3 CALLDATACOPY PUSH1 0x60 SWAP3 SWAP1 SWAP3 SHL PUSH1 0x1 PUSH1 0x1 PUSH1 0x60 SHL SUB NOT AND SWAP2 SWAP1 SWAP3 ADD SWAP1 DUP2 MSTORE PUSH1 0x14 DUP2 ADD SWAP2 SWAP1 SWAP2 MSTORE PUSH1 0x34 ADD SWAP2 SWAP1 POP JUMP JUMPDEST PUSH0 DUP3 MLOAD DUP1 PUSH1 0x20 DUP6 ADD DUP5 MCOPY PUSH0 SWAP3 ADD SWAP2 DUP3 MSTORE POP SWAP2 SWAP1 POP JUMP JUMPDEST PUSH4 0x4E487B71 PUSH1 0xE0 SHL PUSH0 MSTORE PUSH1 0x32 PUSH1 0x4 MSTORE PUSH1 0x24 PUSH0 REVERT JUMPDEST PUSH1 0x20 DUP1 DUP3 MSTORE PUSH1 0xE SWAP1 DUP3 ADD MSTORE PUSH14 0x139BDD08185D5D1A1BDC9A5E9959 PUSH1 0x92 SHL PUSH1 0x40 DUP3 ADD MSTORE PUSH1 0x60 ADD SWAP1 JUMP JUMPDEST PUSH1 0x1 DUP2 DUP2 SHR SWAP1 DUP3 AND DUP1 PUSH2 0x3776 JUMPI PUSH1 0x7F DUP3 AND SWAP2 POP JUMPDEST PUSH1 0x20 DUP3 LT DUP2 SUB PUSH2 0x1965 JUMPI PUSH4 0x4E487B71 PUSH1 0xE0 SHL PUSH0 MSTORE PUSH1 0x22 PUSH1 0x4 MSTORE PUSH1 0x24 PUSH0 REVERT JUMPDEST PUSH0 PUSH0 DUP4 CALLDATALOAD PUSH1 0x1E NOT DUP5 CALLDATASIZE SUB ADD DUP2 SLT PUSH2 0x37A9 JUMPI PUSH0 PUSH0 REVERT JUMPDEST DUP4 ADD DUP1 CALLDATALOAD SWAP2 POP PUSH1 0x1 PUSH1 0x1 PUSH1 0x40 SHL SUB DUP3 GT ISZERO PUSH2 0x37C2 JUMPI PUSH0 PUSH0 REVERT JUMPDEST PUSH1 0x20 ADD SWAP2 POP CALLDATASIZE DUP2 SWAP1 SUB DUP3 SGT ISZERO PUSH2 0x37D6 JUMPI PUSH0 PUSH0 REVERT JUMPDEST SWAP3 POP SWAP3 SWAP1 POP JUMP JUMPDEST DUP2 DUP4 DUP3 CALLDATACOPY PUSH0 SWAP2 ADD SWAP1 DUP2 MSTORE SWAP2 SWAP1 POP JUMP JUMPDEST PUSH4 0x4E487B71 PUSH1 0xE0 SHL PUSH0 MSTORE PUSH1 0x11 PUSH1 0x4 MSTORE PUSH1 0x24 PUSH0 REVERT JUMPDEST DUP2 DUP2 SUB DUP2 DUP2 GT ISZERO PUSH2 0x78E JUMPI PUSH2 0x78E PUSH2 0x37EC JUMP JUMPDEST PUSH4 0x4E487B71 PUSH1 0xE0 SHL PUSH0 MSTORE PUSH1 0x31 PUSH1 0x4 MSTORE PUSH1 0x24 PUSH0 REVERT JUMPDEST PUSH1 0x1 DUP1 PUSH1 0xA0 SHL SUB DUP6 AND DUP2 MSTORE DUP4 PUSH1 0x20 DUP3 ADD MSTORE DUP3 ISZERO ISZERO PUSH1 0x40 DUP3 ADD MSTORE PUSH1 0x80 PUSH1 0x60 DUP3 ADD MSTORE PUSH0 PUSH2 0x3855 PUSH1 0x80 DUP4 ADD DUP5 PUSH2 0x2B8C JUMP JUMPDEST SWAP7 SWAP6 POP POP POP POP POP POP JUMP JUMPDEST DUP1 MLOAD PUSH1 0x20 DUP3 ADD MLOAD PUSH1 0x1 PUSH1 0x1 PUSH1 0x60 SHL SUB NOT DUP2 AND SWAP2 SWAP1 PUSH1 0x14 DUP3 LT ISZERO PUSH2 0x38A6 JUMPI PUSH12 0xFFFFFFFFFFFFFFFFFFFFFFFF NOT PUSH12 0xFFFFFFFFFFFFFFFFFFFFFFFF NOT DUP4 PUSH1 0x14 SUB PUSH1 0x3 SHL SHL DUP3 AND AND SWAP3 POP JUMPDEST POP POP SWAP2 SWAP1 POP JUMP JUMPDEST PUSH1 0x1F DUP3 GT ISZERO PUSH2 0x2256 JUMPI DUP1 PUSH0 MSTORE PUSH1 0x20 PUSH0 KECCAK256 PUSH1 0x1F DUP5 ADD PUSH1 0x5 SHR DUP2 ADD PUSH1 0x20 DUP6 LT ISZERO PUSH2 0x38D2 JUMPI POP DUP1 JUMPDEST PUSH1 0x1F DUP5 ADD PUSH1 0x5 SHR DUP3 ADD SWAP2 POP JUMPDEST DUP2 DUP2 LT ISZERO PUSH2 0xC39 JUMPI PUSH0 DUP2 SSTORE PUSH1 0x1 ADD PUSH2 0x38DE JUMP JUMPDEST DUP2 MLOAD PUSH1 0x1 PUSH1 0x1 PUSH1 0x40 SHL SUB DUP2 GT ISZERO PUSH2 0x390A JUMPI PUSH2 0x390A PUSH2 0x2BCC JUMP JUMPDEST PUSH2 0x391E DUP2 PUSH2 0x3918 DUP5 SLOAD PUSH2 0x3762 JUMP JUMPDEST DUP5 PUSH2 0x38AD JUMP JUMPDEST PUSH1 0x20 PUSH1 0x1F DUP3 GT PUSH1 0x1 DUP2 EQ PUSH2 0x3950 JUMPI PUSH0 DUP4 ISZERO PUSH2 0x3939 JUMPI POP DUP5 DUP3 ADD MLOAD JUMPDEST PUSH0 NOT PUSH1 0x3 DUP6 SWAP1 SHL SHR NOT AND PUSH1 0x1 DUP5 SWAP1 SHL OR DUP5 SSTORE PUSH2 0xC39 JUMP JUMPDEST PUSH0 DUP5 DUP2 MSTORE PUSH1 0x20 DUP2 KECCAK256 PUSH1 0x1F NOT DUP6 AND SWAP2 JUMPDEST DUP3 DUP2 LT ISZERO PUSH2 0x397F JUMPI DUP8 DUP6 ADD MLOAD DUP3 SSTORE PUSH1 0x20 SWAP5 DUP6 ADD SWAP5 PUSH1 0x1 SWAP1 SWAP3 ADD SWAP2 ADD PUSH2 0x395F JUMP JUMPDEST POP DUP5 DUP3 LT ISZERO PUSH2 0x399C JUMPI DUP7 DUP5 ADD MLOAD PUSH0 NOT PUSH1 0x3 DUP8 SWAP1 SHL PUSH1 0xF8 AND SHR NOT AND DUP2 SSTORE JUMPDEST POP POP POP POP PUSH1 0x1 SWAP1 DUP2 SHL ADD SWAP1 SSTORE POP JUMP JUMPDEST PUSH1 0x1 PUSH1 0x1 PUSH1 0xA0 SHL SUB DUP5 AND DUP2 MSTORE DUP3 ISZERO ISZERO PUSH1 0x20 DUP3 ADD MSTORE PUSH1 0x60 PUSH1 0x40 DUP3 ADD DUP2 SWAP1 MSTORE PUSH0 SWAP1 PUSH2 0x39D6 SWAP1 DUP4 ADD DUP5 PUSH2 0x2B8C JUMP JUMPDEST SWAP6 SWAP5 POP POP POP POP POP JUMP JUMPDEST PUSH1 0x1 PUSH1 0x1 PUSH1 0xA0 SHL SUB DUP7 DUP2 AND DUP3 MSTORE DUP6 DUP2 AND PUSH1 0x20 DUP4 ADD MSTORE DUP5 AND PUSH1 0x40 DUP3 ADD MSTORE PUSH1 0x60 DUP2 ADD DUP4 SWAP1 MSTORE PUSH1 0xA0 PUSH1 0x80 DUP3 ADD DUP2 SWAP1 MSTORE PUSH0 SWAP1 PUSH2 0x248A SWAP1 DUP4 ADD DUP5 PUSH2 0x2B8C JUMP JUMPDEST DUP3 ISZERO ISZERO DUP2 MSTORE PUSH1 0x40 PUSH1 0x20 DUP3 ADD MSTORE PUSH0 PUSH2 0x23D3 PUSH1 0x40 DUP4 ADD DUP5 PUSH2 0x2B8C JUMP JUMPDEST DUP1 MLOAD PUSH1 0x20 DUP1 DUP4 ADD MLOAD SWAP2 SWAP1 DUP2 LT ISZERO PUSH2 0x1965 JUMPI PUSH0 NOT PUSH1 0x20 SWAP2 SWAP1 SWAP2 SUB PUSH1 0x3 SHL SHL AND SWAP2 SWAP1 POP JUMP JUMPDEST PUSH0 PUSH1 0x1 DUP3 ADD PUSH2 0x3A67 JUMPI PUSH2 0x3A67 PUSH2 0x37EC JUMP JUMPDEST POP PUSH1 0x1 ADD SWAP1 JUMP JUMPDEST DUP3 DUP2 MSTORE PUSH1 0x40 PUSH1 0x20 DUP3 ADD MSTORE PUSH0 PUSH2 0x23D3 PUSH1 0x40 DUP4 ADD DUP5 PUSH2 0x2B8C JUMP JUMPDEST PUSH0 PUSH1 0x20 DUP3 DUP5 SUB SLT ISZERO PUSH2 0x3A96 JUMPI PUSH0 PUSH0 REVERT JUMPDEST DUP2 MLOAD PUSH1 0x1 PUSH1 0x1 PUSH1 0x40 SHL SUB DUP2 GT ISZERO PUSH2 0x3AAB JUMPI PUSH0 PUSH0 REVERT JUMPDEST DUP3 ADD PUSH1 0x1F DUP2 ADD DUP5 SGT PUSH2 0x3ABB JUMPI PUSH0 PUSH0 REVERT JUMPDEST DUP1 MLOAD PUSH2 0x3AC9 PUSH2 0x2C4F DUP3 PUSH2 0x2D79 JUMP JUMPDEST DUP2 DUP2 MSTORE DUP6 PUSH1 0x20 DUP4 DUP6 ADD ADD GT ISZERO PUSH2 0x3ADD JUMPI PUSH0 PUSH0 REVERT JUMPDEST DUP2 PUSH1 0x20 DUP5 ADD PUSH1 0x20 DUP4 ADD MCOPY PUSH0 SWAP2 DUP2 ADD PUSH1 0x20 ADD SWAP2 SWAP1 SWAP2 MSTORE SWAP5 SWAP4 POP POP POP POP JUMP INVALID LOG2 PUSH5 0x6970667358 0x22 SLT KECCAK256 CALLER PUSH23 0xF1C96B9B653244A5C54E8BD47A93CD19F5C3CB09CB2C46 MOD PUSH20 0x67BAF8C3FD64736F6C634300081F003300000000 "
		},
		"gasEstimates": {
			"creation": {
				"codeDepositCost": "3030400",
				"executionCost": "infinite",
				"totalCost": "infinite"
			},
			"external": {
				"": "infinite",
				"addChild(string,string,uint8,(uint16,uint8,uint8),(uint16,uint8,uint8),bytes32,bytes32,address,uint8)": "infinite",
				"addSpouse(bytes32,string,string,(uint16,uint8,uint8),(uint16,uint8,uint8),(uint16,uint8,uint8),(uint16,uint8,uint8),address)": "infinite",
				"authorizeOperator(address,bytes32,bytes)": "infinite",
				"balanceOf(address)": "infinite",
				"batchCalls(bytes[])": "infinite",
				"genealogyAddress()": "2404",
				"getData(bytes32)": "infinite",
				"getDataBatch(bytes32[])": "infinite",
				"getDataBatchForTokenIds(bytes32[],bytes32[])": "infinite",
				"getDataForTokenId(bytes32,bytes32)": "infinite",
				"getOperatorsOf(bytes32)": "infinite",
				"isOperatorFor(address,bytes32)": "infinite",
				"owner()": "2418",
				"personCount()": "2365",
				"persons(bytes32)": "infinite",
				"removeChild(bytes32,bytes32)": "infinite",
				"removeSpouse(bytes32,bytes32)": "infinite",
				"renounceOwnership()": "infinite",
				"revokeOperator(address,bytes32,bool,bytes)": "infinite",
				"setData(bytes32,bytes)": "infinite",
				"setDataBatch(bytes32[],bytes[])": "infinite",
				"setDataBatchForTokenIds(bytes32[],bytes32[],bytes[])": "infinite",
				"setDataForTokenId(bytes32,bytes32,bytes)": "infinite",
				"setDeathDate(bytes32,(uint16,uint8,uint8))": "infinite",
				"supportsInterface(bytes4)": "infinite",
				"tokenIdsOf(address)": "infinite",
				"tokenOwnerOf(bytes32)": "2600",
				"totalSupply()": "2393",
				"transfer(address,address,bytes32,bool,bytes)": "infinite",
				"transferBatch(address[],address[],bytes32[],bool[],bytes[])": "infinite",
				"transferGenealogyOwner(address)": "28340",
				"transferOwnership(address)": "28439"
			},
			"internal": {
				"_createNewPerson(string memory,string memory,address,enum FamilyTypes.Sex,struct FamilyTypes.DateInfo memory,struct FamilyTypes.DateInfo memory)": "infinite"
			}
		},
		"methodIdentifiers": {
			"addChild(string,string,uint8,(uint16,uint8,uint8),(uint16,uint8,uint8),bytes32,bytes32,address,uint8)": "2819a215",
			"addSpouse(bytes32,string,string,(uint16,uint8,uint8),(uint16,uint8,uint8),(uint16,uint8,uint8),(uint16,uint8,uint8),address)": "4c8f9313",
			"authorizeOperator(address,bytes32,bytes)": "86a10ddd",
			"balanceOf(address)": "70a08231",
			"batchCalls(bytes[])": "6963d438",
			"genealogyAddress()": "1f121708",
			"getData(bytes32)": "54f6127f",
			"getDataBatch(bytes32[])": "dedff9c6",
			"getDataBatchForTokenIds(bytes32[],bytes32[])": "1d26fce6",
			"getDataForTokenId(bytes32,bytes32)": "16e023b3",
			"getOperatorsOf(bytes32)": "49a6078d",
			"isOperatorFor(address,bytes32)": "2a3654a4",
			"owner()": "8da5cb5b",
			"personCount()": "78495bf8",
			"persons(bytes32)": "625d0be9",
			"removeChild(bytes32,bytes32)": "8f81ecfc",
			"removeSpouse(bytes32,bytes32)": "7e913b05",
			"renounceOwnership()": "715018a6",
			"revokeOperator(address,bytes32,bool,bytes)": "db8c9663",
			"setData(bytes32,bytes)": "7f23690c",
			"setDataBatch(bytes32[],bytes[])": "97902421",
			"setDataBatchForTokenIds(bytes32[],bytes32[],bytes[])": "be9f0e6f",
			"setDataForTokenId(bytes32,bytes32,bytes)": "d6c1407c",
			"setDeathDate(bytes32,(uint16,uint8,uint8))": "f08b15eb",
			"supportsInterface(bytes4)": "01ffc9a7",
			"tokenIdsOf(address)": "a3b261f2",
			"tokenOwnerOf(bytes32)": "217b2270",
			"totalSupply()": "18160ddd",
			"transfer(address,address,bytes32,bool,bytes)": "511b6952",
			"transferBatch(address[],address[],bytes32[],bool[],bytes[])": "7e87632c",
			"transferGenealogyOwner(address)": "02154b4e",
			"transferOwnership(address)": "f2fde38b"
		}
	},
	"abi": [
		{
			"inputs": [
				{
					"internalType": "string",
					"name": "clanName",
					"type": "string"
				},
				{
					"internalType": "string",
					"name": "ancestorName",
					"type": "string"
				},
				{
					"internalType": "string",
					"name": "descShort",
					"type": "string"
				},
				{
					"components": [
						{
							"internalType": "uint16",
							"name": "year",
							"type": "uint16"
						},
						{
							"internalType": "uint8",
							"name": "month",
							"type": "uint8"
						},
						{
							"internalType": "uint8",
							"name": "day",
							"type": "uint8"
						}
					],
					"internalType": "struct FamilyTypes.DateInfo",
					"name": "birthDate",
					"type": "tuple"
				},
				{
					"components": [
						{
							"internalType": "uint16",
							"name": "year",
							"type": "uint16"
						},
						{
							"internalType": "uint8",
							"name": "month",
							"type": "uint8"
						},
						{
							"internalType": "uint8",
							"name": "day",
							"type": "uint8"
						}
					],
					"internalType": "struct FamilyTypes.DateInfo",
					"name": "deathDate",
					"type": "tuple"
				},
				{
					"internalType": "address",
					"name": "owner",
					"type": "address"
				}
			],
			"stateMutability": "nonpayable",
			"type": "constructor"
		},
		{
			"inputs": [],
			"name": "ERC725Y_DataKeysValuesEmptyArray",
			"type": "error"
		},
		{
			"inputs": [],
			"name": "ERC725Y_DataKeysValuesLengthMismatch",
			"type": "error"
		},
		{
			"inputs": [],
			"name": "ERC725Y_MsgValueDisallowed",
			"type": "error"
		},
		{
			"inputs": [
				{
					"internalType": "bytes",
					"name": "storedData",
					"type": "bytes"
				}
			],
			"name": "InvalidExtensionAddress",
			"type": "error"
		},
		{
			"inputs": [
				{
					"internalType": "bytes",
					"name": "data",
					"type": "bytes"
				}
			],
			"name": "InvalidFunctionSelector",
			"type": "error"
		},
		{
			"inputs": [],
			"name": "LSP4TokenNameNotEditable",
			"type": "error"
		},
		{
			"inputs": [],
			"name": "LSP4TokenSymbolNotEditable",
			"type": "error"
		},
		{
			"inputs": [],
			"name": "LSP4TokenTypeNotEditable",
			"type": "error"
		},
		{
			"inputs": [
				{
					"internalType": "uint256",
					"name": "callIndex",
					"type": "uint256"
				}
			],
			"name": "LSP8BatchCallFailed",
			"type": "error"
		},
		{
			"inputs": [],
			"name": "LSP8CannotSendToAddressZero",
			"type": "error"
		},
		{
			"inputs": [],
			"name": "LSP8CannotUseAddressZeroAsOperator",
			"type": "error"
		},
		{
			"inputs": [],
			"name": "LSP8InvalidTransferBatch",
			"type": "error"
		},
		{
			"inputs": [
				{
					"internalType": "bytes32",
					"name": "tokenId",
					"type": "bytes32"
				}
			],
			"name": "LSP8NonExistentTokenId",
			"type": "error"
		},
		{
			"inputs": [
				{
					"internalType": "address",
					"name": "operator",
					"type": "address"
				},
				{
					"internalType": "bytes32",
					"name": "tokenId",
					"type": "bytes32"
				}
			],
			"name": "LSP8NonExistingOperator",
			"type": "error"
		},
		{
			"inputs": [
				{
					"internalType": "bytes32",
					"name": "tokenId",
					"type": "bytes32"
				},
				{
					"internalType": "address",
					"name": "caller",
					"type": "address"
				}
			],
			"name": "LSP8NotTokenOperator",
			"type": "error"
		},
		{
			"inputs": [
				{
					"internalType": "address",
					"name": "tokenOwner",
					"type": "address"
				},
				{
					"internalType": "bytes32",
					"name": "tokenId",
					"type": "bytes32"
				},
				{
					"internalType": "address",
					"name": "caller",
					"type": "address"
				}
			],
			"name": "LSP8NotTokenOwner",
			"type": "error"
		},
		{
			"inputs": [
				{
					"internalType": "address",
					"name": "tokenReceiver",
					"type": "address"
				}
			],
			"name": "LSP8NotifyTokenReceiverContractMissingLSP1Interface",
			"type": "error"
		},
		{
			"inputs": [
				{
					"internalType": "address",
					"name": "tokenReceiver",
					"type": "address"
				}
			],
			"name": "LSP8NotifyTokenReceiverIsEOA",
			"type": "error"
		},
		{
			"inputs": [
				{
					"internalType": "address",
					"name": "operator",
					"type": "address"
				},
				{
					"internalType": "bytes32",
					"name": "tokenId",
					"type": "bytes32"
				}
			],
			"name": "LSP8OperatorAlreadyAuthorized",
			"type": "error"
		},
		{
			"inputs": [
				{
					"internalType": "address",
					"name": "caller",
					"type": "address"
				},
				{
					"internalType": "address",
					"name": "tokenOwner",
					"type": "address"
				},
				{
					"internalType": "bytes32",
					"name": "tokenId",
					"type": "bytes32"
				}
			],
			"name": "LSP8RevokeOperatorNotAuthorized",
			"type": "error"
		},
		{
			"inputs": [],
			"name": "LSP8TokenContractCannotHoldValue",
			"type": "error"
		},
		{
			"inputs": [
				{
					"internalType": "bytes32",
					"name": "tokenId",
					"type": "bytes32"
				}
			],
			"name": "LSP8TokenIdAlreadyMinted",
			"type": "error"
		},
		{
			"inputs": [],
			"name": "LSP8TokenIdFormatNotEditable",
			"type": "error"
		},
		{
			"inputs": [],
			"name": "LSP8TokenIdsDataEmptyArray",
			"type": "error"
		},
		{
			"inputs": [],
			"name": "LSP8TokenIdsDataLengthMismatch",
			"type": "error"
		},
		{
			"inputs": [],
			"name": "LSP8TokenOwnerCannotBeOperator",
			"type": "error"
		},
		{
			"inputs": [
				{
					"internalType": "bytes32",
					"name": "tokenId",
					"type": "bytes32"
				},
				{
					"internalType": "address",
					"name": "oldOwner",
					"type": "address"
				},
				{
					"internalType": "address",
					"name": "newOwner",
					"type": "address"
				}
			],
			"name": "LSP8TokenOwnerChanged",
			"type": "error"
		},
		{
			"inputs": [
				{
					"internalType": "bytes4",
					"name": "functionSelector",
					"type": "bytes4"
				}
			],
			"name": "NoExtensionFoundForFunctionSelector",
			"type": "error"
		},
		{
			"inputs": [],
			"name": "OwnableCannotSetZeroAddressAsOwner",
			"type": "error"
		},
		{
			"anonymous": false,
			"inputs": [
				{
					"indexed": true,
					"internalType": "bytes32",
					"name": "childId",
					"type": "bytes32"
				},
				{
					"indexed": true,
					"internalType": "bytes32",
					"name": "fatherId",
					"type": "bytes32"
				}
			],
			"name": "ChildAdded",
			"type": "event"
		},
		{
			"anonymous": false,
			"inputs": [
				{
					"indexed": true,
					"internalType": "bytes32",
					"name": "childId",
					"type": "bytes32"
				},
				{
					"indexed": true,
					"internalType": "bytes32",
					"name": "parentId",
					"type": "bytes32"
				}
			],
			"name": "ChildRemoved",
			"type": "event"
		},
		{
			"anonymous": false,
			"inputs": [
				{
					"indexed": true,
					"internalType": "bytes32",
					"name": "dataKey",
					"type": "bytes32"
				},
				{
					"indexed": false,
					"internalType": "bytes",
					"name": "dataValue",
					"type": "bytes"
				}
			],
			"name": "DataChanged",
			"type": "event"
		},
		{
			"anonymous": false,
			"inputs": [
				{
					"indexed": true,
					"internalType": "address",
					"name": "operator",
					"type": "address"
				},
				{
					"indexed": true,
					"internalType": "address",
					"name": "tokenOwner",
					"type": "address"
				},
				{
					"indexed": true,
					"internalType": "bytes32",
					"name": "tokenId",
					"type": "bytes32"
				},
				{
					"indexed": false,
					"internalType": "bytes",
					"name": "operatorNotificationData",
					"type": "bytes"
				}
			],
			"name": "OperatorAuthorizationChanged",
			"type": "event"
		},
		{
			"anonymous": false,
			"inputs": [
				{
					"indexed": true,
					"internalType": "address",
					"name": "operator",
					"type": "address"
				},
				{
					"indexed": true,
					"internalType": "address",
					"name": "tokenOwner",
					"type": "address"
				},
				{
					"indexed": true,
					"internalType": "bytes32",
					"name": "tokenId",
					"type": "bytes32"
				},
				{
					"indexed": false,
					"internalType": "bool",
					"name": "notified",
					"type": "bool"
				},
				{
					"indexed": false,
					"internalType": "bytes",
					"name": "operatorNotificationData",
					"type": "bytes"
				}
			],
			"name": "OperatorRevoked",
			"type": "event"
		},
		{
			"anonymous": false,
			"inputs": [
				{
					"indexed": true,
					"internalType": "address",
					"name": "previousOwner",
					"type": "address"
				},
				{
					"indexed": true,
					"internalType": "address",
					"name": "newOwner",
					"type": "address"
				}
			],
			"name": "OwnershipTransferred",
			"type": "event"
		},
		{
			"anonymous": false,
			"inputs": [
				{
					"indexed": true,
					"internalType": "bytes32",
					"name": "personId",
					"type": "bytes32"
				},
				{
					"indexed": false,
					"internalType": "address",
					"name": "ownership",
					"type": "address"
				}
			],
			"name": "PersonCreated",
			"type": "event"
		},
		{
			"anonymous": false,
			"inputs": [
				{
					"indexed": true,
					"internalType": "bytes32",
					"name": "personId",
					"type": "bytes32"
				}
			],
			"name": "SetDeathDate",
			"type": "event"
		},
		{
			"anonymous": false,
			"inputs": [
				{
					"indexed": true,
					"internalType": "bytes32",
					"name": "husbanId",
					"type": "bytes32"
				},
				{
					"indexed": true,
					"internalType": "bytes32",
					"name": "spouseId",
					"type": "bytes32"
				}
			],
			"name": "SpouseAdded",
			"type": "event"
		},
		{
			"anonymous": false,
			"inputs": [
				{
					"indexed": true,
					"internalType": "bytes32",
					"name": "spouseId",
					"type": "bytes32"
				},
				{
					"indexed": true,
					"internalType": "bytes32",
					"name": "husbanId",
					"type": "bytes32"
				}
			],
			"name": "SpouseRemoved",
			"type": "event"
		},
		{
			"anonymous": false,
			"inputs": [
				{
					"indexed": true,
					"internalType": "bytes32",
					"name": "tokenId",
					"type": "bytes32"
				},
				{
					"indexed": true,
					"internalType": "bytes32",
					"name": "dataKey",
					"type": "bytes32"
				},
				{
					"indexed": false,
					"internalType": "bytes",
					"name": "dataValue",
					"type": "bytes"
				}
			],
			"name": "TokenIdDataChanged",
			"type": "event"
		},
		{
			"anonymous": false,
			"inputs": [
				{
					"indexed": false,
					"internalType": "address",
					"name": "operator",
					"type": "address"
				},
				{
					"indexed": true,
					"internalType": "address",
					"name": "from",
					"type": "address"
				},
				{
					"indexed": true,
					"internalType": "address",
					"name": "to",
					"type": "address"
				},
				{
					"indexed": true,
					"internalType": "bytes32",
					"name": "tokenId",
					"type": "bytes32"
				},
				{
					"indexed": false,
					"internalType": "bool",
					"name": "force",
					"type": "bool"
				},
				{
					"indexed": false,
					"internalType": "bytes",
					"name": "data",
					"type": "bytes"
				}
			],
			"name": "Transfer",
			"type": "event"
		},
		{
			"stateMutability": "payable",
			"type": "fallback"
		},
		{
			"inputs": [
				{
					"internalType": "string",
					"name": "childName",
					"type": "string"
				},
				{
					"internalType": "string",
					"name": "shortDesc",
					"type": "string"
				},
				{
					"internalType": "enum FamilyTypes.Sex",
					"name": "sex",
					"type": "uint8"
				},
				{
					"components": [
						{
							"internalType": "uint16",
							"name": "year",
							"type": "uint16"
						},
						{
							"internalType": "uint8",
							"name": "month",
							"type": "uint8"
						},
						{
							"internalType": "uint8",
							"name": "day",
							"type": "uint8"
						}
					],
					"internalType": "struct FamilyTypes.DateInfo",
					"name": "birthDate",
					"type": "tuple"
				},
				{
					"components": [
						{
							"internalType": "uint16",
							"name": "year",
							"type": "uint16"
						},
						{
							"internalType": "uint8",
							"name": "month",
							"type": "uint8"
						},
						{
							"internalType": "uint8",
							"name": "day",
							"type": "uint8"
						}
					],
					"internalType": "struct FamilyTypes.DateInfo",
					"name": "deathDate",
					"type": "tuple"
				},
				{
					"internalType": "bytes32",
					"name": "fatherId",
					"type": "bytes32"
				},
				{
					"internalType": "bytes32",
					"name": "motherId",
					"type": "bytes32"
				},
				{
					"internalType": "address",
					"name": "owner",
					"type": "address"
				},
				{
					"internalType": "enum FamilyTypes.ChildType",
					"name": "childType",
					"type": "uint8"
				}
			],
			"name": "addChild",
			"outputs": [],
			"stateMutability": "nonpayable",
			"type": "function"
		},
		{
			"inputs": [
				{
					"internalType": "bytes32",
					"name": "husbanId",
					"type": "bytes32"
				},
				{
					"internalType": "string",
					"name": "name",
					"type": "string"
				},
				{
					"internalType": "string",
					"name": "descShort",
					"type": "string"
				},
				{
					"components": [
						{
							"internalType": "uint16",
							"name": "year",
							"type": "uint16"
						},
						{
							"internalType": "uint8",
							"name": "month",
							"type": "uint8"
						},
						{
							"internalType": "uint8",
							"name": "day",
							"type": "uint8"
						}
					],
					"internalType": "struct FamilyTypes.DateInfo",
					"name": "birthDate",
					"type": "tuple"
				},
				{
					"components": [
						{
							"internalType": "uint16",
							"name": "year",
							"type": "uint16"
						},
						{
							"internalType": "uint8",
							"name": "month",
							"type": "uint8"
						},
						{
							"internalType": "uint8",
							"name": "day",
							"type": "uint8"
						}
					],
					"internalType": "struct FamilyTypes.DateInfo",
					"name": "deathDate",
					"type": "tuple"
				},
				{
					"components": [
						{
							"internalType": "uint16",
							"name": "year",
							"type": "uint16"
						},
						{
							"internalType": "uint8",
							"name": "month",
							"type": "uint8"
						},
						{
							"internalType": "uint8",
							"name": "day",
							"type": "uint8"
						}
					],
					"internalType": "struct FamilyTypes.DateInfo",
					"name": "marriedDate",
					"type": "tuple"
				},
				{
					"components": [
						{
							"internalType": "uint16",
							"name": "year",
							"type": "uint16"
						},
						{
							"internalType": "uint8",
							"name": "month",
							"type": "uint8"
						},
						{
							"internalType": "uint8",
							"name": "day",
							"type": "uint8"
						}
					],
					"internalType": "struct FamilyTypes.DateInfo",
					"name": "divorcedDate",
					"type": "tuple"
				},
				{
					"internalType": "address",
					"name": "ownership",
					"type": "address"
				}
			],
			"name": "addSpouse",
			"outputs": [],
			"stateMutability": "nonpayable",
			"type": "function"
		},
		{
			"inputs": [
				{
					"internalType": "address",
					"name": "operator",
					"type": "address"
				},
				{
					"internalType": "bytes32",
					"name": "tokenId",
					"type": "bytes32"
				},
				{
					"internalType": "bytes",
					"name": "operatorNotificationData",
					"type": "bytes"
				}
			],
			"name": "authorizeOperator",
			"outputs": [],
			"stateMutability": "nonpayable",
			"type": "function"
		},
		{
			"inputs": [
				{
					"internalType": "address",
					"name": "tokenOwner",
					"type": "address"
				}
			],
			"name": "balanceOf",
			"outputs": [
				{
					"internalType": "uint256",
					"name": "",
					"type": "uint256"
				}
			],
			"stateMutability": "view",
			"type": "function"
		},
		{
			"inputs": [
				{
					"internalType": "bytes[]",
					"name": "data",
					"type": "bytes[]"
				}
			],
			"name": "batchCalls",
			"outputs": [
				{
					"internalType": "bytes[]",
					"name": "results",
					"type": "bytes[]"
				}
			],
			"stateMutability": "nonpayable",
			"type": "function"
		},
		{
			"inputs": [],
			"name": "genealogyAddress",
			"outputs": [
				{
					"internalType": "address",
					"name": "",
					"type": "address"
				}
			],
			"stateMutability": "view",
			"type": "function"
		},
		{
			"inputs": [
				{
					"internalType": "bytes32",
					"name": "dataKey",
					"type": "bytes32"
				}
			],
			"name": "getData",
			"outputs": [
				{
					"internalType": "bytes",
					"name": "dataValue",
					"type": "bytes"
				}
			],
			"stateMutability": "view",
			"type": "function"
		},
		{
			"inputs": [
				{
					"internalType": "bytes32[]",
					"name": "dataKeys",
					"type": "bytes32[]"
				}
			],
			"name": "getDataBatch",
			"outputs": [
				{
					"internalType": "bytes[]",
					"name": "dataValues",
					"type": "bytes[]"
				}
			],
			"stateMutability": "view",
			"type": "function"
		},
		{
			"inputs": [
				{
					"internalType": "bytes32[]",
					"name": "tokenIds",
					"type": "bytes32[]"
				},
				{
					"internalType": "bytes32[]",
					"name": "dataKeys",
					"type": "bytes32[]"
				}
			],
			"name": "getDataBatchForTokenIds",
			"outputs": [
				{
					"internalType": "bytes[]",
					"name": "dataValues",
					"type": "bytes[]"
				}
			],
			"stateMutability": "view",
			"type": "function"
		},
		{
			"inputs": [
				{
					"internalType": "bytes32",
					"name": "tokenId",
					"type": "bytes32"
				},
				{
					"internalType": "bytes32",
					"name": "dataKey",
					"type": "bytes32"
				}
			],
			"name": "getDataForTokenId",
			"outputs": [
				{
					"internalType": "bytes",
					"name": "dataValue",
					"type": "bytes"
				}
			],
			"stateMutability": "view",
			"type": "function"
		},
		{
			"inputs": [
				{
					"internalType": "bytes32",
					"name": "tokenId",
					"type": "bytes32"
				}
			],
			"name": "getOperatorsOf",
			"outputs": [
				{
					"internalType": "address[]",
					"name": "",
					"type": "address[]"
				}
			],
			"stateMutability": "view",
			"type": "function"
		},
		{
			"inputs": [
				{
					"internalType": "address",
					"name": "operator",
					"type": "address"
				},
				{
					"internalType": "bytes32",
					"name": "tokenId",
					"type": "bytes32"
				}
			],
			"name": "isOperatorFor",
			"outputs": [
				{
					"internalType": "bool",
					"name": "",
					"type": "bool"
				}
			],
			"stateMutability": "view",
			"type": "function"
		},
		{
			"inputs": [],
			"name": "owner",
			"outputs": [
				{
					"internalType": "address",
					"name": "",
					"type": "address"
				}
			],
			"stateMutability": "view",
			"type": "function"
		},
		{
			"inputs": [],
			"name": "personCount",
			"outputs": [
				{
					"internalType": "uint256",
					"name": "_value",
					"type": "uint256"
				}
			],
			"stateMutability": "view",
			"type": "function"
		},
		{
			"inputs": [
				{
					"internalType": "bytes32",
					"name": "",
					"type": "bytes32"
				}
			],
			"name": "persons",
			"outputs": [
				{
					"internalType": "string",
					"name": "name",
					"type": "string"
				},
				{
					"internalType": "bytes32",
					"name": "fatherId",
					"type": "bytes32"
				},
				{
					"internalType": "bytes32",
					"name": "motherId",
					"type": "bytes32"
				},
				{
					"internalType": "enum FamilyTypes.Sex",
					"name": "sex",
					"type": "uint8"
				},
				{
					"components": [
						{
							"internalType": "uint16",
							"name": "year",
							"type": "uint16"
						},
						{
							"internalType": "uint8",
							"name": "month",
							"type": "uint8"
						},
						{
							"internalType": "uint8",
							"name": "day",
							"type": "uint8"
						}
					],
					"internalType": "struct FamilyTypes.DateInfo",
					"name": "birthDate",
					"type": "tuple"
				},
				{
					"components": [
						{
							"internalType": "uint16",
							"name": "year",
							"type": "uint16"
						},
						{
							"internalType": "uint8",
							"name": "month",
							"type": "uint8"
						},
						{
							"internalType": "uint8",
							"name": "day",
							"type": "uint8"
						}
					],
					"internalType": "struct FamilyTypes.DateInfo",
					"name": "deathDate",
					"type": "tuple"
				},
				{
					"internalType": "string",
					"name": "shortDesc",
					"type": "string"
				}
			],
			"stateMutability": "view",
			"type": "function"
		},
		{
			"inputs": [
				{
					"internalType": "bytes32",
					"name": "parentId",
					"type": "bytes32"
				},
				{
					"internalType": "bytes32",
					"name": "childId",
					"type": "bytes32"
				}
			],
			"name": "removeChild",
			"outputs": [],
			"stateMutability": "nonpayable",
			"type": "function"
		},
		{
			"inputs": [
				{
					"internalType": "bytes32",
					"name": "spouseId",
					"type": "bytes32"
				},
				{
					"internalType": "bytes32",
					"name": "husbanId",
					"type": "bytes32"
				}
			],
			"name": "removeSpouse",
			"outputs": [],
			"stateMutability": "nonpayable",
			"type": "function"
		},
		{
			"inputs": [],
			"name": "renounceOwnership",
			"outputs": [],
			"stateMutability": "nonpayable",
			"type": "function"
		},
		{
			"inputs": [
				{
					"internalType": "address",
					"name": "operator",
					"type": "address"
				},
				{
					"internalType": "bytes32",
					"name": "tokenId",
					"type": "bytes32"
				},
				{
					"internalType": "bool",
					"name": "notify",
					"type": "bool"
				},
				{
					"internalType": "bytes",
					"name": "operatorNotificationData",
					"type": "bytes"
				}
			],
			"name": "revokeOperator",
			"outputs": [],
			"stateMutability": "nonpayable",
			"type": "function"
		},
		{
			"inputs": [
				{
					"internalType": "bytes32",
					"name": "dataKey",
					"type": "bytes32"
				},
				{
					"internalType": "bytes",
					"name": "dataValue",
					"type": "bytes"
				}
			],
			"name": "setData",
			"outputs": [],
			"stateMutability": "payable",
			"type": "function"
		},
		{
			"inputs": [
				{
					"internalType": "bytes32[]",
					"name": "dataKeys",
					"type": "bytes32[]"
				},
				{
					"internalType": "bytes[]",
					"name": "dataValues",
					"type": "bytes[]"
				}
			],
			"name": "setDataBatch",
			"outputs": [],
			"stateMutability": "payable",
			"type": "function"
		},
		{
			"inputs": [
				{
					"internalType": "bytes32[]",
					"name": "tokenIds",
					"type": "bytes32[]"
				},
				{
					"internalType": "bytes32[]",
					"name": "dataKeys",
					"type": "bytes32[]"
				},
				{
					"internalType": "bytes[]",
					"name": "dataValues",
					"type": "bytes[]"
				}
			],
			"name": "setDataBatchForTokenIds",
			"outputs": [],
			"stateMutability": "nonpayable",
			"type": "function"
		},
		{
			"inputs": [
				{
					"internalType": "bytes32",
					"name": "tokenId",
					"type": "bytes32"
				},
				{
					"internalType": "bytes32",
					"name": "dataKey",
					"type": "bytes32"
				},
				{
					"internalType": "bytes",
					"name": "dataValue",
					"type": "bytes"
				}
			],
			"name": "setDataForTokenId",
			"outputs": [],
			"stateMutability": "nonpayable",
			"type": "function"
		},
		{
			"inputs": [
				{
					"internalType": "bytes32",
					"name": "personId",
					"type": "bytes32"
				},
				{
					"components": [
						{
							"internalType": "uint16",
							"name": "year",
							"type": "uint16"
						},
						{
							"internalType": "uint8",
							"name": "month",
							"type": "uint8"
						},
						{
							"internalType": "uint8",
							"name": "day",
							"type": "uint8"
						}
					],
					"internalType": "struct FamilyTypes.DateInfo",
					"name": "newDeathDate",
					"type": "tuple"
				}
			],
			"name": "setDeathDate",
			"outputs": [],
			"stateMutability": "nonpayable",
			"type": "function"
		},
		{
			"inputs": [
				{
					"internalType": "bytes4",
					"name": "interfaceId",
					"type": "bytes4"
				}
			],
			"name": "supportsInterface",
			"outputs": [
				{
					"internalType": "bool",
					"name": "",
					"type": "bool"
				}
			],
			"stateMutability": "view",
			"type": "function"
		},
		{
			"inputs": [
				{
					"internalType": "address",
					"name": "tokenOwner",
					"type": "address"
				}
			],
			"name": "tokenIdsOf",
			"outputs": [
				{
					"internalType": "bytes32[]",
					"name": "",
					"type": "bytes32[]"
				}
			],
			"stateMutability": "view",
			"type": "function"
		},
		{
			"inputs": [
				{
					"internalType": "bytes32",
					"name": "tokenId",
					"type": "bytes32"
				}
			],
			"name": "tokenOwnerOf",
			"outputs": [
				{
					"internalType": "address",
					"name": "",
					"type": "address"
				}
			],
			"stateMutability": "view",
			"type": "function"
		},
		{
			"inputs": [],
			"name": "totalSupply",
			"outputs": [
				{
					"internalType": "uint256",
					"name": "",
					"type": "uint256"
				}
			],
			"stateMutability": "view",
			"type": "function"
		},
		{
			"inputs": [
				{
					"internalType": "address",
					"name": "from",
					"type": "address"
				},
				{
					"internalType": "address",
					"name": "to",
					"type": "address"
				},
				{
					"internalType": "bytes32",
					"name": "tokenId",
					"type": "bytes32"
				},
				{
					"internalType": "bool",
					"name": "force",
					"type": "bool"
				},
				{
					"internalType": "bytes",
					"name": "data",
					"type": "bytes"
				}
			],
			"name": "transfer",
			"outputs": [],
			"stateMutability": "nonpayable",
			"type": "function"
		},
		{
			"inputs": [
				{
					"internalType": "address[]",
					"name": "from",
					"type": "address[]"
				},
				{
					"internalType": "address[]",
					"name": "to",
					"type": "address[]"
				},
				{
					"internalType": "bytes32[]",
					"name": "tokenId",
					"type": "bytes32[]"
				},
				{
					"internalType": "bool[]",
					"name": "force",
					"type": "bool[]"
				},
				{
					"internalType": "bytes[]",
					"name": "data",
					"type": "bytes[]"
				}
			],
			"name": "transferBatch",
			"outputs": [],
			"stateMutability": "nonpayable",
			"type": "function"
		},
		{
			"inputs": [
				{
					"internalType": "address",
					"name": "newOwner",
					"type": "address"
				}
			],
			"name": "transferGenealogyOwner",
			"outputs": [],
			"stateMutability": "nonpayable",
			"type": "function"
		},
		{
			"inputs": [
				{
					"internalType": "address",
					"name": "newOwner",
					"type": "address"
				}
			],
			"name": "transferOwnership",
			"outputs": [],
			"stateMutability": "nonpayable",
			"type": "function"
		},
		{
			"stateMutability": "payable",
			"type": "receive"
		}
	]
}