{
	"data": {
		"bytecode": {
			"linkReferences": {},
			"object": "608060405234801561000f575f5ffd5b50604051614d93380380614d9383398101604081905261002e91610953565b60408051808201909152600681526546414d494c5960d01b602082015287908260025f848484848161005f336101fd565b6001600160a01b038116610086576040516306b620db60e21b815260040160405180910390fd5b61008f816101fd565b506040805180820190915260048152632936598960e21b60208201526100d6907feafec4d89fa9619884b60000a4d96624a38f7ac2d8d9a604ecf07c12c77e480c9061024c565b6101007fdeba1e292f8ba88238e10ab3c7f88bd4be4fac56cad5194b6ecceaf653468af18561024c565b61012a7f2f0a68ab07768e01943a599e73362a0e17a63a72e94dd2e384d2c1d4db9327568461024c565b6040805160208101839052610171917fe0261fa95db2eb3b5439bd033cda66d56b96f92f243a8228fd87550ed7bdfdb3910160408051601f1981840301815291905261024c565b505060408051602081018590526101bc93507ff675e9361af1c1664c1868cfa3eb97672d6b1a513aa5b81dec34c9ee330e818d92500160408051601f198184030181529190526102a0565b5050600880546001600160a01b0319163317905550600991506101e190508782610abe565b506101f08585835f8787610360565b5050505050505050610cc2565b5f80546001600160a01b038381166001600160a01b0319831681178455604051919092169283917f8be0079c531659141344cd1fd0a4f28419497f9722a3daafe3b4186f6b6457e09190a35050565b5f8281526001602052604090206102638282610abe565b50817fece574603820d07bc9b91f2a932baadf4628aabcb8afba49776529c14a6104b2826040516102949190610ba6565b60405180910390a25050565b7f2145e1d6d074577dc71ef54c3807742b41b053a9352ae6b491331509acb9750f82016102e0576040516385c169bd60e01b815260040160405180910390fd5b7fd0f59754f88971fe6bc5a6618cc9d5f1e859c58d16b22d1c7b2d3e2b246cd8aa820161032057604051630eceab6760e31b815260040160405180910390fd5b7f1fd9e056a24d14c4abc642fcc325992a946906d0dbc57dd70278aaf12842024d820161024c57604051634ef6d7fb60e01b815260040160405180910390fd5b5f61036f600680546001019055565b5060065460408051602081019091525f815261039190869083906001906104a1565b5f818152600760205260409020806103a98982610abe565b5083516006820180546020808801516040808a015161ffff96871662ffffff19958616176201000060ff94851681029190911763ff0000001990811663010000009386168402179097558a5160078a018054968d0151948d0151919099169590961694909417918316909302179093169190921690910217905560058101805486919060ff1916600183600281111561044457610444610bb8565b0217905550600881016104578882610abe565b506040516001600160a01b038716815282907fa6912c28a8cb5fc5cab504e471cfa6bc504444025484d810e2565bc7dead66579060200160405180910390a2509695505050505050565b6001600160a01b0384166104c8576040516324ecef4d60e01b815260040160405180910390fd5b5f838152600360205260409020546001600160a01b031615610505576040516334c7b51160e01b8152600481018490526024015b60405180910390fd5b5f838152600360205260409020546001600160a01b03161561053d576040516334c7b51160e01b8152600481018490526024016104fc565b60025f815461054b90610bcc565b909155506001600160a01b0384165f9081526004602052604090206105709084610617565b505f8381526003602052604080822080546001600160a01b0319166001600160a01b03881690811790915590518592907fb333c813a7426a7a11e2b190cad52c44119421594b47f6f32ace6d8c7207b2bf906105d190339088908890610bf0565b60405180910390a45f335f8686856040516020016105f3959493929190610c24565b60408051601f19818403018152919052905061061085848361062b565b5050505050565b5f6106228383610739565b90505b92915050565b61063c83631aed5a8560e21b610785565b156106d757604051631aed5a8560e21b81526001600160a01b03841690636bb56a149061068f907f0b084a55ebf70fd3c06fd755269dac2212c4d3f0f4d09079780bfa50c1b2984d908590600401610c5e565b5f604051808303815f875af11580156106aa573d5f5f3e3d5ffd5b505050506040513d5f823e601f3d908101601f191682016040526106d19190810190610c7e565b50505050565b81610734576001600160a01b0383163b1561071057604051634349776d60e01b81526001600160a01b03841660048201526024016104fc565b604051630317313760e01b81526001600160a01b03841660048201526024016104fc565b505050565b5f81815260018301602052604081205461077e57508154600181810184555f848152602080822090930184905584548482528286019093526040902091909155610625565b505f610625565b604080516001600160e01b03198316602480830191909152825180830390910181526044909101909152602080820180516001600160e01b03166301ffc9a760e01b17815282515f9392849283928392918391908a617530fa92503d91505f5190508280156107f5575060208210155b801561080057505f81115b979650505050505050565b634e487b7160e01b5f52604160045260245ffd5b5f806001600160401b038411156108385761083861080b565b50604051601f19601f85018116603f011681018181106001600160401b03821117156108665761086661080b565b60405283815290508082840185101561087d575f5ffd5b8383602083015e5f60208583010152509392505050565b5f82601f8301126108a3575f5ffd5b6106228383516020850161081f565b805160ff811681146108c2575f5ffd5b919050565b5f606082840312156108d7575f5ffd5b604051606081016001600160401b03811182821017156108f9576108f961080b565b8060405250809150825161ffff81168114610912575f5ffd5b8152610920602084016108b2565b6020820152610931604084016108b2565b60408201525092915050565b80516001600160a01b03811681146108c2575f5ffd5b5f5f5f5f5f5f5f610160888a03121561096a575f5ffd5b87516001600160401b0381111561097f575f5ffd5b61098b8a828b01610894565b60208a015190985090506001600160401b038111156109a8575f5ffd5b6109b48a828b01610894565b60408a015190975090506001600160401b038111156109d1575f5ffd5b6109dd8a828b01610894565b60608a015190965090506001600160401b038111156109fa575f5ffd5b610a068a828b01610894565b945050610a168960808a016108c7565b9250610a258960e08a016108c7565b9150610a34610140890161093d565b905092959891949750929550565b600181811c90821680610a5657607f821691505b602082108103610a7457634e487b7160e01b5f52602260045260245ffd5b50919050565b601f82111561073457805f5260205f20601f840160051c81016020851015610a9f5750805b601f840160051c820191505b81811015610610575f8155600101610aab565b81516001600160401b03811115610ad757610ad761080b565b610aeb81610ae58454610a42565b84610a7a565b6020601f821160018114610b1d575f8315610b065750848201515b5f19600385901b1c1916600184901b178455610610565b5f84815260208120601f198516915b82811015610b4c5787850151825560209485019460019092019101610b2c565b5084821015610b6957868401515f19600387901b60f8161c191681555b50505050600190811b01905550565b5f81518084528060208401602086015e5f602082860101526020601f19601f83011685010191505092915050565b602081525f6106226020830184610b78565b634e487b7160e01b5f52602160045260245ffd5b5f60018201610be957634e487b7160e01b5f52601160045260245ffd5b5060010190565b6001600160a01b038416815282151560208201526060604082018190525f90610c1b90830184610b78565b95945050505050565b6001600160a01b0386811682528581166020830152841660408201526060810183905260a0608082018190525f9061080090830184610b78565b828152604060208201525f610c766040830184610b78565b949350505050565b5f60208284031215610c8e575f5ffd5b81516001600160401b03811115610ca3575f5ffd5b8201601f81018413610cb3575f5ffd5b610c768482516020840161081f565b6140c480610ccf5f395ff3fe6080604052600436106101fc575f3560e01c806378495bf81161010c57806392b88f061161009f578063d6c1407c1161006e578063d6c1407c14610658578063db8c966314610677578063dedff9c614610696578063e4ac8dbd146106b5578063f2fde38b146106c957610255565b806392b88f06146105ce57806397902421146105fa578063a3b261f21461060d578063be9f0e6f1461063957610255565b806386a10ddd116100db57806386a10ddd146105555780638da5cb5b146105745780638f81ecfc1461059057806390b8f861146105af57610255565b806378495bf8146104ee5780637e87632c146105045780637e913b05146105235780637f23690c1461054257610255565b80632a3654a41161018f57806354f6127f1161015e57806354f6127f1461045e57806365758c041461047d5780636963d4381461049c57806370a08231146104bb578063715018a6146104da57610255565b80632a3654a4146103d557806349a6078d146103f457806349fc568614610420578063511b69521461043f57610255565b806318160ddd116101cb57806318160ddd146103355780631d26fce6146103535780631f1217081461037f578063217b2270146103b657610255565b806301ffc9a71461029557806302154b4e146102c95780630cfa4650146102ea57806316e023b31461030957610255565b3661025557345f0361023c5760405163e5099ee360e01b81526004016102339060208082526004908201525f604082015260600190565b60405180910390fd5b6040516330fa4a2160e11b815260040160405180910390fd5b5f366060600482101561027f57828260405163e5099ee360e01b8152600401610233929190612ec3565b61028983836106e8565b80519350602001915050f35b3480156102a0575f5ffd5b506102b46102af366004612ef1565b6107d7565b60405190151581526020015b60405180910390f35b3480156102d4575f5ffd5b506102e86102e3366004612f33565b61080a565b005b3480156102f5575f5ffd5b506102e861030436600461300a565b61085d565b348015610314575f5ffd5b5061032861032336600461303b565b6108aa565b6040516102c09190613089565b348015610340575f5ffd5b506002545b6040519081526020016102c0565b34801561035e575f5ffd5b5061037261036d366004613122565b6108bd565b6040516102c09190613185565b34801561038a575f5ffd5b5060085461039e906001600160a01b031681565b6040516001600160a01b0390911681526020016102c0565b3480156103c1575f5ffd5b5061039e6103d03660046131e8565b6109a3565b3480156103e0575f5ffd5b506102b46103ef3660046131ff565b6109db565b3480156103ff575f5ffd5b5061041361040e3660046131e8565b6109e6565b6040516102c09190613227565b34801561042b575f5ffd5b506102e861043a366004613302565b610a07565b34801561044a575f5ffd5b506102e86104593660046133b1565b610b4c565b348015610469575f5ffd5b506103286104783660046131e8565b610b90565b348015610488575f5ffd5b506102e8610497366004613424565b610b9b565b3480156104a7575f5ffd5b506103726104b63660046134b7565b610d0a565b3480156104c6575f5ffd5b506103456104d5366004612f33565b610e34565b3480156104e5575f5ffd5b506102e8610e54565b3480156104f9575f5ffd5b506006546103459081565b34801561050f575f5ffd5b506102e861051e366004613668565b610e67565b34801561052e575f5ffd5b506102e861053d36600461303b565b610f55565b6102e8610550366004613739565b6111ac565b348015610560575f5ffd5b506102e861056f366004613772565b6111e1565b34801561057f575f5ffd5b505f546001600160a01b031661039e565b34801561059b575f5ffd5b506102e86105aa36600461303b565b611358565b3480156105ba575f5ffd5b506102e86105c93660046137c4565b61158f565b3480156105d9575f5ffd5b506105ed6105e83660046131e8565b6116b7565b6040516102c091906139a5565b6102e8610608366004613aa8565b611a16565b348015610618575f5ffd5b5061062c610627366004612f33565b611a47565b6040516102c09190613b01565b348015610644575f5ffd5b506102e8610653366004613b38565b611a6a565b348015610663575f5ffd5b506102e8610672366004613bb9565b611b2d565b348015610682575f5ffd5b506102e8610691366004613bee565b611b81565b3480156106a1575f5ffd5b506103726106b0366004613c51565b611c62565b3480156106c0575f5ffd5b50610328611d0b565b3480156106d4575f5ffd5b506102e86106e3366004612f33565b611d97565b60605f6106ff5f356001600160e01b031916611e04565b5090506001600160a01b0381166107365760405163bb370b2b60e01b81526001600160e01b03195f35166004820152602401610233565b5f5f826001600160a01b0316348787333460405160200161075a9493929190613c82565b60408051601f198184030181529082905261077491613cad565b5f6040518083038185875af1925050503d805f81146107ae576040519150601f19603f3d011682016040523d82523d5f602084013e6107b3565b606091505b509150915081156107c85792506107d1915050565b80518060208301fd5b92915050565b5f6001600160e01b03198216631d138b8360e11b14806107fb57506107fb82611e80565b806107d157506107d182611ea4565b6008546001600160a01b031633146108515760405162461bcd60e51b815260206004820152600a602482015269139bdd081c195c9b5a5d60b21b6044820152606401610233565b61085a81611ed9565b50565b610865611f28565b60096108718282613d39565b505f80546040516001600160a01b03909116917f52dfe4fd4c28a03cd8ab0af4995f1caf006268a90c0e57cbd291d33f358fbc2f91a250565b60606108b68383611f81565b9392505050565b606081518351146108e1576040516317d38eff60e11b815260040160405180910390fd5b82516001600160401b038111156108fa576108fa612f4c565b60405190808252806020026020018201604052801561092d57816020015b60608152602001906001900390816109185790505b5090505f5b835181101561099c5761097784828151811061095057610950613df3565b602002602001015184838151811061096a5761096a613df3565b6020026020010151611f81565b82828151811061098957610989613df3565b6020908102919091010152600101610932565b5092915050565b5f818152600360205260408120546001600160a01b0316806107d157604051635747cd1b60e11b815260048101849052602401610233565b5f6108b68383612054565b60606109f18261208f565b5f8281526005602052604090206107d1906120c6565b855f610a12826109a3565b9050336001600160a01b0382161480610a3457505f546001600160a01b031633145b610a505760405162461bcd60e51b815260040161023390613e07565b5f88815260076020526040902080610a688982613d39565b5084516006820180546020808901516040808b015161ffff96871662ffffff19958616176201000060ff94851681029190911763ff0000001990811663010000009386168402179097558b5160078a018054968e0151948e0151919099169590961694909417918316909302179093169190921690910217905560058101805487919060ff19166001836002811115610b0357610b0361387b565b021790555060088101610b168882613d39565b5060405189907f088b778b9aa1c8317c051d681d7e71c9f3e40c539fbaf5cadfd37476c1b15dec905f90a2505050505050505050565b610b563384612054565b610b7c57604051631294d2a960e01b815260048101849052336024820152604401610233565b610b8985858585856120d2565b5050505050565b60606107d1826122ae565b855f610ba6826109a3565b9050336001600160a01b0382161480610bc857505f546001600160a01b031633145b610be45760405162461bcd60e51b815260040161023390613e07565b5f610bf488888660018a8a61234d565b604080516060810182525f80825260208201819052918101919091529091505f8281526007602090815260408083208151606081018352868152808401868152818401878152600490930180546001818101835591885286882093516003909102909301928355905180519183018054828801519287015160ff908116630100000090810263ff000000199583166201000090810262ffffff1995861661ffff998a16171787169190911790945596518051600290970180549a820151918a015183169098029116909202971693909216929092179490941716929092179091555183918c917fca4757636f927657c127875c4f0c0ec6e1f84d4769348f20fff39486a4bb2c3f9190a350505050505050505050565b6060816001600160401b03811115610d2457610d24612f4c565b604051908082528060200260200182016040528015610d5757816020015b6060815260200190600190039081610d425790505b5090505f5b8281101561099c575f8030868685818110610d7957610d79613df3565b9050602002810190610d8b9190613e2f565b604051610d99929190613e78565b5f60405180830381855af49150503d805f8114610dd1576040519150601f19603f3d011682016040523d82523d5f602084013e610dd6565b606091505b509150915081610e0c57805115610df05780518082602001fd5b60405163234eb81960e01b815260048101849052602401610233565b80848481518110610e1f57610e1f613df3565b60209081029190910101525050600101610d5c565b6001600160a01b0381165f9081526004602052604081206107d19061248e565b610e5c611f28565b610e655f611ed9565b565b8451845181141580610e7a575083518114155b80610e86575082518114155b80610e92575081518114155b15610eb0576040516393a8311960e01b815260040160405180910390fd5b5f5b81811015610f4c57610f44878281518110610ecf57610ecf613df3565b6020026020010151878381518110610ee957610ee9613df3565b6020026020010151878481518110610f0357610f03613df3565b6020026020010151878581518110610f1d57610f1d613df3565b6020026020010151878681518110610f3757610f37613df3565b6020026020010151610b4c565b600101610eb2565b50505050505050565b805f610f60826109a3565b9050336001600160a01b0382161480610f8257505f546001600160a01b031633145b610f9e5760405162461bcd60e51b815260040161023390613e07565b5f838152600760205260408120905b600482015481101561116a5785826004018281548110610fcf57610fcf613df3565b905f5260205f2090600302015f0154036111625760048201545f90610ff690600190613e9b565b90508082146110e65782600401818154811061101457611014613df3565b905f5260205f20906003020183600401838154811061103557611035613df3565b5f9182526020909120825460039092020190815560018083018054918301805461ffff93841661ffff1980831682178455845462ffffff19938416909217620100009283900460ff908116840291909117808655955463ff000000199687166301000000918290048316820217909555600298890180549990980180549990971691891682178755875498909316179681900482160295909517808455935493909116928190049093169092021790555b826004018054806110f9576110f9613eae565b5f8281526020812060035f199093019283020181815560018101805463ffffffff199081169091556002909101805490911690559155604051879189917ff1387b2f8963ca7947c75faa29a4c7de0859d44c5f9a658761acbdc5d539976b9190a35050506111a6565b600101610fad565b5060405162461bcd60e51b815260206004820152601060248201526f14dc1bdd5cd9481b9bdd08199bdd5b9960821b6044820152606401610233565b50505050565b6111b4611f28565b34156111d35760405163f36ba73760e01b815260040160405180910390fd5b6111dd8282612497565b5050565b5f6111eb836109a3565b90506001600160a01b038116331461122e57604051632d938f5160e11b81526001600160a01b038216600482015260248101849052336044820152606401610233565b6001600160a01b03841661125557604051639577b8b360e01b815260040160405180910390fd5b836001600160a01b0316816001600160a01b031603611287576040516344fed6b160e11b815260040160405180910390fd5b5f83815260056020526040812061129e90866124e1565b9050806112d0576040516314ec4d6d60e31b81526001600160a01b038616600482015260248101859052604401610233565b83826001600160a01b0316866001600160a01b03167f1b1b58aa2ec0cec2228b2d37124556d41f5a1f7b12f089171f896cc236671215866040516113149190613089565b60405180910390a45f33856001866040516020016113359493929190613ec2565b604051602081830303815290604052905061135086826124f5565b505050505050565b815f611363826109a3565b9050336001600160a01b038216148061138557505f546001600160a01b031633145b6113a15760405162461bcd60e51b815260040161023390613e07565b5f848152600760205260408082208583529120600181015486146114075760405162461bcd60e51b815260206004820152601860248201527f4e6f74206368696c64206f66207468697320706572736f6e00000000000000006044820152606401610233565b5f5b6003830154811015611554578583600301828154811061142b5761142b613df3565b905f5260205f209060020201600101540361154c5760038301545f9061145390600190613e9b565b90508082146114d95783600301818154811061147157611471613df3565b905f5260205f20906002020184600301838154811061149257611492613df3565b5f9182526020909120825460029283029091018054909260ff90921691839160ff19169060019084908111156114ca576114ca61387b565b02179055506001918201549101555b836003018054806114ec576114ec613eae565b5f8281526020812060025f1990930192830201805460ff191681556001908101829055919092558401819055604051899189917fd22ef99c12aeaecac27f6067207b23ac6a9ae5f21e97134b39e98320aa04fa5d9190a3505050506111a6565b600101611409565b5060405162461bcd60e51b815260206004820152600f60248201526e10da1a5b19081b9bdd08199bdd5b99608a1b6044820152606401610233565b815f61159a826109a3565b9050336001600160a01b03821614806115bc57505f546001600160a01b031633145b6115d85760405162461bcd60e51b815260040161023390613e07565b5f848152600760205260408120906115f48b8b338c8c8c61234d565b90508160030160405180604001604052808760028111156116175761161761387b565b815260209081018490528254600181810185555f94855291909320825160029485029091018054939490939192849260ff191691849081111561165c5761165c61387b565b02179055506020918201516001918201555f8381526007909252604080832090910188905551879183917f95afc0d374f4e4b0d262be4433e573b5862c9fb50c22ee6438a313040f5487cc9190a35050505050505050505050565b6116bf612e3f565b5f8281526007602052604090819020815161012081019092528054829082906116e790613cc3565b80601f016020809104026020016040519081016040528092919081815260200182805461171390613cc3565b801561175e5780601f106117355761010080835404028352916020019161175e565b820191905f5260205f20905b81548152906001019060200180831161174157829003601f168201915b50505050508152602001600182015481526020016002820154815260200160038201805480602002602001604051908101604052809291908181526020015f905b82821015611810578382905f5260205f2090600202016040518060400160405290815f82015f9054906101000a900460ff1660028111156117e2576117e261387b565b60028111156117f3576117f361387b565b81526020016001820154815250508152602001906001019061179f565b50505050815260200160048201805480602002602001604051908101604052809291908181526020015f905b828210156118d6575f848152602090819020604080516060808201835260038702909301805482528251808501845260018083015461ffff80821684526201000080830460ff908116868c01526301000000938490048116868a0152878b0195909552875198890188526002909501549081168852938404831687890152909204168484015291810192909252908352909201910161183c565b50505090825250600582015460209091019060ff1660028111156118fc576118fc61387b565b600281111561190d5761190d61387b565b81526040805160608082018352600685015461ffff808216845260ff620100008084048216602087810191909152630100000094859004831687890152808901969096528651808601885260078a0154938416815290830482169581019590955291900416828401529183015260088301805491909201919061198f90613cc3565b80601f01602080910402602001604051908101604052809291908181526020018280546119bb90613cc3565b8015611a065780601f106119dd57610100808354040283529160200191611a06565b820191905f5260205f20905b8154815290600101906020018083116119e957829003601f168201915b5050505050815250509050919050565b611a1e611f28565b3415611a3d5760405163f36ba73760e01b815260040160405180910390fd5b6111dd8282612520565b6001600160a01b0381165f9081526004602052604090206060906107d1906120c6565b611a72611f28565b81518351141580611a8557508051825114155b15611aa3576040516317d38eff60e11b815260040160405180910390fd5b82515f03611ac4576040516380c9830560e01b815260040160405180910390fd5b5f5b83518110156111a657611b25848281518110611ae457611ae4613df3565b6020026020010151848381518110611afe57611afe613df3565b6020026020010151848481518110611b1857611b18613df3565b60200260200101516125b7565b600101611ac6565b825f611b38826109a3565b9050336001600160a01b0382161480611b5a57505f546001600160a01b031633145b611b765760405162461bcd60e51b815260040161023390613e07565b610b898585856125b7565b5f611b8b846109a3565b9050336001600160a01b03821614611bde576001600160a01b0385163314611bde5760405163760b5acd60e01b81523360048201526001600160a01b038216602482015260448101859052606401610233565b6001600160a01b038516611c0557604051639577b8b360e01b815260040160405180910390fd5b846001600160a01b0316816001600160a01b031603611c37576040516344fed6b160e11b815260040160405180910390fd5b611c448582868686612645565b8215610b89575f81855f856040516020016113359493929190613ec2565b606081516001600160401b03811115611c7d57611c7d612f4c565b604051908082528060200260200182016040528015611cb057816020015b6060815260200190600190039081611c9b5790505b5090505f5b8251811015611d0557611ce0838281518110611cd357611cd3613df3565b60200260200101516122ae565b828281518110611cf257611cf2613df3565b6020908102919091010152600101611cb5565b50919050565b60098054611d1890613cc3565b80601f0160208091040260200160405190810160405280929190818152602001828054611d4490613cc3565b8015611d8f5780601f10611d6657610100808354040283529160200191611d8f565b820191905f5260205f20905b815481529060010190602001808311611d7257829003601f168201915b505050505081565b611d9f611f28565b6001600160a01b0381166108515760405162461bcd60e51b815260206004820152602660248201527f4f776e61626c653a206e6577206f776e657220697320746865207a65726f206160448201526564647265737360d01b6064820152608401610233565b5f8080611e28696773c5a04a6d4300884b60b11b6001600160e01b031986166126e4565b90505f611e34826122ae565b90508051601414158015611e485750805115155b15611e6857806040516342bfe79f60e01b81526004016102339190613089565b611e7181613efa565b60601c95600195509350505050565b5f6001600160e01b0319821663a918fa6b60e01b14806107d157506107d182612737565b5f80611eb66301ffc9a760e01b611e04565b5090506001600160a01b038116611ecf57505f92915050565b6108b6818461276b565b5f80546001600160a01b038381166001600160a01b0319831681178455604051919092169283917f8be0079c531659141344cd1fd0a4f28419497f9722a3daafe3b4186f6b6457e09190a35050565b5f546001600160a01b03163314610e655760405162461bcd60e51b815260206004820181905260248201527f4f776e61626c653a2063616c6c6572206973206e6f7420746865206f776e65726044820152606401610233565b606060015f8484604051602001611fa2929190918252602082015260400190565b6040516020818303038152906040528051906020012081526020019081526020015f208054611fd090613cc3565b80601f0160208091040260200160405190810160405280929190818152602001828054611ffc90613cc3565b80156120475780601f1061201e57610100808354040283529160200191612047565b820191905f5260205f20905b81548152906001019060200180831161202a57829003601f168201915b5050505050905092915050565b5f61205e826109a3565b6001600160a01b0316836001600160a01b031614806108b657505f8281526005602052604090206108b690846127f1565b5f818152600360205260409020546001600160a01b031661085a57604051635747cd1b60e11b815260048101829052602401610233565b60605f6108b683612812565b5f6120dc846109a3565b9050856001600160a01b0316816001600160a01b03161461212a57604051632d938f5160e11b81526001600160a01b0380831660048301526024820186905287166044820152606401610233565b6001600160a01b038516612151576040516324ecef4d60e01b815260040160405180910390fd5b5f61215b856109a3565b9050806001600160a01b0316826001600160a01b0316146121a957604051635a9c31d360e01b8152600481018690526001600160a01b03808416602483015282166044820152606401610233565b6121b3878661286a565b6001600160a01b0387165f9081526004602052604090206121d490866128bd565b506001600160a01b0386165f9081526004602052604090206121f690866128c8565b505f858152600360205260409081902080546001600160a01b0319166001600160a01b0389811691821790925591518792918a16907fb333c813a7426a7a11e2b190cad52c44119421594b47f6f32ace6d8c7207b2bf9061225c9033908a908a90613f48565b60405180910390a45f338888888760405160200161227e959493929190613f73565b604051602081830303815290604052905061229988826128d3565b6122a48786836128fe565b5050505050505050565b5f8181526001602052604090208054606091906122ca90613cc3565b80601f01602080910402602001604051908101604052809291908181526020018280546122f690613cc3565b80156123415780601f1061231857610100808354040283529160200191612341565b820191905f5260205f20905b81548152906001019060200180831161232457829003601f168201915b50505050509050919050565b5f61235c600680546001019055565b6006545f1b905061237e8582600160405180602001604052805f815250612a01565b5f818152600760205260409020806123968982613d39565b5083516006820180546020808801516040808a015161ffff96871662ffffff19958616176201000060ff94851681029190911763ff0000001990811663010000009386168402179097558a5160078a018054968d0151948d0151919099169590961694909417918316909302179093169190921690910217905560058101805486919060ff191660018360028111156124315761243161387b565b0217905550600881016124448882613d39565b506040516001600160a01b038716815282907fa6912c28a8cb5fc5cab504e471cfa6bc504444025484d810e2565bc7dead66579060200160405180910390a2509695505050505050565b5f6107d1825490565b7f098a16c9e50e3e99b3e797305c146898d294e5aec55a47e213cb3611ccf17e7382016124d757604051631b32400560e11b815260040160405180910390fd5b6111dd8282612b6a565b5f6108b6836001600160a01b038416612c7e565b6111dd827f8a1c15a8799f71b547e08e2bcb2e85257e81b0a07eee2ce6712549eef1f0097083612cca565b805182511461254257604051633bcc897960e01b815260040160405180910390fd5b81515f03612563576040516397da5f9560e01b815260040160405180910390fd5b5f5b82518110156125b2576125aa83828151811061258357612583613df3565b602002602001015183838151811061259d5761259d613df3565b6020026020010151612497565b600101612565565b505050565b8060015f85856040516020016125d7929190918252602082015260400190565b6040516020818303038152906040528051906020012081526020019081526020015f2090816126069190613d39565b5081837fa6e4251f855f750545fe414f120db91c76b88def14d120969e5bb2d3f05debbb836040516126389190613089565b60405180910390a3505050565b5f83815260056020526040812061265c9087612d17565b90508061268e576040516312a8c6a360e21b81526001600160a01b038716600482015260248101859052604401610233565b83856001600160a01b0316876001600160a01b03167fc78cd419d6136f9f1c1c6aec1d3fae098cffaf8bc86314a8f2685e32fe574e3c86866040516126d4929190613fad565b60405180910390a4505050505050565b604080516001600160b01b0319841660208201525f602a82018190526001600160601b03198416602c8301529182910160405160208183030381529060405290508061272f90613fc7565b949350505050565b5f6001600160e01b031982166318a6a9a560e21b14806107d157506301ffc9a760e01b6001600160e01b03198316146107d1565b604080516001600160e01b03198316602480830191909152825180830390910181526044909101909152602080820180516001600160e01b03166301ffc9a760e01b17815282515f9392849283928392918391908a617530fa92503d91505f5190508280156127db575060208210155b80156127e657505f81115b979650505050505050565b6001600160a01b0381165f90815260018301602052604081205415156108b6565b6060815f0180548060200260200160405190810160405280929190818152602001828054801561234157602002820191905f5260205f20905b81548152602001906001019080831161284b5750505050509050919050565b5f818152600560205260408120906128818261248e565b90505f5f5b8281101561135057612898845f612d2b565b91506128b58287875f60405180602001604052805f815250612645565b600101612886565b5f6108b68383612d36565b5f6108b68383612c7e565b6111dd827fb23eae7e6d1564b295b4c3e3be402d9a2f0776c57bdf365903496f6fa481ab0083612cca565b61290f83631aed5a8560e21b61276b565b156129a457604051631aed5a8560e21b81526001600160a01b03841690636bb56a1490612962907f0b084a55ebf70fd3c06fd755269dac2212c4d3f0f4d09079780bfa50c1b2984d908590600401613fea565b5f604051808303815f875af115801561297d573d5f5f3e3d5ffd5b505050506040513d5f823e601f3d908101601f191682016040526111a69190810190614002565b816125b2576001600160a01b0383163b156129dd57604051634349776d60e01b81526001600160a01b0384166004820152602401610233565b604051630317313760e01b81526001600160a01b0384166004820152602401610233565b6001600160a01b038416612a28576040516324ecef4d60e01b815260040160405180910390fd5b5f838152600360205260409020546001600160a01b031615612a60576040516334c7b51160e01b815260048101849052602401610233565b5f838152600360205260409020546001600160a01b031615612a98576040516334c7b51160e01b815260048101849052602401610233565b60025f8154612aa690614076565b909155506001600160a01b0384165f908152600460205260409020612acb90846128c8565b505f8381526003602052604080822080546001600160a01b0319166001600160a01b03881690811790915590518592907fb333c813a7426a7a11e2b190cad52c44119421594b47f6f32ace6d8c7207b2bf90612b2c90339088908890613f48565b60405180910390a45f335f868685604051602001612b4e959493929190613f73565b6040516020818303038152906040529050610b898584836128fe565b7f2145e1d6d074577dc71ef54c3807742b41b053a9352ae6b491331509acb9750f8201612baa576040516385c169bd60e01b815260040160405180910390fd5b7fd0f59754f88971fe6bc5a6618cc9d5f1e859c58d16b22d1c7b2d3e2b246cd8aa8201612bea57604051630eceab6760e31b815260040160405180910390fd5b7f1fd9e056a24d14c4abc642fcc325992a946906d0dbc57dd70278aaf12842024d8201612c2a57604051634ef6d7fb60e01b815260040160405180910390fd5b5f828152600160205260409020612c418282613d39565b50817fece574603820d07bc9b91f2a932baadf4628aabcb8afba49776529c14a6104b282604051612c729190613089565b60405180910390a25050565b5f818152600183016020526040812054612cc357508154600181810184555f8481526020808220909301849055845484825282860190935260409020919091556107d1565b505f6107d1565b612ce46001600160a01b038416631aed5a8560e21b61276b565b156125b257604051631aed5a8560e21b81526001600160a01b03841690636bb56a14906129629085908590600401613fea565b5f6108b6836001600160a01b038416612d36565b5f6108b68383612e19565b5f8181526001830160205260408120548015612e10575f612d58600183613e9b565b85549091505f90612d6b90600190613e9b565b9050818114612dca575f865f018281548110612d8957612d89613df3565b905f5260205f200154905080875f018481548110612da957612da9613df3565b5f918252602080832090910192909255918252600188019052604090208390555b8554869080612ddb57612ddb613eae565b600190038181905f5260205f20015f90559055856001015f8681526020019081526020015f205f9055600193505050506107d1565b5f9150506107d1565b5f825f018281548110612e2e57612e2e613df3565b905f5260205f200154905092915050565b604051806101200160405280606081526020015f81526020015f815260200160608152602001606081526020015f6002811115612e7e57612e7e61387b565b815260408051606080820183525f8083526020808401829052838501829052808601939093528351808301855281815292830181905282840152918301529081015290565b60208152816020820152818360408301375f818301604090810191909152601f909201601f19160101919050565b5f60208284031215612f01575f5ffd5b81356001600160e01b0319811681146108b6575f5ffd5b80356001600160a01b0381168114612f2e575f5ffd5b919050565b5f60208284031215612f43575f5ffd5b6108b682612f18565b634e487b7160e01b5f52604160045260245ffd5b604051601f8201601f191681016001600160401b0381118282101715612f8857612f88612f4c565b604052919050565b5f6001600160401b03821115612fa857612fa8612f4c565b50601f01601f191660200190565b5f82601f830112612fc5575f5ffd5b8135602083015f612fdd612fd884612f90565b612f60565b9050828152858383011115612ff0575f5ffd5b828260208301375f92810160200192909252509392505050565b5f6020828403121561301a575f5ffd5b81356001600160401b0381111561302f575f5ffd5b61272f84828501612fb6565b5f5f6040838503121561304c575f5ffd5b50508035926020909101359150565b5f81518084528060208401602086015e5f602082860101526020601f19601f83011685010191505092915050565b602081525f6108b6602083018461305b565b5f6001600160401b038211156130b3576130b3612f4c565b5060051b60200190565b5f82601f8301126130cc575f5ffd5b81356130da612fd88261309b565b8082825260208201915060208360051b8601019250858311156130fb575f5ffd5b602085015b83811015613118578035835260209283019201613100565b5095945050505050565b5f5f60408385031215613133575f5ffd5b82356001600160401b03811115613148575f5ffd5b613154858286016130bd565b92505060208301356001600160401b0381111561316f575f5ffd5b61317b858286016130bd565b9150509250929050565b5f602082016020835280845180835260408501915060408160051b8601019250602086015f5b828110156131dc57603f198786030184526131c785835161305b565b945060209384019391909101906001016131ab565b50929695505050505050565b5f602082840312156131f8575f5ffd5b5035919050565b5f5f60408385031215613210575f5ffd5b61321983612f18565b946020939093013593505050565b602080825282518282018190525f918401906040840190835b818110156132675783516001600160a01b0316835260209384019390920191600101613240565b509095945050505050565b6003811061085a575f5ffd5b803560ff81168114612f2e575f5ffd5b5f6060828403121561329e575f5ffd5b604051606081016001600160401b03811182821017156132c0576132c0612f4c565b604052905080823561ffff811681146132d7575f5ffd5b81526132e56020840161327e565b60208201526132f66040840161327e565b60408201525092915050565b5f5f5f5f5f5f6101408789031215613318575f5ffd5b8635955060208701356001600160401b03811115613334575f5ffd5b61334089828a01612fb6565b95505060408701356001600160401b0381111561335b575f5ffd5b61336789828a01612fb6565b945050606087013561337881613272565b9250613387886080890161328e565b91506133968860e0890161328e565b90509295509295509295565b80358015158114612f2e575f5ffd5b5f5f5f5f5f60a086880312156133c5575f5ffd5b6133ce86612f18565b94506133dc60208701612f18565b9350604086013592506133f1606087016133a2565b915060808601356001600160401b0381111561340b575f5ffd5b61341788828901612fb6565b9150509295509295909350565b5f5f5f5f5f5f610140878903121561343a575f5ffd5b8635955060208701356001600160401b03811115613456575f5ffd5b61346289828a01612fb6565b95505060408701356001600160401b0381111561347d575f5ffd5b61348989828a01612fb6565b945050613499886060890161328e565b92506134a88860c0890161328e565b91506133966101208801612f18565b5f5f602083850312156134c8575f5ffd5b82356001600160401b038111156134dd575f5ffd5b8301601f810185136134ed575f5ffd5b80356001600160401b03811115613502575f5ffd5b8560208260051b8401011115613516575f5ffd5b6020919091019590945092505050565b5f82601f830112613535575f5ffd5b8135613543612fd88261309b565b8082825260208201915060208360051b860101925085831115613564575f5ffd5b602085015b838110156131185761357a81612f18565b835260209283019201613569565b5f82601f830112613597575f5ffd5b81356135a5612fd88261309b565b8082825260208201915060208360051b8601019250858311156135c6575f5ffd5b602085015b83811015613118576135dc816133a2565b8352602092830192016135cb565b5f82601f8301126135f9575f5ffd5b8135613607612fd88261309b565b8082825260208201915060208360051b860101925085831115613628575f5ffd5b602085015b838110156131185780356001600160401b0381111561364a575f5ffd5b613659886020838a0101612fb6565b8452506020928301920161362d565b5f5f5f5f5f60a0868803121561367c575f5ffd5b85356001600160401b03811115613691575f5ffd5b61369d88828901613526565b95505060208601356001600160401b038111156136b8575f5ffd5b6136c488828901613526565b94505060408601356001600160401b038111156136df575f5ffd5b6136eb888289016130bd565b93505060608601356001600160401b03811115613706575f5ffd5b61371288828901613588565b92505060808601356001600160401b0381111561372d575f5ffd5b613417888289016135ea565b5f5f6040838503121561374a575f5ffd5b8235915060208301356001600160401b03811115613766575f5ffd5b61317b85828601612fb6565b5f5f5f60608486031215613784575f5ffd5b61378d84612f18565b92506020840135915060408401356001600160401b038111156137ae575f5ffd5b6137ba86828701612fb6565b9150509250925092565b5f5f5f5f5f5f5f610160888a0312156137db575f5ffd5b87356001600160401b038111156137f0575f5ffd5b6137fc8a828b01612fb6565b97505060208801356001600160401b03811115613817575f5ffd5b6138238a828b01612fb6565b965050604088013561383481613272565b94506138438960608a0161328e565b93506138528960c08a0161328e565b9250610120880135915061014088013561386b81613272565b8091505092959891949750929550565b634e487b7160e01b5f52602160045260245ffd5b6003811061085a57634e487b7160e01b5f52602160045260245ffd5b5f8151808452602084019350602083015f5b828110156138f157815180516138d28161388f565b87526020908101518188015260409096019591909101906001016138bd565b5093949350505050565b5f8151808452602084019350602083015f5b828110156138f157815180518752602081015161394e602089018261ffff815116825260ff602082015116602083015260ff60408201511660408301525050565b5060400151613981608088018261ffff815116825260ff602082015116602083015260ff60408201511660408301525050565b5060e095909501946020919091019060010161390d565b6139a18161388f565b9052565b602081525f82516101a060208401526139c26101c084018261305b565b905060208401516040840152604084015160608401526060840151601f198483030160808501526139f382826138ab565b9150506080840151601f198483030160a0850152613a1182826138fb565b91505060a0840151613a2660c0850182613998565b5060c0840151805161ffff1660e0850152602081015160ff9081166101008601526040820151166101208501525060e0840151805161ffff16610140850152602081015160ff90811661016086015260408201511661018085015250610100840151838203601f19016101a0850152613a9f828261305b565b95945050505050565b5f5f60408385031215613ab9575f5ffd5b82356001600160401b03811115613ace575f5ffd5b613ada858286016130bd565b92505060208301356001600160401b03811115613af5575f5ffd5b61317b858286016135ea565b602080825282518282018190525f918401906040840190835b81811015613267578351835260209384019390920191600101613b1a565b5f5f5f60608486031215613b4a575f5ffd5b83356001600160401b03811115613b5f575f5ffd5b613b6b868287016130bd565b93505060208401356001600160401b03811115613b86575f5ffd5b613b92868287016130bd565b92505060408401356001600160401b03811115613bad575f5ffd5b6137ba868287016135ea565b5f5f5f60608486031215613bcb575f5ffd5b833592506020840135915060408401356001600160401b038111156137ae575f5ffd5b5f5f5f5f60808587031215613c01575f5ffd5b613c0a85612f18565b935060208501359250613c1f604086016133a2565b915060608501356001600160401b03811115613c39575f5ffd5b613c4587828801612fb6565b91505092959194509250565b5f60208284031215613c61575f5ffd5b81356001600160401b03811115613c76575f5ffd5b61272f848285016130bd565b8385823760609290921b6001600160601b031916919092019081526014810191909152603401919050565b5f82518060208501845e5f920191825250919050565b600181811c90821680613cd757607f821691505b602082108103611d0557634e487b7160e01b5f52602260045260245ffd5b601f8211156125b257805f5260205f20601f840160051c81016020851015613d1a5750805b601f840160051c820191505b81811015610b89575f8155600101613d26565b81516001600160401b03811115613d5257613d52612f4c565b613d6681613d608454613cc3565b84613cf5565b6020601f821160018114613d98575f8315613d815750848201515b5f19600385901b1c1916600184901b178455610b89565b5f84815260208120601f198516915b82811015613dc75787850151825560209485019460019092019101613da7565b5084821015613de457868401515f19600387901b60f8161c191681555b50505050600190811b01905550565b634e487b7160e01b5f52603260045260245ffd5b6020808252600e908201526d139bdd08185d5d1a1bdc9a5e995960921b604082015260600190565b5f5f8335601e19843603018112613e44575f5ffd5b8301803591506001600160401b03821115613e5d575f5ffd5b602001915036819003821315613e71575f5ffd5b9250929050565b818382375f9101908152919050565b634e487b7160e01b5f52601160045260245ffd5b818103818111156107d1576107d1613e87565b634e487b7160e01b5f52603160045260245ffd5b60018060a01b03851681528360208201528215156040820152608060608201525f613ef0608083018461305b565b9695505050505050565b805160208201516001600160601b0319811691906014821015613f41576bffffffffffffffffffffffff196bffffffffffffffffffffffff198360140360031b1b82161692505b5050919050565b6001600160a01b038416815282151560208201526060604082018190525f90613a9f9083018461305b565b6001600160a01b0386811682528581166020830152841660408201526060810183905260a0608082018190525f906127e69083018461305b565b8215158152604060208201525f61272f604083018461305b565b80516020808301519190811015611d05575f1960209190910360031b1b16919050565b828152604060208201525f61272f604083018461305b565b5f60208284031215614012575f5ffd5b81516001600160401b03811115614027575f5ffd5b8201601f81018413614037575f5ffd5b8051614045612fd882612f90565b818152856020838501011115614059575f5ffd5b8160208401602083015e5f91810160200191909152949350505050565b5f6001820161408757614087613e87565b506001019056fea2646970667358221220c13e10214297599382c5c5c83570f1804929a90b0950d2c97d759982374c070c64736f6c634300081f0033",
			"opcodes": "PUSH1 0x80 PUSH1 0x40 MSTORE CALLVALUE DUP1 ISZERO PUSH2 0xF JUMPI PUSH0 PUSH0 REVERT JUMPDEST POP PUSH1 0x40 MLOAD PUSH2 0x4D93 CODESIZE SUB DUP1 PUSH2 0x4D93 DUP4 CODECOPY DUP2 ADD PUSH1 0x40 DUP2 SWAP1 MSTORE PUSH2 0x2E SWAP2 PUSH2 0x953 JUMP JUMPDEST PUSH1 0x40 DUP1 MLOAD DUP1 DUP3 ADD SWAP1 SWAP2 MSTORE PUSH1 0x6 DUP2 MSTORE PUSH6 0x46414D494C59 PUSH1 0xD0 SHL PUSH1 0x20 DUP3 ADD MSTORE DUP8 SWAP1 DUP3 PUSH1 0x2 PUSH0 DUP5 DUP5 DUP5 DUP5 DUP2 PUSH2 0x5F CALLER PUSH2 0x1FD JUMP JUMPDEST PUSH1 0x1 PUSH1 0x1 PUSH1 0xA0 SHL SUB DUP2 AND PUSH2 0x86 JUMPI PUSH1 0x40 MLOAD PUSH4 0x6B620DB PUSH1 0xE2 SHL DUP2 MSTORE PUSH1 0x4 ADD PUSH1 0x40 MLOAD DUP1 SWAP2 SUB SWAP1 REVERT JUMPDEST PUSH2 0x8F DUP2 PUSH2 0x1FD JUMP JUMPDEST POP PUSH1 0x40 DUP1 MLOAD DUP1 DUP3 ADD SWAP1 SWAP2 MSTORE PUSH1 0x4 DUP2 MSTORE PUSH4 0x29365989 PUSH1 0xE2 SHL PUSH1 0x20 DUP3 ADD MSTORE PUSH2 0xD6 SWAP1 PUSH32 0xEAFEC4D89FA9619884B60000A4D96624A38F7AC2D8D9A604ECF07C12C77E480C SWAP1 PUSH2 0x24C JUMP JUMPDEST PUSH2 0x100 PUSH32 0xDEBA1E292F8BA88238E10AB3C7F88BD4BE4FAC56CAD5194B6ECCEAF653468AF1 DUP6 PUSH2 0x24C JUMP JUMPDEST PUSH2 0x12A PUSH32 0x2F0A68AB07768E01943A599E73362A0E17A63A72E94DD2E384D2C1D4DB932756 DUP5 PUSH2 0x24C JUMP JUMPDEST PUSH1 0x40 DUP1 MLOAD PUSH1 0x20 DUP2 ADD DUP4 SWAP1 MSTORE PUSH2 0x171 SWAP2 PUSH32 0xE0261FA95DB2EB3B5439BD033CDA66D56B96F92F243A8228FD87550ED7BDFDB3 SWAP2 ADD PUSH1 0x40 DUP1 MLOAD PUSH1 0x1F NOT DUP2 DUP5 SUB ADD DUP2 MSTORE SWAP2 SWAP1 MSTORE PUSH2 0x24C JUMP JUMPDEST POP POP PUSH1 0x40 DUP1 MLOAD PUSH1 0x20 DUP2 ADD DUP6 SWAP1 MSTORE PUSH2 0x1BC SWAP4 POP PUSH32 0xF675E9361AF1C1664C1868CFA3EB97672D6B1A513AA5B81DEC34C9EE330E818D SWAP3 POP ADD PUSH1 0x40 DUP1 MLOAD PUSH1 0x1F NOT DUP2 DUP5 SUB ADD DUP2 MSTORE SWAP2 SWAP1 MSTORE PUSH2 0x2A0 JUMP JUMPDEST POP POP PUSH1 0x8 DUP1 SLOAD PUSH1 0x1 PUSH1 0x1 PUSH1 0xA0 SHL SUB NOT AND CALLER OR SWAP1 SSTORE POP PUSH1 0x9 SWAP2 POP PUSH2 0x1E1 SWAP1 POP DUP8 DUP3 PUSH2 0xABE JUMP JUMPDEST POP PUSH2 0x1F0 DUP6 DUP6 DUP4 PUSH0 DUP8 DUP8 PUSH2 0x360 JUMP JUMPDEST POP POP POP POP POP POP POP POP PUSH2 0xCC2 JUMP JUMPDEST PUSH0 DUP1 SLOAD PUSH1 0x1 PUSH1 0x1 PUSH1 0xA0 SHL SUB DUP4 DUP2 AND PUSH1 0x1 PUSH1 0x1 PUSH1 0xA0 SHL SUB NOT DUP4 AND DUP2 OR DUP5 SSTORE PUSH1 0x40 MLOAD SWAP2 SWAP1 SWAP3 AND SWAP3 DUP4 SWAP2 PUSH32 0x8BE0079C531659141344CD1FD0A4F28419497F9722A3DAAFE3B4186F6B6457E0 SWAP2 SWAP1 LOG3 POP POP JUMP JUMPDEST PUSH0 DUP3 DUP2 MSTORE PUSH1 0x1 PUSH1 0x20 MSTORE PUSH1 0x40 SWAP1 KECCAK256 PUSH2 0x263 DUP3 DUP3 PUSH2 0xABE JUMP JUMPDEST POP DUP2 PUSH32 0xECE574603820D07BC9B91F2A932BAADF4628AABCB8AFBA49776529C14A6104B2 DUP3 PUSH1 0x40 MLOAD PUSH2 0x294 SWAP2 SWAP1 PUSH2 0xBA6 JUMP JUMPDEST PUSH1 0x40 MLOAD DUP1 SWAP2 SUB SWAP1 LOG2 POP POP JUMP JUMPDEST PUSH32 0x2145E1D6D074577DC71EF54C3807742B41B053A9352AE6B491331509ACB9750F DUP3 ADD PUSH2 0x2E0 JUMPI PUSH1 0x40 MLOAD PUSH4 0x85C169BD PUSH1 0xE0 SHL DUP2 MSTORE PUSH1 0x4 ADD PUSH1 0x40 MLOAD DUP1 SWAP2 SUB SWAP1 REVERT JUMPDEST PUSH32 0xD0F59754F88971FE6BC5A6618CC9D5F1E859C58D16B22D1C7B2D3E2B246CD8AA DUP3 ADD PUSH2 0x320 JUMPI PUSH1 0x40 MLOAD PUSH4 0xECEAB67 PUSH1 0xE3 SHL DUP2 MSTORE PUSH1 0x4 ADD PUSH1 0x40 MLOAD DUP1 SWAP2 SUB SWAP1 REVERT JUMPDEST PUSH32 0x1FD9E056A24D14C4ABC642FCC325992A946906D0DBC57DD70278AAF12842024D DUP3 ADD PUSH2 0x24C JUMPI PUSH1 0x40 MLOAD PUSH4 0x4EF6D7FB PUSH1 0xE0 SHL DUP2 MSTORE PUSH1 0x4 ADD PUSH1 0x40 MLOAD DUP1 SWAP2 SUB SWAP1 REVERT JUMPDEST PUSH0 PUSH2 0x36F PUSH1 0x6 DUP1 SLOAD PUSH1 0x1 ADD SWAP1 SSTORE JUMP JUMPDEST POP PUSH1 0x6 SLOAD PUSH1 0x40 DUP1 MLOAD PUSH1 0x20 DUP2 ADD SWAP1 SWAP2 MSTORE PUSH0 DUP2 MSTORE PUSH2 0x391 SWAP1 DUP7 SWAP1 DUP4 SWAP1 PUSH1 0x1 SWAP1 PUSH2 0x4A1 JUMP JUMPDEST PUSH0 DUP2 DUP2 MSTORE PUSH1 0x7 PUSH1 0x20 MSTORE PUSH1 0x40 SWAP1 KECCAK256 DUP1 PUSH2 0x3A9 DUP10 DUP3 PUSH2 0xABE JUMP JUMPDEST POP DUP4 MLOAD PUSH1 0x6 DUP3 ADD DUP1 SLOAD PUSH1 0x20 DUP1 DUP9 ADD MLOAD PUSH1 0x40 DUP1 DUP11 ADD MLOAD PUSH2 0xFFFF SWAP7 DUP8 AND PUSH3 0xFFFFFF NOT SWAP6 DUP7 AND OR PUSH3 0x10000 PUSH1 0xFF SWAP5 DUP6 AND DUP2 MUL SWAP2 SWAP1 SWAP2 OR PUSH4 0xFF000000 NOT SWAP1 DUP2 AND PUSH4 0x1000000 SWAP4 DUP7 AND DUP5 MUL OR SWAP1 SWAP8 SSTORE DUP11 MLOAD PUSH1 0x7 DUP11 ADD DUP1 SLOAD SWAP7 DUP14 ADD MLOAD SWAP5 DUP14 ADD MLOAD SWAP2 SWAP1 SWAP10 AND SWAP6 SWAP1 SWAP7 AND SWAP5 SWAP1 SWAP5 OR SWAP2 DUP4 AND SWAP1 SWAP4 MUL OR SWAP1 SWAP4 AND SWAP2 SWAP1 SWAP3 AND SWAP1 SWAP2 MUL OR SWAP1 SSTORE PUSH1 0x5 DUP2 ADD DUP1 SLOAD DUP7 SWAP2 SWAP1 PUSH1 0xFF NOT AND PUSH1 0x1 DUP4 PUSH1 0x2 DUP2 GT ISZERO PUSH2 0x444 JUMPI PUSH2 0x444 PUSH2 0xBB8 JUMP JUMPDEST MUL OR SWAP1 SSTORE POP PUSH1 0x8 DUP2 ADD PUSH2 0x457 DUP9 DUP3 PUSH2 0xABE JUMP JUMPDEST POP PUSH1 0x40 MLOAD PUSH1 0x1 PUSH1 0x1 PUSH1 0xA0 SHL SUB DUP8 AND DUP2 MSTORE DUP3 SWAP1 PUSH32 0xA6912C28A8CB5FC5CAB504E471CFA6BC504444025484D810E2565BC7DEAD6657 SWAP1 PUSH1 0x20 ADD PUSH1 0x40 MLOAD DUP1 SWAP2 SUB SWAP1 LOG2 POP SWAP7 SWAP6 POP POP POP POP POP POP JUMP JUMPDEST PUSH1 0x1 PUSH1 0x1 PUSH1 0xA0 SHL SUB DUP5 AND PUSH2 0x4C8 JUMPI PUSH1 0x40 MLOAD PUSH4 0x24ECEF4D PUSH1 0xE0 SHL DUP2 MSTORE PUSH1 0x4 ADD PUSH1 0x40 MLOAD DUP1 SWAP2 SUB SWAP1 REVERT JUMPDEST PUSH0 DUP4 DUP2 MSTORE PUSH1 0x3 PUSH1 0x20 MSTORE PUSH1 0x40 SWAP1 KECCAK256 SLOAD PUSH1 0x1 PUSH1 0x1 PUSH1 0xA0 SHL SUB AND ISZERO PUSH2 0x505 JUMPI PUSH1 0x40 MLOAD PUSH4 0x34C7B511 PUSH1 0xE0 SHL DUP2 MSTORE PUSH1 0x4 DUP2 ADD DUP5 SWAP1 MSTORE PUSH1 0x24 ADD JUMPDEST PUSH1 0x40 MLOAD DUP1 SWAP2 SUB SWAP1 REVERT JUMPDEST PUSH0 DUP4 DUP2 MSTORE PUSH1 0x3 PUSH1 0x20 MSTORE PUSH1 0x40 SWAP1 KECCAK256 SLOAD PUSH1 0x1 PUSH1 0x1 PUSH1 0xA0 SHL SUB AND ISZERO PUSH2 0x53D JUMPI PUSH1 0x40 MLOAD PUSH4 0x34C7B511 PUSH1 0xE0 SHL DUP2 MSTORE PUSH1 0x4 DUP2 ADD DUP5 SWAP1 MSTORE PUSH1 0x24 ADD PUSH2 0x4FC JUMP JUMPDEST PUSH1 0x2 PUSH0 DUP2 SLOAD PUSH2 0x54B SWAP1 PUSH2 0xBCC JUMP JUMPDEST SWAP1 SWAP2 SSTORE POP PUSH1 0x1 PUSH1 0x1 PUSH1 0xA0 SHL SUB DUP5 AND PUSH0 SWAP1 DUP2 MSTORE PUSH1 0x4 PUSH1 0x20 MSTORE PUSH1 0x40 SWAP1 KECCAK256 PUSH2 0x570 SWAP1 DUP5 PUSH2 0x617 JUMP JUMPDEST POP PUSH0 DUP4 DUP2 MSTORE PUSH1 0x3 PUSH1 0x20 MSTORE PUSH1 0x40 DUP1 DUP3 KECCAK256 DUP1 SLOAD PUSH1 0x1 PUSH1 0x1 PUSH1 0xA0 SHL SUB NOT AND PUSH1 0x1 PUSH1 0x1 PUSH1 0xA0 SHL SUB DUP9 AND SWAP1 DUP2 OR SWAP1 SWAP2 SSTORE SWAP1 MLOAD DUP6 SWAP3 SWAP1 PUSH32 0xB333C813A7426A7A11E2B190CAD52C44119421594B47F6F32ACE6D8C7207B2BF SWAP1 PUSH2 0x5D1 SWAP1 CALLER SWAP1 DUP9 SWAP1 DUP9 SWAP1 PUSH2 0xBF0 JUMP JUMPDEST PUSH1 0x40 MLOAD DUP1 SWAP2 SUB SWAP1 LOG4 PUSH0 CALLER PUSH0 DUP7 DUP7 DUP6 PUSH1 0x40 MLOAD PUSH1 0x20 ADD PUSH2 0x5F3 SWAP6 SWAP5 SWAP4 SWAP3 SWAP2 SWAP1 PUSH2 0xC24 JUMP JUMPDEST PUSH1 0x40 DUP1 MLOAD PUSH1 0x1F NOT DUP2 DUP5 SUB ADD DUP2 MSTORE SWAP2 SWAP1 MSTORE SWAP1 POP PUSH2 0x610 DUP6 DUP5 DUP4 PUSH2 0x62B JUMP JUMPDEST POP POP POP POP POP JUMP JUMPDEST PUSH0 PUSH2 0x622 DUP4 DUP4 PUSH2 0x739 JUMP JUMPDEST SWAP1 POP JUMPDEST SWAP3 SWAP2 POP POP JUMP JUMPDEST PUSH2 0x63C DUP4 PUSH4 0x1AED5A85 PUSH1 0xE2 SHL PUSH2 0x785 JUMP JUMPDEST ISZERO PUSH2 0x6D7 JUMPI PUSH1 0x40 MLOAD PUSH4 0x1AED5A85 PUSH1 0xE2 SHL DUP2 MSTORE PUSH1 0x1 PUSH1 0x1 PUSH1 0xA0 SHL SUB DUP5 AND SWAP1 PUSH4 0x6BB56A14 SWAP1 PUSH2 0x68F SWAP1 PUSH32 0xB084A55EBF70FD3C06FD755269DAC2212C4D3F0F4D09079780BFA50C1B2984D SWAP1 DUP6 SWAP1 PUSH1 0x4 ADD PUSH2 0xC5E JUMP JUMPDEST PUSH0 PUSH1 0x40 MLOAD DUP1 DUP4 SUB DUP2 PUSH0 DUP8 GAS CALL ISZERO DUP1 ISZERO PUSH2 0x6AA JUMPI RETURNDATASIZE PUSH0 PUSH0 RETURNDATACOPY RETURNDATASIZE PUSH0 REVERT JUMPDEST POP POP POP POP PUSH1 0x40 MLOAD RETURNDATASIZE PUSH0 DUP3 RETURNDATACOPY PUSH1 0x1F RETURNDATASIZE SWAP1 DUP2 ADD PUSH1 0x1F NOT AND DUP3 ADD PUSH1 0x40 MSTORE PUSH2 0x6D1 SWAP2 SWAP1 DUP2 ADD SWAP1 PUSH2 0xC7E JUMP JUMPDEST POP POP POP POP JUMP JUMPDEST DUP2 PUSH2 0x734 JUMPI PUSH1 0x1 PUSH1 0x1 PUSH1 0xA0 SHL SUB DUP4 AND EXTCODESIZE ISZERO PUSH2 0x710 JUMPI PUSH1 0x40 MLOAD PUSH4 0x4349776D PUSH1 0xE0 SHL DUP2 MSTORE PUSH1 0x1 PUSH1 0x1 PUSH1 0xA0 SHL SUB DUP5 AND PUSH1 0x4 DUP3 ADD MSTORE PUSH1 0x24 ADD PUSH2 0x4FC JUMP JUMPDEST PUSH1 0x40 MLOAD PUSH4 0x3173137 PUSH1 0xE0 SHL DUP2 MSTORE PUSH1 0x1 PUSH1 0x1 PUSH1 0xA0 SHL SUB DUP5 AND PUSH1 0x4 DUP3 ADD MSTORE PUSH1 0x24 ADD PUSH2 0x4FC JUMP JUMPDEST POP POP POP JUMP JUMPDEST PUSH0 DUP2 DUP2 MSTORE PUSH1 0x1 DUP4 ADD PUSH1 0x20 MSTORE PUSH1 0x40 DUP2 KECCAK256 SLOAD PUSH2 0x77E JUMPI POP DUP2 SLOAD PUSH1 0x1 DUP2 DUP2 ADD DUP5 SSTORE PUSH0 DUP5 DUP2 MSTORE PUSH1 0x20 DUP1 DUP3 KECCAK256 SWAP1 SWAP4 ADD DUP5 SWAP1 SSTORE DUP5 SLOAD DUP5 DUP3 MSTORE DUP3 DUP7 ADD SWAP1 SWAP4 MSTORE PUSH1 0x40 SWAP1 KECCAK256 SWAP2 SWAP1 SWAP2 SSTORE PUSH2 0x625 JUMP JUMPDEST POP PUSH0 PUSH2 0x625 JUMP JUMPDEST PUSH1 0x40 DUP1 MLOAD PUSH1 0x1 PUSH1 0x1 PUSH1 0xE0 SHL SUB NOT DUP4 AND PUSH1 0x24 DUP1 DUP4 ADD SWAP2 SWAP1 SWAP2 MSTORE DUP3 MLOAD DUP1 DUP4 SUB SWAP1 SWAP2 ADD DUP2 MSTORE PUSH1 0x44 SWAP1 SWAP2 ADD SWAP1 SWAP2 MSTORE PUSH1 0x20 DUP1 DUP3 ADD DUP1 MLOAD PUSH1 0x1 PUSH1 0x1 PUSH1 0xE0 SHL SUB AND PUSH4 0x1FFC9A7 PUSH1 0xE0 SHL OR DUP2 MSTORE DUP3 MLOAD PUSH0 SWAP4 SWAP3 DUP5 SWAP3 DUP4 SWAP3 DUP4 SWAP3 SWAP2 DUP4 SWAP2 SWAP1 DUP11 PUSH2 0x7530 STATICCALL SWAP3 POP RETURNDATASIZE SWAP2 POP PUSH0 MLOAD SWAP1 POP DUP3 DUP1 ISZERO PUSH2 0x7F5 JUMPI POP PUSH1 0x20 DUP3 LT ISZERO JUMPDEST DUP1 ISZERO PUSH2 0x800 JUMPI POP PUSH0 DUP2 GT JUMPDEST SWAP8 SWAP7 POP POP POP POP POP POP POP JUMP JUMPDEST PUSH4 0x4E487B71 PUSH1 0xE0 SHL PUSH0 MSTORE PUSH1 0x41 PUSH1 0x4 MSTORE PUSH1 0x24 PUSH0 REVERT JUMPDEST PUSH0 DUP1 PUSH1 0x1 PUSH1 0x1 PUSH1 0x40 SHL SUB DUP5 GT ISZERO PUSH2 0x838 JUMPI PUSH2 0x838 PUSH2 0x80B JUMP JUMPDEST POP PUSH1 0x40 MLOAD PUSH1 0x1F NOT PUSH1 0x1F DUP6 ADD DUP2 AND PUSH1 0x3F ADD AND DUP2 ADD DUP2 DUP2 LT PUSH1 0x1 PUSH1 0x1 PUSH1 0x40 SHL SUB DUP3 GT OR ISZERO PUSH2 0x866 JUMPI PUSH2 0x866 PUSH2 0x80B JUMP JUMPDEST PUSH1 0x40 MSTORE DUP4 DUP2 MSTORE SWAP1 POP DUP1 DUP3 DUP5 ADD DUP6 LT ISZERO PUSH2 0x87D JUMPI PUSH0 PUSH0 REVERT JUMPDEST DUP4 DUP4 PUSH1 0x20 DUP4 ADD MCOPY PUSH0 PUSH1 0x20 DUP6 DUP4 ADD ADD MSTORE POP SWAP4 SWAP3 POP POP POP JUMP JUMPDEST PUSH0 DUP3 PUSH1 0x1F DUP4 ADD SLT PUSH2 0x8A3 JUMPI PUSH0 PUSH0 REVERT JUMPDEST PUSH2 0x622 DUP4 DUP4 MLOAD PUSH1 0x20 DUP6 ADD PUSH2 0x81F JUMP JUMPDEST DUP1 MLOAD PUSH1 0xFF DUP2 AND DUP2 EQ PUSH2 0x8C2 JUMPI PUSH0 PUSH0 REVERT JUMPDEST SWAP2 SWAP1 POP JUMP JUMPDEST PUSH0 PUSH1 0x60 DUP3 DUP5 SUB SLT ISZERO PUSH2 0x8D7 JUMPI PUSH0 PUSH0 REVERT JUMPDEST PUSH1 0x40 MLOAD PUSH1 0x60 DUP2 ADD PUSH1 0x1 PUSH1 0x1 PUSH1 0x40 SHL SUB DUP2 GT DUP3 DUP3 LT OR ISZERO PUSH2 0x8F9 JUMPI PUSH2 0x8F9 PUSH2 0x80B JUMP JUMPDEST DUP1 PUSH1 0x40 MSTORE POP DUP1 SWAP2 POP DUP3 MLOAD PUSH2 0xFFFF DUP2 AND DUP2 EQ PUSH2 0x912 JUMPI PUSH0 PUSH0 REVERT JUMPDEST DUP2 MSTORE PUSH2 0x920 PUSH1 0x20 DUP5 ADD PUSH2 0x8B2 JUMP JUMPDEST PUSH1 0x20 DUP3 ADD MSTORE PUSH2 0x931 PUSH1 0x40 DUP5 ADD PUSH2 0x8B2 JUMP JUMPDEST PUSH1 0x40 DUP3 ADD MSTORE POP SWAP3 SWAP2 POP POP JUMP JUMPDEST DUP1 MLOAD PUSH1 0x1 PUSH1 0x1 PUSH1 0xA0 SHL SUB DUP2 AND DUP2 EQ PUSH2 0x8C2 JUMPI PUSH0 PUSH0 REVERT JUMPDEST PUSH0 PUSH0 PUSH0 PUSH0 PUSH0 PUSH0 PUSH0 PUSH2 0x160 DUP9 DUP11 SUB SLT ISZERO PUSH2 0x96A JUMPI PUSH0 PUSH0 REVERT JUMPDEST DUP8 MLOAD PUSH1 0x1 PUSH1 0x1 PUSH1 0x40 SHL SUB DUP2 GT ISZERO PUSH2 0x97F JUMPI PUSH0 PUSH0 REVERT JUMPDEST PUSH2 0x98B DUP11 DUP3 DUP12 ADD PUSH2 0x894 JUMP JUMPDEST PUSH1 0x20 DUP11 ADD MLOAD SWAP1 SWAP9 POP SWAP1 POP PUSH1 0x1 PUSH1 0x1 PUSH1 0x40 SHL SUB DUP2 GT ISZERO PUSH2 0x9A8 JUMPI PUSH0 PUSH0 REVERT JUMPDEST PUSH2 0x9B4 DUP11 DUP3 DUP12 ADD PUSH2 0x894 JUMP JUMPDEST PUSH1 0x40 DUP11 ADD MLOAD SWAP1 SWAP8 POP SWAP1 POP PUSH1 0x1 PUSH1 0x1 PUSH1 0x40 SHL SUB DUP2 GT ISZERO PUSH2 0x9D1 JUMPI PUSH0 PUSH0 REVERT JUMPDEST PUSH2 0x9DD DUP11 DUP3 DUP12 ADD PUSH2 0x894 JUMP JUMPDEST PUSH1 0x60 DUP11 ADD MLOAD SWAP1 SWAP7 POP SWAP1 POP PUSH1 0x1 PUSH1 0x1 PUSH1 0x40 SHL SUB DUP2 GT ISZERO PUSH2 0x9FA JUMPI PUSH0 PUSH0 REVERT JUMPDEST PUSH2 0xA06 DUP11 DUP3 DUP12 ADD PUSH2 0x894 JUMP JUMPDEST SWAP5 POP POP PUSH2 0xA16 DUP10 PUSH1 0x80 DUP11 ADD PUSH2 0x8C7 JUMP JUMPDEST SWAP3 POP PUSH2 0xA25 DUP10 PUSH1 0xE0 DUP11 ADD PUSH2 0x8C7 JUMP JUMPDEST SWAP2 POP PUSH2 0xA34 PUSH2 0x140 DUP10 ADD PUSH2 0x93D JUMP JUMPDEST SWAP1 POP SWAP3 SWAP6 SWAP9 SWAP2 SWAP5 SWAP8 POP SWAP3 SWAP6 POP JUMP JUMPDEST PUSH1 0x1 DUP2 DUP2 SHR SWAP1 DUP3 AND DUP1 PUSH2 0xA56 JUMPI PUSH1 0x7F DUP3 AND SWAP2 POP JUMPDEST PUSH1 0x20 DUP3 LT DUP2 SUB PUSH2 0xA74 JUMPI PUSH4 0x4E487B71 PUSH1 0xE0 SHL PUSH0 MSTORE PUSH1 0x22 PUSH1 0x4 MSTORE PUSH1 0x24 PUSH0 REVERT JUMPDEST POP SWAP2 SWAP1 POP JUMP JUMPDEST PUSH1 0x1F DUP3 GT ISZERO PUSH2 0x734 JUMPI DUP1 PUSH0 MSTORE PUSH1 0x20 PUSH0 KECCAK256 PUSH1 0x1F DUP5 ADD PUSH1 0x5 SHR DUP2 ADD PUSH1 0x20 DUP6 LT ISZERO PUSH2 0xA9F JUMPI POP DUP1 JUMPDEST PUSH1 0x1F DUP5 ADD PUSH1 0x5 SHR DUP3 ADD SWAP2 POP JUMPDEST DUP2 DUP2 LT ISZERO PUSH2 0x610 JUMPI PUSH0 DUP2 SSTORE PUSH1 0x1 ADD PUSH2 0xAAB JUMP JUMPDEST DUP2 MLOAD PUSH1 0x1 PUSH1 0x1 PUSH1 0x40 SHL SUB DUP2 GT ISZERO PUSH2 0xAD7 JUMPI PUSH2 0xAD7 PUSH2 0x80B JUMP JUMPDEST PUSH2 0xAEB DUP2 PUSH2 0xAE5 DUP5 SLOAD PUSH2 0xA42 JUMP JUMPDEST DUP5 PUSH2 0xA7A JUMP JUMPDEST PUSH1 0x20 PUSH1 0x1F DUP3 GT PUSH1 0x1 DUP2 EQ PUSH2 0xB1D JUMPI PUSH0 DUP4 ISZERO PUSH2 0xB06 JUMPI POP DUP5 DUP3 ADD MLOAD JUMPDEST PUSH0 NOT PUSH1 0x3 DUP6 SWAP1 SHL SHR NOT AND PUSH1 0x1 DUP5 SWAP1 SHL OR DUP5 SSTORE PUSH2 0x610 JUMP JUMPDEST PUSH0 DUP5 DUP2 MSTORE PUSH1 0x20 DUP2 KECCAK256 PUSH1 0x1F NOT DUP6 AND SWAP2 JUMPDEST DUP3 DUP2 LT ISZERO PUSH2 0xB4C JUMPI DUP8 DUP6 ADD MLOAD DUP3 SSTORE PUSH1 0x20 SWAP5 DUP6 ADD SWAP5 PUSH1 0x1 SWAP1 SWAP3 ADD SWAP2 ADD PUSH2 0xB2C JUMP JUMPDEST POP DUP5 DUP3 LT ISZERO PUSH2 0xB69 JUMPI DUP7 DUP5 ADD MLOAD PUSH0 NOT PUSH1 0x3 DUP8 SWAP1 SHL PUSH1 0xF8 AND SHR NOT AND DUP2 SSTORE JUMPDEST POP POP POP POP PUSH1 0x1 SWAP1 DUP2 SHL ADD SWAP1 SSTORE POP JUMP JUMPDEST PUSH0 DUP2 MLOAD DUP1 DUP5 MSTORE DUP1 PUSH1 0x20 DUP5 ADD PUSH1 0x20 DUP7 ADD MCOPY PUSH0 PUSH1 0x20 DUP3 DUP7 ADD ADD MSTORE PUSH1 0x20 PUSH1 0x1F NOT PUSH1 0x1F DUP4 ADD AND DUP6 ADD ADD SWAP2 POP POP SWAP3 SWAP2 POP POP JUMP JUMPDEST PUSH1 0x20 DUP2 MSTORE PUSH0 PUSH2 0x622 PUSH1 0x20 DUP4 ADD DUP5 PUSH2 0xB78 JUMP JUMPDEST PUSH4 0x4E487B71 PUSH1 0xE0 SHL PUSH0 MSTORE PUSH1 0x21 PUSH1 0x4 MSTORE PUSH1 0x24 PUSH0 REVERT JUMPDEST PUSH0 PUSH1 0x1 DUP3 ADD PUSH2 0xBE9 JUMPI PUSH4 0x4E487B71 PUSH1 0xE0 SHL PUSH0 MSTORE PUSH1 0x11 PUSH1 0x4 MSTORE PUSH1 0x24 PUSH0 REVERT JUMPDEST POP PUSH1 0x1 ADD SWAP1 JUMP JUMPDEST PUSH1 0x1 PUSH1 0x1 PUSH1 0xA0 SHL SUB DUP5 AND DUP2 MSTORE DUP3 ISZERO ISZERO PUSH1 0x20 DUP3 ADD MSTORE PUSH1 0x60 PUSH1 0x40 DUP3 ADD DUP2 SWAP1 MSTORE PUSH0 SWAP1 PUSH2 0xC1B SWAP1 DUP4 ADD DUP5 PUSH2 0xB78 JUMP JUMPDEST SWAP6 SWAP5 POP POP POP POP POP JUMP JUMPDEST PUSH1 0x1 PUSH1 0x1 PUSH1 0xA0 SHL SUB DUP7 DUP2 AND DUP3 MSTORE DUP6 DUP2 AND PUSH1 0x20 DUP4 ADD MSTORE DUP5 AND PUSH1 0x40 DUP3 ADD MSTORE PUSH1 0x60 DUP2 ADD DUP4 SWAP1 MSTORE PUSH1 0xA0 PUSH1 0x80 DUP3 ADD DUP2 SWAP1 MSTORE PUSH0 SWAP1 PUSH2 0x800 SWAP1 DUP4 ADD DUP5 PUSH2 0xB78 JUMP JUMPDEST DUP3 DUP2 MSTORE PUSH1 0x40 PUSH1 0x20 DUP3 ADD MSTORE PUSH0 PUSH2 0xC76 PUSH1 0x40 DUP4 ADD DUP5 PUSH2 0xB78 JUMP JUMPDEST SWAP5 SWAP4 POP POP POP POP JUMP JUMPDEST PUSH0 PUSH1 0x20 DUP3 DUP5 SUB SLT ISZERO PUSH2 0xC8E JUMPI PUSH0 PUSH0 REVERT JUMPDEST DUP2 MLOAD PUSH1 0x1 PUSH1 0x1 PUSH1 0x40 SHL SUB DUP2 GT ISZERO PUSH2 0xCA3 JUMPI PUSH0 PUSH0 REVERT JUMPDEST DUP3 ADD PUSH1 0x1F DUP2 ADD DUP5 SGT PUSH2 0xCB3 JUMPI PUSH0 PUSH0 REVERT JUMPDEST PUSH2 0xC76 DUP5 DUP3 MLOAD PUSH1 0x20 DUP5 ADD PUSH2 0x81F JUMP JUMPDEST PUSH2 0x40C4 DUP1 PUSH2 0xCCF PUSH0 CODECOPY PUSH0 RETURN INVALID PUSH1 0x80 PUSH1 0x40 MSTORE PUSH1 0x4 CALLDATASIZE LT PUSH2 0x1FC JUMPI PUSH0 CALLDATALOAD PUSH1 0xE0 SHR DUP1 PUSH4 0x78495BF8 GT PUSH2 0x10C JUMPI DUP1 PUSH4 0x92B88F06 GT PUSH2 0x9F JUMPI DUP1 PUSH4 0xD6C1407C GT PUSH2 0x6E JUMPI DUP1 PUSH4 0xD6C1407C EQ PUSH2 0x658 JUMPI DUP1 PUSH4 0xDB8C9663 EQ PUSH2 0x677 JUMPI DUP1 PUSH4 0xDEDFF9C6 EQ PUSH2 0x696 JUMPI DUP1 PUSH4 0xE4AC8DBD EQ PUSH2 0x6B5 JUMPI DUP1 PUSH4 0xF2FDE38B EQ PUSH2 0x6C9 JUMPI PUSH2 0x255 JUMP JUMPDEST DUP1 PUSH4 0x92B88F06 EQ PUSH2 0x5CE JUMPI DUP1 PUSH4 0x97902421 EQ PUSH2 0x5FA JUMPI DUP1 PUSH4 0xA3B261F2 EQ PUSH2 0x60D JUMPI DUP1 PUSH4 0xBE9F0E6F EQ PUSH2 0x639 JUMPI PUSH2 0x255 JUMP JUMPDEST DUP1 PUSH4 0x86A10DDD GT PUSH2 0xDB JUMPI DUP1 PUSH4 0x86A10DDD EQ PUSH2 0x555 JUMPI DUP1 PUSH4 0x8DA5CB5B EQ PUSH2 0x574 JUMPI DUP1 PUSH4 0x8F81ECFC EQ PUSH2 0x590 JUMPI DUP1 PUSH4 0x90B8F861 EQ PUSH2 0x5AF JUMPI PUSH2 0x255 JUMP JUMPDEST DUP1 PUSH4 0x78495BF8 EQ PUSH2 0x4EE JUMPI DUP1 PUSH4 0x7E87632C EQ PUSH2 0x504 JUMPI DUP1 PUSH4 0x7E913B05 EQ PUSH2 0x523 JUMPI DUP1 PUSH4 0x7F23690C EQ PUSH2 0x542 JUMPI PUSH2 0x255 JUMP JUMPDEST DUP1 PUSH4 0x2A3654A4 GT PUSH2 0x18F JUMPI DUP1 PUSH4 0x54F6127F GT PUSH2 0x15E JUMPI DUP1 PUSH4 0x54F6127F EQ PUSH2 0x45E JUMPI DUP1 PUSH4 0x65758C04 EQ PUSH2 0x47D JUMPI DUP1 PUSH4 0x6963D438 EQ PUSH2 0x49C JUMPI DUP1 PUSH4 0x70A08231 EQ PUSH2 0x4BB JUMPI DUP1 PUSH4 0x715018A6 EQ PUSH2 0x4DA JUMPI PUSH2 0x255 JUMP JUMPDEST DUP1 PUSH4 0x2A3654A4 EQ PUSH2 0x3D5 JUMPI DUP1 PUSH4 0x49A6078D EQ PUSH2 0x3F4 JUMPI DUP1 PUSH4 0x49FC5686 EQ PUSH2 0x420 JUMPI DUP1 PUSH4 0x511B6952 EQ PUSH2 0x43F JUMPI PUSH2 0x255 JUMP JUMPDEST DUP1 PUSH4 0x18160DDD GT PUSH2 0x1CB JUMPI DUP1 PUSH4 0x18160DDD EQ PUSH2 0x335 JUMPI DUP1 PUSH4 0x1D26FCE6 EQ PUSH2 0x353 JUMPI DUP1 PUSH4 0x1F121708 EQ PUSH2 0x37F JUMPI DUP1 PUSH4 0x217B2270 EQ PUSH2 0x3B6 JUMPI PUSH2 0x255 JUMP JUMPDEST DUP1 PUSH4 0x1FFC9A7 EQ PUSH2 0x295 JUMPI DUP1 PUSH4 0x2154B4E EQ PUSH2 0x2C9 JUMPI DUP1 PUSH4 0xCFA4650 EQ PUSH2 0x2EA JUMPI DUP1 PUSH4 0x16E023B3 EQ PUSH2 0x309 JUMPI PUSH2 0x255 JUMP JUMPDEST CALLDATASIZE PUSH2 0x255 JUMPI CALLVALUE PUSH0 SUB PUSH2 0x23C JUMPI PUSH1 0x40 MLOAD PUSH4 0xE5099EE3 PUSH1 0xE0 SHL DUP2 MSTORE PUSH1 0x4 ADD PUSH2 0x233 SWAP1 PUSH1 0x20 DUP1 DUP3 MSTORE PUSH1 0x4 SWAP1 DUP3 ADD MSTORE PUSH0 PUSH1 0x40 DUP3 ADD MSTORE PUSH1 0x60 ADD SWAP1 JUMP JUMPDEST PUSH1 0x40 MLOAD DUP1 SWAP2 SUB SWAP1 REVERT JUMPDEST PUSH1 0x40 MLOAD PUSH4 0x30FA4A21 PUSH1 0xE1 SHL DUP2 MSTORE PUSH1 0x4 ADD PUSH1 0x40 MLOAD DUP1 SWAP2 SUB SWAP1 REVERT JUMPDEST PUSH0 CALLDATASIZE PUSH1 0x60 PUSH1 0x4 DUP3 LT ISZERO PUSH2 0x27F JUMPI DUP3 DUP3 PUSH1 0x40 MLOAD PUSH4 0xE5099EE3 PUSH1 0xE0 SHL DUP2 MSTORE PUSH1 0x4 ADD PUSH2 0x233 SWAP3 SWAP2 SWAP1 PUSH2 0x2EC3 JUMP JUMPDEST PUSH2 0x289 DUP4 DUP4 PUSH2 0x6E8 JUMP JUMPDEST DUP1 MLOAD SWAP4 POP PUSH1 0x20 ADD SWAP2 POP POP RETURN JUMPDEST CALLVALUE DUP1 ISZERO PUSH2 0x2A0 JUMPI PUSH0 PUSH0 REVERT JUMPDEST POP PUSH2 0x2B4 PUSH2 0x2AF CALLDATASIZE PUSH1 0x4 PUSH2 0x2EF1 JUMP JUMPDEST PUSH2 0x7D7 JUMP JUMPDEST PUSH1 0x40 MLOAD SWAP1 ISZERO ISZERO DUP2 MSTORE PUSH1 0x20 ADD JUMPDEST PUSH1 0x40 MLOAD DUP1 SWAP2 SUB SWAP1 RETURN JUMPDEST CALLVALUE DUP1 ISZERO PUSH2 0x2D4 JUMPI PUSH0 PUSH0 REVERT JUMPDEST POP PUSH2 0x2E8 PUSH2 0x2E3 CALLDATASIZE PUSH1 0x4 PUSH2 0x2F33 JUMP JUMPDEST PUSH2 0x80A JUMP JUMPDEST STOP JUMPDEST CALLVALUE DUP1 ISZERO PUSH2 0x2F5 JUMPI PUSH0 PUSH0 REVERT JUMPDEST POP PUSH2 0x2E8 PUSH2 0x304 CALLDATASIZE PUSH1 0x4 PUSH2 0x300A JUMP JUMPDEST PUSH2 0x85D JUMP JUMPDEST CALLVALUE DUP1 ISZERO PUSH2 0x314 JUMPI PUSH0 PUSH0 REVERT JUMPDEST POP PUSH2 0x328 PUSH2 0x323 CALLDATASIZE PUSH1 0x4 PUSH2 0x303B JUMP JUMPDEST PUSH2 0x8AA JUMP JUMPDEST PUSH1 0x40 MLOAD PUSH2 0x2C0 SWAP2 SWAP1 PUSH2 0x3089 JUMP JUMPDEST CALLVALUE DUP1 ISZERO PUSH2 0x340 JUMPI PUSH0 PUSH0 REVERT JUMPDEST POP PUSH1 0x2 SLOAD JUMPDEST PUSH1 0x40 MLOAD SWAP1 DUP2 MSTORE PUSH1 0x20 ADD PUSH2 0x2C0 JUMP JUMPDEST CALLVALUE DUP1 ISZERO PUSH2 0x35E JUMPI PUSH0 PUSH0 REVERT JUMPDEST POP PUSH2 0x372 PUSH2 0x36D CALLDATASIZE PUSH1 0x4 PUSH2 0x3122 JUMP JUMPDEST PUSH2 0x8BD JUMP JUMPDEST PUSH1 0x40 MLOAD PUSH2 0x2C0 SWAP2 SWAP1 PUSH2 0x3185 JUMP JUMPDEST CALLVALUE DUP1 ISZERO PUSH2 0x38A JUMPI PUSH0 PUSH0 REVERT JUMPDEST POP PUSH1 0x8 SLOAD PUSH2 0x39E SWAP1 PUSH1 0x1 PUSH1 0x1 PUSH1 0xA0 SHL SUB AND DUP2 JUMP JUMPDEST PUSH1 0x40 MLOAD PUSH1 0x1 PUSH1 0x1 PUSH1 0xA0 SHL SUB SWAP1 SWAP2 AND DUP2 MSTORE PUSH1 0x20 ADD PUSH2 0x2C0 JUMP JUMPDEST CALLVALUE DUP1 ISZERO PUSH2 0x3C1 JUMPI PUSH0 PUSH0 REVERT JUMPDEST POP PUSH2 0x39E PUSH2 0x3D0 CALLDATASIZE PUSH1 0x4 PUSH2 0x31E8 JUMP JUMPDEST PUSH2 0x9A3 JUMP JUMPDEST CALLVALUE DUP1 ISZERO PUSH2 0x3E0 JUMPI PUSH0 PUSH0 REVERT JUMPDEST POP PUSH2 0x2B4 PUSH2 0x3EF CALLDATASIZE PUSH1 0x4 PUSH2 0x31FF JUMP JUMPDEST PUSH2 0x9DB JUMP JUMPDEST CALLVALUE DUP1 ISZERO PUSH2 0x3FF JUMPI PUSH0 PUSH0 REVERT JUMPDEST POP PUSH2 0x413 PUSH2 0x40E CALLDATASIZE PUSH1 0x4 PUSH2 0x31E8 JUMP JUMPDEST PUSH2 0x9E6 JUMP JUMPDEST PUSH1 0x40 MLOAD PUSH2 0x2C0 SWAP2 SWAP1 PUSH2 0x3227 JUMP JUMPDEST CALLVALUE DUP1 ISZERO PUSH2 0x42B JUMPI PUSH0 PUSH0 REVERT JUMPDEST POP PUSH2 0x2E8 PUSH2 0x43A CALLDATASIZE PUSH1 0x4 PUSH2 0x3302 JUMP JUMPDEST PUSH2 0xA07 JUMP JUMPDEST CALLVALUE DUP1 ISZERO PUSH2 0x44A JUMPI PUSH0 PUSH0 REVERT JUMPDEST POP PUSH2 0x2E8 PUSH2 0x459 CALLDATASIZE PUSH1 0x4 PUSH2 0x33B1 JUMP JUMPDEST PUSH2 0xB4C JUMP JUMPDEST CALLVALUE DUP1 ISZERO PUSH2 0x469 JUMPI PUSH0 PUSH0 REVERT JUMPDEST POP PUSH2 0x328 PUSH2 0x478 CALLDATASIZE PUSH1 0x4 PUSH2 0x31E8 JUMP JUMPDEST PUSH2 0xB90 JUMP JUMPDEST CALLVALUE DUP1 ISZERO PUSH2 0x488 JUMPI PUSH0 PUSH0 REVERT JUMPDEST POP PUSH2 0x2E8 PUSH2 0x497 CALLDATASIZE PUSH1 0x4 PUSH2 0x3424 JUMP JUMPDEST PUSH2 0xB9B JUMP JUMPDEST CALLVALUE DUP1 ISZERO PUSH2 0x4A7 JUMPI PUSH0 PUSH0 REVERT JUMPDEST POP PUSH2 0x372 PUSH2 0x4B6 CALLDATASIZE PUSH1 0x4 PUSH2 0x34B7 JUMP JUMPDEST PUSH2 0xD0A JUMP JUMPDEST CALLVALUE DUP1 ISZERO PUSH2 0x4C6 JUMPI PUSH0 PUSH0 REVERT JUMPDEST POP PUSH2 0x345 PUSH2 0x4D5 CALLDATASIZE PUSH1 0x4 PUSH2 0x2F33 JUMP JUMPDEST PUSH2 0xE34 JUMP JUMPDEST CALLVALUE DUP1 ISZERO PUSH2 0x4E5 JUMPI PUSH0 PUSH0 REVERT JUMPDEST POP PUSH2 0x2E8 PUSH2 0xE54 JUMP JUMPDEST CALLVALUE DUP1 ISZERO PUSH2 0x4F9 JUMPI PUSH0 PUSH0 REVERT JUMPDEST POP PUSH1 0x6 SLOAD PUSH2 0x345 SWAP1 DUP2 JUMP JUMPDEST CALLVALUE DUP1 ISZERO PUSH2 0x50F JUMPI PUSH0 PUSH0 REVERT JUMPDEST POP PUSH2 0x2E8 PUSH2 0x51E CALLDATASIZE PUSH1 0x4 PUSH2 0x3668 JUMP JUMPDEST PUSH2 0xE67 JUMP JUMPDEST CALLVALUE DUP1 ISZERO PUSH2 0x52E JUMPI PUSH0 PUSH0 REVERT JUMPDEST POP PUSH2 0x2E8 PUSH2 0x53D CALLDATASIZE PUSH1 0x4 PUSH2 0x303B JUMP JUMPDEST PUSH2 0xF55 JUMP JUMPDEST PUSH2 0x2E8 PUSH2 0x550 CALLDATASIZE PUSH1 0x4 PUSH2 0x3739 JUMP JUMPDEST PUSH2 0x11AC JUMP JUMPDEST CALLVALUE DUP1 ISZERO PUSH2 0x560 JUMPI PUSH0 PUSH0 REVERT JUMPDEST POP PUSH2 0x2E8 PUSH2 0x56F CALLDATASIZE PUSH1 0x4 PUSH2 0x3772 JUMP JUMPDEST PUSH2 0x11E1 JUMP JUMPDEST CALLVALUE DUP1 ISZERO PUSH2 0x57F JUMPI PUSH0 PUSH0 REVERT JUMPDEST POP PUSH0 SLOAD PUSH1 0x1 PUSH1 0x1 PUSH1 0xA0 SHL SUB AND PUSH2 0x39E JUMP JUMPDEST CALLVALUE DUP1 ISZERO PUSH2 0x59B JUMPI PUSH0 PUSH0 REVERT JUMPDEST POP PUSH2 0x2E8 PUSH2 0x5AA CALLDATASIZE PUSH1 0x4 PUSH2 0x303B JUMP JUMPDEST PUSH2 0x1358 JUMP JUMPDEST CALLVALUE DUP1 ISZERO PUSH2 0x5BA JUMPI PUSH0 PUSH0 REVERT JUMPDEST POP PUSH2 0x2E8 PUSH2 0x5C9 CALLDATASIZE PUSH1 0x4 PUSH2 0x37C4 JUMP JUMPDEST PUSH2 0x158F JUMP JUMPDEST CALLVALUE DUP1 ISZERO PUSH2 0x5D9 JUMPI PUSH0 PUSH0 REVERT JUMPDEST POP PUSH2 0x5ED PUSH2 0x5E8 CALLDATASIZE PUSH1 0x4 PUSH2 0x31E8 JUMP JUMPDEST PUSH2 0x16B7 JUMP JUMPDEST PUSH1 0x40 MLOAD PUSH2 0x2C0 SWAP2 SWAP1 PUSH2 0x39A5 JUMP JUMPDEST PUSH2 0x2E8 PUSH2 0x608 CALLDATASIZE PUSH1 0x4 PUSH2 0x3AA8 JUMP JUMPDEST PUSH2 0x1A16 JUMP JUMPDEST CALLVALUE DUP1 ISZERO PUSH2 0x618 JUMPI PUSH0 PUSH0 REVERT JUMPDEST POP PUSH2 0x62C PUSH2 0x627 CALLDATASIZE PUSH1 0x4 PUSH2 0x2F33 JUMP JUMPDEST PUSH2 0x1A47 JUMP JUMPDEST PUSH1 0x40 MLOAD PUSH2 0x2C0 SWAP2 SWAP1 PUSH2 0x3B01 JUMP JUMPDEST CALLVALUE DUP1 ISZERO PUSH2 0x644 JUMPI PUSH0 PUSH0 REVERT JUMPDEST POP PUSH2 0x2E8 PUSH2 0x653 CALLDATASIZE PUSH1 0x4 PUSH2 0x3B38 JUMP JUMPDEST PUSH2 0x1A6A JUMP JUMPDEST CALLVALUE DUP1 ISZERO PUSH2 0x663 JUMPI PUSH0 PUSH0 REVERT JUMPDEST POP PUSH2 0x2E8 PUSH2 0x672 CALLDATASIZE PUSH1 0x4 PUSH2 0x3BB9 JUMP JUMPDEST PUSH2 0x1B2D JUMP JUMPDEST CALLVALUE DUP1 ISZERO PUSH2 0x682 JUMPI PUSH0 PUSH0 REVERT JUMPDEST POP PUSH2 0x2E8 PUSH2 0x691 CALLDATASIZE PUSH1 0x4 PUSH2 0x3BEE JUMP JUMPDEST PUSH2 0x1B81 JUMP JUMPDEST CALLVALUE DUP1 ISZERO PUSH2 0x6A1 JUMPI PUSH0 PUSH0 REVERT JUMPDEST POP PUSH2 0x372 PUSH2 0x6B0 CALLDATASIZE PUSH1 0x4 PUSH2 0x3C51 JUMP JUMPDEST PUSH2 0x1C62 JUMP JUMPDEST CALLVALUE DUP1 ISZERO PUSH2 0x6C0 JUMPI PUSH0 PUSH0 REVERT JUMPDEST POP PUSH2 0x328 PUSH2 0x1D0B JUMP JUMPDEST CALLVALUE DUP1 ISZERO PUSH2 0x6D4 JUMPI PUSH0 PUSH0 REVERT JUMPDEST POP PUSH2 0x2E8 PUSH2 0x6E3 CALLDATASIZE PUSH1 0x4 PUSH2 0x2F33 JUMP JUMPDEST PUSH2 0x1D97 JUMP JUMPDEST PUSH1 0x60 PUSH0 PUSH2 0x6FF PUSH0 CALLDATALOAD PUSH1 0x1 PUSH1 0x1 PUSH1 0xE0 SHL SUB NOT AND PUSH2 0x1E04 JUMP JUMPDEST POP SWAP1 POP PUSH1 0x1 PUSH1 0x1 PUSH1 0xA0 SHL SUB DUP2 AND PUSH2 0x736 JUMPI PUSH1 0x40 MLOAD PUSH4 0xBB370B2B PUSH1 0xE0 SHL DUP2 MSTORE PUSH1 0x1 PUSH1 0x1 PUSH1 0xE0 SHL SUB NOT PUSH0 CALLDATALOAD AND PUSH1 0x4 DUP3 ADD MSTORE PUSH1 0x24 ADD PUSH2 0x233 JUMP JUMPDEST PUSH0 PUSH0 DUP3 PUSH1 0x1 PUSH1 0x1 PUSH1 0xA0 SHL SUB AND CALLVALUE DUP8 DUP8 CALLER CALLVALUE PUSH1 0x40 MLOAD PUSH1 0x20 ADD PUSH2 0x75A SWAP5 SWAP4 SWAP3 SWAP2 SWAP1 PUSH2 0x3C82 JUMP JUMPDEST PUSH1 0x40 DUP1 MLOAD PUSH1 0x1F NOT DUP2 DUP5 SUB ADD DUP2 MSTORE SWAP1 DUP3 SWAP1 MSTORE PUSH2 0x774 SWAP2 PUSH2 0x3CAD JUMP JUMPDEST PUSH0 PUSH1 0x40 MLOAD DUP1 DUP4 SUB DUP2 DUP6 DUP8 GAS CALL SWAP3 POP POP POP RETURNDATASIZE DUP1 PUSH0 DUP2 EQ PUSH2 0x7AE JUMPI PUSH1 0x40 MLOAD SWAP2 POP PUSH1 0x1F NOT PUSH1 0x3F RETURNDATASIZE ADD AND DUP3 ADD PUSH1 0x40 MSTORE RETURNDATASIZE DUP3 MSTORE RETURNDATASIZE PUSH0 PUSH1 0x20 DUP5 ADD RETURNDATACOPY PUSH2 0x7B3 JUMP JUMPDEST PUSH1 0x60 SWAP2 POP JUMPDEST POP SWAP2 POP SWAP2 POP DUP2 ISZERO PUSH2 0x7C8 JUMPI SWAP3 POP PUSH2 0x7D1 SWAP2 POP POP JUMP JUMPDEST DUP1 MLOAD DUP1 PUSH1 0x20 DUP4 ADD REVERT JUMPDEST SWAP3 SWAP2 POP POP JUMP JUMPDEST PUSH0 PUSH1 0x1 PUSH1 0x1 PUSH1 0xE0 SHL SUB NOT DUP3 AND PUSH4 0x1D138B83 PUSH1 0xE1 SHL EQ DUP1 PUSH2 0x7FB JUMPI POP PUSH2 0x7FB DUP3 PUSH2 0x1E80 JUMP JUMPDEST DUP1 PUSH2 0x7D1 JUMPI POP PUSH2 0x7D1 DUP3 PUSH2 0x1EA4 JUMP JUMPDEST PUSH1 0x8 SLOAD PUSH1 0x1 PUSH1 0x1 PUSH1 0xA0 SHL SUB AND CALLER EQ PUSH2 0x851 JUMPI PUSH1 0x40 MLOAD PUSH3 0x461BCD PUSH1 0xE5 SHL DUP2 MSTORE PUSH1 0x20 PUSH1 0x4 DUP3 ADD MSTORE PUSH1 0xA PUSH1 0x24 DUP3 ADD MSTORE PUSH10 0x139BDD081C195C9B5A5D PUSH1 0xB2 SHL PUSH1 0x44 DUP3 ADD MSTORE PUSH1 0x64 ADD PUSH2 0x233 JUMP JUMPDEST PUSH2 0x85A DUP2 PUSH2 0x1ED9 JUMP JUMPDEST POP JUMP JUMPDEST PUSH2 0x865 PUSH2 0x1F28 JUMP JUMPDEST PUSH1 0x9 PUSH2 0x871 DUP3 DUP3 PUSH2 0x3D39 JUMP JUMPDEST POP PUSH0 DUP1 SLOAD PUSH1 0x40 MLOAD PUSH1 0x1 PUSH1 0x1 PUSH1 0xA0 SHL SUB SWAP1 SWAP2 AND SWAP2 PUSH32 0x52DFE4FD4C28A03CD8AB0AF4995F1CAF006268A90C0E57CBD291D33F358FBC2F SWAP2 LOG2 POP JUMP JUMPDEST PUSH1 0x60 PUSH2 0x8B6 DUP4 DUP4 PUSH2 0x1F81 JUMP JUMPDEST SWAP4 SWAP3 POP POP POP JUMP JUMPDEST PUSH1 0x60 DUP2 MLOAD DUP4 MLOAD EQ PUSH2 0x8E1 JUMPI PUSH1 0x40 MLOAD PUSH4 0x17D38EFF PUSH1 0xE1 SHL DUP2 MSTORE PUSH1 0x4 ADD PUSH1 0x40 MLOAD DUP1 SWAP2 SUB SWAP1 REVERT JUMPDEST DUP3 MLOAD PUSH1 0x1 PUSH1 0x1 PUSH1 0x40 SHL SUB DUP2 GT ISZERO PUSH2 0x8FA JUMPI PUSH2 0x8FA PUSH2 0x2F4C JUMP JUMPDEST PUSH1 0x40 MLOAD SWAP1 DUP1 DUP3 MSTORE DUP1 PUSH1 0x20 MUL PUSH1 0x20 ADD DUP3 ADD PUSH1 0x40 MSTORE DUP1 ISZERO PUSH2 0x92D JUMPI DUP2 PUSH1 0x20 ADD JUMPDEST PUSH1 0x60 DUP2 MSTORE PUSH1 0x20 ADD SWAP1 PUSH1 0x1 SWAP1 SUB SWAP1 DUP2 PUSH2 0x918 JUMPI SWAP1 POP JUMPDEST POP SWAP1 POP PUSH0 JUMPDEST DUP4 MLOAD DUP2 LT ISZERO PUSH2 0x99C JUMPI PUSH2 0x977 DUP5 DUP3 DUP2 MLOAD DUP2 LT PUSH2 0x950 JUMPI PUSH2 0x950 PUSH2 0x3DF3 JUMP JUMPDEST PUSH1 0x20 MUL PUSH1 0x20 ADD ADD MLOAD DUP5 DUP4 DUP2 MLOAD DUP2 LT PUSH2 0x96A JUMPI PUSH2 0x96A PUSH2 0x3DF3 JUMP JUMPDEST PUSH1 0x20 MUL PUSH1 0x20 ADD ADD MLOAD PUSH2 0x1F81 JUMP JUMPDEST DUP3 DUP3 DUP2 MLOAD DUP2 LT PUSH2 0x989 JUMPI PUSH2 0x989 PUSH2 0x3DF3 JUMP JUMPDEST PUSH1 0x20 SWAP1 DUP2 MUL SWAP2 SWAP1 SWAP2 ADD ADD MSTORE PUSH1 0x1 ADD PUSH2 0x932 JUMP JUMPDEST POP SWAP3 SWAP2 POP POP JUMP JUMPDEST PUSH0 DUP2 DUP2 MSTORE PUSH1 0x3 PUSH1 0x20 MSTORE PUSH1 0x40 DUP2 KECCAK256 SLOAD PUSH1 0x1 PUSH1 0x1 PUSH1 0xA0 SHL SUB AND DUP1 PUSH2 0x7D1 JUMPI PUSH1 0x40 MLOAD PUSH4 0x5747CD1B PUSH1 0xE1 SHL DUP2 MSTORE PUSH1 0x4 DUP2 ADD DUP5 SWAP1 MSTORE PUSH1 0x24 ADD PUSH2 0x233 JUMP JUMPDEST PUSH0 PUSH2 0x8B6 DUP4 DUP4 PUSH2 0x2054 JUMP JUMPDEST PUSH1 0x60 PUSH2 0x9F1 DUP3 PUSH2 0x208F JUMP JUMPDEST PUSH0 DUP3 DUP2 MSTORE PUSH1 0x5 PUSH1 0x20 MSTORE PUSH1 0x40 SWAP1 KECCAK256 PUSH2 0x7D1 SWAP1 PUSH2 0x20C6 JUMP JUMPDEST DUP6 PUSH0 PUSH2 0xA12 DUP3 PUSH2 0x9A3 JUMP JUMPDEST SWAP1 POP CALLER PUSH1 0x1 PUSH1 0x1 PUSH1 0xA0 SHL SUB DUP3 AND EQ DUP1 PUSH2 0xA34 JUMPI POP PUSH0 SLOAD PUSH1 0x1 PUSH1 0x1 PUSH1 0xA0 SHL SUB AND CALLER EQ JUMPDEST PUSH2 0xA50 JUMPI PUSH1 0x40 MLOAD PUSH3 0x461BCD PUSH1 0xE5 SHL DUP2 MSTORE PUSH1 0x4 ADD PUSH2 0x233 SWAP1 PUSH2 0x3E07 JUMP JUMPDEST PUSH0 DUP9 DUP2 MSTORE PUSH1 0x7 PUSH1 0x20 MSTORE PUSH1 0x40 SWAP1 KECCAK256 DUP1 PUSH2 0xA68 DUP10 DUP3 PUSH2 0x3D39 JUMP JUMPDEST POP DUP5 MLOAD PUSH1 0x6 DUP3 ADD DUP1 SLOAD PUSH1 0x20 DUP1 DUP10 ADD MLOAD PUSH1 0x40 DUP1 DUP12 ADD MLOAD PUSH2 0xFFFF SWAP7 DUP8 AND PUSH3 0xFFFFFF NOT SWAP6 DUP7 AND OR PUSH3 0x10000 PUSH1 0xFF SWAP5 DUP6 AND DUP2 MUL SWAP2 SWAP1 SWAP2 OR PUSH4 0xFF000000 NOT SWAP1 DUP2 AND PUSH4 0x1000000 SWAP4 DUP7 AND DUP5 MUL OR SWAP1 SWAP8 SSTORE DUP12 MLOAD PUSH1 0x7 DUP11 ADD DUP1 SLOAD SWAP7 DUP15 ADD MLOAD SWAP5 DUP15 ADD MLOAD SWAP2 SWAP1 SWAP10 AND SWAP6 SWAP1 SWAP7 AND SWAP5 SWAP1 SWAP5 OR SWAP2 DUP4 AND SWAP1 SWAP4 MUL OR SWAP1 SWAP4 AND SWAP2 SWAP1 SWAP3 AND SWAP1 SWAP2 MUL OR SWAP1 SSTORE PUSH1 0x5 DUP2 ADD DUP1 SLOAD DUP8 SWAP2 SWAP1 PUSH1 0xFF NOT AND PUSH1 0x1 DUP4 PUSH1 0x2 DUP2 GT ISZERO PUSH2 0xB03 JUMPI PUSH2 0xB03 PUSH2 0x387B JUMP JUMPDEST MUL OR SWAP1 SSTORE POP PUSH1 0x8 DUP2 ADD PUSH2 0xB16 DUP9 DUP3 PUSH2 0x3D39 JUMP JUMPDEST POP PUSH1 0x40 MLOAD DUP10 SWAP1 PUSH32 0x88B778B9AA1C8317C051D681D7E71C9F3E40C539FBAF5CADFD37476C1B15DEC SWAP1 PUSH0 SWAP1 LOG2 POP POP POP POP POP POP POP POP POP JUMP JUMPDEST PUSH2 0xB56 CALLER DUP5 PUSH2 0x2054 JUMP JUMPDEST PUSH2 0xB7C JUMPI PUSH1 0x40 MLOAD PUSH4 0x1294D2A9 PUSH1 0xE0 SHL DUP2 MSTORE PUSH1 0x4 DUP2 ADD DUP5 SWAP1 MSTORE CALLER PUSH1 0x24 DUP3 ADD MSTORE PUSH1 0x44 ADD PUSH2 0x233 JUMP JUMPDEST PUSH2 0xB89 DUP6 DUP6 DUP6 DUP6 DUP6 PUSH2 0x20D2 JUMP JUMPDEST POP POP POP POP POP JUMP JUMPDEST PUSH1 0x60 PUSH2 0x7D1 DUP3 PUSH2 0x22AE JUMP JUMPDEST DUP6 PUSH0 PUSH2 0xBA6 DUP3 PUSH2 0x9A3 JUMP JUMPDEST SWAP1 POP CALLER PUSH1 0x1 PUSH1 0x1 PUSH1 0xA0 SHL SUB DUP3 AND EQ DUP1 PUSH2 0xBC8 JUMPI POP PUSH0 SLOAD PUSH1 0x1 PUSH1 0x1 PUSH1 0xA0 SHL SUB AND CALLER EQ JUMPDEST PUSH2 0xBE4 JUMPI PUSH1 0x40 MLOAD PUSH3 0x461BCD PUSH1 0xE5 SHL DUP2 MSTORE PUSH1 0x4 ADD PUSH2 0x233 SWAP1 PUSH2 0x3E07 JUMP JUMPDEST PUSH0 PUSH2 0xBF4 DUP9 DUP9 DUP7 PUSH1 0x1 DUP11 DUP11 PUSH2 0x234D JUMP JUMPDEST PUSH1 0x40 DUP1 MLOAD PUSH1 0x60 DUP2 ADD DUP3 MSTORE PUSH0 DUP1 DUP3 MSTORE PUSH1 0x20 DUP3 ADD DUP2 SWAP1 MSTORE SWAP2 DUP2 ADD SWAP2 SWAP1 SWAP2 MSTORE SWAP1 SWAP2 POP PUSH0 DUP3 DUP2 MSTORE PUSH1 0x7 PUSH1 0x20 SWAP1 DUP2 MSTORE PUSH1 0x40 DUP1 DUP4 KECCAK256 DUP2 MLOAD PUSH1 0x60 DUP2 ADD DUP4 MSTORE DUP7 DUP2 MSTORE DUP1 DUP5 ADD DUP7 DUP2 MSTORE DUP2 DUP5 ADD DUP8 DUP2 MSTORE PUSH1 0x4 SWAP1 SWAP4 ADD DUP1 SLOAD PUSH1 0x1 DUP2 DUP2 ADD DUP4 SSTORE SWAP2 DUP9 MSTORE DUP7 DUP9 KECCAK256 SWAP4 MLOAD PUSH1 0x3 SWAP1 SWAP2 MUL SWAP1 SWAP4 ADD SWAP3 DUP4 SSTORE SWAP1 MLOAD DUP1 MLOAD SWAP2 DUP4 ADD DUP1 SLOAD DUP3 DUP9 ADD MLOAD SWAP3 DUP8 ADD MLOAD PUSH1 0xFF SWAP1 DUP2 AND PUSH4 0x1000000 SWAP1 DUP2 MUL PUSH4 0xFF000000 NOT SWAP6 DUP4 AND PUSH3 0x10000 SWAP1 DUP2 MUL PUSH3 0xFFFFFF NOT SWAP6 DUP7 AND PUSH2 0xFFFF SWAP10 DUP11 AND OR OR DUP8 AND SWAP2 SWAP1 SWAP2 OR SWAP1 SWAP5 SSTORE SWAP7 MLOAD DUP1 MLOAD PUSH1 0x2 SWAP1 SWAP8 ADD DUP1 SLOAD SWAP11 DUP3 ADD MLOAD SWAP2 DUP11 ADD MLOAD DUP4 AND SWAP1 SWAP9 MUL SWAP2 AND SWAP1 SWAP3 MUL SWAP8 AND SWAP4 SWAP1 SWAP3 AND SWAP3 SWAP1 SWAP3 OR SWAP5 SWAP1 SWAP5 OR AND SWAP3 SWAP1 SWAP3 OR SWAP1 SWAP2 SSTORE MLOAD DUP4 SWAP2 DUP13 SWAP2 PUSH32 0xCA4757636F927657C127875C4F0C0EC6E1F84D4769348F20FFF39486A4BB2C3F SWAP2 SWAP1 LOG3 POP POP POP POP POP POP POP POP POP POP JUMP JUMPDEST PUSH1 0x60 DUP2 PUSH1 0x1 PUSH1 0x1 PUSH1 0x40 SHL SUB DUP2 GT ISZERO PUSH2 0xD24 JUMPI PUSH2 0xD24 PUSH2 0x2F4C JUMP JUMPDEST PUSH1 0x40 MLOAD SWAP1 DUP1 DUP3 MSTORE DUP1 PUSH1 0x20 MUL PUSH1 0x20 ADD DUP3 ADD PUSH1 0x40 MSTORE DUP1 ISZERO PUSH2 0xD57 JUMPI DUP2 PUSH1 0x20 ADD JUMPDEST PUSH1 0x60 DUP2 MSTORE PUSH1 0x20 ADD SWAP1 PUSH1 0x1 SWAP1 SUB SWAP1 DUP2 PUSH2 0xD42 JUMPI SWAP1 POP JUMPDEST POP SWAP1 POP PUSH0 JUMPDEST DUP3 DUP2 LT ISZERO PUSH2 0x99C JUMPI PUSH0 DUP1 ADDRESS DUP7 DUP7 DUP6 DUP2 DUP2 LT PUSH2 0xD79 JUMPI PUSH2 0xD79 PUSH2 0x3DF3 JUMP JUMPDEST SWAP1 POP PUSH1 0x20 MUL DUP2 ADD SWAP1 PUSH2 0xD8B SWAP2 SWAP1 PUSH2 0x3E2F JUMP JUMPDEST PUSH1 0x40 MLOAD PUSH2 0xD99 SWAP3 SWAP2 SWAP1 PUSH2 0x3E78 JUMP JUMPDEST PUSH0 PUSH1 0x40 MLOAD DUP1 DUP4 SUB DUP2 DUP6 GAS DELEGATECALL SWAP2 POP POP RETURNDATASIZE DUP1 PUSH0 DUP2 EQ PUSH2 0xDD1 JUMPI PUSH1 0x40 MLOAD SWAP2 POP PUSH1 0x1F NOT PUSH1 0x3F RETURNDATASIZE ADD AND DUP3 ADD PUSH1 0x40 MSTORE RETURNDATASIZE DUP3 MSTORE RETURNDATASIZE PUSH0 PUSH1 0x20 DUP5 ADD RETURNDATACOPY PUSH2 0xDD6 JUMP JUMPDEST PUSH1 0x60 SWAP2 POP JUMPDEST POP SWAP2 POP SWAP2 POP DUP2 PUSH2 0xE0C JUMPI DUP1 MLOAD ISZERO PUSH2 0xDF0 JUMPI DUP1 MLOAD DUP1 DUP3 PUSH1 0x20 ADD REVERT JUMPDEST PUSH1 0x40 MLOAD PUSH4 0x234EB819 PUSH1 0xE0 SHL DUP2 MSTORE PUSH1 0x4 DUP2 ADD DUP5 SWAP1 MSTORE PUSH1 0x24 ADD PUSH2 0x233 JUMP JUMPDEST DUP1 DUP5 DUP5 DUP2 MLOAD DUP2 LT PUSH2 0xE1F JUMPI PUSH2 0xE1F PUSH2 0x3DF3 JUMP JUMPDEST PUSH1 0x20 SWAP1 DUP2 MUL SWAP2 SWAP1 SWAP2 ADD ADD MSTORE POP POP PUSH1 0x1 ADD PUSH2 0xD5C JUMP JUMPDEST PUSH1 0x1 PUSH1 0x1 PUSH1 0xA0 SHL SUB DUP2 AND PUSH0 SWAP1 DUP2 MSTORE PUSH1 0x4 PUSH1 0x20 MSTORE PUSH1 0x40 DUP2 KECCAK256 PUSH2 0x7D1 SWAP1 PUSH2 0x248E JUMP JUMPDEST PUSH2 0xE5C PUSH2 0x1F28 JUMP JUMPDEST PUSH2 0xE65 PUSH0 PUSH2 0x1ED9 JUMP JUMPDEST JUMP JUMPDEST DUP5 MLOAD DUP5 MLOAD DUP2 EQ ISZERO DUP1 PUSH2 0xE7A JUMPI POP DUP4 MLOAD DUP2 EQ ISZERO JUMPDEST DUP1 PUSH2 0xE86 JUMPI POP DUP3 MLOAD DUP2 EQ ISZERO JUMPDEST DUP1 PUSH2 0xE92 JUMPI POP DUP2 MLOAD DUP2 EQ ISZERO JUMPDEST ISZERO PUSH2 0xEB0 JUMPI PUSH1 0x40 MLOAD PUSH4 0x93A83119 PUSH1 0xE0 SHL DUP2 MSTORE PUSH1 0x4 ADD PUSH1 0x40 MLOAD DUP1 SWAP2 SUB SWAP1 REVERT JUMPDEST PUSH0 JUMPDEST DUP2 DUP2 LT ISZERO PUSH2 0xF4C JUMPI PUSH2 0xF44 DUP8 DUP3 DUP2 MLOAD DUP2 LT PUSH2 0xECF JUMPI PUSH2 0xECF PUSH2 0x3DF3 JUMP JUMPDEST PUSH1 0x20 MUL PUSH1 0x20 ADD ADD MLOAD DUP8 DUP4 DUP2 MLOAD DUP2 LT PUSH2 0xEE9 JUMPI PUSH2 0xEE9 PUSH2 0x3DF3 JUMP JUMPDEST PUSH1 0x20 MUL PUSH1 0x20 ADD ADD MLOAD DUP8 DUP5 DUP2 MLOAD DUP2 LT PUSH2 0xF03 JUMPI PUSH2 0xF03 PUSH2 0x3DF3 JUMP JUMPDEST PUSH1 0x20 MUL PUSH1 0x20 ADD ADD MLOAD DUP8 DUP6 DUP2 MLOAD DUP2 LT PUSH2 0xF1D JUMPI PUSH2 0xF1D PUSH2 0x3DF3 JUMP JUMPDEST PUSH1 0x20 MUL PUSH1 0x20 ADD ADD MLOAD DUP8 DUP7 DUP2 MLOAD DUP2 LT PUSH2 0xF37 JUMPI PUSH2 0xF37 PUSH2 0x3DF3 JUMP JUMPDEST PUSH1 0x20 MUL PUSH1 0x20 ADD ADD MLOAD PUSH2 0xB4C JUMP JUMPDEST PUSH1 0x1 ADD PUSH2 0xEB2 JUMP JUMPDEST POP POP POP POP POP POP POP JUMP JUMPDEST DUP1 PUSH0 PUSH2 0xF60 DUP3 PUSH2 0x9A3 JUMP JUMPDEST SWAP1 POP CALLER PUSH1 0x1 PUSH1 0x1 PUSH1 0xA0 SHL SUB DUP3 AND EQ DUP1 PUSH2 0xF82 JUMPI POP PUSH0 SLOAD PUSH1 0x1 PUSH1 0x1 PUSH1 0xA0 SHL SUB AND CALLER EQ JUMPDEST PUSH2 0xF9E JUMPI PUSH1 0x40 MLOAD PUSH3 0x461BCD PUSH1 0xE5 SHL DUP2 MSTORE PUSH1 0x4 ADD PUSH2 0x233 SWAP1 PUSH2 0x3E07 JUMP JUMPDEST PUSH0 DUP4 DUP2 MSTORE PUSH1 0x7 PUSH1 0x20 MSTORE PUSH1 0x40 DUP2 KECCAK256 SWAP1 JUMPDEST PUSH1 0x4 DUP3 ADD SLOAD DUP2 LT ISZERO PUSH2 0x116A JUMPI DUP6 DUP3 PUSH1 0x4 ADD DUP3 DUP2 SLOAD DUP2 LT PUSH2 0xFCF JUMPI PUSH2 0xFCF PUSH2 0x3DF3 JUMP JUMPDEST SWAP1 PUSH0 MSTORE PUSH1 0x20 PUSH0 KECCAK256 SWAP1 PUSH1 0x3 MUL ADD PUSH0 ADD SLOAD SUB PUSH2 0x1162 JUMPI PUSH1 0x4 DUP3 ADD SLOAD PUSH0 SWAP1 PUSH2 0xFF6 SWAP1 PUSH1 0x1 SWAP1 PUSH2 0x3E9B JUMP JUMPDEST SWAP1 POP DUP1 DUP3 EQ PUSH2 0x10E6 JUMPI DUP3 PUSH1 0x4 ADD DUP2 DUP2 SLOAD DUP2 LT PUSH2 0x1014 JUMPI PUSH2 0x1014 PUSH2 0x3DF3 JUMP JUMPDEST SWAP1 PUSH0 MSTORE PUSH1 0x20 PUSH0 KECCAK256 SWAP1 PUSH1 0x3 MUL ADD DUP4 PUSH1 0x4 ADD DUP4 DUP2 SLOAD DUP2 LT PUSH2 0x1035 JUMPI PUSH2 0x1035 PUSH2 0x3DF3 JUMP JUMPDEST PUSH0 SWAP2 DUP3 MSTORE PUSH1 0x20 SWAP1 SWAP2 KECCAK256 DUP3 SLOAD PUSH1 0x3 SWAP1 SWAP3 MUL ADD SWAP1 DUP2 SSTORE PUSH1 0x1 DUP1 DUP4 ADD DUP1 SLOAD SWAP2 DUP4 ADD DUP1 SLOAD PUSH2 0xFFFF SWAP4 DUP5 AND PUSH2 0xFFFF NOT DUP1 DUP4 AND DUP3 OR DUP5 SSTORE DUP5 SLOAD PUSH3 0xFFFFFF NOT SWAP4 DUP5 AND SWAP1 SWAP3 OR PUSH3 0x10000 SWAP3 DUP4 SWAP1 DIV PUSH1 0xFF SWAP1 DUP2 AND DUP5 MUL SWAP2 SWAP1 SWAP2 OR DUP1 DUP7 SSTORE SWAP6 SLOAD PUSH4 0xFF000000 NOT SWAP7 DUP8 AND PUSH4 0x1000000 SWAP2 DUP3 SWAP1 DIV DUP4 AND DUP3 MUL OR SWAP1 SWAP6 SSTORE PUSH1 0x2 SWAP9 DUP10 ADD DUP1 SLOAD SWAP10 SWAP1 SWAP9 ADD DUP1 SLOAD SWAP10 SWAP1 SWAP8 AND SWAP2 DUP10 AND DUP3 OR DUP8 SSTORE DUP8 SLOAD SWAP9 SWAP1 SWAP4 AND OR SWAP7 DUP2 SWAP1 DIV DUP3 AND MUL SWAP6 SWAP1 SWAP6 OR DUP1 DUP5 SSTORE SWAP4 SLOAD SWAP4 SWAP1 SWAP2 AND SWAP3 DUP2 SWAP1 DIV SWAP1 SWAP4 AND SWAP1 SWAP3 MUL OR SWAP1 SSTORE JUMPDEST DUP3 PUSH1 0x4 ADD DUP1 SLOAD DUP1 PUSH2 0x10F9 JUMPI PUSH2 0x10F9 PUSH2 0x3EAE JUMP JUMPDEST PUSH0 DUP3 DUP2 MSTORE PUSH1 0x20 DUP2 KECCAK256 PUSH1 0x3 PUSH0 NOT SWAP1 SWAP4 ADD SWAP3 DUP4 MUL ADD DUP2 DUP2 SSTORE PUSH1 0x1 DUP2 ADD DUP1 SLOAD PUSH4 0xFFFFFFFF NOT SWAP1 DUP2 AND SWAP1 SWAP2 SSTORE PUSH1 0x2 SWAP1 SWAP2 ADD DUP1 SLOAD SWAP1 SWAP2 AND SWAP1 SSTORE SWAP2 SSTORE PUSH1 0x40 MLOAD DUP8 SWAP2 DUP10 SWAP2 PUSH32 0xF1387B2F8963CA7947C75FAA29A4C7DE0859D44C5F9A658761ACBDC5D539976B SWAP2 SWAP1 LOG3 POP POP POP PUSH2 0x11A6 JUMP JUMPDEST PUSH1 0x1 ADD PUSH2 0xFAD JUMP JUMPDEST POP PUSH1 0x40 MLOAD PUSH3 0x461BCD PUSH1 0xE5 SHL DUP2 MSTORE PUSH1 0x20 PUSH1 0x4 DUP3 ADD MSTORE PUSH1 0x10 PUSH1 0x24 DUP3 ADD MSTORE PUSH16 0x14DC1BDD5CD9481B9BDD08199BDD5B99 PUSH1 0x82 SHL PUSH1 0x44 DUP3 ADD MSTORE PUSH1 0x64 ADD PUSH2 0x233 JUMP JUMPDEST POP POP POP POP JUMP JUMPDEST PUSH2 0x11B4 PUSH2 0x1F28 JUMP JUMPDEST CALLVALUE ISZERO PUSH2 0x11D3 JUMPI PUSH1 0x40 MLOAD PUSH4 0xF36BA737 PUSH1 0xE0 SHL DUP2 MSTORE PUSH1 0x4 ADD PUSH1 0x40 MLOAD DUP1 SWAP2 SUB SWAP1 REVERT JUMPDEST PUSH2 0x11DD DUP3 DUP3 PUSH2 0x2497 JUMP JUMPDEST POP POP JUMP JUMPDEST PUSH0 PUSH2 0x11EB DUP4 PUSH2 0x9A3 JUMP JUMPDEST SWAP1 POP PUSH1 0x1 PUSH1 0x1 PUSH1 0xA0 SHL SUB DUP2 AND CALLER EQ PUSH2 0x122E JUMPI PUSH1 0x40 MLOAD PUSH4 0x2D938F51 PUSH1 0xE1 SHL DUP2 MSTORE PUSH1 0x1 PUSH1 0x1 PUSH1 0xA0 SHL SUB DUP3 AND PUSH1 0x4 DUP3 ADD MSTORE PUSH1 0x24 DUP2 ADD DUP5 SWAP1 MSTORE CALLER PUSH1 0x44 DUP3 ADD MSTORE PUSH1 0x64 ADD PUSH2 0x233 JUMP JUMPDEST PUSH1 0x1 PUSH1 0x1 PUSH1 0xA0 SHL SUB DUP5 AND PUSH2 0x1255 JUMPI PUSH1 0x40 MLOAD PUSH4 0x9577B8B3 PUSH1 0xE0 SHL DUP2 MSTORE PUSH1 0x4 ADD PUSH1 0x40 MLOAD DUP1 SWAP2 SUB SWAP1 REVERT JUMPDEST DUP4 PUSH1 0x1 PUSH1 0x1 PUSH1 0xA0 SHL SUB AND DUP2 PUSH1 0x1 PUSH1 0x1 PUSH1 0xA0 SHL SUB AND SUB PUSH2 0x1287 JUMPI PUSH1 0x40 MLOAD PUSH4 0x44FED6B1 PUSH1 0xE1 SHL DUP2 MSTORE PUSH1 0x4 ADD PUSH1 0x40 MLOAD DUP1 SWAP2 SUB SWAP1 REVERT JUMPDEST PUSH0 DUP4 DUP2 MSTORE PUSH1 0x5 PUSH1 0x20 MSTORE PUSH1 0x40 DUP2 KECCAK256 PUSH2 0x129E SWAP1 DUP7 PUSH2 0x24E1 JUMP JUMPDEST SWAP1 POP DUP1 PUSH2 0x12D0 JUMPI PUSH1 0x40 MLOAD PUSH4 0x14EC4D6D PUSH1 0xE3 SHL DUP2 MSTORE PUSH1 0x1 PUSH1 0x1 PUSH1 0xA0 SHL SUB DUP7 AND PUSH1 0x4 DUP3 ADD MSTORE PUSH1 0x24 DUP2 ADD DUP6 SWAP1 MSTORE PUSH1 0x44 ADD PUSH2 0x233 JUMP JUMPDEST DUP4 DUP3 PUSH1 0x1 PUSH1 0x1 PUSH1 0xA0 SHL SUB AND DUP7 PUSH1 0x1 PUSH1 0x1 PUSH1 0xA0 SHL SUB AND PUSH32 0x1B1B58AA2EC0CEC2228B2D37124556D41F5A1F7B12F089171F896CC236671215 DUP7 PUSH1 0x40 MLOAD PUSH2 0x1314 SWAP2 SWAP1 PUSH2 0x3089 JUMP JUMPDEST PUSH1 0x40 MLOAD DUP1 SWAP2 SUB SWAP1 LOG4 PUSH0 CALLER DUP6 PUSH1 0x1 DUP7 PUSH1 0x40 MLOAD PUSH1 0x20 ADD PUSH2 0x1335 SWAP5 SWAP4 SWAP3 SWAP2 SWAP1 PUSH2 0x3EC2 JUMP JUMPDEST PUSH1 0x40 MLOAD PUSH1 0x20 DUP2 DUP4 SUB SUB DUP2 MSTORE SWAP1 PUSH1 0x40 MSTORE SWAP1 POP PUSH2 0x1350 DUP7 DUP3 PUSH2 0x24F5 JUMP JUMPDEST POP POP POP POP POP POP JUMP JUMPDEST DUP2 PUSH0 PUSH2 0x1363 DUP3 PUSH2 0x9A3 JUMP JUMPDEST SWAP1 POP CALLER PUSH1 0x1 PUSH1 0x1 PUSH1 0xA0 SHL SUB DUP3 AND EQ DUP1 PUSH2 0x1385 JUMPI POP PUSH0 SLOAD PUSH1 0x1 PUSH1 0x1 PUSH1 0xA0 SHL SUB AND CALLER EQ JUMPDEST PUSH2 0x13A1 JUMPI PUSH1 0x40 MLOAD PUSH3 0x461BCD PUSH1 0xE5 SHL DUP2 MSTORE PUSH1 0x4 ADD PUSH2 0x233 SWAP1 PUSH2 0x3E07 JUMP JUMPDEST PUSH0 DUP5 DUP2 MSTORE PUSH1 0x7 PUSH1 0x20 MSTORE PUSH1 0x40 DUP1 DUP3 KECCAK256 DUP6 DUP4 MSTORE SWAP2 KECCAK256 PUSH1 0x1 DUP2 ADD SLOAD DUP7 EQ PUSH2 0x1407 JUMPI PUSH1 0x40 MLOAD PUSH3 0x461BCD PUSH1 0xE5 SHL DUP2 MSTORE PUSH1 0x20 PUSH1 0x4 DUP3 ADD MSTORE PUSH1 0x18 PUSH1 0x24 DUP3 ADD MSTORE PUSH32 0x4E6F74206368696C64206F66207468697320706572736F6E0000000000000000 PUSH1 0x44 DUP3 ADD MSTORE PUSH1 0x64 ADD PUSH2 0x233 JUMP JUMPDEST PUSH0 JUMPDEST PUSH1 0x3 DUP4 ADD SLOAD DUP2 LT ISZERO PUSH2 0x1554 JUMPI DUP6 DUP4 PUSH1 0x3 ADD DUP3 DUP2 SLOAD DUP2 LT PUSH2 0x142B JUMPI PUSH2 0x142B PUSH2 0x3DF3 JUMP JUMPDEST SWAP1 PUSH0 MSTORE PUSH1 0x20 PUSH0 KECCAK256 SWAP1 PUSH1 0x2 MUL ADD PUSH1 0x1 ADD SLOAD SUB PUSH2 0x154C JUMPI PUSH1 0x3 DUP4 ADD SLOAD PUSH0 SWAP1 PUSH2 0x1453 SWAP1 PUSH1 0x1 SWAP1 PUSH2 0x3E9B JUMP JUMPDEST SWAP1 POP DUP1 DUP3 EQ PUSH2 0x14D9 JUMPI DUP4 PUSH1 0x3 ADD DUP2 DUP2 SLOAD DUP2 LT PUSH2 0x1471 JUMPI PUSH2 0x1471 PUSH2 0x3DF3 JUMP JUMPDEST SWAP1 PUSH0 MSTORE PUSH1 0x20 PUSH0 KECCAK256 SWAP1 PUSH1 0x2 MUL ADD DUP5 PUSH1 0x3 ADD DUP4 DUP2 SLOAD DUP2 LT PUSH2 0x1492 JUMPI PUSH2 0x1492 PUSH2 0x3DF3 JUMP JUMPDEST PUSH0 SWAP2 DUP3 MSTORE PUSH1 0x20 SWAP1 SWAP2 KECCAK256 DUP3 SLOAD PUSH1 0x2 SWAP3 DUP4 MUL SWAP1 SWAP2 ADD DUP1 SLOAD SWAP1 SWAP3 PUSH1 0xFF SWAP1 SWAP3 AND SWAP2 DUP4 SWAP2 PUSH1 0xFF NOT AND SWAP1 PUSH1 0x1 SWAP1 DUP5 SWAP1 DUP2 GT ISZERO PUSH2 0x14CA JUMPI PUSH2 0x14CA PUSH2 0x387B JUMP JUMPDEST MUL OR SWAP1 SSTORE POP PUSH1 0x1 SWAP2 DUP3 ADD SLOAD SWAP2 ADD SSTORE JUMPDEST DUP4 PUSH1 0x3 ADD DUP1 SLOAD DUP1 PUSH2 0x14EC JUMPI PUSH2 0x14EC PUSH2 0x3EAE JUMP JUMPDEST PUSH0 DUP3 DUP2 MSTORE PUSH1 0x20 DUP2 KECCAK256 PUSH1 0x2 PUSH0 NOT SWAP1 SWAP4 ADD SWAP3 DUP4 MUL ADD DUP1 SLOAD PUSH1 0xFF NOT AND DUP2 SSTORE PUSH1 0x1 SWAP1 DUP2 ADD DUP3 SWAP1 SSTORE SWAP2 SWAP1 SWAP3 SSTORE DUP5 ADD DUP2 SWAP1 SSTORE PUSH1 0x40 MLOAD DUP10 SWAP2 DUP10 SWAP2 PUSH32 0xD22EF99C12AEAECAC27F6067207B23AC6A9AE5F21E97134B39E98320AA04FA5D SWAP2 SWAP1 LOG3 POP POP POP POP PUSH2 0x11A6 JUMP JUMPDEST PUSH1 0x1 ADD PUSH2 0x1409 JUMP JUMPDEST POP PUSH1 0x40 MLOAD PUSH3 0x461BCD PUSH1 0xE5 SHL DUP2 MSTORE PUSH1 0x20 PUSH1 0x4 DUP3 ADD MSTORE PUSH1 0xF PUSH1 0x24 DUP3 ADD MSTORE PUSH15 0x10DA1A5B19081B9BDD08199BDD5B99 PUSH1 0x8A SHL PUSH1 0x44 DUP3 ADD MSTORE PUSH1 0x64 ADD PUSH2 0x233 JUMP JUMPDEST DUP2 PUSH0 PUSH2 0x159A DUP3 PUSH2 0x9A3 JUMP JUMPDEST SWAP1 POP CALLER PUSH1 0x1 PUSH1 0x1 PUSH1 0xA0 SHL SUB DUP3 AND EQ DUP1 PUSH2 0x15BC JUMPI POP PUSH0 SLOAD PUSH1 0x1 PUSH1 0x1 PUSH1 0xA0 SHL SUB AND CALLER EQ JUMPDEST PUSH2 0x15D8 JUMPI PUSH1 0x40 MLOAD PUSH3 0x461BCD PUSH1 0xE5 SHL DUP2 MSTORE PUSH1 0x4 ADD PUSH2 0x233 SWAP1 PUSH2 0x3E07 JUMP JUMPDEST PUSH0 DUP5 DUP2 MSTORE PUSH1 0x7 PUSH1 0x20 MSTORE PUSH1 0x40 DUP2 KECCAK256 SWAP1 PUSH2 0x15F4 DUP12 DUP12 CALLER DUP13 DUP13 DUP13 PUSH2 0x234D JUMP JUMPDEST SWAP1 POP DUP2 PUSH1 0x3 ADD PUSH1 0x40 MLOAD DUP1 PUSH1 0x40 ADD PUSH1 0x40 MSTORE DUP1 DUP8 PUSH1 0x2 DUP2 GT ISZERO PUSH2 0x1617 JUMPI PUSH2 0x1617 PUSH2 0x387B JUMP JUMPDEST DUP2 MSTORE PUSH1 0x20 SWAP1 DUP2 ADD DUP5 SWAP1 MSTORE DUP3 SLOAD PUSH1 0x1 DUP2 DUP2 ADD DUP6 SSTORE PUSH0 SWAP5 DUP6 MSTORE SWAP2 SWAP1 SWAP4 KECCAK256 DUP3 MLOAD PUSH1 0x2 SWAP5 DUP6 MUL SWAP1 SWAP2 ADD DUP1 SLOAD SWAP4 SWAP5 SWAP1 SWAP4 SWAP2 SWAP3 DUP5 SWAP3 PUSH1 0xFF NOT AND SWAP2 DUP5 SWAP1 DUP2 GT ISZERO PUSH2 0x165C JUMPI PUSH2 0x165C PUSH2 0x387B JUMP JUMPDEST MUL OR SWAP1 SSTORE POP PUSH1 0x20 SWAP2 DUP3 ADD MLOAD PUSH1 0x1 SWAP2 DUP3 ADD SSTORE PUSH0 DUP4 DUP2 MSTORE PUSH1 0x7 SWAP1 SWAP3 MSTORE PUSH1 0x40 DUP1 DUP4 KECCAK256 SWAP1 SWAP2 ADD DUP9 SWAP1 SSTORE MLOAD DUP8 SWAP2 DUP4 SWAP2 PUSH32 0x95AFC0D374F4E4B0D262BE4433E573B5862C9FB50C22EE6438A313040F5487CC SWAP2 SWAP1 LOG3 POP POP POP POP POP POP POP POP POP POP POP JUMP JUMPDEST PUSH2 0x16BF PUSH2 0x2E3F JUMP JUMPDEST PUSH0 DUP3 DUP2 MSTORE PUSH1 0x7 PUSH1 0x20 MSTORE PUSH1 0x40 SWAP1 DUP2 SWAP1 KECCAK256 DUP2 MLOAD PUSH2 0x120 DUP2 ADD SWAP1 SWAP3 MSTORE DUP1 SLOAD DUP3 SWAP1 DUP3 SWAP1 PUSH2 0x16E7 SWAP1 PUSH2 0x3CC3 JUMP JUMPDEST DUP1 PUSH1 0x1F ADD PUSH1 0x20 DUP1 SWAP2 DIV MUL PUSH1 0x20 ADD PUSH1 0x40 MLOAD SWAP1 DUP2 ADD PUSH1 0x40 MSTORE DUP1 SWAP3 SWAP2 SWAP1 DUP2 DUP2 MSTORE PUSH1 0x20 ADD DUP3 DUP1 SLOAD PUSH2 0x1713 SWAP1 PUSH2 0x3CC3 JUMP JUMPDEST DUP1 ISZERO PUSH2 0x175E JUMPI DUP1 PUSH1 0x1F LT PUSH2 0x1735 JUMPI PUSH2 0x100 DUP1 DUP4 SLOAD DIV MUL DUP4 MSTORE SWAP2 PUSH1 0x20 ADD SWAP2 PUSH2 0x175E JUMP JUMPDEST DUP3 ADD SWAP2 SWAP1 PUSH0 MSTORE PUSH1 0x20 PUSH0 KECCAK256 SWAP1 JUMPDEST DUP2 SLOAD DUP2 MSTORE SWAP1 PUSH1 0x1 ADD SWAP1 PUSH1 0x20 ADD DUP1 DUP4 GT PUSH2 0x1741 JUMPI DUP3 SWAP1 SUB PUSH1 0x1F AND DUP3 ADD SWAP2 JUMPDEST POP POP POP POP POP DUP2 MSTORE PUSH1 0x20 ADD PUSH1 0x1 DUP3 ADD SLOAD DUP2 MSTORE PUSH1 0x20 ADD PUSH1 0x2 DUP3 ADD SLOAD DUP2 MSTORE PUSH1 0x20 ADD PUSH1 0x3 DUP3 ADD DUP1 SLOAD DUP1 PUSH1 0x20 MUL PUSH1 0x20 ADD PUSH1 0x40 MLOAD SWAP1 DUP2 ADD PUSH1 0x40 MSTORE DUP1 SWAP3 SWAP2 SWAP1 DUP2 DUP2 MSTORE PUSH1 0x20 ADD PUSH0 SWAP1 JUMPDEST DUP3 DUP3 LT ISZERO PUSH2 0x1810 JUMPI DUP4 DUP3 SWAP1 PUSH0 MSTORE PUSH1 0x20 PUSH0 KECCAK256 SWAP1 PUSH1 0x2 MUL ADD PUSH1 0x40 MLOAD DUP1 PUSH1 0x40 ADD PUSH1 0x40 MSTORE SWAP1 DUP2 PUSH0 DUP3 ADD PUSH0 SWAP1 SLOAD SWAP1 PUSH2 0x100 EXP SWAP1 DIV PUSH1 0xFF AND PUSH1 0x2 DUP2 GT ISZERO PUSH2 0x17E2 JUMPI PUSH2 0x17E2 PUSH2 0x387B JUMP JUMPDEST PUSH1 0x2 DUP2 GT ISZERO PUSH2 0x17F3 JUMPI PUSH2 0x17F3 PUSH2 0x387B JUMP JUMPDEST DUP2 MSTORE PUSH1 0x20 ADD PUSH1 0x1 DUP3 ADD SLOAD DUP2 MSTORE POP POP DUP2 MSTORE PUSH1 0x20 ADD SWAP1 PUSH1 0x1 ADD SWAP1 PUSH2 0x179F JUMP JUMPDEST POP POP POP POP DUP2 MSTORE PUSH1 0x20 ADD PUSH1 0x4 DUP3 ADD DUP1 SLOAD DUP1 PUSH1 0x20 MUL PUSH1 0x20 ADD PUSH1 0x40 MLOAD SWAP1 DUP2 ADD PUSH1 0x40 MSTORE DUP1 SWAP3 SWAP2 SWAP1 DUP2 DUP2 MSTORE PUSH1 0x20 ADD PUSH0 SWAP1 JUMPDEST DUP3 DUP3 LT ISZERO PUSH2 0x18D6 JUMPI PUSH0 DUP5 DUP2 MSTORE PUSH1 0x20 SWAP1 DUP2 SWAP1 KECCAK256 PUSH1 0x40 DUP1 MLOAD PUSH1 0x60 DUP1 DUP3 ADD DUP4 MSTORE PUSH1 0x3 DUP8 MUL SWAP1 SWAP4 ADD DUP1 SLOAD DUP3 MSTORE DUP3 MLOAD DUP1 DUP6 ADD DUP5 MSTORE PUSH1 0x1 DUP1 DUP4 ADD SLOAD PUSH2 0xFFFF DUP1 DUP3 AND DUP5 MSTORE PUSH3 0x10000 DUP1 DUP4 DIV PUSH1 0xFF SWAP1 DUP2 AND DUP7 DUP13 ADD MSTORE PUSH4 0x1000000 SWAP4 DUP5 SWAP1 DIV DUP2 AND DUP7 DUP11 ADD MSTORE DUP8 DUP12 ADD SWAP6 SWAP1 SWAP6 MSTORE DUP8 MLOAD SWAP9 DUP10 ADD DUP9 MSTORE PUSH1 0x2 SWAP1 SWAP6 ADD SLOAD SWAP1 DUP2 AND DUP9 MSTORE SWAP4 DUP5 DIV DUP4 AND DUP8 DUP10 ADD MSTORE SWAP1 SWAP3 DIV AND DUP5 DUP5 ADD MSTORE SWAP2 DUP2 ADD SWAP3 SWAP1 SWAP3 MSTORE SWAP1 DUP4 MSTORE SWAP1 SWAP3 ADD SWAP2 ADD PUSH2 0x183C JUMP JUMPDEST POP POP POP SWAP1 DUP3 MSTORE POP PUSH1 0x5 DUP3 ADD SLOAD PUSH1 0x20 SWAP1 SWAP2 ADD SWAP1 PUSH1 0xFF AND PUSH1 0x2 DUP2 GT ISZERO PUSH2 0x18FC JUMPI PUSH2 0x18FC PUSH2 0x387B JUMP JUMPDEST PUSH1 0x2 DUP2 GT ISZERO PUSH2 0x190D JUMPI PUSH2 0x190D PUSH2 0x387B JUMP JUMPDEST DUP2 MSTORE PUSH1 0x40 DUP1 MLOAD PUSH1 0x60 DUP1 DUP3 ADD DUP4 MSTORE PUSH1 0x6 DUP6 ADD SLOAD PUSH2 0xFFFF DUP1 DUP3 AND DUP5 MSTORE PUSH1 0xFF PUSH3 0x10000 DUP1 DUP5 DIV DUP3 AND PUSH1 0x20 DUP8 DUP2 ADD SWAP2 SWAP1 SWAP2 MSTORE PUSH4 0x1000000 SWAP5 DUP6 SWAP1 DIV DUP4 AND DUP8 DUP10 ADD MSTORE DUP1 DUP10 ADD SWAP7 SWAP1 SWAP7 MSTORE DUP7 MLOAD DUP1 DUP7 ADD DUP9 MSTORE PUSH1 0x7 DUP11 ADD SLOAD SWAP4 DUP5 AND DUP2 MSTORE SWAP1 DUP4 DIV DUP3 AND SWAP6 DUP2 ADD SWAP6 SWAP1 SWAP6 MSTORE SWAP2 SWAP1 DIV AND DUP3 DUP5 ADD MSTORE SWAP2 DUP4 ADD MSTORE PUSH1 0x8 DUP4 ADD DUP1 SLOAD SWAP2 SWAP1 SWAP3 ADD SWAP2 SWAP1 PUSH2 0x198F SWAP1 PUSH2 0x3CC3 JUMP JUMPDEST DUP1 PUSH1 0x1F ADD PUSH1 0x20 DUP1 SWAP2 DIV MUL PUSH1 0x20 ADD PUSH1 0x40 MLOAD SWAP1 DUP2 ADD PUSH1 0x40 MSTORE DUP1 SWAP3 SWAP2 SWAP1 DUP2 DUP2 MSTORE PUSH1 0x20 ADD DUP3 DUP1 SLOAD PUSH2 0x19BB SWAP1 PUSH2 0x3CC3 JUMP JUMPDEST DUP1 ISZERO PUSH2 0x1A06 JUMPI DUP1 PUSH1 0x1F LT PUSH2 0x19DD JUMPI PUSH2 0x100 DUP1 DUP4 SLOAD DIV MUL DUP4 MSTORE SWAP2 PUSH1 0x20 ADD SWAP2 PUSH2 0x1A06 JUMP JUMPDEST DUP3 ADD SWAP2 SWAP1 PUSH0 MSTORE PUSH1 0x20 PUSH0 KECCAK256 SWAP1 JUMPDEST DUP2 SLOAD DUP2 MSTORE SWAP1 PUSH1 0x1 ADD SWAP1 PUSH1 0x20 ADD DUP1 DUP4 GT PUSH2 0x19E9 JUMPI DUP3 SWAP1 SUB PUSH1 0x1F AND DUP3 ADD SWAP2 JUMPDEST POP POP POP POP POP DUP2 MSTORE POP POP SWAP1 POP SWAP2 SWAP1 POP JUMP JUMPDEST PUSH2 0x1A1E PUSH2 0x1F28 JUMP JUMPDEST CALLVALUE ISZERO PUSH2 0x1A3D JUMPI PUSH1 0x40 MLOAD PUSH4 0xF36BA737 PUSH1 0xE0 SHL DUP2 MSTORE PUSH1 0x4 ADD PUSH1 0x40 MLOAD DUP1 SWAP2 SUB SWAP1 REVERT JUMPDEST PUSH2 0x11DD DUP3 DUP3 PUSH2 0x2520 JUMP JUMPDEST PUSH1 0x1 PUSH1 0x1 PUSH1 0xA0 SHL SUB DUP2 AND PUSH0 SWAP1 DUP2 MSTORE PUSH1 0x4 PUSH1 0x20 MSTORE PUSH1 0x40 SWAP1 KECCAK256 PUSH1 0x60 SWAP1 PUSH2 0x7D1 SWAP1 PUSH2 0x20C6 JUMP JUMPDEST PUSH2 0x1A72 PUSH2 0x1F28 JUMP JUMPDEST DUP2 MLOAD DUP4 MLOAD EQ ISZERO DUP1 PUSH2 0x1A85 JUMPI POP DUP1 MLOAD DUP3 MLOAD EQ ISZERO JUMPDEST ISZERO PUSH2 0x1AA3 JUMPI PUSH1 0x40 MLOAD PUSH4 0x17D38EFF PUSH1 0xE1 SHL DUP2 MSTORE PUSH1 0x4 ADD PUSH1 0x40 MLOAD DUP1 SWAP2 SUB SWAP1 REVERT JUMPDEST DUP3 MLOAD PUSH0 SUB PUSH2 0x1AC4 JUMPI PUSH1 0x40 MLOAD PUSH4 0x80C98305 PUSH1 0xE0 SHL DUP2 MSTORE PUSH1 0x4 ADD PUSH1 0x40 MLOAD DUP1 SWAP2 SUB SWAP1 REVERT JUMPDEST PUSH0 JUMPDEST DUP4 MLOAD DUP2 LT ISZERO PUSH2 0x11A6 JUMPI PUSH2 0x1B25 DUP5 DUP3 DUP2 MLOAD DUP2 LT PUSH2 0x1AE4 JUMPI PUSH2 0x1AE4 PUSH2 0x3DF3 JUMP JUMPDEST PUSH1 0x20 MUL PUSH1 0x20 ADD ADD MLOAD DUP5 DUP4 DUP2 MLOAD DUP2 LT PUSH2 0x1AFE JUMPI PUSH2 0x1AFE PUSH2 0x3DF3 JUMP JUMPDEST PUSH1 0x20 MUL PUSH1 0x20 ADD ADD MLOAD DUP5 DUP5 DUP2 MLOAD DUP2 LT PUSH2 0x1B18 JUMPI PUSH2 0x1B18 PUSH2 0x3DF3 JUMP JUMPDEST PUSH1 0x20 MUL PUSH1 0x20 ADD ADD MLOAD PUSH2 0x25B7 JUMP JUMPDEST PUSH1 0x1 ADD PUSH2 0x1AC6 JUMP JUMPDEST DUP3 PUSH0 PUSH2 0x1B38 DUP3 PUSH2 0x9A3 JUMP JUMPDEST SWAP1 POP CALLER PUSH1 0x1 PUSH1 0x1 PUSH1 0xA0 SHL SUB DUP3 AND EQ DUP1 PUSH2 0x1B5A JUMPI POP PUSH0 SLOAD PUSH1 0x1 PUSH1 0x1 PUSH1 0xA0 SHL SUB AND CALLER EQ JUMPDEST PUSH2 0x1B76 JUMPI PUSH1 0x40 MLOAD PUSH3 0x461BCD PUSH1 0xE5 SHL DUP2 MSTORE PUSH1 0x4 ADD PUSH2 0x233 SWAP1 PUSH2 0x3E07 JUMP JUMPDEST PUSH2 0xB89 DUP6 DUP6 DUP6 PUSH2 0x25B7 JUMP JUMPDEST PUSH0 PUSH2 0x1B8B DUP5 PUSH2 0x9A3 JUMP JUMPDEST SWAP1 POP CALLER PUSH1 0x1 PUSH1 0x1 PUSH1 0xA0 SHL SUB DUP3 AND EQ PUSH2 0x1BDE JUMPI PUSH1 0x1 PUSH1 0x1 PUSH1 0xA0 SHL SUB DUP6 AND CALLER EQ PUSH2 0x1BDE JUMPI PUSH1 0x40 MLOAD PUSH4 0x760B5ACD PUSH1 0xE0 SHL DUP2 MSTORE CALLER PUSH1 0x4 DUP3 ADD MSTORE PUSH1 0x1 PUSH1 0x1 PUSH1 0xA0 SHL SUB DUP3 AND PUSH1 0x24 DUP3 ADD MSTORE PUSH1 0x44 DUP2 ADD DUP6 SWAP1 MSTORE PUSH1 0x64 ADD PUSH2 0x233 JUMP JUMPDEST PUSH1 0x1 PUSH1 0x1 PUSH1 0xA0 SHL SUB DUP6 AND PUSH2 0x1C05 JUMPI PUSH1 0x40 MLOAD PUSH4 0x9577B8B3 PUSH1 0xE0 SHL DUP2 MSTORE PUSH1 0x4 ADD PUSH1 0x40 MLOAD DUP1 SWAP2 SUB SWAP1 REVERT JUMPDEST DUP5 PUSH1 0x1 PUSH1 0x1 PUSH1 0xA0 SHL SUB AND DUP2 PUSH1 0x1 PUSH1 0x1 PUSH1 0xA0 SHL SUB AND SUB PUSH2 0x1C37 JUMPI PUSH1 0x40 MLOAD PUSH4 0x44FED6B1 PUSH1 0xE1 SHL DUP2 MSTORE PUSH1 0x4 ADD PUSH1 0x40 MLOAD DUP1 SWAP2 SUB SWAP1 REVERT JUMPDEST PUSH2 0x1C44 DUP6 DUP3 DUP7 DUP7 DUP7 PUSH2 0x2645 JUMP JUMPDEST DUP3 ISZERO PUSH2 0xB89 JUMPI PUSH0 DUP2 DUP6 PUSH0 DUP6 PUSH1 0x40 MLOAD PUSH1 0x20 ADD PUSH2 0x1335 SWAP5 SWAP4 SWAP3 SWAP2 SWAP1 PUSH2 0x3EC2 JUMP JUMPDEST PUSH1 0x60 DUP2 MLOAD PUSH1 0x1 PUSH1 0x1 PUSH1 0x40 SHL SUB DUP2 GT ISZERO PUSH2 0x1C7D JUMPI PUSH2 0x1C7D PUSH2 0x2F4C JUMP JUMPDEST PUSH1 0x40 MLOAD SWAP1 DUP1 DUP3 MSTORE DUP1 PUSH1 0x20 MUL PUSH1 0x20 ADD DUP3 ADD PUSH1 0x40 MSTORE DUP1 ISZERO PUSH2 0x1CB0 JUMPI DUP2 PUSH1 0x20 ADD JUMPDEST PUSH1 0x60 DUP2 MSTORE PUSH1 0x20 ADD SWAP1 PUSH1 0x1 SWAP1 SUB SWAP1 DUP2 PUSH2 0x1C9B JUMPI SWAP1 POP JUMPDEST POP SWAP1 POP PUSH0 JUMPDEST DUP3 MLOAD DUP2 LT ISZERO PUSH2 0x1D05 JUMPI PUSH2 0x1CE0 DUP4 DUP3 DUP2 MLOAD DUP2 LT PUSH2 0x1CD3 JUMPI PUSH2 0x1CD3 PUSH2 0x3DF3 JUMP JUMPDEST PUSH1 0x20 MUL PUSH1 0x20 ADD ADD MLOAD PUSH2 0x22AE JUMP JUMPDEST DUP3 DUP3 DUP2 MLOAD DUP2 LT PUSH2 0x1CF2 JUMPI PUSH2 0x1CF2 PUSH2 0x3DF3 JUMP JUMPDEST PUSH1 0x20 SWAP1 DUP2 MUL SWAP2 SWAP1 SWAP2 ADD ADD MSTORE PUSH1 0x1 ADD PUSH2 0x1CB5 JUMP JUMPDEST POP SWAP2 SWAP1 POP JUMP JUMPDEST PUSH1 0x9 DUP1 SLOAD PUSH2 0x1D18 SWAP1 PUSH2 0x3CC3 JUMP JUMPDEST DUP1 PUSH1 0x1F ADD PUSH1 0x20 DUP1 SWAP2 DIV MUL PUSH1 0x20 ADD PUSH1 0x40 MLOAD SWAP1 DUP2 ADD PUSH1 0x40 MSTORE DUP1 SWAP3 SWAP2 SWAP1 DUP2 DUP2 MSTORE PUSH1 0x20 ADD DUP3 DUP1 SLOAD PUSH2 0x1D44 SWAP1 PUSH2 0x3CC3 JUMP JUMPDEST DUP1 ISZERO PUSH2 0x1D8F JUMPI DUP1 PUSH1 0x1F LT PUSH2 0x1D66 JUMPI PUSH2 0x100 DUP1 DUP4 SLOAD DIV MUL DUP4 MSTORE SWAP2 PUSH1 0x20 ADD SWAP2 PUSH2 0x1D8F JUMP JUMPDEST DUP3 ADD SWAP2 SWAP1 PUSH0 MSTORE PUSH1 0x20 PUSH0 KECCAK256 SWAP1 JUMPDEST DUP2 SLOAD DUP2 MSTORE SWAP1 PUSH1 0x1 ADD SWAP1 PUSH1 0x20 ADD DUP1 DUP4 GT PUSH2 0x1D72 JUMPI DUP3 SWAP1 SUB PUSH1 0x1F AND DUP3 ADD SWAP2 JUMPDEST POP POP POP POP POP DUP2 JUMP JUMPDEST PUSH2 0x1D9F PUSH2 0x1F28 JUMP JUMPDEST PUSH1 0x1 PUSH1 0x1 PUSH1 0xA0 SHL SUB DUP2 AND PUSH2 0x851 JUMPI PUSH1 0x40 MLOAD PUSH3 0x461BCD PUSH1 0xE5 SHL DUP2 MSTORE PUSH1 0x20 PUSH1 0x4 DUP3 ADD MSTORE PUSH1 0x26 PUSH1 0x24 DUP3 ADD MSTORE PUSH32 0x4F776E61626C653A206E6577206F776E657220697320746865207A65726F2061 PUSH1 0x44 DUP3 ADD MSTORE PUSH6 0x646472657373 PUSH1 0xD0 SHL PUSH1 0x64 DUP3 ADD MSTORE PUSH1 0x84 ADD PUSH2 0x233 JUMP JUMPDEST PUSH0 DUP1 DUP1 PUSH2 0x1E28 PUSH10 0x6773C5A04A6D4300884B PUSH1 0xB1 SHL PUSH1 0x1 PUSH1 0x1 PUSH1 0xE0 SHL SUB NOT DUP7 AND PUSH2 0x26E4 JUMP JUMPDEST SWAP1 POP PUSH0 PUSH2 0x1E34 DUP3 PUSH2 0x22AE JUMP JUMPDEST SWAP1 POP DUP1 MLOAD PUSH1 0x14 EQ ISZERO DUP1 ISZERO PUSH2 0x1E48 JUMPI POP DUP1 MLOAD ISZERO ISZERO JUMPDEST ISZERO PUSH2 0x1E68 JUMPI DUP1 PUSH1 0x40 MLOAD PUSH4 0x42BFE79F PUSH1 0xE0 SHL DUP2 MSTORE PUSH1 0x4 ADD PUSH2 0x233 SWAP2 SWAP1 PUSH2 0x3089 JUMP JUMPDEST PUSH2 0x1E71 DUP2 PUSH2 0x3EFA JUMP JUMPDEST PUSH1 0x60 SHR SWAP6 PUSH1 0x1 SWAP6 POP SWAP4 POP POP POP POP JUMP JUMPDEST PUSH0 PUSH1 0x1 PUSH1 0x1 PUSH1 0xE0 SHL SUB NOT DUP3 AND PUSH4 0xA918FA6B PUSH1 0xE0 SHL EQ DUP1 PUSH2 0x7D1 JUMPI POP PUSH2 0x7D1 DUP3 PUSH2 0x2737 JUMP JUMPDEST PUSH0 DUP1 PUSH2 0x1EB6 PUSH4 0x1FFC9A7 PUSH1 0xE0 SHL PUSH2 0x1E04 JUMP JUMPDEST POP SWAP1 POP PUSH1 0x1 PUSH1 0x1 PUSH1 0xA0 SHL SUB DUP2 AND PUSH2 0x1ECF JUMPI POP PUSH0 SWAP3 SWAP2 POP POP JUMP JUMPDEST PUSH2 0x8B6 DUP2 DUP5 PUSH2 0x276B JUMP JUMPDEST PUSH0 DUP1 SLOAD PUSH1 0x1 PUSH1 0x1 PUSH1 0xA0 SHL SUB DUP4 DUP2 AND PUSH1 0x1 PUSH1 0x1 PUSH1 0xA0 SHL SUB NOT DUP4 AND DUP2 OR DUP5 SSTORE PUSH1 0x40 MLOAD SWAP2 SWAP1 SWAP3 AND SWAP3 DUP4 SWAP2 PUSH32 0x8BE0079C531659141344CD1FD0A4F28419497F9722A3DAAFE3B4186F6B6457E0 SWAP2 SWAP1 LOG3 POP POP JUMP JUMPDEST PUSH0 SLOAD PUSH1 0x1 PUSH1 0x1 PUSH1 0xA0 SHL SUB AND CALLER EQ PUSH2 0xE65 JUMPI PUSH1 0x40 MLOAD PUSH3 0x461BCD PUSH1 0xE5 SHL DUP2 MSTORE PUSH1 0x20 PUSH1 0x4 DUP3 ADD DUP2 SWAP1 MSTORE PUSH1 0x24 DUP3 ADD MSTORE PUSH32 0x4F776E61626C653A2063616C6C6572206973206E6F7420746865206F776E6572 PUSH1 0x44 DUP3 ADD MSTORE PUSH1 0x64 ADD PUSH2 0x233 JUMP JUMPDEST PUSH1 0x60 PUSH1 0x1 PUSH0 DUP5 DUP5 PUSH1 0x40 MLOAD PUSH1 0x20 ADD PUSH2 0x1FA2 SWAP3 SWAP2 SWAP1 SWAP2 DUP3 MSTORE PUSH1 0x20 DUP3 ADD MSTORE PUSH1 0x40 ADD SWAP1 JUMP JUMPDEST PUSH1 0x40 MLOAD PUSH1 0x20 DUP2 DUP4 SUB SUB DUP2 MSTORE SWAP1 PUSH1 0x40 MSTORE DUP1 MLOAD SWAP1 PUSH1 0x20 ADD KECCAK256 DUP2 MSTORE PUSH1 0x20 ADD SWAP1 DUP2 MSTORE PUSH1 0x20 ADD PUSH0 KECCAK256 DUP1 SLOAD PUSH2 0x1FD0 SWAP1 PUSH2 0x3CC3 JUMP JUMPDEST DUP1 PUSH1 0x1F ADD PUSH1 0x20 DUP1 SWAP2 DIV MUL PUSH1 0x20 ADD PUSH1 0x40 MLOAD SWAP1 DUP2 ADD PUSH1 0x40 MSTORE DUP1 SWAP3 SWAP2 SWAP1 DUP2 DUP2 MSTORE PUSH1 0x20 ADD DUP3 DUP1 SLOAD PUSH2 0x1FFC SWAP1 PUSH2 0x3CC3 JUMP JUMPDEST DUP1 ISZERO PUSH2 0x2047 JUMPI DUP1 PUSH1 0x1F LT PUSH2 0x201E JUMPI PUSH2 0x100 DUP1 DUP4 SLOAD DIV MUL DUP4 MSTORE SWAP2 PUSH1 0x20 ADD SWAP2 PUSH2 0x2047 JUMP JUMPDEST DUP3 ADD SWAP2 SWAP1 PUSH0 MSTORE PUSH1 0x20 PUSH0 KECCAK256 SWAP1 JUMPDEST DUP2 SLOAD DUP2 MSTORE SWAP1 PUSH1 0x1 ADD SWAP1 PUSH1 0x20 ADD DUP1 DUP4 GT PUSH2 0x202A JUMPI DUP3 SWAP1 SUB PUSH1 0x1F AND DUP3 ADD SWAP2 JUMPDEST POP POP POP POP POP SWAP1 POP SWAP3 SWAP2 POP POP JUMP JUMPDEST PUSH0 PUSH2 0x205E DUP3 PUSH2 0x9A3 JUMP JUMPDEST PUSH1 0x1 PUSH1 0x1 PUSH1 0xA0 SHL SUB AND DUP4 PUSH1 0x1 PUSH1 0x1 PUSH1 0xA0 SHL SUB AND EQ DUP1 PUSH2 0x8B6 JUMPI POP PUSH0 DUP3 DUP2 MSTORE PUSH1 0x5 PUSH1 0x20 MSTORE PUSH1 0x40 SWAP1 KECCAK256 PUSH2 0x8B6 SWAP1 DUP5 PUSH2 0x27F1 JUMP JUMPDEST PUSH0 DUP2 DUP2 MSTORE PUSH1 0x3 PUSH1 0x20 MSTORE PUSH1 0x40 SWAP1 KECCAK256 SLOAD PUSH1 0x1 PUSH1 0x1 PUSH1 0xA0 SHL SUB AND PUSH2 0x85A JUMPI PUSH1 0x40 MLOAD PUSH4 0x5747CD1B PUSH1 0xE1 SHL DUP2 MSTORE PUSH1 0x4 DUP2 ADD DUP3 SWAP1 MSTORE PUSH1 0x24 ADD PUSH2 0x233 JUMP JUMPDEST PUSH1 0x60 PUSH0 PUSH2 0x8B6 DUP4 PUSH2 0x2812 JUMP JUMPDEST PUSH0 PUSH2 0x20DC DUP5 PUSH2 0x9A3 JUMP JUMPDEST SWAP1 POP DUP6 PUSH1 0x1 PUSH1 0x1 PUSH1 0xA0 SHL SUB AND DUP2 PUSH1 0x1 PUSH1 0x1 PUSH1 0xA0 SHL SUB AND EQ PUSH2 0x212A JUMPI PUSH1 0x40 MLOAD PUSH4 0x2D938F51 PUSH1 0xE1 SHL DUP2 MSTORE PUSH1 0x1 PUSH1 0x1 PUSH1 0xA0 SHL SUB DUP1 DUP4 AND PUSH1 0x4 DUP4 ADD MSTORE PUSH1 0x24 DUP3 ADD DUP7 SWAP1 MSTORE DUP8 AND PUSH1 0x44 DUP3 ADD MSTORE PUSH1 0x64 ADD PUSH2 0x233 JUMP JUMPDEST PUSH1 0x1 PUSH1 0x1 PUSH1 0xA0 SHL SUB DUP6 AND PUSH2 0x2151 JUMPI PUSH1 0x40 MLOAD PUSH4 0x24ECEF4D PUSH1 0xE0 SHL DUP2 MSTORE PUSH1 0x4 ADD PUSH1 0x40 MLOAD DUP1 SWAP2 SUB SWAP1 REVERT JUMPDEST PUSH0 PUSH2 0x215B DUP6 PUSH2 0x9A3 JUMP JUMPDEST SWAP1 POP DUP1 PUSH1 0x1 PUSH1 0x1 PUSH1 0xA0 SHL SUB AND DUP3 PUSH1 0x1 PUSH1 0x1 PUSH1 0xA0 SHL SUB AND EQ PUSH2 0x21A9 JUMPI PUSH1 0x40 MLOAD PUSH4 0x5A9C31D3 PUSH1 0xE0 SHL DUP2 MSTORE PUSH1 0x4 DUP2 ADD DUP7 SWAP1 MSTORE PUSH1 0x1 PUSH1 0x1 PUSH1 0xA0 SHL SUB DUP1 DUP5 AND PUSH1 0x24 DUP4 ADD MSTORE DUP3 AND PUSH1 0x44 DUP3 ADD MSTORE PUSH1 0x64 ADD PUSH2 0x233 JUMP JUMPDEST PUSH2 0x21B3 DUP8 DUP7 PUSH2 0x286A JUMP JUMPDEST PUSH1 0x1 PUSH1 0x1 PUSH1 0xA0 SHL SUB DUP8 AND PUSH0 SWAP1 DUP2 MSTORE PUSH1 0x4 PUSH1 0x20 MSTORE PUSH1 0x40 SWAP1 KECCAK256 PUSH2 0x21D4 SWAP1 DUP7 PUSH2 0x28BD JUMP JUMPDEST POP PUSH1 0x1 PUSH1 0x1 PUSH1 0xA0 SHL SUB DUP7 AND PUSH0 SWAP1 DUP2 MSTORE PUSH1 0x4 PUSH1 0x20 MSTORE PUSH1 0x40 SWAP1 KECCAK256 PUSH2 0x21F6 SWAP1 DUP7 PUSH2 0x28C8 JUMP JUMPDEST POP PUSH0 DUP6 DUP2 MSTORE PUSH1 0x3 PUSH1 0x20 MSTORE PUSH1 0x40 SWAP1 DUP2 SWAP1 KECCAK256 DUP1 SLOAD PUSH1 0x1 PUSH1 0x1 PUSH1 0xA0 SHL SUB NOT AND PUSH1 0x1 PUSH1 0x1 PUSH1 0xA0 SHL SUB DUP10 DUP2 AND SWAP2 DUP3 OR SWAP1 SWAP3 SSTORE SWAP2 MLOAD DUP8 SWAP3 SWAP2 DUP11 AND SWAP1 PUSH32 0xB333C813A7426A7A11E2B190CAD52C44119421594B47F6F32ACE6D8C7207B2BF SWAP1 PUSH2 0x225C SWAP1 CALLER SWAP1 DUP11 SWAP1 DUP11 SWAP1 PUSH2 0x3F48 JUMP JUMPDEST PUSH1 0x40 MLOAD DUP1 SWAP2 SUB SWAP1 LOG4 PUSH0 CALLER DUP9 DUP9 DUP9 DUP8 PUSH1 0x40 MLOAD PUSH1 0x20 ADD PUSH2 0x227E SWAP6 SWAP5 SWAP4 SWAP3 SWAP2 SWAP1 PUSH2 0x3F73 JUMP JUMPDEST PUSH1 0x40 MLOAD PUSH1 0x20 DUP2 DUP4 SUB SUB DUP2 MSTORE SWAP1 PUSH1 0x40 MSTORE SWAP1 POP PUSH2 0x2299 DUP9 DUP3 PUSH2 0x28D3 JUMP JUMPDEST PUSH2 0x22A4 DUP8 DUP7 DUP4 PUSH2 0x28FE JUMP JUMPDEST POP POP POP POP POP POP POP POP JUMP JUMPDEST PUSH0 DUP2 DUP2 MSTORE PUSH1 0x1 PUSH1 0x20 MSTORE PUSH1 0x40 SWAP1 KECCAK256 DUP1 SLOAD PUSH1 0x60 SWAP2 SWAP1 PUSH2 0x22CA SWAP1 PUSH2 0x3CC3 JUMP JUMPDEST DUP1 PUSH1 0x1F ADD PUSH1 0x20 DUP1 SWAP2 DIV MUL PUSH1 0x20 ADD PUSH1 0x40 MLOAD SWAP1 DUP2 ADD PUSH1 0x40 MSTORE DUP1 SWAP3 SWAP2 SWAP1 DUP2 DUP2 MSTORE PUSH1 0x20 ADD DUP3 DUP1 SLOAD PUSH2 0x22F6 SWAP1 PUSH2 0x3CC3 JUMP JUMPDEST DUP1 ISZERO PUSH2 0x2341 JUMPI DUP1 PUSH1 0x1F LT PUSH2 0x2318 JUMPI PUSH2 0x100 DUP1 DUP4 SLOAD DIV MUL DUP4 MSTORE SWAP2 PUSH1 0x20 ADD SWAP2 PUSH2 0x2341 JUMP JUMPDEST DUP3 ADD SWAP2 SWAP1 PUSH0 MSTORE PUSH1 0x20 PUSH0 KECCAK256 SWAP1 JUMPDEST DUP2 SLOAD DUP2 MSTORE SWAP1 PUSH1 0x1 ADD SWAP1 PUSH1 0x20 ADD DUP1 DUP4 GT PUSH2 0x2324 JUMPI DUP3 SWAP1 SUB PUSH1 0x1F AND DUP3 ADD SWAP2 JUMPDEST POP POP POP POP POP SWAP1 POP SWAP2 SWAP1 POP JUMP JUMPDEST PUSH0 PUSH2 0x235C PUSH1 0x6 DUP1 SLOAD PUSH1 0x1 ADD SWAP1 SSTORE JUMP JUMPDEST PUSH1 0x6 SLOAD PUSH0 SHL SWAP1 POP PUSH2 0x237E DUP6 DUP3 PUSH1 0x1 PUSH1 0x40 MLOAD DUP1 PUSH1 0x20 ADD PUSH1 0x40 MSTORE DUP1 PUSH0 DUP2 MSTORE POP PUSH2 0x2A01 JUMP JUMPDEST PUSH0 DUP2 DUP2 MSTORE PUSH1 0x7 PUSH1 0x20 MSTORE PUSH1 0x40 SWAP1 KECCAK256 DUP1 PUSH2 0x2396 DUP10 DUP3 PUSH2 0x3D39 JUMP JUMPDEST POP DUP4 MLOAD PUSH1 0x6 DUP3 ADD DUP1 SLOAD PUSH1 0x20 DUP1 DUP9 ADD MLOAD PUSH1 0x40 DUP1 DUP11 ADD MLOAD PUSH2 0xFFFF SWAP7 DUP8 AND PUSH3 0xFFFFFF NOT SWAP6 DUP7 AND OR PUSH3 0x10000 PUSH1 0xFF SWAP5 DUP6 AND DUP2 MUL SWAP2 SWAP1 SWAP2 OR PUSH4 0xFF000000 NOT SWAP1 DUP2 AND PUSH4 0x1000000 SWAP4 DUP7 AND DUP5 MUL OR SWAP1 SWAP8 SSTORE DUP11 MLOAD PUSH1 0x7 DUP11 ADD DUP1 SLOAD SWAP7 DUP14 ADD MLOAD SWAP5 DUP14 ADD MLOAD SWAP2 SWAP1 SWAP10 AND SWAP6 SWAP1 SWAP7 AND SWAP5 SWAP1 SWAP5 OR SWAP2 DUP4 AND SWAP1 SWAP4 MUL OR SWAP1 SWAP4 AND SWAP2 SWAP1 SWAP3 AND SWAP1 SWAP2 MUL OR SWAP1 SSTORE PUSH1 0x5 DUP2 ADD DUP1 SLOAD DUP7 SWAP2 SWAP1 PUSH1 0xFF NOT AND PUSH1 0x1 DUP4 PUSH1 0x2 DUP2 GT ISZERO PUSH2 0x2431 JUMPI PUSH2 0x2431 PUSH2 0x387B JUMP JUMPDEST MUL OR SWAP1 SSTORE POP PUSH1 0x8 DUP2 ADD PUSH2 0x2444 DUP9 DUP3 PUSH2 0x3D39 JUMP JUMPDEST POP PUSH1 0x40 MLOAD PUSH1 0x1 PUSH1 0x1 PUSH1 0xA0 SHL SUB DUP8 AND DUP2 MSTORE DUP3 SWAP1 PUSH32 0xA6912C28A8CB5FC5CAB504E471CFA6BC504444025484D810E2565BC7DEAD6657 SWAP1 PUSH1 0x20 ADD PUSH1 0x40 MLOAD DUP1 SWAP2 SUB SWAP1 LOG2 POP SWAP7 SWAP6 POP POP POP POP POP POP JUMP JUMPDEST PUSH0 PUSH2 0x7D1 DUP3 SLOAD SWAP1 JUMP JUMPDEST PUSH32 0x98A16C9E50E3E99B3E797305C146898D294E5AEC55A47E213CB3611CCF17E73 DUP3 ADD PUSH2 0x24D7 JUMPI PUSH1 0x40 MLOAD PUSH4 0x1B324005 PUSH1 0xE1 SHL DUP2 MSTORE PUSH1 0x4 ADD PUSH1 0x40 MLOAD DUP1 SWAP2 SUB SWAP1 REVERT JUMPDEST PUSH2 0x11DD DUP3 DUP3 PUSH2 0x2B6A JUMP JUMPDEST PUSH0 PUSH2 0x8B6 DUP4 PUSH1 0x1 PUSH1 0x1 PUSH1 0xA0 SHL SUB DUP5 AND PUSH2 0x2C7E JUMP JUMPDEST PUSH2 0x11DD DUP3 PUSH32 0x8A1C15A8799F71B547E08E2BCB2E85257E81B0A07EEE2CE6712549EEF1F00970 DUP4 PUSH2 0x2CCA JUMP JUMPDEST DUP1 MLOAD DUP3 MLOAD EQ PUSH2 0x2542 JUMPI PUSH1 0x40 MLOAD PUSH4 0x3BCC8979 PUSH1 0xE0 SHL DUP2 MSTORE PUSH1 0x4 ADD PUSH1 0x40 MLOAD DUP1 SWAP2 SUB SWAP1 REVERT JUMPDEST DUP2 MLOAD PUSH0 SUB PUSH2 0x2563 JUMPI PUSH1 0x40 MLOAD PUSH4 0x97DA5F95 PUSH1 0xE0 SHL DUP2 MSTORE PUSH1 0x4 ADD PUSH1 0x40 MLOAD DUP1 SWAP2 SUB SWAP1 REVERT JUMPDEST PUSH0 JUMPDEST DUP3 MLOAD DUP2 LT ISZERO PUSH2 0x25B2 JUMPI PUSH2 0x25AA DUP4 DUP3 DUP2 MLOAD DUP2 LT PUSH2 0x2583 JUMPI PUSH2 0x2583 PUSH2 0x3DF3 JUMP JUMPDEST PUSH1 0x20 MUL PUSH1 0x20 ADD ADD MLOAD DUP4 DUP4 DUP2 MLOAD DUP2 LT PUSH2 0x259D JUMPI PUSH2 0x259D PUSH2 0x3DF3 JUMP JUMPDEST PUSH1 0x20 MUL PUSH1 0x20 ADD ADD MLOAD PUSH2 0x2497 JUMP JUMPDEST PUSH1 0x1 ADD PUSH2 0x2565 JUMP JUMPDEST POP POP POP JUMP JUMPDEST DUP1 PUSH1 0x1 PUSH0 DUP6 DUP6 PUSH1 0x40 MLOAD PUSH1 0x20 ADD PUSH2 0x25D7 SWAP3 SWAP2 SWAP1 SWAP2 DUP3 MSTORE PUSH1 0x20 DUP3 ADD MSTORE PUSH1 0x40 ADD SWAP1 JUMP JUMPDEST PUSH1 0x40 MLOAD PUSH1 0x20 DUP2 DUP4 SUB SUB DUP2 MSTORE SWAP1 PUSH1 0x40 MSTORE DUP1 MLOAD SWAP1 PUSH1 0x20 ADD KECCAK256 DUP2 MSTORE PUSH1 0x20 ADD SWAP1 DUP2 MSTORE PUSH1 0x20 ADD PUSH0 KECCAK256 SWAP1 DUP2 PUSH2 0x2606 SWAP2 SWAP1 PUSH2 0x3D39 JUMP JUMPDEST POP DUP2 DUP4 PUSH32 0xA6E4251F855F750545FE414F120DB91C76B88DEF14D120969E5BB2D3F05DEBBB DUP4 PUSH1 0x40 MLOAD PUSH2 0x2638 SWAP2 SWAP1 PUSH2 0x3089 JUMP JUMPDEST PUSH1 0x40 MLOAD DUP1 SWAP2 SUB SWAP1 LOG3 POP POP POP JUMP JUMPDEST PUSH0 DUP4 DUP2 MSTORE PUSH1 0x5 PUSH1 0x20 MSTORE PUSH1 0x40 DUP2 KECCAK256 PUSH2 0x265C SWAP1 DUP8 PUSH2 0x2D17 JUMP JUMPDEST SWAP1 POP DUP1 PUSH2 0x268E JUMPI PUSH1 0x40 MLOAD PUSH4 0x12A8C6A3 PUSH1 0xE2 SHL DUP2 MSTORE PUSH1 0x1 PUSH1 0x1 PUSH1 0xA0 SHL SUB DUP8 AND PUSH1 0x4 DUP3 ADD MSTORE PUSH1 0x24 DUP2 ADD DUP6 SWAP1 MSTORE PUSH1 0x44 ADD PUSH2 0x233 JUMP JUMPDEST DUP4 DUP6 PUSH1 0x1 PUSH1 0x1 PUSH1 0xA0 SHL SUB AND DUP8 PUSH1 0x1 PUSH1 0x1 PUSH1 0xA0 SHL SUB AND PUSH32 0xC78CD419D6136F9F1C1C6AEC1D3FAE098CFFAF8BC86314A8F2685E32FE574E3C DUP7 DUP7 PUSH1 0x40 MLOAD PUSH2 0x26D4 SWAP3 SWAP2 SWAP1 PUSH2 0x3FAD JUMP JUMPDEST PUSH1 0x40 MLOAD DUP1 SWAP2 SUB SWAP1 LOG4 POP POP POP POP POP POP JUMP JUMPDEST PUSH1 0x40 DUP1 MLOAD PUSH1 0x1 PUSH1 0x1 PUSH1 0xB0 SHL SUB NOT DUP5 AND PUSH1 0x20 DUP3 ADD MSTORE PUSH0 PUSH1 0x2A DUP3 ADD DUP2 SWAP1 MSTORE PUSH1 0x1 PUSH1 0x1 PUSH1 0x60 SHL SUB NOT DUP5 AND PUSH1 0x2C DUP4 ADD MSTORE SWAP2 DUP3 SWAP2 ADD PUSH1 0x40 MLOAD PUSH1 0x20 DUP2 DUP4 SUB SUB DUP2 MSTORE SWAP1 PUSH1 0x40 MSTORE SWAP1 POP DUP1 PUSH2 0x272F SWAP1 PUSH2 0x3FC7 JUMP JUMPDEST SWAP5 SWAP4 POP POP POP POP JUMP JUMPDEST PUSH0 PUSH1 0x1 PUSH1 0x1 PUSH1 0xE0 SHL SUB NOT DUP3 AND PUSH4 0x18A6A9A5 PUSH1 0xE2 SHL EQ DUP1 PUSH2 0x7D1 JUMPI POP PUSH4 0x1FFC9A7 PUSH1 0xE0 SHL PUSH1 0x1 PUSH1 0x1 PUSH1 0xE0 SHL SUB NOT DUP4 AND EQ PUSH2 0x7D1 JUMP JUMPDEST PUSH1 0x40 DUP1 MLOAD PUSH1 0x1 PUSH1 0x1 PUSH1 0xE0 SHL SUB NOT DUP4 AND PUSH1 0x24 DUP1 DUP4 ADD SWAP2 SWAP1 SWAP2 MSTORE DUP3 MLOAD DUP1 DUP4 SUB SWAP1 SWAP2 ADD DUP2 MSTORE PUSH1 0x44 SWAP1 SWAP2 ADD SWAP1 SWAP2 MSTORE PUSH1 0x20 DUP1 DUP3 ADD DUP1 MLOAD PUSH1 0x1 PUSH1 0x1 PUSH1 0xE0 SHL SUB AND PUSH4 0x1FFC9A7 PUSH1 0xE0 SHL OR DUP2 MSTORE DUP3 MLOAD PUSH0 SWAP4 SWAP3 DUP5 SWAP3 DUP4 SWAP3 DUP4 SWAP3 SWAP2 DUP4 SWAP2 SWAP1 DUP11 PUSH2 0x7530 STATICCALL SWAP3 POP RETURNDATASIZE SWAP2 POP PUSH0 MLOAD SWAP1 POP DUP3 DUP1 ISZERO PUSH2 0x27DB JUMPI POP PUSH1 0x20 DUP3 LT ISZERO JUMPDEST DUP1 ISZERO PUSH2 0x27E6 JUMPI POP PUSH0 DUP2 GT JUMPDEST SWAP8 SWAP7 POP POP POP POP POP POP POP JUMP JUMPDEST PUSH1 0x1 PUSH1 0x1 PUSH1 0xA0 SHL SUB DUP2 AND PUSH0 SWAP1 DUP2 MSTORE PUSH1 0x1 DUP4 ADD PUSH1 0x20 MSTORE PUSH1 0x40 DUP2 KECCAK256 SLOAD ISZERO ISZERO PUSH2 0x8B6 JUMP JUMPDEST PUSH1 0x60 DUP2 PUSH0 ADD DUP1 SLOAD DUP1 PUSH1 0x20 MUL PUSH1 0x20 ADD PUSH1 0x40 MLOAD SWAP1 DUP2 ADD PUSH1 0x40 MSTORE DUP1 SWAP3 SWAP2 SWAP1 DUP2 DUP2 MSTORE PUSH1 0x20 ADD DUP3 DUP1 SLOAD DUP1 ISZERO PUSH2 0x2341 JUMPI PUSH1 0x20 MUL DUP3 ADD SWAP2 SWAP1 PUSH0 MSTORE PUSH1 0x20 PUSH0 KECCAK256 SWAP1 JUMPDEST DUP2 SLOAD DUP2 MSTORE PUSH1 0x20 ADD SWAP1 PUSH1 0x1 ADD SWAP1 DUP1 DUP4 GT PUSH2 0x284B JUMPI POP POP POP POP POP SWAP1 POP SWAP2 SWAP1 POP JUMP JUMPDEST PUSH0 DUP2 DUP2 MSTORE PUSH1 0x5 PUSH1 0x20 MSTORE PUSH1 0x40 DUP2 KECCAK256 SWAP1 PUSH2 0x2881 DUP3 PUSH2 0x248E JUMP JUMPDEST SWAP1 POP PUSH0 PUSH0 JUMPDEST DUP3 DUP2 LT ISZERO PUSH2 0x1350 JUMPI PUSH2 0x2898 DUP5 PUSH0 PUSH2 0x2D2B JUMP JUMPDEST SWAP2 POP PUSH2 0x28B5 DUP3 DUP8 DUP8 PUSH0 PUSH1 0x40 MLOAD DUP1 PUSH1 0x20 ADD PUSH1 0x40 MSTORE DUP1 PUSH0 DUP2 MSTORE POP PUSH2 0x2645 JUMP JUMPDEST PUSH1 0x1 ADD PUSH2 0x2886 JUMP JUMPDEST PUSH0 PUSH2 0x8B6 DUP4 DUP4 PUSH2 0x2D36 JUMP JUMPDEST PUSH0 PUSH2 0x8B6 DUP4 DUP4 PUSH2 0x2C7E JUMP JUMPDEST PUSH2 0x11DD DUP3 PUSH32 0xB23EAE7E6D1564B295B4C3E3BE402D9A2F0776C57BDF365903496F6FA481AB00 DUP4 PUSH2 0x2CCA JUMP JUMPDEST PUSH2 0x290F DUP4 PUSH4 0x1AED5A85 PUSH1 0xE2 SHL PUSH2 0x276B JUMP JUMPDEST ISZERO PUSH2 0x29A4 JUMPI PUSH1 0x40 MLOAD PUSH4 0x1AED5A85 PUSH1 0xE2 SHL DUP2 MSTORE PUSH1 0x1 PUSH1 0x1 PUSH1 0xA0 SHL SUB DUP5 AND SWAP1 PUSH4 0x6BB56A14 SWAP1 PUSH2 0x2962 SWAP1 PUSH32 0xB084A55EBF70FD3C06FD755269DAC2212C4D3F0F4D09079780BFA50C1B2984D SWAP1 DUP6 SWAP1 PUSH1 0x4 ADD PUSH2 0x3FEA JUMP JUMPDEST PUSH0 PUSH1 0x40 MLOAD DUP1 DUP4 SUB DUP2 PUSH0 DUP8 GAS CALL ISZERO DUP1 ISZERO PUSH2 0x297D JUMPI RETURNDATASIZE PUSH0 PUSH0 RETURNDATACOPY RETURNDATASIZE PUSH0 REVERT JUMPDEST POP POP POP POP PUSH1 0x40 MLOAD RETURNDATASIZE PUSH0 DUP3 RETURNDATACOPY PUSH1 0x1F RETURNDATASIZE SWAP1 DUP2 ADD PUSH1 0x1F NOT AND DUP3 ADD PUSH1 0x40 MSTORE PUSH2 0x11A6 SWAP2 SWAP1 DUP2 ADD SWAP1 PUSH2 0x4002 JUMP JUMPDEST DUP2 PUSH2 0x25B2 JUMPI PUSH1 0x1 PUSH1 0x1 PUSH1 0xA0 SHL SUB DUP4 AND EXTCODESIZE ISZERO PUSH2 0x29DD JUMPI PUSH1 0x40 MLOAD PUSH4 0x4349776D PUSH1 0xE0 SHL DUP2 MSTORE PUSH1 0x1 PUSH1 0x1 PUSH1 0xA0 SHL SUB DUP5 AND PUSH1 0x4 DUP3 ADD MSTORE PUSH1 0x24 ADD PUSH2 0x233 JUMP JUMPDEST PUSH1 0x40 MLOAD PUSH4 0x3173137 PUSH1 0xE0 SHL DUP2 MSTORE PUSH1 0x1 PUSH1 0x1 PUSH1 0xA0 SHL SUB DUP5 AND PUSH1 0x4 DUP3 ADD MSTORE PUSH1 0x24 ADD PUSH2 0x233 JUMP JUMPDEST PUSH1 0x1 PUSH1 0x1 PUSH1 0xA0 SHL SUB DUP5 AND PUSH2 0x2A28 JUMPI PUSH1 0x40 MLOAD PUSH4 0x24ECEF4D PUSH1 0xE0 SHL DUP2 MSTORE PUSH1 0x4 ADD PUSH1 0x40 MLOAD DUP1 SWAP2 SUB SWAP1 REVERT JUMPDEST PUSH0 DUP4 DUP2 MSTORE PUSH1 0x3 PUSH1 0x20 MSTORE PUSH1 0x40 SWAP1 KECCAK256 SLOAD PUSH1 0x1 PUSH1 0x1 PUSH1 0xA0 SHL SUB AND ISZERO PUSH2 0x2A60 JUMPI PUSH1 0x40 MLOAD PUSH4 0x34C7B511 PUSH1 0xE0 SHL DUP2 MSTORE PUSH1 0x4 DUP2 ADD DUP5 SWAP1 MSTORE PUSH1 0x24 ADD PUSH2 0x233 JUMP JUMPDEST PUSH0 DUP4 DUP2 MSTORE PUSH1 0x3 PUSH1 0x20 MSTORE PUSH1 0x40 SWAP1 KECCAK256 SLOAD PUSH1 0x1 PUSH1 0x1 PUSH1 0xA0 SHL SUB AND ISZERO PUSH2 0x2A98 JUMPI PUSH1 0x40 MLOAD PUSH4 0x34C7B511 PUSH1 0xE0 SHL DUP2 MSTORE PUSH1 0x4 DUP2 ADD DUP5 SWAP1 MSTORE PUSH1 0x24 ADD PUSH2 0x233 JUMP JUMPDEST PUSH1 0x2 PUSH0 DUP2 SLOAD PUSH2 0x2AA6 SWAP1 PUSH2 0x4076 JUMP JUMPDEST SWAP1 SWAP2 SSTORE POP PUSH1 0x1 PUSH1 0x1 PUSH1 0xA0 SHL SUB DUP5 AND PUSH0 SWAP1 DUP2 MSTORE PUSH1 0x4 PUSH1 0x20 MSTORE PUSH1 0x40 SWAP1 KECCAK256 PUSH2 0x2ACB SWAP1 DUP5 PUSH2 0x28C8 JUMP JUMPDEST POP PUSH0 DUP4 DUP2 MSTORE PUSH1 0x3 PUSH1 0x20 MSTORE PUSH1 0x40 DUP1 DUP3 KECCAK256 DUP1 SLOAD PUSH1 0x1 PUSH1 0x1 PUSH1 0xA0 SHL SUB NOT AND PUSH1 0x1 PUSH1 0x1 PUSH1 0xA0 SHL SUB DUP9 AND SWAP1 DUP2 OR SWAP1 SWAP2 SSTORE SWAP1 MLOAD DUP6 SWAP3 SWAP1 PUSH32 0xB333C813A7426A7A11E2B190CAD52C44119421594B47F6F32ACE6D8C7207B2BF SWAP1 PUSH2 0x2B2C SWAP1 CALLER SWAP1 DUP9 SWAP1 DUP9 SWAP1 PUSH2 0x3F48 JUMP JUMPDEST PUSH1 0x40 MLOAD DUP1 SWAP2 SUB SWAP1 LOG4 PUSH0 CALLER PUSH0 DUP7 DUP7 DUP6 PUSH1 0x40 MLOAD PUSH1 0x20 ADD PUSH2 0x2B4E SWAP6 SWAP5 SWAP4 SWAP3 SWAP2 SWAP1 PUSH2 0x3F73 JUMP JUMPDEST PUSH1 0x40 MLOAD PUSH1 0x20 DUP2 DUP4 SUB SUB DUP2 MSTORE SWAP1 PUSH1 0x40 MSTORE SWAP1 POP PUSH2 0xB89 DUP6 DUP5 DUP4 PUSH2 0x28FE JUMP JUMPDEST PUSH32 0x2145E1D6D074577DC71EF54C3807742B41B053A9352AE6B491331509ACB9750F DUP3 ADD PUSH2 0x2BAA JUMPI PUSH1 0x40 MLOAD PUSH4 0x85C169BD PUSH1 0xE0 SHL DUP2 MSTORE PUSH1 0x4 ADD PUSH1 0x40 MLOAD DUP1 SWAP2 SUB SWAP1 REVERT JUMPDEST PUSH32 0xD0F59754F88971FE6BC5A6618CC9D5F1E859C58D16B22D1C7B2D3E2B246CD8AA DUP3 ADD PUSH2 0x2BEA JUMPI PUSH1 0x40 MLOAD PUSH4 0xECEAB67 PUSH1 0xE3 SHL DUP2 MSTORE PUSH1 0x4 ADD PUSH1 0x40 MLOAD DUP1 SWAP2 SUB SWAP1 REVERT JUMPDEST PUSH32 0x1FD9E056A24D14C4ABC642FCC325992A946906D0DBC57DD70278AAF12842024D DUP3 ADD PUSH2 0x2C2A JUMPI PUSH1 0x40 MLOAD PUSH4 0x4EF6D7FB PUSH1 0xE0 SHL DUP2 MSTORE PUSH1 0x4 ADD PUSH1 0x40 MLOAD DUP1 SWAP2 SUB SWAP1 REVERT JUMPDEST PUSH0 DUP3 DUP2 MSTORE PUSH1 0x1 PUSH1 0x20 MSTORE PUSH1 0x40 SWAP1 KECCAK256 PUSH2 0x2C41 DUP3 DUP3 PUSH2 0x3D39 JUMP JUMPDEST POP DUP2 PUSH32 0xECE574603820D07BC9B91F2A932BAADF4628AABCB8AFBA49776529C14A6104B2 DUP3 PUSH1 0x40 MLOAD PUSH2 0x2C72 SWAP2 SWAP1 PUSH2 0x3089 JUMP JUMPDEST PUSH1 0x40 MLOAD DUP1 SWAP2 SUB SWAP1 LOG2 POP POP JUMP JUMPDEST PUSH0 DUP2 DUP2 MSTORE PUSH1 0x1 DUP4 ADD PUSH1 0x20 MSTORE PUSH1 0x40 DUP2 KECCAK256 SLOAD PUSH2 0x2CC3 JUMPI POP DUP2 SLOAD PUSH1 0x1 DUP2 DUP2 ADD DUP5 SSTORE PUSH0 DUP5 DUP2 MSTORE PUSH1 0x20 DUP1 DUP3 KECCAK256 SWAP1 SWAP4 ADD DUP5 SWAP1 SSTORE DUP5 SLOAD DUP5 DUP3 MSTORE DUP3 DUP7 ADD SWAP1 SWAP4 MSTORE PUSH1 0x40 SWAP1 KECCAK256 SWAP2 SWAP1 SWAP2 SSTORE PUSH2 0x7D1 JUMP JUMPDEST POP PUSH0 PUSH2 0x7D1 JUMP JUMPDEST PUSH2 0x2CE4 PUSH1 0x1 PUSH1 0x1 PUSH1 0xA0 SHL SUB DUP5 AND PUSH4 0x1AED5A85 PUSH1 0xE2 SHL PUSH2 0x276B JUMP JUMPDEST ISZERO PUSH2 0x25B2 JUMPI PUSH1 0x40 MLOAD PUSH4 0x1AED5A85 PUSH1 0xE2 SHL DUP2 MSTORE PUSH1 0x1 PUSH1 0x1 PUSH1 0xA0 SHL SUB DUP5 AND SWAP1 PUSH4 0x6BB56A14 SWAP1 PUSH2 0x2962 SWAP1 DUP6 SWAP1 DUP6 SWAP1 PUSH1 0x4 ADD PUSH2 0x3FEA JUMP JUMPDEST PUSH0 PUSH2 0x8B6 DUP4 PUSH1 0x1 PUSH1 0x1 PUSH1 0xA0 SHL SUB DUP5 AND PUSH2 0x2D36 JUMP JUMPDEST PUSH0 PUSH2 0x8B6 DUP4 DUP4 PUSH2 0x2E19 JUMP JUMPDEST PUSH0 DUP2 DUP2 MSTORE PUSH1 0x1 DUP4 ADD PUSH1 0x20 MSTORE PUSH1 0x40 DUP2 KECCAK256 SLOAD DUP1 ISZERO PUSH2 0x2E10 JUMPI PUSH0 PUSH2 0x2D58 PUSH1 0x1 DUP4 PUSH2 0x3E9B JUMP JUMPDEST DUP6 SLOAD SWAP1 SWAP2 POP PUSH0 SWAP1 PUSH2 0x2D6B SWAP1 PUSH1 0x1 SWAP1 PUSH2 0x3E9B JUMP JUMPDEST SWAP1 POP DUP2 DUP2 EQ PUSH2 0x2DCA JUMPI PUSH0 DUP7 PUSH0 ADD DUP3 DUP2 SLOAD DUP2 LT PUSH2 0x2D89 JUMPI PUSH2 0x2D89 PUSH2 0x3DF3 JUMP JUMPDEST SWAP1 PUSH0 MSTORE PUSH1 0x20 PUSH0 KECCAK256 ADD SLOAD SWAP1 POP DUP1 DUP8 PUSH0 ADD DUP5 DUP2 SLOAD DUP2 LT PUSH2 0x2DA9 JUMPI PUSH2 0x2DA9 PUSH2 0x3DF3 JUMP JUMPDEST PUSH0 SWAP2 DUP3 MSTORE PUSH1 0x20 DUP1 DUP4 KECCAK256 SWAP1 SWAP2 ADD SWAP3 SWAP1 SWAP3 SSTORE SWAP2 DUP3 MSTORE PUSH1 0x1 DUP9 ADD SWAP1 MSTORE PUSH1 0x40 SWAP1 KECCAK256 DUP4 SWAP1 SSTORE JUMPDEST DUP6 SLOAD DUP7 SWAP1 DUP1 PUSH2 0x2DDB JUMPI PUSH2 0x2DDB PUSH2 0x3EAE JUMP JUMPDEST PUSH1 0x1 SWAP1 SUB DUP2 DUP2 SWAP1 PUSH0 MSTORE PUSH1 0x20 PUSH0 KECCAK256 ADD PUSH0 SWAP1 SSTORE SWAP1 SSTORE DUP6 PUSH1 0x1 ADD PUSH0 DUP7 DUP2 MSTORE PUSH1 0x20 ADD SWAP1 DUP2 MSTORE PUSH1 0x20 ADD PUSH0 KECCAK256 PUSH0 SWAP1 SSTORE PUSH1 0x1 SWAP4 POP POP POP POP PUSH2 0x7D1 JUMP JUMPDEST PUSH0 SWAP2 POP POP PUSH2 0x7D1 JUMP JUMPDEST PUSH0 DUP3 PUSH0 ADD DUP3 DUP2 SLOAD DUP2 LT PUSH2 0x2E2E JUMPI PUSH2 0x2E2E PUSH2 0x3DF3 JUMP JUMPDEST SWAP1 PUSH0 MSTORE PUSH1 0x20 PUSH0 KECCAK256 ADD SLOAD SWAP1 POP SWAP3 SWAP2 POP POP JUMP JUMPDEST PUSH1 0x40 MLOAD DUP1 PUSH2 0x120 ADD PUSH1 0x40 MSTORE DUP1 PUSH1 0x60 DUP2 MSTORE PUSH1 0x20 ADD PUSH0 DUP2 MSTORE PUSH1 0x20 ADD PUSH0 DUP2 MSTORE PUSH1 0x20 ADD PUSH1 0x60 DUP2 MSTORE PUSH1 0x20 ADD PUSH1 0x60 DUP2 MSTORE PUSH1 0x20 ADD PUSH0 PUSH1 0x2 DUP2 GT ISZERO PUSH2 0x2E7E JUMPI PUSH2 0x2E7E PUSH2 0x387B JUMP JUMPDEST DUP2 MSTORE PUSH1 0x40 DUP1 MLOAD PUSH1 0x60 DUP1 DUP3 ADD DUP4 MSTORE PUSH0 DUP1 DUP4 MSTORE PUSH1 0x20 DUP1 DUP5 ADD DUP3 SWAP1 MSTORE DUP4 DUP6 ADD DUP3 SWAP1 MSTORE DUP1 DUP7 ADD SWAP4 SWAP1 SWAP4 MSTORE DUP4 MLOAD DUP1 DUP4 ADD DUP6 MSTORE DUP2 DUP2 MSTORE SWAP3 DUP4 ADD DUP2 SWAP1 MSTORE DUP3 DUP5 ADD MSTORE SWAP2 DUP4 ADD MSTORE SWAP1 DUP2 ADD MSTORE SWAP1 JUMP JUMPDEST PUSH1 0x20 DUP2 MSTORE DUP2 PUSH1 0x20 DUP3 ADD MSTORE DUP2 DUP4 PUSH1 0x40 DUP4 ADD CALLDATACOPY PUSH0 DUP2 DUP4 ADD PUSH1 0x40 SWAP1 DUP2 ADD SWAP2 SWAP1 SWAP2 MSTORE PUSH1 0x1F SWAP1 SWAP3 ADD PUSH1 0x1F NOT AND ADD ADD SWAP2 SWAP1 POP JUMP JUMPDEST PUSH0 PUSH1 0x20 DUP3 DUP5 SUB SLT ISZERO PUSH2 0x2F01 JUMPI PUSH0 PUSH0 REVERT JUMPDEST DUP2 CALLDATALOAD PUSH1 0x1 PUSH1 0x1 PUSH1 0xE0 SHL SUB NOT DUP2 AND DUP2 EQ PUSH2 0x8B6 JUMPI PUSH0 PUSH0 REVERT JUMPDEST DUP1 CALLDATALOAD PUSH1 0x1 PUSH1 0x1 PUSH1 0xA0 SHL SUB DUP2 AND DUP2 EQ PUSH2 0x2F2E JUMPI PUSH0 PUSH0 REVERT JUMPDEST SWAP2 SWAP1 POP JUMP JUMPDEST PUSH0 PUSH1 0x20 DUP3 DUP5 SUB SLT ISZERO PUSH2 0x2F43 JUMPI PUSH0 PUSH0 REVERT JUMPDEST PUSH2 0x8B6 DUP3 PUSH2 0x2F18 JUMP JUMPDEST PUSH4 0x4E487B71 PUSH1 0xE0 SHL PUSH0 MSTORE PUSH1 0x41 PUSH1 0x4 MSTORE PUSH1 0x24 PUSH0 REVERT JUMPDEST PUSH1 0x40 MLOAD PUSH1 0x1F DUP3 ADD PUSH1 0x1F NOT AND DUP2 ADD PUSH1 0x1 PUSH1 0x1 PUSH1 0x40 SHL SUB DUP2 GT DUP3 DUP3 LT OR ISZERO PUSH2 0x2F88 JUMPI PUSH2 0x2F88 PUSH2 0x2F4C JUMP JUMPDEST PUSH1 0x40 MSTORE SWAP2 SWAP1 POP JUMP JUMPDEST PUSH0 PUSH1 0x1 PUSH1 0x1 PUSH1 0x40 SHL SUB DUP3 GT ISZERO PUSH2 0x2FA8 JUMPI PUSH2 0x2FA8 PUSH2 0x2F4C JUMP JUMPDEST POP PUSH1 0x1F ADD PUSH1 0x1F NOT AND PUSH1 0x20 ADD SWAP1 JUMP JUMPDEST PUSH0 DUP3 PUSH1 0x1F DUP4 ADD SLT PUSH2 0x2FC5 JUMPI PUSH0 PUSH0 REVERT JUMPDEST DUP2 CALLDATALOAD PUSH1 0x20 DUP4 ADD PUSH0 PUSH2 0x2FDD PUSH2 0x2FD8 DUP5 PUSH2 0x2F90 JUMP JUMPDEST PUSH2 0x2F60 JUMP JUMPDEST SWAP1 POP DUP3 DUP2 MSTORE DUP6 DUP4 DUP4 ADD GT ISZERO PUSH2 0x2FF0 JUMPI PUSH0 PUSH0 REVERT JUMPDEST DUP3 DUP3 PUSH1 0x20 DUP4 ADD CALLDATACOPY PUSH0 SWAP3 DUP2 ADD PUSH1 0x20 ADD SWAP3 SWAP1 SWAP3 MSTORE POP SWAP4 SWAP3 POP POP POP JUMP JUMPDEST PUSH0 PUSH1 0x20 DUP3 DUP5 SUB SLT ISZERO PUSH2 0x301A JUMPI PUSH0 PUSH0 REVERT JUMPDEST DUP2 CALLDATALOAD PUSH1 0x1 PUSH1 0x1 PUSH1 0x40 SHL SUB DUP2 GT ISZERO PUSH2 0x302F JUMPI PUSH0 PUSH0 REVERT JUMPDEST PUSH2 0x272F DUP5 DUP3 DUP6 ADD PUSH2 0x2FB6 JUMP JUMPDEST PUSH0 PUSH0 PUSH1 0x40 DUP4 DUP6 SUB SLT ISZERO PUSH2 0x304C JUMPI PUSH0 PUSH0 REVERT JUMPDEST POP POP DUP1 CALLDATALOAD SWAP3 PUSH1 0x20 SWAP1 SWAP2 ADD CALLDATALOAD SWAP2 POP JUMP JUMPDEST PUSH0 DUP2 MLOAD DUP1 DUP5 MSTORE DUP1 PUSH1 0x20 DUP5 ADD PUSH1 0x20 DUP7 ADD MCOPY PUSH0 PUSH1 0x20 DUP3 DUP7 ADD ADD MSTORE PUSH1 0x20 PUSH1 0x1F NOT PUSH1 0x1F DUP4 ADD AND DUP6 ADD ADD SWAP2 POP POP SWAP3 SWAP2 POP POP JUMP JUMPDEST PUSH1 0x20 DUP2 MSTORE PUSH0 PUSH2 0x8B6 PUSH1 0x20 DUP4 ADD DUP5 PUSH2 0x305B JUMP JUMPDEST PUSH0 PUSH1 0x1 PUSH1 0x1 PUSH1 0x40 SHL SUB DUP3 GT ISZERO PUSH2 0x30B3 JUMPI PUSH2 0x30B3 PUSH2 0x2F4C JUMP JUMPDEST POP PUSH1 0x5 SHL PUSH1 0x20 ADD SWAP1 JUMP JUMPDEST PUSH0 DUP3 PUSH1 0x1F DUP4 ADD SLT PUSH2 0x30CC JUMPI PUSH0 PUSH0 REVERT JUMPDEST DUP2 CALLDATALOAD PUSH2 0x30DA PUSH2 0x2FD8 DUP3 PUSH2 0x309B JUMP JUMPDEST DUP1 DUP3 DUP3 MSTORE PUSH1 0x20 DUP3 ADD SWAP2 POP PUSH1 0x20 DUP4 PUSH1 0x5 SHL DUP7 ADD ADD SWAP3 POP DUP6 DUP4 GT ISZERO PUSH2 0x30FB JUMPI PUSH0 PUSH0 REVERT JUMPDEST PUSH1 0x20 DUP6 ADD JUMPDEST DUP4 DUP2 LT ISZERO PUSH2 0x3118 JUMPI DUP1 CALLDATALOAD DUP4 MSTORE PUSH1 0x20 SWAP3 DUP4 ADD SWAP3 ADD PUSH2 0x3100 JUMP JUMPDEST POP SWAP6 SWAP5 POP POP POP POP POP JUMP JUMPDEST PUSH0 PUSH0 PUSH1 0x40 DUP4 DUP6 SUB SLT ISZERO PUSH2 0x3133 JUMPI PUSH0 PUSH0 REVERT JUMPDEST DUP3 CALLDATALOAD PUSH1 0x1 PUSH1 0x1 PUSH1 0x40 SHL SUB DUP2 GT ISZERO PUSH2 0x3148 JUMPI PUSH0 PUSH0 REVERT JUMPDEST PUSH2 0x3154 DUP6 DUP3 DUP7 ADD PUSH2 0x30BD JUMP JUMPDEST SWAP3 POP POP PUSH1 0x20 DUP4 ADD CALLDATALOAD PUSH1 0x1 PUSH1 0x1 PUSH1 0x40 SHL SUB DUP2 GT ISZERO PUSH2 0x316F JUMPI PUSH0 PUSH0 REVERT JUMPDEST PUSH2 0x317B DUP6 DUP3 DUP7 ADD PUSH2 0x30BD JUMP JUMPDEST SWAP2 POP POP SWAP3 POP SWAP3 SWAP1 POP JUMP JUMPDEST PUSH0 PUSH1 0x20 DUP3 ADD PUSH1 0x20 DUP4 MSTORE DUP1 DUP5 MLOAD DUP1 DUP4 MSTORE PUSH1 0x40 DUP6 ADD SWAP2 POP PUSH1 0x40 DUP2 PUSH1 0x5 SHL DUP7 ADD ADD SWAP3 POP PUSH1 0x20 DUP7 ADD PUSH0 JUMPDEST DUP3 DUP2 LT ISZERO PUSH2 0x31DC JUMPI PUSH1 0x3F NOT DUP8 DUP7 SUB ADD DUP5 MSTORE PUSH2 0x31C7 DUP6 DUP4 MLOAD PUSH2 0x305B JUMP JUMPDEST SWAP5 POP PUSH1 0x20 SWAP4 DUP5 ADD SWAP4 SWAP2 SWAP1 SWAP2 ADD SWAP1 PUSH1 0x1 ADD PUSH2 0x31AB JUMP JUMPDEST POP SWAP3 SWAP7 SWAP6 POP POP POP POP POP POP JUMP JUMPDEST PUSH0 PUSH1 0x20 DUP3 DUP5 SUB SLT ISZERO PUSH2 0x31F8 JUMPI PUSH0 PUSH0 REVERT JUMPDEST POP CALLDATALOAD SWAP2 SWAP1 POP JUMP JUMPDEST PUSH0 PUSH0 PUSH1 0x40 DUP4 DUP6 SUB SLT ISZERO PUSH2 0x3210 JUMPI PUSH0 PUSH0 REVERT JUMPDEST PUSH2 0x3219 DUP4 PUSH2 0x2F18 JUMP JUMPDEST SWAP5 PUSH1 0x20 SWAP4 SWAP1 SWAP4 ADD CALLDATALOAD SWAP4 POP POP POP JUMP JUMPDEST PUSH1 0x20 DUP1 DUP3 MSTORE DUP3 MLOAD DUP3 DUP3 ADD DUP2 SWAP1 MSTORE PUSH0 SWAP2 DUP5 ADD SWAP1 PUSH1 0x40 DUP5 ADD SWAP1 DUP4 JUMPDEST DUP2 DUP2 LT ISZERO PUSH2 0x3267 JUMPI DUP4 MLOAD PUSH1 0x1 PUSH1 0x1 PUSH1 0xA0 SHL SUB AND DUP4 MSTORE PUSH1 0x20 SWAP4 DUP5 ADD SWAP4 SWAP1 SWAP3 ADD SWAP2 PUSH1 0x1 ADD PUSH2 0x3240 JUMP JUMPDEST POP SWAP1 SWAP6 SWAP5 POP POP POP POP POP JUMP JUMPDEST PUSH1 0x3 DUP2 LT PUSH2 0x85A JUMPI PUSH0 PUSH0 REVERT JUMPDEST DUP1 CALLDATALOAD PUSH1 0xFF DUP2 AND DUP2 EQ PUSH2 0x2F2E JUMPI PUSH0 PUSH0 REVERT JUMPDEST PUSH0 PUSH1 0x60 DUP3 DUP5 SUB SLT ISZERO PUSH2 0x329E JUMPI PUSH0 PUSH0 REVERT JUMPDEST PUSH1 0x40 MLOAD PUSH1 0x60 DUP2 ADD PUSH1 0x1 PUSH1 0x1 PUSH1 0x40 SHL SUB DUP2 GT DUP3 DUP3 LT OR ISZERO PUSH2 0x32C0 JUMPI PUSH2 0x32C0 PUSH2 0x2F4C JUMP JUMPDEST PUSH1 0x40 MSTORE SWAP1 POP DUP1 DUP3 CALLDATALOAD PUSH2 0xFFFF DUP2 AND DUP2 EQ PUSH2 0x32D7 JUMPI PUSH0 PUSH0 REVERT JUMPDEST DUP2 MSTORE PUSH2 0x32E5 PUSH1 0x20 DUP5 ADD PUSH2 0x327E JUMP JUMPDEST PUSH1 0x20 DUP3 ADD MSTORE PUSH2 0x32F6 PUSH1 0x40 DUP5 ADD PUSH2 0x327E JUMP JUMPDEST PUSH1 0x40 DUP3 ADD MSTORE POP SWAP3 SWAP2 POP POP JUMP JUMPDEST PUSH0 PUSH0 PUSH0 PUSH0 PUSH0 PUSH0 PUSH2 0x140 DUP8 DUP10 SUB SLT ISZERO PUSH2 0x3318 JUMPI PUSH0 PUSH0 REVERT JUMPDEST DUP7 CALLDATALOAD SWAP6 POP PUSH1 0x20 DUP8 ADD CALLDATALOAD PUSH1 0x1 PUSH1 0x1 PUSH1 0x40 SHL SUB DUP2 GT ISZERO PUSH2 0x3334 JUMPI PUSH0 PUSH0 REVERT JUMPDEST PUSH2 0x3340 DUP10 DUP3 DUP11 ADD PUSH2 0x2FB6 JUMP JUMPDEST SWAP6 POP POP PUSH1 0x40 DUP8 ADD CALLDATALOAD PUSH1 0x1 PUSH1 0x1 PUSH1 0x40 SHL SUB DUP2 GT ISZERO PUSH2 0x335B JUMPI PUSH0 PUSH0 REVERT JUMPDEST PUSH2 0x3367 DUP10 DUP3 DUP11 ADD PUSH2 0x2FB6 JUMP JUMPDEST SWAP5 POP POP PUSH1 0x60 DUP8 ADD CALLDATALOAD PUSH2 0x3378 DUP2 PUSH2 0x3272 JUMP JUMPDEST SWAP3 POP PUSH2 0x3387 DUP9 PUSH1 0x80 DUP10 ADD PUSH2 0x328E JUMP JUMPDEST SWAP2 POP PUSH2 0x3396 DUP9 PUSH1 0xE0 DUP10 ADD PUSH2 0x328E JUMP JUMPDEST SWAP1 POP SWAP3 SWAP6 POP SWAP3 SWAP6 POP SWAP3 SWAP6 JUMP JUMPDEST DUP1 CALLDATALOAD DUP1 ISZERO ISZERO DUP2 EQ PUSH2 0x2F2E JUMPI PUSH0 PUSH0 REVERT JUMPDEST PUSH0 PUSH0 PUSH0 PUSH0 PUSH0 PUSH1 0xA0 DUP7 DUP9 SUB SLT ISZERO PUSH2 0x33C5 JUMPI PUSH0 PUSH0 REVERT JUMPDEST PUSH2 0x33CE DUP7 PUSH2 0x2F18 JUMP JUMPDEST SWAP5 POP PUSH2 0x33DC PUSH1 0x20 DUP8 ADD PUSH2 0x2F18 JUMP JUMPDEST SWAP4 POP PUSH1 0x40 DUP7 ADD CALLDATALOAD SWAP3 POP PUSH2 0x33F1 PUSH1 0x60 DUP8 ADD PUSH2 0x33A2 JUMP JUMPDEST SWAP2 POP PUSH1 0x80 DUP7 ADD CALLDATALOAD PUSH1 0x1 PUSH1 0x1 PUSH1 0x40 SHL SUB DUP2 GT ISZERO PUSH2 0x340B JUMPI PUSH0 PUSH0 REVERT JUMPDEST PUSH2 0x3417 DUP9 DUP3 DUP10 ADD PUSH2 0x2FB6 JUMP JUMPDEST SWAP2 POP POP SWAP3 SWAP6 POP SWAP3 SWAP6 SWAP1 SWAP4 POP JUMP JUMPDEST PUSH0 PUSH0 PUSH0 PUSH0 PUSH0 PUSH0 PUSH2 0x140 DUP8 DUP10 SUB SLT ISZERO PUSH2 0x343A JUMPI PUSH0 PUSH0 REVERT JUMPDEST DUP7 CALLDATALOAD SWAP6 POP PUSH1 0x20 DUP8 ADD CALLDATALOAD PUSH1 0x1 PUSH1 0x1 PUSH1 0x40 SHL SUB DUP2 GT ISZERO PUSH2 0x3456 JUMPI PUSH0 PUSH0 REVERT JUMPDEST PUSH2 0x3462 DUP10 DUP3 DUP11 ADD PUSH2 0x2FB6 JUMP JUMPDEST SWAP6 POP POP PUSH1 0x40 DUP8 ADD CALLDATALOAD PUSH1 0x1 PUSH1 0x1 PUSH1 0x40 SHL SUB DUP2 GT ISZERO PUSH2 0x347D JUMPI PUSH0 PUSH0 REVERT JUMPDEST PUSH2 0x3489 DUP10 DUP3 DUP11 ADD PUSH2 0x2FB6 JUMP JUMPDEST SWAP5 POP POP PUSH2 0x3499 DUP9 PUSH1 0x60 DUP10 ADD PUSH2 0x328E JUMP JUMPDEST SWAP3 POP PUSH2 0x34A8 DUP9 PUSH1 0xC0 DUP10 ADD PUSH2 0x328E JUMP JUMPDEST SWAP2 POP PUSH2 0x3396 PUSH2 0x120 DUP9 ADD PUSH2 0x2F18 JUMP JUMPDEST PUSH0 PUSH0 PUSH1 0x20 DUP4 DUP6 SUB SLT ISZERO PUSH2 0x34C8 JUMPI PUSH0 PUSH0 REVERT JUMPDEST DUP3 CALLDATALOAD PUSH1 0x1 PUSH1 0x1 PUSH1 0x40 SHL SUB DUP2 GT ISZERO PUSH2 0x34DD JUMPI PUSH0 PUSH0 REVERT JUMPDEST DUP4 ADD PUSH1 0x1F DUP2 ADD DUP6 SGT PUSH2 0x34ED JUMPI PUSH0 PUSH0 REVERT JUMPDEST DUP1 CALLDATALOAD PUSH1 0x1 PUSH1 0x1 PUSH1 0x40 SHL SUB DUP2 GT ISZERO PUSH2 0x3502 JUMPI PUSH0 PUSH0 REVERT JUMPDEST DUP6 PUSH1 0x20 DUP3 PUSH1 0x5 SHL DUP5 ADD ADD GT ISZERO PUSH2 0x3516 JUMPI PUSH0 PUSH0 REVERT JUMPDEST PUSH1 0x20 SWAP2 SWAP1 SWAP2 ADD SWAP6 SWAP1 SWAP5 POP SWAP3 POP POP POP JUMP JUMPDEST PUSH0 DUP3 PUSH1 0x1F DUP4 ADD SLT PUSH2 0x3535 JUMPI PUSH0 PUSH0 REVERT JUMPDEST DUP2 CALLDATALOAD PUSH2 0x3543 PUSH2 0x2FD8 DUP3 PUSH2 0x309B JUMP JUMPDEST DUP1 DUP3 DUP3 MSTORE PUSH1 0x20 DUP3 ADD SWAP2 POP PUSH1 0x20 DUP4 PUSH1 0x5 SHL DUP7 ADD ADD SWAP3 POP DUP6 DUP4 GT ISZERO PUSH2 0x3564 JUMPI PUSH0 PUSH0 REVERT JUMPDEST PUSH1 0x20 DUP6 ADD JUMPDEST DUP4 DUP2 LT ISZERO PUSH2 0x3118 JUMPI PUSH2 0x357A DUP2 PUSH2 0x2F18 JUMP JUMPDEST DUP4 MSTORE PUSH1 0x20 SWAP3 DUP4 ADD SWAP3 ADD PUSH2 0x3569 JUMP JUMPDEST PUSH0 DUP3 PUSH1 0x1F DUP4 ADD SLT PUSH2 0x3597 JUMPI PUSH0 PUSH0 REVERT JUMPDEST DUP2 CALLDATALOAD PUSH2 0x35A5 PUSH2 0x2FD8 DUP3 PUSH2 0x309B JUMP JUMPDEST DUP1 DUP3 DUP3 MSTORE PUSH1 0x20 DUP3 ADD SWAP2 POP PUSH1 0x20 DUP4 PUSH1 0x5 SHL DUP7 ADD ADD SWAP3 POP DUP6 DUP4 GT ISZERO PUSH2 0x35C6 JUMPI PUSH0 PUSH0 REVERT JUMPDEST PUSH1 0x20 DUP6 ADD JUMPDEST DUP4 DUP2 LT ISZERO PUSH2 0x3118 JUMPI PUSH2 0x35DC DUP2 PUSH2 0x33A2 JUMP JUMPDEST DUP4 MSTORE PUSH1 0x20 SWAP3 DUP4 ADD SWAP3 ADD PUSH2 0x35CB JUMP JUMPDEST PUSH0 DUP3 PUSH1 0x1F DUP4 ADD SLT PUSH2 0x35F9 JUMPI PUSH0 PUSH0 REVERT JUMPDEST DUP2 CALLDATALOAD PUSH2 0x3607 PUSH2 0x2FD8 DUP3 PUSH2 0x309B JUMP JUMPDEST DUP1 DUP3 DUP3 MSTORE PUSH1 0x20 DUP3 ADD SWAP2 POP PUSH1 0x20 DUP4 PUSH1 0x5 SHL DUP7 ADD ADD SWAP3 POP DUP6 DUP4 GT ISZERO PUSH2 0x3628 JUMPI PUSH0 PUSH0 REVERT JUMPDEST PUSH1 0x20 DUP6 ADD JUMPDEST DUP4 DUP2 LT ISZERO PUSH2 0x3118 JUMPI DUP1 CALLDATALOAD PUSH1 0x1 PUSH1 0x1 PUSH1 0x40 SHL SUB DUP2 GT ISZERO PUSH2 0x364A JUMPI PUSH0 PUSH0 REVERT JUMPDEST PUSH2 0x3659 DUP9 PUSH1 0x20 DUP4 DUP11 ADD ADD PUSH2 0x2FB6 JUMP JUMPDEST DUP5 MSTORE POP PUSH1 0x20 SWAP3 DUP4 ADD SWAP3 ADD PUSH2 0x362D JUMP JUMPDEST PUSH0 PUSH0 PUSH0 PUSH0 PUSH0 PUSH1 0xA0 DUP7 DUP9 SUB SLT ISZERO PUSH2 0x367C JUMPI PUSH0 PUSH0 REVERT JUMPDEST DUP6 CALLDATALOAD PUSH1 0x1 PUSH1 0x1 PUSH1 0x40 SHL SUB DUP2 GT ISZERO PUSH2 0x3691 JUMPI PUSH0 PUSH0 REVERT JUMPDEST PUSH2 0x369D DUP9 DUP3 DUP10 ADD PUSH2 0x3526 JUMP JUMPDEST SWAP6 POP POP PUSH1 0x20 DUP7 ADD CALLDATALOAD PUSH1 0x1 PUSH1 0x1 PUSH1 0x40 SHL SUB DUP2 GT ISZERO PUSH2 0x36B8 JUMPI PUSH0 PUSH0 REVERT JUMPDEST PUSH2 0x36C4 DUP9 DUP3 DUP10 ADD PUSH2 0x3526 JUMP JUMPDEST SWAP5 POP POP PUSH1 0x40 DUP7 ADD CALLDATALOAD PUSH1 0x1 PUSH1 0x1 PUSH1 0x40 SHL SUB DUP2 GT ISZERO PUSH2 0x36DF JUMPI PUSH0 PUSH0 REVERT JUMPDEST PUSH2 0x36EB DUP9 DUP3 DUP10 ADD PUSH2 0x30BD JUMP JUMPDEST SWAP4 POP POP PUSH1 0x60 DUP7 ADD CALLDATALOAD PUSH1 0x1 PUSH1 0x1 PUSH1 0x40 SHL SUB DUP2 GT ISZERO PUSH2 0x3706 JUMPI PUSH0 PUSH0 REVERT JUMPDEST PUSH2 0x3712 DUP9 DUP3 DUP10 ADD PUSH2 0x3588 JUMP JUMPDEST SWAP3 POP POP PUSH1 0x80 DUP7 ADD CALLDATALOAD PUSH1 0x1 PUSH1 0x1 PUSH1 0x40 SHL SUB DUP2 GT ISZERO PUSH2 0x372D JUMPI PUSH0 PUSH0 REVERT JUMPDEST PUSH2 0x3417 DUP9 DUP3 DUP10 ADD PUSH2 0x35EA JUMP JUMPDEST PUSH0 PUSH0 PUSH1 0x40 DUP4 DUP6 SUB SLT ISZERO PUSH2 0x374A JUMPI PUSH0 PUSH0 REVERT JUMPDEST DUP3 CALLDATALOAD SWAP2 POP PUSH1 0x20 DUP4 ADD CALLDATALOAD PUSH1 0x1 PUSH1 0x1 PUSH1 0x40 SHL SUB DUP2 GT ISZERO PUSH2 0x3766 JUMPI PUSH0 PUSH0 REVERT JUMPDEST PUSH2 0x317B DUP6 DUP3 DUP7 ADD PUSH2 0x2FB6 JUMP JUMPDEST PUSH0 PUSH0 PUSH0 PUSH1 0x60 DUP5 DUP7 SUB SLT ISZERO PUSH2 0x3784 JUMPI PUSH0 PUSH0 REVERT JUMPDEST PUSH2 0x378D DUP5 PUSH2 0x2F18 JUMP JUMPDEST SWAP3 POP PUSH1 0x20 DUP5 ADD CALLDATALOAD SWAP2 POP PUSH1 0x40 DUP5 ADD CALLDATALOAD PUSH1 0x1 PUSH1 0x1 PUSH1 0x40 SHL SUB DUP2 GT ISZERO PUSH2 0x37AE JUMPI PUSH0 PUSH0 REVERT JUMPDEST PUSH2 0x37BA DUP7 DUP3 DUP8 ADD PUSH2 0x2FB6 JUMP JUMPDEST SWAP2 POP POP SWAP3 POP SWAP3 POP SWAP3 JUMP JUMPDEST PUSH0 PUSH0 PUSH0 PUSH0 PUSH0 PUSH0 PUSH0 PUSH2 0x160 DUP9 DUP11 SUB SLT ISZERO PUSH2 0x37DB JUMPI PUSH0 PUSH0 REVERT JUMPDEST DUP8 CALLDATALOAD PUSH1 0x1 PUSH1 0x1 PUSH1 0x40 SHL SUB DUP2 GT ISZERO PUSH2 0x37F0 JUMPI PUSH0 PUSH0 REVERT JUMPDEST PUSH2 0x37FC DUP11 DUP3 DUP12 ADD PUSH2 0x2FB6 JUMP JUMPDEST SWAP8 POP POP PUSH1 0x20 DUP9 ADD CALLDATALOAD PUSH1 0x1 PUSH1 0x1 PUSH1 0x40 SHL SUB DUP2 GT ISZERO PUSH2 0x3817 JUMPI PUSH0 PUSH0 REVERT JUMPDEST PUSH2 0x3823 DUP11 DUP3 DUP12 ADD PUSH2 0x2FB6 JUMP JUMPDEST SWAP7 POP POP PUSH1 0x40 DUP9 ADD CALLDATALOAD PUSH2 0x3834 DUP2 PUSH2 0x3272 JUMP JUMPDEST SWAP5 POP PUSH2 0x3843 DUP10 PUSH1 0x60 DUP11 ADD PUSH2 0x328E JUMP JUMPDEST SWAP4 POP PUSH2 0x3852 DUP10 PUSH1 0xC0 DUP11 ADD PUSH2 0x328E JUMP JUMPDEST SWAP3 POP PUSH2 0x120 DUP9 ADD CALLDATALOAD SWAP2 POP PUSH2 0x140 DUP9 ADD CALLDATALOAD PUSH2 0x386B DUP2 PUSH2 0x3272 JUMP JUMPDEST DUP1 SWAP2 POP POP SWAP3 SWAP6 SWAP9 SWAP2 SWAP5 SWAP8 POP SWAP3 SWAP6 POP JUMP JUMPDEST PUSH4 0x4E487B71 PUSH1 0xE0 SHL PUSH0 MSTORE PUSH1 0x21 PUSH1 0x4 MSTORE PUSH1 0x24 PUSH0 REVERT JUMPDEST PUSH1 0x3 DUP2 LT PUSH2 0x85A JUMPI PUSH4 0x4E487B71 PUSH1 0xE0 SHL PUSH0 MSTORE PUSH1 0x21 PUSH1 0x4 MSTORE PUSH1 0x24 PUSH0 REVERT JUMPDEST PUSH0 DUP2 MLOAD DUP1 DUP5 MSTORE PUSH1 0x20 DUP5 ADD SWAP4 POP PUSH1 0x20 DUP4 ADD PUSH0 JUMPDEST DUP3 DUP2 LT ISZERO PUSH2 0x38F1 JUMPI DUP2 MLOAD DUP1 MLOAD PUSH2 0x38D2 DUP2 PUSH2 0x388F JUMP JUMPDEST DUP8 MSTORE PUSH1 0x20 SWAP1 DUP2 ADD MLOAD DUP2 DUP9 ADD MSTORE PUSH1 0x40 SWAP1 SWAP7 ADD SWAP6 SWAP2 SWAP1 SWAP2 ADD SWAP1 PUSH1 0x1 ADD PUSH2 0x38BD JUMP JUMPDEST POP SWAP4 SWAP5 SWAP4 POP POP POP POP JUMP JUMPDEST PUSH0 DUP2 MLOAD DUP1 DUP5 MSTORE PUSH1 0x20 DUP5 ADD SWAP4 POP PUSH1 0x20 DUP4 ADD PUSH0 JUMPDEST DUP3 DUP2 LT ISZERO PUSH2 0x38F1 JUMPI DUP2 MLOAD DUP1 MLOAD DUP8 MSTORE PUSH1 0x20 DUP2 ADD MLOAD PUSH2 0x394E PUSH1 0x20 DUP10 ADD DUP3 PUSH2 0xFFFF DUP2 MLOAD AND DUP3 MSTORE PUSH1 0xFF PUSH1 0x20 DUP3 ADD MLOAD AND PUSH1 0x20 DUP4 ADD MSTORE PUSH1 0xFF PUSH1 0x40 DUP3 ADD MLOAD AND PUSH1 0x40 DUP4 ADD MSTORE POP POP JUMP JUMPDEST POP PUSH1 0x40 ADD MLOAD PUSH2 0x3981 PUSH1 0x80 DUP9 ADD DUP3 PUSH2 0xFFFF DUP2 MLOAD AND DUP3 MSTORE PUSH1 0xFF PUSH1 0x20 DUP3 ADD MLOAD AND PUSH1 0x20 DUP4 ADD MSTORE PUSH1 0xFF PUSH1 0x40 DUP3 ADD MLOAD AND PUSH1 0x40 DUP4 ADD MSTORE POP POP JUMP JUMPDEST POP PUSH1 0xE0 SWAP6 SWAP1 SWAP6 ADD SWAP5 PUSH1 0x20 SWAP2 SWAP1 SWAP2 ADD SWAP1 PUSH1 0x1 ADD PUSH2 0x390D JUMP JUMPDEST PUSH2 0x39A1 DUP2 PUSH2 0x388F JUMP JUMPDEST SWAP1 MSTORE JUMP JUMPDEST PUSH1 0x20 DUP2 MSTORE PUSH0 DUP3 MLOAD PUSH2 0x1A0 PUSH1 0x20 DUP5 ADD MSTORE PUSH2 0x39C2 PUSH2 0x1C0 DUP5 ADD DUP3 PUSH2 0x305B JUMP JUMPDEST SWAP1 POP PUSH1 0x20 DUP5 ADD MLOAD PUSH1 0x40 DUP5 ADD MSTORE PUSH1 0x40 DUP5 ADD MLOAD PUSH1 0x60 DUP5 ADD MSTORE PUSH1 0x60 DUP5 ADD MLOAD PUSH1 0x1F NOT DUP5 DUP4 SUB ADD PUSH1 0x80 DUP6 ADD MSTORE PUSH2 0x39F3 DUP3 DUP3 PUSH2 0x38AB JUMP JUMPDEST SWAP2 POP POP PUSH1 0x80 DUP5 ADD MLOAD PUSH1 0x1F NOT DUP5 DUP4 SUB ADD PUSH1 0xA0 DUP6 ADD MSTORE PUSH2 0x3A11 DUP3 DUP3 PUSH2 0x38FB JUMP JUMPDEST SWAP2 POP POP PUSH1 0xA0 DUP5 ADD MLOAD PUSH2 0x3A26 PUSH1 0xC0 DUP6 ADD DUP3 PUSH2 0x3998 JUMP JUMPDEST POP PUSH1 0xC0 DUP5 ADD MLOAD DUP1 MLOAD PUSH2 0xFFFF AND PUSH1 0xE0 DUP6 ADD MSTORE PUSH1 0x20 DUP2 ADD MLOAD PUSH1 0xFF SWAP1 DUP2 AND PUSH2 0x100 DUP7 ADD MSTORE PUSH1 0x40 DUP3 ADD MLOAD AND PUSH2 0x120 DUP6 ADD MSTORE POP PUSH1 0xE0 DUP5 ADD MLOAD DUP1 MLOAD PUSH2 0xFFFF AND PUSH2 0x140 DUP6 ADD MSTORE PUSH1 0x20 DUP2 ADD MLOAD PUSH1 0xFF SWAP1 DUP2 AND PUSH2 0x160 DUP7 ADD MSTORE PUSH1 0x40 DUP3 ADD MLOAD AND PUSH2 0x180 DUP6 ADD MSTORE POP PUSH2 0x100 DUP5 ADD MLOAD DUP4 DUP3 SUB PUSH1 0x1F NOT ADD PUSH2 0x1A0 DUP6 ADD MSTORE PUSH2 0x3A9F DUP3 DUP3 PUSH2 0x305B JUMP JUMPDEST SWAP6 SWAP5 POP POP POP POP POP JUMP JUMPDEST PUSH0 PUSH0 PUSH1 0x40 DUP4 DUP6 SUB SLT ISZERO PUSH2 0x3AB9 JUMPI PUSH0 PUSH0 REVERT JUMPDEST DUP3 CALLDATALOAD PUSH1 0x1 PUSH1 0x1 PUSH1 0x40 SHL SUB DUP2 GT ISZERO PUSH2 0x3ACE JUMPI PUSH0 PUSH0 REVERT JUMPDEST PUSH2 0x3ADA DUP6 DUP3 DUP7 ADD PUSH2 0x30BD JUMP JUMPDEST SWAP3 POP POP PUSH1 0x20 DUP4 ADD CALLDATALOAD PUSH1 0x1 PUSH1 0x1 PUSH1 0x40 SHL SUB DUP2 GT ISZERO PUSH2 0x3AF5 JUMPI PUSH0 PUSH0 REVERT JUMPDEST PUSH2 0x317B DUP6 DUP3 DUP7 ADD PUSH2 0x35EA JUMP JUMPDEST PUSH1 0x20 DUP1 DUP3 MSTORE DUP3 MLOAD DUP3 DUP3 ADD DUP2 SWAP1 MSTORE PUSH0 SWAP2 DUP5 ADD SWAP1 PUSH1 0x40 DUP5 ADD SWAP1 DUP4 JUMPDEST DUP2 DUP2 LT ISZERO PUSH2 0x3267 JUMPI DUP4 MLOAD DUP4 MSTORE PUSH1 0x20 SWAP4 DUP5 ADD SWAP4 SWAP1 SWAP3 ADD SWAP2 PUSH1 0x1 ADD PUSH2 0x3B1A JUMP JUMPDEST PUSH0 PUSH0 PUSH0 PUSH1 0x60 DUP5 DUP7 SUB SLT ISZERO PUSH2 0x3B4A JUMPI PUSH0 PUSH0 REVERT JUMPDEST DUP4 CALLDATALOAD PUSH1 0x1 PUSH1 0x1 PUSH1 0x40 SHL SUB DUP2 GT ISZERO PUSH2 0x3B5F JUMPI PUSH0 PUSH0 REVERT JUMPDEST PUSH2 0x3B6B DUP7 DUP3 DUP8 ADD PUSH2 0x30BD JUMP JUMPDEST SWAP4 POP POP PUSH1 0x20 DUP5 ADD CALLDATALOAD PUSH1 0x1 PUSH1 0x1 PUSH1 0x40 SHL SUB DUP2 GT ISZERO PUSH2 0x3B86 JUMPI PUSH0 PUSH0 REVERT JUMPDEST PUSH2 0x3B92 DUP7 DUP3 DUP8 ADD PUSH2 0x30BD JUMP JUMPDEST SWAP3 POP POP PUSH1 0x40 DUP5 ADD CALLDATALOAD PUSH1 0x1 PUSH1 0x1 PUSH1 0x40 SHL SUB DUP2 GT ISZERO PUSH2 0x3BAD JUMPI PUSH0 PUSH0 REVERT JUMPDEST PUSH2 0x37BA DUP7 DUP3 DUP8 ADD PUSH2 0x35EA JUMP JUMPDEST PUSH0 PUSH0 PUSH0 PUSH1 0x60 DUP5 DUP7 SUB SLT ISZERO PUSH2 0x3BCB JUMPI PUSH0 PUSH0 REVERT JUMPDEST DUP4 CALLDATALOAD SWAP3 POP PUSH1 0x20 DUP5 ADD CALLDATALOAD SWAP2 POP PUSH1 0x40 DUP5 ADD CALLDATALOAD PUSH1 0x1 PUSH1 0x1 PUSH1 0x40 SHL SUB DUP2 GT ISZERO PUSH2 0x37AE JUMPI PUSH0 PUSH0 REVERT JUMPDEST PUSH0 PUSH0 PUSH0 PUSH0 PUSH1 0x80 DUP6 DUP8 SUB SLT ISZERO PUSH2 0x3C01 JUMPI PUSH0 PUSH0 REVERT JUMPDEST PUSH2 0x3C0A DUP6 PUSH2 0x2F18 JUMP JUMPDEST SWAP4 POP PUSH1 0x20 DUP6 ADD CALLDATALOAD SWAP3 POP PUSH2 0x3C1F PUSH1 0x40 DUP7 ADD PUSH2 0x33A2 JUMP JUMPDEST SWAP2 POP PUSH1 0x60 DUP6 ADD CALLDATALOAD PUSH1 0x1 PUSH1 0x1 PUSH1 0x40 SHL SUB DUP2 GT ISZERO PUSH2 0x3C39 JUMPI PUSH0 PUSH0 REVERT JUMPDEST PUSH2 0x3C45 DUP8 DUP3 DUP9 ADD PUSH2 0x2FB6 JUMP JUMPDEST SWAP2 POP POP SWAP3 SWAP6 SWAP2 SWAP5 POP SWAP3 POP JUMP JUMPDEST PUSH0 PUSH1 0x20 DUP3 DUP5 SUB SLT ISZERO PUSH2 0x3C61 JUMPI PUSH0 PUSH0 REVERT JUMPDEST DUP2 CALLDATALOAD PUSH1 0x1 PUSH1 0x1 PUSH1 0x40 SHL SUB DUP2 GT ISZERO PUSH2 0x3C76 JUMPI PUSH0 PUSH0 REVERT JUMPDEST PUSH2 0x272F DUP5 DUP3 DUP6 ADD PUSH2 0x30BD JUMP JUMPDEST DUP4 DUP6 DUP3 CALLDATACOPY PUSH1 0x60 SWAP3 SWAP1 SWAP3 SHL PUSH1 0x1 PUSH1 0x1 PUSH1 0x60 SHL SUB NOT AND SWAP2 SWAP1 SWAP3 ADD SWAP1 DUP2 MSTORE PUSH1 0x14 DUP2 ADD SWAP2 SWAP1 SWAP2 MSTORE PUSH1 0x34 ADD SWAP2 SWAP1 POP JUMP JUMPDEST PUSH0 DUP3 MLOAD DUP1 PUSH1 0x20 DUP6 ADD DUP5 MCOPY PUSH0 SWAP3 ADD SWAP2 DUP3 MSTORE POP SWAP2 SWAP1 POP JUMP JUMPDEST PUSH1 0x1 DUP2 DUP2 SHR SWAP1 DUP3 AND DUP1 PUSH2 0x3CD7 JUMPI PUSH1 0x7F DUP3 AND SWAP2 POP JUMPDEST PUSH1 0x20 DUP3 LT DUP2 SUB PUSH2 0x1D05 JUMPI PUSH4 0x4E487B71 PUSH1 0xE0 SHL PUSH0 MSTORE PUSH1 0x22 PUSH1 0x4 MSTORE PUSH1 0x24 PUSH0 REVERT JUMPDEST PUSH1 0x1F DUP3 GT ISZERO PUSH2 0x25B2 JUMPI DUP1 PUSH0 MSTORE PUSH1 0x20 PUSH0 KECCAK256 PUSH1 0x1F DUP5 ADD PUSH1 0x5 SHR DUP2 ADD PUSH1 0x20 DUP6 LT ISZERO PUSH2 0x3D1A JUMPI POP DUP1 JUMPDEST PUSH1 0x1F DUP5 ADD PUSH1 0x5 SHR DUP3 ADD SWAP2 POP JUMPDEST DUP2 DUP2 LT ISZERO PUSH2 0xB89 JUMPI PUSH0 DUP2 SSTORE PUSH1 0x1 ADD PUSH2 0x3D26 JUMP JUMPDEST DUP2 MLOAD PUSH1 0x1 PUSH1 0x1 PUSH1 0x40 SHL SUB DUP2 GT ISZERO PUSH2 0x3D52 JUMPI PUSH2 0x3D52 PUSH2 0x2F4C JUMP JUMPDEST PUSH2 0x3D66 DUP2 PUSH2 0x3D60 DUP5 SLOAD PUSH2 0x3CC3 JUMP JUMPDEST DUP5 PUSH2 0x3CF5 JUMP JUMPDEST PUSH1 0x20 PUSH1 0x1F DUP3 GT PUSH1 0x1 DUP2 EQ PUSH2 0x3D98 JUMPI PUSH0 DUP4 ISZERO PUSH2 0x3D81 JUMPI POP DUP5 DUP3 ADD MLOAD JUMPDEST PUSH0 NOT PUSH1 0x3 DUP6 SWAP1 SHL SHR NOT AND PUSH1 0x1 DUP5 SWAP1 SHL OR DUP5 SSTORE PUSH2 0xB89 JUMP JUMPDEST PUSH0 DUP5 DUP2 MSTORE PUSH1 0x20 DUP2 KECCAK256 PUSH1 0x1F NOT DUP6 AND SWAP2 JUMPDEST DUP3 DUP2 LT ISZERO PUSH2 0x3DC7 JUMPI DUP8 DUP6 ADD MLOAD DUP3 SSTORE PUSH1 0x20 SWAP5 DUP6 ADD SWAP5 PUSH1 0x1 SWAP1 SWAP3 ADD SWAP2 ADD PUSH2 0x3DA7 JUMP JUMPDEST POP DUP5 DUP3 LT ISZERO PUSH2 0x3DE4 JUMPI DUP7 DUP5 ADD MLOAD PUSH0 NOT PUSH1 0x3 DUP8 SWAP1 SHL PUSH1 0xF8 AND SHR NOT AND DUP2 SSTORE JUMPDEST POP POP POP POP PUSH1 0x1 SWAP1 DUP2 SHL ADD SWAP1 SSTORE POP JUMP JUMPDEST PUSH4 0x4E487B71 PUSH1 0xE0 SHL PUSH0 MSTORE PUSH1 0x32 PUSH1 0x4 MSTORE PUSH1 0x24 PUSH0 REVERT JUMPDEST PUSH1 0x20 DUP1 DUP3 MSTORE PUSH1 0xE SWAP1 DUP3 ADD MSTORE PUSH14 0x139BDD08185D5D1A1BDC9A5E9959 PUSH1 0x92 SHL PUSH1 0x40 DUP3 ADD MSTORE PUSH1 0x60 ADD SWAP1 JUMP JUMPDEST PUSH0 PUSH0 DUP4 CALLDATALOAD PUSH1 0x1E NOT DUP5 CALLDATASIZE SUB ADD DUP2 SLT PUSH2 0x3E44 JUMPI PUSH0 PUSH0 REVERT JUMPDEST DUP4 ADD DUP1 CALLDATALOAD SWAP2 POP PUSH1 0x1 PUSH1 0x1 PUSH1 0x40 SHL SUB DUP3 GT ISZERO PUSH2 0x3E5D JUMPI PUSH0 PUSH0 REVERT JUMPDEST PUSH1 0x20 ADD SWAP2 POP CALLDATASIZE DUP2 SWAP1 SUB DUP3 SGT ISZERO PUSH2 0x3E71 JUMPI PUSH0 PUSH0 REVERT JUMPDEST SWAP3 POP SWAP3 SWAP1 POP JUMP JUMPDEST DUP2 DUP4 DUP3 CALLDATACOPY PUSH0 SWAP2 ADD SWAP1 DUP2 MSTORE SWAP2 SWAP1 POP JUMP JUMPDEST PUSH4 0x4E487B71 PUSH1 0xE0 SHL PUSH0 MSTORE PUSH1 0x11 PUSH1 0x4 MSTORE PUSH1 0x24 PUSH0 REVERT JUMPDEST DUP2 DUP2 SUB DUP2 DUP2 GT ISZERO PUSH2 0x7D1 JUMPI PUSH2 0x7D1 PUSH2 0x3E87 JUMP JUMPDEST PUSH4 0x4E487B71 PUSH1 0xE0 SHL PUSH0 MSTORE PUSH1 0x31 PUSH1 0x4 MSTORE PUSH1 0x24 PUSH0 REVERT JUMPDEST PUSH1 0x1 DUP1 PUSH1 0xA0 SHL SUB DUP6 AND DUP2 MSTORE DUP4 PUSH1 0x20 DUP3 ADD MSTORE DUP3 ISZERO ISZERO PUSH1 0x40 DUP3 ADD MSTORE PUSH1 0x80 PUSH1 0x60 DUP3 ADD MSTORE PUSH0 PUSH2 0x3EF0 PUSH1 0x80 DUP4 ADD DUP5 PUSH2 0x305B JUMP JUMPDEST SWAP7 SWAP6 POP POP POP POP POP POP JUMP JUMPDEST DUP1 MLOAD PUSH1 0x20 DUP3 ADD MLOAD PUSH1 0x1 PUSH1 0x1 PUSH1 0x60 SHL SUB NOT DUP2 AND SWAP2 SWAP1 PUSH1 0x14 DUP3 LT ISZERO PUSH2 0x3F41 JUMPI PUSH12 0xFFFFFFFFFFFFFFFFFFFFFFFF NOT PUSH12 0xFFFFFFFFFFFFFFFFFFFFFFFF NOT DUP4 PUSH1 0x14 SUB PUSH1 0x3 SHL SHL DUP3 AND AND SWAP3 POP JUMPDEST POP POP SWAP2 SWAP1 POP JUMP JUMPDEST PUSH1 0x1 PUSH1 0x1 PUSH1 0xA0 SHL SUB DUP5 AND DUP2 MSTORE DUP3 ISZERO ISZERO PUSH1 0x20 DUP3 ADD MSTORE PUSH1 0x60 PUSH1 0x40 DUP3 ADD DUP2 SWAP1 MSTORE PUSH0 SWAP1 PUSH2 0x3A9F SWAP1 DUP4 ADD DUP5 PUSH2 0x305B JUMP JUMPDEST PUSH1 0x1 PUSH1 0x1 PUSH1 0xA0 SHL SUB DUP7 DUP2 AND DUP3 MSTORE DUP6 DUP2 AND PUSH1 0x20 DUP4 ADD MSTORE DUP5 AND PUSH1 0x40 DUP3 ADD MSTORE PUSH1 0x60 DUP2 ADD DUP4 SWAP1 MSTORE PUSH1 0xA0 PUSH1 0x80 DUP3 ADD DUP2 SWAP1 MSTORE PUSH0 SWAP1 PUSH2 0x27E6 SWAP1 DUP4 ADD DUP5 PUSH2 0x305B JUMP JUMPDEST DUP3 ISZERO ISZERO DUP2 MSTORE PUSH1 0x40 PUSH1 0x20 DUP3 ADD MSTORE PUSH0 PUSH2 0x272F PUSH1 0x40 DUP4 ADD DUP5 PUSH2 0x305B JUMP JUMPDEST DUP1 MLOAD PUSH1 0x20 DUP1 DUP4 ADD MLOAD SWAP2 SWAP1 DUP2 LT ISZERO PUSH2 0x1D05 JUMPI PUSH0 NOT PUSH1 0x20 SWAP2 SWAP1 SWAP2 SUB PUSH1 0x3 SHL SHL AND SWAP2 SWAP1 POP JUMP JUMPDEST DUP3 DUP2 MSTORE PUSH1 0x40 PUSH1 0x20 DUP3 ADD MSTORE PUSH0 PUSH2 0x272F PUSH1 0x40 DUP4 ADD DUP5 PUSH2 0x305B JUMP JUMPDEST PUSH0 PUSH1 0x20 DUP3 DUP5 SUB SLT ISZERO PUSH2 0x4012 JUMPI PUSH0 PUSH0 REVERT JUMPDEST DUP2 MLOAD PUSH1 0x1 PUSH1 0x1 PUSH1 0x40 SHL SUB DUP2 GT ISZERO PUSH2 0x4027 JUMPI PUSH0 PUSH0 REVERT JUMPDEST DUP3 ADD PUSH1 0x1F DUP2 ADD DUP5 SGT PUSH2 0x4037 JUMPI PUSH0 PUSH0 REVERT JUMPDEST DUP1 MLOAD PUSH2 0x4045 PUSH2 0x2FD8 DUP3 PUSH2 0x2F90 JUMP JUMPDEST DUP2 DUP2 MSTORE DUP6 PUSH1 0x20 DUP4 DUP6 ADD ADD GT ISZERO PUSH2 0x4059 JUMPI PUSH0 PUSH0 REVERT JUMPDEST DUP2 PUSH1 0x20 DUP5 ADD PUSH1 0x20 DUP4 ADD MCOPY PUSH0 SWAP2 DUP2 ADD PUSH1 0x20 ADD SWAP2 SWAP1 SWAP2 MSTORE SWAP5 SWAP4 POP POP POP POP JUMP JUMPDEST PUSH0 PUSH1 0x1 DUP3 ADD PUSH2 0x4087 JUMPI PUSH2 0x4087 PUSH2 0x3E87 JUMP JUMPDEST POP PUSH1 0x1 ADD SWAP1 JUMP INVALID LOG2 PUSH5 0x6970667358 0x22 SLT KECCAK256 0xC1 RETURNDATACOPY LT 0x21 TIMESTAMP SWAP8 MSIZE SWAP4 DUP3 0xC5 0xC5 0xC8 CALLDATALOAD PUSH17 0xF1804929A90B0950D2C97D759982374C07 0xC PUSH5 0x736F6C6343 STOP ADDMOD 0x1F STOP CALLER "
		},
		"gasEstimates": {
			"creation": {
				"codeDepositCost": "3316000",
				"executionCost": "infinite",
				"totalCost": "infinite"
			},
			"external": {
				"": "infinite",
				"addChild(string,string,uint8,(uint16,uint8,uint8),(uint16,uint8,uint8),bytes32,uint8)": "infinite",
				"addSpouse(bytes32,string,string,(uint16,uint8,uint8),(uint16,uint8,uint8),address)": "infinite",
				"authorizeOperator(address,bytes32,bytes)": "infinite",
				"balanceOf(address)": "infinite",
				"batchCalls(bytes[])": "infinite",
				"clanShortDesc()": "infinite",
				"genealogyAddress()": "2426",
				"getData(bytes32)": "infinite",
				"getDataBatch(bytes32[])": "infinite",
				"getDataBatchForTokenIds(bytes32[],bytes32[])": "infinite",
				"getDataForTokenId(bytes32,bytes32)": "infinite",
				"getOperatorsOf(bytes32)": "infinite",
				"getPersonInfo(bytes32)": "infinite",
				"isOperatorFor(address,bytes32)": "infinite",
				"owner()": "2396",
				"personCount()": "2343",
				"removeChild(bytes32,bytes32)": "infinite",
				"removeSpouse(bytes32,bytes32)": "infinite",
				"renounceOwnership()": "infinite",
				"revokeOperator(address,bytes32,bool,bytes)": "infinite",
				"setClanShortDesc(string)": "infinite",
				"setData(bytes32,bytes)": "infinite",
				"setDataBatch(bytes32[],bytes[])": "infinite",
				"setDataBatchForTokenIds(bytes32[],bytes32[],bytes[])": "infinite",
				"setDataForTokenId(bytes32,bytes32,bytes)": "infinite",
				"supportsInterface(bytes4)": "infinite",
				"tokenIdsOf(address)": "infinite",
				"tokenOwnerOf(bytes32)": "2622",
				"totalSupply()": "2326",
				"transfer(address,address,bytes32,bool,bytes)": "infinite",
				"transferBatch(address[],address[],bytes32[],bool[],bytes[])": "infinite",
				"transferGenealogyOwner(address)": "28340",
				"transferOwnership(address)": "28461",
				"updatePersonData(bytes32,string,string,uint8,(uint16,uint8,uint8),(uint16,uint8,uint8))": "infinite"
			},
			"internal": {
				"_createNewPerson(string memory,string memory,address,enum FamilyTypes.Sex,struct FamilyTypes.DateInfo memory,struct FamilyTypes.DateInfo memory)": "infinite"
			}
		},
		"methodIdentifiers": {
			"addChild(string,string,uint8,(uint16,uint8,uint8),(uint16,uint8,uint8),bytes32,uint8)": "90b8f861",
			"addSpouse(bytes32,string,string,(uint16,uint8,uint8),(uint16,uint8,uint8),address)": "65758c04",
			"authorizeOperator(address,bytes32,bytes)": "86a10ddd",
			"balanceOf(address)": "70a08231",
			"batchCalls(bytes[])": "6963d438",
			"clanShortDesc()": "e4ac8dbd",
			"genealogyAddress()": "1f121708",
			"getData(bytes32)": "54f6127f",
			"getDataBatch(bytes32[])": "dedff9c6",
			"getDataBatchForTokenIds(bytes32[],bytes32[])": "1d26fce6",
			"getDataForTokenId(bytes32,bytes32)": "16e023b3",
			"getOperatorsOf(bytes32)": "49a6078d",
			"getPersonInfo(bytes32)": "92b88f06",
			"isOperatorFor(address,bytes32)": "2a3654a4",
			"owner()": "8da5cb5b",
			"personCount()": "78495bf8",
			"removeChild(bytes32,bytes32)": "8f81ecfc",
			"removeSpouse(bytes32,bytes32)": "7e913b05",
			"renounceOwnership()": "715018a6",
			"revokeOperator(address,bytes32,bool,bytes)": "db8c9663",
			"setClanShortDesc(string)": "0cfa4650",
			"setData(bytes32,bytes)": "7f23690c",
			"setDataBatch(bytes32[],bytes[])": "97902421",
			"setDataBatchForTokenIds(bytes32[],bytes32[],bytes[])": "be9f0e6f",
			"setDataForTokenId(bytes32,bytes32,bytes)": "d6c1407c",
			"supportsInterface(bytes4)": "01ffc9a7",
			"tokenIdsOf(address)": "a3b261f2",
			"tokenOwnerOf(bytes32)": "217b2270",
			"totalSupply()": "18160ddd",
			"transfer(address,address,bytes32,bool,bytes)": "511b6952",
			"transferBatch(address[],address[],bytes32[],bool[],bytes[])": "7e87632c",
			"transferGenealogyOwner(address)": "02154b4e",
			"transferOwnership(address)": "f2fde38b",
			"updatePersonData(bytes32,string,string,uint8,(uint16,uint8,uint8),(uint16,uint8,uint8))": "49fc5686"
		}
	},
	"abi": [
		{
			"inputs": [
				{
					"internalType": "string",
					"name": "clanName",
					"type": "string"
				},
				{
					"internalType": "string",
					"name": "clanDesc",
					"type": "string"
				},
				{
					"internalType": "string",
					"name": "ancestorName",
					"type": "string"
				},
				{
					"internalType": "string",
					"name": "ancestorShortDesc",
					"type": "string"
				},
				{
					"components": [
						{
							"internalType": "uint16",
							"name": "year",
							"type": "uint16"
						},
						{
							"internalType": "uint8",
							"name": "month",
							"type": "uint8"
						},
						{
							"internalType": "uint8",
							"name": "day",
							"type": "uint8"
						}
					],
					"internalType": "struct FamilyTypes.DateInfo",
					"name": "birthDate",
					"type": "tuple"
				},
				{
					"components": [
						{
							"internalType": "uint16",
							"name": "year",
							"type": "uint16"
						},
						{
							"internalType": "uint8",
							"name": "month",
							"type": "uint8"
						},
						{
							"internalType": "uint8",
							"name": "day",
							"type": "uint8"
						}
					],
					"internalType": "struct FamilyTypes.DateInfo",
					"name": "deathDate",
					"type": "tuple"
				},
				{
					"internalType": "address",
					"name": "owner",
					"type": "address"
				}
			],
			"stateMutability": "nonpayable",
			"type": "constructor"
		},
		{
			"inputs": [],
			"name": "ERC725Y_DataKeysValuesEmptyArray",
			"type": "error"
		},
		{
			"inputs": [],
			"name": "ERC725Y_DataKeysValuesLengthMismatch",
			"type": "error"
		},
		{
			"inputs": [],
			"name": "ERC725Y_MsgValueDisallowed",
			"type": "error"
		},
		{
			"inputs": [
				{
					"internalType": "bytes",
					"name": "storedData",
					"type": "bytes"
				}
			],
			"name": "InvalidExtensionAddress",
			"type": "error"
		},
		{
			"inputs": [
				{
					"internalType": "bytes",
					"name": "data",
					"type": "bytes"
				}
			],
			"name": "InvalidFunctionSelector",
			"type": "error"
		},
		{
			"inputs": [],
			"name": "LSP4TokenNameNotEditable",
			"type": "error"
		},
		{
			"inputs": [],
			"name": "LSP4TokenSymbolNotEditable",
			"type": "error"
		},
		{
			"inputs": [],
			"name": "LSP4TokenTypeNotEditable",
			"type": "error"
		},
		{
			"inputs": [
				{
					"internalType": "uint256",
					"name": "callIndex",
					"type": "uint256"
				}
			],
			"name": "LSP8BatchCallFailed",
			"type": "error"
		},
		{
			"inputs": [],
			"name": "LSP8CannotSendToAddressZero",
			"type": "error"
		},
		{
			"inputs": [],
			"name": "LSP8CannotUseAddressZeroAsOperator",
			"type": "error"
		},
		{
			"inputs": [],
			"name": "LSP8InvalidTransferBatch",
			"type": "error"
		},
		{
			"inputs": [
				{
					"internalType": "bytes32",
					"name": "tokenId",
					"type": "bytes32"
				}
			],
			"name": "LSP8NonExistentTokenId",
			"type": "error"
		},
		{
			"inputs": [
				{
					"internalType": "address",
					"name": "operator",
					"type": "address"
				},
				{
					"internalType": "bytes32",
					"name": "tokenId",
					"type": "bytes32"
				}
			],
			"name": "LSP8NonExistingOperator",
			"type": "error"
		},
		{
			"inputs": [
				{
					"internalType": "bytes32",
					"name": "tokenId",
					"type": "bytes32"
				},
				{
					"internalType": "address",
					"name": "caller",
					"type": "address"
				}
			],
			"name": "LSP8NotTokenOperator",
			"type": "error"
		},
		{
			"inputs": [
				{
					"internalType": "address",
					"name": "tokenOwner",
					"type": "address"
				},
				{
					"internalType": "bytes32",
					"name": "tokenId",
					"type": "bytes32"
				},
				{
					"internalType": "address",
					"name": "caller",
					"type": "address"
				}
			],
			"name": "LSP8NotTokenOwner",
			"type": "error"
		},
		{
			"inputs": [
				{
					"internalType": "address",
					"name": "tokenReceiver",
					"type": "address"
				}
			],
			"name": "LSP8NotifyTokenReceiverContractMissingLSP1Interface",
			"type": "error"
		},
		{
			"inputs": [
				{
					"internalType": "address",
					"name": "tokenReceiver",
					"type": "address"
				}
			],
			"name": "LSP8NotifyTokenReceiverIsEOA",
			"type": "error"
		},
		{
			"inputs": [
				{
					"internalType": "address",
					"name": "operator",
					"type": "address"
				},
				{
					"internalType": "bytes32",
					"name": "tokenId",
					"type": "bytes32"
				}
			],
			"name": "LSP8OperatorAlreadyAuthorized",
			"type": "error"
		},
		{
			"inputs": [
				{
					"internalType": "address",
					"name": "caller",
					"type": "address"
				},
				{
					"internalType": "address",
					"name": "tokenOwner",
					"type": "address"
				},
				{
					"internalType": "bytes32",
					"name": "tokenId",
					"type": "bytes32"
				}
			],
			"name": "LSP8RevokeOperatorNotAuthorized",
			"type": "error"
		},
		{
			"inputs": [],
			"name": "LSP8TokenContractCannotHoldValue",
			"type": "error"
		},
		{
			"inputs": [
				{
					"internalType": "bytes32",
					"name": "tokenId",
					"type": "bytes32"
				}
			],
			"name": "LSP8TokenIdAlreadyMinted",
			"type": "error"
		},
		{
			"inputs": [],
			"name": "LSP8TokenIdFormatNotEditable",
			"type": "error"
		},
		{
			"inputs": [],
			"name": "LSP8TokenIdsDataEmptyArray",
			"type": "error"
		},
		{
			"inputs": [],
			"name": "LSP8TokenIdsDataLengthMismatch",
			"type": "error"
		},
		{
			"inputs": [],
			"name": "LSP8TokenOwnerCannotBeOperator",
			"type": "error"
		},
		{
			"inputs": [
				{
					"internalType": "bytes32",
					"name": "tokenId",
					"type": "bytes32"
				},
				{
					"internalType": "address",
					"name": "oldOwner",
					"type": "address"
				},
				{
					"internalType": "address",
					"name": "newOwner",
					"type": "address"
				}
			],
			"name": "LSP8TokenOwnerChanged",
			"type": "error"
		},
		{
			"inputs": [
				{
					"internalType": "bytes4",
					"name": "functionSelector",
					"type": "bytes4"
				}
			],
			"name": "NoExtensionFoundForFunctionSelector",
			"type": "error"
		},
		{
			"inputs": [],
			"name": "OwnableCannotSetZeroAddressAsOwner",
			"type": "error"
		},
		{
			"anonymous": false,
			"inputs": [
				{
					"indexed": true,
					"internalType": "bytes32",
					"name": "childId",
					"type": "bytes32"
				},
				{
					"indexed": true,
					"internalType": "bytes32",
					"name": "fatherId",
					"type": "bytes32"
				}
			],
			"name": "ChildAdded",
			"type": "event"
		},
		{
			"anonymous": false,
			"inputs": [
				{
					"indexed": true,
					"internalType": "bytes32",
					"name": "childId",
					"type": "bytes32"
				},
				{
					"indexed": true,
					"internalType": "bytes32",
					"name": "parentId",
					"type": "bytes32"
				}
			],
			"name": "ChildRemoved",
			"type": "event"
		},
		{
			"anonymous": false,
			"inputs": [
				{
					"indexed": true,
					"internalType": "address",
					"name": "owner",
					"type": "address"
				}
			],
			"name": "ClanShortDescChanged",
			"type": "event"
		},
		{
			"anonymous": false,
			"inputs": [
				{
					"indexed": true,
					"internalType": "bytes32",
					"name": "dataKey",
					"type": "bytes32"
				},
				{
					"indexed": false,
					"internalType": "bytes",
					"name": "dataValue",
					"type": "bytes"
				}
			],
			"name": "DataChanged",
			"type": "event"
		},
		{
			"anonymous": false,
			"inputs": [
				{
					"indexed": true,
					"internalType": "address",
					"name": "operator",
					"type": "address"
				},
				{
					"indexed": true,
					"internalType": "address",
					"name": "tokenOwner",
					"type": "address"
				},
				{
					"indexed": true,
					"internalType": "bytes32",
					"name": "tokenId",
					"type": "bytes32"
				},
				{
					"indexed": false,
					"internalType": "bytes",
					"name": "operatorNotificationData",
					"type": "bytes"
				}
			],
			"name": "OperatorAuthorizationChanged",
			"type": "event"
		},
		{
			"anonymous": false,
			"inputs": [
				{
					"indexed": true,
					"internalType": "address",
					"name": "operator",
					"type": "address"
				},
				{
					"indexed": true,
					"internalType": "address",
					"name": "tokenOwner",
					"type": "address"
				},
				{
					"indexed": true,
					"internalType": "bytes32",
					"name": "tokenId",
					"type": "bytes32"
				},
				{
					"indexed": false,
					"internalType": "bool",
					"name": "notified",
					"type": "bool"
				},
				{
					"indexed": false,
					"internalType": "bytes",
					"name": "operatorNotificationData",
					"type": "bytes"
				}
			],
			"name": "OperatorRevoked",
			"type": "event"
		},
		{
			"anonymous": false,
			"inputs": [
				{
					"indexed": true,
					"internalType": "address",
					"name": "previousOwner",
					"type": "address"
				},
				{
					"indexed": true,
					"internalType": "address",
					"name": "newOwner",
					"type": "address"
				}
			],
			"name": "OwnershipTransferred",
			"type": "event"
		},
		{
			"anonymous": false,
			"inputs": [
				{
					"indexed": true,
					"internalType": "bytes32",
					"name": "personId",
					"type": "bytes32"
				},
				{
					"indexed": false,
					"internalType": "address",
					"name": "ownership",
					"type": "address"
				}
			],
			"name": "PersonCreated",
			"type": "event"
		},
		{
			"anonymous": false,
			"inputs": [
				{
					"indexed": true,
					"internalType": "bytes32",
					"name": "husbanId",
					"type": "bytes32"
				},
				{
					"indexed": true,
					"internalType": "bytes32",
					"name": "spouseId",
					"type": "bytes32"
				}
			],
			"name": "SpouseAdded",
			"type": "event"
		},
		{
			"anonymous": false,
			"inputs": [
				{
					"indexed": true,
					"internalType": "bytes32",
					"name": "spouseId",
					"type": "bytes32"
				},
				{
					"indexed": true,
					"internalType": "bytes32",
					"name": "husbanId",
					"type": "bytes32"
				}
			],
			"name": "SpouseRemoved",
			"type": "event"
		},
		{
			"anonymous": false,
			"inputs": [
				{
					"indexed": true,
					"internalType": "bytes32",
					"name": "tokenId",
					"type": "bytes32"
				},
				{
					"indexed": true,
					"internalType": "bytes32",
					"name": "dataKey",
					"type": "bytes32"
				},
				{
					"indexed": false,
					"internalType": "bytes",
					"name": "dataValue",
					"type": "bytes"
				}
			],
			"name": "TokenIdDataChanged",
			"type": "event"
		},
		{
			"anonymous": false,
			"inputs": [
				{
					"indexed": false,
					"internalType": "address",
					"name": "operator",
					"type": "address"
				},
				{
					"indexed": true,
					"internalType": "address",
					"name": "from",
					"type": "address"
				},
				{
					"indexed": true,
					"internalType": "address",
					"name": "to",
					"type": "address"
				},
				{
					"indexed": true,
					"internalType": "bytes32",
					"name": "tokenId",
					"type": "bytes32"
				},
				{
					"indexed": false,
					"internalType": "bool",
					"name": "force",
					"type": "bool"
				},
				{
					"indexed": false,
					"internalType": "bytes",
					"name": "data",
					"type": "bytes"
				}
			],
			"name": "Transfer",
			"type": "event"
		},
		{
			"anonymous": false,
			"inputs": [
				{
					"indexed": true,
					"internalType": "bytes32",
					"name": "personId",
					"type": "bytes32"
				}
			],
			"name": "UpdatePersonData",
			"type": "event"
		},
		{
			"stateMutability": "payable",
			"type": "fallback"
		},
		{
			"inputs": [
				{
					"internalType": "string",
					"name": "childName",
					"type": "string"
				},
				{
					"internalType": "string",
					"name": "shortDesc",
					"type": "string"
				},
				{
					"internalType": "enum FamilyTypes.Sex",
					"name": "sex",
					"type": "uint8"
				},
				{
					"components": [
						{
							"internalType": "uint16",
							"name": "year",
							"type": "uint16"
						},
						{
							"internalType": "uint8",
							"name": "month",
							"type": "uint8"
						},
						{
							"internalType": "uint8",
							"name": "day",
							"type": "uint8"
						}
					],
					"internalType": "struct FamilyTypes.DateInfo",
					"name": "birthDate",
					"type": "tuple"
				},
				{
					"components": [
						{
							"internalType": "uint16",
							"name": "year",
							"type": "uint16"
						},
						{
							"internalType": "uint8",
							"name": "month",
							"type": "uint8"
						},
						{
							"internalType": "uint8",
							"name": "day",
							"type": "uint8"
						}
					],
					"internalType": "struct FamilyTypes.DateInfo",
					"name": "deathDate",
					"type": "tuple"
				},
				{
					"internalType": "bytes32",
					"name": "fatherId",
					"type": "bytes32"
				},
				{
					"internalType": "enum FamilyTypes.ChildType",
					"name": "childType",
					"type": "uint8"
				}
			],
			"name": "addChild",
			"outputs": [],
			"stateMutability": "nonpayable",
			"type": "function"
		},
		{
			"inputs": [
				{
					"internalType": "bytes32",
					"name": "husbanId",
					"type": "bytes32"
				},
				{
					"internalType": "string",
					"name": "name",
					"type": "string"
				},
				{
					"internalType": "string",
					"name": "descShort",
					"type": "string"
				},
				{
					"components": [
						{
							"internalType": "uint16",
							"name": "year",
							"type": "uint16"
						},
						{
							"internalType": "uint8",
							"name": "month",
							"type": "uint8"
						},
						{
							"internalType": "uint8",
							"name": "day",
							"type": "uint8"
						}
					],
					"internalType": "struct FamilyTypes.DateInfo",
					"name": "birthDate",
					"type": "tuple"
				},
				{
					"components": [
						{
							"internalType": "uint16",
							"name": "year",
							"type": "uint16"
						},
						{
							"internalType": "uint8",
							"name": "month",
							"type": "uint8"
						},
						{
							"internalType": "uint8",
							"name": "day",
							"type": "uint8"
						}
					],
					"internalType": "struct FamilyTypes.DateInfo",
					"name": "deathDate",
					"type": "tuple"
				},
				{
					"internalType": "address",
					"name": "ownership",
					"type": "address"
				}
			],
			"name": "addSpouse",
			"outputs": [],
			"stateMutability": "nonpayable",
			"type": "function"
		},
		{
			"inputs": [
				{
					"internalType": "address",
					"name": "operator",
					"type": "address"
				},
				{
					"internalType": "bytes32",
					"name": "tokenId",
					"type": "bytes32"
				},
				{
					"internalType": "bytes",
					"name": "operatorNotificationData",
					"type": "bytes"
				}
			],
			"name": "authorizeOperator",
			"outputs": [],
			"stateMutability": "nonpayable",
			"type": "function"
		},
		{
			"inputs": [
				{
					"internalType": "address",
					"name": "tokenOwner",
					"type": "address"
				}
			],
			"name": "balanceOf",
			"outputs": [
				{
					"internalType": "uint256",
					"name": "",
					"type": "uint256"
				}
			],
			"stateMutability": "view",
			"type": "function"
		},
		{
			"inputs": [
				{
					"internalType": "bytes[]",
					"name": "data",
					"type": "bytes[]"
				}
			],
			"name": "batchCalls",
			"outputs": [
				{
					"internalType": "bytes[]",
					"name": "results",
					"type": "bytes[]"
				}
			],
			"stateMutability": "nonpayable",
			"type": "function"
		},
		{
			"inputs": [],
			"name": "clanShortDesc",
			"outputs": [
				{
					"internalType": "string",
					"name": "",
					"type": "string"
				}
			],
			"stateMutability": "view",
			"type": "function"
		},
		{
			"inputs": [],
			"name": "genealogyAddress",
			"outputs": [
				{
					"internalType": "address",
					"name": "",
					"type": "address"
				}
			],
			"stateMutability": "view",
			"type": "function"
		},
		{
			"inputs": [
				{
					"internalType": "bytes32",
					"name": "dataKey",
					"type": "bytes32"
				}
			],
			"name": "getData",
			"outputs": [
				{
					"internalType": "bytes",
					"name": "dataValue",
					"type": "bytes"
				}
			],
			"stateMutability": "view",
			"type": "function"
		},
		{
			"inputs": [
				{
					"internalType": "bytes32[]",
					"name": "dataKeys",
					"type": "bytes32[]"
				}
			],
			"name": "getDataBatch",
			"outputs": [
				{
					"internalType": "bytes[]",
					"name": "dataValues",
					"type": "bytes[]"
				}
			],
			"stateMutability": "view",
			"type": "function"
		},
		{
			"inputs": [
				{
					"internalType": "bytes32[]",
					"name": "tokenIds",
					"type": "bytes32[]"
				},
				{
					"internalType": "bytes32[]",
					"name": "dataKeys",
					"type": "bytes32[]"
				}
			],
			"name": "getDataBatchForTokenIds",
			"outputs": [
				{
					"internalType": "bytes[]",
					"name": "dataValues",
					"type": "bytes[]"
				}
			],
			"stateMutability": "view",
			"type": "function"
		},
		{
			"inputs": [
				{
					"internalType": "bytes32",
					"name": "tokenId",
					"type": "bytes32"
				},
				{
					"internalType": "bytes32",
					"name": "dataKey",
					"type": "bytes32"
				}
			],
			"name": "getDataForTokenId",
			"outputs": [
				{
					"internalType": "bytes",
					"name": "dataValue",
					"type": "bytes"
				}
			],
			"stateMutability": "view",
			"type": "function"
		},
		{
			"inputs": [
				{
					"internalType": "bytes32",
					"name": "tokenId",
					"type": "bytes32"
				}
			],
			"name": "getOperatorsOf",
			"outputs": [
				{
					"internalType": "address[]",
					"name": "",
					"type": "address[]"
				}
			],
			"stateMutability": "view",
			"type": "function"
		},
		{
			"inputs": [
				{
					"internalType": "bytes32",
					"name": "personId",
					"type": "bytes32"
				}
			],
			"name": "getPersonInfo",
			"outputs": [
				{
					"components": [
						{
							"internalType": "string",
							"name": "name",
							"type": "string"
						},
						{
							"internalType": "bytes32",
							"name": "fatherId",
							"type": "bytes32"
						},
						{
							"internalType": "bytes32",
							"name": "motherId",
							"type": "bytes32"
						},
						{
							"components": [
								{
									"internalType": "enum FamilyTypes.ChildType",
									"name": "childType",
									"type": "uint8"
								},
								{
									"internalType": "bytes32",
									"name": "childId",
									"type": "bytes32"
								}
							],
							"internalType": "struct FamilyTypes.Child[]",
							"name": "children",
							"type": "tuple[]"
						},
						{
							"components": [
								{
									"internalType": "bytes32",
									"name": "spouseId",
									"type": "bytes32"
								},
								{
									"components": [
										{
											"internalType": "uint16",
											"name": "year",
											"type": "uint16"
										},
										{
											"internalType": "uint8",
											"name": "month",
											"type": "uint8"
										},
										{
											"internalType": "uint8",
											"name": "day",
											"type": "uint8"
										}
									],
									"internalType": "struct FamilyTypes.DateInfo",
									"name": "marriedDate",
									"type": "tuple"
								},
								{
									"components": [
										{
											"internalType": "uint16",
											"name": "year",
											"type": "uint16"
										},
										{
											"internalType": "uint8",
											"name": "month",
											"type": "uint8"
										},
										{
											"internalType": "uint8",
											"name": "day",
											"type": "uint8"
										}
									],
									"internalType": "struct FamilyTypes.DateInfo",
									"name": "divorcedDate",
									"type": "tuple"
								}
							],
							"internalType": "struct FamilyTypes.Spouse[]",
							"name": "spouses",
							"type": "tuple[]"
						},
						{
							"internalType": "enum FamilyTypes.Sex",
							"name": "sex",
							"type": "uint8"
						},
						{
							"components": [
								{
									"internalType": "uint16",
									"name": "year",
									"type": "uint16"
								},
								{
									"internalType": "uint8",
									"name": "month",
									"type": "uint8"
								},
								{
									"internalType": "uint8",
									"name": "day",
									"type": "uint8"
								}
							],
							"internalType": "struct FamilyTypes.DateInfo",
							"name": "birthDate",
							"type": "tuple"
						},
						{
							"components": [
								{
									"internalType": "uint16",
									"name": "year",
									"type": "uint16"
								},
								{
									"internalType": "uint8",
									"name": "month",
									"type": "uint8"
								},
								{
									"internalType": "uint8",
									"name": "day",
									"type": "uint8"
								}
							],
							"internalType": "struct FamilyTypes.DateInfo",
							"name": "deathDate",
							"type": "tuple"
						},
						{
							"internalType": "string",
							"name": "shortDesc",
							"type": "string"
						}
					],
					"internalType": "struct FamilyTypes.Person",
					"name": "",
					"type": "tuple"
				}
			],
			"stateMutability": "view",
			"type": "function"
		},
		{
			"inputs": [
				{
					"internalType": "address",
					"name": "operator",
					"type": "address"
				},
				{
					"internalType": "bytes32",
					"name": "tokenId",
					"type": "bytes32"
				}
			],
			"name": "isOperatorFor",
			"outputs": [
				{
					"internalType": "bool",
					"name": "",
					"type": "bool"
				}
			],
			"stateMutability": "view",
			"type": "function"
		},
		{
			"inputs": [],
			"name": "owner",
			"outputs": [
				{
					"internalType": "address",
					"name": "",
					"type": "address"
				}
			],
			"stateMutability": "view",
			"type": "function"
		},
		{
			"inputs": [],
			"name": "personCount",
			"outputs": [
				{
					"internalType": "uint256",
					"name": "_value",
					"type": "uint256"
				}
			],
			"stateMutability": "view",
			"type": "function"
		},
		{
			"inputs": [
				{
					"internalType": "bytes32",
					"name": "parentId",
					"type": "bytes32"
				},
				{
					"internalType": "bytes32",
					"name": "childId",
					"type": "bytes32"
				}
			],
			"name": "removeChild",
			"outputs": [],
			"stateMutability": "nonpayable",
			"type": "function"
		},
		{
			"inputs": [
				{
					"internalType": "bytes32",
					"name": "spouseId",
					"type": "bytes32"
				},
				{
					"internalType": "bytes32",
					"name": "husbanId",
					"type": "bytes32"
				}
			],
			"name": "removeSpouse",
			"outputs": [],
			"stateMutability": "nonpayable",
			"type": "function"
		},
		{
			"inputs": [],
			"name": "renounceOwnership",
			"outputs": [],
			"stateMutability": "nonpayable",
			"type": "function"
		},
		{
			"inputs": [
				{
					"internalType": "address",
					"name": "operator",
					"type": "address"
				},
				{
					"internalType": "bytes32",
					"name": "tokenId",
					"type": "bytes32"
				},
				{
					"internalType": "bool",
					"name": "notify",
					"type": "bool"
				},
				{
					"internalType": "bytes",
					"name": "operatorNotificationData",
					"type": "bytes"
				}
			],
			"name": "revokeOperator",
			"outputs": [],
			"stateMutability": "nonpayable",
			"type": "function"
		},
		{
			"inputs": [
				{
					"internalType": "string",
					"name": "newClanShortDesc",
					"type": "string"
				}
			],
			"name": "setClanShortDesc",
			"outputs": [],
			"stateMutability": "nonpayable",
			"type": "function"
		},
		{
			"inputs": [
				{
					"internalType": "bytes32",
					"name": "dataKey",
					"type": "bytes32"
				},
				{
					"internalType": "bytes",
					"name": "dataValue",
					"type": "bytes"
				}
			],
			"name": "setData",
			"outputs": [],
			"stateMutability": "payable",
			"type": "function"
		},
		{
			"inputs": [
				{
					"internalType": "bytes32[]",
					"name": "dataKeys",
					"type": "bytes32[]"
				},
				{
					"internalType": "bytes[]",
					"name": "dataValues",
					"type": "bytes[]"
				}
			],
			"name": "setDataBatch",
			"outputs": [],
			"stateMutability": "payable",
			"type": "function"
		},
		{
			"inputs": [
				{
					"internalType": "bytes32[]",
					"name": "tokenIds",
					"type": "bytes32[]"
				},
				{
					"internalType": "bytes32[]",
					"name": "dataKeys",
					"type": "bytes32[]"
				},
				{
					"internalType": "bytes[]",
					"name": "dataValues",
					"type": "bytes[]"
				}
			],
			"name": "setDataBatchForTokenIds",
			"outputs": [],
			"stateMutability": "nonpayable",
			"type": "function"
		},
		{
			"inputs": [
				{
					"internalType": "bytes32",
					"name": "tokenId",
					"type": "bytes32"
				},
				{
					"internalType": "bytes32",
					"name": "dataKey",
					"type": "bytes32"
				},
				{
					"internalType": "bytes",
					"name": "dataValue",
					"type": "bytes"
				}
			],
			"name": "setDataForTokenId",
			"outputs": [],
			"stateMutability": "nonpayable",
			"type": "function"
		},
		{
			"inputs": [
				{
					"internalType": "bytes4",
					"name": "interfaceId",
					"type": "bytes4"
				}
			],
			"name": "supportsInterface",
			"outputs": [
				{
					"internalType": "bool",
					"name": "",
					"type": "bool"
				}
			],
			"stateMutability": "view",
			"type": "function"
		},
		{
			"inputs": [
				{
					"internalType": "address",
					"name": "tokenOwner",
					"type": "address"
				}
			],
			"name": "tokenIdsOf",
			"outputs": [
				{
					"internalType": "bytes32[]",
					"name": "",
					"type": "bytes32[]"
				}
			],
			"stateMutability": "view",
			"type": "function"
		},
		{
			"inputs": [
				{
					"internalType": "bytes32",
					"name": "tokenId",
					"type": "bytes32"
				}
			],
			"name": "tokenOwnerOf",
			"outputs": [
				{
					"internalType": "address",
					"name": "",
					"type": "address"
				}
			],
			"stateMutability": "view",
			"type": "function"
		},
		{
			"inputs": [],
			"name": "totalSupply",
			"outputs": [
				{
					"internalType": "uint256",
					"name": "",
					"type": "uint256"
				}
			],
			"stateMutability": "view",
			"type": "function"
		},
		{
			"inputs": [
				{
					"internalType": "address",
					"name": "from",
					"type": "address"
				},
				{
					"internalType": "address",
					"name": "to",
					"type": "address"
				},
				{
					"internalType": "bytes32",
					"name": "tokenId",
					"type": "bytes32"
				},
				{
					"internalType": "bool",
					"name": "force",
					"type": "bool"
				},
				{
					"internalType": "bytes",
					"name": "data",
					"type": "bytes"
				}
			],
			"name": "transfer",
			"outputs": [],
			"stateMutability": "nonpayable",
			"type": "function"
		},
		{
			"inputs": [
				{
					"internalType": "address[]",
					"name": "from",
					"type": "address[]"
				},
				{
					"internalType": "address[]",
					"name": "to",
					"type": "address[]"
				},
				{
					"internalType": "bytes32[]",
					"name": "tokenId",
					"type": "bytes32[]"
				},
				{
					"internalType": "bool[]",
					"name": "force",
					"type": "bool[]"
				},
				{
					"internalType": "bytes[]",
					"name": "data",
					"type": "bytes[]"
				}
			],
			"name": "transferBatch",
			"outputs": [],
			"stateMutability": "nonpayable",
			"type": "function"
		},
		{
			"inputs": [
				{
					"internalType": "address",
					"name": "newOwner",
					"type": "address"
				}
			],
			"name": "transferGenealogyOwner",
			"outputs": [],
			"stateMutability": "nonpayable",
			"type": "function"
		},
		{
			"inputs": [
				{
					"internalType": "address",
					"name": "newOwner",
					"type": "address"
				}
			],
			"name": "transferOwnership",
			"outputs": [],
			"stateMutability": "nonpayable",
			"type": "function"
		},
		{
			"inputs": [
				{
					"internalType": "bytes32",
					"name": "personId",
					"type": "bytes32"
				},
				{
					"internalType": "string",
					"name": "newName",
					"type": "string"
				},
				{
					"internalType": "string",
					"name": "newDescShort",
					"type": "string"
				},
				{
					"internalType": "enum FamilyTypes.Sex",
					"name": "sex",
					"type": "uint8"
				},
				{
					"components": [
						{
							"internalType": "uint16",
							"name": "year",
							"type": "uint16"
						},
						{
							"internalType": "uint8",
							"name": "month",
							"type": "uint8"
						},
						{
							"internalType": "uint8",
							"name": "day",
							"type": "uint8"
						}
					],
					"internalType": "struct FamilyTypes.DateInfo",
					"name": "birthDate",
					"type": "tuple"
				},
				{
					"components": [
						{
							"internalType": "uint16",
							"name": "year",
							"type": "uint16"
						},
						{
							"internalType": "uint8",
							"name": "month",
							"type": "uint8"
						},
						{
							"internalType": "uint8",
							"name": "day",
							"type": "uint8"
						}
					],
					"internalType": "struct FamilyTypes.DateInfo",
					"name": "deathDate",
					"type": "tuple"
				}
			],
			"name": "updatePersonData",
			"outputs": [],
			"stateMutability": "nonpayable",
			"type": "function"
		},
		{
			"stateMutability": "payable",
			"type": "receive"
		}
	]
}