{
	"data": {
		"bytecode": {
			"linkReferences": {},
			"object": "6080604052348015600e575f5ffd5b506190ab8061001c5f395ff3fe608060405234801561000f575f5ffd5b5060043610610055575f3560e01c80631ed406b6146100595780635a10d0601461007557806364b9bf17146100a5578063a812ce6d146100d5578063c6a9fa1f146100f1575b5f5ffd5b610073600480360381019061006e919061090b565b61010d565b005b61008f600480360381019061008a919061090b565b610296565b60405161009c9190610945565b60405180910390f35b6100bf60048036038101906100ba919061090b565b6102fa565b6040516100cc9190610945565b60405180910390f35b6100ef60048036038101906100ea91906109f2565b61035f565b005b61010b60048036038101906101069190610ac9565b6105c1565b005b8073ffffffffffffffffffffffffffffffffffffffff165f5f3373ffffffffffffffffffffffffffffffffffffffff1673ffffffffffffffffffffffffffffffffffffffff1681526020019081526020015f205f9054906101000a900473ffffffffffffffffffffffffffffffffffffffff1673ffffffffffffffffffffffffffffffffffffffff16146101d6576040517f08c379a00000000000000000000000000000000000000000000000000000000081526004016101cd90610b61565b60405180910390fd5b5f5f5f3373ffffffffffffffffffffffffffffffffffffffff1673ffffffffffffffffffffffffffffffffffffffff1681526020019081526020015f205f6101000a81548173ffffffffffffffffffffffffffffffffffffffff021916908373ffffffffffffffffffffffffffffffffffffffff1602179055508073ffffffffffffffffffffffffffffffffffffffff167f106de2de224e5b1b7923506ff253ba0c501287d8730ae60b384e9ab22ad9656f60405160405180910390a250565b5f5f5f8373ffffffffffffffffffffffffffffffffffffffff1673ffffffffffffffffffffffffffffffffffffffff1681526020019081526020015f205f9054906101000a900473ffffffffffffffffffffffffffffffffffffffff169050919050565b5f60015f8373ffffffffffffffffffffffffffffffffffffffff1673ffffffffffffffffffffffffffffffffffffffff1681526020019081526020015f205f9054906101000a900473ffffffffffffffffffffffffffffffffffffffff169050919050565b5f73ffffffffffffffffffffffffffffffffffffffff165f5f3373ffffffffffffffffffffffffffffffffffffffff1673ffffffffffffffffffffffffffffffffffffffff1681526020019081526020015f205f9054906101000a900473ffffffffffffffffffffffffffffffffffffffff1673ffffffffffffffffffffffffffffffffffffffff1614610428576040517f08c379a000000000000000000000000000000000000000000000000000000000815260040161041f90610bc9565b60405180910390fd5b5f88888888888888883360405161043e9061089c565b61045099989796959493929190610c40565b604051809103905ff080158015610469573d5f5f3e3d5ffd5b5090505f819050805f5f3373ffffffffffffffffffffffffffffffffffffffff1673ffffffffffffffffffffffffffffffffffffffff1681526020019081526020015f205f6101000a81548173ffffffffffffffffffffffffffffffffffffffff021916908373ffffffffffffffffffffffffffffffffffffffff1602179055503360015f8373ffffffffffffffffffffffffffffffffffffffff1673ffffffffffffffffffffffffffffffffffffffff1681526020019081526020015f205f6101000a81548173ffffffffffffffffffffffffffffffffffffffff021916908373ffffffffffffffffffffffffffffffffffffffff1602179055508073ffffffffffffffffffffffffffffffffffffffff167fb52c312f64a0ddbd98a47610d8b9e019a287c2297bbdc99339b1ca13ea7695398b8b6040516105ad929190610cba565b60405180910390a250505050505050505050565b8073ffffffffffffffffffffffffffffffffffffffff165f5f3373ffffffffffffffffffffffffffffffffffffffff1673ffffffffffffffffffffffffffffffffffffffff1681526020019081526020015f205f9054906101000a900473ffffffffffffffffffffffffffffffffffffffff1673ffffffffffffffffffffffffffffffffffffffff161461068a576040517f08c379a000000000000000000000000000000000000000000000000000000000815260040161068190610d26565b60405180910390fd5b805f5f8473ffffffffffffffffffffffffffffffffffffffff1673ffffffffffffffffffffffffffffffffffffffff1681526020019081526020015f205f6101000a81548173ffffffffffffffffffffffffffffffffffffffff021916908373ffffffffffffffffffffffffffffffffffffffff1602179055508160015f8373ffffffffffffffffffffffffffffffffffffffff1673ffffffffffffffffffffffffffffffffffffffff1681526020019081526020015f205f6101000a81548173ffffffffffffffffffffffffffffffffffffffff021916908373ffffffffffffffffffffffffffffffffffffffff1602179055505f5f5f3373ffffffffffffffffffffffffffffffffffffffff1673ffffffffffffffffffffffffffffffffffffffff1681526020019081526020015f205f6101000a81548173ffffffffffffffffffffffffffffffffffffffff021916908373ffffffffffffffffffffffffffffffffffffffff1602179055508073ffffffffffffffffffffffffffffffffffffffff166302154b4e836040518263ffffffff1660e01b81526004016108329190610945565b5f604051808303815f87803b158015610849575f5ffd5b505af115801561085b573d5f5f3e3d5ffd5b505050507f01fbd754b6c8bcbbcaa42ef62223f951db6f88428bd87ec8902a5994fd604f7c8282604051610890929190610d44565b60405180910390a15050565b61830a80610d6c83390190565b5f5ffd5b5f5ffd5b5f73ffffffffffffffffffffffffffffffffffffffff82169050919050565b5f6108da826108b1565b9050919050565b6108ea816108d0565b81146108f4575f5ffd5b50565b5f81359050610905816108e1565b92915050565b5f602082840312156109205761091f6108a9565b5b5f61092d848285016108f7565b91505092915050565b61093f816108d0565b82525050565b5f6020820190506109585f830184610936565b92915050565b5f5ffd5b5f5ffd5b5f5ffd5b5f5f83601f84011261097f5761097e61095e565b5b8235905067ffffffffffffffff81111561099c5761099b610962565b5b6020830191508360018202830111156109b8576109b7610966565b5b9250929050565b5f819050919050565b6109d1816109bf565b81146109db575f5ffd5b50565b5f813590506109ec816109c8565b92915050565b5f5f5f5f5f5f5f5f60a0898b031215610a0e57610a0d6108a9565b5b5f89013567ffffffffffffffff811115610a2b57610a2a6108ad565b5b610a378b828c0161096a565b9850985050602089013567ffffffffffffffff811115610a5a57610a596108ad565b5b610a668b828c0161096a565b9650965050604089013567ffffffffffffffff811115610a8957610a886108ad565b5b610a958b828c0161096a565b94509450506060610aa88b828c016109de565b9250506080610ab98b828c016109de565b9150509295985092959890939650565b5f5f60408385031215610adf57610ade6108a9565b5b5f610aec858286016108f7565b9250506020610afd858286016108f7565b9150509250929050565b5f82825260208201905092915050565b7f4e6f7420746865206f776e6572000000000000000000000000000000000000005f82015250565b5f610b4b600d83610b07565b9150610b5682610b17565b602082019050919050565b5f6020820190508181035f830152610b7881610b3f565b9050919050565b7f436c616e206578697374656400000000000000000000000000000000000000005f82015250565b5f610bb3600c83610b07565b9150610bbe82610b7f565b602082019050919050565b5f6020820190508181035f830152610be081610ba7565b9050919050565b828183375f83830152505050565b5f601f19601f8301169050919050565b5f610c108385610b07565b9350610c1d838584610be7565b610c2683610bf5565b840190509392505050565b610c3a816109bf565b82525050565b5f60c0820190508181035f830152610c59818b8d610c05565b90508181036020830152610c6e81898b610c05565b90508181036040830152610c83818789610c05565b9050610c926060830186610c31565b610c9f6080830185610c31565b610cac60a0830184610936565b9a9950505050505050505050565b5f6020820190508181035f830152610cd3818486610c05565b90509392505050565b7f4f6e6c79206f776e6572000000000000000000000000000000000000000000005f82015250565b5f610d10600a83610b07565b9150610d1b82610cdc565b602082019050919050565b5f6020820190508181035f830152610d3d81610d04565b9050919050565b5f604082019050610d575f830185610936565b610d646020830184610936565b939250505056fe608060405234801561000f575f5ffd5b5060405161830a38038061830a83398181016040528101906100319190610f41565b856040518060400160405280600681526020017f46414d494c5900000000000000000000000000000000000000000000000000008152508260025f848484848161008d6100826102d860201b60201c565b6102df60201b60201c565b5f73ffffffffffffffffffffffffffffffffffffffff168173ffffffffffffffffffffffffffffffffffffffff16036100f2576040517f1ad8836c00000000000000000000000000000000000000000000000000000000815260040160405180910390fd5b610101816102df60201b60201c565b506101697feafec4d89fa9619884b60000a4d96624a38f7ac2d8d9a604ecf07c12c77e480c5f1b6040518060400160405280600481526020017fa4d96624000000000000000000000000000000000000000000000000000000008152506103a060201b60201c565b61019b7fdeba1e292f8ba88238e10ab3c7f88bd4be4fac56cad5194b6ecceaf653468af15f1b856103a060201b60201c565b6101cd7f2f0a68ab07768e01943a599e73362a0e17a63a72e94dd2e384d2c1d4db9327565f1b846103a060201b60201c565b61021e7fe0261fa95db2eb3b5439bd033cda66d56b96f92f243a8228fd87550ed7bdfdb35f1b82604051602001610204919061102d565b6040516020818303038152906040526103a060201b60201c565b505050506102737ff675e9361af1c1664c1868cfa3eb97672d6b1a513aa5b81dec34c9ee330e818d5f1b82604051602001610259919061102d565b6040516020818303038152906040526103fb60201b60201c565b50505050503360085f6101000a81548173ffffffffffffffffffffffffffffffffffffffff021916908373ffffffffffffffffffffffffffffffffffffffff1602179055506102cc8585835f878761056760201b60201c565b50505050505050611884565b5f33905090565b5f5f5f9054906101000a900473ffffffffffffffffffffffffffffffffffffffff169050815f5f6101000a81548173ffffffffffffffffffffffffffffffffffffffff021916908373ffffffffffffffffffffffffffffffffffffffff1602179055508173ffffffffffffffffffffffffffffffffffffffff168173ffffffffffffffffffffffffffffffffffffffff167f8be0079c531659141344cd1fd0a4f28419497f9722a3daafe3b4186f6b6457e060405160405180910390a35050565b8060015f8481526020019081526020015f2090816103be919061124d565b50817fece574603820d07bc9b91f2a932baadf4628aabcb8afba49776529c14a6104b2826040516103ef9190611364565b60405180910390a25050565b7fdeba1e292f8ba88238e10ab3c7f88bd4be4fac56cad5194b6ecceaf653468af15f1b8203610456576040517f85c169bd00000000000000000000000000000000000000000000000000000000815260040160405180910390fd5b7f2f0a68ab07768e01943a599e73362a0e17a63a72e94dd2e384d2c1d4db9327565f1b82036104b1576040517f76755b3800000000000000000000000000000000000000000000000000000000815260040160405180910390fd5b7fe0261fa95db2eb3b5439bd033cda66d56b96f92f243a8228fd87550ed7bdfdb35f1b820361050c576040517f4ef6d7fb00000000000000000000000000000000000000000000000000000000815260040160405180910390fd5b8060015f8481526020019081526020015f20908161052a919061124d565b50817fece574603820d07bc9b91f2a932baadf4628aabcb8afba49776529c14a6104b28260405161055b9190611364565b60405180910390a25050565b5f61057860066106f860201b60201c565b610588600661070c60201b60201c565b5f1b90506105ad8582600160405180602001604052805f81525061071860201b60201c565b5f60075f8381526020019081526020015f20905087815f0190816105d191906113e6565b5085816001015f6101000a81548173ffffffffffffffffffffffffffffffffffffffff021916908373ffffffffffffffffffffffffffffffffffffffff16021790555084816006015f6101000a81548160ff0219169083600281111561063a576106396114b5565b5b0217905550838160070181905550828160080181905550610682827fc3366955cdc4e5e179365db885cfd44c7a3c473bff1e9fe298c44868ee5c5f0a8a6109a660201b60201c565b6106b3827fb0e4da1959e3b7ca06cbec424e21d53f4f792a982f8136456161e3d4f39c9f4b896109a660201b60201c565b817feac520cdbd769f46fdda2ce013b4f3fa04074e7813afa644faae946556a45ff889886040516106e5929190611539565b60405180910390a2509695505050505050565b6001815f015f828254019250508190555050565b5f815f01549050919050565b5f73ffffffffffffffffffffffffffffffffffffffff168473ffffffffffffffffffffffffffffffffffffffff160361077d576040517f24ecef4d00000000000000000000000000000000000000000000000000000000815260040160405180910390fd5b61078c83610a2b60201b60201c565b156107ce57826040517f34c7b5110000000000000000000000000000000000000000000000000000000081526004016107c5919061157f565b60405180910390fd5b6107e15f85858585610a9360201b60201c565b6107f083610a2b60201b60201c565b1561083257826040517f34c7b511000000000000000000000000000000000000000000000000000000008152600401610829919061157f565b60405180910390fd5b60025f8154610840906115c5565b919050819055506108968360045f8773ffffffffffffffffffffffffffffffffffffffff1673ffffffffffffffffffffffffffffffffffffffff1681526020019081526020015f20610a9a60201b90919060201c565b508360035f8581526020019081526020015f205f6101000a81548173ffffffffffffffffffffffffffffffffffffffff021916908373ffffffffffffffffffffffffffffffffffffffff160217905550828473ffffffffffffffffffffffffffffffffffffffff165f73ffffffffffffffffffffffffffffffffffffffff167fb333c813a7426a7a11e2b190cad52c44119421594b47f6f32ace6d8c7207b2bf33868660405161094893929190611626565b60405180910390a46109635f85858585610ab560201b60201c565b5f335f86868560405160200161097d959493929190611662565b604051602081830303815290604052905061099f858483610abc60201b60201c565b5050505050565b8060015f85856040516020016109bd9291906116da565b6040516020818303038152906040528051906020012081526020019081526020015f2090816109ec919061124d565b5081837fa6e4251f855f750545fe414f120db91c76b88def14d120969e5bb2d3f05debbb83604051610a1e9190611364565b60405180910390a3505050565b5f5f73ffffffffffffffffffffffffffffffffffffffff1660035f8481526020019081526020015f205f9054906101000a900473ffffffffffffffffffffffffffffffffffffffff1673ffffffffffffffffffffffffffffffffffffffff1614159050919050565b5050505050565b5f610aad835f0183610c2160201b60201c565b905092915050565b5050505050565b610ad383636bb56a1460e01b610c8e60201b60201c565b15610b7e578273ffffffffffffffffffffffffffffffffffffffff16636bb56a147f0b084a55ebf70fd3c06fd755269dac2212c4d3f0f4d09079780bfa50c1b2984d5f1b836040518363ffffffff1660e01b8152600401610b35929190611705565b5f604051808303815f875af1158015610b50573d5f5f3e3d5ffd5b505050506040513d5f823e3d601f19601f82011682018060405250810190610b7891906117d1565b50610c1c565b81610c1b575f8373ffffffffffffffffffffffffffffffffffffffff163b14610bde57826040517f4349776d000000000000000000000000000000000000000000000000000000008152600401610bd59190611818565b60405180910390fd5b826040517f03173137000000000000000000000000000000000000000000000000000000008152600401610c129190611818565b60405180910390fd5b5b505050565b5f610c328383610d4760201b60201c565b610c8457825f0182908060018154018082558091505060019003905f5260205f20015f9091909190915055825f0180549050836001015f8481526020019081526020015f208190555060019050610c88565b5f90505b92915050565b5f5f6301ffc9a760e01b83604051602401610ca9919061186b565b604051602081830303815290604052907bffffffffffffffffffffffffffffffffffffffffffffffffffffffff19166020820180517bffffffffffffffffffffffffffffffffffffffffffffffffffffffff838183161783525050505090505f5f5f60205f8551602087018a617530fa92503d91505f519050828015610d30575060208210155b8015610d3b57505f81115b94505050505092915050565b5f5f836001015f8481526020019081526020015f20541415905092915050565b5f604051905090565b5f5ffd5b5f5ffd5b5f5ffd5b5f5ffd5b5f601f19601f8301169050919050565b7f4e487b71000000000000000000000000000000000000000000000000000000005f52604160045260245ffd5b610dc682610d80565b810181811067ffffffffffffffff82111715610de557610de4610d90565b5b80604052505050565b5f610df7610d67565b9050610e038282610dbd565b919050565b5f67ffffffffffffffff821115610e2257610e21610d90565b5b610e2b82610d80565b9050602081019050919050565b8281835e5f83830152505050565b5f610e58610e5384610e08565b610dee565b905082815260208101848484011115610e7457610e73610d7c565b5b610e7f848285610e38565b509392505050565b5f82601f830112610e9b57610e9a610d78565b5b8151610eab848260208601610e46565b91505092915050565b5f819050919050565b610ec681610eb4565b8114610ed0575f5ffd5b50565b5f81519050610ee181610ebd565b92915050565b5f73ffffffffffffffffffffffffffffffffffffffff82169050919050565b5f610f1082610ee7565b9050919050565b610f2081610f06565b8114610f2a575f5ffd5b50565b5f81519050610f3b81610f17565b92915050565b5f5f5f5f5f5f60c08789031215610f5b57610f5a610d70565b5b5f87015167ffffffffffffffff811115610f7857610f77610d74565b5b610f8489828a01610e87565b965050602087015167ffffffffffffffff811115610fa557610fa4610d74565b5b610fb189828a01610e87565b955050604087015167ffffffffffffffff811115610fd257610fd1610d74565b5b610fde89828a01610e87565b9450506060610fef89828a01610ed3565b935050608061100089828a01610ed3565b92505060a061101189828a01610f2d565b9150509295509295509295565b61102781610eb4565b82525050565b5f6020820190506110405f83018461101e565b92915050565b5f81519050919050565b7f4e487b71000000000000000000000000000000000000000000000000000000005f52602260045260245ffd5b5f600282049050600182168061109457607f821691505b6020821081036110a7576110a6611050565b5b50919050565b5f819050815f5260205f209050919050565b5f6020601f8301049050919050565b5f82821b905092915050565b5f600883026111097fffffffffffffffffffffffffffffffffffffffffffffffffffffffffffffffff826110ce565b61111386836110ce565b95508019841693508086168417925050509392505050565b5f819050919050565b5f61114e61114961114484610eb4565b61112b565b610eb4565b9050919050565b5f819050919050565b61116783611134565b61117b61117382611155565b8484546110da565b825550505050565b5f5f905090565b611192611183565b61119d81848461115e565b505050565b5b818110156111c0576111b55f8261118a565b6001810190506111a3565b5050565b601f821115611205576111d6816110ad565b6111df846110bf565b810160208510156111ee578190505b6112026111fa856110bf565b8301826111a2565b50505b505050565b5f82821c905092915050565b5f6112255f198460080261120a565b1980831691505092915050565b5f61123d8383611216565b9150826002028217905092915050565b61125682611046565b67ffffffffffffffff81111561126f5761126e610d90565b5b611279825461107d565b6112848282856111c4565b5f60209050601f8311600181146112b5575f84156112a3578287015190505b6112ad8582611232565b865550611314565b601f1984166112c3866110ad565b5f5b828110156112ea578489015182556001820191506020850194506020810190506112c5565b868310156113075784890151611303601f891682611216565b8355505b6001600288020188555050505b505050505050565b5f82825260208201905092915050565b5f61133682611046565b611340818561131c565b9350611350818560208601610e38565b61135981610d80565b840191505092915050565b5f6020820190508181035f83015261137c818461132c565b905092915050565b5f81519050919050565b5f819050815f5260205f209050919050565b601f8211156113e1576113b28161138e565b6113bb846110bf565b810160208510156113ca578190505b6113de6113d6856110bf565b8301826111a2565b50505b505050565b6113ef82611384565b67ffffffffffffffff81111561140857611407610d90565b5b611412825461107d565b61141d8282856113a0565b5f60209050601f83116001811461144e575f841561143c578287015190505b6114468582611232565b8655506114ad565b601f19841661145c8661138e565b5f5b828110156114835784890151825560018201915060208501945060208101905061145e565b868310156114a0578489015161149c601f891682611216565b8355505b6001600288020188555050505b505050505050565b7f4e487b71000000000000000000000000000000000000000000000000000000005f52602160045260245ffd5b5f82825260208201905092915050565b5f6114fc82611384565b61150681856114e2565b9350611516818560208601610e38565b61151f81610d80565b840191505092915050565b61153381610f06565b82525050565b5f6040820190508181035f83015261155181856114f2565b9050611560602083018461152a565b9392505050565b5f819050919050565b61157981611567565b82525050565b5f6020820190506115925f830184611570565b92915050565b7f4e487b71000000000000000000000000000000000000000000000000000000005f52601160045260245ffd5b5f6115cf82610eb4565b91507fffffffffffffffffffffffffffffffffffffffffffffffffffffffffffffffff820361160157611600611598565b5b600182019050919050565b5f8115159050919050565b6116208161160c565b82525050565b5f6060820190506116395f83018661152a565b6116466020830185611617565b8181036040830152611658818461132c565b9050949350505050565b5f60a0820190506116755f83018861152a565b611682602083018761152a565b61168f604083018661152a565b61169c6060830185611570565b81810360808301526116ae818461132c565b90509695505050505050565b5f819050919050565b6116d46116cf82611567565b6116ba565b82525050565b5f6116e582856116c3565b6020820191506116f582846116c3565b6020820191508190509392505050565b5f6040820190506117185f830185611570565b818103602083015261172a818461132c565b90509392505050565b5f67ffffffffffffffff82111561174d5761174c610d90565b5b61175682610d80565b9050602081019050919050565b5f61177561177084611733565b610dee565b90508281526020810184848401111561179157611790610d7c565b5b61179c848285610e38565b509392505050565b5f82601f8301126117b8576117b7610d78565b5b81516117c8848260208601611763565b91505092915050565b5f602082840312156117e6576117e5610d70565b5b5f82015167ffffffffffffffff81111561180357611802610d74565b5b61180f848285016117a4565b91505092915050565b5f60208201905061182b5f83018461152a565b92915050565b5f7fffffffff0000000000000000000000000000000000000000000000000000000082169050919050565b61186581611831565b82525050565b5f60208201905061187e5f83018461185c565b92915050565b616a79806118915f395ff3fe608060405260043610610207575f3560e01c8063715018a611610117578063979024211161009f578063d6c1407c1161006e578063d6c1407c14610856578063db8c96631461087e578063dedff9c6146108a6578063f1236e41146108e2578063f2fde38b1461090a57610280565b806397902421146107ae578063a3b261f2146107ca578063be9f0e6f14610806578063c1b4c4d11461082e57610280565b80637f23690c116100e65780637f23690c146106f0578063843d667b1461070c57806386a10ddd146107345780638da5cb5b1461075c5780638f81ecfc1461078657610280565b8063715018a61461066057806378495bf8146106765780637e87632c146106a05780637e913b05146106c857610280565b80632a3654a41161019a57806354f6127f1161016957806354f6127f14610542578063625d0be91461057e5780636748cec1146105c05780636963d438146105e857806370a082311461062457610280565b80632a3654a41461047a57806330e075ca146104b657806349a6078d146104de578063511b69521461051a57610280565b80631d26fce6116101d65780631d26fce6146103b05780631f121708146103ec578063217b22701461041657806322060f4c1461045257610280565b806301ffc9a7146102e657806302154b4e1461032257806316e023b31461034a57806318160ddd1461038657610280565b36610280575f340361024e576040517fe5099ee3000000000000000000000000000000000000000000000000000000008152600401610245906142fb565b60405180910390fd5b6040517f61f4944200000000000000000000000000000000000000000000000000000000815260040160405180910390fd5b5f36606060045f36905010156102cf5782826040517fe5099ee30000000000000000000000000000000000000000000000000000000081526004016102c6929190614363565b60405180910390fd5b6102d98383610932565b9050915050805190602001f35b3480156102f1575f5ffd5b5061030c600480360381019061030791906143eb565b610aa8565b6040516103199190614430565b60405180910390f35b34801561032d575f5ffd5b50610348600480360381019061034391906144a3565b610b18565b005b348015610355575f5ffd5b50610370600480360381019061036b9190614501565b610bb3565b60405161037d919061458f565b60405180910390f35b348015610391575f5ffd5b5061039a610bc7565b6040516103a791906145c7565b60405180910390f35b3480156103bb575f5ffd5b506103d660048036038101906103d19190614720565b610bd0565b6040516103e39190614899565b60405180910390f35b3480156103f7575f5ffd5b50610400610cd7565b60405161040d91906148c8565b60405180910390f35b348015610421575f5ffd5b5061043c600480360381019061043791906148e1565b610cfc565b60405161044991906148c8565b60405180910390f35b34801561045d575f5ffd5b506104786004803603810190610473919061490c565b610daa565b005b348015610485575f5ffd5b506104a0600480360381019061049b919061494a565b610fab565b6040516104ad9190614430565b60405180910390f35b3480156104c1575f5ffd5b506104dc60048036038101906104d791906149e1565b610fbe565b005b3480156104e9575f5ffd5b5061050460048036038101906104ff91906148e1565b61116f565b6040516105119190614af5565b60405180910390f35b348015610525575f5ffd5b50610540600480360381019061053b9190614be1565b61119a565b005b34801561054d575f5ffd5b50610568600480360381019061056391906148e1565b6111fb565b604051610575919061458f565b60405180910390f35b348015610589575f5ffd5b506105a4600480360381019061059f91906148e1565b61120d565b6040516105b79796959493929190614d48565b60405180910390f35b3480156105cb575f5ffd5b506105e660048036038101906105e19190614de6565b6112fc565b005b3480156105f3575f5ffd5b5061060e60048036038101906106099190614e79565b61141b565b60405161061b9190614899565b60405180910390f35b34801561062f575f5ffd5b5061064a600480360381019061064591906144a3565b611591565b60405161065791906145c7565b60405180910390f35b34801561066b575f5ffd5b506106746115de565b005b348015610681575f5ffd5b5061068a6115f1565b60405161069791906145c7565b60405180910390f35b3480156106ab575f5ffd5b506106c660048036038101906106c19190615122565b6115fc565b005b3480156106d3575f5ffd5b506106ee60048036038101906106e99190614501565b61170e565b005b61070a60048036038101906107059190615225565b61195f565b005b348015610717575f5ffd5b50610732600480360381019061072d91906152c5565b6119ae565b005b34801561073f575f5ffd5b5061075a600480360381019061075591906153ca565b611c17565b005b348015610767575f5ffd5b50610770611e6d565b60405161077d91906148c8565b60405180910390f35b348015610791575f5ffd5b506107ac60048036038101906107a79190614501565b611e94565b005b6107c860048036038101906107c39190615436565b612178565b005b3480156107d5575f5ffd5b506107f060048036038101906107eb91906144a3565b6121c7565b6040516107fd9190615563565b60405180910390f35b348015610811575f5ffd5b5061082c60048036038101906108279190615583565b612215565b005b348015610839575f5ffd5b50610854600480360381019061084f9190614de6565b612316565b005b348015610861575f5ffd5b5061087c60048036038101906108779190615627565b612477565b005b348015610889575f5ffd5b506108a4600480360381019061089f9190615693565b612541565b005b3480156108b1575f5ffd5b506108cc60048036038101906108c79190615713565b61270e565b6040516108d99190614899565b60405180910390f35b3480156108ed575f5ffd5b506109086004803603810190610903919061575a565b6127c1565b005b348015610915575f5ffd5b50610930600480360381019061092b91906144a3565b6129cc565b005b60605f6109615f357fffffffff0000000000000000000000000000000000000000000000000000000016612a4e565b5090505f73ffffffffffffffffffffffffffffffffffffffff168173ffffffffffffffffffffffffffffffffffffffff16036109f7575f357fffffffff00000000000000000000000000000000000000000000000000000000166040517fbb370b2b0000000000000000000000000000000000000000000000000000000081526004016109ee919061585a565b60405180910390fd5b5f5f8273ffffffffffffffffffffffffffffffffffffffff163487873334604051602001610a289493929190615906565b604051602081830303815290604052604051610a449190615970565b5f6040518083038185875af1925050503d805f8114610a7e576040519150601f19603f3d011682016040523d82523d5f602084013e610a83565b606091505b50915091508115610a9957809350505050610aa2565b80518060208301fd5b92915050565b5f633a27170660e01b7bffffffffffffffffffffffffffffffffffffffffffffffffffffffff1916827bffffffffffffffffffffffffffffffffffffffffffffffffffffffff19161480610b015750610b0082612b04565b5b80610b115750610b1082612b64565b5b9050919050565b60085f9054906101000a900473ffffffffffffffffffffffffffffffffffffffff1673ffffffffffffffffffffffffffffffffffffffff163373ffffffffffffffffffffffffffffffffffffffff1614610ba7576040517f08c379a0000000000000000000000000000000000000000000000000000000008152600401610b9e906159d0565b60405180910390fd5b610bb081612bc8565b50565b6060610bbf8383612c89565b905092915050565b5f600254905090565b60608151835114610c0d576040517f2fa71dfe00000000000000000000000000000000000000000000000000000000815260040160405180910390fd5b825167ffffffffffffffff811115610c2857610c276145e4565b5b604051908082528060200260200182016040528015610c5b57816020015b6060815260200190600190039081610c465790505b5090505f5b8351811015610cd057610ca7848281518110610c7f57610c7e6159ee565b5b6020026020010151848381518110610c9a57610c996159ee565b5b6020026020010151612c89565b828281518110610cba57610cb96159ee565b5b6020026020010181905250806001019050610c60565b5092915050565b60085f9054906101000a900473ffffffffffffffffffffffffffffffffffffffff1681565b5f5f60035f8481526020019081526020015f205f9054906101000a900473ffffffffffffffffffffffffffffffffffffffff1690505f73ffffffffffffffffffffffffffffffffffffffff168173ffffffffffffffffffffffffffffffffffffffff1603610da157826040517fae8f9a36000000000000000000000000000000000000000000000000000000008152600401610d989190615a1b565b60405180910390fd5b80915050919050565b815f610db582610cfc565b90508073ffffffffffffffffffffffffffffffffffffffff163373ffffffffffffffffffffffffffffffffffffffff161480610e235750610df4611e6d565b73ffffffffffffffffffffffffffffffffffffffff163373ffffffffffffffffffffffffffffffffffffffff16145b610e62576040517f08c379a0000000000000000000000000000000000000000000000000000000008152600401610e5990615a7e565b60405180910390fd5b5f73ffffffffffffffffffffffffffffffffffffffff168373ffffffffffffffffffffffffffffffffffffffff1603610ed0576040517f08c379a0000000000000000000000000000000000000000000000000000000008152600401610ec790615ae6565b60405180910390fd5b5f60075f8681526020019081526020015f2090505f816001015f9054906101000a900473ffffffffffffffffffffffffffffffffffffffff169050610f27818688600160405180602001604052805f815250612d53565b84826001015f6101000a81548173ffffffffffffffffffffffffffffffffffffffff021916908373ffffffffffffffffffffffffffffffffffffffff160217905550857f95052a17ab60d45d4e781447505fdd5406d8fee5ba860ae46d7c9eb9cbe039b38287604051610f9b929190615b04565b60405180910390a2505050505050565b5f610fb6838361307f565b905092915050565b825f610fc982610cfc565b90508073ffffffffffffffffffffffffffffffffffffffff163373ffffffffffffffffffffffffffffffffffffffff1614806110375750611008611e6d565b73ffffffffffffffffffffffffffffffffffffffff163373ffffffffffffffffffffffffffffffffffffffff16145b611076576040517f08c379a000000000000000000000000000000000000000000000000000000000815260040161106d90615a7e565b60405180910390fd5b5f60075f8781526020019081526020015f2090505f815f01805461109990615b58565b80601f01602080910402602001604051908101604052809291908181526020018280546110c590615b58565b80156111105780601f106110e757610100808354040283529160200191611110565b820191905f5260205f20905b8154815290600101906020018083116110f357829003601f168201915b505050505090508585835f019182611129929190615d32565b50867fc38a676404f085e54223b29e255ef474a1f7707725d418fcf85fa5808d8155e082888860405161115e93929190615e2b565b60405180910390a250505050505050565b606061117a826130e9565b61119360055f8481526020019081526020015f20613136565b9050919050565b6111a4338461307f565b6111e75782336040517f1294d2a90000000000000000000000000000000000000000000000000000000081526004016111de929190615e62565b60405180910390fd5b6111f48585858585612d53565b5050505050565b606061120682613155565b9050919050565b6007602052805f5260405f205f91509050805f01805461122c90615b58565b80601f016020809104026020016040519081016040528092919081815260200182805461125890615b58565b80156112a35780601f1061127a576101008083540402835291602001916112a3565b820191905f5260205f20905b81548152906001019060200180831161128657829003601f168201915b505050505090806001015f9054906101000a900473ffffffffffffffffffffffffffffffffffffffff1690806002015490806003015490806006015f9054906101000a900460ff16908060070154908060080154905087565b815f61130782610cfc565b90508073ffffffffffffffffffffffffffffffffffffffff163373ffffffffffffffffffffffffffffffffffffffff1614806113755750611346611e6d565b73ffffffffffffffffffffffffffffffffffffffff163373ffffffffffffffffffffffffffffffffffffffff16145b6113b4576040517f08c379a00000000000000000000000000000000000000000000000000000000081526004016113ab90615a7e565b60405180910390fd5b5f60075f8681526020019081526020015f2090505f81600801549050848260080181905550857fb17606867ac4a9b1ab3d64b430d9dc5c3471d63c0ba48b54a95e8471fc517cf0828760405161140b929190615e89565b60405180910390a2505050505050565b60608282905067ffffffffffffffff81111561143a576114396145e4565b5b60405190808252806020026020018201604052801561146d57816020015b60608152602001906001900390816114585790505b5090505f5b8383905081101561158a575f5f3073ffffffffffffffffffffffffffffffffffffffff168686858181106114a9576114a86159ee565b5b90506020028101906114bb9190615ebc565b6040516114c9929190615f1e565b5f60405180830381855af49150503d805f8114611501576040519150601f19603f3d011682016040523d82523d5f602084013e611506565b606091505b50915091508161155e575f8151146115215780518082602001fd5b826040517f234eb81900000000000000000000000000000000000000000000000000000000815260040161155591906145c7565b60405180910390fd5b80848481518110611572576115716159ee565b5b60200260200101819052508260010192505050611472565b5092915050565b5f6115d760045f8473ffffffffffffffffffffffffffffffffffffffff1673ffffffffffffffffffffffffffffffffffffffff1681526020019081526020015f206131f6565b9050919050565b6115e6613209565b6115ef5f612bc8565b565b6006805f0154905081565b5f85519050845181141580611612575083518114155b8061161e575082518114155b8061162a575081518114155b15611661576040517f93a8311900000000000000000000000000000000000000000000000000000000815260040160405180910390fd5b5f5b81811015611705576116fa878281518110611681576116806159ee565b5b602002602001015187838151811061169c5761169b6159ee565b5b60200260200101518784815181106116b7576116b66159ee565b5b60200260200101518785815181106116d2576116d16159ee565b5b60200260200101518786815181106116ed576116ec6159ee565b5b602002602001015161119a565b806001019050611663565b50505050505050565b805f61171982610cfc565b90508073ffffffffffffffffffffffffffffffffffffffff163373ffffffffffffffffffffffffffffffffffffffff1614806117875750611758611e6d565b73ffffffffffffffffffffffffffffffffffffffff163373ffffffffffffffffffffffffffffffffffffffff16145b6117c6576040517f08c379a00000000000000000000000000000000000000000000000000000000081526004016117bd90615a7e565b60405180910390fd5b5f60075f8581526020019081526020015f2090505f5f90505b816005018054905081101561191d5785826005018281548110611805576118046159ee565b5b905f5260205f2090600302015f015403611910575f6001836005018054905061182e9190615f63565b905080821461189b5782600501818154811061184d5761184c6159ee565b5b905f5260205f20906003020183600501838154811061186f5761186e6159ee565b5b905f5260205f2090600302015f820154815f015560018201548160010155600282015481600201559050505b826005018054806118af576118ae615f96565b5b600190038181905f5260205f2090600302015f5f82015f9055600182015f9055600282015f90555050905585877ff1387b2f8963ca7947c75faa29a4c7de0859d44c5f9a658761acbdc5d539976b60405160405180910390a3505050611959565b80806001019150506117df565b506040517f08c379a00000000000000000000000000000000000000000000000000000000081526004016119509061600d565b60405180910390fd5b50505050565b611967613209565b5f34146119a0576040517ff36ba73700000000000000000000000000000000000000000000000000000000815260040160405180910390fd5b6119aa8282613287565b5050565b835f6119b982610cfc565b90508073ffffffffffffffffffffffffffffffffffffffff163373ffffffffffffffffffffffffffffffffffffffff161480611a2757506119f8611e6d565b73ffffffffffffffffffffffffffffffffffffffff163373ffffffffffffffffffffffffffffffffffffffff16145b611a66576040517f08c379a0000000000000000000000000000000000000000000000000000000008152600401611a5d90615a7e565b60405180910390fd5b5f60075f8881526020019081526020015f2090505f611b0f8f8f8080601f0160208091040260200160405190810160405280939291908181526020018383808284375f81840152601f19601f820116905080830192505050505050508e8e8080601f0160208091040260200160405190810160405280939291908181526020018383808284375f81840152601f19601f82011690508083019250505050505050888e8e8e6132f0565b9050816004016040518060400160405280876002811115611b3357611b32614cd5565b5b815260200183815250908060018154018082558091505060019003905f5260205f2090600202015f909190919091505f820151815f015f6101000a81548160ff02191690836002811115611b8a57611b89614cd5565b5b02179055506020820151816001015550508760075f8381526020019081526020015f20600201819055508660075f8381526020019081526020015f206003018190555087817f7e3e632423f80dbc9e266b3a3e447a2cc8ea3f2c9e0a9a7595d73fa97311a37787604051611bfe9190616071565b60405180910390a3505050505050505050505050505050565b5f611c2183610cfc565b90503373ffffffffffffffffffffffffffffffffffffffff168173ffffffffffffffffffffffffffffffffffffffff1614611c97578083336040517f5b271ea2000000000000000000000000000000000000000000000000000000008152600401611c8e9392919061608a565b60405180910390fd5b5f73ffffffffffffffffffffffffffffffffffffffff168473ffffffffffffffffffffffffffffffffffffffff1603611cfc576040517f9577b8b300000000000000000000000000000000000000000000000000000000815260040160405180910390fd5b8373ffffffffffffffffffffffffffffffffffffffff168173ffffffffffffffffffffffffffffffffffffffff1603611d61576040517f89fdad6200000000000000000000000000000000000000000000000000000000815260040160405180910390fd5b5f611d858560055f8781526020019081526020015f2061346390919063ffffffff16565b905080611dcb5784846040517fa7626b68000000000000000000000000000000000000000000000000000000008152600401611dc29291906160bf565b60405180910390fd5b838273ffffffffffffffffffffffffffffffffffffffff168673ffffffffffffffffffffffffffffffffffffffff167f1b1b58aa2ec0cec2228b2d37124556d41f5a1f7b12f089171f896cc23667121586604051611e29919061458f565b60405180910390a45f3385600186604051602001611e4a94939291906160e6565b6040516020818303038152906040529050611e658682613490565b505050505050565b5f5f5f9054906101000a900473ffffffffffffffffffffffffffffffffffffffff16905090565b815f611e9f82610cfc565b90508073ffffffffffffffffffffffffffffffffffffffff163373ffffffffffffffffffffffffffffffffffffffff161480611f0d5750611ede611e6d565b73ffffffffffffffffffffffffffffffffffffffff163373ffffffffffffffffffffffffffffffffffffffff16145b611f4c576040517f08c379a0000000000000000000000000000000000000000000000000000000008152600401611f4390615a7e565b60405180910390fd5b5f60075f8681526020019081526020015f2090505f60075f8681526020019081526020015f20905085816002015414611fba576040517f08c379a0000000000000000000000000000000000000000000000000000000008152600401611fb19061617a565b60405180910390fd5b5f5f90505b82600401805490508110156121365785836004018281548110611fe557611fe46159ee565b5b905f5260205f2090600202016001015403612129575f6001846004018054905061200f9190615f63565b90508082146120a35783600401818154811061202e5761202d6159ee565b5b905f5260205f2090600202018460040183815481106120505761204f6159ee565b5b905f5260205f2090600202015f82015f9054906101000a900460ff16815f015f6101000a81548160ff021916908360028111156120905761208f614cd5565b5b0217905550600182015481600101559050505b836004018054806120b7576120b6615f96565b5b600190038181905f5260205f2090600202015f5f82015f6101000a81549060ff0219169055600182015f9055505090555f5f1b836002018190555087877fd22ef99c12aeaecac27f6067207b23ac6a9ae5f21e97134b39e98320aa04fa5d60405160405180910390a350505050612172565b8080600101915050611fbf565b506040517f08c379a0000000000000000000000000000000000000000000000000000000008152600401612169906161e2565b60405180910390fd5b50505050565b612180613209565b5f34146121b9576040517ff36ba73700000000000000000000000000000000000000000000000000000000815260040160405180910390fd5b6121c382826134c1565b5050565b606061220e60045f8473ffffffffffffffffffffffffffffffffffffffff1673ffffffffffffffffffffffffffffffffffffffff1681526020019081526020015f20613592565b9050919050565b61221d613209565b8151835114158061223057508051825114155b15612267576040517f2fa71dfe00000000000000000000000000000000000000000000000000000000815260040160405180910390fd5b5f8351036122a1576040517f80c9830500000000000000000000000000000000000000000000000000000000815260040160405180910390fd5b5f5b8351811015612310576123058482815181106122c2576122c16159ee565b5b60200260200101518483815181106122dd576122dc6159ee565b5b60200260200101518484815181106122f8576122f76159ee565b5b60200260200101516135b1565b8060010190506122a3565b50505050565b815f61232182610cfc565b90508073ffffffffffffffffffffffffffffffffffffffff163373ffffffffffffffffffffffffffffffffffffffff16148061238f5750612360611e6d565b73ffffffffffffffffffffffffffffffffffffffff163373ffffffffffffffffffffffffffffffffffffffff16145b6123ce576040517f08c379a00000000000000000000000000000000000000000000000000000000081526004016123c590615a7e565b60405180910390fd5b5f8311612410576040517f08c379a00000000000000000000000000000000000000000000000000000000081526004016124079061624a565b60405180910390fd5b5f60075f8681526020019081526020015f2090505f81600701549050848260070181905550857fb4f816d44398b4e75606de9b4cbbeb9312706c946f6dcf9fe95fc6e86c0c9e078287604051612467929190615e89565b60405180910390a2505050505050565b825f61248282610cfc565b90508073ffffffffffffffffffffffffffffffffffffffff163373ffffffffffffffffffffffffffffffffffffffff1614806124f057506124c1611e6d565b73ffffffffffffffffffffffffffffffffffffffff163373ffffffffffffffffffffffffffffffffffffffff16145b61252f576040517f08c379a000000000000000000000000000000000000000000000000000000000815260040161252690615a7e565b60405180910390fd5b61253a8585856135b1565b5050505050565b5f61254b84610cfc565b90508073ffffffffffffffffffffffffffffffffffffffff163373ffffffffffffffffffffffffffffffffffffffff16146125f5573373ffffffffffffffffffffffffffffffffffffffff168573ffffffffffffffffffffffffffffffffffffffff16146125f4573381856040517f760b5acd0000000000000000000000000000000000000000000000000000000081526004016125eb93929190616268565b60405180910390fd5b5b5f73ffffffffffffffffffffffffffffffffffffffff168573ffffffffffffffffffffffffffffffffffffffff160361265a576040517f9577b8b300000000000000000000000000000000000000000000000000000000815260040160405180910390fd5b8473ffffffffffffffffffffffffffffffffffffffff168173ffffffffffffffffffffffffffffffffffffffff16036126bf576040517f89fdad6200000000000000000000000000000000000000000000000000000000815260040160405180910390fd5b6126cc8582868686613636565b8215612707575f81855f856040516020016126ea94939291906160e6565b60405160208183030381529060405290506127058682613490565b505b5050505050565b6060815167ffffffffffffffff81111561272b5761272a6145e4565b5b60405190808252806020026020018201604052801561275e57816020015b60608152602001906001900390816127495790505b5090505f5f90505b82518110156127bb57612792838281518110612785576127846159ee565b5b6020026020010151613155565b8282815181106127a5576127a46159ee565b5b6020026020010181905250806001019050612766565b50919050565b895f6127cc82610cfc565b90508073ffffffffffffffffffffffffffffffffffffffff163373ffffffffffffffffffffffffffffffffffffffff16148061283a575061280b611e6d565b73ffffffffffffffffffffffffffffffffffffffff163373ffffffffffffffffffffffffffffffffffffffff16145b612879576040517f08c379a000000000000000000000000000000000000000000000000000000000815260040161287090615a7e565b60405180910390fd5b5f61290f8c8c8080601f0160208091040260200160405190810160405280939291908181526020018383808284375f81840152601f19601f820116905080830192505050505050508b8b8080601f0160208091040260200160405190810160405280939291908181526020018383808284375f81840152601f19601f820116905080830192505050505050508660018c8c6132f0565b905060075f8281526020019081526020015f20600501604051806060016040528083815260200188815260200187815250908060018154018082558091505060019003905f5260205f2090600302015f909190919091505f820151815f015560208201518160010155604082015181600201555050808d7f0c05d3bc4ebbeaed54c8349610aff68ebb4bde707ff65746ea4d2a8c16c73daf886040516129b591906145c7565b60405180910390a350505050505050505050505050565b6129d4613209565b5f73ffffffffffffffffffffffffffffffffffffffff168173ffffffffffffffffffffffffffffffffffffffff1603612a42576040517f08c379a0000000000000000000000000000000000000000000000000000000008152600401612a399061630d565b60405180910390fd5b612a4b81612bc8565b50565b5f5f5f612a8769cee78b4094da8601109660b01b857bffffffffffffffffffffffffffffffffffffffffffffffffffffffff1916613710565b90505f612a9382613155565b90506014815114158015612aa857505f815114155b15612aea57806040517f42bfe79f000000000000000000000000000000000000000000000000000000008152600401612ae1919061458f565b60405180910390fd5b80612af490616379565b60601c6001935093505050915091565b5f63a918fa6b60e01b7bffffffffffffffffffffffffffffffffffffffffffffffffffffffff1916827bffffffffffffffffffffffffffffffffffffffffffffffffffffffff19161480612b5d5750612b5c8261374e565b5b9050919050565b5f5f612b766301ffc9a760e01b612a4e565b5090505f73ffffffffffffffffffffffffffffffffffffffff168173ffffffffffffffffffffffffffffffffffffffff1603612bb5575f915050612bc3565b612bbf8184613817565b9150505b919050565b5f5f5f9054906101000a900473ffffffffffffffffffffffffffffffffffffffff169050815f5f6101000a81548173ffffffffffffffffffffffffffffffffffffffff021916908373ffffffffffffffffffffffffffffffffffffffff1602179055508173ffffffffffffffffffffffffffffffffffffffff168173ffffffffffffffffffffffffffffffffffffffff167f8be0079c531659141344cd1fd0a4f28419497f9722a3daafe3b4186f6b6457e060405160405180910390a35050565b606060015f8484604051602001612ca19291906163ff565b6040516020818303038152906040528051906020012081526020019081526020015f208054612ccf90615b58565b80601f0160208091040260200160405190810160405280929190818152602001828054612cfb90615b58565b8015612d465780601f10612d1d57610100808354040283529160200191612d46565b820191905f5260205f20905b815481529060010190602001808311612d2957829003601f168201915b5050505050905092915050565b5f612d5d84610cfc565b90508573ffffffffffffffffffffffffffffffffffffffff168173ffffffffffffffffffffffffffffffffffffffff1614612dd3578084876040517f5b271ea2000000000000000000000000000000000000000000000000000000008152600401612dca9392919061608a565b60405180910390fd5b5f73ffffffffffffffffffffffffffffffffffffffff168573ffffffffffffffffffffffffffffffffffffffff1603612e38576040517f24ecef4d00000000000000000000000000000000000000000000000000000000815260040160405180910390fd5b612e4586868686866138d0565b5f612e4f85610cfc565b90508073ffffffffffffffffffffffffffffffffffffffff168273ffffffffffffffffffffffffffffffffffffffff1614612ec5578482826040517f5a9c31d3000000000000000000000000000000000000000000000000000000008152600401612ebc9392919061642a565b60405180910390fd5b612ecf87866138d7565b612f1e8560045f8a73ffffffffffffffffffffffffffffffffffffffff1673ffffffffffffffffffffffffffffffffffffffff1681526020019081526020015f2061394590919063ffffffff16565b50612f6e8560045f8973ffffffffffffffffffffffffffffffffffffffff1673ffffffffffffffffffffffffffffffffffffffff1681526020019081526020015f2061395a90919063ffffffff16565b508560035f8781526020019081526020015f205f6101000a81548173ffffffffffffffffffffffffffffffffffffffff021916908373ffffffffffffffffffffffffffffffffffffffff160217905550848673ffffffffffffffffffffffffffffffffffffffff168873ffffffffffffffffffffffffffffffffffffffff167fb333c813a7426a7a11e2b190cad52c44119421594b47f6f32ace6d8c7207b2bf3388886040516130209392919061645f565b60405180910390a4613035878787878761396f565b5f338888888760405160200161304f95949392919061649b565b604051602081830303815290604052905061306a8882613976565b6130758786836139a7565b5050505050505050565b5f61308982610cfc565b73ffffffffffffffffffffffffffffffffffffffff168373ffffffffffffffffffffffffffffffffffffffff1614806130e157506130e08360055f8581526020019081526020015f20613b0690919063ffffffff16565b5b905092915050565b6130f281613b33565b61313357806040517fae8f9a3600000000000000000000000000000000000000000000000000000000815260040161312a9190615a1b565b60405180910390fd5b50565b60605f613144835f01613b9b565b905060608190508092505050919050565b606060015f8381526020019081526020015f20805461317390615b58565b80601f016020809104026020016040519081016040528092919081815260200182805461319f90615b58565b80156131ea5780601f106131c1576101008083540402835291602001916131ea565b820191905f5260205f20905b8154815290600101906020018083116131cd57829003601f168201915b50505050509050919050565b5f613202825f01613bf4565b9050919050565b613211613c03565b73ffffffffffffffffffffffffffffffffffffffff1661322f611e6d565b73ffffffffffffffffffffffffffffffffffffffff1614613285576040517f08c379a000000000000000000000000000000000000000000000000000000000815260040161327c9061653d565b60405180910390fd5b565b7ff675e9361af1c1664c1868cfa3eb97672d6b1a513aa5b81dec34c9ee330e818d5f1b82036132e2576040517f3664800a00000000000000000000000000000000000000000000000000000000815260040160405180910390fd5b6132ec8282613c0a565b5050565b5f6132fb6006613d76565b6133056006613d8a565b5f1b90506133248582600160405180602001604052805f815250613d96565b5f60075f8381526020019081526020015f20905087815f019081613348919061655b565b5085816001015f6101000a81548173ffffffffffffffffffffffffffffffffffffffff021916908373ffffffffffffffffffffffffffffffffffffffff16021790555084816006015f6101000a81548160ff021916908360028111156133b1576133b0614cd5565b5b02179055508381600701819055508281600801819055506133f3827fc3366955cdc4e5e179365db885cfd44c7a3c473bff1e9fe298c44868ee5c5f0a8a6135b1565b61341e827fb0e4da1959e3b7ca06cbec424e21d53f4f792a982f8136456161e3d4f39c9f4b896135b1565b817feac520cdbd769f46fdda2ce013b4f3fa04074e7813afa644faae946556a45ff8898860405161345092919061662a565b60405180910390a2509695505050505050565b5f613488835f018373ffffffffffffffffffffffffffffffffffffffff165f1b614006565b905092915050565b6134bd827f8a1c15a8799f71b547e08e2bcb2e85257e81b0a07eee2ce6712549eef1f009705f1b8361406d565b5050565b80518251146134fc576040517f3bcc897900000000000000000000000000000000000000000000000000000000815260040160405180910390fd5b5f825103613536576040517f97da5f9500000000000000000000000000000000000000000000000000000000815260040160405180910390fd5b5f5f90505b825181101561358d5761358283828151811061355a576135596159ee565b5b6020026020010151838381518110613575576135746159ee565b5b6020026020010151613287565b80600101905061353b565b505050565b60605f6135a0835f01613b9b565b905060608190508092505050919050565b8060015f85856040516020016135c89291906163ff565b6040516020818303038152906040528051906020012081526020019081526020015f2090816135f791906166b0565b5081837fa6e4251f855f750545fe414f120db91c76b88def14d120969e5bb2d3f05debbb83604051613629919061458f565b60405180910390a3505050565b5f61365a8660055f8781526020019081526020015f2061412790919063ffffffff16565b9050806136a05785846040517f4aa31a8c0000000000000000000000000000000000000000000000000000000081526004016136979291906160bf565b60405180910390fd5b838573ffffffffffffffffffffffffffffffffffffffff168773ffffffffffffffffffffffffffffffffffffffff167fc78cd419d6136f9f1c1c6aec1d3fae098cffaf8bc86314a8f2685e32fe574e3c868660405161370092919061677f565b60405180910390a4505050505050565b5f5f835f60f01b8460405160200161372a93929190616863565b604051602081830303815290604052905080613745906168b3565b91505092915050565b5f63629aa69460e01b7bffffffffffffffffffffffffffffffffffffffffffffffffffffffff1916827bffffffffffffffffffffffffffffffffffffffffffffffffffffffff191614806137a757506137a6826137ae565b5b9050919050565b5f7f01ffc9a7000000000000000000000000000000000000000000000000000000007bffffffffffffffffffffffffffffffffffffffffffffffffffffffff1916827bffffffffffffffffffffffffffffffffffffffffffffffffffffffff1916149050919050565b5f5f6301ffc9a760e01b83604051602401613832919061585a565b604051602081830303815290604052907bffffffffffffffffffffffffffffffffffffffffffffffffffffffff19166020820180517bffffffffffffffffffffffffffffffffffffffffffffffffffffffff838183161783525050505090505f5f5f60205f8551602087018a617530fa92503d91505f5190508280156138b9575060208210155b80156138c457505f81115b94505050505092915050565b5050505050565b5f60055f8381526020019081526020015f2090505f6138f582614154565b90505f5f5b8281101561393d576139155f8561416790919063ffffffff16565b91506139328287875f60405180602001604052805f815250613636565b8060010190506138fa565b505050505050565b5f613952835f018361417e565b905092915050565b5f613967835f0183614006565b905092915050565b5050505050565b6139a3827fb23eae7e6d1564b295b4c3e3be402d9a2f0776c57bdf365903496f6fa481ab005f1b8361406d565b5050565b6139b883636bb56a1460e01b613817565b15613a63578273ffffffffffffffffffffffffffffffffffffffff16636bb56a147f0b084a55ebf70fd3c06fd755269dac2212c4d3f0f4d09079780bfa50c1b2984d5f1b836040518363ffffffff1660e01b8152600401613a1a929190616919565b5f604051808303815f875af1158015613a35573d5f5f3e3d5ffd5b505050506040513d5f823e3d601f19601f82011682018060405250810190613a5d91906169b5565b50613b01565b81613b00575f8373ffffffffffffffffffffffffffffffffffffffff163b14613ac357826040517f4349776d000000000000000000000000000000000000000000000000000000008152600401613aba91906148c8565b60405180910390fd5b826040517f03173137000000000000000000000000000000000000000000000000000000008152600401613af791906148c8565b60405180910390fd5b5b505050565b5f613b2b835f018373ffffffffffffffffffffffffffffffffffffffff165f1b61427a565b905092915050565b5f5f73ffffffffffffffffffffffffffffffffffffffff1660035f8481526020019081526020015f205f9054906101000a900473ffffffffffffffffffffffffffffffffffffffff1673ffffffffffffffffffffffffffffffffffffffff1614159050919050565b6060815f01805480602002602001604051908101604052809291908181526020018280548015613be857602002820191905f5260205f20905b815481526020019060010190808311613bd4575b50505050509050919050565b5f815f01805490509050919050565b5f33905090565b7fdeba1e292f8ba88238e10ab3c7f88bd4be4fac56cad5194b6ecceaf653468af15f1b8203613c65576040517f85c169bd00000000000000000000000000000000000000000000000000000000815260040160405180910390fd5b7f2f0a68ab07768e01943a599e73362a0e17a63a72e94dd2e384d2c1d4db9327565f1b8203613cc0576040517f76755b3800000000000000000000000000000000000000000000000000000000815260040160405180910390fd5b7fe0261fa95db2eb3b5439bd033cda66d56b96f92f243a8228fd87550ed7bdfdb35f1b8203613d1b576040517f4ef6d7fb00000000000000000000000000000000000000000000000000000000815260040160405180910390fd5b8060015f8481526020019081526020015f209081613d3991906166b0565b50817fece574603820d07bc9b91f2a932baadf4628aabcb8afba49776529c14a6104b282604051613d6a919061458f565b60405180910390a25050565b6001815f015f828254019250508190555050565b5f815f01549050919050565b5f73ffffffffffffffffffffffffffffffffffffffff168473ffffffffffffffffffffffffffffffffffffffff1603613dfb576040517f24ecef4d00000000000000000000000000000000000000000000000000000000815260040160405180910390fd5b613e0483613b33565b15613e4657826040517f34c7b511000000000000000000000000000000000000000000000000000000008152600401613e3d9190615a1b565b60405180910390fd5b613e535f858585856138d0565b613e5c83613b33565b15613e9e57826040517f34c7b511000000000000000000000000000000000000000000000000000000008152600401613e959190615a1b565b60405180910390fd5b60025f8154613eac906169fc565b91905081905550613f028360045f8773ffffffffffffffffffffffffffffffffffffffff1673ffffffffffffffffffffffffffffffffffffffff1681526020019081526020015f2061395a90919063ffffffff16565b508360035f8581526020019081526020015f205f6101000a81548173ffffffffffffffffffffffffffffffffffffffff021916908373ffffffffffffffffffffffffffffffffffffffff160217905550828473ffffffffffffffffffffffffffffffffffffffff165f73ffffffffffffffffffffffffffffffffffffffff167fb333c813a7426a7a11e2b190cad52c44119421594b47f6f32ace6d8c7207b2bf338686604051613fb49392919061645f565b60405180910390a4613fc95f8585858561396f565b5f335f868685604051602001613fe395949392919061649b565b6040516020818303038152906040529050613fff8584836139a7565b5050505050565b5f614011838361427a565b61406357825f0182908060018154018082558091505060019003905f5260205f20015f9091909190915055825f0180549050836001015f8481526020019081526020015f208190555060019050614067565b5f90505b92915050565b61409d636bb56a1460e01b8473ffffffffffffffffffffffffffffffffffffffff1661381790919063ffffffff16565b15614122578273ffffffffffffffffffffffffffffffffffffffff16636bb56a1483836040518363ffffffff1660e01b81526004016140dd929190616919565b5f604051808303815f875af11580156140f8573d5f5f3e3d5ffd5b505050506040513d5f823e3d601f19601f8201168201806040525081019061412091906169b5565b505b505050565b5f61414c835f018373ffffffffffffffffffffffffffffffffffffffff165f1b61417e565b905092915050565b5f614160825f01613bf4565b9050919050565b5f614174835f018361429a565b5f1c905092915050565b5f5f836001015f8481526020019081526020015f205490505f811461426f575f6001826141ab9190615f63565b90505f6001865f01805490506141c19190615f63565b9050818114614227575f865f0182815481106141e0576141df6159ee565b5b905f5260205f200154905080875f018481548110614201576142006159ee565b5b905f5260205f20018190555083876001015f8381526020019081526020015f2081905550505b855f0180548061423a57614239615f96565b5b600190038181905f5260205f20015f90559055856001015f8681526020019081526020015f205f905560019350505050614274565b5f9150505b92915050565b5f5f836001015f8481526020019081526020015f20541415905092915050565b5f825f0182815481106142b0576142af6159ee565b5b905f5260205f200154905092915050565b5f82825260208201905092915050565b5f5f82015250565b5f6142e56004836142c1565b91506142f0826142d1565b602082019050919050565b5f6020820190508181035f830152614312816142d9565b9050919050565b828183375f83830152505050565b5f601f19601f8301169050919050565b5f61434283856142c1565b935061434f838584614319565b61435883614327565b840190509392505050565b5f6020820190508181035f83015261437c818486614337565b90509392505050565b5f604051905090565b5f5ffd5b5f5ffd5b5f7fffffffff0000000000000000000000000000000000000000000000000000000082169050919050565b6143ca81614396565b81146143d4575f5ffd5b50565b5f813590506143e5816143c1565b92915050565b5f60208284031215614400576143ff61438e565b5b5f61440d848285016143d7565b91505092915050565b5f8115159050919050565b61442a81614416565b82525050565b5f6020820190506144435f830184614421565b92915050565b5f73ffffffffffffffffffffffffffffffffffffffff82169050919050565b5f61447282614449565b9050919050565b61448281614468565b811461448c575f5ffd5b50565b5f8135905061449d81614479565b92915050565b5f602082840312156144b8576144b761438e565b5b5f6144c58482850161448f565b91505092915050565b5f819050919050565b6144e0816144ce565b81146144ea575f5ffd5b50565b5f813590506144fb816144d7565b92915050565b5f5f604083850312156145175761451661438e565b5b5f614524858286016144ed565b9250506020614535858286016144ed565b9150509250929050565b5f81519050919050565b8281835e5f83830152505050565b5f6145618261453f565b61456b81856142c1565b935061457b818560208601614549565b61458481614327565b840191505092915050565b5f6020820190508181035f8301526145a78184614557565b905092915050565b5f819050919050565b6145c1816145af565b82525050565b5f6020820190506145da5f8301846145b8565b92915050565b5f5ffd5b7f4e487b71000000000000000000000000000000000000000000000000000000005f52604160045260245ffd5b61461a82614327565b810181811067ffffffffffffffff82111715614639576146386145e4565b5b80604052505050565b5f61464b614385565b90506146578282614611565b919050565b5f67ffffffffffffffff821115614676576146756145e4565b5b602082029050602081019050919050565b5f5ffd5b5f61469d6146988461465c565b614642565b905080838252602082019050602084028301858111156146c0576146bf614687565b5b835b818110156146e957806146d588826144ed565b8452602084019350506020810190506146c2565b5050509392505050565b5f82601f830112614707576147066145e0565b5b813561471784826020860161468b565b91505092915050565b5f5f604083850312156147365761473561438e565b5b5f83013567ffffffffffffffff81111561475357614752614392565b5b61475f858286016146f3565b925050602083013567ffffffffffffffff8111156147805761477f614392565b5b61478c858286016146f3565b9150509250929050565b5f81519050919050565b5f82825260208201905092915050565b5f819050602082019050919050565b5f82825260208201905092915050565b5f6147d98261453f565b6147e381856147bf565b93506147f3818560208601614549565b6147fc81614327565b840191505092915050565b5f61481283836147cf565b905092915050565b5f602082019050919050565b5f61483082614796565b61483a81856147a0565b93508360208202850161484c856147b0565b805f5b8581101561488757848403895281516148688582614807565b94506148738361481a565b925060208a0199505060018101905061484f565b50829750879550505050505092915050565b5f6020820190508181035f8301526148b18184614826565b905092915050565b6148c281614468565b82525050565b5f6020820190506148db5f8301846148b9565b92915050565b5f602082840312156148f6576148f561438e565b5b5f614903848285016144ed565b91505092915050565b5f5f604083850312156149225761492161438e565b5b5f61492f858286016144ed565b92505060206149408582860161448f565b9150509250929050565b5f5f604083850312156149605761495f61438e565b5b5f61496d8582860161448f565b925050602061497e858286016144ed565b9150509250929050565b5f5ffd5b5f5f83601f8401126149a1576149a06145e0565b5b8235905067ffffffffffffffff8111156149be576149bd614988565b5b6020830191508360018202830111156149da576149d9614687565b5b9250929050565b5f5f5f604084860312156149f8576149f761438e565b5b5f614a05868287016144ed565b935050602084013567ffffffffffffffff811115614a2657614a25614392565b5b614a328682870161498c565b92509250509250925092565b5f81519050919050565b5f82825260208201905092915050565b5f819050602082019050919050565b614a7081614468565b82525050565b5f614a818383614a67565b60208301905092915050565b5f602082019050919050565b5f614aa382614a3e565b614aad8185614a48565b9350614ab883614a58565b805f5b83811015614ae8578151614acf8882614a76565b9750614ada83614a8d565b925050600181019050614abb565b5085935050505092915050565b5f6020820190508181035f830152614b0d8184614a99565b905092915050565b614b1e81614416565b8114614b28575f5ffd5b50565b5f81359050614b3981614b15565b92915050565b5f5ffd5b5f67ffffffffffffffff821115614b5d57614b5c6145e4565b5b614b6682614327565b9050602081019050919050565b5f614b85614b8084614b43565b614642565b905082815260208101848484011115614ba157614ba0614b3f565b5b614bac848285614319565b509392505050565b5f82601f830112614bc857614bc76145e0565b5b8135614bd8848260208601614b73565b91505092915050565b5f5f5f5f5f60a08688031215614bfa57614bf961438e565b5b5f614c078882890161448f565b9550506020614c188882890161448f565b9450506040614c29888289016144ed565b9350506060614c3a88828901614b2b565b925050608086013567ffffffffffffffff811115614c5b57614c5a614392565b5b614c6788828901614bb4565b9150509295509295909350565b5f81519050919050565b5f82825260208201905092915050565b5f614c9882614c74565b614ca28185614c7e565b9350614cb2818560208601614549565b614cbb81614327565b840191505092915050565b614ccf816144ce565b82525050565b7f4e487b71000000000000000000000000000000000000000000000000000000005f52602160045260245ffd5b60038110614d1357614d12614cd5565b5b50565b5f819050614d2382614d02565b919050565b5f614d3282614d16565b9050919050565b614d4281614d28565b82525050565b5f60e0820190508181035f830152614d60818a614c8e565b9050614d6f60208301896148b9565b614d7c6040830188614cc6565b614d896060830187614cc6565b614d966080830186614d39565b614da360a08301856145b8565b614db060c08301846145b8565b98975050505050505050565b614dc5816145af565b8114614dcf575f5ffd5b50565b5f81359050614de081614dbc565b92915050565b5f5f60408385031215614dfc57614dfb61438e565b5b5f614e09858286016144ed565b9250506020614e1a85828601614dd2565b9150509250929050565b5f5f83601f840112614e3957614e386145e0565b5b8235905067ffffffffffffffff811115614e5657614e55614988565b5b602083019150836020820283011115614e7257614e71614687565b5b9250929050565b5f5f60208385031215614e8f57614e8e61438e565b5b5f83013567ffffffffffffffff811115614eac57614eab614392565b5b614eb885828601614e24565b92509250509250929050565b5f67ffffffffffffffff821115614ede57614edd6145e4565b5b602082029050602081019050919050565b5f614f01614efc84614ec4565b614642565b90508083825260208201905060208402830185811115614f2457614f23614687565b5b835b81811015614f4d5780614f39888261448f565b845260208401935050602081019050614f26565b5050509392505050565b5f82601f830112614f6b57614f6a6145e0565b5b8135614f7b848260208601614eef565b91505092915050565b5f67ffffffffffffffff821115614f9e57614f9d6145e4565b5b602082029050602081019050919050565b5f614fc1614fbc84614f84565b614642565b90508083825260208201905060208402830185811115614fe457614fe3614687565b5b835b8181101561500d5780614ff98882614b2b565b845260208401935050602081019050614fe6565b5050509392505050565b5f82601f83011261502b5761502a6145e0565b5b813561503b848260208601614faf565b91505092915050565b5f67ffffffffffffffff82111561505e5761505d6145e4565b5b602082029050602081019050919050565b5f61508161507c84615044565b614642565b905080838252602082019050602084028301858111156150a4576150a3614687565b5b835b818110156150eb57803567ffffffffffffffff8111156150c9576150c86145e0565b5b8086016150d68982614bb4565b855260208501945050506020810190506150a6565b5050509392505050565b5f82601f830112615109576151086145e0565b5b813561511984826020860161506f565b91505092915050565b5f5f5f5f5f60a0868803121561513b5761513a61438e565b5b5f86013567ffffffffffffffff81111561515857615157614392565b5b61516488828901614f57565b955050602086013567ffffffffffffffff81111561518557615184614392565b5b61519188828901614f57565b945050604086013567ffffffffffffffff8111156151b2576151b1614392565b5b6151be888289016146f3565b935050606086013567ffffffffffffffff8111156151df576151de614392565b5b6151eb88828901615017565b925050608086013567ffffffffffffffff81111561520c5761520b614392565b5b615218888289016150f5565b9150509295509295909350565b5f5f6040838503121561523b5761523a61438e565b5b5f615248858286016144ed565b925050602083013567ffffffffffffffff81111561526957615268614392565b5b61527585828601614bb4565b9150509250929050565b6003811061528b575f5ffd5b50565b5f8135905061529c8161527f565b92915050565b600381106152ae575f5ffd5b50565b5f813590506152bf816152a2565b92915050565b5f5f5f5f5f5f5f5f5f5f5f6101208c8e0312156152e5576152e461438e565b5b5f8c013567ffffffffffffffff81111561530257615301614392565b5b61530e8e828f0161498c565b9b509b505060208c013567ffffffffffffffff81111561533157615330614392565b5b61533d8e828f0161498c565b995099505060406153508e828f0161528e565b97505060606153618e828f01614dd2565b96505060806153728e828f01614dd2565b95505060a06153838e828f016144ed565b94505060c06153948e828f016144ed565b93505060e06153a58e828f0161448f565b9250506101006153b78e828f016152b1565b9150509295989b509295989b9093969950565b5f5f5f606084860312156153e1576153e061438e565b5b5f6153ee8682870161448f565b93505060206153ff868287016144ed565b925050604084013567ffffffffffffffff8111156154205761541f614392565b5b61542c86828701614bb4565b9150509250925092565b5f5f6040838503121561544c5761544b61438e565b5b5f83013567ffffffffffffffff81111561546957615468614392565b5b615475858286016146f3565b925050602083013567ffffffffffffffff81111561549657615495614392565b5b6154a2858286016150f5565b9150509250929050565b5f81519050919050565b5f82825260208201905092915050565b5f819050602082019050919050565b6154de816144ce565b82525050565b5f6154ef83836154d5565b60208301905092915050565b5f602082019050919050565b5f615511826154ac565b61551b81856154b6565b9350615526836154c6565b805f5b8381101561555657815161553d88826154e4565b9750615548836154fb565b925050600181019050615529565b5085935050505092915050565b5f6020820190508181035f83015261557b8184615507565b905092915050565b5f5f5f6060848603121561559a5761559961438e565b5b5f84013567ffffffffffffffff8111156155b7576155b6614392565b5b6155c3868287016146f3565b935050602084013567ffffffffffffffff8111156155e4576155e3614392565b5b6155f0868287016146f3565b925050604084013567ffffffffffffffff81111561561157615610614392565b5b61561d868287016150f5565b9150509250925092565b5f5f5f6060848603121561563e5761563d61438e565b5b5f61564b868287016144ed565b935050602061565c868287016144ed565b925050604084013567ffffffffffffffff81111561567d5761567c614392565b5b61568986828701614bb4565b9150509250925092565b5f5f5f5f608085870312156156ab576156aa61438e565b5b5f6156b88782880161448f565b94505060206156c9878288016144ed565b93505060406156da87828801614b2b565b925050606085013567ffffffffffffffff8111156156fb576156fa614392565b5b61570787828801614bb4565b91505092959194509250565b5f602082840312156157285761572761438e565b5b5f82013567ffffffffffffffff81111561574557615744614392565b5b615751848285016146f3565b91505092915050565b5f5f5f5f5f5f5f5f5f5f6101008b8d0312156157795761577861438e565b5b5f6157868d828e016144ed565b9a505060208b013567ffffffffffffffff8111156157a7576157a6614392565b5b6157b38d828e0161498c565b995099505060408b013567ffffffffffffffff8111156157d6576157d5614392565b5b6157e28d828e0161498c565b975097505060606157f58d828e01614dd2565b95505060806158068d828e01614dd2565b94505060a06158178d828e01614dd2565b93505060c06158288d828e01614dd2565b92505060e06158398d828e0161448f565b9150509295989b9194979a5092959850565b61585481614396565b82525050565b5f60208201905061586d5f83018461584b565b92915050565b5f81905092915050565b5f6158888385615873565b9350615895838584614319565b82840190509392505050565b5f8160601b9050919050565b5f6158b7826158a1565b9050919050565b5f6158c8826158ad565b9050919050565b6158e06158db82614468565b6158be565b82525050565b5f819050919050565b6159006158fb826145af565b6158e6565b82525050565b5f61591282868861587d565b915061591e82856158cf565b60148201915061592e82846158ef565b60208201915081905095945050505050565b5f61594a8261453f565b6159548185615873565b9350615964818560208601614549565b80840191505092915050565b5f61597b8284615940565b915081905092915050565b7f4e6f74207065726d6974000000000000000000000000000000000000000000005f82015250565b5f6159ba600a83614c7e565b91506159c582615986565b602082019050919050565b5f6020820190508181035f8301526159e7816159ae565b9050919050565b7f4e487b71000000000000000000000000000000000000000000000000000000005f52603260045260245ffd5b5f602082019050615a2e5f830184614cc6565b92915050565b7f4e6f7420617574686f72697a65640000000000000000000000000000000000005f82015250565b5f615a68600e83614c7e565b9150615a7382615a34565b602082019050919050565b5f6020820190508181035f830152615a9581615a5c565b9050919050565b7f496e76616c6964206e6577206f776e65720000000000000000000000000000005f82015250565b5f615ad0601183614c7e565b9150615adb82615a9c565b602082019050919050565b5f6020820190508181035f830152615afd81615ac4565b9050919050565b5f604082019050615b175f8301856148b9565b615b2460208301846148b9565b9392505050565b7f4e487b71000000000000000000000000000000000000000000000000000000005f52602260045260245ffd5b5f6002820490506001821680615b6f57607f821691505b602082108103615b8257615b81615b2b565b5b50919050565b5f82905092915050565b5f819050815f5260205f209050919050565b5f6020601f8301049050919050565b5f82821b905092915050565b5f60088302615bee7fffffffffffffffffffffffffffffffffffffffffffffffffffffffffffffffff82615bb3565b615bf88683615bb3565b95508019841693508086168417925050509392505050565b5f819050919050565b5f615c33615c2e615c29846145af565b615c10565b6145af565b9050919050565b5f819050919050565b615c4c83615c19565b615c60615c5882615c3a565b848454615bbf565b825550505050565b5f5f905090565b615c77615c68565b615c82818484615c43565b505050565b5b81811015615ca557615c9a5f82615c6f565b600181019050615c88565b5050565b601f821115615cea57615cbb81615b92565b615cc484615ba4565b81016020851015615cd3578190505b615ce7615cdf85615ba4565b830182615c87565b50505b505050565b5f82821c905092915050565b5f615d0a5f1984600802615cef565b1980831691505092915050565b5f615d228383615cfb565b9150826002028217905092915050565b615d3c8383615b88565b67ffffffffffffffff811115615d5557615d546145e4565b5b615d5f8254615b58565b615d6a828285615ca9565b5f601f831160018114615d97575f8415615d85578287013590505b615d8f8582615d17565b865550615df6565b601f198416615da586615b92565b5f5b82811015615dcc57848901358255600182019150602085019450602081019050615da7565b86831015615de95784890135615de5601f891682615cfb565b8355505b6001600288020188555050505b50505050505050565b5f615e0a8385614c7e565b9350615e17838584614319565b615e2083614327565b840190509392505050565b5f6040820190508181035f830152615e438186614c8e565b90508181036020830152615e58818486615dff565b9050949350505050565b5f604082019050615e755f830185614cc6565b615e8260208301846148b9565b9392505050565b5f604082019050615e9c5f8301856145b8565b615ea960208301846145b8565b9392505050565b5f5ffd5b5f5ffd5b5f5ffd5b5f5f83356001602003843603038112615ed857615ed7615eb0565b5b80840192508235915067ffffffffffffffff821115615efa57615ef9615eb4565b5b602083019250600182023603831315615f1657615f15615eb8565b5b509250929050565b5f615f2a82848661587d565b91508190509392505050565b7f4e487b71000000000000000000000000000000000000000000000000000000005f52601160045260245ffd5b5f615f6d826145af565b9150615f78836145af565b9250828203905081811115615f9057615f8f615f36565b5b92915050565b7f4e487b71000000000000000000000000000000000000000000000000000000005f52603160045260245ffd5b7f53706f757365206e6f7420666f756e64000000000000000000000000000000005f82015250565b5f615ff7601083614c7e565b915061600282615fc3565b602082019050919050565b5f6020820190508181035f83015261602481615feb565b9050919050565b6003811061603c5761603b614cd5565b5b50565b5f81905061604c8261602b565b919050565b5f61605b8261603f565b9050919050565b61606b81616051565b82525050565b5f6020820190506160845f830184616062565b92915050565b5f60608201905061609d5f8301866148b9565b6160aa6020830185614cc6565b6160b760408301846148b9565b949350505050565b5f6040820190506160d25f8301856148b9565b6160df6020830184614cc6565b9392505050565b5f6080820190506160f95f8301876148b9565b6161066020830186614cc6565b6161136040830185614421565b81810360608301526161258184614557565b905095945050505050565b7f4e6f74206368696c64206f66207468697320706572736f6e00000000000000005f82015250565b5f616164601883614c7e565b915061616f82616130565b602082019050919050565b5f6020820190508181035f83015261619181616158565b9050919050565b7f4368696c64206e6f7420666f756e6400000000000000000000000000000000005f82015250565b5f6161cc600f83614c7e565b91506161d782616198565b602082019050919050565b5f6020820190508181035f8301526161f9816161c0565b9050919050565b7f496e76616c69642062697274682074696d657374616d700000000000000000005f82015250565b5f616234601783614c7e565b915061623f82616200565b602082019050919050565b5f6020820190508181035f83015261626181616228565b9050919050565b5f60608201905061627b5f8301866148b9565b61628860208301856148b9565b6162956040830184614cc6565b949350505050565b7f4f776e61626c653a206e6577206f776e657220697320746865207a65726f20615f8201527f6464726573730000000000000000000000000000000000000000000000000000602082015250565b5f6162f7602683614c7e565b91506163028261629d565b604082019050919050565b5f6020820190508181035f830152616324816162eb565b9050919050565b5f819050602082019050919050565b5f7fffffffffffffffffffffffffffffffffffffffff00000000000000000000000082169050919050565b5f616370825161633a565b80915050919050565b5f6163838261453f565b8261638d8461632b565b905061639881616365565b925060148210156163d8576163d37fffffffffffffffffffffffffffffffffffffffff00000000000000000000000083601403600802615bb3565b831692505b5050919050565b5f819050919050565b6163f96163f4826144ce565b6163df565b82525050565b5f61640a82856163e8565b60208201915061641a82846163e8565b6020820191508190509392505050565b5f60608201905061643d5f830186614cc6565b61644a60208301856148b9565b61645760408301846148b9565b949350505050565b5f6060820190506164725f8301866148b9565b61647f6020830185614421565b81810360408301526164918184614557565b9050949350505050565b5f60a0820190506164ae5f8301886148b9565b6164bb60208301876148b9565b6164c860408301866148b9565b6164d56060830185614cc6565b81810360808301526164e78184614557565b90509695505050505050565b7f4f776e61626c653a2063616c6c6572206973206e6f7420746865206f776e65725f82015250565b5f616527602083614c7e565b9150616532826164f3565b602082019050919050565b5f6020820190508181035f8301526165548161651b565b9050919050565b61656482614c74565b67ffffffffffffffff81111561657d5761657c6145e4565b5b6165878254615b58565b616592828285615ca9565b5f60209050601f8311600181146165c3575f84156165b1578287015190505b6165bb8582615d17565b865550616622565b601f1984166165d186615b92565b5f5b828110156165f8578489015182556001820191506020850194506020810190506165d3565b868310156166155784890151616611601f891682615cfb565b8355505b6001600288020188555050505b505050505050565b5f6040820190508181035f8301526166428185614c8e565b905061665160208301846148b9565b9392505050565b5f819050815f5260205f209050919050565b601f8211156166ab5761667c81616658565b61668584615ba4565b81016020851015616694578190505b6166a86166a085615ba4565b830182615c87565b50505b505050565b6166b98261453f565b67ffffffffffffffff8111156166d2576166d16145e4565b5b6166dc8254615b58565b6166e782828561666a565b5f60209050601f831160018114616718575f8415616706578287015190505b6167108582615d17565b865550616777565b601f19841661672686616658565b5f5b8281101561674d57848901518255600182019150602085019450602081019050616728565b8683101561676a5784890151616766601f891682615cfb565b8355505b6001600288020188555050505b505050505050565b5f6040820190506167925f830185614421565b81810360208301526167a48184614557565b90509392505050565b5f7fffffffffffffffffffff0000000000000000000000000000000000000000000082169050919050565b5f819050919050565b6167f26167ed826167ad565b6167d8565b82525050565b5f7fffff00000000000000000000000000000000000000000000000000000000000082169050919050565b5f819050919050565b61683d616838826167f8565b616823565b82525050565b5f819050919050565b61685d6168588261633a565b616843565b82525050565b5f61686e82866167e1565b600a8201915061687e828561682c565b60028201915061688e828461684c565b601482019150819050949350505050565b5f6168aa82516144ce565b80915050919050565b5f6168bd8261453f565b826168c78461632b565b90506168d28161689f565b925060208210156169125761690d7fffffffffffffffffffffffffffffffffffffffffffffffffffffffffffffffff83602003600802615bb3565b831692505b5050919050565b5f60408201905061692c5f830185614cc6565b818103602083015261693e8184614557565b90509392505050565b5f61695961695484614b43565b614642565b90508281526020810184848401111561697557616974614b3f565b5b616980848285614549565b509392505050565b5f82601f83011261699c5761699b6145e0565b5b81516169ac848260208601616947565b91505092915050565b5f602082840312156169ca576169c961438e565b5b5f82015167ffffffffffffffff8111156169e7576169e6614392565b5b6169f384828501616988565b91505092915050565b5f616a06826145af565b91507fffffffffffffffffffffffffffffffffffffffffffffffffffffffffffffffff8203616a3857616a37615f36565b5b60018201905091905056fea2646970667358221220682c6f0159333d03b980724a03322c1a0afeab0d5ccc0317c6e5e377e4f81ec264736f6c634300081f0033a2646970667358221220156d355c70b5b752ce90e079efa56b1c55d034c7e706089d9d62696c9bb8f0fa64736f6c634300081f0033",
			"opcodes": "PUSH1 0x80 PUSH1 0x40 MSTORE CALLVALUE DUP1 ISZERO PUSH1 0xE JUMPI PUSH0 PUSH0 REVERT JUMPDEST POP PUSH2 0x90AB DUP1 PUSH2 0x1C PUSH0 CODECOPY PUSH0 RETURN INVALID PUSH1 0x80 PUSH1 0x40 MSTORE CALLVALUE DUP1 ISZERO PUSH2 0xF JUMPI PUSH0 PUSH0 REVERT JUMPDEST POP PUSH1 0x4 CALLDATASIZE LT PUSH2 0x55 JUMPI PUSH0 CALLDATALOAD PUSH1 0xE0 SHR DUP1 PUSH4 0x1ED406B6 EQ PUSH2 0x59 JUMPI DUP1 PUSH4 0x5A10D060 EQ PUSH2 0x75 JUMPI DUP1 PUSH4 0x64B9BF17 EQ PUSH2 0xA5 JUMPI DUP1 PUSH4 0xA812CE6D EQ PUSH2 0xD5 JUMPI DUP1 PUSH4 0xC6A9FA1F EQ PUSH2 0xF1 JUMPI JUMPDEST PUSH0 PUSH0 REVERT JUMPDEST PUSH2 0x73 PUSH1 0x4 DUP1 CALLDATASIZE SUB DUP2 ADD SWAP1 PUSH2 0x6E SWAP2 SWAP1 PUSH2 0x90B JUMP JUMPDEST PUSH2 0x10D JUMP JUMPDEST STOP JUMPDEST PUSH2 0x8F PUSH1 0x4 DUP1 CALLDATASIZE SUB DUP2 ADD SWAP1 PUSH2 0x8A SWAP2 SWAP1 PUSH2 0x90B JUMP JUMPDEST PUSH2 0x296 JUMP JUMPDEST PUSH1 0x40 MLOAD PUSH2 0x9C SWAP2 SWAP1 PUSH2 0x945 JUMP JUMPDEST PUSH1 0x40 MLOAD DUP1 SWAP2 SUB SWAP1 RETURN JUMPDEST PUSH2 0xBF PUSH1 0x4 DUP1 CALLDATASIZE SUB DUP2 ADD SWAP1 PUSH2 0xBA SWAP2 SWAP1 PUSH2 0x90B JUMP JUMPDEST PUSH2 0x2FA JUMP JUMPDEST PUSH1 0x40 MLOAD PUSH2 0xCC SWAP2 SWAP1 PUSH2 0x945 JUMP JUMPDEST PUSH1 0x40 MLOAD DUP1 SWAP2 SUB SWAP1 RETURN JUMPDEST PUSH2 0xEF PUSH1 0x4 DUP1 CALLDATASIZE SUB DUP2 ADD SWAP1 PUSH2 0xEA SWAP2 SWAP1 PUSH2 0x9F2 JUMP JUMPDEST PUSH2 0x35F JUMP JUMPDEST STOP JUMPDEST PUSH2 0x10B PUSH1 0x4 DUP1 CALLDATASIZE SUB DUP2 ADD SWAP1 PUSH2 0x106 SWAP2 SWAP1 PUSH2 0xAC9 JUMP JUMPDEST PUSH2 0x5C1 JUMP JUMPDEST STOP JUMPDEST DUP1 PUSH20 0xFFFFFFFFFFFFFFFFFFFFFFFFFFFFFFFFFFFFFFFF AND PUSH0 PUSH0 CALLER PUSH20 0xFFFFFFFFFFFFFFFFFFFFFFFFFFFFFFFFFFFFFFFF AND PUSH20 0xFFFFFFFFFFFFFFFFFFFFFFFFFFFFFFFFFFFFFFFF AND DUP2 MSTORE PUSH1 0x20 ADD SWAP1 DUP2 MSTORE PUSH1 0x20 ADD PUSH0 KECCAK256 PUSH0 SWAP1 SLOAD SWAP1 PUSH2 0x100 EXP SWAP1 DIV PUSH20 0xFFFFFFFFFFFFFFFFFFFFFFFFFFFFFFFFFFFFFFFF AND PUSH20 0xFFFFFFFFFFFFFFFFFFFFFFFFFFFFFFFFFFFFFFFF AND EQ PUSH2 0x1D6 JUMPI PUSH1 0x40 MLOAD PUSH32 0x8C379A000000000000000000000000000000000000000000000000000000000 DUP2 MSTORE PUSH1 0x4 ADD PUSH2 0x1CD SWAP1 PUSH2 0xB61 JUMP JUMPDEST PUSH1 0x40 MLOAD DUP1 SWAP2 SUB SWAP1 REVERT JUMPDEST PUSH0 PUSH0 PUSH0 CALLER PUSH20 0xFFFFFFFFFFFFFFFFFFFFFFFFFFFFFFFFFFFFFFFF AND PUSH20 0xFFFFFFFFFFFFFFFFFFFFFFFFFFFFFFFFFFFFFFFF AND DUP2 MSTORE PUSH1 0x20 ADD SWAP1 DUP2 MSTORE PUSH1 0x20 ADD PUSH0 KECCAK256 PUSH0 PUSH2 0x100 EXP DUP2 SLOAD DUP2 PUSH20 0xFFFFFFFFFFFFFFFFFFFFFFFFFFFFFFFFFFFFFFFF MUL NOT AND SWAP1 DUP4 PUSH20 0xFFFFFFFFFFFFFFFFFFFFFFFFFFFFFFFFFFFFFFFF AND MUL OR SWAP1 SSTORE POP DUP1 PUSH20 0xFFFFFFFFFFFFFFFFFFFFFFFFFFFFFFFFFFFFFFFF AND PUSH32 0x106DE2DE224E5B1B7923506FF253BA0C501287D8730AE60B384E9AB22AD9656F PUSH1 0x40 MLOAD PUSH1 0x40 MLOAD DUP1 SWAP2 SUB SWAP1 LOG2 POP JUMP JUMPDEST PUSH0 PUSH0 PUSH0 DUP4 PUSH20 0xFFFFFFFFFFFFFFFFFFFFFFFFFFFFFFFFFFFFFFFF AND PUSH20 0xFFFFFFFFFFFFFFFFFFFFFFFFFFFFFFFFFFFFFFFF AND DUP2 MSTORE PUSH1 0x20 ADD SWAP1 DUP2 MSTORE PUSH1 0x20 ADD PUSH0 KECCAK256 PUSH0 SWAP1 SLOAD SWAP1 PUSH2 0x100 EXP SWAP1 DIV PUSH20 0xFFFFFFFFFFFFFFFFFFFFFFFFFFFFFFFFFFFFFFFF AND SWAP1 POP SWAP2 SWAP1 POP JUMP JUMPDEST PUSH0 PUSH1 0x1 PUSH0 DUP4 PUSH20 0xFFFFFFFFFFFFFFFFFFFFFFFFFFFFFFFFFFFFFFFF AND PUSH20 0xFFFFFFFFFFFFFFFFFFFFFFFFFFFFFFFFFFFFFFFF AND DUP2 MSTORE PUSH1 0x20 ADD SWAP1 DUP2 MSTORE PUSH1 0x20 ADD PUSH0 KECCAK256 PUSH0 SWAP1 SLOAD SWAP1 PUSH2 0x100 EXP SWAP1 DIV PUSH20 0xFFFFFFFFFFFFFFFFFFFFFFFFFFFFFFFFFFFFFFFF AND SWAP1 POP SWAP2 SWAP1 POP JUMP JUMPDEST PUSH0 PUSH20 0xFFFFFFFFFFFFFFFFFFFFFFFFFFFFFFFFFFFFFFFF AND PUSH0 PUSH0 CALLER PUSH20 0xFFFFFFFFFFFFFFFFFFFFFFFFFFFFFFFFFFFFFFFF AND PUSH20 0xFFFFFFFFFFFFFFFFFFFFFFFFFFFFFFFFFFFFFFFF AND DUP2 MSTORE PUSH1 0x20 ADD SWAP1 DUP2 MSTORE PUSH1 0x20 ADD PUSH0 KECCAK256 PUSH0 SWAP1 SLOAD SWAP1 PUSH2 0x100 EXP SWAP1 DIV PUSH20 0xFFFFFFFFFFFFFFFFFFFFFFFFFFFFFFFFFFFFFFFF AND PUSH20 0xFFFFFFFFFFFFFFFFFFFFFFFFFFFFFFFFFFFFFFFF AND EQ PUSH2 0x428 JUMPI PUSH1 0x40 MLOAD PUSH32 0x8C379A000000000000000000000000000000000000000000000000000000000 DUP2 MSTORE PUSH1 0x4 ADD PUSH2 0x41F SWAP1 PUSH2 0xBC9 JUMP JUMPDEST PUSH1 0x40 MLOAD DUP1 SWAP2 SUB SWAP1 REVERT JUMPDEST PUSH0 DUP9 DUP9 DUP9 DUP9 DUP9 DUP9 DUP9 DUP9 CALLER PUSH1 0x40 MLOAD PUSH2 0x43E SWAP1 PUSH2 0x89C JUMP JUMPDEST PUSH2 0x450 SWAP10 SWAP9 SWAP8 SWAP7 SWAP6 SWAP5 SWAP4 SWAP3 SWAP2 SWAP1 PUSH2 0xC40 JUMP JUMPDEST PUSH1 0x40 MLOAD DUP1 SWAP2 SUB SWAP1 PUSH0 CREATE DUP1 ISZERO DUP1 ISZERO PUSH2 0x469 JUMPI RETURNDATASIZE PUSH0 PUSH0 RETURNDATACOPY RETURNDATASIZE PUSH0 REVERT JUMPDEST POP SWAP1 POP PUSH0 DUP2 SWAP1 POP DUP1 PUSH0 PUSH0 CALLER PUSH20 0xFFFFFFFFFFFFFFFFFFFFFFFFFFFFFFFFFFFFFFFF AND PUSH20 0xFFFFFFFFFFFFFFFFFFFFFFFFFFFFFFFFFFFFFFFF AND DUP2 MSTORE PUSH1 0x20 ADD SWAP1 DUP2 MSTORE PUSH1 0x20 ADD PUSH0 KECCAK256 PUSH0 PUSH2 0x100 EXP DUP2 SLOAD DUP2 PUSH20 0xFFFFFFFFFFFFFFFFFFFFFFFFFFFFFFFFFFFFFFFF MUL NOT AND SWAP1 DUP4 PUSH20 0xFFFFFFFFFFFFFFFFFFFFFFFFFFFFFFFFFFFFFFFF AND MUL OR SWAP1 SSTORE POP CALLER PUSH1 0x1 PUSH0 DUP4 PUSH20 0xFFFFFFFFFFFFFFFFFFFFFFFFFFFFFFFFFFFFFFFF AND PUSH20 0xFFFFFFFFFFFFFFFFFFFFFFFFFFFFFFFFFFFFFFFF AND DUP2 MSTORE PUSH1 0x20 ADD SWAP1 DUP2 MSTORE PUSH1 0x20 ADD PUSH0 KECCAK256 PUSH0 PUSH2 0x100 EXP DUP2 SLOAD DUP2 PUSH20 0xFFFFFFFFFFFFFFFFFFFFFFFFFFFFFFFFFFFFFFFF MUL NOT AND SWAP1 DUP4 PUSH20 0xFFFFFFFFFFFFFFFFFFFFFFFFFFFFFFFFFFFFFFFF AND MUL OR SWAP1 SSTORE POP DUP1 PUSH20 0xFFFFFFFFFFFFFFFFFFFFFFFFFFFFFFFFFFFFFFFF AND PUSH32 0xB52C312F64A0DDBD98A47610D8B9E019A287C2297BBDC99339B1CA13EA769539 DUP12 DUP12 PUSH1 0x40 MLOAD PUSH2 0x5AD SWAP3 SWAP2 SWAP1 PUSH2 0xCBA JUMP JUMPDEST PUSH1 0x40 MLOAD DUP1 SWAP2 SUB SWAP1 LOG2 POP POP POP POP POP POP POP POP POP POP JUMP JUMPDEST DUP1 PUSH20 0xFFFFFFFFFFFFFFFFFFFFFFFFFFFFFFFFFFFFFFFF AND PUSH0 PUSH0 CALLER PUSH20 0xFFFFFFFFFFFFFFFFFFFFFFFFFFFFFFFFFFFFFFFF AND PUSH20 0xFFFFFFFFFFFFFFFFFFFFFFFFFFFFFFFFFFFFFFFF AND DUP2 MSTORE PUSH1 0x20 ADD SWAP1 DUP2 MSTORE PUSH1 0x20 ADD PUSH0 KECCAK256 PUSH0 SWAP1 SLOAD SWAP1 PUSH2 0x100 EXP SWAP1 DIV PUSH20 0xFFFFFFFFFFFFFFFFFFFFFFFFFFFFFFFFFFFFFFFF AND PUSH20 0xFFFFFFFFFFFFFFFFFFFFFFFFFFFFFFFFFFFFFFFF AND EQ PUSH2 0x68A JUMPI PUSH1 0x40 MLOAD PUSH32 0x8C379A000000000000000000000000000000000000000000000000000000000 DUP2 MSTORE PUSH1 0x4 ADD PUSH2 0x681 SWAP1 PUSH2 0xD26 JUMP JUMPDEST PUSH1 0x40 MLOAD DUP1 SWAP2 SUB SWAP1 REVERT JUMPDEST DUP1 PUSH0 PUSH0 DUP5 PUSH20 0xFFFFFFFFFFFFFFFFFFFFFFFFFFFFFFFFFFFFFFFF AND PUSH20 0xFFFFFFFFFFFFFFFFFFFFFFFFFFFFFFFFFFFFFFFF AND DUP2 MSTORE PUSH1 0x20 ADD SWAP1 DUP2 MSTORE PUSH1 0x20 ADD PUSH0 KECCAK256 PUSH0 PUSH2 0x100 EXP DUP2 SLOAD DUP2 PUSH20 0xFFFFFFFFFFFFFFFFFFFFFFFFFFFFFFFFFFFFFFFF MUL NOT AND SWAP1 DUP4 PUSH20 0xFFFFFFFFFFFFFFFFFFFFFFFFFFFFFFFFFFFFFFFF AND MUL OR SWAP1 SSTORE POP DUP2 PUSH1 0x1 PUSH0 DUP4 PUSH20 0xFFFFFFFFFFFFFFFFFFFFFFFFFFFFFFFFFFFFFFFF AND PUSH20 0xFFFFFFFFFFFFFFFFFFFFFFFFFFFFFFFFFFFFFFFF AND DUP2 MSTORE PUSH1 0x20 ADD SWAP1 DUP2 MSTORE PUSH1 0x20 ADD PUSH0 KECCAK256 PUSH0 PUSH2 0x100 EXP DUP2 SLOAD DUP2 PUSH20 0xFFFFFFFFFFFFFFFFFFFFFFFFFFFFFFFFFFFFFFFF MUL NOT AND SWAP1 DUP4 PUSH20 0xFFFFFFFFFFFFFFFFFFFFFFFFFFFFFFFFFFFFFFFF AND MUL OR SWAP1 SSTORE POP PUSH0 PUSH0 PUSH0 CALLER PUSH20 0xFFFFFFFFFFFFFFFFFFFFFFFFFFFFFFFFFFFFFFFF AND PUSH20 0xFFFFFFFFFFFFFFFFFFFFFFFFFFFFFFFFFFFFFFFF AND DUP2 MSTORE PUSH1 0x20 ADD SWAP1 DUP2 MSTORE PUSH1 0x20 ADD PUSH0 KECCAK256 PUSH0 PUSH2 0x100 EXP DUP2 SLOAD DUP2 PUSH20 0xFFFFFFFFFFFFFFFFFFFFFFFFFFFFFFFFFFFFFFFF MUL NOT AND SWAP1 DUP4 PUSH20 0xFFFFFFFFFFFFFFFFFFFFFFFFFFFFFFFFFFFFFFFF AND MUL OR SWAP1 SSTORE POP DUP1 PUSH20 0xFFFFFFFFFFFFFFFFFFFFFFFFFFFFFFFFFFFFFFFF AND PUSH4 0x2154B4E DUP4 PUSH1 0x40 MLOAD DUP3 PUSH4 0xFFFFFFFF AND PUSH1 0xE0 SHL DUP2 MSTORE PUSH1 0x4 ADD PUSH2 0x832 SWAP2 SWAP1 PUSH2 0x945 JUMP JUMPDEST PUSH0 PUSH1 0x40 MLOAD DUP1 DUP4 SUB DUP2 PUSH0 DUP8 DUP1 EXTCODESIZE ISZERO DUP1 ISZERO PUSH2 0x849 JUMPI PUSH0 PUSH0 REVERT JUMPDEST POP GAS CALL ISZERO DUP1 ISZERO PUSH2 0x85B JUMPI RETURNDATASIZE PUSH0 PUSH0 RETURNDATACOPY RETURNDATASIZE PUSH0 REVERT JUMPDEST POP POP POP POP PUSH32 0x1FBD754B6C8BCBBCAA42EF62223F951DB6F88428BD87EC8902A5994FD604F7C DUP3 DUP3 PUSH1 0x40 MLOAD PUSH2 0x890 SWAP3 SWAP2 SWAP1 PUSH2 0xD44 JUMP JUMPDEST PUSH1 0x40 MLOAD DUP1 SWAP2 SUB SWAP1 LOG1 POP POP JUMP JUMPDEST PUSH2 0x830A DUP1 PUSH2 0xD6C DUP4 CODECOPY ADD SWAP1 JUMP JUMPDEST PUSH0 PUSH0 REVERT JUMPDEST PUSH0 PUSH0 REVERT JUMPDEST PUSH0 PUSH20 0xFFFFFFFFFFFFFFFFFFFFFFFFFFFFFFFFFFFFFFFF DUP3 AND SWAP1 POP SWAP2 SWAP1 POP JUMP JUMPDEST PUSH0 PUSH2 0x8DA DUP3 PUSH2 0x8B1 JUMP JUMPDEST SWAP1 POP SWAP2 SWAP1 POP JUMP JUMPDEST PUSH2 0x8EA DUP2 PUSH2 0x8D0 JUMP JUMPDEST DUP2 EQ PUSH2 0x8F4 JUMPI PUSH0 PUSH0 REVERT JUMPDEST POP JUMP JUMPDEST PUSH0 DUP2 CALLDATALOAD SWAP1 POP PUSH2 0x905 DUP2 PUSH2 0x8E1 JUMP JUMPDEST SWAP3 SWAP2 POP POP JUMP JUMPDEST PUSH0 PUSH1 0x20 DUP3 DUP5 SUB SLT ISZERO PUSH2 0x920 JUMPI PUSH2 0x91F PUSH2 0x8A9 JUMP JUMPDEST JUMPDEST PUSH0 PUSH2 0x92D DUP5 DUP3 DUP6 ADD PUSH2 0x8F7 JUMP JUMPDEST SWAP2 POP POP SWAP3 SWAP2 POP POP JUMP JUMPDEST PUSH2 0x93F DUP2 PUSH2 0x8D0 JUMP JUMPDEST DUP3 MSTORE POP POP JUMP JUMPDEST PUSH0 PUSH1 0x20 DUP3 ADD SWAP1 POP PUSH2 0x958 PUSH0 DUP4 ADD DUP5 PUSH2 0x936 JUMP JUMPDEST SWAP3 SWAP2 POP POP JUMP JUMPDEST PUSH0 PUSH0 REVERT JUMPDEST PUSH0 PUSH0 REVERT JUMPDEST PUSH0 PUSH0 REVERT JUMPDEST PUSH0 PUSH0 DUP4 PUSH1 0x1F DUP5 ADD SLT PUSH2 0x97F JUMPI PUSH2 0x97E PUSH2 0x95E JUMP JUMPDEST JUMPDEST DUP3 CALLDATALOAD SWAP1 POP PUSH8 0xFFFFFFFFFFFFFFFF DUP2 GT ISZERO PUSH2 0x99C JUMPI PUSH2 0x99B PUSH2 0x962 JUMP JUMPDEST JUMPDEST PUSH1 0x20 DUP4 ADD SWAP2 POP DUP4 PUSH1 0x1 DUP3 MUL DUP4 ADD GT ISZERO PUSH2 0x9B8 JUMPI PUSH2 0x9B7 PUSH2 0x966 JUMP JUMPDEST JUMPDEST SWAP3 POP SWAP3 SWAP1 POP JUMP JUMPDEST PUSH0 DUP2 SWAP1 POP SWAP2 SWAP1 POP JUMP JUMPDEST PUSH2 0x9D1 DUP2 PUSH2 0x9BF JUMP JUMPDEST DUP2 EQ PUSH2 0x9DB JUMPI PUSH0 PUSH0 REVERT JUMPDEST POP JUMP JUMPDEST PUSH0 DUP2 CALLDATALOAD SWAP1 POP PUSH2 0x9EC DUP2 PUSH2 0x9C8 JUMP JUMPDEST SWAP3 SWAP2 POP POP JUMP JUMPDEST PUSH0 PUSH0 PUSH0 PUSH0 PUSH0 PUSH0 PUSH0 PUSH0 PUSH1 0xA0 DUP10 DUP12 SUB SLT ISZERO PUSH2 0xA0E JUMPI PUSH2 0xA0D PUSH2 0x8A9 JUMP JUMPDEST JUMPDEST PUSH0 DUP10 ADD CALLDATALOAD PUSH8 0xFFFFFFFFFFFFFFFF DUP2 GT ISZERO PUSH2 0xA2B JUMPI PUSH2 0xA2A PUSH2 0x8AD JUMP JUMPDEST JUMPDEST PUSH2 0xA37 DUP12 DUP3 DUP13 ADD PUSH2 0x96A JUMP JUMPDEST SWAP9 POP SWAP9 POP POP PUSH1 0x20 DUP10 ADD CALLDATALOAD PUSH8 0xFFFFFFFFFFFFFFFF DUP2 GT ISZERO PUSH2 0xA5A JUMPI PUSH2 0xA59 PUSH2 0x8AD JUMP JUMPDEST JUMPDEST PUSH2 0xA66 DUP12 DUP3 DUP13 ADD PUSH2 0x96A JUMP JUMPDEST SWAP7 POP SWAP7 POP POP PUSH1 0x40 DUP10 ADD CALLDATALOAD PUSH8 0xFFFFFFFFFFFFFFFF DUP2 GT ISZERO PUSH2 0xA89 JUMPI PUSH2 0xA88 PUSH2 0x8AD JUMP JUMPDEST JUMPDEST PUSH2 0xA95 DUP12 DUP3 DUP13 ADD PUSH2 0x96A JUMP JUMPDEST SWAP5 POP SWAP5 POP POP PUSH1 0x60 PUSH2 0xAA8 DUP12 DUP3 DUP13 ADD PUSH2 0x9DE JUMP JUMPDEST SWAP3 POP POP PUSH1 0x80 PUSH2 0xAB9 DUP12 DUP3 DUP13 ADD PUSH2 0x9DE JUMP JUMPDEST SWAP2 POP POP SWAP3 SWAP6 SWAP9 POP SWAP3 SWAP6 SWAP9 SWAP1 SWAP4 SWAP7 POP JUMP JUMPDEST PUSH0 PUSH0 PUSH1 0x40 DUP4 DUP6 SUB SLT ISZERO PUSH2 0xADF JUMPI PUSH2 0xADE PUSH2 0x8A9 JUMP JUMPDEST JUMPDEST PUSH0 PUSH2 0xAEC DUP6 DUP3 DUP7 ADD PUSH2 0x8F7 JUMP JUMPDEST SWAP3 POP POP PUSH1 0x20 PUSH2 0xAFD DUP6 DUP3 DUP7 ADD PUSH2 0x8F7 JUMP JUMPDEST SWAP2 POP POP SWAP3 POP SWAP3 SWAP1 POP JUMP JUMPDEST PUSH0 DUP3 DUP3 MSTORE PUSH1 0x20 DUP3 ADD SWAP1 POP SWAP3 SWAP2 POP POP JUMP JUMPDEST PUSH32 0x4E6F7420746865206F776E657200000000000000000000000000000000000000 PUSH0 DUP3 ADD MSTORE POP JUMP JUMPDEST PUSH0 PUSH2 0xB4B PUSH1 0xD DUP4 PUSH2 0xB07 JUMP JUMPDEST SWAP2 POP PUSH2 0xB56 DUP3 PUSH2 0xB17 JUMP JUMPDEST PUSH1 0x20 DUP3 ADD SWAP1 POP SWAP2 SWAP1 POP JUMP JUMPDEST PUSH0 PUSH1 0x20 DUP3 ADD SWAP1 POP DUP2 DUP2 SUB PUSH0 DUP4 ADD MSTORE PUSH2 0xB78 DUP2 PUSH2 0xB3F JUMP JUMPDEST SWAP1 POP SWAP2 SWAP1 POP JUMP JUMPDEST PUSH32 0x436C616E20657869737465640000000000000000000000000000000000000000 PUSH0 DUP3 ADD MSTORE POP JUMP JUMPDEST PUSH0 PUSH2 0xBB3 PUSH1 0xC DUP4 PUSH2 0xB07 JUMP JUMPDEST SWAP2 POP PUSH2 0xBBE DUP3 PUSH2 0xB7F JUMP JUMPDEST PUSH1 0x20 DUP3 ADD SWAP1 POP SWAP2 SWAP1 POP JUMP JUMPDEST PUSH0 PUSH1 0x20 DUP3 ADD SWAP1 POP DUP2 DUP2 SUB PUSH0 DUP4 ADD MSTORE PUSH2 0xBE0 DUP2 PUSH2 0xBA7 JUMP JUMPDEST SWAP1 POP SWAP2 SWAP1 POP JUMP JUMPDEST DUP3 DUP2 DUP4 CALLDATACOPY PUSH0 DUP4 DUP4 ADD MSTORE POP POP POP JUMP JUMPDEST PUSH0 PUSH1 0x1F NOT PUSH1 0x1F DUP4 ADD AND SWAP1 POP SWAP2 SWAP1 POP JUMP JUMPDEST PUSH0 PUSH2 0xC10 DUP4 DUP6 PUSH2 0xB07 JUMP JUMPDEST SWAP4 POP PUSH2 0xC1D DUP4 DUP6 DUP5 PUSH2 0xBE7 JUMP JUMPDEST PUSH2 0xC26 DUP4 PUSH2 0xBF5 JUMP JUMPDEST DUP5 ADD SWAP1 POP SWAP4 SWAP3 POP POP POP JUMP JUMPDEST PUSH2 0xC3A DUP2 PUSH2 0x9BF JUMP JUMPDEST DUP3 MSTORE POP POP JUMP JUMPDEST PUSH0 PUSH1 0xC0 DUP3 ADD SWAP1 POP DUP2 DUP2 SUB PUSH0 DUP4 ADD MSTORE PUSH2 0xC59 DUP2 DUP12 DUP14 PUSH2 0xC05 JUMP JUMPDEST SWAP1 POP DUP2 DUP2 SUB PUSH1 0x20 DUP4 ADD MSTORE PUSH2 0xC6E DUP2 DUP10 DUP12 PUSH2 0xC05 JUMP JUMPDEST SWAP1 POP DUP2 DUP2 SUB PUSH1 0x40 DUP4 ADD MSTORE PUSH2 0xC83 DUP2 DUP8 DUP10 PUSH2 0xC05 JUMP JUMPDEST SWAP1 POP PUSH2 0xC92 PUSH1 0x60 DUP4 ADD DUP7 PUSH2 0xC31 JUMP JUMPDEST PUSH2 0xC9F PUSH1 0x80 DUP4 ADD DUP6 PUSH2 0xC31 JUMP JUMPDEST PUSH2 0xCAC PUSH1 0xA0 DUP4 ADD DUP5 PUSH2 0x936 JUMP JUMPDEST SWAP11 SWAP10 POP POP POP POP POP POP POP POP POP POP JUMP JUMPDEST PUSH0 PUSH1 0x20 DUP3 ADD SWAP1 POP DUP2 DUP2 SUB PUSH0 DUP4 ADD MSTORE PUSH2 0xCD3 DUP2 DUP5 DUP7 PUSH2 0xC05 JUMP JUMPDEST SWAP1 POP SWAP4 SWAP3 POP POP POP JUMP JUMPDEST PUSH32 0x4F6E6C79206F776E657200000000000000000000000000000000000000000000 PUSH0 DUP3 ADD MSTORE POP JUMP JUMPDEST PUSH0 PUSH2 0xD10 PUSH1 0xA DUP4 PUSH2 0xB07 JUMP JUMPDEST SWAP2 POP PUSH2 0xD1B DUP3 PUSH2 0xCDC JUMP JUMPDEST PUSH1 0x20 DUP3 ADD SWAP1 POP SWAP2 SWAP1 POP JUMP JUMPDEST PUSH0 PUSH1 0x20 DUP3 ADD SWAP1 POP DUP2 DUP2 SUB PUSH0 DUP4 ADD MSTORE PUSH2 0xD3D DUP2 PUSH2 0xD04 JUMP JUMPDEST SWAP1 POP SWAP2 SWAP1 POP JUMP JUMPDEST PUSH0 PUSH1 0x40 DUP3 ADD SWAP1 POP PUSH2 0xD57 PUSH0 DUP4 ADD DUP6 PUSH2 0x936 JUMP JUMPDEST PUSH2 0xD64 PUSH1 0x20 DUP4 ADD DUP5 PUSH2 0x936 JUMP JUMPDEST SWAP4 SWAP3 POP POP POP JUMP INVALID PUSH1 0x80 PUSH1 0x40 MSTORE CALLVALUE DUP1 ISZERO PUSH2 0xF JUMPI PUSH0 PUSH0 REVERT JUMPDEST POP PUSH1 0x40 MLOAD PUSH2 0x830A CODESIZE SUB DUP1 PUSH2 0x830A DUP4 CODECOPY DUP2 DUP2 ADD PUSH1 0x40 MSTORE DUP2 ADD SWAP1 PUSH2 0x31 SWAP2 SWAP1 PUSH2 0xF41 JUMP JUMPDEST DUP6 PUSH1 0x40 MLOAD DUP1 PUSH1 0x40 ADD PUSH1 0x40 MSTORE DUP1 PUSH1 0x6 DUP2 MSTORE PUSH1 0x20 ADD PUSH32 0x46414D494C590000000000000000000000000000000000000000000000000000 DUP2 MSTORE POP DUP3 PUSH1 0x2 PUSH0 DUP5 DUP5 DUP5 DUP5 DUP2 PUSH2 0x8D PUSH2 0x82 PUSH2 0x2D8 PUSH1 0x20 SHL PUSH1 0x20 SHR JUMP JUMPDEST PUSH2 0x2DF PUSH1 0x20 SHL PUSH1 0x20 SHR JUMP JUMPDEST PUSH0 PUSH20 0xFFFFFFFFFFFFFFFFFFFFFFFFFFFFFFFFFFFFFFFF AND DUP2 PUSH20 0xFFFFFFFFFFFFFFFFFFFFFFFFFFFFFFFFFFFFFFFF AND SUB PUSH2 0xF2 JUMPI PUSH1 0x40 MLOAD PUSH32 0x1AD8836C00000000000000000000000000000000000000000000000000000000 DUP2 MSTORE PUSH1 0x4 ADD PUSH1 0x40 MLOAD DUP1 SWAP2 SUB SWAP1 REVERT JUMPDEST PUSH2 0x101 DUP2 PUSH2 0x2DF PUSH1 0x20 SHL PUSH1 0x20 SHR JUMP JUMPDEST POP PUSH2 0x169 PUSH32 0xEAFEC4D89FA9619884B60000A4D96624A38F7AC2D8D9A604ECF07C12C77E480C PUSH0 SHL PUSH1 0x40 MLOAD DUP1 PUSH1 0x40 ADD PUSH1 0x40 MSTORE DUP1 PUSH1 0x4 DUP2 MSTORE PUSH1 0x20 ADD PUSH32 0xA4D9662400000000000000000000000000000000000000000000000000000000 DUP2 MSTORE POP PUSH2 0x3A0 PUSH1 0x20 SHL PUSH1 0x20 SHR JUMP JUMPDEST PUSH2 0x19B PUSH32 0xDEBA1E292F8BA88238E10AB3C7F88BD4BE4FAC56CAD5194B6ECCEAF653468AF1 PUSH0 SHL DUP6 PUSH2 0x3A0 PUSH1 0x20 SHL PUSH1 0x20 SHR JUMP JUMPDEST PUSH2 0x1CD PUSH32 0x2F0A68AB07768E01943A599E73362A0E17A63A72E94DD2E384D2C1D4DB932756 PUSH0 SHL DUP5 PUSH2 0x3A0 PUSH1 0x20 SHL PUSH1 0x20 SHR JUMP JUMPDEST PUSH2 0x21E PUSH32 0xE0261FA95DB2EB3B5439BD033CDA66D56B96F92F243A8228FD87550ED7BDFDB3 PUSH0 SHL DUP3 PUSH1 0x40 MLOAD PUSH1 0x20 ADD PUSH2 0x204 SWAP2 SWAP1 PUSH2 0x102D JUMP JUMPDEST PUSH1 0x40 MLOAD PUSH1 0x20 DUP2 DUP4 SUB SUB DUP2 MSTORE SWAP1 PUSH1 0x40 MSTORE PUSH2 0x3A0 PUSH1 0x20 SHL PUSH1 0x20 SHR JUMP JUMPDEST POP POP POP POP PUSH2 0x273 PUSH32 0xF675E9361AF1C1664C1868CFA3EB97672D6B1A513AA5B81DEC34C9EE330E818D PUSH0 SHL DUP3 PUSH1 0x40 MLOAD PUSH1 0x20 ADD PUSH2 0x259 SWAP2 SWAP1 PUSH2 0x102D JUMP JUMPDEST PUSH1 0x40 MLOAD PUSH1 0x20 DUP2 DUP4 SUB SUB DUP2 MSTORE SWAP1 PUSH1 0x40 MSTORE PUSH2 0x3FB PUSH1 0x20 SHL PUSH1 0x20 SHR JUMP JUMPDEST POP POP POP POP POP CALLER PUSH1 0x8 PUSH0 PUSH2 0x100 EXP DUP2 SLOAD DUP2 PUSH20 0xFFFFFFFFFFFFFFFFFFFFFFFFFFFFFFFFFFFFFFFF MUL NOT AND SWAP1 DUP4 PUSH20 0xFFFFFFFFFFFFFFFFFFFFFFFFFFFFFFFFFFFFFFFF AND MUL OR SWAP1 SSTORE POP PUSH2 0x2CC DUP6 DUP6 DUP4 PUSH0 DUP8 DUP8 PUSH2 0x567 PUSH1 0x20 SHL PUSH1 0x20 SHR JUMP JUMPDEST POP POP POP POP POP POP POP PUSH2 0x1884 JUMP JUMPDEST PUSH0 CALLER SWAP1 POP SWAP1 JUMP JUMPDEST PUSH0 PUSH0 PUSH0 SWAP1 SLOAD SWAP1 PUSH2 0x100 EXP SWAP1 DIV PUSH20 0xFFFFFFFFFFFFFFFFFFFFFFFFFFFFFFFFFFFFFFFF AND SWAP1 POP DUP2 PUSH0 PUSH0 PUSH2 0x100 EXP DUP2 SLOAD DUP2 PUSH20 0xFFFFFFFFFFFFFFFFFFFFFFFFFFFFFFFFFFFFFFFF MUL NOT AND SWAP1 DUP4 PUSH20 0xFFFFFFFFFFFFFFFFFFFFFFFFFFFFFFFFFFFFFFFF AND MUL OR SWAP1 SSTORE POP DUP2 PUSH20 0xFFFFFFFFFFFFFFFFFFFFFFFFFFFFFFFFFFFFFFFF AND DUP2 PUSH20 0xFFFFFFFFFFFFFFFFFFFFFFFFFFFFFFFFFFFFFFFF AND PUSH32 0x8BE0079C531659141344CD1FD0A4F28419497F9722A3DAAFE3B4186F6B6457E0 PUSH1 0x40 MLOAD PUSH1 0x40 MLOAD DUP1 SWAP2 SUB SWAP1 LOG3 POP POP JUMP JUMPDEST DUP1 PUSH1 0x1 PUSH0 DUP5 DUP2 MSTORE PUSH1 0x20 ADD SWAP1 DUP2 MSTORE PUSH1 0x20 ADD PUSH0 KECCAK256 SWAP1 DUP2 PUSH2 0x3BE SWAP2 SWAP1 PUSH2 0x124D JUMP JUMPDEST POP DUP2 PUSH32 0xECE574603820D07BC9B91F2A932BAADF4628AABCB8AFBA49776529C14A6104B2 DUP3 PUSH1 0x40 MLOAD PUSH2 0x3EF SWAP2 SWAP1 PUSH2 0x1364 JUMP JUMPDEST PUSH1 0x40 MLOAD DUP1 SWAP2 SUB SWAP1 LOG2 POP POP JUMP JUMPDEST PUSH32 0xDEBA1E292F8BA88238E10AB3C7F88BD4BE4FAC56CAD5194B6ECCEAF653468AF1 PUSH0 SHL DUP3 SUB PUSH2 0x456 JUMPI PUSH1 0x40 MLOAD PUSH32 0x85C169BD00000000000000000000000000000000000000000000000000000000 DUP2 MSTORE PUSH1 0x4 ADD PUSH1 0x40 MLOAD DUP1 SWAP2 SUB SWAP1 REVERT JUMPDEST PUSH32 0x2F0A68AB07768E01943A599E73362A0E17A63A72E94DD2E384D2C1D4DB932756 PUSH0 SHL DUP3 SUB PUSH2 0x4B1 JUMPI PUSH1 0x40 MLOAD PUSH32 0x76755B3800000000000000000000000000000000000000000000000000000000 DUP2 MSTORE PUSH1 0x4 ADD PUSH1 0x40 MLOAD DUP1 SWAP2 SUB SWAP1 REVERT JUMPDEST PUSH32 0xE0261FA95DB2EB3B5439BD033CDA66D56B96F92F243A8228FD87550ED7BDFDB3 PUSH0 SHL DUP3 SUB PUSH2 0x50C JUMPI PUSH1 0x40 MLOAD PUSH32 0x4EF6D7FB00000000000000000000000000000000000000000000000000000000 DUP2 MSTORE PUSH1 0x4 ADD PUSH1 0x40 MLOAD DUP1 SWAP2 SUB SWAP1 REVERT JUMPDEST DUP1 PUSH1 0x1 PUSH0 DUP5 DUP2 MSTORE PUSH1 0x20 ADD SWAP1 DUP2 MSTORE PUSH1 0x20 ADD PUSH0 KECCAK256 SWAP1 DUP2 PUSH2 0x52A SWAP2 SWAP1 PUSH2 0x124D JUMP JUMPDEST POP DUP2 PUSH32 0xECE574603820D07BC9B91F2A932BAADF4628AABCB8AFBA49776529C14A6104B2 DUP3 PUSH1 0x40 MLOAD PUSH2 0x55B SWAP2 SWAP1 PUSH2 0x1364 JUMP JUMPDEST PUSH1 0x40 MLOAD DUP1 SWAP2 SUB SWAP1 LOG2 POP POP JUMP JUMPDEST PUSH0 PUSH2 0x578 PUSH1 0x6 PUSH2 0x6F8 PUSH1 0x20 SHL PUSH1 0x20 SHR JUMP JUMPDEST PUSH2 0x588 PUSH1 0x6 PUSH2 0x70C PUSH1 0x20 SHL PUSH1 0x20 SHR JUMP JUMPDEST PUSH0 SHL SWAP1 POP PUSH2 0x5AD DUP6 DUP3 PUSH1 0x1 PUSH1 0x40 MLOAD DUP1 PUSH1 0x20 ADD PUSH1 0x40 MSTORE DUP1 PUSH0 DUP2 MSTORE POP PUSH2 0x718 PUSH1 0x20 SHL PUSH1 0x20 SHR JUMP JUMPDEST PUSH0 PUSH1 0x7 PUSH0 DUP4 DUP2 MSTORE PUSH1 0x20 ADD SWAP1 DUP2 MSTORE PUSH1 0x20 ADD PUSH0 KECCAK256 SWAP1 POP DUP8 DUP2 PUSH0 ADD SWAP1 DUP2 PUSH2 0x5D1 SWAP2 SWAP1 PUSH2 0x13E6 JUMP JUMPDEST POP DUP6 DUP2 PUSH1 0x1 ADD PUSH0 PUSH2 0x100 EXP DUP2 SLOAD DUP2 PUSH20 0xFFFFFFFFFFFFFFFFFFFFFFFFFFFFFFFFFFFFFFFF MUL NOT AND SWAP1 DUP4 PUSH20 0xFFFFFFFFFFFFFFFFFFFFFFFFFFFFFFFFFFFFFFFF AND MUL OR SWAP1 SSTORE POP DUP5 DUP2 PUSH1 0x6 ADD PUSH0 PUSH2 0x100 EXP DUP2 SLOAD DUP2 PUSH1 0xFF MUL NOT AND SWAP1 DUP4 PUSH1 0x2 DUP2 GT ISZERO PUSH2 0x63A JUMPI PUSH2 0x639 PUSH2 0x14B5 JUMP JUMPDEST JUMPDEST MUL OR SWAP1 SSTORE POP DUP4 DUP2 PUSH1 0x7 ADD DUP2 SWAP1 SSTORE POP DUP3 DUP2 PUSH1 0x8 ADD DUP2 SWAP1 SSTORE POP PUSH2 0x682 DUP3 PUSH32 0xC3366955CDC4E5E179365DB885CFD44C7A3C473BFF1E9FE298C44868EE5C5F0A DUP11 PUSH2 0x9A6 PUSH1 0x20 SHL PUSH1 0x20 SHR JUMP JUMPDEST PUSH2 0x6B3 DUP3 PUSH32 0xB0E4DA1959E3B7CA06CBEC424E21D53F4F792A982F8136456161E3D4F39C9F4B DUP10 PUSH2 0x9A6 PUSH1 0x20 SHL PUSH1 0x20 SHR JUMP JUMPDEST DUP2 PUSH32 0xEAC520CDBD769F46FDDA2CE013B4F3FA04074E7813AFA644FAAE946556A45FF8 DUP10 DUP9 PUSH1 0x40 MLOAD PUSH2 0x6E5 SWAP3 SWAP2 SWAP1 PUSH2 0x1539 JUMP JUMPDEST PUSH1 0x40 MLOAD DUP1 SWAP2 SUB SWAP1 LOG2 POP SWAP7 SWAP6 POP POP POP POP POP POP JUMP JUMPDEST PUSH1 0x1 DUP2 PUSH0 ADD PUSH0 DUP3 DUP3 SLOAD ADD SWAP3 POP POP DUP2 SWAP1 SSTORE POP POP JUMP JUMPDEST PUSH0 DUP2 PUSH0 ADD SLOAD SWAP1 POP SWAP2 SWAP1 POP JUMP JUMPDEST PUSH0 PUSH20 0xFFFFFFFFFFFFFFFFFFFFFFFFFFFFFFFFFFFFFFFF AND DUP5 PUSH20 0xFFFFFFFFFFFFFFFFFFFFFFFFFFFFFFFFFFFFFFFF AND SUB PUSH2 0x77D JUMPI PUSH1 0x40 MLOAD PUSH32 0x24ECEF4D00000000000000000000000000000000000000000000000000000000 DUP2 MSTORE PUSH1 0x4 ADD PUSH1 0x40 MLOAD DUP1 SWAP2 SUB SWAP1 REVERT JUMPDEST PUSH2 0x78C DUP4 PUSH2 0xA2B PUSH1 0x20 SHL PUSH1 0x20 SHR JUMP JUMPDEST ISZERO PUSH2 0x7CE JUMPI DUP3 PUSH1 0x40 MLOAD PUSH32 0x34C7B51100000000000000000000000000000000000000000000000000000000 DUP2 MSTORE PUSH1 0x4 ADD PUSH2 0x7C5 SWAP2 SWAP1 PUSH2 0x157F JUMP JUMPDEST PUSH1 0x40 MLOAD DUP1 SWAP2 SUB SWAP1 REVERT JUMPDEST PUSH2 0x7E1 PUSH0 DUP6 DUP6 DUP6 DUP6 PUSH2 0xA93 PUSH1 0x20 SHL PUSH1 0x20 SHR JUMP JUMPDEST PUSH2 0x7F0 DUP4 PUSH2 0xA2B PUSH1 0x20 SHL PUSH1 0x20 SHR JUMP JUMPDEST ISZERO PUSH2 0x832 JUMPI DUP3 PUSH1 0x40 MLOAD PUSH32 0x34C7B51100000000000000000000000000000000000000000000000000000000 DUP2 MSTORE PUSH1 0x4 ADD PUSH2 0x829 SWAP2 SWAP1 PUSH2 0x157F JUMP JUMPDEST PUSH1 0x40 MLOAD DUP1 SWAP2 SUB SWAP1 REVERT JUMPDEST PUSH1 0x2 PUSH0 DUP2 SLOAD PUSH2 0x840 SWAP1 PUSH2 0x15C5 JUMP JUMPDEST SWAP2 SWAP1 POP DUP2 SWAP1 SSTORE POP PUSH2 0x896 DUP4 PUSH1 0x4 PUSH0 DUP8 PUSH20 0xFFFFFFFFFFFFFFFFFFFFFFFFFFFFFFFFFFFFFFFF AND PUSH20 0xFFFFFFFFFFFFFFFFFFFFFFFFFFFFFFFFFFFFFFFF AND DUP2 MSTORE PUSH1 0x20 ADD SWAP1 DUP2 MSTORE PUSH1 0x20 ADD PUSH0 KECCAK256 PUSH2 0xA9A PUSH1 0x20 SHL SWAP1 SWAP2 SWAP1 PUSH1 0x20 SHR JUMP JUMPDEST POP DUP4 PUSH1 0x3 PUSH0 DUP6 DUP2 MSTORE PUSH1 0x20 ADD SWAP1 DUP2 MSTORE PUSH1 0x20 ADD PUSH0 KECCAK256 PUSH0 PUSH2 0x100 EXP DUP2 SLOAD DUP2 PUSH20 0xFFFFFFFFFFFFFFFFFFFFFFFFFFFFFFFFFFFFFFFF MUL NOT AND SWAP1 DUP4 PUSH20 0xFFFFFFFFFFFFFFFFFFFFFFFFFFFFFFFFFFFFFFFF AND MUL OR SWAP1 SSTORE POP DUP3 DUP5 PUSH20 0xFFFFFFFFFFFFFFFFFFFFFFFFFFFFFFFFFFFFFFFF AND PUSH0 PUSH20 0xFFFFFFFFFFFFFFFFFFFFFFFFFFFFFFFFFFFFFFFF AND PUSH32 0xB333C813A7426A7A11E2B190CAD52C44119421594B47F6F32ACE6D8C7207B2BF CALLER DUP7 DUP7 PUSH1 0x40 MLOAD PUSH2 0x948 SWAP4 SWAP3 SWAP2 SWAP1 PUSH2 0x1626 JUMP JUMPDEST PUSH1 0x40 MLOAD DUP1 SWAP2 SUB SWAP1 LOG4 PUSH2 0x963 PUSH0 DUP6 DUP6 DUP6 DUP6 PUSH2 0xAB5 PUSH1 0x20 SHL PUSH1 0x20 SHR JUMP JUMPDEST PUSH0 CALLER PUSH0 DUP7 DUP7 DUP6 PUSH1 0x40 MLOAD PUSH1 0x20 ADD PUSH2 0x97D SWAP6 SWAP5 SWAP4 SWAP3 SWAP2 SWAP1 PUSH2 0x1662 JUMP JUMPDEST PUSH1 0x40 MLOAD PUSH1 0x20 DUP2 DUP4 SUB SUB DUP2 MSTORE SWAP1 PUSH1 0x40 MSTORE SWAP1 POP PUSH2 0x99F DUP6 DUP5 DUP4 PUSH2 0xABC PUSH1 0x20 SHL PUSH1 0x20 SHR JUMP JUMPDEST POP POP POP POP POP JUMP JUMPDEST DUP1 PUSH1 0x1 PUSH0 DUP6 DUP6 PUSH1 0x40 MLOAD PUSH1 0x20 ADD PUSH2 0x9BD SWAP3 SWAP2 SWAP1 PUSH2 0x16DA JUMP JUMPDEST PUSH1 0x40 MLOAD PUSH1 0x20 DUP2 DUP4 SUB SUB DUP2 MSTORE SWAP1 PUSH1 0x40 MSTORE DUP1 MLOAD SWAP1 PUSH1 0x20 ADD KECCAK256 DUP2 MSTORE PUSH1 0x20 ADD SWAP1 DUP2 MSTORE PUSH1 0x20 ADD PUSH0 KECCAK256 SWAP1 DUP2 PUSH2 0x9EC SWAP2 SWAP1 PUSH2 0x124D JUMP JUMPDEST POP DUP2 DUP4 PUSH32 0xA6E4251F855F750545FE414F120DB91C76B88DEF14D120969E5BB2D3F05DEBBB DUP4 PUSH1 0x40 MLOAD PUSH2 0xA1E SWAP2 SWAP1 PUSH2 0x1364 JUMP JUMPDEST PUSH1 0x40 MLOAD DUP1 SWAP2 SUB SWAP1 LOG3 POP POP POP JUMP JUMPDEST PUSH0 PUSH0 PUSH20 0xFFFFFFFFFFFFFFFFFFFFFFFFFFFFFFFFFFFFFFFF AND PUSH1 0x3 PUSH0 DUP5 DUP2 MSTORE PUSH1 0x20 ADD SWAP1 DUP2 MSTORE PUSH1 0x20 ADD PUSH0 KECCAK256 PUSH0 SWAP1 SLOAD SWAP1 PUSH2 0x100 EXP SWAP1 DIV PUSH20 0xFFFFFFFFFFFFFFFFFFFFFFFFFFFFFFFFFFFFFFFF AND PUSH20 0xFFFFFFFFFFFFFFFFFFFFFFFFFFFFFFFFFFFFFFFF AND EQ ISZERO SWAP1 POP SWAP2 SWAP1 POP JUMP JUMPDEST POP POP POP POP POP JUMP JUMPDEST PUSH0 PUSH2 0xAAD DUP4 PUSH0 ADD DUP4 PUSH2 0xC21 PUSH1 0x20 SHL PUSH1 0x20 SHR JUMP JUMPDEST SWAP1 POP SWAP3 SWAP2 POP POP JUMP JUMPDEST POP POP POP POP POP JUMP JUMPDEST PUSH2 0xAD3 DUP4 PUSH4 0x6BB56A14 PUSH1 0xE0 SHL PUSH2 0xC8E PUSH1 0x20 SHL PUSH1 0x20 SHR JUMP JUMPDEST ISZERO PUSH2 0xB7E JUMPI DUP3 PUSH20 0xFFFFFFFFFFFFFFFFFFFFFFFFFFFFFFFFFFFFFFFF AND PUSH4 0x6BB56A14 PUSH32 0xB084A55EBF70FD3C06FD755269DAC2212C4D3F0F4D09079780BFA50C1B2984D PUSH0 SHL DUP4 PUSH1 0x40 MLOAD DUP4 PUSH4 0xFFFFFFFF AND PUSH1 0xE0 SHL DUP2 MSTORE PUSH1 0x4 ADD PUSH2 0xB35 SWAP3 SWAP2 SWAP1 PUSH2 0x1705 JUMP JUMPDEST PUSH0 PUSH1 0x40 MLOAD DUP1 DUP4 SUB DUP2 PUSH0 DUP8 GAS CALL ISZERO DUP1 ISZERO PUSH2 0xB50 JUMPI RETURNDATASIZE PUSH0 PUSH0 RETURNDATACOPY RETURNDATASIZE PUSH0 REVERT JUMPDEST POP POP POP POP PUSH1 0x40 MLOAD RETURNDATASIZE PUSH0 DUP3 RETURNDATACOPY RETURNDATASIZE PUSH1 0x1F NOT PUSH1 0x1F DUP3 ADD AND DUP3 ADD DUP1 PUSH1 0x40 MSTORE POP DUP2 ADD SWAP1 PUSH2 0xB78 SWAP2 SWAP1 PUSH2 0x17D1 JUMP JUMPDEST POP PUSH2 0xC1C JUMP JUMPDEST DUP2 PUSH2 0xC1B JUMPI PUSH0 DUP4 PUSH20 0xFFFFFFFFFFFFFFFFFFFFFFFFFFFFFFFFFFFFFFFF AND EXTCODESIZE EQ PUSH2 0xBDE JUMPI DUP3 PUSH1 0x40 MLOAD PUSH32 0x4349776D00000000000000000000000000000000000000000000000000000000 DUP2 MSTORE PUSH1 0x4 ADD PUSH2 0xBD5 SWAP2 SWAP1 PUSH2 0x1818 JUMP JUMPDEST PUSH1 0x40 MLOAD DUP1 SWAP2 SUB SWAP1 REVERT JUMPDEST DUP3 PUSH1 0x40 MLOAD PUSH32 0x317313700000000000000000000000000000000000000000000000000000000 DUP2 MSTORE PUSH1 0x4 ADD PUSH2 0xC12 SWAP2 SWAP1 PUSH2 0x1818 JUMP JUMPDEST PUSH1 0x40 MLOAD DUP1 SWAP2 SUB SWAP1 REVERT JUMPDEST JUMPDEST POP POP POP JUMP JUMPDEST PUSH0 PUSH2 0xC32 DUP4 DUP4 PUSH2 0xD47 PUSH1 0x20 SHL PUSH1 0x20 SHR JUMP JUMPDEST PUSH2 0xC84 JUMPI DUP3 PUSH0 ADD DUP3 SWAP1 DUP1 PUSH1 0x1 DUP2 SLOAD ADD DUP1 DUP3 SSTORE DUP1 SWAP2 POP POP PUSH1 0x1 SWAP1 SUB SWAP1 PUSH0 MSTORE PUSH1 0x20 PUSH0 KECCAK256 ADD PUSH0 SWAP1 SWAP2 SWAP1 SWAP2 SWAP1 SWAP2 POP SSTORE DUP3 PUSH0 ADD DUP1 SLOAD SWAP1 POP DUP4 PUSH1 0x1 ADD PUSH0 DUP5 DUP2 MSTORE PUSH1 0x20 ADD SWAP1 DUP2 MSTORE PUSH1 0x20 ADD PUSH0 KECCAK256 DUP2 SWAP1 SSTORE POP PUSH1 0x1 SWAP1 POP PUSH2 0xC88 JUMP JUMPDEST PUSH0 SWAP1 POP JUMPDEST SWAP3 SWAP2 POP POP JUMP JUMPDEST PUSH0 PUSH0 PUSH4 0x1FFC9A7 PUSH1 0xE0 SHL DUP4 PUSH1 0x40 MLOAD PUSH1 0x24 ADD PUSH2 0xCA9 SWAP2 SWAP1 PUSH2 0x186B JUMP JUMPDEST PUSH1 0x40 MLOAD PUSH1 0x20 DUP2 DUP4 SUB SUB DUP2 MSTORE SWAP1 PUSH1 0x40 MSTORE SWAP1 PUSH28 0xFFFFFFFFFFFFFFFFFFFFFFFFFFFFFFFFFFFFFFFFFFFFFFFFFFFFFFFF NOT AND PUSH1 0x20 DUP3 ADD DUP1 MLOAD PUSH28 0xFFFFFFFFFFFFFFFFFFFFFFFFFFFFFFFFFFFFFFFFFFFFFFFFFFFFFFFF DUP4 DUP2 DUP4 AND OR DUP4 MSTORE POP POP POP POP SWAP1 POP PUSH0 PUSH0 PUSH0 PUSH1 0x20 PUSH0 DUP6 MLOAD PUSH1 0x20 DUP8 ADD DUP11 PUSH2 0x7530 STATICCALL SWAP3 POP RETURNDATASIZE SWAP2 POP PUSH0 MLOAD SWAP1 POP DUP3 DUP1 ISZERO PUSH2 0xD30 JUMPI POP PUSH1 0x20 DUP3 LT ISZERO JUMPDEST DUP1 ISZERO PUSH2 0xD3B JUMPI POP PUSH0 DUP2 GT JUMPDEST SWAP5 POP POP POP POP POP SWAP3 SWAP2 POP POP JUMP JUMPDEST PUSH0 PUSH0 DUP4 PUSH1 0x1 ADD PUSH0 DUP5 DUP2 MSTORE PUSH1 0x20 ADD SWAP1 DUP2 MSTORE PUSH1 0x20 ADD PUSH0 KECCAK256 SLOAD EQ ISZERO SWAP1 POP SWAP3 SWAP2 POP POP JUMP JUMPDEST PUSH0 PUSH1 0x40 MLOAD SWAP1 POP SWAP1 JUMP JUMPDEST PUSH0 PUSH0 REVERT JUMPDEST PUSH0 PUSH0 REVERT JUMPDEST PUSH0 PUSH0 REVERT JUMPDEST PUSH0 PUSH0 REVERT JUMPDEST PUSH0 PUSH1 0x1F NOT PUSH1 0x1F DUP4 ADD AND SWAP1 POP SWAP2 SWAP1 POP JUMP JUMPDEST PUSH32 0x4E487B7100000000000000000000000000000000000000000000000000000000 PUSH0 MSTORE PUSH1 0x41 PUSH1 0x4 MSTORE PUSH1 0x24 PUSH0 REVERT JUMPDEST PUSH2 0xDC6 DUP3 PUSH2 0xD80 JUMP JUMPDEST DUP2 ADD DUP2 DUP2 LT PUSH8 0xFFFFFFFFFFFFFFFF DUP3 GT OR ISZERO PUSH2 0xDE5 JUMPI PUSH2 0xDE4 PUSH2 0xD90 JUMP JUMPDEST JUMPDEST DUP1 PUSH1 0x40 MSTORE POP POP POP JUMP JUMPDEST PUSH0 PUSH2 0xDF7 PUSH2 0xD67 JUMP JUMPDEST SWAP1 POP PUSH2 0xE03 DUP3 DUP3 PUSH2 0xDBD JUMP JUMPDEST SWAP2 SWAP1 POP JUMP JUMPDEST PUSH0 PUSH8 0xFFFFFFFFFFFFFFFF DUP3 GT ISZERO PUSH2 0xE22 JUMPI PUSH2 0xE21 PUSH2 0xD90 JUMP JUMPDEST JUMPDEST PUSH2 0xE2B DUP3 PUSH2 0xD80 JUMP JUMPDEST SWAP1 POP PUSH1 0x20 DUP2 ADD SWAP1 POP SWAP2 SWAP1 POP JUMP JUMPDEST DUP3 DUP2 DUP4 MCOPY PUSH0 DUP4 DUP4 ADD MSTORE POP POP POP JUMP JUMPDEST PUSH0 PUSH2 0xE58 PUSH2 0xE53 DUP5 PUSH2 0xE08 JUMP JUMPDEST PUSH2 0xDEE JUMP JUMPDEST SWAP1 POP DUP3 DUP2 MSTORE PUSH1 0x20 DUP2 ADD DUP5 DUP5 DUP5 ADD GT ISZERO PUSH2 0xE74 JUMPI PUSH2 0xE73 PUSH2 0xD7C JUMP JUMPDEST JUMPDEST PUSH2 0xE7F DUP5 DUP3 DUP6 PUSH2 0xE38 JUMP JUMPDEST POP SWAP4 SWAP3 POP POP POP JUMP JUMPDEST PUSH0 DUP3 PUSH1 0x1F DUP4 ADD SLT PUSH2 0xE9B JUMPI PUSH2 0xE9A PUSH2 0xD78 JUMP JUMPDEST JUMPDEST DUP2 MLOAD PUSH2 0xEAB DUP5 DUP3 PUSH1 0x20 DUP7 ADD PUSH2 0xE46 JUMP JUMPDEST SWAP2 POP POP SWAP3 SWAP2 POP POP JUMP JUMPDEST PUSH0 DUP2 SWAP1 POP SWAP2 SWAP1 POP JUMP JUMPDEST PUSH2 0xEC6 DUP2 PUSH2 0xEB4 JUMP JUMPDEST DUP2 EQ PUSH2 0xED0 JUMPI PUSH0 PUSH0 REVERT JUMPDEST POP JUMP JUMPDEST PUSH0 DUP2 MLOAD SWAP1 POP PUSH2 0xEE1 DUP2 PUSH2 0xEBD JUMP JUMPDEST SWAP3 SWAP2 POP POP JUMP JUMPDEST PUSH0 PUSH20 0xFFFFFFFFFFFFFFFFFFFFFFFFFFFFFFFFFFFFFFFF DUP3 AND SWAP1 POP SWAP2 SWAP1 POP JUMP JUMPDEST PUSH0 PUSH2 0xF10 DUP3 PUSH2 0xEE7 JUMP JUMPDEST SWAP1 POP SWAP2 SWAP1 POP JUMP JUMPDEST PUSH2 0xF20 DUP2 PUSH2 0xF06 JUMP JUMPDEST DUP2 EQ PUSH2 0xF2A JUMPI PUSH0 PUSH0 REVERT JUMPDEST POP JUMP JUMPDEST PUSH0 DUP2 MLOAD SWAP1 POP PUSH2 0xF3B DUP2 PUSH2 0xF17 JUMP JUMPDEST SWAP3 SWAP2 POP POP JUMP JUMPDEST PUSH0 PUSH0 PUSH0 PUSH0 PUSH0 PUSH0 PUSH1 0xC0 DUP8 DUP10 SUB SLT ISZERO PUSH2 0xF5B JUMPI PUSH2 0xF5A PUSH2 0xD70 JUMP JUMPDEST JUMPDEST PUSH0 DUP8 ADD MLOAD PUSH8 0xFFFFFFFFFFFFFFFF DUP2 GT ISZERO PUSH2 0xF78 JUMPI PUSH2 0xF77 PUSH2 0xD74 JUMP JUMPDEST JUMPDEST PUSH2 0xF84 DUP10 DUP3 DUP11 ADD PUSH2 0xE87 JUMP JUMPDEST SWAP7 POP POP PUSH1 0x20 DUP8 ADD MLOAD PUSH8 0xFFFFFFFFFFFFFFFF DUP2 GT ISZERO PUSH2 0xFA5 JUMPI PUSH2 0xFA4 PUSH2 0xD74 JUMP JUMPDEST JUMPDEST PUSH2 0xFB1 DUP10 DUP3 DUP11 ADD PUSH2 0xE87 JUMP JUMPDEST SWAP6 POP POP PUSH1 0x40 DUP8 ADD MLOAD PUSH8 0xFFFFFFFFFFFFFFFF DUP2 GT ISZERO PUSH2 0xFD2 JUMPI PUSH2 0xFD1 PUSH2 0xD74 JUMP JUMPDEST JUMPDEST PUSH2 0xFDE DUP10 DUP3 DUP11 ADD PUSH2 0xE87 JUMP JUMPDEST SWAP5 POP POP PUSH1 0x60 PUSH2 0xFEF DUP10 DUP3 DUP11 ADD PUSH2 0xED3 JUMP JUMPDEST SWAP4 POP POP PUSH1 0x80 PUSH2 0x1000 DUP10 DUP3 DUP11 ADD PUSH2 0xED3 JUMP JUMPDEST SWAP3 POP POP PUSH1 0xA0 PUSH2 0x1011 DUP10 DUP3 DUP11 ADD PUSH2 0xF2D JUMP JUMPDEST SWAP2 POP POP SWAP3 SWAP6 POP SWAP3 SWAP6 POP SWAP3 SWAP6 JUMP JUMPDEST PUSH2 0x1027 DUP2 PUSH2 0xEB4 JUMP JUMPDEST DUP3 MSTORE POP POP JUMP JUMPDEST PUSH0 PUSH1 0x20 DUP3 ADD SWAP1 POP PUSH2 0x1040 PUSH0 DUP4 ADD DUP5 PUSH2 0x101E JUMP JUMPDEST SWAP3 SWAP2 POP POP JUMP JUMPDEST PUSH0 DUP2 MLOAD SWAP1 POP SWAP2 SWAP1 POP JUMP JUMPDEST PUSH32 0x4E487B7100000000000000000000000000000000000000000000000000000000 PUSH0 MSTORE PUSH1 0x22 PUSH1 0x4 MSTORE PUSH1 0x24 PUSH0 REVERT JUMPDEST PUSH0 PUSH1 0x2 DUP3 DIV SWAP1 POP PUSH1 0x1 DUP3 AND DUP1 PUSH2 0x1094 JUMPI PUSH1 0x7F DUP3 AND SWAP2 POP JUMPDEST PUSH1 0x20 DUP3 LT DUP2 SUB PUSH2 0x10A7 JUMPI PUSH2 0x10A6 PUSH2 0x1050 JUMP JUMPDEST JUMPDEST POP SWAP2 SWAP1 POP JUMP JUMPDEST PUSH0 DUP2 SWAP1 POP DUP2 PUSH0 MSTORE PUSH1 0x20 PUSH0 KECCAK256 SWAP1 POP SWAP2 SWAP1 POP JUMP JUMPDEST PUSH0 PUSH1 0x20 PUSH1 0x1F DUP4 ADD DIV SWAP1 POP SWAP2 SWAP1 POP JUMP JUMPDEST PUSH0 DUP3 DUP3 SHL SWAP1 POP SWAP3 SWAP2 POP POP JUMP JUMPDEST PUSH0 PUSH1 0x8 DUP4 MUL PUSH2 0x1109 PUSH32 0xFFFFFFFFFFFFFFFFFFFFFFFFFFFFFFFFFFFFFFFFFFFFFFFFFFFFFFFFFFFFFFFF DUP3 PUSH2 0x10CE JUMP JUMPDEST PUSH2 0x1113 DUP7 DUP4 PUSH2 0x10CE JUMP JUMPDEST SWAP6 POP DUP1 NOT DUP5 AND SWAP4 POP DUP1 DUP7 AND DUP5 OR SWAP3 POP POP POP SWAP4 SWAP3 POP POP POP JUMP JUMPDEST PUSH0 DUP2 SWAP1 POP SWAP2 SWAP1 POP JUMP JUMPDEST PUSH0 PUSH2 0x114E PUSH2 0x1149 PUSH2 0x1144 DUP5 PUSH2 0xEB4 JUMP JUMPDEST PUSH2 0x112B JUMP JUMPDEST PUSH2 0xEB4 JUMP JUMPDEST SWAP1 POP SWAP2 SWAP1 POP JUMP JUMPDEST PUSH0 DUP2 SWAP1 POP SWAP2 SWAP1 POP JUMP JUMPDEST PUSH2 0x1167 DUP4 PUSH2 0x1134 JUMP JUMPDEST PUSH2 0x117B PUSH2 0x1173 DUP3 PUSH2 0x1155 JUMP JUMPDEST DUP5 DUP5 SLOAD PUSH2 0x10DA JUMP JUMPDEST DUP3 SSTORE POP POP POP POP JUMP JUMPDEST PUSH0 PUSH0 SWAP1 POP SWAP1 JUMP JUMPDEST PUSH2 0x1192 PUSH2 0x1183 JUMP JUMPDEST PUSH2 0x119D DUP2 DUP5 DUP5 PUSH2 0x115E JUMP JUMPDEST POP POP POP JUMP JUMPDEST JUMPDEST DUP2 DUP2 LT ISZERO PUSH2 0x11C0 JUMPI PUSH2 0x11B5 PUSH0 DUP3 PUSH2 0x118A JUMP JUMPDEST PUSH1 0x1 DUP2 ADD SWAP1 POP PUSH2 0x11A3 JUMP JUMPDEST POP POP JUMP JUMPDEST PUSH1 0x1F DUP3 GT ISZERO PUSH2 0x1205 JUMPI PUSH2 0x11D6 DUP2 PUSH2 0x10AD JUMP JUMPDEST PUSH2 0x11DF DUP5 PUSH2 0x10BF JUMP JUMPDEST DUP2 ADD PUSH1 0x20 DUP6 LT ISZERO PUSH2 0x11EE JUMPI DUP2 SWAP1 POP JUMPDEST PUSH2 0x1202 PUSH2 0x11FA DUP6 PUSH2 0x10BF JUMP JUMPDEST DUP4 ADD DUP3 PUSH2 0x11A2 JUMP JUMPDEST POP POP JUMPDEST POP POP POP JUMP JUMPDEST PUSH0 DUP3 DUP3 SHR SWAP1 POP SWAP3 SWAP2 POP POP JUMP JUMPDEST PUSH0 PUSH2 0x1225 PUSH0 NOT DUP5 PUSH1 0x8 MUL PUSH2 0x120A JUMP JUMPDEST NOT DUP1 DUP4 AND SWAP2 POP POP SWAP3 SWAP2 POP POP JUMP JUMPDEST PUSH0 PUSH2 0x123D DUP4 DUP4 PUSH2 0x1216 JUMP JUMPDEST SWAP2 POP DUP3 PUSH1 0x2 MUL DUP3 OR SWAP1 POP SWAP3 SWAP2 POP POP JUMP JUMPDEST PUSH2 0x1256 DUP3 PUSH2 0x1046 JUMP JUMPDEST PUSH8 0xFFFFFFFFFFFFFFFF DUP2 GT ISZERO PUSH2 0x126F JUMPI PUSH2 0x126E PUSH2 0xD90 JUMP JUMPDEST JUMPDEST PUSH2 0x1279 DUP3 SLOAD PUSH2 0x107D JUMP JUMPDEST PUSH2 0x1284 DUP3 DUP3 DUP6 PUSH2 0x11C4 JUMP JUMPDEST PUSH0 PUSH1 0x20 SWAP1 POP PUSH1 0x1F DUP4 GT PUSH1 0x1 DUP2 EQ PUSH2 0x12B5 JUMPI PUSH0 DUP5 ISZERO PUSH2 0x12A3 JUMPI DUP3 DUP8 ADD MLOAD SWAP1 POP JUMPDEST PUSH2 0x12AD DUP6 DUP3 PUSH2 0x1232 JUMP JUMPDEST DUP7 SSTORE POP PUSH2 0x1314 JUMP JUMPDEST PUSH1 0x1F NOT DUP5 AND PUSH2 0x12C3 DUP7 PUSH2 0x10AD JUMP JUMPDEST PUSH0 JUMPDEST DUP3 DUP2 LT ISZERO PUSH2 0x12EA JUMPI DUP5 DUP10 ADD MLOAD DUP3 SSTORE PUSH1 0x1 DUP3 ADD SWAP2 POP PUSH1 0x20 DUP6 ADD SWAP5 POP PUSH1 0x20 DUP2 ADD SWAP1 POP PUSH2 0x12C5 JUMP JUMPDEST DUP7 DUP4 LT ISZERO PUSH2 0x1307 JUMPI DUP5 DUP10 ADD MLOAD PUSH2 0x1303 PUSH1 0x1F DUP10 AND DUP3 PUSH2 0x1216 JUMP JUMPDEST DUP4 SSTORE POP JUMPDEST PUSH1 0x1 PUSH1 0x2 DUP9 MUL ADD DUP9 SSTORE POP POP POP JUMPDEST POP POP POP POP POP POP JUMP JUMPDEST PUSH0 DUP3 DUP3 MSTORE PUSH1 0x20 DUP3 ADD SWAP1 POP SWAP3 SWAP2 POP POP JUMP JUMPDEST PUSH0 PUSH2 0x1336 DUP3 PUSH2 0x1046 JUMP JUMPDEST PUSH2 0x1340 DUP2 DUP6 PUSH2 0x131C JUMP JUMPDEST SWAP4 POP PUSH2 0x1350 DUP2 DUP6 PUSH1 0x20 DUP7 ADD PUSH2 0xE38 JUMP JUMPDEST PUSH2 0x1359 DUP2 PUSH2 0xD80 JUMP JUMPDEST DUP5 ADD SWAP2 POP POP SWAP3 SWAP2 POP POP JUMP JUMPDEST PUSH0 PUSH1 0x20 DUP3 ADD SWAP1 POP DUP2 DUP2 SUB PUSH0 DUP4 ADD MSTORE PUSH2 0x137C DUP2 DUP5 PUSH2 0x132C JUMP JUMPDEST SWAP1 POP SWAP3 SWAP2 POP POP JUMP JUMPDEST PUSH0 DUP2 MLOAD SWAP1 POP SWAP2 SWAP1 POP JUMP JUMPDEST PUSH0 DUP2 SWAP1 POP DUP2 PUSH0 MSTORE PUSH1 0x20 PUSH0 KECCAK256 SWAP1 POP SWAP2 SWAP1 POP JUMP JUMPDEST PUSH1 0x1F DUP3 GT ISZERO PUSH2 0x13E1 JUMPI PUSH2 0x13B2 DUP2 PUSH2 0x138E JUMP JUMPDEST PUSH2 0x13BB DUP5 PUSH2 0x10BF JUMP JUMPDEST DUP2 ADD PUSH1 0x20 DUP6 LT ISZERO PUSH2 0x13CA JUMPI DUP2 SWAP1 POP JUMPDEST PUSH2 0x13DE PUSH2 0x13D6 DUP6 PUSH2 0x10BF JUMP JUMPDEST DUP4 ADD DUP3 PUSH2 0x11A2 JUMP JUMPDEST POP POP JUMPDEST POP POP POP JUMP JUMPDEST PUSH2 0x13EF DUP3 PUSH2 0x1384 JUMP JUMPDEST PUSH8 0xFFFFFFFFFFFFFFFF DUP2 GT ISZERO PUSH2 0x1408 JUMPI PUSH2 0x1407 PUSH2 0xD90 JUMP JUMPDEST JUMPDEST PUSH2 0x1412 DUP3 SLOAD PUSH2 0x107D JUMP JUMPDEST PUSH2 0x141D DUP3 DUP3 DUP6 PUSH2 0x13A0 JUMP JUMPDEST PUSH0 PUSH1 0x20 SWAP1 POP PUSH1 0x1F DUP4 GT PUSH1 0x1 DUP2 EQ PUSH2 0x144E JUMPI PUSH0 DUP5 ISZERO PUSH2 0x143C JUMPI DUP3 DUP8 ADD MLOAD SWAP1 POP JUMPDEST PUSH2 0x1446 DUP6 DUP3 PUSH2 0x1232 JUMP JUMPDEST DUP7 SSTORE POP PUSH2 0x14AD JUMP JUMPDEST PUSH1 0x1F NOT DUP5 AND PUSH2 0x145C DUP7 PUSH2 0x138E JUMP JUMPDEST PUSH0 JUMPDEST DUP3 DUP2 LT ISZERO PUSH2 0x1483 JUMPI DUP5 DUP10 ADD MLOAD DUP3 SSTORE PUSH1 0x1 DUP3 ADD SWAP2 POP PUSH1 0x20 DUP6 ADD SWAP5 POP PUSH1 0x20 DUP2 ADD SWAP1 POP PUSH2 0x145E JUMP JUMPDEST DUP7 DUP4 LT ISZERO PUSH2 0x14A0 JUMPI DUP5 DUP10 ADD MLOAD PUSH2 0x149C PUSH1 0x1F DUP10 AND DUP3 PUSH2 0x1216 JUMP JUMPDEST DUP4 SSTORE POP JUMPDEST PUSH1 0x1 PUSH1 0x2 DUP9 MUL ADD DUP9 SSTORE POP POP POP JUMPDEST POP POP POP POP POP POP JUMP JUMPDEST PUSH32 0x4E487B7100000000000000000000000000000000000000000000000000000000 PUSH0 MSTORE PUSH1 0x21 PUSH1 0x4 MSTORE PUSH1 0x24 PUSH0 REVERT JUMPDEST PUSH0 DUP3 DUP3 MSTORE PUSH1 0x20 DUP3 ADD SWAP1 POP SWAP3 SWAP2 POP POP JUMP JUMPDEST PUSH0 PUSH2 0x14FC DUP3 PUSH2 0x1384 JUMP JUMPDEST PUSH2 0x1506 DUP2 DUP6 PUSH2 0x14E2 JUMP JUMPDEST SWAP4 POP PUSH2 0x1516 DUP2 DUP6 PUSH1 0x20 DUP7 ADD PUSH2 0xE38 JUMP JUMPDEST PUSH2 0x151F DUP2 PUSH2 0xD80 JUMP JUMPDEST DUP5 ADD SWAP2 POP POP SWAP3 SWAP2 POP POP JUMP JUMPDEST PUSH2 0x1533 DUP2 PUSH2 0xF06 JUMP JUMPDEST DUP3 MSTORE POP POP JUMP JUMPDEST PUSH0 PUSH1 0x40 DUP3 ADD SWAP1 POP DUP2 DUP2 SUB PUSH0 DUP4 ADD MSTORE PUSH2 0x1551 DUP2 DUP6 PUSH2 0x14F2 JUMP JUMPDEST SWAP1 POP PUSH2 0x1560 PUSH1 0x20 DUP4 ADD DUP5 PUSH2 0x152A JUMP JUMPDEST SWAP4 SWAP3 POP POP POP JUMP JUMPDEST PUSH0 DUP2 SWAP1 POP SWAP2 SWAP1 POP JUMP JUMPDEST PUSH2 0x1579 DUP2 PUSH2 0x1567 JUMP JUMPDEST DUP3 MSTORE POP POP JUMP JUMPDEST PUSH0 PUSH1 0x20 DUP3 ADD SWAP1 POP PUSH2 0x1592 PUSH0 DUP4 ADD DUP5 PUSH2 0x1570 JUMP JUMPDEST SWAP3 SWAP2 POP POP JUMP JUMPDEST PUSH32 0x4E487B7100000000000000000000000000000000000000000000000000000000 PUSH0 MSTORE PUSH1 0x11 PUSH1 0x4 MSTORE PUSH1 0x24 PUSH0 REVERT JUMPDEST PUSH0 PUSH2 0x15CF DUP3 PUSH2 0xEB4 JUMP JUMPDEST SWAP2 POP PUSH32 0xFFFFFFFFFFFFFFFFFFFFFFFFFFFFFFFFFFFFFFFFFFFFFFFFFFFFFFFFFFFFFFFF DUP3 SUB PUSH2 0x1601 JUMPI PUSH2 0x1600 PUSH2 0x1598 JUMP JUMPDEST JUMPDEST PUSH1 0x1 DUP3 ADD SWAP1 POP SWAP2 SWAP1 POP JUMP JUMPDEST PUSH0 DUP2 ISZERO ISZERO SWAP1 POP SWAP2 SWAP1 POP JUMP JUMPDEST PUSH2 0x1620 DUP2 PUSH2 0x160C JUMP JUMPDEST DUP3 MSTORE POP POP JUMP JUMPDEST PUSH0 PUSH1 0x60 DUP3 ADD SWAP1 POP PUSH2 0x1639 PUSH0 DUP4 ADD DUP7 PUSH2 0x152A JUMP JUMPDEST PUSH2 0x1646 PUSH1 0x20 DUP4 ADD DUP6 PUSH2 0x1617 JUMP JUMPDEST DUP2 DUP2 SUB PUSH1 0x40 DUP4 ADD MSTORE PUSH2 0x1658 DUP2 DUP5 PUSH2 0x132C JUMP JUMPDEST SWAP1 POP SWAP5 SWAP4 POP POP POP POP JUMP JUMPDEST PUSH0 PUSH1 0xA0 DUP3 ADD SWAP1 POP PUSH2 0x1675 PUSH0 DUP4 ADD DUP9 PUSH2 0x152A JUMP JUMPDEST PUSH2 0x1682 PUSH1 0x20 DUP4 ADD DUP8 PUSH2 0x152A JUMP JUMPDEST PUSH2 0x168F PUSH1 0x40 DUP4 ADD DUP7 PUSH2 0x152A JUMP JUMPDEST PUSH2 0x169C PUSH1 0x60 DUP4 ADD DUP6 PUSH2 0x1570 JUMP JUMPDEST DUP2 DUP2 SUB PUSH1 0x80 DUP4 ADD MSTORE PUSH2 0x16AE DUP2 DUP5 PUSH2 0x132C JUMP JUMPDEST SWAP1 POP SWAP7 SWAP6 POP POP POP POP POP POP JUMP JUMPDEST PUSH0 DUP2 SWAP1 POP SWAP2 SWAP1 POP JUMP JUMPDEST PUSH2 0x16D4 PUSH2 0x16CF DUP3 PUSH2 0x1567 JUMP JUMPDEST PUSH2 0x16BA JUMP JUMPDEST DUP3 MSTORE POP POP JUMP JUMPDEST PUSH0 PUSH2 0x16E5 DUP3 DUP6 PUSH2 0x16C3 JUMP JUMPDEST PUSH1 0x20 DUP3 ADD SWAP2 POP PUSH2 0x16F5 DUP3 DUP5 PUSH2 0x16C3 JUMP JUMPDEST PUSH1 0x20 DUP3 ADD SWAP2 POP DUP2 SWAP1 POP SWAP4 SWAP3 POP POP POP JUMP JUMPDEST PUSH0 PUSH1 0x40 DUP3 ADD SWAP1 POP PUSH2 0x1718 PUSH0 DUP4 ADD DUP6 PUSH2 0x1570 JUMP JUMPDEST DUP2 DUP2 SUB PUSH1 0x20 DUP4 ADD MSTORE PUSH2 0x172A DUP2 DUP5 PUSH2 0x132C JUMP JUMPDEST SWAP1 POP SWAP4 SWAP3 POP POP POP JUMP JUMPDEST PUSH0 PUSH8 0xFFFFFFFFFFFFFFFF DUP3 GT ISZERO PUSH2 0x174D JUMPI PUSH2 0x174C PUSH2 0xD90 JUMP JUMPDEST JUMPDEST PUSH2 0x1756 DUP3 PUSH2 0xD80 JUMP JUMPDEST SWAP1 POP PUSH1 0x20 DUP2 ADD SWAP1 POP SWAP2 SWAP1 POP JUMP JUMPDEST PUSH0 PUSH2 0x1775 PUSH2 0x1770 DUP5 PUSH2 0x1733 JUMP JUMPDEST PUSH2 0xDEE JUMP JUMPDEST SWAP1 POP DUP3 DUP2 MSTORE PUSH1 0x20 DUP2 ADD DUP5 DUP5 DUP5 ADD GT ISZERO PUSH2 0x1791 JUMPI PUSH2 0x1790 PUSH2 0xD7C JUMP JUMPDEST JUMPDEST PUSH2 0x179C DUP5 DUP3 DUP6 PUSH2 0xE38 JUMP JUMPDEST POP SWAP4 SWAP3 POP POP POP JUMP JUMPDEST PUSH0 DUP3 PUSH1 0x1F DUP4 ADD SLT PUSH2 0x17B8 JUMPI PUSH2 0x17B7 PUSH2 0xD78 JUMP JUMPDEST JUMPDEST DUP2 MLOAD PUSH2 0x17C8 DUP5 DUP3 PUSH1 0x20 DUP7 ADD PUSH2 0x1763 JUMP JUMPDEST SWAP2 POP POP SWAP3 SWAP2 POP POP JUMP JUMPDEST PUSH0 PUSH1 0x20 DUP3 DUP5 SUB SLT ISZERO PUSH2 0x17E6 JUMPI PUSH2 0x17E5 PUSH2 0xD70 JUMP JUMPDEST JUMPDEST PUSH0 DUP3 ADD MLOAD PUSH8 0xFFFFFFFFFFFFFFFF DUP2 GT ISZERO PUSH2 0x1803 JUMPI PUSH2 0x1802 PUSH2 0xD74 JUMP JUMPDEST JUMPDEST PUSH2 0x180F DUP5 DUP3 DUP6 ADD PUSH2 0x17A4 JUMP JUMPDEST SWAP2 POP POP SWAP3 SWAP2 POP POP JUMP JUMPDEST PUSH0 PUSH1 0x20 DUP3 ADD SWAP1 POP PUSH2 0x182B PUSH0 DUP4 ADD DUP5 PUSH2 0x152A JUMP JUMPDEST SWAP3 SWAP2 POP POP JUMP JUMPDEST PUSH0 PUSH32 0xFFFFFFFF00000000000000000000000000000000000000000000000000000000 DUP3 AND SWAP1 POP SWAP2 SWAP1 POP JUMP JUMPDEST PUSH2 0x1865 DUP2 PUSH2 0x1831 JUMP JUMPDEST DUP3 MSTORE POP POP JUMP JUMPDEST PUSH0 PUSH1 0x20 DUP3 ADD SWAP1 POP PUSH2 0x187E PUSH0 DUP4 ADD DUP5 PUSH2 0x185C JUMP JUMPDEST SWAP3 SWAP2 POP POP JUMP JUMPDEST PUSH2 0x6A79 DUP1 PUSH2 0x1891 PUSH0 CODECOPY PUSH0 RETURN INVALID PUSH1 0x80 PUSH1 0x40 MSTORE PUSH1 0x4 CALLDATASIZE LT PUSH2 0x207 JUMPI PUSH0 CALLDATALOAD PUSH1 0xE0 SHR DUP1 PUSH4 0x715018A6 GT PUSH2 0x117 JUMPI DUP1 PUSH4 0x97902421 GT PUSH2 0x9F JUMPI DUP1 PUSH4 0xD6C1407C GT PUSH2 0x6E JUMPI DUP1 PUSH4 0xD6C1407C EQ PUSH2 0x856 JUMPI DUP1 PUSH4 0xDB8C9663 EQ PUSH2 0x87E JUMPI DUP1 PUSH4 0xDEDFF9C6 EQ PUSH2 0x8A6 JUMPI DUP1 PUSH4 0xF1236E41 EQ PUSH2 0x8E2 JUMPI DUP1 PUSH4 0xF2FDE38B EQ PUSH2 0x90A JUMPI PUSH2 0x280 JUMP JUMPDEST DUP1 PUSH4 0x97902421 EQ PUSH2 0x7AE JUMPI DUP1 PUSH4 0xA3B261F2 EQ PUSH2 0x7CA JUMPI DUP1 PUSH4 0xBE9F0E6F EQ PUSH2 0x806 JUMPI DUP1 PUSH4 0xC1B4C4D1 EQ PUSH2 0x82E JUMPI PUSH2 0x280 JUMP JUMPDEST DUP1 PUSH4 0x7F23690C GT PUSH2 0xE6 JUMPI DUP1 PUSH4 0x7F23690C EQ PUSH2 0x6F0 JUMPI DUP1 PUSH4 0x843D667B EQ PUSH2 0x70C JUMPI DUP1 PUSH4 0x86A10DDD EQ PUSH2 0x734 JUMPI DUP1 PUSH4 0x8DA5CB5B EQ PUSH2 0x75C JUMPI DUP1 PUSH4 0x8F81ECFC EQ PUSH2 0x786 JUMPI PUSH2 0x280 JUMP JUMPDEST DUP1 PUSH4 0x715018A6 EQ PUSH2 0x660 JUMPI DUP1 PUSH4 0x78495BF8 EQ PUSH2 0x676 JUMPI DUP1 PUSH4 0x7E87632C EQ PUSH2 0x6A0 JUMPI DUP1 PUSH4 0x7E913B05 EQ PUSH2 0x6C8 JUMPI PUSH2 0x280 JUMP JUMPDEST DUP1 PUSH4 0x2A3654A4 GT PUSH2 0x19A JUMPI DUP1 PUSH4 0x54F6127F GT PUSH2 0x169 JUMPI DUP1 PUSH4 0x54F6127F EQ PUSH2 0x542 JUMPI DUP1 PUSH4 0x625D0BE9 EQ PUSH2 0x57E JUMPI DUP1 PUSH4 0x6748CEC1 EQ PUSH2 0x5C0 JUMPI DUP1 PUSH4 0x6963D438 EQ PUSH2 0x5E8 JUMPI DUP1 PUSH4 0x70A08231 EQ PUSH2 0x624 JUMPI PUSH2 0x280 JUMP JUMPDEST DUP1 PUSH4 0x2A3654A4 EQ PUSH2 0x47A JUMPI DUP1 PUSH4 0x30E075CA EQ PUSH2 0x4B6 JUMPI DUP1 PUSH4 0x49A6078D EQ PUSH2 0x4DE JUMPI DUP1 PUSH4 0x511B6952 EQ PUSH2 0x51A JUMPI PUSH2 0x280 JUMP JUMPDEST DUP1 PUSH4 0x1D26FCE6 GT PUSH2 0x1D6 JUMPI DUP1 PUSH4 0x1D26FCE6 EQ PUSH2 0x3B0 JUMPI DUP1 PUSH4 0x1F121708 EQ PUSH2 0x3EC JUMPI DUP1 PUSH4 0x217B2270 EQ PUSH2 0x416 JUMPI DUP1 PUSH4 0x22060F4C EQ PUSH2 0x452 JUMPI PUSH2 0x280 JUMP JUMPDEST DUP1 PUSH4 0x1FFC9A7 EQ PUSH2 0x2E6 JUMPI DUP1 PUSH4 0x2154B4E EQ PUSH2 0x322 JUMPI DUP1 PUSH4 0x16E023B3 EQ PUSH2 0x34A JUMPI DUP1 PUSH4 0x18160DDD EQ PUSH2 0x386 JUMPI PUSH2 0x280 JUMP JUMPDEST CALLDATASIZE PUSH2 0x280 JUMPI PUSH0 CALLVALUE SUB PUSH2 0x24E JUMPI PUSH1 0x40 MLOAD PUSH32 0xE5099EE300000000000000000000000000000000000000000000000000000000 DUP2 MSTORE PUSH1 0x4 ADD PUSH2 0x245 SWAP1 PUSH2 0x42FB JUMP JUMPDEST PUSH1 0x40 MLOAD DUP1 SWAP2 SUB SWAP1 REVERT JUMPDEST PUSH1 0x40 MLOAD PUSH32 0x61F4944200000000000000000000000000000000000000000000000000000000 DUP2 MSTORE PUSH1 0x4 ADD PUSH1 0x40 MLOAD DUP1 SWAP2 SUB SWAP1 REVERT JUMPDEST PUSH0 CALLDATASIZE PUSH1 0x60 PUSH1 0x4 PUSH0 CALLDATASIZE SWAP1 POP LT ISZERO PUSH2 0x2CF JUMPI DUP3 DUP3 PUSH1 0x40 MLOAD PUSH32 0xE5099EE300000000000000000000000000000000000000000000000000000000 DUP2 MSTORE PUSH1 0x4 ADD PUSH2 0x2C6 SWAP3 SWAP2 SWAP1 PUSH2 0x4363 JUMP JUMPDEST PUSH1 0x40 MLOAD DUP1 SWAP2 SUB SWAP1 REVERT JUMPDEST PUSH2 0x2D9 DUP4 DUP4 PUSH2 0x932 JUMP JUMPDEST SWAP1 POP SWAP2 POP POP DUP1 MLOAD SWAP1 PUSH1 0x20 ADD RETURN JUMPDEST CALLVALUE DUP1 ISZERO PUSH2 0x2F1 JUMPI PUSH0 PUSH0 REVERT JUMPDEST POP PUSH2 0x30C PUSH1 0x4 DUP1 CALLDATASIZE SUB DUP2 ADD SWAP1 PUSH2 0x307 SWAP2 SWAP1 PUSH2 0x43EB JUMP JUMPDEST PUSH2 0xAA8 JUMP JUMPDEST PUSH1 0x40 MLOAD PUSH2 0x319 SWAP2 SWAP1 PUSH2 0x4430 JUMP JUMPDEST PUSH1 0x40 MLOAD DUP1 SWAP2 SUB SWAP1 RETURN JUMPDEST CALLVALUE DUP1 ISZERO PUSH2 0x32D JUMPI PUSH0 PUSH0 REVERT JUMPDEST POP PUSH2 0x348 PUSH1 0x4 DUP1 CALLDATASIZE SUB DUP2 ADD SWAP1 PUSH2 0x343 SWAP2 SWAP1 PUSH2 0x44A3 JUMP JUMPDEST PUSH2 0xB18 JUMP JUMPDEST STOP JUMPDEST CALLVALUE DUP1 ISZERO PUSH2 0x355 JUMPI PUSH0 PUSH0 REVERT JUMPDEST POP PUSH2 0x370 PUSH1 0x4 DUP1 CALLDATASIZE SUB DUP2 ADD SWAP1 PUSH2 0x36B SWAP2 SWAP1 PUSH2 0x4501 JUMP JUMPDEST PUSH2 0xBB3 JUMP JUMPDEST PUSH1 0x40 MLOAD PUSH2 0x37D SWAP2 SWAP1 PUSH2 0x458F JUMP JUMPDEST PUSH1 0x40 MLOAD DUP1 SWAP2 SUB SWAP1 RETURN JUMPDEST CALLVALUE DUP1 ISZERO PUSH2 0x391 JUMPI PUSH0 PUSH0 REVERT JUMPDEST POP PUSH2 0x39A PUSH2 0xBC7 JUMP JUMPDEST PUSH1 0x40 MLOAD PUSH2 0x3A7 SWAP2 SWAP1 PUSH2 0x45C7 JUMP JUMPDEST PUSH1 0x40 MLOAD DUP1 SWAP2 SUB SWAP1 RETURN JUMPDEST CALLVALUE DUP1 ISZERO PUSH2 0x3BB JUMPI PUSH0 PUSH0 REVERT JUMPDEST POP PUSH2 0x3D6 PUSH1 0x4 DUP1 CALLDATASIZE SUB DUP2 ADD SWAP1 PUSH2 0x3D1 SWAP2 SWAP1 PUSH2 0x4720 JUMP JUMPDEST PUSH2 0xBD0 JUMP JUMPDEST PUSH1 0x40 MLOAD PUSH2 0x3E3 SWAP2 SWAP1 PUSH2 0x4899 JUMP JUMPDEST PUSH1 0x40 MLOAD DUP1 SWAP2 SUB SWAP1 RETURN JUMPDEST CALLVALUE DUP1 ISZERO PUSH2 0x3F7 JUMPI PUSH0 PUSH0 REVERT JUMPDEST POP PUSH2 0x400 PUSH2 0xCD7 JUMP JUMPDEST PUSH1 0x40 MLOAD PUSH2 0x40D SWAP2 SWAP1 PUSH2 0x48C8 JUMP JUMPDEST PUSH1 0x40 MLOAD DUP1 SWAP2 SUB SWAP1 RETURN JUMPDEST CALLVALUE DUP1 ISZERO PUSH2 0x421 JUMPI PUSH0 PUSH0 REVERT JUMPDEST POP PUSH2 0x43C PUSH1 0x4 DUP1 CALLDATASIZE SUB DUP2 ADD SWAP1 PUSH2 0x437 SWAP2 SWAP1 PUSH2 0x48E1 JUMP JUMPDEST PUSH2 0xCFC JUMP JUMPDEST PUSH1 0x40 MLOAD PUSH2 0x449 SWAP2 SWAP1 PUSH2 0x48C8 JUMP JUMPDEST PUSH1 0x40 MLOAD DUP1 SWAP2 SUB SWAP1 RETURN JUMPDEST CALLVALUE DUP1 ISZERO PUSH2 0x45D JUMPI PUSH0 PUSH0 REVERT JUMPDEST POP PUSH2 0x478 PUSH1 0x4 DUP1 CALLDATASIZE SUB DUP2 ADD SWAP1 PUSH2 0x473 SWAP2 SWAP1 PUSH2 0x490C JUMP JUMPDEST PUSH2 0xDAA JUMP JUMPDEST STOP JUMPDEST CALLVALUE DUP1 ISZERO PUSH2 0x485 JUMPI PUSH0 PUSH0 REVERT JUMPDEST POP PUSH2 0x4A0 PUSH1 0x4 DUP1 CALLDATASIZE SUB DUP2 ADD SWAP1 PUSH2 0x49B SWAP2 SWAP1 PUSH2 0x494A JUMP JUMPDEST PUSH2 0xFAB JUMP JUMPDEST PUSH1 0x40 MLOAD PUSH2 0x4AD SWAP2 SWAP1 PUSH2 0x4430 JUMP JUMPDEST PUSH1 0x40 MLOAD DUP1 SWAP2 SUB SWAP1 RETURN JUMPDEST CALLVALUE DUP1 ISZERO PUSH2 0x4C1 JUMPI PUSH0 PUSH0 REVERT JUMPDEST POP PUSH2 0x4DC PUSH1 0x4 DUP1 CALLDATASIZE SUB DUP2 ADD SWAP1 PUSH2 0x4D7 SWAP2 SWAP1 PUSH2 0x49E1 JUMP JUMPDEST PUSH2 0xFBE JUMP JUMPDEST STOP JUMPDEST CALLVALUE DUP1 ISZERO PUSH2 0x4E9 JUMPI PUSH0 PUSH0 REVERT JUMPDEST POP PUSH2 0x504 PUSH1 0x4 DUP1 CALLDATASIZE SUB DUP2 ADD SWAP1 PUSH2 0x4FF SWAP2 SWAP1 PUSH2 0x48E1 JUMP JUMPDEST PUSH2 0x116F JUMP JUMPDEST PUSH1 0x40 MLOAD PUSH2 0x511 SWAP2 SWAP1 PUSH2 0x4AF5 JUMP JUMPDEST PUSH1 0x40 MLOAD DUP1 SWAP2 SUB SWAP1 RETURN JUMPDEST CALLVALUE DUP1 ISZERO PUSH2 0x525 JUMPI PUSH0 PUSH0 REVERT JUMPDEST POP PUSH2 0x540 PUSH1 0x4 DUP1 CALLDATASIZE SUB DUP2 ADD SWAP1 PUSH2 0x53B SWAP2 SWAP1 PUSH2 0x4BE1 JUMP JUMPDEST PUSH2 0x119A JUMP JUMPDEST STOP JUMPDEST CALLVALUE DUP1 ISZERO PUSH2 0x54D JUMPI PUSH0 PUSH0 REVERT JUMPDEST POP PUSH2 0x568 PUSH1 0x4 DUP1 CALLDATASIZE SUB DUP2 ADD SWAP1 PUSH2 0x563 SWAP2 SWAP1 PUSH2 0x48E1 JUMP JUMPDEST PUSH2 0x11FB JUMP JUMPDEST PUSH1 0x40 MLOAD PUSH2 0x575 SWAP2 SWAP1 PUSH2 0x458F JUMP JUMPDEST PUSH1 0x40 MLOAD DUP1 SWAP2 SUB SWAP1 RETURN JUMPDEST CALLVALUE DUP1 ISZERO PUSH2 0x589 JUMPI PUSH0 PUSH0 REVERT JUMPDEST POP PUSH2 0x5A4 PUSH1 0x4 DUP1 CALLDATASIZE SUB DUP2 ADD SWAP1 PUSH2 0x59F SWAP2 SWAP1 PUSH2 0x48E1 JUMP JUMPDEST PUSH2 0x120D JUMP JUMPDEST PUSH1 0x40 MLOAD PUSH2 0x5B7 SWAP8 SWAP7 SWAP6 SWAP5 SWAP4 SWAP3 SWAP2 SWAP1 PUSH2 0x4D48 JUMP JUMPDEST PUSH1 0x40 MLOAD DUP1 SWAP2 SUB SWAP1 RETURN JUMPDEST CALLVALUE DUP1 ISZERO PUSH2 0x5CB JUMPI PUSH0 PUSH0 REVERT JUMPDEST POP PUSH2 0x5E6 PUSH1 0x4 DUP1 CALLDATASIZE SUB DUP2 ADD SWAP1 PUSH2 0x5E1 SWAP2 SWAP1 PUSH2 0x4DE6 JUMP JUMPDEST PUSH2 0x12FC JUMP JUMPDEST STOP JUMPDEST CALLVALUE DUP1 ISZERO PUSH2 0x5F3 JUMPI PUSH0 PUSH0 REVERT JUMPDEST POP PUSH2 0x60E PUSH1 0x4 DUP1 CALLDATASIZE SUB DUP2 ADD SWAP1 PUSH2 0x609 SWAP2 SWAP1 PUSH2 0x4E79 JUMP JUMPDEST PUSH2 0x141B JUMP JUMPDEST PUSH1 0x40 MLOAD PUSH2 0x61B SWAP2 SWAP1 PUSH2 0x4899 JUMP JUMPDEST PUSH1 0x40 MLOAD DUP1 SWAP2 SUB SWAP1 RETURN JUMPDEST CALLVALUE DUP1 ISZERO PUSH2 0x62F JUMPI PUSH0 PUSH0 REVERT JUMPDEST POP PUSH2 0x64A PUSH1 0x4 DUP1 CALLDATASIZE SUB DUP2 ADD SWAP1 PUSH2 0x645 SWAP2 SWAP1 PUSH2 0x44A3 JUMP JUMPDEST PUSH2 0x1591 JUMP JUMPDEST PUSH1 0x40 MLOAD PUSH2 0x657 SWAP2 SWAP1 PUSH2 0x45C7 JUMP JUMPDEST PUSH1 0x40 MLOAD DUP1 SWAP2 SUB SWAP1 RETURN JUMPDEST CALLVALUE DUP1 ISZERO PUSH2 0x66B JUMPI PUSH0 PUSH0 REVERT JUMPDEST POP PUSH2 0x674 PUSH2 0x15DE JUMP JUMPDEST STOP JUMPDEST CALLVALUE DUP1 ISZERO PUSH2 0x681 JUMPI PUSH0 PUSH0 REVERT JUMPDEST POP PUSH2 0x68A PUSH2 0x15F1 JUMP JUMPDEST PUSH1 0x40 MLOAD PUSH2 0x697 SWAP2 SWAP1 PUSH2 0x45C7 JUMP JUMPDEST PUSH1 0x40 MLOAD DUP1 SWAP2 SUB SWAP1 RETURN JUMPDEST CALLVALUE DUP1 ISZERO PUSH2 0x6AB JUMPI PUSH0 PUSH0 REVERT JUMPDEST POP PUSH2 0x6C6 PUSH1 0x4 DUP1 CALLDATASIZE SUB DUP2 ADD SWAP1 PUSH2 0x6C1 SWAP2 SWAP1 PUSH2 0x5122 JUMP JUMPDEST PUSH2 0x15FC JUMP JUMPDEST STOP JUMPDEST CALLVALUE DUP1 ISZERO PUSH2 0x6D3 JUMPI PUSH0 PUSH0 REVERT JUMPDEST POP PUSH2 0x6EE PUSH1 0x4 DUP1 CALLDATASIZE SUB DUP2 ADD SWAP1 PUSH2 0x6E9 SWAP2 SWAP1 PUSH2 0x4501 JUMP JUMPDEST PUSH2 0x170E JUMP JUMPDEST STOP JUMPDEST PUSH2 0x70A PUSH1 0x4 DUP1 CALLDATASIZE SUB DUP2 ADD SWAP1 PUSH2 0x705 SWAP2 SWAP1 PUSH2 0x5225 JUMP JUMPDEST PUSH2 0x195F JUMP JUMPDEST STOP JUMPDEST CALLVALUE DUP1 ISZERO PUSH2 0x717 JUMPI PUSH0 PUSH0 REVERT JUMPDEST POP PUSH2 0x732 PUSH1 0x4 DUP1 CALLDATASIZE SUB DUP2 ADD SWAP1 PUSH2 0x72D SWAP2 SWAP1 PUSH2 0x52C5 JUMP JUMPDEST PUSH2 0x19AE JUMP JUMPDEST STOP JUMPDEST CALLVALUE DUP1 ISZERO PUSH2 0x73F JUMPI PUSH0 PUSH0 REVERT JUMPDEST POP PUSH2 0x75A PUSH1 0x4 DUP1 CALLDATASIZE SUB DUP2 ADD SWAP1 PUSH2 0x755 SWAP2 SWAP1 PUSH2 0x53CA JUMP JUMPDEST PUSH2 0x1C17 JUMP JUMPDEST STOP JUMPDEST CALLVALUE DUP1 ISZERO PUSH2 0x767 JUMPI PUSH0 PUSH0 REVERT JUMPDEST POP PUSH2 0x770 PUSH2 0x1E6D JUMP JUMPDEST PUSH1 0x40 MLOAD PUSH2 0x77D SWAP2 SWAP1 PUSH2 0x48C8 JUMP JUMPDEST PUSH1 0x40 MLOAD DUP1 SWAP2 SUB SWAP1 RETURN JUMPDEST CALLVALUE DUP1 ISZERO PUSH2 0x791 JUMPI PUSH0 PUSH0 REVERT JUMPDEST POP PUSH2 0x7AC PUSH1 0x4 DUP1 CALLDATASIZE SUB DUP2 ADD SWAP1 PUSH2 0x7A7 SWAP2 SWAP1 PUSH2 0x4501 JUMP JUMPDEST PUSH2 0x1E94 JUMP JUMPDEST STOP JUMPDEST PUSH2 0x7C8 PUSH1 0x4 DUP1 CALLDATASIZE SUB DUP2 ADD SWAP1 PUSH2 0x7C3 SWAP2 SWAP1 PUSH2 0x5436 JUMP JUMPDEST PUSH2 0x2178 JUMP JUMPDEST STOP JUMPDEST CALLVALUE DUP1 ISZERO PUSH2 0x7D5 JUMPI PUSH0 PUSH0 REVERT JUMPDEST POP PUSH2 0x7F0 PUSH1 0x4 DUP1 CALLDATASIZE SUB DUP2 ADD SWAP1 PUSH2 0x7EB SWAP2 SWAP1 PUSH2 0x44A3 JUMP JUMPDEST PUSH2 0x21C7 JUMP JUMPDEST PUSH1 0x40 MLOAD PUSH2 0x7FD SWAP2 SWAP1 PUSH2 0x5563 JUMP JUMPDEST PUSH1 0x40 MLOAD DUP1 SWAP2 SUB SWAP1 RETURN JUMPDEST CALLVALUE DUP1 ISZERO PUSH2 0x811 JUMPI PUSH0 PUSH0 REVERT JUMPDEST POP PUSH2 0x82C PUSH1 0x4 DUP1 CALLDATASIZE SUB DUP2 ADD SWAP1 PUSH2 0x827 SWAP2 SWAP1 PUSH2 0x5583 JUMP JUMPDEST PUSH2 0x2215 JUMP JUMPDEST STOP JUMPDEST CALLVALUE DUP1 ISZERO PUSH2 0x839 JUMPI PUSH0 PUSH0 REVERT JUMPDEST POP PUSH2 0x854 PUSH1 0x4 DUP1 CALLDATASIZE SUB DUP2 ADD SWAP1 PUSH2 0x84F SWAP2 SWAP1 PUSH2 0x4DE6 JUMP JUMPDEST PUSH2 0x2316 JUMP JUMPDEST STOP JUMPDEST CALLVALUE DUP1 ISZERO PUSH2 0x861 JUMPI PUSH0 PUSH0 REVERT JUMPDEST POP PUSH2 0x87C PUSH1 0x4 DUP1 CALLDATASIZE SUB DUP2 ADD SWAP1 PUSH2 0x877 SWAP2 SWAP1 PUSH2 0x5627 JUMP JUMPDEST PUSH2 0x2477 JUMP JUMPDEST STOP JUMPDEST CALLVALUE DUP1 ISZERO PUSH2 0x889 JUMPI PUSH0 PUSH0 REVERT JUMPDEST POP PUSH2 0x8A4 PUSH1 0x4 DUP1 CALLDATASIZE SUB DUP2 ADD SWAP1 PUSH2 0x89F SWAP2 SWAP1 PUSH2 0x5693 JUMP JUMPDEST PUSH2 0x2541 JUMP JUMPDEST STOP JUMPDEST CALLVALUE DUP1 ISZERO PUSH2 0x8B1 JUMPI PUSH0 PUSH0 REVERT JUMPDEST POP PUSH2 0x8CC PUSH1 0x4 DUP1 CALLDATASIZE SUB DUP2 ADD SWAP1 PUSH2 0x8C7 SWAP2 SWAP1 PUSH2 0x5713 JUMP JUMPDEST PUSH2 0x270E JUMP JUMPDEST PUSH1 0x40 MLOAD PUSH2 0x8D9 SWAP2 SWAP1 PUSH2 0x4899 JUMP JUMPDEST PUSH1 0x40 MLOAD DUP1 SWAP2 SUB SWAP1 RETURN JUMPDEST CALLVALUE DUP1 ISZERO PUSH2 0x8ED JUMPI PUSH0 PUSH0 REVERT JUMPDEST POP PUSH2 0x908 PUSH1 0x4 DUP1 CALLDATASIZE SUB DUP2 ADD SWAP1 PUSH2 0x903 SWAP2 SWAP1 PUSH2 0x575A JUMP JUMPDEST PUSH2 0x27C1 JUMP JUMPDEST STOP JUMPDEST CALLVALUE DUP1 ISZERO PUSH2 0x915 JUMPI PUSH0 PUSH0 REVERT JUMPDEST POP PUSH2 0x930 PUSH1 0x4 DUP1 CALLDATASIZE SUB DUP2 ADD SWAP1 PUSH2 0x92B SWAP2 SWAP1 PUSH2 0x44A3 JUMP JUMPDEST PUSH2 0x29CC JUMP JUMPDEST STOP JUMPDEST PUSH1 0x60 PUSH0 PUSH2 0x961 PUSH0 CALLDATALOAD PUSH32 0xFFFFFFFF00000000000000000000000000000000000000000000000000000000 AND PUSH2 0x2A4E JUMP JUMPDEST POP SWAP1 POP PUSH0 PUSH20 0xFFFFFFFFFFFFFFFFFFFFFFFFFFFFFFFFFFFFFFFF AND DUP2 PUSH20 0xFFFFFFFFFFFFFFFFFFFFFFFFFFFFFFFFFFFFFFFF AND SUB PUSH2 0x9F7 JUMPI PUSH0 CALLDATALOAD PUSH32 0xFFFFFFFF00000000000000000000000000000000000000000000000000000000 AND PUSH1 0x40 MLOAD PUSH32 0xBB370B2B00000000000000000000000000000000000000000000000000000000 DUP2 MSTORE PUSH1 0x4 ADD PUSH2 0x9EE SWAP2 SWAP1 PUSH2 0x585A JUMP JUMPDEST PUSH1 0x40 MLOAD DUP1 SWAP2 SUB SWAP1 REVERT JUMPDEST PUSH0 PUSH0 DUP3 PUSH20 0xFFFFFFFFFFFFFFFFFFFFFFFFFFFFFFFFFFFFFFFF AND CALLVALUE DUP8 DUP8 CALLER CALLVALUE PUSH1 0x40 MLOAD PUSH1 0x20 ADD PUSH2 0xA28 SWAP5 SWAP4 SWAP3 SWAP2 SWAP1 PUSH2 0x5906 JUMP JUMPDEST PUSH1 0x40 MLOAD PUSH1 0x20 DUP2 DUP4 SUB SUB DUP2 MSTORE SWAP1 PUSH1 0x40 MSTORE PUSH1 0x40 MLOAD PUSH2 0xA44 SWAP2 SWAP1 PUSH2 0x5970 JUMP JUMPDEST PUSH0 PUSH1 0x40 MLOAD DUP1 DUP4 SUB DUP2 DUP6 DUP8 GAS CALL SWAP3 POP POP POP RETURNDATASIZE DUP1 PUSH0 DUP2 EQ PUSH2 0xA7E JUMPI PUSH1 0x40 MLOAD SWAP2 POP PUSH1 0x1F NOT PUSH1 0x3F RETURNDATASIZE ADD AND DUP3 ADD PUSH1 0x40 MSTORE RETURNDATASIZE DUP3 MSTORE RETURNDATASIZE PUSH0 PUSH1 0x20 DUP5 ADD RETURNDATACOPY PUSH2 0xA83 JUMP JUMPDEST PUSH1 0x60 SWAP2 POP JUMPDEST POP SWAP2 POP SWAP2 POP DUP2 ISZERO PUSH2 0xA99 JUMPI DUP1 SWAP4 POP POP POP POP PUSH2 0xAA2 JUMP JUMPDEST DUP1 MLOAD DUP1 PUSH1 0x20 DUP4 ADD REVERT JUMPDEST SWAP3 SWAP2 POP POP JUMP JUMPDEST PUSH0 PUSH4 0x3A271706 PUSH1 0xE0 SHL PUSH28 0xFFFFFFFFFFFFFFFFFFFFFFFFFFFFFFFFFFFFFFFFFFFFFFFFFFFFFFFF NOT AND DUP3 PUSH28 0xFFFFFFFFFFFFFFFFFFFFFFFFFFFFFFFFFFFFFFFFFFFFFFFFFFFFFFFF NOT AND EQ DUP1 PUSH2 0xB01 JUMPI POP PUSH2 0xB00 DUP3 PUSH2 0x2B04 JUMP JUMPDEST JUMPDEST DUP1 PUSH2 0xB11 JUMPI POP PUSH2 0xB10 DUP3 PUSH2 0x2B64 JUMP JUMPDEST JUMPDEST SWAP1 POP SWAP2 SWAP1 POP JUMP JUMPDEST PUSH1 0x8 PUSH0 SWAP1 SLOAD SWAP1 PUSH2 0x100 EXP SWAP1 DIV PUSH20 0xFFFFFFFFFFFFFFFFFFFFFFFFFFFFFFFFFFFFFFFF AND PUSH20 0xFFFFFFFFFFFFFFFFFFFFFFFFFFFFFFFFFFFFFFFF AND CALLER PUSH20 0xFFFFFFFFFFFFFFFFFFFFFFFFFFFFFFFFFFFFFFFF AND EQ PUSH2 0xBA7 JUMPI PUSH1 0x40 MLOAD PUSH32 0x8C379A000000000000000000000000000000000000000000000000000000000 DUP2 MSTORE PUSH1 0x4 ADD PUSH2 0xB9E SWAP1 PUSH2 0x59D0 JUMP JUMPDEST PUSH1 0x40 MLOAD DUP1 SWAP2 SUB SWAP1 REVERT JUMPDEST PUSH2 0xBB0 DUP2 PUSH2 0x2BC8 JUMP JUMPDEST POP JUMP JUMPDEST PUSH1 0x60 PUSH2 0xBBF DUP4 DUP4 PUSH2 0x2C89 JUMP JUMPDEST SWAP1 POP SWAP3 SWAP2 POP POP JUMP JUMPDEST PUSH0 PUSH1 0x2 SLOAD SWAP1 POP SWAP1 JUMP JUMPDEST PUSH1 0x60 DUP2 MLOAD DUP4 MLOAD EQ PUSH2 0xC0D JUMPI PUSH1 0x40 MLOAD PUSH32 0x2FA71DFE00000000000000000000000000000000000000000000000000000000 DUP2 MSTORE PUSH1 0x4 ADD PUSH1 0x40 MLOAD DUP1 SWAP2 SUB SWAP1 REVERT JUMPDEST DUP3 MLOAD PUSH8 0xFFFFFFFFFFFFFFFF DUP2 GT ISZERO PUSH2 0xC28 JUMPI PUSH2 0xC27 PUSH2 0x45E4 JUMP JUMPDEST JUMPDEST PUSH1 0x40 MLOAD SWAP1 DUP1 DUP3 MSTORE DUP1 PUSH1 0x20 MUL PUSH1 0x20 ADD DUP3 ADD PUSH1 0x40 MSTORE DUP1 ISZERO PUSH2 0xC5B JUMPI DUP2 PUSH1 0x20 ADD JUMPDEST PUSH1 0x60 DUP2 MSTORE PUSH1 0x20 ADD SWAP1 PUSH1 0x1 SWAP1 SUB SWAP1 DUP2 PUSH2 0xC46 JUMPI SWAP1 POP JUMPDEST POP SWAP1 POP PUSH0 JUMPDEST DUP4 MLOAD DUP2 LT ISZERO PUSH2 0xCD0 JUMPI PUSH2 0xCA7 DUP5 DUP3 DUP2 MLOAD DUP2 LT PUSH2 0xC7F JUMPI PUSH2 0xC7E PUSH2 0x59EE JUMP JUMPDEST JUMPDEST PUSH1 0x20 MUL PUSH1 0x20 ADD ADD MLOAD DUP5 DUP4 DUP2 MLOAD DUP2 LT PUSH2 0xC9A JUMPI PUSH2 0xC99 PUSH2 0x59EE JUMP JUMPDEST JUMPDEST PUSH1 0x20 MUL PUSH1 0x20 ADD ADD MLOAD PUSH2 0x2C89 JUMP JUMPDEST DUP3 DUP3 DUP2 MLOAD DUP2 LT PUSH2 0xCBA JUMPI PUSH2 0xCB9 PUSH2 0x59EE JUMP JUMPDEST JUMPDEST PUSH1 0x20 MUL PUSH1 0x20 ADD ADD DUP2 SWAP1 MSTORE POP DUP1 PUSH1 0x1 ADD SWAP1 POP PUSH2 0xC60 JUMP JUMPDEST POP SWAP3 SWAP2 POP POP JUMP JUMPDEST PUSH1 0x8 PUSH0 SWAP1 SLOAD SWAP1 PUSH2 0x100 EXP SWAP1 DIV PUSH20 0xFFFFFFFFFFFFFFFFFFFFFFFFFFFFFFFFFFFFFFFF AND DUP2 JUMP JUMPDEST PUSH0 PUSH0 PUSH1 0x3 PUSH0 DUP5 DUP2 MSTORE PUSH1 0x20 ADD SWAP1 DUP2 MSTORE PUSH1 0x20 ADD PUSH0 KECCAK256 PUSH0 SWAP1 SLOAD SWAP1 PUSH2 0x100 EXP SWAP1 DIV PUSH20 0xFFFFFFFFFFFFFFFFFFFFFFFFFFFFFFFFFFFFFFFF AND SWAP1 POP PUSH0 PUSH20 0xFFFFFFFFFFFFFFFFFFFFFFFFFFFFFFFFFFFFFFFF AND DUP2 PUSH20 0xFFFFFFFFFFFFFFFFFFFFFFFFFFFFFFFFFFFFFFFF AND SUB PUSH2 0xDA1 JUMPI DUP3 PUSH1 0x40 MLOAD PUSH32 0xAE8F9A3600000000000000000000000000000000000000000000000000000000 DUP2 MSTORE PUSH1 0x4 ADD PUSH2 0xD98 SWAP2 SWAP1 PUSH2 0x5A1B JUMP JUMPDEST PUSH1 0x40 MLOAD DUP1 SWAP2 SUB SWAP1 REVERT JUMPDEST DUP1 SWAP2 POP POP SWAP2 SWAP1 POP JUMP JUMPDEST DUP2 PUSH0 PUSH2 0xDB5 DUP3 PUSH2 0xCFC JUMP JUMPDEST SWAP1 POP DUP1 PUSH20 0xFFFFFFFFFFFFFFFFFFFFFFFFFFFFFFFFFFFFFFFF AND CALLER PUSH20 0xFFFFFFFFFFFFFFFFFFFFFFFFFFFFFFFFFFFFFFFF AND EQ DUP1 PUSH2 0xE23 JUMPI POP PUSH2 0xDF4 PUSH2 0x1E6D JUMP JUMPDEST PUSH20 0xFFFFFFFFFFFFFFFFFFFFFFFFFFFFFFFFFFFFFFFF AND CALLER PUSH20 0xFFFFFFFFFFFFFFFFFFFFFFFFFFFFFFFFFFFFFFFF AND EQ JUMPDEST PUSH2 0xE62 JUMPI PUSH1 0x40 MLOAD PUSH32 0x8C379A000000000000000000000000000000000000000000000000000000000 DUP2 MSTORE PUSH1 0x4 ADD PUSH2 0xE59 SWAP1 PUSH2 0x5A7E JUMP JUMPDEST PUSH1 0x40 MLOAD DUP1 SWAP2 SUB SWAP1 REVERT JUMPDEST PUSH0 PUSH20 0xFFFFFFFFFFFFFFFFFFFFFFFFFFFFFFFFFFFFFFFF AND DUP4 PUSH20 0xFFFFFFFFFFFFFFFFFFFFFFFFFFFFFFFFFFFFFFFF AND SUB PUSH2 0xED0 JUMPI PUSH1 0x40 MLOAD PUSH32 0x8C379A000000000000000000000000000000000000000000000000000000000 DUP2 MSTORE PUSH1 0x4 ADD PUSH2 0xEC7 SWAP1 PUSH2 0x5AE6 JUMP JUMPDEST PUSH1 0x40 MLOAD DUP1 SWAP2 SUB SWAP1 REVERT JUMPDEST PUSH0 PUSH1 0x7 PUSH0 DUP7 DUP2 MSTORE PUSH1 0x20 ADD SWAP1 DUP2 MSTORE PUSH1 0x20 ADD PUSH0 KECCAK256 SWAP1 POP PUSH0 DUP2 PUSH1 0x1 ADD PUSH0 SWAP1 SLOAD SWAP1 PUSH2 0x100 EXP SWAP1 DIV PUSH20 0xFFFFFFFFFFFFFFFFFFFFFFFFFFFFFFFFFFFFFFFF AND SWAP1 POP PUSH2 0xF27 DUP2 DUP7 DUP9 PUSH1 0x1 PUSH1 0x40 MLOAD DUP1 PUSH1 0x20 ADD PUSH1 0x40 MSTORE DUP1 PUSH0 DUP2 MSTORE POP PUSH2 0x2D53 JUMP JUMPDEST DUP5 DUP3 PUSH1 0x1 ADD PUSH0 PUSH2 0x100 EXP DUP2 SLOAD DUP2 PUSH20 0xFFFFFFFFFFFFFFFFFFFFFFFFFFFFFFFFFFFFFFFF MUL NOT AND SWAP1 DUP4 PUSH20 0xFFFFFFFFFFFFFFFFFFFFFFFFFFFFFFFFFFFFFFFF AND MUL OR SWAP1 SSTORE POP DUP6 PUSH32 0x95052A17AB60D45D4E781447505FDD5406D8FEE5BA860AE46D7C9EB9CBE039B3 DUP3 DUP8 PUSH1 0x40 MLOAD PUSH2 0xF9B SWAP3 SWAP2 SWAP1 PUSH2 0x5B04 JUMP JUMPDEST PUSH1 0x40 MLOAD DUP1 SWAP2 SUB SWAP1 LOG2 POP POP POP POP POP POP JUMP JUMPDEST PUSH0 PUSH2 0xFB6 DUP4 DUP4 PUSH2 0x307F JUMP JUMPDEST SWAP1 POP SWAP3 SWAP2 POP POP JUMP JUMPDEST DUP3 PUSH0 PUSH2 0xFC9 DUP3 PUSH2 0xCFC JUMP JUMPDEST SWAP1 POP DUP1 PUSH20 0xFFFFFFFFFFFFFFFFFFFFFFFFFFFFFFFFFFFFFFFF AND CALLER PUSH20 0xFFFFFFFFFFFFFFFFFFFFFFFFFFFFFFFFFFFFFFFF AND EQ DUP1 PUSH2 0x1037 JUMPI POP PUSH2 0x1008 PUSH2 0x1E6D JUMP JUMPDEST PUSH20 0xFFFFFFFFFFFFFFFFFFFFFFFFFFFFFFFFFFFFFFFF AND CALLER PUSH20 0xFFFFFFFFFFFFFFFFFFFFFFFFFFFFFFFFFFFFFFFF AND EQ JUMPDEST PUSH2 0x1076 JUMPI PUSH1 0x40 MLOAD PUSH32 0x8C379A000000000000000000000000000000000000000000000000000000000 DUP2 MSTORE PUSH1 0x4 ADD PUSH2 0x106D SWAP1 PUSH2 0x5A7E JUMP JUMPDEST PUSH1 0x40 MLOAD DUP1 SWAP2 SUB SWAP1 REVERT JUMPDEST PUSH0 PUSH1 0x7 PUSH0 DUP8 DUP2 MSTORE PUSH1 0x20 ADD SWAP1 DUP2 MSTORE PUSH1 0x20 ADD PUSH0 KECCAK256 SWAP1 POP PUSH0 DUP2 PUSH0 ADD DUP1 SLOAD PUSH2 0x1099 SWAP1 PUSH2 0x5B58 JUMP JUMPDEST DUP1 PUSH1 0x1F ADD PUSH1 0x20 DUP1 SWAP2 DIV MUL PUSH1 0x20 ADD PUSH1 0x40 MLOAD SWAP1 DUP2 ADD PUSH1 0x40 MSTORE DUP1 SWAP3 SWAP2 SWAP1 DUP2 DUP2 MSTORE PUSH1 0x20 ADD DUP3 DUP1 SLOAD PUSH2 0x10C5 SWAP1 PUSH2 0x5B58 JUMP JUMPDEST DUP1 ISZERO PUSH2 0x1110 JUMPI DUP1 PUSH1 0x1F LT PUSH2 0x10E7 JUMPI PUSH2 0x100 DUP1 DUP4 SLOAD DIV MUL DUP4 MSTORE SWAP2 PUSH1 0x20 ADD SWAP2 PUSH2 0x1110 JUMP JUMPDEST DUP3 ADD SWAP2 SWAP1 PUSH0 MSTORE PUSH1 0x20 PUSH0 KECCAK256 SWAP1 JUMPDEST DUP2 SLOAD DUP2 MSTORE SWAP1 PUSH1 0x1 ADD SWAP1 PUSH1 0x20 ADD DUP1 DUP4 GT PUSH2 0x10F3 JUMPI DUP3 SWAP1 SUB PUSH1 0x1F AND DUP3 ADD SWAP2 JUMPDEST POP POP POP POP POP SWAP1 POP DUP6 DUP6 DUP4 PUSH0 ADD SWAP2 DUP3 PUSH2 0x1129 SWAP3 SWAP2 SWAP1 PUSH2 0x5D32 JUMP JUMPDEST POP DUP7 PUSH32 0xC38A676404F085E54223B29E255EF474A1F7707725D418FCF85FA5808D8155E0 DUP3 DUP9 DUP9 PUSH1 0x40 MLOAD PUSH2 0x115E SWAP4 SWAP3 SWAP2 SWAP1 PUSH2 0x5E2B JUMP JUMPDEST PUSH1 0x40 MLOAD DUP1 SWAP2 SUB SWAP1 LOG2 POP POP POP POP POP POP POP JUMP JUMPDEST PUSH1 0x60 PUSH2 0x117A DUP3 PUSH2 0x30E9 JUMP JUMPDEST PUSH2 0x1193 PUSH1 0x5 PUSH0 DUP5 DUP2 MSTORE PUSH1 0x20 ADD SWAP1 DUP2 MSTORE PUSH1 0x20 ADD PUSH0 KECCAK256 PUSH2 0x3136 JUMP JUMPDEST SWAP1 POP SWAP2 SWAP1 POP JUMP JUMPDEST PUSH2 0x11A4 CALLER DUP5 PUSH2 0x307F JUMP JUMPDEST PUSH2 0x11E7 JUMPI DUP3 CALLER PUSH1 0x40 MLOAD PUSH32 0x1294D2A900000000000000000000000000000000000000000000000000000000 DUP2 MSTORE PUSH1 0x4 ADD PUSH2 0x11DE SWAP3 SWAP2 SWAP1 PUSH2 0x5E62 JUMP JUMPDEST PUSH1 0x40 MLOAD DUP1 SWAP2 SUB SWAP1 REVERT JUMPDEST PUSH2 0x11F4 DUP6 DUP6 DUP6 DUP6 DUP6 PUSH2 0x2D53 JUMP JUMPDEST POP POP POP POP POP JUMP JUMPDEST PUSH1 0x60 PUSH2 0x1206 DUP3 PUSH2 0x3155 JUMP JUMPDEST SWAP1 POP SWAP2 SWAP1 POP JUMP JUMPDEST PUSH1 0x7 PUSH1 0x20 MSTORE DUP1 PUSH0 MSTORE PUSH1 0x40 PUSH0 KECCAK256 PUSH0 SWAP2 POP SWAP1 POP DUP1 PUSH0 ADD DUP1 SLOAD PUSH2 0x122C SWAP1 PUSH2 0x5B58 JUMP JUMPDEST DUP1 PUSH1 0x1F ADD PUSH1 0x20 DUP1 SWAP2 DIV MUL PUSH1 0x20 ADD PUSH1 0x40 MLOAD SWAP1 DUP2 ADD PUSH1 0x40 MSTORE DUP1 SWAP3 SWAP2 SWAP1 DUP2 DUP2 MSTORE PUSH1 0x20 ADD DUP3 DUP1 SLOAD PUSH2 0x1258 SWAP1 PUSH2 0x5B58 JUMP JUMPDEST DUP1 ISZERO PUSH2 0x12A3 JUMPI DUP1 PUSH1 0x1F LT PUSH2 0x127A JUMPI PUSH2 0x100 DUP1 DUP4 SLOAD DIV MUL DUP4 MSTORE SWAP2 PUSH1 0x20 ADD SWAP2 PUSH2 0x12A3 JUMP JUMPDEST DUP3 ADD SWAP2 SWAP1 PUSH0 MSTORE PUSH1 0x20 PUSH0 KECCAK256 SWAP1 JUMPDEST DUP2 SLOAD DUP2 MSTORE SWAP1 PUSH1 0x1 ADD SWAP1 PUSH1 0x20 ADD DUP1 DUP4 GT PUSH2 0x1286 JUMPI DUP3 SWAP1 SUB PUSH1 0x1F AND DUP3 ADD SWAP2 JUMPDEST POP POP POP POP POP SWAP1 DUP1 PUSH1 0x1 ADD PUSH0 SWAP1 SLOAD SWAP1 PUSH2 0x100 EXP SWAP1 DIV PUSH20 0xFFFFFFFFFFFFFFFFFFFFFFFFFFFFFFFFFFFFFFFF AND SWAP1 DUP1 PUSH1 0x2 ADD SLOAD SWAP1 DUP1 PUSH1 0x3 ADD SLOAD SWAP1 DUP1 PUSH1 0x6 ADD PUSH0 SWAP1 SLOAD SWAP1 PUSH2 0x100 EXP SWAP1 DIV PUSH1 0xFF AND SWAP1 DUP1 PUSH1 0x7 ADD SLOAD SWAP1 DUP1 PUSH1 0x8 ADD SLOAD SWAP1 POP DUP8 JUMP JUMPDEST DUP2 PUSH0 PUSH2 0x1307 DUP3 PUSH2 0xCFC JUMP JUMPDEST SWAP1 POP DUP1 PUSH20 0xFFFFFFFFFFFFFFFFFFFFFFFFFFFFFFFFFFFFFFFF AND CALLER PUSH20 0xFFFFFFFFFFFFFFFFFFFFFFFFFFFFFFFFFFFFFFFF AND EQ DUP1 PUSH2 0x1375 JUMPI POP PUSH2 0x1346 PUSH2 0x1E6D JUMP JUMPDEST PUSH20 0xFFFFFFFFFFFFFFFFFFFFFFFFFFFFFFFFFFFFFFFF AND CALLER PUSH20 0xFFFFFFFFFFFFFFFFFFFFFFFFFFFFFFFFFFFFFFFF AND EQ JUMPDEST PUSH2 0x13B4 JUMPI PUSH1 0x40 MLOAD PUSH32 0x8C379A000000000000000000000000000000000000000000000000000000000 DUP2 MSTORE PUSH1 0x4 ADD PUSH2 0x13AB SWAP1 PUSH2 0x5A7E JUMP JUMPDEST PUSH1 0x40 MLOAD DUP1 SWAP2 SUB SWAP1 REVERT JUMPDEST PUSH0 PUSH1 0x7 PUSH0 DUP7 DUP2 MSTORE PUSH1 0x20 ADD SWAP1 DUP2 MSTORE PUSH1 0x20 ADD PUSH0 KECCAK256 SWAP1 POP PUSH0 DUP2 PUSH1 0x8 ADD SLOAD SWAP1 POP DUP5 DUP3 PUSH1 0x8 ADD DUP2 SWAP1 SSTORE POP DUP6 PUSH32 0xB17606867AC4A9B1AB3D64B430D9DC5C3471D63C0BA48B54A95E8471FC517CF0 DUP3 DUP8 PUSH1 0x40 MLOAD PUSH2 0x140B SWAP3 SWAP2 SWAP1 PUSH2 0x5E89 JUMP JUMPDEST PUSH1 0x40 MLOAD DUP1 SWAP2 SUB SWAP1 LOG2 POP POP POP POP POP POP JUMP JUMPDEST PUSH1 0x60 DUP3 DUP3 SWAP1 POP PUSH8 0xFFFFFFFFFFFFFFFF DUP2 GT ISZERO PUSH2 0x143A JUMPI PUSH2 0x1439 PUSH2 0x45E4 JUMP JUMPDEST JUMPDEST PUSH1 0x40 MLOAD SWAP1 DUP1 DUP3 MSTORE DUP1 PUSH1 0x20 MUL PUSH1 0x20 ADD DUP3 ADD PUSH1 0x40 MSTORE DUP1 ISZERO PUSH2 0x146D JUMPI DUP2 PUSH1 0x20 ADD JUMPDEST PUSH1 0x60 DUP2 MSTORE PUSH1 0x20 ADD SWAP1 PUSH1 0x1 SWAP1 SUB SWAP1 DUP2 PUSH2 0x1458 JUMPI SWAP1 POP JUMPDEST POP SWAP1 POP PUSH0 JUMPDEST DUP4 DUP4 SWAP1 POP DUP2 LT ISZERO PUSH2 0x158A JUMPI PUSH0 PUSH0 ADDRESS PUSH20 0xFFFFFFFFFFFFFFFFFFFFFFFFFFFFFFFFFFFFFFFF AND DUP7 DUP7 DUP6 DUP2 DUP2 LT PUSH2 0x14A9 JUMPI PUSH2 0x14A8 PUSH2 0x59EE JUMP JUMPDEST JUMPDEST SWAP1 POP PUSH1 0x20 MUL DUP2 ADD SWAP1 PUSH2 0x14BB SWAP2 SWAP1 PUSH2 0x5EBC JUMP JUMPDEST PUSH1 0x40 MLOAD PUSH2 0x14C9 SWAP3 SWAP2 SWAP1 PUSH2 0x5F1E JUMP JUMPDEST PUSH0 PUSH1 0x40 MLOAD DUP1 DUP4 SUB DUP2 DUP6 GAS DELEGATECALL SWAP2 POP POP RETURNDATASIZE DUP1 PUSH0 DUP2 EQ PUSH2 0x1501 JUMPI PUSH1 0x40 MLOAD SWAP2 POP PUSH1 0x1F NOT PUSH1 0x3F RETURNDATASIZE ADD AND DUP3 ADD PUSH1 0x40 MSTORE RETURNDATASIZE DUP3 MSTORE RETURNDATASIZE PUSH0 PUSH1 0x20 DUP5 ADD RETURNDATACOPY PUSH2 0x1506 JUMP JUMPDEST PUSH1 0x60 SWAP2 POP JUMPDEST POP SWAP2 POP SWAP2 POP DUP2 PUSH2 0x155E JUMPI PUSH0 DUP2 MLOAD EQ PUSH2 0x1521 JUMPI DUP1 MLOAD DUP1 DUP3 PUSH1 0x20 ADD REVERT JUMPDEST DUP3 PUSH1 0x40 MLOAD PUSH32 0x234EB81900000000000000000000000000000000000000000000000000000000 DUP2 MSTORE PUSH1 0x4 ADD PUSH2 0x1555 SWAP2 SWAP1 PUSH2 0x45C7 JUMP JUMPDEST PUSH1 0x40 MLOAD DUP1 SWAP2 SUB SWAP1 REVERT JUMPDEST DUP1 DUP5 DUP5 DUP2 MLOAD DUP2 LT PUSH2 0x1572 JUMPI PUSH2 0x1571 PUSH2 0x59EE JUMP JUMPDEST JUMPDEST PUSH1 0x20 MUL PUSH1 0x20 ADD ADD DUP2 SWAP1 MSTORE POP DUP3 PUSH1 0x1 ADD SWAP3 POP POP POP PUSH2 0x1472 JUMP JUMPDEST POP SWAP3 SWAP2 POP POP JUMP JUMPDEST PUSH0 PUSH2 0x15D7 PUSH1 0x4 PUSH0 DUP5 PUSH20 0xFFFFFFFFFFFFFFFFFFFFFFFFFFFFFFFFFFFFFFFF AND PUSH20 0xFFFFFFFFFFFFFFFFFFFFFFFFFFFFFFFFFFFFFFFF AND DUP2 MSTORE PUSH1 0x20 ADD SWAP1 DUP2 MSTORE PUSH1 0x20 ADD PUSH0 KECCAK256 PUSH2 0x31F6 JUMP JUMPDEST SWAP1 POP SWAP2 SWAP1 POP JUMP JUMPDEST PUSH2 0x15E6 PUSH2 0x3209 JUMP JUMPDEST PUSH2 0x15EF PUSH0 PUSH2 0x2BC8 JUMP JUMPDEST JUMP JUMPDEST PUSH1 0x6 DUP1 PUSH0 ADD SLOAD SWAP1 POP DUP2 JUMP JUMPDEST PUSH0 DUP6 MLOAD SWAP1 POP DUP5 MLOAD DUP2 EQ ISZERO DUP1 PUSH2 0x1612 JUMPI POP DUP4 MLOAD DUP2 EQ ISZERO JUMPDEST DUP1 PUSH2 0x161E JUMPI POP DUP3 MLOAD DUP2 EQ ISZERO JUMPDEST DUP1 PUSH2 0x162A JUMPI POP DUP2 MLOAD DUP2 EQ ISZERO JUMPDEST ISZERO PUSH2 0x1661 JUMPI PUSH1 0x40 MLOAD PUSH32 0x93A8311900000000000000000000000000000000000000000000000000000000 DUP2 MSTORE PUSH1 0x4 ADD PUSH1 0x40 MLOAD DUP1 SWAP2 SUB SWAP1 REVERT JUMPDEST PUSH0 JUMPDEST DUP2 DUP2 LT ISZERO PUSH2 0x1705 JUMPI PUSH2 0x16FA DUP8 DUP3 DUP2 MLOAD DUP2 LT PUSH2 0x1681 JUMPI PUSH2 0x1680 PUSH2 0x59EE JUMP JUMPDEST JUMPDEST PUSH1 0x20 MUL PUSH1 0x20 ADD ADD MLOAD DUP8 DUP4 DUP2 MLOAD DUP2 LT PUSH2 0x169C JUMPI PUSH2 0x169B PUSH2 0x59EE JUMP JUMPDEST JUMPDEST PUSH1 0x20 MUL PUSH1 0x20 ADD ADD MLOAD DUP8 DUP5 DUP2 MLOAD DUP2 LT PUSH2 0x16B7 JUMPI PUSH2 0x16B6 PUSH2 0x59EE JUMP JUMPDEST JUMPDEST PUSH1 0x20 MUL PUSH1 0x20 ADD ADD MLOAD DUP8 DUP6 DUP2 MLOAD DUP2 LT PUSH2 0x16D2 JUMPI PUSH2 0x16D1 PUSH2 0x59EE JUMP JUMPDEST JUMPDEST PUSH1 0x20 MUL PUSH1 0x20 ADD ADD MLOAD DUP8 DUP7 DUP2 MLOAD DUP2 LT PUSH2 0x16ED JUMPI PUSH2 0x16EC PUSH2 0x59EE JUMP JUMPDEST JUMPDEST PUSH1 0x20 MUL PUSH1 0x20 ADD ADD MLOAD PUSH2 0x119A JUMP JUMPDEST DUP1 PUSH1 0x1 ADD SWAP1 POP PUSH2 0x1663 JUMP JUMPDEST POP POP POP POP POP POP POP JUMP JUMPDEST DUP1 PUSH0 PUSH2 0x1719 DUP3 PUSH2 0xCFC JUMP JUMPDEST SWAP1 POP DUP1 PUSH20 0xFFFFFFFFFFFFFFFFFFFFFFFFFFFFFFFFFFFFFFFF AND CALLER PUSH20 0xFFFFFFFFFFFFFFFFFFFFFFFFFFFFFFFFFFFFFFFF AND EQ DUP1 PUSH2 0x1787 JUMPI POP PUSH2 0x1758 PUSH2 0x1E6D JUMP JUMPDEST PUSH20 0xFFFFFFFFFFFFFFFFFFFFFFFFFFFFFFFFFFFFFFFF AND CALLER PUSH20 0xFFFFFFFFFFFFFFFFFFFFFFFFFFFFFFFFFFFFFFFF AND EQ JUMPDEST PUSH2 0x17C6 JUMPI PUSH1 0x40 MLOAD PUSH32 0x8C379A000000000000000000000000000000000000000000000000000000000 DUP2 MSTORE PUSH1 0x4 ADD PUSH2 0x17BD SWAP1 PUSH2 0x5A7E JUMP JUMPDEST PUSH1 0x40 MLOAD DUP1 SWAP2 SUB SWAP1 REVERT JUMPDEST PUSH0 PUSH1 0x7 PUSH0 DUP6 DUP2 MSTORE PUSH1 0x20 ADD SWAP1 DUP2 MSTORE PUSH1 0x20 ADD PUSH0 KECCAK256 SWAP1 POP PUSH0 PUSH0 SWAP1 POP JUMPDEST DUP2 PUSH1 0x5 ADD DUP1 SLOAD SWAP1 POP DUP2 LT ISZERO PUSH2 0x191D JUMPI DUP6 DUP3 PUSH1 0x5 ADD DUP3 DUP2 SLOAD DUP2 LT PUSH2 0x1805 JUMPI PUSH2 0x1804 PUSH2 0x59EE JUMP JUMPDEST JUMPDEST SWAP1 PUSH0 MSTORE PUSH1 0x20 PUSH0 KECCAK256 SWAP1 PUSH1 0x3 MUL ADD PUSH0 ADD SLOAD SUB PUSH2 0x1910 JUMPI PUSH0 PUSH1 0x1 DUP4 PUSH1 0x5 ADD DUP1 SLOAD SWAP1 POP PUSH2 0x182E SWAP2 SWAP1 PUSH2 0x5F63 JUMP JUMPDEST SWAP1 POP DUP1 DUP3 EQ PUSH2 0x189B JUMPI DUP3 PUSH1 0x5 ADD DUP2 DUP2 SLOAD DUP2 LT PUSH2 0x184D JUMPI PUSH2 0x184C PUSH2 0x59EE JUMP JUMPDEST JUMPDEST SWAP1 PUSH0 MSTORE PUSH1 0x20 PUSH0 KECCAK256 SWAP1 PUSH1 0x3 MUL ADD DUP4 PUSH1 0x5 ADD DUP4 DUP2 SLOAD DUP2 LT PUSH2 0x186F JUMPI PUSH2 0x186E PUSH2 0x59EE JUMP JUMPDEST JUMPDEST SWAP1 PUSH0 MSTORE PUSH1 0x20 PUSH0 KECCAK256 SWAP1 PUSH1 0x3 MUL ADD PUSH0 DUP3 ADD SLOAD DUP2 PUSH0 ADD SSTORE PUSH1 0x1 DUP3 ADD SLOAD DUP2 PUSH1 0x1 ADD SSTORE PUSH1 0x2 DUP3 ADD SLOAD DUP2 PUSH1 0x2 ADD SSTORE SWAP1 POP POP JUMPDEST DUP3 PUSH1 0x5 ADD DUP1 SLOAD DUP1 PUSH2 0x18AF JUMPI PUSH2 0x18AE PUSH2 0x5F96 JUMP JUMPDEST JUMPDEST PUSH1 0x1 SWAP1 SUB DUP2 DUP2 SWAP1 PUSH0 MSTORE PUSH1 0x20 PUSH0 KECCAK256 SWAP1 PUSH1 0x3 MUL ADD PUSH0 PUSH0 DUP3 ADD PUSH0 SWAP1 SSTORE PUSH1 0x1 DUP3 ADD PUSH0 SWAP1 SSTORE PUSH1 0x2 DUP3 ADD PUSH0 SWAP1 SSTORE POP POP SWAP1 SSTORE DUP6 DUP8 PUSH32 0xF1387B2F8963CA7947C75FAA29A4C7DE0859D44C5F9A658761ACBDC5D539976B PUSH1 0x40 MLOAD PUSH1 0x40 MLOAD DUP1 SWAP2 SUB SWAP1 LOG3 POP POP POP PUSH2 0x1959 JUMP JUMPDEST DUP1 DUP1 PUSH1 0x1 ADD SWAP2 POP POP PUSH2 0x17DF JUMP JUMPDEST POP PUSH1 0x40 MLOAD PUSH32 0x8C379A000000000000000000000000000000000000000000000000000000000 DUP2 MSTORE PUSH1 0x4 ADD PUSH2 0x1950 SWAP1 PUSH2 0x600D JUMP JUMPDEST PUSH1 0x40 MLOAD DUP1 SWAP2 SUB SWAP1 REVERT JUMPDEST POP POP POP POP JUMP JUMPDEST PUSH2 0x1967 PUSH2 0x3209 JUMP JUMPDEST PUSH0 CALLVALUE EQ PUSH2 0x19A0 JUMPI PUSH1 0x40 MLOAD PUSH32 0xF36BA73700000000000000000000000000000000000000000000000000000000 DUP2 MSTORE PUSH1 0x4 ADD PUSH1 0x40 MLOAD DUP1 SWAP2 SUB SWAP1 REVERT JUMPDEST PUSH2 0x19AA DUP3 DUP3 PUSH2 0x3287 JUMP JUMPDEST POP POP JUMP JUMPDEST DUP4 PUSH0 PUSH2 0x19B9 DUP3 PUSH2 0xCFC JUMP JUMPDEST SWAP1 POP DUP1 PUSH20 0xFFFFFFFFFFFFFFFFFFFFFFFFFFFFFFFFFFFFFFFF AND CALLER PUSH20 0xFFFFFFFFFFFFFFFFFFFFFFFFFFFFFFFFFFFFFFFF AND EQ DUP1 PUSH2 0x1A27 JUMPI POP PUSH2 0x19F8 PUSH2 0x1E6D JUMP JUMPDEST PUSH20 0xFFFFFFFFFFFFFFFFFFFFFFFFFFFFFFFFFFFFFFFF AND CALLER PUSH20 0xFFFFFFFFFFFFFFFFFFFFFFFFFFFFFFFFFFFFFFFF AND EQ JUMPDEST PUSH2 0x1A66 JUMPI PUSH1 0x40 MLOAD PUSH32 0x8C379A000000000000000000000000000000000000000000000000000000000 DUP2 MSTORE PUSH1 0x4 ADD PUSH2 0x1A5D SWAP1 PUSH2 0x5A7E JUMP JUMPDEST PUSH1 0x40 MLOAD DUP1 SWAP2 SUB SWAP1 REVERT JUMPDEST PUSH0 PUSH1 0x7 PUSH0 DUP9 DUP2 MSTORE PUSH1 0x20 ADD SWAP1 DUP2 MSTORE PUSH1 0x20 ADD PUSH0 KECCAK256 SWAP1 POP PUSH0 PUSH2 0x1B0F DUP16 DUP16 DUP1 DUP1 PUSH1 0x1F ADD PUSH1 0x20 DUP1 SWAP2 DIV MUL PUSH1 0x20 ADD PUSH1 0x40 MLOAD SWAP1 DUP2 ADD PUSH1 0x40 MSTORE DUP1 SWAP4 SWAP3 SWAP2 SWAP1 DUP2 DUP2 MSTORE PUSH1 0x20 ADD DUP4 DUP4 DUP1 DUP3 DUP5 CALLDATACOPY PUSH0 DUP2 DUP5 ADD MSTORE PUSH1 0x1F NOT PUSH1 0x1F DUP3 ADD AND SWAP1 POP DUP1 DUP4 ADD SWAP3 POP POP POP POP POP POP POP DUP15 DUP15 DUP1 DUP1 PUSH1 0x1F ADD PUSH1 0x20 DUP1 SWAP2 DIV MUL PUSH1 0x20 ADD PUSH1 0x40 MLOAD SWAP1 DUP2 ADD PUSH1 0x40 MSTORE DUP1 SWAP4 SWAP3 SWAP2 SWAP1 DUP2 DUP2 MSTORE PUSH1 0x20 ADD DUP4 DUP4 DUP1 DUP3 DUP5 CALLDATACOPY PUSH0 DUP2 DUP5 ADD MSTORE PUSH1 0x1F NOT PUSH1 0x1F DUP3 ADD AND SWAP1 POP DUP1 DUP4 ADD SWAP3 POP POP POP POP POP POP POP DUP9 DUP15 DUP15 DUP15 PUSH2 0x32F0 JUMP JUMPDEST SWAP1 POP DUP2 PUSH1 0x4 ADD PUSH1 0x40 MLOAD DUP1 PUSH1 0x40 ADD PUSH1 0x40 MSTORE DUP1 DUP8 PUSH1 0x2 DUP2 GT ISZERO PUSH2 0x1B33 JUMPI PUSH2 0x1B32 PUSH2 0x4CD5 JUMP JUMPDEST JUMPDEST DUP2 MSTORE PUSH1 0x20 ADD DUP4 DUP2 MSTORE POP SWAP1 DUP1 PUSH1 0x1 DUP2 SLOAD ADD DUP1 DUP3 SSTORE DUP1 SWAP2 POP POP PUSH1 0x1 SWAP1 SUB SWAP1 PUSH0 MSTORE PUSH1 0x20 PUSH0 KECCAK256 SWAP1 PUSH1 0x2 MUL ADD PUSH0 SWAP1 SWAP2 SWAP1 SWAP2 SWAP1 SWAP2 POP PUSH0 DUP3 ADD MLOAD DUP2 PUSH0 ADD PUSH0 PUSH2 0x100 EXP DUP2 SLOAD DUP2 PUSH1 0xFF MUL NOT AND SWAP1 DUP4 PUSH1 0x2 DUP2 GT ISZERO PUSH2 0x1B8A JUMPI PUSH2 0x1B89 PUSH2 0x4CD5 JUMP JUMPDEST JUMPDEST MUL OR SWAP1 SSTORE POP PUSH1 0x20 DUP3 ADD MLOAD DUP2 PUSH1 0x1 ADD SSTORE POP POP DUP8 PUSH1 0x7 PUSH0 DUP4 DUP2 MSTORE PUSH1 0x20 ADD SWAP1 DUP2 MSTORE PUSH1 0x20 ADD PUSH0 KECCAK256 PUSH1 0x2 ADD DUP2 SWAP1 SSTORE POP DUP7 PUSH1 0x7 PUSH0 DUP4 DUP2 MSTORE PUSH1 0x20 ADD SWAP1 DUP2 MSTORE PUSH1 0x20 ADD PUSH0 KECCAK256 PUSH1 0x3 ADD DUP2 SWAP1 SSTORE POP DUP8 DUP2 PUSH32 0x7E3E632423F80DBC9E266B3A3E447A2CC8EA3F2C9E0A9A7595D73FA97311A377 DUP8 PUSH1 0x40 MLOAD PUSH2 0x1BFE SWAP2 SWAP1 PUSH2 0x6071 JUMP JUMPDEST PUSH1 0x40 MLOAD DUP1 SWAP2 SUB SWAP1 LOG3 POP POP POP POP POP POP POP POP POP POP POP POP POP POP POP JUMP JUMPDEST PUSH0 PUSH2 0x1C21 DUP4 PUSH2 0xCFC JUMP JUMPDEST SWAP1 POP CALLER PUSH20 0xFFFFFFFFFFFFFFFFFFFFFFFFFFFFFFFFFFFFFFFF AND DUP2 PUSH20 0xFFFFFFFFFFFFFFFFFFFFFFFFFFFFFFFFFFFFFFFF AND EQ PUSH2 0x1C97 JUMPI DUP1 DUP4 CALLER PUSH1 0x40 MLOAD PUSH32 0x5B271EA200000000000000000000000000000000000000000000000000000000 DUP2 MSTORE PUSH1 0x4 ADD PUSH2 0x1C8E SWAP4 SWAP3 SWAP2 SWAP1 PUSH2 0x608A JUMP JUMPDEST PUSH1 0x40 MLOAD DUP1 SWAP2 SUB SWAP1 REVERT JUMPDEST PUSH0 PUSH20 0xFFFFFFFFFFFFFFFFFFFFFFFFFFFFFFFFFFFFFFFF AND DUP5 PUSH20 0xFFFFFFFFFFFFFFFFFFFFFFFFFFFFFFFFFFFFFFFF AND SUB PUSH2 0x1CFC JUMPI PUSH1 0x40 MLOAD PUSH32 0x9577B8B300000000000000000000000000000000000000000000000000000000 DUP2 MSTORE PUSH1 0x4 ADD PUSH1 0x40 MLOAD DUP1 SWAP2 SUB SWAP1 REVERT JUMPDEST DUP4 PUSH20 0xFFFFFFFFFFFFFFFFFFFFFFFFFFFFFFFFFFFFFFFF AND DUP2 PUSH20 0xFFFFFFFFFFFFFFFFFFFFFFFFFFFFFFFFFFFFFFFF AND SUB PUSH2 0x1D61 JUMPI PUSH1 0x40 MLOAD PUSH32 0x89FDAD6200000000000000000000000000000000000000000000000000000000 DUP2 MSTORE PUSH1 0x4 ADD PUSH1 0x40 MLOAD DUP1 SWAP2 SUB SWAP1 REVERT JUMPDEST PUSH0 PUSH2 0x1D85 DUP6 PUSH1 0x5 PUSH0 DUP8 DUP2 MSTORE PUSH1 0x20 ADD SWAP1 DUP2 MSTORE PUSH1 0x20 ADD PUSH0 KECCAK256 PUSH2 0x3463 SWAP1 SWAP2 SWAP1 PUSH4 0xFFFFFFFF AND JUMP JUMPDEST SWAP1 POP DUP1 PUSH2 0x1DCB JUMPI DUP5 DUP5 PUSH1 0x40 MLOAD PUSH32 0xA7626B6800000000000000000000000000000000000000000000000000000000 DUP2 MSTORE PUSH1 0x4 ADD PUSH2 0x1DC2 SWAP3 SWAP2 SWAP1 PUSH2 0x60BF JUMP JUMPDEST PUSH1 0x40 MLOAD DUP1 SWAP2 SUB SWAP1 REVERT JUMPDEST DUP4 DUP3 PUSH20 0xFFFFFFFFFFFFFFFFFFFFFFFFFFFFFFFFFFFFFFFF AND DUP7 PUSH20 0xFFFFFFFFFFFFFFFFFFFFFFFFFFFFFFFFFFFFFFFF AND PUSH32 0x1B1B58AA2EC0CEC2228B2D37124556D41F5A1F7B12F089171F896CC236671215 DUP7 PUSH1 0x40 MLOAD PUSH2 0x1E29 SWAP2 SWAP1 PUSH2 0x458F JUMP JUMPDEST PUSH1 0x40 MLOAD DUP1 SWAP2 SUB SWAP1 LOG4 PUSH0 CALLER DUP6 PUSH1 0x1 DUP7 PUSH1 0x40 MLOAD PUSH1 0x20 ADD PUSH2 0x1E4A SWAP5 SWAP4 SWAP3 SWAP2 SWAP1 PUSH2 0x60E6 JUMP JUMPDEST PUSH1 0x40 MLOAD PUSH1 0x20 DUP2 DUP4 SUB SUB DUP2 MSTORE SWAP1 PUSH1 0x40 MSTORE SWAP1 POP PUSH2 0x1E65 DUP7 DUP3 PUSH2 0x3490 JUMP JUMPDEST POP POP POP POP POP POP JUMP JUMPDEST PUSH0 PUSH0 PUSH0 SWAP1 SLOAD SWAP1 PUSH2 0x100 EXP SWAP1 DIV PUSH20 0xFFFFFFFFFFFFFFFFFFFFFFFFFFFFFFFFFFFFFFFF AND SWAP1 POP SWAP1 JUMP JUMPDEST DUP2 PUSH0 PUSH2 0x1E9F DUP3 PUSH2 0xCFC JUMP JUMPDEST SWAP1 POP DUP1 PUSH20 0xFFFFFFFFFFFFFFFFFFFFFFFFFFFFFFFFFFFFFFFF AND CALLER PUSH20 0xFFFFFFFFFFFFFFFFFFFFFFFFFFFFFFFFFFFFFFFF AND EQ DUP1 PUSH2 0x1F0D JUMPI POP PUSH2 0x1EDE PUSH2 0x1E6D JUMP JUMPDEST PUSH20 0xFFFFFFFFFFFFFFFFFFFFFFFFFFFFFFFFFFFFFFFF AND CALLER PUSH20 0xFFFFFFFFFFFFFFFFFFFFFFFFFFFFFFFFFFFFFFFF AND EQ JUMPDEST PUSH2 0x1F4C JUMPI PUSH1 0x40 MLOAD PUSH32 0x8C379A000000000000000000000000000000000000000000000000000000000 DUP2 MSTORE PUSH1 0x4 ADD PUSH2 0x1F43 SWAP1 PUSH2 0x5A7E JUMP JUMPDEST PUSH1 0x40 MLOAD DUP1 SWAP2 SUB SWAP1 REVERT JUMPDEST PUSH0 PUSH1 0x7 PUSH0 DUP7 DUP2 MSTORE PUSH1 0x20 ADD SWAP1 DUP2 MSTORE PUSH1 0x20 ADD PUSH0 KECCAK256 SWAP1 POP PUSH0 PUSH1 0x7 PUSH0 DUP7 DUP2 MSTORE PUSH1 0x20 ADD SWAP1 DUP2 MSTORE PUSH1 0x20 ADD PUSH0 KECCAK256 SWAP1 POP DUP6 DUP2 PUSH1 0x2 ADD SLOAD EQ PUSH2 0x1FBA JUMPI PUSH1 0x40 MLOAD PUSH32 0x8C379A000000000000000000000000000000000000000000000000000000000 DUP2 MSTORE PUSH1 0x4 ADD PUSH2 0x1FB1 SWAP1 PUSH2 0x617A JUMP JUMPDEST PUSH1 0x40 MLOAD DUP1 SWAP2 SUB SWAP1 REVERT JUMPDEST PUSH0 PUSH0 SWAP1 POP JUMPDEST DUP3 PUSH1 0x4 ADD DUP1 SLOAD SWAP1 POP DUP2 LT ISZERO PUSH2 0x2136 JUMPI DUP6 DUP4 PUSH1 0x4 ADD DUP3 DUP2 SLOAD DUP2 LT PUSH2 0x1FE5 JUMPI PUSH2 0x1FE4 PUSH2 0x59EE JUMP JUMPDEST JUMPDEST SWAP1 PUSH0 MSTORE PUSH1 0x20 PUSH0 KECCAK256 SWAP1 PUSH1 0x2 MUL ADD PUSH1 0x1 ADD SLOAD SUB PUSH2 0x2129 JUMPI PUSH0 PUSH1 0x1 DUP5 PUSH1 0x4 ADD DUP1 SLOAD SWAP1 POP PUSH2 0x200F SWAP2 SWAP1 PUSH2 0x5F63 JUMP JUMPDEST SWAP1 POP DUP1 DUP3 EQ PUSH2 0x20A3 JUMPI DUP4 PUSH1 0x4 ADD DUP2 DUP2 SLOAD DUP2 LT PUSH2 0x202E JUMPI PUSH2 0x202D PUSH2 0x59EE JUMP JUMPDEST JUMPDEST SWAP1 PUSH0 MSTORE PUSH1 0x20 PUSH0 KECCAK256 SWAP1 PUSH1 0x2 MUL ADD DUP5 PUSH1 0x4 ADD DUP4 DUP2 SLOAD DUP2 LT PUSH2 0x2050 JUMPI PUSH2 0x204F PUSH2 0x59EE JUMP JUMPDEST JUMPDEST SWAP1 PUSH0 MSTORE PUSH1 0x20 PUSH0 KECCAK256 SWAP1 PUSH1 0x2 MUL ADD PUSH0 DUP3 ADD PUSH0 SWAP1 SLOAD SWAP1 PUSH2 0x100 EXP SWAP1 DIV PUSH1 0xFF AND DUP2 PUSH0 ADD PUSH0 PUSH2 0x100 EXP DUP2 SLOAD DUP2 PUSH1 0xFF MUL NOT AND SWAP1 DUP4 PUSH1 0x2 DUP2 GT ISZERO PUSH2 0x2090 JUMPI PUSH2 0x208F PUSH2 0x4CD5 JUMP JUMPDEST JUMPDEST MUL OR SWAP1 SSTORE POP PUSH1 0x1 DUP3 ADD SLOAD DUP2 PUSH1 0x1 ADD SSTORE SWAP1 POP POP JUMPDEST DUP4 PUSH1 0x4 ADD DUP1 SLOAD DUP1 PUSH2 0x20B7 JUMPI PUSH2 0x20B6 PUSH2 0x5F96 JUMP JUMPDEST JUMPDEST PUSH1 0x1 SWAP1 SUB DUP2 DUP2 SWAP1 PUSH0 MSTORE PUSH1 0x20 PUSH0 KECCAK256 SWAP1 PUSH1 0x2 MUL ADD PUSH0 PUSH0 DUP3 ADD PUSH0 PUSH2 0x100 EXP DUP2 SLOAD SWAP1 PUSH1 0xFF MUL NOT AND SWAP1 SSTORE PUSH1 0x1 DUP3 ADD PUSH0 SWAP1 SSTORE POP POP SWAP1 SSTORE PUSH0 PUSH0 SHL DUP4 PUSH1 0x2 ADD DUP2 SWAP1 SSTORE POP DUP8 DUP8 PUSH32 0xD22EF99C12AEAECAC27F6067207B23AC6A9AE5F21E97134B39E98320AA04FA5D PUSH1 0x40 MLOAD PUSH1 0x40 MLOAD DUP1 SWAP2 SUB SWAP1 LOG3 POP POP POP POP PUSH2 0x2172 JUMP JUMPDEST DUP1 DUP1 PUSH1 0x1 ADD SWAP2 POP POP PUSH2 0x1FBF JUMP JUMPDEST POP PUSH1 0x40 MLOAD PUSH32 0x8C379A000000000000000000000000000000000000000000000000000000000 DUP2 MSTORE PUSH1 0x4 ADD PUSH2 0x2169 SWAP1 PUSH2 0x61E2 JUMP JUMPDEST PUSH1 0x40 MLOAD DUP1 SWAP2 SUB SWAP1 REVERT JUMPDEST POP POP POP POP JUMP JUMPDEST PUSH2 0x2180 PUSH2 0x3209 JUMP JUMPDEST PUSH0 CALLVALUE EQ PUSH2 0x21B9 JUMPI PUSH1 0x40 MLOAD PUSH32 0xF36BA73700000000000000000000000000000000000000000000000000000000 DUP2 MSTORE PUSH1 0x4 ADD PUSH1 0x40 MLOAD DUP1 SWAP2 SUB SWAP1 REVERT JUMPDEST PUSH2 0x21C3 DUP3 DUP3 PUSH2 0x34C1 JUMP JUMPDEST POP POP JUMP JUMPDEST PUSH1 0x60 PUSH2 0x220E PUSH1 0x4 PUSH0 DUP5 PUSH20 0xFFFFFFFFFFFFFFFFFFFFFFFFFFFFFFFFFFFFFFFF AND PUSH20 0xFFFFFFFFFFFFFFFFFFFFFFFFFFFFFFFFFFFFFFFF AND DUP2 MSTORE PUSH1 0x20 ADD SWAP1 DUP2 MSTORE PUSH1 0x20 ADD PUSH0 KECCAK256 PUSH2 0x3592 JUMP JUMPDEST SWAP1 POP SWAP2 SWAP1 POP JUMP JUMPDEST PUSH2 0x221D PUSH2 0x3209 JUMP JUMPDEST DUP2 MLOAD DUP4 MLOAD EQ ISZERO DUP1 PUSH2 0x2230 JUMPI POP DUP1 MLOAD DUP3 MLOAD EQ ISZERO JUMPDEST ISZERO PUSH2 0x2267 JUMPI PUSH1 0x40 MLOAD PUSH32 0x2FA71DFE00000000000000000000000000000000000000000000000000000000 DUP2 MSTORE PUSH1 0x4 ADD PUSH1 0x40 MLOAD DUP1 SWAP2 SUB SWAP1 REVERT JUMPDEST PUSH0 DUP4 MLOAD SUB PUSH2 0x22A1 JUMPI PUSH1 0x40 MLOAD PUSH32 0x80C9830500000000000000000000000000000000000000000000000000000000 DUP2 MSTORE PUSH1 0x4 ADD PUSH1 0x40 MLOAD DUP1 SWAP2 SUB SWAP1 REVERT JUMPDEST PUSH0 JUMPDEST DUP4 MLOAD DUP2 LT ISZERO PUSH2 0x2310 JUMPI PUSH2 0x2305 DUP5 DUP3 DUP2 MLOAD DUP2 LT PUSH2 0x22C2 JUMPI PUSH2 0x22C1 PUSH2 0x59EE JUMP JUMPDEST JUMPDEST PUSH1 0x20 MUL PUSH1 0x20 ADD ADD MLOAD DUP5 DUP4 DUP2 MLOAD DUP2 LT PUSH2 0x22DD JUMPI PUSH2 0x22DC PUSH2 0x59EE JUMP JUMPDEST JUMPDEST PUSH1 0x20 MUL PUSH1 0x20 ADD ADD MLOAD DUP5 DUP5 DUP2 MLOAD DUP2 LT PUSH2 0x22F8 JUMPI PUSH2 0x22F7 PUSH2 0x59EE JUMP JUMPDEST JUMPDEST PUSH1 0x20 MUL PUSH1 0x20 ADD ADD MLOAD PUSH2 0x35B1 JUMP JUMPDEST DUP1 PUSH1 0x1 ADD SWAP1 POP PUSH2 0x22A3 JUMP JUMPDEST POP POP POP POP JUMP JUMPDEST DUP2 PUSH0 PUSH2 0x2321 DUP3 PUSH2 0xCFC JUMP JUMPDEST SWAP1 POP DUP1 PUSH20 0xFFFFFFFFFFFFFFFFFFFFFFFFFFFFFFFFFFFFFFFF AND CALLER PUSH20 0xFFFFFFFFFFFFFFFFFFFFFFFFFFFFFFFFFFFFFFFF AND EQ DUP1 PUSH2 0x238F JUMPI POP PUSH2 0x2360 PUSH2 0x1E6D JUMP JUMPDEST PUSH20 0xFFFFFFFFFFFFFFFFFFFFFFFFFFFFFFFFFFFFFFFF AND CALLER PUSH20 0xFFFFFFFFFFFFFFFFFFFFFFFFFFFFFFFFFFFFFFFF AND EQ JUMPDEST PUSH2 0x23CE JUMPI PUSH1 0x40 MLOAD PUSH32 0x8C379A000000000000000000000000000000000000000000000000000000000 DUP2 MSTORE PUSH1 0x4 ADD PUSH2 0x23C5 SWAP1 PUSH2 0x5A7E JUMP JUMPDEST PUSH1 0x40 MLOAD DUP1 SWAP2 SUB SWAP1 REVERT JUMPDEST PUSH0 DUP4 GT PUSH2 0x2410 JUMPI PUSH1 0x40 MLOAD PUSH32 0x8C379A000000000000000000000000000000000000000000000000000000000 DUP2 MSTORE PUSH1 0x4 ADD PUSH2 0x2407 SWAP1 PUSH2 0x624A JUMP JUMPDEST PUSH1 0x40 MLOAD DUP1 SWAP2 SUB SWAP1 REVERT JUMPDEST PUSH0 PUSH1 0x7 PUSH0 DUP7 DUP2 MSTORE PUSH1 0x20 ADD SWAP1 DUP2 MSTORE PUSH1 0x20 ADD PUSH0 KECCAK256 SWAP1 POP PUSH0 DUP2 PUSH1 0x7 ADD SLOAD SWAP1 POP DUP5 DUP3 PUSH1 0x7 ADD DUP2 SWAP1 SSTORE POP DUP6 PUSH32 0xB4F816D44398B4E75606DE9B4CBBEB9312706C946F6DCF9FE95FC6E86C0C9E07 DUP3 DUP8 PUSH1 0x40 MLOAD PUSH2 0x2467 SWAP3 SWAP2 SWAP1 PUSH2 0x5E89 JUMP JUMPDEST PUSH1 0x40 MLOAD DUP1 SWAP2 SUB SWAP1 LOG2 POP POP POP POP POP POP JUMP JUMPDEST DUP3 PUSH0 PUSH2 0x2482 DUP3 PUSH2 0xCFC JUMP JUMPDEST SWAP1 POP DUP1 PUSH20 0xFFFFFFFFFFFFFFFFFFFFFFFFFFFFFFFFFFFFFFFF AND CALLER PUSH20 0xFFFFFFFFFFFFFFFFFFFFFFFFFFFFFFFFFFFFFFFF AND EQ DUP1 PUSH2 0x24F0 JUMPI POP PUSH2 0x24C1 PUSH2 0x1E6D JUMP JUMPDEST PUSH20 0xFFFFFFFFFFFFFFFFFFFFFFFFFFFFFFFFFFFFFFFF AND CALLER PUSH20 0xFFFFFFFFFFFFFFFFFFFFFFFFFFFFFFFFFFFFFFFF AND EQ JUMPDEST PUSH2 0x252F JUMPI PUSH1 0x40 MLOAD PUSH32 0x8C379A000000000000000000000000000000000000000000000000000000000 DUP2 MSTORE PUSH1 0x4 ADD PUSH2 0x2526 SWAP1 PUSH2 0x5A7E JUMP JUMPDEST PUSH1 0x40 MLOAD DUP1 SWAP2 SUB SWAP1 REVERT JUMPDEST PUSH2 0x253A DUP6 DUP6 DUP6 PUSH2 0x35B1 JUMP JUMPDEST POP POP POP POP POP JUMP JUMPDEST PUSH0 PUSH2 0x254B DUP5 PUSH2 0xCFC JUMP JUMPDEST SWAP1 POP DUP1 PUSH20 0xFFFFFFFFFFFFFFFFFFFFFFFFFFFFFFFFFFFFFFFF AND CALLER PUSH20 0xFFFFFFFFFFFFFFFFFFFFFFFFFFFFFFFFFFFFFFFF AND EQ PUSH2 0x25F5 JUMPI CALLER PUSH20 0xFFFFFFFFFFFFFFFFFFFFFFFFFFFFFFFFFFFFFFFF AND DUP6 PUSH20 0xFFFFFFFFFFFFFFFFFFFFFFFFFFFFFFFFFFFFFFFF AND EQ PUSH2 0x25F4 JUMPI CALLER DUP2 DUP6 PUSH1 0x40 MLOAD PUSH32 0x760B5ACD00000000000000000000000000000000000000000000000000000000 DUP2 MSTORE PUSH1 0x4 ADD PUSH2 0x25EB SWAP4 SWAP3 SWAP2 SWAP1 PUSH2 0x6268 JUMP JUMPDEST PUSH1 0x40 MLOAD DUP1 SWAP2 SUB SWAP1 REVERT JUMPDEST JUMPDEST PUSH0 PUSH20 0xFFFFFFFFFFFFFFFFFFFFFFFFFFFFFFFFFFFFFFFF AND DUP6 PUSH20 0xFFFFFFFFFFFFFFFFFFFFFFFFFFFFFFFFFFFFFFFF AND SUB PUSH2 0x265A JUMPI PUSH1 0x40 MLOAD PUSH32 0x9577B8B300000000000000000000000000000000000000000000000000000000 DUP2 MSTORE PUSH1 0x4 ADD PUSH1 0x40 MLOAD DUP1 SWAP2 SUB SWAP1 REVERT JUMPDEST DUP5 PUSH20 0xFFFFFFFFFFFFFFFFFFFFFFFFFFFFFFFFFFFFFFFF AND DUP2 PUSH20 0xFFFFFFFFFFFFFFFFFFFFFFFFFFFFFFFFFFFFFFFF AND SUB PUSH2 0x26BF JUMPI PUSH1 0x40 MLOAD PUSH32 0x89FDAD6200000000000000000000000000000000000000000000000000000000 DUP2 MSTORE PUSH1 0x4 ADD PUSH1 0x40 MLOAD DUP1 SWAP2 SUB SWAP1 REVERT JUMPDEST PUSH2 0x26CC DUP6 DUP3 DUP7 DUP7 DUP7 PUSH2 0x3636 JUMP JUMPDEST DUP3 ISZERO PUSH2 0x2707 JUMPI PUSH0 DUP2 DUP6 PUSH0 DUP6 PUSH1 0x40 MLOAD PUSH1 0x20 ADD PUSH2 0x26EA SWAP5 SWAP4 SWAP3 SWAP2 SWAP1 PUSH2 0x60E6 JUMP JUMPDEST PUSH1 0x40 MLOAD PUSH1 0x20 DUP2 DUP4 SUB SUB DUP2 MSTORE SWAP1 PUSH1 0x40 MSTORE SWAP1 POP PUSH2 0x2705 DUP7 DUP3 PUSH2 0x3490 JUMP JUMPDEST POP JUMPDEST POP POP POP POP POP JUMP JUMPDEST PUSH1 0x60 DUP2 MLOAD PUSH8 0xFFFFFFFFFFFFFFFF DUP2 GT ISZERO PUSH2 0x272B JUMPI PUSH2 0x272A PUSH2 0x45E4 JUMP JUMPDEST JUMPDEST PUSH1 0x40 MLOAD SWAP1 DUP1 DUP3 MSTORE DUP1 PUSH1 0x20 MUL PUSH1 0x20 ADD DUP3 ADD PUSH1 0x40 MSTORE DUP1 ISZERO PUSH2 0x275E JUMPI DUP2 PUSH1 0x20 ADD JUMPDEST PUSH1 0x60 DUP2 MSTORE PUSH1 0x20 ADD SWAP1 PUSH1 0x1 SWAP1 SUB SWAP1 DUP2 PUSH2 0x2749 JUMPI SWAP1 POP JUMPDEST POP SWAP1 POP PUSH0 PUSH0 SWAP1 POP JUMPDEST DUP3 MLOAD DUP2 LT ISZERO PUSH2 0x27BB JUMPI PUSH2 0x2792 DUP4 DUP3 DUP2 MLOAD DUP2 LT PUSH2 0x2785 JUMPI PUSH2 0x2784 PUSH2 0x59EE JUMP JUMPDEST JUMPDEST PUSH1 0x20 MUL PUSH1 0x20 ADD ADD MLOAD PUSH2 0x3155 JUMP JUMPDEST DUP3 DUP3 DUP2 MLOAD DUP2 LT PUSH2 0x27A5 JUMPI PUSH2 0x27A4 PUSH2 0x59EE JUMP JUMPDEST JUMPDEST PUSH1 0x20 MUL PUSH1 0x20 ADD ADD DUP2 SWAP1 MSTORE POP DUP1 PUSH1 0x1 ADD SWAP1 POP PUSH2 0x2766 JUMP JUMPDEST POP SWAP2 SWAP1 POP JUMP JUMPDEST DUP10 PUSH0 PUSH2 0x27CC DUP3 PUSH2 0xCFC JUMP JUMPDEST SWAP1 POP DUP1 PUSH20 0xFFFFFFFFFFFFFFFFFFFFFFFFFFFFFFFFFFFFFFFF AND CALLER PUSH20 0xFFFFFFFFFFFFFFFFFFFFFFFFFFFFFFFFFFFFFFFF AND EQ DUP1 PUSH2 0x283A JUMPI POP PUSH2 0x280B PUSH2 0x1E6D JUMP JUMPDEST PUSH20 0xFFFFFFFFFFFFFFFFFFFFFFFFFFFFFFFFFFFFFFFF AND CALLER PUSH20 0xFFFFFFFFFFFFFFFFFFFFFFFFFFFFFFFFFFFFFFFF AND EQ JUMPDEST PUSH2 0x2879 JUMPI PUSH1 0x40 MLOAD PUSH32 0x8C379A000000000000000000000000000000000000000000000000000000000 DUP2 MSTORE PUSH1 0x4 ADD PUSH2 0x2870 SWAP1 PUSH2 0x5A7E JUMP JUMPDEST PUSH1 0x40 MLOAD DUP1 SWAP2 SUB SWAP1 REVERT JUMPDEST PUSH0 PUSH2 0x290F DUP13 DUP13 DUP1 DUP1 PUSH1 0x1F ADD PUSH1 0x20 DUP1 SWAP2 DIV MUL PUSH1 0x20 ADD PUSH1 0x40 MLOAD SWAP1 DUP2 ADD PUSH1 0x40 MSTORE DUP1 SWAP4 SWAP3 SWAP2 SWAP1 DUP2 DUP2 MSTORE PUSH1 0x20 ADD DUP4 DUP4 DUP1 DUP3 DUP5 CALLDATACOPY PUSH0 DUP2 DUP5 ADD MSTORE PUSH1 0x1F NOT PUSH1 0x1F DUP3 ADD AND SWAP1 POP DUP1 DUP4 ADD SWAP3 POP POP POP POP POP POP POP DUP12 DUP12 DUP1 DUP1 PUSH1 0x1F ADD PUSH1 0x20 DUP1 SWAP2 DIV MUL PUSH1 0x20 ADD PUSH1 0x40 MLOAD SWAP1 DUP2 ADD PUSH1 0x40 MSTORE DUP1 SWAP4 SWAP3 SWAP2 SWAP1 DUP2 DUP2 MSTORE PUSH1 0x20 ADD DUP4 DUP4 DUP1 DUP3 DUP5 CALLDATACOPY PUSH0 DUP2 DUP5 ADD MSTORE PUSH1 0x1F NOT PUSH1 0x1F DUP3 ADD AND SWAP1 POP DUP1 DUP4 ADD SWAP3 POP POP POP POP POP POP POP DUP7 PUSH1 0x1 DUP13 DUP13 PUSH2 0x32F0 JUMP JUMPDEST SWAP1 POP PUSH1 0x7 PUSH0 DUP3 DUP2 MSTORE PUSH1 0x20 ADD SWAP1 DUP2 MSTORE PUSH1 0x20 ADD PUSH0 KECCAK256 PUSH1 0x5 ADD PUSH1 0x40 MLOAD DUP1 PUSH1 0x60 ADD PUSH1 0x40 MSTORE DUP1 DUP4 DUP2 MSTORE PUSH1 0x20 ADD DUP9 DUP2 MSTORE PUSH1 0x20 ADD DUP8 DUP2 MSTORE POP SWAP1 DUP1 PUSH1 0x1 DUP2 SLOAD ADD DUP1 DUP3 SSTORE DUP1 SWAP2 POP POP PUSH1 0x1 SWAP1 SUB SWAP1 PUSH0 MSTORE PUSH1 0x20 PUSH0 KECCAK256 SWAP1 PUSH1 0x3 MUL ADD PUSH0 SWAP1 SWAP2 SWAP1 SWAP2 SWAP1 SWAP2 POP PUSH0 DUP3 ADD MLOAD DUP2 PUSH0 ADD SSTORE PUSH1 0x20 DUP3 ADD MLOAD DUP2 PUSH1 0x1 ADD SSTORE PUSH1 0x40 DUP3 ADD MLOAD DUP2 PUSH1 0x2 ADD SSTORE POP POP DUP1 DUP14 PUSH32 0xC05D3BC4EBBEAED54C8349610AFF68EBB4BDE707FF65746EA4D2A8C16C73DAF DUP9 PUSH1 0x40 MLOAD PUSH2 0x29B5 SWAP2 SWAP1 PUSH2 0x45C7 JUMP JUMPDEST PUSH1 0x40 MLOAD DUP1 SWAP2 SUB SWAP1 LOG3 POP POP POP POP POP POP POP POP POP POP POP POP POP JUMP JUMPDEST PUSH2 0x29D4 PUSH2 0x3209 JUMP JUMPDEST PUSH0 PUSH20 0xFFFFFFFFFFFFFFFFFFFFFFFFFFFFFFFFFFFFFFFF AND DUP2 PUSH20 0xFFFFFFFFFFFFFFFFFFFFFFFFFFFFFFFFFFFFFFFF AND SUB PUSH2 0x2A42 JUMPI PUSH1 0x40 MLOAD PUSH32 0x8C379A000000000000000000000000000000000000000000000000000000000 DUP2 MSTORE PUSH1 0x4 ADD PUSH2 0x2A39 SWAP1 PUSH2 0x630D JUMP JUMPDEST PUSH1 0x40 MLOAD DUP1 SWAP2 SUB SWAP1 REVERT JUMPDEST PUSH2 0x2A4B DUP2 PUSH2 0x2BC8 JUMP JUMPDEST POP JUMP JUMPDEST PUSH0 PUSH0 PUSH0 PUSH2 0x2A87 PUSH10 0xCEE78B4094DA86011096 PUSH1 0xB0 SHL DUP6 PUSH28 0xFFFFFFFFFFFFFFFFFFFFFFFFFFFFFFFFFFFFFFFFFFFFFFFFFFFFFFFF NOT AND PUSH2 0x3710 JUMP JUMPDEST SWAP1 POP PUSH0 PUSH2 0x2A93 DUP3 PUSH2 0x3155 JUMP JUMPDEST SWAP1 POP PUSH1 0x14 DUP2 MLOAD EQ ISZERO DUP1 ISZERO PUSH2 0x2AA8 JUMPI POP PUSH0 DUP2 MLOAD EQ ISZERO JUMPDEST ISZERO PUSH2 0x2AEA JUMPI DUP1 PUSH1 0x40 MLOAD PUSH32 0x42BFE79F00000000000000000000000000000000000000000000000000000000 DUP2 MSTORE PUSH1 0x4 ADD PUSH2 0x2AE1 SWAP2 SWAP1 PUSH2 0x458F JUMP JUMPDEST PUSH1 0x40 MLOAD DUP1 SWAP2 SUB SWAP1 REVERT JUMPDEST DUP1 PUSH2 0x2AF4 SWAP1 PUSH2 0x6379 JUMP JUMPDEST PUSH1 0x60 SHR PUSH1 0x1 SWAP4 POP SWAP4 POP POP POP SWAP2 POP SWAP2 JUMP JUMPDEST PUSH0 PUSH4 0xA918FA6B PUSH1 0xE0 SHL PUSH28 0xFFFFFFFFFFFFFFFFFFFFFFFFFFFFFFFFFFFFFFFFFFFFFFFFFFFFFFFF NOT AND DUP3 PUSH28 0xFFFFFFFFFFFFFFFFFFFFFFFFFFFFFFFFFFFFFFFFFFFFFFFFFFFFFFFF NOT AND EQ DUP1 PUSH2 0x2B5D JUMPI POP PUSH2 0x2B5C DUP3 PUSH2 0x374E JUMP JUMPDEST JUMPDEST SWAP1 POP SWAP2 SWAP1 POP JUMP JUMPDEST PUSH0 PUSH0 PUSH2 0x2B76 PUSH4 0x1FFC9A7 PUSH1 0xE0 SHL PUSH2 0x2A4E JUMP JUMPDEST POP SWAP1 POP PUSH0 PUSH20 0xFFFFFFFFFFFFFFFFFFFFFFFFFFFFFFFFFFFFFFFF AND DUP2 PUSH20 0xFFFFFFFFFFFFFFFFFFFFFFFFFFFFFFFFFFFFFFFF AND SUB PUSH2 0x2BB5 JUMPI PUSH0 SWAP2 POP POP PUSH2 0x2BC3 JUMP JUMPDEST PUSH2 0x2BBF DUP2 DUP5 PUSH2 0x3817 JUMP JUMPDEST SWAP2 POP POP JUMPDEST SWAP2 SWAP1 POP JUMP JUMPDEST PUSH0 PUSH0 PUSH0 SWAP1 SLOAD SWAP1 PUSH2 0x100 EXP SWAP1 DIV PUSH20 0xFFFFFFFFFFFFFFFFFFFFFFFFFFFFFFFFFFFFFFFF AND SWAP1 POP DUP2 PUSH0 PUSH0 PUSH2 0x100 EXP DUP2 SLOAD DUP2 PUSH20 0xFFFFFFFFFFFFFFFFFFFFFFFFFFFFFFFFFFFFFFFF MUL NOT AND SWAP1 DUP4 PUSH20 0xFFFFFFFFFFFFFFFFFFFFFFFFFFFFFFFFFFFFFFFF AND MUL OR SWAP1 SSTORE POP DUP2 PUSH20 0xFFFFFFFFFFFFFFFFFFFFFFFFFFFFFFFFFFFFFFFF AND DUP2 PUSH20 0xFFFFFFFFFFFFFFFFFFFFFFFFFFFFFFFFFFFFFFFF AND PUSH32 0x8BE0079C531659141344CD1FD0A4F28419497F9722A3DAAFE3B4186F6B6457E0 PUSH1 0x40 MLOAD PUSH1 0x40 MLOAD DUP1 SWAP2 SUB SWAP1 LOG3 POP POP JUMP JUMPDEST PUSH1 0x60 PUSH1 0x1 PUSH0 DUP5 DUP5 PUSH1 0x40 MLOAD PUSH1 0x20 ADD PUSH2 0x2CA1 SWAP3 SWAP2 SWAP1 PUSH2 0x63FF JUMP JUMPDEST PUSH1 0x40 MLOAD PUSH1 0x20 DUP2 DUP4 SUB SUB DUP2 MSTORE SWAP1 PUSH1 0x40 MSTORE DUP1 MLOAD SWAP1 PUSH1 0x20 ADD KECCAK256 DUP2 MSTORE PUSH1 0x20 ADD SWAP1 DUP2 MSTORE PUSH1 0x20 ADD PUSH0 KECCAK256 DUP1 SLOAD PUSH2 0x2CCF SWAP1 PUSH2 0x5B58 JUMP JUMPDEST DUP1 PUSH1 0x1F ADD PUSH1 0x20 DUP1 SWAP2 DIV MUL PUSH1 0x20 ADD PUSH1 0x40 MLOAD SWAP1 DUP2 ADD PUSH1 0x40 MSTORE DUP1 SWAP3 SWAP2 SWAP1 DUP2 DUP2 MSTORE PUSH1 0x20 ADD DUP3 DUP1 SLOAD PUSH2 0x2CFB SWAP1 PUSH2 0x5B58 JUMP JUMPDEST DUP1 ISZERO PUSH2 0x2D46 JUMPI DUP1 PUSH1 0x1F LT PUSH2 0x2D1D JUMPI PUSH2 0x100 DUP1 DUP4 SLOAD DIV MUL DUP4 MSTORE SWAP2 PUSH1 0x20 ADD SWAP2 PUSH2 0x2D46 JUMP JUMPDEST DUP3 ADD SWAP2 SWAP1 PUSH0 MSTORE PUSH1 0x20 PUSH0 KECCAK256 SWAP1 JUMPDEST DUP2 SLOAD DUP2 MSTORE SWAP1 PUSH1 0x1 ADD SWAP1 PUSH1 0x20 ADD DUP1 DUP4 GT PUSH2 0x2D29 JUMPI DUP3 SWAP1 SUB PUSH1 0x1F AND DUP3 ADD SWAP2 JUMPDEST POP POP POP POP POP SWAP1 POP SWAP3 SWAP2 POP POP JUMP JUMPDEST PUSH0 PUSH2 0x2D5D DUP5 PUSH2 0xCFC JUMP JUMPDEST SWAP1 POP DUP6 PUSH20 0xFFFFFFFFFFFFFFFFFFFFFFFFFFFFFFFFFFFFFFFF AND DUP2 PUSH20 0xFFFFFFFFFFFFFFFFFFFFFFFFFFFFFFFFFFFFFFFF AND EQ PUSH2 0x2DD3 JUMPI DUP1 DUP5 DUP8 PUSH1 0x40 MLOAD PUSH32 0x5B271EA200000000000000000000000000000000000000000000000000000000 DUP2 MSTORE PUSH1 0x4 ADD PUSH2 0x2DCA SWAP4 SWAP3 SWAP2 SWAP1 PUSH2 0x608A JUMP JUMPDEST PUSH1 0x40 MLOAD DUP1 SWAP2 SUB SWAP1 REVERT JUMPDEST PUSH0 PUSH20 0xFFFFFFFFFFFFFFFFFFFFFFFFFFFFFFFFFFFFFFFF AND DUP6 PUSH20 0xFFFFFFFFFFFFFFFFFFFFFFFFFFFFFFFFFFFFFFFF AND SUB PUSH2 0x2E38 JUMPI PUSH1 0x40 MLOAD PUSH32 0x24ECEF4D00000000000000000000000000000000000000000000000000000000 DUP2 MSTORE PUSH1 0x4 ADD PUSH1 0x40 MLOAD DUP1 SWAP2 SUB SWAP1 REVERT JUMPDEST PUSH2 0x2E45 DUP7 DUP7 DUP7 DUP7 DUP7 PUSH2 0x38D0 JUMP JUMPDEST PUSH0 PUSH2 0x2E4F DUP6 PUSH2 0xCFC JUMP JUMPDEST SWAP1 POP DUP1 PUSH20 0xFFFFFFFFFFFFFFFFFFFFFFFFFFFFFFFFFFFFFFFF AND DUP3 PUSH20 0xFFFFFFFFFFFFFFFFFFFFFFFFFFFFFFFFFFFFFFFF AND EQ PUSH2 0x2EC5 JUMPI DUP5 DUP3 DUP3 PUSH1 0x40 MLOAD PUSH32 0x5A9C31D300000000000000000000000000000000000000000000000000000000 DUP2 MSTORE PUSH1 0x4 ADD PUSH2 0x2EBC SWAP4 SWAP3 SWAP2 SWAP1 PUSH2 0x642A JUMP JUMPDEST PUSH1 0x40 MLOAD DUP1 SWAP2 SUB SWAP1 REVERT JUMPDEST PUSH2 0x2ECF DUP8 DUP7 PUSH2 0x38D7 JUMP JUMPDEST PUSH2 0x2F1E DUP6 PUSH1 0x4 PUSH0 DUP11 PUSH20 0xFFFFFFFFFFFFFFFFFFFFFFFFFFFFFFFFFFFFFFFF AND PUSH20 0xFFFFFFFFFFFFFFFFFFFFFFFFFFFFFFFFFFFFFFFF AND DUP2 MSTORE PUSH1 0x20 ADD SWAP1 DUP2 MSTORE PUSH1 0x20 ADD PUSH0 KECCAK256 PUSH2 0x3945 SWAP1 SWAP2 SWAP1 PUSH4 0xFFFFFFFF AND JUMP JUMPDEST POP PUSH2 0x2F6E DUP6 PUSH1 0x4 PUSH0 DUP10 PUSH20 0xFFFFFFFFFFFFFFFFFFFFFFFFFFFFFFFFFFFFFFFF AND PUSH20 0xFFFFFFFFFFFFFFFFFFFFFFFFFFFFFFFFFFFFFFFF AND DUP2 MSTORE PUSH1 0x20 ADD SWAP1 DUP2 MSTORE PUSH1 0x20 ADD PUSH0 KECCAK256 PUSH2 0x395A SWAP1 SWAP2 SWAP1 PUSH4 0xFFFFFFFF AND JUMP JUMPDEST POP DUP6 PUSH1 0x3 PUSH0 DUP8 DUP2 MSTORE PUSH1 0x20 ADD SWAP1 DUP2 MSTORE PUSH1 0x20 ADD PUSH0 KECCAK256 PUSH0 PUSH2 0x100 EXP DUP2 SLOAD DUP2 PUSH20 0xFFFFFFFFFFFFFFFFFFFFFFFFFFFFFFFFFFFFFFFF MUL NOT AND SWAP1 DUP4 PUSH20 0xFFFFFFFFFFFFFFFFFFFFFFFFFFFFFFFFFFFFFFFF AND MUL OR SWAP1 SSTORE POP DUP5 DUP7 PUSH20 0xFFFFFFFFFFFFFFFFFFFFFFFFFFFFFFFFFFFFFFFF AND DUP9 PUSH20 0xFFFFFFFFFFFFFFFFFFFFFFFFFFFFFFFFFFFFFFFF AND PUSH32 0xB333C813A7426A7A11E2B190CAD52C44119421594B47F6F32ACE6D8C7207B2BF CALLER DUP9 DUP9 PUSH1 0x40 MLOAD PUSH2 0x3020 SWAP4 SWAP3 SWAP2 SWAP1 PUSH2 0x645F JUMP JUMPDEST PUSH1 0x40 MLOAD DUP1 SWAP2 SUB SWAP1 LOG4 PUSH2 0x3035 DUP8 DUP8 DUP8 DUP8 DUP8 PUSH2 0x396F JUMP JUMPDEST PUSH0 CALLER DUP9 DUP9 DUP9 DUP8 PUSH1 0x40 MLOAD PUSH1 0x20 ADD PUSH2 0x304F SWAP6 SWAP5 SWAP4 SWAP3 SWAP2 SWAP1 PUSH2 0x649B JUMP JUMPDEST PUSH1 0x40 MLOAD PUSH1 0x20 DUP2 DUP4 SUB SUB DUP2 MSTORE SWAP1 PUSH1 0x40 MSTORE SWAP1 POP PUSH2 0x306A DUP9 DUP3 PUSH2 0x3976 JUMP JUMPDEST PUSH2 0x3075 DUP8 DUP7 DUP4 PUSH2 0x39A7 JUMP JUMPDEST POP POP POP POP POP POP POP POP JUMP JUMPDEST PUSH0 PUSH2 0x3089 DUP3 PUSH2 0xCFC JUMP JUMPDEST PUSH20 0xFFFFFFFFFFFFFFFFFFFFFFFFFFFFFFFFFFFFFFFF AND DUP4 PUSH20 0xFFFFFFFFFFFFFFFFFFFFFFFFFFFFFFFFFFFFFFFF AND EQ DUP1 PUSH2 0x30E1 JUMPI POP PUSH2 0x30E0 DUP4 PUSH1 0x5 PUSH0 DUP6 DUP2 MSTORE PUSH1 0x20 ADD SWAP1 DUP2 MSTORE PUSH1 0x20 ADD PUSH0 KECCAK256 PUSH2 0x3B06 SWAP1 SWAP2 SWAP1 PUSH4 0xFFFFFFFF AND JUMP JUMPDEST JUMPDEST SWAP1 POP SWAP3 SWAP2 POP POP JUMP JUMPDEST PUSH2 0x30F2 DUP2 PUSH2 0x3B33 JUMP JUMPDEST PUSH2 0x3133 JUMPI DUP1 PUSH1 0x40 MLOAD PUSH32 0xAE8F9A3600000000000000000000000000000000000000000000000000000000 DUP2 MSTORE PUSH1 0x4 ADD PUSH2 0x312A SWAP2 SWAP1 PUSH2 0x5A1B JUMP JUMPDEST PUSH1 0x40 MLOAD DUP1 SWAP2 SUB SWAP1 REVERT JUMPDEST POP JUMP JUMPDEST PUSH1 0x60 PUSH0 PUSH2 0x3144 DUP4 PUSH0 ADD PUSH2 0x3B9B JUMP JUMPDEST SWAP1 POP PUSH1 0x60 DUP2 SWAP1 POP DUP1 SWAP3 POP POP POP SWAP2 SWAP1 POP JUMP JUMPDEST PUSH1 0x60 PUSH1 0x1 PUSH0 DUP4 DUP2 MSTORE PUSH1 0x20 ADD SWAP1 DUP2 MSTORE PUSH1 0x20 ADD PUSH0 KECCAK256 DUP1 SLOAD PUSH2 0x3173 SWAP1 PUSH2 0x5B58 JUMP JUMPDEST DUP1 PUSH1 0x1F ADD PUSH1 0x20 DUP1 SWAP2 DIV MUL PUSH1 0x20 ADD PUSH1 0x40 MLOAD SWAP1 DUP2 ADD PUSH1 0x40 MSTORE DUP1 SWAP3 SWAP2 SWAP1 DUP2 DUP2 MSTORE PUSH1 0x20 ADD DUP3 DUP1 SLOAD PUSH2 0x319F SWAP1 PUSH2 0x5B58 JUMP JUMPDEST DUP1 ISZERO PUSH2 0x31EA JUMPI DUP1 PUSH1 0x1F LT PUSH2 0x31C1 JUMPI PUSH2 0x100 DUP1 DUP4 SLOAD DIV MUL DUP4 MSTORE SWAP2 PUSH1 0x20 ADD SWAP2 PUSH2 0x31EA JUMP JUMPDEST DUP3 ADD SWAP2 SWAP1 PUSH0 MSTORE PUSH1 0x20 PUSH0 KECCAK256 SWAP1 JUMPDEST DUP2 SLOAD DUP2 MSTORE SWAP1 PUSH1 0x1 ADD SWAP1 PUSH1 0x20 ADD DUP1 DUP4 GT PUSH2 0x31CD JUMPI DUP3 SWAP1 SUB PUSH1 0x1F AND DUP3 ADD SWAP2 JUMPDEST POP POP POP POP POP SWAP1 POP SWAP2 SWAP1 POP JUMP JUMPDEST PUSH0 PUSH2 0x3202 DUP3 PUSH0 ADD PUSH2 0x3BF4 JUMP JUMPDEST SWAP1 POP SWAP2 SWAP1 POP JUMP JUMPDEST PUSH2 0x3211 PUSH2 0x3C03 JUMP JUMPDEST PUSH20 0xFFFFFFFFFFFFFFFFFFFFFFFFFFFFFFFFFFFFFFFF AND PUSH2 0x322F PUSH2 0x1E6D JUMP JUMPDEST PUSH20 0xFFFFFFFFFFFFFFFFFFFFFFFFFFFFFFFFFFFFFFFF AND EQ PUSH2 0x3285 JUMPI PUSH1 0x40 MLOAD PUSH32 0x8C379A000000000000000000000000000000000000000000000000000000000 DUP2 MSTORE PUSH1 0x4 ADD PUSH2 0x327C SWAP1 PUSH2 0x653D JUMP JUMPDEST PUSH1 0x40 MLOAD DUP1 SWAP2 SUB SWAP1 REVERT JUMPDEST JUMP JUMPDEST PUSH32 0xF675E9361AF1C1664C1868CFA3EB97672D6B1A513AA5B81DEC34C9EE330E818D PUSH0 SHL DUP3 SUB PUSH2 0x32E2 JUMPI PUSH1 0x40 MLOAD PUSH32 0x3664800A00000000000000000000000000000000000000000000000000000000 DUP2 MSTORE PUSH1 0x4 ADD PUSH1 0x40 MLOAD DUP1 SWAP2 SUB SWAP1 REVERT JUMPDEST PUSH2 0x32EC DUP3 DUP3 PUSH2 0x3C0A JUMP JUMPDEST POP POP JUMP JUMPDEST PUSH0 PUSH2 0x32FB PUSH1 0x6 PUSH2 0x3D76 JUMP JUMPDEST PUSH2 0x3305 PUSH1 0x6 PUSH2 0x3D8A JUMP JUMPDEST PUSH0 SHL SWAP1 POP PUSH2 0x3324 DUP6 DUP3 PUSH1 0x1 PUSH1 0x40 MLOAD DUP1 PUSH1 0x20 ADD PUSH1 0x40 MSTORE DUP1 PUSH0 DUP2 MSTORE POP PUSH2 0x3D96 JUMP JUMPDEST PUSH0 PUSH1 0x7 PUSH0 DUP4 DUP2 MSTORE PUSH1 0x20 ADD SWAP1 DUP2 MSTORE PUSH1 0x20 ADD PUSH0 KECCAK256 SWAP1 POP DUP8 DUP2 PUSH0 ADD SWAP1 DUP2 PUSH2 0x3348 SWAP2 SWAP1 PUSH2 0x655B JUMP JUMPDEST POP DUP6 DUP2 PUSH1 0x1 ADD PUSH0 PUSH2 0x100 EXP DUP2 SLOAD DUP2 PUSH20 0xFFFFFFFFFFFFFFFFFFFFFFFFFFFFFFFFFFFFFFFF MUL NOT AND SWAP1 DUP4 PUSH20 0xFFFFFFFFFFFFFFFFFFFFFFFFFFFFFFFFFFFFFFFF AND MUL OR SWAP1 SSTORE POP DUP5 DUP2 PUSH1 0x6 ADD PUSH0 PUSH2 0x100 EXP DUP2 SLOAD DUP2 PUSH1 0xFF MUL NOT AND SWAP1 DUP4 PUSH1 0x2 DUP2 GT ISZERO PUSH2 0x33B1 JUMPI PUSH2 0x33B0 PUSH2 0x4CD5 JUMP JUMPDEST JUMPDEST MUL OR SWAP1 SSTORE POP DUP4 DUP2 PUSH1 0x7 ADD DUP2 SWAP1 SSTORE POP DUP3 DUP2 PUSH1 0x8 ADD DUP2 SWAP1 SSTORE POP PUSH2 0x33F3 DUP3 PUSH32 0xC3366955CDC4E5E179365DB885CFD44C7A3C473BFF1E9FE298C44868EE5C5F0A DUP11 PUSH2 0x35B1 JUMP JUMPDEST PUSH2 0x341E DUP3 PUSH32 0xB0E4DA1959E3B7CA06CBEC424E21D53F4F792A982F8136456161E3D4F39C9F4B DUP10 PUSH2 0x35B1 JUMP JUMPDEST DUP2 PUSH32 0xEAC520CDBD769F46FDDA2CE013B4F3FA04074E7813AFA644FAAE946556A45FF8 DUP10 DUP9 PUSH1 0x40 MLOAD PUSH2 0x3450 SWAP3 SWAP2 SWAP1 PUSH2 0x662A JUMP JUMPDEST PUSH1 0x40 MLOAD DUP1 SWAP2 SUB SWAP1 LOG2 POP SWAP7 SWAP6 POP POP POP POP POP POP JUMP JUMPDEST PUSH0 PUSH2 0x3488 DUP4 PUSH0 ADD DUP4 PUSH20 0xFFFFFFFFFFFFFFFFFFFFFFFFFFFFFFFFFFFFFFFF AND PUSH0 SHL PUSH2 0x4006 JUMP JUMPDEST SWAP1 POP SWAP3 SWAP2 POP POP JUMP JUMPDEST PUSH2 0x34BD DUP3 PUSH32 0x8A1C15A8799F71B547E08E2BCB2E85257E81B0A07EEE2CE6712549EEF1F00970 PUSH0 SHL DUP4 PUSH2 0x406D JUMP JUMPDEST POP POP JUMP JUMPDEST DUP1 MLOAD DUP3 MLOAD EQ PUSH2 0x34FC JUMPI PUSH1 0x40 MLOAD PUSH32 0x3BCC897900000000000000000000000000000000000000000000000000000000 DUP2 MSTORE PUSH1 0x4 ADD PUSH1 0x40 MLOAD DUP1 SWAP2 SUB SWAP1 REVERT JUMPDEST PUSH0 DUP3 MLOAD SUB PUSH2 0x3536 JUMPI PUSH1 0x40 MLOAD PUSH32 0x97DA5F9500000000000000000000000000000000000000000000000000000000 DUP2 MSTORE PUSH1 0x4 ADD PUSH1 0x40 MLOAD DUP1 SWAP2 SUB SWAP1 REVERT JUMPDEST PUSH0 PUSH0 SWAP1 POP JUMPDEST DUP3 MLOAD DUP2 LT ISZERO PUSH2 0x358D JUMPI PUSH2 0x3582 DUP4 DUP3 DUP2 MLOAD DUP2 LT PUSH2 0x355A JUMPI PUSH2 0x3559 PUSH2 0x59EE JUMP JUMPDEST JUMPDEST PUSH1 0x20 MUL PUSH1 0x20 ADD ADD MLOAD DUP4 DUP4 DUP2 MLOAD DUP2 LT PUSH2 0x3575 JUMPI PUSH2 0x3574 PUSH2 0x59EE JUMP JUMPDEST JUMPDEST PUSH1 0x20 MUL PUSH1 0x20 ADD ADD MLOAD PUSH2 0x3287 JUMP JUMPDEST DUP1 PUSH1 0x1 ADD SWAP1 POP PUSH2 0x353B JUMP JUMPDEST POP POP POP JUMP JUMPDEST PUSH1 0x60 PUSH0 PUSH2 0x35A0 DUP4 PUSH0 ADD PUSH2 0x3B9B JUMP JUMPDEST SWAP1 POP PUSH1 0x60 DUP2 SWAP1 POP DUP1 SWAP3 POP POP POP SWAP2 SWAP1 POP JUMP JUMPDEST DUP1 PUSH1 0x1 PUSH0 DUP6 DUP6 PUSH1 0x40 MLOAD PUSH1 0x20 ADD PUSH2 0x35C8 SWAP3 SWAP2 SWAP1 PUSH2 0x63FF JUMP JUMPDEST PUSH1 0x40 MLOAD PUSH1 0x20 DUP2 DUP4 SUB SUB DUP2 MSTORE SWAP1 PUSH1 0x40 MSTORE DUP1 MLOAD SWAP1 PUSH1 0x20 ADD KECCAK256 DUP2 MSTORE PUSH1 0x20 ADD SWAP1 DUP2 MSTORE PUSH1 0x20 ADD PUSH0 KECCAK256 SWAP1 DUP2 PUSH2 0x35F7 SWAP2 SWAP1 PUSH2 0x66B0 JUMP JUMPDEST POP DUP2 DUP4 PUSH32 0xA6E4251F855F750545FE414F120DB91C76B88DEF14D120969E5BB2D3F05DEBBB DUP4 PUSH1 0x40 MLOAD PUSH2 0x3629 SWAP2 SWAP1 PUSH2 0x458F JUMP JUMPDEST PUSH1 0x40 MLOAD DUP1 SWAP2 SUB SWAP1 LOG3 POP POP POP JUMP JUMPDEST PUSH0 PUSH2 0x365A DUP7 PUSH1 0x5 PUSH0 DUP8 DUP2 MSTORE PUSH1 0x20 ADD SWAP1 DUP2 MSTORE PUSH1 0x20 ADD PUSH0 KECCAK256 PUSH2 0x4127 SWAP1 SWAP2 SWAP1 PUSH4 0xFFFFFFFF AND JUMP JUMPDEST SWAP1 POP DUP1 PUSH2 0x36A0 JUMPI DUP6 DUP5 PUSH1 0x40 MLOAD PUSH32 0x4AA31A8C00000000000000000000000000000000000000000000000000000000 DUP2 MSTORE PUSH1 0x4 ADD PUSH2 0x3697 SWAP3 SWAP2 SWAP1 PUSH2 0x60BF JUMP JUMPDEST PUSH1 0x40 MLOAD DUP1 SWAP2 SUB SWAP1 REVERT JUMPDEST DUP4 DUP6 PUSH20 0xFFFFFFFFFFFFFFFFFFFFFFFFFFFFFFFFFFFFFFFF AND DUP8 PUSH20 0xFFFFFFFFFFFFFFFFFFFFFFFFFFFFFFFFFFFFFFFF AND PUSH32 0xC78CD419D6136F9F1C1C6AEC1D3FAE098CFFAF8BC86314A8F2685E32FE574E3C DUP7 DUP7 PUSH1 0x40 MLOAD PUSH2 0x3700 SWAP3 SWAP2 SWAP1 PUSH2 0x677F JUMP JUMPDEST PUSH1 0x40 MLOAD DUP1 SWAP2 SUB SWAP1 LOG4 POP POP POP POP POP POP JUMP JUMPDEST PUSH0 PUSH0 DUP4 PUSH0 PUSH1 0xF0 SHL DUP5 PUSH1 0x40 MLOAD PUSH1 0x20 ADD PUSH2 0x372A SWAP4 SWAP3 SWAP2 SWAP1 PUSH2 0x6863 JUMP JUMPDEST PUSH1 0x40 MLOAD PUSH1 0x20 DUP2 DUP4 SUB SUB DUP2 MSTORE SWAP1 PUSH1 0x40 MSTORE SWAP1 POP DUP1 PUSH2 0x3745 SWAP1 PUSH2 0x68B3 JUMP JUMPDEST SWAP2 POP POP SWAP3 SWAP2 POP POP JUMP JUMPDEST PUSH0 PUSH4 0x629AA694 PUSH1 0xE0 SHL PUSH28 0xFFFFFFFFFFFFFFFFFFFFFFFFFFFFFFFFFFFFFFFFFFFFFFFFFFFFFFFF NOT AND DUP3 PUSH28 0xFFFFFFFFFFFFFFFFFFFFFFFFFFFFFFFFFFFFFFFFFFFFFFFFFFFFFFFF NOT AND EQ DUP1 PUSH2 0x37A7 JUMPI POP PUSH2 0x37A6 DUP3 PUSH2 0x37AE JUMP JUMPDEST JUMPDEST SWAP1 POP SWAP2 SWAP1 POP JUMP JUMPDEST PUSH0 PUSH32 0x1FFC9A700000000000000000000000000000000000000000000000000000000 PUSH28 0xFFFFFFFFFFFFFFFFFFFFFFFFFFFFFFFFFFFFFFFFFFFFFFFFFFFFFFFF NOT AND DUP3 PUSH28 0xFFFFFFFFFFFFFFFFFFFFFFFFFFFFFFFFFFFFFFFFFFFFFFFFFFFFFFFF NOT AND EQ SWAP1 POP SWAP2 SWAP1 POP JUMP JUMPDEST PUSH0 PUSH0 PUSH4 0x1FFC9A7 PUSH1 0xE0 SHL DUP4 PUSH1 0x40 MLOAD PUSH1 0x24 ADD PUSH2 0x3832 SWAP2 SWAP1 PUSH2 0x585A JUMP JUMPDEST PUSH1 0x40 MLOAD PUSH1 0x20 DUP2 DUP4 SUB SUB DUP2 MSTORE SWAP1 PUSH1 0x40 MSTORE SWAP1 PUSH28 0xFFFFFFFFFFFFFFFFFFFFFFFFFFFFFFFFFFFFFFFFFFFFFFFFFFFFFFFF NOT AND PUSH1 0x20 DUP3 ADD DUP1 MLOAD PUSH28 0xFFFFFFFFFFFFFFFFFFFFFFFFFFFFFFFFFFFFFFFFFFFFFFFFFFFFFFFF DUP4 DUP2 DUP4 AND OR DUP4 MSTORE POP POP POP POP SWAP1 POP PUSH0 PUSH0 PUSH0 PUSH1 0x20 PUSH0 DUP6 MLOAD PUSH1 0x20 DUP8 ADD DUP11 PUSH2 0x7530 STATICCALL SWAP3 POP RETURNDATASIZE SWAP2 POP PUSH0 MLOAD SWAP1 POP DUP3 DUP1 ISZERO PUSH2 0x38B9 JUMPI POP PUSH1 0x20 DUP3 LT ISZERO JUMPDEST DUP1 ISZERO PUSH2 0x38C4 JUMPI POP PUSH0 DUP2 GT JUMPDEST SWAP5 POP POP POP POP POP SWAP3 SWAP2 POP POP JUMP JUMPDEST POP POP POP POP POP JUMP JUMPDEST PUSH0 PUSH1 0x5 PUSH0 DUP4 DUP2 MSTORE PUSH1 0x20 ADD SWAP1 DUP2 MSTORE PUSH1 0x20 ADD PUSH0 KECCAK256 SWAP1 POP PUSH0 PUSH2 0x38F5 DUP3 PUSH2 0x4154 JUMP JUMPDEST SWAP1 POP PUSH0 PUSH0 JUMPDEST DUP3 DUP2 LT ISZERO PUSH2 0x393D JUMPI PUSH2 0x3915 PUSH0 DUP6 PUSH2 0x4167 SWAP1 SWAP2 SWAP1 PUSH4 0xFFFFFFFF AND JUMP JUMPDEST SWAP2 POP PUSH2 0x3932 DUP3 DUP8 DUP8 PUSH0 PUSH1 0x40 MLOAD DUP1 PUSH1 0x20 ADD PUSH1 0x40 MSTORE DUP1 PUSH0 DUP2 MSTORE POP PUSH2 0x3636 JUMP JUMPDEST DUP1 PUSH1 0x1 ADD SWAP1 POP PUSH2 0x38FA JUMP JUMPDEST POP POP POP POP POP POP JUMP JUMPDEST PUSH0 PUSH2 0x3952 DUP4 PUSH0 ADD DUP4 PUSH2 0x417E JUMP JUMPDEST SWAP1 POP SWAP3 SWAP2 POP POP JUMP JUMPDEST PUSH0 PUSH2 0x3967 DUP4 PUSH0 ADD DUP4 PUSH2 0x4006 JUMP JUMPDEST SWAP1 POP SWAP3 SWAP2 POP POP JUMP JUMPDEST POP POP POP POP POP JUMP JUMPDEST PUSH2 0x39A3 DUP3 PUSH32 0xB23EAE7E6D1564B295B4C3E3BE402D9A2F0776C57BDF365903496F6FA481AB00 PUSH0 SHL DUP4 PUSH2 0x406D JUMP JUMPDEST POP POP JUMP JUMPDEST PUSH2 0x39B8 DUP4 PUSH4 0x6BB56A14 PUSH1 0xE0 SHL PUSH2 0x3817 JUMP JUMPDEST ISZERO PUSH2 0x3A63 JUMPI DUP3 PUSH20 0xFFFFFFFFFFFFFFFFFFFFFFFFFFFFFFFFFFFFFFFF AND PUSH4 0x6BB56A14 PUSH32 0xB084A55EBF70FD3C06FD755269DAC2212C4D3F0F4D09079780BFA50C1B2984D PUSH0 SHL DUP4 PUSH1 0x40 MLOAD DUP4 PUSH4 0xFFFFFFFF AND PUSH1 0xE0 SHL DUP2 MSTORE PUSH1 0x4 ADD PUSH2 0x3A1A SWAP3 SWAP2 SWAP1 PUSH2 0x6919 JUMP JUMPDEST PUSH0 PUSH1 0x40 MLOAD DUP1 DUP4 SUB DUP2 PUSH0 DUP8 GAS CALL ISZERO DUP1 ISZERO PUSH2 0x3A35 JUMPI RETURNDATASIZE PUSH0 PUSH0 RETURNDATACOPY RETURNDATASIZE PUSH0 REVERT JUMPDEST POP POP POP POP PUSH1 0x40 MLOAD RETURNDATASIZE PUSH0 DUP3 RETURNDATACOPY RETURNDATASIZE PUSH1 0x1F NOT PUSH1 0x1F DUP3 ADD AND DUP3 ADD DUP1 PUSH1 0x40 MSTORE POP DUP2 ADD SWAP1 PUSH2 0x3A5D SWAP2 SWAP1 PUSH2 0x69B5 JUMP JUMPDEST POP PUSH2 0x3B01 JUMP JUMPDEST DUP2 PUSH2 0x3B00 JUMPI PUSH0 DUP4 PUSH20 0xFFFFFFFFFFFFFFFFFFFFFFFFFFFFFFFFFFFFFFFF AND EXTCODESIZE EQ PUSH2 0x3AC3 JUMPI DUP3 PUSH1 0x40 MLOAD PUSH32 0x4349776D00000000000000000000000000000000000000000000000000000000 DUP2 MSTORE PUSH1 0x4 ADD PUSH2 0x3ABA SWAP2 SWAP1 PUSH2 0x48C8 JUMP JUMPDEST PUSH1 0x40 MLOAD DUP1 SWAP2 SUB SWAP1 REVERT JUMPDEST DUP3 PUSH1 0x40 MLOAD PUSH32 0x317313700000000000000000000000000000000000000000000000000000000 DUP2 MSTORE PUSH1 0x4 ADD PUSH2 0x3AF7 SWAP2 SWAP1 PUSH2 0x48C8 JUMP JUMPDEST PUSH1 0x40 MLOAD DUP1 SWAP2 SUB SWAP1 REVERT JUMPDEST JUMPDEST POP POP POP JUMP JUMPDEST PUSH0 PUSH2 0x3B2B DUP4 PUSH0 ADD DUP4 PUSH20 0xFFFFFFFFFFFFFFFFFFFFFFFFFFFFFFFFFFFFFFFF AND PUSH0 SHL PUSH2 0x427A JUMP JUMPDEST SWAP1 POP SWAP3 SWAP2 POP POP JUMP JUMPDEST PUSH0 PUSH0 PUSH20 0xFFFFFFFFFFFFFFFFFFFFFFFFFFFFFFFFFFFFFFFF AND PUSH1 0x3 PUSH0 DUP5 DUP2 MSTORE PUSH1 0x20 ADD SWAP1 DUP2 MSTORE PUSH1 0x20 ADD PUSH0 KECCAK256 PUSH0 SWAP1 SLOAD SWAP1 PUSH2 0x100 EXP SWAP1 DIV PUSH20 0xFFFFFFFFFFFFFFFFFFFFFFFFFFFFFFFFFFFFFFFF AND PUSH20 0xFFFFFFFFFFFFFFFFFFFFFFFFFFFFFFFFFFFFFFFF AND EQ ISZERO SWAP1 POP SWAP2 SWAP1 POP JUMP JUMPDEST PUSH1 0x60 DUP2 PUSH0 ADD DUP1 SLOAD DUP1 PUSH1 0x20 MUL PUSH1 0x20 ADD PUSH1 0x40 MLOAD SWAP1 DUP2 ADD PUSH1 0x40 MSTORE DUP1 SWAP3 SWAP2 SWAP1 DUP2 DUP2 MSTORE PUSH1 0x20 ADD DUP3 DUP1 SLOAD DUP1 ISZERO PUSH2 0x3BE8 JUMPI PUSH1 0x20 MUL DUP3 ADD SWAP2 SWAP1 PUSH0 MSTORE PUSH1 0x20 PUSH0 KECCAK256 SWAP1 JUMPDEST DUP2 SLOAD DUP2 MSTORE PUSH1 0x20 ADD SWAP1 PUSH1 0x1 ADD SWAP1 DUP1 DUP4 GT PUSH2 0x3BD4 JUMPI JUMPDEST POP POP POP POP POP SWAP1 POP SWAP2 SWAP1 POP JUMP JUMPDEST PUSH0 DUP2 PUSH0 ADD DUP1 SLOAD SWAP1 POP SWAP1 POP SWAP2 SWAP1 POP JUMP JUMPDEST PUSH0 CALLER SWAP1 POP SWAP1 JUMP JUMPDEST PUSH32 0xDEBA1E292F8BA88238E10AB3C7F88BD4BE4FAC56CAD5194B6ECCEAF653468AF1 PUSH0 SHL DUP3 SUB PUSH2 0x3C65 JUMPI PUSH1 0x40 MLOAD PUSH32 0x85C169BD00000000000000000000000000000000000000000000000000000000 DUP2 MSTORE PUSH1 0x4 ADD PUSH1 0x40 MLOAD DUP1 SWAP2 SUB SWAP1 REVERT JUMPDEST PUSH32 0x2F0A68AB07768E01943A599E73362A0E17A63A72E94DD2E384D2C1D4DB932756 PUSH0 SHL DUP3 SUB PUSH2 0x3CC0 JUMPI PUSH1 0x40 MLOAD PUSH32 0x76755B3800000000000000000000000000000000000000000000000000000000 DUP2 MSTORE PUSH1 0x4 ADD PUSH1 0x40 MLOAD DUP1 SWAP2 SUB SWAP1 REVERT JUMPDEST PUSH32 0xE0261FA95DB2EB3B5439BD033CDA66D56B96F92F243A8228FD87550ED7BDFDB3 PUSH0 SHL DUP3 SUB PUSH2 0x3D1B JUMPI PUSH1 0x40 MLOAD PUSH32 0x4EF6D7FB00000000000000000000000000000000000000000000000000000000 DUP2 MSTORE PUSH1 0x4 ADD PUSH1 0x40 MLOAD DUP1 SWAP2 SUB SWAP1 REVERT JUMPDEST DUP1 PUSH1 0x1 PUSH0 DUP5 DUP2 MSTORE PUSH1 0x20 ADD SWAP1 DUP2 MSTORE PUSH1 0x20 ADD PUSH0 KECCAK256 SWAP1 DUP2 PUSH2 0x3D39 SWAP2 SWAP1 PUSH2 0x66B0 JUMP JUMPDEST POP DUP2 PUSH32 0xECE574603820D07BC9B91F2A932BAADF4628AABCB8AFBA49776529C14A6104B2 DUP3 PUSH1 0x40 MLOAD PUSH2 0x3D6A SWAP2 SWAP1 PUSH2 0x458F JUMP JUMPDEST PUSH1 0x40 MLOAD DUP1 SWAP2 SUB SWAP1 LOG2 POP POP JUMP JUMPDEST PUSH1 0x1 DUP2 PUSH0 ADD PUSH0 DUP3 DUP3 SLOAD ADD SWAP3 POP POP DUP2 SWAP1 SSTORE POP POP JUMP JUMPDEST PUSH0 DUP2 PUSH0 ADD SLOAD SWAP1 POP SWAP2 SWAP1 POP JUMP JUMPDEST PUSH0 PUSH20 0xFFFFFFFFFFFFFFFFFFFFFFFFFFFFFFFFFFFFFFFF AND DUP5 PUSH20 0xFFFFFFFFFFFFFFFFFFFFFFFFFFFFFFFFFFFFFFFF AND SUB PUSH2 0x3DFB JUMPI PUSH1 0x40 MLOAD PUSH32 0x24ECEF4D00000000000000000000000000000000000000000000000000000000 DUP2 MSTORE PUSH1 0x4 ADD PUSH1 0x40 MLOAD DUP1 SWAP2 SUB SWAP1 REVERT JUMPDEST PUSH2 0x3E04 DUP4 PUSH2 0x3B33 JUMP JUMPDEST ISZERO PUSH2 0x3E46 JUMPI DUP3 PUSH1 0x40 MLOAD PUSH32 0x34C7B51100000000000000000000000000000000000000000000000000000000 DUP2 MSTORE PUSH1 0x4 ADD PUSH2 0x3E3D SWAP2 SWAP1 PUSH2 0x5A1B JUMP JUMPDEST PUSH1 0x40 MLOAD DUP1 SWAP2 SUB SWAP1 REVERT JUMPDEST PUSH2 0x3E53 PUSH0 DUP6 DUP6 DUP6 DUP6 PUSH2 0x38D0 JUMP JUMPDEST PUSH2 0x3E5C DUP4 PUSH2 0x3B33 JUMP JUMPDEST ISZERO PUSH2 0x3E9E JUMPI DUP3 PUSH1 0x40 MLOAD PUSH32 0x34C7B51100000000000000000000000000000000000000000000000000000000 DUP2 MSTORE PUSH1 0x4 ADD PUSH2 0x3E95 SWAP2 SWAP1 PUSH2 0x5A1B JUMP JUMPDEST PUSH1 0x40 MLOAD DUP1 SWAP2 SUB SWAP1 REVERT JUMPDEST PUSH1 0x2 PUSH0 DUP2 SLOAD PUSH2 0x3EAC SWAP1 PUSH2 0x69FC JUMP JUMPDEST SWAP2 SWAP1 POP DUP2 SWAP1 SSTORE POP PUSH2 0x3F02 DUP4 PUSH1 0x4 PUSH0 DUP8 PUSH20 0xFFFFFFFFFFFFFFFFFFFFFFFFFFFFFFFFFFFFFFFF AND PUSH20 0xFFFFFFFFFFFFFFFFFFFFFFFFFFFFFFFFFFFFFFFF AND DUP2 MSTORE PUSH1 0x20 ADD SWAP1 DUP2 MSTORE PUSH1 0x20 ADD PUSH0 KECCAK256 PUSH2 0x395A SWAP1 SWAP2 SWAP1 PUSH4 0xFFFFFFFF AND JUMP JUMPDEST POP DUP4 PUSH1 0x3 PUSH0 DUP6 DUP2 MSTORE PUSH1 0x20 ADD SWAP1 DUP2 MSTORE PUSH1 0x20 ADD PUSH0 KECCAK256 PUSH0 PUSH2 0x100 EXP DUP2 SLOAD DUP2 PUSH20 0xFFFFFFFFFFFFFFFFFFFFFFFFFFFFFFFFFFFFFFFF MUL NOT AND SWAP1 DUP4 PUSH20 0xFFFFFFFFFFFFFFFFFFFFFFFFFFFFFFFFFFFFFFFF AND MUL OR SWAP1 SSTORE POP DUP3 DUP5 PUSH20 0xFFFFFFFFFFFFFFFFFFFFFFFFFFFFFFFFFFFFFFFF AND PUSH0 PUSH20 0xFFFFFFFFFFFFFFFFFFFFFFFFFFFFFFFFFFFFFFFF AND PUSH32 0xB333C813A7426A7A11E2B190CAD52C44119421594B47F6F32ACE6D8C7207B2BF CALLER DUP7 DUP7 PUSH1 0x40 MLOAD PUSH2 0x3FB4 SWAP4 SWAP3 SWAP2 SWAP1 PUSH2 0x645F JUMP JUMPDEST PUSH1 0x40 MLOAD DUP1 SWAP2 SUB SWAP1 LOG4 PUSH2 0x3FC9 PUSH0 DUP6 DUP6 DUP6 DUP6 PUSH2 0x396F JUMP JUMPDEST PUSH0 CALLER PUSH0 DUP7 DUP7 DUP6 PUSH1 0x40 MLOAD PUSH1 0x20 ADD PUSH2 0x3FE3 SWAP6 SWAP5 SWAP4 SWAP3 SWAP2 SWAP1 PUSH2 0x649B JUMP JUMPDEST PUSH1 0x40 MLOAD PUSH1 0x20 DUP2 DUP4 SUB SUB DUP2 MSTORE SWAP1 PUSH1 0x40 MSTORE SWAP1 POP PUSH2 0x3FFF DUP6 DUP5 DUP4 PUSH2 0x39A7 JUMP JUMPDEST POP POP POP POP POP JUMP JUMPDEST PUSH0 PUSH2 0x4011 DUP4 DUP4 PUSH2 0x427A JUMP JUMPDEST PUSH2 0x4063 JUMPI DUP3 PUSH0 ADD DUP3 SWAP1 DUP1 PUSH1 0x1 DUP2 SLOAD ADD DUP1 DUP3 SSTORE DUP1 SWAP2 POP POP PUSH1 0x1 SWAP1 SUB SWAP1 PUSH0 MSTORE PUSH1 0x20 PUSH0 KECCAK256 ADD PUSH0 SWAP1 SWAP2 SWAP1 SWAP2 SWAP1 SWAP2 POP SSTORE DUP3 PUSH0 ADD DUP1 SLOAD SWAP1 POP DUP4 PUSH1 0x1 ADD PUSH0 DUP5 DUP2 MSTORE PUSH1 0x20 ADD SWAP1 DUP2 MSTORE PUSH1 0x20 ADD PUSH0 KECCAK256 DUP2 SWAP1 SSTORE POP PUSH1 0x1 SWAP1 POP PUSH2 0x4067 JUMP JUMPDEST PUSH0 SWAP1 POP JUMPDEST SWAP3 SWAP2 POP POP JUMP JUMPDEST PUSH2 0x409D PUSH4 0x6BB56A14 PUSH1 0xE0 SHL DUP5 PUSH20 0xFFFFFFFFFFFFFFFFFFFFFFFFFFFFFFFFFFFFFFFF AND PUSH2 0x3817 SWAP1 SWAP2 SWAP1 PUSH4 0xFFFFFFFF AND JUMP JUMPDEST ISZERO PUSH2 0x4122 JUMPI DUP3 PUSH20 0xFFFFFFFFFFFFFFFFFFFFFFFFFFFFFFFFFFFFFFFF AND PUSH4 0x6BB56A14 DUP4 DUP4 PUSH1 0x40 MLOAD DUP4 PUSH4 0xFFFFFFFF AND PUSH1 0xE0 SHL DUP2 MSTORE PUSH1 0x4 ADD PUSH2 0x40DD SWAP3 SWAP2 SWAP1 PUSH2 0x6919 JUMP JUMPDEST PUSH0 PUSH1 0x40 MLOAD DUP1 DUP4 SUB DUP2 PUSH0 DUP8 GAS CALL ISZERO DUP1 ISZERO PUSH2 0x40F8 JUMPI RETURNDATASIZE PUSH0 PUSH0 RETURNDATACOPY RETURNDATASIZE PUSH0 REVERT JUMPDEST POP POP POP POP PUSH1 0x40 MLOAD RETURNDATASIZE PUSH0 DUP3 RETURNDATACOPY RETURNDATASIZE PUSH1 0x1F NOT PUSH1 0x1F DUP3 ADD AND DUP3 ADD DUP1 PUSH1 0x40 MSTORE POP DUP2 ADD SWAP1 PUSH2 0x4120 SWAP2 SWAP1 PUSH2 0x69B5 JUMP JUMPDEST POP JUMPDEST POP POP POP JUMP JUMPDEST PUSH0 PUSH2 0x414C DUP4 PUSH0 ADD DUP4 PUSH20 0xFFFFFFFFFFFFFFFFFFFFFFFFFFFFFFFFFFFFFFFF AND PUSH0 SHL PUSH2 0x417E JUMP JUMPDEST SWAP1 POP SWAP3 SWAP2 POP POP JUMP JUMPDEST PUSH0 PUSH2 0x4160 DUP3 PUSH0 ADD PUSH2 0x3BF4 JUMP JUMPDEST SWAP1 POP SWAP2 SWAP1 POP JUMP JUMPDEST PUSH0 PUSH2 0x4174 DUP4 PUSH0 ADD DUP4 PUSH2 0x429A JUMP JUMPDEST PUSH0 SHR SWAP1 POP SWAP3 SWAP2 POP POP JUMP JUMPDEST PUSH0 PUSH0 DUP4 PUSH1 0x1 ADD PUSH0 DUP5 DUP2 MSTORE PUSH1 0x20 ADD SWAP1 DUP2 MSTORE PUSH1 0x20 ADD PUSH0 KECCAK256 SLOAD SWAP1 POP PUSH0 DUP2 EQ PUSH2 0x426F JUMPI PUSH0 PUSH1 0x1 DUP3 PUSH2 0x41AB SWAP2 SWAP1 PUSH2 0x5F63 JUMP JUMPDEST SWAP1 POP PUSH0 PUSH1 0x1 DUP7 PUSH0 ADD DUP1 SLOAD SWAP1 POP PUSH2 0x41C1 SWAP2 SWAP1 PUSH2 0x5F63 JUMP JUMPDEST SWAP1 POP DUP2 DUP2 EQ PUSH2 0x4227 JUMPI PUSH0 DUP7 PUSH0 ADD DUP3 DUP2 SLOAD DUP2 LT PUSH2 0x41E0 JUMPI PUSH2 0x41DF PUSH2 0x59EE JUMP JUMPDEST JUMPDEST SWAP1 PUSH0 MSTORE PUSH1 0x20 PUSH0 KECCAK256 ADD SLOAD SWAP1 POP DUP1 DUP8 PUSH0 ADD DUP5 DUP2 SLOAD DUP2 LT PUSH2 0x4201 JUMPI PUSH2 0x4200 PUSH2 0x59EE JUMP JUMPDEST JUMPDEST SWAP1 PUSH0 MSTORE PUSH1 0x20 PUSH0 KECCAK256 ADD DUP2 SWAP1 SSTORE POP DUP4 DUP8 PUSH1 0x1 ADD PUSH0 DUP4 DUP2 MSTORE PUSH1 0x20 ADD SWAP1 DUP2 MSTORE PUSH1 0x20 ADD PUSH0 KECCAK256 DUP2 SWAP1 SSTORE POP POP JUMPDEST DUP6 PUSH0 ADD DUP1 SLOAD DUP1 PUSH2 0x423A JUMPI PUSH2 0x4239 PUSH2 0x5F96 JUMP JUMPDEST JUMPDEST PUSH1 0x1 SWAP1 SUB DUP2 DUP2 SWAP1 PUSH0 MSTORE PUSH1 0x20 PUSH0 KECCAK256 ADD PUSH0 SWAP1 SSTORE SWAP1 SSTORE DUP6 PUSH1 0x1 ADD PUSH0 DUP7 DUP2 MSTORE PUSH1 0x20 ADD SWAP1 DUP2 MSTORE PUSH1 0x20 ADD PUSH0 KECCAK256 PUSH0 SWAP1 SSTORE PUSH1 0x1 SWAP4 POP POP POP POP PUSH2 0x4274 JUMP JUMPDEST PUSH0 SWAP2 POP POP JUMPDEST SWAP3 SWAP2 POP POP JUMP JUMPDEST PUSH0 PUSH0 DUP4 PUSH1 0x1 ADD PUSH0 DUP5 DUP2 MSTORE PUSH1 0x20 ADD SWAP1 DUP2 MSTORE PUSH1 0x20 ADD PUSH0 KECCAK256 SLOAD EQ ISZERO SWAP1 POP SWAP3 SWAP2 POP POP JUMP JUMPDEST PUSH0 DUP3 PUSH0 ADD DUP3 DUP2 SLOAD DUP2 LT PUSH2 0x42B0 JUMPI PUSH2 0x42AF PUSH2 0x59EE JUMP JUMPDEST JUMPDEST SWAP1 PUSH0 MSTORE PUSH1 0x20 PUSH0 KECCAK256 ADD SLOAD SWAP1 POP SWAP3 SWAP2 POP POP JUMP JUMPDEST PUSH0 DUP3 DUP3 MSTORE PUSH1 0x20 DUP3 ADD SWAP1 POP SWAP3 SWAP2 POP POP JUMP JUMPDEST PUSH0 PUSH0 DUP3 ADD MSTORE POP JUMP JUMPDEST PUSH0 PUSH2 0x42E5 PUSH1 0x4 DUP4 PUSH2 0x42C1 JUMP JUMPDEST SWAP2 POP PUSH2 0x42F0 DUP3 PUSH2 0x42D1 JUMP JUMPDEST PUSH1 0x20 DUP3 ADD SWAP1 POP SWAP2 SWAP1 POP JUMP JUMPDEST PUSH0 PUSH1 0x20 DUP3 ADD SWAP1 POP DUP2 DUP2 SUB PUSH0 DUP4 ADD MSTORE PUSH2 0x4312 DUP2 PUSH2 0x42D9 JUMP JUMPDEST SWAP1 POP SWAP2 SWAP1 POP JUMP JUMPDEST DUP3 DUP2 DUP4 CALLDATACOPY PUSH0 DUP4 DUP4 ADD MSTORE POP POP POP JUMP JUMPDEST PUSH0 PUSH1 0x1F NOT PUSH1 0x1F DUP4 ADD AND SWAP1 POP SWAP2 SWAP1 POP JUMP JUMPDEST PUSH0 PUSH2 0x4342 DUP4 DUP6 PUSH2 0x42C1 JUMP JUMPDEST SWAP4 POP PUSH2 0x434F DUP4 DUP6 DUP5 PUSH2 0x4319 JUMP JUMPDEST PUSH2 0x4358 DUP4 PUSH2 0x4327 JUMP JUMPDEST DUP5 ADD SWAP1 POP SWAP4 SWAP3 POP POP POP JUMP JUMPDEST PUSH0 PUSH1 0x20 DUP3 ADD SWAP1 POP DUP2 DUP2 SUB PUSH0 DUP4 ADD MSTORE PUSH2 0x437C DUP2 DUP5 DUP7 PUSH2 0x4337 JUMP JUMPDEST SWAP1 POP SWAP4 SWAP3 POP POP POP JUMP JUMPDEST PUSH0 PUSH1 0x40 MLOAD SWAP1 POP SWAP1 JUMP JUMPDEST PUSH0 PUSH0 REVERT JUMPDEST PUSH0 PUSH0 REVERT JUMPDEST PUSH0 PUSH32 0xFFFFFFFF00000000000000000000000000000000000000000000000000000000 DUP3 AND SWAP1 POP SWAP2 SWAP1 POP JUMP JUMPDEST PUSH2 0x43CA DUP2 PUSH2 0x4396 JUMP JUMPDEST DUP2 EQ PUSH2 0x43D4 JUMPI PUSH0 PUSH0 REVERT JUMPDEST POP JUMP JUMPDEST PUSH0 DUP2 CALLDATALOAD SWAP1 POP PUSH2 0x43E5 DUP2 PUSH2 0x43C1 JUMP JUMPDEST SWAP3 SWAP2 POP POP JUMP JUMPDEST PUSH0 PUSH1 0x20 DUP3 DUP5 SUB SLT ISZERO PUSH2 0x4400 JUMPI PUSH2 0x43FF PUSH2 0x438E JUMP JUMPDEST JUMPDEST PUSH0 PUSH2 0x440D DUP5 DUP3 DUP6 ADD PUSH2 0x43D7 JUMP JUMPDEST SWAP2 POP POP SWAP3 SWAP2 POP POP JUMP JUMPDEST PUSH0 DUP2 ISZERO ISZERO SWAP1 POP SWAP2 SWAP1 POP JUMP JUMPDEST PUSH2 0x442A DUP2 PUSH2 0x4416 JUMP JUMPDEST DUP3 MSTORE POP POP JUMP JUMPDEST PUSH0 PUSH1 0x20 DUP3 ADD SWAP1 POP PUSH2 0x4443 PUSH0 DUP4 ADD DUP5 PUSH2 0x4421 JUMP JUMPDEST SWAP3 SWAP2 POP POP JUMP JUMPDEST PUSH0 PUSH20 0xFFFFFFFFFFFFFFFFFFFFFFFFFFFFFFFFFFFFFFFF DUP3 AND SWAP1 POP SWAP2 SWAP1 POP JUMP JUMPDEST PUSH0 PUSH2 0x4472 DUP3 PUSH2 0x4449 JUMP JUMPDEST SWAP1 POP SWAP2 SWAP1 POP JUMP JUMPDEST PUSH2 0x4482 DUP2 PUSH2 0x4468 JUMP JUMPDEST DUP2 EQ PUSH2 0x448C JUMPI PUSH0 PUSH0 REVERT JUMPDEST POP JUMP JUMPDEST PUSH0 DUP2 CALLDATALOAD SWAP1 POP PUSH2 0x449D DUP2 PUSH2 0x4479 JUMP JUMPDEST SWAP3 SWAP2 POP POP JUMP JUMPDEST PUSH0 PUSH1 0x20 DUP3 DUP5 SUB SLT ISZERO PUSH2 0x44B8 JUMPI PUSH2 0x44B7 PUSH2 0x438E JUMP JUMPDEST JUMPDEST PUSH0 PUSH2 0x44C5 DUP5 DUP3 DUP6 ADD PUSH2 0x448F JUMP JUMPDEST SWAP2 POP POP SWAP3 SWAP2 POP POP JUMP JUMPDEST PUSH0 DUP2 SWAP1 POP SWAP2 SWAP1 POP JUMP JUMPDEST PUSH2 0x44E0 DUP2 PUSH2 0x44CE JUMP JUMPDEST DUP2 EQ PUSH2 0x44EA JUMPI PUSH0 PUSH0 REVERT JUMPDEST POP JUMP JUMPDEST PUSH0 DUP2 CALLDATALOAD SWAP1 POP PUSH2 0x44FB DUP2 PUSH2 0x44D7 JUMP JUMPDEST SWAP3 SWAP2 POP POP JUMP JUMPDEST PUSH0 PUSH0 PUSH1 0x40 DUP4 DUP6 SUB SLT ISZERO PUSH2 0x4517 JUMPI PUSH2 0x4516 PUSH2 0x438E JUMP JUMPDEST JUMPDEST PUSH0 PUSH2 0x4524 DUP6 DUP3 DUP7 ADD PUSH2 0x44ED JUMP JUMPDEST SWAP3 POP POP PUSH1 0x20 PUSH2 0x4535 DUP6 DUP3 DUP7 ADD PUSH2 0x44ED JUMP JUMPDEST SWAP2 POP POP SWAP3 POP SWAP3 SWAP1 POP JUMP JUMPDEST PUSH0 DUP2 MLOAD SWAP1 POP SWAP2 SWAP1 POP JUMP JUMPDEST DUP3 DUP2 DUP4 MCOPY PUSH0 DUP4 DUP4 ADD MSTORE POP POP POP JUMP JUMPDEST PUSH0 PUSH2 0x4561 DUP3 PUSH2 0x453F JUMP JUMPDEST PUSH2 0x456B DUP2 DUP6 PUSH2 0x42C1 JUMP JUMPDEST SWAP4 POP PUSH2 0x457B DUP2 DUP6 PUSH1 0x20 DUP7 ADD PUSH2 0x4549 JUMP JUMPDEST PUSH2 0x4584 DUP2 PUSH2 0x4327 JUMP JUMPDEST DUP5 ADD SWAP2 POP POP SWAP3 SWAP2 POP POP JUMP JUMPDEST PUSH0 PUSH1 0x20 DUP3 ADD SWAP1 POP DUP2 DUP2 SUB PUSH0 DUP4 ADD MSTORE PUSH2 0x45A7 DUP2 DUP5 PUSH2 0x4557 JUMP JUMPDEST SWAP1 POP SWAP3 SWAP2 POP POP JUMP JUMPDEST PUSH0 DUP2 SWAP1 POP SWAP2 SWAP1 POP JUMP JUMPDEST PUSH2 0x45C1 DUP2 PUSH2 0x45AF JUMP JUMPDEST DUP3 MSTORE POP POP JUMP JUMPDEST PUSH0 PUSH1 0x20 DUP3 ADD SWAP1 POP PUSH2 0x45DA PUSH0 DUP4 ADD DUP5 PUSH2 0x45B8 JUMP JUMPDEST SWAP3 SWAP2 POP POP JUMP JUMPDEST PUSH0 PUSH0 REVERT JUMPDEST PUSH32 0x4E487B7100000000000000000000000000000000000000000000000000000000 PUSH0 MSTORE PUSH1 0x41 PUSH1 0x4 MSTORE PUSH1 0x24 PUSH0 REVERT JUMPDEST PUSH2 0x461A DUP3 PUSH2 0x4327 JUMP JUMPDEST DUP2 ADD DUP2 DUP2 LT PUSH8 0xFFFFFFFFFFFFFFFF DUP3 GT OR ISZERO PUSH2 0x4639 JUMPI PUSH2 0x4638 PUSH2 0x45E4 JUMP JUMPDEST JUMPDEST DUP1 PUSH1 0x40 MSTORE POP POP POP JUMP JUMPDEST PUSH0 PUSH2 0x464B PUSH2 0x4385 JUMP JUMPDEST SWAP1 POP PUSH2 0x4657 DUP3 DUP3 PUSH2 0x4611 JUMP JUMPDEST SWAP2 SWAP1 POP JUMP JUMPDEST PUSH0 PUSH8 0xFFFFFFFFFFFFFFFF DUP3 GT ISZERO PUSH2 0x4676 JUMPI PUSH2 0x4675 PUSH2 0x45E4 JUMP JUMPDEST JUMPDEST PUSH1 0x20 DUP3 MUL SWAP1 POP PUSH1 0x20 DUP2 ADD SWAP1 POP SWAP2 SWAP1 POP JUMP JUMPDEST PUSH0 PUSH0 REVERT JUMPDEST PUSH0 PUSH2 0x469D PUSH2 0x4698 DUP5 PUSH2 0x465C JUMP JUMPDEST PUSH2 0x4642 JUMP JUMPDEST SWAP1 POP DUP1 DUP4 DUP3 MSTORE PUSH1 0x20 DUP3 ADD SWAP1 POP PUSH1 0x20 DUP5 MUL DUP4 ADD DUP6 DUP2 GT ISZERO PUSH2 0x46C0 JUMPI PUSH2 0x46BF PUSH2 0x4687 JUMP JUMPDEST JUMPDEST DUP4 JUMPDEST DUP2 DUP2 LT ISZERO PUSH2 0x46E9 JUMPI DUP1 PUSH2 0x46D5 DUP9 DUP3 PUSH2 0x44ED JUMP JUMPDEST DUP5 MSTORE PUSH1 0x20 DUP5 ADD SWAP4 POP POP PUSH1 0x20 DUP2 ADD SWAP1 POP PUSH2 0x46C2 JUMP JUMPDEST POP POP POP SWAP4 SWAP3 POP POP POP JUMP JUMPDEST PUSH0 DUP3 PUSH1 0x1F DUP4 ADD SLT PUSH2 0x4707 JUMPI PUSH2 0x4706 PUSH2 0x45E0 JUMP JUMPDEST JUMPDEST DUP2 CALLDATALOAD PUSH2 0x4717 DUP5 DUP3 PUSH1 0x20 DUP7 ADD PUSH2 0x468B JUMP JUMPDEST SWAP2 POP POP SWAP3 SWAP2 POP POP JUMP JUMPDEST PUSH0 PUSH0 PUSH1 0x40 DUP4 DUP6 SUB SLT ISZERO PUSH2 0x4736 JUMPI PUSH2 0x4735 PUSH2 0x438E JUMP JUMPDEST JUMPDEST PUSH0 DUP4 ADD CALLDATALOAD PUSH8 0xFFFFFFFFFFFFFFFF DUP2 GT ISZERO PUSH2 0x4753 JUMPI PUSH2 0x4752 PUSH2 0x4392 JUMP JUMPDEST JUMPDEST PUSH2 0x475F DUP6 DUP3 DUP7 ADD PUSH2 0x46F3 JUMP JUMPDEST SWAP3 POP POP PUSH1 0x20 DUP4 ADD CALLDATALOAD PUSH8 0xFFFFFFFFFFFFFFFF DUP2 GT ISZERO PUSH2 0x4780 JUMPI PUSH2 0x477F PUSH2 0x4392 JUMP JUMPDEST JUMPDEST PUSH2 0x478C DUP6 DUP3 DUP7 ADD PUSH2 0x46F3 JUMP JUMPDEST SWAP2 POP POP SWAP3 POP SWAP3 SWAP1 POP JUMP JUMPDEST PUSH0 DUP2 MLOAD SWAP1 POP SWAP2 SWAP1 POP JUMP JUMPDEST PUSH0 DUP3 DUP3 MSTORE PUSH1 0x20 DUP3 ADD SWAP1 POP SWAP3 SWAP2 POP POP JUMP JUMPDEST PUSH0 DUP2 SWAP1 POP PUSH1 0x20 DUP3 ADD SWAP1 POP SWAP2 SWAP1 POP JUMP JUMPDEST PUSH0 DUP3 DUP3 MSTORE PUSH1 0x20 DUP3 ADD SWAP1 POP SWAP3 SWAP2 POP POP JUMP JUMPDEST PUSH0 PUSH2 0x47D9 DUP3 PUSH2 0x453F JUMP JUMPDEST PUSH2 0x47E3 DUP2 DUP6 PUSH2 0x47BF JUMP JUMPDEST SWAP4 POP PUSH2 0x47F3 DUP2 DUP6 PUSH1 0x20 DUP7 ADD PUSH2 0x4549 JUMP JUMPDEST PUSH2 0x47FC DUP2 PUSH2 0x4327 JUMP JUMPDEST DUP5 ADD SWAP2 POP POP SWAP3 SWAP2 POP POP JUMP JUMPDEST PUSH0 PUSH2 0x4812 DUP4 DUP4 PUSH2 0x47CF JUMP JUMPDEST SWAP1 POP SWAP3 SWAP2 POP POP JUMP JUMPDEST PUSH0 PUSH1 0x20 DUP3 ADD SWAP1 POP SWAP2 SWAP1 POP JUMP JUMPDEST PUSH0 PUSH2 0x4830 DUP3 PUSH2 0x4796 JUMP JUMPDEST PUSH2 0x483A DUP2 DUP6 PUSH2 0x47A0 JUMP JUMPDEST SWAP4 POP DUP4 PUSH1 0x20 DUP3 MUL DUP6 ADD PUSH2 0x484C DUP6 PUSH2 0x47B0 JUMP JUMPDEST DUP1 PUSH0 JUMPDEST DUP6 DUP2 LT ISZERO PUSH2 0x4887 JUMPI DUP5 DUP5 SUB DUP10 MSTORE DUP2 MLOAD PUSH2 0x4868 DUP6 DUP3 PUSH2 0x4807 JUMP JUMPDEST SWAP5 POP PUSH2 0x4873 DUP4 PUSH2 0x481A JUMP JUMPDEST SWAP3 POP PUSH1 0x20 DUP11 ADD SWAP10 POP POP PUSH1 0x1 DUP2 ADD SWAP1 POP PUSH2 0x484F JUMP JUMPDEST POP DUP3 SWAP8 POP DUP8 SWAP6 POP POP POP POP POP POP SWAP3 SWAP2 POP POP JUMP JUMPDEST PUSH0 PUSH1 0x20 DUP3 ADD SWAP1 POP DUP2 DUP2 SUB PUSH0 DUP4 ADD MSTORE PUSH2 0x48B1 DUP2 DUP5 PUSH2 0x4826 JUMP JUMPDEST SWAP1 POP SWAP3 SWAP2 POP POP JUMP JUMPDEST PUSH2 0x48C2 DUP2 PUSH2 0x4468 JUMP JUMPDEST DUP3 MSTORE POP POP JUMP JUMPDEST PUSH0 PUSH1 0x20 DUP3 ADD SWAP1 POP PUSH2 0x48DB PUSH0 DUP4 ADD DUP5 PUSH2 0x48B9 JUMP JUMPDEST SWAP3 SWAP2 POP POP JUMP JUMPDEST PUSH0 PUSH1 0x20 DUP3 DUP5 SUB SLT ISZERO PUSH2 0x48F6 JUMPI PUSH2 0x48F5 PUSH2 0x438E JUMP JUMPDEST JUMPDEST PUSH0 PUSH2 0x4903 DUP5 DUP3 DUP6 ADD PUSH2 0x44ED JUMP JUMPDEST SWAP2 POP POP SWAP3 SWAP2 POP POP JUMP JUMPDEST PUSH0 PUSH0 PUSH1 0x40 DUP4 DUP6 SUB SLT ISZERO PUSH2 0x4922 JUMPI PUSH2 0x4921 PUSH2 0x438E JUMP JUMPDEST JUMPDEST PUSH0 PUSH2 0x492F DUP6 DUP3 DUP7 ADD PUSH2 0x44ED JUMP JUMPDEST SWAP3 POP POP PUSH1 0x20 PUSH2 0x4940 DUP6 DUP3 DUP7 ADD PUSH2 0x448F JUMP JUMPDEST SWAP2 POP POP SWAP3 POP SWAP3 SWAP1 POP JUMP JUMPDEST PUSH0 PUSH0 PUSH1 0x40 DUP4 DUP6 SUB SLT ISZERO PUSH2 0x4960 JUMPI PUSH2 0x495F PUSH2 0x438E JUMP JUMPDEST JUMPDEST PUSH0 PUSH2 0x496D DUP6 DUP3 DUP7 ADD PUSH2 0x448F JUMP JUMPDEST SWAP3 POP POP PUSH1 0x20 PUSH2 0x497E DUP6 DUP3 DUP7 ADD PUSH2 0x44ED JUMP JUMPDEST SWAP2 POP POP SWAP3 POP SWAP3 SWAP1 POP JUMP JUMPDEST PUSH0 PUSH0 REVERT JUMPDEST PUSH0 PUSH0 DUP4 PUSH1 0x1F DUP5 ADD SLT PUSH2 0x49A1 JUMPI PUSH2 0x49A0 PUSH2 0x45E0 JUMP JUMPDEST JUMPDEST DUP3 CALLDATALOAD SWAP1 POP PUSH8 0xFFFFFFFFFFFFFFFF DUP2 GT ISZERO PUSH2 0x49BE JUMPI PUSH2 0x49BD PUSH2 0x4988 JUMP JUMPDEST JUMPDEST PUSH1 0x20 DUP4 ADD SWAP2 POP DUP4 PUSH1 0x1 DUP3 MUL DUP4 ADD GT ISZERO PUSH2 0x49DA JUMPI PUSH2 0x49D9 PUSH2 0x4687 JUMP JUMPDEST JUMPDEST SWAP3 POP SWAP3 SWAP1 POP JUMP JUMPDEST PUSH0 PUSH0 PUSH0 PUSH1 0x40 DUP5 DUP7 SUB SLT ISZERO PUSH2 0x49F8 JUMPI PUSH2 0x49F7 PUSH2 0x438E JUMP JUMPDEST JUMPDEST PUSH0 PUSH2 0x4A05 DUP7 DUP3 DUP8 ADD PUSH2 0x44ED JUMP JUMPDEST SWAP4 POP POP PUSH1 0x20 DUP5 ADD CALLDATALOAD PUSH8 0xFFFFFFFFFFFFFFFF DUP2 GT ISZERO PUSH2 0x4A26 JUMPI PUSH2 0x4A25 PUSH2 0x4392 JUMP JUMPDEST JUMPDEST PUSH2 0x4A32 DUP7 DUP3 DUP8 ADD PUSH2 0x498C JUMP JUMPDEST SWAP3 POP SWAP3 POP POP SWAP3 POP SWAP3 POP SWAP3 JUMP JUMPDEST PUSH0 DUP2 MLOAD SWAP1 POP SWAP2 SWAP1 POP JUMP JUMPDEST PUSH0 DUP3 DUP3 MSTORE PUSH1 0x20 DUP3 ADD SWAP1 POP SWAP3 SWAP2 POP POP JUMP JUMPDEST PUSH0 DUP2 SWAP1 POP PUSH1 0x20 DUP3 ADD SWAP1 POP SWAP2 SWAP1 POP JUMP JUMPDEST PUSH2 0x4A70 DUP2 PUSH2 0x4468 JUMP JUMPDEST DUP3 MSTORE POP POP JUMP JUMPDEST PUSH0 PUSH2 0x4A81 DUP4 DUP4 PUSH2 0x4A67 JUMP JUMPDEST PUSH1 0x20 DUP4 ADD SWAP1 POP SWAP3 SWAP2 POP POP JUMP JUMPDEST PUSH0 PUSH1 0x20 DUP3 ADD SWAP1 POP SWAP2 SWAP1 POP JUMP JUMPDEST PUSH0 PUSH2 0x4AA3 DUP3 PUSH2 0x4A3E JUMP JUMPDEST PUSH2 0x4AAD DUP2 DUP6 PUSH2 0x4A48 JUMP JUMPDEST SWAP4 POP PUSH2 0x4AB8 DUP4 PUSH2 0x4A58 JUMP JUMPDEST DUP1 PUSH0 JUMPDEST DUP4 DUP2 LT ISZERO PUSH2 0x4AE8 JUMPI DUP2 MLOAD PUSH2 0x4ACF DUP9 DUP3 PUSH2 0x4A76 JUMP JUMPDEST SWAP8 POP PUSH2 0x4ADA DUP4 PUSH2 0x4A8D JUMP JUMPDEST SWAP3 POP POP PUSH1 0x1 DUP2 ADD SWAP1 POP PUSH2 0x4ABB JUMP JUMPDEST POP DUP6 SWAP4 POP POP POP POP SWAP3 SWAP2 POP POP JUMP JUMPDEST PUSH0 PUSH1 0x20 DUP3 ADD SWAP1 POP DUP2 DUP2 SUB PUSH0 DUP4 ADD MSTORE PUSH2 0x4B0D DUP2 DUP5 PUSH2 0x4A99 JUMP JUMPDEST SWAP1 POP SWAP3 SWAP2 POP POP JUMP JUMPDEST PUSH2 0x4B1E DUP2 PUSH2 0x4416 JUMP JUMPDEST DUP2 EQ PUSH2 0x4B28 JUMPI PUSH0 PUSH0 REVERT JUMPDEST POP JUMP JUMPDEST PUSH0 DUP2 CALLDATALOAD SWAP1 POP PUSH2 0x4B39 DUP2 PUSH2 0x4B15 JUMP JUMPDEST SWAP3 SWAP2 POP POP JUMP JUMPDEST PUSH0 PUSH0 REVERT JUMPDEST PUSH0 PUSH8 0xFFFFFFFFFFFFFFFF DUP3 GT ISZERO PUSH2 0x4B5D JUMPI PUSH2 0x4B5C PUSH2 0x45E4 JUMP JUMPDEST JUMPDEST PUSH2 0x4B66 DUP3 PUSH2 0x4327 JUMP JUMPDEST SWAP1 POP PUSH1 0x20 DUP2 ADD SWAP1 POP SWAP2 SWAP1 POP JUMP JUMPDEST PUSH0 PUSH2 0x4B85 PUSH2 0x4B80 DUP5 PUSH2 0x4B43 JUMP JUMPDEST PUSH2 0x4642 JUMP JUMPDEST SWAP1 POP DUP3 DUP2 MSTORE PUSH1 0x20 DUP2 ADD DUP5 DUP5 DUP5 ADD GT ISZERO PUSH2 0x4BA1 JUMPI PUSH2 0x4BA0 PUSH2 0x4B3F JUMP JUMPDEST JUMPDEST PUSH2 0x4BAC DUP5 DUP3 DUP6 PUSH2 0x4319 JUMP JUMPDEST POP SWAP4 SWAP3 POP POP POP JUMP JUMPDEST PUSH0 DUP3 PUSH1 0x1F DUP4 ADD SLT PUSH2 0x4BC8 JUMPI PUSH2 0x4BC7 PUSH2 0x45E0 JUMP JUMPDEST JUMPDEST DUP2 CALLDATALOAD PUSH2 0x4BD8 DUP5 DUP3 PUSH1 0x20 DUP7 ADD PUSH2 0x4B73 JUMP JUMPDEST SWAP2 POP POP SWAP3 SWAP2 POP POP JUMP JUMPDEST PUSH0 PUSH0 PUSH0 PUSH0 PUSH0 PUSH1 0xA0 DUP7 DUP9 SUB SLT ISZERO PUSH2 0x4BFA JUMPI PUSH2 0x4BF9 PUSH2 0x438E JUMP JUMPDEST JUMPDEST PUSH0 PUSH2 0x4C07 DUP9 DUP3 DUP10 ADD PUSH2 0x448F JUMP JUMPDEST SWAP6 POP POP PUSH1 0x20 PUSH2 0x4C18 DUP9 DUP3 DUP10 ADD PUSH2 0x448F JUMP JUMPDEST SWAP5 POP POP PUSH1 0x40 PUSH2 0x4C29 DUP9 DUP3 DUP10 ADD PUSH2 0x44ED JUMP JUMPDEST SWAP4 POP POP PUSH1 0x60 PUSH2 0x4C3A DUP9 DUP3 DUP10 ADD PUSH2 0x4B2B JUMP JUMPDEST SWAP3 POP POP PUSH1 0x80 DUP7 ADD CALLDATALOAD PUSH8 0xFFFFFFFFFFFFFFFF DUP2 GT ISZERO PUSH2 0x4C5B JUMPI PUSH2 0x4C5A PUSH2 0x4392 JUMP JUMPDEST JUMPDEST PUSH2 0x4C67 DUP9 DUP3 DUP10 ADD PUSH2 0x4BB4 JUMP JUMPDEST SWAP2 POP POP SWAP3 SWAP6 POP SWAP3 SWAP6 SWAP1 SWAP4 POP JUMP JUMPDEST PUSH0 DUP2 MLOAD SWAP1 POP SWAP2 SWAP1 POP JUMP JUMPDEST PUSH0 DUP3 DUP3 MSTORE PUSH1 0x20 DUP3 ADD SWAP1 POP SWAP3 SWAP2 POP POP JUMP JUMPDEST PUSH0 PUSH2 0x4C98 DUP3 PUSH2 0x4C74 JUMP JUMPDEST PUSH2 0x4CA2 DUP2 DUP6 PUSH2 0x4C7E JUMP JUMPDEST SWAP4 POP PUSH2 0x4CB2 DUP2 DUP6 PUSH1 0x20 DUP7 ADD PUSH2 0x4549 JUMP JUMPDEST PUSH2 0x4CBB DUP2 PUSH2 0x4327 JUMP JUMPDEST DUP5 ADD SWAP2 POP POP SWAP3 SWAP2 POP POP JUMP JUMPDEST PUSH2 0x4CCF DUP2 PUSH2 0x44CE JUMP JUMPDEST DUP3 MSTORE POP POP JUMP JUMPDEST PUSH32 0x4E487B7100000000000000000000000000000000000000000000000000000000 PUSH0 MSTORE PUSH1 0x21 PUSH1 0x4 MSTORE PUSH1 0x24 PUSH0 REVERT JUMPDEST PUSH1 0x3 DUP2 LT PUSH2 0x4D13 JUMPI PUSH2 0x4D12 PUSH2 0x4CD5 JUMP JUMPDEST JUMPDEST POP JUMP JUMPDEST PUSH0 DUP2 SWAP1 POP PUSH2 0x4D23 DUP3 PUSH2 0x4D02 JUMP JUMPDEST SWAP2 SWAP1 POP JUMP JUMPDEST PUSH0 PUSH2 0x4D32 DUP3 PUSH2 0x4D16 JUMP JUMPDEST SWAP1 POP SWAP2 SWAP1 POP JUMP JUMPDEST PUSH2 0x4D42 DUP2 PUSH2 0x4D28 JUMP JUMPDEST DUP3 MSTORE POP POP JUMP JUMPDEST PUSH0 PUSH1 0xE0 DUP3 ADD SWAP1 POP DUP2 DUP2 SUB PUSH0 DUP4 ADD MSTORE PUSH2 0x4D60 DUP2 DUP11 PUSH2 0x4C8E JUMP JUMPDEST SWAP1 POP PUSH2 0x4D6F PUSH1 0x20 DUP4 ADD DUP10 PUSH2 0x48B9 JUMP JUMPDEST PUSH2 0x4D7C PUSH1 0x40 DUP4 ADD DUP9 PUSH2 0x4CC6 JUMP JUMPDEST PUSH2 0x4D89 PUSH1 0x60 DUP4 ADD DUP8 PUSH2 0x4CC6 JUMP JUMPDEST PUSH2 0x4D96 PUSH1 0x80 DUP4 ADD DUP7 PUSH2 0x4D39 JUMP JUMPDEST PUSH2 0x4DA3 PUSH1 0xA0 DUP4 ADD DUP6 PUSH2 0x45B8 JUMP JUMPDEST PUSH2 0x4DB0 PUSH1 0xC0 DUP4 ADD DUP5 PUSH2 0x45B8 JUMP JUMPDEST SWAP9 SWAP8 POP POP POP POP POP POP POP POP JUMP JUMPDEST PUSH2 0x4DC5 DUP2 PUSH2 0x45AF JUMP JUMPDEST DUP2 EQ PUSH2 0x4DCF JUMPI PUSH0 PUSH0 REVERT JUMPDEST POP JUMP JUMPDEST PUSH0 DUP2 CALLDATALOAD SWAP1 POP PUSH2 0x4DE0 DUP2 PUSH2 0x4DBC JUMP JUMPDEST SWAP3 SWAP2 POP POP JUMP JUMPDEST PUSH0 PUSH0 PUSH1 0x40 DUP4 DUP6 SUB SLT ISZERO PUSH2 0x4DFC JUMPI PUSH2 0x4DFB PUSH2 0x438E JUMP JUMPDEST JUMPDEST PUSH0 PUSH2 0x4E09 DUP6 DUP3 DUP7 ADD PUSH2 0x44ED JUMP JUMPDEST SWAP3 POP POP PUSH1 0x20 PUSH2 0x4E1A DUP6 DUP3 DUP7 ADD PUSH2 0x4DD2 JUMP JUMPDEST SWAP2 POP POP SWAP3 POP SWAP3 SWAP1 POP JUMP JUMPDEST PUSH0 PUSH0 DUP4 PUSH1 0x1F DUP5 ADD SLT PUSH2 0x4E39 JUMPI PUSH2 0x4E38 PUSH2 0x45E0 JUMP JUMPDEST JUMPDEST DUP3 CALLDATALOAD SWAP1 POP PUSH8 0xFFFFFFFFFFFFFFFF DUP2 GT ISZERO PUSH2 0x4E56 JUMPI PUSH2 0x4E55 PUSH2 0x4988 JUMP JUMPDEST JUMPDEST PUSH1 0x20 DUP4 ADD SWAP2 POP DUP4 PUSH1 0x20 DUP3 MUL DUP4 ADD GT ISZERO PUSH2 0x4E72 JUMPI PUSH2 0x4E71 PUSH2 0x4687 JUMP JUMPDEST JUMPDEST SWAP3 POP SWAP3 SWAP1 POP JUMP JUMPDEST PUSH0 PUSH0 PUSH1 0x20 DUP4 DUP6 SUB SLT ISZERO PUSH2 0x4E8F JUMPI PUSH2 0x4E8E PUSH2 0x438E JUMP JUMPDEST JUMPDEST PUSH0 DUP4 ADD CALLDATALOAD PUSH8 0xFFFFFFFFFFFFFFFF DUP2 GT ISZERO PUSH2 0x4EAC JUMPI PUSH2 0x4EAB PUSH2 0x4392 JUMP JUMPDEST JUMPDEST PUSH2 0x4EB8 DUP6 DUP3 DUP7 ADD PUSH2 0x4E24 JUMP JUMPDEST SWAP3 POP SWAP3 POP POP SWAP3 POP SWAP3 SWAP1 POP JUMP JUMPDEST PUSH0 PUSH8 0xFFFFFFFFFFFFFFFF DUP3 GT ISZERO PUSH2 0x4EDE JUMPI PUSH2 0x4EDD PUSH2 0x45E4 JUMP JUMPDEST JUMPDEST PUSH1 0x20 DUP3 MUL SWAP1 POP PUSH1 0x20 DUP2 ADD SWAP1 POP SWAP2 SWAP1 POP JUMP JUMPDEST PUSH0 PUSH2 0x4F01 PUSH2 0x4EFC DUP5 PUSH2 0x4EC4 JUMP JUMPDEST PUSH2 0x4642 JUMP JUMPDEST SWAP1 POP DUP1 DUP4 DUP3 MSTORE PUSH1 0x20 DUP3 ADD SWAP1 POP PUSH1 0x20 DUP5 MUL DUP4 ADD DUP6 DUP2 GT ISZERO PUSH2 0x4F24 JUMPI PUSH2 0x4F23 PUSH2 0x4687 JUMP JUMPDEST JUMPDEST DUP4 JUMPDEST DUP2 DUP2 LT ISZERO PUSH2 0x4F4D JUMPI DUP1 PUSH2 0x4F39 DUP9 DUP3 PUSH2 0x448F JUMP JUMPDEST DUP5 MSTORE PUSH1 0x20 DUP5 ADD SWAP4 POP POP PUSH1 0x20 DUP2 ADD SWAP1 POP PUSH2 0x4F26 JUMP JUMPDEST POP POP POP SWAP4 SWAP3 POP POP POP JUMP JUMPDEST PUSH0 DUP3 PUSH1 0x1F DUP4 ADD SLT PUSH2 0x4F6B JUMPI PUSH2 0x4F6A PUSH2 0x45E0 JUMP JUMPDEST JUMPDEST DUP2 CALLDATALOAD PUSH2 0x4F7B DUP5 DUP3 PUSH1 0x20 DUP7 ADD PUSH2 0x4EEF JUMP JUMPDEST SWAP2 POP POP SWAP3 SWAP2 POP POP JUMP JUMPDEST PUSH0 PUSH8 0xFFFFFFFFFFFFFFFF DUP3 GT ISZERO PUSH2 0x4F9E JUMPI PUSH2 0x4F9D PUSH2 0x45E4 JUMP JUMPDEST JUMPDEST PUSH1 0x20 DUP3 MUL SWAP1 POP PUSH1 0x20 DUP2 ADD SWAP1 POP SWAP2 SWAP1 POP JUMP JUMPDEST PUSH0 PUSH2 0x4FC1 PUSH2 0x4FBC DUP5 PUSH2 0x4F84 JUMP JUMPDEST PUSH2 0x4642 JUMP JUMPDEST SWAP1 POP DUP1 DUP4 DUP3 MSTORE PUSH1 0x20 DUP3 ADD SWAP1 POP PUSH1 0x20 DUP5 MUL DUP4 ADD DUP6 DUP2 GT ISZERO PUSH2 0x4FE4 JUMPI PUSH2 0x4FE3 PUSH2 0x4687 JUMP JUMPDEST JUMPDEST DUP4 JUMPDEST DUP2 DUP2 LT ISZERO PUSH2 0x500D JUMPI DUP1 PUSH2 0x4FF9 DUP9 DUP3 PUSH2 0x4B2B JUMP JUMPDEST DUP5 MSTORE PUSH1 0x20 DUP5 ADD SWAP4 POP POP PUSH1 0x20 DUP2 ADD SWAP1 POP PUSH2 0x4FE6 JUMP JUMPDEST POP POP POP SWAP4 SWAP3 POP POP POP JUMP JUMPDEST PUSH0 DUP3 PUSH1 0x1F DUP4 ADD SLT PUSH2 0x502B JUMPI PUSH2 0x502A PUSH2 0x45E0 JUMP JUMPDEST JUMPDEST DUP2 CALLDATALOAD PUSH2 0x503B DUP5 DUP3 PUSH1 0x20 DUP7 ADD PUSH2 0x4FAF JUMP JUMPDEST SWAP2 POP POP SWAP3 SWAP2 POP POP JUMP JUMPDEST PUSH0 PUSH8 0xFFFFFFFFFFFFFFFF DUP3 GT ISZERO PUSH2 0x505E JUMPI PUSH2 0x505D PUSH2 0x45E4 JUMP JUMPDEST JUMPDEST PUSH1 0x20 DUP3 MUL SWAP1 POP PUSH1 0x20 DUP2 ADD SWAP1 POP SWAP2 SWAP1 POP JUMP JUMPDEST PUSH0 PUSH2 0x5081 PUSH2 0x507C DUP5 PUSH2 0x5044 JUMP JUMPDEST PUSH2 0x4642 JUMP JUMPDEST SWAP1 POP DUP1 DUP4 DUP3 MSTORE PUSH1 0x20 DUP3 ADD SWAP1 POP PUSH1 0x20 DUP5 MUL DUP4 ADD DUP6 DUP2 GT ISZERO PUSH2 0x50A4 JUMPI PUSH2 0x50A3 PUSH2 0x4687 JUMP JUMPDEST JUMPDEST DUP4 JUMPDEST DUP2 DUP2 LT ISZERO PUSH2 0x50EB JUMPI DUP1 CALLDATALOAD PUSH8 0xFFFFFFFFFFFFFFFF DUP2 GT ISZERO PUSH2 0x50C9 JUMPI PUSH2 0x50C8 PUSH2 0x45E0 JUMP JUMPDEST JUMPDEST DUP1 DUP7 ADD PUSH2 0x50D6 DUP10 DUP3 PUSH2 0x4BB4 JUMP JUMPDEST DUP6 MSTORE PUSH1 0x20 DUP6 ADD SWAP5 POP POP POP PUSH1 0x20 DUP2 ADD SWAP1 POP PUSH2 0x50A6 JUMP JUMPDEST POP POP POP SWAP4 SWAP3 POP POP POP JUMP JUMPDEST PUSH0 DUP3 PUSH1 0x1F DUP4 ADD SLT PUSH2 0x5109 JUMPI PUSH2 0x5108 PUSH2 0x45E0 JUMP JUMPDEST JUMPDEST DUP2 CALLDATALOAD PUSH2 0x5119 DUP5 DUP3 PUSH1 0x20 DUP7 ADD PUSH2 0x506F JUMP JUMPDEST SWAP2 POP POP SWAP3 SWAP2 POP POP JUMP JUMPDEST PUSH0 PUSH0 PUSH0 PUSH0 PUSH0 PUSH1 0xA0 DUP7 DUP9 SUB SLT ISZERO PUSH2 0x513B JUMPI PUSH2 0x513A PUSH2 0x438E JUMP JUMPDEST JUMPDEST PUSH0 DUP7 ADD CALLDATALOAD PUSH8 0xFFFFFFFFFFFFFFFF DUP2 GT ISZERO PUSH2 0x5158 JUMPI PUSH2 0x5157 PUSH2 0x4392 JUMP JUMPDEST JUMPDEST PUSH2 0x5164 DUP9 DUP3 DUP10 ADD PUSH2 0x4F57 JUMP JUMPDEST SWAP6 POP POP PUSH1 0x20 DUP7 ADD CALLDATALOAD PUSH8 0xFFFFFFFFFFFFFFFF DUP2 GT ISZERO PUSH2 0x5185 JUMPI PUSH2 0x5184 PUSH2 0x4392 JUMP JUMPDEST JUMPDEST PUSH2 0x5191 DUP9 DUP3 DUP10 ADD PUSH2 0x4F57 JUMP JUMPDEST SWAP5 POP POP PUSH1 0x40 DUP7 ADD CALLDATALOAD PUSH8 0xFFFFFFFFFFFFFFFF DUP2 GT ISZERO PUSH2 0x51B2 JUMPI PUSH2 0x51B1 PUSH2 0x4392 JUMP JUMPDEST JUMPDEST PUSH2 0x51BE DUP9 DUP3 DUP10 ADD PUSH2 0x46F3 JUMP JUMPDEST SWAP4 POP POP PUSH1 0x60 DUP7 ADD CALLDATALOAD PUSH8 0xFFFFFFFFFFFFFFFF DUP2 GT ISZERO PUSH2 0x51DF JUMPI PUSH2 0x51DE PUSH2 0x4392 JUMP JUMPDEST JUMPDEST PUSH2 0x51EB DUP9 DUP3 DUP10 ADD PUSH2 0x5017 JUMP JUMPDEST SWAP3 POP POP PUSH1 0x80 DUP7 ADD CALLDATALOAD PUSH8 0xFFFFFFFFFFFFFFFF DUP2 GT ISZERO PUSH2 0x520C JUMPI PUSH2 0x520B PUSH2 0x4392 JUMP JUMPDEST JUMPDEST PUSH2 0x5218 DUP9 DUP3 DUP10 ADD PUSH2 0x50F5 JUMP JUMPDEST SWAP2 POP POP SWAP3 SWAP6 POP SWAP3 SWAP6 SWAP1 SWAP4 POP JUMP JUMPDEST PUSH0 PUSH0 PUSH1 0x40 DUP4 DUP6 SUB SLT ISZERO PUSH2 0x523B JUMPI PUSH2 0x523A PUSH2 0x438E JUMP JUMPDEST JUMPDEST PUSH0 PUSH2 0x5248 DUP6 DUP3 DUP7 ADD PUSH2 0x44ED JUMP JUMPDEST SWAP3 POP POP PUSH1 0x20 DUP4 ADD CALLDATALOAD PUSH8 0xFFFFFFFFFFFFFFFF DUP2 GT ISZERO PUSH2 0x5269 JUMPI PUSH2 0x5268 PUSH2 0x4392 JUMP JUMPDEST JUMPDEST PUSH2 0x5275 DUP6 DUP3 DUP7 ADD PUSH2 0x4BB4 JUMP JUMPDEST SWAP2 POP POP SWAP3 POP SWAP3 SWAP1 POP JUMP JUMPDEST PUSH1 0x3 DUP2 LT PUSH2 0x528B JUMPI PUSH0 PUSH0 REVERT JUMPDEST POP JUMP JUMPDEST PUSH0 DUP2 CALLDATALOAD SWAP1 POP PUSH2 0x529C DUP2 PUSH2 0x527F JUMP JUMPDEST SWAP3 SWAP2 POP POP JUMP JUMPDEST PUSH1 0x3 DUP2 LT PUSH2 0x52AE JUMPI PUSH0 PUSH0 REVERT JUMPDEST POP JUMP JUMPDEST PUSH0 DUP2 CALLDATALOAD SWAP1 POP PUSH2 0x52BF DUP2 PUSH2 0x52A2 JUMP JUMPDEST SWAP3 SWAP2 POP POP JUMP JUMPDEST PUSH0 PUSH0 PUSH0 PUSH0 PUSH0 PUSH0 PUSH0 PUSH0 PUSH0 PUSH0 PUSH0 PUSH2 0x120 DUP13 DUP15 SUB SLT ISZERO PUSH2 0x52E5 JUMPI PUSH2 0x52E4 PUSH2 0x438E JUMP JUMPDEST JUMPDEST PUSH0 DUP13 ADD CALLDATALOAD PUSH8 0xFFFFFFFFFFFFFFFF DUP2 GT ISZERO PUSH2 0x5302 JUMPI PUSH2 0x5301 PUSH2 0x4392 JUMP JUMPDEST JUMPDEST PUSH2 0x530E DUP15 DUP3 DUP16 ADD PUSH2 0x498C JUMP JUMPDEST SWAP12 POP SWAP12 POP POP PUSH1 0x20 DUP13 ADD CALLDATALOAD PUSH8 0xFFFFFFFFFFFFFFFF DUP2 GT ISZERO PUSH2 0x5331 JUMPI PUSH2 0x5330 PUSH2 0x4392 JUMP JUMPDEST JUMPDEST PUSH2 0x533D DUP15 DUP3 DUP16 ADD PUSH2 0x498C JUMP JUMPDEST SWAP10 POP SWAP10 POP POP PUSH1 0x40 PUSH2 0x5350 DUP15 DUP3 DUP16 ADD PUSH2 0x528E JUMP JUMPDEST SWAP8 POP POP PUSH1 0x60 PUSH2 0x5361 DUP15 DUP3 DUP16 ADD PUSH2 0x4DD2 JUMP JUMPDEST SWAP7 POP POP PUSH1 0x80 PUSH2 0x5372 DUP15 DUP3 DUP16 ADD PUSH2 0x4DD2 JUMP JUMPDEST SWAP6 POP POP PUSH1 0xA0 PUSH2 0x5383 DUP15 DUP3 DUP16 ADD PUSH2 0x44ED JUMP JUMPDEST SWAP5 POP POP PUSH1 0xC0 PUSH2 0x5394 DUP15 DUP3 DUP16 ADD PUSH2 0x44ED JUMP JUMPDEST SWAP4 POP POP PUSH1 0xE0 PUSH2 0x53A5 DUP15 DUP3 DUP16 ADD PUSH2 0x448F JUMP JUMPDEST SWAP3 POP POP PUSH2 0x100 PUSH2 0x53B7 DUP15 DUP3 DUP16 ADD PUSH2 0x52B1 JUMP JUMPDEST SWAP2 POP POP SWAP3 SWAP6 SWAP9 SWAP12 POP SWAP3 SWAP6 SWAP9 SWAP12 SWAP1 SWAP4 SWAP7 SWAP10 POP JUMP JUMPDEST PUSH0 PUSH0 PUSH0 PUSH1 0x60 DUP5 DUP7 SUB SLT ISZERO PUSH2 0x53E1 JUMPI PUSH2 0x53E0 PUSH2 0x438E JUMP JUMPDEST JUMPDEST PUSH0 PUSH2 0x53EE DUP7 DUP3 DUP8 ADD PUSH2 0x448F JUMP JUMPDEST SWAP4 POP POP PUSH1 0x20 PUSH2 0x53FF DUP7 DUP3 DUP8 ADD PUSH2 0x44ED JUMP JUMPDEST SWAP3 POP POP PUSH1 0x40 DUP5 ADD CALLDATALOAD PUSH8 0xFFFFFFFFFFFFFFFF DUP2 GT ISZERO PUSH2 0x5420 JUMPI PUSH2 0x541F PUSH2 0x4392 JUMP JUMPDEST JUMPDEST PUSH2 0x542C DUP7 DUP3 DUP8 ADD PUSH2 0x4BB4 JUMP JUMPDEST SWAP2 POP POP SWAP3 POP SWAP3 POP SWAP3 JUMP JUMPDEST PUSH0 PUSH0 PUSH1 0x40 DUP4 DUP6 SUB SLT ISZERO PUSH2 0x544C JUMPI PUSH2 0x544B PUSH2 0x438E JUMP JUMPDEST JUMPDEST PUSH0 DUP4 ADD CALLDATALOAD PUSH8 0xFFFFFFFFFFFFFFFF DUP2 GT ISZERO PUSH2 0x5469 JUMPI PUSH2 0x5468 PUSH2 0x4392 JUMP JUMPDEST JUMPDEST PUSH2 0x5475 DUP6 DUP3 DUP7 ADD PUSH2 0x46F3 JUMP JUMPDEST SWAP3 POP POP PUSH1 0x20 DUP4 ADD CALLDATALOAD PUSH8 0xFFFFFFFFFFFFFFFF DUP2 GT ISZERO PUSH2 0x5496 JUMPI PUSH2 0x5495 PUSH2 0x4392 JUMP JUMPDEST JUMPDEST PUSH2 0x54A2 DUP6 DUP3 DUP7 ADD PUSH2 0x50F5 JUMP JUMPDEST SWAP2 POP POP SWAP3 POP SWAP3 SWAP1 POP JUMP JUMPDEST PUSH0 DUP2 MLOAD SWAP1 POP SWAP2 SWAP1 POP JUMP JUMPDEST PUSH0 DUP3 DUP3 MSTORE PUSH1 0x20 DUP3 ADD SWAP1 POP SWAP3 SWAP2 POP POP JUMP JUMPDEST PUSH0 DUP2 SWAP1 POP PUSH1 0x20 DUP3 ADD SWAP1 POP SWAP2 SWAP1 POP JUMP JUMPDEST PUSH2 0x54DE DUP2 PUSH2 0x44CE JUMP JUMPDEST DUP3 MSTORE POP POP JUMP JUMPDEST PUSH0 PUSH2 0x54EF DUP4 DUP4 PUSH2 0x54D5 JUMP JUMPDEST PUSH1 0x20 DUP4 ADD SWAP1 POP SWAP3 SWAP2 POP POP JUMP JUMPDEST PUSH0 PUSH1 0x20 DUP3 ADD SWAP1 POP SWAP2 SWAP1 POP JUMP JUMPDEST PUSH0 PUSH2 0x5511 DUP3 PUSH2 0x54AC JUMP JUMPDEST PUSH2 0x551B DUP2 DUP6 PUSH2 0x54B6 JUMP JUMPDEST SWAP4 POP PUSH2 0x5526 DUP4 PUSH2 0x54C6 JUMP JUMPDEST DUP1 PUSH0 JUMPDEST DUP4 DUP2 LT ISZERO PUSH2 0x5556 JUMPI DUP2 MLOAD PUSH2 0x553D DUP9 DUP3 PUSH2 0x54E4 JUMP JUMPDEST SWAP8 POP PUSH2 0x5548 DUP4 PUSH2 0x54FB JUMP JUMPDEST SWAP3 POP POP PUSH1 0x1 DUP2 ADD SWAP1 POP PUSH2 0x5529 JUMP JUMPDEST POP DUP6 SWAP4 POP POP POP POP SWAP3 SWAP2 POP POP JUMP JUMPDEST PUSH0 PUSH1 0x20 DUP3 ADD SWAP1 POP DUP2 DUP2 SUB PUSH0 DUP4 ADD MSTORE PUSH2 0x557B DUP2 DUP5 PUSH2 0x5507 JUMP JUMPDEST SWAP1 POP SWAP3 SWAP2 POP POP JUMP JUMPDEST PUSH0 PUSH0 PUSH0 PUSH1 0x60 DUP5 DUP7 SUB SLT ISZERO PUSH2 0x559A JUMPI PUSH2 0x5599 PUSH2 0x438E JUMP JUMPDEST JUMPDEST PUSH0 DUP5 ADD CALLDATALOAD PUSH8 0xFFFFFFFFFFFFFFFF DUP2 GT ISZERO PUSH2 0x55B7 JUMPI PUSH2 0x55B6 PUSH2 0x4392 JUMP JUMPDEST JUMPDEST PUSH2 0x55C3 DUP7 DUP3 DUP8 ADD PUSH2 0x46F3 JUMP JUMPDEST SWAP4 POP POP PUSH1 0x20 DUP5 ADD CALLDATALOAD PUSH8 0xFFFFFFFFFFFFFFFF DUP2 GT ISZERO PUSH2 0x55E4 JUMPI PUSH2 0x55E3 PUSH2 0x4392 JUMP JUMPDEST JUMPDEST PUSH2 0x55F0 DUP7 DUP3 DUP8 ADD PUSH2 0x46F3 JUMP JUMPDEST SWAP3 POP POP PUSH1 0x40 DUP5 ADD CALLDATALOAD PUSH8 0xFFFFFFFFFFFFFFFF DUP2 GT ISZERO PUSH2 0x5611 JUMPI PUSH2 0x5610 PUSH2 0x4392 JUMP JUMPDEST JUMPDEST PUSH2 0x561D DUP7 DUP3 DUP8 ADD PUSH2 0x50F5 JUMP JUMPDEST SWAP2 POP POP SWAP3 POP SWAP3 POP SWAP3 JUMP JUMPDEST PUSH0 PUSH0 PUSH0 PUSH1 0x60 DUP5 DUP7 SUB SLT ISZERO PUSH2 0x563E JUMPI PUSH2 0x563D PUSH2 0x438E JUMP JUMPDEST JUMPDEST PUSH0 PUSH2 0x564B DUP7 DUP3 DUP8 ADD PUSH2 0x44ED JUMP JUMPDEST SWAP4 POP POP PUSH1 0x20 PUSH2 0x565C DUP7 DUP3 DUP8 ADD PUSH2 0x44ED JUMP JUMPDEST SWAP3 POP POP PUSH1 0x40 DUP5 ADD CALLDATALOAD PUSH8 0xFFFFFFFFFFFFFFFF DUP2 GT ISZERO PUSH2 0x567D JUMPI PUSH2 0x567C PUSH2 0x4392 JUMP JUMPDEST JUMPDEST PUSH2 0x5689 DUP7 DUP3 DUP8 ADD PUSH2 0x4BB4 JUMP JUMPDEST SWAP2 POP POP SWAP3 POP SWAP3 POP SWAP3 JUMP JUMPDEST PUSH0 PUSH0 PUSH0 PUSH0 PUSH1 0x80 DUP6 DUP8 SUB SLT ISZERO PUSH2 0x56AB JUMPI PUSH2 0x56AA PUSH2 0x438E JUMP JUMPDEST JUMPDEST PUSH0 PUSH2 0x56B8 DUP8 DUP3 DUP9 ADD PUSH2 0x448F JUMP JUMPDEST SWAP5 POP POP PUSH1 0x20 PUSH2 0x56C9 DUP8 DUP3 DUP9 ADD PUSH2 0x44ED JUMP JUMPDEST SWAP4 POP POP PUSH1 0x40 PUSH2 0x56DA DUP8 DUP3 DUP9 ADD PUSH2 0x4B2B JUMP JUMPDEST SWAP3 POP POP PUSH1 0x60 DUP6 ADD CALLDATALOAD PUSH8 0xFFFFFFFFFFFFFFFF DUP2 GT ISZERO PUSH2 0x56FB JUMPI PUSH2 0x56FA PUSH2 0x4392 JUMP JUMPDEST JUMPDEST PUSH2 0x5707 DUP8 DUP3 DUP9 ADD PUSH2 0x4BB4 JUMP JUMPDEST SWAP2 POP POP SWAP3 SWAP6 SWAP2 SWAP5 POP SWAP3 POP JUMP JUMPDEST PUSH0 PUSH1 0x20 DUP3 DUP5 SUB SLT ISZERO PUSH2 0x5728 JUMPI PUSH2 0x5727 PUSH2 0x438E JUMP JUMPDEST JUMPDEST PUSH0 DUP3 ADD CALLDATALOAD PUSH8 0xFFFFFFFFFFFFFFFF DUP2 GT ISZERO PUSH2 0x5745 JUMPI PUSH2 0x5744 PUSH2 0x4392 JUMP JUMPDEST JUMPDEST PUSH2 0x5751 DUP5 DUP3 DUP6 ADD PUSH2 0x46F3 JUMP JUMPDEST SWAP2 POP POP SWAP3 SWAP2 POP POP JUMP JUMPDEST PUSH0 PUSH0 PUSH0 PUSH0 PUSH0 PUSH0 PUSH0 PUSH0 PUSH0 PUSH0 PUSH2 0x100 DUP12 DUP14 SUB SLT ISZERO PUSH2 0x5779 JUMPI PUSH2 0x5778 PUSH2 0x438E JUMP JUMPDEST JUMPDEST PUSH0 PUSH2 0x5786 DUP14 DUP3 DUP15 ADD PUSH2 0x44ED JUMP JUMPDEST SWAP11 POP POP PUSH1 0x20 DUP12 ADD CALLDATALOAD PUSH8 0xFFFFFFFFFFFFFFFF DUP2 GT ISZERO PUSH2 0x57A7 JUMPI PUSH2 0x57A6 PUSH2 0x4392 JUMP JUMPDEST JUMPDEST PUSH2 0x57B3 DUP14 DUP3 DUP15 ADD PUSH2 0x498C JUMP JUMPDEST SWAP10 POP SWAP10 POP POP PUSH1 0x40 DUP12 ADD CALLDATALOAD PUSH8 0xFFFFFFFFFFFFFFFF DUP2 GT ISZERO PUSH2 0x57D6 JUMPI PUSH2 0x57D5 PUSH2 0x4392 JUMP JUMPDEST JUMPDEST PUSH2 0x57E2 DUP14 DUP3 DUP15 ADD PUSH2 0x498C JUMP JUMPDEST SWAP8 POP SWAP8 POP POP PUSH1 0x60 PUSH2 0x57F5 DUP14 DUP3 DUP15 ADD PUSH2 0x4DD2 JUMP JUMPDEST SWAP6 POP POP PUSH1 0x80 PUSH2 0x5806 DUP14 DUP3 DUP15 ADD PUSH2 0x4DD2 JUMP JUMPDEST SWAP5 POP POP PUSH1 0xA0 PUSH2 0x5817 DUP14 DUP3 DUP15 ADD PUSH2 0x4DD2 JUMP JUMPDEST SWAP4 POP POP PUSH1 0xC0 PUSH2 0x5828 DUP14 DUP3 DUP15 ADD PUSH2 0x4DD2 JUMP JUMPDEST SWAP3 POP POP PUSH1 0xE0 PUSH2 0x5839 DUP14 DUP3 DUP15 ADD PUSH2 0x448F JUMP JUMPDEST SWAP2 POP POP SWAP3 SWAP6 SWAP9 SWAP12 SWAP2 SWAP5 SWAP8 SWAP11 POP SWAP3 SWAP6 SWAP9 POP JUMP JUMPDEST PUSH2 0x5854 DUP2 PUSH2 0x4396 JUMP JUMPDEST DUP3 MSTORE POP POP JUMP JUMPDEST PUSH0 PUSH1 0x20 DUP3 ADD SWAP1 POP PUSH2 0x586D PUSH0 DUP4 ADD DUP5 PUSH2 0x584B JUMP JUMPDEST SWAP3 SWAP2 POP POP JUMP JUMPDEST PUSH0 DUP2 SWAP1 POP SWAP3 SWAP2 POP POP JUMP JUMPDEST PUSH0 PUSH2 0x5888 DUP4 DUP6 PUSH2 0x5873 JUMP JUMPDEST SWAP4 POP PUSH2 0x5895 DUP4 DUP6 DUP5 PUSH2 0x4319 JUMP JUMPDEST DUP3 DUP5 ADD SWAP1 POP SWAP4 SWAP3 POP POP POP JUMP JUMPDEST PUSH0 DUP2 PUSH1 0x60 SHL SWAP1 POP SWAP2 SWAP1 POP JUMP JUMPDEST PUSH0 PUSH2 0x58B7 DUP3 PUSH2 0x58A1 JUMP JUMPDEST SWAP1 POP SWAP2 SWAP1 POP JUMP JUMPDEST PUSH0 PUSH2 0x58C8 DUP3 PUSH2 0x58AD JUMP JUMPDEST SWAP1 POP SWAP2 SWAP1 POP JUMP JUMPDEST PUSH2 0x58E0 PUSH2 0x58DB DUP3 PUSH2 0x4468 JUMP JUMPDEST PUSH2 0x58BE JUMP JUMPDEST DUP3 MSTORE POP POP JUMP JUMPDEST PUSH0 DUP2 SWAP1 POP SWAP2 SWAP1 POP JUMP JUMPDEST PUSH2 0x5900 PUSH2 0x58FB DUP3 PUSH2 0x45AF JUMP JUMPDEST PUSH2 0x58E6 JUMP JUMPDEST DUP3 MSTORE POP POP JUMP JUMPDEST PUSH0 PUSH2 0x5912 DUP3 DUP7 DUP9 PUSH2 0x587D JUMP JUMPDEST SWAP2 POP PUSH2 0x591E DUP3 DUP6 PUSH2 0x58CF JUMP JUMPDEST PUSH1 0x14 DUP3 ADD SWAP2 POP PUSH2 0x592E DUP3 DUP5 PUSH2 0x58EF JUMP JUMPDEST PUSH1 0x20 DUP3 ADD SWAP2 POP DUP2 SWAP1 POP SWAP6 SWAP5 POP POP POP POP POP JUMP JUMPDEST PUSH0 PUSH2 0x594A DUP3 PUSH2 0x453F JUMP JUMPDEST PUSH2 0x5954 DUP2 DUP6 PUSH2 0x5873 JUMP JUMPDEST SWAP4 POP PUSH2 0x5964 DUP2 DUP6 PUSH1 0x20 DUP7 ADD PUSH2 0x4549 JUMP JUMPDEST DUP1 DUP5 ADD SWAP2 POP POP SWAP3 SWAP2 POP POP JUMP JUMPDEST PUSH0 PUSH2 0x597B DUP3 DUP5 PUSH2 0x5940 JUMP JUMPDEST SWAP2 POP DUP2 SWAP1 POP SWAP3 SWAP2 POP POP JUMP JUMPDEST PUSH32 0x4E6F74207065726D697400000000000000000000000000000000000000000000 PUSH0 DUP3 ADD MSTORE POP JUMP JUMPDEST PUSH0 PUSH2 0x59BA PUSH1 0xA DUP4 PUSH2 0x4C7E JUMP JUMPDEST SWAP2 POP PUSH2 0x59C5 DUP3 PUSH2 0x5986 JUMP JUMPDEST PUSH1 0x20 DUP3 ADD SWAP1 POP SWAP2 SWAP1 POP JUMP JUMPDEST PUSH0 PUSH1 0x20 DUP3 ADD SWAP1 POP DUP2 DUP2 SUB PUSH0 DUP4 ADD MSTORE PUSH2 0x59E7 DUP2 PUSH2 0x59AE JUMP JUMPDEST SWAP1 POP SWAP2 SWAP1 POP JUMP JUMPDEST PUSH32 0x4E487B7100000000000000000000000000000000000000000000000000000000 PUSH0 MSTORE PUSH1 0x32 PUSH1 0x4 MSTORE PUSH1 0x24 PUSH0 REVERT JUMPDEST PUSH0 PUSH1 0x20 DUP3 ADD SWAP1 POP PUSH2 0x5A2E PUSH0 DUP4 ADD DUP5 PUSH2 0x4CC6 JUMP JUMPDEST SWAP3 SWAP2 POP POP JUMP JUMPDEST PUSH32 0x4E6F7420617574686F72697A6564000000000000000000000000000000000000 PUSH0 DUP3 ADD MSTORE POP JUMP JUMPDEST PUSH0 PUSH2 0x5A68 PUSH1 0xE DUP4 PUSH2 0x4C7E JUMP JUMPDEST SWAP2 POP PUSH2 0x5A73 DUP3 PUSH2 0x5A34 JUMP JUMPDEST PUSH1 0x20 DUP3 ADD SWAP1 POP SWAP2 SWAP1 POP JUMP JUMPDEST PUSH0 PUSH1 0x20 DUP3 ADD SWAP1 POP DUP2 DUP2 SUB PUSH0 DUP4 ADD MSTORE PUSH2 0x5A95 DUP2 PUSH2 0x5A5C JUMP JUMPDEST SWAP1 POP SWAP2 SWAP1 POP JUMP JUMPDEST PUSH32 0x496E76616C6964206E6577206F776E6572000000000000000000000000000000 PUSH0 DUP3 ADD MSTORE POP JUMP JUMPDEST PUSH0 PUSH2 0x5AD0 PUSH1 0x11 DUP4 PUSH2 0x4C7E JUMP JUMPDEST SWAP2 POP PUSH2 0x5ADB DUP3 PUSH2 0x5A9C JUMP JUMPDEST PUSH1 0x20 DUP3 ADD SWAP1 POP SWAP2 SWAP1 POP JUMP JUMPDEST PUSH0 PUSH1 0x20 DUP3 ADD SWAP1 POP DUP2 DUP2 SUB PUSH0 DUP4 ADD MSTORE PUSH2 0x5AFD DUP2 PUSH2 0x5AC4 JUMP JUMPDEST SWAP1 POP SWAP2 SWAP1 POP JUMP JUMPDEST PUSH0 PUSH1 0x40 DUP3 ADD SWAP1 POP PUSH2 0x5B17 PUSH0 DUP4 ADD DUP6 PUSH2 0x48B9 JUMP JUMPDEST PUSH2 0x5B24 PUSH1 0x20 DUP4 ADD DUP5 PUSH2 0x48B9 JUMP JUMPDEST SWAP4 SWAP3 POP POP POP JUMP JUMPDEST PUSH32 0x4E487B7100000000000000000000000000000000000000000000000000000000 PUSH0 MSTORE PUSH1 0x22 PUSH1 0x4 MSTORE PUSH1 0x24 PUSH0 REVERT JUMPDEST PUSH0 PUSH1 0x2 DUP3 DIV SWAP1 POP PUSH1 0x1 DUP3 AND DUP1 PUSH2 0x5B6F JUMPI PUSH1 0x7F DUP3 AND SWAP2 POP JUMPDEST PUSH1 0x20 DUP3 LT DUP2 SUB PUSH2 0x5B82 JUMPI PUSH2 0x5B81 PUSH2 0x5B2B JUMP JUMPDEST JUMPDEST POP SWAP2 SWAP1 POP JUMP JUMPDEST PUSH0 DUP3 SWAP1 POP SWAP3 SWAP2 POP POP JUMP JUMPDEST PUSH0 DUP2 SWAP1 POP DUP2 PUSH0 MSTORE PUSH1 0x20 PUSH0 KECCAK256 SWAP1 POP SWAP2 SWAP1 POP JUMP JUMPDEST PUSH0 PUSH1 0x20 PUSH1 0x1F DUP4 ADD DIV SWAP1 POP SWAP2 SWAP1 POP JUMP JUMPDEST PUSH0 DUP3 DUP3 SHL SWAP1 POP SWAP3 SWAP2 POP POP JUMP JUMPDEST PUSH0 PUSH1 0x8 DUP4 MUL PUSH2 0x5BEE PUSH32 0xFFFFFFFFFFFFFFFFFFFFFFFFFFFFFFFFFFFFFFFFFFFFFFFFFFFFFFFFFFFFFFFF DUP3 PUSH2 0x5BB3 JUMP JUMPDEST PUSH2 0x5BF8 DUP7 DUP4 PUSH2 0x5BB3 JUMP JUMPDEST SWAP6 POP DUP1 NOT DUP5 AND SWAP4 POP DUP1 DUP7 AND DUP5 OR SWAP3 POP POP POP SWAP4 SWAP3 POP POP POP JUMP JUMPDEST PUSH0 DUP2 SWAP1 POP SWAP2 SWAP1 POP JUMP JUMPDEST PUSH0 PUSH2 0x5C33 PUSH2 0x5C2E PUSH2 0x5C29 DUP5 PUSH2 0x45AF JUMP JUMPDEST PUSH2 0x5C10 JUMP JUMPDEST PUSH2 0x45AF JUMP JUMPDEST SWAP1 POP SWAP2 SWAP1 POP JUMP JUMPDEST PUSH0 DUP2 SWAP1 POP SWAP2 SWAP1 POP JUMP JUMPDEST PUSH2 0x5C4C DUP4 PUSH2 0x5C19 JUMP JUMPDEST PUSH2 0x5C60 PUSH2 0x5C58 DUP3 PUSH2 0x5C3A JUMP JUMPDEST DUP5 DUP5 SLOAD PUSH2 0x5BBF JUMP JUMPDEST DUP3 SSTORE POP POP POP POP JUMP JUMPDEST PUSH0 PUSH0 SWAP1 POP SWAP1 JUMP JUMPDEST PUSH2 0x5C77 PUSH2 0x5C68 JUMP JUMPDEST PUSH2 0x5C82 DUP2 DUP5 DUP5 PUSH2 0x5C43 JUMP JUMPDEST POP POP POP JUMP JUMPDEST JUMPDEST DUP2 DUP2 LT ISZERO PUSH2 0x5CA5 JUMPI PUSH2 0x5C9A PUSH0 DUP3 PUSH2 0x5C6F JUMP JUMPDEST PUSH1 0x1 DUP2 ADD SWAP1 POP PUSH2 0x5C88 JUMP JUMPDEST POP POP JUMP JUMPDEST PUSH1 0x1F DUP3 GT ISZERO PUSH2 0x5CEA JUMPI PUSH2 0x5CBB DUP2 PUSH2 0x5B92 JUMP JUMPDEST PUSH2 0x5CC4 DUP5 PUSH2 0x5BA4 JUMP JUMPDEST DUP2 ADD PUSH1 0x20 DUP6 LT ISZERO PUSH2 0x5CD3 JUMPI DUP2 SWAP1 POP JUMPDEST PUSH2 0x5CE7 PUSH2 0x5CDF DUP6 PUSH2 0x5BA4 JUMP JUMPDEST DUP4 ADD DUP3 PUSH2 0x5C87 JUMP JUMPDEST POP POP JUMPDEST POP POP POP JUMP JUMPDEST PUSH0 DUP3 DUP3 SHR SWAP1 POP SWAP3 SWAP2 POP POP JUMP JUMPDEST PUSH0 PUSH2 0x5D0A PUSH0 NOT DUP5 PUSH1 0x8 MUL PUSH2 0x5CEF JUMP JUMPDEST NOT DUP1 DUP4 AND SWAP2 POP POP SWAP3 SWAP2 POP POP JUMP JUMPDEST PUSH0 PUSH2 0x5D22 DUP4 DUP4 PUSH2 0x5CFB JUMP JUMPDEST SWAP2 POP DUP3 PUSH1 0x2 MUL DUP3 OR SWAP1 POP SWAP3 SWAP2 POP POP JUMP JUMPDEST PUSH2 0x5D3C DUP4 DUP4 PUSH2 0x5B88 JUMP JUMPDEST PUSH8 0xFFFFFFFFFFFFFFFF DUP2 GT ISZERO PUSH2 0x5D55 JUMPI PUSH2 0x5D54 PUSH2 0x45E4 JUMP JUMPDEST JUMPDEST PUSH2 0x5D5F DUP3 SLOAD PUSH2 0x5B58 JUMP JUMPDEST PUSH2 0x5D6A DUP3 DUP3 DUP6 PUSH2 0x5CA9 JUMP JUMPDEST PUSH0 PUSH1 0x1F DUP4 GT PUSH1 0x1 DUP2 EQ PUSH2 0x5D97 JUMPI PUSH0 DUP5 ISZERO PUSH2 0x5D85 JUMPI DUP3 DUP8 ADD CALLDATALOAD SWAP1 POP JUMPDEST PUSH2 0x5D8F DUP6 DUP3 PUSH2 0x5D17 JUMP JUMPDEST DUP7 SSTORE POP PUSH2 0x5DF6 JUMP JUMPDEST PUSH1 0x1F NOT DUP5 AND PUSH2 0x5DA5 DUP7 PUSH2 0x5B92 JUMP JUMPDEST PUSH0 JUMPDEST DUP3 DUP2 LT ISZERO PUSH2 0x5DCC JUMPI DUP5 DUP10 ADD CALLDATALOAD DUP3 SSTORE PUSH1 0x1 DUP3 ADD SWAP2 POP PUSH1 0x20 DUP6 ADD SWAP5 POP PUSH1 0x20 DUP2 ADD SWAP1 POP PUSH2 0x5DA7 JUMP JUMPDEST DUP7 DUP4 LT ISZERO PUSH2 0x5DE9 JUMPI DUP5 DUP10 ADD CALLDATALOAD PUSH2 0x5DE5 PUSH1 0x1F DUP10 AND DUP3 PUSH2 0x5CFB JUMP JUMPDEST DUP4 SSTORE POP JUMPDEST PUSH1 0x1 PUSH1 0x2 DUP9 MUL ADD DUP9 SSTORE POP POP POP JUMPDEST POP POP POP POP POP POP POP JUMP JUMPDEST PUSH0 PUSH2 0x5E0A DUP4 DUP6 PUSH2 0x4C7E JUMP JUMPDEST SWAP4 POP PUSH2 0x5E17 DUP4 DUP6 DUP5 PUSH2 0x4319 JUMP JUMPDEST PUSH2 0x5E20 DUP4 PUSH2 0x4327 JUMP JUMPDEST DUP5 ADD SWAP1 POP SWAP4 SWAP3 POP POP POP JUMP JUMPDEST PUSH0 PUSH1 0x40 DUP3 ADD SWAP1 POP DUP2 DUP2 SUB PUSH0 DUP4 ADD MSTORE PUSH2 0x5E43 DUP2 DUP7 PUSH2 0x4C8E JUMP JUMPDEST SWAP1 POP DUP2 DUP2 SUB PUSH1 0x20 DUP4 ADD MSTORE PUSH2 0x5E58 DUP2 DUP5 DUP7 PUSH2 0x5DFF JUMP JUMPDEST SWAP1 POP SWAP5 SWAP4 POP POP POP POP JUMP JUMPDEST PUSH0 PUSH1 0x40 DUP3 ADD SWAP1 POP PUSH2 0x5E75 PUSH0 DUP4 ADD DUP6 PUSH2 0x4CC6 JUMP JUMPDEST PUSH2 0x5E82 PUSH1 0x20 DUP4 ADD DUP5 PUSH2 0x48B9 JUMP JUMPDEST SWAP4 SWAP3 POP POP POP JUMP JUMPDEST PUSH0 PUSH1 0x40 DUP3 ADD SWAP1 POP PUSH2 0x5E9C PUSH0 DUP4 ADD DUP6 PUSH2 0x45B8 JUMP JUMPDEST PUSH2 0x5EA9 PUSH1 0x20 DUP4 ADD DUP5 PUSH2 0x45B8 JUMP JUMPDEST SWAP4 SWAP3 POP POP POP JUMP JUMPDEST PUSH0 PUSH0 REVERT JUMPDEST PUSH0 PUSH0 REVERT JUMPDEST PUSH0 PUSH0 REVERT JUMPDEST PUSH0 PUSH0 DUP4 CALLDATALOAD PUSH1 0x1 PUSH1 0x20 SUB DUP5 CALLDATASIZE SUB SUB DUP2 SLT PUSH2 0x5ED8 JUMPI PUSH2 0x5ED7 PUSH2 0x5EB0 JUMP JUMPDEST JUMPDEST DUP1 DUP5 ADD SWAP3 POP DUP3 CALLDATALOAD SWAP2 POP PUSH8 0xFFFFFFFFFFFFFFFF DUP3 GT ISZERO PUSH2 0x5EFA JUMPI PUSH2 0x5EF9 PUSH2 0x5EB4 JUMP JUMPDEST JUMPDEST PUSH1 0x20 DUP4 ADD SWAP3 POP PUSH1 0x1 DUP3 MUL CALLDATASIZE SUB DUP4 SGT ISZERO PUSH2 0x5F16 JUMPI PUSH2 0x5F15 PUSH2 0x5EB8 JUMP JUMPDEST JUMPDEST POP SWAP3 POP SWAP3 SWAP1 POP JUMP JUMPDEST PUSH0 PUSH2 0x5F2A DUP3 DUP5 DUP7 PUSH2 0x587D JUMP JUMPDEST SWAP2 POP DUP2 SWAP1 POP SWAP4 SWAP3 POP POP POP JUMP JUMPDEST PUSH32 0x4E487B7100000000000000000000000000000000000000000000000000000000 PUSH0 MSTORE PUSH1 0x11 PUSH1 0x4 MSTORE PUSH1 0x24 PUSH0 REVERT JUMPDEST PUSH0 PUSH2 0x5F6D DUP3 PUSH2 0x45AF JUMP JUMPDEST SWAP2 POP PUSH2 0x5F78 DUP4 PUSH2 0x45AF JUMP JUMPDEST SWAP3 POP DUP3 DUP3 SUB SWAP1 POP DUP2 DUP2 GT ISZERO PUSH2 0x5F90 JUMPI PUSH2 0x5F8F PUSH2 0x5F36 JUMP JUMPDEST JUMPDEST SWAP3 SWAP2 POP POP JUMP JUMPDEST PUSH32 0x4E487B7100000000000000000000000000000000000000000000000000000000 PUSH0 MSTORE PUSH1 0x31 PUSH1 0x4 MSTORE PUSH1 0x24 PUSH0 REVERT JUMPDEST PUSH32 0x53706F757365206E6F7420666F756E6400000000000000000000000000000000 PUSH0 DUP3 ADD MSTORE POP JUMP JUMPDEST PUSH0 PUSH2 0x5FF7 PUSH1 0x10 DUP4 PUSH2 0x4C7E JUMP JUMPDEST SWAP2 POP PUSH2 0x6002 DUP3 PUSH2 0x5FC3 JUMP JUMPDEST PUSH1 0x20 DUP3 ADD SWAP1 POP SWAP2 SWAP1 POP JUMP JUMPDEST PUSH0 PUSH1 0x20 DUP3 ADD SWAP1 POP DUP2 DUP2 SUB PUSH0 DUP4 ADD MSTORE PUSH2 0x6024 DUP2 PUSH2 0x5FEB JUMP JUMPDEST SWAP1 POP SWAP2 SWAP1 POP JUMP JUMPDEST PUSH1 0x3 DUP2 LT PUSH2 0x603C JUMPI PUSH2 0x603B PUSH2 0x4CD5 JUMP JUMPDEST JUMPDEST POP JUMP JUMPDEST PUSH0 DUP2 SWAP1 POP PUSH2 0x604C DUP3 PUSH2 0x602B JUMP JUMPDEST SWAP2 SWAP1 POP JUMP JUMPDEST PUSH0 PUSH2 0x605B DUP3 PUSH2 0x603F JUMP JUMPDEST SWAP1 POP SWAP2 SWAP1 POP JUMP JUMPDEST PUSH2 0x606B DUP2 PUSH2 0x6051 JUMP JUMPDEST DUP3 MSTORE POP POP JUMP JUMPDEST PUSH0 PUSH1 0x20 DUP3 ADD SWAP1 POP PUSH2 0x6084 PUSH0 DUP4 ADD DUP5 PUSH2 0x6062 JUMP JUMPDEST SWAP3 SWAP2 POP POP JUMP JUMPDEST PUSH0 PUSH1 0x60 DUP3 ADD SWAP1 POP PUSH2 0x609D PUSH0 DUP4 ADD DUP7 PUSH2 0x48B9 JUMP JUMPDEST PUSH2 0x60AA PUSH1 0x20 DUP4 ADD DUP6 PUSH2 0x4CC6 JUMP JUMPDEST PUSH2 0x60B7 PUSH1 0x40 DUP4 ADD DUP5 PUSH2 0x48B9 JUMP JUMPDEST SWAP5 SWAP4 POP POP POP POP JUMP JUMPDEST PUSH0 PUSH1 0x40 DUP3 ADD SWAP1 POP PUSH2 0x60D2 PUSH0 DUP4 ADD DUP6 PUSH2 0x48B9 JUMP JUMPDEST PUSH2 0x60DF PUSH1 0x20 DUP4 ADD DUP5 PUSH2 0x4CC6 JUMP JUMPDEST SWAP4 SWAP3 POP POP POP JUMP JUMPDEST PUSH0 PUSH1 0x80 DUP3 ADD SWAP1 POP PUSH2 0x60F9 PUSH0 DUP4 ADD DUP8 PUSH2 0x48B9 JUMP JUMPDEST PUSH2 0x6106 PUSH1 0x20 DUP4 ADD DUP7 PUSH2 0x4CC6 JUMP JUMPDEST PUSH2 0x6113 PUSH1 0x40 DUP4 ADD DUP6 PUSH2 0x4421 JUMP JUMPDEST DUP2 DUP2 SUB PUSH1 0x60 DUP4 ADD MSTORE PUSH2 0x6125 DUP2 DUP5 PUSH2 0x4557 JUMP JUMPDEST SWAP1 POP SWAP6 SWAP5 POP POP POP POP POP JUMP JUMPDEST PUSH32 0x4E6F74206368696C64206F66207468697320706572736F6E0000000000000000 PUSH0 DUP3 ADD MSTORE POP JUMP JUMPDEST PUSH0 PUSH2 0x6164 PUSH1 0x18 DUP4 PUSH2 0x4C7E JUMP JUMPDEST SWAP2 POP PUSH2 0x616F DUP3 PUSH2 0x6130 JUMP JUMPDEST PUSH1 0x20 DUP3 ADD SWAP1 POP SWAP2 SWAP1 POP JUMP JUMPDEST PUSH0 PUSH1 0x20 DUP3 ADD SWAP1 POP DUP2 DUP2 SUB PUSH0 DUP4 ADD MSTORE PUSH2 0x6191 DUP2 PUSH2 0x6158 JUMP JUMPDEST SWAP1 POP SWAP2 SWAP1 POP JUMP JUMPDEST PUSH32 0x4368696C64206E6F7420666F756E640000000000000000000000000000000000 PUSH0 DUP3 ADD MSTORE POP JUMP JUMPDEST PUSH0 PUSH2 0x61CC PUSH1 0xF DUP4 PUSH2 0x4C7E JUMP JUMPDEST SWAP2 POP PUSH2 0x61D7 DUP3 PUSH2 0x6198 JUMP JUMPDEST PUSH1 0x20 DUP3 ADD SWAP1 POP SWAP2 SWAP1 POP JUMP JUMPDEST PUSH0 PUSH1 0x20 DUP3 ADD SWAP1 POP DUP2 DUP2 SUB PUSH0 DUP4 ADD MSTORE PUSH2 0x61F9 DUP2 PUSH2 0x61C0 JUMP JUMPDEST SWAP1 POP SWAP2 SWAP1 POP JUMP JUMPDEST PUSH32 0x496E76616C69642062697274682074696D657374616D70000000000000000000 PUSH0 DUP3 ADD MSTORE POP JUMP JUMPDEST PUSH0 PUSH2 0x6234 PUSH1 0x17 DUP4 PUSH2 0x4C7E JUMP JUMPDEST SWAP2 POP PUSH2 0x623F DUP3 PUSH2 0x6200 JUMP JUMPDEST PUSH1 0x20 DUP3 ADD SWAP1 POP SWAP2 SWAP1 POP JUMP JUMPDEST PUSH0 PUSH1 0x20 DUP3 ADD SWAP1 POP DUP2 DUP2 SUB PUSH0 DUP4 ADD MSTORE PUSH2 0x6261 DUP2 PUSH2 0x6228 JUMP JUMPDEST SWAP1 POP SWAP2 SWAP1 POP JUMP JUMPDEST PUSH0 PUSH1 0x60 DUP3 ADD SWAP1 POP PUSH2 0x627B PUSH0 DUP4 ADD DUP7 PUSH2 0x48B9 JUMP JUMPDEST PUSH2 0x6288 PUSH1 0x20 DUP4 ADD DUP6 PUSH2 0x48B9 JUMP JUMPDEST PUSH2 0x6295 PUSH1 0x40 DUP4 ADD DUP5 PUSH2 0x4CC6 JUMP JUMPDEST SWAP5 SWAP4 POP POP POP POP JUMP JUMPDEST PUSH32 0x4F776E61626C653A206E6577206F776E657220697320746865207A65726F2061 PUSH0 DUP3 ADD MSTORE PUSH32 0x6464726573730000000000000000000000000000000000000000000000000000 PUSH1 0x20 DUP3 ADD MSTORE POP JUMP JUMPDEST PUSH0 PUSH2 0x62F7 PUSH1 0x26 DUP4 PUSH2 0x4C7E JUMP JUMPDEST SWAP2 POP PUSH2 0x6302 DUP3 PUSH2 0x629D JUMP JUMPDEST PUSH1 0x40 DUP3 ADD SWAP1 POP SWAP2 SWAP1 POP JUMP JUMPDEST PUSH0 PUSH1 0x20 DUP3 ADD SWAP1 POP DUP2 DUP2 SUB PUSH0 DUP4 ADD MSTORE PUSH2 0x6324 DUP2 PUSH2 0x62EB JUMP JUMPDEST SWAP1 POP SWAP2 SWAP1 POP JUMP JUMPDEST PUSH0 DUP2 SWAP1 POP PUSH1 0x20 DUP3 ADD SWAP1 POP SWAP2 SWAP1 POP JUMP JUMPDEST PUSH0 PUSH32 0xFFFFFFFFFFFFFFFFFFFFFFFFFFFFFFFFFFFFFFFF000000000000000000000000 DUP3 AND SWAP1 POP SWAP2 SWAP1 POP JUMP JUMPDEST PUSH0 PUSH2 0x6370 DUP3 MLOAD PUSH2 0x633A JUMP JUMPDEST DUP1 SWAP2 POP POP SWAP2 SWAP1 POP JUMP JUMPDEST PUSH0 PUSH2 0x6383 DUP3 PUSH2 0x453F JUMP JUMPDEST DUP3 PUSH2 0x638D DUP5 PUSH2 0x632B JUMP JUMPDEST SWAP1 POP PUSH2 0x6398 DUP2 PUSH2 0x6365 JUMP JUMPDEST SWAP3 POP PUSH1 0x14 DUP3 LT ISZERO PUSH2 0x63D8 JUMPI PUSH2 0x63D3 PUSH32 0xFFFFFFFFFFFFFFFFFFFFFFFFFFFFFFFFFFFFFFFF000000000000000000000000 DUP4 PUSH1 0x14 SUB PUSH1 0x8 MUL PUSH2 0x5BB3 JUMP JUMPDEST DUP4 AND SWAP3 POP JUMPDEST POP POP SWAP2 SWAP1 POP JUMP JUMPDEST PUSH0 DUP2 SWAP1 POP SWAP2 SWAP1 POP JUMP JUMPDEST PUSH2 0x63F9 PUSH2 0x63F4 DUP3 PUSH2 0x44CE JUMP JUMPDEST PUSH2 0x63DF JUMP JUMPDEST DUP3 MSTORE POP POP JUMP JUMPDEST PUSH0 PUSH2 0x640A DUP3 DUP6 PUSH2 0x63E8 JUMP JUMPDEST PUSH1 0x20 DUP3 ADD SWAP2 POP PUSH2 0x641A DUP3 DUP5 PUSH2 0x63E8 JUMP JUMPDEST PUSH1 0x20 DUP3 ADD SWAP2 POP DUP2 SWAP1 POP SWAP4 SWAP3 POP POP POP JUMP JUMPDEST PUSH0 PUSH1 0x60 DUP3 ADD SWAP1 POP PUSH2 0x643D PUSH0 DUP4 ADD DUP7 PUSH2 0x4CC6 JUMP JUMPDEST PUSH2 0x644A PUSH1 0x20 DUP4 ADD DUP6 PUSH2 0x48B9 JUMP JUMPDEST PUSH2 0x6457 PUSH1 0x40 DUP4 ADD DUP5 PUSH2 0x48B9 JUMP JUMPDEST SWAP5 SWAP4 POP POP POP POP JUMP JUMPDEST PUSH0 PUSH1 0x60 DUP3 ADD SWAP1 POP PUSH2 0x6472 PUSH0 DUP4 ADD DUP7 PUSH2 0x48B9 JUMP JUMPDEST PUSH2 0x647F PUSH1 0x20 DUP4 ADD DUP6 PUSH2 0x4421 JUMP JUMPDEST DUP2 DUP2 SUB PUSH1 0x40 DUP4 ADD MSTORE PUSH2 0x6491 DUP2 DUP5 PUSH2 0x4557 JUMP JUMPDEST SWAP1 POP SWAP5 SWAP4 POP POP POP POP JUMP JUMPDEST PUSH0 PUSH1 0xA0 DUP3 ADD SWAP1 POP PUSH2 0x64AE PUSH0 DUP4 ADD DUP9 PUSH2 0x48B9 JUMP JUMPDEST PUSH2 0x64BB PUSH1 0x20 DUP4 ADD DUP8 PUSH2 0x48B9 JUMP JUMPDEST PUSH2 0x64C8 PUSH1 0x40 DUP4 ADD DUP7 PUSH2 0x48B9 JUMP JUMPDEST PUSH2 0x64D5 PUSH1 0x60 DUP4 ADD DUP6 PUSH2 0x4CC6 JUMP JUMPDEST DUP2 DUP2 SUB PUSH1 0x80 DUP4 ADD MSTORE PUSH2 0x64E7 DUP2 DUP5 PUSH2 0x4557 JUMP JUMPDEST SWAP1 POP SWAP7 SWAP6 POP POP POP POP POP POP JUMP JUMPDEST PUSH32 0x4F776E61626C653A2063616C6C6572206973206E6F7420746865206F776E6572 PUSH0 DUP3 ADD MSTORE POP JUMP JUMPDEST PUSH0 PUSH2 0x6527 PUSH1 0x20 DUP4 PUSH2 0x4C7E JUMP JUMPDEST SWAP2 POP PUSH2 0x6532 DUP3 PUSH2 0x64F3 JUMP JUMPDEST PUSH1 0x20 DUP3 ADD SWAP1 POP SWAP2 SWAP1 POP JUMP JUMPDEST PUSH0 PUSH1 0x20 DUP3 ADD SWAP1 POP DUP2 DUP2 SUB PUSH0 DUP4 ADD MSTORE PUSH2 0x6554 DUP2 PUSH2 0x651B JUMP JUMPDEST SWAP1 POP SWAP2 SWAP1 POP JUMP JUMPDEST PUSH2 0x6564 DUP3 PUSH2 0x4C74 JUMP JUMPDEST PUSH8 0xFFFFFFFFFFFFFFFF DUP2 GT ISZERO PUSH2 0x657D JUMPI PUSH2 0x657C PUSH2 0x45E4 JUMP JUMPDEST JUMPDEST PUSH2 0x6587 DUP3 SLOAD PUSH2 0x5B58 JUMP JUMPDEST PUSH2 0x6592 DUP3 DUP3 DUP6 PUSH2 0x5CA9 JUMP JUMPDEST PUSH0 PUSH1 0x20 SWAP1 POP PUSH1 0x1F DUP4 GT PUSH1 0x1 DUP2 EQ PUSH2 0x65C3 JUMPI PUSH0 DUP5 ISZERO PUSH2 0x65B1 JUMPI DUP3 DUP8 ADD MLOAD SWAP1 POP JUMPDEST PUSH2 0x65BB DUP6 DUP3 PUSH2 0x5D17 JUMP JUMPDEST DUP7 SSTORE POP PUSH2 0x6622 JUMP JUMPDEST PUSH1 0x1F NOT DUP5 AND PUSH2 0x65D1 DUP7 PUSH2 0x5B92 JUMP JUMPDEST PUSH0 JUMPDEST DUP3 DUP2 LT ISZERO PUSH2 0x65F8 JUMPI DUP5 DUP10 ADD MLOAD DUP3 SSTORE PUSH1 0x1 DUP3 ADD SWAP2 POP PUSH1 0x20 DUP6 ADD SWAP5 POP PUSH1 0x20 DUP2 ADD SWAP1 POP PUSH2 0x65D3 JUMP JUMPDEST DUP7 DUP4 LT ISZERO PUSH2 0x6615 JUMPI DUP5 DUP10 ADD MLOAD PUSH2 0x6611 PUSH1 0x1F DUP10 AND DUP3 PUSH2 0x5CFB JUMP JUMPDEST DUP4 SSTORE POP JUMPDEST PUSH1 0x1 PUSH1 0x2 DUP9 MUL ADD DUP9 SSTORE POP POP POP JUMPDEST POP POP POP POP POP POP JUMP JUMPDEST PUSH0 PUSH1 0x40 DUP3 ADD SWAP1 POP DUP2 DUP2 SUB PUSH0 DUP4 ADD MSTORE PUSH2 0x6642 DUP2 DUP6 PUSH2 0x4C8E JUMP JUMPDEST SWAP1 POP PUSH2 0x6651 PUSH1 0x20 DUP4 ADD DUP5 PUSH2 0x48B9 JUMP JUMPDEST SWAP4 SWAP3 POP POP POP JUMP JUMPDEST PUSH0 DUP2 SWAP1 POP DUP2 PUSH0 MSTORE PUSH1 0x20 PUSH0 KECCAK256 SWAP1 POP SWAP2 SWAP1 POP JUMP JUMPDEST PUSH1 0x1F DUP3 GT ISZERO PUSH2 0x66AB JUMPI PUSH2 0x667C DUP2 PUSH2 0x6658 JUMP JUMPDEST PUSH2 0x6685 DUP5 PUSH2 0x5BA4 JUMP JUMPDEST DUP2 ADD PUSH1 0x20 DUP6 LT ISZERO PUSH2 0x6694 JUMPI DUP2 SWAP1 POP JUMPDEST PUSH2 0x66A8 PUSH2 0x66A0 DUP6 PUSH2 0x5BA4 JUMP JUMPDEST DUP4 ADD DUP3 PUSH2 0x5C87 JUMP JUMPDEST POP POP JUMPDEST POP POP POP JUMP JUMPDEST PUSH2 0x66B9 DUP3 PUSH2 0x453F JUMP JUMPDEST PUSH8 0xFFFFFFFFFFFFFFFF DUP2 GT ISZERO PUSH2 0x66D2 JUMPI PUSH2 0x66D1 PUSH2 0x45E4 JUMP JUMPDEST JUMPDEST PUSH2 0x66DC DUP3 SLOAD PUSH2 0x5B58 JUMP JUMPDEST PUSH2 0x66E7 DUP3 DUP3 DUP6 PUSH2 0x666A JUMP JUMPDEST PUSH0 PUSH1 0x20 SWAP1 POP PUSH1 0x1F DUP4 GT PUSH1 0x1 DUP2 EQ PUSH2 0x6718 JUMPI PUSH0 DUP5 ISZERO PUSH2 0x6706 JUMPI DUP3 DUP8 ADD MLOAD SWAP1 POP JUMPDEST PUSH2 0x6710 DUP6 DUP3 PUSH2 0x5D17 JUMP JUMPDEST DUP7 SSTORE POP PUSH2 0x6777 JUMP JUMPDEST PUSH1 0x1F NOT DUP5 AND PUSH2 0x6726 DUP7 PUSH2 0x6658 JUMP JUMPDEST PUSH0 JUMPDEST DUP3 DUP2 LT ISZERO PUSH2 0x674D JUMPI DUP5 DUP10 ADD MLOAD DUP3 SSTORE PUSH1 0x1 DUP3 ADD SWAP2 POP PUSH1 0x20 DUP6 ADD SWAP5 POP PUSH1 0x20 DUP2 ADD SWAP1 POP PUSH2 0x6728 JUMP JUMPDEST DUP7 DUP4 LT ISZERO PUSH2 0x676A JUMPI DUP5 DUP10 ADD MLOAD PUSH2 0x6766 PUSH1 0x1F DUP10 AND DUP3 PUSH2 0x5CFB JUMP JUMPDEST DUP4 SSTORE POP JUMPDEST PUSH1 0x1 PUSH1 0x2 DUP9 MUL ADD DUP9 SSTORE POP POP POP JUMPDEST POP POP POP POP POP POP JUMP JUMPDEST PUSH0 PUSH1 0x40 DUP3 ADD SWAP1 POP PUSH2 0x6792 PUSH0 DUP4 ADD DUP6 PUSH2 0x4421 JUMP JUMPDEST DUP2 DUP2 SUB PUSH1 0x20 DUP4 ADD MSTORE PUSH2 0x67A4 DUP2 DUP5 PUSH2 0x4557 JUMP JUMPDEST SWAP1 POP SWAP4 SWAP3 POP POP POP JUMP JUMPDEST PUSH0 PUSH32 0xFFFFFFFFFFFFFFFFFFFF00000000000000000000000000000000000000000000 DUP3 AND SWAP1 POP SWAP2 SWAP1 POP JUMP JUMPDEST PUSH0 DUP2 SWAP1 POP SWAP2 SWAP1 POP JUMP JUMPDEST PUSH2 0x67F2 PUSH2 0x67ED DUP3 PUSH2 0x67AD JUMP JUMPDEST PUSH2 0x67D8 JUMP JUMPDEST DUP3 MSTORE POP POP JUMP JUMPDEST PUSH0 PUSH32 0xFFFF000000000000000000000000000000000000000000000000000000000000 DUP3 AND SWAP1 POP SWAP2 SWAP1 POP JUMP JUMPDEST PUSH0 DUP2 SWAP1 POP SWAP2 SWAP1 POP JUMP JUMPDEST PUSH2 0x683D PUSH2 0x6838 DUP3 PUSH2 0x67F8 JUMP JUMPDEST PUSH2 0x6823 JUMP JUMPDEST DUP3 MSTORE POP POP JUMP JUMPDEST PUSH0 DUP2 SWAP1 POP SWAP2 SWAP1 POP JUMP JUMPDEST PUSH2 0x685D PUSH2 0x6858 DUP3 PUSH2 0x633A JUMP JUMPDEST PUSH2 0x6843 JUMP JUMPDEST DUP3 MSTORE POP POP JUMP JUMPDEST PUSH0 PUSH2 0x686E DUP3 DUP7 PUSH2 0x67E1 JUMP JUMPDEST PUSH1 0xA DUP3 ADD SWAP2 POP PUSH2 0x687E DUP3 DUP6 PUSH2 0x682C JUMP JUMPDEST PUSH1 0x2 DUP3 ADD SWAP2 POP PUSH2 0x688E DUP3 DUP5 PUSH2 0x684C JUMP JUMPDEST PUSH1 0x14 DUP3 ADD SWAP2 POP DUP2 SWAP1 POP SWAP5 SWAP4 POP POP POP POP JUMP JUMPDEST PUSH0 PUSH2 0x68AA DUP3 MLOAD PUSH2 0x44CE JUMP JUMPDEST DUP1 SWAP2 POP POP SWAP2 SWAP1 POP JUMP JUMPDEST PUSH0 PUSH2 0x68BD DUP3 PUSH2 0x453F JUMP JUMPDEST DUP3 PUSH2 0x68C7 DUP5 PUSH2 0x632B JUMP JUMPDEST SWAP1 POP PUSH2 0x68D2 DUP2 PUSH2 0x689F JUMP JUMPDEST SWAP3 POP PUSH1 0x20 DUP3 LT ISZERO PUSH2 0x6912 JUMPI PUSH2 0x690D PUSH32 0xFFFFFFFFFFFFFFFFFFFFFFFFFFFFFFFFFFFFFFFFFFFFFFFFFFFFFFFFFFFFFFFF DUP4 PUSH1 0x20 SUB PUSH1 0x8 MUL PUSH2 0x5BB3 JUMP JUMPDEST DUP4 AND SWAP3 POP JUMPDEST POP POP SWAP2 SWAP1 POP JUMP JUMPDEST PUSH0 PUSH1 0x40 DUP3 ADD SWAP1 POP PUSH2 0x692C PUSH0 DUP4 ADD DUP6 PUSH2 0x4CC6 JUMP JUMPDEST DUP2 DUP2 SUB PUSH1 0x20 DUP4 ADD MSTORE PUSH2 0x693E DUP2 DUP5 PUSH2 0x4557 JUMP JUMPDEST SWAP1 POP SWAP4 SWAP3 POP POP POP JUMP JUMPDEST PUSH0 PUSH2 0x6959 PUSH2 0x6954 DUP5 PUSH2 0x4B43 JUMP JUMPDEST PUSH2 0x4642 JUMP JUMPDEST SWAP1 POP DUP3 DUP2 MSTORE PUSH1 0x20 DUP2 ADD DUP5 DUP5 DUP5 ADD GT ISZERO PUSH2 0x6975 JUMPI PUSH2 0x6974 PUSH2 0x4B3F JUMP JUMPDEST JUMPDEST PUSH2 0x6980 DUP5 DUP3 DUP6 PUSH2 0x4549 JUMP JUMPDEST POP SWAP4 SWAP3 POP POP POP JUMP JUMPDEST PUSH0 DUP3 PUSH1 0x1F DUP4 ADD SLT PUSH2 0x699C JUMPI PUSH2 0x699B PUSH2 0x45E0 JUMP JUMPDEST JUMPDEST DUP2 MLOAD PUSH2 0x69AC DUP5 DUP3 PUSH1 0x20 DUP7 ADD PUSH2 0x6947 JUMP JUMPDEST SWAP2 POP POP SWAP3 SWAP2 POP POP JUMP JUMPDEST PUSH0 PUSH1 0x20 DUP3 DUP5 SUB SLT ISZERO PUSH2 0x69CA JUMPI PUSH2 0x69C9 PUSH2 0x438E JUMP JUMPDEST JUMPDEST PUSH0 DUP3 ADD MLOAD PUSH8 0xFFFFFFFFFFFFFFFF DUP2 GT ISZERO PUSH2 0x69E7 JUMPI PUSH2 0x69E6 PUSH2 0x4392 JUMP JUMPDEST JUMPDEST PUSH2 0x69F3 DUP5 DUP3 DUP6 ADD PUSH2 0x6988 JUMP JUMPDEST SWAP2 POP POP SWAP3 SWAP2 POP POP JUMP JUMPDEST PUSH0 PUSH2 0x6A06 DUP3 PUSH2 0x45AF JUMP JUMPDEST SWAP2 POP PUSH32 0xFFFFFFFFFFFFFFFFFFFFFFFFFFFFFFFFFFFFFFFFFFFFFFFFFFFFFFFFFFFFFFFF DUP3 SUB PUSH2 0x6A38 JUMPI PUSH2 0x6A37 PUSH2 0x5F36 JUMP JUMPDEST JUMPDEST PUSH1 0x1 DUP3 ADD SWAP1 POP SWAP2 SWAP1 POP JUMP INVALID LOG2 PUSH5 0x6970667358 0x22 SLT KECCAK256 PUSH9 0x2C6F0159333D03B980 PUSH19 0x4A03322C1A0AFEAB0D5CCC0317C6E5E377E4F8 CLZ 0xC2 PUSH5 0x736F6C6343 STOP ADDMOD 0x1F STOP CALLER LOG2 PUSH5 0x6970667358 0x22 SLT KECCAK256 ISZERO PUSH14 0x355C70B5B752CE90E079EFA56B1C SSTORE 0xD0 CALLVALUE 0xC7 SWAPN 0x6 ADDMOD SWAP14 SWAP14 PUSH3 0x696C9B 0xB8 CREATE STATICCALL PUSH5 0x736F6C6343 STOP ADDMOD 0x1F STOP CALLER "
		},
		"gasEstimates": {
			"creation": {
				"codeDepositCost": "7407000",
				"executionCost": "9616",
				"totalCost": "7416616"
			},
			"external": {
				"changeClanOwner(address,address)": "infinite",
				"createClan(string,string,string,uint256,uint256)": "infinite",
				"getClanId(address)": "infinite",
				"getClanOwner(address)": "infinite",
				"removeClanFromOwned(address)": "28195"
			}
		},
		"methodIdentifiers": {
			"changeClanOwner(address,address)": "c6a9fa1f",
			"createClan(string,string,string,uint256,uint256)": "a812ce6d",
			"getClanId(address)": "5a10d060",
			"getClanOwner(address)": "64b9bf17",
			"removeClanFromOwned(address)": "1ed406b6"
		}
	},
	"abi": [
		{
			"anonymous": false,
			"inputs": [
				{
					"indexed": false,
					"internalType": "address",
					"name": "newOwner",
					"type": "address"
				},
				{
					"indexed": false,
					"internalType": "address",
					"name": "clanId",
					"type": "address"
				}
			],
			"name": "ChangeClanOwner",
			"type": "event"
		},
		{
			"anonymous": false,
			"inputs": [
				{
					"indexed": true,
					"internalType": "address",
					"name": "nftAddress",
					"type": "address"
				},
				{
					"indexed": false,
					"internalType": "string",
					"name": "name",
					"type": "string"
				}
			],
			"name": "ClanCreated",
			"type": "event"
		},
		{
			"anonymous": false,
			"inputs": [
				{
					"indexed": true,
					"internalType": "address",
					"name": "subCollection",
					"type": "address"
				},
				{
					"indexed": true,
					"internalType": "address",
					"name": "upperCollection",
					"type": "address"
				},
				{
					"indexed": false,
					"internalType": "bytes32",
					"name": "upperId",
					"type": "bytes32"
				}
			],
			"name": "ClanReconnected",
			"type": "event"
		},
		{
			"anonymous": false,
			"inputs": [
				{
					"indexed": true,
					"internalType": "address",
					"name": "clanId",
					"type": "address"
				}
			],
			"name": "ClanRemovedFromOwned",
			"type": "event"
		},
		{
			"inputs": [
				{
					"internalType": "address",
					"name": "newOwner",
					"type": "address"
				},
				{
					"internalType": "address",
					"name": "clanId",
					"type": "address"
				}
			],
			"name": "changeClanOwner",
			"outputs": [],
			"stateMutability": "nonpayable",
			"type": "function"
		},
		{
			"inputs": [
				{
					"internalType": "string",
					"name": "clanName",
					"type": "string"
				},
				{
					"internalType": "string",
					"name": "ancestorName",
					"type": "string"
				},
				{
					"internalType": "string",
					"name": "ancestorDesc",
					"type": "string"
				},
				{
					"internalType": "uint256",
					"name": "birthTimestamp",
					"type": "uint256"
				},
				{
					"internalType": "uint256",
					"name": "deathTimestamp",
					"type": "uint256"
				}
			],
			"name": "createClan",
			"outputs": [],
			"stateMutability": "nonpayable",
			"type": "function"
		},
		{
			"inputs": [
				{
					"internalType": "address",
					"name": "owner",
					"type": "address"
				}
			],
			"name": "getClanId",
			"outputs": [
				{
					"internalType": "address",
					"name": "",
					"type": "address"
				}
			],
			"stateMutability": "view",
			"type": "function"
		},
		{
			"inputs": [
				{
					"internalType": "address",
					"name": "clanId",
					"type": "address"
				}
			],
			"name": "getClanOwner",
			"outputs": [
				{
					"internalType": "address",
					"name": "",
					"type": "address"
				}
			],
			"stateMutability": "view",
			"type": "function"
		},
		{
			"inputs": [
				{
					"internalType": "address",
					"name": "clanId",
					"type": "address"
				}
			],
			"name": "removeClanFromOwned",
			"outputs": [],
			"stateMutability": "nonpayable",
			"type": "function"
		}
	]
}