{
	"data": {
		"bytecode": {
			"linkReferences": {},
			"object": "6080604052348015600e575f5ffd5b506151dd8061001c5f395ff3fe608060405234801561000f575f5ffd5b5060043610610055575f3560e01c80631ed406b6146100595780635a10d0601461006e57806364b9bf17146100b5578063a812ce6d146100e0578063c6a9fa1f146100f3575b5f5ffd5b61006c61006736600461043a565b610106565b005b61009961007c36600461043a565b6001600160a01b039081165f908152602081905260409020541690565b6040516001600160a01b03909116815260200160405180910390f35b6100996100c336600461043a565b6001600160a01b039081165f908152600160205260409020541690565b61006c6100ee36600461049f565b6101b3565b61006c61010136600461054c565b6102d7565b335f908152602081905260409020546001600160a01b038281169116146101645760405162461bcd60e51b815260206004820152600d60248201526c2737ba103a34329037bbb732b960991b60448201526064015b60405180910390fd5b335f9081526020819052604080822080546001600160a01b0319169055516001600160a01b038316917f106de2de224e5b1b7923506ff253ba0c501287d8730ae60b384e9ab22ad9656f91a250565b335f908152602081905260409020546001600160a01b0316156102075760405162461bcd60e51b815260206004820152600c60248201526b10db185b88195e1a5cdd195960a21b604482015260640161015b565b5f88888888888888883360405161021d90610412565b61022f999897969594939291906105a5565b604051809103905ff080158015610248573d5f5f3e3d5ffd5b50335f8181526020818152604080832080546001600160a01b0387166001600160a01b03199182168117909255818552600190935292819020805490921684179091555192935083929091907f9bdaa7099c97c7880c17c00d5769a7649da2966c489fc80ba61dd454bc3f849b906102c3908e908e9061060b565b60405180910390a350505050505050505050565b335f908152602081905260409020546001600160a01b0382811691161461032d5760405162461bcd60e51b815260206004820152600a60248201526927b7363c9037bbb732b960b11b604482015260640161015b565b6001600160a01b038281165f8181526020818152604080832080546001600160a01b03199081169688169687179091558584526001835281842080548216861790553384529183905291829020805490911690555163010aa5a760e11b815260048101919091526302154b4e906024015f604051808303815f87803b1580156103b4575f5ffd5b505af11580156103c6573d5f5f3e3d5ffd5b5050604080516001600160a01b038087168252851660208201527f01fbd754b6c8bcbbcaa42ef62223f951db6f88428bd87ec8902a5994fd604f7c935001905060405180910390a15050565b614b818061062783390190565b80356001600160a01b0381168114610435575f5ffd5b919050565b5f6020828403121561044a575f5ffd5b6104538261041f565b9392505050565b5f5f83601f84011261046a575f5ffd5b50813567ffffffffffffffff811115610481575f5ffd5b602083019150836020828501011115610498575f5ffd5b9250929050565b5f5f5f5f5f5f5f5f60a0898b0312156104b6575f5ffd5b883567ffffffffffffffff8111156104cc575f5ffd5b6104d88b828c0161045a565b909950975050602089013567ffffffffffffffff8111156104f7575f5ffd5b6105038b828c0161045a565b909750955050604089013567ffffffffffffffff811115610522575f5ffd5b61052e8b828c0161045a565b999c989b509699959896976060870135966080013595509350505050565b5f5f6040838503121561055d575f5ffd5b6105668361041f565b91506105746020840161041f565b90509250929050565b81835281816020850137505f828201602090810191909152601f909101601f19169091010190565b60c081525f6105b860c083018b8d61057d565b82810360208401526105cb818a8c61057d565b905082810360408401526105e081888a61057d565b6060840196909652505060808101929092526001600160a01b031660a0909101529695505050505050565b602081525f61061e60208301848661057d565b94935050505056fe608060405234801561000f575f5ffd5b50604051614b81380380614b8183398101604081905261002e91610928565b60408051808201909152600681526546414d494c5960d01b602082015286908260025f848484848161005f336101ef565b6001600160a01b038116610086576040516306b620db60e21b815260040160405180910390fd5b61008f816101ef565b506040805180820190915260048152632936598960e21b60208201526100d6907feafec4d89fa9619884b60000a4d96624a38f7ac2d8d9a604ecf07c12c77e480c9061023e565b6101007fdeba1e292f8ba88238e10ab3c7f88bd4be4fac56cad5194b6ecceaf653468af18561023e565b61012a7f2f0a68ab07768e01943a599e73362a0e17a63a72e94dd2e384d2c1d4db9327568461023e565b6040805160208101839052610171917fe0261fa95db2eb3b5439bd033cda66d56b96f92f243a8228fd87550ed7bdfdb3910160408051601f1981840301815291905261023e565b505060408051602081018590526101bc93507ff675e9361af1c1664c1868cfa3eb97672d6b1a513aa5b81dec34c9ee330e818d92500160408051601f19818403018152919052610292565b5050600880546001600160a01b03191633179055506101e3915086905085835f8787610352565b50505050505050610c94565b5f80546001600160a01b038381166001600160a01b0319831681178455604051919092169283917f8be0079c531659141344cd1fd0a4f28419497f9722a3daafe3b4186f6b6457e09190a35050565b5f8281526001602052604090206102558282610a67565b50817fece574603820d07bc9b91f2a932baadf4628aabcb8afba49776529c14a6104b2826040516102869190610b4f565b60405180910390a25050565b7f2145e1d6d074577dc71ef54c3807742b41b053a9352ae6b491331509acb9750f82016102d2576040516385c169bd60e01b815260040160405180910390fd5b7fd0f59754f88971fe6bc5a6618cc9d5f1e859c58d16b22d1c7b2d3e2b246cd8aa820161031257604051630eceab6760e31b815260040160405180910390fd5b7f1fd9e056a24d14c4abc642fcc325992a946906d0dbc57dd70278aaf12842024d820161023e57604051634ef6d7fb60e01b815260040160405180910390fd5b5f610361600680546001019055565b5060065460408051602081019091525f81526103839086908390600190610489565b5f8181526007602052604090208061039b8982610a67565b50600181810180546001600160a01b0319166001600160a01b038916179055600682018054879260ff19909116908360028111156103db576103db610b61565b02179055506007810184905560088101839055610419827fc3366955cdc4e5e179365db885cfd44c7a3c473bff1e9fe298c44868ee5c5f0a8a6105ff565b610444827fb0e4da1959e3b7ca06cbec424e21d53f4f792a982f8136456161e3d4f39c9f4b896105ff565b817feac520cdbd769f46fdda2ce013b4f3fa04074e7813afa644faae946556a45ff88988604051610476929190610b75565b60405180910390a2509695505050505050565b6001600160a01b0384166104b0576040516324ecef4d60e01b815260040160405180910390fd5b5f838152600360205260409020546001600160a01b0316156104ed576040516334c7b51160e01b8152600481018490526024015b60405180910390fd5b5f838152600360205260409020546001600160a01b031615610525576040516334c7b51160e01b8152600481018490526024016104e4565b60025f815461053390610b9e565b909155506001600160a01b0384165f908152600460205260409020610558908461068d565b505f8381526003602052604080822080546001600160a01b0319166001600160a01b03881690811790915590518592907fb333c813a7426a7a11e2b190cad52c44119421594b47f6f32ace6d8c7207b2bf906105b990339088908890610bc2565b60405180910390a45f335f8686856040516020016105db959493929190610bf6565b60408051601f1981840301815291905290506105f88584836106a1565b5050505050565b8060015f858560405160200161061f929190918252602082015260400190565b6040516020818303038152906040528051906020012081526020019081526020015f20908161064e9190610a67565b5081837fa6e4251f855f750545fe414f120db91c76b88def14d120969e5bb2d3f05debbb836040516106809190610b4f565b60405180910390a3505050565b5f61069883836107af565b90505b92915050565b6106b283631aed5a8560e21b6107fb565b1561074d57604051631aed5a8560e21b81526001600160a01b03841690636bb56a1490610705907f0b084a55ebf70fd3c06fd755269dac2212c4d3f0f4d09079780bfa50c1b2984d908590600401610c30565b5f604051808303815f875af1158015610720573d5f5f3e3d5ffd5b505050506040513d5f823e601f3d908101601f191682016040526107479190810190610c50565b50505050565b816107aa576001600160a01b0383163b1561078657604051634349776d60e01b81526001600160a01b03841660048201526024016104e4565b604051630317313760e01b81526001600160a01b03841660048201526024016104e4565b505050565b5f8181526001830160205260408120546107f457508154600181810184555f84815260208082209093018490558454848252828601909352604090209190915561069b565b505f61069b565b604080516001600160e01b03198316602480830191909152825180830390910181526044909101909152602080820180516001600160e01b03166301ffc9a760e01b17815282515f9392849283928392918391908a617530fa92503d91505f51905082801561086b575060208210155b801561087657505f81115b979650505050505050565b634e487b7160e01b5f52604160045260245ffd5b5f806001600160401b038411156108ae576108ae610881565b50604051601f19601f85018116603f011681018181106001600160401b03821117156108dc576108dc610881565b6040528381529050808284018510156108f3575f5ffd5b8383602083015e5f60208583010152509392505050565b5f82601f830112610919575f5ffd5b61069883835160208501610895565b5f5f5f5f5f5f60c0878903121561093d575f5ffd5b86516001600160401b03811115610952575f5ffd5b61095e89828a0161090a565b602089015190975090506001600160401b0381111561097b575f5ffd5b61098789828a0161090a565b604089015190965090506001600160401b038111156109a4575f5ffd5b6109b089828a0161090a565b606089015160808a015160a08b0151929750909550935090506001600160a01b03811681146109dd575f5ffd5b809150509295509295509295565b600181811c908216806109ff57607f821691505b602082108103610a1d57634e487b7160e01b5f52602260045260245ffd5b50919050565b601f8211156107aa57805f5260205f20601f840160051c81016020851015610a485750805b601f840160051c820191505b818110156105f8575f8155600101610a54565b81516001600160401b03811115610a8057610a80610881565b610a9481610a8e84546109eb565b84610a23565b6020601f821160018114610ac6575f8315610aaf5750848201515b5f19600385901b1c1916600184901b1784556105f8565b5f84815260208120601f198516915b82811015610af55787850151825560209485019460019092019101610ad5565b5084821015610b1257868401515f19600387901b60f8161c191681555b50505050600190811b01905550565b5f81518084528060208401602086015e5f602082860101526020601f19601f83011685010191505092915050565b602081525f6106986020830184610b21565b634e487b7160e01b5f52602160045260245ffd5b604081525f610b876040830185610b21565b905060018060a01b03831660208301529392505050565b5f60018201610bbb57634e487b7160e01b5f52601160045260245ffd5b5060010190565b6001600160a01b038416815282151560208201526060604082018190525f90610bed90830184610b21565b95945050505050565b6001600160a01b0386811682528581166020830152841660408201526060810183905260a0608082018190525f9061087690830184610b21565b828152604060208201525f610c486040830184610b21565b949350505050565b5f60208284031215610c60575f5ffd5b81516001600160401b03811115610c75575f5ffd5b8201601f81018413610c85575f5ffd5b610c4884825160208401610895565b613ee080610ca15f395ff3fe608060405260043610610207575f3560e01c8063715018a611610117578063979024211161009f578063d6c1407c1161006e578063d6c1407c14610688578063db8c9663146106a7578063dedff9c6146106c6578063f1236e41146106e5578063f2fde38b1461070457610260565b8063979024211461060b578063a3b261f21461061e578063be9f0e6f1461064a578063c1b4c4d11461066957610260565b80637f23690c116100e65780637f23690c1461057f578063843d667b1461059257806386a10ddd146105b15780638da5cb5b146105d05780638f81ecfc146105ec57610260565b8063715018a61461051757806378495bf81461052b5780637e87632c146105415780637e913b051461056057610260565b80632a3654a41161019a57806354f6127f1161016957806354f6127f14610469578063625d0be9146104885780636748cec1146104ba5780636963d438146104d957806370a08231146104f857610260565b80632a3654a4146103e057806330e075ca146103ff57806349a6078d1461041e578063511b69521461044a57610260565b80631d26fce6116101d65780631d26fce61461033f5780631f1217081461036b578063217b2270146103a257806322060f4c146103c157610260565b806301ffc9a7146102a057806302154b4e146102d457806316e023b3146102f557806318160ddd1461032157610260565b3661026057345f036102475760405163e5099ee360e01b815260040161023e9060208082526004908201525f604082015260600190565b60405180910390fd5b6040516330fa4a2160e11b815260040160405180910390fd5b5f366060600482101561028a57828260405163e5099ee360e01b815260040161023e929190612df4565b6102948383610723565b80519350602001915050f35b3480156102ab575f5ffd5b506102bf6102ba366004612e07565b610812565b60405190151581526020015b60405180910390f35b3480156102df575f5ffd5b506102f36102ee366004612e49565b610845565b005b348015610300575f5ffd5b5061031461030f366004612e62565b610898565b6040516102cb9190612eb0565b34801561032c575f5ffd5b506002545b6040519081526020016102cb565b34801561034a575f5ffd5b5061035e610359366004612f92565b6108ab565b6040516102cb9190612ff5565b348015610376575f5ffd5b5060085461038a906001600160a01b031681565b6040516001600160a01b0390911681526020016102cb565b3480156103ad575f5ffd5b5061038a6103bc366004613058565b610991565b3480156103cc575f5ffd5b506102f36103db36600461306f565b6109c9565b3480156103eb575f5ffd5b506102bf6103fa366004613099565b610b01565b34801561040a575f5ffd5b506102f3610419366004613105565b610b0c565b348015610429575f5ffd5b5061043d610438366004613058565b610c47565b6040516102cb919061314c565b348015610455575f5ffd5b506102f3610464366004613219565b610c68565b348015610474575f5ffd5b50610314610483366004613058565b610cac565b348015610493575f5ffd5b506104a76104a2366004613058565b610cb7565b6040516102cb97969594939291906132bc565b3480156104c5575f5ffd5b506102f36104d4366004612e62565b610d86565b3480156104e4575f5ffd5b5061035e6104f3366004613314565b610e23565b348015610503575f5ffd5b50610331610512366004612e49565b610f4d565b348015610522575f5ffd5b506102f3610f6d565b348015610536575f5ffd5b506006546103319081565b34801561054c575f5ffd5b506102f361055b3660046134c5565b610f80565b34801561056b575f5ffd5b506102f361057a366004612e62565b61106e565b6102f361058d366004613596565b61122b565b34801561059d575f5ffd5b506102f36105ac3660046135e6565b611260565b3480156105bc575f5ffd5b506102f36105cb3660046136ab565b611432565b3480156105db575f5ffd5b505f546001600160a01b031661038a565b3480156105f7575f5ffd5b506102f3610606366004612e62565b6115a9565b6102f36106193660046136fd565b6117df565b348015610629575f5ffd5b5061063d610638366004612e49565b611810565b6040516102cb9190613756565b348015610655575f5ffd5b506102f361066436600461378d565b611833565b348015610674575f5ffd5b506102f3610683366004612e62565b6118f6565b348015610693575f5ffd5b506102f36106a236600461380e565b6119df565b3480156106b2575f5ffd5b506102f36106c1366004613843565b611a33565b3480156106d1575f5ffd5b5061035e6106e03660046138a6565b611b14565b3480156106f0575f5ffd5b506102f36106ff3660046138d7565b611bbd565b34801561070f575f5ffd5b506102f361071e366004612e49565b611d2e565b60605f61073a5f356001600160e01b031916611d9b565b5090506001600160a01b0381166107715760405163bb370b2b60e01b81526001600160e01b03195f3516600482015260240161023e565b5f5f826001600160a01b031634878733346040516020016107959493929190613982565b60408051601f19818403018152908290526107af916139ad565b5f6040518083038185875af1925050503d805f81146107e9576040519150601f19603f3d011682016040523d82523d5f602084013e6107ee565b606091505b5091509150811561080357925061080c915050565b80518060208301fd5b92915050565b5f6001600160e01b03198216631d138b8360e11b1480610836575061083682611e17565b8061080c575061080c82611e3b565b6008546001600160a01b0316331461088c5760405162461bcd60e51b815260206004820152600a602482015269139bdd081c195c9b5a5d60b21b604482015260640161023e565b61089581611e70565b50565b60606108a48383611ebf565b9392505050565b606081518351146108cf576040516317d38eff60e11b815260040160405180910390fd5b82516001600160401b038111156108e8576108e8612ec2565b60405190808252806020026020018201604052801561091b57816020015b60608152602001906001900390816109065790505b5090505f5b835181101561098a5761096584828151811061093e5761093e6139c3565b6020026020010151848381518110610958576109586139c3565b6020026020010151611ebf565b828281518110610977576109776139c3565b6020908102919091010152600101610920565b5092915050565b5f818152600360205260408120546001600160a01b03168061080c57604051635747cd1b60e11b81526004810184905260240161023e565b815f6109d482610991565b9050336001600160a01b03821614806109f657505f546001600160a01b031633145b610a125760405162461bcd60e51b815260040161023e906139d7565b6001600160a01b038316610a5c5760405162461bcd60e51b815260206004820152601160248201527024b73b30b634b2103732bb9037bbb732b960791b604482015260640161023e565b5f8481526007602090815260408083206001808201548351948501909352938352926001600160a01b0390911691610a9991839188918a91611f92565b6001820180546001600160a01b0319166001600160a01b03878116918217909255604080519284168352602083019190915287917f95052a17ab60d45d4e781447505fdd5406d8fee5ba860ae46d7c9eb9cbe039b391015b60405180910390a2505050505050565b5f6108a4838361216e565b825f610b1782610991565b9050336001600160a01b0382161480610b3957505f546001600160a01b031633145b610b555760405162461bcd60e51b815260040161023e906139d7565b5f85815260076020526040812080549091908290610b72906139ff565b80601f0160208091040260200160405190810160405280929190818152602001828054610b9e906139ff565b8015610be95780601f10610bc057610100808354040283529160200191610be9565b820191905f5260205f20905b815481529060010190602001808311610bcc57829003601f168201915b50939450859350610c01925088915089905083613a75565b50867fc38a676404f085e54223b29e255ef474a1f7707725d418fcf85fa5808d8155e0828888604051610c3693929190613b2e565b60405180910390a250505050505050565b6060610c52826121a9565b5f82815260056020526040902061080c906121e0565b610c72338461216e565b610c9857604051631294d2a960e01b81526004810184905233602482015260440161023e565b610ca58585858585611f92565b5050505050565b606061080c826121ec565b60076020525f9081526040902080548190610cd1906139ff565b80601f0160208091040260200160405190810160405280929190818152602001828054610cfd906139ff565b8015610d485780601f10610d1f57610100808354040283529160200191610d48565b820191905f5260205f20905b815481529060010190602001808311610d2b57829003601f168201915b5050506001840154600285015460038601546006870154600788015460089098015496976001600160a01b039094169692955090935060ff16919087565b815f610d9182610991565b9050336001600160a01b0382161480610db357505f546001600160a01b031633145b610dcf5760405162461bcd60e51b815260040161023e906139d7565b5f848152600760209081526040918290206008810180549087905583518181529283018790529092909187917fb17606867ac4a9b1ab3d64b430d9dc5c3471d63c0ba48b54a95e8471fc517cf09101610af1565b6060816001600160401b03811115610e3d57610e3d612ec2565b604051908082528060200260200182016040528015610e7057816020015b6060815260200190600190039081610e5b5790505b5090505f5b8281101561098a575f8030868685818110610e9257610e926139c3565b9050602002810190610ea49190613b5d565b604051610eb2929190613b9f565b5f60405180830381855af49150503d805f8114610eea576040519150601f19603f3d011682016040523d82523d5f602084013e610eef565b606091505b509150915081610f2557805115610f095780518082602001fd5b60405163234eb81960e01b81526004810184905260240161023e565b80848481518110610f3857610f386139c3565b60209081029190910101525050600101610e75565b6001600160a01b0381165f90815260046020526040812061080c9061228b565b610f75612294565b610f7e5f611e70565b565b8451845181141580610f93575083518114155b80610f9f575082518114155b80610fab575081518114155b15610fc9576040516393a8311960e01b815260040160405180910390fd5b5f5b818110156110655761105d878281518110610fe857610fe86139c3565b6020026020010151878381518110611002576110026139c3565b602002602001015187848151811061101c5761101c6139c3565b6020026020010151878581518110611036576110366139c3565b6020026020010151878681518110611050576110506139c3565b6020026020010151610c68565b600101610fcb565b50505050505050565b805f61107982610991565b9050336001600160a01b038216148061109b57505f546001600160a01b031633145b6110b75760405162461bcd60e51b815260040161023e906139d7565b5f838152600760205260408120905b60058201548110156111e957858260050182815481106110e8576110e86139c3565b905f5260205f2090600302015f0154036111e15760058201545f9061110f90600190613bc2565b90508082146111765782600501818154811061112d5761112d6139c3565b905f5260205f20906003020183600501838154811061114e5761114e6139c3565b5f91825260209091208254600390920201908155600180830154908201556002918201549101555b8260050180548061118957611189613bd5565b5f8281526020812060035f1990930192830201818155600181018290556002018190559155604051879189917ff1387b2f8963ca7947c75faa29a4c7de0859d44c5f9a658761acbdc5d539976b9190a3505050611225565b6001016110c6565b5060405162461bcd60e51b815260206004820152601060248201526f14dc1bdd5cd9481b9bdd08199bdd5b9960821b604482015260640161023e565b50505050565b611233612294565b34156112525760405163f36ba73760e01b815260040160405180910390fd5b61125c82826122ed565b5050565b835f61126b82610991565b9050336001600160a01b038216148061128d57505f546001600160a01b031633145b6112a95760405162461bcd60e51b815260040161023e906139d7565b5f60075f8881526020019081526020015f2090505f6113528f8f8080601f0160208091040260200160405190810160405280939291908181526020018383808284375f81840152601f19601f820116905080830192505050505050508e8e8080601f0160208091040260200160405190810160405280939291908181526020018383808284375f81840152601f19601f82011690508083019250505050505050888e8e8e612337565b90508160040160405180604001604052808760028111156113755761137561328c565b815260209081018490528254600181810185555f94855291909320825160029485029091018054939490939192849260ff19169184908111156113ba576113ba61328c565b02179055506020918201516001909101555f8281526007909152604090819020600281018a905560030188905551889082907f7e3e632423f80dbc9e266b3a3e447a2cc8ea3f2c9e0a9a7595d73fa97311a37790611419908990613be9565b60405180910390a3505050505050505050505050505050565b5f61143c83610991565b90506001600160a01b038116331461147f57604051632d938f5160e11b81526001600160a01b03821660048201526024810184905233604482015260640161023e565b6001600160a01b0384166114a657604051639577b8b360e01b815260040160405180910390fd5b836001600160a01b0316816001600160a01b0316036114d8576040516344fed6b160e11b815260040160405180910390fd5b5f8381526005602052604081206114ef908661246e565b905080611521576040516314ec4d6d60e31b81526001600160a01b03861660048201526024810185905260440161023e565b83826001600160a01b0316866001600160a01b03167f1b1b58aa2ec0cec2228b2d37124556d41f5a1f7b12f089171f896cc236671215866040516115659190612eb0565b60405180910390a45f33856001866040516020016115869493929190613bfc565b60405160208183030381529060405290506115a18682612482565b505050505050565b815f6115b482610991565b9050336001600160a01b03821614806115d657505f546001600160a01b031633145b6115f25760405162461bcd60e51b815260040161023e906139d7565b5f848152600760205260408082208583529120600281015486146116585760405162461bcd60e51b815260206004820152601860248201527f4e6f74206368696c64206f66207468697320706572736f6e0000000000000000604482015260640161023e565b5f5b60048301548110156117a4578583600401828154811061167c5761167c6139c3565b905f5260205f209060020201600101540361179c5760048301545f906116a490600190613bc2565b905080821461172a578360040181815481106116c2576116c26139c3565b905f5260205f2090600202018460040183815481106116e3576116e36139c3565b5f9182526020909120825460029283029091018054909260ff90921691839160ff191690600190849081111561171b5761171b61328c565b02179055506001918201549101555b8360040180548061173d5761173d613bd5565b5f8281526020812060025f19909301838102909101805460ff191681556001018290559092558401819055604051899189917fd22ef99c12aeaecac27f6067207b23ac6a9ae5f21e97134b39e98320aa04fa5d9190a350505050611225565b60010161165a565b5060405162461bcd60e51b815260206004820152600f60248201526e10da1a5b19081b9bdd08199bdd5b99608a1b604482015260640161023e565b6117e7612294565b34156118065760405163f36ba73760e01b815260040160405180910390fd5b61125c82826124ad565b6001600160a01b0381165f90815260046020526040902060609061080c906121e0565b61183b612294565b8151835114158061184e57508051825114155b1561186c576040516317d38eff60e11b815260040160405180910390fd5b82515f0361188d576040516380c9830560e01b815260040160405180910390fd5b5f5b8351811015611225576118ee8482815181106118ad576118ad6139c3565b60200260200101518483815181106118c7576118c76139c3565b60200260200101518484815181106118e1576118e16139c3565b6020026020010151612544565b60010161188f565b815f61190182610991565b9050336001600160a01b038216148061192357505f546001600160a01b031633145b61193f5760405162461bcd60e51b815260040161023e906139d7565b5f831161198e5760405162461bcd60e51b815260206004820152601760248201527f496e76616c69642062697274682074696d657374616d70000000000000000000604482015260640161023e565b5f848152600760208181526040928390209182018054908790558351818152918201879052919287917fb4f816d44398b4e75606de9b4cbbeb9312706c946f6dcf9fe95fc6e86c0c9e079101610af1565b825f6119ea82610991565b9050336001600160a01b0382161480611a0c57505f546001600160a01b031633145b611a285760405162461bcd60e51b815260040161023e906139d7565b610ca5858585612544565b5f611a3d84610991565b9050336001600160a01b03821614611a90576001600160a01b0385163314611a905760405163760b5acd60e01b81523360048201526001600160a01b03821660248201526044810185905260640161023e565b6001600160a01b038516611ab757604051639577b8b360e01b815260040160405180910390fd5b846001600160a01b0316816001600160a01b031603611ae9576040516344fed6b160e11b815260040160405180910390fd5b611af685828686866125d2565b8215610ca5575f81855f856040516020016115869493929190613bfc565b606081516001600160401b03811115611b2f57611b2f612ec2565b604051908082528060200260200182016040528015611b6257816020015b6060815260200190600190039081611b4d5790505b5090505f5b8251811015611bb757611b92838281518110611b8557611b856139c3565b60200260200101516121ec565b828281518110611ba457611ba46139c3565b6020908102919091010152600101611b67565b50919050565b895f611bc882610991565b9050336001600160a01b0382161480611bea57505f546001600160a01b031633145b611c065760405162461bcd60e51b815260040161023e906139d7565b5f611c908c8c8080601f0160208091040260200160405190810160405280939291908181526020018383808284375f81840152601f19601f820116905080830192505050505050508b8b8080601f0160208091040260200160405190810160405280939291908181526020018383808284375f92019190915250899250600191508d90508c612337565b5f81815260076020908152604080832081516060810183528581528084018c81528184018c815260059093018054600180820183559188529686902092516003909702909201958655519085015551600290930192909255905188815291925082918f917f0c05d3bc4ebbeaed54c8349610aff68ebb4bde707ff65746ea4d2a8c16c73daf910160405180910390a350505050505050505050505050565b611d36612294565b6001600160a01b03811661088c5760405162461bcd60e51b815260206004820152602660248201527f4f776e61626c653a206e6577206f776e657220697320746865207a65726f206160448201526564647265737360d01b606482015260840161023e565b5f8080611dbf696773c5a04a6d4300884b60b11b6001600160e01b03198616612671565b90505f611dcb826121ec565b90508051601414158015611ddf5750805115155b15611dff57806040516342bfe79f60e01b815260040161023e9190612eb0565b611e0881613c2a565b60601c95600195509350505050565b5f6001600160e01b0319821663a918fa6b60e01b148061080c575061080c826126c4565b5f80611e4d6301ffc9a760e01b611d9b565b5090506001600160a01b038116611e6657505f92915050565b6108a481846126f8565b5f80546001600160a01b038381166001600160a01b0319831681178455604051919092169283917f8be0079c531659141344cd1fd0a4f28419497f9722a3daafe3b4186f6b6457e09190a35050565b606060015f8484604051602001611ee0929190918252602082015260400190565b6040516020818303038152906040528051906020012081526020019081526020015f208054611f0e906139ff565b80601f0160208091040260200160405190810160405280929190818152602001828054611f3a906139ff565b8015611f855780601f10611f5c57610100808354040283529160200191611f85565b820191905f5260205f20905b815481529060010190602001808311611f6857829003601f168201915b5050505050905092915050565b5f611f9c84610991565b9050856001600160a01b0316816001600160a01b031614611fea57604051632d938f5160e11b81526001600160a01b038083166004830152602482018690528716604482015260640161023e565b6001600160a01b038516612011576040516324ecef4d60e01b815260040160405180910390fd5b5f61201b85610991565b9050806001600160a01b0316826001600160a01b03161461206957604051635a9c31d360e01b8152600481018690526001600160a01b0380841660248301528216604482015260640161023e565b612073878661277e565b6001600160a01b0387165f90815260046020526040902061209490866127d1565b506001600160a01b0386165f9081526004602052604090206120b690866127dc565b505f858152600360205260409081902080546001600160a01b0319166001600160a01b0389811691821790925591518792918a16907fb333c813a7426a7a11e2b190cad52c44119421594b47f6f32ace6d8c7207b2bf9061211c9033908a908a90613c78565b60405180910390a45f338888888760405160200161213e959493929190613cac565b604051602081830303815290604052905061215988826127e7565b612164878683612812565b5050505050505050565b5f61217882610991565b6001600160a01b0316836001600160a01b031614806108a457505f8281526005602052604090206108a49084612915565b5f818152600360205260409020546001600160a01b031661089557604051635747cd1b60e11b81526004810182905260240161023e565b60605f6108a483612936565b5f818152600160205260409020805460609190612208906139ff565b80601f0160208091040260200160405190810160405280929190818152602001828054612234906139ff565b801561227f5780601f106122565761010080835404028352916020019161227f565b820191905f5260205f20905b81548152906001019060200180831161226257829003601f168201915b50505050509050919050565b5f61080c825490565b5f546001600160a01b03163314610f7e5760405162461bcd60e51b815260206004820181905260248201527f4f776e61626c653a2063616c6c6572206973206e6f7420746865206f776e6572604482015260640161023e565b7f098a16c9e50e3e99b3e797305c146898d294e5aec55a47e213cb3611ccf17e73820161232d57604051631b32400560e11b815260040160405180910390fd5b61125c828261298e565b5f612346600680546001019055565b6006545f1b90506123688582600160405180602001604052805f815250612aa2565b5f818152600760205260409020806123808982613ce6565b50600181810180546001600160a01b0319166001600160a01b038916179055600682018054879260ff19909116908360028111156123c0576123c061328c565b021790555060078101849055600881018390556123fe827fc3366955cdc4e5e179365db885cfd44c7a3c473bff1e9fe298c44868ee5c5f0a8a612544565b612429827fb0e4da1959e3b7ca06cbec424e21d53f4f792a982f8136456161e3d4f39c9f4b89612544565b817feac520cdbd769f46fdda2ce013b4f3fa04074e7813afa644faae946556a45ff8898860405161245b929190613da0565b60405180910390a2509695505050505050565b5f6108a4836001600160a01b038416612c0b565b61125c827f8a1c15a8799f71b547e08e2bcb2e85257e81b0a07eee2ce6712549eef1f0097083612c57565b80518251146124cf57604051633bcc897960e01b815260040160405180910390fd5b81515f036124f0576040516397da5f9560e01b815260040160405180910390fd5b5f5b825181101561253f57612537838281518110612510576125106139c3565b602002602001015183838151811061252a5761252a6139c3565b60200260200101516122ed565b6001016124f2565b505050565b8060015f8585604051602001612564929190918252602082015260400190565b6040516020818303038152906040528051906020012081526020019081526020015f2090816125939190613ce6565b5081837fa6e4251f855f750545fe414f120db91c76b88def14d120969e5bb2d3f05debbb836040516125c59190612eb0565b60405180910390a3505050565b5f8381526005602052604081206125e99087612ca4565b90508061261b576040516312a8c6a360e21b81526001600160a01b03871660048201526024810185905260440161023e565b83856001600160a01b0316876001600160a01b03167fc78cd419d6136f9f1c1c6aec1d3fae098cffaf8bc86314a8f2685e32fe574e3c8686604051612661929190613dc9565b60405180910390a4505050505050565b604080516001600160b01b0319841660208201525f602a82018190526001600160601b03198416602c830152918291016040516020818303038152906040529050806126bc90613de3565b949350505050565b5f6001600160e01b031982166318a6a9a560e21b148061080c57506301ffc9a760e01b6001600160e01b031983161461080c565b604080516001600160e01b03198316602480830191909152825180830390910181526044909101909152602080820180516001600160e01b03166301ffc9a760e01b17815282515f9392849283928392918391908a617530fa92503d91505f519050828015612768575060208210155b801561277357505f81115b979650505050505050565b5f818152600560205260408120906127958261228b565b90505f5f5b828110156115a1576127ac845f612cb8565b91506127c98287875f60405180602001604052805f8152506125d2565b60010161279a565b5f6108a48383612cc3565b5f6108a48383612c0b565b61125c827fb23eae7e6d1564b295b4c3e3be402d9a2f0776c57bdf365903496f6fa481ab0083612c57565b61282383631aed5a8560e21b6126f8565b156128b857604051631aed5a8560e21b81526001600160a01b03841690636bb56a1490612876907f0b084a55ebf70fd3c06fd755269dac2212c4d3f0f4d09079780bfa50c1b2984d908590600401613e06565b5f604051808303815f875af1158015612891573d5f5f3e3d5ffd5b505050506040513d5f823e601f3d908101601f191682016040526112259190810190613e1e565b8161253f576001600160a01b0383163b156128f157604051634349776d60e01b81526001600160a01b038416600482015260240161023e565b604051630317313760e01b81526001600160a01b038416600482015260240161023e565b6001600160a01b0381165f90815260018301602052604081205415156108a4565b6060815f0180548060200260200160405190810160405280929190818152602001828054801561227f57602002820191905f5260205f20905b81548152602001906001019080831161296f5750505050509050919050565b7f2145e1d6d074577dc71ef54c3807742b41b053a9352ae6b491331509acb9750f82016129ce576040516385c169bd60e01b815260040160405180910390fd5b7fd0f59754f88971fe6bc5a6618cc9d5f1e859c58d16b22d1c7b2d3e2b246cd8aa8201612a0e57604051630eceab6760e31b815260040160405180910390fd5b7f1fd9e056a24d14c4abc642fcc325992a946906d0dbc57dd70278aaf12842024d8201612a4e57604051634ef6d7fb60e01b815260040160405180910390fd5b5f828152600160205260409020612a658282613ce6565b50817fece574603820d07bc9b91f2a932baadf4628aabcb8afba49776529c14a6104b282604051612a969190612eb0565b60405180910390a25050565b6001600160a01b038416612ac9576040516324ecef4d60e01b815260040160405180910390fd5b5f838152600360205260409020546001600160a01b031615612b01576040516334c7b51160e01b81526004810184905260240161023e565b5f838152600360205260409020546001600160a01b031615612b39576040516334c7b51160e01b81526004810184905260240161023e565b60025f8154612b4790613e92565b909155506001600160a01b0384165f908152600460205260409020612b6c90846127dc565b505f8381526003602052604080822080546001600160a01b0319166001600160a01b03881690811790915590518592907fb333c813a7426a7a11e2b190cad52c44119421594b47f6f32ace6d8c7207b2bf90612bcd90339088908890613c78565b60405180910390a45f335f868685604051602001612bef959493929190613cac565b6040516020818303038152906040529050610ca5858483612812565b5f818152600183016020526040812054612c5057508154600181810184555f84815260208082209093018490558454848252828601909352604090209190915561080c565b505f61080c565b612c716001600160a01b038416631aed5a8560e21b6126f8565b1561253f57604051631aed5a8560e21b81526001600160a01b03841690636bb56a14906128769085908590600401613e06565b5f6108a4836001600160a01b038416612cc3565b5f6108a48383612da6565b5f8181526001830160205260408120548015612d9d575f612ce5600183613bc2565b85549091505f90612cf890600190613bc2565b9050818114612d57575f865f018281548110612d1657612d166139c3565b905f5260205f200154905080875f018481548110612d3657612d366139c3565b5f918252602080832090910192909255918252600188019052604090208390555b8554869080612d6857612d68613bd5565b600190038181905f5260205f20015f90559055856001015f8681526020019081526020015f205f90556001935050505061080c565b5f91505061080c565b5f825f018281548110612dbb57612dbb6139c3565b905f5260205f200154905092915050565b81835281816020850137505f828201602090810191909152601f909101601f19169091010190565b602081525f6126bc602083018486612dcc565b5f60208284031215612e17575f5ffd5b81356001600160e01b0319811681146108a4575f5ffd5b80356001600160a01b0381168114612e44575f5ffd5b919050565b5f60208284031215612e59575f5ffd5b6108a482612e2e565b5f5f60408385031215612e73575f5ffd5b50508035926020909101359150565b5f81518084528060208401602086015e5f602082860101526020601f19601f83011685010191505092915050565b602081525f6108a46020830184612e82565b634e487b7160e01b5f52604160045260245ffd5b604051601f8201601f191681016001600160401b0381118282101715612efe57612efe612ec2565b604052919050565b5f6001600160401b03821115612f1e57612f1e612ec2565b5060051b60200190565b5f82601f830112612f37575f5ffd5b8135612f4a612f4582612f06565b612ed6565b8082825260208201915060208360051b860101925085831115612f6b575f5ffd5b602085015b83811015612f88578035835260209283019201612f70565b5095945050505050565b5f5f60408385031215612fa3575f5ffd5b82356001600160401b03811115612fb8575f5ffd5b612fc485828601612f28565b92505060208301356001600160401b03811115612fdf575f5ffd5b612feb85828601612f28565b9150509250929050565b5f602082016020835280845180835260408501915060408160051b8601019250602086015f5b8281101561304c57603f19878603018452613037858351612e82565b9450602093840193919091019060010161301b565b50929695505050505050565b5f60208284031215613068575f5ffd5b5035919050565b5f5f60408385031215613080575f5ffd5b8235915061309060208401612e2e565b90509250929050565b5f5f604083850312156130aa575f5ffd5b6130b383612e2e565b946020939093013593505050565b5f5f83601f8401126130d1575f5ffd5b5081356001600160401b038111156130e7575f5ffd5b6020830191508360208285010111156130fe575f5ffd5b9250929050565b5f5f5f60408486031215613117575f5ffd5b8335925060208401356001600160401b03811115613133575f5ffd5b61313f868287016130c1565b9497909650939450505050565b602080825282518282018190525f918401906040840190835b8181101561318c5783516001600160a01b0316835260209384019390920191600101613165565b509095945050505050565b80358015158114612e44575f5ffd5b5f6001600160401b038211156131be576131be612ec2565b50601f01601f191660200190565b5f82601f8301126131db575f5ffd5b81356131e9612f45826131a6565b8181528460208386010111156131fd575f5ffd5b816020850160208301375f918101602001919091529392505050565b5f5f5f5f5f60a0868803121561322d575f5ffd5b61323686612e2e565b945061324460208701612e2e565b93506040860135925061325960608701613197565b915060808601356001600160401b03811115613273575f5ffd5b61327f888289016131cc565b9150509295509295909350565b634e487b7160e01b5f52602160045260245ffd5b6003811061089557634e487b7160e01b5f52602160045260245ffd5b60e081525f6132ce60e083018a612e82565b6001600160a01b0389166020840152604083018890526060830187905290506132f6856132a0565b8460808301528360a08301528260c083015298975050505050505050565b5f5f60208385031215613325575f5ffd5b82356001600160401b0381111561333a575f5ffd5b8301601f8101851361334a575f5ffd5b80356001600160401b0381111561335f575f5ffd5b8560208260051b8401011115613373575f5ffd5b6020919091019590945092505050565b5f82601f830112613392575f5ffd5b81356133a0612f4582612f06565b8082825260208201915060208360051b8601019250858311156133c1575f5ffd5b602085015b83811015612f88576133d781612e2e565b8352602092830192016133c6565b5f82601f8301126133f4575f5ffd5b8135613402612f4582612f06565b8082825260208201915060208360051b860101925085831115613423575f5ffd5b602085015b83811015612f885761343981613197565b835260209283019201613428565b5f82601f830112613456575f5ffd5b8135613464612f4582612f06565b8082825260208201915060208360051b860101925085831115613485575f5ffd5b602085015b83811015612f885780356001600160401b038111156134a7575f5ffd5b6134b6886020838a01016131cc565b8452506020928301920161348a565b5f5f5f5f5f60a086880312156134d9575f5ffd5b85356001600160401b038111156134ee575f5ffd5b6134fa88828901613383565b95505060208601356001600160401b03811115613515575f5ffd5b61352188828901613383565b94505060408601356001600160401b0381111561353c575f5ffd5b61354888828901612f28565b93505060608601356001600160401b03811115613563575f5ffd5b61356f888289016133e5565b92505060808601356001600160401b0381111561358a575f5ffd5b61327f88828901613447565b5f5f604083850312156135a7575f5ffd5b8235915060208301356001600160401b038111156135c3575f5ffd5b612feb858286016131cc565b60038110610895575f5ffd5b8035612e44816135cf565b5f5f5f5f5f5f5f5f5f5f5f6101208c8e031215613601575f5ffd5b8b356001600160401b03811115613616575f5ffd5b6136228e828f016130c1565b909c509a505060208c01356001600160401b03811115613640575f5ffd5b61364c8e828f016130c1565b909a5098505060408c0135613660816135cf565b965060608c0135955060808c0135945060a08c0135935060c08c0135925061368a60e08d01612e2e565b91506136996101008d016135db565b90509295989b509295989b9093969950565b5f5f5f606084860312156136bd575f5ffd5b6136c684612e2e565b92506020840135915060408401356001600160401b038111156136e7575f5ffd5b6136f3868287016131cc565b9150509250925092565b5f5f6040838503121561370e575f5ffd5b82356001600160401b03811115613723575f5ffd5b61372f85828601612f28565b92505060208301356001600160401b0381111561374a575f5ffd5b612feb85828601613447565b602080825282518282018190525f918401906040840190835b8181101561318c57835183526020938401939092019160010161376f565b5f5f5f6060848603121561379f575f5ffd5b83356001600160401b038111156137b4575f5ffd5b6137c086828701612f28565b93505060208401356001600160401b038111156137db575f5ffd5b6137e786828701612f28565b92505060408401356001600160401b03811115613802575f5ffd5b6136f386828701613447565b5f5f5f60608486031215613820575f5ffd5b833592506020840135915060408401356001600160401b038111156136e7575f5ffd5b5f5f5f5f60808587031215613856575f5ffd5b61385f85612e2e565b93506020850135925061387460408601613197565b915060608501356001600160401b0381111561388e575f5ffd5b61389a878288016131cc565b91505092959194509250565b5f602082840312156138b6575f5ffd5b81356001600160401b038111156138cb575f5ffd5b6126bc84828501612f28565b5f5f5f5f5f5f5f5f5f5f6101008b8d0312156138f1575f5ffd5b8a35995060208b01356001600160401b0381111561390d575f5ffd5b6139198d828e016130c1565b909a5098505060408b01356001600160401b03811115613937575f5ffd5b6139438d828e016130c1565b90985096505060608b0135945060808b0135935060a08b0135925060c08b0135915061397160e08c01612e2e565b90509295989b9194979a5092959850565b8385823760609290921b6001600160601b031916919092019081526014810191909152603401919050565b5f82518060208501845e5f920191825250919050565b634e487b7160e01b5f52603260045260245ffd5b6020808252600e908201526d139bdd08185d5d1a1bdc9a5e995960921b604082015260600190565b600181811c90821680613a1357607f821691505b602082108103611bb757634e487b7160e01b5f52602260045260245ffd5b601f82111561253f57805f5260205f20601f840160051c81016020851015613a565750805b601f840160051c820191505b81811015610ca5575f8155600101613a62565b6001600160401b03831115613a8c57613a8c612ec2565b613aa083613a9a83546139ff565b83613a31565b5f601f841160018114613ad1575f8515613aba5750838201355b5f19600387901b1c1916600186901b178355610ca5565b5f83815260208120601f198716915b82811015613b005786850135825560209485019460019092019101613ae0565b5086821015613b1c575f1960f88860031b161c19848701351681555b505060018560011b0183555050505050565b604081525f613b406040830186612e82565b8281036020840152613b53818587612dcc565b9695505050505050565b5f5f8335601e19843603018112613b72575f5ffd5b8301803591506001600160401b03821115613b8b575f5ffd5b6020019150368190038213156130fe575f5ffd5b818382375f9101908152919050565b634e487b7160e01b5f52601160045260245ffd5b8181038181111561080c5761080c613bae565b634e487b7160e01b5f52603160045260245ffd5b60208101613bf6836132a0565b91905290565b60018060a01b03851681528360208201528215156040820152608060608201525f613b536080830184612e82565b805160208201516001600160601b0319811691906014821015613c71576bffffffffffffffffffffffff196bffffffffffffffffffffffff198360140360031b1b82161692505b5050919050565b6001600160a01b038416815282151560208201526060604082018190525f90613ca390830184612e82565b95945050505050565b6001600160a01b0386811682528581166020830152841660408201526060810183905260a0608082018190525f9061277390830184612e82565b81516001600160401b03811115613cff57613cff612ec2565b613d1381613d0d84546139ff565b84613a31565b6020601f821160018114613d45575f8315613d2e5750848201515b5f19600385901b1c1916600184901b178455610ca5565b5f84815260208120601f198516915b82811015613d745787850151825560209485019460019092019101613d54565b5084821015613d9157868401515f19600387901b60f8161c191681555b50505050600190811b01905550565b604081525f613db26040830185612e82565b905060018060a01b03831660208301529392505050565b8215158152604060208201525f6126bc6040830184612e82565b80516020808301519190811015611bb7575f1960209190910360031b1b16919050565b828152604060208201525f6126bc6040830184612e82565b5f60208284031215613e2e575f5ffd5b81516001600160401b03811115613e43575f5ffd5b8201601f81018413613e53575f5ffd5b8051613e61612f45826131a6565b818152856020838501011115613e75575f5ffd5b8160208401602083015e5f91810160200191909152949350505050565b5f60018201613ea357613ea3613bae565b506001019056fea26469706673582212204bab3af7b39942b26701f22fc08d04b756f39c8907be5a9a3d987ffc3e05893e64736f6c634300081f0033a26469706673582212200db3845ea57f3ed18bf5534e0e6908b37c5ac32c4e5a00091aa002f434004aaa64736f6c634300081f0033",
			"opcodes": "PUSH1 0x80 PUSH1 0x40 MSTORE CALLVALUE DUP1 ISZERO PUSH1 0xE JUMPI PUSH0 PUSH0 REVERT JUMPDEST POP PUSH2 0x51DD DUP1 PUSH2 0x1C PUSH0 CODECOPY PUSH0 RETURN INVALID PUSH1 0x80 PUSH1 0x40 MSTORE CALLVALUE DUP1 ISZERO PUSH2 0xF JUMPI PUSH0 PUSH0 REVERT JUMPDEST POP PUSH1 0x4 CALLDATASIZE LT PUSH2 0x55 JUMPI PUSH0 CALLDATALOAD PUSH1 0xE0 SHR DUP1 PUSH4 0x1ED406B6 EQ PUSH2 0x59 JUMPI DUP1 PUSH4 0x5A10D060 EQ PUSH2 0x6E JUMPI DUP1 PUSH4 0x64B9BF17 EQ PUSH2 0xB5 JUMPI DUP1 PUSH4 0xA812CE6D EQ PUSH2 0xE0 JUMPI DUP1 PUSH4 0xC6A9FA1F EQ PUSH2 0xF3 JUMPI JUMPDEST PUSH0 PUSH0 REVERT JUMPDEST PUSH2 0x6C PUSH2 0x67 CALLDATASIZE PUSH1 0x4 PUSH2 0x43A JUMP JUMPDEST PUSH2 0x106 JUMP JUMPDEST STOP JUMPDEST PUSH2 0x99 PUSH2 0x7C CALLDATASIZE PUSH1 0x4 PUSH2 0x43A JUMP JUMPDEST PUSH1 0x1 PUSH1 0x1 PUSH1 0xA0 SHL SUB SWAP1 DUP2 AND PUSH0 SWAP1 DUP2 MSTORE PUSH1 0x20 DUP2 SWAP1 MSTORE PUSH1 0x40 SWAP1 KECCAK256 SLOAD AND SWAP1 JUMP JUMPDEST PUSH1 0x40 MLOAD PUSH1 0x1 PUSH1 0x1 PUSH1 0xA0 SHL SUB SWAP1 SWAP2 AND DUP2 MSTORE PUSH1 0x20 ADD PUSH1 0x40 MLOAD DUP1 SWAP2 SUB SWAP1 RETURN JUMPDEST PUSH2 0x99 PUSH2 0xC3 CALLDATASIZE PUSH1 0x4 PUSH2 0x43A JUMP JUMPDEST PUSH1 0x1 PUSH1 0x1 PUSH1 0xA0 SHL SUB SWAP1 DUP2 AND PUSH0 SWAP1 DUP2 MSTORE PUSH1 0x1 PUSH1 0x20 MSTORE PUSH1 0x40 SWAP1 KECCAK256 SLOAD AND SWAP1 JUMP JUMPDEST PUSH2 0x6C PUSH2 0xEE CALLDATASIZE PUSH1 0x4 PUSH2 0x49F JUMP JUMPDEST PUSH2 0x1B3 JUMP JUMPDEST PUSH2 0x6C PUSH2 0x101 CALLDATASIZE PUSH1 0x4 PUSH2 0x54C JUMP JUMPDEST PUSH2 0x2D7 JUMP JUMPDEST CALLER PUSH0 SWAP1 DUP2 MSTORE PUSH1 0x20 DUP2 SWAP1 MSTORE PUSH1 0x40 SWAP1 KECCAK256 SLOAD PUSH1 0x1 PUSH1 0x1 PUSH1 0xA0 SHL SUB DUP3 DUP2 AND SWAP2 AND EQ PUSH2 0x164 JUMPI PUSH1 0x40 MLOAD PUSH3 0x461BCD PUSH1 0xE5 SHL DUP2 MSTORE PUSH1 0x20 PUSH1 0x4 DUP3 ADD MSTORE PUSH1 0xD PUSH1 0x24 DUP3 ADD MSTORE PUSH13 0x2737BA103A34329037BBB732B9 PUSH1 0x99 SHL PUSH1 0x44 DUP3 ADD MSTORE PUSH1 0x64 ADD JUMPDEST PUSH1 0x40 MLOAD DUP1 SWAP2 SUB SWAP1 REVERT JUMPDEST CALLER PUSH0 SWAP1 DUP2 MSTORE PUSH1 0x20 DUP2 SWAP1 MSTORE PUSH1 0x40 DUP1 DUP3 KECCAK256 DUP1 SLOAD PUSH1 0x1 PUSH1 0x1 PUSH1 0xA0 SHL SUB NOT AND SWAP1 SSTORE MLOAD PUSH1 0x1 PUSH1 0x1 PUSH1 0xA0 SHL SUB DUP4 AND SWAP2 PUSH32 0x106DE2DE224E5B1B7923506FF253BA0C501287D8730AE60B384E9AB22AD9656F SWAP2 LOG2 POP JUMP JUMPDEST CALLER PUSH0 SWAP1 DUP2 MSTORE PUSH1 0x20 DUP2 SWAP1 MSTORE PUSH1 0x40 SWAP1 KECCAK256 SLOAD PUSH1 0x1 PUSH1 0x1 PUSH1 0xA0 SHL SUB AND ISZERO PUSH2 0x207 JUMPI PUSH1 0x40 MLOAD PUSH3 0x461BCD PUSH1 0xE5 SHL DUP2 MSTORE PUSH1 0x20 PUSH1 0x4 DUP3 ADD MSTORE PUSH1 0xC PUSH1 0x24 DUP3 ADD MSTORE PUSH12 0x10DB185B88195E1A5CDD1959 PUSH1 0xA2 SHL PUSH1 0x44 DUP3 ADD MSTORE PUSH1 0x64 ADD PUSH2 0x15B JUMP JUMPDEST PUSH0 DUP9 DUP9 DUP9 DUP9 DUP9 DUP9 DUP9 DUP9 CALLER PUSH1 0x40 MLOAD PUSH2 0x21D SWAP1 PUSH2 0x412 JUMP JUMPDEST PUSH2 0x22F SWAP10 SWAP9 SWAP8 SWAP7 SWAP6 SWAP5 SWAP4 SWAP3 SWAP2 SWAP1 PUSH2 0x5A5 JUMP JUMPDEST PUSH1 0x40 MLOAD DUP1 SWAP2 SUB SWAP1 PUSH0 CREATE DUP1 ISZERO DUP1 ISZERO PUSH2 0x248 JUMPI RETURNDATASIZE PUSH0 PUSH0 RETURNDATACOPY RETURNDATASIZE PUSH0 REVERT JUMPDEST POP CALLER PUSH0 DUP2 DUP2 MSTORE PUSH1 0x20 DUP2 DUP2 MSTORE PUSH1 0x40 DUP1 DUP4 KECCAK256 DUP1 SLOAD PUSH1 0x1 PUSH1 0x1 PUSH1 0xA0 SHL SUB DUP8 AND PUSH1 0x1 PUSH1 0x1 PUSH1 0xA0 SHL SUB NOT SWAP2 DUP3 AND DUP2 OR SWAP1 SWAP3 SSTORE DUP2 DUP6 MSTORE PUSH1 0x1 SWAP1 SWAP4 MSTORE SWAP3 DUP2 SWAP1 KECCAK256 DUP1 SLOAD SWAP1 SWAP3 AND DUP5 OR SWAP1 SWAP2 SSTORE MLOAD SWAP3 SWAP4 POP DUP4 SWAP3 SWAP1 SWAP2 SWAP1 PUSH32 0x9BDAA7099C97C7880C17C00D5769A7649DA2966C489FC80BA61DD454BC3F849B SWAP1 PUSH2 0x2C3 SWAP1 DUP15 SWAP1 DUP15 SWAP1 PUSH2 0x60B JUMP JUMPDEST PUSH1 0x40 MLOAD DUP1 SWAP2 SUB SWAP1 LOG3 POP POP POP POP POP POP POP POP POP POP JUMP JUMPDEST CALLER PUSH0 SWAP1 DUP2 MSTORE PUSH1 0x20 DUP2 SWAP1 MSTORE PUSH1 0x40 SWAP1 KECCAK256 SLOAD PUSH1 0x1 PUSH1 0x1 PUSH1 0xA0 SHL SUB DUP3 DUP2 AND SWAP2 AND EQ PUSH2 0x32D JUMPI PUSH1 0x40 MLOAD PUSH3 0x461BCD PUSH1 0xE5 SHL DUP2 MSTORE PUSH1 0x20 PUSH1 0x4 DUP3 ADD MSTORE PUSH1 0xA PUSH1 0x24 DUP3 ADD MSTORE PUSH10 0x27B7363C9037BBB732B9 PUSH1 0xB1 SHL PUSH1 0x44 DUP3 ADD MSTORE PUSH1 0x64 ADD PUSH2 0x15B JUMP JUMPDEST PUSH1 0x1 PUSH1 0x1 PUSH1 0xA0 SHL SUB DUP3 DUP2 AND PUSH0 DUP2 DUP2 MSTORE PUSH1 0x20 DUP2 DUP2 MSTORE PUSH1 0x40 DUP1 DUP4 KECCAK256 DUP1 SLOAD PUSH1 0x1 PUSH1 0x1 PUSH1 0xA0 SHL SUB NOT SWAP1 DUP2 AND SWAP7 DUP9 AND SWAP7 DUP8 OR SWAP1 SWAP2 SSTORE DUP6 DUP5 MSTORE PUSH1 0x1 DUP4 MSTORE DUP2 DUP5 KECCAK256 DUP1 SLOAD DUP3 AND DUP7 OR SWAP1 SSTORE CALLER DUP5 MSTORE SWAP2 DUP4 SWAP1 MSTORE SWAP2 DUP3 SWAP1 KECCAK256 DUP1 SLOAD SWAP1 SWAP2 AND SWAP1 SSTORE MLOAD PUSH4 0x10AA5A7 PUSH1 0xE1 SHL DUP2 MSTORE PUSH1 0x4 DUP2 ADD SWAP2 SWAP1 SWAP2 MSTORE PUSH4 0x2154B4E SWAP1 PUSH1 0x24 ADD PUSH0 PUSH1 0x40 MLOAD DUP1 DUP4 SUB DUP2 PUSH0 DUP8 DUP1 EXTCODESIZE ISZERO DUP1 ISZERO PUSH2 0x3B4 JUMPI PUSH0 PUSH0 REVERT JUMPDEST POP GAS CALL ISZERO DUP1 ISZERO PUSH2 0x3C6 JUMPI RETURNDATASIZE PUSH0 PUSH0 RETURNDATACOPY RETURNDATASIZE PUSH0 REVERT JUMPDEST POP POP PUSH1 0x40 DUP1 MLOAD PUSH1 0x1 PUSH1 0x1 PUSH1 0xA0 SHL SUB DUP1 DUP8 AND DUP3 MSTORE DUP6 AND PUSH1 0x20 DUP3 ADD MSTORE PUSH32 0x1FBD754B6C8BCBBCAA42EF62223F951DB6F88428BD87EC8902A5994FD604F7C SWAP4 POP ADD SWAP1 POP PUSH1 0x40 MLOAD DUP1 SWAP2 SUB SWAP1 LOG1 POP POP JUMP JUMPDEST PUSH2 0x4B81 DUP1 PUSH2 0x627 DUP4 CODECOPY ADD SWAP1 JUMP JUMPDEST DUP1 CALLDATALOAD PUSH1 0x1 PUSH1 0x1 PUSH1 0xA0 SHL SUB DUP2 AND DUP2 EQ PUSH2 0x435 JUMPI PUSH0 PUSH0 REVERT JUMPDEST SWAP2 SWAP1 POP JUMP JUMPDEST PUSH0 PUSH1 0x20 DUP3 DUP5 SUB SLT ISZERO PUSH2 0x44A JUMPI PUSH0 PUSH0 REVERT JUMPDEST PUSH2 0x453 DUP3 PUSH2 0x41F JUMP JUMPDEST SWAP4 SWAP3 POP POP POP JUMP JUMPDEST PUSH0 PUSH0 DUP4 PUSH1 0x1F DUP5 ADD SLT PUSH2 0x46A JUMPI PUSH0 PUSH0 REVERT JUMPDEST POP DUP2 CALLDATALOAD PUSH8 0xFFFFFFFFFFFFFFFF DUP2 GT ISZERO PUSH2 0x481 JUMPI PUSH0 PUSH0 REVERT JUMPDEST PUSH1 0x20 DUP4 ADD SWAP2 POP DUP4 PUSH1 0x20 DUP3 DUP6 ADD ADD GT ISZERO PUSH2 0x498 JUMPI PUSH0 PUSH0 REVERT JUMPDEST SWAP3 POP SWAP3 SWAP1 POP JUMP JUMPDEST PUSH0 PUSH0 PUSH0 PUSH0 PUSH0 PUSH0 PUSH0 PUSH0 PUSH1 0xA0 DUP10 DUP12 SUB SLT ISZERO PUSH2 0x4B6 JUMPI PUSH0 PUSH0 REVERT JUMPDEST DUP9 CALLDATALOAD PUSH8 0xFFFFFFFFFFFFFFFF DUP2 GT ISZERO PUSH2 0x4CC JUMPI PUSH0 PUSH0 REVERT JUMPDEST PUSH2 0x4D8 DUP12 DUP3 DUP13 ADD PUSH2 0x45A JUMP JUMPDEST SWAP1 SWAP10 POP SWAP8 POP POP PUSH1 0x20 DUP10 ADD CALLDATALOAD PUSH8 0xFFFFFFFFFFFFFFFF DUP2 GT ISZERO PUSH2 0x4F7 JUMPI PUSH0 PUSH0 REVERT JUMPDEST PUSH2 0x503 DUP12 DUP3 DUP13 ADD PUSH2 0x45A JUMP JUMPDEST SWAP1 SWAP8 POP SWAP6 POP POP PUSH1 0x40 DUP10 ADD CALLDATALOAD PUSH8 0xFFFFFFFFFFFFFFFF DUP2 GT ISZERO PUSH2 0x522 JUMPI PUSH0 PUSH0 REVERT JUMPDEST PUSH2 0x52E DUP12 DUP3 DUP13 ADD PUSH2 0x45A JUMP JUMPDEST SWAP10 SWAP13 SWAP9 SWAP12 POP SWAP7 SWAP10 SWAP6 SWAP9 SWAP7 SWAP8 PUSH1 0x60 DUP8 ADD CALLDATALOAD SWAP7 PUSH1 0x80 ADD CALLDATALOAD SWAP6 POP SWAP4 POP POP POP POP JUMP JUMPDEST PUSH0 PUSH0 PUSH1 0x40 DUP4 DUP6 SUB SLT ISZERO PUSH2 0x55D JUMPI PUSH0 PUSH0 REVERT JUMPDEST PUSH2 0x566 DUP4 PUSH2 0x41F JUMP JUMPDEST SWAP2 POP PUSH2 0x574 PUSH1 0x20 DUP5 ADD PUSH2 0x41F JUMP JUMPDEST SWAP1 POP SWAP3 POP SWAP3 SWAP1 POP JUMP JUMPDEST DUP2 DUP4 MSTORE DUP2 DUP2 PUSH1 0x20 DUP6 ADD CALLDATACOPY POP PUSH0 DUP3 DUP3 ADD PUSH1 0x20 SWAP1 DUP2 ADD SWAP2 SWAP1 SWAP2 MSTORE PUSH1 0x1F SWAP1 SWAP2 ADD PUSH1 0x1F NOT AND SWAP1 SWAP2 ADD ADD SWAP1 JUMP JUMPDEST PUSH1 0xC0 DUP2 MSTORE PUSH0 PUSH2 0x5B8 PUSH1 0xC0 DUP4 ADD DUP12 DUP14 PUSH2 0x57D JUMP JUMPDEST DUP3 DUP2 SUB PUSH1 0x20 DUP5 ADD MSTORE PUSH2 0x5CB DUP2 DUP11 DUP13 PUSH2 0x57D JUMP JUMPDEST SWAP1 POP DUP3 DUP2 SUB PUSH1 0x40 DUP5 ADD MSTORE PUSH2 0x5E0 DUP2 DUP9 DUP11 PUSH2 0x57D JUMP JUMPDEST PUSH1 0x60 DUP5 ADD SWAP7 SWAP1 SWAP7 MSTORE POP POP PUSH1 0x80 DUP2 ADD SWAP3 SWAP1 SWAP3 MSTORE PUSH1 0x1 PUSH1 0x1 PUSH1 0xA0 SHL SUB AND PUSH1 0xA0 SWAP1 SWAP2 ADD MSTORE SWAP7 SWAP6 POP POP POP POP POP POP JUMP JUMPDEST PUSH1 0x20 DUP2 MSTORE PUSH0 PUSH2 0x61E PUSH1 0x20 DUP4 ADD DUP5 DUP7 PUSH2 0x57D JUMP JUMPDEST SWAP5 SWAP4 POP POP POP POP JUMP INVALID PUSH1 0x80 PUSH1 0x40 MSTORE CALLVALUE DUP1 ISZERO PUSH2 0xF JUMPI PUSH0 PUSH0 REVERT JUMPDEST POP PUSH1 0x40 MLOAD PUSH2 0x4B81 CODESIZE SUB DUP1 PUSH2 0x4B81 DUP4 CODECOPY DUP2 ADD PUSH1 0x40 DUP2 SWAP1 MSTORE PUSH2 0x2E SWAP2 PUSH2 0x928 JUMP JUMPDEST PUSH1 0x40 DUP1 MLOAD DUP1 DUP3 ADD SWAP1 SWAP2 MSTORE PUSH1 0x6 DUP2 MSTORE PUSH6 0x46414D494C59 PUSH1 0xD0 SHL PUSH1 0x20 DUP3 ADD MSTORE DUP7 SWAP1 DUP3 PUSH1 0x2 PUSH0 DUP5 DUP5 DUP5 DUP5 DUP2 PUSH2 0x5F CALLER PUSH2 0x1EF JUMP JUMPDEST PUSH1 0x1 PUSH1 0x1 PUSH1 0xA0 SHL SUB DUP2 AND PUSH2 0x86 JUMPI PUSH1 0x40 MLOAD PUSH4 0x6B620DB PUSH1 0xE2 SHL DUP2 MSTORE PUSH1 0x4 ADD PUSH1 0x40 MLOAD DUP1 SWAP2 SUB SWAP1 REVERT JUMPDEST PUSH2 0x8F DUP2 PUSH2 0x1EF JUMP JUMPDEST POP PUSH1 0x40 DUP1 MLOAD DUP1 DUP3 ADD SWAP1 SWAP2 MSTORE PUSH1 0x4 DUP2 MSTORE PUSH4 0x29365989 PUSH1 0xE2 SHL PUSH1 0x20 DUP3 ADD MSTORE PUSH2 0xD6 SWAP1 PUSH32 0xEAFEC4D89FA9619884B60000A4D96624A38F7AC2D8D9A604ECF07C12C77E480C SWAP1 PUSH2 0x23E JUMP JUMPDEST PUSH2 0x100 PUSH32 0xDEBA1E292F8BA88238E10AB3C7F88BD4BE4FAC56CAD5194B6ECCEAF653468AF1 DUP6 PUSH2 0x23E JUMP JUMPDEST PUSH2 0x12A PUSH32 0x2F0A68AB07768E01943A599E73362A0E17A63A72E94DD2E384D2C1D4DB932756 DUP5 PUSH2 0x23E JUMP JUMPDEST PUSH1 0x40 DUP1 MLOAD PUSH1 0x20 DUP2 ADD DUP4 SWAP1 MSTORE PUSH2 0x171 SWAP2 PUSH32 0xE0261FA95DB2EB3B5439BD033CDA66D56B96F92F243A8228FD87550ED7BDFDB3 SWAP2 ADD PUSH1 0x40 DUP1 MLOAD PUSH1 0x1F NOT DUP2 DUP5 SUB ADD DUP2 MSTORE SWAP2 SWAP1 MSTORE PUSH2 0x23E JUMP JUMPDEST POP POP PUSH1 0x40 DUP1 MLOAD PUSH1 0x20 DUP2 ADD DUP6 SWAP1 MSTORE PUSH2 0x1BC SWAP4 POP PUSH32 0xF675E9361AF1C1664C1868CFA3EB97672D6B1A513AA5B81DEC34C9EE330E818D SWAP3 POP ADD PUSH1 0x40 DUP1 MLOAD PUSH1 0x1F NOT DUP2 DUP5 SUB ADD DUP2 MSTORE SWAP2 SWAP1 MSTORE PUSH2 0x292 JUMP JUMPDEST POP POP PUSH1 0x8 DUP1 SLOAD PUSH1 0x1 PUSH1 0x1 PUSH1 0xA0 SHL SUB NOT AND CALLER OR SWAP1 SSTORE POP PUSH2 0x1E3 SWAP2 POP DUP7 SWAP1 POP DUP6 DUP4 PUSH0 DUP8 DUP8 PUSH2 0x352 JUMP JUMPDEST POP POP POP POP POP POP POP PUSH2 0xC94 JUMP JUMPDEST PUSH0 DUP1 SLOAD PUSH1 0x1 PUSH1 0x1 PUSH1 0xA0 SHL SUB DUP4 DUP2 AND PUSH1 0x1 PUSH1 0x1 PUSH1 0xA0 SHL SUB NOT DUP4 AND DUP2 OR DUP5 SSTORE PUSH1 0x40 MLOAD SWAP2 SWAP1 SWAP3 AND SWAP3 DUP4 SWAP2 PUSH32 0x8BE0079C531659141344CD1FD0A4F28419497F9722A3DAAFE3B4186F6B6457E0 SWAP2 SWAP1 LOG3 POP POP JUMP JUMPDEST PUSH0 DUP3 DUP2 MSTORE PUSH1 0x1 PUSH1 0x20 MSTORE PUSH1 0x40 SWAP1 KECCAK256 PUSH2 0x255 DUP3 DUP3 PUSH2 0xA67 JUMP JUMPDEST POP DUP2 PUSH32 0xECE574603820D07BC9B91F2A932BAADF4628AABCB8AFBA49776529C14A6104B2 DUP3 PUSH1 0x40 MLOAD PUSH2 0x286 SWAP2 SWAP1 PUSH2 0xB4F JUMP JUMPDEST PUSH1 0x40 MLOAD DUP1 SWAP2 SUB SWAP1 LOG2 POP POP JUMP JUMPDEST PUSH32 0x2145E1D6D074577DC71EF54C3807742B41B053A9352AE6B491331509ACB9750F DUP3 ADD PUSH2 0x2D2 JUMPI PUSH1 0x40 MLOAD PUSH4 0x85C169BD PUSH1 0xE0 SHL DUP2 MSTORE PUSH1 0x4 ADD PUSH1 0x40 MLOAD DUP1 SWAP2 SUB SWAP1 REVERT JUMPDEST PUSH32 0xD0F59754F88971FE6BC5A6618CC9D5F1E859C58D16B22D1C7B2D3E2B246CD8AA DUP3 ADD PUSH2 0x312 JUMPI PUSH1 0x40 MLOAD PUSH4 0xECEAB67 PUSH1 0xE3 SHL DUP2 MSTORE PUSH1 0x4 ADD PUSH1 0x40 MLOAD DUP1 SWAP2 SUB SWAP1 REVERT JUMPDEST PUSH32 0x1FD9E056A24D14C4ABC642FCC325992A946906D0DBC57DD70278AAF12842024D DUP3 ADD PUSH2 0x23E JUMPI PUSH1 0x40 MLOAD PUSH4 0x4EF6D7FB PUSH1 0xE0 SHL DUP2 MSTORE PUSH1 0x4 ADD PUSH1 0x40 MLOAD DUP1 SWAP2 SUB SWAP1 REVERT JUMPDEST PUSH0 PUSH2 0x361 PUSH1 0x6 DUP1 SLOAD PUSH1 0x1 ADD SWAP1 SSTORE JUMP JUMPDEST POP PUSH1 0x6 SLOAD PUSH1 0x40 DUP1 MLOAD PUSH1 0x20 DUP2 ADD SWAP1 SWAP2 MSTORE PUSH0 DUP2 MSTORE PUSH2 0x383 SWAP1 DUP7 SWAP1 DUP4 SWAP1 PUSH1 0x1 SWAP1 PUSH2 0x489 JUMP JUMPDEST PUSH0 DUP2 DUP2 MSTORE PUSH1 0x7 PUSH1 0x20 MSTORE PUSH1 0x40 SWAP1 KECCAK256 DUP1 PUSH2 0x39B DUP10 DUP3 PUSH2 0xA67 JUMP JUMPDEST POP PUSH1 0x1 DUP2 DUP2 ADD DUP1 SLOAD PUSH1 0x1 PUSH1 0x1 PUSH1 0xA0 SHL SUB NOT AND PUSH1 0x1 PUSH1 0x1 PUSH1 0xA0 SHL SUB DUP10 AND OR SWAP1 SSTORE PUSH1 0x6 DUP3 ADD DUP1 SLOAD DUP8 SWAP3 PUSH1 0xFF NOT SWAP1 SWAP2 AND SWAP1 DUP4 PUSH1 0x2 DUP2 GT ISZERO PUSH2 0x3DB JUMPI PUSH2 0x3DB PUSH2 0xB61 JUMP JUMPDEST MUL OR SWAP1 SSTORE POP PUSH1 0x7 DUP2 ADD DUP5 SWAP1 SSTORE PUSH1 0x8 DUP2 ADD DUP4 SWAP1 SSTORE PUSH2 0x419 DUP3 PUSH32 0xC3366955CDC4E5E179365DB885CFD44C7A3C473BFF1E9FE298C44868EE5C5F0A DUP11 PUSH2 0x5FF JUMP JUMPDEST PUSH2 0x444 DUP3 PUSH32 0xB0E4DA1959E3B7CA06CBEC424E21D53F4F792A982F8136456161E3D4F39C9F4B DUP10 PUSH2 0x5FF JUMP JUMPDEST DUP2 PUSH32 0xEAC520CDBD769F46FDDA2CE013B4F3FA04074E7813AFA644FAAE946556A45FF8 DUP10 DUP9 PUSH1 0x40 MLOAD PUSH2 0x476 SWAP3 SWAP2 SWAP1 PUSH2 0xB75 JUMP JUMPDEST PUSH1 0x40 MLOAD DUP1 SWAP2 SUB SWAP1 LOG2 POP SWAP7 SWAP6 POP POP POP POP POP POP JUMP JUMPDEST PUSH1 0x1 PUSH1 0x1 PUSH1 0xA0 SHL SUB DUP5 AND PUSH2 0x4B0 JUMPI PUSH1 0x40 MLOAD PUSH4 0x24ECEF4D PUSH1 0xE0 SHL DUP2 MSTORE PUSH1 0x4 ADD PUSH1 0x40 MLOAD DUP1 SWAP2 SUB SWAP1 REVERT JUMPDEST PUSH0 DUP4 DUP2 MSTORE PUSH1 0x3 PUSH1 0x20 MSTORE PUSH1 0x40 SWAP1 KECCAK256 SLOAD PUSH1 0x1 PUSH1 0x1 PUSH1 0xA0 SHL SUB AND ISZERO PUSH2 0x4ED JUMPI PUSH1 0x40 MLOAD PUSH4 0x34C7B511 PUSH1 0xE0 SHL DUP2 MSTORE PUSH1 0x4 DUP2 ADD DUP5 SWAP1 MSTORE PUSH1 0x24 ADD JUMPDEST PUSH1 0x40 MLOAD DUP1 SWAP2 SUB SWAP1 REVERT JUMPDEST PUSH0 DUP4 DUP2 MSTORE PUSH1 0x3 PUSH1 0x20 MSTORE PUSH1 0x40 SWAP1 KECCAK256 SLOAD PUSH1 0x1 PUSH1 0x1 PUSH1 0xA0 SHL SUB AND ISZERO PUSH2 0x525 JUMPI PUSH1 0x40 MLOAD PUSH4 0x34C7B511 PUSH1 0xE0 SHL DUP2 MSTORE PUSH1 0x4 DUP2 ADD DUP5 SWAP1 MSTORE PUSH1 0x24 ADD PUSH2 0x4E4 JUMP JUMPDEST PUSH1 0x2 PUSH0 DUP2 SLOAD PUSH2 0x533 SWAP1 PUSH2 0xB9E JUMP JUMPDEST SWAP1 SWAP2 SSTORE POP PUSH1 0x1 PUSH1 0x1 PUSH1 0xA0 SHL SUB DUP5 AND PUSH0 SWAP1 DUP2 MSTORE PUSH1 0x4 PUSH1 0x20 MSTORE PUSH1 0x40 SWAP1 KECCAK256 PUSH2 0x558 SWAP1 DUP5 PUSH2 0x68D JUMP JUMPDEST POP PUSH0 DUP4 DUP2 MSTORE PUSH1 0x3 PUSH1 0x20 MSTORE PUSH1 0x40 DUP1 DUP3 KECCAK256 DUP1 SLOAD PUSH1 0x1 PUSH1 0x1 PUSH1 0xA0 SHL SUB NOT AND PUSH1 0x1 PUSH1 0x1 PUSH1 0xA0 SHL SUB DUP9 AND SWAP1 DUP2 OR SWAP1 SWAP2 SSTORE SWAP1 MLOAD DUP6 SWAP3 SWAP1 PUSH32 0xB333C813A7426A7A11E2B190CAD52C44119421594B47F6F32ACE6D8C7207B2BF SWAP1 PUSH2 0x5B9 SWAP1 CALLER SWAP1 DUP9 SWAP1 DUP9 SWAP1 PUSH2 0xBC2 JUMP JUMPDEST PUSH1 0x40 MLOAD DUP1 SWAP2 SUB SWAP1 LOG4 PUSH0 CALLER PUSH0 DUP7 DUP7 DUP6 PUSH1 0x40 MLOAD PUSH1 0x20 ADD PUSH2 0x5DB SWAP6 SWAP5 SWAP4 SWAP3 SWAP2 SWAP1 PUSH2 0xBF6 JUMP JUMPDEST PUSH1 0x40 DUP1 MLOAD PUSH1 0x1F NOT DUP2 DUP5 SUB ADD DUP2 MSTORE SWAP2 SWAP1 MSTORE SWAP1 POP PUSH2 0x5F8 DUP6 DUP5 DUP4 PUSH2 0x6A1 JUMP JUMPDEST POP POP POP POP POP JUMP JUMPDEST DUP1 PUSH1 0x1 PUSH0 DUP6 DUP6 PUSH1 0x40 MLOAD PUSH1 0x20 ADD PUSH2 0x61F SWAP3 SWAP2 SWAP1 SWAP2 DUP3 MSTORE PUSH1 0x20 DUP3 ADD MSTORE PUSH1 0x40 ADD SWAP1 JUMP JUMPDEST PUSH1 0x40 MLOAD PUSH1 0x20 DUP2 DUP4 SUB SUB DUP2 MSTORE SWAP1 PUSH1 0x40 MSTORE DUP1 MLOAD SWAP1 PUSH1 0x20 ADD KECCAK256 DUP2 MSTORE PUSH1 0x20 ADD SWAP1 DUP2 MSTORE PUSH1 0x20 ADD PUSH0 KECCAK256 SWAP1 DUP2 PUSH2 0x64E SWAP2 SWAP1 PUSH2 0xA67 JUMP JUMPDEST POP DUP2 DUP4 PUSH32 0xA6E4251F855F750545FE414F120DB91C76B88DEF14D120969E5BB2D3F05DEBBB DUP4 PUSH1 0x40 MLOAD PUSH2 0x680 SWAP2 SWAP1 PUSH2 0xB4F JUMP JUMPDEST PUSH1 0x40 MLOAD DUP1 SWAP2 SUB SWAP1 LOG3 POP POP POP JUMP JUMPDEST PUSH0 PUSH2 0x698 DUP4 DUP4 PUSH2 0x7AF JUMP JUMPDEST SWAP1 POP JUMPDEST SWAP3 SWAP2 POP POP JUMP JUMPDEST PUSH2 0x6B2 DUP4 PUSH4 0x1AED5A85 PUSH1 0xE2 SHL PUSH2 0x7FB JUMP JUMPDEST ISZERO PUSH2 0x74D JUMPI PUSH1 0x40 MLOAD PUSH4 0x1AED5A85 PUSH1 0xE2 SHL DUP2 MSTORE PUSH1 0x1 PUSH1 0x1 PUSH1 0xA0 SHL SUB DUP5 AND SWAP1 PUSH4 0x6BB56A14 SWAP1 PUSH2 0x705 SWAP1 PUSH32 0xB084A55EBF70FD3C06FD755269DAC2212C4D3F0F4D09079780BFA50C1B2984D SWAP1 DUP6 SWAP1 PUSH1 0x4 ADD PUSH2 0xC30 JUMP JUMPDEST PUSH0 PUSH1 0x40 MLOAD DUP1 DUP4 SUB DUP2 PUSH0 DUP8 GAS CALL ISZERO DUP1 ISZERO PUSH2 0x720 JUMPI RETURNDATASIZE PUSH0 PUSH0 RETURNDATACOPY RETURNDATASIZE PUSH0 REVERT JUMPDEST POP POP POP POP PUSH1 0x40 MLOAD RETURNDATASIZE PUSH0 DUP3 RETURNDATACOPY PUSH1 0x1F RETURNDATASIZE SWAP1 DUP2 ADD PUSH1 0x1F NOT AND DUP3 ADD PUSH1 0x40 MSTORE PUSH2 0x747 SWAP2 SWAP1 DUP2 ADD SWAP1 PUSH2 0xC50 JUMP JUMPDEST POP POP POP POP JUMP JUMPDEST DUP2 PUSH2 0x7AA JUMPI PUSH1 0x1 PUSH1 0x1 PUSH1 0xA0 SHL SUB DUP4 AND EXTCODESIZE ISZERO PUSH2 0x786 JUMPI PUSH1 0x40 MLOAD PUSH4 0x4349776D PUSH1 0xE0 SHL DUP2 MSTORE PUSH1 0x1 PUSH1 0x1 PUSH1 0xA0 SHL SUB DUP5 AND PUSH1 0x4 DUP3 ADD MSTORE PUSH1 0x24 ADD PUSH2 0x4E4 JUMP JUMPDEST PUSH1 0x40 MLOAD PUSH4 0x3173137 PUSH1 0xE0 SHL DUP2 MSTORE PUSH1 0x1 PUSH1 0x1 PUSH1 0xA0 SHL SUB DUP5 AND PUSH1 0x4 DUP3 ADD MSTORE PUSH1 0x24 ADD PUSH2 0x4E4 JUMP JUMPDEST POP POP POP JUMP JUMPDEST PUSH0 DUP2 DUP2 MSTORE PUSH1 0x1 DUP4 ADD PUSH1 0x20 MSTORE PUSH1 0x40 DUP2 KECCAK256 SLOAD PUSH2 0x7F4 JUMPI POP DUP2 SLOAD PUSH1 0x1 DUP2 DUP2 ADD DUP5 SSTORE PUSH0 DUP5 DUP2 MSTORE PUSH1 0x20 DUP1 DUP3 KECCAK256 SWAP1 SWAP4 ADD DUP5 SWAP1 SSTORE DUP5 SLOAD DUP5 DUP3 MSTORE DUP3 DUP7 ADD SWAP1 SWAP4 MSTORE PUSH1 0x40 SWAP1 KECCAK256 SWAP2 SWAP1 SWAP2 SSTORE PUSH2 0x69B JUMP JUMPDEST POP PUSH0 PUSH2 0x69B JUMP JUMPDEST PUSH1 0x40 DUP1 MLOAD PUSH1 0x1 PUSH1 0x1 PUSH1 0xE0 SHL SUB NOT DUP4 AND PUSH1 0x24 DUP1 DUP4 ADD SWAP2 SWAP1 SWAP2 MSTORE DUP3 MLOAD DUP1 DUP4 SUB SWAP1 SWAP2 ADD DUP2 MSTORE PUSH1 0x44 SWAP1 SWAP2 ADD SWAP1 SWAP2 MSTORE PUSH1 0x20 DUP1 DUP3 ADD DUP1 MLOAD PUSH1 0x1 PUSH1 0x1 PUSH1 0xE0 SHL SUB AND PUSH4 0x1FFC9A7 PUSH1 0xE0 SHL OR DUP2 MSTORE DUP3 MLOAD PUSH0 SWAP4 SWAP3 DUP5 SWAP3 DUP4 SWAP3 DUP4 SWAP3 SWAP2 DUP4 SWAP2 SWAP1 DUP11 PUSH2 0x7530 STATICCALL SWAP3 POP RETURNDATASIZE SWAP2 POP PUSH0 MLOAD SWAP1 POP DUP3 DUP1 ISZERO PUSH2 0x86B JUMPI POP PUSH1 0x20 DUP3 LT ISZERO JUMPDEST DUP1 ISZERO PUSH2 0x876 JUMPI POP PUSH0 DUP2 GT JUMPDEST SWAP8 SWAP7 POP POP POP POP POP POP POP JUMP JUMPDEST PUSH4 0x4E487B71 PUSH1 0xE0 SHL PUSH0 MSTORE PUSH1 0x41 PUSH1 0x4 MSTORE PUSH1 0x24 PUSH0 REVERT JUMPDEST PUSH0 DUP1 PUSH1 0x1 PUSH1 0x1 PUSH1 0x40 SHL SUB DUP5 GT ISZERO PUSH2 0x8AE JUMPI PUSH2 0x8AE PUSH2 0x881 JUMP JUMPDEST POP PUSH1 0x40 MLOAD PUSH1 0x1F NOT PUSH1 0x1F DUP6 ADD DUP2 AND PUSH1 0x3F ADD AND DUP2 ADD DUP2 DUP2 LT PUSH1 0x1 PUSH1 0x1 PUSH1 0x40 SHL SUB DUP3 GT OR ISZERO PUSH2 0x8DC JUMPI PUSH2 0x8DC PUSH2 0x881 JUMP JUMPDEST PUSH1 0x40 MSTORE DUP4 DUP2 MSTORE SWAP1 POP DUP1 DUP3 DUP5 ADD DUP6 LT ISZERO PUSH2 0x8F3 JUMPI PUSH0 PUSH0 REVERT JUMPDEST DUP4 DUP4 PUSH1 0x20 DUP4 ADD MCOPY PUSH0 PUSH1 0x20 DUP6 DUP4 ADD ADD MSTORE POP SWAP4 SWAP3 POP POP POP JUMP JUMPDEST PUSH0 DUP3 PUSH1 0x1F DUP4 ADD SLT PUSH2 0x919 JUMPI PUSH0 PUSH0 REVERT JUMPDEST PUSH2 0x698 DUP4 DUP4 MLOAD PUSH1 0x20 DUP6 ADD PUSH2 0x895 JUMP JUMPDEST PUSH0 PUSH0 PUSH0 PUSH0 PUSH0 PUSH0 PUSH1 0xC0 DUP8 DUP10 SUB SLT ISZERO PUSH2 0x93D JUMPI PUSH0 PUSH0 REVERT JUMPDEST DUP7 MLOAD PUSH1 0x1 PUSH1 0x1 PUSH1 0x40 SHL SUB DUP2 GT ISZERO PUSH2 0x952 JUMPI PUSH0 PUSH0 REVERT JUMPDEST PUSH2 0x95E DUP10 DUP3 DUP11 ADD PUSH2 0x90A JUMP JUMPDEST PUSH1 0x20 DUP10 ADD MLOAD SWAP1 SWAP8 POP SWAP1 POP PUSH1 0x1 PUSH1 0x1 PUSH1 0x40 SHL SUB DUP2 GT ISZERO PUSH2 0x97B JUMPI PUSH0 PUSH0 REVERT JUMPDEST PUSH2 0x987 DUP10 DUP3 DUP11 ADD PUSH2 0x90A JUMP JUMPDEST PUSH1 0x40 DUP10 ADD MLOAD SWAP1 SWAP7 POP SWAP1 POP PUSH1 0x1 PUSH1 0x1 PUSH1 0x40 SHL SUB DUP2 GT ISZERO PUSH2 0x9A4 JUMPI PUSH0 PUSH0 REVERT JUMPDEST PUSH2 0x9B0 DUP10 DUP3 DUP11 ADD PUSH2 0x90A JUMP JUMPDEST PUSH1 0x60 DUP10 ADD MLOAD PUSH1 0x80 DUP11 ADD MLOAD PUSH1 0xA0 DUP12 ADD MLOAD SWAP3 SWAP8 POP SWAP1 SWAP6 POP SWAP4 POP SWAP1 POP PUSH1 0x1 PUSH1 0x1 PUSH1 0xA0 SHL SUB DUP2 AND DUP2 EQ PUSH2 0x9DD JUMPI PUSH0 PUSH0 REVERT JUMPDEST DUP1 SWAP2 POP POP SWAP3 SWAP6 POP SWAP3 SWAP6 POP SWAP3 SWAP6 JUMP JUMPDEST PUSH1 0x1 DUP2 DUP2 SHR SWAP1 DUP3 AND DUP1 PUSH2 0x9FF JUMPI PUSH1 0x7F DUP3 AND SWAP2 POP JUMPDEST PUSH1 0x20 DUP3 LT DUP2 SUB PUSH2 0xA1D JUMPI PUSH4 0x4E487B71 PUSH1 0xE0 SHL PUSH0 MSTORE PUSH1 0x22 PUSH1 0x4 MSTORE PUSH1 0x24 PUSH0 REVERT JUMPDEST POP SWAP2 SWAP1 POP JUMP JUMPDEST PUSH1 0x1F DUP3 GT ISZERO PUSH2 0x7AA JUMPI DUP1 PUSH0 MSTORE PUSH1 0x20 PUSH0 KECCAK256 PUSH1 0x1F DUP5 ADD PUSH1 0x5 SHR DUP2 ADD PUSH1 0x20 DUP6 LT ISZERO PUSH2 0xA48 JUMPI POP DUP1 JUMPDEST PUSH1 0x1F DUP5 ADD PUSH1 0x5 SHR DUP3 ADD SWAP2 POP JUMPDEST DUP2 DUP2 LT ISZERO PUSH2 0x5F8 JUMPI PUSH0 DUP2 SSTORE PUSH1 0x1 ADD PUSH2 0xA54 JUMP JUMPDEST DUP2 MLOAD PUSH1 0x1 PUSH1 0x1 PUSH1 0x40 SHL SUB DUP2 GT ISZERO PUSH2 0xA80 JUMPI PUSH2 0xA80 PUSH2 0x881 JUMP JUMPDEST PUSH2 0xA94 DUP2 PUSH2 0xA8E DUP5 SLOAD PUSH2 0x9EB JUMP JUMPDEST DUP5 PUSH2 0xA23 JUMP JUMPDEST PUSH1 0x20 PUSH1 0x1F DUP3 GT PUSH1 0x1 DUP2 EQ PUSH2 0xAC6 JUMPI PUSH0 DUP4 ISZERO PUSH2 0xAAF JUMPI POP DUP5 DUP3 ADD MLOAD JUMPDEST PUSH0 NOT PUSH1 0x3 DUP6 SWAP1 SHL SHR NOT AND PUSH1 0x1 DUP5 SWAP1 SHL OR DUP5 SSTORE PUSH2 0x5F8 JUMP JUMPDEST PUSH0 DUP5 DUP2 MSTORE PUSH1 0x20 DUP2 KECCAK256 PUSH1 0x1F NOT DUP6 AND SWAP2 JUMPDEST DUP3 DUP2 LT ISZERO PUSH2 0xAF5 JUMPI DUP8 DUP6 ADD MLOAD DUP3 SSTORE PUSH1 0x20 SWAP5 DUP6 ADD SWAP5 PUSH1 0x1 SWAP1 SWAP3 ADD SWAP2 ADD PUSH2 0xAD5 JUMP JUMPDEST POP DUP5 DUP3 LT ISZERO PUSH2 0xB12 JUMPI DUP7 DUP5 ADD MLOAD PUSH0 NOT PUSH1 0x3 DUP8 SWAP1 SHL PUSH1 0xF8 AND SHR NOT AND DUP2 SSTORE JUMPDEST POP POP POP POP PUSH1 0x1 SWAP1 DUP2 SHL ADD SWAP1 SSTORE POP JUMP JUMPDEST PUSH0 DUP2 MLOAD DUP1 DUP5 MSTORE DUP1 PUSH1 0x20 DUP5 ADD PUSH1 0x20 DUP7 ADD MCOPY PUSH0 PUSH1 0x20 DUP3 DUP7 ADD ADD MSTORE PUSH1 0x20 PUSH1 0x1F NOT PUSH1 0x1F DUP4 ADD AND DUP6 ADD ADD SWAP2 POP POP SWAP3 SWAP2 POP POP JUMP JUMPDEST PUSH1 0x20 DUP2 MSTORE PUSH0 PUSH2 0x698 PUSH1 0x20 DUP4 ADD DUP5 PUSH2 0xB21 JUMP JUMPDEST PUSH4 0x4E487B71 PUSH1 0xE0 SHL PUSH0 MSTORE PUSH1 0x21 PUSH1 0x4 MSTORE PUSH1 0x24 PUSH0 REVERT JUMPDEST PUSH1 0x40 DUP2 MSTORE PUSH0 PUSH2 0xB87 PUSH1 0x40 DUP4 ADD DUP6 PUSH2 0xB21 JUMP JUMPDEST SWAP1 POP PUSH1 0x1 DUP1 PUSH1 0xA0 SHL SUB DUP4 AND PUSH1 0x20 DUP4 ADD MSTORE SWAP4 SWAP3 POP POP POP JUMP JUMPDEST PUSH0 PUSH1 0x1 DUP3 ADD PUSH2 0xBBB JUMPI PUSH4 0x4E487B71 PUSH1 0xE0 SHL PUSH0 MSTORE PUSH1 0x11 PUSH1 0x4 MSTORE PUSH1 0x24 PUSH0 REVERT JUMPDEST POP PUSH1 0x1 ADD SWAP1 JUMP JUMPDEST PUSH1 0x1 PUSH1 0x1 PUSH1 0xA0 SHL SUB DUP5 AND DUP2 MSTORE DUP3 ISZERO ISZERO PUSH1 0x20 DUP3 ADD MSTORE PUSH1 0x60 PUSH1 0x40 DUP3 ADD DUP2 SWAP1 MSTORE PUSH0 SWAP1 PUSH2 0xBED SWAP1 DUP4 ADD DUP5 PUSH2 0xB21 JUMP JUMPDEST SWAP6 SWAP5 POP POP POP POP POP JUMP JUMPDEST PUSH1 0x1 PUSH1 0x1 PUSH1 0xA0 SHL SUB DUP7 DUP2 AND DUP3 MSTORE DUP6 DUP2 AND PUSH1 0x20 DUP4 ADD MSTORE DUP5 AND PUSH1 0x40 DUP3 ADD MSTORE PUSH1 0x60 DUP2 ADD DUP4 SWAP1 MSTORE PUSH1 0xA0 PUSH1 0x80 DUP3 ADD DUP2 SWAP1 MSTORE PUSH0 SWAP1 PUSH2 0x876 SWAP1 DUP4 ADD DUP5 PUSH2 0xB21 JUMP JUMPDEST DUP3 DUP2 MSTORE PUSH1 0x40 PUSH1 0x20 DUP3 ADD MSTORE PUSH0 PUSH2 0xC48 PUSH1 0x40 DUP4 ADD DUP5 PUSH2 0xB21 JUMP JUMPDEST SWAP5 SWAP4 POP POP POP POP JUMP JUMPDEST PUSH0 PUSH1 0x20 DUP3 DUP5 SUB SLT ISZERO PUSH2 0xC60 JUMPI PUSH0 PUSH0 REVERT JUMPDEST DUP2 MLOAD PUSH1 0x1 PUSH1 0x1 PUSH1 0x40 SHL SUB DUP2 GT ISZERO PUSH2 0xC75 JUMPI PUSH0 PUSH0 REVERT JUMPDEST DUP3 ADD PUSH1 0x1F DUP2 ADD DUP5 SGT PUSH2 0xC85 JUMPI PUSH0 PUSH0 REVERT JUMPDEST PUSH2 0xC48 DUP5 DUP3 MLOAD PUSH1 0x20 DUP5 ADD PUSH2 0x895 JUMP JUMPDEST PUSH2 0x3EE0 DUP1 PUSH2 0xCA1 PUSH0 CODECOPY PUSH0 RETURN INVALID PUSH1 0x80 PUSH1 0x40 MSTORE PUSH1 0x4 CALLDATASIZE LT PUSH2 0x207 JUMPI PUSH0 CALLDATALOAD PUSH1 0xE0 SHR DUP1 PUSH4 0x715018A6 GT PUSH2 0x117 JUMPI DUP1 PUSH4 0x97902421 GT PUSH2 0x9F JUMPI DUP1 PUSH4 0xD6C1407C GT PUSH2 0x6E JUMPI DUP1 PUSH4 0xD6C1407C EQ PUSH2 0x688 JUMPI DUP1 PUSH4 0xDB8C9663 EQ PUSH2 0x6A7 JUMPI DUP1 PUSH4 0xDEDFF9C6 EQ PUSH2 0x6C6 JUMPI DUP1 PUSH4 0xF1236E41 EQ PUSH2 0x6E5 JUMPI DUP1 PUSH4 0xF2FDE38B EQ PUSH2 0x704 JUMPI PUSH2 0x260 JUMP JUMPDEST DUP1 PUSH4 0x97902421 EQ PUSH2 0x60B JUMPI DUP1 PUSH4 0xA3B261F2 EQ PUSH2 0x61E JUMPI DUP1 PUSH4 0xBE9F0E6F EQ PUSH2 0x64A JUMPI DUP1 PUSH4 0xC1B4C4D1 EQ PUSH2 0x669 JUMPI PUSH2 0x260 JUMP JUMPDEST DUP1 PUSH4 0x7F23690C GT PUSH2 0xE6 JUMPI DUP1 PUSH4 0x7F23690C EQ PUSH2 0x57F JUMPI DUP1 PUSH4 0x843D667B EQ PUSH2 0x592 JUMPI DUP1 PUSH4 0x86A10DDD EQ PUSH2 0x5B1 JUMPI DUP1 PUSH4 0x8DA5CB5B EQ PUSH2 0x5D0 JUMPI DUP1 PUSH4 0x8F81ECFC EQ PUSH2 0x5EC JUMPI PUSH2 0x260 JUMP JUMPDEST DUP1 PUSH4 0x715018A6 EQ PUSH2 0x517 JUMPI DUP1 PUSH4 0x78495BF8 EQ PUSH2 0x52B JUMPI DUP1 PUSH4 0x7E87632C EQ PUSH2 0x541 JUMPI DUP1 PUSH4 0x7E913B05 EQ PUSH2 0x560 JUMPI PUSH2 0x260 JUMP JUMPDEST DUP1 PUSH4 0x2A3654A4 GT PUSH2 0x19A JUMPI DUP1 PUSH4 0x54F6127F GT PUSH2 0x169 JUMPI DUP1 PUSH4 0x54F6127F EQ PUSH2 0x469 JUMPI DUP1 PUSH4 0x625D0BE9 EQ PUSH2 0x488 JUMPI DUP1 PUSH4 0x6748CEC1 EQ PUSH2 0x4BA JUMPI DUP1 PUSH4 0x6963D438 EQ PUSH2 0x4D9 JUMPI DUP1 PUSH4 0x70A08231 EQ PUSH2 0x4F8 JUMPI PUSH2 0x260 JUMP JUMPDEST DUP1 PUSH4 0x2A3654A4 EQ PUSH2 0x3E0 JUMPI DUP1 PUSH4 0x30E075CA EQ PUSH2 0x3FF JUMPI DUP1 PUSH4 0x49A6078D EQ PUSH2 0x41E JUMPI DUP1 PUSH4 0x511B6952 EQ PUSH2 0x44A JUMPI PUSH2 0x260 JUMP JUMPDEST DUP1 PUSH4 0x1D26FCE6 GT PUSH2 0x1D6 JUMPI DUP1 PUSH4 0x1D26FCE6 EQ PUSH2 0x33F JUMPI DUP1 PUSH4 0x1F121708 EQ PUSH2 0x36B JUMPI DUP1 PUSH4 0x217B2270 EQ PUSH2 0x3A2 JUMPI DUP1 PUSH4 0x22060F4C EQ PUSH2 0x3C1 JUMPI PUSH2 0x260 JUMP JUMPDEST DUP1 PUSH4 0x1FFC9A7 EQ PUSH2 0x2A0 JUMPI DUP1 PUSH4 0x2154B4E EQ PUSH2 0x2D4 JUMPI DUP1 PUSH4 0x16E023B3 EQ PUSH2 0x2F5 JUMPI DUP1 PUSH4 0x18160DDD EQ PUSH2 0x321 JUMPI PUSH2 0x260 JUMP JUMPDEST CALLDATASIZE PUSH2 0x260 JUMPI CALLVALUE PUSH0 SUB PUSH2 0x247 JUMPI PUSH1 0x40 MLOAD PUSH4 0xE5099EE3 PUSH1 0xE0 SHL DUP2 MSTORE PUSH1 0x4 ADD PUSH2 0x23E SWAP1 PUSH1 0x20 DUP1 DUP3 MSTORE PUSH1 0x4 SWAP1 DUP3 ADD MSTORE PUSH0 PUSH1 0x40 DUP3 ADD MSTORE PUSH1 0x60 ADD SWAP1 JUMP JUMPDEST PUSH1 0x40 MLOAD DUP1 SWAP2 SUB SWAP1 REVERT JUMPDEST PUSH1 0x40 MLOAD PUSH4 0x30FA4A21 PUSH1 0xE1 SHL DUP2 MSTORE PUSH1 0x4 ADD PUSH1 0x40 MLOAD DUP1 SWAP2 SUB SWAP1 REVERT JUMPDEST PUSH0 CALLDATASIZE PUSH1 0x60 PUSH1 0x4 DUP3 LT ISZERO PUSH2 0x28A JUMPI DUP3 DUP3 PUSH1 0x40 MLOAD PUSH4 0xE5099EE3 PUSH1 0xE0 SHL DUP2 MSTORE PUSH1 0x4 ADD PUSH2 0x23E SWAP3 SWAP2 SWAP1 PUSH2 0x2DF4 JUMP JUMPDEST PUSH2 0x294 DUP4 DUP4 PUSH2 0x723 JUMP JUMPDEST DUP1 MLOAD SWAP4 POP PUSH1 0x20 ADD SWAP2 POP POP RETURN JUMPDEST CALLVALUE DUP1 ISZERO PUSH2 0x2AB JUMPI PUSH0 PUSH0 REVERT JUMPDEST POP PUSH2 0x2BF PUSH2 0x2BA CALLDATASIZE PUSH1 0x4 PUSH2 0x2E07 JUMP JUMPDEST PUSH2 0x812 JUMP JUMPDEST PUSH1 0x40 MLOAD SWAP1 ISZERO ISZERO DUP2 MSTORE PUSH1 0x20 ADD JUMPDEST PUSH1 0x40 MLOAD DUP1 SWAP2 SUB SWAP1 RETURN JUMPDEST CALLVALUE DUP1 ISZERO PUSH2 0x2DF JUMPI PUSH0 PUSH0 REVERT JUMPDEST POP PUSH2 0x2F3 PUSH2 0x2EE CALLDATASIZE PUSH1 0x4 PUSH2 0x2E49 JUMP JUMPDEST PUSH2 0x845 JUMP JUMPDEST STOP JUMPDEST CALLVALUE DUP1 ISZERO PUSH2 0x300 JUMPI PUSH0 PUSH0 REVERT JUMPDEST POP PUSH2 0x314 PUSH2 0x30F CALLDATASIZE PUSH1 0x4 PUSH2 0x2E62 JUMP JUMPDEST PUSH2 0x898 JUMP JUMPDEST PUSH1 0x40 MLOAD PUSH2 0x2CB SWAP2 SWAP1 PUSH2 0x2EB0 JUMP JUMPDEST CALLVALUE DUP1 ISZERO PUSH2 0x32C JUMPI PUSH0 PUSH0 REVERT JUMPDEST POP PUSH1 0x2 SLOAD JUMPDEST PUSH1 0x40 MLOAD SWAP1 DUP2 MSTORE PUSH1 0x20 ADD PUSH2 0x2CB JUMP JUMPDEST CALLVALUE DUP1 ISZERO PUSH2 0x34A JUMPI PUSH0 PUSH0 REVERT JUMPDEST POP PUSH2 0x35E PUSH2 0x359 CALLDATASIZE PUSH1 0x4 PUSH2 0x2F92 JUMP JUMPDEST PUSH2 0x8AB JUMP JUMPDEST PUSH1 0x40 MLOAD PUSH2 0x2CB SWAP2 SWAP1 PUSH2 0x2FF5 JUMP JUMPDEST CALLVALUE DUP1 ISZERO PUSH2 0x376 JUMPI PUSH0 PUSH0 REVERT JUMPDEST POP PUSH1 0x8 SLOAD PUSH2 0x38A SWAP1 PUSH1 0x1 PUSH1 0x1 PUSH1 0xA0 SHL SUB AND DUP2 JUMP JUMPDEST PUSH1 0x40 MLOAD PUSH1 0x1 PUSH1 0x1 PUSH1 0xA0 SHL SUB SWAP1 SWAP2 AND DUP2 MSTORE PUSH1 0x20 ADD PUSH2 0x2CB JUMP JUMPDEST CALLVALUE DUP1 ISZERO PUSH2 0x3AD JUMPI PUSH0 PUSH0 REVERT JUMPDEST POP PUSH2 0x38A PUSH2 0x3BC CALLDATASIZE PUSH1 0x4 PUSH2 0x3058 JUMP JUMPDEST PUSH2 0x991 JUMP JUMPDEST CALLVALUE DUP1 ISZERO PUSH2 0x3CC JUMPI PUSH0 PUSH0 REVERT JUMPDEST POP PUSH2 0x2F3 PUSH2 0x3DB CALLDATASIZE PUSH1 0x4 PUSH2 0x306F JUMP JUMPDEST PUSH2 0x9C9 JUMP JUMPDEST CALLVALUE DUP1 ISZERO PUSH2 0x3EB JUMPI PUSH0 PUSH0 REVERT JUMPDEST POP PUSH2 0x2BF PUSH2 0x3FA CALLDATASIZE PUSH1 0x4 PUSH2 0x3099 JUMP JUMPDEST PUSH2 0xB01 JUMP JUMPDEST CALLVALUE DUP1 ISZERO PUSH2 0x40A JUMPI PUSH0 PUSH0 REVERT JUMPDEST POP PUSH2 0x2F3 PUSH2 0x419 CALLDATASIZE PUSH1 0x4 PUSH2 0x3105 JUMP JUMPDEST PUSH2 0xB0C JUMP JUMPDEST CALLVALUE DUP1 ISZERO PUSH2 0x429 JUMPI PUSH0 PUSH0 REVERT JUMPDEST POP PUSH2 0x43D PUSH2 0x438 CALLDATASIZE PUSH1 0x4 PUSH2 0x3058 JUMP JUMPDEST PUSH2 0xC47 JUMP JUMPDEST PUSH1 0x40 MLOAD PUSH2 0x2CB SWAP2 SWAP1 PUSH2 0x314C JUMP JUMPDEST CALLVALUE DUP1 ISZERO PUSH2 0x455 JUMPI PUSH0 PUSH0 REVERT JUMPDEST POP PUSH2 0x2F3 PUSH2 0x464 CALLDATASIZE PUSH1 0x4 PUSH2 0x3219 JUMP JUMPDEST PUSH2 0xC68 JUMP JUMPDEST CALLVALUE DUP1 ISZERO PUSH2 0x474 JUMPI PUSH0 PUSH0 REVERT JUMPDEST POP PUSH2 0x314 PUSH2 0x483 CALLDATASIZE PUSH1 0x4 PUSH2 0x3058 JUMP JUMPDEST PUSH2 0xCAC JUMP JUMPDEST CALLVALUE DUP1 ISZERO PUSH2 0x493 JUMPI PUSH0 PUSH0 REVERT JUMPDEST POP PUSH2 0x4A7 PUSH2 0x4A2 CALLDATASIZE PUSH1 0x4 PUSH2 0x3058 JUMP JUMPDEST PUSH2 0xCB7 JUMP JUMPDEST PUSH1 0x40 MLOAD PUSH2 0x2CB SWAP8 SWAP7 SWAP6 SWAP5 SWAP4 SWAP3 SWAP2 SWAP1 PUSH2 0x32BC JUMP JUMPDEST CALLVALUE DUP1 ISZERO PUSH2 0x4C5 JUMPI PUSH0 PUSH0 REVERT JUMPDEST POP PUSH2 0x2F3 PUSH2 0x4D4 CALLDATASIZE PUSH1 0x4 PUSH2 0x2E62 JUMP JUMPDEST PUSH2 0xD86 JUMP JUMPDEST CALLVALUE DUP1 ISZERO PUSH2 0x4E4 JUMPI PUSH0 PUSH0 REVERT JUMPDEST POP PUSH2 0x35E PUSH2 0x4F3 CALLDATASIZE PUSH1 0x4 PUSH2 0x3314 JUMP JUMPDEST PUSH2 0xE23 JUMP JUMPDEST CALLVALUE DUP1 ISZERO PUSH2 0x503 JUMPI PUSH0 PUSH0 REVERT JUMPDEST POP PUSH2 0x331 PUSH2 0x512 CALLDATASIZE PUSH1 0x4 PUSH2 0x2E49 JUMP JUMPDEST PUSH2 0xF4D JUMP JUMPDEST CALLVALUE DUP1 ISZERO PUSH2 0x522 JUMPI PUSH0 PUSH0 REVERT JUMPDEST POP PUSH2 0x2F3 PUSH2 0xF6D JUMP JUMPDEST CALLVALUE DUP1 ISZERO PUSH2 0x536 JUMPI PUSH0 PUSH0 REVERT JUMPDEST POP PUSH1 0x6 SLOAD PUSH2 0x331 SWAP1 DUP2 JUMP JUMPDEST CALLVALUE DUP1 ISZERO PUSH2 0x54C JUMPI PUSH0 PUSH0 REVERT JUMPDEST POP PUSH2 0x2F3 PUSH2 0x55B CALLDATASIZE PUSH1 0x4 PUSH2 0x34C5 JUMP JUMPDEST PUSH2 0xF80 JUMP JUMPDEST CALLVALUE DUP1 ISZERO PUSH2 0x56B JUMPI PUSH0 PUSH0 REVERT JUMPDEST POP PUSH2 0x2F3 PUSH2 0x57A CALLDATASIZE PUSH1 0x4 PUSH2 0x2E62 JUMP JUMPDEST PUSH2 0x106E JUMP JUMPDEST PUSH2 0x2F3 PUSH2 0x58D CALLDATASIZE PUSH1 0x4 PUSH2 0x3596 JUMP JUMPDEST PUSH2 0x122B JUMP JUMPDEST CALLVALUE DUP1 ISZERO PUSH2 0x59D JUMPI PUSH0 PUSH0 REVERT JUMPDEST POP PUSH2 0x2F3 PUSH2 0x5AC CALLDATASIZE PUSH1 0x4 PUSH2 0x35E6 JUMP JUMPDEST PUSH2 0x1260 JUMP JUMPDEST CALLVALUE DUP1 ISZERO PUSH2 0x5BC JUMPI PUSH0 PUSH0 REVERT JUMPDEST POP PUSH2 0x2F3 PUSH2 0x5CB CALLDATASIZE PUSH1 0x4 PUSH2 0x36AB JUMP JUMPDEST PUSH2 0x1432 JUMP JUMPDEST CALLVALUE DUP1 ISZERO PUSH2 0x5DB JUMPI PUSH0 PUSH0 REVERT JUMPDEST POP PUSH0 SLOAD PUSH1 0x1 PUSH1 0x1 PUSH1 0xA0 SHL SUB AND PUSH2 0x38A JUMP JUMPDEST CALLVALUE DUP1 ISZERO PUSH2 0x5F7 JUMPI PUSH0 PUSH0 REVERT JUMPDEST POP PUSH2 0x2F3 PUSH2 0x606 CALLDATASIZE PUSH1 0x4 PUSH2 0x2E62 JUMP JUMPDEST PUSH2 0x15A9 JUMP JUMPDEST PUSH2 0x2F3 PUSH2 0x619 CALLDATASIZE PUSH1 0x4 PUSH2 0x36FD JUMP JUMPDEST PUSH2 0x17DF JUMP JUMPDEST CALLVALUE DUP1 ISZERO PUSH2 0x629 JUMPI PUSH0 PUSH0 REVERT JUMPDEST POP PUSH2 0x63D PUSH2 0x638 CALLDATASIZE PUSH1 0x4 PUSH2 0x2E49 JUMP JUMPDEST PUSH2 0x1810 JUMP JUMPDEST PUSH1 0x40 MLOAD PUSH2 0x2CB SWAP2 SWAP1 PUSH2 0x3756 JUMP JUMPDEST CALLVALUE DUP1 ISZERO PUSH2 0x655 JUMPI PUSH0 PUSH0 REVERT JUMPDEST POP PUSH2 0x2F3 PUSH2 0x664 CALLDATASIZE PUSH1 0x4 PUSH2 0x378D JUMP JUMPDEST PUSH2 0x1833 JUMP JUMPDEST CALLVALUE DUP1 ISZERO PUSH2 0x674 JUMPI PUSH0 PUSH0 REVERT JUMPDEST POP PUSH2 0x2F3 PUSH2 0x683 CALLDATASIZE PUSH1 0x4 PUSH2 0x2E62 JUMP JUMPDEST PUSH2 0x18F6 JUMP JUMPDEST CALLVALUE DUP1 ISZERO PUSH2 0x693 JUMPI PUSH0 PUSH0 REVERT JUMPDEST POP PUSH2 0x2F3 PUSH2 0x6A2 CALLDATASIZE PUSH1 0x4 PUSH2 0x380E JUMP JUMPDEST PUSH2 0x19DF JUMP JUMPDEST CALLVALUE DUP1 ISZERO PUSH2 0x6B2 JUMPI PUSH0 PUSH0 REVERT JUMPDEST POP PUSH2 0x2F3 PUSH2 0x6C1 CALLDATASIZE PUSH1 0x4 PUSH2 0x3843 JUMP JUMPDEST PUSH2 0x1A33 JUMP JUMPDEST CALLVALUE DUP1 ISZERO PUSH2 0x6D1 JUMPI PUSH0 PUSH0 REVERT JUMPDEST POP PUSH2 0x35E PUSH2 0x6E0 CALLDATASIZE PUSH1 0x4 PUSH2 0x38A6 JUMP JUMPDEST PUSH2 0x1B14 JUMP JUMPDEST CALLVALUE DUP1 ISZERO PUSH2 0x6F0 JUMPI PUSH0 PUSH0 REVERT JUMPDEST POP PUSH2 0x2F3 PUSH2 0x6FF CALLDATASIZE PUSH1 0x4 PUSH2 0x38D7 JUMP JUMPDEST PUSH2 0x1BBD JUMP JUMPDEST CALLVALUE DUP1 ISZERO PUSH2 0x70F JUMPI PUSH0 PUSH0 REVERT JUMPDEST POP PUSH2 0x2F3 PUSH2 0x71E CALLDATASIZE PUSH1 0x4 PUSH2 0x2E49 JUMP JUMPDEST PUSH2 0x1D2E JUMP JUMPDEST PUSH1 0x60 PUSH0 PUSH2 0x73A PUSH0 CALLDATALOAD PUSH1 0x1 PUSH1 0x1 PUSH1 0xE0 SHL SUB NOT AND PUSH2 0x1D9B JUMP JUMPDEST POP SWAP1 POP PUSH1 0x1 PUSH1 0x1 PUSH1 0xA0 SHL SUB DUP2 AND PUSH2 0x771 JUMPI PUSH1 0x40 MLOAD PUSH4 0xBB370B2B PUSH1 0xE0 SHL DUP2 MSTORE PUSH1 0x1 PUSH1 0x1 PUSH1 0xE0 SHL SUB NOT PUSH0 CALLDATALOAD AND PUSH1 0x4 DUP3 ADD MSTORE PUSH1 0x24 ADD PUSH2 0x23E JUMP JUMPDEST PUSH0 PUSH0 DUP3 PUSH1 0x1 PUSH1 0x1 PUSH1 0xA0 SHL SUB AND CALLVALUE DUP8 DUP8 CALLER CALLVALUE PUSH1 0x40 MLOAD PUSH1 0x20 ADD PUSH2 0x795 SWAP5 SWAP4 SWAP3 SWAP2 SWAP1 PUSH2 0x3982 JUMP JUMPDEST PUSH1 0x40 DUP1 MLOAD PUSH1 0x1F NOT DUP2 DUP5 SUB ADD DUP2 MSTORE SWAP1 DUP3 SWAP1 MSTORE PUSH2 0x7AF SWAP2 PUSH2 0x39AD JUMP JUMPDEST PUSH0 PUSH1 0x40 MLOAD DUP1 DUP4 SUB DUP2 DUP6 DUP8 GAS CALL SWAP3 POP POP POP RETURNDATASIZE DUP1 PUSH0 DUP2 EQ PUSH2 0x7E9 JUMPI PUSH1 0x40 MLOAD SWAP2 POP PUSH1 0x1F NOT PUSH1 0x3F RETURNDATASIZE ADD AND DUP3 ADD PUSH1 0x40 MSTORE RETURNDATASIZE DUP3 MSTORE RETURNDATASIZE PUSH0 PUSH1 0x20 DUP5 ADD RETURNDATACOPY PUSH2 0x7EE JUMP JUMPDEST PUSH1 0x60 SWAP2 POP JUMPDEST POP SWAP2 POP SWAP2 POP DUP2 ISZERO PUSH2 0x803 JUMPI SWAP3 POP PUSH2 0x80C SWAP2 POP POP JUMP JUMPDEST DUP1 MLOAD DUP1 PUSH1 0x20 DUP4 ADD REVERT JUMPDEST SWAP3 SWAP2 POP POP JUMP JUMPDEST PUSH0 PUSH1 0x1 PUSH1 0x1 PUSH1 0xE0 SHL SUB NOT DUP3 AND PUSH4 0x1D138B83 PUSH1 0xE1 SHL EQ DUP1 PUSH2 0x836 JUMPI POP PUSH2 0x836 DUP3 PUSH2 0x1E17 JUMP JUMPDEST DUP1 PUSH2 0x80C JUMPI POP PUSH2 0x80C DUP3 PUSH2 0x1E3B JUMP JUMPDEST PUSH1 0x8 SLOAD PUSH1 0x1 PUSH1 0x1 PUSH1 0xA0 SHL SUB AND CALLER EQ PUSH2 0x88C JUMPI PUSH1 0x40 MLOAD PUSH3 0x461BCD PUSH1 0xE5 SHL DUP2 MSTORE PUSH1 0x20 PUSH1 0x4 DUP3 ADD MSTORE PUSH1 0xA PUSH1 0x24 DUP3 ADD MSTORE PUSH10 0x139BDD081C195C9B5A5D PUSH1 0xB2 SHL PUSH1 0x44 DUP3 ADD MSTORE PUSH1 0x64 ADD PUSH2 0x23E JUMP JUMPDEST PUSH2 0x895 DUP2 PUSH2 0x1E70 JUMP JUMPDEST POP JUMP JUMPDEST PUSH1 0x60 PUSH2 0x8A4 DUP4 DUP4 PUSH2 0x1EBF JUMP JUMPDEST SWAP4 SWAP3 POP POP POP JUMP JUMPDEST PUSH1 0x60 DUP2 MLOAD DUP4 MLOAD EQ PUSH2 0x8CF JUMPI PUSH1 0x40 MLOAD PUSH4 0x17D38EFF PUSH1 0xE1 SHL DUP2 MSTORE PUSH1 0x4 ADD PUSH1 0x40 MLOAD DUP1 SWAP2 SUB SWAP1 REVERT JUMPDEST DUP3 MLOAD PUSH1 0x1 PUSH1 0x1 PUSH1 0x40 SHL SUB DUP2 GT ISZERO PUSH2 0x8E8 JUMPI PUSH2 0x8E8 PUSH2 0x2EC2 JUMP JUMPDEST PUSH1 0x40 MLOAD SWAP1 DUP1 DUP3 MSTORE DUP1 PUSH1 0x20 MUL PUSH1 0x20 ADD DUP3 ADD PUSH1 0x40 MSTORE DUP1 ISZERO PUSH2 0x91B JUMPI DUP2 PUSH1 0x20 ADD JUMPDEST PUSH1 0x60 DUP2 MSTORE PUSH1 0x20 ADD SWAP1 PUSH1 0x1 SWAP1 SUB SWAP1 DUP2 PUSH2 0x906 JUMPI SWAP1 POP JUMPDEST POP SWAP1 POP PUSH0 JUMPDEST DUP4 MLOAD DUP2 LT ISZERO PUSH2 0x98A JUMPI PUSH2 0x965 DUP5 DUP3 DUP2 MLOAD DUP2 LT PUSH2 0x93E JUMPI PUSH2 0x93E PUSH2 0x39C3 JUMP JUMPDEST PUSH1 0x20 MUL PUSH1 0x20 ADD ADD MLOAD DUP5 DUP4 DUP2 MLOAD DUP2 LT PUSH2 0x958 JUMPI PUSH2 0x958 PUSH2 0x39C3 JUMP JUMPDEST PUSH1 0x20 MUL PUSH1 0x20 ADD ADD MLOAD PUSH2 0x1EBF JUMP JUMPDEST DUP3 DUP3 DUP2 MLOAD DUP2 LT PUSH2 0x977 JUMPI PUSH2 0x977 PUSH2 0x39C3 JUMP JUMPDEST PUSH1 0x20 SWAP1 DUP2 MUL SWAP2 SWAP1 SWAP2 ADD ADD MSTORE PUSH1 0x1 ADD PUSH2 0x920 JUMP JUMPDEST POP SWAP3 SWAP2 POP POP JUMP JUMPDEST PUSH0 DUP2 DUP2 MSTORE PUSH1 0x3 PUSH1 0x20 MSTORE PUSH1 0x40 DUP2 KECCAK256 SLOAD PUSH1 0x1 PUSH1 0x1 PUSH1 0xA0 SHL SUB AND DUP1 PUSH2 0x80C JUMPI PUSH1 0x40 MLOAD PUSH4 0x5747CD1B PUSH1 0xE1 SHL DUP2 MSTORE PUSH1 0x4 DUP2 ADD DUP5 SWAP1 MSTORE PUSH1 0x24 ADD PUSH2 0x23E JUMP JUMPDEST DUP2 PUSH0 PUSH2 0x9D4 DUP3 PUSH2 0x991 JUMP JUMPDEST SWAP1 POP CALLER PUSH1 0x1 PUSH1 0x1 PUSH1 0xA0 SHL SUB DUP3 AND EQ DUP1 PUSH2 0x9F6 JUMPI POP PUSH0 SLOAD PUSH1 0x1 PUSH1 0x1 PUSH1 0xA0 SHL SUB AND CALLER EQ JUMPDEST PUSH2 0xA12 JUMPI PUSH1 0x40 MLOAD PUSH3 0x461BCD PUSH1 0xE5 SHL DUP2 MSTORE PUSH1 0x4 ADD PUSH2 0x23E SWAP1 PUSH2 0x39D7 JUMP JUMPDEST PUSH1 0x1 PUSH1 0x1 PUSH1 0xA0 SHL SUB DUP4 AND PUSH2 0xA5C JUMPI PUSH1 0x40 MLOAD PUSH3 0x461BCD PUSH1 0xE5 SHL DUP2 MSTORE PUSH1 0x20 PUSH1 0x4 DUP3 ADD MSTORE PUSH1 0x11 PUSH1 0x24 DUP3 ADD MSTORE PUSH17 0x24B73B30B634B2103732BB9037BBB732B9 PUSH1 0x79 SHL PUSH1 0x44 DUP3 ADD MSTORE PUSH1 0x64 ADD PUSH2 0x23E JUMP JUMPDEST PUSH0 DUP5 DUP2 MSTORE PUSH1 0x7 PUSH1 0x20 SWAP1 DUP2 MSTORE PUSH1 0x40 DUP1 DUP4 KECCAK256 PUSH1 0x1 DUP1 DUP3 ADD SLOAD DUP4 MLOAD SWAP5 DUP6 ADD SWAP1 SWAP4 MSTORE SWAP4 DUP4 MSTORE SWAP3 PUSH1 0x1 PUSH1 0x1 PUSH1 0xA0 SHL SUB SWAP1 SWAP2 AND SWAP2 PUSH2 0xA99 SWAP2 DUP4 SWAP2 DUP9 SWAP2 DUP11 SWAP2 PUSH2 0x1F92 JUMP JUMPDEST PUSH1 0x1 DUP3 ADD DUP1 SLOAD PUSH1 0x1 PUSH1 0x1 PUSH1 0xA0 SHL SUB NOT AND PUSH1 0x1 PUSH1 0x1 PUSH1 0xA0 SHL SUB DUP8 DUP2 AND SWAP2 DUP3 OR SWAP1 SWAP3 SSTORE PUSH1 0x40 DUP1 MLOAD SWAP3 DUP5 AND DUP4 MSTORE PUSH1 0x20 DUP4 ADD SWAP2 SWAP1 SWAP2 MSTORE DUP8 SWAP2 PUSH32 0x95052A17AB60D45D4E781447505FDD5406D8FEE5BA860AE46D7C9EB9CBE039B3 SWAP2 ADD JUMPDEST PUSH1 0x40 MLOAD DUP1 SWAP2 SUB SWAP1 LOG2 POP POP POP POP POP POP JUMP JUMPDEST PUSH0 PUSH2 0x8A4 DUP4 DUP4 PUSH2 0x216E JUMP JUMPDEST DUP3 PUSH0 PUSH2 0xB17 DUP3 PUSH2 0x991 JUMP JUMPDEST SWAP1 POP CALLER PUSH1 0x1 PUSH1 0x1 PUSH1 0xA0 SHL SUB DUP3 AND EQ DUP1 PUSH2 0xB39 JUMPI POP PUSH0 SLOAD PUSH1 0x1 PUSH1 0x1 PUSH1 0xA0 SHL SUB AND CALLER EQ JUMPDEST PUSH2 0xB55 JUMPI PUSH1 0x40 MLOAD PUSH3 0x461BCD PUSH1 0xE5 SHL DUP2 MSTORE PUSH1 0x4 ADD PUSH2 0x23E SWAP1 PUSH2 0x39D7 JUMP JUMPDEST PUSH0 DUP6 DUP2 MSTORE PUSH1 0x7 PUSH1 0x20 MSTORE PUSH1 0x40 DUP2 KECCAK256 DUP1 SLOAD SWAP1 SWAP2 SWAP1 DUP3 SWAP1 PUSH2 0xB72 SWAP1 PUSH2 0x39FF JUMP JUMPDEST DUP1 PUSH1 0x1F ADD PUSH1 0x20 DUP1 SWAP2 DIV MUL PUSH1 0x20 ADD PUSH1 0x40 MLOAD SWAP1 DUP2 ADD PUSH1 0x40 MSTORE DUP1 SWAP3 SWAP2 SWAP1 DUP2 DUP2 MSTORE PUSH1 0x20 ADD DUP3 DUP1 SLOAD PUSH2 0xB9E SWAP1 PUSH2 0x39FF JUMP JUMPDEST DUP1 ISZERO PUSH2 0xBE9 JUMPI DUP1 PUSH1 0x1F LT PUSH2 0xBC0 JUMPI PUSH2 0x100 DUP1 DUP4 SLOAD DIV MUL DUP4 MSTORE SWAP2 PUSH1 0x20 ADD SWAP2 PUSH2 0xBE9 JUMP JUMPDEST DUP3 ADD SWAP2 SWAP1 PUSH0 MSTORE PUSH1 0x20 PUSH0 KECCAK256 SWAP1 JUMPDEST DUP2 SLOAD DUP2 MSTORE SWAP1 PUSH1 0x1 ADD SWAP1 PUSH1 0x20 ADD DUP1 DUP4 GT PUSH2 0xBCC JUMPI DUP3 SWAP1 SUB PUSH1 0x1F AND DUP3 ADD SWAP2 JUMPDEST POP SWAP4 SWAP5 POP DUP6 SWAP4 POP PUSH2 0xC01 SWAP3 POP DUP9 SWAP2 POP DUP10 SWAP1 POP DUP4 PUSH2 0x3A75 JUMP JUMPDEST POP DUP7 PUSH32 0xC38A676404F085E54223B29E255EF474A1F7707725D418FCF85FA5808D8155E0 DUP3 DUP9 DUP9 PUSH1 0x40 MLOAD PUSH2 0xC36 SWAP4 SWAP3 SWAP2 SWAP1 PUSH2 0x3B2E JUMP JUMPDEST PUSH1 0x40 MLOAD DUP1 SWAP2 SUB SWAP1 LOG2 POP POP POP POP POP POP POP JUMP JUMPDEST PUSH1 0x60 PUSH2 0xC52 DUP3 PUSH2 0x21A9 JUMP JUMPDEST PUSH0 DUP3 DUP2 MSTORE PUSH1 0x5 PUSH1 0x20 MSTORE PUSH1 0x40 SWAP1 KECCAK256 PUSH2 0x80C SWAP1 PUSH2 0x21E0 JUMP JUMPDEST PUSH2 0xC72 CALLER DUP5 PUSH2 0x216E JUMP JUMPDEST PUSH2 0xC98 JUMPI PUSH1 0x40 MLOAD PUSH4 0x1294D2A9 PUSH1 0xE0 SHL DUP2 MSTORE PUSH1 0x4 DUP2 ADD DUP5 SWAP1 MSTORE CALLER PUSH1 0x24 DUP3 ADD MSTORE PUSH1 0x44 ADD PUSH2 0x23E JUMP JUMPDEST PUSH2 0xCA5 DUP6 DUP6 DUP6 DUP6 DUP6 PUSH2 0x1F92 JUMP JUMPDEST POP POP POP POP POP JUMP JUMPDEST PUSH1 0x60 PUSH2 0x80C DUP3 PUSH2 0x21EC JUMP JUMPDEST PUSH1 0x7 PUSH1 0x20 MSTORE PUSH0 SWAP1 DUP2 MSTORE PUSH1 0x40 SWAP1 KECCAK256 DUP1 SLOAD DUP2 SWAP1 PUSH2 0xCD1 SWAP1 PUSH2 0x39FF JUMP JUMPDEST DUP1 PUSH1 0x1F ADD PUSH1 0x20 DUP1 SWAP2 DIV MUL PUSH1 0x20 ADD PUSH1 0x40 MLOAD SWAP1 DUP2 ADD PUSH1 0x40 MSTORE DUP1 SWAP3 SWAP2 SWAP1 DUP2 DUP2 MSTORE PUSH1 0x20 ADD DUP3 DUP1 SLOAD PUSH2 0xCFD SWAP1 PUSH2 0x39FF JUMP JUMPDEST DUP1 ISZERO PUSH2 0xD48 JUMPI DUP1 PUSH1 0x1F LT PUSH2 0xD1F JUMPI PUSH2 0x100 DUP1 DUP4 SLOAD DIV MUL DUP4 MSTORE SWAP2 PUSH1 0x20 ADD SWAP2 PUSH2 0xD48 JUMP JUMPDEST DUP3 ADD SWAP2 SWAP1 PUSH0 MSTORE PUSH1 0x20 PUSH0 KECCAK256 SWAP1 JUMPDEST DUP2 SLOAD DUP2 MSTORE SWAP1 PUSH1 0x1 ADD SWAP1 PUSH1 0x20 ADD DUP1 DUP4 GT PUSH2 0xD2B JUMPI DUP3 SWAP1 SUB PUSH1 0x1F AND DUP3 ADD SWAP2 JUMPDEST POP POP POP PUSH1 0x1 DUP5 ADD SLOAD PUSH1 0x2 DUP6 ADD SLOAD PUSH1 0x3 DUP7 ADD SLOAD PUSH1 0x6 DUP8 ADD SLOAD PUSH1 0x7 DUP9 ADD SLOAD PUSH1 0x8 SWAP1 SWAP9 ADD SLOAD SWAP7 SWAP8 PUSH1 0x1 PUSH1 0x1 PUSH1 0xA0 SHL SUB SWAP1 SWAP5 AND SWAP7 SWAP3 SWAP6 POP SWAP1 SWAP4 POP PUSH1 0xFF AND SWAP2 SWAP1 DUP8 JUMP JUMPDEST DUP2 PUSH0 PUSH2 0xD91 DUP3 PUSH2 0x991 JUMP JUMPDEST SWAP1 POP CALLER PUSH1 0x1 PUSH1 0x1 PUSH1 0xA0 SHL SUB DUP3 AND EQ DUP1 PUSH2 0xDB3 JUMPI POP PUSH0 SLOAD PUSH1 0x1 PUSH1 0x1 PUSH1 0xA0 SHL SUB AND CALLER EQ JUMPDEST PUSH2 0xDCF JUMPI PUSH1 0x40 MLOAD PUSH3 0x461BCD PUSH1 0xE5 SHL DUP2 MSTORE PUSH1 0x4 ADD PUSH2 0x23E SWAP1 PUSH2 0x39D7 JUMP JUMPDEST PUSH0 DUP5 DUP2 MSTORE PUSH1 0x7 PUSH1 0x20 SWAP1 DUP2 MSTORE PUSH1 0x40 SWAP2 DUP3 SWAP1 KECCAK256 PUSH1 0x8 DUP2 ADD DUP1 SLOAD SWAP1 DUP8 SWAP1 SSTORE DUP4 MLOAD DUP2 DUP2 MSTORE SWAP3 DUP4 ADD DUP8 SWAP1 MSTORE SWAP1 SWAP3 SWAP1 SWAP2 DUP8 SWAP2 PUSH32 0xB17606867AC4A9B1AB3D64B430D9DC5C3471D63C0BA48B54A95E8471FC517CF0 SWAP2 ADD PUSH2 0xAF1 JUMP JUMPDEST PUSH1 0x60 DUP2 PUSH1 0x1 PUSH1 0x1 PUSH1 0x40 SHL SUB DUP2 GT ISZERO PUSH2 0xE3D JUMPI PUSH2 0xE3D PUSH2 0x2EC2 JUMP JUMPDEST PUSH1 0x40 MLOAD SWAP1 DUP1 DUP3 MSTORE DUP1 PUSH1 0x20 MUL PUSH1 0x20 ADD DUP3 ADD PUSH1 0x40 MSTORE DUP1 ISZERO PUSH2 0xE70 JUMPI DUP2 PUSH1 0x20 ADD JUMPDEST PUSH1 0x60 DUP2 MSTORE PUSH1 0x20 ADD SWAP1 PUSH1 0x1 SWAP1 SUB SWAP1 DUP2 PUSH2 0xE5B JUMPI SWAP1 POP JUMPDEST POP SWAP1 POP PUSH0 JUMPDEST DUP3 DUP2 LT ISZERO PUSH2 0x98A JUMPI PUSH0 DUP1 ADDRESS DUP7 DUP7 DUP6 DUP2 DUP2 LT PUSH2 0xE92 JUMPI PUSH2 0xE92 PUSH2 0x39C3 JUMP JUMPDEST SWAP1 POP PUSH1 0x20 MUL DUP2 ADD SWAP1 PUSH2 0xEA4 SWAP2 SWAP1 PUSH2 0x3B5D JUMP JUMPDEST PUSH1 0x40 MLOAD PUSH2 0xEB2 SWAP3 SWAP2 SWAP1 PUSH2 0x3B9F JUMP JUMPDEST PUSH0 PUSH1 0x40 MLOAD DUP1 DUP4 SUB DUP2 DUP6 GAS DELEGATECALL SWAP2 POP POP RETURNDATASIZE DUP1 PUSH0 DUP2 EQ PUSH2 0xEEA JUMPI PUSH1 0x40 MLOAD SWAP2 POP PUSH1 0x1F NOT PUSH1 0x3F RETURNDATASIZE ADD AND DUP3 ADD PUSH1 0x40 MSTORE RETURNDATASIZE DUP3 MSTORE RETURNDATASIZE PUSH0 PUSH1 0x20 DUP5 ADD RETURNDATACOPY PUSH2 0xEEF JUMP JUMPDEST PUSH1 0x60 SWAP2 POP JUMPDEST POP SWAP2 POP SWAP2 POP DUP2 PUSH2 0xF25 JUMPI DUP1 MLOAD ISZERO PUSH2 0xF09 JUMPI DUP1 MLOAD DUP1 DUP3 PUSH1 0x20 ADD REVERT JUMPDEST PUSH1 0x40 MLOAD PUSH4 0x234EB819 PUSH1 0xE0 SHL DUP2 MSTORE PUSH1 0x4 DUP2 ADD DUP5 SWAP1 MSTORE PUSH1 0x24 ADD PUSH2 0x23E JUMP JUMPDEST DUP1 DUP5 DUP5 DUP2 MLOAD DUP2 LT PUSH2 0xF38 JUMPI PUSH2 0xF38 PUSH2 0x39C3 JUMP JUMPDEST PUSH1 0x20 SWAP1 DUP2 MUL SWAP2 SWAP1 SWAP2 ADD ADD MSTORE POP POP PUSH1 0x1 ADD PUSH2 0xE75 JUMP JUMPDEST PUSH1 0x1 PUSH1 0x1 PUSH1 0xA0 SHL SUB DUP2 AND PUSH0 SWAP1 DUP2 MSTORE PUSH1 0x4 PUSH1 0x20 MSTORE PUSH1 0x40 DUP2 KECCAK256 PUSH2 0x80C SWAP1 PUSH2 0x228B JUMP JUMPDEST PUSH2 0xF75 PUSH2 0x2294 JUMP JUMPDEST PUSH2 0xF7E PUSH0 PUSH2 0x1E70 JUMP JUMPDEST JUMP JUMPDEST DUP5 MLOAD DUP5 MLOAD DUP2 EQ ISZERO DUP1 PUSH2 0xF93 JUMPI POP DUP4 MLOAD DUP2 EQ ISZERO JUMPDEST DUP1 PUSH2 0xF9F JUMPI POP DUP3 MLOAD DUP2 EQ ISZERO JUMPDEST DUP1 PUSH2 0xFAB JUMPI POP DUP2 MLOAD DUP2 EQ ISZERO JUMPDEST ISZERO PUSH2 0xFC9 JUMPI PUSH1 0x40 MLOAD PUSH4 0x93A83119 PUSH1 0xE0 SHL DUP2 MSTORE PUSH1 0x4 ADD PUSH1 0x40 MLOAD DUP1 SWAP2 SUB SWAP1 REVERT JUMPDEST PUSH0 JUMPDEST DUP2 DUP2 LT ISZERO PUSH2 0x1065 JUMPI PUSH2 0x105D DUP8 DUP3 DUP2 MLOAD DUP2 LT PUSH2 0xFE8 JUMPI PUSH2 0xFE8 PUSH2 0x39C3 JUMP JUMPDEST PUSH1 0x20 MUL PUSH1 0x20 ADD ADD MLOAD DUP8 DUP4 DUP2 MLOAD DUP2 LT PUSH2 0x1002 JUMPI PUSH2 0x1002 PUSH2 0x39C3 JUMP JUMPDEST PUSH1 0x20 MUL PUSH1 0x20 ADD ADD MLOAD DUP8 DUP5 DUP2 MLOAD DUP2 LT PUSH2 0x101C JUMPI PUSH2 0x101C PUSH2 0x39C3 JUMP JUMPDEST PUSH1 0x20 MUL PUSH1 0x20 ADD ADD MLOAD DUP8 DUP6 DUP2 MLOAD DUP2 LT PUSH2 0x1036 JUMPI PUSH2 0x1036 PUSH2 0x39C3 JUMP JUMPDEST PUSH1 0x20 MUL PUSH1 0x20 ADD ADD MLOAD DUP8 DUP7 DUP2 MLOAD DUP2 LT PUSH2 0x1050 JUMPI PUSH2 0x1050 PUSH2 0x39C3 JUMP JUMPDEST PUSH1 0x20 MUL PUSH1 0x20 ADD ADD MLOAD PUSH2 0xC68 JUMP JUMPDEST PUSH1 0x1 ADD PUSH2 0xFCB JUMP JUMPDEST POP POP POP POP POP POP POP JUMP JUMPDEST DUP1 PUSH0 PUSH2 0x1079 DUP3 PUSH2 0x991 JUMP JUMPDEST SWAP1 POP CALLER PUSH1 0x1 PUSH1 0x1 PUSH1 0xA0 SHL SUB DUP3 AND EQ DUP1 PUSH2 0x109B JUMPI POP PUSH0 SLOAD PUSH1 0x1 PUSH1 0x1 PUSH1 0xA0 SHL SUB AND CALLER EQ JUMPDEST PUSH2 0x10B7 JUMPI PUSH1 0x40 MLOAD PUSH3 0x461BCD PUSH1 0xE5 SHL DUP2 MSTORE PUSH1 0x4 ADD PUSH2 0x23E SWAP1 PUSH2 0x39D7 JUMP JUMPDEST PUSH0 DUP4 DUP2 MSTORE PUSH1 0x7 PUSH1 0x20 MSTORE PUSH1 0x40 DUP2 KECCAK256 SWAP1 JUMPDEST PUSH1 0x5 DUP3 ADD SLOAD DUP2 LT ISZERO PUSH2 0x11E9 JUMPI DUP6 DUP3 PUSH1 0x5 ADD DUP3 DUP2 SLOAD DUP2 LT PUSH2 0x10E8 JUMPI PUSH2 0x10E8 PUSH2 0x39C3 JUMP JUMPDEST SWAP1 PUSH0 MSTORE PUSH1 0x20 PUSH0 KECCAK256 SWAP1 PUSH1 0x3 MUL ADD PUSH0 ADD SLOAD SUB PUSH2 0x11E1 JUMPI PUSH1 0x5 DUP3 ADD SLOAD PUSH0 SWAP1 PUSH2 0x110F SWAP1 PUSH1 0x1 SWAP1 PUSH2 0x3BC2 JUMP JUMPDEST SWAP1 POP DUP1 DUP3 EQ PUSH2 0x1176 JUMPI DUP3 PUSH1 0x5 ADD DUP2 DUP2 SLOAD DUP2 LT PUSH2 0x112D JUMPI PUSH2 0x112D PUSH2 0x39C3 JUMP JUMPDEST SWAP1 PUSH0 MSTORE PUSH1 0x20 PUSH0 KECCAK256 SWAP1 PUSH1 0x3 MUL ADD DUP4 PUSH1 0x5 ADD DUP4 DUP2 SLOAD DUP2 LT PUSH2 0x114E JUMPI PUSH2 0x114E PUSH2 0x39C3 JUMP JUMPDEST PUSH0 SWAP2 DUP3 MSTORE PUSH1 0x20 SWAP1 SWAP2 KECCAK256 DUP3 SLOAD PUSH1 0x3 SWAP1 SWAP3 MUL ADD SWAP1 DUP2 SSTORE PUSH1 0x1 DUP1 DUP4 ADD SLOAD SWAP1 DUP3 ADD SSTORE PUSH1 0x2 SWAP2 DUP3 ADD SLOAD SWAP2 ADD SSTORE JUMPDEST DUP3 PUSH1 0x5 ADD DUP1 SLOAD DUP1 PUSH2 0x1189 JUMPI PUSH2 0x1189 PUSH2 0x3BD5 JUMP JUMPDEST PUSH0 DUP3 DUP2 MSTORE PUSH1 0x20 DUP2 KECCAK256 PUSH1 0x3 PUSH0 NOT SWAP1 SWAP4 ADD SWAP3 DUP4 MUL ADD DUP2 DUP2 SSTORE PUSH1 0x1 DUP2 ADD DUP3 SWAP1 SSTORE PUSH1 0x2 ADD DUP2 SWAP1 SSTORE SWAP2 SSTORE PUSH1 0x40 MLOAD DUP8 SWAP2 DUP10 SWAP2 PUSH32 0xF1387B2F8963CA7947C75FAA29A4C7DE0859D44C5F9A658761ACBDC5D539976B SWAP2 SWAP1 LOG3 POP POP POP PUSH2 0x1225 JUMP JUMPDEST PUSH1 0x1 ADD PUSH2 0x10C6 JUMP JUMPDEST POP PUSH1 0x40 MLOAD PUSH3 0x461BCD PUSH1 0xE5 SHL DUP2 MSTORE PUSH1 0x20 PUSH1 0x4 DUP3 ADD MSTORE PUSH1 0x10 PUSH1 0x24 DUP3 ADD MSTORE PUSH16 0x14DC1BDD5CD9481B9BDD08199BDD5B99 PUSH1 0x82 SHL PUSH1 0x44 DUP3 ADD MSTORE PUSH1 0x64 ADD PUSH2 0x23E JUMP JUMPDEST POP POP POP POP JUMP JUMPDEST PUSH2 0x1233 PUSH2 0x2294 JUMP JUMPDEST CALLVALUE ISZERO PUSH2 0x1252 JUMPI PUSH1 0x40 MLOAD PUSH4 0xF36BA737 PUSH1 0xE0 SHL DUP2 MSTORE PUSH1 0x4 ADD PUSH1 0x40 MLOAD DUP1 SWAP2 SUB SWAP1 REVERT JUMPDEST PUSH2 0x125C DUP3 DUP3 PUSH2 0x22ED JUMP JUMPDEST POP POP JUMP JUMPDEST DUP4 PUSH0 PUSH2 0x126B DUP3 PUSH2 0x991 JUMP JUMPDEST SWAP1 POP CALLER PUSH1 0x1 PUSH1 0x1 PUSH1 0xA0 SHL SUB DUP3 AND EQ DUP1 PUSH2 0x128D JUMPI POP PUSH0 SLOAD PUSH1 0x1 PUSH1 0x1 PUSH1 0xA0 SHL SUB AND CALLER EQ JUMPDEST PUSH2 0x12A9 JUMPI PUSH1 0x40 MLOAD PUSH3 0x461BCD PUSH1 0xE5 SHL DUP2 MSTORE PUSH1 0x4 ADD PUSH2 0x23E SWAP1 PUSH2 0x39D7 JUMP JUMPDEST PUSH0 PUSH1 0x7 PUSH0 DUP9 DUP2 MSTORE PUSH1 0x20 ADD SWAP1 DUP2 MSTORE PUSH1 0x20 ADD PUSH0 KECCAK256 SWAP1 POP PUSH0 PUSH2 0x1352 DUP16 DUP16 DUP1 DUP1 PUSH1 0x1F ADD PUSH1 0x20 DUP1 SWAP2 DIV MUL PUSH1 0x20 ADD PUSH1 0x40 MLOAD SWAP1 DUP2 ADD PUSH1 0x40 MSTORE DUP1 SWAP4 SWAP3 SWAP2 SWAP1 DUP2 DUP2 MSTORE PUSH1 0x20 ADD DUP4 DUP4 DUP1 DUP3 DUP5 CALLDATACOPY PUSH0 DUP2 DUP5 ADD MSTORE PUSH1 0x1F NOT PUSH1 0x1F DUP3 ADD AND SWAP1 POP DUP1 DUP4 ADD SWAP3 POP POP POP POP POP POP POP DUP15 DUP15 DUP1 DUP1 PUSH1 0x1F ADD PUSH1 0x20 DUP1 SWAP2 DIV MUL PUSH1 0x20 ADD PUSH1 0x40 MLOAD SWAP1 DUP2 ADD PUSH1 0x40 MSTORE DUP1 SWAP4 SWAP3 SWAP2 SWAP1 DUP2 DUP2 MSTORE PUSH1 0x20 ADD DUP4 DUP4 DUP1 DUP3 DUP5 CALLDATACOPY PUSH0 DUP2 DUP5 ADD MSTORE PUSH1 0x1F NOT PUSH1 0x1F DUP3 ADD AND SWAP1 POP DUP1 DUP4 ADD SWAP3 POP POP POP POP POP POP POP DUP9 DUP15 DUP15 DUP15 PUSH2 0x2337 JUMP JUMPDEST SWAP1 POP DUP2 PUSH1 0x4 ADD PUSH1 0x40 MLOAD DUP1 PUSH1 0x40 ADD PUSH1 0x40 MSTORE DUP1 DUP8 PUSH1 0x2 DUP2 GT ISZERO PUSH2 0x1375 JUMPI PUSH2 0x1375 PUSH2 0x328C JUMP JUMPDEST DUP2 MSTORE PUSH1 0x20 SWAP1 DUP2 ADD DUP5 SWAP1 MSTORE DUP3 SLOAD PUSH1 0x1 DUP2 DUP2 ADD DUP6 SSTORE PUSH0 SWAP5 DUP6 MSTORE SWAP2 SWAP1 SWAP4 KECCAK256 DUP3 MLOAD PUSH1 0x2 SWAP5 DUP6 MUL SWAP1 SWAP2 ADD DUP1 SLOAD SWAP4 SWAP5 SWAP1 SWAP4 SWAP2 SWAP3 DUP5 SWAP3 PUSH1 0xFF NOT AND SWAP2 DUP5 SWAP1 DUP2 GT ISZERO PUSH2 0x13BA JUMPI PUSH2 0x13BA PUSH2 0x328C JUMP JUMPDEST MUL OR SWAP1 SSTORE POP PUSH1 0x20 SWAP2 DUP3 ADD MLOAD PUSH1 0x1 SWAP1 SWAP2 ADD SSTORE PUSH0 DUP3 DUP2 MSTORE PUSH1 0x7 SWAP1 SWAP2 MSTORE PUSH1 0x40 SWAP1 DUP2 SWAP1 KECCAK256 PUSH1 0x2 DUP2 ADD DUP11 SWAP1 SSTORE PUSH1 0x3 ADD DUP9 SWAP1 SSTORE MLOAD DUP9 SWAP1 DUP3 SWAP1 PUSH32 0x7E3E632423F80DBC9E266B3A3E447A2CC8EA3F2C9E0A9A7595D73FA97311A377 SWAP1 PUSH2 0x1419 SWAP1 DUP10 SWAP1 PUSH2 0x3BE9 JUMP JUMPDEST PUSH1 0x40 MLOAD DUP1 SWAP2 SUB SWAP1 LOG3 POP POP POP POP POP POP POP POP POP POP POP POP POP POP POP JUMP JUMPDEST PUSH0 PUSH2 0x143C DUP4 PUSH2 0x991 JUMP JUMPDEST SWAP1 POP PUSH1 0x1 PUSH1 0x1 PUSH1 0xA0 SHL SUB DUP2 AND CALLER EQ PUSH2 0x147F JUMPI PUSH1 0x40 MLOAD PUSH4 0x2D938F51 PUSH1 0xE1 SHL DUP2 MSTORE PUSH1 0x1 PUSH1 0x1 PUSH1 0xA0 SHL SUB DUP3 AND PUSH1 0x4 DUP3 ADD MSTORE PUSH1 0x24 DUP2 ADD DUP5 SWAP1 MSTORE CALLER PUSH1 0x44 DUP3 ADD MSTORE PUSH1 0x64 ADD PUSH2 0x23E JUMP JUMPDEST PUSH1 0x1 PUSH1 0x1 PUSH1 0xA0 SHL SUB DUP5 AND PUSH2 0x14A6 JUMPI PUSH1 0x40 MLOAD PUSH4 0x9577B8B3 PUSH1 0xE0 SHL DUP2 MSTORE PUSH1 0x4 ADD PUSH1 0x40 MLOAD DUP1 SWAP2 SUB SWAP1 REVERT JUMPDEST DUP4 PUSH1 0x1 PUSH1 0x1 PUSH1 0xA0 SHL SUB AND DUP2 PUSH1 0x1 PUSH1 0x1 PUSH1 0xA0 SHL SUB AND SUB PUSH2 0x14D8 JUMPI PUSH1 0x40 MLOAD PUSH4 0x44FED6B1 PUSH1 0xE1 SHL DUP2 MSTORE PUSH1 0x4 ADD PUSH1 0x40 MLOAD DUP1 SWAP2 SUB SWAP1 REVERT JUMPDEST PUSH0 DUP4 DUP2 MSTORE PUSH1 0x5 PUSH1 0x20 MSTORE PUSH1 0x40 DUP2 KECCAK256 PUSH2 0x14EF SWAP1 DUP7 PUSH2 0x246E JUMP JUMPDEST SWAP1 POP DUP1 PUSH2 0x1521 JUMPI PUSH1 0x40 MLOAD PUSH4 0x14EC4D6D PUSH1 0xE3 SHL DUP2 MSTORE PUSH1 0x1 PUSH1 0x1 PUSH1 0xA0 SHL SUB DUP7 AND PUSH1 0x4 DUP3 ADD MSTORE PUSH1 0x24 DUP2 ADD DUP6 SWAP1 MSTORE PUSH1 0x44 ADD PUSH2 0x23E JUMP JUMPDEST DUP4 DUP3 PUSH1 0x1 PUSH1 0x1 PUSH1 0xA0 SHL SUB AND DUP7 PUSH1 0x1 PUSH1 0x1 PUSH1 0xA0 SHL SUB AND PUSH32 0x1B1B58AA2EC0CEC2228B2D37124556D41F5A1F7B12F089171F896CC236671215 DUP7 PUSH1 0x40 MLOAD PUSH2 0x1565 SWAP2 SWAP1 PUSH2 0x2EB0 JUMP JUMPDEST PUSH1 0x40 MLOAD DUP1 SWAP2 SUB SWAP1 LOG4 PUSH0 CALLER DUP6 PUSH1 0x1 DUP7 PUSH1 0x40 MLOAD PUSH1 0x20 ADD PUSH2 0x1586 SWAP5 SWAP4 SWAP3 SWAP2 SWAP1 PUSH2 0x3BFC JUMP JUMPDEST PUSH1 0x40 MLOAD PUSH1 0x20 DUP2 DUP4 SUB SUB DUP2 MSTORE SWAP1 PUSH1 0x40 MSTORE SWAP1 POP PUSH2 0x15A1 DUP7 DUP3 PUSH2 0x2482 JUMP JUMPDEST POP POP POP POP POP POP JUMP JUMPDEST DUP2 PUSH0 PUSH2 0x15B4 DUP3 PUSH2 0x991 JUMP JUMPDEST SWAP1 POP CALLER PUSH1 0x1 PUSH1 0x1 PUSH1 0xA0 SHL SUB DUP3 AND EQ DUP1 PUSH2 0x15D6 JUMPI POP PUSH0 SLOAD PUSH1 0x1 PUSH1 0x1 PUSH1 0xA0 SHL SUB AND CALLER EQ JUMPDEST PUSH2 0x15F2 JUMPI PUSH1 0x40 MLOAD PUSH3 0x461BCD PUSH1 0xE5 SHL DUP2 MSTORE PUSH1 0x4 ADD PUSH2 0x23E SWAP1 PUSH2 0x39D7 JUMP JUMPDEST PUSH0 DUP5 DUP2 MSTORE PUSH1 0x7 PUSH1 0x20 MSTORE PUSH1 0x40 DUP1 DUP3 KECCAK256 DUP6 DUP4 MSTORE SWAP2 KECCAK256 PUSH1 0x2 DUP2 ADD SLOAD DUP7 EQ PUSH2 0x1658 JUMPI PUSH1 0x40 MLOAD PUSH3 0x461BCD PUSH1 0xE5 SHL DUP2 MSTORE PUSH1 0x20 PUSH1 0x4 DUP3 ADD MSTORE PUSH1 0x18 PUSH1 0x24 DUP3 ADD MSTORE PUSH32 0x4E6F74206368696C64206F66207468697320706572736F6E0000000000000000 PUSH1 0x44 DUP3 ADD MSTORE PUSH1 0x64 ADD PUSH2 0x23E JUMP JUMPDEST PUSH0 JUMPDEST PUSH1 0x4 DUP4 ADD SLOAD DUP2 LT ISZERO PUSH2 0x17A4 JUMPI DUP6 DUP4 PUSH1 0x4 ADD DUP3 DUP2 SLOAD DUP2 LT PUSH2 0x167C JUMPI PUSH2 0x167C PUSH2 0x39C3 JUMP JUMPDEST SWAP1 PUSH0 MSTORE PUSH1 0x20 PUSH0 KECCAK256 SWAP1 PUSH1 0x2 MUL ADD PUSH1 0x1 ADD SLOAD SUB PUSH2 0x179C JUMPI PUSH1 0x4 DUP4 ADD SLOAD PUSH0 SWAP1 PUSH2 0x16A4 SWAP1 PUSH1 0x1 SWAP1 PUSH2 0x3BC2 JUMP JUMPDEST SWAP1 POP DUP1 DUP3 EQ PUSH2 0x172A JUMPI DUP4 PUSH1 0x4 ADD DUP2 DUP2 SLOAD DUP2 LT PUSH2 0x16C2 JUMPI PUSH2 0x16C2 PUSH2 0x39C3 JUMP JUMPDEST SWAP1 PUSH0 MSTORE PUSH1 0x20 PUSH0 KECCAK256 SWAP1 PUSH1 0x2 MUL ADD DUP5 PUSH1 0x4 ADD DUP4 DUP2 SLOAD DUP2 LT PUSH2 0x16E3 JUMPI PUSH2 0x16E3 PUSH2 0x39C3 JUMP JUMPDEST PUSH0 SWAP2 DUP3 MSTORE PUSH1 0x20 SWAP1 SWAP2 KECCAK256 DUP3 SLOAD PUSH1 0x2 SWAP3 DUP4 MUL SWAP1 SWAP2 ADD DUP1 SLOAD SWAP1 SWAP3 PUSH1 0xFF SWAP1 SWAP3 AND SWAP2 DUP4 SWAP2 PUSH1 0xFF NOT AND SWAP1 PUSH1 0x1 SWAP1 DUP5 SWAP1 DUP2 GT ISZERO PUSH2 0x171B JUMPI PUSH2 0x171B PUSH2 0x328C JUMP JUMPDEST MUL OR SWAP1 SSTORE POP PUSH1 0x1 SWAP2 DUP3 ADD SLOAD SWAP2 ADD SSTORE JUMPDEST DUP4 PUSH1 0x4 ADD DUP1 SLOAD DUP1 PUSH2 0x173D JUMPI PUSH2 0x173D PUSH2 0x3BD5 JUMP JUMPDEST PUSH0 DUP3 DUP2 MSTORE PUSH1 0x20 DUP2 KECCAK256 PUSH1 0x2 PUSH0 NOT SWAP1 SWAP4 ADD DUP4 DUP2 MUL SWAP1 SWAP2 ADD DUP1 SLOAD PUSH1 0xFF NOT AND DUP2 SSTORE PUSH1 0x1 ADD DUP3 SWAP1 SSTORE SWAP1 SWAP3 SSTORE DUP5 ADD DUP2 SWAP1 SSTORE PUSH1 0x40 MLOAD DUP10 SWAP2 DUP10 SWAP2 PUSH32 0xD22EF99C12AEAECAC27F6067207B23AC6A9AE5F21E97134B39E98320AA04FA5D SWAP2 SWAP1 LOG3 POP POP POP POP PUSH2 0x1225 JUMP JUMPDEST PUSH1 0x1 ADD PUSH2 0x165A JUMP JUMPDEST POP PUSH1 0x40 MLOAD PUSH3 0x461BCD PUSH1 0xE5 SHL DUP2 MSTORE PUSH1 0x20 PUSH1 0x4 DUP3 ADD MSTORE PUSH1 0xF PUSH1 0x24 DUP3 ADD MSTORE PUSH15 0x10DA1A5B19081B9BDD08199BDD5B99 PUSH1 0x8A SHL PUSH1 0x44 DUP3 ADD MSTORE PUSH1 0x64 ADD PUSH2 0x23E JUMP JUMPDEST PUSH2 0x17E7 PUSH2 0x2294 JUMP JUMPDEST CALLVALUE ISZERO PUSH2 0x1806 JUMPI PUSH1 0x40 MLOAD PUSH4 0xF36BA737 PUSH1 0xE0 SHL DUP2 MSTORE PUSH1 0x4 ADD PUSH1 0x40 MLOAD DUP1 SWAP2 SUB SWAP1 REVERT JUMPDEST PUSH2 0x125C DUP3 DUP3 PUSH2 0x24AD JUMP JUMPDEST PUSH1 0x1 PUSH1 0x1 PUSH1 0xA0 SHL SUB DUP2 AND PUSH0 SWAP1 DUP2 MSTORE PUSH1 0x4 PUSH1 0x20 MSTORE PUSH1 0x40 SWAP1 KECCAK256 PUSH1 0x60 SWAP1 PUSH2 0x80C SWAP1 PUSH2 0x21E0 JUMP JUMPDEST PUSH2 0x183B PUSH2 0x2294 JUMP JUMPDEST DUP2 MLOAD DUP4 MLOAD EQ ISZERO DUP1 PUSH2 0x184E JUMPI POP DUP1 MLOAD DUP3 MLOAD EQ ISZERO JUMPDEST ISZERO PUSH2 0x186C JUMPI PUSH1 0x40 MLOAD PUSH4 0x17D38EFF PUSH1 0xE1 SHL DUP2 MSTORE PUSH1 0x4 ADD PUSH1 0x40 MLOAD DUP1 SWAP2 SUB SWAP1 REVERT JUMPDEST DUP3 MLOAD PUSH0 SUB PUSH2 0x188D JUMPI PUSH1 0x40 MLOAD PUSH4 0x80C98305 PUSH1 0xE0 SHL DUP2 MSTORE PUSH1 0x4 ADD PUSH1 0x40 MLOAD DUP1 SWAP2 SUB SWAP1 REVERT JUMPDEST PUSH0 JUMPDEST DUP4 MLOAD DUP2 LT ISZERO PUSH2 0x1225 JUMPI PUSH2 0x18EE DUP5 DUP3 DUP2 MLOAD DUP2 LT PUSH2 0x18AD JUMPI PUSH2 0x18AD PUSH2 0x39C3 JUMP JUMPDEST PUSH1 0x20 MUL PUSH1 0x20 ADD ADD MLOAD DUP5 DUP4 DUP2 MLOAD DUP2 LT PUSH2 0x18C7 JUMPI PUSH2 0x18C7 PUSH2 0x39C3 JUMP JUMPDEST PUSH1 0x20 MUL PUSH1 0x20 ADD ADD MLOAD DUP5 DUP5 DUP2 MLOAD DUP2 LT PUSH2 0x18E1 JUMPI PUSH2 0x18E1 PUSH2 0x39C3 JUMP JUMPDEST PUSH1 0x20 MUL PUSH1 0x20 ADD ADD MLOAD PUSH2 0x2544 JUMP JUMPDEST PUSH1 0x1 ADD PUSH2 0x188F JUMP JUMPDEST DUP2 PUSH0 PUSH2 0x1901 DUP3 PUSH2 0x991 JUMP JUMPDEST SWAP1 POP CALLER PUSH1 0x1 PUSH1 0x1 PUSH1 0xA0 SHL SUB DUP3 AND EQ DUP1 PUSH2 0x1923 JUMPI POP PUSH0 SLOAD PUSH1 0x1 PUSH1 0x1 PUSH1 0xA0 SHL SUB AND CALLER EQ JUMPDEST PUSH2 0x193F JUMPI PUSH1 0x40 MLOAD PUSH3 0x461BCD PUSH1 0xE5 SHL DUP2 MSTORE PUSH1 0x4 ADD PUSH2 0x23E SWAP1 PUSH2 0x39D7 JUMP JUMPDEST PUSH0 DUP4 GT PUSH2 0x198E JUMPI PUSH1 0x40 MLOAD PUSH3 0x461BCD PUSH1 0xE5 SHL DUP2 MSTORE PUSH1 0x20 PUSH1 0x4 DUP3 ADD MSTORE PUSH1 0x17 PUSH1 0x24 DUP3 ADD MSTORE PUSH32 0x496E76616C69642062697274682074696D657374616D70000000000000000000 PUSH1 0x44 DUP3 ADD MSTORE PUSH1 0x64 ADD PUSH2 0x23E JUMP JUMPDEST PUSH0 DUP5 DUP2 MSTORE PUSH1 0x7 PUSH1 0x20 DUP2 DUP2 MSTORE PUSH1 0x40 SWAP3 DUP4 SWAP1 KECCAK256 SWAP2 DUP3 ADD DUP1 SLOAD SWAP1 DUP8 SWAP1 SSTORE DUP4 MLOAD DUP2 DUP2 MSTORE SWAP2 DUP3 ADD DUP8 SWAP1 MSTORE SWAP2 SWAP3 DUP8 SWAP2 PUSH32 0xB4F816D44398B4E75606DE9B4CBBEB9312706C946F6DCF9FE95FC6E86C0C9E07 SWAP2 ADD PUSH2 0xAF1 JUMP JUMPDEST DUP3 PUSH0 PUSH2 0x19EA DUP3 PUSH2 0x991 JUMP JUMPDEST SWAP1 POP CALLER PUSH1 0x1 PUSH1 0x1 PUSH1 0xA0 SHL SUB DUP3 AND EQ DUP1 PUSH2 0x1A0C JUMPI POP PUSH0 SLOAD PUSH1 0x1 PUSH1 0x1 PUSH1 0xA0 SHL SUB AND CALLER EQ JUMPDEST PUSH2 0x1A28 JUMPI PUSH1 0x40 MLOAD PUSH3 0x461BCD PUSH1 0xE5 SHL DUP2 MSTORE PUSH1 0x4 ADD PUSH2 0x23E SWAP1 PUSH2 0x39D7 JUMP JUMPDEST PUSH2 0xCA5 DUP6 DUP6 DUP6 PUSH2 0x2544 JUMP JUMPDEST PUSH0 PUSH2 0x1A3D DUP5 PUSH2 0x991 JUMP JUMPDEST SWAP1 POP CALLER PUSH1 0x1 PUSH1 0x1 PUSH1 0xA0 SHL SUB DUP3 AND EQ PUSH2 0x1A90 JUMPI PUSH1 0x1 PUSH1 0x1 PUSH1 0xA0 SHL SUB DUP6 AND CALLER EQ PUSH2 0x1A90 JUMPI PUSH1 0x40 MLOAD PUSH4 0x760B5ACD PUSH1 0xE0 SHL DUP2 MSTORE CALLER PUSH1 0x4 DUP3 ADD MSTORE PUSH1 0x1 PUSH1 0x1 PUSH1 0xA0 SHL SUB DUP3 AND PUSH1 0x24 DUP3 ADD MSTORE PUSH1 0x44 DUP2 ADD DUP6 SWAP1 MSTORE PUSH1 0x64 ADD PUSH2 0x23E JUMP JUMPDEST PUSH1 0x1 PUSH1 0x1 PUSH1 0xA0 SHL SUB DUP6 AND PUSH2 0x1AB7 JUMPI PUSH1 0x40 MLOAD PUSH4 0x9577B8B3 PUSH1 0xE0 SHL DUP2 MSTORE PUSH1 0x4 ADD PUSH1 0x40 MLOAD DUP1 SWAP2 SUB SWAP1 REVERT JUMPDEST DUP5 PUSH1 0x1 PUSH1 0x1 PUSH1 0xA0 SHL SUB AND DUP2 PUSH1 0x1 PUSH1 0x1 PUSH1 0xA0 SHL SUB AND SUB PUSH2 0x1AE9 JUMPI PUSH1 0x40 MLOAD PUSH4 0x44FED6B1 PUSH1 0xE1 SHL DUP2 MSTORE PUSH1 0x4 ADD PUSH1 0x40 MLOAD DUP1 SWAP2 SUB SWAP1 REVERT JUMPDEST PUSH2 0x1AF6 DUP6 DUP3 DUP7 DUP7 DUP7 PUSH2 0x25D2 JUMP JUMPDEST DUP3 ISZERO PUSH2 0xCA5 JUMPI PUSH0 DUP2 DUP6 PUSH0 DUP6 PUSH1 0x40 MLOAD PUSH1 0x20 ADD PUSH2 0x1586 SWAP5 SWAP4 SWAP3 SWAP2 SWAP1 PUSH2 0x3BFC JUMP JUMPDEST PUSH1 0x60 DUP2 MLOAD PUSH1 0x1 PUSH1 0x1 PUSH1 0x40 SHL SUB DUP2 GT ISZERO PUSH2 0x1B2F JUMPI PUSH2 0x1B2F PUSH2 0x2EC2 JUMP JUMPDEST PUSH1 0x40 MLOAD SWAP1 DUP1 DUP3 MSTORE DUP1 PUSH1 0x20 MUL PUSH1 0x20 ADD DUP3 ADD PUSH1 0x40 MSTORE DUP1 ISZERO PUSH2 0x1B62 JUMPI DUP2 PUSH1 0x20 ADD JUMPDEST PUSH1 0x60 DUP2 MSTORE PUSH1 0x20 ADD SWAP1 PUSH1 0x1 SWAP1 SUB SWAP1 DUP2 PUSH2 0x1B4D JUMPI SWAP1 POP JUMPDEST POP SWAP1 POP PUSH0 JUMPDEST DUP3 MLOAD DUP2 LT ISZERO PUSH2 0x1BB7 JUMPI PUSH2 0x1B92 DUP4 DUP3 DUP2 MLOAD DUP2 LT PUSH2 0x1B85 JUMPI PUSH2 0x1B85 PUSH2 0x39C3 JUMP JUMPDEST PUSH1 0x20 MUL PUSH1 0x20 ADD ADD MLOAD PUSH2 0x21EC JUMP JUMPDEST DUP3 DUP3 DUP2 MLOAD DUP2 LT PUSH2 0x1BA4 JUMPI PUSH2 0x1BA4 PUSH2 0x39C3 JUMP JUMPDEST PUSH1 0x20 SWAP1 DUP2 MUL SWAP2 SWAP1 SWAP2 ADD ADD MSTORE PUSH1 0x1 ADD PUSH2 0x1B67 JUMP JUMPDEST POP SWAP2 SWAP1 POP JUMP JUMPDEST DUP10 PUSH0 PUSH2 0x1BC8 DUP3 PUSH2 0x991 JUMP JUMPDEST SWAP1 POP CALLER PUSH1 0x1 PUSH1 0x1 PUSH1 0xA0 SHL SUB DUP3 AND EQ DUP1 PUSH2 0x1BEA JUMPI POP PUSH0 SLOAD PUSH1 0x1 PUSH1 0x1 PUSH1 0xA0 SHL SUB AND CALLER EQ JUMPDEST PUSH2 0x1C06 JUMPI PUSH1 0x40 MLOAD PUSH3 0x461BCD PUSH1 0xE5 SHL DUP2 MSTORE PUSH1 0x4 ADD PUSH2 0x23E SWAP1 PUSH2 0x39D7 JUMP JUMPDEST PUSH0 PUSH2 0x1C90 DUP13 DUP13 DUP1 DUP1 PUSH1 0x1F ADD PUSH1 0x20 DUP1 SWAP2 DIV MUL PUSH1 0x20 ADD PUSH1 0x40 MLOAD SWAP1 DUP2 ADD PUSH1 0x40 MSTORE DUP1 SWAP4 SWAP3 SWAP2 SWAP1 DUP2 DUP2 MSTORE PUSH1 0x20 ADD DUP4 DUP4 DUP1 DUP3 DUP5 CALLDATACOPY PUSH0 DUP2 DUP5 ADD MSTORE PUSH1 0x1F NOT PUSH1 0x1F DUP3 ADD AND SWAP1 POP DUP1 DUP4 ADD SWAP3 POP POP POP POP POP POP POP DUP12 DUP12 DUP1 DUP1 PUSH1 0x1F ADD PUSH1 0x20 DUP1 SWAP2 DIV MUL PUSH1 0x20 ADD PUSH1 0x40 MLOAD SWAP1 DUP2 ADD PUSH1 0x40 MSTORE DUP1 SWAP4 SWAP3 SWAP2 SWAP1 DUP2 DUP2 MSTORE PUSH1 0x20 ADD DUP4 DUP4 DUP1 DUP3 DUP5 CALLDATACOPY PUSH0 SWAP3 ADD SWAP2 SWAP1 SWAP2 MSTORE POP DUP10 SWAP3 POP PUSH1 0x1 SWAP2 POP DUP14 SWAP1 POP DUP13 PUSH2 0x2337 JUMP JUMPDEST PUSH0 DUP2 DUP2 MSTORE PUSH1 0x7 PUSH1 0x20 SWAP1 DUP2 MSTORE PUSH1 0x40 DUP1 DUP4 KECCAK256 DUP2 MLOAD PUSH1 0x60 DUP2 ADD DUP4 MSTORE DUP6 DUP2 MSTORE DUP1 DUP5 ADD DUP13 DUP2 MSTORE DUP2 DUP5 ADD DUP13 DUP2 MSTORE PUSH1 0x5 SWAP1 SWAP4 ADD DUP1 SLOAD PUSH1 0x1 DUP1 DUP3 ADD DUP4 SSTORE SWAP2 DUP9 MSTORE SWAP7 DUP7 SWAP1 KECCAK256 SWAP3 MLOAD PUSH1 0x3 SWAP1 SWAP8 MUL SWAP1 SWAP3 ADD SWAP6 DUP7 SSTORE MLOAD SWAP1 DUP6 ADD SSTORE MLOAD PUSH1 0x2 SWAP1 SWAP4 ADD SWAP3 SWAP1 SWAP3 SSTORE SWAP1 MLOAD DUP9 DUP2 MSTORE SWAP2 SWAP3 POP DUP3 SWAP2 DUP16 SWAP2 PUSH32 0xC05D3BC4EBBEAED54C8349610AFF68EBB4BDE707FF65746EA4D2A8C16C73DAF SWAP2 ADD PUSH1 0x40 MLOAD DUP1 SWAP2 SUB SWAP1 LOG3 POP POP POP POP POP POP POP POP POP POP POP POP POP JUMP JUMPDEST PUSH2 0x1D36 PUSH2 0x2294 JUMP JUMPDEST PUSH1 0x1 PUSH1 0x1 PUSH1 0xA0 SHL SUB DUP2 AND PUSH2 0x88C JUMPI PUSH1 0x40 MLOAD PUSH3 0x461BCD PUSH1 0xE5 SHL DUP2 MSTORE PUSH1 0x20 PUSH1 0x4 DUP3 ADD MSTORE PUSH1 0x26 PUSH1 0x24 DUP3 ADD MSTORE PUSH32 0x4F776E61626C653A206E6577206F776E657220697320746865207A65726F2061 PUSH1 0x44 DUP3 ADD MSTORE PUSH6 0x646472657373 PUSH1 0xD0 SHL PUSH1 0x64 DUP3 ADD MSTORE PUSH1 0x84 ADD PUSH2 0x23E JUMP JUMPDEST PUSH0 DUP1 DUP1 PUSH2 0x1DBF PUSH10 0x6773C5A04A6D4300884B PUSH1 0xB1 SHL PUSH1 0x1 PUSH1 0x1 PUSH1 0xE0 SHL SUB NOT DUP7 AND PUSH2 0x2671 JUMP JUMPDEST SWAP1 POP PUSH0 PUSH2 0x1DCB DUP3 PUSH2 0x21EC JUMP JUMPDEST SWAP1 POP DUP1 MLOAD PUSH1 0x14 EQ ISZERO DUP1 ISZERO PUSH2 0x1DDF JUMPI POP DUP1 MLOAD ISZERO ISZERO JUMPDEST ISZERO PUSH2 0x1DFF JUMPI DUP1 PUSH1 0x40 MLOAD PUSH4 0x42BFE79F PUSH1 0xE0 SHL DUP2 MSTORE PUSH1 0x4 ADD PUSH2 0x23E SWAP2 SWAP1 PUSH2 0x2EB0 JUMP JUMPDEST PUSH2 0x1E08 DUP2 PUSH2 0x3C2A JUMP JUMPDEST PUSH1 0x60 SHR SWAP6 PUSH1 0x1 SWAP6 POP SWAP4 POP POP POP POP JUMP JUMPDEST PUSH0 PUSH1 0x1 PUSH1 0x1 PUSH1 0xE0 SHL SUB NOT DUP3 AND PUSH4 0xA918FA6B PUSH1 0xE0 SHL EQ DUP1 PUSH2 0x80C JUMPI POP PUSH2 0x80C DUP3 PUSH2 0x26C4 JUMP JUMPDEST PUSH0 DUP1 PUSH2 0x1E4D PUSH4 0x1FFC9A7 PUSH1 0xE0 SHL PUSH2 0x1D9B JUMP JUMPDEST POP SWAP1 POP PUSH1 0x1 PUSH1 0x1 PUSH1 0xA0 SHL SUB DUP2 AND PUSH2 0x1E66 JUMPI POP PUSH0 SWAP3 SWAP2 POP POP JUMP JUMPDEST PUSH2 0x8A4 DUP2 DUP5 PUSH2 0x26F8 JUMP JUMPDEST PUSH0 DUP1 SLOAD PUSH1 0x1 PUSH1 0x1 PUSH1 0xA0 SHL SUB DUP4 DUP2 AND PUSH1 0x1 PUSH1 0x1 PUSH1 0xA0 SHL SUB NOT DUP4 AND DUP2 OR DUP5 SSTORE PUSH1 0x40 MLOAD SWAP2 SWAP1 SWAP3 AND SWAP3 DUP4 SWAP2 PUSH32 0x8BE0079C531659141344CD1FD0A4F28419497F9722A3DAAFE3B4186F6B6457E0 SWAP2 SWAP1 LOG3 POP POP JUMP JUMPDEST PUSH1 0x60 PUSH1 0x1 PUSH0 DUP5 DUP5 PUSH1 0x40 MLOAD PUSH1 0x20 ADD PUSH2 0x1EE0 SWAP3 SWAP2 SWAP1 SWAP2 DUP3 MSTORE PUSH1 0x20 DUP3 ADD MSTORE PUSH1 0x40 ADD SWAP1 JUMP JUMPDEST PUSH1 0x40 MLOAD PUSH1 0x20 DUP2 DUP4 SUB SUB DUP2 MSTORE SWAP1 PUSH1 0x40 MSTORE DUP1 MLOAD SWAP1 PUSH1 0x20 ADD KECCAK256 DUP2 MSTORE PUSH1 0x20 ADD SWAP1 DUP2 MSTORE PUSH1 0x20 ADD PUSH0 KECCAK256 DUP1 SLOAD PUSH2 0x1F0E SWAP1 PUSH2 0x39FF JUMP JUMPDEST DUP1 PUSH1 0x1F ADD PUSH1 0x20 DUP1 SWAP2 DIV MUL PUSH1 0x20 ADD PUSH1 0x40 MLOAD SWAP1 DUP2 ADD PUSH1 0x40 MSTORE DUP1 SWAP3 SWAP2 SWAP1 DUP2 DUP2 MSTORE PUSH1 0x20 ADD DUP3 DUP1 SLOAD PUSH2 0x1F3A SWAP1 PUSH2 0x39FF JUMP JUMPDEST DUP1 ISZERO PUSH2 0x1F85 JUMPI DUP1 PUSH1 0x1F LT PUSH2 0x1F5C JUMPI PUSH2 0x100 DUP1 DUP4 SLOAD DIV MUL DUP4 MSTORE SWAP2 PUSH1 0x20 ADD SWAP2 PUSH2 0x1F85 JUMP JUMPDEST DUP3 ADD SWAP2 SWAP1 PUSH0 MSTORE PUSH1 0x20 PUSH0 KECCAK256 SWAP1 JUMPDEST DUP2 SLOAD DUP2 MSTORE SWAP1 PUSH1 0x1 ADD SWAP1 PUSH1 0x20 ADD DUP1 DUP4 GT PUSH2 0x1F68 JUMPI DUP3 SWAP1 SUB PUSH1 0x1F AND DUP3 ADD SWAP2 JUMPDEST POP POP POP POP POP SWAP1 POP SWAP3 SWAP2 POP POP JUMP JUMPDEST PUSH0 PUSH2 0x1F9C DUP5 PUSH2 0x991 JUMP JUMPDEST SWAP1 POP DUP6 PUSH1 0x1 PUSH1 0x1 PUSH1 0xA0 SHL SUB AND DUP2 PUSH1 0x1 PUSH1 0x1 PUSH1 0xA0 SHL SUB AND EQ PUSH2 0x1FEA JUMPI PUSH1 0x40 MLOAD PUSH4 0x2D938F51 PUSH1 0xE1 SHL DUP2 MSTORE PUSH1 0x1 PUSH1 0x1 PUSH1 0xA0 SHL SUB DUP1 DUP4 AND PUSH1 0x4 DUP4 ADD MSTORE PUSH1 0x24 DUP3 ADD DUP7 SWAP1 MSTORE DUP8 AND PUSH1 0x44 DUP3 ADD MSTORE PUSH1 0x64 ADD PUSH2 0x23E JUMP JUMPDEST PUSH1 0x1 PUSH1 0x1 PUSH1 0xA0 SHL SUB DUP6 AND PUSH2 0x2011 JUMPI PUSH1 0x40 MLOAD PUSH4 0x24ECEF4D PUSH1 0xE0 SHL DUP2 MSTORE PUSH1 0x4 ADD PUSH1 0x40 MLOAD DUP1 SWAP2 SUB SWAP1 REVERT JUMPDEST PUSH0 PUSH2 0x201B DUP6 PUSH2 0x991 JUMP JUMPDEST SWAP1 POP DUP1 PUSH1 0x1 PUSH1 0x1 PUSH1 0xA0 SHL SUB AND DUP3 PUSH1 0x1 PUSH1 0x1 PUSH1 0xA0 SHL SUB AND EQ PUSH2 0x2069 JUMPI PUSH1 0x40 MLOAD PUSH4 0x5A9C31D3 PUSH1 0xE0 SHL DUP2 MSTORE PUSH1 0x4 DUP2 ADD DUP7 SWAP1 MSTORE PUSH1 0x1 PUSH1 0x1 PUSH1 0xA0 SHL SUB DUP1 DUP5 AND PUSH1 0x24 DUP4 ADD MSTORE DUP3 AND PUSH1 0x44 DUP3 ADD MSTORE PUSH1 0x64 ADD PUSH2 0x23E JUMP JUMPDEST PUSH2 0x2073 DUP8 DUP7 PUSH2 0x277E JUMP JUMPDEST PUSH1 0x1 PUSH1 0x1 PUSH1 0xA0 SHL SUB DUP8 AND PUSH0 SWAP1 DUP2 MSTORE PUSH1 0x4 PUSH1 0x20 MSTORE PUSH1 0x40 SWAP1 KECCAK256 PUSH2 0x2094 SWAP1 DUP7 PUSH2 0x27D1 JUMP JUMPDEST POP PUSH1 0x1 PUSH1 0x1 PUSH1 0xA0 SHL SUB DUP7 AND PUSH0 SWAP1 DUP2 MSTORE PUSH1 0x4 PUSH1 0x20 MSTORE PUSH1 0x40 SWAP1 KECCAK256 PUSH2 0x20B6 SWAP1 DUP7 PUSH2 0x27DC JUMP JUMPDEST POP PUSH0 DUP6 DUP2 MSTORE PUSH1 0x3 PUSH1 0x20 MSTORE PUSH1 0x40 SWAP1 DUP2 SWAP1 KECCAK256 DUP1 SLOAD PUSH1 0x1 PUSH1 0x1 PUSH1 0xA0 SHL SUB NOT AND PUSH1 0x1 PUSH1 0x1 PUSH1 0xA0 SHL SUB DUP10 DUP2 AND SWAP2 DUP3 OR SWAP1 SWAP3 SSTORE SWAP2 MLOAD DUP8 SWAP3 SWAP2 DUP11 AND SWAP1 PUSH32 0xB333C813A7426A7A11E2B190CAD52C44119421594B47F6F32ACE6D8C7207B2BF SWAP1 PUSH2 0x211C SWAP1 CALLER SWAP1 DUP11 SWAP1 DUP11 SWAP1 PUSH2 0x3C78 JUMP JUMPDEST PUSH1 0x40 MLOAD DUP1 SWAP2 SUB SWAP1 LOG4 PUSH0 CALLER DUP9 DUP9 DUP9 DUP8 PUSH1 0x40 MLOAD PUSH1 0x20 ADD PUSH2 0x213E SWAP6 SWAP5 SWAP4 SWAP3 SWAP2 SWAP1 PUSH2 0x3CAC JUMP JUMPDEST PUSH1 0x40 MLOAD PUSH1 0x20 DUP2 DUP4 SUB SUB DUP2 MSTORE SWAP1 PUSH1 0x40 MSTORE SWAP1 POP PUSH2 0x2159 DUP9 DUP3 PUSH2 0x27E7 JUMP JUMPDEST PUSH2 0x2164 DUP8 DUP7 DUP4 PUSH2 0x2812 JUMP JUMPDEST POP POP POP POP POP POP POP POP JUMP JUMPDEST PUSH0 PUSH2 0x2178 DUP3 PUSH2 0x991 JUMP JUMPDEST PUSH1 0x1 PUSH1 0x1 PUSH1 0xA0 SHL SUB AND DUP4 PUSH1 0x1 PUSH1 0x1 PUSH1 0xA0 SHL SUB AND EQ DUP1 PUSH2 0x8A4 JUMPI POP PUSH0 DUP3 DUP2 MSTORE PUSH1 0x5 PUSH1 0x20 MSTORE PUSH1 0x40 SWAP1 KECCAK256 PUSH2 0x8A4 SWAP1 DUP5 PUSH2 0x2915 JUMP JUMPDEST PUSH0 DUP2 DUP2 MSTORE PUSH1 0x3 PUSH1 0x20 MSTORE PUSH1 0x40 SWAP1 KECCAK256 SLOAD PUSH1 0x1 PUSH1 0x1 PUSH1 0xA0 SHL SUB AND PUSH2 0x895 JUMPI PUSH1 0x40 MLOAD PUSH4 0x5747CD1B PUSH1 0xE1 SHL DUP2 MSTORE PUSH1 0x4 DUP2 ADD DUP3 SWAP1 MSTORE PUSH1 0x24 ADD PUSH2 0x23E JUMP JUMPDEST PUSH1 0x60 PUSH0 PUSH2 0x8A4 DUP4 PUSH2 0x2936 JUMP JUMPDEST PUSH0 DUP2 DUP2 MSTORE PUSH1 0x1 PUSH1 0x20 MSTORE PUSH1 0x40 SWAP1 KECCAK256 DUP1 SLOAD PUSH1 0x60 SWAP2 SWAP1 PUSH2 0x2208 SWAP1 PUSH2 0x39FF JUMP JUMPDEST DUP1 PUSH1 0x1F ADD PUSH1 0x20 DUP1 SWAP2 DIV MUL PUSH1 0x20 ADD PUSH1 0x40 MLOAD SWAP1 DUP2 ADD PUSH1 0x40 MSTORE DUP1 SWAP3 SWAP2 SWAP1 DUP2 DUP2 MSTORE PUSH1 0x20 ADD DUP3 DUP1 SLOAD PUSH2 0x2234 SWAP1 PUSH2 0x39FF JUMP JUMPDEST DUP1 ISZERO PUSH2 0x227F JUMPI DUP1 PUSH1 0x1F LT PUSH2 0x2256 JUMPI PUSH2 0x100 DUP1 DUP4 SLOAD DIV MUL DUP4 MSTORE SWAP2 PUSH1 0x20 ADD SWAP2 PUSH2 0x227F JUMP JUMPDEST DUP3 ADD SWAP2 SWAP1 PUSH0 MSTORE PUSH1 0x20 PUSH0 KECCAK256 SWAP1 JUMPDEST DUP2 SLOAD DUP2 MSTORE SWAP1 PUSH1 0x1 ADD SWAP1 PUSH1 0x20 ADD DUP1 DUP4 GT PUSH2 0x2262 JUMPI DUP3 SWAP1 SUB PUSH1 0x1F AND DUP3 ADD SWAP2 JUMPDEST POP POP POP POP POP SWAP1 POP SWAP2 SWAP1 POP JUMP JUMPDEST PUSH0 PUSH2 0x80C DUP3 SLOAD SWAP1 JUMP JUMPDEST PUSH0 SLOAD PUSH1 0x1 PUSH1 0x1 PUSH1 0xA0 SHL SUB AND CALLER EQ PUSH2 0xF7E JUMPI PUSH1 0x40 MLOAD PUSH3 0x461BCD PUSH1 0xE5 SHL DUP2 MSTORE PUSH1 0x20 PUSH1 0x4 DUP3 ADD DUP2 SWAP1 MSTORE PUSH1 0x24 DUP3 ADD MSTORE PUSH32 0x4F776E61626C653A2063616C6C6572206973206E6F7420746865206F776E6572 PUSH1 0x44 DUP3 ADD MSTORE PUSH1 0x64 ADD PUSH2 0x23E JUMP JUMPDEST PUSH32 0x98A16C9E50E3E99B3E797305C146898D294E5AEC55A47E213CB3611CCF17E73 DUP3 ADD PUSH2 0x232D JUMPI PUSH1 0x40 MLOAD PUSH4 0x1B324005 PUSH1 0xE1 SHL DUP2 MSTORE PUSH1 0x4 ADD PUSH1 0x40 MLOAD DUP1 SWAP2 SUB SWAP1 REVERT JUMPDEST PUSH2 0x125C DUP3 DUP3 PUSH2 0x298E JUMP JUMPDEST PUSH0 PUSH2 0x2346 PUSH1 0x6 DUP1 SLOAD PUSH1 0x1 ADD SWAP1 SSTORE JUMP JUMPDEST PUSH1 0x6 SLOAD PUSH0 SHL SWAP1 POP PUSH2 0x2368 DUP6 DUP3 PUSH1 0x1 PUSH1 0x40 MLOAD DUP1 PUSH1 0x20 ADD PUSH1 0x40 MSTORE DUP1 PUSH0 DUP2 MSTORE POP PUSH2 0x2AA2 JUMP JUMPDEST PUSH0 DUP2 DUP2 MSTORE PUSH1 0x7 PUSH1 0x20 MSTORE PUSH1 0x40 SWAP1 KECCAK256 DUP1 PUSH2 0x2380 DUP10 DUP3 PUSH2 0x3CE6 JUMP JUMPDEST POP PUSH1 0x1 DUP2 DUP2 ADD DUP1 SLOAD PUSH1 0x1 PUSH1 0x1 PUSH1 0xA0 SHL SUB NOT AND PUSH1 0x1 PUSH1 0x1 PUSH1 0xA0 SHL SUB DUP10 AND OR SWAP1 SSTORE PUSH1 0x6 DUP3 ADD DUP1 SLOAD DUP8 SWAP3 PUSH1 0xFF NOT SWAP1 SWAP2 AND SWAP1 DUP4 PUSH1 0x2 DUP2 GT ISZERO PUSH2 0x23C0 JUMPI PUSH2 0x23C0 PUSH2 0x328C JUMP JUMPDEST MUL OR SWAP1 SSTORE POP PUSH1 0x7 DUP2 ADD DUP5 SWAP1 SSTORE PUSH1 0x8 DUP2 ADD DUP4 SWAP1 SSTORE PUSH2 0x23FE DUP3 PUSH32 0xC3366955CDC4E5E179365DB885CFD44C7A3C473BFF1E9FE298C44868EE5C5F0A DUP11 PUSH2 0x2544 JUMP JUMPDEST PUSH2 0x2429 DUP3 PUSH32 0xB0E4DA1959E3B7CA06CBEC424E21D53F4F792A982F8136456161E3D4F39C9F4B DUP10 PUSH2 0x2544 JUMP JUMPDEST DUP2 PUSH32 0xEAC520CDBD769F46FDDA2CE013B4F3FA04074E7813AFA644FAAE946556A45FF8 DUP10 DUP9 PUSH1 0x40 MLOAD PUSH2 0x245B SWAP3 SWAP2 SWAP1 PUSH2 0x3DA0 JUMP JUMPDEST PUSH1 0x40 MLOAD DUP1 SWAP2 SUB SWAP1 LOG2 POP SWAP7 SWAP6 POP POP POP POP POP POP JUMP JUMPDEST PUSH0 PUSH2 0x8A4 DUP4 PUSH1 0x1 PUSH1 0x1 PUSH1 0xA0 SHL SUB DUP5 AND PUSH2 0x2C0B JUMP JUMPDEST PUSH2 0x125C DUP3 PUSH32 0x8A1C15A8799F71B547E08E2BCB2E85257E81B0A07EEE2CE6712549EEF1F00970 DUP4 PUSH2 0x2C57 JUMP JUMPDEST DUP1 MLOAD DUP3 MLOAD EQ PUSH2 0x24CF JUMPI PUSH1 0x40 MLOAD PUSH4 0x3BCC8979 PUSH1 0xE0 SHL DUP2 MSTORE PUSH1 0x4 ADD PUSH1 0x40 MLOAD DUP1 SWAP2 SUB SWAP1 REVERT JUMPDEST DUP2 MLOAD PUSH0 SUB PUSH2 0x24F0 JUMPI PUSH1 0x40 MLOAD PUSH4 0x97DA5F95 PUSH1 0xE0 SHL DUP2 MSTORE PUSH1 0x4 ADD PUSH1 0x40 MLOAD DUP1 SWAP2 SUB SWAP1 REVERT JUMPDEST PUSH0 JUMPDEST DUP3 MLOAD DUP2 LT ISZERO PUSH2 0x253F JUMPI PUSH2 0x2537 DUP4 DUP3 DUP2 MLOAD DUP2 LT PUSH2 0x2510 JUMPI PUSH2 0x2510 PUSH2 0x39C3 JUMP JUMPDEST PUSH1 0x20 MUL PUSH1 0x20 ADD ADD MLOAD DUP4 DUP4 DUP2 MLOAD DUP2 LT PUSH2 0x252A JUMPI PUSH2 0x252A PUSH2 0x39C3 JUMP JUMPDEST PUSH1 0x20 MUL PUSH1 0x20 ADD ADD MLOAD PUSH2 0x22ED JUMP JUMPDEST PUSH1 0x1 ADD PUSH2 0x24F2 JUMP JUMPDEST POP POP POP JUMP JUMPDEST DUP1 PUSH1 0x1 PUSH0 DUP6 DUP6 PUSH1 0x40 MLOAD PUSH1 0x20 ADD PUSH2 0x2564 SWAP3 SWAP2 SWAP1 SWAP2 DUP3 MSTORE PUSH1 0x20 DUP3 ADD MSTORE PUSH1 0x40 ADD SWAP1 JUMP JUMPDEST PUSH1 0x40 MLOAD PUSH1 0x20 DUP2 DUP4 SUB SUB DUP2 MSTORE SWAP1 PUSH1 0x40 MSTORE DUP1 MLOAD SWAP1 PUSH1 0x20 ADD KECCAK256 DUP2 MSTORE PUSH1 0x20 ADD SWAP1 DUP2 MSTORE PUSH1 0x20 ADD PUSH0 KECCAK256 SWAP1 DUP2 PUSH2 0x2593 SWAP2 SWAP1 PUSH2 0x3CE6 JUMP JUMPDEST POP DUP2 DUP4 PUSH32 0xA6E4251F855F750545FE414F120DB91C76B88DEF14D120969E5BB2D3F05DEBBB DUP4 PUSH1 0x40 MLOAD PUSH2 0x25C5 SWAP2 SWAP1 PUSH2 0x2EB0 JUMP JUMPDEST PUSH1 0x40 MLOAD DUP1 SWAP2 SUB SWAP1 LOG3 POP POP POP JUMP JUMPDEST PUSH0 DUP4 DUP2 MSTORE PUSH1 0x5 PUSH1 0x20 MSTORE PUSH1 0x40 DUP2 KECCAK256 PUSH2 0x25E9 SWAP1 DUP8 PUSH2 0x2CA4 JUMP JUMPDEST SWAP1 POP DUP1 PUSH2 0x261B JUMPI PUSH1 0x40 MLOAD PUSH4 0x12A8C6A3 PUSH1 0xE2 SHL DUP2 MSTORE PUSH1 0x1 PUSH1 0x1 PUSH1 0xA0 SHL SUB DUP8 AND PUSH1 0x4 DUP3 ADD MSTORE PUSH1 0x24 DUP2 ADD DUP6 SWAP1 MSTORE PUSH1 0x44 ADD PUSH2 0x23E JUMP JUMPDEST DUP4 DUP6 PUSH1 0x1 PUSH1 0x1 PUSH1 0xA0 SHL SUB AND DUP8 PUSH1 0x1 PUSH1 0x1 PUSH1 0xA0 SHL SUB AND PUSH32 0xC78CD419D6136F9F1C1C6AEC1D3FAE098CFFAF8BC86314A8F2685E32FE574E3C DUP7 DUP7 PUSH1 0x40 MLOAD PUSH2 0x2661 SWAP3 SWAP2 SWAP1 PUSH2 0x3DC9 JUMP JUMPDEST PUSH1 0x40 MLOAD DUP1 SWAP2 SUB SWAP1 LOG4 POP POP POP POP POP POP JUMP JUMPDEST PUSH1 0x40 DUP1 MLOAD PUSH1 0x1 PUSH1 0x1 PUSH1 0xB0 SHL SUB NOT DUP5 AND PUSH1 0x20 DUP3 ADD MSTORE PUSH0 PUSH1 0x2A DUP3 ADD DUP2 SWAP1 MSTORE PUSH1 0x1 PUSH1 0x1 PUSH1 0x60 SHL SUB NOT DUP5 AND PUSH1 0x2C DUP4 ADD MSTORE SWAP2 DUP3 SWAP2 ADD PUSH1 0x40 MLOAD PUSH1 0x20 DUP2 DUP4 SUB SUB DUP2 MSTORE SWAP1 PUSH1 0x40 MSTORE SWAP1 POP DUP1 PUSH2 0x26BC SWAP1 PUSH2 0x3DE3 JUMP JUMPDEST SWAP5 SWAP4 POP POP POP POP JUMP JUMPDEST PUSH0 PUSH1 0x1 PUSH1 0x1 PUSH1 0xE0 SHL SUB NOT DUP3 AND PUSH4 0x18A6A9A5 PUSH1 0xE2 SHL EQ DUP1 PUSH2 0x80C JUMPI POP PUSH4 0x1FFC9A7 PUSH1 0xE0 SHL PUSH1 0x1 PUSH1 0x1 PUSH1 0xE0 SHL SUB NOT DUP4 AND EQ PUSH2 0x80C JUMP JUMPDEST PUSH1 0x40 DUP1 MLOAD PUSH1 0x1 PUSH1 0x1 PUSH1 0xE0 SHL SUB NOT DUP4 AND PUSH1 0x24 DUP1 DUP4 ADD SWAP2 SWAP1 SWAP2 MSTORE DUP3 MLOAD DUP1 DUP4 SUB SWAP1 SWAP2 ADD DUP2 MSTORE PUSH1 0x44 SWAP1 SWAP2 ADD SWAP1 SWAP2 MSTORE PUSH1 0x20 DUP1 DUP3 ADD DUP1 MLOAD PUSH1 0x1 PUSH1 0x1 PUSH1 0xE0 SHL SUB AND PUSH4 0x1FFC9A7 PUSH1 0xE0 SHL OR DUP2 MSTORE DUP3 MLOAD PUSH0 SWAP4 SWAP3 DUP5 SWAP3 DUP4 SWAP3 DUP4 SWAP3 SWAP2 DUP4 SWAP2 SWAP1 DUP11 PUSH2 0x7530 STATICCALL SWAP3 POP RETURNDATASIZE SWAP2 POP PUSH0 MLOAD SWAP1 POP DUP3 DUP1 ISZERO PUSH2 0x2768 JUMPI POP PUSH1 0x20 DUP3 LT ISZERO JUMPDEST DUP1 ISZERO PUSH2 0x2773 JUMPI POP PUSH0 DUP2 GT JUMPDEST SWAP8 SWAP7 POP POP POP POP POP POP POP JUMP JUMPDEST PUSH0 DUP2 DUP2 MSTORE PUSH1 0x5 PUSH1 0x20 MSTORE PUSH1 0x40 DUP2 KECCAK256 SWAP1 PUSH2 0x2795 DUP3 PUSH2 0x228B JUMP JUMPDEST SWAP1 POP PUSH0 PUSH0 JUMPDEST DUP3 DUP2 LT ISZERO PUSH2 0x15A1 JUMPI PUSH2 0x27AC DUP5 PUSH0 PUSH2 0x2CB8 JUMP JUMPDEST SWAP2 POP PUSH2 0x27C9 DUP3 DUP8 DUP8 PUSH0 PUSH1 0x40 MLOAD DUP1 PUSH1 0x20 ADD PUSH1 0x40 MSTORE DUP1 PUSH0 DUP2 MSTORE POP PUSH2 0x25D2 JUMP JUMPDEST PUSH1 0x1 ADD PUSH2 0x279A JUMP JUMPDEST PUSH0 PUSH2 0x8A4 DUP4 DUP4 PUSH2 0x2CC3 JUMP JUMPDEST PUSH0 PUSH2 0x8A4 DUP4 DUP4 PUSH2 0x2C0B JUMP JUMPDEST PUSH2 0x125C DUP3 PUSH32 0xB23EAE7E6D1564B295B4C3E3BE402D9A2F0776C57BDF365903496F6FA481AB00 DUP4 PUSH2 0x2C57 JUMP JUMPDEST PUSH2 0x2823 DUP4 PUSH4 0x1AED5A85 PUSH1 0xE2 SHL PUSH2 0x26F8 JUMP JUMPDEST ISZERO PUSH2 0x28B8 JUMPI PUSH1 0x40 MLOAD PUSH4 0x1AED5A85 PUSH1 0xE2 SHL DUP2 MSTORE PUSH1 0x1 PUSH1 0x1 PUSH1 0xA0 SHL SUB DUP5 AND SWAP1 PUSH4 0x6BB56A14 SWAP1 PUSH2 0x2876 SWAP1 PUSH32 0xB084A55EBF70FD3C06FD755269DAC2212C4D3F0F4D09079780BFA50C1B2984D SWAP1 DUP6 SWAP1 PUSH1 0x4 ADD PUSH2 0x3E06 JUMP JUMPDEST PUSH0 PUSH1 0x40 MLOAD DUP1 DUP4 SUB DUP2 PUSH0 DUP8 GAS CALL ISZERO DUP1 ISZERO PUSH2 0x2891 JUMPI RETURNDATASIZE PUSH0 PUSH0 RETURNDATACOPY RETURNDATASIZE PUSH0 REVERT JUMPDEST POP POP POP POP PUSH1 0x40 MLOAD RETURNDATASIZE PUSH0 DUP3 RETURNDATACOPY PUSH1 0x1F RETURNDATASIZE SWAP1 DUP2 ADD PUSH1 0x1F NOT AND DUP3 ADD PUSH1 0x40 MSTORE PUSH2 0x1225 SWAP2 SWAP1 DUP2 ADD SWAP1 PUSH2 0x3E1E JUMP JUMPDEST DUP2 PUSH2 0x253F JUMPI PUSH1 0x1 PUSH1 0x1 PUSH1 0xA0 SHL SUB DUP4 AND EXTCODESIZE ISZERO PUSH2 0x28F1 JUMPI PUSH1 0x40 MLOAD PUSH4 0x4349776D PUSH1 0xE0 SHL DUP2 MSTORE PUSH1 0x1 PUSH1 0x1 PUSH1 0xA0 SHL SUB DUP5 AND PUSH1 0x4 DUP3 ADD MSTORE PUSH1 0x24 ADD PUSH2 0x23E JUMP JUMPDEST PUSH1 0x40 MLOAD PUSH4 0x3173137 PUSH1 0xE0 SHL DUP2 MSTORE PUSH1 0x1 PUSH1 0x1 PUSH1 0xA0 SHL SUB DUP5 AND PUSH1 0x4 DUP3 ADD MSTORE PUSH1 0x24 ADD PUSH2 0x23E JUMP JUMPDEST PUSH1 0x1 PUSH1 0x1 PUSH1 0xA0 SHL SUB DUP2 AND PUSH0 SWAP1 DUP2 MSTORE PUSH1 0x1 DUP4 ADD PUSH1 0x20 MSTORE PUSH1 0x40 DUP2 KECCAK256 SLOAD ISZERO ISZERO PUSH2 0x8A4 JUMP JUMPDEST PUSH1 0x60 DUP2 PUSH0 ADD DUP1 SLOAD DUP1 PUSH1 0x20 MUL PUSH1 0x20 ADD PUSH1 0x40 MLOAD SWAP1 DUP2 ADD PUSH1 0x40 MSTORE DUP1 SWAP3 SWAP2 SWAP1 DUP2 DUP2 MSTORE PUSH1 0x20 ADD DUP3 DUP1 SLOAD DUP1 ISZERO PUSH2 0x227F JUMPI PUSH1 0x20 MUL DUP3 ADD SWAP2 SWAP1 PUSH0 MSTORE PUSH1 0x20 PUSH0 KECCAK256 SWAP1 JUMPDEST DUP2 SLOAD DUP2 MSTORE PUSH1 0x20 ADD SWAP1 PUSH1 0x1 ADD SWAP1 DUP1 DUP4 GT PUSH2 0x296F JUMPI POP POP POP POP POP SWAP1 POP SWAP2 SWAP1 POP JUMP JUMPDEST PUSH32 0x2145E1D6D074577DC71EF54C3807742B41B053A9352AE6B491331509ACB9750F DUP3 ADD PUSH2 0x29CE JUMPI PUSH1 0x40 MLOAD PUSH4 0x85C169BD PUSH1 0xE0 SHL DUP2 MSTORE PUSH1 0x4 ADD PUSH1 0x40 MLOAD DUP1 SWAP2 SUB SWAP1 REVERT JUMPDEST PUSH32 0xD0F59754F88971FE6BC5A6618CC9D5F1E859C58D16B22D1C7B2D3E2B246CD8AA DUP3 ADD PUSH2 0x2A0E JUMPI PUSH1 0x40 MLOAD PUSH4 0xECEAB67 PUSH1 0xE3 SHL DUP2 MSTORE PUSH1 0x4 ADD PUSH1 0x40 MLOAD DUP1 SWAP2 SUB SWAP1 REVERT JUMPDEST PUSH32 0x1FD9E056A24D14C4ABC642FCC325992A946906D0DBC57DD70278AAF12842024D DUP3 ADD PUSH2 0x2A4E JUMPI PUSH1 0x40 MLOAD PUSH4 0x4EF6D7FB PUSH1 0xE0 SHL DUP2 MSTORE PUSH1 0x4 ADD PUSH1 0x40 MLOAD DUP1 SWAP2 SUB SWAP1 REVERT JUMPDEST PUSH0 DUP3 DUP2 MSTORE PUSH1 0x1 PUSH1 0x20 MSTORE PUSH1 0x40 SWAP1 KECCAK256 PUSH2 0x2A65 DUP3 DUP3 PUSH2 0x3CE6 JUMP JUMPDEST POP DUP2 PUSH32 0xECE574603820D07BC9B91F2A932BAADF4628AABCB8AFBA49776529C14A6104B2 DUP3 PUSH1 0x40 MLOAD PUSH2 0x2A96 SWAP2 SWAP1 PUSH2 0x2EB0 JUMP JUMPDEST PUSH1 0x40 MLOAD DUP1 SWAP2 SUB SWAP1 LOG2 POP POP JUMP JUMPDEST PUSH1 0x1 PUSH1 0x1 PUSH1 0xA0 SHL SUB DUP5 AND PUSH2 0x2AC9 JUMPI PUSH1 0x40 MLOAD PUSH4 0x24ECEF4D PUSH1 0xE0 SHL DUP2 MSTORE PUSH1 0x4 ADD PUSH1 0x40 MLOAD DUP1 SWAP2 SUB SWAP1 REVERT JUMPDEST PUSH0 DUP4 DUP2 MSTORE PUSH1 0x3 PUSH1 0x20 MSTORE PUSH1 0x40 SWAP1 KECCAK256 SLOAD PUSH1 0x1 PUSH1 0x1 PUSH1 0xA0 SHL SUB AND ISZERO PUSH2 0x2B01 JUMPI PUSH1 0x40 MLOAD PUSH4 0x34C7B511 PUSH1 0xE0 SHL DUP2 MSTORE PUSH1 0x4 DUP2 ADD DUP5 SWAP1 MSTORE PUSH1 0x24 ADD PUSH2 0x23E JUMP JUMPDEST PUSH0 DUP4 DUP2 MSTORE PUSH1 0x3 PUSH1 0x20 MSTORE PUSH1 0x40 SWAP1 KECCAK256 SLOAD PUSH1 0x1 PUSH1 0x1 PUSH1 0xA0 SHL SUB AND ISZERO PUSH2 0x2B39 JUMPI PUSH1 0x40 MLOAD PUSH4 0x34C7B511 PUSH1 0xE0 SHL DUP2 MSTORE PUSH1 0x4 DUP2 ADD DUP5 SWAP1 MSTORE PUSH1 0x24 ADD PUSH2 0x23E JUMP JUMPDEST PUSH1 0x2 PUSH0 DUP2 SLOAD PUSH2 0x2B47 SWAP1 PUSH2 0x3E92 JUMP JUMPDEST SWAP1 SWAP2 SSTORE POP PUSH1 0x1 PUSH1 0x1 PUSH1 0xA0 SHL SUB DUP5 AND PUSH0 SWAP1 DUP2 MSTORE PUSH1 0x4 PUSH1 0x20 MSTORE PUSH1 0x40 SWAP1 KECCAK256 PUSH2 0x2B6C SWAP1 DUP5 PUSH2 0x27DC JUMP JUMPDEST POP PUSH0 DUP4 DUP2 MSTORE PUSH1 0x3 PUSH1 0x20 MSTORE PUSH1 0x40 DUP1 DUP3 KECCAK256 DUP1 SLOAD PUSH1 0x1 PUSH1 0x1 PUSH1 0xA0 SHL SUB NOT AND PUSH1 0x1 PUSH1 0x1 PUSH1 0xA0 SHL SUB DUP9 AND SWAP1 DUP2 OR SWAP1 SWAP2 SSTORE SWAP1 MLOAD DUP6 SWAP3 SWAP1 PUSH32 0xB333C813A7426A7A11E2B190CAD52C44119421594B47F6F32ACE6D8C7207B2BF SWAP1 PUSH2 0x2BCD SWAP1 CALLER SWAP1 DUP9 SWAP1 DUP9 SWAP1 PUSH2 0x3C78 JUMP JUMPDEST PUSH1 0x40 MLOAD DUP1 SWAP2 SUB SWAP1 LOG4 PUSH0 CALLER PUSH0 DUP7 DUP7 DUP6 PUSH1 0x40 MLOAD PUSH1 0x20 ADD PUSH2 0x2BEF SWAP6 SWAP5 SWAP4 SWAP3 SWAP2 SWAP1 PUSH2 0x3CAC JUMP JUMPDEST PUSH1 0x40 MLOAD PUSH1 0x20 DUP2 DUP4 SUB SUB DUP2 MSTORE SWAP1 PUSH1 0x40 MSTORE SWAP1 POP PUSH2 0xCA5 DUP6 DUP5 DUP4 PUSH2 0x2812 JUMP JUMPDEST PUSH0 DUP2 DUP2 MSTORE PUSH1 0x1 DUP4 ADD PUSH1 0x20 MSTORE PUSH1 0x40 DUP2 KECCAK256 SLOAD PUSH2 0x2C50 JUMPI POP DUP2 SLOAD PUSH1 0x1 DUP2 DUP2 ADD DUP5 SSTORE PUSH0 DUP5 DUP2 MSTORE PUSH1 0x20 DUP1 DUP3 KECCAK256 SWAP1 SWAP4 ADD DUP5 SWAP1 SSTORE DUP5 SLOAD DUP5 DUP3 MSTORE DUP3 DUP7 ADD SWAP1 SWAP4 MSTORE PUSH1 0x40 SWAP1 KECCAK256 SWAP2 SWAP1 SWAP2 SSTORE PUSH2 0x80C JUMP JUMPDEST POP PUSH0 PUSH2 0x80C JUMP JUMPDEST PUSH2 0x2C71 PUSH1 0x1 PUSH1 0x1 PUSH1 0xA0 SHL SUB DUP5 AND PUSH4 0x1AED5A85 PUSH1 0xE2 SHL PUSH2 0x26F8 JUMP JUMPDEST ISZERO PUSH2 0x253F JUMPI PUSH1 0x40 MLOAD PUSH4 0x1AED5A85 PUSH1 0xE2 SHL DUP2 MSTORE PUSH1 0x1 PUSH1 0x1 PUSH1 0xA0 SHL SUB DUP5 AND SWAP1 PUSH4 0x6BB56A14 SWAP1 PUSH2 0x2876 SWAP1 DUP6 SWAP1 DUP6 SWAP1 PUSH1 0x4 ADD PUSH2 0x3E06 JUMP JUMPDEST PUSH0 PUSH2 0x8A4 DUP4 PUSH1 0x1 PUSH1 0x1 PUSH1 0xA0 SHL SUB DUP5 AND PUSH2 0x2CC3 JUMP JUMPDEST PUSH0 PUSH2 0x8A4 DUP4 DUP4 PUSH2 0x2DA6 JUMP JUMPDEST PUSH0 DUP2 DUP2 MSTORE PUSH1 0x1 DUP4 ADD PUSH1 0x20 MSTORE PUSH1 0x40 DUP2 KECCAK256 SLOAD DUP1 ISZERO PUSH2 0x2D9D JUMPI PUSH0 PUSH2 0x2CE5 PUSH1 0x1 DUP4 PUSH2 0x3BC2 JUMP JUMPDEST DUP6 SLOAD SWAP1 SWAP2 POP PUSH0 SWAP1 PUSH2 0x2CF8 SWAP1 PUSH1 0x1 SWAP1 PUSH2 0x3BC2 JUMP JUMPDEST SWAP1 POP DUP2 DUP2 EQ PUSH2 0x2D57 JUMPI PUSH0 DUP7 PUSH0 ADD DUP3 DUP2 SLOAD DUP2 LT PUSH2 0x2D16 JUMPI PUSH2 0x2D16 PUSH2 0x39C3 JUMP JUMPDEST SWAP1 PUSH0 MSTORE PUSH1 0x20 PUSH0 KECCAK256 ADD SLOAD SWAP1 POP DUP1 DUP8 PUSH0 ADD DUP5 DUP2 SLOAD DUP2 LT PUSH2 0x2D36 JUMPI PUSH2 0x2D36 PUSH2 0x39C3 JUMP JUMPDEST PUSH0 SWAP2 DUP3 MSTORE PUSH1 0x20 DUP1 DUP4 KECCAK256 SWAP1 SWAP2 ADD SWAP3 SWAP1 SWAP3 SSTORE SWAP2 DUP3 MSTORE PUSH1 0x1 DUP9 ADD SWAP1 MSTORE PUSH1 0x40 SWAP1 KECCAK256 DUP4 SWAP1 SSTORE JUMPDEST DUP6 SLOAD DUP7 SWAP1 DUP1 PUSH2 0x2D68 JUMPI PUSH2 0x2D68 PUSH2 0x3BD5 JUMP JUMPDEST PUSH1 0x1 SWAP1 SUB DUP2 DUP2 SWAP1 PUSH0 MSTORE PUSH1 0x20 PUSH0 KECCAK256 ADD PUSH0 SWAP1 SSTORE SWAP1 SSTORE DUP6 PUSH1 0x1 ADD PUSH0 DUP7 DUP2 MSTORE PUSH1 0x20 ADD SWAP1 DUP2 MSTORE PUSH1 0x20 ADD PUSH0 KECCAK256 PUSH0 SWAP1 SSTORE PUSH1 0x1 SWAP4 POP POP POP POP PUSH2 0x80C JUMP JUMPDEST PUSH0 SWAP2 POP POP PUSH2 0x80C JUMP JUMPDEST PUSH0 DUP3 PUSH0 ADD DUP3 DUP2 SLOAD DUP2 LT PUSH2 0x2DBB JUMPI PUSH2 0x2DBB PUSH2 0x39C3 JUMP JUMPDEST SWAP1 PUSH0 MSTORE PUSH1 0x20 PUSH0 KECCAK256 ADD SLOAD SWAP1 POP SWAP3 SWAP2 POP POP JUMP JUMPDEST DUP2 DUP4 MSTORE DUP2 DUP2 PUSH1 0x20 DUP6 ADD CALLDATACOPY POP PUSH0 DUP3 DUP3 ADD PUSH1 0x20 SWAP1 DUP2 ADD SWAP2 SWAP1 SWAP2 MSTORE PUSH1 0x1F SWAP1 SWAP2 ADD PUSH1 0x1F NOT AND SWAP1 SWAP2 ADD ADD SWAP1 JUMP JUMPDEST PUSH1 0x20 DUP2 MSTORE PUSH0 PUSH2 0x26BC PUSH1 0x20 DUP4 ADD DUP5 DUP7 PUSH2 0x2DCC JUMP JUMPDEST PUSH0 PUSH1 0x20 DUP3 DUP5 SUB SLT ISZERO PUSH2 0x2E17 JUMPI PUSH0 PUSH0 REVERT JUMPDEST DUP2 CALLDATALOAD PUSH1 0x1 PUSH1 0x1 PUSH1 0xE0 SHL SUB NOT DUP2 AND DUP2 EQ PUSH2 0x8A4 JUMPI PUSH0 PUSH0 REVERT JUMPDEST DUP1 CALLDATALOAD PUSH1 0x1 PUSH1 0x1 PUSH1 0xA0 SHL SUB DUP2 AND DUP2 EQ PUSH2 0x2E44 JUMPI PUSH0 PUSH0 REVERT JUMPDEST SWAP2 SWAP1 POP JUMP JUMPDEST PUSH0 PUSH1 0x20 DUP3 DUP5 SUB SLT ISZERO PUSH2 0x2E59 JUMPI PUSH0 PUSH0 REVERT JUMPDEST PUSH2 0x8A4 DUP3 PUSH2 0x2E2E JUMP JUMPDEST PUSH0 PUSH0 PUSH1 0x40 DUP4 DUP6 SUB SLT ISZERO PUSH2 0x2E73 JUMPI PUSH0 PUSH0 REVERT JUMPDEST POP POP DUP1 CALLDATALOAD SWAP3 PUSH1 0x20 SWAP1 SWAP2 ADD CALLDATALOAD SWAP2 POP JUMP JUMPDEST PUSH0 DUP2 MLOAD DUP1 DUP5 MSTORE DUP1 PUSH1 0x20 DUP5 ADD PUSH1 0x20 DUP7 ADD MCOPY PUSH0 PUSH1 0x20 DUP3 DUP7 ADD ADD MSTORE PUSH1 0x20 PUSH1 0x1F NOT PUSH1 0x1F DUP4 ADD AND DUP6 ADD ADD SWAP2 POP POP SWAP3 SWAP2 POP POP JUMP JUMPDEST PUSH1 0x20 DUP2 MSTORE PUSH0 PUSH2 0x8A4 PUSH1 0x20 DUP4 ADD DUP5 PUSH2 0x2E82 JUMP JUMPDEST PUSH4 0x4E487B71 PUSH1 0xE0 SHL PUSH0 MSTORE PUSH1 0x41 PUSH1 0x4 MSTORE PUSH1 0x24 PUSH0 REVERT JUMPDEST PUSH1 0x40 MLOAD PUSH1 0x1F DUP3 ADD PUSH1 0x1F NOT AND DUP2 ADD PUSH1 0x1 PUSH1 0x1 PUSH1 0x40 SHL SUB DUP2 GT DUP3 DUP3 LT OR ISZERO PUSH2 0x2EFE JUMPI PUSH2 0x2EFE PUSH2 0x2EC2 JUMP JUMPDEST PUSH1 0x40 MSTORE SWAP2 SWAP1 POP JUMP JUMPDEST PUSH0 PUSH1 0x1 PUSH1 0x1 PUSH1 0x40 SHL SUB DUP3 GT ISZERO PUSH2 0x2F1E JUMPI PUSH2 0x2F1E PUSH2 0x2EC2 JUMP JUMPDEST POP PUSH1 0x5 SHL PUSH1 0x20 ADD SWAP1 JUMP JUMPDEST PUSH0 DUP3 PUSH1 0x1F DUP4 ADD SLT PUSH2 0x2F37 JUMPI PUSH0 PUSH0 REVERT JUMPDEST DUP2 CALLDATALOAD PUSH2 0x2F4A PUSH2 0x2F45 DUP3 PUSH2 0x2F06 JUMP JUMPDEST PUSH2 0x2ED6 JUMP JUMPDEST DUP1 DUP3 DUP3 MSTORE PUSH1 0x20 DUP3 ADD SWAP2 POP PUSH1 0x20 DUP4 PUSH1 0x5 SHL DUP7 ADD ADD SWAP3 POP DUP6 DUP4 GT ISZERO PUSH2 0x2F6B JUMPI PUSH0 PUSH0 REVERT JUMPDEST PUSH1 0x20 DUP6 ADD JUMPDEST DUP4 DUP2 LT ISZERO PUSH2 0x2F88 JUMPI DUP1 CALLDATALOAD DUP4 MSTORE PUSH1 0x20 SWAP3 DUP4 ADD SWAP3 ADD PUSH2 0x2F70 JUMP JUMPDEST POP SWAP6 SWAP5 POP POP POP POP POP JUMP JUMPDEST PUSH0 PUSH0 PUSH1 0x40 DUP4 DUP6 SUB SLT ISZERO PUSH2 0x2FA3 JUMPI PUSH0 PUSH0 REVERT JUMPDEST DUP3 CALLDATALOAD PUSH1 0x1 PUSH1 0x1 PUSH1 0x40 SHL SUB DUP2 GT ISZERO PUSH2 0x2FB8 JUMPI PUSH0 PUSH0 REVERT JUMPDEST PUSH2 0x2FC4 DUP6 DUP3 DUP7 ADD PUSH2 0x2F28 JUMP JUMPDEST SWAP3 POP POP PUSH1 0x20 DUP4 ADD CALLDATALOAD PUSH1 0x1 PUSH1 0x1 PUSH1 0x40 SHL SUB DUP2 GT ISZERO PUSH2 0x2FDF JUMPI PUSH0 PUSH0 REVERT JUMPDEST PUSH2 0x2FEB DUP6 DUP3 DUP7 ADD PUSH2 0x2F28 JUMP JUMPDEST SWAP2 POP POP SWAP3 POP SWAP3 SWAP1 POP JUMP JUMPDEST PUSH0 PUSH1 0x20 DUP3 ADD PUSH1 0x20 DUP4 MSTORE DUP1 DUP5 MLOAD DUP1 DUP4 MSTORE PUSH1 0x40 DUP6 ADD SWAP2 POP PUSH1 0x40 DUP2 PUSH1 0x5 SHL DUP7 ADD ADD SWAP3 POP PUSH1 0x20 DUP7 ADD PUSH0 JUMPDEST DUP3 DUP2 LT ISZERO PUSH2 0x304C JUMPI PUSH1 0x3F NOT DUP8 DUP7 SUB ADD DUP5 MSTORE PUSH2 0x3037 DUP6 DUP4 MLOAD PUSH2 0x2E82 JUMP JUMPDEST SWAP5 POP PUSH1 0x20 SWAP4 DUP5 ADD SWAP4 SWAP2 SWAP1 SWAP2 ADD SWAP1 PUSH1 0x1 ADD PUSH2 0x301B JUMP JUMPDEST POP SWAP3 SWAP7 SWAP6 POP POP POP POP POP POP JUMP JUMPDEST PUSH0 PUSH1 0x20 DUP3 DUP5 SUB SLT ISZERO PUSH2 0x3068 JUMPI PUSH0 PUSH0 REVERT JUMPDEST POP CALLDATALOAD SWAP2 SWAP1 POP JUMP JUMPDEST PUSH0 PUSH0 PUSH1 0x40 DUP4 DUP6 SUB SLT ISZERO PUSH2 0x3080 JUMPI PUSH0 PUSH0 REVERT JUMPDEST DUP3 CALLDATALOAD SWAP2 POP PUSH2 0x3090 PUSH1 0x20 DUP5 ADD PUSH2 0x2E2E JUMP JUMPDEST SWAP1 POP SWAP3 POP SWAP3 SWAP1 POP JUMP JUMPDEST PUSH0 PUSH0 PUSH1 0x40 DUP4 DUP6 SUB SLT ISZERO PUSH2 0x30AA JUMPI PUSH0 PUSH0 REVERT JUMPDEST PUSH2 0x30B3 DUP4 PUSH2 0x2E2E JUMP JUMPDEST SWAP5 PUSH1 0x20 SWAP4 SWAP1 SWAP4 ADD CALLDATALOAD SWAP4 POP POP POP JUMP JUMPDEST PUSH0 PUSH0 DUP4 PUSH1 0x1F DUP5 ADD SLT PUSH2 0x30D1 JUMPI PUSH0 PUSH0 REVERT JUMPDEST POP DUP2 CALLDATALOAD PUSH1 0x1 PUSH1 0x1 PUSH1 0x40 SHL SUB DUP2 GT ISZERO PUSH2 0x30E7 JUMPI PUSH0 PUSH0 REVERT JUMPDEST PUSH1 0x20 DUP4 ADD SWAP2 POP DUP4 PUSH1 0x20 DUP3 DUP6 ADD ADD GT ISZERO PUSH2 0x30FE JUMPI PUSH0 PUSH0 REVERT JUMPDEST SWAP3 POP SWAP3 SWAP1 POP JUMP JUMPDEST PUSH0 PUSH0 PUSH0 PUSH1 0x40 DUP5 DUP7 SUB SLT ISZERO PUSH2 0x3117 JUMPI PUSH0 PUSH0 REVERT JUMPDEST DUP4 CALLDATALOAD SWAP3 POP PUSH1 0x20 DUP5 ADD CALLDATALOAD PUSH1 0x1 PUSH1 0x1 PUSH1 0x40 SHL SUB DUP2 GT ISZERO PUSH2 0x3133 JUMPI PUSH0 PUSH0 REVERT JUMPDEST PUSH2 0x313F DUP7 DUP3 DUP8 ADD PUSH2 0x30C1 JUMP JUMPDEST SWAP5 SWAP8 SWAP1 SWAP7 POP SWAP4 SWAP5 POP POP POP POP JUMP JUMPDEST PUSH1 0x20 DUP1 DUP3 MSTORE DUP3 MLOAD DUP3 DUP3 ADD DUP2 SWAP1 MSTORE PUSH0 SWAP2 DUP5 ADD SWAP1 PUSH1 0x40 DUP5 ADD SWAP1 DUP4 JUMPDEST DUP2 DUP2 LT ISZERO PUSH2 0x318C JUMPI DUP4 MLOAD PUSH1 0x1 PUSH1 0x1 PUSH1 0xA0 SHL SUB AND DUP4 MSTORE PUSH1 0x20 SWAP4 DUP5 ADD SWAP4 SWAP1 SWAP3 ADD SWAP2 PUSH1 0x1 ADD PUSH2 0x3165 JUMP JUMPDEST POP SWAP1 SWAP6 SWAP5 POP POP POP POP POP JUMP JUMPDEST DUP1 CALLDATALOAD DUP1 ISZERO ISZERO DUP2 EQ PUSH2 0x2E44 JUMPI PUSH0 PUSH0 REVERT JUMPDEST PUSH0 PUSH1 0x1 PUSH1 0x1 PUSH1 0x40 SHL SUB DUP3 GT ISZERO PUSH2 0x31BE JUMPI PUSH2 0x31BE PUSH2 0x2EC2 JUMP JUMPDEST POP PUSH1 0x1F ADD PUSH1 0x1F NOT AND PUSH1 0x20 ADD SWAP1 JUMP JUMPDEST PUSH0 DUP3 PUSH1 0x1F DUP4 ADD SLT PUSH2 0x31DB JUMPI PUSH0 PUSH0 REVERT JUMPDEST DUP2 CALLDATALOAD PUSH2 0x31E9 PUSH2 0x2F45 DUP3 PUSH2 0x31A6 JUMP JUMPDEST DUP2 DUP2 MSTORE DUP5 PUSH1 0x20 DUP4 DUP7 ADD ADD GT ISZERO PUSH2 0x31FD JUMPI PUSH0 PUSH0 REVERT JUMPDEST DUP2 PUSH1 0x20 DUP6 ADD PUSH1 0x20 DUP4 ADD CALLDATACOPY PUSH0 SWAP2 DUP2 ADD PUSH1 0x20 ADD SWAP2 SWAP1 SWAP2 MSTORE SWAP4 SWAP3 POP POP POP JUMP JUMPDEST PUSH0 PUSH0 PUSH0 PUSH0 PUSH0 PUSH1 0xA0 DUP7 DUP9 SUB SLT ISZERO PUSH2 0x322D JUMPI PUSH0 PUSH0 REVERT JUMPDEST PUSH2 0x3236 DUP7 PUSH2 0x2E2E JUMP JUMPDEST SWAP5 POP PUSH2 0x3244 PUSH1 0x20 DUP8 ADD PUSH2 0x2E2E JUMP JUMPDEST SWAP4 POP PUSH1 0x40 DUP7 ADD CALLDATALOAD SWAP3 POP PUSH2 0x3259 PUSH1 0x60 DUP8 ADD PUSH2 0x3197 JUMP JUMPDEST SWAP2 POP PUSH1 0x80 DUP7 ADD CALLDATALOAD PUSH1 0x1 PUSH1 0x1 PUSH1 0x40 SHL SUB DUP2 GT ISZERO PUSH2 0x3273 JUMPI PUSH0 PUSH0 REVERT JUMPDEST PUSH2 0x327F DUP9 DUP3 DUP10 ADD PUSH2 0x31CC JUMP JUMPDEST SWAP2 POP POP SWAP3 SWAP6 POP SWAP3 SWAP6 SWAP1 SWAP4 POP JUMP JUMPDEST PUSH4 0x4E487B71 PUSH1 0xE0 SHL PUSH0 MSTORE PUSH1 0x21 PUSH1 0x4 MSTORE PUSH1 0x24 PUSH0 REVERT JUMPDEST PUSH1 0x3 DUP2 LT PUSH2 0x895 JUMPI PUSH4 0x4E487B71 PUSH1 0xE0 SHL PUSH0 MSTORE PUSH1 0x21 PUSH1 0x4 MSTORE PUSH1 0x24 PUSH0 REVERT JUMPDEST PUSH1 0xE0 DUP2 MSTORE PUSH0 PUSH2 0x32CE PUSH1 0xE0 DUP4 ADD DUP11 PUSH2 0x2E82 JUMP JUMPDEST PUSH1 0x1 PUSH1 0x1 PUSH1 0xA0 SHL SUB DUP10 AND PUSH1 0x20 DUP5 ADD MSTORE PUSH1 0x40 DUP4 ADD DUP9 SWAP1 MSTORE PUSH1 0x60 DUP4 ADD DUP8 SWAP1 MSTORE SWAP1 POP PUSH2 0x32F6 DUP6 PUSH2 0x32A0 JUMP JUMPDEST DUP5 PUSH1 0x80 DUP4 ADD MSTORE DUP4 PUSH1 0xA0 DUP4 ADD MSTORE DUP3 PUSH1 0xC0 DUP4 ADD MSTORE SWAP9 SWAP8 POP POP POP POP POP POP POP POP JUMP JUMPDEST PUSH0 PUSH0 PUSH1 0x20 DUP4 DUP6 SUB SLT ISZERO PUSH2 0x3325 JUMPI PUSH0 PUSH0 REVERT JUMPDEST DUP3 CALLDATALOAD PUSH1 0x1 PUSH1 0x1 PUSH1 0x40 SHL SUB DUP2 GT ISZERO PUSH2 0x333A JUMPI PUSH0 PUSH0 REVERT JUMPDEST DUP4 ADD PUSH1 0x1F DUP2 ADD DUP6 SGT PUSH2 0x334A JUMPI PUSH0 PUSH0 REVERT JUMPDEST DUP1 CALLDATALOAD PUSH1 0x1 PUSH1 0x1 PUSH1 0x40 SHL SUB DUP2 GT ISZERO PUSH2 0x335F JUMPI PUSH0 PUSH0 REVERT JUMPDEST DUP6 PUSH1 0x20 DUP3 PUSH1 0x5 SHL DUP5 ADD ADD GT ISZERO PUSH2 0x3373 JUMPI PUSH0 PUSH0 REVERT JUMPDEST PUSH1 0x20 SWAP2 SWAP1 SWAP2 ADD SWAP6 SWAP1 SWAP5 POP SWAP3 POP POP POP JUMP JUMPDEST PUSH0 DUP3 PUSH1 0x1F DUP4 ADD SLT PUSH2 0x3392 JUMPI PUSH0 PUSH0 REVERT JUMPDEST DUP2 CALLDATALOAD PUSH2 0x33A0 PUSH2 0x2F45 DUP3 PUSH2 0x2F06 JUMP JUMPDEST DUP1 DUP3 DUP3 MSTORE PUSH1 0x20 DUP3 ADD SWAP2 POP PUSH1 0x20 DUP4 PUSH1 0x5 SHL DUP7 ADD ADD SWAP3 POP DUP6 DUP4 GT ISZERO PUSH2 0x33C1 JUMPI PUSH0 PUSH0 REVERT JUMPDEST PUSH1 0x20 DUP6 ADD JUMPDEST DUP4 DUP2 LT ISZERO PUSH2 0x2F88 JUMPI PUSH2 0x33D7 DUP2 PUSH2 0x2E2E JUMP JUMPDEST DUP4 MSTORE PUSH1 0x20 SWAP3 DUP4 ADD SWAP3 ADD PUSH2 0x33C6 JUMP JUMPDEST PUSH0 DUP3 PUSH1 0x1F DUP4 ADD SLT PUSH2 0x33F4 JUMPI PUSH0 PUSH0 REVERT JUMPDEST DUP2 CALLDATALOAD PUSH2 0x3402 PUSH2 0x2F45 DUP3 PUSH2 0x2F06 JUMP JUMPDEST DUP1 DUP3 DUP3 MSTORE PUSH1 0x20 DUP3 ADD SWAP2 POP PUSH1 0x20 DUP4 PUSH1 0x5 SHL DUP7 ADD ADD SWAP3 POP DUP6 DUP4 GT ISZERO PUSH2 0x3423 JUMPI PUSH0 PUSH0 REVERT JUMPDEST PUSH1 0x20 DUP6 ADD JUMPDEST DUP4 DUP2 LT ISZERO PUSH2 0x2F88 JUMPI PUSH2 0x3439 DUP2 PUSH2 0x3197 JUMP JUMPDEST DUP4 MSTORE PUSH1 0x20 SWAP3 DUP4 ADD SWAP3 ADD PUSH2 0x3428 JUMP JUMPDEST PUSH0 DUP3 PUSH1 0x1F DUP4 ADD SLT PUSH2 0x3456 JUMPI PUSH0 PUSH0 REVERT JUMPDEST DUP2 CALLDATALOAD PUSH2 0x3464 PUSH2 0x2F45 DUP3 PUSH2 0x2F06 JUMP JUMPDEST DUP1 DUP3 DUP3 MSTORE PUSH1 0x20 DUP3 ADD SWAP2 POP PUSH1 0x20 DUP4 PUSH1 0x5 SHL DUP7 ADD ADD SWAP3 POP DUP6 DUP4 GT ISZERO PUSH2 0x3485 JUMPI PUSH0 PUSH0 REVERT JUMPDEST PUSH1 0x20 DUP6 ADD JUMPDEST DUP4 DUP2 LT ISZERO PUSH2 0x2F88 JUMPI DUP1 CALLDATALOAD PUSH1 0x1 PUSH1 0x1 PUSH1 0x40 SHL SUB DUP2 GT ISZERO PUSH2 0x34A7 JUMPI PUSH0 PUSH0 REVERT JUMPDEST PUSH2 0x34B6 DUP9 PUSH1 0x20 DUP4 DUP11 ADD ADD PUSH2 0x31CC JUMP JUMPDEST DUP5 MSTORE POP PUSH1 0x20 SWAP3 DUP4 ADD SWAP3 ADD PUSH2 0x348A JUMP JUMPDEST PUSH0 PUSH0 PUSH0 PUSH0 PUSH0 PUSH1 0xA0 DUP7 DUP9 SUB SLT ISZERO PUSH2 0x34D9 JUMPI PUSH0 PUSH0 REVERT JUMPDEST DUP6 CALLDATALOAD PUSH1 0x1 PUSH1 0x1 PUSH1 0x40 SHL SUB DUP2 GT ISZERO PUSH2 0x34EE JUMPI PUSH0 PUSH0 REVERT JUMPDEST PUSH2 0x34FA DUP9 DUP3 DUP10 ADD PUSH2 0x3383 JUMP JUMPDEST SWAP6 POP POP PUSH1 0x20 DUP7 ADD CALLDATALOAD PUSH1 0x1 PUSH1 0x1 PUSH1 0x40 SHL SUB DUP2 GT ISZERO PUSH2 0x3515 JUMPI PUSH0 PUSH0 REVERT JUMPDEST PUSH2 0x3521 DUP9 DUP3 DUP10 ADD PUSH2 0x3383 JUMP JUMPDEST SWAP5 POP POP PUSH1 0x40 DUP7 ADD CALLDATALOAD PUSH1 0x1 PUSH1 0x1 PUSH1 0x40 SHL SUB DUP2 GT ISZERO PUSH2 0x353C JUMPI PUSH0 PUSH0 REVERT JUMPDEST PUSH2 0x3548 DUP9 DUP3 DUP10 ADD PUSH2 0x2F28 JUMP JUMPDEST SWAP4 POP POP PUSH1 0x60 DUP7 ADD CALLDATALOAD PUSH1 0x1 PUSH1 0x1 PUSH1 0x40 SHL SUB DUP2 GT ISZERO PUSH2 0x3563 JUMPI PUSH0 PUSH0 REVERT JUMPDEST PUSH2 0x356F DUP9 DUP3 DUP10 ADD PUSH2 0x33E5 JUMP JUMPDEST SWAP3 POP POP PUSH1 0x80 DUP7 ADD CALLDATALOAD PUSH1 0x1 PUSH1 0x1 PUSH1 0x40 SHL SUB DUP2 GT ISZERO PUSH2 0x358A JUMPI PUSH0 PUSH0 REVERT JUMPDEST PUSH2 0x327F DUP9 DUP3 DUP10 ADD PUSH2 0x3447 JUMP JUMPDEST PUSH0 PUSH0 PUSH1 0x40 DUP4 DUP6 SUB SLT ISZERO PUSH2 0x35A7 JUMPI PUSH0 PUSH0 REVERT JUMPDEST DUP3 CALLDATALOAD SWAP2 POP PUSH1 0x20 DUP4 ADD CALLDATALOAD PUSH1 0x1 PUSH1 0x1 PUSH1 0x40 SHL SUB DUP2 GT ISZERO PUSH2 0x35C3 JUMPI PUSH0 PUSH0 REVERT JUMPDEST PUSH2 0x2FEB DUP6 DUP3 DUP7 ADD PUSH2 0x31CC JUMP JUMPDEST PUSH1 0x3 DUP2 LT PUSH2 0x895 JUMPI PUSH0 PUSH0 REVERT JUMPDEST DUP1 CALLDATALOAD PUSH2 0x2E44 DUP2 PUSH2 0x35CF JUMP JUMPDEST PUSH0 PUSH0 PUSH0 PUSH0 PUSH0 PUSH0 PUSH0 PUSH0 PUSH0 PUSH0 PUSH0 PUSH2 0x120 DUP13 DUP15 SUB SLT ISZERO PUSH2 0x3601 JUMPI PUSH0 PUSH0 REVERT JUMPDEST DUP12 CALLDATALOAD PUSH1 0x1 PUSH1 0x1 PUSH1 0x40 SHL SUB DUP2 GT ISZERO PUSH2 0x3616 JUMPI PUSH0 PUSH0 REVERT JUMPDEST PUSH2 0x3622 DUP15 DUP3 DUP16 ADD PUSH2 0x30C1 JUMP JUMPDEST SWAP1 SWAP13 POP SWAP11 POP POP PUSH1 0x20 DUP13 ADD CALLDATALOAD PUSH1 0x1 PUSH1 0x1 PUSH1 0x40 SHL SUB DUP2 GT ISZERO PUSH2 0x3640 JUMPI PUSH0 PUSH0 REVERT JUMPDEST PUSH2 0x364C DUP15 DUP3 DUP16 ADD PUSH2 0x30C1 JUMP JUMPDEST SWAP1 SWAP11 POP SWAP9 POP POP PUSH1 0x40 DUP13 ADD CALLDATALOAD PUSH2 0x3660 DUP2 PUSH2 0x35CF JUMP JUMPDEST SWAP7 POP PUSH1 0x60 DUP13 ADD CALLDATALOAD SWAP6 POP PUSH1 0x80 DUP13 ADD CALLDATALOAD SWAP5 POP PUSH1 0xA0 DUP13 ADD CALLDATALOAD SWAP4 POP PUSH1 0xC0 DUP13 ADD CALLDATALOAD SWAP3 POP PUSH2 0x368A PUSH1 0xE0 DUP14 ADD PUSH2 0x2E2E JUMP JUMPDEST SWAP2 POP PUSH2 0x3699 PUSH2 0x100 DUP14 ADD PUSH2 0x35DB JUMP JUMPDEST SWAP1 POP SWAP3 SWAP6 SWAP9 SWAP12 POP SWAP3 SWAP6 SWAP9 SWAP12 SWAP1 SWAP4 SWAP7 SWAP10 POP JUMP JUMPDEST PUSH0 PUSH0 PUSH0 PUSH1 0x60 DUP5 DUP7 SUB SLT ISZERO PUSH2 0x36BD JUMPI PUSH0 PUSH0 REVERT JUMPDEST PUSH2 0x36C6 DUP5 PUSH2 0x2E2E JUMP JUMPDEST SWAP3 POP PUSH1 0x20 DUP5 ADD CALLDATALOAD SWAP2 POP PUSH1 0x40 DUP5 ADD CALLDATALOAD PUSH1 0x1 PUSH1 0x1 PUSH1 0x40 SHL SUB DUP2 GT ISZERO PUSH2 0x36E7 JUMPI PUSH0 PUSH0 REVERT JUMPDEST PUSH2 0x36F3 DUP7 DUP3 DUP8 ADD PUSH2 0x31CC JUMP JUMPDEST SWAP2 POP POP SWAP3 POP SWAP3 POP SWAP3 JUMP JUMPDEST PUSH0 PUSH0 PUSH1 0x40 DUP4 DUP6 SUB SLT ISZERO PUSH2 0x370E JUMPI PUSH0 PUSH0 REVERT JUMPDEST DUP3 CALLDATALOAD PUSH1 0x1 PUSH1 0x1 PUSH1 0x40 SHL SUB DUP2 GT ISZERO PUSH2 0x3723 JUMPI PUSH0 PUSH0 REVERT JUMPDEST PUSH2 0x372F DUP6 DUP3 DUP7 ADD PUSH2 0x2F28 JUMP JUMPDEST SWAP3 POP POP PUSH1 0x20 DUP4 ADD CALLDATALOAD PUSH1 0x1 PUSH1 0x1 PUSH1 0x40 SHL SUB DUP2 GT ISZERO PUSH2 0x374A JUMPI PUSH0 PUSH0 REVERT JUMPDEST PUSH2 0x2FEB DUP6 DUP3 DUP7 ADD PUSH2 0x3447 JUMP JUMPDEST PUSH1 0x20 DUP1 DUP3 MSTORE DUP3 MLOAD DUP3 DUP3 ADD DUP2 SWAP1 MSTORE PUSH0 SWAP2 DUP5 ADD SWAP1 PUSH1 0x40 DUP5 ADD SWAP1 DUP4 JUMPDEST DUP2 DUP2 LT ISZERO PUSH2 0x318C JUMPI DUP4 MLOAD DUP4 MSTORE PUSH1 0x20 SWAP4 DUP5 ADD SWAP4 SWAP1 SWAP3 ADD SWAP2 PUSH1 0x1 ADD PUSH2 0x376F JUMP JUMPDEST PUSH0 PUSH0 PUSH0 PUSH1 0x60 DUP5 DUP7 SUB SLT ISZERO PUSH2 0x379F JUMPI PUSH0 PUSH0 REVERT JUMPDEST DUP4 CALLDATALOAD PUSH1 0x1 PUSH1 0x1 PUSH1 0x40 SHL SUB DUP2 GT ISZERO PUSH2 0x37B4 JUMPI PUSH0 PUSH0 REVERT JUMPDEST PUSH2 0x37C0 DUP7 DUP3 DUP8 ADD PUSH2 0x2F28 JUMP JUMPDEST SWAP4 POP POP PUSH1 0x20 DUP5 ADD CALLDATALOAD PUSH1 0x1 PUSH1 0x1 PUSH1 0x40 SHL SUB DUP2 GT ISZERO PUSH2 0x37DB JUMPI PUSH0 PUSH0 REVERT JUMPDEST PUSH2 0x37E7 DUP7 DUP3 DUP8 ADD PUSH2 0x2F28 JUMP JUMPDEST SWAP3 POP POP PUSH1 0x40 DUP5 ADD CALLDATALOAD PUSH1 0x1 PUSH1 0x1 PUSH1 0x40 SHL SUB DUP2 GT ISZERO PUSH2 0x3802 JUMPI PUSH0 PUSH0 REVERT JUMPDEST PUSH2 0x36F3 DUP7 DUP3 DUP8 ADD PUSH2 0x3447 JUMP JUMPDEST PUSH0 PUSH0 PUSH0 PUSH1 0x60 DUP5 DUP7 SUB SLT ISZERO PUSH2 0x3820 JUMPI PUSH0 PUSH0 REVERT JUMPDEST DUP4 CALLDATALOAD SWAP3 POP PUSH1 0x20 DUP5 ADD CALLDATALOAD SWAP2 POP PUSH1 0x40 DUP5 ADD CALLDATALOAD PUSH1 0x1 PUSH1 0x1 PUSH1 0x40 SHL SUB DUP2 GT ISZERO PUSH2 0x36E7 JUMPI PUSH0 PUSH0 REVERT JUMPDEST PUSH0 PUSH0 PUSH0 PUSH0 PUSH1 0x80 DUP6 DUP8 SUB SLT ISZERO PUSH2 0x3856 JUMPI PUSH0 PUSH0 REVERT JUMPDEST PUSH2 0x385F DUP6 PUSH2 0x2E2E JUMP JUMPDEST SWAP4 POP PUSH1 0x20 DUP6 ADD CALLDATALOAD SWAP3 POP PUSH2 0x3874 PUSH1 0x40 DUP7 ADD PUSH2 0x3197 JUMP JUMPDEST SWAP2 POP PUSH1 0x60 DUP6 ADD CALLDATALOAD PUSH1 0x1 PUSH1 0x1 PUSH1 0x40 SHL SUB DUP2 GT ISZERO PUSH2 0x388E JUMPI PUSH0 PUSH0 REVERT JUMPDEST PUSH2 0x389A DUP8 DUP3 DUP9 ADD PUSH2 0x31CC JUMP JUMPDEST SWAP2 POP POP SWAP3 SWAP6 SWAP2 SWAP5 POP SWAP3 POP JUMP JUMPDEST PUSH0 PUSH1 0x20 DUP3 DUP5 SUB SLT ISZERO PUSH2 0x38B6 JUMPI PUSH0 PUSH0 REVERT JUMPDEST DUP2 CALLDATALOAD PUSH1 0x1 PUSH1 0x1 PUSH1 0x40 SHL SUB DUP2 GT ISZERO PUSH2 0x38CB JUMPI PUSH0 PUSH0 REVERT JUMPDEST PUSH2 0x26BC DUP5 DUP3 DUP6 ADD PUSH2 0x2F28 JUMP JUMPDEST PUSH0 PUSH0 PUSH0 PUSH0 PUSH0 PUSH0 PUSH0 PUSH0 PUSH0 PUSH0 PUSH2 0x100 DUP12 DUP14 SUB SLT ISZERO PUSH2 0x38F1 JUMPI PUSH0 PUSH0 REVERT JUMPDEST DUP11 CALLDATALOAD SWAP10 POP PUSH1 0x20 DUP12 ADD CALLDATALOAD PUSH1 0x1 PUSH1 0x1 PUSH1 0x40 SHL SUB DUP2 GT ISZERO PUSH2 0x390D JUMPI PUSH0 PUSH0 REVERT JUMPDEST PUSH2 0x3919 DUP14 DUP3 DUP15 ADD PUSH2 0x30C1 JUMP JUMPDEST SWAP1 SWAP11 POP SWAP9 POP POP PUSH1 0x40 DUP12 ADD CALLDATALOAD PUSH1 0x1 PUSH1 0x1 PUSH1 0x40 SHL SUB DUP2 GT ISZERO PUSH2 0x3937 JUMPI PUSH0 PUSH0 REVERT JUMPDEST PUSH2 0x3943 DUP14 DUP3 DUP15 ADD PUSH2 0x30C1 JUMP JUMPDEST SWAP1 SWAP9 POP SWAP7 POP POP PUSH1 0x60 DUP12 ADD CALLDATALOAD SWAP5 POP PUSH1 0x80 DUP12 ADD CALLDATALOAD SWAP4 POP PUSH1 0xA0 DUP12 ADD CALLDATALOAD SWAP3 POP PUSH1 0xC0 DUP12 ADD CALLDATALOAD SWAP2 POP PUSH2 0x3971 PUSH1 0xE0 DUP13 ADD PUSH2 0x2E2E JUMP JUMPDEST SWAP1 POP SWAP3 SWAP6 SWAP9 SWAP12 SWAP2 SWAP5 SWAP8 SWAP11 POP SWAP3 SWAP6 SWAP9 POP JUMP JUMPDEST DUP4 DUP6 DUP3 CALLDATACOPY PUSH1 0x60 SWAP3 SWAP1 SWAP3 SHL PUSH1 0x1 PUSH1 0x1 PUSH1 0x60 SHL SUB NOT AND SWAP2 SWAP1 SWAP3 ADD SWAP1 DUP2 MSTORE PUSH1 0x14 DUP2 ADD SWAP2 SWAP1 SWAP2 MSTORE PUSH1 0x34 ADD SWAP2 SWAP1 POP JUMP JUMPDEST PUSH0 DUP3 MLOAD DUP1 PUSH1 0x20 DUP6 ADD DUP5 MCOPY PUSH0 SWAP3 ADD SWAP2 DUP3 MSTORE POP SWAP2 SWAP1 POP JUMP JUMPDEST PUSH4 0x4E487B71 PUSH1 0xE0 SHL PUSH0 MSTORE PUSH1 0x32 PUSH1 0x4 MSTORE PUSH1 0x24 PUSH0 REVERT JUMPDEST PUSH1 0x20 DUP1 DUP3 MSTORE PUSH1 0xE SWAP1 DUP3 ADD MSTORE PUSH14 0x139BDD08185D5D1A1BDC9A5E9959 PUSH1 0x92 SHL PUSH1 0x40 DUP3 ADD MSTORE PUSH1 0x60 ADD SWAP1 JUMP JUMPDEST PUSH1 0x1 DUP2 DUP2 SHR SWAP1 DUP3 AND DUP1 PUSH2 0x3A13 JUMPI PUSH1 0x7F DUP3 AND SWAP2 POP JUMPDEST PUSH1 0x20 DUP3 LT DUP2 SUB PUSH2 0x1BB7 JUMPI PUSH4 0x4E487B71 PUSH1 0xE0 SHL PUSH0 MSTORE PUSH1 0x22 PUSH1 0x4 MSTORE PUSH1 0x24 PUSH0 REVERT JUMPDEST PUSH1 0x1F DUP3 GT ISZERO PUSH2 0x253F JUMPI DUP1 PUSH0 MSTORE PUSH1 0x20 PUSH0 KECCAK256 PUSH1 0x1F DUP5 ADD PUSH1 0x5 SHR DUP2 ADD PUSH1 0x20 DUP6 LT ISZERO PUSH2 0x3A56 JUMPI POP DUP1 JUMPDEST PUSH1 0x1F DUP5 ADD PUSH1 0x5 SHR DUP3 ADD SWAP2 POP JUMPDEST DUP2 DUP2 LT ISZERO PUSH2 0xCA5 JUMPI PUSH0 DUP2 SSTORE PUSH1 0x1 ADD PUSH2 0x3A62 JUMP JUMPDEST PUSH1 0x1 PUSH1 0x1 PUSH1 0x40 SHL SUB DUP4 GT ISZERO PUSH2 0x3A8C JUMPI PUSH2 0x3A8C PUSH2 0x2EC2 JUMP JUMPDEST PUSH2 0x3AA0 DUP4 PUSH2 0x3A9A DUP4 SLOAD PUSH2 0x39FF JUMP JUMPDEST DUP4 PUSH2 0x3A31 JUMP JUMPDEST PUSH0 PUSH1 0x1F DUP5 GT PUSH1 0x1 DUP2 EQ PUSH2 0x3AD1 JUMPI PUSH0 DUP6 ISZERO PUSH2 0x3ABA JUMPI POP DUP4 DUP3 ADD CALLDATALOAD JUMPDEST PUSH0 NOT PUSH1 0x3 DUP8 SWAP1 SHL SHR NOT AND PUSH1 0x1 DUP7 SWAP1 SHL OR DUP4 SSTORE PUSH2 0xCA5 JUMP JUMPDEST PUSH0 DUP4 DUP2 MSTORE PUSH1 0x20 DUP2 KECCAK256 PUSH1 0x1F NOT DUP8 AND SWAP2 JUMPDEST DUP3 DUP2 LT ISZERO PUSH2 0x3B00 JUMPI DUP7 DUP6 ADD CALLDATALOAD DUP3 SSTORE PUSH1 0x20 SWAP5 DUP6 ADD SWAP5 PUSH1 0x1 SWAP1 SWAP3 ADD SWAP2 ADD PUSH2 0x3AE0 JUMP JUMPDEST POP DUP7 DUP3 LT ISZERO PUSH2 0x3B1C JUMPI PUSH0 NOT PUSH1 0xF8 DUP9 PUSH1 0x3 SHL AND SHR NOT DUP5 DUP8 ADD CALLDATALOAD AND DUP2 SSTORE JUMPDEST POP POP PUSH1 0x1 DUP6 PUSH1 0x1 SHL ADD DUP4 SSTORE POP POP POP POP POP JUMP JUMPDEST PUSH1 0x40 DUP2 MSTORE PUSH0 PUSH2 0x3B40 PUSH1 0x40 DUP4 ADD DUP7 PUSH2 0x2E82 JUMP JUMPDEST DUP3 DUP2 SUB PUSH1 0x20 DUP5 ADD MSTORE PUSH2 0x3B53 DUP2 DUP6 DUP8 PUSH2 0x2DCC JUMP JUMPDEST SWAP7 SWAP6 POP POP POP POP POP POP JUMP JUMPDEST PUSH0 PUSH0 DUP4 CALLDATALOAD PUSH1 0x1E NOT DUP5 CALLDATASIZE SUB ADD DUP2 SLT PUSH2 0x3B72 JUMPI PUSH0 PUSH0 REVERT JUMPDEST DUP4 ADD DUP1 CALLDATALOAD SWAP2 POP PUSH1 0x1 PUSH1 0x1 PUSH1 0x40 SHL SUB DUP3 GT ISZERO PUSH2 0x3B8B JUMPI PUSH0 PUSH0 REVERT JUMPDEST PUSH1 0x20 ADD SWAP2 POP CALLDATASIZE DUP2 SWAP1 SUB DUP3 SGT ISZERO PUSH2 0x30FE JUMPI PUSH0 PUSH0 REVERT JUMPDEST DUP2 DUP4 DUP3 CALLDATACOPY PUSH0 SWAP2 ADD SWAP1 DUP2 MSTORE SWAP2 SWAP1 POP JUMP JUMPDEST PUSH4 0x4E487B71 PUSH1 0xE0 SHL PUSH0 MSTORE PUSH1 0x11 PUSH1 0x4 MSTORE PUSH1 0x24 PUSH0 REVERT JUMPDEST DUP2 DUP2 SUB DUP2 DUP2 GT ISZERO PUSH2 0x80C JUMPI PUSH2 0x80C PUSH2 0x3BAE JUMP JUMPDEST PUSH4 0x4E487B71 PUSH1 0xE0 SHL PUSH0 MSTORE PUSH1 0x31 PUSH1 0x4 MSTORE PUSH1 0x24 PUSH0 REVERT JUMPDEST PUSH1 0x20 DUP2 ADD PUSH2 0x3BF6 DUP4 PUSH2 0x32A0 JUMP JUMPDEST SWAP2 SWAP1 MSTORE SWAP1 JUMP JUMPDEST PUSH1 0x1 DUP1 PUSH1 0xA0 SHL SUB DUP6 AND DUP2 MSTORE DUP4 PUSH1 0x20 DUP3 ADD MSTORE DUP3 ISZERO ISZERO PUSH1 0x40 DUP3 ADD MSTORE PUSH1 0x80 PUSH1 0x60 DUP3 ADD MSTORE PUSH0 PUSH2 0x3B53 PUSH1 0x80 DUP4 ADD DUP5 PUSH2 0x2E82 JUMP JUMPDEST DUP1 MLOAD PUSH1 0x20 DUP3 ADD MLOAD PUSH1 0x1 PUSH1 0x1 PUSH1 0x60 SHL SUB NOT DUP2 AND SWAP2 SWAP1 PUSH1 0x14 DUP3 LT ISZERO PUSH2 0x3C71 JUMPI PUSH12 0xFFFFFFFFFFFFFFFFFFFFFFFF NOT PUSH12 0xFFFFFFFFFFFFFFFFFFFFFFFF NOT DUP4 PUSH1 0x14 SUB PUSH1 0x3 SHL SHL DUP3 AND AND SWAP3 POP JUMPDEST POP POP SWAP2 SWAP1 POP JUMP JUMPDEST PUSH1 0x1 PUSH1 0x1 PUSH1 0xA0 SHL SUB DUP5 AND DUP2 MSTORE DUP3 ISZERO ISZERO PUSH1 0x20 DUP3 ADD MSTORE PUSH1 0x60 PUSH1 0x40 DUP3 ADD DUP2 SWAP1 MSTORE PUSH0 SWAP1 PUSH2 0x3CA3 SWAP1 DUP4 ADD DUP5 PUSH2 0x2E82 JUMP JUMPDEST SWAP6 SWAP5 POP POP POP POP POP JUMP JUMPDEST PUSH1 0x1 PUSH1 0x1 PUSH1 0xA0 SHL SUB DUP7 DUP2 AND DUP3 MSTORE DUP6 DUP2 AND PUSH1 0x20 DUP4 ADD MSTORE DUP5 AND PUSH1 0x40 DUP3 ADD MSTORE PUSH1 0x60 DUP2 ADD DUP4 SWAP1 MSTORE PUSH1 0xA0 PUSH1 0x80 DUP3 ADD DUP2 SWAP1 MSTORE PUSH0 SWAP1 PUSH2 0x2773 SWAP1 DUP4 ADD DUP5 PUSH2 0x2E82 JUMP JUMPDEST DUP2 MLOAD PUSH1 0x1 PUSH1 0x1 PUSH1 0x40 SHL SUB DUP2 GT ISZERO PUSH2 0x3CFF JUMPI PUSH2 0x3CFF PUSH2 0x2EC2 JUMP JUMPDEST PUSH2 0x3D13 DUP2 PUSH2 0x3D0D DUP5 SLOAD PUSH2 0x39FF JUMP JUMPDEST DUP5 PUSH2 0x3A31 JUMP JUMPDEST PUSH1 0x20 PUSH1 0x1F DUP3 GT PUSH1 0x1 DUP2 EQ PUSH2 0x3D45 JUMPI PUSH0 DUP4 ISZERO PUSH2 0x3D2E JUMPI POP DUP5 DUP3 ADD MLOAD JUMPDEST PUSH0 NOT PUSH1 0x3 DUP6 SWAP1 SHL SHR NOT AND PUSH1 0x1 DUP5 SWAP1 SHL OR DUP5 SSTORE PUSH2 0xCA5 JUMP JUMPDEST PUSH0 DUP5 DUP2 MSTORE PUSH1 0x20 DUP2 KECCAK256 PUSH1 0x1F NOT DUP6 AND SWAP2 JUMPDEST DUP3 DUP2 LT ISZERO PUSH2 0x3D74 JUMPI DUP8 DUP6 ADD MLOAD DUP3 SSTORE PUSH1 0x20 SWAP5 DUP6 ADD SWAP5 PUSH1 0x1 SWAP1 SWAP3 ADD SWAP2 ADD PUSH2 0x3D54 JUMP JUMPDEST POP DUP5 DUP3 LT ISZERO PUSH2 0x3D91 JUMPI DUP7 DUP5 ADD MLOAD PUSH0 NOT PUSH1 0x3 DUP8 SWAP1 SHL PUSH1 0xF8 AND SHR NOT AND DUP2 SSTORE JUMPDEST POP POP POP POP PUSH1 0x1 SWAP1 DUP2 SHL ADD SWAP1 SSTORE POP JUMP JUMPDEST PUSH1 0x40 DUP2 MSTORE PUSH0 PUSH2 0x3DB2 PUSH1 0x40 DUP4 ADD DUP6 PUSH2 0x2E82 JUMP JUMPDEST SWAP1 POP PUSH1 0x1 DUP1 PUSH1 0xA0 SHL SUB DUP4 AND PUSH1 0x20 DUP4 ADD MSTORE SWAP4 SWAP3 POP POP POP JUMP JUMPDEST DUP3 ISZERO ISZERO DUP2 MSTORE PUSH1 0x40 PUSH1 0x20 DUP3 ADD MSTORE PUSH0 PUSH2 0x26BC PUSH1 0x40 DUP4 ADD DUP5 PUSH2 0x2E82 JUMP JUMPDEST DUP1 MLOAD PUSH1 0x20 DUP1 DUP4 ADD MLOAD SWAP2 SWAP1 DUP2 LT ISZERO PUSH2 0x1BB7 JUMPI PUSH0 NOT PUSH1 0x20 SWAP2 SWAP1 SWAP2 SUB PUSH1 0x3 SHL SHL AND SWAP2 SWAP1 POP JUMP JUMPDEST DUP3 DUP2 MSTORE PUSH1 0x40 PUSH1 0x20 DUP3 ADD MSTORE PUSH0 PUSH2 0x26BC PUSH1 0x40 DUP4 ADD DUP5 PUSH2 0x2E82 JUMP JUMPDEST PUSH0 PUSH1 0x20 DUP3 DUP5 SUB SLT ISZERO PUSH2 0x3E2E JUMPI PUSH0 PUSH0 REVERT JUMPDEST DUP2 MLOAD PUSH1 0x1 PUSH1 0x1 PUSH1 0x40 SHL SUB DUP2 GT ISZERO PUSH2 0x3E43 JUMPI PUSH0 PUSH0 REVERT JUMPDEST DUP3 ADD PUSH1 0x1F DUP2 ADD DUP5 SGT PUSH2 0x3E53 JUMPI PUSH0 PUSH0 REVERT JUMPDEST DUP1 MLOAD PUSH2 0x3E61 PUSH2 0x2F45 DUP3 PUSH2 0x31A6 JUMP JUMPDEST DUP2 DUP2 MSTORE DUP6 PUSH1 0x20 DUP4 DUP6 ADD ADD GT ISZERO PUSH2 0x3E75 JUMPI PUSH0 PUSH0 REVERT JUMPDEST DUP2 PUSH1 0x20 DUP5 ADD PUSH1 0x20 DUP4 ADD MCOPY PUSH0 SWAP2 DUP2 ADD PUSH1 0x20 ADD SWAP2 SWAP1 SWAP2 MSTORE SWAP5 SWAP4 POP POP POP POP JUMP JUMPDEST PUSH0 PUSH1 0x1 DUP3 ADD PUSH2 0x3EA3 JUMPI PUSH2 0x3EA3 PUSH2 0x3BAE JUMP JUMPDEST POP PUSH1 0x1 ADD SWAP1 JUMP INVALID LOG2 PUSH5 0x6970667358 0x22 SLT KECCAK256 0x4B 0xAB GASPRICE 0xF7 0xB3 SWAP10 TIMESTAMP 0xB2 PUSH8 0x1F22FC08D04B756 RETURN SWAP13 DUP10 SMOD 0xBE GAS SWAP11 RETURNDATASIZE SWAP9 PUSH32 0xFC3E05893E64736F6C634300081F0033A26469706673582212200DB3845EA57F RETURNDATACOPY DATALOADN 0x8BF5 MSTORE8 0x4E 0xE PUSH10 0x8B37C5AC32C4E5A0009 BYTE LOG0 MUL DELEGATECALL CALLVALUE STOP BLOBBASEFEE 0xAA PUSH5 0x736F6C6343 STOP ADDMOD 0x1F STOP CALLER "
		},
		"gasEstimates": {
			"creation": {
				"codeDepositCost": "4191400",
				"executionCost": "4816",
				"totalCost": "4196216"
			},
			"external": {
				"changeClanOwner(address,address)": "infinite",
				"createClan(string,string,string,uint256,uint256)": "infinite",
				"getClanId(address)": "2555",
				"getClanOwner(address)": "2574",
				"removeClanFromOwned(address)": "27961"
			}
		},
		"methodIdentifiers": {
			"changeClanOwner(address,address)": "c6a9fa1f",
			"createClan(string,string,string,uint256,uint256)": "a812ce6d",
			"getClanId(address)": "5a10d060",
			"getClanOwner(address)": "64b9bf17",
			"removeClanFromOwned(address)": "1ed406b6"
		}
	},
	"abi": [
		{
			"anonymous": false,
			"inputs": [
				{
					"indexed": false,
					"internalType": "address",
					"name": "newOwner",
					"type": "address"
				},
				{
					"indexed": false,
					"internalType": "address",
					"name": "clanId",
					"type": "address"
				}
			],
			"name": "ChangeClanOwner",
			"type": "event"
		},
		{
			"anonymous": false,
			"inputs": [
				{
					"indexed": true,
					"internalType": "address",
					"name": "creatorAddress",
					"type": "address"
				},
				{
					"indexed": true,
					"internalType": "address",
					"name": "nftAddress",
					"type": "address"
				},
				{
					"indexed": false,
					"internalType": "string",
					"name": "name",
					"type": "string"
				}
			],
			"name": "ClanCreated",
			"type": "event"
		},
		{
			"anonymous": false,
			"inputs": [
				{
					"indexed": true,
					"internalType": "address",
					"name": "subCollection",
					"type": "address"
				},
				{
					"indexed": true,
					"internalType": "address",
					"name": "upperCollection",
					"type": "address"
				},
				{
					"indexed": false,
					"internalType": "bytes32",
					"name": "upperId",
					"type": "bytes32"
				}
			],
			"name": "ClanReconnected",
			"type": "event"
		},
		{
			"anonymous": false,
			"inputs": [
				{
					"indexed": true,
					"internalType": "address",
					"name": "clanId",
					"type": "address"
				}
			],
			"name": "ClanRemovedFromOwned",
			"type": "event"
		},
		{
			"inputs": [
				{
					"internalType": "address",
					"name": "newOwner",
					"type": "address"
				},
				{
					"internalType": "address",
					"name": "clanId",
					"type": "address"
				}
			],
			"name": "changeClanOwner",
			"outputs": [],
			"stateMutability": "nonpayable",
			"type": "function"
		},
		{
			"inputs": [
				{
					"internalType": "string",
					"name": "clanName",
					"type": "string"
				},
				{
					"internalType": "string",
					"name": "ancestorName",
					"type": "string"
				},
				{
					"internalType": "string",
					"name": "ancestorDesc",
					"type": "string"
				},
				{
					"internalType": "uint256",
					"name": "birthTimestamp",
					"type": "uint256"
				},
				{
					"internalType": "uint256",
					"name": "deathTimestamp",
					"type": "uint256"
				}
			],
			"name": "createClan",
			"outputs": [],
			"stateMutability": "nonpayable",
			"type": "function"
		},
		{
			"inputs": [
				{
					"internalType": "address",
					"name": "owner",
					"type": "address"
				}
			],
			"name": "getClanId",
			"outputs": [
				{
					"internalType": "address",
					"name": "",
					"type": "address"
				}
			],
			"stateMutability": "view",
			"type": "function"
		},
		{
			"inputs": [
				{
					"internalType": "address",
					"name": "clanId",
					"type": "address"
				}
			],
			"name": "getClanOwner",
			"outputs": [
				{
					"internalType": "address",
					"name": "",
					"type": "address"
				}
			],
			"stateMutability": "view",
			"type": "function"
		},
		{
			"inputs": [
				{
					"internalType": "address",
					"name": "clanId",
					"type": "address"
				}
			],
			"name": "removeClanFromOwned",
			"outputs": [],
			"stateMutability": "nonpayable",
			"type": "function"
		}
	]
}