{
	"data": {
		"bytecode": {
			"linkReferences": {},
			"object": "6080604052348015600e575f5ffd5b5061506d8061001c5f395ff3fe608060405234801561000f575f5ffd5b5060043610610055575f3560e01c80631ed406b6146100595780632cb819e11461006e5780635a10d0601461008157806364b9bf17146100c8578063c6a9fa1f146100f3575b5f5ffd5b61006c61006736600461041f565b610106565b005b61006c61007c366004610563565b6101b3565b6100ac61008f36600461041f565b6001600160a01b039081165f908152602081905260409020541690565b6040516001600160a01b03909116815260200160405180910390f35b6100ac6100d636600461041f565b6001600160a01b039081165f908152600160205260409020541690565b61006c61010136600461063e565b6102bc565b335f908152602081905260409020546001600160a01b038281169116146101645760405162461bcd60e51b815260206004820152600d60248201526c2737ba103a34329037bbb732b960991b60448201526064015b60405180910390fd5b335f9081526020819052604080822080546001600160a01b0319169055516001600160a01b038316917f106de2de224e5b1b7923506ff253ba0c501287d8730ae60b384e9ab22ad9656f91a250565b335f908152602081905260409020546001600160a01b0316156102075760405162461bcd60e51b815260206004820152600c60248201526b10db185b88195e1a5cdd195960a21b604482015260640161015b565b5f8686868686863360405161021b906103f7565b61022b979695949392919061069d565b604051809103905ff080158015610244573d5f5f3e3d5ffd5b50335f8181526020818152604080832080546001600160a01b0387166001600160a01b031991821681179092558185526001909352818420805490931685179092555193945084939092917f96c3db8b9d54eea401daeff24ecfc4358c587efa4d1325cf980b29406e7469d191a35050505050505050565b335f908152602081905260409020546001600160a01b038281169116146103125760405162461bcd60e51b815260206004820152600a60248201526927b7363c9037bbb732b960b11b604482015260640161015b565b6001600160a01b038281165f8181526020818152604080832080546001600160a01b03199081169688169687179091558584526001835281842080548216861790553384529183905291829020805490911690555163010aa5a760e11b815260048101919091526302154b4e906024015f604051808303815f87803b158015610399575f5ffd5b505af11580156103ab573d5f5f3e3d5ffd5b5050604080516001600160a01b038087168252851660208201527f01fbd754b6c8bcbbcaa42ef62223f951db6f88428bd87ec8902a5994fd604f7c935001905060405180910390a15050565b6148d98061075f83390190565b80356001600160a01b038116811461041a575f5ffd5b919050565b5f6020828403121561042f575f5ffd5b61043882610404565b9392505050565b634e487b7160e01b5f52604160045260245ffd5b5f82601f830112610462575f5ffd5b813567ffffffffffffffff81111561047c5761047c61043f565b604051601f8201601f19908116603f0116810167ffffffffffffffff811182821017156104ab576104ab61043f565b6040528181528382016020018510156104c2575f5ffd5b816020850160208301375f918101602001919091529392505050565b803560ff8116811461041a575f5ffd5b5f606082840312156104fe575f5ffd5b6040516060810167ffffffffffffffff811182821017156105215761052161043f565b604052905080823561ffff81168114610538575f5ffd5b8152610546602084016104de565b6020820152610557604084016104de565b60408201525092915050565b5f5f5f5f5f5f6101408789031215610579575f5ffd5b863567ffffffffffffffff81111561058f575f5ffd5b61059b89828a01610453565b965050602087013567ffffffffffffffff8111156105b7575f5ffd5b6105c389828a01610453565b955050604087013567ffffffffffffffff8111156105df575f5ffd5b6105eb89828a01610453565b945050606087013567ffffffffffffffff811115610607575f5ffd5b61061389828a01610453565b93505061062388608089016104ee565b91506106328860e089016104ee565b90509295509295509295565b5f5f6040838503121561064f575f5ffd5b61065883610404565b915061066660208401610404565b90509250929050565b5f81518084528060208401602086015e5f602082860101526020601f19601f83011685010191505092915050565b61016081525f6106b161016083018a61066f565b82810360208401526106c3818a61066f565b905082810360408401526106d7818961066f565b905082810360608401526106eb818861066f565b865161ffff166080850152602087015160ff90811660a086015260408801511660c085015291506107199050565b835161ffff1660e0830152602084015160ff9081166101008401526040850151166101208301526001600160a01b03929092166101409190910152969550505050505056fe608060405234801561000f575f5ffd5b506040516148d93803806148d983398101604081905261002e91610953565b60408051808201909152600681526546414d494c5960d01b602082015287908260025f848484848161005f336101fd565b6001600160a01b038116610086576040516306b620db60e21b815260040160405180910390fd5b61008f816101fd565b506040805180820190915260048152632936598960e21b60208201526100d6907feafec4d89fa9619884b60000a4d96624a38f7ac2d8d9a604ecf07c12c77e480c9061024c565b6101007fdeba1e292f8ba88238e10ab3c7f88bd4be4fac56cad5194b6ecceaf653468af18561024c565b61012a7f2f0a68ab07768e01943a599e73362a0e17a63a72e94dd2e384d2c1d4db9327568461024c565b6040805160208101839052610171917fe0261fa95db2eb3b5439bd033cda66d56b96f92f243a8228fd87550ed7bdfdb3910160408051601f1981840301815291905261024c565b505060408051602081018590526101bc93507ff675e9361af1c1664c1868cfa3eb97672d6b1a513aa5b81dec34c9ee330e818d92500160408051601f198184030181529190526102a0565b5050600880546001600160a01b0319163317905550600991506101e190508782610abe565b506101f08585835f8787610360565b5050505050505050610cc2565b5f80546001600160a01b038381166001600160a01b0319831681178455604051919092169283917f8be0079c531659141344cd1fd0a4f28419497f9722a3daafe3b4186f6b6457e09190a35050565b5f8281526001602052604090206102638282610abe565b50817fece574603820d07bc9b91f2a932baadf4628aabcb8afba49776529c14a6104b2826040516102949190610ba6565b60405180910390a25050565b7f2145e1d6d074577dc71ef54c3807742b41b053a9352ae6b491331509acb9750f82016102e0576040516385c169bd60e01b815260040160405180910390fd5b7fd0f59754f88971fe6bc5a6618cc9d5f1e859c58d16b22d1c7b2d3e2b246cd8aa820161032057604051630eceab6760e31b815260040160405180910390fd5b7f1fd9e056a24d14c4abc642fcc325992a946906d0dbc57dd70278aaf12842024d820161024c57604051634ef6d7fb60e01b815260040160405180910390fd5b5f61036f600680546001019055565b5060065460408051602081019091525f815261039190869083906001906104a1565b5f818152600760205260409020806103a98982610abe565b5083516006820180546020808801516040808a015161ffff96871662ffffff19958616176201000060ff94851681029190911763ff0000001990811663010000009386168402179097558a5160078a018054968d0151948d0151919099169590961694909417918316909302179093169190921690910217905560058101805486919060ff1916600183600281111561044457610444610bb8565b0217905550600881016104578882610abe565b506040516001600160a01b038716815282907fa6912c28a8cb5fc5cab504e471cfa6bc504444025484d810e2565bc7dead66579060200160405180910390a2509695505050505050565b6001600160a01b0384166104c8576040516324ecef4d60e01b815260040160405180910390fd5b5f838152600360205260409020546001600160a01b031615610505576040516334c7b51160e01b8152600481018490526024015b60405180910390fd5b5f838152600360205260409020546001600160a01b03161561053d576040516334c7b51160e01b8152600481018490526024016104fc565b60025f815461054b90610bcc565b909155506001600160a01b0384165f9081526004602052604090206105709084610617565b505f8381526003602052604080822080546001600160a01b0319166001600160a01b03881690811790915590518592907fb333c813a7426a7a11e2b190cad52c44119421594b47f6f32ace6d8c7207b2bf906105d190339088908890610bf0565b60405180910390a45f335f8686856040516020016105f3959493929190610c24565b60408051601f19818403018152919052905061061085848361062b565b5050505050565b5f6106228383610739565b90505b92915050565b61063c83631aed5a8560e21b610785565b156106d757604051631aed5a8560e21b81526001600160a01b03841690636bb56a149061068f907f0b084a55ebf70fd3c06fd755269dac2212c4d3f0f4d09079780bfa50c1b2984d908590600401610c5e565b5f604051808303815f875af11580156106aa573d5f5f3e3d5ffd5b505050506040513d5f823e601f3d908101601f191682016040526106d19190810190610c7e565b50505050565b81610734576001600160a01b0383163b1561071057604051634349776d60e01b81526001600160a01b03841660048201526024016104fc565b604051630317313760e01b81526001600160a01b03841660048201526024016104fc565b505050565b5f81815260018301602052604081205461077e57508154600181810184555f848152602080822090930184905584548482528286019093526040902091909155610625565b505f610625565b604080516001600160e01b03198316602480830191909152825180830390910181526044909101909152602080820180516001600160e01b03166301ffc9a760e01b17815282515f9392849283928392918391908a617530fa92503d91505f5190508280156107f5575060208210155b801561080057505f81115b979650505050505050565b634e487b7160e01b5f52604160045260245ffd5b5f806001600160401b038411156108385761083861080b565b50604051601f19601f85018116603f011681018181106001600160401b03821117156108665761086661080b565b60405283815290508082840185101561087d575f5ffd5b8383602083015e5f60208583010152509392505050565b5f82601f8301126108a3575f5ffd5b6106228383516020850161081f565b805160ff811681146108c2575f5ffd5b919050565b5f606082840312156108d7575f5ffd5b604051606081016001600160401b03811182821017156108f9576108f961080b565b8060405250809150825161ffff81168114610912575f5ffd5b8152610920602084016108b2565b6020820152610931604084016108b2565b60408201525092915050565b80516001600160a01b03811681146108c2575f5ffd5b5f5f5f5f5f5f5f610160888a03121561096a575f5ffd5b87516001600160401b0381111561097f575f5ffd5b61098b8a828b01610894565b60208a015190985090506001600160401b038111156109a8575f5ffd5b6109b48a828b01610894565b60408a015190975090506001600160401b038111156109d1575f5ffd5b6109dd8a828b01610894565b60608a015190965090506001600160401b038111156109fa575f5ffd5b610a068a828b01610894565b945050610a168960808a016108c7565b9250610a258960e08a016108c7565b9150610a34610140890161093d565b905092959891949750929550565b600181811c90821680610a5657607f821691505b602082108103610a7457634e487b7160e01b5f52602260045260245ffd5b50919050565b601f82111561073457805f5260205f20601f840160051c81016020851015610a9f5750805b601f840160051c820191505b81811015610610575f8155600101610aab565b81516001600160401b03811115610ad757610ad761080b565b610aeb81610ae58454610a42565b84610a7a565b6020601f821160018114610b1d575f8315610b065750848201515b5f19600385901b1c1916600184901b178455610610565b5f84815260208120601f198516915b82811015610b4c5787850151825560209485019460019092019101610b2c565b5084821015610b6957868401515f19600387901b60f8161c191681555b50505050600190811b01905550565b5f81518084528060208401602086015e5f602082860101526020601f19601f83011685010191505092915050565b602081525f6106226020830184610b78565b634e487b7160e01b5f52602160045260245ffd5b5f60018201610be957634e487b7160e01b5f52601160045260245ffd5b5060010190565b6001600160a01b038416815282151560208201526060604082018190525f90610c1b90830184610b78565b95945050505050565b6001600160a01b0386811682528581166020830152841660408201526060810183905260a0608082018190525f9061080090830184610b78565b828152604060208201525f610c766040830184610b78565b949350505050565b5f60208284031215610c8e575f5ffd5b81516001600160401b03811115610ca3575f5ffd5b8201601f81018413610cb3575f5ffd5b610c768482516020840161081f565b613c0a80610ccf5f395ff3fe6080604052600436106101fc575f3560e01c806378495bf81161010c57806392b88f061161009f578063d6c1407c1161006e578063d6c1407c14610658578063db8c966314610677578063dedff9c614610696578063e4ac8dbd146106b5578063f2fde38b146106c957610255565b806392b88f06146105ce57806397902421146105fa578063a3b261f21461060d578063be9f0e6f1461063957610255565b806386a10ddd116100db57806386a10ddd146105555780638da5cb5b146105745780638e945045146105905780638f81ecfc146105af57610255565b806378495bf8146104ee5780637e87632c146105045780637e913b05146105235780637f23690c1461054257610255565b8063217b22701161018f578063511b69521161015e578063511b69521461045e57806354f6127f1461047d5780636963d4381461049c57806370a08231146104bb578063715018a6146104da57610255565b8063217b2270146103d55780632a3654a4146103f45780633187a67f1461041357806349a6078d1461043257610255565b806316e023b3116101cb57806316e023b31461032857806318160ddd146103545780631d26fce6146103725780631f1217081461039e57610255565b806301ffc9a71461029557806302154b4e146102c95780630cfa4650146102ea57806314f8ce6c1461030957610255565b3661025557345f0361023c5760405163e5099ee360e01b81526004016102339060208082526004908201525f604082015260600190565b60405180910390fd5b6040516330fa4a2160e11b815260040160405180910390fd5b5f366060600482101561027f57828260405163e5099ee360e01b8152600401610233929190612bae565b61028983836106e8565b80519350602001915050f35b3480156102a0575f5ffd5b506102b46102af366004612bdc565b6107d7565b60405190151581526020015b60405180910390f35b3480156102d4575f5ffd5b506102e86102e3366004612c1e565b61080a565b005b3480156102f5575f5ffd5b506102e8610304366004612cf5565b61085d565b348015610314575f5ffd5b506102e8610323366004612daa565b6108aa565b348015610333575f5ffd5b50610347610342366004612e39565b6109c8565b6040516102c09190612e87565b34801561035f575f5ffd5b506002545b6040519081526020016102c0565b34801561037d575f5ffd5b5061039161038c366004612f20565b6109db565b6040516102c09190612f83565b3480156103a9575f5ffd5b506008546103bd906001600160a01b031681565b6040516001600160a01b0390911681526020016102c0565b3480156103e0575f5ffd5b506103bd6103ef366004612fe6565b610ac1565b3480156103ff575f5ffd5b506102b461040e366004612ffd565b610af9565b34801561041e575f5ffd5b506102e861042d366004613025565b610b04565b34801561043d575f5ffd5b5061045161044c366004612fe6565b610bcf565b6040516102c091906130c8565b348015610469575f5ffd5b506102e8610478366004613122565b610bf0565b348015610488575f5ffd5b50610347610497366004612fe6565b610c34565b3480156104a7575f5ffd5b506103916104b6366004613195565b610c3f565b3480156104c6575f5ffd5b506103646104d5366004612c1e565b610d69565b3480156104e5575f5ffd5b506102e8610d89565b3480156104f9575f5ffd5b506006546103649081565b34801561050f575f5ffd5b506102e861051e366004613346565b610d9c565b34801561052e575f5ffd5b506102e861053d366004612e39565b610e8a565b6102e8610550366004613417565b611013565b348015610560575f5ffd5b506102e861056f366004613450565b611048565b34801561057f575f5ffd5b505f546001600160a01b03166103bd565b34801561059b575f5ffd5b506102e86105aa366004612daa565b6111bf565b3480156105ba575f5ffd5b506102e86105c9366004612e39565b611274565b3480156105d9575f5ffd5b506105ed6105e8366004612fe6565b611459565b6040516102c09190613510565b6102e8610608366004613613565b611701565b348015610618575f5ffd5b5061062c610627366004612c1e565b611732565b6040516102c0919061366c565b348015610644575f5ffd5b506102e861065336600461367e565b611755565b348015610663575f5ffd5b506102e86106723660046136ff565b611818565b348015610682575f5ffd5b506102e8610691366004613734565b61186c565b3480156106a1575f5ffd5b506103916106b0366004613797565b61194d565b3480156106c0575f5ffd5b506103476119f6565b3480156106d4575f5ffd5b506102e86106e3366004612c1e565b611a82565b60605f6106ff5f356001600160e01b031916611aef565b5090506001600160a01b0381166107365760405163bb370b2b60e01b81526001600160e01b03195f35166004820152602401610233565b5f5f826001600160a01b0316348787333460405160200161075a94939291906137c8565b60408051601f1981840301815290829052610774916137f3565b5f6040518083038185875af1925050503d805f81146107ae576040519150601f19603f3d011682016040523d82523d5f602084013e6107b3565b606091505b509150915081156107c85792506107d1915050565b80518060208301fd5b92915050565b5f6001600160e01b03198216631d138b8360e11b14806107fb57506107fb82611b6b565b806107d157506107d182611b8f565b6008546001600160a01b031633146108515760405162461bcd60e51b815260206004820152600a602482015269139bdd081c195c9b5a5d60b21b6044820152606401610233565b61085a81611bc4565b50565b610865611c13565b6009610871828261387f565b505f80546040516001600160a01b03909116917f52dfe4fd4c28a03cd8ab0af4995f1caf006268a90c0e57cbd291d33f358fbc2f91a250565b845f6108b582610ac1565b9050336001600160a01b03821614806108d757505f546001600160a01b031633145b6108f35760405162461bcd60e51b815260040161023390613939565b5f8781526007602052604090208061090b888261387f565b5084516006820180546020808901516040808b015161ffff96871662ffffff19958616176201000060ff94851681029190911763ff0000001990811663010000009386168402179097558b5160078a018054968e0151948e0151919099169590961694909417918316909302179093169190921690910217905560088101610993878261387f565b5060405188907f088b778b9aa1c8317c051d681d7e71c9f3e40c539fbaf5cadfd37476c1b15dec905f90a25050505050505050565b60606109d48383611c6c565b9392505050565b606081518351146109ff576040516317d38eff60e11b815260040160405180910390fd5b82516001600160401b03811115610a1857610a18612c37565b604051908082528060200260200182016040528015610a4b57816020015b6060815260200190600190039081610a365790505b5090505f5b8351811015610aba57610a95848281518110610a6e57610a6e613961565b6020026020010151848381518110610a8857610a88613961565b6020026020010151611c6c565b828281518110610aa757610aa7613961565b6020908102919091010152600101610a50565b5092915050565b5f818152600360205260408120546001600160a01b0316806107d157604051635747cd1b60e11b815260048101849052602401610233565b5f6109d48383611d3f565b855f610b0f82610ac1565b9050336001600160a01b0382161480610b3157505f546001600160a01b031633145b610b4d5760405162461bcd60e51b815260040161023390613939565b5f88815260076020526040812090610b698989338a8a8a611d7a565b600383018054600181810183555f9283526020808420909201849055838352600790915260408083209091018d90555191925082918c917f95afc0d374f4e4b0d262be4433e573b5862c9fb50c22ee6438a313040f5487cc91a350505050505050505050565b6060610bda82611ebb565b5f8281526005602052604090206107d190611ef2565b610bfa3384611d3f565b610c2057604051631294d2a960e01b815260048101849052336024820152604401610233565b610c2d8585858585611efe565b5050505050565b60606107d1826120da565b6060816001600160401b03811115610c5957610c59612c37565b604051908082528060200260200182016040528015610c8c57816020015b6060815260200190600190039081610c775790505b5090505f5b82811015610aba575f8030868685818110610cae57610cae613961565b9050602002810190610cc09190613975565b604051610cce9291906139be565b5f60405180830381855af49150503d805f8114610d06576040519150601f19603f3d011682016040523d82523d5f602084013e610d0b565b606091505b509150915081610d4157805115610d255780518082602001fd5b60405163234eb81960e01b815260048101849052602401610233565b80848481518110610d5457610d54613961565b60209081029190910101525050600101610c91565b6001600160a01b0381165f9081526004602052604081206107d190612179565b610d91611c13565b610d9a5f611bc4565b565b8451845181141580610daf575083518114155b80610dbb575082518114155b80610dc7575081518114155b15610de5576040516393a8311960e01b815260040160405180910390fd5b5f5b81811015610e8157610e79878281518110610e0457610e04613961565b6020026020010151878381518110610e1e57610e1e613961565b6020026020010151878481518110610e3857610e38613961565b6020026020010151878581518110610e5257610e52613961565b6020026020010151878681518110610e6c57610e6c613961565b6020026020010151610bf0565b600101610de7565b50505050505050565b815f610e9582610ac1565b9050336001600160a01b0382161480610eb757505f546001600160a01b031633145b610ed35760405162461bcd60e51b815260040161023390613939565b5f848152600760205260408120905b6004820154811015610fd15784826004018281548110610f0457610f04613961565b905f5260205f20015403610fc95760048201545f90610f25906001906139e1565b9050808214610f6d57826004018181548110610f4357610f43613961565b905f5260205f200154836004018381548110610f6157610f61613961565b5f918252602090912001555b82600401805480610f8057610f806139f4565b600190038181905f5260205f20015f9055905585877ff1387b2f8963ca7947c75faa29a4c7de0859d44c5f9a658761acbdc5d539976b60405160405180910390a350505061100d565b600101610ee2565b5060405162461bcd60e51b815260206004820152601060248201526f14dc1bdd5cd9481b9bdd08199bdd5b9960821b6044820152606401610233565b50505050565b61101b611c13565b341561103a5760405163f36ba73760e01b815260040160405180910390fd5b6110448282612182565b5050565b5f61105283610ac1565b90506001600160a01b038116331461109557604051632d938f5160e11b81526001600160a01b038216600482015260248101849052336044820152606401610233565b6001600160a01b0384166110bc57604051639577b8b360e01b815260040160405180910390fd5b836001600160a01b0316816001600160a01b0316036110ee576040516344fed6b160e11b815260040160405180910390fd5b5f83815260056020526040812061110590866121cc565b905080611137576040516314ec4d6d60e31b81526001600160a01b038616600482015260248101859052604401610233565b83826001600160a01b0316866001600160a01b03167f1b1b58aa2ec0cec2228b2d37124556d41f5a1f7b12f089171f896cc2366712158660405161117b9190612e87565b60405180910390a45f338560018660405160200161119c9493929190613a08565b60405160208183030381529060405290506111b786826121e0565b505050505050565b845f6111ca82610ac1565b9050336001600160a01b03821614806111ec57505f546001600160a01b031633145b6112085760405162461bcd60e51b815260040161023390613939565b5f61121887873360018989611d7a565b5f81815260076020908152604080832060040180546001810182559084529183209091018390555191925082918a917fca4757636f927657c127875c4f0c0ec6e1f84d4769348f20fff39486a4bb2c3f91a35050505050505050565b815f61127f82610ac1565b9050336001600160a01b03821614806112a157505f546001600160a01b031633145b6112bd5760405162461bcd60e51b815260040161023390613939565b5f848152600760205260408082208583529120600181015486146113235760405162461bcd60e51b815260206004820152601860248201527f4e6f74206368696c64206f66207468697320706572736f6e00000000000000006044820152606401610233565b5f5b600383015481101561141e578583600301828154811061134757611347613961565b905f5260205f200154036114165760038301545f90611368906001906139e1565b90508082146113b05783600301818154811061138657611386613961565b905f5260205f2001548460030183815481106113a4576113a4613961565b5f918252602090912001555b836003018054806113c3576113c36139f4565b5f8281526020812082015f199081018290559091019091556001840181905560405188918a917fd22ef99c12aeaecac27f6067207b23ac6a9ae5f21e97134b39e98320aa04fa5d9190a35050505061100d565b600101611325565b5060405162461bcd60e51b815260206004820152600f60248201526e10da1a5b19081b9bdd08199bdd5b99608a1b6044820152606401610233565b611461612b2a565b5f82815260076020526040908190208151610120810190925280548290829061148990613809565b80601f01602080910402602001604051908101604052809291908181526020018280546114b590613809565b80156115005780601f106114d757610100808354040283529160200191611500565b820191905f5260205f20905b8154815290600101906020018083116114e357829003601f168201915b5050505050815260200160018201548152602001600282015481526020016003820180548060200260200160405190810160405280929190818152602001828054801561156a57602002820191905f5260205f20905b815481526020019060010190808311611556575b50505050508152602001600482018054806020026020016040519081016040528092919081815260200182805480156115c057602002820191905f5260205f20905b8154815260200190600101908083116115ac575b5050509183525050600582015460209091019060ff1660028111156115e7576115e76134dc565b60028111156115f8576115f86134dc565b81526040805160608082018352600685015461ffff808216845260ff620100008084048216602087810191909152630100000094859004831687890152808901969096528651808601885260078a0154938416815290830482169581019590955291900416828401529183015260088301805491909201919061167a90613809565b80601f01602080910402602001604051908101604052809291908181526020018280546116a690613809565b80156116f15780601f106116c8576101008083540402835291602001916116f1565b820191905f5260205f20905b8154815290600101906020018083116116d457829003601f168201915b5050505050815250509050919050565b611709611c13565b34156117285760405163f36ba73760e01b815260040160405180910390fd5b611044828261220b565b6001600160a01b0381165f9081526004602052604090206060906107d190611ef2565b61175d611c13565b8151835114158061177057508051825114155b1561178e576040516317d38eff60e11b815260040160405180910390fd5b82515f036117af576040516380c9830560e01b815260040160405180910390fd5b5f5b835181101561100d576118108482815181106117cf576117cf613961565b60200260200101518483815181106117e9576117e9613961565b602002602001015184848151811061180357611803613961565b60200260200101516122a2565b6001016117b1565b825f61182382610ac1565b9050336001600160a01b038216148061184557505f546001600160a01b031633145b6118615760405162461bcd60e51b815260040161023390613939565b610c2d8585856122a2565b5f61187684610ac1565b9050336001600160a01b038216146118c9576001600160a01b03851633146118c95760405163760b5acd60e01b81523360048201526001600160a01b038216602482015260448101859052606401610233565b6001600160a01b0385166118f057604051639577b8b360e01b815260040160405180910390fd5b846001600160a01b0316816001600160a01b031603611922576040516344fed6b160e11b815260040160405180910390fd5b61192f8582868686612330565b8215610c2d575f81855f8560405160200161119c9493929190613a08565b606081516001600160401b0381111561196857611968612c37565b60405190808252806020026020018201604052801561199b57816020015b60608152602001906001900390816119865790505b5090505f5b82518110156119f0576119cb8382815181106119be576119be613961565b60200260200101516120da565b8282815181106119dd576119dd613961565b60209081029190910101526001016119a0565b50919050565b60098054611a0390613809565b80601f0160208091040260200160405190810160405280929190818152602001828054611a2f90613809565b8015611a7a5780601f10611a5157610100808354040283529160200191611a7a565b820191905f5260205f20905b815481529060010190602001808311611a5d57829003601f168201915b505050505081565b611a8a611c13565b6001600160a01b0381166108515760405162461bcd60e51b815260206004820152602660248201527f4f776e61626c653a206e6577206f776e657220697320746865207a65726f206160448201526564647265737360d01b6064820152608401610233565b5f8080611b13696773c5a04a6d4300884b60b11b6001600160e01b031986166123cf565b90505f611b1f826120da565b90508051601414158015611b335750805115155b15611b5357806040516342bfe79f60e01b81526004016102339190612e87565b611b5c81613a40565b60601c95600195509350505050565b5f6001600160e01b0319821663a918fa6b60e01b14806107d157506107d182612422565b5f80611ba16301ffc9a760e01b611aef565b5090506001600160a01b038116611bba57505f92915050565b6109d48184612456565b5f80546001600160a01b038381166001600160a01b0319831681178455604051919092169283917f8be0079c531659141344cd1fd0a4f28419497f9722a3daafe3b4186f6b6457e09190a35050565b5f546001600160a01b03163314610d9a5760405162461bcd60e51b815260206004820181905260248201527f4f776e61626c653a2063616c6c6572206973206e6f7420746865206f776e65726044820152606401610233565b606060015f8484604051602001611c8d929190918252602082015260400190565b6040516020818303038152906040528051906020012081526020019081526020015f208054611cbb90613809565b80601f0160208091040260200160405190810160405280929190818152602001828054611ce790613809565b8015611d325780601f10611d0957610100808354040283529160200191611d32565b820191905f5260205f20905b815481529060010190602001808311611d1557829003601f168201915b5050505050905092915050565b5f611d4982610ac1565b6001600160a01b0316836001600160a01b031614806109d457505f8281526005602052604090206109d490846124dc565b5f611d89600680546001019055565b6006545f1b9050611dab8582600160405180602001604052805f8152506124fd565b5f81815260076020526040902080611dc3898261387f565b5083516006820180546020808801516040808a015161ffff96871662ffffff19958616176201000060ff94851681029190911763ff0000001990811663010000009386168402179097558a5160078a018054968d0151948d0151919099169590961694909417918316909302179093169190921690910217905560058101805486919060ff19166001836002811115611e5e57611e5e6134dc565b021790555060088101611e71888261387f565b506040516001600160a01b038716815282907fa6912c28a8cb5fc5cab504e471cfa6bc504444025484d810e2565bc7dead66579060200160405180910390a2509695505050505050565b5f818152600360205260409020546001600160a01b031661085a57604051635747cd1b60e11b815260048101829052602401610233565b60605f6109d483612666565b5f611f0884610ac1565b9050856001600160a01b0316816001600160a01b031614611f5657604051632d938f5160e11b81526001600160a01b0380831660048301526024820186905287166044820152606401610233565b6001600160a01b038516611f7d576040516324ecef4d60e01b815260040160405180910390fd5b5f611f8785610ac1565b9050806001600160a01b0316826001600160a01b031614611fd557604051635a9c31d360e01b8152600481018690526001600160a01b03808416602483015282166044820152606401610233565b611fdf87866126be565b6001600160a01b0387165f9081526004602052604090206120009086612711565b506001600160a01b0386165f908152600460205260409020612022908661271c565b505f858152600360205260409081902080546001600160a01b0319166001600160a01b0389811691821790925591518792918a16907fb333c813a7426a7a11e2b190cad52c44119421594b47f6f32ace6d8c7207b2bf906120889033908a908a90613a8e565b60405180910390a45f33888888876040516020016120aa959493929190613ab9565b60405160208183030381529060405290506120c58882612727565b6120d0878683612752565b5050505050505050565b5f8181526001602052604090208054606091906120f690613809565b80601f016020809104026020016040519081016040528092919081815260200182805461212290613809565b801561216d5780601f106121445761010080835404028352916020019161216d565b820191905f5260205f20905b81548152906001019060200180831161215057829003601f168201915b50505050509050919050565b5f6107d1825490565b7f098a16c9e50e3e99b3e797305c146898d294e5aec55a47e213cb3611ccf17e7382016121c257604051631b32400560e11b815260040160405180910390fd5b6110448282612855565b5f6109d4836001600160a01b038416612969565b611044827f8a1c15a8799f71b547e08e2bcb2e85257e81b0a07eee2ce6712549eef1f00970836129b5565b805182511461222d57604051633bcc897960e01b815260040160405180910390fd5b81515f0361224e576040516397da5f9560e01b815260040160405180910390fd5b5f5b825181101561229d5761229583828151811061226e5761226e613961565b602002602001015183838151811061228857612288613961565b6020026020010151612182565b600101612250565b505050565b8060015f85856040516020016122c2929190918252602082015260400190565b6040516020818303038152906040528051906020012081526020019081526020015f2090816122f1919061387f565b5081837fa6e4251f855f750545fe414f120db91c76b88def14d120969e5bb2d3f05debbb836040516123239190612e87565b60405180910390a3505050565b5f8381526005602052604081206123479087612a02565b905080612379576040516312a8c6a360e21b81526001600160a01b038716600482015260248101859052604401610233565b83856001600160a01b0316876001600160a01b03167fc78cd419d6136f9f1c1c6aec1d3fae098cffaf8bc86314a8f2685e32fe574e3c86866040516123bf929190613af3565b60405180910390a4505050505050565b604080516001600160b01b0319841660208201525f602a82018190526001600160601b03198416602c8301529182910160405160208183030381529060405290508061241a90613b0d565b949350505050565b5f6001600160e01b031982166318a6a9a560e21b14806107d157506301ffc9a760e01b6001600160e01b03198316146107d1565b604080516001600160e01b03198316602480830191909152825180830390910181526044909101909152602080820180516001600160e01b03166301ffc9a760e01b17815282515f9392849283928392918391908a617530fa92503d91505f5190508280156124c6575060208210155b80156124d157505f81115b979650505050505050565b6001600160a01b0381165f90815260018301602052604081205415156109d4565b6001600160a01b038416612524576040516324ecef4d60e01b815260040160405180910390fd5b5f838152600360205260409020546001600160a01b03161561255c576040516334c7b51160e01b815260048101849052602401610233565b5f838152600360205260409020546001600160a01b031615612594576040516334c7b51160e01b815260048101849052602401610233565b60025f81546125a290613b30565b909155506001600160a01b0384165f9081526004602052604090206125c7908461271c565b505f8381526003602052604080822080546001600160a01b0319166001600160a01b03881690811790915590518592907fb333c813a7426a7a11e2b190cad52c44119421594b47f6f32ace6d8c7207b2bf9061262890339088908890613a8e565b60405180910390a45f335f86868560405160200161264a959493929190613ab9565b6040516020818303038152906040529050610c2d858483612752565b6060815f0180548060200260200160405190810160405280929190818152602001828054801561216d57602002820191905f5260205f20905b81548152602001906001019080831161269f5750505050509050919050565b5f818152600560205260408120906126d582612179565b90505f5f5b828110156111b7576126ec845f612a16565b91506127098287875f60405180602001604052805f815250612330565b6001016126da565b5f6109d48383612a21565b5f6109d48383612969565b611044827fb23eae7e6d1564b295b4c3e3be402d9a2f0776c57bdf365903496f6fa481ab00836129b5565b61276383631aed5a8560e21b612456565b156127f857604051631aed5a8560e21b81526001600160a01b03841690636bb56a14906127b6907f0b084a55ebf70fd3c06fd755269dac2212c4d3f0f4d09079780bfa50c1b2984d908590600401613b48565b5f604051808303815f875af11580156127d1573d5f5f3e3d5ffd5b505050506040513d5f823e601f3d908101601f1916820160405261100d9190810190613b60565b8161229d576001600160a01b0383163b1561283157604051634349776d60e01b81526001600160a01b0384166004820152602401610233565b604051630317313760e01b81526001600160a01b0384166004820152602401610233565b7f2145e1d6d074577dc71ef54c3807742b41b053a9352ae6b491331509acb9750f8201612895576040516385c169bd60e01b815260040160405180910390fd5b7fd0f59754f88971fe6bc5a6618cc9d5f1e859c58d16b22d1c7b2d3e2b246cd8aa82016128d557604051630eceab6760e31b815260040160405180910390fd5b7f1fd9e056a24d14c4abc642fcc325992a946906d0dbc57dd70278aaf12842024d820161291557604051634ef6d7fb60e01b815260040160405180910390fd5b5f82815260016020526040902061292c828261387f565b50817fece574603820d07bc9b91f2a932baadf4628aabcb8afba49776529c14a6104b28260405161295d9190612e87565b60405180910390a25050565b5f8181526001830160205260408120546129ae57508154600181810184555f8481526020808220909301849055845484825282860190935260409020919091556107d1565b505f6107d1565b6129cf6001600160a01b038416631aed5a8560e21b612456565b1561229d57604051631aed5a8560e21b81526001600160a01b03841690636bb56a14906127b69085908590600401613b48565b5f6109d4836001600160a01b038416612a21565b5f6109d48383612b04565b5f8181526001830160205260408120548015612afb575f612a436001836139e1565b85549091505f90612a56906001906139e1565b9050818114612ab5575f865f018281548110612a7457612a74613961565b905f5260205f200154905080875f018481548110612a9457612a94613961565b5f918252602080832090910192909255918252600188019052604090208390555b8554869080612ac657612ac66139f4565b600190038181905f5260205f20015f90559055856001015f8681526020019081526020015f205f9055600193505050506107d1565b5f9150506107d1565b5f825f018281548110612b1957612b19613961565b905f5260205f200154905092915050565b604051806101200160405280606081526020015f81526020015f815260200160608152602001606081526020015f6002811115612b6957612b696134dc565b815260408051606080820183525f8083526020808401829052838501829052808601939093528351808301855281815292830181905282840152918301529081015290565b60208152816020820152818360408301375f818301604090810191909152601f909201601f19160101919050565b5f60208284031215612bec575f5ffd5b81356001600160e01b0319811681146109d4575f5ffd5b80356001600160a01b0381168114612c19575f5ffd5b919050565b5f60208284031215612c2e575f5ffd5b6109d482612c03565b634e487b7160e01b5f52604160045260245ffd5b604051601f8201601f191681016001600160401b0381118282101715612c7357612c73612c37565b604052919050565b5f6001600160401b03821115612c9357612c93612c37565b50601f01601f191660200190565b5f82601f830112612cb0575f5ffd5b8135602083015f612cc8612cc384612c7b565b612c4b565b9050828152858383011115612cdb575f5ffd5b828260208301375f92810160200192909252509392505050565b5f60208284031215612d05575f5ffd5b81356001600160401b03811115612d1a575f5ffd5b61241a84828501612ca1565b803560ff81168114612c19575f5ffd5b5f60608284031215612d46575f5ffd5b604051606081016001600160401b0381118282101715612d6857612d68612c37565b604052905080823561ffff81168114612d7f575f5ffd5b8152612d8d60208401612d26565b6020820152612d9e60408401612d26565b60408201525092915050565b5f5f5f5f5f6101208688031215612dbf575f5ffd5b8535945060208601356001600160401b03811115612ddb575f5ffd5b612de788828901612ca1565b94505060408601356001600160401b03811115612e02575f5ffd5b612e0e88828901612ca1565b935050612e1e8760608801612d36565b9150612e2d8760c08801612d36565b90509295509295909350565b5f5f60408385031215612e4a575f5ffd5b50508035926020909101359150565b5f81518084528060208401602086015e5f602082860101526020601f19601f83011685010191505092915050565b602081525f6109d46020830184612e59565b5f6001600160401b03821115612eb157612eb1612c37565b5060051b60200190565b5f82601f830112612eca575f5ffd5b8135612ed8612cc382612e99565b8082825260208201915060208360051b860101925085831115612ef9575f5ffd5b602085015b83811015612f16578035835260209283019201612efe565b5095945050505050565b5f5f60408385031215612f31575f5ffd5b82356001600160401b03811115612f46575f5ffd5b612f5285828601612ebb565b92505060208301356001600160401b03811115612f6d575f5ffd5b612f7985828601612ebb565b9150509250929050565b5f602082016020835280845180835260408501915060408160051b8601019250602086015f5b82811015612fda57603f19878603018452612fc5858351612e59565b94506020938401939190910190600101612fa9565b50929695505050505050565b5f60208284031215612ff6575f5ffd5b5035919050565b5f5f6040838503121561300e575f5ffd5b61301783612c03565b946020939093013593505050565b5f5f5f5f5f5f610140878903121561303b575f5ffd5b8635955060208701356001600160401b03811115613057575f5ffd5b61306389828a01612ca1565b95505060408701356001600160401b0381111561307e575f5ffd5b61308a89828a01612ca1565b94505060608701356003811061309e575f5ffd5b92506130ad8860808901612d36565b91506130bc8860e08901612d36565b90509295509295509295565b602080825282518282018190525f918401906040840190835b818110156131085783516001600160a01b03168352602093840193909201916001016130e1565b509095945050505050565b80358015158114612c19575f5ffd5b5f5f5f5f5f60a08688031215613136575f5ffd5b61313f86612c03565b945061314d60208701612c03565b93506040860135925061316260608701613113565b915060808601356001600160401b0381111561317c575f5ffd5b61318888828901612ca1565b9150509295509295909350565b5f5f602083850312156131a6575f5ffd5b82356001600160401b038111156131bb575f5ffd5b8301601f810185136131cb575f5ffd5b80356001600160401b038111156131e0575f5ffd5b8560208260051b84010111156131f4575f5ffd5b6020919091019590945092505050565b5f82601f830112613213575f5ffd5b8135613221612cc382612e99565b8082825260208201915060208360051b860101925085831115613242575f5ffd5b602085015b83811015612f165761325881612c03565b835260209283019201613247565b5f82601f830112613275575f5ffd5b8135613283612cc382612e99565b8082825260208201915060208360051b8601019250858311156132a4575f5ffd5b602085015b83811015612f16576132ba81613113565b8352602092830192016132a9565b5f82601f8301126132d7575f5ffd5b81356132e5612cc382612e99565b8082825260208201915060208360051b860101925085831115613306575f5ffd5b602085015b83811015612f165780356001600160401b03811115613328575f5ffd5b613337886020838a0101612ca1565b8452506020928301920161330b565b5f5f5f5f5f60a0868803121561335a575f5ffd5b85356001600160401b0381111561336f575f5ffd5b61337b88828901613204565b95505060208601356001600160401b03811115613396575f5ffd5b6133a288828901613204565b94505060408601356001600160401b038111156133bd575f5ffd5b6133c988828901612ebb565b93505060608601356001600160401b038111156133e4575f5ffd5b6133f088828901613266565b92505060808601356001600160401b0381111561340b575f5ffd5b613188888289016132c8565b5f5f60408385031215613428575f5ffd5b8235915060208301356001600160401b03811115613444575f5ffd5b612f7985828601612ca1565b5f5f5f60608486031215613462575f5ffd5b61346b84612c03565b92506020840135915060408401356001600160401b0381111561348c575f5ffd5b61349886828701612ca1565b9150509250925092565b5f8151808452602084019350602083015f5b828110156134d25781518652602095860195909101906001016134b4565b5093949350505050565b634e487b7160e01b5f52602160045260245ffd5b6003811061350c57634e487b7160e01b5f52602160045260245ffd5b9052565b602081525f82516101a0602084015261352d6101c0840182612e59565b905060208401516040840152604084015160608401526060840151601f1984830301608085015261355e82826134a2565b9150506080840151601f198483030160a085015261357c82826134a2565b91505060a084015161359160c08501826134f0565b5060c0840151805161ffff1660e0850152602081015160ff9081166101008601526040820151166101208501525060e0840151805161ffff16610140850152602081015160ff90811661016086015260408201511661018085015250610100840151838203601f19016101a085015261360a8282612e59565b95945050505050565b5f5f60408385031215613624575f5ffd5b82356001600160401b03811115613639575f5ffd5b61364585828601612ebb565b92505060208301356001600160401b03811115613660575f5ffd5b612f79858286016132c8565b602081525f6109d460208301846134a2565b5f5f5f60608486031215613690575f5ffd5b83356001600160401b038111156136a5575f5ffd5b6136b186828701612ebb565b93505060208401356001600160401b038111156136cc575f5ffd5b6136d886828701612ebb565b92505060408401356001600160401b038111156136f3575f5ffd5b613498868287016132c8565b5f5f5f60608486031215613711575f5ffd5b833592506020840135915060408401356001600160401b0381111561348c575f5ffd5b5f5f5f5f60808587031215613747575f5ffd5b61375085612c03565b93506020850135925061376560408601613113565b915060608501356001600160401b0381111561377f575f5ffd5b61378b87828801612ca1565b91505092959194509250565b5f602082840312156137a7575f5ffd5b81356001600160401b038111156137bc575f5ffd5b61241a84828501612ebb565b8385823760609290921b6001600160601b031916919092019081526014810191909152603401919050565b5f82518060208501845e5f920191825250919050565b600181811c9082168061381d57607f821691505b6020821081036119f057634e487b7160e01b5f52602260045260245ffd5b601f82111561229d57805f5260205f20601f840160051c810160208510156138605750805b601f840160051c820191505b81811015610c2d575f815560010161386c565b81516001600160401b0381111561389857613898612c37565b6138ac816138a68454613809565b8461383b565b6020601f8211600181146138de575f83156138c75750848201515b5f19600385901b1c1916600184901b178455610c2d565b5f84815260208120601f198516915b8281101561390d57878501518255602094850194600190920191016138ed565b508482101561392a57868401515f19600387901b60f8161c191681555b50505050600190811b01905550565b6020808252600e908201526d139bdd08185d5d1a1bdc9a5e995960921b604082015260600190565b634e487b7160e01b5f52603260045260245ffd5b5f5f8335601e1984360301811261398a575f5ffd5b8301803591506001600160401b038211156139a3575f5ffd5b6020019150368190038213156139b7575f5ffd5b9250929050565b818382375f9101908152919050565b634e487b7160e01b5f52601160045260245ffd5b818103818111156107d1576107d16139cd565b634e487b7160e01b5f52603160045260245ffd5b60018060a01b03851681528360208201528215156040820152608060608201525f613a366080830184612e59565b9695505050505050565b805160208201516001600160601b0319811691906014821015613a87576bffffffffffffffffffffffff196bffffffffffffffffffffffff198360140360031b1b82161692505b5050919050565b6001600160a01b038416815282151560208201526060604082018190525f9061360a90830184612e59565b6001600160a01b0386811682528581166020830152841660408201526060810183905260a0608082018190525f906124d190830184612e59565b8215158152604060208201525f61241a6040830184612e59565b805160208083015191908110156119f0575f1960209190910360031b1b16919050565b5f60018201613b4157613b416139cd565b5060010190565b828152604060208201525f61241a6040830184612e59565b5f60208284031215613b70575f5ffd5b81516001600160401b03811115613b85575f5ffd5b8201601f81018413613b95575f5ffd5b8051613ba3612cc382612c7b565b818152856020838501011115613bb7575f5ffd5b8160208401602083015e5f9181016020019190915294935050505056fea2646970667358221220d11bbe2bd90ec2556d7c59d8fd644d5f64ee3a50324b517f932b4a3d9a27003964736f6c634300081f0033a2646970667358221220c4a8310cd69fb654c7b74a12d5e3a065bcfc9a316d8400d9e3a5cca12913ed4964736f6c634300081f0033",
			"opcodes": "PUSH1 0x80 PUSH1 0x40 MSTORE CALLVALUE DUP1 ISZERO PUSH1 0xE JUMPI PUSH0 PUSH0 REVERT JUMPDEST POP PUSH2 0x506D DUP1 PUSH2 0x1C PUSH0 CODECOPY PUSH0 RETURN INVALID PUSH1 0x80 PUSH1 0x40 MSTORE CALLVALUE DUP1 ISZERO PUSH2 0xF JUMPI PUSH0 PUSH0 REVERT JUMPDEST POP PUSH1 0x4 CALLDATASIZE LT PUSH2 0x55 JUMPI PUSH0 CALLDATALOAD PUSH1 0xE0 SHR DUP1 PUSH4 0x1ED406B6 EQ PUSH2 0x59 JUMPI DUP1 PUSH4 0x2CB819E1 EQ PUSH2 0x6E JUMPI DUP1 PUSH4 0x5A10D060 EQ PUSH2 0x81 JUMPI DUP1 PUSH4 0x64B9BF17 EQ PUSH2 0xC8 JUMPI DUP1 PUSH4 0xC6A9FA1F EQ PUSH2 0xF3 JUMPI JUMPDEST PUSH0 PUSH0 REVERT JUMPDEST PUSH2 0x6C PUSH2 0x67 CALLDATASIZE PUSH1 0x4 PUSH2 0x41F JUMP JUMPDEST PUSH2 0x106 JUMP JUMPDEST STOP JUMPDEST PUSH2 0x6C PUSH2 0x7C CALLDATASIZE PUSH1 0x4 PUSH2 0x563 JUMP JUMPDEST PUSH2 0x1B3 JUMP JUMPDEST PUSH2 0xAC PUSH2 0x8F CALLDATASIZE PUSH1 0x4 PUSH2 0x41F JUMP JUMPDEST PUSH1 0x1 PUSH1 0x1 PUSH1 0xA0 SHL SUB SWAP1 DUP2 AND PUSH0 SWAP1 DUP2 MSTORE PUSH1 0x20 DUP2 SWAP1 MSTORE PUSH1 0x40 SWAP1 KECCAK256 SLOAD AND SWAP1 JUMP JUMPDEST PUSH1 0x40 MLOAD PUSH1 0x1 PUSH1 0x1 PUSH1 0xA0 SHL SUB SWAP1 SWAP2 AND DUP2 MSTORE PUSH1 0x20 ADD PUSH1 0x40 MLOAD DUP1 SWAP2 SUB SWAP1 RETURN JUMPDEST PUSH2 0xAC PUSH2 0xD6 CALLDATASIZE PUSH1 0x4 PUSH2 0x41F JUMP JUMPDEST PUSH1 0x1 PUSH1 0x1 PUSH1 0xA0 SHL SUB SWAP1 DUP2 AND PUSH0 SWAP1 DUP2 MSTORE PUSH1 0x1 PUSH1 0x20 MSTORE PUSH1 0x40 SWAP1 KECCAK256 SLOAD AND SWAP1 JUMP JUMPDEST PUSH2 0x6C PUSH2 0x101 CALLDATASIZE PUSH1 0x4 PUSH2 0x63E JUMP JUMPDEST PUSH2 0x2BC JUMP JUMPDEST CALLER PUSH0 SWAP1 DUP2 MSTORE PUSH1 0x20 DUP2 SWAP1 MSTORE PUSH1 0x40 SWAP1 KECCAK256 SLOAD PUSH1 0x1 PUSH1 0x1 PUSH1 0xA0 SHL SUB DUP3 DUP2 AND SWAP2 AND EQ PUSH2 0x164 JUMPI PUSH1 0x40 MLOAD PUSH3 0x461BCD PUSH1 0xE5 SHL DUP2 MSTORE PUSH1 0x20 PUSH1 0x4 DUP3 ADD MSTORE PUSH1 0xD PUSH1 0x24 DUP3 ADD MSTORE PUSH13 0x2737BA103A34329037BBB732B9 PUSH1 0x99 SHL PUSH1 0x44 DUP3 ADD MSTORE PUSH1 0x64 ADD JUMPDEST PUSH1 0x40 MLOAD DUP1 SWAP2 SUB SWAP1 REVERT JUMPDEST CALLER PUSH0 SWAP1 DUP2 MSTORE PUSH1 0x20 DUP2 SWAP1 MSTORE PUSH1 0x40 DUP1 DUP3 KECCAK256 DUP1 SLOAD PUSH1 0x1 PUSH1 0x1 PUSH1 0xA0 SHL SUB NOT AND SWAP1 SSTORE MLOAD PUSH1 0x1 PUSH1 0x1 PUSH1 0xA0 SHL SUB DUP4 AND SWAP2 PUSH32 0x106DE2DE224E5B1B7923506FF253BA0C501287D8730AE60B384E9AB22AD9656F SWAP2 LOG2 POP JUMP JUMPDEST CALLER PUSH0 SWAP1 DUP2 MSTORE PUSH1 0x20 DUP2 SWAP1 MSTORE PUSH1 0x40 SWAP1 KECCAK256 SLOAD PUSH1 0x1 PUSH1 0x1 PUSH1 0xA0 SHL SUB AND ISZERO PUSH2 0x207 JUMPI PUSH1 0x40 MLOAD PUSH3 0x461BCD PUSH1 0xE5 SHL DUP2 MSTORE PUSH1 0x20 PUSH1 0x4 DUP3 ADD MSTORE PUSH1 0xC PUSH1 0x24 DUP3 ADD MSTORE PUSH12 0x10DB185B88195E1A5CDD1959 PUSH1 0xA2 SHL PUSH1 0x44 DUP3 ADD MSTORE PUSH1 0x64 ADD PUSH2 0x15B JUMP JUMPDEST PUSH0 DUP7 DUP7 DUP7 DUP7 DUP7 DUP7 CALLER PUSH1 0x40 MLOAD PUSH2 0x21B SWAP1 PUSH2 0x3F7 JUMP JUMPDEST PUSH2 0x22B SWAP8 SWAP7 SWAP6 SWAP5 SWAP4 SWAP3 SWAP2 SWAP1 PUSH2 0x69D JUMP JUMPDEST PUSH1 0x40 MLOAD DUP1 SWAP2 SUB SWAP1 PUSH0 CREATE DUP1 ISZERO DUP1 ISZERO PUSH2 0x244 JUMPI RETURNDATASIZE PUSH0 PUSH0 RETURNDATACOPY RETURNDATASIZE PUSH0 REVERT JUMPDEST POP CALLER PUSH0 DUP2 DUP2 MSTORE PUSH1 0x20 DUP2 DUP2 MSTORE PUSH1 0x40 DUP1 DUP4 KECCAK256 DUP1 SLOAD PUSH1 0x1 PUSH1 0x1 PUSH1 0xA0 SHL SUB DUP8 AND PUSH1 0x1 PUSH1 0x1 PUSH1 0xA0 SHL SUB NOT SWAP2 DUP3 AND DUP2 OR SWAP1 SWAP3 SSTORE DUP2 DUP6 MSTORE PUSH1 0x1 SWAP1 SWAP4 MSTORE DUP2 DUP5 KECCAK256 DUP1 SLOAD SWAP1 SWAP4 AND DUP6 OR SWAP1 SWAP3 SSTORE MLOAD SWAP4 SWAP5 POP DUP5 SWAP4 SWAP1 SWAP3 SWAP2 PUSH32 0x96C3DB8B9D54EEA401DAEFF24ECFC4358C587EFA4D1325CF980B29406E7469D1 SWAP2 LOG3 POP POP POP POP POP POP POP POP JUMP JUMPDEST CALLER PUSH0 SWAP1 DUP2 MSTORE PUSH1 0x20 DUP2 SWAP1 MSTORE PUSH1 0x40 SWAP1 KECCAK256 SLOAD PUSH1 0x1 PUSH1 0x1 PUSH1 0xA0 SHL SUB DUP3 DUP2 AND SWAP2 AND EQ PUSH2 0x312 JUMPI PUSH1 0x40 MLOAD PUSH3 0x461BCD PUSH1 0xE5 SHL DUP2 MSTORE PUSH1 0x20 PUSH1 0x4 DUP3 ADD MSTORE PUSH1 0xA PUSH1 0x24 DUP3 ADD MSTORE PUSH10 0x27B7363C9037BBB732B9 PUSH1 0xB1 SHL PUSH1 0x44 DUP3 ADD MSTORE PUSH1 0x64 ADD PUSH2 0x15B JUMP JUMPDEST PUSH1 0x1 PUSH1 0x1 PUSH1 0xA0 SHL SUB DUP3 DUP2 AND PUSH0 DUP2 DUP2 MSTORE PUSH1 0x20 DUP2 DUP2 MSTORE PUSH1 0x40 DUP1 DUP4 KECCAK256 DUP1 SLOAD PUSH1 0x1 PUSH1 0x1 PUSH1 0xA0 SHL SUB NOT SWAP1 DUP2 AND SWAP7 DUP9 AND SWAP7 DUP8 OR SWAP1 SWAP2 SSTORE DUP6 DUP5 MSTORE PUSH1 0x1 DUP4 MSTORE DUP2 DUP5 KECCAK256 DUP1 SLOAD DUP3 AND DUP7 OR SWAP1 SSTORE CALLER DUP5 MSTORE SWAP2 DUP4 SWAP1 MSTORE SWAP2 DUP3 SWAP1 KECCAK256 DUP1 SLOAD SWAP1 SWAP2 AND SWAP1 SSTORE MLOAD PUSH4 0x10AA5A7 PUSH1 0xE1 SHL DUP2 MSTORE PUSH1 0x4 DUP2 ADD SWAP2 SWAP1 SWAP2 MSTORE PUSH4 0x2154B4E SWAP1 PUSH1 0x24 ADD PUSH0 PUSH1 0x40 MLOAD DUP1 DUP4 SUB DUP2 PUSH0 DUP8 DUP1 EXTCODESIZE ISZERO DUP1 ISZERO PUSH2 0x399 JUMPI PUSH0 PUSH0 REVERT JUMPDEST POP GAS CALL ISZERO DUP1 ISZERO PUSH2 0x3AB JUMPI RETURNDATASIZE PUSH0 PUSH0 RETURNDATACOPY RETURNDATASIZE PUSH0 REVERT JUMPDEST POP POP PUSH1 0x40 DUP1 MLOAD PUSH1 0x1 PUSH1 0x1 PUSH1 0xA0 SHL SUB DUP1 DUP8 AND DUP3 MSTORE DUP6 AND PUSH1 0x20 DUP3 ADD MSTORE PUSH32 0x1FBD754B6C8BCBBCAA42EF62223F951DB6F88428BD87EC8902A5994FD604F7C SWAP4 POP ADD SWAP1 POP PUSH1 0x40 MLOAD DUP1 SWAP2 SUB SWAP1 LOG1 POP POP JUMP JUMPDEST PUSH2 0x48D9 DUP1 PUSH2 0x75F DUP4 CODECOPY ADD SWAP1 JUMP JUMPDEST DUP1 CALLDATALOAD PUSH1 0x1 PUSH1 0x1 PUSH1 0xA0 SHL SUB DUP2 AND DUP2 EQ PUSH2 0x41A JUMPI PUSH0 PUSH0 REVERT JUMPDEST SWAP2 SWAP1 POP JUMP JUMPDEST PUSH0 PUSH1 0x20 DUP3 DUP5 SUB SLT ISZERO PUSH2 0x42F JUMPI PUSH0 PUSH0 REVERT JUMPDEST PUSH2 0x438 DUP3 PUSH2 0x404 JUMP JUMPDEST SWAP4 SWAP3 POP POP POP JUMP JUMPDEST PUSH4 0x4E487B71 PUSH1 0xE0 SHL PUSH0 MSTORE PUSH1 0x41 PUSH1 0x4 MSTORE PUSH1 0x24 PUSH0 REVERT JUMPDEST PUSH0 DUP3 PUSH1 0x1F DUP4 ADD SLT PUSH2 0x462 JUMPI PUSH0 PUSH0 REVERT JUMPDEST DUP2 CALLDATALOAD PUSH8 0xFFFFFFFFFFFFFFFF DUP2 GT ISZERO PUSH2 0x47C JUMPI PUSH2 0x47C PUSH2 0x43F JUMP JUMPDEST PUSH1 0x40 MLOAD PUSH1 0x1F DUP3 ADD PUSH1 0x1F NOT SWAP1 DUP2 AND PUSH1 0x3F ADD AND DUP2 ADD PUSH8 0xFFFFFFFFFFFFFFFF DUP2 GT DUP3 DUP3 LT OR ISZERO PUSH2 0x4AB JUMPI PUSH2 0x4AB PUSH2 0x43F JUMP JUMPDEST PUSH1 0x40 MSTORE DUP2 DUP2 MSTORE DUP4 DUP3 ADD PUSH1 0x20 ADD DUP6 LT ISZERO PUSH2 0x4C2 JUMPI PUSH0 PUSH0 REVERT JUMPDEST DUP2 PUSH1 0x20 DUP6 ADD PUSH1 0x20 DUP4 ADD CALLDATACOPY PUSH0 SWAP2 DUP2 ADD PUSH1 0x20 ADD SWAP2 SWAP1 SWAP2 MSTORE SWAP4 SWAP3 POP POP POP JUMP JUMPDEST DUP1 CALLDATALOAD PUSH1 0xFF DUP2 AND DUP2 EQ PUSH2 0x41A JUMPI PUSH0 PUSH0 REVERT JUMPDEST PUSH0 PUSH1 0x60 DUP3 DUP5 SUB SLT ISZERO PUSH2 0x4FE JUMPI PUSH0 PUSH0 REVERT JUMPDEST PUSH1 0x40 MLOAD PUSH1 0x60 DUP2 ADD PUSH8 0xFFFFFFFFFFFFFFFF DUP2 GT DUP3 DUP3 LT OR ISZERO PUSH2 0x521 JUMPI PUSH2 0x521 PUSH2 0x43F JUMP JUMPDEST PUSH1 0x40 MSTORE SWAP1 POP DUP1 DUP3 CALLDATALOAD PUSH2 0xFFFF DUP2 AND DUP2 EQ PUSH2 0x538 JUMPI PUSH0 PUSH0 REVERT JUMPDEST DUP2 MSTORE PUSH2 0x546 PUSH1 0x20 DUP5 ADD PUSH2 0x4DE JUMP JUMPDEST PUSH1 0x20 DUP3 ADD MSTORE PUSH2 0x557 PUSH1 0x40 DUP5 ADD PUSH2 0x4DE JUMP JUMPDEST PUSH1 0x40 DUP3 ADD MSTORE POP SWAP3 SWAP2 POP POP JUMP JUMPDEST PUSH0 PUSH0 PUSH0 PUSH0 PUSH0 PUSH0 PUSH2 0x140 DUP8 DUP10 SUB SLT ISZERO PUSH2 0x579 JUMPI PUSH0 PUSH0 REVERT JUMPDEST DUP7 CALLDATALOAD PUSH8 0xFFFFFFFFFFFFFFFF DUP2 GT ISZERO PUSH2 0x58F JUMPI PUSH0 PUSH0 REVERT JUMPDEST PUSH2 0x59B DUP10 DUP3 DUP11 ADD PUSH2 0x453 JUMP JUMPDEST SWAP7 POP POP PUSH1 0x20 DUP8 ADD CALLDATALOAD PUSH8 0xFFFFFFFFFFFFFFFF DUP2 GT ISZERO PUSH2 0x5B7 JUMPI PUSH0 PUSH0 REVERT JUMPDEST PUSH2 0x5C3 DUP10 DUP3 DUP11 ADD PUSH2 0x453 JUMP JUMPDEST SWAP6 POP POP PUSH1 0x40 DUP8 ADD CALLDATALOAD PUSH8 0xFFFFFFFFFFFFFFFF DUP2 GT ISZERO PUSH2 0x5DF JUMPI PUSH0 PUSH0 REVERT JUMPDEST PUSH2 0x5EB DUP10 DUP3 DUP11 ADD PUSH2 0x453 JUMP JUMPDEST SWAP5 POP POP PUSH1 0x60 DUP8 ADD CALLDATALOAD PUSH8 0xFFFFFFFFFFFFFFFF DUP2 GT ISZERO PUSH2 0x607 JUMPI PUSH0 PUSH0 REVERT JUMPDEST PUSH2 0x613 DUP10 DUP3 DUP11 ADD PUSH2 0x453 JUMP JUMPDEST SWAP4 POP POP PUSH2 0x623 DUP9 PUSH1 0x80 DUP10 ADD PUSH2 0x4EE JUMP JUMPDEST SWAP2 POP PUSH2 0x632 DUP9 PUSH1 0xE0 DUP10 ADD PUSH2 0x4EE JUMP JUMPDEST SWAP1 POP SWAP3 SWAP6 POP SWAP3 SWAP6 POP SWAP3 SWAP6 JUMP JUMPDEST PUSH0 PUSH0 PUSH1 0x40 DUP4 DUP6 SUB SLT ISZERO PUSH2 0x64F JUMPI PUSH0 PUSH0 REVERT JUMPDEST PUSH2 0x658 DUP4 PUSH2 0x404 JUMP JUMPDEST SWAP2 POP PUSH2 0x666 PUSH1 0x20 DUP5 ADD PUSH2 0x404 JUMP JUMPDEST SWAP1 POP SWAP3 POP SWAP3 SWAP1 POP JUMP JUMPDEST PUSH0 DUP2 MLOAD DUP1 DUP5 MSTORE DUP1 PUSH1 0x20 DUP5 ADD PUSH1 0x20 DUP7 ADD MCOPY PUSH0 PUSH1 0x20 DUP3 DUP7 ADD ADD MSTORE PUSH1 0x20 PUSH1 0x1F NOT PUSH1 0x1F DUP4 ADD AND DUP6 ADD ADD SWAP2 POP POP SWAP3 SWAP2 POP POP JUMP JUMPDEST PUSH2 0x160 DUP2 MSTORE PUSH0 PUSH2 0x6B1 PUSH2 0x160 DUP4 ADD DUP11 PUSH2 0x66F JUMP JUMPDEST DUP3 DUP2 SUB PUSH1 0x20 DUP5 ADD MSTORE PUSH2 0x6C3 DUP2 DUP11 PUSH2 0x66F JUMP JUMPDEST SWAP1 POP DUP3 DUP2 SUB PUSH1 0x40 DUP5 ADD MSTORE PUSH2 0x6D7 DUP2 DUP10 PUSH2 0x66F JUMP JUMPDEST SWAP1 POP DUP3 DUP2 SUB PUSH1 0x60 DUP5 ADD MSTORE PUSH2 0x6EB DUP2 DUP9 PUSH2 0x66F JUMP JUMPDEST DUP7 MLOAD PUSH2 0xFFFF AND PUSH1 0x80 DUP6 ADD MSTORE PUSH1 0x20 DUP8 ADD MLOAD PUSH1 0xFF SWAP1 DUP2 AND PUSH1 0xA0 DUP7 ADD MSTORE PUSH1 0x40 DUP9 ADD MLOAD AND PUSH1 0xC0 DUP6 ADD MSTORE SWAP2 POP PUSH2 0x719 SWAP1 POP JUMP JUMPDEST DUP4 MLOAD PUSH2 0xFFFF AND PUSH1 0xE0 DUP4 ADD MSTORE PUSH1 0x20 DUP5 ADD MLOAD PUSH1 0xFF SWAP1 DUP2 AND PUSH2 0x100 DUP5 ADD MSTORE PUSH1 0x40 DUP6 ADD MLOAD AND PUSH2 0x120 DUP4 ADD MSTORE PUSH1 0x1 PUSH1 0x1 PUSH1 0xA0 SHL SUB SWAP3 SWAP1 SWAP3 AND PUSH2 0x140 SWAP2 SWAP1 SWAP2 ADD MSTORE SWAP7 SWAP6 POP POP POP POP POP POP JUMP INVALID PUSH1 0x80 PUSH1 0x40 MSTORE CALLVALUE DUP1 ISZERO PUSH2 0xF JUMPI PUSH0 PUSH0 REVERT JUMPDEST POP PUSH1 0x40 MLOAD PUSH2 0x48D9 CODESIZE SUB DUP1 PUSH2 0x48D9 DUP4 CODECOPY DUP2 ADD PUSH1 0x40 DUP2 SWAP1 MSTORE PUSH2 0x2E SWAP2 PUSH2 0x953 JUMP JUMPDEST PUSH1 0x40 DUP1 MLOAD DUP1 DUP3 ADD SWAP1 SWAP2 MSTORE PUSH1 0x6 DUP2 MSTORE PUSH6 0x46414D494C59 PUSH1 0xD0 SHL PUSH1 0x20 DUP3 ADD MSTORE DUP8 SWAP1 DUP3 PUSH1 0x2 PUSH0 DUP5 DUP5 DUP5 DUP5 DUP2 PUSH2 0x5F CALLER PUSH2 0x1FD JUMP JUMPDEST PUSH1 0x1 PUSH1 0x1 PUSH1 0xA0 SHL SUB DUP2 AND PUSH2 0x86 JUMPI PUSH1 0x40 MLOAD PUSH4 0x6B620DB PUSH1 0xE2 SHL DUP2 MSTORE PUSH1 0x4 ADD PUSH1 0x40 MLOAD DUP1 SWAP2 SUB SWAP1 REVERT JUMPDEST PUSH2 0x8F DUP2 PUSH2 0x1FD JUMP JUMPDEST POP PUSH1 0x40 DUP1 MLOAD DUP1 DUP3 ADD SWAP1 SWAP2 MSTORE PUSH1 0x4 DUP2 MSTORE PUSH4 0x29365989 PUSH1 0xE2 SHL PUSH1 0x20 DUP3 ADD MSTORE PUSH2 0xD6 SWAP1 PUSH32 0xEAFEC4D89FA9619884B60000A4D96624A38F7AC2D8D9A604ECF07C12C77E480C SWAP1 PUSH2 0x24C JUMP JUMPDEST PUSH2 0x100 PUSH32 0xDEBA1E292F8BA88238E10AB3C7F88BD4BE4FAC56CAD5194B6ECCEAF653468AF1 DUP6 PUSH2 0x24C JUMP JUMPDEST PUSH2 0x12A PUSH32 0x2F0A68AB07768E01943A599E73362A0E17A63A72E94DD2E384D2C1D4DB932756 DUP5 PUSH2 0x24C JUMP JUMPDEST PUSH1 0x40 DUP1 MLOAD PUSH1 0x20 DUP2 ADD DUP4 SWAP1 MSTORE PUSH2 0x171 SWAP2 PUSH32 0xE0261FA95DB2EB3B5439BD033CDA66D56B96F92F243A8228FD87550ED7BDFDB3 SWAP2 ADD PUSH1 0x40 DUP1 MLOAD PUSH1 0x1F NOT DUP2 DUP5 SUB ADD DUP2 MSTORE SWAP2 SWAP1 MSTORE PUSH2 0x24C JUMP JUMPDEST POP POP PUSH1 0x40 DUP1 MLOAD PUSH1 0x20 DUP2 ADD DUP6 SWAP1 MSTORE PUSH2 0x1BC SWAP4 POP PUSH32 0xF675E9361AF1C1664C1868CFA3EB97672D6B1A513AA5B81DEC34C9EE330E818D SWAP3 POP ADD PUSH1 0x40 DUP1 MLOAD PUSH1 0x1F NOT DUP2 DUP5 SUB ADD DUP2 MSTORE SWAP2 SWAP1 MSTORE PUSH2 0x2A0 JUMP JUMPDEST POP POP PUSH1 0x8 DUP1 SLOAD PUSH1 0x1 PUSH1 0x1 PUSH1 0xA0 SHL SUB NOT AND CALLER OR SWAP1 SSTORE POP PUSH1 0x9 SWAP2 POP PUSH2 0x1E1 SWAP1 POP DUP8 DUP3 PUSH2 0xABE JUMP JUMPDEST POP PUSH2 0x1F0 DUP6 DUP6 DUP4 PUSH0 DUP8 DUP8 PUSH2 0x360 JUMP JUMPDEST POP POP POP POP POP POP POP POP PUSH2 0xCC2 JUMP JUMPDEST PUSH0 DUP1 SLOAD PUSH1 0x1 PUSH1 0x1 PUSH1 0xA0 SHL SUB DUP4 DUP2 AND PUSH1 0x1 PUSH1 0x1 PUSH1 0xA0 SHL SUB NOT DUP4 AND DUP2 OR DUP5 SSTORE PUSH1 0x40 MLOAD SWAP2 SWAP1 SWAP3 AND SWAP3 DUP4 SWAP2 PUSH32 0x8BE0079C531659141344CD1FD0A4F28419497F9722A3DAAFE3B4186F6B6457E0 SWAP2 SWAP1 LOG3 POP POP JUMP JUMPDEST PUSH0 DUP3 DUP2 MSTORE PUSH1 0x1 PUSH1 0x20 MSTORE PUSH1 0x40 SWAP1 KECCAK256 PUSH2 0x263 DUP3 DUP3 PUSH2 0xABE JUMP JUMPDEST POP DUP2 PUSH32 0xECE574603820D07BC9B91F2A932BAADF4628AABCB8AFBA49776529C14A6104B2 DUP3 PUSH1 0x40 MLOAD PUSH2 0x294 SWAP2 SWAP1 PUSH2 0xBA6 JUMP JUMPDEST PUSH1 0x40 MLOAD DUP1 SWAP2 SUB SWAP1 LOG2 POP POP JUMP JUMPDEST PUSH32 0x2145E1D6D074577DC71EF54C3807742B41B053A9352AE6B491331509ACB9750F DUP3 ADD PUSH2 0x2E0 JUMPI PUSH1 0x40 MLOAD PUSH4 0x85C169BD PUSH1 0xE0 SHL DUP2 MSTORE PUSH1 0x4 ADD PUSH1 0x40 MLOAD DUP1 SWAP2 SUB SWAP1 REVERT JUMPDEST PUSH32 0xD0F59754F88971FE6BC5A6618CC9D5F1E859C58D16B22D1C7B2D3E2B246CD8AA DUP3 ADD PUSH2 0x320 JUMPI PUSH1 0x40 MLOAD PUSH4 0xECEAB67 PUSH1 0xE3 SHL DUP2 MSTORE PUSH1 0x4 ADD PUSH1 0x40 MLOAD DUP1 SWAP2 SUB SWAP1 REVERT JUMPDEST PUSH32 0x1FD9E056A24D14C4ABC642FCC325992A946906D0DBC57DD70278AAF12842024D DUP3 ADD PUSH2 0x24C JUMPI PUSH1 0x40 MLOAD PUSH4 0x4EF6D7FB PUSH1 0xE0 SHL DUP2 MSTORE PUSH1 0x4 ADD PUSH1 0x40 MLOAD DUP1 SWAP2 SUB SWAP1 REVERT JUMPDEST PUSH0 PUSH2 0x36F PUSH1 0x6 DUP1 SLOAD PUSH1 0x1 ADD SWAP1 SSTORE JUMP JUMPDEST POP PUSH1 0x6 SLOAD PUSH1 0x40 DUP1 MLOAD PUSH1 0x20 DUP2 ADD SWAP1 SWAP2 MSTORE PUSH0 DUP2 MSTORE PUSH2 0x391 SWAP1 DUP7 SWAP1 DUP4 SWAP1 PUSH1 0x1 SWAP1 PUSH2 0x4A1 JUMP JUMPDEST PUSH0 DUP2 DUP2 MSTORE PUSH1 0x7 PUSH1 0x20 MSTORE PUSH1 0x40 SWAP1 KECCAK256 DUP1 PUSH2 0x3A9 DUP10 DUP3 PUSH2 0xABE JUMP JUMPDEST POP DUP4 MLOAD PUSH1 0x6 DUP3 ADD DUP1 SLOAD PUSH1 0x20 DUP1 DUP9 ADD MLOAD PUSH1 0x40 DUP1 DUP11 ADD MLOAD PUSH2 0xFFFF SWAP7 DUP8 AND PUSH3 0xFFFFFF NOT SWAP6 DUP7 AND OR PUSH3 0x10000 PUSH1 0xFF SWAP5 DUP6 AND DUP2 MUL SWAP2 SWAP1 SWAP2 OR PUSH4 0xFF000000 NOT SWAP1 DUP2 AND PUSH4 0x1000000 SWAP4 DUP7 AND DUP5 MUL OR SWAP1 SWAP8 SSTORE DUP11 MLOAD PUSH1 0x7 DUP11 ADD DUP1 SLOAD SWAP7 DUP14 ADD MLOAD SWAP5 DUP14 ADD MLOAD SWAP2 SWAP1 SWAP10 AND SWAP6 SWAP1 SWAP7 AND SWAP5 SWAP1 SWAP5 OR SWAP2 DUP4 AND SWAP1 SWAP4 MUL OR SWAP1 SWAP4 AND SWAP2 SWAP1 SWAP3 AND SWAP1 SWAP2 MUL OR SWAP1 SSTORE PUSH1 0x5 DUP2 ADD DUP1 SLOAD DUP7 SWAP2 SWAP1 PUSH1 0xFF NOT AND PUSH1 0x1 DUP4 PUSH1 0x2 DUP2 GT ISZERO PUSH2 0x444 JUMPI PUSH2 0x444 PUSH2 0xBB8 JUMP JUMPDEST MUL OR SWAP1 SSTORE POP PUSH1 0x8 DUP2 ADD PUSH2 0x457 DUP9 DUP3 PUSH2 0xABE JUMP JUMPDEST POP PUSH1 0x40 MLOAD PUSH1 0x1 PUSH1 0x1 PUSH1 0xA0 SHL SUB DUP8 AND DUP2 MSTORE DUP3 SWAP1 PUSH32 0xA6912C28A8CB5FC5CAB504E471CFA6BC504444025484D810E2565BC7DEAD6657 SWAP1 PUSH1 0x20 ADD PUSH1 0x40 MLOAD DUP1 SWAP2 SUB SWAP1 LOG2 POP SWAP7 SWAP6 POP POP POP POP POP POP JUMP JUMPDEST PUSH1 0x1 PUSH1 0x1 PUSH1 0xA0 SHL SUB DUP5 AND PUSH2 0x4C8 JUMPI PUSH1 0x40 MLOAD PUSH4 0x24ECEF4D PUSH1 0xE0 SHL DUP2 MSTORE PUSH1 0x4 ADD PUSH1 0x40 MLOAD DUP1 SWAP2 SUB SWAP1 REVERT JUMPDEST PUSH0 DUP4 DUP2 MSTORE PUSH1 0x3 PUSH1 0x20 MSTORE PUSH1 0x40 SWAP1 KECCAK256 SLOAD PUSH1 0x1 PUSH1 0x1 PUSH1 0xA0 SHL SUB AND ISZERO PUSH2 0x505 JUMPI PUSH1 0x40 MLOAD PUSH4 0x34C7B511 PUSH1 0xE0 SHL DUP2 MSTORE PUSH1 0x4 DUP2 ADD DUP5 SWAP1 MSTORE PUSH1 0x24 ADD JUMPDEST PUSH1 0x40 MLOAD DUP1 SWAP2 SUB SWAP1 REVERT JUMPDEST PUSH0 DUP4 DUP2 MSTORE PUSH1 0x3 PUSH1 0x20 MSTORE PUSH1 0x40 SWAP1 KECCAK256 SLOAD PUSH1 0x1 PUSH1 0x1 PUSH1 0xA0 SHL SUB AND ISZERO PUSH2 0x53D JUMPI PUSH1 0x40 MLOAD PUSH4 0x34C7B511 PUSH1 0xE0 SHL DUP2 MSTORE PUSH1 0x4 DUP2 ADD DUP5 SWAP1 MSTORE PUSH1 0x24 ADD PUSH2 0x4FC JUMP JUMPDEST PUSH1 0x2 PUSH0 DUP2 SLOAD PUSH2 0x54B SWAP1 PUSH2 0xBCC JUMP JUMPDEST SWAP1 SWAP2 SSTORE POP PUSH1 0x1 PUSH1 0x1 PUSH1 0xA0 SHL SUB DUP5 AND PUSH0 SWAP1 DUP2 MSTORE PUSH1 0x4 PUSH1 0x20 MSTORE PUSH1 0x40 SWAP1 KECCAK256 PUSH2 0x570 SWAP1 DUP5 PUSH2 0x617 JUMP JUMPDEST POP PUSH0 DUP4 DUP2 MSTORE PUSH1 0x3 PUSH1 0x20 MSTORE PUSH1 0x40 DUP1 DUP3 KECCAK256 DUP1 SLOAD PUSH1 0x1 PUSH1 0x1 PUSH1 0xA0 SHL SUB NOT AND PUSH1 0x1 PUSH1 0x1 PUSH1 0xA0 SHL SUB DUP9 AND SWAP1 DUP2 OR SWAP1 SWAP2 SSTORE SWAP1 MLOAD DUP6 SWAP3 SWAP1 PUSH32 0xB333C813A7426A7A11E2B190CAD52C44119421594B47F6F32ACE6D8C7207B2BF SWAP1 PUSH2 0x5D1 SWAP1 CALLER SWAP1 DUP9 SWAP1 DUP9 SWAP1 PUSH2 0xBF0 JUMP JUMPDEST PUSH1 0x40 MLOAD DUP1 SWAP2 SUB SWAP1 LOG4 PUSH0 CALLER PUSH0 DUP7 DUP7 DUP6 PUSH1 0x40 MLOAD PUSH1 0x20 ADD PUSH2 0x5F3 SWAP6 SWAP5 SWAP4 SWAP3 SWAP2 SWAP1 PUSH2 0xC24 JUMP JUMPDEST PUSH1 0x40 DUP1 MLOAD PUSH1 0x1F NOT DUP2 DUP5 SUB ADD DUP2 MSTORE SWAP2 SWAP1 MSTORE SWAP1 POP PUSH2 0x610 DUP6 DUP5 DUP4 PUSH2 0x62B JUMP JUMPDEST POP POP POP POP POP JUMP JUMPDEST PUSH0 PUSH2 0x622 DUP4 DUP4 PUSH2 0x739 JUMP JUMPDEST SWAP1 POP JUMPDEST SWAP3 SWAP2 POP POP JUMP JUMPDEST PUSH2 0x63C DUP4 PUSH4 0x1AED5A85 PUSH1 0xE2 SHL PUSH2 0x785 JUMP JUMPDEST ISZERO PUSH2 0x6D7 JUMPI PUSH1 0x40 MLOAD PUSH4 0x1AED5A85 PUSH1 0xE2 SHL DUP2 MSTORE PUSH1 0x1 PUSH1 0x1 PUSH1 0xA0 SHL SUB DUP5 AND SWAP1 PUSH4 0x6BB56A14 SWAP1 PUSH2 0x68F SWAP1 PUSH32 0xB084A55EBF70FD3C06FD755269DAC2212C4D3F0F4D09079780BFA50C1B2984D SWAP1 DUP6 SWAP1 PUSH1 0x4 ADD PUSH2 0xC5E JUMP JUMPDEST PUSH0 PUSH1 0x40 MLOAD DUP1 DUP4 SUB DUP2 PUSH0 DUP8 GAS CALL ISZERO DUP1 ISZERO PUSH2 0x6AA JUMPI RETURNDATASIZE PUSH0 PUSH0 RETURNDATACOPY RETURNDATASIZE PUSH0 REVERT JUMPDEST POP POP POP POP PUSH1 0x40 MLOAD RETURNDATASIZE PUSH0 DUP3 RETURNDATACOPY PUSH1 0x1F RETURNDATASIZE SWAP1 DUP2 ADD PUSH1 0x1F NOT AND DUP3 ADD PUSH1 0x40 MSTORE PUSH2 0x6D1 SWAP2 SWAP1 DUP2 ADD SWAP1 PUSH2 0xC7E JUMP JUMPDEST POP POP POP POP JUMP JUMPDEST DUP2 PUSH2 0x734 JUMPI PUSH1 0x1 PUSH1 0x1 PUSH1 0xA0 SHL SUB DUP4 AND EXTCODESIZE ISZERO PUSH2 0x710 JUMPI PUSH1 0x40 MLOAD PUSH4 0x4349776D PUSH1 0xE0 SHL DUP2 MSTORE PUSH1 0x1 PUSH1 0x1 PUSH1 0xA0 SHL SUB DUP5 AND PUSH1 0x4 DUP3 ADD MSTORE PUSH1 0x24 ADD PUSH2 0x4FC JUMP JUMPDEST PUSH1 0x40 MLOAD PUSH4 0x3173137 PUSH1 0xE0 SHL DUP2 MSTORE PUSH1 0x1 PUSH1 0x1 PUSH1 0xA0 SHL SUB DUP5 AND PUSH1 0x4 DUP3 ADD MSTORE PUSH1 0x24 ADD PUSH2 0x4FC JUMP JUMPDEST POP POP POP JUMP JUMPDEST PUSH0 DUP2 DUP2 MSTORE PUSH1 0x1 DUP4 ADD PUSH1 0x20 MSTORE PUSH1 0x40 DUP2 KECCAK256 SLOAD PUSH2 0x77E JUMPI POP DUP2 SLOAD PUSH1 0x1 DUP2 DUP2 ADD DUP5 SSTORE PUSH0 DUP5 DUP2 MSTORE PUSH1 0x20 DUP1 DUP3 KECCAK256 SWAP1 SWAP4 ADD DUP5 SWAP1 SSTORE DUP5 SLOAD DUP5 DUP3 MSTORE DUP3 DUP7 ADD SWAP1 SWAP4 MSTORE PUSH1 0x40 SWAP1 KECCAK256 SWAP2 SWAP1 SWAP2 SSTORE PUSH2 0x625 JUMP JUMPDEST POP PUSH0 PUSH2 0x625 JUMP JUMPDEST PUSH1 0x40 DUP1 MLOAD PUSH1 0x1 PUSH1 0x1 PUSH1 0xE0 SHL SUB NOT DUP4 AND PUSH1 0x24 DUP1 DUP4 ADD SWAP2 SWAP1 SWAP2 MSTORE DUP3 MLOAD DUP1 DUP4 SUB SWAP1 SWAP2 ADD DUP2 MSTORE PUSH1 0x44 SWAP1 SWAP2 ADD SWAP1 SWAP2 MSTORE PUSH1 0x20 DUP1 DUP3 ADD DUP1 MLOAD PUSH1 0x1 PUSH1 0x1 PUSH1 0xE0 SHL SUB AND PUSH4 0x1FFC9A7 PUSH1 0xE0 SHL OR DUP2 MSTORE DUP3 MLOAD PUSH0 SWAP4 SWAP3 DUP5 SWAP3 DUP4 SWAP3 DUP4 SWAP3 SWAP2 DUP4 SWAP2 SWAP1 DUP11 PUSH2 0x7530 STATICCALL SWAP3 POP RETURNDATASIZE SWAP2 POP PUSH0 MLOAD SWAP1 POP DUP3 DUP1 ISZERO PUSH2 0x7F5 JUMPI POP PUSH1 0x20 DUP3 LT ISZERO JUMPDEST DUP1 ISZERO PUSH2 0x800 JUMPI POP PUSH0 DUP2 GT JUMPDEST SWAP8 SWAP7 POP POP POP POP POP POP POP JUMP JUMPDEST PUSH4 0x4E487B71 PUSH1 0xE0 SHL PUSH0 MSTORE PUSH1 0x41 PUSH1 0x4 MSTORE PUSH1 0x24 PUSH0 REVERT JUMPDEST PUSH0 DUP1 PUSH1 0x1 PUSH1 0x1 PUSH1 0x40 SHL SUB DUP5 GT ISZERO PUSH2 0x838 JUMPI PUSH2 0x838 PUSH2 0x80B JUMP JUMPDEST POP PUSH1 0x40 MLOAD PUSH1 0x1F NOT PUSH1 0x1F DUP6 ADD DUP2 AND PUSH1 0x3F ADD AND DUP2 ADD DUP2 DUP2 LT PUSH1 0x1 PUSH1 0x1 PUSH1 0x40 SHL SUB DUP3 GT OR ISZERO PUSH2 0x866 JUMPI PUSH2 0x866 PUSH2 0x80B JUMP JUMPDEST PUSH1 0x40 MSTORE DUP4 DUP2 MSTORE SWAP1 POP DUP1 DUP3 DUP5 ADD DUP6 LT ISZERO PUSH2 0x87D JUMPI PUSH0 PUSH0 REVERT JUMPDEST DUP4 DUP4 PUSH1 0x20 DUP4 ADD MCOPY PUSH0 PUSH1 0x20 DUP6 DUP4 ADD ADD MSTORE POP SWAP4 SWAP3 POP POP POP JUMP JUMPDEST PUSH0 DUP3 PUSH1 0x1F DUP4 ADD SLT PUSH2 0x8A3 JUMPI PUSH0 PUSH0 REVERT JUMPDEST PUSH2 0x622 DUP4 DUP4 MLOAD PUSH1 0x20 DUP6 ADD PUSH2 0x81F JUMP JUMPDEST DUP1 MLOAD PUSH1 0xFF DUP2 AND DUP2 EQ PUSH2 0x8C2 JUMPI PUSH0 PUSH0 REVERT JUMPDEST SWAP2 SWAP1 POP JUMP JUMPDEST PUSH0 PUSH1 0x60 DUP3 DUP5 SUB SLT ISZERO PUSH2 0x8D7 JUMPI PUSH0 PUSH0 REVERT JUMPDEST PUSH1 0x40 MLOAD PUSH1 0x60 DUP2 ADD PUSH1 0x1 PUSH1 0x1 PUSH1 0x40 SHL SUB DUP2 GT DUP3 DUP3 LT OR ISZERO PUSH2 0x8F9 JUMPI PUSH2 0x8F9 PUSH2 0x80B JUMP JUMPDEST DUP1 PUSH1 0x40 MSTORE POP DUP1 SWAP2 POP DUP3 MLOAD PUSH2 0xFFFF DUP2 AND DUP2 EQ PUSH2 0x912 JUMPI PUSH0 PUSH0 REVERT JUMPDEST DUP2 MSTORE PUSH2 0x920 PUSH1 0x20 DUP5 ADD PUSH2 0x8B2 JUMP JUMPDEST PUSH1 0x20 DUP3 ADD MSTORE PUSH2 0x931 PUSH1 0x40 DUP5 ADD PUSH2 0x8B2 JUMP JUMPDEST PUSH1 0x40 DUP3 ADD MSTORE POP SWAP3 SWAP2 POP POP JUMP JUMPDEST DUP1 MLOAD PUSH1 0x1 PUSH1 0x1 PUSH1 0xA0 SHL SUB DUP2 AND DUP2 EQ PUSH2 0x8C2 JUMPI PUSH0 PUSH0 REVERT JUMPDEST PUSH0 PUSH0 PUSH0 PUSH0 PUSH0 PUSH0 PUSH0 PUSH2 0x160 DUP9 DUP11 SUB SLT ISZERO PUSH2 0x96A JUMPI PUSH0 PUSH0 REVERT JUMPDEST DUP8 MLOAD PUSH1 0x1 PUSH1 0x1 PUSH1 0x40 SHL SUB DUP2 GT ISZERO PUSH2 0x97F JUMPI PUSH0 PUSH0 REVERT JUMPDEST PUSH2 0x98B DUP11 DUP3 DUP12 ADD PUSH2 0x894 JUMP JUMPDEST PUSH1 0x20 DUP11 ADD MLOAD SWAP1 SWAP9 POP SWAP1 POP PUSH1 0x1 PUSH1 0x1 PUSH1 0x40 SHL SUB DUP2 GT ISZERO PUSH2 0x9A8 JUMPI PUSH0 PUSH0 REVERT JUMPDEST PUSH2 0x9B4 DUP11 DUP3 DUP12 ADD PUSH2 0x894 JUMP JUMPDEST PUSH1 0x40 DUP11 ADD MLOAD SWAP1 SWAP8 POP SWAP1 POP PUSH1 0x1 PUSH1 0x1 PUSH1 0x40 SHL SUB DUP2 GT ISZERO PUSH2 0x9D1 JUMPI PUSH0 PUSH0 REVERT JUMPDEST PUSH2 0x9DD DUP11 DUP3 DUP12 ADD PUSH2 0x894 JUMP JUMPDEST PUSH1 0x60 DUP11 ADD MLOAD SWAP1 SWAP7 POP SWAP1 POP PUSH1 0x1 PUSH1 0x1 PUSH1 0x40 SHL SUB DUP2 GT ISZERO PUSH2 0x9FA JUMPI PUSH0 PUSH0 REVERT JUMPDEST PUSH2 0xA06 DUP11 DUP3 DUP12 ADD PUSH2 0x894 JUMP JUMPDEST SWAP5 POP POP PUSH2 0xA16 DUP10 PUSH1 0x80 DUP11 ADD PUSH2 0x8C7 JUMP JUMPDEST SWAP3 POP PUSH2 0xA25 DUP10 PUSH1 0xE0 DUP11 ADD PUSH2 0x8C7 JUMP JUMPDEST SWAP2 POP PUSH2 0xA34 PUSH2 0x140 DUP10 ADD PUSH2 0x93D JUMP JUMPDEST SWAP1 POP SWAP3 SWAP6 SWAP9 SWAP2 SWAP5 SWAP8 POP SWAP3 SWAP6 POP JUMP JUMPDEST PUSH1 0x1 DUP2 DUP2 SHR SWAP1 DUP3 AND DUP1 PUSH2 0xA56 JUMPI PUSH1 0x7F DUP3 AND SWAP2 POP JUMPDEST PUSH1 0x20 DUP3 LT DUP2 SUB PUSH2 0xA74 JUMPI PUSH4 0x4E487B71 PUSH1 0xE0 SHL PUSH0 MSTORE PUSH1 0x22 PUSH1 0x4 MSTORE PUSH1 0x24 PUSH0 REVERT JUMPDEST POP SWAP2 SWAP1 POP JUMP JUMPDEST PUSH1 0x1F DUP3 GT ISZERO PUSH2 0x734 JUMPI DUP1 PUSH0 MSTORE PUSH1 0x20 PUSH0 KECCAK256 PUSH1 0x1F DUP5 ADD PUSH1 0x5 SHR DUP2 ADD PUSH1 0x20 DUP6 LT ISZERO PUSH2 0xA9F JUMPI POP DUP1 JUMPDEST PUSH1 0x1F DUP5 ADD PUSH1 0x5 SHR DUP3 ADD SWAP2 POP JUMPDEST DUP2 DUP2 LT ISZERO PUSH2 0x610 JUMPI PUSH0 DUP2 SSTORE PUSH1 0x1 ADD PUSH2 0xAAB JUMP JUMPDEST DUP2 MLOAD PUSH1 0x1 PUSH1 0x1 PUSH1 0x40 SHL SUB DUP2 GT ISZERO PUSH2 0xAD7 JUMPI PUSH2 0xAD7 PUSH2 0x80B JUMP JUMPDEST PUSH2 0xAEB DUP2 PUSH2 0xAE5 DUP5 SLOAD PUSH2 0xA42 JUMP JUMPDEST DUP5 PUSH2 0xA7A JUMP JUMPDEST PUSH1 0x20 PUSH1 0x1F DUP3 GT PUSH1 0x1 DUP2 EQ PUSH2 0xB1D JUMPI PUSH0 DUP4 ISZERO PUSH2 0xB06 JUMPI POP DUP5 DUP3 ADD MLOAD JUMPDEST PUSH0 NOT PUSH1 0x3 DUP6 SWAP1 SHL SHR NOT AND PUSH1 0x1 DUP5 SWAP1 SHL OR DUP5 SSTORE PUSH2 0x610 JUMP JUMPDEST PUSH0 DUP5 DUP2 MSTORE PUSH1 0x20 DUP2 KECCAK256 PUSH1 0x1F NOT DUP6 AND SWAP2 JUMPDEST DUP3 DUP2 LT ISZERO PUSH2 0xB4C JUMPI DUP8 DUP6 ADD MLOAD DUP3 SSTORE PUSH1 0x20 SWAP5 DUP6 ADD SWAP5 PUSH1 0x1 SWAP1 SWAP3 ADD SWAP2 ADD PUSH2 0xB2C JUMP JUMPDEST POP DUP5 DUP3 LT ISZERO PUSH2 0xB69 JUMPI DUP7 DUP5 ADD MLOAD PUSH0 NOT PUSH1 0x3 DUP8 SWAP1 SHL PUSH1 0xF8 AND SHR NOT AND DUP2 SSTORE JUMPDEST POP POP POP POP PUSH1 0x1 SWAP1 DUP2 SHL ADD SWAP1 SSTORE POP JUMP JUMPDEST PUSH0 DUP2 MLOAD DUP1 DUP5 MSTORE DUP1 PUSH1 0x20 DUP5 ADD PUSH1 0x20 DUP7 ADD MCOPY PUSH0 PUSH1 0x20 DUP3 DUP7 ADD ADD MSTORE PUSH1 0x20 PUSH1 0x1F NOT PUSH1 0x1F DUP4 ADD AND DUP6 ADD ADD SWAP2 POP POP SWAP3 SWAP2 POP POP JUMP JUMPDEST PUSH1 0x20 DUP2 MSTORE PUSH0 PUSH2 0x622 PUSH1 0x20 DUP4 ADD DUP5 PUSH2 0xB78 JUMP JUMPDEST PUSH4 0x4E487B71 PUSH1 0xE0 SHL PUSH0 MSTORE PUSH1 0x21 PUSH1 0x4 MSTORE PUSH1 0x24 PUSH0 REVERT JUMPDEST PUSH0 PUSH1 0x1 DUP3 ADD PUSH2 0xBE9 JUMPI PUSH4 0x4E487B71 PUSH1 0xE0 SHL PUSH0 MSTORE PUSH1 0x11 PUSH1 0x4 MSTORE PUSH1 0x24 PUSH0 REVERT JUMPDEST POP PUSH1 0x1 ADD SWAP1 JUMP JUMPDEST PUSH1 0x1 PUSH1 0x1 PUSH1 0xA0 SHL SUB DUP5 AND DUP2 MSTORE DUP3 ISZERO ISZERO PUSH1 0x20 DUP3 ADD MSTORE PUSH1 0x60 PUSH1 0x40 DUP3 ADD DUP2 SWAP1 MSTORE PUSH0 SWAP1 PUSH2 0xC1B SWAP1 DUP4 ADD DUP5 PUSH2 0xB78 JUMP JUMPDEST SWAP6 SWAP5 POP POP POP POP POP JUMP JUMPDEST PUSH1 0x1 PUSH1 0x1 PUSH1 0xA0 SHL SUB DUP7 DUP2 AND DUP3 MSTORE DUP6 DUP2 AND PUSH1 0x20 DUP4 ADD MSTORE DUP5 AND PUSH1 0x40 DUP3 ADD MSTORE PUSH1 0x60 DUP2 ADD DUP4 SWAP1 MSTORE PUSH1 0xA0 PUSH1 0x80 DUP3 ADD DUP2 SWAP1 MSTORE PUSH0 SWAP1 PUSH2 0x800 SWAP1 DUP4 ADD DUP5 PUSH2 0xB78 JUMP JUMPDEST DUP3 DUP2 MSTORE PUSH1 0x40 PUSH1 0x20 DUP3 ADD MSTORE PUSH0 PUSH2 0xC76 PUSH1 0x40 DUP4 ADD DUP5 PUSH2 0xB78 JUMP JUMPDEST SWAP5 SWAP4 POP POP POP POP JUMP JUMPDEST PUSH0 PUSH1 0x20 DUP3 DUP5 SUB SLT ISZERO PUSH2 0xC8E JUMPI PUSH0 PUSH0 REVERT JUMPDEST DUP2 MLOAD PUSH1 0x1 PUSH1 0x1 PUSH1 0x40 SHL SUB DUP2 GT ISZERO PUSH2 0xCA3 JUMPI PUSH0 PUSH0 REVERT JUMPDEST DUP3 ADD PUSH1 0x1F DUP2 ADD DUP5 SGT PUSH2 0xCB3 JUMPI PUSH0 PUSH0 REVERT JUMPDEST PUSH2 0xC76 DUP5 DUP3 MLOAD PUSH1 0x20 DUP5 ADD PUSH2 0x81F JUMP JUMPDEST PUSH2 0x3C0A DUP1 PUSH2 0xCCF PUSH0 CODECOPY PUSH0 RETURN INVALID PUSH1 0x80 PUSH1 0x40 MSTORE PUSH1 0x4 CALLDATASIZE LT PUSH2 0x1FC JUMPI PUSH0 CALLDATALOAD PUSH1 0xE0 SHR DUP1 PUSH4 0x78495BF8 GT PUSH2 0x10C JUMPI DUP1 PUSH4 0x92B88F06 GT PUSH2 0x9F JUMPI DUP1 PUSH4 0xD6C1407C GT PUSH2 0x6E JUMPI DUP1 PUSH4 0xD6C1407C EQ PUSH2 0x658 JUMPI DUP1 PUSH4 0xDB8C9663 EQ PUSH2 0x677 JUMPI DUP1 PUSH4 0xDEDFF9C6 EQ PUSH2 0x696 JUMPI DUP1 PUSH4 0xE4AC8DBD EQ PUSH2 0x6B5 JUMPI DUP1 PUSH4 0xF2FDE38B EQ PUSH2 0x6C9 JUMPI PUSH2 0x255 JUMP JUMPDEST DUP1 PUSH4 0x92B88F06 EQ PUSH2 0x5CE JUMPI DUP1 PUSH4 0x97902421 EQ PUSH2 0x5FA JUMPI DUP1 PUSH4 0xA3B261F2 EQ PUSH2 0x60D JUMPI DUP1 PUSH4 0xBE9F0E6F EQ PUSH2 0x639 JUMPI PUSH2 0x255 JUMP JUMPDEST DUP1 PUSH4 0x86A10DDD GT PUSH2 0xDB JUMPI DUP1 PUSH4 0x86A10DDD EQ PUSH2 0x555 JUMPI DUP1 PUSH4 0x8DA5CB5B EQ PUSH2 0x574 JUMPI DUP1 PUSH4 0x8E945045 EQ PUSH2 0x590 JUMPI DUP1 PUSH4 0x8F81ECFC EQ PUSH2 0x5AF JUMPI PUSH2 0x255 JUMP JUMPDEST DUP1 PUSH4 0x78495BF8 EQ PUSH2 0x4EE JUMPI DUP1 PUSH4 0x7E87632C EQ PUSH2 0x504 JUMPI DUP1 PUSH4 0x7E913B05 EQ PUSH2 0x523 JUMPI DUP1 PUSH4 0x7F23690C EQ PUSH2 0x542 JUMPI PUSH2 0x255 JUMP JUMPDEST DUP1 PUSH4 0x217B2270 GT PUSH2 0x18F JUMPI DUP1 PUSH4 0x511B6952 GT PUSH2 0x15E JUMPI DUP1 PUSH4 0x511B6952 EQ PUSH2 0x45E JUMPI DUP1 PUSH4 0x54F6127F EQ PUSH2 0x47D JUMPI DUP1 PUSH4 0x6963D438 EQ PUSH2 0x49C JUMPI DUP1 PUSH4 0x70A08231 EQ PUSH2 0x4BB JUMPI DUP1 PUSH4 0x715018A6 EQ PUSH2 0x4DA JUMPI PUSH2 0x255 JUMP JUMPDEST DUP1 PUSH4 0x217B2270 EQ PUSH2 0x3D5 JUMPI DUP1 PUSH4 0x2A3654A4 EQ PUSH2 0x3F4 JUMPI DUP1 PUSH4 0x3187A67F EQ PUSH2 0x413 JUMPI DUP1 PUSH4 0x49A6078D EQ PUSH2 0x432 JUMPI PUSH2 0x255 JUMP JUMPDEST DUP1 PUSH4 0x16E023B3 GT PUSH2 0x1CB JUMPI DUP1 PUSH4 0x16E023B3 EQ PUSH2 0x328 JUMPI DUP1 PUSH4 0x18160DDD EQ PUSH2 0x354 JUMPI DUP1 PUSH4 0x1D26FCE6 EQ PUSH2 0x372 JUMPI DUP1 PUSH4 0x1F121708 EQ PUSH2 0x39E JUMPI PUSH2 0x255 JUMP JUMPDEST DUP1 PUSH4 0x1FFC9A7 EQ PUSH2 0x295 JUMPI DUP1 PUSH4 0x2154B4E EQ PUSH2 0x2C9 JUMPI DUP1 PUSH4 0xCFA4650 EQ PUSH2 0x2EA JUMPI DUP1 PUSH4 0x14F8CE6C EQ PUSH2 0x309 JUMPI PUSH2 0x255 JUMP JUMPDEST CALLDATASIZE PUSH2 0x255 JUMPI CALLVALUE PUSH0 SUB PUSH2 0x23C JUMPI PUSH1 0x40 MLOAD PUSH4 0xE5099EE3 PUSH1 0xE0 SHL DUP2 MSTORE PUSH1 0x4 ADD PUSH2 0x233 SWAP1 PUSH1 0x20 DUP1 DUP3 MSTORE PUSH1 0x4 SWAP1 DUP3 ADD MSTORE PUSH0 PUSH1 0x40 DUP3 ADD MSTORE PUSH1 0x60 ADD SWAP1 JUMP JUMPDEST PUSH1 0x40 MLOAD DUP1 SWAP2 SUB SWAP1 REVERT JUMPDEST PUSH1 0x40 MLOAD PUSH4 0x30FA4A21 PUSH1 0xE1 SHL DUP2 MSTORE PUSH1 0x4 ADD PUSH1 0x40 MLOAD DUP1 SWAP2 SUB SWAP1 REVERT JUMPDEST PUSH0 CALLDATASIZE PUSH1 0x60 PUSH1 0x4 DUP3 LT ISZERO PUSH2 0x27F JUMPI DUP3 DUP3 PUSH1 0x40 MLOAD PUSH4 0xE5099EE3 PUSH1 0xE0 SHL DUP2 MSTORE PUSH1 0x4 ADD PUSH2 0x233 SWAP3 SWAP2 SWAP1 PUSH2 0x2BAE JUMP JUMPDEST PUSH2 0x289 DUP4 DUP4 PUSH2 0x6E8 JUMP JUMPDEST DUP1 MLOAD SWAP4 POP PUSH1 0x20 ADD SWAP2 POP POP RETURN JUMPDEST CALLVALUE DUP1 ISZERO PUSH2 0x2A0 JUMPI PUSH0 PUSH0 REVERT JUMPDEST POP PUSH2 0x2B4 PUSH2 0x2AF CALLDATASIZE PUSH1 0x4 PUSH2 0x2BDC JUMP JUMPDEST PUSH2 0x7D7 JUMP JUMPDEST PUSH1 0x40 MLOAD SWAP1 ISZERO ISZERO DUP2 MSTORE PUSH1 0x20 ADD JUMPDEST PUSH1 0x40 MLOAD DUP1 SWAP2 SUB SWAP1 RETURN JUMPDEST CALLVALUE DUP1 ISZERO PUSH2 0x2D4 JUMPI PUSH0 PUSH0 REVERT JUMPDEST POP PUSH2 0x2E8 PUSH2 0x2E3 CALLDATASIZE PUSH1 0x4 PUSH2 0x2C1E JUMP JUMPDEST PUSH2 0x80A JUMP JUMPDEST STOP JUMPDEST CALLVALUE DUP1 ISZERO PUSH2 0x2F5 JUMPI PUSH0 PUSH0 REVERT JUMPDEST POP PUSH2 0x2E8 PUSH2 0x304 CALLDATASIZE PUSH1 0x4 PUSH2 0x2CF5 JUMP JUMPDEST PUSH2 0x85D JUMP JUMPDEST CALLVALUE DUP1 ISZERO PUSH2 0x314 JUMPI PUSH0 PUSH0 REVERT JUMPDEST POP PUSH2 0x2E8 PUSH2 0x323 CALLDATASIZE PUSH1 0x4 PUSH2 0x2DAA JUMP JUMPDEST PUSH2 0x8AA JUMP JUMPDEST CALLVALUE DUP1 ISZERO PUSH2 0x333 JUMPI PUSH0 PUSH0 REVERT JUMPDEST POP PUSH2 0x347 PUSH2 0x342 CALLDATASIZE PUSH1 0x4 PUSH2 0x2E39 JUMP JUMPDEST PUSH2 0x9C8 JUMP JUMPDEST PUSH1 0x40 MLOAD PUSH2 0x2C0 SWAP2 SWAP1 PUSH2 0x2E87 JUMP JUMPDEST CALLVALUE DUP1 ISZERO PUSH2 0x35F JUMPI PUSH0 PUSH0 REVERT JUMPDEST POP PUSH1 0x2 SLOAD JUMPDEST PUSH1 0x40 MLOAD SWAP1 DUP2 MSTORE PUSH1 0x20 ADD PUSH2 0x2C0 JUMP JUMPDEST CALLVALUE DUP1 ISZERO PUSH2 0x37D JUMPI PUSH0 PUSH0 REVERT JUMPDEST POP PUSH2 0x391 PUSH2 0x38C CALLDATASIZE PUSH1 0x4 PUSH2 0x2F20 JUMP JUMPDEST PUSH2 0x9DB JUMP JUMPDEST PUSH1 0x40 MLOAD PUSH2 0x2C0 SWAP2 SWAP1 PUSH2 0x2F83 JUMP JUMPDEST CALLVALUE DUP1 ISZERO PUSH2 0x3A9 JUMPI PUSH0 PUSH0 REVERT JUMPDEST POP PUSH1 0x8 SLOAD PUSH2 0x3BD SWAP1 PUSH1 0x1 PUSH1 0x1 PUSH1 0xA0 SHL SUB AND DUP2 JUMP JUMPDEST PUSH1 0x40 MLOAD PUSH1 0x1 PUSH1 0x1 PUSH1 0xA0 SHL SUB SWAP1 SWAP2 AND DUP2 MSTORE PUSH1 0x20 ADD PUSH2 0x2C0 JUMP JUMPDEST CALLVALUE DUP1 ISZERO PUSH2 0x3E0 JUMPI PUSH0 PUSH0 REVERT JUMPDEST POP PUSH2 0x3BD PUSH2 0x3EF CALLDATASIZE PUSH1 0x4 PUSH2 0x2FE6 JUMP JUMPDEST PUSH2 0xAC1 JUMP JUMPDEST CALLVALUE DUP1 ISZERO PUSH2 0x3FF JUMPI PUSH0 PUSH0 REVERT JUMPDEST POP PUSH2 0x2B4 PUSH2 0x40E CALLDATASIZE PUSH1 0x4 PUSH2 0x2FFD JUMP JUMPDEST PUSH2 0xAF9 JUMP JUMPDEST CALLVALUE DUP1 ISZERO PUSH2 0x41E JUMPI PUSH0 PUSH0 REVERT JUMPDEST POP PUSH2 0x2E8 PUSH2 0x42D CALLDATASIZE PUSH1 0x4 PUSH2 0x3025 JUMP JUMPDEST PUSH2 0xB04 JUMP JUMPDEST CALLVALUE DUP1 ISZERO PUSH2 0x43D JUMPI PUSH0 PUSH0 REVERT JUMPDEST POP PUSH2 0x451 PUSH2 0x44C CALLDATASIZE PUSH1 0x4 PUSH2 0x2FE6 JUMP JUMPDEST PUSH2 0xBCF JUMP JUMPDEST PUSH1 0x40 MLOAD PUSH2 0x2C0 SWAP2 SWAP1 PUSH2 0x30C8 JUMP JUMPDEST CALLVALUE DUP1 ISZERO PUSH2 0x469 JUMPI PUSH0 PUSH0 REVERT JUMPDEST POP PUSH2 0x2E8 PUSH2 0x478 CALLDATASIZE PUSH1 0x4 PUSH2 0x3122 JUMP JUMPDEST PUSH2 0xBF0 JUMP JUMPDEST CALLVALUE DUP1 ISZERO PUSH2 0x488 JUMPI PUSH0 PUSH0 REVERT JUMPDEST POP PUSH2 0x347 PUSH2 0x497 CALLDATASIZE PUSH1 0x4 PUSH2 0x2FE6 JUMP JUMPDEST PUSH2 0xC34 JUMP JUMPDEST CALLVALUE DUP1 ISZERO PUSH2 0x4A7 JUMPI PUSH0 PUSH0 REVERT JUMPDEST POP PUSH2 0x391 PUSH2 0x4B6 CALLDATASIZE PUSH1 0x4 PUSH2 0x3195 JUMP JUMPDEST PUSH2 0xC3F JUMP JUMPDEST CALLVALUE DUP1 ISZERO PUSH2 0x4C6 JUMPI PUSH0 PUSH0 REVERT JUMPDEST POP PUSH2 0x364 PUSH2 0x4D5 CALLDATASIZE PUSH1 0x4 PUSH2 0x2C1E JUMP JUMPDEST PUSH2 0xD69 JUMP JUMPDEST CALLVALUE DUP1 ISZERO PUSH2 0x4E5 JUMPI PUSH0 PUSH0 REVERT JUMPDEST POP PUSH2 0x2E8 PUSH2 0xD89 JUMP JUMPDEST CALLVALUE DUP1 ISZERO PUSH2 0x4F9 JUMPI PUSH0 PUSH0 REVERT JUMPDEST POP PUSH1 0x6 SLOAD PUSH2 0x364 SWAP1 DUP2 JUMP JUMPDEST CALLVALUE DUP1 ISZERO PUSH2 0x50F JUMPI PUSH0 PUSH0 REVERT JUMPDEST POP PUSH2 0x2E8 PUSH2 0x51E CALLDATASIZE PUSH1 0x4 PUSH2 0x3346 JUMP JUMPDEST PUSH2 0xD9C JUMP JUMPDEST CALLVALUE DUP1 ISZERO PUSH2 0x52E JUMPI PUSH0 PUSH0 REVERT JUMPDEST POP PUSH2 0x2E8 PUSH2 0x53D CALLDATASIZE PUSH1 0x4 PUSH2 0x2E39 JUMP JUMPDEST PUSH2 0xE8A JUMP JUMPDEST PUSH2 0x2E8 PUSH2 0x550 CALLDATASIZE PUSH1 0x4 PUSH2 0x3417 JUMP JUMPDEST PUSH2 0x1013 JUMP JUMPDEST CALLVALUE DUP1 ISZERO PUSH2 0x560 JUMPI PUSH0 PUSH0 REVERT JUMPDEST POP PUSH2 0x2E8 PUSH2 0x56F CALLDATASIZE PUSH1 0x4 PUSH2 0x3450 JUMP JUMPDEST PUSH2 0x1048 JUMP JUMPDEST CALLVALUE DUP1 ISZERO PUSH2 0x57F JUMPI PUSH0 PUSH0 REVERT JUMPDEST POP PUSH0 SLOAD PUSH1 0x1 PUSH1 0x1 PUSH1 0xA0 SHL SUB AND PUSH2 0x3BD JUMP JUMPDEST CALLVALUE DUP1 ISZERO PUSH2 0x59B JUMPI PUSH0 PUSH0 REVERT JUMPDEST POP PUSH2 0x2E8 PUSH2 0x5AA CALLDATASIZE PUSH1 0x4 PUSH2 0x2DAA JUMP JUMPDEST PUSH2 0x11BF JUMP JUMPDEST CALLVALUE DUP1 ISZERO PUSH2 0x5BA JUMPI PUSH0 PUSH0 REVERT JUMPDEST POP PUSH2 0x2E8 PUSH2 0x5C9 CALLDATASIZE PUSH1 0x4 PUSH2 0x2E39 JUMP JUMPDEST PUSH2 0x1274 JUMP JUMPDEST CALLVALUE DUP1 ISZERO PUSH2 0x5D9 JUMPI PUSH0 PUSH0 REVERT JUMPDEST POP PUSH2 0x5ED PUSH2 0x5E8 CALLDATASIZE PUSH1 0x4 PUSH2 0x2FE6 JUMP JUMPDEST PUSH2 0x1459 JUMP JUMPDEST PUSH1 0x40 MLOAD PUSH2 0x2C0 SWAP2 SWAP1 PUSH2 0x3510 JUMP JUMPDEST PUSH2 0x2E8 PUSH2 0x608 CALLDATASIZE PUSH1 0x4 PUSH2 0x3613 JUMP JUMPDEST PUSH2 0x1701 JUMP JUMPDEST CALLVALUE DUP1 ISZERO PUSH2 0x618 JUMPI PUSH0 PUSH0 REVERT JUMPDEST POP PUSH2 0x62C PUSH2 0x627 CALLDATASIZE PUSH1 0x4 PUSH2 0x2C1E JUMP JUMPDEST PUSH2 0x1732 JUMP JUMPDEST PUSH1 0x40 MLOAD PUSH2 0x2C0 SWAP2 SWAP1 PUSH2 0x366C JUMP JUMPDEST CALLVALUE DUP1 ISZERO PUSH2 0x644 JUMPI PUSH0 PUSH0 REVERT JUMPDEST POP PUSH2 0x2E8 PUSH2 0x653 CALLDATASIZE PUSH1 0x4 PUSH2 0x367E JUMP JUMPDEST PUSH2 0x1755 JUMP JUMPDEST CALLVALUE DUP1 ISZERO PUSH2 0x663 JUMPI PUSH0 PUSH0 REVERT JUMPDEST POP PUSH2 0x2E8 PUSH2 0x672 CALLDATASIZE PUSH1 0x4 PUSH2 0x36FF JUMP JUMPDEST PUSH2 0x1818 JUMP JUMPDEST CALLVALUE DUP1 ISZERO PUSH2 0x682 JUMPI PUSH0 PUSH0 REVERT JUMPDEST POP PUSH2 0x2E8 PUSH2 0x691 CALLDATASIZE PUSH1 0x4 PUSH2 0x3734 JUMP JUMPDEST PUSH2 0x186C JUMP JUMPDEST CALLVALUE DUP1 ISZERO PUSH2 0x6A1 JUMPI PUSH0 PUSH0 REVERT JUMPDEST POP PUSH2 0x391 PUSH2 0x6B0 CALLDATASIZE PUSH1 0x4 PUSH2 0x3797 JUMP JUMPDEST PUSH2 0x194D JUMP JUMPDEST CALLVALUE DUP1 ISZERO PUSH2 0x6C0 JUMPI PUSH0 PUSH0 REVERT JUMPDEST POP PUSH2 0x347 PUSH2 0x19F6 JUMP JUMPDEST CALLVALUE DUP1 ISZERO PUSH2 0x6D4 JUMPI PUSH0 PUSH0 REVERT JUMPDEST POP PUSH2 0x2E8 PUSH2 0x6E3 CALLDATASIZE PUSH1 0x4 PUSH2 0x2C1E JUMP JUMPDEST PUSH2 0x1A82 JUMP JUMPDEST PUSH1 0x60 PUSH0 PUSH2 0x6FF PUSH0 CALLDATALOAD PUSH1 0x1 PUSH1 0x1 PUSH1 0xE0 SHL SUB NOT AND PUSH2 0x1AEF JUMP JUMPDEST POP SWAP1 POP PUSH1 0x1 PUSH1 0x1 PUSH1 0xA0 SHL SUB DUP2 AND PUSH2 0x736 JUMPI PUSH1 0x40 MLOAD PUSH4 0xBB370B2B PUSH1 0xE0 SHL DUP2 MSTORE PUSH1 0x1 PUSH1 0x1 PUSH1 0xE0 SHL SUB NOT PUSH0 CALLDATALOAD AND PUSH1 0x4 DUP3 ADD MSTORE PUSH1 0x24 ADD PUSH2 0x233 JUMP JUMPDEST PUSH0 PUSH0 DUP3 PUSH1 0x1 PUSH1 0x1 PUSH1 0xA0 SHL SUB AND CALLVALUE DUP8 DUP8 CALLER CALLVALUE PUSH1 0x40 MLOAD PUSH1 0x20 ADD PUSH2 0x75A SWAP5 SWAP4 SWAP3 SWAP2 SWAP1 PUSH2 0x37C8 JUMP JUMPDEST PUSH1 0x40 DUP1 MLOAD PUSH1 0x1F NOT DUP2 DUP5 SUB ADD DUP2 MSTORE SWAP1 DUP3 SWAP1 MSTORE PUSH2 0x774 SWAP2 PUSH2 0x37F3 JUMP JUMPDEST PUSH0 PUSH1 0x40 MLOAD DUP1 DUP4 SUB DUP2 DUP6 DUP8 GAS CALL SWAP3 POP POP POP RETURNDATASIZE DUP1 PUSH0 DUP2 EQ PUSH2 0x7AE JUMPI PUSH1 0x40 MLOAD SWAP2 POP PUSH1 0x1F NOT PUSH1 0x3F RETURNDATASIZE ADD AND DUP3 ADD PUSH1 0x40 MSTORE RETURNDATASIZE DUP3 MSTORE RETURNDATASIZE PUSH0 PUSH1 0x20 DUP5 ADD RETURNDATACOPY PUSH2 0x7B3 JUMP JUMPDEST PUSH1 0x60 SWAP2 POP JUMPDEST POP SWAP2 POP SWAP2 POP DUP2 ISZERO PUSH2 0x7C8 JUMPI SWAP3 POP PUSH2 0x7D1 SWAP2 POP POP JUMP JUMPDEST DUP1 MLOAD DUP1 PUSH1 0x20 DUP4 ADD REVERT JUMPDEST SWAP3 SWAP2 POP POP JUMP JUMPDEST PUSH0 PUSH1 0x1 PUSH1 0x1 PUSH1 0xE0 SHL SUB NOT DUP3 AND PUSH4 0x1D138B83 PUSH1 0xE1 SHL EQ DUP1 PUSH2 0x7FB JUMPI POP PUSH2 0x7FB DUP3 PUSH2 0x1B6B JUMP JUMPDEST DUP1 PUSH2 0x7D1 JUMPI POP PUSH2 0x7D1 DUP3 PUSH2 0x1B8F JUMP JUMPDEST PUSH1 0x8 SLOAD PUSH1 0x1 PUSH1 0x1 PUSH1 0xA0 SHL SUB AND CALLER EQ PUSH2 0x851 JUMPI PUSH1 0x40 MLOAD PUSH3 0x461BCD PUSH1 0xE5 SHL DUP2 MSTORE PUSH1 0x20 PUSH1 0x4 DUP3 ADD MSTORE PUSH1 0xA PUSH1 0x24 DUP3 ADD MSTORE PUSH10 0x139BDD081C195C9B5A5D PUSH1 0xB2 SHL PUSH1 0x44 DUP3 ADD MSTORE PUSH1 0x64 ADD PUSH2 0x233 JUMP JUMPDEST PUSH2 0x85A DUP2 PUSH2 0x1BC4 JUMP JUMPDEST POP JUMP JUMPDEST PUSH2 0x865 PUSH2 0x1C13 JUMP JUMPDEST PUSH1 0x9 PUSH2 0x871 DUP3 DUP3 PUSH2 0x387F JUMP JUMPDEST POP PUSH0 DUP1 SLOAD PUSH1 0x40 MLOAD PUSH1 0x1 PUSH1 0x1 PUSH1 0xA0 SHL SUB SWAP1 SWAP2 AND SWAP2 PUSH32 0x52DFE4FD4C28A03CD8AB0AF4995F1CAF006268A90C0E57CBD291D33F358FBC2F SWAP2 LOG2 POP JUMP JUMPDEST DUP5 PUSH0 PUSH2 0x8B5 DUP3 PUSH2 0xAC1 JUMP JUMPDEST SWAP1 POP CALLER PUSH1 0x1 PUSH1 0x1 PUSH1 0xA0 SHL SUB DUP3 AND EQ DUP1 PUSH2 0x8D7 JUMPI POP PUSH0 SLOAD PUSH1 0x1 PUSH1 0x1 PUSH1 0xA0 SHL SUB AND CALLER EQ JUMPDEST PUSH2 0x8F3 JUMPI PUSH1 0x40 MLOAD PUSH3 0x461BCD PUSH1 0xE5 SHL DUP2 MSTORE PUSH1 0x4 ADD PUSH2 0x233 SWAP1 PUSH2 0x3939 JUMP JUMPDEST PUSH0 DUP8 DUP2 MSTORE PUSH1 0x7 PUSH1 0x20 MSTORE PUSH1 0x40 SWAP1 KECCAK256 DUP1 PUSH2 0x90B DUP9 DUP3 PUSH2 0x387F JUMP JUMPDEST POP DUP5 MLOAD PUSH1 0x6 DUP3 ADD DUP1 SLOAD PUSH1 0x20 DUP1 DUP10 ADD MLOAD PUSH1 0x40 DUP1 DUP12 ADD MLOAD PUSH2 0xFFFF SWAP7 DUP8 AND PUSH3 0xFFFFFF NOT SWAP6 DUP7 AND OR PUSH3 0x10000 PUSH1 0xFF SWAP5 DUP6 AND DUP2 MUL SWAP2 SWAP1 SWAP2 OR PUSH4 0xFF000000 NOT SWAP1 DUP2 AND PUSH4 0x1000000 SWAP4 DUP7 AND DUP5 MUL OR SWAP1 SWAP8 SSTORE DUP12 MLOAD PUSH1 0x7 DUP11 ADD DUP1 SLOAD SWAP7 DUP15 ADD MLOAD SWAP5 DUP15 ADD MLOAD SWAP2 SWAP1 SWAP10 AND SWAP6 SWAP1 SWAP7 AND SWAP5 SWAP1 SWAP5 OR SWAP2 DUP4 AND SWAP1 SWAP4 MUL OR SWAP1 SWAP4 AND SWAP2 SWAP1 SWAP3 AND SWAP1 SWAP2 MUL OR SWAP1 SSTORE PUSH1 0x8 DUP2 ADD PUSH2 0x993 DUP8 DUP3 PUSH2 0x387F JUMP JUMPDEST POP PUSH1 0x40 MLOAD DUP9 SWAP1 PUSH32 0x88B778B9AA1C8317C051D681D7E71C9F3E40C539FBAF5CADFD37476C1B15DEC SWAP1 PUSH0 SWAP1 LOG2 POP POP POP POP POP POP POP POP JUMP JUMPDEST PUSH1 0x60 PUSH2 0x9D4 DUP4 DUP4 PUSH2 0x1C6C JUMP JUMPDEST SWAP4 SWAP3 POP POP POP JUMP JUMPDEST PUSH1 0x60 DUP2 MLOAD DUP4 MLOAD EQ PUSH2 0x9FF JUMPI PUSH1 0x40 MLOAD PUSH4 0x17D38EFF PUSH1 0xE1 SHL DUP2 MSTORE PUSH1 0x4 ADD PUSH1 0x40 MLOAD DUP1 SWAP2 SUB SWAP1 REVERT JUMPDEST DUP3 MLOAD PUSH1 0x1 PUSH1 0x1 PUSH1 0x40 SHL SUB DUP2 GT ISZERO PUSH2 0xA18 JUMPI PUSH2 0xA18 PUSH2 0x2C37 JUMP JUMPDEST PUSH1 0x40 MLOAD SWAP1 DUP1 DUP3 MSTORE DUP1 PUSH1 0x20 MUL PUSH1 0x20 ADD DUP3 ADD PUSH1 0x40 MSTORE DUP1 ISZERO PUSH2 0xA4B JUMPI DUP2 PUSH1 0x20 ADD JUMPDEST PUSH1 0x60 DUP2 MSTORE PUSH1 0x20 ADD SWAP1 PUSH1 0x1 SWAP1 SUB SWAP1 DUP2 PUSH2 0xA36 JUMPI SWAP1 POP JUMPDEST POP SWAP1 POP PUSH0 JUMPDEST DUP4 MLOAD DUP2 LT ISZERO PUSH2 0xABA JUMPI PUSH2 0xA95 DUP5 DUP3 DUP2 MLOAD DUP2 LT PUSH2 0xA6E JUMPI PUSH2 0xA6E PUSH2 0x3961 JUMP JUMPDEST PUSH1 0x20 MUL PUSH1 0x20 ADD ADD MLOAD DUP5 DUP4 DUP2 MLOAD DUP2 LT PUSH2 0xA88 JUMPI PUSH2 0xA88 PUSH2 0x3961 JUMP JUMPDEST PUSH1 0x20 MUL PUSH1 0x20 ADD ADD MLOAD PUSH2 0x1C6C JUMP JUMPDEST DUP3 DUP3 DUP2 MLOAD DUP2 LT PUSH2 0xAA7 JUMPI PUSH2 0xAA7 PUSH2 0x3961 JUMP JUMPDEST PUSH1 0x20 SWAP1 DUP2 MUL SWAP2 SWAP1 SWAP2 ADD ADD MSTORE PUSH1 0x1 ADD PUSH2 0xA50 JUMP JUMPDEST POP SWAP3 SWAP2 POP POP JUMP JUMPDEST PUSH0 DUP2 DUP2 MSTORE PUSH1 0x3 PUSH1 0x20 MSTORE PUSH1 0x40 DUP2 KECCAK256 SLOAD PUSH1 0x1 PUSH1 0x1 PUSH1 0xA0 SHL SUB AND DUP1 PUSH2 0x7D1 JUMPI PUSH1 0x40 MLOAD PUSH4 0x5747CD1B PUSH1 0xE1 SHL DUP2 MSTORE PUSH1 0x4 DUP2 ADD DUP5 SWAP1 MSTORE PUSH1 0x24 ADD PUSH2 0x233 JUMP JUMPDEST PUSH0 PUSH2 0x9D4 DUP4 DUP4 PUSH2 0x1D3F JUMP JUMPDEST DUP6 PUSH0 PUSH2 0xB0F DUP3 PUSH2 0xAC1 JUMP JUMPDEST SWAP1 POP CALLER PUSH1 0x1 PUSH1 0x1 PUSH1 0xA0 SHL SUB DUP3 AND EQ DUP1 PUSH2 0xB31 JUMPI POP PUSH0 SLOAD PUSH1 0x1 PUSH1 0x1 PUSH1 0xA0 SHL SUB AND CALLER EQ JUMPDEST PUSH2 0xB4D JUMPI PUSH1 0x40 MLOAD PUSH3 0x461BCD PUSH1 0xE5 SHL DUP2 MSTORE PUSH1 0x4 ADD PUSH2 0x233 SWAP1 PUSH2 0x3939 JUMP JUMPDEST PUSH0 DUP9 DUP2 MSTORE PUSH1 0x7 PUSH1 0x20 MSTORE PUSH1 0x40 DUP2 KECCAK256 SWAP1 PUSH2 0xB69 DUP10 DUP10 CALLER DUP11 DUP11 DUP11 PUSH2 0x1D7A JUMP JUMPDEST PUSH1 0x3 DUP4 ADD DUP1 SLOAD PUSH1 0x1 DUP2 DUP2 ADD DUP4 SSTORE PUSH0 SWAP3 DUP4 MSTORE PUSH1 0x20 DUP1 DUP5 KECCAK256 SWAP1 SWAP3 ADD DUP5 SWAP1 SSTORE DUP4 DUP4 MSTORE PUSH1 0x7 SWAP1 SWAP2 MSTORE PUSH1 0x40 DUP1 DUP4 KECCAK256 SWAP1 SWAP2 ADD DUP14 SWAP1 SSTORE MLOAD SWAP2 SWAP3 POP DUP3 SWAP2 DUP13 SWAP2 PUSH32 0x95AFC0D374F4E4B0D262BE4433E573B5862C9FB50C22EE6438A313040F5487CC SWAP2 LOG3 POP POP POP POP POP POP POP POP POP POP JUMP JUMPDEST PUSH1 0x60 PUSH2 0xBDA DUP3 PUSH2 0x1EBB JUMP JUMPDEST PUSH0 DUP3 DUP2 MSTORE PUSH1 0x5 PUSH1 0x20 MSTORE PUSH1 0x40 SWAP1 KECCAK256 PUSH2 0x7D1 SWAP1 PUSH2 0x1EF2 JUMP JUMPDEST PUSH2 0xBFA CALLER DUP5 PUSH2 0x1D3F JUMP JUMPDEST PUSH2 0xC20 JUMPI PUSH1 0x40 MLOAD PUSH4 0x1294D2A9 PUSH1 0xE0 SHL DUP2 MSTORE PUSH1 0x4 DUP2 ADD DUP5 SWAP1 MSTORE CALLER PUSH1 0x24 DUP3 ADD MSTORE PUSH1 0x44 ADD PUSH2 0x233 JUMP JUMPDEST PUSH2 0xC2D DUP6 DUP6 DUP6 DUP6 DUP6 PUSH2 0x1EFE JUMP JUMPDEST POP POP POP POP POP JUMP JUMPDEST PUSH1 0x60 PUSH2 0x7D1 DUP3 PUSH2 0x20DA JUMP JUMPDEST PUSH1 0x60 DUP2 PUSH1 0x1 PUSH1 0x1 PUSH1 0x40 SHL SUB DUP2 GT ISZERO PUSH2 0xC59 JUMPI PUSH2 0xC59 PUSH2 0x2C37 JUMP JUMPDEST PUSH1 0x40 MLOAD SWAP1 DUP1 DUP3 MSTORE DUP1 PUSH1 0x20 MUL PUSH1 0x20 ADD DUP3 ADD PUSH1 0x40 MSTORE DUP1 ISZERO PUSH2 0xC8C JUMPI DUP2 PUSH1 0x20 ADD JUMPDEST PUSH1 0x60 DUP2 MSTORE PUSH1 0x20 ADD SWAP1 PUSH1 0x1 SWAP1 SUB SWAP1 DUP2 PUSH2 0xC77 JUMPI SWAP1 POP JUMPDEST POP SWAP1 POP PUSH0 JUMPDEST DUP3 DUP2 LT ISZERO PUSH2 0xABA JUMPI PUSH0 DUP1 ADDRESS DUP7 DUP7 DUP6 DUP2 DUP2 LT PUSH2 0xCAE JUMPI PUSH2 0xCAE PUSH2 0x3961 JUMP JUMPDEST SWAP1 POP PUSH1 0x20 MUL DUP2 ADD SWAP1 PUSH2 0xCC0 SWAP2 SWAP1 PUSH2 0x3975 JUMP JUMPDEST PUSH1 0x40 MLOAD PUSH2 0xCCE SWAP3 SWAP2 SWAP1 PUSH2 0x39BE JUMP JUMPDEST PUSH0 PUSH1 0x40 MLOAD DUP1 DUP4 SUB DUP2 DUP6 GAS DELEGATECALL SWAP2 POP POP RETURNDATASIZE DUP1 PUSH0 DUP2 EQ PUSH2 0xD06 JUMPI PUSH1 0x40 MLOAD SWAP2 POP PUSH1 0x1F NOT PUSH1 0x3F RETURNDATASIZE ADD AND DUP3 ADD PUSH1 0x40 MSTORE RETURNDATASIZE DUP3 MSTORE RETURNDATASIZE PUSH0 PUSH1 0x20 DUP5 ADD RETURNDATACOPY PUSH2 0xD0B JUMP JUMPDEST PUSH1 0x60 SWAP2 POP JUMPDEST POP SWAP2 POP SWAP2 POP DUP2 PUSH2 0xD41 JUMPI DUP1 MLOAD ISZERO PUSH2 0xD25 JUMPI DUP1 MLOAD DUP1 DUP3 PUSH1 0x20 ADD REVERT JUMPDEST PUSH1 0x40 MLOAD PUSH4 0x234EB819 PUSH1 0xE0 SHL DUP2 MSTORE PUSH1 0x4 DUP2 ADD DUP5 SWAP1 MSTORE PUSH1 0x24 ADD PUSH2 0x233 JUMP JUMPDEST DUP1 DUP5 DUP5 DUP2 MLOAD DUP2 LT PUSH2 0xD54 JUMPI PUSH2 0xD54 PUSH2 0x3961 JUMP JUMPDEST PUSH1 0x20 SWAP1 DUP2 MUL SWAP2 SWAP1 SWAP2 ADD ADD MSTORE POP POP PUSH1 0x1 ADD PUSH2 0xC91 JUMP JUMPDEST PUSH1 0x1 PUSH1 0x1 PUSH1 0xA0 SHL SUB DUP2 AND PUSH0 SWAP1 DUP2 MSTORE PUSH1 0x4 PUSH1 0x20 MSTORE PUSH1 0x40 DUP2 KECCAK256 PUSH2 0x7D1 SWAP1 PUSH2 0x2179 JUMP JUMPDEST PUSH2 0xD91 PUSH2 0x1C13 JUMP JUMPDEST PUSH2 0xD9A PUSH0 PUSH2 0x1BC4 JUMP JUMPDEST JUMP JUMPDEST DUP5 MLOAD DUP5 MLOAD DUP2 EQ ISZERO DUP1 PUSH2 0xDAF JUMPI POP DUP4 MLOAD DUP2 EQ ISZERO JUMPDEST DUP1 PUSH2 0xDBB JUMPI POP DUP3 MLOAD DUP2 EQ ISZERO JUMPDEST DUP1 PUSH2 0xDC7 JUMPI POP DUP2 MLOAD DUP2 EQ ISZERO JUMPDEST ISZERO PUSH2 0xDE5 JUMPI PUSH1 0x40 MLOAD PUSH4 0x93A83119 PUSH1 0xE0 SHL DUP2 MSTORE PUSH1 0x4 ADD PUSH1 0x40 MLOAD DUP1 SWAP2 SUB SWAP1 REVERT JUMPDEST PUSH0 JUMPDEST DUP2 DUP2 LT ISZERO PUSH2 0xE81 JUMPI PUSH2 0xE79 DUP8 DUP3 DUP2 MLOAD DUP2 LT PUSH2 0xE04 JUMPI PUSH2 0xE04 PUSH2 0x3961 JUMP JUMPDEST PUSH1 0x20 MUL PUSH1 0x20 ADD ADD MLOAD DUP8 DUP4 DUP2 MLOAD DUP2 LT PUSH2 0xE1E JUMPI PUSH2 0xE1E PUSH2 0x3961 JUMP JUMPDEST PUSH1 0x20 MUL PUSH1 0x20 ADD ADD MLOAD DUP8 DUP5 DUP2 MLOAD DUP2 LT PUSH2 0xE38 JUMPI PUSH2 0xE38 PUSH2 0x3961 JUMP JUMPDEST PUSH1 0x20 MUL PUSH1 0x20 ADD ADD MLOAD DUP8 DUP6 DUP2 MLOAD DUP2 LT PUSH2 0xE52 JUMPI PUSH2 0xE52 PUSH2 0x3961 JUMP JUMPDEST PUSH1 0x20 MUL PUSH1 0x20 ADD ADD MLOAD DUP8 DUP7 DUP2 MLOAD DUP2 LT PUSH2 0xE6C JUMPI PUSH2 0xE6C PUSH2 0x3961 JUMP JUMPDEST PUSH1 0x20 MUL PUSH1 0x20 ADD ADD MLOAD PUSH2 0xBF0 JUMP JUMPDEST PUSH1 0x1 ADD PUSH2 0xDE7 JUMP JUMPDEST POP POP POP POP POP POP POP JUMP JUMPDEST DUP2 PUSH0 PUSH2 0xE95 DUP3 PUSH2 0xAC1 JUMP JUMPDEST SWAP1 POP CALLER PUSH1 0x1 PUSH1 0x1 PUSH1 0xA0 SHL SUB DUP3 AND EQ DUP1 PUSH2 0xEB7 JUMPI POP PUSH0 SLOAD PUSH1 0x1 PUSH1 0x1 PUSH1 0xA0 SHL SUB AND CALLER EQ JUMPDEST PUSH2 0xED3 JUMPI PUSH1 0x40 MLOAD PUSH3 0x461BCD PUSH1 0xE5 SHL DUP2 MSTORE PUSH1 0x4 ADD PUSH2 0x233 SWAP1 PUSH2 0x3939 JUMP JUMPDEST PUSH0 DUP5 DUP2 MSTORE PUSH1 0x7 PUSH1 0x20 MSTORE PUSH1 0x40 DUP2 KECCAK256 SWAP1 JUMPDEST PUSH1 0x4 DUP3 ADD SLOAD DUP2 LT ISZERO PUSH2 0xFD1 JUMPI DUP5 DUP3 PUSH1 0x4 ADD DUP3 DUP2 SLOAD DUP2 LT PUSH2 0xF04 JUMPI PUSH2 0xF04 PUSH2 0x3961 JUMP JUMPDEST SWAP1 PUSH0 MSTORE PUSH1 0x20 PUSH0 KECCAK256 ADD SLOAD SUB PUSH2 0xFC9 JUMPI PUSH1 0x4 DUP3 ADD SLOAD PUSH0 SWAP1 PUSH2 0xF25 SWAP1 PUSH1 0x1 SWAP1 PUSH2 0x39E1 JUMP JUMPDEST SWAP1 POP DUP1 DUP3 EQ PUSH2 0xF6D JUMPI DUP3 PUSH1 0x4 ADD DUP2 DUP2 SLOAD DUP2 LT PUSH2 0xF43 JUMPI PUSH2 0xF43 PUSH2 0x3961 JUMP JUMPDEST SWAP1 PUSH0 MSTORE PUSH1 0x20 PUSH0 KECCAK256 ADD SLOAD DUP4 PUSH1 0x4 ADD DUP4 DUP2 SLOAD DUP2 LT PUSH2 0xF61 JUMPI PUSH2 0xF61 PUSH2 0x3961 JUMP JUMPDEST PUSH0 SWAP2 DUP3 MSTORE PUSH1 0x20 SWAP1 SWAP2 KECCAK256 ADD SSTORE JUMPDEST DUP3 PUSH1 0x4 ADD DUP1 SLOAD DUP1 PUSH2 0xF80 JUMPI PUSH2 0xF80 PUSH2 0x39F4 JUMP JUMPDEST PUSH1 0x1 SWAP1 SUB DUP2 DUP2 SWAP1 PUSH0 MSTORE PUSH1 0x20 PUSH0 KECCAK256 ADD PUSH0 SWAP1 SSTORE SWAP1 SSTORE DUP6 DUP8 PUSH32 0xF1387B2F8963CA7947C75FAA29A4C7DE0859D44C5F9A658761ACBDC5D539976B PUSH1 0x40 MLOAD PUSH1 0x40 MLOAD DUP1 SWAP2 SUB SWAP1 LOG3 POP POP POP PUSH2 0x100D JUMP JUMPDEST PUSH1 0x1 ADD PUSH2 0xEE2 JUMP JUMPDEST POP PUSH1 0x40 MLOAD PUSH3 0x461BCD PUSH1 0xE5 SHL DUP2 MSTORE PUSH1 0x20 PUSH1 0x4 DUP3 ADD MSTORE PUSH1 0x10 PUSH1 0x24 DUP3 ADD MSTORE PUSH16 0x14DC1BDD5CD9481B9BDD08199BDD5B99 PUSH1 0x82 SHL PUSH1 0x44 DUP3 ADD MSTORE PUSH1 0x64 ADD PUSH2 0x233 JUMP JUMPDEST POP POP POP POP JUMP JUMPDEST PUSH2 0x101B PUSH2 0x1C13 JUMP JUMPDEST CALLVALUE ISZERO PUSH2 0x103A JUMPI PUSH1 0x40 MLOAD PUSH4 0xF36BA737 PUSH1 0xE0 SHL DUP2 MSTORE PUSH1 0x4 ADD PUSH1 0x40 MLOAD DUP1 SWAP2 SUB SWAP1 REVERT JUMPDEST PUSH2 0x1044 DUP3 DUP3 PUSH2 0x2182 JUMP JUMPDEST POP POP JUMP JUMPDEST PUSH0 PUSH2 0x1052 DUP4 PUSH2 0xAC1 JUMP JUMPDEST SWAP1 POP PUSH1 0x1 PUSH1 0x1 PUSH1 0xA0 SHL SUB DUP2 AND CALLER EQ PUSH2 0x1095 JUMPI PUSH1 0x40 MLOAD PUSH4 0x2D938F51 PUSH1 0xE1 SHL DUP2 MSTORE PUSH1 0x1 PUSH1 0x1 PUSH1 0xA0 SHL SUB DUP3 AND PUSH1 0x4 DUP3 ADD MSTORE PUSH1 0x24 DUP2 ADD DUP5 SWAP1 MSTORE CALLER PUSH1 0x44 DUP3 ADD MSTORE PUSH1 0x64 ADD PUSH2 0x233 JUMP JUMPDEST PUSH1 0x1 PUSH1 0x1 PUSH1 0xA0 SHL SUB DUP5 AND PUSH2 0x10BC JUMPI PUSH1 0x40 MLOAD PUSH4 0x9577B8B3 PUSH1 0xE0 SHL DUP2 MSTORE PUSH1 0x4 ADD PUSH1 0x40 MLOAD DUP1 SWAP2 SUB SWAP1 REVERT JUMPDEST DUP4 PUSH1 0x1 PUSH1 0x1 PUSH1 0xA0 SHL SUB AND DUP2 PUSH1 0x1 PUSH1 0x1 PUSH1 0xA0 SHL SUB AND SUB PUSH2 0x10EE JUMPI PUSH1 0x40 MLOAD PUSH4 0x44FED6B1 PUSH1 0xE1 SHL DUP2 MSTORE PUSH1 0x4 ADD PUSH1 0x40 MLOAD DUP1 SWAP2 SUB SWAP1 REVERT JUMPDEST PUSH0 DUP4 DUP2 MSTORE PUSH1 0x5 PUSH1 0x20 MSTORE PUSH1 0x40 DUP2 KECCAK256 PUSH2 0x1105 SWAP1 DUP7 PUSH2 0x21CC JUMP JUMPDEST SWAP1 POP DUP1 PUSH2 0x1137 JUMPI PUSH1 0x40 MLOAD PUSH4 0x14EC4D6D PUSH1 0xE3 SHL DUP2 MSTORE PUSH1 0x1 PUSH1 0x1 PUSH1 0xA0 SHL SUB DUP7 AND PUSH1 0x4 DUP3 ADD MSTORE PUSH1 0x24 DUP2 ADD DUP6 SWAP1 MSTORE PUSH1 0x44 ADD PUSH2 0x233 JUMP JUMPDEST DUP4 DUP3 PUSH1 0x1 PUSH1 0x1 PUSH1 0xA0 SHL SUB AND DUP7 PUSH1 0x1 PUSH1 0x1 PUSH1 0xA0 SHL SUB AND PUSH32 0x1B1B58AA2EC0CEC2228B2D37124556D41F5A1F7B12F089171F896CC236671215 DUP7 PUSH1 0x40 MLOAD PUSH2 0x117B SWAP2 SWAP1 PUSH2 0x2E87 JUMP JUMPDEST PUSH1 0x40 MLOAD DUP1 SWAP2 SUB SWAP1 LOG4 PUSH0 CALLER DUP6 PUSH1 0x1 DUP7 PUSH1 0x40 MLOAD PUSH1 0x20 ADD PUSH2 0x119C SWAP5 SWAP4 SWAP3 SWAP2 SWAP1 PUSH2 0x3A08 JUMP JUMPDEST PUSH1 0x40 MLOAD PUSH1 0x20 DUP2 DUP4 SUB SUB DUP2 MSTORE SWAP1 PUSH1 0x40 MSTORE SWAP1 POP PUSH2 0x11B7 DUP7 DUP3 PUSH2 0x21E0 JUMP JUMPDEST POP POP POP POP POP POP JUMP JUMPDEST DUP5 PUSH0 PUSH2 0x11CA DUP3 PUSH2 0xAC1 JUMP JUMPDEST SWAP1 POP CALLER PUSH1 0x1 PUSH1 0x1 PUSH1 0xA0 SHL SUB DUP3 AND EQ DUP1 PUSH2 0x11EC JUMPI POP PUSH0 SLOAD PUSH1 0x1 PUSH1 0x1 PUSH1 0xA0 SHL SUB AND CALLER EQ JUMPDEST PUSH2 0x1208 JUMPI PUSH1 0x40 MLOAD PUSH3 0x461BCD PUSH1 0xE5 SHL DUP2 MSTORE PUSH1 0x4 ADD PUSH2 0x233 SWAP1 PUSH2 0x3939 JUMP JUMPDEST PUSH0 PUSH2 0x1218 DUP8 DUP8 CALLER PUSH1 0x1 DUP10 DUP10 PUSH2 0x1D7A JUMP JUMPDEST PUSH0 DUP2 DUP2 MSTORE PUSH1 0x7 PUSH1 0x20 SWAP1 DUP2 MSTORE PUSH1 0x40 DUP1 DUP4 KECCAK256 PUSH1 0x4 ADD DUP1 SLOAD PUSH1 0x1 DUP2 ADD DUP3 SSTORE SWAP1 DUP5 MSTORE SWAP2 DUP4 KECCAK256 SWAP1 SWAP2 ADD DUP4 SWAP1 SSTORE MLOAD SWAP2 SWAP3 POP DUP3 SWAP2 DUP11 SWAP2 PUSH32 0xCA4757636F927657C127875C4F0C0EC6E1F84D4769348F20FFF39486A4BB2C3F SWAP2 LOG3 POP POP POP POP POP POP POP POP JUMP JUMPDEST DUP2 PUSH0 PUSH2 0x127F DUP3 PUSH2 0xAC1 JUMP JUMPDEST SWAP1 POP CALLER PUSH1 0x1 PUSH1 0x1 PUSH1 0xA0 SHL SUB DUP3 AND EQ DUP1 PUSH2 0x12A1 JUMPI POP PUSH0 SLOAD PUSH1 0x1 PUSH1 0x1 PUSH1 0xA0 SHL SUB AND CALLER EQ JUMPDEST PUSH2 0x12BD JUMPI PUSH1 0x40 MLOAD PUSH3 0x461BCD PUSH1 0xE5 SHL DUP2 MSTORE PUSH1 0x4 ADD PUSH2 0x233 SWAP1 PUSH2 0x3939 JUMP JUMPDEST PUSH0 DUP5 DUP2 MSTORE PUSH1 0x7 PUSH1 0x20 MSTORE PUSH1 0x40 DUP1 DUP3 KECCAK256 DUP6 DUP4 MSTORE SWAP2 KECCAK256 PUSH1 0x1 DUP2 ADD SLOAD DUP7 EQ PUSH2 0x1323 JUMPI PUSH1 0x40 MLOAD PUSH3 0x461BCD PUSH1 0xE5 SHL DUP2 MSTORE PUSH1 0x20 PUSH1 0x4 DUP3 ADD MSTORE PUSH1 0x18 PUSH1 0x24 DUP3 ADD MSTORE PUSH32 0x4E6F74206368696C64206F66207468697320706572736F6E0000000000000000 PUSH1 0x44 DUP3 ADD MSTORE PUSH1 0x64 ADD PUSH2 0x233 JUMP JUMPDEST PUSH0 JUMPDEST PUSH1 0x3 DUP4 ADD SLOAD DUP2 LT ISZERO PUSH2 0x141E JUMPI DUP6 DUP4 PUSH1 0x3 ADD DUP3 DUP2 SLOAD DUP2 LT PUSH2 0x1347 JUMPI PUSH2 0x1347 PUSH2 0x3961 JUMP JUMPDEST SWAP1 PUSH0 MSTORE PUSH1 0x20 PUSH0 KECCAK256 ADD SLOAD SUB PUSH2 0x1416 JUMPI PUSH1 0x3 DUP4 ADD SLOAD PUSH0 SWAP1 PUSH2 0x1368 SWAP1 PUSH1 0x1 SWAP1 PUSH2 0x39E1 JUMP JUMPDEST SWAP1 POP DUP1 DUP3 EQ PUSH2 0x13B0 JUMPI DUP4 PUSH1 0x3 ADD DUP2 DUP2 SLOAD DUP2 LT PUSH2 0x1386 JUMPI PUSH2 0x1386 PUSH2 0x3961 JUMP JUMPDEST SWAP1 PUSH0 MSTORE PUSH1 0x20 PUSH0 KECCAK256 ADD SLOAD DUP5 PUSH1 0x3 ADD DUP4 DUP2 SLOAD DUP2 LT PUSH2 0x13A4 JUMPI PUSH2 0x13A4 PUSH2 0x3961 JUMP JUMPDEST PUSH0 SWAP2 DUP3 MSTORE PUSH1 0x20 SWAP1 SWAP2 KECCAK256 ADD SSTORE JUMPDEST DUP4 PUSH1 0x3 ADD DUP1 SLOAD DUP1 PUSH2 0x13C3 JUMPI PUSH2 0x13C3 PUSH2 0x39F4 JUMP JUMPDEST PUSH0 DUP3 DUP2 MSTORE PUSH1 0x20 DUP2 KECCAK256 DUP3 ADD PUSH0 NOT SWAP1 DUP2 ADD DUP3 SWAP1 SSTORE SWAP1 SWAP2 ADD SWAP1 SWAP2 SSTORE PUSH1 0x1 DUP5 ADD DUP2 SWAP1 SSTORE PUSH1 0x40 MLOAD DUP9 SWAP2 DUP11 SWAP2 PUSH32 0xD22EF99C12AEAECAC27F6067207B23AC6A9AE5F21E97134B39E98320AA04FA5D SWAP2 SWAP1 LOG3 POP POP POP POP PUSH2 0x100D JUMP JUMPDEST PUSH1 0x1 ADD PUSH2 0x1325 JUMP JUMPDEST POP PUSH1 0x40 MLOAD PUSH3 0x461BCD PUSH1 0xE5 SHL DUP2 MSTORE PUSH1 0x20 PUSH1 0x4 DUP3 ADD MSTORE PUSH1 0xF PUSH1 0x24 DUP3 ADD MSTORE PUSH15 0x10DA1A5B19081B9BDD08199BDD5B99 PUSH1 0x8A SHL PUSH1 0x44 DUP3 ADD MSTORE PUSH1 0x64 ADD PUSH2 0x233 JUMP JUMPDEST PUSH2 0x1461 PUSH2 0x2B2A JUMP JUMPDEST PUSH0 DUP3 DUP2 MSTORE PUSH1 0x7 PUSH1 0x20 MSTORE PUSH1 0x40 SWAP1 DUP2 SWAP1 KECCAK256 DUP2 MLOAD PUSH2 0x120 DUP2 ADD SWAP1 SWAP3 MSTORE DUP1 SLOAD DUP3 SWAP1 DUP3 SWAP1 PUSH2 0x1489 SWAP1 PUSH2 0x3809 JUMP JUMPDEST DUP1 PUSH1 0x1F ADD PUSH1 0x20 DUP1 SWAP2 DIV MUL PUSH1 0x20 ADD PUSH1 0x40 MLOAD SWAP1 DUP2 ADD PUSH1 0x40 MSTORE DUP1 SWAP3 SWAP2 SWAP1 DUP2 DUP2 MSTORE PUSH1 0x20 ADD DUP3 DUP1 SLOAD PUSH2 0x14B5 SWAP1 PUSH2 0x3809 JUMP JUMPDEST DUP1 ISZERO PUSH2 0x1500 JUMPI DUP1 PUSH1 0x1F LT PUSH2 0x14D7 JUMPI PUSH2 0x100 DUP1 DUP4 SLOAD DIV MUL DUP4 MSTORE SWAP2 PUSH1 0x20 ADD SWAP2 PUSH2 0x1500 JUMP JUMPDEST DUP3 ADD SWAP2 SWAP1 PUSH0 MSTORE PUSH1 0x20 PUSH0 KECCAK256 SWAP1 JUMPDEST DUP2 SLOAD DUP2 MSTORE SWAP1 PUSH1 0x1 ADD SWAP1 PUSH1 0x20 ADD DUP1 DUP4 GT PUSH2 0x14E3 JUMPI DUP3 SWAP1 SUB PUSH1 0x1F AND DUP3 ADD SWAP2 JUMPDEST POP POP POP POP POP DUP2 MSTORE PUSH1 0x20 ADD PUSH1 0x1 DUP3 ADD SLOAD DUP2 MSTORE PUSH1 0x20 ADD PUSH1 0x2 DUP3 ADD SLOAD DUP2 MSTORE PUSH1 0x20 ADD PUSH1 0x3 DUP3 ADD DUP1 SLOAD DUP1 PUSH1 0x20 MUL PUSH1 0x20 ADD PUSH1 0x40 MLOAD SWAP1 DUP2 ADD PUSH1 0x40 MSTORE DUP1 SWAP3 SWAP2 SWAP1 DUP2 DUP2 MSTORE PUSH1 0x20 ADD DUP3 DUP1 SLOAD DUP1 ISZERO PUSH2 0x156A JUMPI PUSH1 0x20 MUL DUP3 ADD SWAP2 SWAP1 PUSH0 MSTORE PUSH1 0x20 PUSH0 KECCAK256 SWAP1 JUMPDEST DUP2 SLOAD DUP2 MSTORE PUSH1 0x20 ADD SWAP1 PUSH1 0x1 ADD SWAP1 DUP1 DUP4 GT PUSH2 0x1556 JUMPI JUMPDEST POP POP POP POP POP DUP2 MSTORE PUSH1 0x20 ADD PUSH1 0x4 DUP3 ADD DUP1 SLOAD DUP1 PUSH1 0x20 MUL PUSH1 0x20 ADD PUSH1 0x40 MLOAD SWAP1 DUP2 ADD PUSH1 0x40 MSTORE DUP1 SWAP3 SWAP2 SWAP1 DUP2 DUP2 MSTORE PUSH1 0x20 ADD DUP3 DUP1 SLOAD DUP1 ISZERO PUSH2 0x15C0 JUMPI PUSH1 0x20 MUL DUP3 ADD SWAP2 SWAP1 PUSH0 MSTORE PUSH1 0x20 PUSH0 KECCAK256 SWAP1 JUMPDEST DUP2 SLOAD DUP2 MSTORE PUSH1 0x20 ADD SWAP1 PUSH1 0x1 ADD SWAP1 DUP1 DUP4 GT PUSH2 0x15AC JUMPI JUMPDEST POP POP POP SWAP2 DUP4 MSTORE POP POP PUSH1 0x5 DUP3 ADD SLOAD PUSH1 0x20 SWAP1 SWAP2 ADD SWAP1 PUSH1 0xFF AND PUSH1 0x2 DUP2 GT ISZERO PUSH2 0x15E7 JUMPI PUSH2 0x15E7 PUSH2 0x34DC JUMP JUMPDEST PUSH1 0x2 DUP2 GT ISZERO PUSH2 0x15F8 JUMPI PUSH2 0x15F8 PUSH2 0x34DC JUMP JUMPDEST DUP2 MSTORE PUSH1 0x40 DUP1 MLOAD PUSH1 0x60 DUP1 DUP3 ADD DUP4 MSTORE PUSH1 0x6 DUP6 ADD SLOAD PUSH2 0xFFFF DUP1 DUP3 AND DUP5 MSTORE PUSH1 0xFF PUSH3 0x10000 DUP1 DUP5 DIV DUP3 AND PUSH1 0x20 DUP8 DUP2 ADD SWAP2 SWAP1 SWAP2 MSTORE PUSH4 0x1000000 SWAP5 DUP6 SWAP1 DIV DUP4 AND DUP8 DUP10 ADD MSTORE DUP1 DUP10 ADD SWAP7 SWAP1 SWAP7 MSTORE DUP7 MLOAD DUP1 DUP7 ADD DUP9 MSTORE PUSH1 0x7 DUP11 ADD SLOAD SWAP4 DUP5 AND DUP2 MSTORE SWAP1 DUP4 DIV DUP3 AND SWAP6 DUP2 ADD SWAP6 SWAP1 SWAP6 MSTORE SWAP2 SWAP1 DIV AND DUP3 DUP5 ADD MSTORE SWAP2 DUP4 ADD MSTORE PUSH1 0x8 DUP4 ADD DUP1 SLOAD SWAP2 SWAP1 SWAP3 ADD SWAP2 SWAP1 PUSH2 0x167A SWAP1 PUSH2 0x3809 JUMP JUMPDEST DUP1 PUSH1 0x1F ADD PUSH1 0x20 DUP1 SWAP2 DIV MUL PUSH1 0x20 ADD PUSH1 0x40 MLOAD SWAP1 DUP2 ADD PUSH1 0x40 MSTORE DUP1 SWAP3 SWAP2 SWAP1 DUP2 DUP2 MSTORE PUSH1 0x20 ADD DUP3 DUP1 SLOAD PUSH2 0x16A6 SWAP1 PUSH2 0x3809 JUMP JUMPDEST DUP1 ISZERO PUSH2 0x16F1 JUMPI DUP1 PUSH1 0x1F LT PUSH2 0x16C8 JUMPI PUSH2 0x100 DUP1 DUP4 SLOAD DIV MUL DUP4 MSTORE SWAP2 PUSH1 0x20 ADD SWAP2 PUSH2 0x16F1 JUMP JUMPDEST DUP3 ADD SWAP2 SWAP1 PUSH0 MSTORE PUSH1 0x20 PUSH0 KECCAK256 SWAP1 JUMPDEST DUP2 SLOAD DUP2 MSTORE SWAP1 PUSH1 0x1 ADD SWAP1 PUSH1 0x20 ADD DUP1 DUP4 GT PUSH2 0x16D4 JUMPI DUP3 SWAP1 SUB PUSH1 0x1F AND DUP3 ADD SWAP2 JUMPDEST POP POP POP POP POP DUP2 MSTORE POP POP SWAP1 POP SWAP2 SWAP1 POP JUMP JUMPDEST PUSH2 0x1709 PUSH2 0x1C13 JUMP JUMPDEST CALLVALUE ISZERO PUSH2 0x1728 JUMPI PUSH1 0x40 MLOAD PUSH4 0xF36BA737 PUSH1 0xE0 SHL DUP2 MSTORE PUSH1 0x4 ADD PUSH1 0x40 MLOAD DUP1 SWAP2 SUB SWAP1 REVERT JUMPDEST PUSH2 0x1044 DUP3 DUP3 PUSH2 0x220B JUMP JUMPDEST PUSH1 0x1 PUSH1 0x1 PUSH1 0xA0 SHL SUB DUP2 AND PUSH0 SWAP1 DUP2 MSTORE PUSH1 0x4 PUSH1 0x20 MSTORE PUSH1 0x40 SWAP1 KECCAK256 PUSH1 0x60 SWAP1 PUSH2 0x7D1 SWAP1 PUSH2 0x1EF2 JUMP JUMPDEST PUSH2 0x175D PUSH2 0x1C13 JUMP JUMPDEST DUP2 MLOAD DUP4 MLOAD EQ ISZERO DUP1 PUSH2 0x1770 JUMPI POP DUP1 MLOAD DUP3 MLOAD EQ ISZERO JUMPDEST ISZERO PUSH2 0x178E JUMPI PUSH1 0x40 MLOAD PUSH4 0x17D38EFF PUSH1 0xE1 SHL DUP2 MSTORE PUSH1 0x4 ADD PUSH1 0x40 MLOAD DUP1 SWAP2 SUB SWAP1 REVERT JUMPDEST DUP3 MLOAD PUSH0 SUB PUSH2 0x17AF JUMPI PUSH1 0x40 MLOAD PUSH4 0x80C98305 PUSH1 0xE0 SHL DUP2 MSTORE PUSH1 0x4 ADD PUSH1 0x40 MLOAD DUP1 SWAP2 SUB SWAP1 REVERT JUMPDEST PUSH0 JUMPDEST DUP4 MLOAD DUP2 LT ISZERO PUSH2 0x100D JUMPI PUSH2 0x1810 DUP5 DUP3 DUP2 MLOAD DUP2 LT PUSH2 0x17CF JUMPI PUSH2 0x17CF PUSH2 0x3961 JUMP JUMPDEST PUSH1 0x20 MUL PUSH1 0x20 ADD ADD MLOAD DUP5 DUP4 DUP2 MLOAD DUP2 LT PUSH2 0x17E9 JUMPI PUSH2 0x17E9 PUSH2 0x3961 JUMP JUMPDEST PUSH1 0x20 MUL PUSH1 0x20 ADD ADD MLOAD DUP5 DUP5 DUP2 MLOAD DUP2 LT PUSH2 0x1803 JUMPI PUSH2 0x1803 PUSH2 0x3961 JUMP JUMPDEST PUSH1 0x20 MUL PUSH1 0x20 ADD ADD MLOAD PUSH2 0x22A2 JUMP JUMPDEST PUSH1 0x1 ADD PUSH2 0x17B1 JUMP JUMPDEST DUP3 PUSH0 PUSH2 0x1823 DUP3 PUSH2 0xAC1 JUMP JUMPDEST SWAP1 POP CALLER PUSH1 0x1 PUSH1 0x1 PUSH1 0xA0 SHL SUB DUP3 AND EQ DUP1 PUSH2 0x1845 JUMPI POP PUSH0 SLOAD PUSH1 0x1 PUSH1 0x1 PUSH1 0xA0 SHL SUB AND CALLER EQ JUMPDEST PUSH2 0x1861 JUMPI PUSH1 0x40 MLOAD PUSH3 0x461BCD PUSH1 0xE5 SHL DUP2 MSTORE PUSH1 0x4 ADD PUSH2 0x233 SWAP1 PUSH2 0x3939 JUMP JUMPDEST PUSH2 0xC2D DUP6 DUP6 DUP6 PUSH2 0x22A2 JUMP JUMPDEST PUSH0 PUSH2 0x1876 DUP5 PUSH2 0xAC1 JUMP JUMPDEST SWAP1 POP CALLER PUSH1 0x1 PUSH1 0x1 PUSH1 0xA0 SHL SUB DUP3 AND EQ PUSH2 0x18C9 JUMPI PUSH1 0x1 PUSH1 0x1 PUSH1 0xA0 SHL SUB DUP6 AND CALLER EQ PUSH2 0x18C9 JUMPI PUSH1 0x40 MLOAD PUSH4 0x760B5ACD PUSH1 0xE0 SHL DUP2 MSTORE CALLER PUSH1 0x4 DUP3 ADD MSTORE PUSH1 0x1 PUSH1 0x1 PUSH1 0xA0 SHL SUB DUP3 AND PUSH1 0x24 DUP3 ADD MSTORE PUSH1 0x44 DUP2 ADD DUP6 SWAP1 MSTORE PUSH1 0x64 ADD PUSH2 0x233 JUMP JUMPDEST PUSH1 0x1 PUSH1 0x1 PUSH1 0xA0 SHL SUB DUP6 AND PUSH2 0x18F0 JUMPI PUSH1 0x40 MLOAD PUSH4 0x9577B8B3 PUSH1 0xE0 SHL DUP2 MSTORE PUSH1 0x4 ADD PUSH1 0x40 MLOAD DUP1 SWAP2 SUB SWAP1 REVERT JUMPDEST DUP5 PUSH1 0x1 PUSH1 0x1 PUSH1 0xA0 SHL SUB AND DUP2 PUSH1 0x1 PUSH1 0x1 PUSH1 0xA0 SHL SUB AND SUB PUSH2 0x1922 JUMPI PUSH1 0x40 MLOAD PUSH4 0x44FED6B1 PUSH1 0xE1 SHL DUP2 MSTORE PUSH1 0x4 ADD PUSH1 0x40 MLOAD DUP1 SWAP2 SUB SWAP1 REVERT JUMPDEST PUSH2 0x192F DUP6 DUP3 DUP7 DUP7 DUP7 PUSH2 0x2330 JUMP JUMPDEST DUP3 ISZERO PUSH2 0xC2D JUMPI PUSH0 DUP2 DUP6 PUSH0 DUP6 PUSH1 0x40 MLOAD PUSH1 0x20 ADD PUSH2 0x119C SWAP5 SWAP4 SWAP3 SWAP2 SWAP1 PUSH2 0x3A08 JUMP JUMPDEST PUSH1 0x60 DUP2 MLOAD PUSH1 0x1 PUSH1 0x1 PUSH1 0x40 SHL SUB DUP2 GT ISZERO PUSH2 0x1968 JUMPI PUSH2 0x1968 PUSH2 0x2C37 JUMP JUMPDEST PUSH1 0x40 MLOAD SWAP1 DUP1 DUP3 MSTORE DUP1 PUSH1 0x20 MUL PUSH1 0x20 ADD DUP3 ADD PUSH1 0x40 MSTORE DUP1 ISZERO PUSH2 0x199B JUMPI DUP2 PUSH1 0x20 ADD JUMPDEST PUSH1 0x60 DUP2 MSTORE PUSH1 0x20 ADD SWAP1 PUSH1 0x1 SWAP1 SUB SWAP1 DUP2 PUSH2 0x1986 JUMPI SWAP1 POP JUMPDEST POP SWAP1 POP PUSH0 JUMPDEST DUP3 MLOAD DUP2 LT ISZERO PUSH2 0x19F0 JUMPI PUSH2 0x19CB DUP4 DUP3 DUP2 MLOAD DUP2 LT PUSH2 0x19BE JUMPI PUSH2 0x19BE PUSH2 0x3961 JUMP JUMPDEST PUSH1 0x20 MUL PUSH1 0x20 ADD ADD MLOAD PUSH2 0x20DA JUMP JUMPDEST DUP3 DUP3 DUP2 MLOAD DUP2 LT PUSH2 0x19DD JUMPI PUSH2 0x19DD PUSH2 0x3961 JUMP JUMPDEST PUSH1 0x20 SWAP1 DUP2 MUL SWAP2 SWAP1 SWAP2 ADD ADD MSTORE PUSH1 0x1 ADD PUSH2 0x19A0 JUMP JUMPDEST POP SWAP2 SWAP1 POP JUMP JUMPDEST PUSH1 0x9 DUP1 SLOAD PUSH2 0x1A03 SWAP1 PUSH2 0x3809 JUMP JUMPDEST DUP1 PUSH1 0x1F ADD PUSH1 0x20 DUP1 SWAP2 DIV MUL PUSH1 0x20 ADD PUSH1 0x40 MLOAD SWAP1 DUP2 ADD PUSH1 0x40 MSTORE DUP1 SWAP3 SWAP2 SWAP1 DUP2 DUP2 MSTORE PUSH1 0x20 ADD DUP3 DUP1 SLOAD PUSH2 0x1A2F SWAP1 PUSH2 0x3809 JUMP JUMPDEST DUP1 ISZERO PUSH2 0x1A7A JUMPI DUP1 PUSH1 0x1F LT PUSH2 0x1A51 JUMPI PUSH2 0x100 DUP1 DUP4 SLOAD DIV MUL DUP4 MSTORE SWAP2 PUSH1 0x20 ADD SWAP2 PUSH2 0x1A7A JUMP JUMPDEST DUP3 ADD SWAP2 SWAP1 PUSH0 MSTORE PUSH1 0x20 PUSH0 KECCAK256 SWAP1 JUMPDEST DUP2 SLOAD DUP2 MSTORE SWAP1 PUSH1 0x1 ADD SWAP1 PUSH1 0x20 ADD DUP1 DUP4 GT PUSH2 0x1A5D JUMPI DUP3 SWAP1 SUB PUSH1 0x1F AND DUP3 ADD SWAP2 JUMPDEST POP POP POP POP POP DUP2 JUMP JUMPDEST PUSH2 0x1A8A PUSH2 0x1C13 JUMP JUMPDEST PUSH1 0x1 PUSH1 0x1 PUSH1 0xA0 SHL SUB DUP2 AND PUSH2 0x851 JUMPI PUSH1 0x40 MLOAD PUSH3 0x461BCD PUSH1 0xE5 SHL DUP2 MSTORE PUSH1 0x20 PUSH1 0x4 DUP3 ADD MSTORE PUSH1 0x26 PUSH1 0x24 DUP3 ADD MSTORE PUSH32 0x4F776E61626C653A206E6577206F776E657220697320746865207A65726F2061 PUSH1 0x44 DUP3 ADD MSTORE PUSH6 0x646472657373 PUSH1 0xD0 SHL PUSH1 0x64 DUP3 ADD MSTORE PUSH1 0x84 ADD PUSH2 0x233 JUMP JUMPDEST PUSH0 DUP1 DUP1 PUSH2 0x1B13 PUSH10 0x6773C5A04A6D4300884B PUSH1 0xB1 SHL PUSH1 0x1 PUSH1 0x1 PUSH1 0xE0 SHL SUB NOT DUP7 AND PUSH2 0x23CF JUMP JUMPDEST SWAP1 POP PUSH0 PUSH2 0x1B1F DUP3 PUSH2 0x20DA JUMP JUMPDEST SWAP1 POP DUP1 MLOAD PUSH1 0x14 EQ ISZERO DUP1 ISZERO PUSH2 0x1B33 JUMPI POP DUP1 MLOAD ISZERO ISZERO JUMPDEST ISZERO PUSH2 0x1B53 JUMPI DUP1 PUSH1 0x40 MLOAD PUSH4 0x42BFE79F PUSH1 0xE0 SHL DUP2 MSTORE PUSH1 0x4 ADD PUSH2 0x233 SWAP2 SWAP1 PUSH2 0x2E87 JUMP JUMPDEST PUSH2 0x1B5C DUP2 PUSH2 0x3A40 JUMP JUMPDEST PUSH1 0x60 SHR SWAP6 PUSH1 0x1 SWAP6 POP SWAP4 POP POP POP POP JUMP JUMPDEST PUSH0 PUSH1 0x1 PUSH1 0x1 PUSH1 0xE0 SHL SUB NOT DUP3 AND PUSH4 0xA918FA6B PUSH1 0xE0 SHL EQ DUP1 PUSH2 0x7D1 JUMPI POP PUSH2 0x7D1 DUP3 PUSH2 0x2422 JUMP JUMPDEST PUSH0 DUP1 PUSH2 0x1BA1 PUSH4 0x1FFC9A7 PUSH1 0xE0 SHL PUSH2 0x1AEF JUMP JUMPDEST POP SWAP1 POP PUSH1 0x1 PUSH1 0x1 PUSH1 0xA0 SHL SUB DUP2 AND PUSH2 0x1BBA JUMPI POP PUSH0 SWAP3 SWAP2 POP POP JUMP JUMPDEST PUSH2 0x9D4 DUP2 DUP5 PUSH2 0x2456 JUMP JUMPDEST PUSH0 DUP1 SLOAD PUSH1 0x1 PUSH1 0x1 PUSH1 0xA0 SHL SUB DUP4 DUP2 AND PUSH1 0x1 PUSH1 0x1 PUSH1 0xA0 SHL SUB NOT DUP4 AND DUP2 OR DUP5 SSTORE PUSH1 0x40 MLOAD SWAP2 SWAP1 SWAP3 AND SWAP3 DUP4 SWAP2 PUSH32 0x8BE0079C531659141344CD1FD0A4F28419497F9722A3DAAFE3B4186F6B6457E0 SWAP2 SWAP1 LOG3 POP POP JUMP JUMPDEST PUSH0 SLOAD PUSH1 0x1 PUSH1 0x1 PUSH1 0xA0 SHL SUB AND CALLER EQ PUSH2 0xD9A JUMPI PUSH1 0x40 MLOAD PUSH3 0x461BCD PUSH1 0xE5 SHL DUP2 MSTORE PUSH1 0x20 PUSH1 0x4 DUP3 ADD DUP2 SWAP1 MSTORE PUSH1 0x24 DUP3 ADD MSTORE PUSH32 0x4F776E61626C653A2063616C6C6572206973206E6F7420746865206F776E6572 PUSH1 0x44 DUP3 ADD MSTORE PUSH1 0x64 ADD PUSH2 0x233 JUMP JUMPDEST PUSH1 0x60 PUSH1 0x1 PUSH0 DUP5 DUP5 PUSH1 0x40 MLOAD PUSH1 0x20 ADD PUSH2 0x1C8D SWAP3 SWAP2 SWAP1 SWAP2 DUP3 MSTORE PUSH1 0x20 DUP3 ADD MSTORE PUSH1 0x40 ADD SWAP1 JUMP JUMPDEST PUSH1 0x40 MLOAD PUSH1 0x20 DUP2 DUP4 SUB SUB DUP2 MSTORE SWAP1 PUSH1 0x40 MSTORE DUP1 MLOAD SWAP1 PUSH1 0x20 ADD KECCAK256 DUP2 MSTORE PUSH1 0x20 ADD SWAP1 DUP2 MSTORE PUSH1 0x20 ADD PUSH0 KECCAK256 DUP1 SLOAD PUSH2 0x1CBB SWAP1 PUSH2 0x3809 JUMP JUMPDEST DUP1 PUSH1 0x1F ADD PUSH1 0x20 DUP1 SWAP2 DIV MUL PUSH1 0x20 ADD PUSH1 0x40 MLOAD SWAP1 DUP2 ADD PUSH1 0x40 MSTORE DUP1 SWAP3 SWAP2 SWAP1 DUP2 DUP2 MSTORE PUSH1 0x20 ADD DUP3 DUP1 SLOAD PUSH2 0x1CE7 SWAP1 PUSH2 0x3809 JUMP JUMPDEST DUP1 ISZERO PUSH2 0x1D32 JUMPI DUP1 PUSH1 0x1F LT PUSH2 0x1D09 JUMPI PUSH2 0x100 DUP1 DUP4 SLOAD DIV MUL DUP4 MSTORE SWAP2 PUSH1 0x20 ADD SWAP2 PUSH2 0x1D32 JUMP JUMPDEST DUP3 ADD SWAP2 SWAP1 PUSH0 MSTORE PUSH1 0x20 PUSH0 KECCAK256 SWAP1 JUMPDEST DUP2 SLOAD DUP2 MSTORE SWAP1 PUSH1 0x1 ADD SWAP1 PUSH1 0x20 ADD DUP1 DUP4 GT PUSH2 0x1D15 JUMPI DUP3 SWAP1 SUB PUSH1 0x1F AND DUP3 ADD SWAP2 JUMPDEST POP POP POP POP POP SWAP1 POP SWAP3 SWAP2 POP POP JUMP JUMPDEST PUSH0 PUSH2 0x1D49 DUP3 PUSH2 0xAC1 JUMP JUMPDEST PUSH1 0x1 PUSH1 0x1 PUSH1 0xA0 SHL SUB AND DUP4 PUSH1 0x1 PUSH1 0x1 PUSH1 0xA0 SHL SUB AND EQ DUP1 PUSH2 0x9D4 JUMPI POP PUSH0 DUP3 DUP2 MSTORE PUSH1 0x5 PUSH1 0x20 MSTORE PUSH1 0x40 SWAP1 KECCAK256 PUSH2 0x9D4 SWAP1 DUP5 PUSH2 0x24DC JUMP JUMPDEST PUSH0 PUSH2 0x1D89 PUSH1 0x6 DUP1 SLOAD PUSH1 0x1 ADD SWAP1 SSTORE JUMP JUMPDEST PUSH1 0x6 SLOAD PUSH0 SHL SWAP1 POP PUSH2 0x1DAB DUP6 DUP3 PUSH1 0x1 PUSH1 0x40 MLOAD DUP1 PUSH1 0x20 ADD PUSH1 0x40 MSTORE DUP1 PUSH0 DUP2 MSTORE POP PUSH2 0x24FD JUMP JUMPDEST PUSH0 DUP2 DUP2 MSTORE PUSH1 0x7 PUSH1 0x20 MSTORE PUSH1 0x40 SWAP1 KECCAK256 DUP1 PUSH2 0x1DC3 DUP10 DUP3 PUSH2 0x387F JUMP JUMPDEST POP DUP4 MLOAD PUSH1 0x6 DUP3 ADD DUP1 SLOAD PUSH1 0x20 DUP1 DUP9 ADD MLOAD PUSH1 0x40 DUP1 DUP11 ADD MLOAD PUSH2 0xFFFF SWAP7 DUP8 AND PUSH3 0xFFFFFF NOT SWAP6 DUP7 AND OR PUSH3 0x10000 PUSH1 0xFF SWAP5 DUP6 AND DUP2 MUL SWAP2 SWAP1 SWAP2 OR PUSH4 0xFF000000 NOT SWAP1 DUP2 AND PUSH4 0x1000000 SWAP4 DUP7 AND DUP5 MUL OR SWAP1 SWAP8 SSTORE DUP11 MLOAD PUSH1 0x7 DUP11 ADD DUP1 SLOAD SWAP7 DUP14 ADD MLOAD SWAP5 DUP14 ADD MLOAD SWAP2 SWAP1 SWAP10 AND SWAP6 SWAP1 SWAP7 AND SWAP5 SWAP1 SWAP5 OR SWAP2 DUP4 AND SWAP1 SWAP4 MUL OR SWAP1 SWAP4 AND SWAP2 SWAP1 SWAP3 AND SWAP1 SWAP2 MUL OR SWAP1 SSTORE PUSH1 0x5 DUP2 ADD DUP1 SLOAD DUP7 SWAP2 SWAP1 PUSH1 0xFF NOT AND PUSH1 0x1 DUP4 PUSH1 0x2 DUP2 GT ISZERO PUSH2 0x1E5E JUMPI PUSH2 0x1E5E PUSH2 0x34DC JUMP JUMPDEST MUL OR SWAP1 SSTORE POP PUSH1 0x8 DUP2 ADD PUSH2 0x1E71 DUP9 DUP3 PUSH2 0x387F JUMP JUMPDEST POP PUSH1 0x40 MLOAD PUSH1 0x1 PUSH1 0x1 PUSH1 0xA0 SHL SUB DUP8 AND DUP2 MSTORE DUP3 SWAP1 PUSH32 0xA6912C28A8CB5FC5CAB504E471CFA6BC504444025484D810E2565BC7DEAD6657 SWAP1 PUSH1 0x20 ADD PUSH1 0x40 MLOAD DUP1 SWAP2 SUB SWAP1 LOG2 POP SWAP7 SWAP6 POP POP POP POP POP POP JUMP JUMPDEST PUSH0 DUP2 DUP2 MSTORE PUSH1 0x3 PUSH1 0x20 MSTORE PUSH1 0x40 SWAP1 KECCAK256 SLOAD PUSH1 0x1 PUSH1 0x1 PUSH1 0xA0 SHL SUB AND PUSH2 0x85A JUMPI PUSH1 0x40 MLOAD PUSH4 0x5747CD1B PUSH1 0xE1 SHL DUP2 MSTORE PUSH1 0x4 DUP2 ADD DUP3 SWAP1 MSTORE PUSH1 0x24 ADD PUSH2 0x233 JUMP JUMPDEST PUSH1 0x60 PUSH0 PUSH2 0x9D4 DUP4 PUSH2 0x2666 JUMP JUMPDEST PUSH0 PUSH2 0x1F08 DUP5 PUSH2 0xAC1 JUMP JUMPDEST SWAP1 POP DUP6 PUSH1 0x1 PUSH1 0x1 PUSH1 0xA0 SHL SUB AND DUP2 PUSH1 0x1 PUSH1 0x1 PUSH1 0xA0 SHL SUB AND EQ PUSH2 0x1F56 JUMPI PUSH1 0x40 MLOAD PUSH4 0x2D938F51 PUSH1 0xE1 SHL DUP2 MSTORE PUSH1 0x1 PUSH1 0x1 PUSH1 0xA0 SHL SUB DUP1 DUP4 AND PUSH1 0x4 DUP4 ADD MSTORE PUSH1 0x24 DUP3 ADD DUP7 SWAP1 MSTORE DUP8 AND PUSH1 0x44 DUP3 ADD MSTORE PUSH1 0x64 ADD PUSH2 0x233 JUMP JUMPDEST PUSH1 0x1 PUSH1 0x1 PUSH1 0xA0 SHL SUB DUP6 AND PUSH2 0x1F7D JUMPI PUSH1 0x40 MLOAD PUSH4 0x24ECEF4D PUSH1 0xE0 SHL DUP2 MSTORE PUSH1 0x4 ADD PUSH1 0x40 MLOAD DUP1 SWAP2 SUB SWAP1 REVERT JUMPDEST PUSH0 PUSH2 0x1F87 DUP6 PUSH2 0xAC1 JUMP JUMPDEST SWAP1 POP DUP1 PUSH1 0x1 PUSH1 0x1 PUSH1 0xA0 SHL SUB AND DUP3 PUSH1 0x1 PUSH1 0x1 PUSH1 0xA0 SHL SUB AND EQ PUSH2 0x1FD5 JUMPI PUSH1 0x40 MLOAD PUSH4 0x5A9C31D3 PUSH1 0xE0 SHL DUP2 MSTORE PUSH1 0x4 DUP2 ADD DUP7 SWAP1 MSTORE PUSH1 0x1 PUSH1 0x1 PUSH1 0xA0 SHL SUB DUP1 DUP5 AND PUSH1 0x24 DUP4 ADD MSTORE DUP3 AND PUSH1 0x44 DUP3 ADD MSTORE PUSH1 0x64 ADD PUSH2 0x233 JUMP JUMPDEST PUSH2 0x1FDF DUP8 DUP7 PUSH2 0x26BE JUMP JUMPDEST PUSH1 0x1 PUSH1 0x1 PUSH1 0xA0 SHL SUB DUP8 AND PUSH0 SWAP1 DUP2 MSTORE PUSH1 0x4 PUSH1 0x20 MSTORE PUSH1 0x40 SWAP1 KECCAK256 PUSH2 0x2000 SWAP1 DUP7 PUSH2 0x2711 JUMP JUMPDEST POP PUSH1 0x1 PUSH1 0x1 PUSH1 0xA0 SHL SUB DUP7 AND PUSH0 SWAP1 DUP2 MSTORE PUSH1 0x4 PUSH1 0x20 MSTORE PUSH1 0x40 SWAP1 KECCAK256 PUSH2 0x2022 SWAP1 DUP7 PUSH2 0x271C JUMP JUMPDEST POP PUSH0 DUP6 DUP2 MSTORE PUSH1 0x3 PUSH1 0x20 MSTORE PUSH1 0x40 SWAP1 DUP2 SWAP1 KECCAK256 DUP1 SLOAD PUSH1 0x1 PUSH1 0x1 PUSH1 0xA0 SHL SUB NOT AND PUSH1 0x1 PUSH1 0x1 PUSH1 0xA0 SHL SUB DUP10 DUP2 AND SWAP2 DUP3 OR SWAP1 SWAP3 SSTORE SWAP2 MLOAD DUP8 SWAP3 SWAP2 DUP11 AND SWAP1 PUSH32 0xB333C813A7426A7A11E2B190CAD52C44119421594B47F6F32ACE6D8C7207B2BF SWAP1 PUSH2 0x2088 SWAP1 CALLER SWAP1 DUP11 SWAP1 DUP11 SWAP1 PUSH2 0x3A8E JUMP JUMPDEST PUSH1 0x40 MLOAD DUP1 SWAP2 SUB SWAP1 LOG4 PUSH0 CALLER DUP9 DUP9 DUP9 DUP8 PUSH1 0x40 MLOAD PUSH1 0x20 ADD PUSH2 0x20AA SWAP6 SWAP5 SWAP4 SWAP3 SWAP2 SWAP1 PUSH2 0x3AB9 JUMP JUMPDEST PUSH1 0x40 MLOAD PUSH1 0x20 DUP2 DUP4 SUB SUB DUP2 MSTORE SWAP1 PUSH1 0x40 MSTORE SWAP1 POP PUSH2 0x20C5 DUP9 DUP3 PUSH2 0x2727 JUMP JUMPDEST PUSH2 0x20D0 DUP8 DUP7 DUP4 PUSH2 0x2752 JUMP JUMPDEST POP POP POP POP POP POP POP POP JUMP JUMPDEST PUSH0 DUP2 DUP2 MSTORE PUSH1 0x1 PUSH1 0x20 MSTORE PUSH1 0x40 SWAP1 KECCAK256 DUP1 SLOAD PUSH1 0x60 SWAP2 SWAP1 PUSH2 0x20F6 SWAP1 PUSH2 0x3809 JUMP JUMPDEST DUP1 PUSH1 0x1F ADD PUSH1 0x20 DUP1 SWAP2 DIV MUL PUSH1 0x20 ADD PUSH1 0x40 MLOAD SWAP1 DUP2 ADD PUSH1 0x40 MSTORE DUP1 SWAP3 SWAP2 SWAP1 DUP2 DUP2 MSTORE PUSH1 0x20 ADD DUP3 DUP1 SLOAD PUSH2 0x2122 SWAP1 PUSH2 0x3809 JUMP JUMPDEST DUP1 ISZERO PUSH2 0x216D JUMPI DUP1 PUSH1 0x1F LT PUSH2 0x2144 JUMPI PUSH2 0x100 DUP1 DUP4 SLOAD DIV MUL DUP4 MSTORE SWAP2 PUSH1 0x20 ADD SWAP2 PUSH2 0x216D JUMP JUMPDEST DUP3 ADD SWAP2 SWAP1 PUSH0 MSTORE PUSH1 0x20 PUSH0 KECCAK256 SWAP1 JUMPDEST DUP2 SLOAD DUP2 MSTORE SWAP1 PUSH1 0x1 ADD SWAP1 PUSH1 0x20 ADD DUP1 DUP4 GT PUSH2 0x2150 JUMPI DUP3 SWAP1 SUB PUSH1 0x1F AND DUP3 ADD SWAP2 JUMPDEST POP POP POP POP POP SWAP1 POP SWAP2 SWAP1 POP JUMP JUMPDEST PUSH0 PUSH2 0x7D1 DUP3 SLOAD SWAP1 JUMP JUMPDEST PUSH32 0x98A16C9E50E3E99B3E797305C146898D294E5AEC55A47E213CB3611CCF17E73 DUP3 ADD PUSH2 0x21C2 JUMPI PUSH1 0x40 MLOAD PUSH4 0x1B324005 PUSH1 0xE1 SHL DUP2 MSTORE PUSH1 0x4 ADD PUSH1 0x40 MLOAD DUP1 SWAP2 SUB SWAP1 REVERT JUMPDEST PUSH2 0x1044 DUP3 DUP3 PUSH2 0x2855 JUMP JUMPDEST PUSH0 PUSH2 0x9D4 DUP4 PUSH1 0x1 PUSH1 0x1 PUSH1 0xA0 SHL SUB DUP5 AND PUSH2 0x2969 JUMP JUMPDEST PUSH2 0x1044 DUP3 PUSH32 0x8A1C15A8799F71B547E08E2BCB2E85257E81B0A07EEE2CE6712549EEF1F00970 DUP4 PUSH2 0x29B5 JUMP JUMPDEST DUP1 MLOAD DUP3 MLOAD EQ PUSH2 0x222D JUMPI PUSH1 0x40 MLOAD PUSH4 0x3BCC8979 PUSH1 0xE0 SHL DUP2 MSTORE PUSH1 0x4 ADD PUSH1 0x40 MLOAD DUP1 SWAP2 SUB SWAP1 REVERT JUMPDEST DUP2 MLOAD PUSH0 SUB PUSH2 0x224E JUMPI PUSH1 0x40 MLOAD PUSH4 0x97DA5F95 PUSH1 0xE0 SHL DUP2 MSTORE PUSH1 0x4 ADD PUSH1 0x40 MLOAD DUP1 SWAP2 SUB SWAP1 REVERT JUMPDEST PUSH0 JUMPDEST DUP3 MLOAD DUP2 LT ISZERO PUSH2 0x229D JUMPI PUSH2 0x2295 DUP4 DUP3 DUP2 MLOAD DUP2 LT PUSH2 0x226E JUMPI PUSH2 0x226E PUSH2 0x3961 JUMP JUMPDEST PUSH1 0x20 MUL PUSH1 0x20 ADD ADD MLOAD DUP4 DUP4 DUP2 MLOAD DUP2 LT PUSH2 0x2288 JUMPI PUSH2 0x2288 PUSH2 0x3961 JUMP JUMPDEST PUSH1 0x20 MUL PUSH1 0x20 ADD ADD MLOAD PUSH2 0x2182 JUMP JUMPDEST PUSH1 0x1 ADD PUSH2 0x2250 JUMP JUMPDEST POP POP POP JUMP JUMPDEST DUP1 PUSH1 0x1 PUSH0 DUP6 DUP6 PUSH1 0x40 MLOAD PUSH1 0x20 ADD PUSH2 0x22C2 SWAP3 SWAP2 SWAP1 SWAP2 DUP3 MSTORE PUSH1 0x20 DUP3 ADD MSTORE PUSH1 0x40 ADD SWAP1 JUMP JUMPDEST PUSH1 0x40 MLOAD PUSH1 0x20 DUP2 DUP4 SUB SUB DUP2 MSTORE SWAP1 PUSH1 0x40 MSTORE DUP1 MLOAD SWAP1 PUSH1 0x20 ADD KECCAK256 DUP2 MSTORE PUSH1 0x20 ADD SWAP1 DUP2 MSTORE PUSH1 0x20 ADD PUSH0 KECCAK256 SWAP1 DUP2 PUSH2 0x22F1 SWAP2 SWAP1 PUSH2 0x387F JUMP JUMPDEST POP DUP2 DUP4 PUSH32 0xA6E4251F855F750545FE414F120DB91C76B88DEF14D120969E5BB2D3F05DEBBB DUP4 PUSH1 0x40 MLOAD PUSH2 0x2323 SWAP2 SWAP1 PUSH2 0x2E87 JUMP JUMPDEST PUSH1 0x40 MLOAD DUP1 SWAP2 SUB SWAP1 LOG3 POP POP POP JUMP JUMPDEST PUSH0 DUP4 DUP2 MSTORE PUSH1 0x5 PUSH1 0x20 MSTORE PUSH1 0x40 DUP2 KECCAK256 PUSH2 0x2347 SWAP1 DUP8 PUSH2 0x2A02 JUMP JUMPDEST SWAP1 POP DUP1 PUSH2 0x2379 JUMPI PUSH1 0x40 MLOAD PUSH4 0x12A8C6A3 PUSH1 0xE2 SHL DUP2 MSTORE PUSH1 0x1 PUSH1 0x1 PUSH1 0xA0 SHL SUB DUP8 AND PUSH1 0x4 DUP3 ADD MSTORE PUSH1 0x24 DUP2 ADD DUP6 SWAP1 MSTORE PUSH1 0x44 ADD PUSH2 0x233 JUMP JUMPDEST DUP4 DUP6 PUSH1 0x1 PUSH1 0x1 PUSH1 0xA0 SHL SUB AND DUP8 PUSH1 0x1 PUSH1 0x1 PUSH1 0xA0 SHL SUB AND PUSH32 0xC78CD419D6136F9F1C1C6AEC1D3FAE098CFFAF8BC86314A8F2685E32FE574E3C DUP7 DUP7 PUSH1 0x40 MLOAD PUSH2 0x23BF SWAP3 SWAP2 SWAP1 PUSH2 0x3AF3 JUMP JUMPDEST PUSH1 0x40 MLOAD DUP1 SWAP2 SUB SWAP1 LOG4 POP POP POP POP POP POP JUMP JUMPDEST PUSH1 0x40 DUP1 MLOAD PUSH1 0x1 PUSH1 0x1 PUSH1 0xB0 SHL SUB NOT DUP5 AND PUSH1 0x20 DUP3 ADD MSTORE PUSH0 PUSH1 0x2A DUP3 ADD DUP2 SWAP1 MSTORE PUSH1 0x1 PUSH1 0x1 PUSH1 0x60 SHL SUB NOT DUP5 AND PUSH1 0x2C DUP4 ADD MSTORE SWAP2 DUP3 SWAP2 ADD PUSH1 0x40 MLOAD PUSH1 0x20 DUP2 DUP4 SUB SUB DUP2 MSTORE SWAP1 PUSH1 0x40 MSTORE SWAP1 POP DUP1 PUSH2 0x241A SWAP1 PUSH2 0x3B0D JUMP JUMPDEST SWAP5 SWAP4 POP POP POP POP JUMP JUMPDEST PUSH0 PUSH1 0x1 PUSH1 0x1 PUSH1 0xE0 SHL SUB NOT DUP3 AND PUSH4 0x18A6A9A5 PUSH1 0xE2 SHL EQ DUP1 PUSH2 0x7D1 JUMPI POP PUSH4 0x1FFC9A7 PUSH1 0xE0 SHL PUSH1 0x1 PUSH1 0x1 PUSH1 0xE0 SHL SUB NOT DUP4 AND EQ PUSH2 0x7D1 JUMP JUMPDEST PUSH1 0x40 DUP1 MLOAD PUSH1 0x1 PUSH1 0x1 PUSH1 0xE0 SHL SUB NOT DUP4 AND PUSH1 0x24 DUP1 DUP4 ADD SWAP2 SWAP1 SWAP2 MSTORE DUP3 MLOAD DUP1 DUP4 SUB SWAP1 SWAP2 ADD DUP2 MSTORE PUSH1 0x44 SWAP1 SWAP2 ADD SWAP1 SWAP2 MSTORE PUSH1 0x20 DUP1 DUP3 ADD DUP1 MLOAD PUSH1 0x1 PUSH1 0x1 PUSH1 0xE0 SHL SUB AND PUSH4 0x1FFC9A7 PUSH1 0xE0 SHL OR DUP2 MSTORE DUP3 MLOAD PUSH0 SWAP4 SWAP3 DUP5 SWAP3 DUP4 SWAP3 DUP4 SWAP3 SWAP2 DUP4 SWAP2 SWAP1 DUP11 PUSH2 0x7530 STATICCALL SWAP3 POP RETURNDATASIZE SWAP2 POP PUSH0 MLOAD SWAP1 POP DUP3 DUP1 ISZERO PUSH2 0x24C6 JUMPI POP PUSH1 0x20 DUP3 LT ISZERO JUMPDEST DUP1 ISZERO PUSH2 0x24D1 JUMPI POP PUSH0 DUP2 GT JUMPDEST SWAP8 SWAP7 POP POP POP POP POP POP POP JUMP JUMPDEST PUSH1 0x1 PUSH1 0x1 PUSH1 0xA0 SHL SUB DUP2 AND PUSH0 SWAP1 DUP2 MSTORE PUSH1 0x1 DUP4 ADD PUSH1 0x20 MSTORE PUSH1 0x40 DUP2 KECCAK256 SLOAD ISZERO ISZERO PUSH2 0x9D4 JUMP JUMPDEST PUSH1 0x1 PUSH1 0x1 PUSH1 0xA0 SHL SUB DUP5 AND PUSH2 0x2524 JUMPI PUSH1 0x40 MLOAD PUSH4 0x24ECEF4D PUSH1 0xE0 SHL DUP2 MSTORE PUSH1 0x4 ADD PUSH1 0x40 MLOAD DUP1 SWAP2 SUB SWAP1 REVERT JUMPDEST PUSH0 DUP4 DUP2 MSTORE PUSH1 0x3 PUSH1 0x20 MSTORE PUSH1 0x40 SWAP1 KECCAK256 SLOAD PUSH1 0x1 PUSH1 0x1 PUSH1 0xA0 SHL SUB AND ISZERO PUSH2 0x255C JUMPI PUSH1 0x40 MLOAD PUSH4 0x34C7B511 PUSH1 0xE0 SHL DUP2 MSTORE PUSH1 0x4 DUP2 ADD DUP5 SWAP1 MSTORE PUSH1 0x24 ADD PUSH2 0x233 JUMP JUMPDEST PUSH0 DUP4 DUP2 MSTORE PUSH1 0x3 PUSH1 0x20 MSTORE PUSH1 0x40 SWAP1 KECCAK256 SLOAD PUSH1 0x1 PUSH1 0x1 PUSH1 0xA0 SHL SUB AND ISZERO PUSH2 0x2594 JUMPI PUSH1 0x40 MLOAD PUSH4 0x34C7B511 PUSH1 0xE0 SHL DUP2 MSTORE PUSH1 0x4 DUP2 ADD DUP5 SWAP1 MSTORE PUSH1 0x24 ADD PUSH2 0x233 JUMP JUMPDEST PUSH1 0x2 PUSH0 DUP2 SLOAD PUSH2 0x25A2 SWAP1 PUSH2 0x3B30 JUMP JUMPDEST SWAP1 SWAP2 SSTORE POP PUSH1 0x1 PUSH1 0x1 PUSH1 0xA0 SHL SUB DUP5 AND PUSH0 SWAP1 DUP2 MSTORE PUSH1 0x4 PUSH1 0x20 MSTORE PUSH1 0x40 SWAP1 KECCAK256 PUSH2 0x25C7 SWAP1 DUP5 PUSH2 0x271C JUMP JUMPDEST POP PUSH0 DUP4 DUP2 MSTORE PUSH1 0x3 PUSH1 0x20 MSTORE PUSH1 0x40 DUP1 DUP3 KECCAK256 DUP1 SLOAD PUSH1 0x1 PUSH1 0x1 PUSH1 0xA0 SHL SUB NOT AND PUSH1 0x1 PUSH1 0x1 PUSH1 0xA0 SHL SUB DUP9 AND SWAP1 DUP2 OR SWAP1 SWAP2 SSTORE SWAP1 MLOAD DUP6 SWAP3 SWAP1 PUSH32 0xB333C813A7426A7A11E2B190CAD52C44119421594B47F6F32ACE6D8C7207B2BF SWAP1 PUSH2 0x2628 SWAP1 CALLER SWAP1 DUP9 SWAP1 DUP9 SWAP1 PUSH2 0x3A8E JUMP JUMPDEST PUSH1 0x40 MLOAD DUP1 SWAP2 SUB SWAP1 LOG4 PUSH0 CALLER PUSH0 DUP7 DUP7 DUP6 PUSH1 0x40 MLOAD PUSH1 0x20 ADD PUSH2 0x264A SWAP6 SWAP5 SWAP4 SWAP3 SWAP2 SWAP1 PUSH2 0x3AB9 JUMP JUMPDEST PUSH1 0x40 MLOAD PUSH1 0x20 DUP2 DUP4 SUB SUB DUP2 MSTORE SWAP1 PUSH1 0x40 MSTORE SWAP1 POP PUSH2 0xC2D DUP6 DUP5 DUP4 PUSH2 0x2752 JUMP JUMPDEST PUSH1 0x60 DUP2 PUSH0 ADD DUP1 SLOAD DUP1 PUSH1 0x20 MUL PUSH1 0x20 ADD PUSH1 0x40 MLOAD SWAP1 DUP2 ADD PUSH1 0x40 MSTORE DUP1 SWAP3 SWAP2 SWAP1 DUP2 DUP2 MSTORE PUSH1 0x20 ADD DUP3 DUP1 SLOAD DUP1 ISZERO PUSH2 0x216D JUMPI PUSH1 0x20 MUL DUP3 ADD SWAP2 SWAP1 PUSH0 MSTORE PUSH1 0x20 PUSH0 KECCAK256 SWAP1 JUMPDEST DUP2 SLOAD DUP2 MSTORE PUSH1 0x20 ADD SWAP1 PUSH1 0x1 ADD SWAP1 DUP1 DUP4 GT PUSH2 0x269F JUMPI POP POP POP POP POP SWAP1 POP SWAP2 SWAP1 POP JUMP JUMPDEST PUSH0 DUP2 DUP2 MSTORE PUSH1 0x5 PUSH1 0x20 MSTORE PUSH1 0x40 DUP2 KECCAK256 SWAP1 PUSH2 0x26D5 DUP3 PUSH2 0x2179 JUMP JUMPDEST SWAP1 POP PUSH0 PUSH0 JUMPDEST DUP3 DUP2 LT ISZERO PUSH2 0x11B7 JUMPI PUSH2 0x26EC DUP5 PUSH0 PUSH2 0x2A16 JUMP JUMPDEST SWAP2 POP PUSH2 0x2709 DUP3 DUP8 DUP8 PUSH0 PUSH1 0x40 MLOAD DUP1 PUSH1 0x20 ADD PUSH1 0x40 MSTORE DUP1 PUSH0 DUP2 MSTORE POP PUSH2 0x2330 JUMP JUMPDEST PUSH1 0x1 ADD PUSH2 0x26DA JUMP JUMPDEST PUSH0 PUSH2 0x9D4 DUP4 DUP4 PUSH2 0x2A21 JUMP JUMPDEST PUSH0 PUSH2 0x9D4 DUP4 DUP4 PUSH2 0x2969 JUMP JUMPDEST PUSH2 0x1044 DUP3 PUSH32 0xB23EAE7E6D1564B295B4C3E3BE402D9A2F0776C57BDF365903496F6FA481AB00 DUP4 PUSH2 0x29B5 JUMP JUMPDEST PUSH2 0x2763 DUP4 PUSH4 0x1AED5A85 PUSH1 0xE2 SHL PUSH2 0x2456 JUMP JUMPDEST ISZERO PUSH2 0x27F8 JUMPI PUSH1 0x40 MLOAD PUSH4 0x1AED5A85 PUSH1 0xE2 SHL DUP2 MSTORE PUSH1 0x1 PUSH1 0x1 PUSH1 0xA0 SHL SUB DUP5 AND SWAP1 PUSH4 0x6BB56A14 SWAP1 PUSH2 0x27B6 SWAP1 PUSH32 0xB084A55EBF70FD3C06FD755269DAC2212C4D3F0F4D09079780BFA50C1B2984D SWAP1 DUP6 SWAP1 PUSH1 0x4 ADD PUSH2 0x3B48 JUMP JUMPDEST PUSH0 PUSH1 0x40 MLOAD DUP1 DUP4 SUB DUP2 PUSH0 DUP8 GAS CALL ISZERO DUP1 ISZERO PUSH2 0x27D1 JUMPI RETURNDATASIZE PUSH0 PUSH0 RETURNDATACOPY RETURNDATASIZE PUSH0 REVERT JUMPDEST POP POP POP POP PUSH1 0x40 MLOAD RETURNDATASIZE PUSH0 DUP3 RETURNDATACOPY PUSH1 0x1F RETURNDATASIZE SWAP1 DUP2 ADD PUSH1 0x1F NOT AND DUP3 ADD PUSH1 0x40 MSTORE PUSH2 0x100D SWAP2 SWAP1 DUP2 ADD SWAP1 PUSH2 0x3B60 JUMP JUMPDEST DUP2 PUSH2 0x229D JUMPI PUSH1 0x1 PUSH1 0x1 PUSH1 0xA0 SHL SUB DUP4 AND EXTCODESIZE ISZERO PUSH2 0x2831 JUMPI PUSH1 0x40 MLOAD PUSH4 0x4349776D PUSH1 0xE0 SHL DUP2 MSTORE PUSH1 0x1 PUSH1 0x1 PUSH1 0xA0 SHL SUB DUP5 AND PUSH1 0x4 DUP3 ADD MSTORE PUSH1 0x24 ADD PUSH2 0x233 JUMP JUMPDEST PUSH1 0x40 MLOAD PUSH4 0x3173137 PUSH1 0xE0 SHL DUP2 MSTORE PUSH1 0x1 PUSH1 0x1 PUSH1 0xA0 SHL SUB DUP5 AND PUSH1 0x4 DUP3 ADD MSTORE PUSH1 0x24 ADD PUSH2 0x233 JUMP JUMPDEST PUSH32 0x2145E1D6D074577DC71EF54C3807742B41B053A9352AE6B491331509ACB9750F DUP3 ADD PUSH2 0x2895 JUMPI PUSH1 0x40 MLOAD PUSH4 0x85C169BD PUSH1 0xE0 SHL DUP2 MSTORE PUSH1 0x4 ADD PUSH1 0x40 MLOAD DUP1 SWAP2 SUB SWAP1 REVERT JUMPDEST PUSH32 0xD0F59754F88971FE6BC5A6618CC9D5F1E859C58D16B22D1C7B2D3E2B246CD8AA DUP3 ADD PUSH2 0x28D5 JUMPI PUSH1 0x40 MLOAD PUSH4 0xECEAB67 PUSH1 0xE3 SHL DUP2 MSTORE PUSH1 0x4 ADD PUSH1 0x40 MLOAD DUP1 SWAP2 SUB SWAP1 REVERT JUMPDEST PUSH32 0x1FD9E056A24D14C4ABC642FCC325992A946906D0DBC57DD70278AAF12842024D DUP3 ADD PUSH2 0x2915 JUMPI PUSH1 0x40 MLOAD PUSH4 0x4EF6D7FB PUSH1 0xE0 SHL DUP2 MSTORE PUSH1 0x4 ADD PUSH1 0x40 MLOAD DUP1 SWAP2 SUB SWAP1 REVERT JUMPDEST PUSH0 DUP3 DUP2 MSTORE PUSH1 0x1 PUSH1 0x20 MSTORE PUSH1 0x40 SWAP1 KECCAK256 PUSH2 0x292C DUP3 DUP3 PUSH2 0x387F JUMP JUMPDEST POP DUP2 PUSH32 0xECE574603820D07BC9B91F2A932BAADF4628AABCB8AFBA49776529C14A6104B2 DUP3 PUSH1 0x40 MLOAD PUSH2 0x295D SWAP2 SWAP1 PUSH2 0x2E87 JUMP JUMPDEST PUSH1 0x40 MLOAD DUP1 SWAP2 SUB SWAP1 LOG2 POP POP JUMP JUMPDEST PUSH0 DUP2 DUP2 MSTORE PUSH1 0x1 DUP4 ADD PUSH1 0x20 MSTORE PUSH1 0x40 DUP2 KECCAK256 SLOAD PUSH2 0x29AE JUMPI POP DUP2 SLOAD PUSH1 0x1 DUP2 DUP2 ADD DUP5 SSTORE PUSH0 DUP5 DUP2 MSTORE PUSH1 0x20 DUP1 DUP3 KECCAK256 SWAP1 SWAP4 ADD DUP5 SWAP1 SSTORE DUP5 SLOAD DUP5 DUP3 MSTORE DUP3 DUP7 ADD SWAP1 SWAP4 MSTORE PUSH1 0x40 SWAP1 KECCAK256 SWAP2 SWAP1 SWAP2 SSTORE PUSH2 0x7D1 JUMP JUMPDEST POP PUSH0 PUSH2 0x7D1 JUMP JUMPDEST PUSH2 0x29CF PUSH1 0x1 PUSH1 0x1 PUSH1 0xA0 SHL SUB DUP5 AND PUSH4 0x1AED5A85 PUSH1 0xE2 SHL PUSH2 0x2456 JUMP JUMPDEST ISZERO PUSH2 0x229D JUMPI PUSH1 0x40 MLOAD PUSH4 0x1AED5A85 PUSH1 0xE2 SHL DUP2 MSTORE PUSH1 0x1 PUSH1 0x1 PUSH1 0xA0 SHL SUB DUP5 AND SWAP1 PUSH4 0x6BB56A14 SWAP1 PUSH2 0x27B6 SWAP1 DUP6 SWAP1 DUP6 SWAP1 PUSH1 0x4 ADD PUSH2 0x3B48 JUMP JUMPDEST PUSH0 PUSH2 0x9D4 DUP4 PUSH1 0x1 PUSH1 0x1 PUSH1 0xA0 SHL SUB DUP5 AND PUSH2 0x2A21 JUMP JUMPDEST PUSH0 PUSH2 0x9D4 DUP4 DUP4 PUSH2 0x2B04 JUMP JUMPDEST PUSH0 DUP2 DUP2 MSTORE PUSH1 0x1 DUP4 ADD PUSH1 0x20 MSTORE PUSH1 0x40 DUP2 KECCAK256 SLOAD DUP1 ISZERO PUSH2 0x2AFB JUMPI PUSH0 PUSH2 0x2A43 PUSH1 0x1 DUP4 PUSH2 0x39E1 JUMP JUMPDEST DUP6 SLOAD SWAP1 SWAP2 POP PUSH0 SWAP1 PUSH2 0x2A56 SWAP1 PUSH1 0x1 SWAP1 PUSH2 0x39E1 JUMP JUMPDEST SWAP1 POP DUP2 DUP2 EQ PUSH2 0x2AB5 JUMPI PUSH0 DUP7 PUSH0 ADD DUP3 DUP2 SLOAD DUP2 LT PUSH2 0x2A74 JUMPI PUSH2 0x2A74 PUSH2 0x3961 JUMP JUMPDEST SWAP1 PUSH0 MSTORE PUSH1 0x20 PUSH0 KECCAK256 ADD SLOAD SWAP1 POP DUP1 DUP8 PUSH0 ADD DUP5 DUP2 SLOAD DUP2 LT PUSH2 0x2A94 JUMPI PUSH2 0x2A94 PUSH2 0x3961 JUMP JUMPDEST PUSH0 SWAP2 DUP3 MSTORE PUSH1 0x20 DUP1 DUP4 KECCAK256 SWAP1 SWAP2 ADD SWAP3 SWAP1 SWAP3 SSTORE SWAP2 DUP3 MSTORE PUSH1 0x1 DUP9 ADD SWAP1 MSTORE PUSH1 0x40 SWAP1 KECCAK256 DUP4 SWAP1 SSTORE JUMPDEST DUP6 SLOAD DUP7 SWAP1 DUP1 PUSH2 0x2AC6 JUMPI PUSH2 0x2AC6 PUSH2 0x39F4 JUMP JUMPDEST PUSH1 0x1 SWAP1 SUB DUP2 DUP2 SWAP1 PUSH0 MSTORE PUSH1 0x20 PUSH0 KECCAK256 ADD PUSH0 SWAP1 SSTORE SWAP1 SSTORE DUP6 PUSH1 0x1 ADD PUSH0 DUP7 DUP2 MSTORE PUSH1 0x20 ADD SWAP1 DUP2 MSTORE PUSH1 0x20 ADD PUSH0 KECCAK256 PUSH0 SWAP1 SSTORE PUSH1 0x1 SWAP4 POP POP POP POP PUSH2 0x7D1 JUMP JUMPDEST PUSH0 SWAP2 POP POP PUSH2 0x7D1 JUMP JUMPDEST PUSH0 DUP3 PUSH0 ADD DUP3 DUP2 SLOAD DUP2 LT PUSH2 0x2B19 JUMPI PUSH2 0x2B19 PUSH2 0x3961 JUMP JUMPDEST SWAP1 PUSH0 MSTORE PUSH1 0x20 PUSH0 KECCAK256 ADD SLOAD SWAP1 POP SWAP3 SWAP2 POP POP JUMP JUMPDEST PUSH1 0x40 MLOAD DUP1 PUSH2 0x120 ADD PUSH1 0x40 MSTORE DUP1 PUSH1 0x60 DUP2 MSTORE PUSH1 0x20 ADD PUSH0 DUP2 MSTORE PUSH1 0x20 ADD PUSH0 DUP2 MSTORE PUSH1 0x20 ADD PUSH1 0x60 DUP2 MSTORE PUSH1 0x20 ADD PUSH1 0x60 DUP2 MSTORE PUSH1 0x20 ADD PUSH0 PUSH1 0x2 DUP2 GT ISZERO PUSH2 0x2B69 JUMPI PUSH2 0x2B69 PUSH2 0x34DC JUMP JUMPDEST DUP2 MSTORE PUSH1 0x40 DUP1 MLOAD PUSH1 0x60 DUP1 DUP3 ADD DUP4 MSTORE PUSH0 DUP1 DUP4 MSTORE PUSH1 0x20 DUP1 DUP5 ADD DUP3 SWAP1 MSTORE DUP4 DUP6 ADD DUP3 SWAP1 MSTORE DUP1 DUP7 ADD SWAP4 SWAP1 SWAP4 MSTORE DUP4 MLOAD DUP1 DUP4 ADD DUP6 MSTORE DUP2 DUP2 MSTORE SWAP3 DUP4 ADD DUP2 SWAP1 MSTORE DUP3 DUP5 ADD MSTORE SWAP2 DUP4 ADD MSTORE SWAP1 DUP2 ADD MSTORE SWAP1 JUMP JUMPDEST PUSH1 0x20 DUP2 MSTORE DUP2 PUSH1 0x20 DUP3 ADD MSTORE DUP2 DUP4 PUSH1 0x40 DUP4 ADD CALLDATACOPY PUSH0 DUP2 DUP4 ADD PUSH1 0x40 SWAP1 DUP2 ADD SWAP2 SWAP1 SWAP2 MSTORE PUSH1 0x1F SWAP1 SWAP3 ADD PUSH1 0x1F NOT AND ADD ADD SWAP2 SWAP1 POP JUMP JUMPDEST PUSH0 PUSH1 0x20 DUP3 DUP5 SUB SLT ISZERO PUSH2 0x2BEC JUMPI PUSH0 PUSH0 REVERT JUMPDEST DUP2 CALLDATALOAD PUSH1 0x1 PUSH1 0x1 PUSH1 0xE0 SHL SUB NOT DUP2 AND DUP2 EQ PUSH2 0x9D4 JUMPI PUSH0 PUSH0 REVERT JUMPDEST DUP1 CALLDATALOAD PUSH1 0x1 PUSH1 0x1 PUSH1 0xA0 SHL SUB DUP2 AND DUP2 EQ PUSH2 0x2C19 JUMPI PUSH0 PUSH0 REVERT JUMPDEST SWAP2 SWAP1 POP JUMP JUMPDEST PUSH0 PUSH1 0x20 DUP3 DUP5 SUB SLT ISZERO PUSH2 0x2C2E JUMPI PUSH0 PUSH0 REVERT JUMPDEST PUSH2 0x9D4 DUP3 PUSH2 0x2C03 JUMP JUMPDEST PUSH4 0x4E487B71 PUSH1 0xE0 SHL PUSH0 MSTORE PUSH1 0x41 PUSH1 0x4 MSTORE PUSH1 0x24 PUSH0 REVERT JUMPDEST PUSH1 0x40 MLOAD PUSH1 0x1F DUP3 ADD PUSH1 0x1F NOT AND DUP2 ADD PUSH1 0x1 PUSH1 0x1 PUSH1 0x40 SHL SUB DUP2 GT DUP3 DUP3 LT OR ISZERO PUSH2 0x2C73 JUMPI PUSH2 0x2C73 PUSH2 0x2C37 JUMP JUMPDEST PUSH1 0x40 MSTORE SWAP2 SWAP1 POP JUMP JUMPDEST PUSH0 PUSH1 0x1 PUSH1 0x1 PUSH1 0x40 SHL SUB DUP3 GT ISZERO PUSH2 0x2C93 JUMPI PUSH2 0x2C93 PUSH2 0x2C37 JUMP JUMPDEST POP PUSH1 0x1F ADD PUSH1 0x1F NOT AND PUSH1 0x20 ADD SWAP1 JUMP JUMPDEST PUSH0 DUP3 PUSH1 0x1F DUP4 ADD SLT PUSH2 0x2CB0 JUMPI PUSH0 PUSH0 REVERT JUMPDEST DUP2 CALLDATALOAD PUSH1 0x20 DUP4 ADD PUSH0 PUSH2 0x2CC8 PUSH2 0x2CC3 DUP5 PUSH2 0x2C7B JUMP JUMPDEST PUSH2 0x2C4B JUMP JUMPDEST SWAP1 POP DUP3 DUP2 MSTORE DUP6 DUP4 DUP4 ADD GT ISZERO PUSH2 0x2CDB JUMPI PUSH0 PUSH0 REVERT JUMPDEST DUP3 DUP3 PUSH1 0x20 DUP4 ADD CALLDATACOPY PUSH0 SWAP3 DUP2 ADD PUSH1 0x20 ADD SWAP3 SWAP1 SWAP3 MSTORE POP SWAP4 SWAP3 POP POP POP JUMP JUMPDEST PUSH0 PUSH1 0x20 DUP3 DUP5 SUB SLT ISZERO PUSH2 0x2D05 JUMPI PUSH0 PUSH0 REVERT JUMPDEST DUP2 CALLDATALOAD PUSH1 0x1 PUSH1 0x1 PUSH1 0x40 SHL SUB DUP2 GT ISZERO PUSH2 0x2D1A JUMPI PUSH0 PUSH0 REVERT JUMPDEST PUSH2 0x241A DUP5 DUP3 DUP6 ADD PUSH2 0x2CA1 JUMP JUMPDEST DUP1 CALLDATALOAD PUSH1 0xFF DUP2 AND DUP2 EQ PUSH2 0x2C19 JUMPI PUSH0 PUSH0 REVERT JUMPDEST PUSH0 PUSH1 0x60 DUP3 DUP5 SUB SLT ISZERO PUSH2 0x2D46 JUMPI PUSH0 PUSH0 REVERT JUMPDEST PUSH1 0x40 MLOAD PUSH1 0x60 DUP2 ADD PUSH1 0x1 PUSH1 0x1 PUSH1 0x40 SHL SUB DUP2 GT DUP3 DUP3 LT OR ISZERO PUSH2 0x2D68 JUMPI PUSH2 0x2D68 PUSH2 0x2C37 JUMP JUMPDEST PUSH1 0x40 MSTORE SWAP1 POP DUP1 DUP3 CALLDATALOAD PUSH2 0xFFFF DUP2 AND DUP2 EQ PUSH2 0x2D7F JUMPI PUSH0 PUSH0 REVERT JUMPDEST DUP2 MSTORE PUSH2 0x2D8D PUSH1 0x20 DUP5 ADD PUSH2 0x2D26 JUMP JUMPDEST PUSH1 0x20 DUP3 ADD MSTORE PUSH2 0x2D9E PUSH1 0x40 DUP5 ADD PUSH2 0x2D26 JUMP JUMPDEST PUSH1 0x40 DUP3 ADD MSTORE POP SWAP3 SWAP2 POP POP JUMP JUMPDEST PUSH0 PUSH0 PUSH0 PUSH0 PUSH0 PUSH2 0x120 DUP7 DUP9 SUB SLT ISZERO PUSH2 0x2DBF JUMPI PUSH0 PUSH0 REVERT JUMPDEST DUP6 CALLDATALOAD SWAP5 POP PUSH1 0x20 DUP7 ADD CALLDATALOAD PUSH1 0x1 PUSH1 0x1 PUSH1 0x40 SHL SUB DUP2 GT ISZERO PUSH2 0x2DDB JUMPI PUSH0 PUSH0 REVERT JUMPDEST PUSH2 0x2DE7 DUP9 DUP3 DUP10 ADD PUSH2 0x2CA1 JUMP JUMPDEST SWAP5 POP POP PUSH1 0x40 DUP7 ADD CALLDATALOAD PUSH1 0x1 PUSH1 0x1 PUSH1 0x40 SHL SUB DUP2 GT ISZERO PUSH2 0x2E02 JUMPI PUSH0 PUSH0 REVERT JUMPDEST PUSH2 0x2E0E DUP9 DUP3 DUP10 ADD PUSH2 0x2CA1 JUMP JUMPDEST SWAP4 POP POP PUSH2 0x2E1E DUP8 PUSH1 0x60 DUP9 ADD PUSH2 0x2D36 JUMP JUMPDEST SWAP2 POP PUSH2 0x2E2D DUP8 PUSH1 0xC0 DUP9 ADD PUSH2 0x2D36 JUMP JUMPDEST SWAP1 POP SWAP3 SWAP6 POP SWAP3 SWAP6 SWAP1 SWAP4 POP JUMP JUMPDEST PUSH0 PUSH0 PUSH1 0x40 DUP4 DUP6 SUB SLT ISZERO PUSH2 0x2E4A JUMPI PUSH0 PUSH0 REVERT JUMPDEST POP POP DUP1 CALLDATALOAD SWAP3 PUSH1 0x20 SWAP1 SWAP2 ADD CALLDATALOAD SWAP2 POP JUMP JUMPDEST PUSH0 DUP2 MLOAD DUP1 DUP5 MSTORE DUP1 PUSH1 0x20 DUP5 ADD PUSH1 0x20 DUP7 ADD MCOPY PUSH0 PUSH1 0x20 DUP3 DUP7 ADD ADD MSTORE PUSH1 0x20 PUSH1 0x1F NOT PUSH1 0x1F DUP4 ADD AND DUP6 ADD ADD SWAP2 POP POP SWAP3 SWAP2 POP POP JUMP JUMPDEST PUSH1 0x20 DUP2 MSTORE PUSH0 PUSH2 0x9D4 PUSH1 0x20 DUP4 ADD DUP5 PUSH2 0x2E59 JUMP JUMPDEST PUSH0 PUSH1 0x1 PUSH1 0x1 PUSH1 0x40 SHL SUB DUP3 GT ISZERO PUSH2 0x2EB1 JUMPI PUSH2 0x2EB1 PUSH2 0x2C37 JUMP JUMPDEST POP PUSH1 0x5 SHL PUSH1 0x20 ADD SWAP1 JUMP JUMPDEST PUSH0 DUP3 PUSH1 0x1F DUP4 ADD SLT PUSH2 0x2ECA JUMPI PUSH0 PUSH0 REVERT JUMPDEST DUP2 CALLDATALOAD PUSH2 0x2ED8 PUSH2 0x2CC3 DUP3 PUSH2 0x2E99 JUMP JUMPDEST DUP1 DUP3 DUP3 MSTORE PUSH1 0x20 DUP3 ADD SWAP2 POP PUSH1 0x20 DUP4 PUSH1 0x5 SHL DUP7 ADD ADD SWAP3 POP DUP6 DUP4 GT ISZERO PUSH2 0x2EF9 JUMPI PUSH0 PUSH0 REVERT JUMPDEST PUSH1 0x20 DUP6 ADD JUMPDEST DUP4 DUP2 LT ISZERO PUSH2 0x2F16 JUMPI DUP1 CALLDATALOAD DUP4 MSTORE PUSH1 0x20 SWAP3 DUP4 ADD SWAP3 ADD PUSH2 0x2EFE JUMP JUMPDEST POP SWAP6 SWAP5 POP POP POP POP POP JUMP JUMPDEST PUSH0 PUSH0 PUSH1 0x40 DUP4 DUP6 SUB SLT ISZERO PUSH2 0x2F31 JUMPI PUSH0 PUSH0 REVERT JUMPDEST DUP3 CALLDATALOAD PUSH1 0x1 PUSH1 0x1 PUSH1 0x40 SHL SUB DUP2 GT ISZERO PUSH2 0x2F46 JUMPI PUSH0 PUSH0 REVERT JUMPDEST PUSH2 0x2F52 DUP6 DUP3 DUP7 ADD PUSH2 0x2EBB JUMP JUMPDEST SWAP3 POP POP PUSH1 0x20 DUP4 ADD CALLDATALOAD PUSH1 0x1 PUSH1 0x1 PUSH1 0x40 SHL SUB DUP2 GT ISZERO PUSH2 0x2F6D JUMPI PUSH0 PUSH0 REVERT JUMPDEST PUSH2 0x2F79 DUP6 DUP3 DUP7 ADD PUSH2 0x2EBB JUMP JUMPDEST SWAP2 POP POP SWAP3 POP SWAP3 SWAP1 POP JUMP JUMPDEST PUSH0 PUSH1 0x20 DUP3 ADD PUSH1 0x20 DUP4 MSTORE DUP1 DUP5 MLOAD DUP1 DUP4 MSTORE PUSH1 0x40 DUP6 ADD SWAP2 POP PUSH1 0x40 DUP2 PUSH1 0x5 SHL DUP7 ADD ADD SWAP3 POP PUSH1 0x20 DUP7 ADD PUSH0 JUMPDEST DUP3 DUP2 LT ISZERO PUSH2 0x2FDA JUMPI PUSH1 0x3F NOT DUP8 DUP7 SUB ADD DUP5 MSTORE PUSH2 0x2FC5 DUP6 DUP4 MLOAD PUSH2 0x2E59 JUMP JUMPDEST SWAP5 POP PUSH1 0x20 SWAP4 DUP5 ADD SWAP4 SWAP2 SWAP1 SWAP2 ADD SWAP1 PUSH1 0x1 ADD PUSH2 0x2FA9 JUMP JUMPDEST POP SWAP3 SWAP7 SWAP6 POP POP POP POP POP POP JUMP JUMPDEST PUSH0 PUSH1 0x20 DUP3 DUP5 SUB SLT ISZERO PUSH2 0x2FF6 JUMPI PUSH0 PUSH0 REVERT JUMPDEST POP CALLDATALOAD SWAP2 SWAP1 POP JUMP JUMPDEST PUSH0 PUSH0 PUSH1 0x40 DUP4 DUP6 SUB SLT ISZERO PUSH2 0x300E JUMPI PUSH0 PUSH0 REVERT JUMPDEST PUSH2 0x3017 DUP4 PUSH2 0x2C03 JUMP JUMPDEST SWAP5 PUSH1 0x20 SWAP4 SWAP1 SWAP4 ADD CALLDATALOAD SWAP4 POP POP POP JUMP JUMPDEST PUSH0 PUSH0 PUSH0 PUSH0 PUSH0 PUSH0 PUSH2 0x140 DUP8 DUP10 SUB SLT ISZERO PUSH2 0x303B JUMPI PUSH0 PUSH0 REVERT JUMPDEST DUP7 CALLDATALOAD SWAP6 POP PUSH1 0x20 DUP8 ADD CALLDATALOAD PUSH1 0x1 PUSH1 0x1 PUSH1 0x40 SHL SUB DUP2 GT ISZERO PUSH2 0x3057 JUMPI PUSH0 PUSH0 REVERT JUMPDEST PUSH2 0x3063 DUP10 DUP3 DUP11 ADD PUSH2 0x2CA1 JUMP JUMPDEST SWAP6 POP POP PUSH1 0x40 DUP8 ADD CALLDATALOAD PUSH1 0x1 PUSH1 0x1 PUSH1 0x40 SHL SUB DUP2 GT ISZERO PUSH2 0x307E JUMPI PUSH0 PUSH0 REVERT JUMPDEST PUSH2 0x308A DUP10 DUP3 DUP11 ADD PUSH2 0x2CA1 JUMP JUMPDEST SWAP5 POP POP PUSH1 0x60 DUP8 ADD CALLDATALOAD PUSH1 0x3 DUP2 LT PUSH2 0x309E JUMPI PUSH0 PUSH0 REVERT JUMPDEST SWAP3 POP PUSH2 0x30AD DUP9 PUSH1 0x80 DUP10 ADD PUSH2 0x2D36 JUMP JUMPDEST SWAP2 POP PUSH2 0x30BC DUP9 PUSH1 0xE0 DUP10 ADD PUSH2 0x2D36 JUMP JUMPDEST SWAP1 POP SWAP3 SWAP6 POP SWAP3 SWAP6 POP SWAP3 SWAP6 JUMP JUMPDEST PUSH1 0x20 DUP1 DUP3 MSTORE DUP3 MLOAD DUP3 DUP3 ADD DUP2 SWAP1 MSTORE PUSH0 SWAP2 DUP5 ADD SWAP1 PUSH1 0x40 DUP5 ADD SWAP1 DUP4 JUMPDEST DUP2 DUP2 LT ISZERO PUSH2 0x3108 JUMPI DUP4 MLOAD PUSH1 0x1 PUSH1 0x1 PUSH1 0xA0 SHL SUB AND DUP4 MSTORE PUSH1 0x20 SWAP4 DUP5 ADD SWAP4 SWAP1 SWAP3 ADD SWAP2 PUSH1 0x1 ADD PUSH2 0x30E1 JUMP JUMPDEST POP SWAP1 SWAP6 SWAP5 POP POP POP POP POP JUMP JUMPDEST DUP1 CALLDATALOAD DUP1 ISZERO ISZERO DUP2 EQ PUSH2 0x2C19 JUMPI PUSH0 PUSH0 REVERT JUMPDEST PUSH0 PUSH0 PUSH0 PUSH0 PUSH0 PUSH1 0xA0 DUP7 DUP9 SUB SLT ISZERO PUSH2 0x3136 JUMPI PUSH0 PUSH0 REVERT JUMPDEST PUSH2 0x313F DUP7 PUSH2 0x2C03 JUMP JUMPDEST SWAP5 POP PUSH2 0x314D PUSH1 0x20 DUP8 ADD PUSH2 0x2C03 JUMP JUMPDEST SWAP4 POP PUSH1 0x40 DUP7 ADD CALLDATALOAD SWAP3 POP PUSH2 0x3162 PUSH1 0x60 DUP8 ADD PUSH2 0x3113 JUMP JUMPDEST SWAP2 POP PUSH1 0x80 DUP7 ADD CALLDATALOAD PUSH1 0x1 PUSH1 0x1 PUSH1 0x40 SHL SUB DUP2 GT ISZERO PUSH2 0x317C JUMPI PUSH0 PUSH0 REVERT JUMPDEST PUSH2 0x3188 DUP9 DUP3 DUP10 ADD PUSH2 0x2CA1 JUMP JUMPDEST SWAP2 POP POP SWAP3 SWAP6 POP SWAP3 SWAP6 SWAP1 SWAP4 POP JUMP JUMPDEST PUSH0 PUSH0 PUSH1 0x20 DUP4 DUP6 SUB SLT ISZERO PUSH2 0x31A6 JUMPI PUSH0 PUSH0 REVERT JUMPDEST DUP3 CALLDATALOAD PUSH1 0x1 PUSH1 0x1 PUSH1 0x40 SHL SUB DUP2 GT ISZERO PUSH2 0x31BB JUMPI PUSH0 PUSH0 REVERT JUMPDEST DUP4 ADD PUSH1 0x1F DUP2 ADD DUP6 SGT PUSH2 0x31CB JUMPI PUSH0 PUSH0 REVERT JUMPDEST DUP1 CALLDATALOAD PUSH1 0x1 PUSH1 0x1 PUSH1 0x40 SHL SUB DUP2 GT ISZERO PUSH2 0x31E0 JUMPI PUSH0 PUSH0 REVERT JUMPDEST DUP6 PUSH1 0x20 DUP3 PUSH1 0x5 SHL DUP5 ADD ADD GT ISZERO PUSH2 0x31F4 JUMPI PUSH0 PUSH0 REVERT JUMPDEST PUSH1 0x20 SWAP2 SWAP1 SWAP2 ADD SWAP6 SWAP1 SWAP5 POP SWAP3 POP POP POP JUMP JUMPDEST PUSH0 DUP3 PUSH1 0x1F DUP4 ADD SLT PUSH2 0x3213 JUMPI PUSH0 PUSH0 REVERT JUMPDEST DUP2 CALLDATALOAD PUSH2 0x3221 PUSH2 0x2CC3 DUP3 PUSH2 0x2E99 JUMP JUMPDEST DUP1 DUP3 DUP3 MSTORE PUSH1 0x20 DUP3 ADD SWAP2 POP PUSH1 0x20 DUP4 PUSH1 0x5 SHL DUP7 ADD ADD SWAP3 POP DUP6 DUP4 GT ISZERO PUSH2 0x3242 JUMPI PUSH0 PUSH0 REVERT JUMPDEST PUSH1 0x20 DUP6 ADD JUMPDEST DUP4 DUP2 LT ISZERO PUSH2 0x2F16 JUMPI PUSH2 0x3258 DUP2 PUSH2 0x2C03 JUMP JUMPDEST DUP4 MSTORE PUSH1 0x20 SWAP3 DUP4 ADD SWAP3 ADD PUSH2 0x3247 JUMP JUMPDEST PUSH0 DUP3 PUSH1 0x1F DUP4 ADD SLT PUSH2 0x3275 JUMPI PUSH0 PUSH0 REVERT JUMPDEST DUP2 CALLDATALOAD PUSH2 0x3283 PUSH2 0x2CC3 DUP3 PUSH2 0x2E99 JUMP JUMPDEST DUP1 DUP3 DUP3 MSTORE PUSH1 0x20 DUP3 ADD SWAP2 POP PUSH1 0x20 DUP4 PUSH1 0x5 SHL DUP7 ADD ADD SWAP3 POP DUP6 DUP4 GT ISZERO PUSH2 0x32A4 JUMPI PUSH0 PUSH0 REVERT JUMPDEST PUSH1 0x20 DUP6 ADD JUMPDEST DUP4 DUP2 LT ISZERO PUSH2 0x2F16 JUMPI PUSH2 0x32BA DUP2 PUSH2 0x3113 JUMP JUMPDEST DUP4 MSTORE PUSH1 0x20 SWAP3 DUP4 ADD SWAP3 ADD PUSH2 0x32A9 JUMP JUMPDEST PUSH0 DUP3 PUSH1 0x1F DUP4 ADD SLT PUSH2 0x32D7 JUMPI PUSH0 PUSH0 REVERT JUMPDEST DUP2 CALLDATALOAD PUSH2 0x32E5 PUSH2 0x2CC3 DUP3 PUSH2 0x2E99 JUMP JUMPDEST DUP1 DUP3 DUP3 MSTORE PUSH1 0x20 DUP3 ADD SWAP2 POP PUSH1 0x20 DUP4 PUSH1 0x5 SHL DUP7 ADD ADD SWAP3 POP DUP6 DUP4 GT ISZERO PUSH2 0x3306 JUMPI PUSH0 PUSH0 REVERT JUMPDEST PUSH1 0x20 DUP6 ADD JUMPDEST DUP4 DUP2 LT ISZERO PUSH2 0x2F16 JUMPI DUP1 CALLDATALOAD PUSH1 0x1 PUSH1 0x1 PUSH1 0x40 SHL SUB DUP2 GT ISZERO PUSH2 0x3328 JUMPI PUSH0 PUSH0 REVERT JUMPDEST PUSH2 0x3337 DUP9 PUSH1 0x20 DUP4 DUP11 ADD ADD PUSH2 0x2CA1 JUMP JUMPDEST DUP5 MSTORE POP PUSH1 0x20 SWAP3 DUP4 ADD SWAP3 ADD PUSH2 0x330B JUMP JUMPDEST PUSH0 PUSH0 PUSH0 PUSH0 PUSH0 PUSH1 0xA0 DUP7 DUP9 SUB SLT ISZERO PUSH2 0x335A JUMPI PUSH0 PUSH0 REVERT JUMPDEST DUP6 CALLDATALOAD PUSH1 0x1 PUSH1 0x1 PUSH1 0x40 SHL SUB DUP2 GT ISZERO PUSH2 0x336F JUMPI PUSH0 PUSH0 REVERT JUMPDEST PUSH2 0x337B DUP9 DUP3 DUP10 ADD PUSH2 0x3204 JUMP JUMPDEST SWAP6 POP POP PUSH1 0x20 DUP7 ADD CALLDATALOAD PUSH1 0x1 PUSH1 0x1 PUSH1 0x40 SHL SUB DUP2 GT ISZERO PUSH2 0x3396 JUMPI PUSH0 PUSH0 REVERT JUMPDEST PUSH2 0x33A2 DUP9 DUP3 DUP10 ADD PUSH2 0x3204 JUMP JUMPDEST SWAP5 POP POP PUSH1 0x40 DUP7 ADD CALLDATALOAD PUSH1 0x1 PUSH1 0x1 PUSH1 0x40 SHL SUB DUP2 GT ISZERO PUSH2 0x33BD JUMPI PUSH0 PUSH0 REVERT JUMPDEST PUSH2 0x33C9 DUP9 DUP3 DUP10 ADD PUSH2 0x2EBB JUMP JUMPDEST SWAP4 POP POP PUSH1 0x60 DUP7 ADD CALLDATALOAD PUSH1 0x1 PUSH1 0x1 PUSH1 0x40 SHL SUB DUP2 GT ISZERO PUSH2 0x33E4 JUMPI PUSH0 PUSH0 REVERT JUMPDEST PUSH2 0x33F0 DUP9 DUP3 DUP10 ADD PUSH2 0x3266 JUMP JUMPDEST SWAP3 POP POP PUSH1 0x80 DUP7 ADD CALLDATALOAD PUSH1 0x1 PUSH1 0x1 PUSH1 0x40 SHL SUB DUP2 GT ISZERO PUSH2 0x340B JUMPI PUSH0 PUSH0 REVERT JUMPDEST PUSH2 0x3188 DUP9 DUP3 DUP10 ADD PUSH2 0x32C8 JUMP JUMPDEST PUSH0 PUSH0 PUSH1 0x40 DUP4 DUP6 SUB SLT ISZERO PUSH2 0x3428 JUMPI PUSH0 PUSH0 REVERT JUMPDEST DUP3 CALLDATALOAD SWAP2 POP PUSH1 0x20 DUP4 ADD CALLDATALOAD PUSH1 0x1 PUSH1 0x1 PUSH1 0x40 SHL SUB DUP2 GT ISZERO PUSH2 0x3444 JUMPI PUSH0 PUSH0 REVERT JUMPDEST PUSH2 0x2F79 DUP6 DUP3 DUP7 ADD PUSH2 0x2CA1 JUMP JUMPDEST PUSH0 PUSH0 PUSH0 PUSH1 0x60 DUP5 DUP7 SUB SLT ISZERO PUSH2 0x3462 JUMPI PUSH0 PUSH0 REVERT JUMPDEST PUSH2 0x346B DUP5 PUSH2 0x2C03 JUMP JUMPDEST SWAP3 POP PUSH1 0x20 DUP5 ADD CALLDATALOAD SWAP2 POP PUSH1 0x40 DUP5 ADD CALLDATALOAD PUSH1 0x1 PUSH1 0x1 PUSH1 0x40 SHL SUB DUP2 GT ISZERO PUSH2 0x348C JUMPI PUSH0 PUSH0 REVERT JUMPDEST PUSH2 0x3498 DUP7 DUP3 DUP8 ADD PUSH2 0x2CA1 JUMP JUMPDEST SWAP2 POP POP SWAP3 POP SWAP3 POP SWAP3 JUMP JUMPDEST PUSH0 DUP2 MLOAD DUP1 DUP5 MSTORE PUSH1 0x20 DUP5 ADD SWAP4 POP PUSH1 0x20 DUP4 ADD PUSH0 JUMPDEST DUP3 DUP2 LT ISZERO PUSH2 0x34D2 JUMPI DUP2 MLOAD DUP7 MSTORE PUSH1 0x20 SWAP6 DUP7 ADD SWAP6 SWAP1 SWAP2 ADD SWAP1 PUSH1 0x1 ADD PUSH2 0x34B4 JUMP JUMPDEST POP SWAP4 SWAP5 SWAP4 POP POP POP POP JUMP JUMPDEST PUSH4 0x4E487B71 PUSH1 0xE0 SHL PUSH0 MSTORE PUSH1 0x21 PUSH1 0x4 MSTORE PUSH1 0x24 PUSH0 REVERT JUMPDEST PUSH1 0x3 DUP2 LT PUSH2 0x350C JUMPI PUSH4 0x4E487B71 PUSH1 0xE0 SHL PUSH0 MSTORE PUSH1 0x21 PUSH1 0x4 MSTORE PUSH1 0x24 PUSH0 REVERT JUMPDEST SWAP1 MSTORE JUMP JUMPDEST PUSH1 0x20 DUP2 MSTORE PUSH0 DUP3 MLOAD PUSH2 0x1A0 PUSH1 0x20 DUP5 ADD MSTORE PUSH2 0x352D PUSH2 0x1C0 DUP5 ADD DUP3 PUSH2 0x2E59 JUMP JUMPDEST SWAP1 POP PUSH1 0x20 DUP5 ADD MLOAD PUSH1 0x40 DUP5 ADD MSTORE PUSH1 0x40 DUP5 ADD MLOAD PUSH1 0x60 DUP5 ADD MSTORE PUSH1 0x60 DUP5 ADD MLOAD PUSH1 0x1F NOT DUP5 DUP4 SUB ADD PUSH1 0x80 DUP6 ADD MSTORE PUSH2 0x355E DUP3 DUP3 PUSH2 0x34A2 JUMP JUMPDEST SWAP2 POP POP PUSH1 0x80 DUP5 ADD MLOAD PUSH1 0x1F NOT DUP5 DUP4 SUB ADD PUSH1 0xA0 DUP6 ADD MSTORE PUSH2 0x357C DUP3 DUP3 PUSH2 0x34A2 JUMP JUMPDEST SWAP2 POP POP PUSH1 0xA0 DUP5 ADD MLOAD PUSH2 0x3591 PUSH1 0xC0 DUP6 ADD DUP3 PUSH2 0x34F0 JUMP JUMPDEST POP PUSH1 0xC0 DUP5 ADD MLOAD DUP1 MLOAD PUSH2 0xFFFF AND PUSH1 0xE0 DUP6 ADD MSTORE PUSH1 0x20 DUP2 ADD MLOAD PUSH1 0xFF SWAP1 DUP2 AND PUSH2 0x100 DUP7 ADD MSTORE PUSH1 0x40 DUP3 ADD MLOAD AND PUSH2 0x120 DUP6 ADD MSTORE POP PUSH1 0xE0 DUP5 ADD MLOAD DUP1 MLOAD PUSH2 0xFFFF AND PUSH2 0x140 DUP6 ADD MSTORE PUSH1 0x20 DUP2 ADD MLOAD PUSH1 0xFF SWAP1 DUP2 AND PUSH2 0x160 DUP7 ADD MSTORE PUSH1 0x40 DUP3 ADD MLOAD AND PUSH2 0x180 DUP6 ADD MSTORE POP PUSH2 0x100 DUP5 ADD MLOAD DUP4 DUP3 SUB PUSH1 0x1F NOT ADD PUSH2 0x1A0 DUP6 ADD MSTORE PUSH2 0x360A DUP3 DUP3 PUSH2 0x2E59 JUMP JUMPDEST SWAP6 SWAP5 POP POP POP POP POP JUMP JUMPDEST PUSH0 PUSH0 PUSH1 0x40 DUP4 DUP6 SUB SLT ISZERO PUSH2 0x3624 JUMPI PUSH0 PUSH0 REVERT JUMPDEST DUP3 CALLDATALOAD PUSH1 0x1 PUSH1 0x1 PUSH1 0x40 SHL SUB DUP2 GT ISZERO PUSH2 0x3639 JUMPI PUSH0 PUSH0 REVERT JUMPDEST PUSH2 0x3645 DUP6 DUP3 DUP7 ADD PUSH2 0x2EBB JUMP JUMPDEST SWAP3 POP POP PUSH1 0x20 DUP4 ADD CALLDATALOAD PUSH1 0x1 PUSH1 0x1 PUSH1 0x40 SHL SUB DUP2 GT ISZERO PUSH2 0x3660 JUMPI PUSH0 PUSH0 REVERT JUMPDEST PUSH2 0x2F79 DUP6 DUP3 DUP7 ADD PUSH2 0x32C8 JUMP JUMPDEST PUSH1 0x20 DUP2 MSTORE PUSH0 PUSH2 0x9D4 PUSH1 0x20 DUP4 ADD DUP5 PUSH2 0x34A2 JUMP JUMPDEST PUSH0 PUSH0 PUSH0 PUSH1 0x60 DUP5 DUP7 SUB SLT ISZERO PUSH2 0x3690 JUMPI PUSH0 PUSH0 REVERT JUMPDEST DUP4 CALLDATALOAD PUSH1 0x1 PUSH1 0x1 PUSH1 0x40 SHL SUB DUP2 GT ISZERO PUSH2 0x36A5 JUMPI PUSH0 PUSH0 REVERT JUMPDEST PUSH2 0x36B1 DUP7 DUP3 DUP8 ADD PUSH2 0x2EBB JUMP JUMPDEST SWAP4 POP POP PUSH1 0x20 DUP5 ADD CALLDATALOAD PUSH1 0x1 PUSH1 0x1 PUSH1 0x40 SHL SUB DUP2 GT ISZERO PUSH2 0x36CC JUMPI PUSH0 PUSH0 REVERT JUMPDEST PUSH2 0x36D8 DUP7 DUP3 DUP8 ADD PUSH2 0x2EBB JUMP JUMPDEST SWAP3 POP POP PUSH1 0x40 DUP5 ADD CALLDATALOAD PUSH1 0x1 PUSH1 0x1 PUSH1 0x40 SHL SUB DUP2 GT ISZERO PUSH2 0x36F3 JUMPI PUSH0 PUSH0 REVERT JUMPDEST PUSH2 0x3498 DUP7 DUP3 DUP8 ADD PUSH2 0x32C8 JUMP JUMPDEST PUSH0 PUSH0 PUSH0 PUSH1 0x60 DUP5 DUP7 SUB SLT ISZERO PUSH2 0x3711 JUMPI PUSH0 PUSH0 REVERT JUMPDEST DUP4 CALLDATALOAD SWAP3 POP PUSH1 0x20 DUP5 ADD CALLDATALOAD SWAP2 POP PUSH1 0x40 DUP5 ADD CALLDATALOAD PUSH1 0x1 PUSH1 0x1 PUSH1 0x40 SHL SUB DUP2 GT ISZERO PUSH2 0x348C JUMPI PUSH0 PUSH0 REVERT JUMPDEST PUSH0 PUSH0 PUSH0 PUSH0 PUSH1 0x80 DUP6 DUP8 SUB SLT ISZERO PUSH2 0x3747 JUMPI PUSH0 PUSH0 REVERT JUMPDEST PUSH2 0x3750 DUP6 PUSH2 0x2C03 JUMP JUMPDEST SWAP4 POP PUSH1 0x20 DUP6 ADD CALLDATALOAD SWAP3 POP PUSH2 0x3765 PUSH1 0x40 DUP7 ADD PUSH2 0x3113 JUMP JUMPDEST SWAP2 POP PUSH1 0x60 DUP6 ADD CALLDATALOAD PUSH1 0x1 PUSH1 0x1 PUSH1 0x40 SHL SUB DUP2 GT ISZERO PUSH2 0x377F JUMPI PUSH0 PUSH0 REVERT JUMPDEST PUSH2 0x378B DUP8 DUP3 DUP9 ADD PUSH2 0x2CA1 JUMP JUMPDEST SWAP2 POP POP SWAP3 SWAP6 SWAP2 SWAP5 POP SWAP3 POP JUMP JUMPDEST PUSH0 PUSH1 0x20 DUP3 DUP5 SUB SLT ISZERO PUSH2 0x37A7 JUMPI PUSH0 PUSH0 REVERT JUMPDEST DUP2 CALLDATALOAD PUSH1 0x1 PUSH1 0x1 PUSH1 0x40 SHL SUB DUP2 GT ISZERO PUSH2 0x37BC JUMPI PUSH0 PUSH0 REVERT JUMPDEST PUSH2 0x241A DUP5 DUP3 DUP6 ADD PUSH2 0x2EBB JUMP JUMPDEST DUP4 DUP6 DUP3 CALLDATACOPY PUSH1 0x60 SWAP3 SWAP1 SWAP3 SHL PUSH1 0x1 PUSH1 0x1 PUSH1 0x60 SHL SUB NOT AND SWAP2 SWAP1 SWAP3 ADD SWAP1 DUP2 MSTORE PUSH1 0x14 DUP2 ADD SWAP2 SWAP1 SWAP2 MSTORE PUSH1 0x34 ADD SWAP2 SWAP1 POP JUMP JUMPDEST PUSH0 DUP3 MLOAD DUP1 PUSH1 0x20 DUP6 ADD DUP5 MCOPY PUSH0 SWAP3 ADD SWAP2 DUP3 MSTORE POP SWAP2 SWAP1 POP JUMP JUMPDEST PUSH1 0x1 DUP2 DUP2 SHR SWAP1 DUP3 AND DUP1 PUSH2 0x381D JUMPI PUSH1 0x7F DUP3 AND SWAP2 POP JUMPDEST PUSH1 0x20 DUP3 LT DUP2 SUB PUSH2 0x19F0 JUMPI PUSH4 0x4E487B71 PUSH1 0xE0 SHL PUSH0 MSTORE PUSH1 0x22 PUSH1 0x4 MSTORE PUSH1 0x24 PUSH0 REVERT JUMPDEST PUSH1 0x1F DUP3 GT ISZERO PUSH2 0x229D JUMPI DUP1 PUSH0 MSTORE PUSH1 0x20 PUSH0 KECCAK256 PUSH1 0x1F DUP5 ADD PUSH1 0x5 SHR DUP2 ADD PUSH1 0x20 DUP6 LT ISZERO PUSH2 0x3860 JUMPI POP DUP1 JUMPDEST PUSH1 0x1F DUP5 ADD PUSH1 0x5 SHR DUP3 ADD SWAP2 POP JUMPDEST DUP2 DUP2 LT ISZERO PUSH2 0xC2D JUMPI PUSH0 DUP2 SSTORE PUSH1 0x1 ADD PUSH2 0x386C JUMP JUMPDEST DUP2 MLOAD PUSH1 0x1 PUSH1 0x1 PUSH1 0x40 SHL SUB DUP2 GT ISZERO PUSH2 0x3898 JUMPI PUSH2 0x3898 PUSH2 0x2C37 JUMP JUMPDEST PUSH2 0x38AC DUP2 PUSH2 0x38A6 DUP5 SLOAD PUSH2 0x3809 JUMP JUMPDEST DUP5 PUSH2 0x383B JUMP JUMPDEST PUSH1 0x20 PUSH1 0x1F DUP3 GT PUSH1 0x1 DUP2 EQ PUSH2 0x38DE JUMPI PUSH0 DUP4 ISZERO PUSH2 0x38C7 JUMPI POP DUP5 DUP3 ADD MLOAD JUMPDEST PUSH0 NOT PUSH1 0x3 DUP6 SWAP1 SHL SHR NOT AND PUSH1 0x1 DUP5 SWAP1 SHL OR DUP5 SSTORE PUSH2 0xC2D JUMP JUMPDEST PUSH0 DUP5 DUP2 MSTORE PUSH1 0x20 DUP2 KECCAK256 PUSH1 0x1F NOT DUP6 AND SWAP2 JUMPDEST DUP3 DUP2 LT ISZERO PUSH2 0x390D JUMPI DUP8 DUP6 ADD MLOAD DUP3 SSTORE PUSH1 0x20 SWAP5 DUP6 ADD SWAP5 PUSH1 0x1 SWAP1 SWAP3 ADD SWAP2 ADD PUSH2 0x38ED JUMP JUMPDEST POP DUP5 DUP3 LT ISZERO PUSH2 0x392A JUMPI DUP7 DUP5 ADD MLOAD PUSH0 NOT PUSH1 0x3 DUP8 SWAP1 SHL PUSH1 0xF8 AND SHR NOT AND DUP2 SSTORE JUMPDEST POP POP POP POP PUSH1 0x1 SWAP1 DUP2 SHL ADD SWAP1 SSTORE POP JUMP JUMPDEST PUSH1 0x20 DUP1 DUP3 MSTORE PUSH1 0xE SWAP1 DUP3 ADD MSTORE PUSH14 0x139BDD08185D5D1A1BDC9A5E9959 PUSH1 0x92 SHL PUSH1 0x40 DUP3 ADD MSTORE PUSH1 0x60 ADD SWAP1 JUMP JUMPDEST PUSH4 0x4E487B71 PUSH1 0xE0 SHL PUSH0 MSTORE PUSH1 0x32 PUSH1 0x4 MSTORE PUSH1 0x24 PUSH0 REVERT JUMPDEST PUSH0 PUSH0 DUP4 CALLDATALOAD PUSH1 0x1E NOT DUP5 CALLDATASIZE SUB ADD DUP2 SLT PUSH2 0x398A JUMPI PUSH0 PUSH0 REVERT JUMPDEST DUP4 ADD DUP1 CALLDATALOAD SWAP2 POP PUSH1 0x1 PUSH1 0x1 PUSH1 0x40 SHL SUB DUP3 GT ISZERO PUSH2 0x39A3 JUMPI PUSH0 PUSH0 REVERT JUMPDEST PUSH1 0x20 ADD SWAP2 POP CALLDATASIZE DUP2 SWAP1 SUB DUP3 SGT ISZERO PUSH2 0x39B7 JUMPI PUSH0 PUSH0 REVERT JUMPDEST SWAP3 POP SWAP3 SWAP1 POP JUMP JUMPDEST DUP2 DUP4 DUP3 CALLDATACOPY PUSH0 SWAP2 ADD SWAP1 DUP2 MSTORE SWAP2 SWAP1 POP JUMP JUMPDEST PUSH4 0x4E487B71 PUSH1 0xE0 SHL PUSH0 MSTORE PUSH1 0x11 PUSH1 0x4 MSTORE PUSH1 0x24 PUSH0 REVERT JUMPDEST DUP2 DUP2 SUB DUP2 DUP2 GT ISZERO PUSH2 0x7D1 JUMPI PUSH2 0x7D1 PUSH2 0x39CD JUMP JUMPDEST PUSH4 0x4E487B71 PUSH1 0xE0 SHL PUSH0 MSTORE PUSH1 0x31 PUSH1 0x4 MSTORE PUSH1 0x24 PUSH0 REVERT JUMPDEST PUSH1 0x1 DUP1 PUSH1 0xA0 SHL SUB DUP6 AND DUP2 MSTORE DUP4 PUSH1 0x20 DUP3 ADD MSTORE DUP3 ISZERO ISZERO PUSH1 0x40 DUP3 ADD MSTORE PUSH1 0x80 PUSH1 0x60 DUP3 ADD MSTORE PUSH0 PUSH2 0x3A36 PUSH1 0x80 DUP4 ADD DUP5 PUSH2 0x2E59 JUMP JUMPDEST SWAP7 SWAP6 POP POP POP POP POP POP JUMP JUMPDEST DUP1 MLOAD PUSH1 0x20 DUP3 ADD MLOAD PUSH1 0x1 PUSH1 0x1 PUSH1 0x60 SHL SUB NOT DUP2 AND SWAP2 SWAP1 PUSH1 0x14 DUP3 LT ISZERO PUSH2 0x3A87 JUMPI PUSH12 0xFFFFFFFFFFFFFFFFFFFFFFFF NOT PUSH12 0xFFFFFFFFFFFFFFFFFFFFFFFF NOT DUP4 PUSH1 0x14 SUB PUSH1 0x3 SHL SHL DUP3 AND AND SWAP3 POP JUMPDEST POP POP SWAP2 SWAP1 POP JUMP JUMPDEST PUSH1 0x1 PUSH1 0x1 PUSH1 0xA0 SHL SUB DUP5 AND DUP2 MSTORE DUP3 ISZERO ISZERO PUSH1 0x20 DUP3 ADD MSTORE PUSH1 0x60 PUSH1 0x40 DUP3 ADD DUP2 SWAP1 MSTORE PUSH0 SWAP1 PUSH2 0x360A SWAP1 DUP4 ADD DUP5 PUSH2 0x2E59 JUMP JUMPDEST PUSH1 0x1 PUSH1 0x1 PUSH1 0xA0 SHL SUB DUP7 DUP2 AND DUP3 MSTORE DUP6 DUP2 AND PUSH1 0x20 DUP4 ADD MSTORE DUP5 AND PUSH1 0x40 DUP3 ADD MSTORE PUSH1 0x60 DUP2 ADD DUP4 SWAP1 MSTORE PUSH1 0xA0 PUSH1 0x80 DUP3 ADD DUP2 SWAP1 MSTORE PUSH0 SWAP1 PUSH2 0x24D1 SWAP1 DUP4 ADD DUP5 PUSH2 0x2E59 JUMP JUMPDEST DUP3 ISZERO ISZERO DUP2 MSTORE PUSH1 0x40 PUSH1 0x20 DUP3 ADD MSTORE PUSH0 PUSH2 0x241A PUSH1 0x40 DUP4 ADD DUP5 PUSH2 0x2E59 JUMP JUMPDEST DUP1 MLOAD PUSH1 0x20 DUP1 DUP4 ADD MLOAD SWAP2 SWAP1 DUP2 LT ISZERO PUSH2 0x19F0 JUMPI PUSH0 NOT PUSH1 0x20 SWAP2 SWAP1 SWAP2 SUB PUSH1 0x3 SHL SHL AND SWAP2 SWAP1 POP JUMP JUMPDEST PUSH0 PUSH1 0x1 DUP3 ADD PUSH2 0x3B41 JUMPI PUSH2 0x3B41 PUSH2 0x39CD JUMP JUMPDEST POP PUSH1 0x1 ADD SWAP1 JUMP JUMPDEST DUP3 DUP2 MSTORE PUSH1 0x40 PUSH1 0x20 DUP3 ADD MSTORE PUSH0 PUSH2 0x241A PUSH1 0x40 DUP4 ADD DUP5 PUSH2 0x2E59 JUMP JUMPDEST PUSH0 PUSH1 0x20 DUP3 DUP5 SUB SLT ISZERO PUSH2 0x3B70 JUMPI PUSH0 PUSH0 REVERT JUMPDEST DUP2 MLOAD PUSH1 0x1 PUSH1 0x1 PUSH1 0x40 SHL SUB DUP2 GT ISZERO PUSH2 0x3B85 JUMPI PUSH0 PUSH0 REVERT JUMPDEST DUP3 ADD PUSH1 0x1F DUP2 ADD DUP5 SGT PUSH2 0x3B95 JUMPI PUSH0 PUSH0 REVERT JUMPDEST DUP1 MLOAD PUSH2 0x3BA3 PUSH2 0x2CC3 DUP3 PUSH2 0x2C7B JUMP JUMPDEST DUP2 DUP2 MSTORE DUP6 PUSH1 0x20 DUP4 DUP6 ADD ADD GT ISZERO PUSH2 0x3BB7 JUMPI PUSH0 PUSH0 REVERT JUMPDEST DUP2 PUSH1 0x20 DUP5 ADD PUSH1 0x20 DUP4 ADD MCOPY PUSH0 SWAP2 DUP2 ADD PUSH1 0x20 ADD SWAP2 SWAP1 SWAP2 MSTORE SWAP5 SWAP4 POP POP POP POP JUMP INVALID LOG2 PUSH5 0x6970667358 0x22 SLT KECCAK256 DATALOADN 0x1BBE 0x2B 0xD9 0xE 0xC2 SSTORE PUSH14 0x7C59D8FD644D5F64EE3A50324B51 PUSH32 0x932B4A3D9A27003964736F6C634300081F0033A2646970667358221220C4A831 0xC 0xD6 SWAP16 0xB6 SLOAD 0xC7 0xB7 BLOBBASEFEE SLT 0xD5 CALLF 0xA065 0xBC 0xFC SWAP11 BALANCE PUSH14 0x8400D9E3A5CCA12913ED4964736F PUSH13 0x634300081F0033000000000000 "
		},
		"gasEstimates": {
			"creation": {
				"codeDepositCost": "4117800",
				"executionCost": "4723",
				"totalCost": "4122523"
			},
			"external": {
				"changeClanOwner(address,address)": "infinite",
				"createClan(string,string,string,string,(uint16,uint8,uint8),(uint16,uint8,uint8))": "infinite",
				"getClanId(address)": "2577",
				"getClanOwner(address)": "2596",
				"removeClanFromOwned(address)": "27961"
			}
		},
		"methodIdentifiers": {
			"changeClanOwner(address,address)": "c6a9fa1f",
			"createClan(string,string,string,string,(uint16,uint8,uint8),(uint16,uint8,uint8))": "2cb819e1",
			"getClanId(address)": "5a10d060",
			"getClanOwner(address)": "64b9bf17",
			"removeClanFromOwned(address)": "1ed406b6"
		}
	},
	"abi": [
		{
			"anonymous": false,
			"inputs": [
				{
					"indexed": false,
					"internalType": "address",
					"name": "newOwner",
					"type": "address"
				},
				{
					"indexed": false,
					"internalType": "address",
					"name": "clanId",
					"type": "address"
				}
			],
			"name": "ChangeClanOwner",
			"type": "event"
		},
		{
			"anonymous": false,
			"inputs": [
				{
					"indexed": true,
					"internalType": "address",
					"name": "creatorAddress",
					"type": "address"
				},
				{
					"indexed": true,
					"internalType": "address",
					"name": "nftAddress",
					"type": "address"
				}
			],
			"name": "ClanCreated",
			"type": "event"
		},
		{
			"anonymous": false,
			"inputs": [
				{
					"indexed": true,
					"internalType": "address",
					"name": "clanId",
					"type": "address"
				}
			],
			"name": "ClanRemovedFromOwned",
			"type": "event"
		},
		{
			"inputs": [
				{
					"internalType": "address",
					"name": "newOwner",
					"type": "address"
				},
				{
					"internalType": "address",
					"name": "clanId",
					"type": "address"
				}
			],
			"name": "changeClanOwner",
			"outputs": [],
			"stateMutability": "nonpayable",
			"type": "function"
		},
		{
			"inputs": [
				{
					"internalType": "string",
					"name": "clanName",
					"type": "string"
				},
				{
					"internalType": "string",
					"name": "clanShortDesc",
					"type": "string"
				},
				{
					"internalType": "string",
					"name": "ancestorName",
					"type": "string"
				},
				{
					"internalType": "string",
					"name": "ancestorShortDesc",
					"type": "string"
				},
				{
					"components": [
						{
							"internalType": "uint16",
							"name": "year",
							"type": "uint16"
						},
						{
							"internalType": "uint8",
							"name": "month",
							"type": "uint8"
						},
						{
							"internalType": "uint8",
							"name": "day",
							"type": "uint8"
						}
					],
					"internalType": "struct FamilyTypes.DateInfo",
					"name": "birthDate",
					"type": "tuple"
				},
				{
					"components": [
						{
							"internalType": "uint16",
							"name": "year",
							"type": "uint16"
						},
						{
							"internalType": "uint8",
							"name": "month",
							"type": "uint8"
						},
						{
							"internalType": "uint8",
							"name": "day",
							"type": "uint8"
						}
					],
					"internalType": "struct FamilyTypes.DateInfo",
					"name": "deathDate",
					"type": "tuple"
				}
			],
			"name": "createClan",
			"outputs": [],
			"stateMutability": "nonpayable",
			"type": "function"
		},
		{
			"inputs": [
				{
					"internalType": "address",
					"name": "owner",
					"type": "address"
				}
			],
			"name": "getClanId",
			"outputs": [
				{
					"internalType": "address",
					"name": "",
					"type": "address"
				}
			],
			"stateMutability": "view",
			"type": "function"
		},
		{
			"inputs": [
				{
					"internalType": "address",
					"name": "clanId",
					"type": "address"
				}
			],
			"name": "getClanOwner",
			"outputs": [
				{
					"internalType": "address",
					"name": "",
					"type": "address"
				}
			],
			"stateMutability": "view",
			"type": "function"
		},
		{
			"inputs": [
				{
					"internalType": "address",
					"name": "clanId",
					"type": "address"
				}
			],
			"name": "removeClanFromOwned",
			"outputs": [],
			"stateMutability": "nonpayable",
			"type": "function"
		}
	]
}