{
	"data": {
		"bytecode": {
			"linkReferences": {},
			"object": "6080604052348015600e575f5ffd5b50614f6b8061001c5f395ff3fe608060405234801561000f575f5ffd5b5060043610610055575f3560e01c80631ed406b6146100595780635a10d0601461006e57806364b9bf17146100b55780638b8058a5146100e0578063c6a9fa1f146100f3575b5f5ffd5b61006c610067366004610413565b610106565b005b61009961007c366004610413565b6001600160a01b039081165f908152602081905260409020541690565b6040516001600160a01b03909116815260200160405180910390f35b6100996100c3366004610413565b6001600160a01b039081165f908152600160205260409020541690565b61006c6100ee3660046104d2565b6101b3565b61006c610101366004610537565b6102b0565b335f908152602081905260409020546001600160a01b038281169116146101645760405162461bcd60e51b815260206004820152600d60248201526c2737ba103a34329037bbb732b960991b60448201526064015b60405180910390fd5b335f9081526020819052604080822080546001600160a01b0319169055516001600160a01b038316917f106de2de224e5b1b7923506ff253ba0c501287d8730ae60b384e9ab22ad9656f91a250565b335f908152602081905260409020546001600160a01b0316156102075760405162461bcd60e51b815260206004820152600c60248201526b10db185b88195e1a5cdd195960a21b604482015260640161015b565b5f828233604051610217906103eb565b61022393929190610596565b604051809103905ff08015801561023c573d5f5f3e3d5ffd5b50335f8181526020818152604080832080546001600160a01b0387166001600160a01b031991821681179092558185526001909352818420805490931685179092555193945084939092917f96c3db8b9d54eea401daeff24ecfc4358c587efa4d1325cf980b29406e7469d191a350505050565b335f908152602081905260409020546001600160a01b038281169116146103065760405162461bcd60e51b815260206004820152600a60248201526927b7363c9037bbb732b960b11b604482015260640161015b565b6001600160a01b038281165f8181526020818152604080832080546001600160a01b03199081169688169687179091558584526001835281842080548216861790553384529183905291829020805490911690555163010aa5a760e11b815260048101919091526302154b4e906024015f604051808303815f87803b15801561038d575f5ffd5b505af115801561039f573d5f5f3e3d5ffd5b5050604080516001600160a01b038087168252851660208201527f01fbd754b6c8bcbbcaa42ef62223f951db6f88428bd87ec8902a5994fd604f7c935001905060405180910390a15050565b614962806105d483390190565b80356001600160a01b038116811461040e575f5ffd5b919050565b5f60208284031215610423575f5ffd5b61042c826103f8565b9392505050565b634e487b7160e01b5f52604160045260245ffd5b5f82601f830112610456575f5ffd5b813567ffffffffffffffff81111561047057610470610433565b604051601f8201601f19908116603f0116810167ffffffffffffffff8111828210171561049f5761049f610433565b6040528181528382016020018510156104b6575f5ffd5b816020850160208301375f918101602001919091529392505050565b5f5f604083850312156104e3575f5ffd5b823567ffffffffffffffff8111156104f9575f5ffd5b61050585828601610447565b925050602083013567ffffffffffffffff811115610521575f5ffd5b61052d85828601610447565b9150509250929050565b5f5f60408385031215610548575f5ffd5b610551836103f8565b915061055f602084016103f8565b90509250929050565b5f81518084528060208401602086015e5f602082860101526020601f19601f83011685010191505092915050565b606081525f6105a86060830186610568565b82810360208401526105ba8186610568565b91505060018060a01b038316604083015294935050505056fe608060405234801561000f575f5ffd5b5060405161496238038061496283398101604081905261002e916108e3565b60408051808201909152600681526546414d494c5960d01b602082015283908260025f848484848161005f3361022e565b6001600160a01b038116610086576040516306b620db60e21b815260040160405180910390fd5b61008f8161022e565b506040805180820190915260048152632936598960e21b60208201526100d6907feafec4d89fa9619884b60000a4d96624a38f7ac2d8d9a604ecf07c12c77e480c9061027d565b6101007fdeba1e292f8ba88238e10ab3c7f88bd4be4fac56cad5194b6ecceaf653468af18561027d565b61012a7f2f0a68ab07768e01943a599e73362a0e17a63a72e94dd2e384d2c1d4db9327568461027d565b6040805160208101839052610171917fe0261fa95db2eb3b5439bd033cda66d56b96f92f243a8228fd87550ed7bdfdb3910160408051601f1981840301815291905261027d565b505060408051602081018590526101bc93507ff675e9361af1c1664c1868cfa3eb97672d6b1a513aa5b81dec34c9ee330e818d92500160408051601f198184030181529190526102d1565b5050600880546001600160a01b0319163317905550600991506101e1905083826109e4565b50604080516060810182525f8082526020808301829052828401829052835180820185528281528451918201909452818152919261022492909185908580610391565b5050505050610be8565b5f80546001600160a01b038381166001600160a01b0319831681178455604051919092169283917f8be0079c531659141344cd1fd0a4f28419497f9722a3daafe3b4186f6b6457e09190a35050565b5f82815260016020526040902061029482826109e4565b50817fece574603820d07bc9b91f2a932baadf4628aabcb8afba49776529c14a6104b2826040516102c59190610acc565b60405180910390a25050565b7f2145e1d6d074577dc71ef54c3807742b41b053a9352ae6b491331509acb9750f8201610311576040516385c169bd60e01b815260040160405180910390fd5b7fd0f59754f88971fe6bc5a6618cc9d5f1e859c58d16b22d1c7b2d3e2b246cd8aa820161035157604051630eceab6760e31b815260040160405180910390fd5b7f1fd9e056a24d14c4abc642fcc325992a946906d0dbc57dd70278aaf12842024d820161027d57604051634ef6d7fb60e01b815260040160405180910390fd5b5f6103a0600680546001019055565b5060065460408051602081019091525f81526103c290869083906001906104d2565b5f818152600760205260409020806103da89826109e4565b5083516006820180546020808801516040808a015161ffff96871662ffffff19958616176201000060ff94851681029190911763ff0000001990811663010000009386168402179097558a5160078a018054968d0151948d0151919099169590961694909417918316909302179093169190921690910217905560058101805486919060ff1916600183600281111561047557610475610ade565b02179055506008810161048888826109e4565b506040516001600160a01b038716815282907fa6912c28a8cb5fc5cab504e471cfa6bc504444025484d810e2565bc7dead66579060200160405180910390a2509695505050505050565b6001600160a01b0384166104f9576040516324ecef4d60e01b815260040160405180910390fd5b5f838152600360205260409020546001600160a01b031615610536576040516334c7b51160e01b8152600481018490526024015b60405180910390fd5b5f838152600360205260409020546001600160a01b03161561056e576040516334c7b51160e01b81526004810184905260240161052d565b60025f815461057c90610af2565b909155506001600160a01b0384165f9081526004602052604090206105a19084610648565b505f8381526003602052604080822080546001600160a01b0319166001600160a01b03881690811790915590518592907fb333c813a7426a7a11e2b190cad52c44119421594b47f6f32ace6d8c7207b2bf9061060290339088908890610b16565b60405180910390a45f335f868685604051602001610624959493929190610b4a565b60408051601f19818403018152919052905061064185848361065c565b5050505050565b5f610653838361076a565b90505b92915050565b61066d83631aed5a8560e21b6107b6565b1561070857604051631aed5a8560e21b81526001600160a01b03841690636bb56a14906106c0907f0b084a55ebf70fd3c06fd755269dac2212c4d3f0f4d09079780bfa50c1b2984d908590600401610b84565b5f604051808303815f875af11580156106db573d5f5f3e3d5ffd5b505050506040513d5f823e601f3d908101601f191682016040526107029190810190610ba4565b50505050565b81610765576001600160a01b0383163b1561074157604051634349776d60e01b81526001600160a01b038416600482015260240161052d565b604051630317313760e01b81526001600160a01b038416600482015260240161052d565b505050565b5f8181526001830160205260408120546107af57508154600181810184555f848152602080822090930184905584548482528286019093526040902091909155610656565b505f610656565b604080516001600160e01b03198316602480830191909152825180830390910181526044909101909152602080820180516001600160e01b03166301ffc9a760e01b17815282515f9392849283928392918391908a617530fa92503d91505f519050828015610826575060208210155b801561083157505f81115b979650505050505050565b634e487b7160e01b5f52604160045260245ffd5b5f806001600160401b038411156108695761086961083c565b50604051601f19601f85018116603f011681018181106001600160401b03821117156108975761089761083c565b6040528381529050808284018510156108ae575f5ffd5b8383602083015e5f60208583010152509392505050565b5f82601f8301126108d4575f5ffd5b61065383835160208501610850565b5f5f5f606084860312156108f5575f5ffd5b83516001600160401b0381111561090a575f5ffd5b610916868287016108c5565b602086015190945090506001600160401b03811115610933575f5ffd5b61093f868287016108c5565b604086015190935090506001600160a01b038116811461095d575f5ffd5b809150509250925092565b600181811c9082168061097c57607f821691505b60208210810361099a57634e487b7160e01b5f52602260045260245ffd5b50919050565b601f82111561076557805f5260205f20601f840160051c810160208510156109c55750805b601f840160051c820191505b81811015610641575f81556001016109d1565b81516001600160401b038111156109fd576109fd61083c565b610a1181610a0b8454610968565b846109a0565b6020601f821160018114610a43575f8315610a2c5750848201515b5f19600385901b1c1916600184901b178455610641565b5f84815260208120601f198516915b82811015610a725787850151825560209485019460019092019101610a52565b5084821015610a8f57868401515f19600387901b60f8161c191681555b50505050600190811b01905550565b5f81518084528060208401602086015e5f602082860101526020601f19601f83011685010191505092915050565b602081525f6106536020830184610a9e565b634e487b7160e01b5f52602160045260245ffd5b5f60018201610b0f57634e487b7160e01b5f52601160045260245ffd5b5060010190565b6001600160a01b038416815282151560208201526060604082018190525f90610b4190830184610a9e565b95945050505050565b6001600160a01b0386811682528581166020830152841660408201526060810183905260a0608082018190525f9061083190830184610a9e565b828152604060208201525f610b9c6040830184610a9e565b949350505050565b5f60208284031215610bb4575f5ffd5b81516001600160401b03811115610bc9575f5ffd5b8201601f81018413610bd9575f5ffd5b610b9c84825160208401610850565b613d6d80610bf55f395ff3fe6080604052600436106101fc575f3560e01c806370a082311161010c5780638f81ecfc1161009f578063d6c1407c1161006e578063d6c1407c1461065e578063db8c96631461067d578063dedff9c61461069c578063e4ac8dbd146106bb578063f2fde38b146106cf57610255565b80638f81ecfc146105e15780639790242114610600578063a3b261f214610613578063be9f0e6f1461063f57610255565b80637e913b05116100db5780637e913b05146105745780637f23690c1461059357806386a10ddd146105a65780638da5cb5b146105c557610255565b806370a082311461050c578063715018a61461052b57806378495bf81461053f5780637e87632c1461055557610255565b80632819a2151161018f5780634c8f93131161015e5780634c8f93131461045e578063511b69521461047d57806354f6127f1461049c578063625d0be9146104bb5780636963d438146104ed57610255565b80632819a215146103d55780632a3654a4146103f457806349a6078d1461041357806349fc56861461043f57610255565b806318160ddd116101cb57806318160ddd146103355780631d26fce6146103535780631f1217081461037f578063217b2270146103b657610255565b806301ffc9a71461029557806302154b4e146102c95780630cfa4650146102ea57806316e023b31461030957610255565b3661025557345f0361023c5760405163e5099ee360e01b81526004016102339060208082526004908201525f604082015260600190565b60405180910390fd5b6040516330fa4a2160e11b815260040160405180910390fd5b5f366060600482101561027f57828260405163e5099ee360e01b8152600401610233929190612c7a565b61028983836106ee565b80519350602001915050f35b3480156102a0575f5ffd5b506102b46102af366004612ca8565b6107dd565b60405190151581526020015b60405180910390f35b3480156102d4575f5ffd5b506102e86102e3366004612cea565b610810565b005b3480156102f5575f5ffd5b506102e8610304366004612dc1565b610863565b348015610314575f5ffd5b50610328610323366004612df2565b6108b0565b6040516102c09190612e40565b348015610340575f5ffd5b506002545b6040519081526020016102c0565b34801561035e575f5ffd5b5061037261036d366004612ed9565b6108c3565b6040516102c09190612f3c565b34801561038a575f5ffd5b5060085461039e906001600160a01b031681565b6040516001600160a01b0390911681526020016102c0565b3480156103c1575f5ffd5b5061039e6103d0366004612f9f565b6109a9565b3480156103e0575f5ffd5b506102e86103ef366004613051565b6109e1565b3480156103ff575f5ffd5b506102b461040e36600461311e565b610b13565b34801561041e575f5ffd5b5061043261042d366004612f9f565b610b1e565b6040516102c09190613146565b34801561044a575f5ffd5b506102e8610459366004613191565b610b3f565b348015610469575f5ffd5b506102e8610478366004613231565b610c84565b348015610488575f5ffd5b506102e8610497366004613304565b610dd7565b3480156104a7575f5ffd5b506103286104b6366004612f9f565b610e1b565b3480156104c6575f5ffd5b506104da6104d5366004612f9f565b610e26565b6040516102c0979695949392919061338b565b3480156104f8575f5ffd5b5061037261050736600461343b565b610fcc565b348015610517575f5ffd5b50610345610526366004612cea565b6110f6565b348015610536575f5ffd5b506102e8611116565b34801561054a575f5ffd5b506006546103459081565b348015610560575f5ffd5b506102e861056f3660046135ec565b611129565b34801561057f575f5ffd5b506102e861058e366004612df2565b611217565b6102e86105a13660046136bd565b61146e565b3480156105b1575f5ffd5b506102e86105c03660046136f6565b6114a3565b3480156105d0575f5ffd5b505f546001600160a01b031661039e565b3480156105ec575f5ffd5b506102e86105fb366004612df2565b61161a565b6102e861060e366004613748565b611851565b34801561061e575f5ffd5b5061063261062d366004612cea565b611882565b6040516102c091906137a1565b34801561064a575f5ffd5b506102e86106593660046137d8565b6118a5565b348015610669575f5ffd5b506102e8610678366004613859565b611968565b348015610688575f5ffd5b506102e861069736600461388e565b6119bc565b3480156106a7575f5ffd5b506103726106b63660046138f1565b611a9d565b3480156106c6575f5ffd5b50610328611b46565b3480156106da575f5ffd5b506102e86106e9366004612cea565b611bd2565b60605f6107055f356001600160e01b031916611c3f565b5090506001600160a01b03811661073c5760405163bb370b2b60e01b81526001600160e01b03195f35166004820152602401610233565b5f5f826001600160a01b031634878733346040516020016107609493929190613922565b60408051601f198184030181529082905261077a9161394d565b5f6040518083038185875af1925050503d805f81146107b4576040519150601f19603f3d011682016040523d82523d5f602084013e6107b9565b606091505b509150915081156107ce5792506107d7915050565b80518060208301fd5b92915050565b5f6001600160e01b03198216631d138b8360e11b1480610801575061080182611cbb565b806107d757506107d782611cdf565b6008546001600160a01b031633146108575760405162461bcd60e51b815260206004820152600a602482015269139bdd081c195c9b5a5d60b21b6044820152606401610233565b61086081611d14565b50565b61086b611d63565b600961087782826139d9565b505f80546040516001600160a01b03909116917f52dfe4fd4c28a03cd8ab0af4995f1caf006268a90c0e57cbd291d33f358fbc2f91a250565b60606108bc8383611dbc565b9392505050565b606081518351146108e7576040516317d38eff60e11b815260040160405180910390fd5b82516001600160401b0381111561090057610900612d03565b60405190808252806020026020018201604052801561093357816020015b606081526020019060019003908161091e5790505b5090505f5b83518110156109a25761097d84828151811061095657610956613a93565b602002602001015184838151811061097057610970613a93565b6020026020010151611dbc565b82828151811061098f5761098f613a93565b6020908102919091010152600101610938565b5092915050565b5f818152600360205260408120546001600160a01b0316806107d757604051635747cd1b60e11b815260048101849052602401610233565b835f6109ec826109a9565b9050336001600160a01b0382161480610a0e57505f546001600160a01b031633145b610a2a5760405162461bcd60e51b815260040161023390613aa7565b5f86815260076020526040812090610a468d8d888e8e8e611e8f565b9050816003016040518060400160405280876002811115610a6957610a69613377565b815260209081018490528254600181810185555f94855291909320825160029485029091018054939490939192849260ff1916918490811115610aae57610aae613377565b02179055506020918201516001918201555f838152600790925260408083209182018b9055600290910189905551899183917f95afc0d374f4e4b0d262be4433e573b5862c9fb50c22ee6438a313040f5487cc9190a350505050505050505050505050565b5f6108bc8383611fd0565b6060610b298261200b565b5f8281526005602052604090206107d790612042565b855f610b4a826109a9565b9050336001600160a01b0382161480610b6c57505f546001600160a01b031633145b610b885760405162461bcd60e51b815260040161023390613aa7565b5f88815260076020526040902080610ba089826139d9565b5084516006820180546020808901516040808b015161ffff96871662ffffff19958616176201000060ff94851681029190911763ff0000001990811663010000009386168402179097558b5160078a018054968e0151948e0151919099169590961694909417918316909302179093169190921690910217905560058101805487919060ff19166001836002811115610c3b57610c3b613377565b021790555060088101610c4e88826139d9565b5060405189907f088b778b9aa1c8317c051d681d7e71c9f3e40c539fbaf5cadfd37476c1b15dec905f90a2505050505050505050565b875f610c8f826109a9565b9050336001600160a01b0382161480610cb157505f546001600160a01b031633145b610ccd5760405162461bcd60e51b815260040161023390613aa7565b5f610cdd8a8a8660018c8c611e8f565b5f81815260076020908152604080832081516060810183528581528084018c81528184018c8152600490930180546001818101835591885286882093516003909102909301928355905180519183018054828801519287015160ff908116630100000090810263ff000000199583166201000090810262ffffff1995861661ffff998a16171787169190911790945596518051600290970180549a820151918a015183169098029116909202971693909216929092179490941716929092179091555191925082918d917fca4757636f927657c127875c4f0c0ec6e1f84d4769348f20fff39486a4bb2c3f91a35050505050505050505050565b610de13384611fd0565b610e0757604051631294d2a960e01b815260048101849052336024820152604401610233565b610e14858585858561204e565b5050505050565b60606107d78261222a565b60076020525f9081526040902080548190610e4090613963565b80601f0160208091040260200160405190810160405280929190818152602001828054610e6c90613963565b8015610eb75780601f10610e8e57610100808354040283529160200191610eb7565b820191905f5260205f20905b815481529060010190602001808311610e9a57829003601f168201915b505050506001830154600284015460058501546040805160608082018352600689015461ffff808216845260ff6201000080840482166020808801919091526301000000948590048316878901528751958601885260078e015493841686529083048216908501529190048116938201939093526008890180549899969895975092909316949093909190610f4b90613963565b80601f0160208091040260200160405190810160405280929190818152602001828054610f7790613963565b8015610fc25780601f10610f9957610100808354040283529160200191610fc2565b820191905f5260205f20905b815481529060010190602001808311610fa557829003601f168201915b5050505050905087565b6060816001600160401b03811115610fe657610fe6612d03565b60405190808252806020026020018201604052801561101957816020015b60608152602001906001900390816110045790505b5090505f5b828110156109a2575f803086868581811061103b5761103b613a93565b905060200281019061104d9190613acf565b60405161105b929190613b18565b5f60405180830381855af49150503d805f8114611093576040519150601f19603f3d011682016040523d82523d5f602084013e611098565b606091505b5091509150816110ce578051156110b25780518082602001fd5b60405163234eb81960e01b815260048101849052602401610233565b808484815181106110e1576110e1613a93565b6020908102919091010152505060010161101e565b6001600160a01b0381165f9081526004602052604081206107d7906122c9565b61111e611d63565b6111275f611d14565b565b845184518114158061113c575083518114155b80611148575082518114155b80611154575081518114155b15611172576040516393a8311960e01b815260040160405180910390fd5b5f5b8181101561120e5761120687828151811061119157611191613a93565b60200260200101518783815181106111ab576111ab613a93565b60200260200101518784815181106111c5576111c5613a93565b60200260200101518785815181106111df576111df613a93565b60200260200101518786815181106111f9576111f9613a93565b6020026020010151610dd7565b600101611174565b50505050505050565b805f611222826109a9565b9050336001600160a01b038216148061124457505f546001600160a01b031633145b6112605760405162461bcd60e51b815260040161023390613aa7565b5f838152600760205260408120905b600482015481101561142c578582600401828154811061129157611291613a93565b905f5260205f2090600302015f0154036114245760048201545f906112b890600190613b3b565b90508082146113a8578260040181815481106112d6576112d6613a93565b905f5260205f2090600302018360040183815481106112f7576112f7613a93565b5f9182526020909120825460039092020190815560018083018054918301805461ffff93841661ffff1980831682178455845462ffffff19938416909217620100009283900460ff908116840291909117808655955463ff000000199687166301000000918290048316820217909555600298890180549990980180549990971691891682178755875498909316179681900482160295909517808455935493909116928190049093169092021790555b826004018054806113bb576113bb613b4e565b5f8281526020812060035f199093019283020181815560018101805463ffffffff199081169091556002909101805490911690559155604051879189917ff1387b2f8963ca7947c75faa29a4c7de0859d44c5f9a658761acbdc5d539976b9190a3505050611468565b60010161126f565b5060405162461bcd60e51b815260206004820152601060248201526f14dc1bdd5cd9481b9bdd08199bdd5b9960821b6044820152606401610233565b50505050565b611476611d63565b34156114955760405163f36ba73760e01b815260040160405180910390fd5b61149f82826122d2565b5050565b5f6114ad836109a9565b90506001600160a01b03811633146114f057604051632d938f5160e11b81526001600160a01b038216600482015260248101849052336044820152606401610233565b6001600160a01b03841661151757604051639577b8b360e01b815260040160405180910390fd5b836001600160a01b0316816001600160a01b031603611549576040516344fed6b160e11b815260040160405180910390fd5b5f838152600560205260408120611560908661231c565b905080611592576040516314ec4d6d60e31b81526001600160a01b038616600482015260248101859052604401610233565b83826001600160a01b0316866001600160a01b03167f1b1b58aa2ec0cec2228b2d37124556d41f5a1f7b12f089171f896cc236671215866040516115d69190612e40565b60405180910390a45f33856001866040516020016115f79493929190613b62565b60405160208183030381529060405290506116128682612330565b505050505050565b815f611625826109a9565b9050336001600160a01b038216148061164757505f546001600160a01b031633145b6116635760405162461bcd60e51b815260040161023390613aa7565b5f848152600760205260408082208583529120600181015486146116c95760405162461bcd60e51b815260206004820152601860248201527f4e6f74206368696c64206f66207468697320706572736f6e00000000000000006044820152606401610233565b5f5b600383015481101561181657858360030182815481106116ed576116ed613a93565b905f5260205f209060020201600101540361180e5760038301545f9061171590600190613b3b565b905080821461179b5783600301818154811061173357611733613a93565b905f5260205f20906002020184600301838154811061175457611754613a93565b5f9182526020909120825460029283029091018054909260ff90921691839160ff191690600190849081111561178c5761178c613377565b02179055506001918201549101555b836003018054806117ae576117ae613b4e565b5f8281526020812060025f1990930192830201805460ff191681556001908101829055919092558401819055604051899189917fd22ef99c12aeaecac27f6067207b23ac6a9ae5f21e97134b39e98320aa04fa5d9190a350505050611468565b6001016116cb565b5060405162461bcd60e51b815260206004820152600f60248201526e10da1a5b19081b9bdd08199bdd5b99608a1b6044820152606401610233565b611859611d63565b34156118785760405163f36ba73760e01b815260040160405180910390fd5b61149f828261235b565b6001600160a01b0381165f9081526004602052604090206060906107d790612042565b6118ad611d63565b815183511415806118c057508051825114155b156118de576040516317d38eff60e11b815260040160405180910390fd5b82515f036118ff576040516380c9830560e01b815260040160405180910390fd5b5f5b83518110156114685761196084828151811061191f5761191f613a93565b602002602001015184838151811061193957611939613a93565b602002602001015184848151811061195357611953613a93565b60200260200101516123f2565b600101611901565b825f611973826109a9565b9050336001600160a01b038216148061199557505f546001600160a01b031633145b6119b15760405162461bcd60e51b815260040161023390613aa7565b610e148585856123f2565b5f6119c6846109a9565b9050336001600160a01b03821614611a19576001600160a01b0385163314611a195760405163760b5acd60e01b81523360048201526001600160a01b038216602482015260448101859052606401610233565b6001600160a01b038516611a4057604051639577b8b360e01b815260040160405180910390fd5b846001600160a01b0316816001600160a01b031603611a72576040516344fed6b160e11b815260040160405180910390fd5b611a7f8582868686612480565b8215610e14575f81855f856040516020016115f79493929190613b62565b606081516001600160401b03811115611ab857611ab8612d03565b604051908082528060200260200182016040528015611aeb57816020015b6060815260200190600190039081611ad65790505b5090505f5b8251811015611b4057611b1b838281518110611b0e57611b0e613a93565b602002602001015161222a565b828281518110611b2d57611b2d613a93565b6020908102919091010152600101611af0565b50919050565b60098054611b5390613963565b80601f0160208091040260200160405190810160405280929190818152602001828054611b7f90613963565b8015611bca5780601f10611ba157610100808354040283529160200191611bca565b820191905f5260205f20905b815481529060010190602001808311611bad57829003601f168201915b505050505081565b611bda611d63565b6001600160a01b0381166108575760405162461bcd60e51b815260206004820152602660248201527f4f776e61626c653a206e6577206f776e657220697320746865207a65726f206160448201526564647265737360d01b6064820152608401610233565b5f8080611c63696773c5a04a6d4300884b60b11b6001600160e01b0319861661251f565b90505f611c6f8261222a565b90508051601414158015611c835750805115155b15611ca357806040516342bfe79f60e01b81526004016102339190612e40565b611cac81613b9a565b60601c95600195509350505050565b5f6001600160e01b0319821663a918fa6b60e01b14806107d757506107d782612572565b5f80611cf16301ffc9a760e01b611c3f565b5090506001600160a01b038116611d0a57505f92915050565b6108bc81846125a6565b5f80546001600160a01b038381166001600160a01b0319831681178455604051919092169283917f8be0079c531659141344cd1fd0a4f28419497f9722a3daafe3b4186f6b6457e09190a35050565b5f546001600160a01b031633146111275760405162461bcd60e51b815260206004820181905260248201527f4f776e61626c653a2063616c6c6572206973206e6f7420746865206f776e65726044820152606401610233565b606060015f8484604051602001611ddd929190918252602082015260400190565b6040516020818303038152906040528051906020012081526020019081526020015f208054611e0b90613963565b80601f0160208091040260200160405190810160405280929190818152602001828054611e3790613963565b8015611e825780601f10611e5957610100808354040283529160200191611e82565b820191905f5260205f20905b815481529060010190602001808311611e6557829003601f168201915b5050505050905092915050565b5f611e9e600680546001019055565b6006545f1b9050611ec08582600160405180602001604052805f81525061262c565b5f81815260076020526040902080611ed889826139d9565b5083516006820180546020808801516040808a015161ffff96871662ffffff19958616176201000060ff94851681029190911763ff0000001990811663010000009386168402179097558a5160078a018054968d0151948d0151919099169590961694909417918316909302179093169190921690910217905560058101805486919060ff19166001836002811115611f7357611f73613377565b021790555060088101611f8688826139d9565b506040516001600160a01b038716815282907fa6912c28a8cb5fc5cab504e471cfa6bc504444025484d810e2565bc7dead66579060200160405180910390a2509695505050505050565b5f611fda826109a9565b6001600160a01b0316836001600160a01b031614806108bc57505f8281526005602052604090206108bc9084612795565b5f818152600360205260409020546001600160a01b031661086057604051635747cd1b60e11b815260048101829052602401610233565b60605f6108bc836127b6565b5f612058846109a9565b9050856001600160a01b0316816001600160a01b0316146120a657604051632d938f5160e11b81526001600160a01b0380831660048301526024820186905287166044820152606401610233565b6001600160a01b0385166120cd576040516324ecef4d60e01b815260040160405180910390fd5b5f6120d7856109a9565b9050806001600160a01b0316826001600160a01b03161461212557604051635a9c31d360e01b8152600481018690526001600160a01b03808416602483015282166044820152606401610233565b61212f878661280e565b6001600160a01b0387165f9081526004602052604090206121509086612861565b506001600160a01b0386165f908152600460205260409020612172908661286c565b505f858152600360205260409081902080546001600160a01b0319166001600160a01b0389811691821790925591518792918a16907fb333c813a7426a7a11e2b190cad52c44119421594b47f6f32ace6d8c7207b2bf906121d89033908a908a90613be8565b60405180910390a45f33888888876040516020016121fa959493929190613c1c565b60405160208183030381529060405290506122158882612877565b6122208786836128a2565b5050505050505050565b5f81815260016020526040902080546060919061224690613963565b80601f016020809104026020016040519081016040528092919081815260200182805461227290613963565b80156122bd5780601f10612294576101008083540402835291602001916122bd565b820191905f5260205f20905b8154815290600101906020018083116122a057829003601f168201915b50505050509050919050565b5f6107d7825490565b7f098a16c9e50e3e99b3e797305c146898d294e5aec55a47e213cb3611ccf17e73820161231257604051631b32400560e11b815260040160405180910390fd5b61149f82826129a5565b5f6108bc836001600160a01b038416612ab9565b61149f827f8a1c15a8799f71b547e08e2bcb2e85257e81b0a07eee2ce6712549eef1f0097083612b05565b805182511461237d57604051633bcc897960e01b815260040160405180910390fd5b81515f0361239e576040516397da5f9560e01b815260040160405180910390fd5b5f5b82518110156123ed576123e58382815181106123be576123be613a93565b60200260200101518383815181106123d8576123d8613a93565b60200260200101516122d2565b6001016123a0565b505050565b8060015f8585604051602001612412929190918252602082015260400190565b6040516020818303038152906040528051906020012081526020019081526020015f20908161244191906139d9565b5081837fa6e4251f855f750545fe414f120db91c76b88def14d120969e5bb2d3f05debbb836040516124739190612e40565b60405180910390a3505050565b5f8381526005602052604081206124979087612b52565b9050806124c9576040516312a8c6a360e21b81526001600160a01b038716600482015260248101859052604401610233565b83856001600160a01b0316876001600160a01b03167fc78cd419d6136f9f1c1c6aec1d3fae098cffaf8bc86314a8f2685e32fe574e3c868660405161250f929190613c56565b60405180910390a4505050505050565b604080516001600160b01b0319841660208201525f602a82018190526001600160601b03198416602c8301529182910160405160208183030381529060405290508061256a90613c70565b949350505050565b5f6001600160e01b031982166318a6a9a560e21b14806107d757506301ffc9a760e01b6001600160e01b03198316146107d7565b604080516001600160e01b03198316602480830191909152825180830390910181526044909101909152602080820180516001600160e01b03166301ffc9a760e01b17815282515f9392849283928392918391908a617530fa92503d91505f519050828015612616575060208210155b801561262157505f81115b979650505050505050565b6001600160a01b038416612653576040516324ecef4d60e01b815260040160405180910390fd5b5f838152600360205260409020546001600160a01b03161561268b576040516334c7b51160e01b815260048101849052602401610233565b5f838152600360205260409020546001600160a01b0316156126c3576040516334c7b51160e01b815260048101849052602401610233565b60025f81546126d190613c93565b909155506001600160a01b0384165f9081526004602052604090206126f6908461286c565b505f8381526003602052604080822080546001600160a01b0319166001600160a01b03881690811790915590518592907fb333c813a7426a7a11e2b190cad52c44119421594b47f6f32ace6d8c7207b2bf9061275790339088908890613be8565b60405180910390a45f335f868685604051602001612779959493929190613c1c565b6040516020818303038152906040529050610e148584836128a2565b6001600160a01b0381165f90815260018301602052604081205415156108bc565b6060815f018054806020026020016040519081016040528092919081815260200182805480156122bd57602002820191905f5260205f20905b8154815260200190600101908083116127ef5750505050509050919050565b5f81815260056020526040812090612825826122c9565b90505f5f5b828110156116125761283c845f612b66565b91506128598287875f60405180602001604052805f815250612480565b60010161282a565b5f6108bc8383612b71565b5f6108bc8383612ab9565b61149f827fb23eae7e6d1564b295b4c3e3be402d9a2f0776c57bdf365903496f6fa481ab0083612b05565b6128b383631aed5a8560e21b6125a6565b1561294857604051631aed5a8560e21b81526001600160a01b03841690636bb56a1490612906907f0b084a55ebf70fd3c06fd755269dac2212c4d3f0f4d09079780bfa50c1b2984d908590600401613cab565b5f604051808303815f875af1158015612921573d5f5f3e3d5ffd5b505050506040513d5f823e601f3d908101601f191682016040526114689190810190613cc3565b816123ed576001600160a01b0383163b1561298157604051634349776d60e01b81526001600160a01b0384166004820152602401610233565b604051630317313760e01b81526001600160a01b0384166004820152602401610233565b7f2145e1d6d074577dc71ef54c3807742b41b053a9352ae6b491331509acb9750f82016129e5576040516385c169bd60e01b815260040160405180910390fd5b7fd0f59754f88971fe6bc5a6618cc9d5f1e859c58d16b22d1c7b2d3e2b246cd8aa8201612a2557604051630eceab6760e31b815260040160405180910390fd5b7f1fd9e056a24d14c4abc642fcc325992a946906d0dbc57dd70278aaf12842024d8201612a6557604051634ef6d7fb60e01b815260040160405180910390fd5b5f828152600160205260409020612a7c82826139d9565b50817fece574603820d07bc9b91f2a932baadf4628aabcb8afba49776529c14a6104b282604051612aad9190612e40565b60405180910390a25050565b5f818152600183016020526040812054612afe57508154600181810184555f8481526020808220909301849055845484825282860190935260409020919091556107d7565b505f6107d7565b612b1f6001600160a01b038416631aed5a8560e21b6125a6565b156123ed57604051631aed5a8560e21b81526001600160a01b03841690636bb56a14906129069085908590600401613cab565b5f6108bc836001600160a01b038416612b71565b5f6108bc8383612c54565b5f8181526001830160205260408120548015612c4b575f612b93600183613b3b565b85549091505f90612ba690600190613b3b565b9050818114612c05575f865f018281548110612bc457612bc4613a93565b905f5260205f200154905080875f018481548110612be457612be4613a93565b5f918252602080832090910192909255918252600188019052604090208390555b8554869080612c1657612c16613b4e565b600190038181905f5260205f20015f90559055856001015f8681526020019081526020015f205f9055600193505050506107d7565b5f9150506107d7565b5f825f018281548110612c6957612c69613a93565b905f5260205f200154905092915050565b60208152816020820152818360408301375f818301604090810191909152601f909201601f19160101919050565b5f60208284031215612cb8575f5ffd5b81356001600160e01b0319811681146108bc575f5ffd5b80356001600160a01b0381168114612ce5575f5ffd5b919050565b5f60208284031215612cfa575f5ffd5b6108bc82612ccf565b634e487b7160e01b5f52604160045260245ffd5b604051601f8201601f191681016001600160401b0381118282101715612d3f57612d3f612d03565b604052919050565b5f6001600160401b03821115612d5f57612d5f612d03565b50601f01601f191660200190565b5f82601f830112612d7c575f5ffd5b8135602083015f612d94612d8f84612d47565b612d17565b9050828152858383011115612da7575f5ffd5b828260208301375f92810160200192909252509392505050565b5f60208284031215612dd1575f5ffd5b81356001600160401b03811115612de6575f5ffd5b61256a84828501612d6d565b5f5f60408385031215612e03575f5ffd5b50508035926020909101359150565b5f81518084528060208401602086015e5f602082860101526020601f19601f83011685010191505092915050565b602081525f6108bc6020830184612e12565b5f6001600160401b03821115612e6a57612e6a612d03565b5060051b60200190565b5f82601f830112612e83575f5ffd5b8135612e91612d8f82612e52565b8082825260208201915060208360051b860101925085831115612eb2575f5ffd5b602085015b83811015612ecf578035835260209283019201612eb7565b5095945050505050565b5f5f60408385031215612eea575f5ffd5b82356001600160401b03811115612eff575f5ffd5b612f0b85828601612e74565b92505060208301356001600160401b03811115612f26575f5ffd5b612f3285828601612e74565b9150509250929050565b5f602082016020835280845180835260408501915060408160051b8601019250602086015f5b82811015612f9357603f19878603018452612f7e858351612e12565b94506020938401939190910190600101612f62565b50929695505050505050565b5f60208284031215612faf575f5ffd5b5035919050565b60038110610860575f5ffd5b8035612ce581612fb6565b803560ff81168114612ce5575f5ffd5b5f60608284031215612fed575f5ffd5b604051606081016001600160401b038111828210171561300f5761300f612d03565b604052905080823561ffff81168114613026575f5ffd5b815261303460208401612fcd565b602082015261304560408401612fcd565b60408201525092915050565b5f5f5f5f5f5f5f5f5f6101a08a8c03121561306a575f5ffd5b89356001600160401b0381111561307f575f5ffd5b61308b8c828d01612d6d565b99505060208a01356001600160401b038111156130a6575f5ffd5b6130b28c828d01612d6d565b98505060408a01356130c381612fb6565b96506130d28b60608c01612fdd565b95506130e18b60c08c01612fdd565b94506101208a013593506101408a013592506131006101608b01612ccf565b915061310f6101808b01612fc2565b90509295985092959850929598565b5f5f6040838503121561312f575f5ffd5b61313883612ccf565b946020939093013593505050565b602080825282518282018190525f918401906040840190835b818110156131865783516001600160a01b031683526020938401939092019160010161315f565b509095945050505050565b5f5f5f5f5f5f61014087890312156131a7575f5ffd5b8635955060208701356001600160401b038111156131c3575f5ffd5b6131cf89828a01612d6d565b95505060408701356001600160401b038111156131ea575f5ffd5b6131f689828a01612d6d565b945050606087013561320781612fb6565b92506132168860808901612fdd565b91506132258860e08901612fdd565b90509295509295509295565b5f5f5f5f5f5f5f5f610200898b031215613249575f5ffd5b8835975060208901356001600160401b03811115613265575f5ffd5b6132718b828c01612d6d565b97505060408901356001600160401b0381111561328c575f5ffd5b6132988b828c01612d6d565b9650506132a88a60608b01612fdd565b94506132b78a60c08b01612fdd565b93506132c78a6101208b01612fdd565b92506132d78a6101808b01612fdd565b91506132e66101e08a01612ccf565b90509295985092959890939650565b80358015158114612ce5575f5ffd5b5f5f5f5f5f60a08688031215613318575f5ffd5b61332186612ccf565b945061332f60208701612ccf565b935060408601359250613344606087016132f5565b915060808601356001600160401b0381111561335e575f5ffd5b61336a88828901612d6d565b9150509295509295909350565b634e487b7160e01b5f52602160045260245ffd5b61016081525f61339f61016083018a612e12565b886020840152876040840152600387106133c757634e487b7160e01b5f52602160045260245ffd5b60608301879052855161ffff166080840152602086015160ff90811660a085015260408701511660c0840152845161ffff1660e0840152602085015160ff90811661010085015260408601511661012084015282810361014084015261342d8185612e12565b9a9950505050505050505050565b5f5f6020838503121561344c575f5ffd5b82356001600160401b03811115613461575f5ffd5b8301601f81018513613471575f5ffd5b80356001600160401b03811115613486575f5ffd5b8560208260051b840101111561349a575f5ffd5b6020919091019590945092505050565b5f82601f8301126134b9575f5ffd5b81356134c7612d8f82612e52565b8082825260208201915060208360051b8601019250858311156134e8575f5ffd5b602085015b83811015612ecf576134fe81612ccf565b8352602092830192016134ed565b5f82601f83011261351b575f5ffd5b8135613529612d8f82612e52565b8082825260208201915060208360051b86010192508583111561354a575f5ffd5b602085015b83811015612ecf57613560816132f5565b83526020928301920161354f565b5f82601f83011261357d575f5ffd5b813561358b612d8f82612e52565b8082825260208201915060208360051b8601019250858311156135ac575f5ffd5b602085015b83811015612ecf5780356001600160401b038111156135ce575f5ffd5b6135dd886020838a0101612d6d565b845250602092830192016135b1565b5f5f5f5f5f60a08688031215613600575f5ffd5b85356001600160401b03811115613615575f5ffd5b613621888289016134aa565b95505060208601356001600160401b0381111561363c575f5ffd5b613648888289016134aa565b94505060408601356001600160401b03811115613663575f5ffd5b61366f88828901612e74565b93505060608601356001600160401b0381111561368a575f5ffd5b6136968882890161350c565b92505060808601356001600160401b038111156136b1575f5ffd5b61336a8882890161356e565b5f5f604083850312156136ce575f5ffd5b8235915060208301356001600160401b038111156136ea575f5ffd5b612f3285828601612d6d565b5f5f5f60608486031215613708575f5ffd5b61371184612ccf565b92506020840135915060408401356001600160401b03811115613732575f5ffd5b61373e86828701612d6d565b9150509250925092565b5f5f60408385031215613759575f5ffd5b82356001600160401b0381111561376e575f5ffd5b61377a85828601612e74565b92505060208301356001600160401b03811115613795575f5ffd5b612f328582860161356e565b602080825282518282018190525f918401906040840190835b818110156131865783518352602093840193909201916001016137ba565b5f5f5f606084860312156137ea575f5ffd5b83356001600160401b038111156137ff575f5ffd5b61380b86828701612e74565b93505060208401356001600160401b03811115613826575f5ffd5b61383286828701612e74565b92505060408401356001600160401b0381111561384d575f5ffd5b61373e8682870161356e565b5f5f5f6060848603121561386b575f5ffd5b833592506020840135915060408401356001600160401b03811115613732575f5ffd5b5f5f5f5f608085870312156138a1575f5ffd5b6138aa85612ccf565b9350602085013592506138bf604086016132f5565b915060608501356001600160401b038111156138d9575f5ffd5b6138e587828801612d6d565b91505092959194509250565b5f60208284031215613901575f5ffd5b81356001600160401b03811115613916575f5ffd5b61256a84828501612e74565b8385823760609290921b6001600160601b031916919092019081526014810191909152603401919050565b5f82518060208501845e5f920191825250919050565b600181811c9082168061397757607f821691505b602082108103611b4057634e487b7160e01b5f52602260045260245ffd5b601f8211156123ed57805f5260205f20601f840160051c810160208510156139ba5750805b601f840160051c820191505b81811015610e14575f81556001016139c6565b81516001600160401b038111156139f2576139f2612d03565b613a0681613a008454613963565b84613995565b6020601f821160018114613a38575f8315613a215750848201515b5f19600385901b1c1916600184901b178455610e14565b5f84815260208120601f198516915b82811015613a675787850151825560209485019460019092019101613a47565b5084821015613a8457868401515f19600387901b60f8161c191681555b50505050600190811b01905550565b634e487b7160e01b5f52603260045260245ffd5b6020808252600e908201526d139bdd08185d5d1a1bdc9a5e995960921b604082015260600190565b5f5f8335601e19843603018112613ae4575f5ffd5b8301803591506001600160401b03821115613afd575f5ffd5b602001915036819003821315613b11575f5ffd5b9250929050565b818382375f9101908152919050565b634e487b7160e01b5f52601160045260245ffd5b818103818111156107d7576107d7613b27565b634e487b7160e01b5f52603160045260245ffd5b60018060a01b03851681528360208201528215156040820152608060608201525f613b906080830184612e12565b9695505050505050565b805160208201516001600160601b0319811691906014821015613be1576bffffffffffffffffffffffff196bffffffffffffffffffffffff198360140360031b1b82161692505b5050919050565b6001600160a01b038416815282151560208201526060604082018190525f90613c1390830184612e12565b95945050505050565b6001600160a01b0386811682528581166020830152841660408201526060810183905260a0608082018190525f9061262190830184612e12565b8215158152604060208201525f61256a6040830184612e12565b80516020808301519190811015611b40575f1960209190910360031b1b16919050565b5f60018201613ca457613ca4613b27565b5060010190565b828152604060208201525f61256a6040830184612e12565b5f60208284031215613cd3575f5ffd5b81516001600160401b03811115613ce8575f5ffd5b8201601f81018413613cf8575f5ffd5b8051613d06612d8f82612d47565b818152856020838501011115613d1a575f5ffd5b8160208401602083015e5f9181016020019190915294935050505056fea26469706673582212209b46b9a0a119611592111ecf68d66126e476aac937a4bf3a9e9984c2ac40dc3664736f6c634300081f0033a264697066735822122005af4c728c4a145d5234bc7c184a3687e588f16259046feaa86d99c7183a942864736f6c634300081f0033",
			"opcodes": "PUSH1 0x80 PUSH1 0x40 MSTORE CALLVALUE DUP1 ISZERO PUSH1 0xE JUMPI PUSH0 PUSH0 REVERT JUMPDEST POP PUSH2 0x4F6B DUP1 PUSH2 0x1C PUSH0 CODECOPY PUSH0 RETURN INVALID PUSH1 0x80 PUSH1 0x40 MSTORE CALLVALUE DUP1 ISZERO PUSH2 0xF JUMPI PUSH0 PUSH0 REVERT JUMPDEST POP PUSH1 0x4 CALLDATASIZE LT PUSH2 0x55 JUMPI PUSH0 CALLDATALOAD PUSH1 0xE0 SHR DUP1 PUSH4 0x1ED406B6 EQ PUSH2 0x59 JUMPI DUP1 PUSH4 0x5A10D060 EQ PUSH2 0x6E JUMPI DUP1 PUSH4 0x64B9BF17 EQ PUSH2 0xB5 JUMPI DUP1 PUSH4 0x8B8058A5 EQ PUSH2 0xE0 JUMPI DUP1 PUSH4 0xC6A9FA1F EQ PUSH2 0xF3 JUMPI JUMPDEST PUSH0 PUSH0 REVERT JUMPDEST PUSH2 0x6C PUSH2 0x67 CALLDATASIZE PUSH1 0x4 PUSH2 0x413 JUMP JUMPDEST PUSH2 0x106 JUMP JUMPDEST STOP JUMPDEST PUSH2 0x99 PUSH2 0x7C CALLDATASIZE PUSH1 0x4 PUSH2 0x413 JUMP JUMPDEST PUSH1 0x1 PUSH1 0x1 PUSH1 0xA0 SHL SUB SWAP1 DUP2 AND PUSH0 SWAP1 DUP2 MSTORE PUSH1 0x20 DUP2 SWAP1 MSTORE PUSH1 0x40 SWAP1 KECCAK256 SLOAD AND SWAP1 JUMP JUMPDEST PUSH1 0x40 MLOAD PUSH1 0x1 PUSH1 0x1 PUSH1 0xA0 SHL SUB SWAP1 SWAP2 AND DUP2 MSTORE PUSH1 0x20 ADD PUSH1 0x40 MLOAD DUP1 SWAP2 SUB SWAP1 RETURN JUMPDEST PUSH2 0x99 PUSH2 0xC3 CALLDATASIZE PUSH1 0x4 PUSH2 0x413 JUMP JUMPDEST PUSH1 0x1 PUSH1 0x1 PUSH1 0xA0 SHL SUB SWAP1 DUP2 AND PUSH0 SWAP1 DUP2 MSTORE PUSH1 0x1 PUSH1 0x20 MSTORE PUSH1 0x40 SWAP1 KECCAK256 SLOAD AND SWAP1 JUMP JUMPDEST PUSH2 0x6C PUSH2 0xEE CALLDATASIZE PUSH1 0x4 PUSH2 0x4D2 JUMP JUMPDEST PUSH2 0x1B3 JUMP JUMPDEST PUSH2 0x6C PUSH2 0x101 CALLDATASIZE PUSH1 0x4 PUSH2 0x537 JUMP JUMPDEST PUSH2 0x2B0 JUMP JUMPDEST CALLER PUSH0 SWAP1 DUP2 MSTORE PUSH1 0x20 DUP2 SWAP1 MSTORE PUSH1 0x40 SWAP1 KECCAK256 SLOAD PUSH1 0x1 PUSH1 0x1 PUSH1 0xA0 SHL SUB DUP3 DUP2 AND SWAP2 AND EQ PUSH2 0x164 JUMPI PUSH1 0x40 MLOAD PUSH3 0x461BCD PUSH1 0xE5 SHL DUP2 MSTORE PUSH1 0x20 PUSH1 0x4 DUP3 ADD MSTORE PUSH1 0xD PUSH1 0x24 DUP3 ADD MSTORE PUSH13 0x2737BA103A34329037BBB732B9 PUSH1 0x99 SHL PUSH1 0x44 DUP3 ADD MSTORE PUSH1 0x64 ADD JUMPDEST PUSH1 0x40 MLOAD DUP1 SWAP2 SUB SWAP1 REVERT JUMPDEST CALLER PUSH0 SWAP1 DUP2 MSTORE PUSH1 0x20 DUP2 SWAP1 MSTORE PUSH1 0x40 DUP1 DUP3 KECCAK256 DUP1 SLOAD PUSH1 0x1 PUSH1 0x1 PUSH1 0xA0 SHL SUB NOT AND SWAP1 SSTORE MLOAD PUSH1 0x1 PUSH1 0x1 PUSH1 0xA0 SHL SUB DUP4 AND SWAP2 PUSH32 0x106DE2DE224E5B1B7923506FF253BA0C501287D8730AE60B384E9AB22AD9656F SWAP2 LOG2 POP JUMP JUMPDEST CALLER PUSH0 SWAP1 DUP2 MSTORE PUSH1 0x20 DUP2 SWAP1 MSTORE PUSH1 0x40 SWAP1 KECCAK256 SLOAD PUSH1 0x1 PUSH1 0x1 PUSH1 0xA0 SHL SUB AND ISZERO PUSH2 0x207 JUMPI PUSH1 0x40 MLOAD PUSH3 0x461BCD PUSH1 0xE5 SHL DUP2 MSTORE PUSH1 0x20 PUSH1 0x4 DUP3 ADD MSTORE PUSH1 0xC PUSH1 0x24 DUP3 ADD MSTORE PUSH12 0x10DB185B88195E1A5CDD1959 PUSH1 0xA2 SHL PUSH1 0x44 DUP3 ADD MSTORE PUSH1 0x64 ADD PUSH2 0x15B JUMP JUMPDEST PUSH0 DUP3 DUP3 CALLER PUSH1 0x40 MLOAD PUSH2 0x217 SWAP1 PUSH2 0x3EB JUMP JUMPDEST PUSH2 0x223 SWAP4 SWAP3 SWAP2 SWAP1 PUSH2 0x596 JUMP JUMPDEST PUSH1 0x40 MLOAD DUP1 SWAP2 SUB SWAP1 PUSH0 CREATE DUP1 ISZERO DUP1 ISZERO PUSH2 0x23C JUMPI RETURNDATASIZE PUSH0 PUSH0 RETURNDATACOPY RETURNDATASIZE PUSH0 REVERT JUMPDEST POP CALLER PUSH0 DUP2 DUP2 MSTORE PUSH1 0x20 DUP2 DUP2 MSTORE PUSH1 0x40 DUP1 DUP4 KECCAK256 DUP1 SLOAD PUSH1 0x1 PUSH1 0x1 PUSH1 0xA0 SHL SUB DUP8 AND PUSH1 0x1 PUSH1 0x1 PUSH1 0xA0 SHL SUB NOT SWAP2 DUP3 AND DUP2 OR SWAP1 SWAP3 SSTORE DUP2 DUP6 MSTORE PUSH1 0x1 SWAP1 SWAP4 MSTORE DUP2 DUP5 KECCAK256 DUP1 SLOAD SWAP1 SWAP4 AND DUP6 OR SWAP1 SWAP3 SSTORE MLOAD SWAP4 SWAP5 POP DUP5 SWAP4 SWAP1 SWAP3 SWAP2 PUSH32 0x96C3DB8B9D54EEA401DAEFF24ECFC4358C587EFA4D1325CF980B29406E7469D1 SWAP2 LOG3 POP POP POP POP JUMP JUMPDEST CALLER PUSH0 SWAP1 DUP2 MSTORE PUSH1 0x20 DUP2 SWAP1 MSTORE PUSH1 0x40 SWAP1 KECCAK256 SLOAD PUSH1 0x1 PUSH1 0x1 PUSH1 0xA0 SHL SUB DUP3 DUP2 AND SWAP2 AND EQ PUSH2 0x306 JUMPI PUSH1 0x40 MLOAD PUSH3 0x461BCD PUSH1 0xE5 SHL DUP2 MSTORE PUSH1 0x20 PUSH1 0x4 DUP3 ADD MSTORE PUSH1 0xA PUSH1 0x24 DUP3 ADD MSTORE PUSH10 0x27B7363C9037BBB732B9 PUSH1 0xB1 SHL PUSH1 0x44 DUP3 ADD MSTORE PUSH1 0x64 ADD PUSH2 0x15B JUMP JUMPDEST PUSH1 0x1 PUSH1 0x1 PUSH1 0xA0 SHL SUB DUP3 DUP2 AND PUSH0 DUP2 DUP2 MSTORE PUSH1 0x20 DUP2 DUP2 MSTORE PUSH1 0x40 DUP1 DUP4 KECCAK256 DUP1 SLOAD PUSH1 0x1 PUSH1 0x1 PUSH1 0xA0 SHL SUB NOT SWAP1 DUP2 AND SWAP7 DUP9 AND SWAP7 DUP8 OR SWAP1 SWAP2 SSTORE DUP6 DUP5 MSTORE PUSH1 0x1 DUP4 MSTORE DUP2 DUP5 KECCAK256 DUP1 SLOAD DUP3 AND DUP7 OR SWAP1 SSTORE CALLER DUP5 MSTORE SWAP2 DUP4 SWAP1 MSTORE SWAP2 DUP3 SWAP1 KECCAK256 DUP1 SLOAD SWAP1 SWAP2 AND SWAP1 SSTORE MLOAD PUSH4 0x10AA5A7 PUSH1 0xE1 SHL DUP2 MSTORE PUSH1 0x4 DUP2 ADD SWAP2 SWAP1 SWAP2 MSTORE PUSH4 0x2154B4E SWAP1 PUSH1 0x24 ADD PUSH0 PUSH1 0x40 MLOAD DUP1 DUP4 SUB DUP2 PUSH0 DUP8 DUP1 EXTCODESIZE ISZERO DUP1 ISZERO PUSH2 0x38D JUMPI PUSH0 PUSH0 REVERT JUMPDEST POP GAS CALL ISZERO DUP1 ISZERO PUSH2 0x39F JUMPI RETURNDATASIZE PUSH0 PUSH0 RETURNDATACOPY RETURNDATASIZE PUSH0 REVERT JUMPDEST POP POP PUSH1 0x40 DUP1 MLOAD PUSH1 0x1 PUSH1 0x1 PUSH1 0xA0 SHL SUB DUP1 DUP8 AND DUP3 MSTORE DUP6 AND PUSH1 0x20 DUP3 ADD MSTORE PUSH32 0x1FBD754B6C8BCBBCAA42EF62223F951DB6F88428BD87EC8902A5994FD604F7C SWAP4 POP ADD SWAP1 POP PUSH1 0x40 MLOAD DUP1 SWAP2 SUB SWAP1 LOG1 POP POP JUMP JUMPDEST PUSH2 0x4962 DUP1 PUSH2 0x5D4 DUP4 CODECOPY ADD SWAP1 JUMP JUMPDEST DUP1 CALLDATALOAD PUSH1 0x1 PUSH1 0x1 PUSH1 0xA0 SHL SUB DUP2 AND DUP2 EQ PUSH2 0x40E JUMPI PUSH0 PUSH0 REVERT JUMPDEST SWAP2 SWAP1 POP JUMP JUMPDEST PUSH0 PUSH1 0x20 DUP3 DUP5 SUB SLT ISZERO PUSH2 0x423 JUMPI PUSH0 PUSH0 REVERT JUMPDEST PUSH2 0x42C DUP3 PUSH2 0x3F8 JUMP JUMPDEST SWAP4 SWAP3 POP POP POP JUMP JUMPDEST PUSH4 0x4E487B71 PUSH1 0xE0 SHL PUSH0 MSTORE PUSH1 0x41 PUSH1 0x4 MSTORE PUSH1 0x24 PUSH0 REVERT JUMPDEST PUSH0 DUP3 PUSH1 0x1F DUP4 ADD SLT PUSH2 0x456 JUMPI PUSH0 PUSH0 REVERT JUMPDEST DUP2 CALLDATALOAD PUSH8 0xFFFFFFFFFFFFFFFF DUP2 GT ISZERO PUSH2 0x470 JUMPI PUSH2 0x470 PUSH2 0x433 JUMP JUMPDEST PUSH1 0x40 MLOAD PUSH1 0x1F DUP3 ADD PUSH1 0x1F NOT SWAP1 DUP2 AND PUSH1 0x3F ADD AND DUP2 ADD PUSH8 0xFFFFFFFFFFFFFFFF DUP2 GT DUP3 DUP3 LT OR ISZERO PUSH2 0x49F JUMPI PUSH2 0x49F PUSH2 0x433 JUMP JUMPDEST PUSH1 0x40 MSTORE DUP2 DUP2 MSTORE DUP4 DUP3 ADD PUSH1 0x20 ADD DUP6 LT ISZERO PUSH2 0x4B6 JUMPI PUSH0 PUSH0 REVERT JUMPDEST DUP2 PUSH1 0x20 DUP6 ADD PUSH1 0x20 DUP4 ADD CALLDATACOPY PUSH0 SWAP2 DUP2 ADD PUSH1 0x20 ADD SWAP2 SWAP1 SWAP2 MSTORE SWAP4 SWAP3 POP POP POP JUMP JUMPDEST PUSH0 PUSH0 PUSH1 0x40 DUP4 DUP6 SUB SLT ISZERO PUSH2 0x4E3 JUMPI PUSH0 PUSH0 REVERT JUMPDEST DUP3 CALLDATALOAD PUSH8 0xFFFFFFFFFFFFFFFF DUP2 GT ISZERO PUSH2 0x4F9 JUMPI PUSH0 PUSH0 REVERT JUMPDEST PUSH2 0x505 DUP6 DUP3 DUP7 ADD PUSH2 0x447 JUMP JUMPDEST SWAP3 POP POP PUSH1 0x20 DUP4 ADD CALLDATALOAD PUSH8 0xFFFFFFFFFFFFFFFF DUP2 GT ISZERO PUSH2 0x521 JUMPI PUSH0 PUSH0 REVERT JUMPDEST PUSH2 0x52D DUP6 DUP3 DUP7 ADD PUSH2 0x447 JUMP JUMPDEST SWAP2 POP POP SWAP3 POP SWAP3 SWAP1 POP JUMP JUMPDEST PUSH0 PUSH0 PUSH1 0x40 DUP4 DUP6 SUB SLT ISZERO PUSH2 0x548 JUMPI PUSH0 PUSH0 REVERT JUMPDEST PUSH2 0x551 DUP4 PUSH2 0x3F8 JUMP JUMPDEST SWAP2 POP PUSH2 0x55F PUSH1 0x20 DUP5 ADD PUSH2 0x3F8 JUMP JUMPDEST SWAP1 POP SWAP3 POP SWAP3 SWAP1 POP JUMP JUMPDEST PUSH0 DUP2 MLOAD DUP1 DUP5 MSTORE DUP1 PUSH1 0x20 DUP5 ADD PUSH1 0x20 DUP7 ADD MCOPY PUSH0 PUSH1 0x20 DUP3 DUP7 ADD ADD MSTORE PUSH1 0x20 PUSH1 0x1F NOT PUSH1 0x1F DUP4 ADD AND DUP6 ADD ADD SWAP2 POP POP SWAP3 SWAP2 POP POP JUMP JUMPDEST PUSH1 0x60 DUP2 MSTORE PUSH0 PUSH2 0x5A8 PUSH1 0x60 DUP4 ADD DUP7 PUSH2 0x568 JUMP JUMPDEST DUP3 DUP2 SUB PUSH1 0x20 DUP5 ADD MSTORE PUSH2 0x5BA DUP2 DUP7 PUSH2 0x568 JUMP JUMPDEST SWAP2 POP POP PUSH1 0x1 DUP1 PUSH1 0xA0 SHL SUB DUP4 AND PUSH1 0x40 DUP4 ADD MSTORE SWAP5 SWAP4 POP POP POP POP JUMP INVALID PUSH1 0x80 PUSH1 0x40 MSTORE CALLVALUE DUP1 ISZERO PUSH2 0xF JUMPI PUSH0 PUSH0 REVERT JUMPDEST POP PUSH1 0x40 MLOAD PUSH2 0x4962 CODESIZE SUB DUP1 PUSH2 0x4962 DUP4 CODECOPY DUP2 ADD PUSH1 0x40 DUP2 SWAP1 MSTORE PUSH2 0x2E SWAP2 PUSH2 0x8E3 JUMP JUMPDEST PUSH1 0x40 DUP1 MLOAD DUP1 DUP3 ADD SWAP1 SWAP2 MSTORE PUSH1 0x6 DUP2 MSTORE PUSH6 0x46414D494C59 PUSH1 0xD0 SHL PUSH1 0x20 DUP3 ADD MSTORE DUP4 SWAP1 DUP3 PUSH1 0x2 PUSH0 DUP5 DUP5 DUP5 DUP5 DUP2 PUSH2 0x5F CALLER PUSH2 0x22E JUMP JUMPDEST PUSH1 0x1 PUSH1 0x1 PUSH1 0xA0 SHL SUB DUP2 AND PUSH2 0x86 JUMPI PUSH1 0x40 MLOAD PUSH4 0x6B620DB PUSH1 0xE2 SHL DUP2 MSTORE PUSH1 0x4 ADD PUSH1 0x40 MLOAD DUP1 SWAP2 SUB SWAP1 REVERT JUMPDEST PUSH2 0x8F DUP2 PUSH2 0x22E JUMP JUMPDEST POP PUSH1 0x40 DUP1 MLOAD DUP1 DUP3 ADD SWAP1 SWAP2 MSTORE PUSH1 0x4 DUP2 MSTORE PUSH4 0x29365989 PUSH1 0xE2 SHL PUSH1 0x20 DUP3 ADD MSTORE PUSH2 0xD6 SWAP1 PUSH32 0xEAFEC4D89FA9619884B60000A4D96624A38F7AC2D8D9A604ECF07C12C77E480C SWAP1 PUSH2 0x27D JUMP JUMPDEST PUSH2 0x100 PUSH32 0xDEBA1E292F8BA88238E10AB3C7F88BD4BE4FAC56CAD5194B6ECCEAF653468AF1 DUP6 PUSH2 0x27D JUMP JUMPDEST PUSH2 0x12A PUSH32 0x2F0A68AB07768E01943A599E73362A0E17A63A72E94DD2E384D2C1D4DB932756 DUP5 PUSH2 0x27D JUMP JUMPDEST PUSH1 0x40 DUP1 MLOAD PUSH1 0x20 DUP2 ADD DUP4 SWAP1 MSTORE PUSH2 0x171 SWAP2 PUSH32 0xE0261FA95DB2EB3B5439BD033CDA66D56B96F92F243A8228FD87550ED7BDFDB3 SWAP2 ADD PUSH1 0x40 DUP1 MLOAD PUSH1 0x1F NOT DUP2 DUP5 SUB ADD DUP2 MSTORE SWAP2 SWAP1 MSTORE PUSH2 0x27D JUMP JUMPDEST POP POP PUSH1 0x40 DUP1 MLOAD PUSH1 0x20 DUP2 ADD DUP6 SWAP1 MSTORE PUSH2 0x1BC SWAP4 POP PUSH32 0xF675E9361AF1C1664C1868CFA3EB97672D6B1A513AA5B81DEC34C9EE330E818D SWAP3 POP ADD PUSH1 0x40 DUP1 MLOAD PUSH1 0x1F NOT DUP2 DUP5 SUB ADD DUP2 MSTORE SWAP2 SWAP1 MSTORE PUSH2 0x2D1 JUMP JUMPDEST POP POP PUSH1 0x8 DUP1 SLOAD PUSH1 0x1 PUSH1 0x1 PUSH1 0xA0 SHL SUB NOT AND CALLER OR SWAP1 SSTORE POP PUSH1 0x9 SWAP2 POP PUSH2 0x1E1 SWAP1 POP DUP4 DUP3 PUSH2 0x9E4 JUMP JUMPDEST POP PUSH1 0x40 DUP1 MLOAD PUSH1 0x60 DUP2 ADD DUP3 MSTORE PUSH0 DUP1 DUP3 MSTORE PUSH1 0x20 DUP1 DUP4 ADD DUP3 SWAP1 MSTORE DUP3 DUP5 ADD DUP3 SWAP1 MSTORE DUP4 MLOAD DUP1 DUP3 ADD DUP6 MSTORE DUP3 DUP2 MSTORE DUP5 MLOAD SWAP2 DUP3 ADD SWAP1 SWAP5 MSTORE DUP2 DUP2 MSTORE SWAP2 SWAP3 PUSH2 0x224 SWAP3 SWAP1 SWAP2 DUP6 SWAP1 DUP6 DUP1 PUSH2 0x391 JUMP JUMPDEST POP POP POP POP POP PUSH2 0xBE8 JUMP JUMPDEST PUSH0 DUP1 SLOAD PUSH1 0x1 PUSH1 0x1 PUSH1 0xA0 SHL SUB DUP4 DUP2 AND PUSH1 0x1 PUSH1 0x1 PUSH1 0xA0 SHL SUB NOT DUP4 AND DUP2 OR DUP5 SSTORE PUSH1 0x40 MLOAD SWAP2 SWAP1 SWAP3 AND SWAP3 DUP4 SWAP2 PUSH32 0x8BE0079C531659141344CD1FD0A4F28419497F9722A3DAAFE3B4186F6B6457E0 SWAP2 SWAP1 LOG3 POP POP JUMP JUMPDEST PUSH0 DUP3 DUP2 MSTORE PUSH1 0x1 PUSH1 0x20 MSTORE PUSH1 0x40 SWAP1 KECCAK256 PUSH2 0x294 DUP3 DUP3 PUSH2 0x9E4 JUMP JUMPDEST POP DUP2 PUSH32 0xECE574603820D07BC9B91F2A932BAADF4628AABCB8AFBA49776529C14A6104B2 DUP3 PUSH1 0x40 MLOAD PUSH2 0x2C5 SWAP2 SWAP1 PUSH2 0xACC JUMP JUMPDEST PUSH1 0x40 MLOAD DUP1 SWAP2 SUB SWAP1 LOG2 POP POP JUMP JUMPDEST PUSH32 0x2145E1D6D074577DC71EF54C3807742B41B053A9352AE6B491331509ACB9750F DUP3 ADD PUSH2 0x311 JUMPI PUSH1 0x40 MLOAD PUSH4 0x85C169BD PUSH1 0xE0 SHL DUP2 MSTORE PUSH1 0x4 ADD PUSH1 0x40 MLOAD DUP1 SWAP2 SUB SWAP1 REVERT JUMPDEST PUSH32 0xD0F59754F88971FE6BC5A6618CC9D5F1E859C58D16B22D1C7B2D3E2B246CD8AA DUP3 ADD PUSH2 0x351 JUMPI PUSH1 0x40 MLOAD PUSH4 0xECEAB67 PUSH1 0xE3 SHL DUP2 MSTORE PUSH1 0x4 ADD PUSH1 0x40 MLOAD DUP1 SWAP2 SUB SWAP1 REVERT JUMPDEST PUSH32 0x1FD9E056A24D14C4ABC642FCC325992A946906D0DBC57DD70278AAF12842024D DUP3 ADD PUSH2 0x27D JUMPI PUSH1 0x40 MLOAD PUSH4 0x4EF6D7FB PUSH1 0xE0 SHL DUP2 MSTORE PUSH1 0x4 ADD PUSH1 0x40 MLOAD DUP1 SWAP2 SUB SWAP1 REVERT JUMPDEST PUSH0 PUSH2 0x3A0 PUSH1 0x6 DUP1 SLOAD PUSH1 0x1 ADD SWAP1 SSTORE JUMP JUMPDEST POP PUSH1 0x6 SLOAD PUSH1 0x40 DUP1 MLOAD PUSH1 0x20 DUP2 ADD SWAP1 SWAP2 MSTORE PUSH0 DUP2 MSTORE PUSH2 0x3C2 SWAP1 DUP7 SWAP1 DUP4 SWAP1 PUSH1 0x1 SWAP1 PUSH2 0x4D2 JUMP JUMPDEST PUSH0 DUP2 DUP2 MSTORE PUSH1 0x7 PUSH1 0x20 MSTORE PUSH1 0x40 SWAP1 KECCAK256 DUP1 PUSH2 0x3DA DUP10 DUP3 PUSH2 0x9E4 JUMP JUMPDEST POP DUP4 MLOAD PUSH1 0x6 DUP3 ADD DUP1 SLOAD PUSH1 0x20 DUP1 DUP9 ADD MLOAD PUSH1 0x40 DUP1 DUP11 ADD MLOAD PUSH2 0xFFFF SWAP7 DUP8 AND PUSH3 0xFFFFFF NOT SWAP6 DUP7 AND OR PUSH3 0x10000 PUSH1 0xFF SWAP5 DUP6 AND DUP2 MUL SWAP2 SWAP1 SWAP2 OR PUSH4 0xFF000000 NOT SWAP1 DUP2 AND PUSH4 0x1000000 SWAP4 DUP7 AND DUP5 MUL OR SWAP1 SWAP8 SSTORE DUP11 MLOAD PUSH1 0x7 DUP11 ADD DUP1 SLOAD SWAP7 DUP14 ADD MLOAD SWAP5 DUP14 ADD MLOAD SWAP2 SWAP1 SWAP10 AND SWAP6 SWAP1 SWAP7 AND SWAP5 SWAP1 SWAP5 OR SWAP2 DUP4 AND SWAP1 SWAP4 MUL OR SWAP1 SWAP4 AND SWAP2 SWAP1 SWAP3 AND SWAP1 SWAP2 MUL OR SWAP1 SSTORE PUSH1 0x5 DUP2 ADD DUP1 SLOAD DUP7 SWAP2 SWAP1 PUSH1 0xFF NOT AND PUSH1 0x1 DUP4 PUSH1 0x2 DUP2 GT ISZERO PUSH2 0x475 JUMPI PUSH2 0x475 PUSH2 0xADE JUMP JUMPDEST MUL OR SWAP1 SSTORE POP PUSH1 0x8 DUP2 ADD PUSH2 0x488 DUP9 DUP3 PUSH2 0x9E4 JUMP JUMPDEST POP PUSH1 0x40 MLOAD PUSH1 0x1 PUSH1 0x1 PUSH1 0xA0 SHL SUB DUP8 AND DUP2 MSTORE DUP3 SWAP1 PUSH32 0xA6912C28A8CB5FC5CAB504E471CFA6BC504444025484D810E2565BC7DEAD6657 SWAP1 PUSH1 0x20 ADD PUSH1 0x40 MLOAD DUP1 SWAP2 SUB SWAP1 LOG2 POP SWAP7 SWAP6 POP POP POP POP POP POP JUMP JUMPDEST PUSH1 0x1 PUSH1 0x1 PUSH1 0xA0 SHL SUB DUP5 AND PUSH2 0x4F9 JUMPI PUSH1 0x40 MLOAD PUSH4 0x24ECEF4D PUSH1 0xE0 SHL DUP2 MSTORE PUSH1 0x4 ADD PUSH1 0x40 MLOAD DUP1 SWAP2 SUB SWAP1 REVERT JUMPDEST PUSH0 DUP4 DUP2 MSTORE PUSH1 0x3 PUSH1 0x20 MSTORE PUSH1 0x40 SWAP1 KECCAK256 SLOAD PUSH1 0x1 PUSH1 0x1 PUSH1 0xA0 SHL SUB AND ISZERO PUSH2 0x536 JUMPI PUSH1 0x40 MLOAD PUSH4 0x34C7B511 PUSH1 0xE0 SHL DUP2 MSTORE PUSH1 0x4 DUP2 ADD DUP5 SWAP1 MSTORE PUSH1 0x24 ADD JUMPDEST PUSH1 0x40 MLOAD DUP1 SWAP2 SUB SWAP1 REVERT JUMPDEST PUSH0 DUP4 DUP2 MSTORE PUSH1 0x3 PUSH1 0x20 MSTORE PUSH1 0x40 SWAP1 KECCAK256 SLOAD PUSH1 0x1 PUSH1 0x1 PUSH1 0xA0 SHL SUB AND ISZERO PUSH2 0x56E JUMPI PUSH1 0x40 MLOAD PUSH4 0x34C7B511 PUSH1 0xE0 SHL DUP2 MSTORE PUSH1 0x4 DUP2 ADD DUP5 SWAP1 MSTORE PUSH1 0x24 ADD PUSH2 0x52D JUMP JUMPDEST PUSH1 0x2 PUSH0 DUP2 SLOAD PUSH2 0x57C SWAP1 PUSH2 0xAF2 JUMP JUMPDEST SWAP1 SWAP2 SSTORE POP PUSH1 0x1 PUSH1 0x1 PUSH1 0xA0 SHL SUB DUP5 AND PUSH0 SWAP1 DUP2 MSTORE PUSH1 0x4 PUSH1 0x20 MSTORE PUSH1 0x40 SWAP1 KECCAK256 PUSH2 0x5A1 SWAP1 DUP5 PUSH2 0x648 JUMP JUMPDEST POP PUSH0 DUP4 DUP2 MSTORE PUSH1 0x3 PUSH1 0x20 MSTORE PUSH1 0x40 DUP1 DUP3 KECCAK256 DUP1 SLOAD PUSH1 0x1 PUSH1 0x1 PUSH1 0xA0 SHL SUB NOT AND PUSH1 0x1 PUSH1 0x1 PUSH1 0xA0 SHL SUB DUP9 AND SWAP1 DUP2 OR SWAP1 SWAP2 SSTORE SWAP1 MLOAD DUP6 SWAP3 SWAP1 PUSH32 0xB333C813A7426A7A11E2B190CAD52C44119421594B47F6F32ACE6D8C7207B2BF SWAP1 PUSH2 0x602 SWAP1 CALLER SWAP1 DUP9 SWAP1 DUP9 SWAP1 PUSH2 0xB16 JUMP JUMPDEST PUSH1 0x40 MLOAD DUP1 SWAP2 SUB SWAP1 LOG4 PUSH0 CALLER PUSH0 DUP7 DUP7 DUP6 PUSH1 0x40 MLOAD PUSH1 0x20 ADD PUSH2 0x624 SWAP6 SWAP5 SWAP4 SWAP3 SWAP2 SWAP1 PUSH2 0xB4A JUMP JUMPDEST PUSH1 0x40 DUP1 MLOAD PUSH1 0x1F NOT DUP2 DUP5 SUB ADD DUP2 MSTORE SWAP2 SWAP1 MSTORE SWAP1 POP PUSH2 0x641 DUP6 DUP5 DUP4 PUSH2 0x65C JUMP JUMPDEST POP POP POP POP POP JUMP JUMPDEST PUSH0 PUSH2 0x653 DUP4 DUP4 PUSH2 0x76A JUMP JUMPDEST SWAP1 POP JUMPDEST SWAP3 SWAP2 POP POP JUMP JUMPDEST PUSH2 0x66D DUP4 PUSH4 0x1AED5A85 PUSH1 0xE2 SHL PUSH2 0x7B6 JUMP JUMPDEST ISZERO PUSH2 0x708 JUMPI PUSH1 0x40 MLOAD PUSH4 0x1AED5A85 PUSH1 0xE2 SHL DUP2 MSTORE PUSH1 0x1 PUSH1 0x1 PUSH1 0xA0 SHL SUB DUP5 AND SWAP1 PUSH4 0x6BB56A14 SWAP1 PUSH2 0x6C0 SWAP1 PUSH32 0xB084A55EBF70FD3C06FD755269DAC2212C4D3F0F4D09079780BFA50C1B2984D SWAP1 DUP6 SWAP1 PUSH1 0x4 ADD PUSH2 0xB84 JUMP JUMPDEST PUSH0 PUSH1 0x40 MLOAD DUP1 DUP4 SUB DUP2 PUSH0 DUP8 GAS CALL ISZERO DUP1 ISZERO PUSH2 0x6DB JUMPI RETURNDATASIZE PUSH0 PUSH0 RETURNDATACOPY RETURNDATASIZE PUSH0 REVERT JUMPDEST POP POP POP POP PUSH1 0x40 MLOAD RETURNDATASIZE PUSH0 DUP3 RETURNDATACOPY PUSH1 0x1F RETURNDATASIZE SWAP1 DUP2 ADD PUSH1 0x1F NOT AND DUP3 ADD PUSH1 0x40 MSTORE PUSH2 0x702 SWAP2 SWAP1 DUP2 ADD SWAP1 PUSH2 0xBA4 JUMP JUMPDEST POP POP POP POP JUMP JUMPDEST DUP2 PUSH2 0x765 JUMPI PUSH1 0x1 PUSH1 0x1 PUSH1 0xA0 SHL SUB DUP4 AND EXTCODESIZE ISZERO PUSH2 0x741 JUMPI PUSH1 0x40 MLOAD PUSH4 0x4349776D PUSH1 0xE0 SHL DUP2 MSTORE PUSH1 0x1 PUSH1 0x1 PUSH1 0xA0 SHL SUB DUP5 AND PUSH1 0x4 DUP3 ADD MSTORE PUSH1 0x24 ADD PUSH2 0x52D JUMP JUMPDEST PUSH1 0x40 MLOAD PUSH4 0x3173137 PUSH1 0xE0 SHL DUP2 MSTORE PUSH1 0x1 PUSH1 0x1 PUSH1 0xA0 SHL SUB DUP5 AND PUSH1 0x4 DUP3 ADD MSTORE PUSH1 0x24 ADD PUSH2 0x52D JUMP JUMPDEST POP POP POP JUMP JUMPDEST PUSH0 DUP2 DUP2 MSTORE PUSH1 0x1 DUP4 ADD PUSH1 0x20 MSTORE PUSH1 0x40 DUP2 KECCAK256 SLOAD PUSH2 0x7AF JUMPI POP DUP2 SLOAD PUSH1 0x1 DUP2 DUP2 ADD DUP5 SSTORE PUSH0 DUP5 DUP2 MSTORE PUSH1 0x20 DUP1 DUP3 KECCAK256 SWAP1 SWAP4 ADD DUP5 SWAP1 SSTORE DUP5 SLOAD DUP5 DUP3 MSTORE DUP3 DUP7 ADD SWAP1 SWAP4 MSTORE PUSH1 0x40 SWAP1 KECCAK256 SWAP2 SWAP1 SWAP2 SSTORE PUSH2 0x656 JUMP JUMPDEST POP PUSH0 PUSH2 0x656 JUMP JUMPDEST PUSH1 0x40 DUP1 MLOAD PUSH1 0x1 PUSH1 0x1 PUSH1 0xE0 SHL SUB NOT DUP4 AND PUSH1 0x24 DUP1 DUP4 ADD SWAP2 SWAP1 SWAP2 MSTORE DUP3 MLOAD DUP1 DUP4 SUB SWAP1 SWAP2 ADD DUP2 MSTORE PUSH1 0x44 SWAP1 SWAP2 ADD SWAP1 SWAP2 MSTORE PUSH1 0x20 DUP1 DUP3 ADD DUP1 MLOAD PUSH1 0x1 PUSH1 0x1 PUSH1 0xE0 SHL SUB AND PUSH4 0x1FFC9A7 PUSH1 0xE0 SHL OR DUP2 MSTORE DUP3 MLOAD PUSH0 SWAP4 SWAP3 DUP5 SWAP3 DUP4 SWAP3 DUP4 SWAP3 SWAP2 DUP4 SWAP2 SWAP1 DUP11 PUSH2 0x7530 STATICCALL SWAP3 POP RETURNDATASIZE SWAP2 POP PUSH0 MLOAD SWAP1 POP DUP3 DUP1 ISZERO PUSH2 0x826 JUMPI POP PUSH1 0x20 DUP3 LT ISZERO JUMPDEST DUP1 ISZERO PUSH2 0x831 JUMPI POP PUSH0 DUP2 GT JUMPDEST SWAP8 SWAP7 POP POP POP POP POP POP POP JUMP JUMPDEST PUSH4 0x4E487B71 PUSH1 0xE0 SHL PUSH0 MSTORE PUSH1 0x41 PUSH1 0x4 MSTORE PUSH1 0x24 PUSH0 REVERT JUMPDEST PUSH0 DUP1 PUSH1 0x1 PUSH1 0x1 PUSH1 0x40 SHL SUB DUP5 GT ISZERO PUSH2 0x869 JUMPI PUSH2 0x869 PUSH2 0x83C JUMP JUMPDEST POP PUSH1 0x40 MLOAD PUSH1 0x1F NOT PUSH1 0x1F DUP6 ADD DUP2 AND PUSH1 0x3F ADD AND DUP2 ADD DUP2 DUP2 LT PUSH1 0x1 PUSH1 0x1 PUSH1 0x40 SHL SUB DUP3 GT OR ISZERO PUSH2 0x897 JUMPI PUSH2 0x897 PUSH2 0x83C JUMP JUMPDEST PUSH1 0x40 MSTORE DUP4 DUP2 MSTORE SWAP1 POP DUP1 DUP3 DUP5 ADD DUP6 LT ISZERO PUSH2 0x8AE JUMPI PUSH0 PUSH0 REVERT JUMPDEST DUP4 DUP4 PUSH1 0x20 DUP4 ADD MCOPY PUSH0 PUSH1 0x20 DUP6 DUP4 ADD ADD MSTORE POP SWAP4 SWAP3 POP POP POP JUMP JUMPDEST PUSH0 DUP3 PUSH1 0x1F DUP4 ADD SLT PUSH2 0x8D4 JUMPI PUSH0 PUSH0 REVERT JUMPDEST PUSH2 0x653 DUP4 DUP4 MLOAD PUSH1 0x20 DUP6 ADD PUSH2 0x850 JUMP JUMPDEST PUSH0 PUSH0 PUSH0 PUSH1 0x60 DUP5 DUP7 SUB SLT ISZERO PUSH2 0x8F5 JUMPI PUSH0 PUSH0 REVERT JUMPDEST DUP4 MLOAD PUSH1 0x1 PUSH1 0x1 PUSH1 0x40 SHL SUB DUP2 GT ISZERO PUSH2 0x90A JUMPI PUSH0 PUSH0 REVERT JUMPDEST PUSH2 0x916 DUP7 DUP3 DUP8 ADD PUSH2 0x8C5 JUMP JUMPDEST PUSH1 0x20 DUP7 ADD MLOAD SWAP1 SWAP5 POP SWAP1 POP PUSH1 0x1 PUSH1 0x1 PUSH1 0x40 SHL SUB DUP2 GT ISZERO PUSH2 0x933 JUMPI PUSH0 PUSH0 REVERT JUMPDEST PUSH2 0x93F DUP7 DUP3 DUP8 ADD PUSH2 0x8C5 JUMP JUMPDEST PUSH1 0x40 DUP7 ADD MLOAD SWAP1 SWAP4 POP SWAP1 POP PUSH1 0x1 PUSH1 0x1 PUSH1 0xA0 SHL SUB DUP2 AND DUP2 EQ PUSH2 0x95D JUMPI PUSH0 PUSH0 REVERT JUMPDEST DUP1 SWAP2 POP POP SWAP3 POP SWAP3 POP SWAP3 JUMP JUMPDEST PUSH1 0x1 DUP2 DUP2 SHR SWAP1 DUP3 AND DUP1 PUSH2 0x97C JUMPI PUSH1 0x7F DUP3 AND SWAP2 POP JUMPDEST PUSH1 0x20 DUP3 LT DUP2 SUB PUSH2 0x99A JUMPI PUSH4 0x4E487B71 PUSH1 0xE0 SHL PUSH0 MSTORE PUSH1 0x22 PUSH1 0x4 MSTORE PUSH1 0x24 PUSH0 REVERT JUMPDEST POP SWAP2 SWAP1 POP JUMP JUMPDEST PUSH1 0x1F DUP3 GT ISZERO PUSH2 0x765 JUMPI DUP1 PUSH0 MSTORE PUSH1 0x20 PUSH0 KECCAK256 PUSH1 0x1F DUP5 ADD PUSH1 0x5 SHR DUP2 ADD PUSH1 0x20 DUP6 LT ISZERO PUSH2 0x9C5 JUMPI POP DUP1 JUMPDEST PUSH1 0x1F DUP5 ADD PUSH1 0x5 SHR DUP3 ADD SWAP2 POP JUMPDEST DUP2 DUP2 LT ISZERO PUSH2 0x641 JUMPI PUSH0 DUP2 SSTORE PUSH1 0x1 ADD PUSH2 0x9D1 JUMP JUMPDEST DUP2 MLOAD PUSH1 0x1 PUSH1 0x1 PUSH1 0x40 SHL SUB DUP2 GT ISZERO PUSH2 0x9FD JUMPI PUSH2 0x9FD PUSH2 0x83C JUMP JUMPDEST PUSH2 0xA11 DUP2 PUSH2 0xA0B DUP5 SLOAD PUSH2 0x968 JUMP JUMPDEST DUP5 PUSH2 0x9A0 JUMP JUMPDEST PUSH1 0x20 PUSH1 0x1F DUP3 GT PUSH1 0x1 DUP2 EQ PUSH2 0xA43 JUMPI PUSH0 DUP4 ISZERO PUSH2 0xA2C JUMPI POP DUP5 DUP3 ADD MLOAD JUMPDEST PUSH0 NOT PUSH1 0x3 DUP6 SWAP1 SHL SHR NOT AND PUSH1 0x1 DUP5 SWAP1 SHL OR DUP5 SSTORE PUSH2 0x641 JUMP JUMPDEST PUSH0 DUP5 DUP2 MSTORE PUSH1 0x20 DUP2 KECCAK256 PUSH1 0x1F NOT DUP6 AND SWAP2 JUMPDEST DUP3 DUP2 LT ISZERO PUSH2 0xA72 JUMPI DUP8 DUP6 ADD MLOAD DUP3 SSTORE PUSH1 0x20 SWAP5 DUP6 ADD SWAP5 PUSH1 0x1 SWAP1 SWAP3 ADD SWAP2 ADD PUSH2 0xA52 JUMP JUMPDEST POP DUP5 DUP3 LT ISZERO PUSH2 0xA8F JUMPI DUP7 DUP5 ADD MLOAD PUSH0 NOT PUSH1 0x3 DUP8 SWAP1 SHL PUSH1 0xF8 AND SHR NOT AND DUP2 SSTORE JUMPDEST POP POP POP POP PUSH1 0x1 SWAP1 DUP2 SHL ADD SWAP1 SSTORE POP JUMP JUMPDEST PUSH0 DUP2 MLOAD DUP1 DUP5 MSTORE DUP1 PUSH1 0x20 DUP5 ADD PUSH1 0x20 DUP7 ADD MCOPY PUSH0 PUSH1 0x20 DUP3 DUP7 ADD ADD MSTORE PUSH1 0x20 PUSH1 0x1F NOT PUSH1 0x1F DUP4 ADD AND DUP6 ADD ADD SWAP2 POP POP SWAP3 SWAP2 POP POP JUMP JUMPDEST PUSH1 0x20 DUP2 MSTORE PUSH0 PUSH2 0x653 PUSH1 0x20 DUP4 ADD DUP5 PUSH2 0xA9E JUMP JUMPDEST PUSH4 0x4E487B71 PUSH1 0xE0 SHL PUSH0 MSTORE PUSH1 0x21 PUSH1 0x4 MSTORE PUSH1 0x24 PUSH0 REVERT JUMPDEST PUSH0 PUSH1 0x1 DUP3 ADD PUSH2 0xB0F JUMPI PUSH4 0x4E487B71 PUSH1 0xE0 SHL PUSH0 MSTORE PUSH1 0x11 PUSH1 0x4 MSTORE PUSH1 0x24 PUSH0 REVERT JUMPDEST POP PUSH1 0x1 ADD SWAP1 JUMP JUMPDEST PUSH1 0x1 PUSH1 0x1 PUSH1 0xA0 SHL SUB DUP5 AND DUP2 MSTORE DUP3 ISZERO ISZERO PUSH1 0x20 DUP3 ADD MSTORE PUSH1 0x60 PUSH1 0x40 DUP3 ADD DUP2 SWAP1 MSTORE PUSH0 SWAP1 PUSH2 0xB41 SWAP1 DUP4 ADD DUP5 PUSH2 0xA9E JUMP JUMPDEST SWAP6 SWAP5 POP POP POP POP POP JUMP JUMPDEST PUSH1 0x1 PUSH1 0x1 PUSH1 0xA0 SHL SUB DUP7 DUP2 AND DUP3 MSTORE DUP6 DUP2 AND PUSH1 0x20 DUP4 ADD MSTORE DUP5 AND PUSH1 0x40 DUP3 ADD MSTORE PUSH1 0x60 DUP2 ADD DUP4 SWAP1 MSTORE PUSH1 0xA0 PUSH1 0x80 DUP3 ADD DUP2 SWAP1 MSTORE PUSH0 SWAP1 PUSH2 0x831 SWAP1 DUP4 ADD DUP5 PUSH2 0xA9E JUMP JUMPDEST DUP3 DUP2 MSTORE PUSH1 0x40 PUSH1 0x20 DUP3 ADD MSTORE PUSH0 PUSH2 0xB9C PUSH1 0x40 DUP4 ADD DUP5 PUSH2 0xA9E JUMP JUMPDEST SWAP5 SWAP4 POP POP POP POP JUMP JUMPDEST PUSH0 PUSH1 0x20 DUP3 DUP5 SUB SLT ISZERO PUSH2 0xBB4 JUMPI PUSH0 PUSH0 REVERT JUMPDEST DUP2 MLOAD PUSH1 0x1 PUSH1 0x1 PUSH1 0x40 SHL SUB DUP2 GT ISZERO PUSH2 0xBC9 JUMPI PUSH0 PUSH0 REVERT JUMPDEST DUP3 ADD PUSH1 0x1F DUP2 ADD DUP5 SGT PUSH2 0xBD9 JUMPI PUSH0 PUSH0 REVERT JUMPDEST PUSH2 0xB9C DUP5 DUP3 MLOAD PUSH1 0x20 DUP5 ADD PUSH2 0x850 JUMP JUMPDEST PUSH2 0x3D6D DUP1 PUSH2 0xBF5 PUSH0 CODECOPY PUSH0 RETURN INVALID PUSH1 0x80 PUSH1 0x40 MSTORE PUSH1 0x4 CALLDATASIZE LT PUSH2 0x1FC JUMPI PUSH0 CALLDATALOAD PUSH1 0xE0 SHR DUP1 PUSH4 0x70A08231 GT PUSH2 0x10C JUMPI DUP1 PUSH4 0x8F81ECFC GT PUSH2 0x9F JUMPI DUP1 PUSH4 0xD6C1407C GT PUSH2 0x6E JUMPI DUP1 PUSH4 0xD6C1407C EQ PUSH2 0x65E JUMPI DUP1 PUSH4 0xDB8C9663 EQ PUSH2 0x67D JUMPI DUP1 PUSH4 0xDEDFF9C6 EQ PUSH2 0x69C JUMPI DUP1 PUSH4 0xE4AC8DBD EQ PUSH2 0x6BB JUMPI DUP1 PUSH4 0xF2FDE38B EQ PUSH2 0x6CF JUMPI PUSH2 0x255 JUMP JUMPDEST DUP1 PUSH4 0x8F81ECFC EQ PUSH2 0x5E1 JUMPI DUP1 PUSH4 0x97902421 EQ PUSH2 0x600 JUMPI DUP1 PUSH4 0xA3B261F2 EQ PUSH2 0x613 JUMPI DUP1 PUSH4 0xBE9F0E6F EQ PUSH2 0x63F JUMPI PUSH2 0x255 JUMP JUMPDEST DUP1 PUSH4 0x7E913B05 GT PUSH2 0xDB JUMPI DUP1 PUSH4 0x7E913B05 EQ PUSH2 0x574 JUMPI DUP1 PUSH4 0x7F23690C EQ PUSH2 0x593 JUMPI DUP1 PUSH4 0x86A10DDD EQ PUSH2 0x5A6 JUMPI DUP1 PUSH4 0x8DA5CB5B EQ PUSH2 0x5C5 JUMPI PUSH2 0x255 JUMP JUMPDEST DUP1 PUSH4 0x70A08231 EQ PUSH2 0x50C JUMPI DUP1 PUSH4 0x715018A6 EQ PUSH2 0x52B JUMPI DUP1 PUSH4 0x78495BF8 EQ PUSH2 0x53F JUMPI DUP1 PUSH4 0x7E87632C EQ PUSH2 0x555 JUMPI PUSH2 0x255 JUMP JUMPDEST DUP1 PUSH4 0x2819A215 GT PUSH2 0x18F JUMPI DUP1 PUSH4 0x4C8F9313 GT PUSH2 0x15E JUMPI DUP1 PUSH4 0x4C8F9313 EQ PUSH2 0x45E JUMPI DUP1 PUSH4 0x511B6952 EQ PUSH2 0x47D JUMPI DUP1 PUSH4 0x54F6127F EQ PUSH2 0x49C JUMPI DUP1 PUSH4 0x625D0BE9 EQ PUSH2 0x4BB JUMPI DUP1 PUSH4 0x6963D438 EQ PUSH2 0x4ED JUMPI PUSH2 0x255 JUMP JUMPDEST DUP1 PUSH4 0x2819A215 EQ PUSH2 0x3D5 JUMPI DUP1 PUSH4 0x2A3654A4 EQ PUSH2 0x3F4 JUMPI DUP1 PUSH4 0x49A6078D EQ PUSH2 0x413 JUMPI DUP1 PUSH4 0x49FC5686 EQ PUSH2 0x43F JUMPI PUSH2 0x255 JUMP JUMPDEST DUP1 PUSH4 0x18160DDD GT PUSH2 0x1CB JUMPI DUP1 PUSH4 0x18160DDD EQ PUSH2 0x335 JUMPI DUP1 PUSH4 0x1D26FCE6 EQ PUSH2 0x353 JUMPI DUP1 PUSH4 0x1F121708 EQ PUSH2 0x37F JUMPI DUP1 PUSH4 0x217B2270 EQ PUSH2 0x3B6 JUMPI PUSH2 0x255 JUMP JUMPDEST DUP1 PUSH4 0x1FFC9A7 EQ PUSH2 0x295 JUMPI DUP1 PUSH4 0x2154B4E EQ PUSH2 0x2C9 JUMPI DUP1 PUSH4 0xCFA4650 EQ PUSH2 0x2EA JUMPI DUP1 PUSH4 0x16E023B3 EQ PUSH2 0x309 JUMPI PUSH2 0x255 JUMP JUMPDEST CALLDATASIZE PUSH2 0x255 JUMPI CALLVALUE PUSH0 SUB PUSH2 0x23C JUMPI PUSH1 0x40 MLOAD PUSH4 0xE5099EE3 PUSH1 0xE0 SHL DUP2 MSTORE PUSH1 0x4 ADD PUSH2 0x233 SWAP1 PUSH1 0x20 DUP1 DUP3 MSTORE PUSH1 0x4 SWAP1 DUP3 ADD MSTORE PUSH0 PUSH1 0x40 DUP3 ADD MSTORE PUSH1 0x60 ADD SWAP1 JUMP JUMPDEST PUSH1 0x40 MLOAD DUP1 SWAP2 SUB SWAP1 REVERT JUMPDEST PUSH1 0x40 MLOAD PUSH4 0x30FA4A21 PUSH1 0xE1 SHL DUP2 MSTORE PUSH1 0x4 ADD PUSH1 0x40 MLOAD DUP1 SWAP2 SUB SWAP1 REVERT JUMPDEST PUSH0 CALLDATASIZE PUSH1 0x60 PUSH1 0x4 DUP3 LT ISZERO PUSH2 0x27F JUMPI DUP3 DUP3 PUSH1 0x40 MLOAD PUSH4 0xE5099EE3 PUSH1 0xE0 SHL DUP2 MSTORE PUSH1 0x4 ADD PUSH2 0x233 SWAP3 SWAP2 SWAP1 PUSH2 0x2C7A JUMP JUMPDEST PUSH2 0x289 DUP4 DUP4 PUSH2 0x6EE JUMP JUMPDEST DUP1 MLOAD SWAP4 POP PUSH1 0x20 ADD SWAP2 POP POP RETURN JUMPDEST CALLVALUE DUP1 ISZERO PUSH2 0x2A0 JUMPI PUSH0 PUSH0 REVERT JUMPDEST POP PUSH2 0x2B4 PUSH2 0x2AF CALLDATASIZE PUSH1 0x4 PUSH2 0x2CA8 JUMP JUMPDEST PUSH2 0x7DD JUMP JUMPDEST PUSH1 0x40 MLOAD SWAP1 ISZERO ISZERO DUP2 MSTORE PUSH1 0x20 ADD JUMPDEST PUSH1 0x40 MLOAD DUP1 SWAP2 SUB SWAP1 RETURN JUMPDEST CALLVALUE DUP1 ISZERO PUSH2 0x2D4 JUMPI PUSH0 PUSH0 REVERT JUMPDEST POP PUSH2 0x2E8 PUSH2 0x2E3 CALLDATASIZE PUSH1 0x4 PUSH2 0x2CEA JUMP JUMPDEST PUSH2 0x810 JUMP JUMPDEST STOP JUMPDEST CALLVALUE DUP1 ISZERO PUSH2 0x2F5 JUMPI PUSH0 PUSH0 REVERT JUMPDEST POP PUSH2 0x2E8 PUSH2 0x304 CALLDATASIZE PUSH1 0x4 PUSH2 0x2DC1 JUMP JUMPDEST PUSH2 0x863 JUMP JUMPDEST CALLVALUE DUP1 ISZERO PUSH2 0x314 JUMPI PUSH0 PUSH0 REVERT JUMPDEST POP PUSH2 0x328 PUSH2 0x323 CALLDATASIZE PUSH1 0x4 PUSH2 0x2DF2 JUMP JUMPDEST PUSH2 0x8B0 JUMP JUMPDEST PUSH1 0x40 MLOAD PUSH2 0x2C0 SWAP2 SWAP1 PUSH2 0x2E40 JUMP JUMPDEST CALLVALUE DUP1 ISZERO PUSH2 0x340 JUMPI PUSH0 PUSH0 REVERT JUMPDEST POP PUSH1 0x2 SLOAD JUMPDEST PUSH1 0x40 MLOAD SWAP1 DUP2 MSTORE PUSH1 0x20 ADD PUSH2 0x2C0 JUMP JUMPDEST CALLVALUE DUP1 ISZERO PUSH2 0x35E JUMPI PUSH0 PUSH0 REVERT JUMPDEST POP PUSH2 0x372 PUSH2 0x36D CALLDATASIZE PUSH1 0x4 PUSH2 0x2ED9 JUMP JUMPDEST PUSH2 0x8C3 JUMP JUMPDEST PUSH1 0x40 MLOAD PUSH2 0x2C0 SWAP2 SWAP1 PUSH2 0x2F3C JUMP JUMPDEST CALLVALUE DUP1 ISZERO PUSH2 0x38A JUMPI PUSH0 PUSH0 REVERT JUMPDEST POP PUSH1 0x8 SLOAD PUSH2 0x39E SWAP1 PUSH1 0x1 PUSH1 0x1 PUSH1 0xA0 SHL SUB AND DUP2 JUMP JUMPDEST PUSH1 0x40 MLOAD PUSH1 0x1 PUSH1 0x1 PUSH1 0xA0 SHL SUB SWAP1 SWAP2 AND DUP2 MSTORE PUSH1 0x20 ADD PUSH2 0x2C0 JUMP JUMPDEST CALLVALUE DUP1 ISZERO PUSH2 0x3C1 JUMPI PUSH0 PUSH0 REVERT JUMPDEST POP PUSH2 0x39E PUSH2 0x3D0 CALLDATASIZE PUSH1 0x4 PUSH2 0x2F9F JUMP JUMPDEST PUSH2 0x9A9 JUMP JUMPDEST CALLVALUE DUP1 ISZERO PUSH2 0x3E0 JUMPI PUSH0 PUSH0 REVERT JUMPDEST POP PUSH2 0x2E8 PUSH2 0x3EF CALLDATASIZE PUSH1 0x4 PUSH2 0x3051 JUMP JUMPDEST PUSH2 0x9E1 JUMP JUMPDEST CALLVALUE DUP1 ISZERO PUSH2 0x3FF JUMPI PUSH0 PUSH0 REVERT JUMPDEST POP PUSH2 0x2B4 PUSH2 0x40E CALLDATASIZE PUSH1 0x4 PUSH2 0x311E JUMP JUMPDEST PUSH2 0xB13 JUMP JUMPDEST CALLVALUE DUP1 ISZERO PUSH2 0x41E JUMPI PUSH0 PUSH0 REVERT JUMPDEST POP PUSH2 0x432 PUSH2 0x42D CALLDATASIZE PUSH1 0x4 PUSH2 0x2F9F JUMP JUMPDEST PUSH2 0xB1E JUMP JUMPDEST PUSH1 0x40 MLOAD PUSH2 0x2C0 SWAP2 SWAP1 PUSH2 0x3146 JUMP JUMPDEST CALLVALUE DUP1 ISZERO PUSH2 0x44A JUMPI PUSH0 PUSH0 REVERT JUMPDEST POP PUSH2 0x2E8 PUSH2 0x459 CALLDATASIZE PUSH1 0x4 PUSH2 0x3191 JUMP JUMPDEST PUSH2 0xB3F JUMP JUMPDEST CALLVALUE DUP1 ISZERO PUSH2 0x469 JUMPI PUSH0 PUSH0 REVERT JUMPDEST POP PUSH2 0x2E8 PUSH2 0x478 CALLDATASIZE PUSH1 0x4 PUSH2 0x3231 JUMP JUMPDEST PUSH2 0xC84 JUMP JUMPDEST CALLVALUE DUP1 ISZERO PUSH2 0x488 JUMPI PUSH0 PUSH0 REVERT JUMPDEST POP PUSH2 0x2E8 PUSH2 0x497 CALLDATASIZE PUSH1 0x4 PUSH2 0x3304 JUMP JUMPDEST PUSH2 0xDD7 JUMP JUMPDEST CALLVALUE DUP1 ISZERO PUSH2 0x4A7 JUMPI PUSH0 PUSH0 REVERT JUMPDEST POP PUSH2 0x328 PUSH2 0x4B6 CALLDATASIZE PUSH1 0x4 PUSH2 0x2F9F JUMP JUMPDEST PUSH2 0xE1B JUMP JUMPDEST CALLVALUE DUP1 ISZERO PUSH2 0x4C6 JUMPI PUSH0 PUSH0 REVERT JUMPDEST POP PUSH2 0x4DA PUSH2 0x4D5 CALLDATASIZE PUSH1 0x4 PUSH2 0x2F9F JUMP JUMPDEST PUSH2 0xE26 JUMP JUMPDEST PUSH1 0x40 MLOAD PUSH2 0x2C0 SWAP8 SWAP7 SWAP6 SWAP5 SWAP4 SWAP3 SWAP2 SWAP1 PUSH2 0x338B JUMP JUMPDEST CALLVALUE DUP1 ISZERO PUSH2 0x4F8 JUMPI PUSH0 PUSH0 REVERT JUMPDEST POP PUSH2 0x372 PUSH2 0x507 CALLDATASIZE PUSH1 0x4 PUSH2 0x343B JUMP JUMPDEST PUSH2 0xFCC JUMP JUMPDEST CALLVALUE DUP1 ISZERO PUSH2 0x517 JUMPI PUSH0 PUSH0 REVERT JUMPDEST POP PUSH2 0x345 PUSH2 0x526 CALLDATASIZE PUSH1 0x4 PUSH2 0x2CEA JUMP JUMPDEST PUSH2 0x10F6 JUMP JUMPDEST CALLVALUE DUP1 ISZERO PUSH2 0x536 JUMPI PUSH0 PUSH0 REVERT JUMPDEST POP PUSH2 0x2E8 PUSH2 0x1116 JUMP JUMPDEST CALLVALUE DUP1 ISZERO PUSH2 0x54A JUMPI PUSH0 PUSH0 REVERT JUMPDEST POP PUSH1 0x6 SLOAD PUSH2 0x345 SWAP1 DUP2 JUMP JUMPDEST CALLVALUE DUP1 ISZERO PUSH2 0x560 JUMPI PUSH0 PUSH0 REVERT JUMPDEST POP PUSH2 0x2E8 PUSH2 0x56F CALLDATASIZE PUSH1 0x4 PUSH2 0x35EC JUMP JUMPDEST PUSH2 0x1129 JUMP JUMPDEST CALLVALUE DUP1 ISZERO PUSH2 0x57F JUMPI PUSH0 PUSH0 REVERT JUMPDEST POP PUSH2 0x2E8 PUSH2 0x58E CALLDATASIZE PUSH1 0x4 PUSH2 0x2DF2 JUMP JUMPDEST PUSH2 0x1217 JUMP JUMPDEST PUSH2 0x2E8 PUSH2 0x5A1 CALLDATASIZE PUSH1 0x4 PUSH2 0x36BD JUMP JUMPDEST PUSH2 0x146E JUMP JUMPDEST CALLVALUE DUP1 ISZERO PUSH2 0x5B1 JUMPI PUSH0 PUSH0 REVERT JUMPDEST POP PUSH2 0x2E8 PUSH2 0x5C0 CALLDATASIZE PUSH1 0x4 PUSH2 0x36F6 JUMP JUMPDEST PUSH2 0x14A3 JUMP JUMPDEST CALLVALUE DUP1 ISZERO PUSH2 0x5D0 JUMPI PUSH0 PUSH0 REVERT JUMPDEST POP PUSH0 SLOAD PUSH1 0x1 PUSH1 0x1 PUSH1 0xA0 SHL SUB AND PUSH2 0x39E JUMP JUMPDEST CALLVALUE DUP1 ISZERO PUSH2 0x5EC JUMPI PUSH0 PUSH0 REVERT JUMPDEST POP PUSH2 0x2E8 PUSH2 0x5FB CALLDATASIZE PUSH1 0x4 PUSH2 0x2DF2 JUMP JUMPDEST PUSH2 0x161A JUMP JUMPDEST PUSH2 0x2E8 PUSH2 0x60E CALLDATASIZE PUSH1 0x4 PUSH2 0x3748 JUMP JUMPDEST PUSH2 0x1851 JUMP JUMPDEST CALLVALUE DUP1 ISZERO PUSH2 0x61E JUMPI PUSH0 PUSH0 REVERT JUMPDEST POP PUSH2 0x632 PUSH2 0x62D CALLDATASIZE PUSH1 0x4 PUSH2 0x2CEA JUMP JUMPDEST PUSH2 0x1882 JUMP JUMPDEST PUSH1 0x40 MLOAD PUSH2 0x2C0 SWAP2 SWAP1 PUSH2 0x37A1 JUMP JUMPDEST CALLVALUE DUP1 ISZERO PUSH2 0x64A JUMPI PUSH0 PUSH0 REVERT JUMPDEST POP PUSH2 0x2E8 PUSH2 0x659 CALLDATASIZE PUSH1 0x4 PUSH2 0x37D8 JUMP JUMPDEST PUSH2 0x18A5 JUMP JUMPDEST CALLVALUE DUP1 ISZERO PUSH2 0x669 JUMPI PUSH0 PUSH0 REVERT JUMPDEST POP PUSH2 0x2E8 PUSH2 0x678 CALLDATASIZE PUSH1 0x4 PUSH2 0x3859 JUMP JUMPDEST PUSH2 0x1968 JUMP JUMPDEST CALLVALUE DUP1 ISZERO PUSH2 0x688 JUMPI PUSH0 PUSH0 REVERT JUMPDEST POP PUSH2 0x2E8 PUSH2 0x697 CALLDATASIZE PUSH1 0x4 PUSH2 0x388E JUMP JUMPDEST PUSH2 0x19BC JUMP JUMPDEST CALLVALUE DUP1 ISZERO PUSH2 0x6A7 JUMPI PUSH0 PUSH0 REVERT JUMPDEST POP PUSH2 0x372 PUSH2 0x6B6 CALLDATASIZE PUSH1 0x4 PUSH2 0x38F1 JUMP JUMPDEST PUSH2 0x1A9D JUMP JUMPDEST CALLVALUE DUP1 ISZERO PUSH2 0x6C6 JUMPI PUSH0 PUSH0 REVERT JUMPDEST POP PUSH2 0x328 PUSH2 0x1B46 JUMP JUMPDEST CALLVALUE DUP1 ISZERO PUSH2 0x6DA JUMPI PUSH0 PUSH0 REVERT JUMPDEST POP PUSH2 0x2E8 PUSH2 0x6E9 CALLDATASIZE PUSH1 0x4 PUSH2 0x2CEA JUMP JUMPDEST PUSH2 0x1BD2 JUMP JUMPDEST PUSH1 0x60 PUSH0 PUSH2 0x705 PUSH0 CALLDATALOAD PUSH1 0x1 PUSH1 0x1 PUSH1 0xE0 SHL SUB NOT AND PUSH2 0x1C3F JUMP JUMPDEST POP SWAP1 POP PUSH1 0x1 PUSH1 0x1 PUSH1 0xA0 SHL SUB DUP2 AND PUSH2 0x73C JUMPI PUSH1 0x40 MLOAD PUSH4 0xBB370B2B PUSH1 0xE0 SHL DUP2 MSTORE PUSH1 0x1 PUSH1 0x1 PUSH1 0xE0 SHL SUB NOT PUSH0 CALLDATALOAD AND PUSH1 0x4 DUP3 ADD MSTORE PUSH1 0x24 ADD PUSH2 0x233 JUMP JUMPDEST PUSH0 PUSH0 DUP3 PUSH1 0x1 PUSH1 0x1 PUSH1 0xA0 SHL SUB AND CALLVALUE DUP8 DUP8 CALLER CALLVALUE PUSH1 0x40 MLOAD PUSH1 0x20 ADD PUSH2 0x760 SWAP5 SWAP4 SWAP3 SWAP2 SWAP1 PUSH2 0x3922 JUMP JUMPDEST PUSH1 0x40 DUP1 MLOAD PUSH1 0x1F NOT DUP2 DUP5 SUB ADD DUP2 MSTORE SWAP1 DUP3 SWAP1 MSTORE PUSH2 0x77A SWAP2 PUSH2 0x394D JUMP JUMPDEST PUSH0 PUSH1 0x40 MLOAD DUP1 DUP4 SUB DUP2 DUP6 DUP8 GAS CALL SWAP3 POP POP POP RETURNDATASIZE DUP1 PUSH0 DUP2 EQ PUSH2 0x7B4 JUMPI PUSH1 0x40 MLOAD SWAP2 POP PUSH1 0x1F NOT PUSH1 0x3F RETURNDATASIZE ADD AND DUP3 ADD PUSH1 0x40 MSTORE RETURNDATASIZE DUP3 MSTORE RETURNDATASIZE PUSH0 PUSH1 0x20 DUP5 ADD RETURNDATACOPY PUSH2 0x7B9 JUMP JUMPDEST PUSH1 0x60 SWAP2 POP JUMPDEST POP SWAP2 POP SWAP2 POP DUP2 ISZERO PUSH2 0x7CE JUMPI SWAP3 POP PUSH2 0x7D7 SWAP2 POP POP JUMP JUMPDEST DUP1 MLOAD DUP1 PUSH1 0x20 DUP4 ADD REVERT JUMPDEST SWAP3 SWAP2 POP POP JUMP JUMPDEST PUSH0 PUSH1 0x1 PUSH1 0x1 PUSH1 0xE0 SHL SUB NOT DUP3 AND PUSH4 0x1D138B83 PUSH1 0xE1 SHL EQ DUP1 PUSH2 0x801 JUMPI POP PUSH2 0x801 DUP3 PUSH2 0x1CBB JUMP JUMPDEST DUP1 PUSH2 0x7D7 JUMPI POP PUSH2 0x7D7 DUP3 PUSH2 0x1CDF JUMP JUMPDEST PUSH1 0x8 SLOAD PUSH1 0x1 PUSH1 0x1 PUSH1 0xA0 SHL SUB AND CALLER EQ PUSH2 0x857 JUMPI PUSH1 0x40 MLOAD PUSH3 0x461BCD PUSH1 0xE5 SHL DUP2 MSTORE PUSH1 0x20 PUSH1 0x4 DUP3 ADD MSTORE PUSH1 0xA PUSH1 0x24 DUP3 ADD MSTORE PUSH10 0x139BDD081C195C9B5A5D PUSH1 0xB2 SHL PUSH1 0x44 DUP3 ADD MSTORE PUSH1 0x64 ADD PUSH2 0x233 JUMP JUMPDEST PUSH2 0x860 DUP2 PUSH2 0x1D14 JUMP JUMPDEST POP JUMP JUMPDEST PUSH2 0x86B PUSH2 0x1D63 JUMP JUMPDEST PUSH1 0x9 PUSH2 0x877 DUP3 DUP3 PUSH2 0x39D9 JUMP JUMPDEST POP PUSH0 DUP1 SLOAD PUSH1 0x40 MLOAD PUSH1 0x1 PUSH1 0x1 PUSH1 0xA0 SHL SUB SWAP1 SWAP2 AND SWAP2 PUSH32 0x52DFE4FD4C28A03CD8AB0AF4995F1CAF006268A90C0E57CBD291D33F358FBC2F SWAP2 LOG2 POP JUMP JUMPDEST PUSH1 0x60 PUSH2 0x8BC DUP4 DUP4 PUSH2 0x1DBC JUMP JUMPDEST SWAP4 SWAP3 POP POP POP JUMP JUMPDEST PUSH1 0x60 DUP2 MLOAD DUP4 MLOAD EQ PUSH2 0x8E7 JUMPI PUSH1 0x40 MLOAD PUSH4 0x17D38EFF PUSH1 0xE1 SHL DUP2 MSTORE PUSH1 0x4 ADD PUSH1 0x40 MLOAD DUP1 SWAP2 SUB SWAP1 REVERT JUMPDEST DUP3 MLOAD PUSH1 0x1 PUSH1 0x1 PUSH1 0x40 SHL SUB DUP2 GT ISZERO PUSH2 0x900 JUMPI PUSH2 0x900 PUSH2 0x2D03 JUMP JUMPDEST PUSH1 0x40 MLOAD SWAP1 DUP1 DUP3 MSTORE DUP1 PUSH1 0x20 MUL PUSH1 0x20 ADD DUP3 ADD PUSH1 0x40 MSTORE DUP1 ISZERO PUSH2 0x933 JUMPI DUP2 PUSH1 0x20 ADD JUMPDEST PUSH1 0x60 DUP2 MSTORE PUSH1 0x20 ADD SWAP1 PUSH1 0x1 SWAP1 SUB SWAP1 DUP2 PUSH2 0x91E JUMPI SWAP1 POP JUMPDEST POP SWAP1 POP PUSH0 JUMPDEST DUP4 MLOAD DUP2 LT ISZERO PUSH2 0x9A2 JUMPI PUSH2 0x97D DUP5 DUP3 DUP2 MLOAD DUP2 LT PUSH2 0x956 JUMPI PUSH2 0x956 PUSH2 0x3A93 JUMP JUMPDEST PUSH1 0x20 MUL PUSH1 0x20 ADD ADD MLOAD DUP5 DUP4 DUP2 MLOAD DUP2 LT PUSH2 0x970 JUMPI PUSH2 0x970 PUSH2 0x3A93 JUMP JUMPDEST PUSH1 0x20 MUL PUSH1 0x20 ADD ADD MLOAD PUSH2 0x1DBC JUMP JUMPDEST DUP3 DUP3 DUP2 MLOAD DUP2 LT PUSH2 0x98F JUMPI PUSH2 0x98F PUSH2 0x3A93 JUMP JUMPDEST PUSH1 0x20 SWAP1 DUP2 MUL SWAP2 SWAP1 SWAP2 ADD ADD MSTORE PUSH1 0x1 ADD PUSH2 0x938 JUMP JUMPDEST POP SWAP3 SWAP2 POP POP JUMP JUMPDEST PUSH0 DUP2 DUP2 MSTORE PUSH1 0x3 PUSH1 0x20 MSTORE PUSH1 0x40 DUP2 KECCAK256 SLOAD PUSH1 0x1 PUSH1 0x1 PUSH1 0xA0 SHL SUB AND DUP1 PUSH2 0x7D7 JUMPI PUSH1 0x40 MLOAD PUSH4 0x5747CD1B PUSH1 0xE1 SHL DUP2 MSTORE PUSH1 0x4 DUP2 ADD DUP5 SWAP1 MSTORE PUSH1 0x24 ADD PUSH2 0x233 JUMP JUMPDEST DUP4 PUSH0 PUSH2 0x9EC DUP3 PUSH2 0x9A9 JUMP JUMPDEST SWAP1 POP CALLER PUSH1 0x1 PUSH1 0x1 PUSH1 0xA0 SHL SUB DUP3 AND EQ DUP1 PUSH2 0xA0E JUMPI POP PUSH0 SLOAD PUSH1 0x1 PUSH1 0x1 PUSH1 0xA0 SHL SUB AND CALLER EQ JUMPDEST PUSH2 0xA2A JUMPI PUSH1 0x40 MLOAD PUSH3 0x461BCD PUSH1 0xE5 SHL DUP2 MSTORE PUSH1 0x4 ADD PUSH2 0x233 SWAP1 PUSH2 0x3AA7 JUMP JUMPDEST PUSH0 DUP7 DUP2 MSTORE PUSH1 0x7 PUSH1 0x20 MSTORE PUSH1 0x40 DUP2 KECCAK256 SWAP1 PUSH2 0xA46 DUP14 DUP14 DUP9 DUP15 DUP15 DUP15 PUSH2 0x1E8F JUMP JUMPDEST SWAP1 POP DUP2 PUSH1 0x3 ADD PUSH1 0x40 MLOAD DUP1 PUSH1 0x40 ADD PUSH1 0x40 MSTORE DUP1 DUP8 PUSH1 0x2 DUP2 GT ISZERO PUSH2 0xA69 JUMPI PUSH2 0xA69 PUSH2 0x3377 JUMP JUMPDEST DUP2 MSTORE PUSH1 0x20 SWAP1 DUP2 ADD DUP5 SWAP1 MSTORE DUP3 SLOAD PUSH1 0x1 DUP2 DUP2 ADD DUP6 SSTORE PUSH0 SWAP5 DUP6 MSTORE SWAP2 SWAP1 SWAP4 KECCAK256 DUP3 MLOAD PUSH1 0x2 SWAP5 DUP6 MUL SWAP1 SWAP2 ADD DUP1 SLOAD SWAP4 SWAP5 SWAP1 SWAP4 SWAP2 SWAP3 DUP5 SWAP3 PUSH1 0xFF NOT AND SWAP2 DUP5 SWAP1 DUP2 GT ISZERO PUSH2 0xAAE JUMPI PUSH2 0xAAE PUSH2 0x3377 JUMP JUMPDEST MUL OR SWAP1 SSTORE POP PUSH1 0x20 SWAP2 DUP3 ADD MLOAD PUSH1 0x1 SWAP2 DUP3 ADD SSTORE PUSH0 DUP4 DUP2 MSTORE PUSH1 0x7 SWAP1 SWAP3 MSTORE PUSH1 0x40 DUP1 DUP4 KECCAK256 SWAP2 DUP3 ADD DUP12 SWAP1 SSTORE PUSH1 0x2 SWAP1 SWAP2 ADD DUP10 SWAP1 SSTORE MLOAD DUP10 SWAP2 DUP4 SWAP2 PUSH32 0x95AFC0D374F4E4B0D262BE4433E573B5862C9FB50C22EE6438A313040F5487CC SWAP2 SWAP1 LOG3 POP POP POP POP POP POP POP POP POP POP POP POP POP JUMP JUMPDEST PUSH0 PUSH2 0x8BC DUP4 DUP4 PUSH2 0x1FD0 JUMP JUMPDEST PUSH1 0x60 PUSH2 0xB29 DUP3 PUSH2 0x200B JUMP JUMPDEST PUSH0 DUP3 DUP2 MSTORE PUSH1 0x5 PUSH1 0x20 MSTORE PUSH1 0x40 SWAP1 KECCAK256 PUSH2 0x7D7 SWAP1 PUSH2 0x2042 JUMP JUMPDEST DUP6 PUSH0 PUSH2 0xB4A DUP3 PUSH2 0x9A9 JUMP JUMPDEST SWAP1 POP CALLER PUSH1 0x1 PUSH1 0x1 PUSH1 0xA0 SHL SUB DUP3 AND EQ DUP1 PUSH2 0xB6C JUMPI POP PUSH0 SLOAD PUSH1 0x1 PUSH1 0x1 PUSH1 0xA0 SHL SUB AND CALLER EQ JUMPDEST PUSH2 0xB88 JUMPI PUSH1 0x40 MLOAD PUSH3 0x461BCD PUSH1 0xE5 SHL DUP2 MSTORE PUSH1 0x4 ADD PUSH2 0x233 SWAP1 PUSH2 0x3AA7 JUMP JUMPDEST PUSH0 DUP9 DUP2 MSTORE PUSH1 0x7 PUSH1 0x20 MSTORE PUSH1 0x40 SWAP1 KECCAK256 DUP1 PUSH2 0xBA0 DUP10 DUP3 PUSH2 0x39D9 JUMP JUMPDEST POP DUP5 MLOAD PUSH1 0x6 DUP3 ADD DUP1 SLOAD PUSH1 0x20 DUP1 DUP10 ADD MLOAD PUSH1 0x40 DUP1 DUP12 ADD MLOAD PUSH2 0xFFFF SWAP7 DUP8 AND PUSH3 0xFFFFFF NOT SWAP6 DUP7 AND OR PUSH3 0x10000 PUSH1 0xFF SWAP5 DUP6 AND DUP2 MUL SWAP2 SWAP1 SWAP2 OR PUSH4 0xFF000000 NOT SWAP1 DUP2 AND PUSH4 0x1000000 SWAP4 DUP7 AND DUP5 MUL OR SWAP1 SWAP8 SSTORE DUP12 MLOAD PUSH1 0x7 DUP11 ADD DUP1 SLOAD SWAP7 DUP15 ADD MLOAD SWAP5 DUP15 ADD MLOAD SWAP2 SWAP1 SWAP10 AND SWAP6 SWAP1 SWAP7 AND SWAP5 SWAP1 SWAP5 OR SWAP2 DUP4 AND SWAP1 SWAP4 MUL OR SWAP1 SWAP4 AND SWAP2 SWAP1 SWAP3 AND SWAP1 SWAP2 MUL OR SWAP1 SSTORE PUSH1 0x5 DUP2 ADD DUP1 SLOAD DUP8 SWAP2 SWAP1 PUSH1 0xFF NOT AND PUSH1 0x1 DUP4 PUSH1 0x2 DUP2 GT ISZERO PUSH2 0xC3B JUMPI PUSH2 0xC3B PUSH2 0x3377 JUMP JUMPDEST MUL OR SWAP1 SSTORE POP PUSH1 0x8 DUP2 ADD PUSH2 0xC4E DUP9 DUP3 PUSH2 0x39D9 JUMP JUMPDEST POP PUSH1 0x40 MLOAD DUP10 SWAP1 PUSH32 0x88B778B9AA1C8317C051D681D7E71C9F3E40C539FBAF5CADFD37476C1B15DEC SWAP1 PUSH0 SWAP1 LOG2 POP POP POP POP POP POP POP POP POP JUMP JUMPDEST DUP8 PUSH0 PUSH2 0xC8F DUP3 PUSH2 0x9A9 JUMP JUMPDEST SWAP1 POP CALLER PUSH1 0x1 PUSH1 0x1 PUSH1 0xA0 SHL SUB DUP3 AND EQ DUP1 PUSH2 0xCB1 JUMPI POP PUSH0 SLOAD PUSH1 0x1 PUSH1 0x1 PUSH1 0xA0 SHL SUB AND CALLER EQ JUMPDEST PUSH2 0xCCD JUMPI PUSH1 0x40 MLOAD PUSH3 0x461BCD PUSH1 0xE5 SHL DUP2 MSTORE PUSH1 0x4 ADD PUSH2 0x233 SWAP1 PUSH2 0x3AA7 JUMP JUMPDEST PUSH0 PUSH2 0xCDD DUP11 DUP11 DUP7 PUSH1 0x1 DUP13 DUP13 PUSH2 0x1E8F JUMP JUMPDEST PUSH0 DUP2 DUP2 MSTORE PUSH1 0x7 PUSH1 0x20 SWAP1 DUP2 MSTORE PUSH1 0x40 DUP1 DUP4 KECCAK256 DUP2 MLOAD PUSH1 0x60 DUP2 ADD DUP4 MSTORE DUP6 DUP2 MSTORE DUP1 DUP5 ADD DUP13 DUP2 MSTORE DUP2 DUP5 ADD DUP13 DUP2 MSTORE PUSH1 0x4 SWAP1 SWAP4 ADD DUP1 SLOAD PUSH1 0x1 DUP2 DUP2 ADD DUP4 SSTORE SWAP2 DUP9 MSTORE DUP7 DUP9 KECCAK256 SWAP4 MLOAD PUSH1 0x3 SWAP1 SWAP2 MUL SWAP1 SWAP4 ADD SWAP3 DUP4 SSTORE SWAP1 MLOAD DUP1 MLOAD SWAP2 DUP4 ADD DUP1 SLOAD DUP3 DUP9 ADD MLOAD SWAP3 DUP8 ADD MLOAD PUSH1 0xFF SWAP1 DUP2 AND PUSH4 0x1000000 SWAP1 DUP2 MUL PUSH4 0xFF000000 NOT SWAP6 DUP4 AND PUSH3 0x10000 SWAP1 DUP2 MUL PUSH3 0xFFFFFF NOT SWAP6 DUP7 AND PUSH2 0xFFFF SWAP10 DUP11 AND OR OR DUP8 AND SWAP2 SWAP1 SWAP2 OR SWAP1 SWAP5 SSTORE SWAP7 MLOAD DUP1 MLOAD PUSH1 0x2 SWAP1 SWAP8 ADD DUP1 SLOAD SWAP11 DUP3 ADD MLOAD SWAP2 DUP11 ADD MLOAD DUP4 AND SWAP1 SWAP9 MUL SWAP2 AND SWAP1 SWAP3 MUL SWAP8 AND SWAP4 SWAP1 SWAP3 AND SWAP3 SWAP1 SWAP3 OR SWAP5 SWAP1 SWAP5 OR AND SWAP3 SWAP1 SWAP3 OR SWAP1 SWAP2 SSTORE MLOAD SWAP2 SWAP3 POP DUP3 SWAP2 DUP14 SWAP2 PUSH32 0xCA4757636F927657C127875C4F0C0EC6E1F84D4769348F20FFF39486A4BB2C3F SWAP2 LOG3 POP POP POP POP POP POP POP POP POP POP POP JUMP JUMPDEST PUSH2 0xDE1 CALLER DUP5 PUSH2 0x1FD0 JUMP JUMPDEST PUSH2 0xE07 JUMPI PUSH1 0x40 MLOAD PUSH4 0x1294D2A9 PUSH1 0xE0 SHL DUP2 MSTORE PUSH1 0x4 DUP2 ADD DUP5 SWAP1 MSTORE CALLER PUSH1 0x24 DUP3 ADD MSTORE PUSH1 0x44 ADD PUSH2 0x233 JUMP JUMPDEST PUSH2 0xE14 DUP6 DUP6 DUP6 DUP6 DUP6 PUSH2 0x204E JUMP JUMPDEST POP POP POP POP POP JUMP JUMPDEST PUSH1 0x60 PUSH2 0x7D7 DUP3 PUSH2 0x222A JUMP JUMPDEST PUSH1 0x7 PUSH1 0x20 MSTORE PUSH0 SWAP1 DUP2 MSTORE PUSH1 0x40 SWAP1 KECCAK256 DUP1 SLOAD DUP2 SWAP1 PUSH2 0xE40 SWAP1 PUSH2 0x3963 JUMP JUMPDEST DUP1 PUSH1 0x1F ADD PUSH1 0x20 DUP1 SWAP2 DIV MUL PUSH1 0x20 ADD PUSH1 0x40 MLOAD SWAP1 DUP2 ADD PUSH1 0x40 MSTORE DUP1 SWAP3 SWAP2 SWAP1 DUP2 DUP2 MSTORE PUSH1 0x20 ADD DUP3 DUP1 SLOAD PUSH2 0xE6C SWAP1 PUSH2 0x3963 JUMP JUMPDEST DUP1 ISZERO PUSH2 0xEB7 JUMPI DUP1 PUSH1 0x1F LT PUSH2 0xE8E JUMPI PUSH2 0x100 DUP1 DUP4 SLOAD DIV MUL DUP4 MSTORE SWAP2 PUSH1 0x20 ADD SWAP2 PUSH2 0xEB7 JUMP JUMPDEST DUP3 ADD SWAP2 SWAP1 PUSH0 MSTORE PUSH1 0x20 PUSH0 KECCAK256 SWAP1 JUMPDEST DUP2 SLOAD DUP2 MSTORE SWAP1 PUSH1 0x1 ADD SWAP1 PUSH1 0x20 ADD DUP1 DUP4 GT PUSH2 0xE9A JUMPI DUP3 SWAP1 SUB PUSH1 0x1F AND DUP3 ADD SWAP2 JUMPDEST POP POP POP POP PUSH1 0x1 DUP4 ADD SLOAD PUSH1 0x2 DUP5 ADD SLOAD PUSH1 0x5 DUP6 ADD SLOAD PUSH1 0x40 DUP1 MLOAD PUSH1 0x60 DUP1 DUP3 ADD DUP4 MSTORE PUSH1 0x6 DUP10 ADD SLOAD PUSH2 0xFFFF DUP1 DUP3 AND DUP5 MSTORE PUSH1 0xFF PUSH3 0x10000 DUP1 DUP5 DIV DUP3 AND PUSH1 0x20 DUP1 DUP9 ADD SWAP2 SWAP1 SWAP2 MSTORE PUSH4 0x1000000 SWAP5 DUP6 SWAP1 DIV DUP4 AND DUP8 DUP10 ADD MSTORE DUP8 MLOAD SWAP6 DUP7 ADD DUP9 MSTORE PUSH1 0x7 DUP15 ADD SLOAD SWAP4 DUP5 AND DUP7 MSTORE SWAP1 DUP4 DIV DUP3 AND SWAP1 DUP6 ADD MSTORE SWAP2 SWAP1 DIV DUP2 AND SWAP4 DUP3 ADD SWAP4 SWAP1 SWAP4 MSTORE PUSH1 0x8 DUP10 ADD DUP1 SLOAD SWAP9 SWAP10 SWAP7 SWAP9 SWAP6 SWAP8 POP SWAP3 SWAP1 SWAP4 AND SWAP5 SWAP1 SWAP4 SWAP1 SWAP2 SWAP1 PUSH2 0xF4B SWAP1 PUSH2 0x3963 JUMP JUMPDEST DUP1 PUSH1 0x1F ADD PUSH1 0x20 DUP1 SWAP2 DIV MUL PUSH1 0x20 ADD PUSH1 0x40 MLOAD SWAP1 DUP2 ADD PUSH1 0x40 MSTORE DUP1 SWAP3 SWAP2 SWAP1 DUP2 DUP2 MSTORE PUSH1 0x20 ADD DUP3 DUP1 SLOAD PUSH2 0xF77 SWAP1 PUSH2 0x3963 JUMP JUMPDEST DUP1 ISZERO PUSH2 0xFC2 JUMPI DUP1 PUSH1 0x1F LT PUSH2 0xF99 JUMPI PUSH2 0x100 DUP1 DUP4 SLOAD DIV MUL DUP4 MSTORE SWAP2 PUSH1 0x20 ADD SWAP2 PUSH2 0xFC2 JUMP JUMPDEST DUP3 ADD SWAP2 SWAP1 PUSH0 MSTORE PUSH1 0x20 PUSH0 KECCAK256 SWAP1 JUMPDEST DUP2 SLOAD DUP2 MSTORE SWAP1 PUSH1 0x1 ADD SWAP1 PUSH1 0x20 ADD DUP1 DUP4 GT PUSH2 0xFA5 JUMPI DUP3 SWAP1 SUB PUSH1 0x1F AND DUP3 ADD SWAP2 JUMPDEST POP POP POP POP POP SWAP1 POP DUP8 JUMP JUMPDEST PUSH1 0x60 DUP2 PUSH1 0x1 PUSH1 0x1 PUSH1 0x40 SHL SUB DUP2 GT ISZERO PUSH2 0xFE6 JUMPI PUSH2 0xFE6 PUSH2 0x2D03 JUMP JUMPDEST PUSH1 0x40 MLOAD SWAP1 DUP1 DUP3 MSTORE DUP1 PUSH1 0x20 MUL PUSH1 0x20 ADD DUP3 ADD PUSH1 0x40 MSTORE DUP1 ISZERO PUSH2 0x1019 JUMPI DUP2 PUSH1 0x20 ADD JUMPDEST PUSH1 0x60 DUP2 MSTORE PUSH1 0x20 ADD SWAP1 PUSH1 0x1 SWAP1 SUB SWAP1 DUP2 PUSH2 0x1004 JUMPI SWAP1 POP JUMPDEST POP SWAP1 POP PUSH0 JUMPDEST DUP3 DUP2 LT ISZERO PUSH2 0x9A2 JUMPI PUSH0 DUP1 ADDRESS DUP7 DUP7 DUP6 DUP2 DUP2 LT PUSH2 0x103B JUMPI PUSH2 0x103B PUSH2 0x3A93 JUMP JUMPDEST SWAP1 POP PUSH1 0x20 MUL DUP2 ADD SWAP1 PUSH2 0x104D SWAP2 SWAP1 PUSH2 0x3ACF JUMP JUMPDEST PUSH1 0x40 MLOAD PUSH2 0x105B SWAP3 SWAP2 SWAP1 PUSH2 0x3B18 JUMP JUMPDEST PUSH0 PUSH1 0x40 MLOAD DUP1 DUP4 SUB DUP2 DUP6 GAS DELEGATECALL SWAP2 POP POP RETURNDATASIZE DUP1 PUSH0 DUP2 EQ PUSH2 0x1093 JUMPI PUSH1 0x40 MLOAD SWAP2 POP PUSH1 0x1F NOT PUSH1 0x3F RETURNDATASIZE ADD AND DUP3 ADD PUSH1 0x40 MSTORE RETURNDATASIZE DUP3 MSTORE RETURNDATASIZE PUSH0 PUSH1 0x20 DUP5 ADD RETURNDATACOPY PUSH2 0x1098 JUMP JUMPDEST PUSH1 0x60 SWAP2 POP JUMPDEST POP SWAP2 POP SWAP2 POP DUP2 PUSH2 0x10CE JUMPI DUP1 MLOAD ISZERO PUSH2 0x10B2 JUMPI DUP1 MLOAD DUP1 DUP3 PUSH1 0x20 ADD REVERT JUMPDEST PUSH1 0x40 MLOAD PUSH4 0x234EB819 PUSH1 0xE0 SHL DUP2 MSTORE PUSH1 0x4 DUP2 ADD DUP5 SWAP1 MSTORE PUSH1 0x24 ADD PUSH2 0x233 JUMP JUMPDEST DUP1 DUP5 DUP5 DUP2 MLOAD DUP2 LT PUSH2 0x10E1 JUMPI PUSH2 0x10E1 PUSH2 0x3A93 JUMP JUMPDEST PUSH1 0x20 SWAP1 DUP2 MUL SWAP2 SWAP1 SWAP2 ADD ADD MSTORE POP POP PUSH1 0x1 ADD PUSH2 0x101E JUMP JUMPDEST PUSH1 0x1 PUSH1 0x1 PUSH1 0xA0 SHL SUB DUP2 AND PUSH0 SWAP1 DUP2 MSTORE PUSH1 0x4 PUSH1 0x20 MSTORE PUSH1 0x40 DUP2 KECCAK256 PUSH2 0x7D7 SWAP1 PUSH2 0x22C9 JUMP JUMPDEST PUSH2 0x111E PUSH2 0x1D63 JUMP JUMPDEST PUSH2 0x1127 PUSH0 PUSH2 0x1D14 JUMP JUMPDEST JUMP JUMPDEST DUP5 MLOAD DUP5 MLOAD DUP2 EQ ISZERO DUP1 PUSH2 0x113C JUMPI POP DUP4 MLOAD DUP2 EQ ISZERO JUMPDEST DUP1 PUSH2 0x1148 JUMPI POP DUP3 MLOAD DUP2 EQ ISZERO JUMPDEST DUP1 PUSH2 0x1154 JUMPI POP DUP2 MLOAD DUP2 EQ ISZERO JUMPDEST ISZERO PUSH2 0x1172 JUMPI PUSH1 0x40 MLOAD PUSH4 0x93A83119 PUSH1 0xE0 SHL DUP2 MSTORE PUSH1 0x4 ADD PUSH1 0x40 MLOAD DUP1 SWAP2 SUB SWAP1 REVERT JUMPDEST PUSH0 JUMPDEST DUP2 DUP2 LT ISZERO PUSH2 0x120E JUMPI PUSH2 0x1206 DUP8 DUP3 DUP2 MLOAD DUP2 LT PUSH2 0x1191 JUMPI PUSH2 0x1191 PUSH2 0x3A93 JUMP JUMPDEST PUSH1 0x20 MUL PUSH1 0x20 ADD ADD MLOAD DUP8 DUP4 DUP2 MLOAD DUP2 LT PUSH2 0x11AB JUMPI PUSH2 0x11AB PUSH2 0x3A93 JUMP JUMPDEST PUSH1 0x20 MUL PUSH1 0x20 ADD ADD MLOAD DUP8 DUP5 DUP2 MLOAD DUP2 LT PUSH2 0x11C5 JUMPI PUSH2 0x11C5 PUSH2 0x3A93 JUMP JUMPDEST PUSH1 0x20 MUL PUSH1 0x20 ADD ADD MLOAD DUP8 DUP6 DUP2 MLOAD DUP2 LT PUSH2 0x11DF JUMPI PUSH2 0x11DF PUSH2 0x3A93 JUMP JUMPDEST PUSH1 0x20 MUL PUSH1 0x20 ADD ADD MLOAD DUP8 DUP7 DUP2 MLOAD DUP2 LT PUSH2 0x11F9 JUMPI PUSH2 0x11F9 PUSH2 0x3A93 JUMP JUMPDEST PUSH1 0x20 MUL PUSH1 0x20 ADD ADD MLOAD PUSH2 0xDD7 JUMP JUMPDEST PUSH1 0x1 ADD PUSH2 0x1174 JUMP JUMPDEST POP POP POP POP POP POP POP JUMP JUMPDEST DUP1 PUSH0 PUSH2 0x1222 DUP3 PUSH2 0x9A9 JUMP JUMPDEST SWAP1 POP CALLER PUSH1 0x1 PUSH1 0x1 PUSH1 0xA0 SHL SUB DUP3 AND EQ DUP1 PUSH2 0x1244 JUMPI POP PUSH0 SLOAD PUSH1 0x1 PUSH1 0x1 PUSH1 0xA0 SHL SUB AND CALLER EQ JUMPDEST PUSH2 0x1260 JUMPI PUSH1 0x40 MLOAD PUSH3 0x461BCD PUSH1 0xE5 SHL DUP2 MSTORE PUSH1 0x4 ADD PUSH2 0x233 SWAP1 PUSH2 0x3AA7 JUMP JUMPDEST PUSH0 DUP4 DUP2 MSTORE PUSH1 0x7 PUSH1 0x20 MSTORE PUSH1 0x40 DUP2 KECCAK256 SWAP1 JUMPDEST PUSH1 0x4 DUP3 ADD SLOAD DUP2 LT ISZERO PUSH2 0x142C JUMPI DUP6 DUP3 PUSH1 0x4 ADD DUP3 DUP2 SLOAD DUP2 LT PUSH2 0x1291 JUMPI PUSH2 0x1291 PUSH2 0x3A93 JUMP JUMPDEST SWAP1 PUSH0 MSTORE PUSH1 0x20 PUSH0 KECCAK256 SWAP1 PUSH1 0x3 MUL ADD PUSH0 ADD SLOAD SUB PUSH2 0x1424 JUMPI PUSH1 0x4 DUP3 ADD SLOAD PUSH0 SWAP1 PUSH2 0x12B8 SWAP1 PUSH1 0x1 SWAP1 PUSH2 0x3B3B JUMP JUMPDEST SWAP1 POP DUP1 DUP3 EQ PUSH2 0x13A8 JUMPI DUP3 PUSH1 0x4 ADD DUP2 DUP2 SLOAD DUP2 LT PUSH2 0x12D6 JUMPI PUSH2 0x12D6 PUSH2 0x3A93 JUMP JUMPDEST SWAP1 PUSH0 MSTORE PUSH1 0x20 PUSH0 KECCAK256 SWAP1 PUSH1 0x3 MUL ADD DUP4 PUSH1 0x4 ADD DUP4 DUP2 SLOAD DUP2 LT PUSH2 0x12F7 JUMPI PUSH2 0x12F7 PUSH2 0x3A93 JUMP JUMPDEST PUSH0 SWAP2 DUP3 MSTORE PUSH1 0x20 SWAP1 SWAP2 KECCAK256 DUP3 SLOAD PUSH1 0x3 SWAP1 SWAP3 MUL ADD SWAP1 DUP2 SSTORE PUSH1 0x1 DUP1 DUP4 ADD DUP1 SLOAD SWAP2 DUP4 ADD DUP1 SLOAD PUSH2 0xFFFF SWAP4 DUP5 AND PUSH2 0xFFFF NOT DUP1 DUP4 AND DUP3 OR DUP5 SSTORE DUP5 SLOAD PUSH3 0xFFFFFF NOT SWAP4 DUP5 AND SWAP1 SWAP3 OR PUSH3 0x10000 SWAP3 DUP4 SWAP1 DIV PUSH1 0xFF SWAP1 DUP2 AND DUP5 MUL SWAP2 SWAP1 SWAP2 OR DUP1 DUP7 SSTORE SWAP6 SLOAD PUSH4 0xFF000000 NOT SWAP7 DUP8 AND PUSH4 0x1000000 SWAP2 DUP3 SWAP1 DIV DUP4 AND DUP3 MUL OR SWAP1 SWAP6 SSTORE PUSH1 0x2 SWAP9 DUP10 ADD DUP1 SLOAD SWAP10 SWAP1 SWAP9 ADD DUP1 SLOAD SWAP10 SWAP1 SWAP8 AND SWAP2 DUP10 AND DUP3 OR DUP8 SSTORE DUP8 SLOAD SWAP9 SWAP1 SWAP4 AND OR SWAP7 DUP2 SWAP1 DIV DUP3 AND MUL SWAP6 SWAP1 SWAP6 OR DUP1 DUP5 SSTORE SWAP4 SLOAD SWAP4 SWAP1 SWAP2 AND SWAP3 DUP2 SWAP1 DIV SWAP1 SWAP4 AND SWAP1 SWAP3 MUL OR SWAP1 SSTORE JUMPDEST DUP3 PUSH1 0x4 ADD DUP1 SLOAD DUP1 PUSH2 0x13BB JUMPI PUSH2 0x13BB PUSH2 0x3B4E JUMP JUMPDEST PUSH0 DUP3 DUP2 MSTORE PUSH1 0x20 DUP2 KECCAK256 PUSH1 0x3 PUSH0 NOT SWAP1 SWAP4 ADD SWAP3 DUP4 MUL ADD DUP2 DUP2 SSTORE PUSH1 0x1 DUP2 ADD DUP1 SLOAD PUSH4 0xFFFFFFFF NOT SWAP1 DUP2 AND SWAP1 SWAP2 SSTORE PUSH1 0x2 SWAP1 SWAP2 ADD DUP1 SLOAD SWAP1 SWAP2 AND SWAP1 SSTORE SWAP2 SSTORE PUSH1 0x40 MLOAD DUP8 SWAP2 DUP10 SWAP2 PUSH32 0xF1387B2F8963CA7947C75FAA29A4C7DE0859D44C5F9A658761ACBDC5D539976B SWAP2 SWAP1 LOG3 POP POP POP PUSH2 0x1468 JUMP JUMPDEST PUSH1 0x1 ADD PUSH2 0x126F JUMP JUMPDEST POP PUSH1 0x40 MLOAD PUSH3 0x461BCD PUSH1 0xE5 SHL DUP2 MSTORE PUSH1 0x20 PUSH1 0x4 DUP3 ADD MSTORE PUSH1 0x10 PUSH1 0x24 DUP3 ADD MSTORE PUSH16 0x14DC1BDD5CD9481B9BDD08199BDD5B99 PUSH1 0x82 SHL PUSH1 0x44 DUP3 ADD MSTORE PUSH1 0x64 ADD PUSH2 0x233 JUMP JUMPDEST POP POP POP POP JUMP JUMPDEST PUSH2 0x1476 PUSH2 0x1D63 JUMP JUMPDEST CALLVALUE ISZERO PUSH2 0x1495 JUMPI PUSH1 0x40 MLOAD PUSH4 0xF36BA737 PUSH1 0xE0 SHL DUP2 MSTORE PUSH1 0x4 ADD PUSH1 0x40 MLOAD DUP1 SWAP2 SUB SWAP1 REVERT JUMPDEST PUSH2 0x149F DUP3 DUP3 PUSH2 0x22D2 JUMP JUMPDEST POP POP JUMP JUMPDEST PUSH0 PUSH2 0x14AD DUP4 PUSH2 0x9A9 JUMP JUMPDEST SWAP1 POP PUSH1 0x1 PUSH1 0x1 PUSH1 0xA0 SHL SUB DUP2 AND CALLER EQ PUSH2 0x14F0 JUMPI PUSH1 0x40 MLOAD PUSH4 0x2D938F51 PUSH1 0xE1 SHL DUP2 MSTORE PUSH1 0x1 PUSH1 0x1 PUSH1 0xA0 SHL SUB DUP3 AND PUSH1 0x4 DUP3 ADD MSTORE PUSH1 0x24 DUP2 ADD DUP5 SWAP1 MSTORE CALLER PUSH1 0x44 DUP3 ADD MSTORE PUSH1 0x64 ADD PUSH2 0x233 JUMP JUMPDEST PUSH1 0x1 PUSH1 0x1 PUSH1 0xA0 SHL SUB DUP5 AND PUSH2 0x1517 JUMPI PUSH1 0x40 MLOAD PUSH4 0x9577B8B3 PUSH1 0xE0 SHL DUP2 MSTORE PUSH1 0x4 ADD PUSH1 0x40 MLOAD DUP1 SWAP2 SUB SWAP1 REVERT JUMPDEST DUP4 PUSH1 0x1 PUSH1 0x1 PUSH1 0xA0 SHL SUB AND DUP2 PUSH1 0x1 PUSH1 0x1 PUSH1 0xA0 SHL SUB AND SUB PUSH2 0x1549 JUMPI PUSH1 0x40 MLOAD PUSH4 0x44FED6B1 PUSH1 0xE1 SHL DUP2 MSTORE PUSH1 0x4 ADD PUSH1 0x40 MLOAD DUP1 SWAP2 SUB SWAP1 REVERT JUMPDEST PUSH0 DUP4 DUP2 MSTORE PUSH1 0x5 PUSH1 0x20 MSTORE PUSH1 0x40 DUP2 KECCAK256 PUSH2 0x1560 SWAP1 DUP7 PUSH2 0x231C JUMP JUMPDEST SWAP1 POP DUP1 PUSH2 0x1592 JUMPI PUSH1 0x40 MLOAD PUSH4 0x14EC4D6D PUSH1 0xE3 SHL DUP2 MSTORE PUSH1 0x1 PUSH1 0x1 PUSH1 0xA0 SHL SUB DUP7 AND PUSH1 0x4 DUP3 ADD MSTORE PUSH1 0x24 DUP2 ADD DUP6 SWAP1 MSTORE PUSH1 0x44 ADD PUSH2 0x233 JUMP JUMPDEST DUP4 DUP3 PUSH1 0x1 PUSH1 0x1 PUSH1 0xA0 SHL SUB AND DUP7 PUSH1 0x1 PUSH1 0x1 PUSH1 0xA0 SHL SUB AND PUSH32 0x1B1B58AA2EC0CEC2228B2D37124556D41F5A1F7B12F089171F896CC236671215 DUP7 PUSH1 0x40 MLOAD PUSH2 0x15D6 SWAP2 SWAP1 PUSH2 0x2E40 JUMP JUMPDEST PUSH1 0x40 MLOAD DUP1 SWAP2 SUB SWAP1 LOG4 PUSH0 CALLER DUP6 PUSH1 0x1 DUP7 PUSH1 0x40 MLOAD PUSH1 0x20 ADD PUSH2 0x15F7 SWAP5 SWAP4 SWAP3 SWAP2 SWAP1 PUSH2 0x3B62 JUMP JUMPDEST PUSH1 0x40 MLOAD PUSH1 0x20 DUP2 DUP4 SUB SUB DUP2 MSTORE SWAP1 PUSH1 0x40 MSTORE SWAP1 POP PUSH2 0x1612 DUP7 DUP3 PUSH2 0x2330 JUMP JUMPDEST POP POP POP POP POP POP JUMP JUMPDEST DUP2 PUSH0 PUSH2 0x1625 DUP3 PUSH2 0x9A9 JUMP JUMPDEST SWAP1 POP CALLER PUSH1 0x1 PUSH1 0x1 PUSH1 0xA0 SHL SUB DUP3 AND EQ DUP1 PUSH2 0x1647 JUMPI POP PUSH0 SLOAD PUSH1 0x1 PUSH1 0x1 PUSH1 0xA0 SHL SUB AND CALLER EQ JUMPDEST PUSH2 0x1663 JUMPI PUSH1 0x40 MLOAD PUSH3 0x461BCD PUSH1 0xE5 SHL DUP2 MSTORE PUSH1 0x4 ADD PUSH2 0x233 SWAP1 PUSH2 0x3AA7 JUMP JUMPDEST PUSH0 DUP5 DUP2 MSTORE PUSH1 0x7 PUSH1 0x20 MSTORE PUSH1 0x40 DUP1 DUP3 KECCAK256 DUP6 DUP4 MSTORE SWAP2 KECCAK256 PUSH1 0x1 DUP2 ADD SLOAD DUP7 EQ PUSH2 0x16C9 JUMPI PUSH1 0x40 MLOAD PUSH3 0x461BCD PUSH1 0xE5 SHL DUP2 MSTORE PUSH1 0x20 PUSH1 0x4 DUP3 ADD MSTORE PUSH1 0x18 PUSH1 0x24 DUP3 ADD MSTORE PUSH32 0x4E6F74206368696C64206F66207468697320706572736F6E0000000000000000 PUSH1 0x44 DUP3 ADD MSTORE PUSH1 0x64 ADD PUSH2 0x233 JUMP JUMPDEST PUSH0 JUMPDEST PUSH1 0x3 DUP4 ADD SLOAD DUP2 LT ISZERO PUSH2 0x1816 JUMPI DUP6 DUP4 PUSH1 0x3 ADD DUP3 DUP2 SLOAD DUP2 LT PUSH2 0x16ED JUMPI PUSH2 0x16ED PUSH2 0x3A93 JUMP JUMPDEST SWAP1 PUSH0 MSTORE PUSH1 0x20 PUSH0 KECCAK256 SWAP1 PUSH1 0x2 MUL ADD PUSH1 0x1 ADD SLOAD SUB PUSH2 0x180E JUMPI PUSH1 0x3 DUP4 ADD SLOAD PUSH0 SWAP1 PUSH2 0x1715 SWAP1 PUSH1 0x1 SWAP1 PUSH2 0x3B3B JUMP JUMPDEST SWAP1 POP DUP1 DUP3 EQ PUSH2 0x179B JUMPI DUP4 PUSH1 0x3 ADD DUP2 DUP2 SLOAD DUP2 LT PUSH2 0x1733 JUMPI PUSH2 0x1733 PUSH2 0x3A93 JUMP JUMPDEST SWAP1 PUSH0 MSTORE PUSH1 0x20 PUSH0 KECCAK256 SWAP1 PUSH1 0x2 MUL ADD DUP5 PUSH1 0x3 ADD DUP4 DUP2 SLOAD DUP2 LT PUSH2 0x1754 JUMPI PUSH2 0x1754 PUSH2 0x3A93 JUMP JUMPDEST PUSH0 SWAP2 DUP3 MSTORE PUSH1 0x20 SWAP1 SWAP2 KECCAK256 DUP3 SLOAD PUSH1 0x2 SWAP3 DUP4 MUL SWAP1 SWAP2 ADD DUP1 SLOAD SWAP1 SWAP3 PUSH1 0xFF SWAP1 SWAP3 AND SWAP2 DUP4 SWAP2 PUSH1 0xFF NOT AND SWAP1 PUSH1 0x1 SWAP1 DUP5 SWAP1 DUP2 GT ISZERO PUSH2 0x178C JUMPI PUSH2 0x178C PUSH2 0x3377 JUMP JUMPDEST MUL OR SWAP1 SSTORE POP PUSH1 0x1 SWAP2 DUP3 ADD SLOAD SWAP2 ADD SSTORE JUMPDEST DUP4 PUSH1 0x3 ADD DUP1 SLOAD DUP1 PUSH2 0x17AE JUMPI PUSH2 0x17AE PUSH2 0x3B4E JUMP JUMPDEST PUSH0 DUP3 DUP2 MSTORE PUSH1 0x20 DUP2 KECCAK256 PUSH1 0x2 PUSH0 NOT SWAP1 SWAP4 ADD SWAP3 DUP4 MUL ADD DUP1 SLOAD PUSH1 0xFF NOT AND DUP2 SSTORE PUSH1 0x1 SWAP1 DUP2 ADD DUP3 SWAP1 SSTORE SWAP2 SWAP1 SWAP3 SSTORE DUP5 ADD DUP2 SWAP1 SSTORE PUSH1 0x40 MLOAD DUP10 SWAP2 DUP10 SWAP2 PUSH32 0xD22EF99C12AEAECAC27F6067207B23AC6A9AE5F21E97134B39E98320AA04FA5D SWAP2 SWAP1 LOG3 POP POP POP POP PUSH2 0x1468 JUMP JUMPDEST PUSH1 0x1 ADD PUSH2 0x16CB JUMP JUMPDEST POP PUSH1 0x40 MLOAD PUSH3 0x461BCD PUSH1 0xE5 SHL DUP2 MSTORE PUSH1 0x20 PUSH1 0x4 DUP3 ADD MSTORE PUSH1 0xF PUSH1 0x24 DUP3 ADD MSTORE PUSH15 0x10DA1A5B19081B9BDD08199BDD5B99 PUSH1 0x8A SHL PUSH1 0x44 DUP3 ADD MSTORE PUSH1 0x64 ADD PUSH2 0x233 JUMP JUMPDEST PUSH2 0x1859 PUSH2 0x1D63 JUMP JUMPDEST CALLVALUE ISZERO PUSH2 0x1878 JUMPI PUSH1 0x40 MLOAD PUSH4 0xF36BA737 PUSH1 0xE0 SHL DUP2 MSTORE PUSH1 0x4 ADD PUSH1 0x40 MLOAD DUP1 SWAP2 SUB SWAP1 REVERT JUMPDEST PUSH2 0x149F DUP3 DUP3 PUSH2 0x235B JUMP JUMPDEST PUSH1 0x1 PUSH1 0x1 PUSH1 0xA0 SHL SUB DUP2 AND PUSH0 SWAP1 DUP2 MSTORE PUSH1 0x4 PUSH1 0x20 MSTORE PUSH1 0x40 SWAP1 KECCAK256 PUSH1 0x60 SWAP1 PUSH2 0x7D7 SWAP1 PUSH2 0x2042 JUMP JUMPDEST PUSH2 0x18AD PUSH2 0x1D63 JUMP JUMPDEST DUP2 MLOAD DUP4 MLOAD EQ ISZERO DUP1 PUSH2 0x18C0 JUMPI POP DUP1 MLOAD DUP3 MLOAD EQ ISZERO JUMPDEST ISZERO PUSH2 0x18DE JUMPI PUSH1 0x40 MLOAD PUSH4 0x17D38EFF PUSH1 0xE1 SHL DUP2 MSTORE PUSH1 0x4 ADD PUSH1 0x40 MLOAD DUP1 SWAP2 SUB SWAP1 REVERT JUMPDEST DUP3 MLOAD PUSH0 SUB PUSH2 0x18FF JUMPI PUSH1 0x40 MLOAD PUSH4 0x80C98305 PUSH1 0xE0 SHL DUP2 MSTORE PUSH1 0x4 ADD PUSH1 0x40 MLOAD DUP1 SWAP2 SUB SWAP1 REVERT JUMPDEST PUSH0 JUMPDEST DUP4 MLOAD DUP2 LT ISZERO PUSH2 0x1468 JUMPI PUSH2 0x1960 DUP5 DUP3 DUP2 MLOAD DUP2 LT PUSH2 0x191F JUMPI PUSH2 0x191F PUSH2 0x3A93 JUMP JUMPDEST PUSH1 0x20 MUL PUSH1 0x20 ADD ADD MLOAD DUP5 DUP4 DUP2 MLOAD DUP2 LT PUSH2 0x1939 JUMPI PUSH2 0x1939 PUSH2 0x3A93 JUMP JUMPDEST PUSH1 0x20 MUL PUSH1 0x20 ADD ADD MLOAD DUP5 DUP5 DUP2 MLOAD DUP2 LT PUSH2 0x1953 JUMPI PUSH2 0x1953 PUSH2 0x3A93 JUMP JUMPDEST PUSH1 0x20 MUL PUSH1 0x20 ADD ADD MLOAD PUSH2 0x23F2 JUMP JUMPDEST PUSH1 0x1 ADD PUSH2 0x1901 JUMP JUMPDEST DUP3 PUSH0 PUSH2 0x1973 DUP3 PUSH2 0x9A9 JUMP JUMPDEST SWAP1 POP CALLER PUSH1 0x1 PUSH1 0x1 PUSH1 0xA0 SHL SUB DUP3 AND EQ DUP1 PUSH2 0x1995 JUMPI POP PUSH0 SLOAD PUSH1 0x1 PUSH1 0x1 PUSH1 0xA0 SHL SUB AND CALLER EQ JUMPDEST PUSH2 0x19B1 JUMPI PUSH1 0x40 MLOAD PUSH3 0x461BCD PUSH1 0xE5 SHL DUP2 MSTORE PUSH1 0x4 ADD PUSH2 0x233 SWAP1 PUSH2 0x3AA7 JUMP JUMPDEST PUSH2 0xE14 DUP6 DUP6 DUP6 PUSH2 0x23F2 JUMP JUMPDEST PUSH0 PUSH2 0x19C6 DUP5 PUSH2 0x9A9 JUMP JUMPDEST SWAP1 POP CALLER PUSH1 0x1 PUSH1 0x1 PUSH1 0xA0 SHL SUB DUP3 AND EQ PUSH2 0x1A19 JUMPI PUSH1 0x1 PUSH1 0x1 PUSH1 0xA0 SHL SUB DUP6 AND CALLER EQ PUSH2 0x1A19 JUMPI PUSH1 0x40 MLOAD PUSH4 0x760B5ACD PUSH1 0xE0 SHL DUP2 MSTORE CALLER PUSH1 0x4 DUP3 ADD MSTORE PUSH1 0x1 PUSH1 0x1 PUSH1 0xA0 SHL SUB DUP3 AND PUSH1 0x24 DUP3 ADD MSTORE PUSH1 0x44 DUP2 ADD DUP6 SWAP1 MSTORE PUSH1 0x64 ADD PUSH2 0x233 JUMP JUMPDEST PUSH1 0x1 PUSH1 0x1 PUSH1 0xA0 SHL SUB DUP6 AND PUSH2 0x1A40 JUMPI PUSH1 0x40 MLOAD PUSH4 0x9577B8B3 PUSH1 0xE0 SHL DUP2 MSTORE PUSH1 0x4 ADD PUSH1 0x40 MLOAD DUP1 SWAP2 SUB SWAP1 REVERT JUMPDEST DUP5 PUSH1 0x1 PUSH1 0x1 PUSH1 0xA0 SHL SUB AND DUP2 PUSH1 0x1 PUSH1 0x1 PUSH1 0xA0 SHL SUB AND SUB PUSH2 0x1A72 JUMPI PUSH1 0x40 MLOAD PUSH4 0x44FED6B1 PUSH1 0xE1 SHL DUP2 MSTORE PUSH1 0x4 ADD PUSH1 0x40 MLOAD DUP1 SWAP2 SUB SWAP1 REVERT JUMPDEST PUSH2 0x1A7F DUP6 DUP3 DUP7 DUP7 DUP7 PUSH2 0x2480 JUMP JUMPDEST DUP3 ISZERO PUSH2 0xE14 JUMPI PUSH0 DUP2 DUP6 PUSH0 DUP6 PUSH1 0x40 MLOAD PUSH1 0x20 ADD PUSH2 0x15F7 SWAP5 SWAP4 SWAP3 SWAP2 SWAP1 PUSH2 0x3B62 JUMP JUMPDEST PUSH1 0x60 DUP2 MLOAD PUSH1 0x1 PUSH1 0x1 PUSH1 0x40 SHL SUB DUP2 GT ISZERO PUSH2 0x1AB8 JUMPI PUSH2 0x1AB8 PUSH2 0x2D03 JUMP JUMPDEST PUSH1 0x40 MLOAD SWAP1 DUP1 DUP3 MSTORE DUP1 PUSH1 0x20 MUL PUSH1 0x20 ADD DUP3 ADD PUSH1 0x40 MSTORE DUP1 ISZERO PUSH2 0x1AEB JUMPI DUP2 PUSH1 0x20 ADD JUMPDEST PUSH1 0x60 DUP2 MSTORE PUSH1 0x20 ADD SWAP1 PUSH1 0x1 SWAP1 SUB SWAP1 DUP2 PUSH2 0x1AD6 JUMPI SWAP1 POP JUMPDEST POP SWAP1 POP PUSH0 JUMPDEST DUP3 MLOAD DUP2 LT ISZERO PUSH2 0x1B40 JUMPI PUSH2 0x1B1B DUP4 DUP3 DUP2 MLOAD DUP2 LT PUSH2 0x1B0E JUMPI PUSH2 0x1B0E PUSH2 0x3A93 JUMP JUMPDEST PUSH1 0x20 MUL PUSH1 0x20 ADD ADD MLOAD PUSH2 0x222A JUMP JUMPDEST DUP3 DUP3 DUP2 MLOAD DUP2 LT PUSH2 0x1B2D JUMPI PUSH2 0x1B2D PUSH2 0x3A93 JUMP JUMPDEST PUSH1 0x20 SWAP1 DUP2 MUL SWAP2 SWAP1 SWAP2 ADD ADD MSTORE PUSH1 0x1 ADD PUSH2 0x1AF0 JUMP JUMPDEST POP SWAP2 SWAP1 POP JUMP JUMPDEST PUSH1 0x9 DUP1 SLOAD PUSH2 0x1B53 SWAP1 PUSH2 0x3963 JUMP JUMPDEST DUP1 PUSH1 0x1F ADD PUSH1 0x20 DUP1 SWAP2 DIV MUL PUSH1 0x20 ADD PUSH1 0x40 MLOAD SWAP1 DUP2 ADD PUSH1 0x40 MSTORE DUP1 SWAP3 SWAP2 SWAP1 DUP2 DUP2 MSTORE PUSH1 0x20 ADD DUP3 DUP1 SLOAD PUSH2 0x1B7F SWAP1 PUSH2 0x3963 JUMP JUMPDEST DUP1 ISZERO PUSH2 0x1BCA JUMPI DUP1 PUSH1 0x1F LT PUSH2 0x1BA1 JUMPI PUSH2 0x100 DUP1 DUP4 SLOAD DIV MUL DUP4 MSTORE SWAP2 PUSH1 0x20 ADD SWAP2 PUSH2 0x1BCA JUMP JUMPDEST DUP3 ADD SWAP2 SWAP1 PUSH0 MSTORE PUSH1 0x20 PUSH0 KECCAK256 SWAP1 JUMPDEST DUP2 SLOAD DUP2 MSTORE SWAP1 PUSH1 0x1 ADD SWAP1 PUSH1 0x20 ADD DUP1 DUP4 GT PUSH2 0x1BAD JUMPI DUP3 SWAP1 SUB PUSH1 0x1F AND DUP3 ADD SWAP2 JUMPDEST POP POP POP POP POP DUP2 JUMP JUMPDEST PUSH2 0x1BDA PUSH2 0x1D63 JUMP JUMPDEST PUSH1 0x1 PUSH1 0x1 PUSH1 0xA0 SHL SUB DUP2 AND PUSH2 0x857 JUMPI PUSH1 0x40 MLOAD PUSH3 0x461BCD PUSH1 0xE5 SHL DUP2 MSTORE PUSH1 0x20 PUSH1 0x4 DUP3 ADD MSTORE PUSH1 0x26 PUSH1 0x24 DUP3 ADD MSTORE PUSH32 0x4F776E61626C653A206E6577206F776E657220697320746865207A65726F2061 PUSH1 0x44 DUP3 ADD MSTORE PUSH6 0x646472657373 PUSH1 0xD0 SHL PUSH1 0x64 DUP3 ADD MSTORE PUSH1 0x84 ADD PUSH2 0x233 JUMP JUMPDEST PUSH0 DUP1 DUP1 PUSH2 0x1C63 PUSH10 0x6773C5A04A6D4300884B PUSH1 0xB1 SHL PUSH1 0x1 PUSH1 0x1 PUSH1 0xE0 SHL SUB NOT DUP7 AND PUSH2 0x251F JUMP JUMPDEST SWAP1 POP PUSH0 PUSH2 0x1C6F DUP3 PUSH2 0x222A JUMP JUMPDEST SWAP1 POP DUP1 MLOAD PUSH1 0x14 EQ ISZERO DUP1 ISZERO PUSH2 0x1C83 JUMPI POP DUP1 MLOAD ISZERO ISZERO JUMPDEST ISZERO PUSH2 0x1CA3 JUMPI DUP1 PUSH1 0x40 MLOAD PUSH4 0x42BFE79F PUSH1 0xE0 SHL DUP2 MSTORE PUSH1 0x4 ADD PUSH2 0x233 SWAP2 SWAP1 PUSH2 0x2E40 JUMP JUMPDEST PUSH2 0x1CAC DUP2 PUSH2 0x3B9A JUMP JUMPDEST PUSH1 0x60 SHR SWAP6 PUSH1 0x1 SWAP6 POP SWAP4 POP POP POP POP JUMP JUMPDEST PUSH0 PUSH1 0x1 PUSH1 0x1 PUSH1 0xE0 SHL SUB NOT DUP3 AND PUSH4 0xA918FA6B PUSH1 0xE0 SHL EQ DUP1 PUSH2 0x7D7 JUMPI POP PUSH2 0x7D7 DUP3 PUSH2 0x2572 JUMP JUMPDEST PUSH0 DUP1 PUSH2 0x1CF1 PUSH4 0x1FFC9A7 PUSH1 0xE0 SHL PUSH2 0x1C3F JUMP JUMPDEST POP SWAP1 POP PUSH1 0x1 PUSH1 0x1 PUSH1 0xA0 SHL SUB DUP2 AND PUSH2 0x1D0A JUMPI POP PUSH0 SWAP3 SWAP2 POP POP JUMP JUMPDEST PUSH2 0x8BC DUP2 DUP5 PUSH2 0x25A6 JUMP JUMPDEST PUSH0 DUP1 SLOAD PUSH1 0x1 PUSH1 0x1 PUSH1 0xA0 SHL SUB DUP4 DUP2 AND PUSH1 0x1 PUSH1 0x1 PUSH1 0xA0 SHL SUB NOT DUP4 AND DUP2 OR DUP5 SSTORE PUSH1 0x40 MLOAD SWAP2 SWAP1 SWAP3 AND SWAP3 DUP4 SWAP2 PUSH32 0x8BE0079C531659141344CD1FD0A4F28419497F9722A3DAAFE3B4186F6B6457E0 SWAP2 SWAP1 LOG3 POP POP JUMP JUMPDEST PUSH0 SLOAD PUSH1 0x1 PUSH1 0x1 PUSH1 0xA0 SHL SUB AND CALLER EQ PUSH2 0x1127 JUMPI PUSH1 0x40 MLOAD PUSH3 0x461BCD PUSH1 0xE5 SHL DUP2 MSTORE PUSH1 0x20 PUSH1 0x4 DUP3 ADD DUP2 SWAP1 MSTORE PUSH1 0x24 DUP3 ADD MSTORE PUSH32 0x4F776E61626C653A2063616C6C6572206973206E6F7420746865206F776E6572 PUSH1 0x44 DUP3 ADD MSTORE PUSH1 0x64 ADD PUSH2 0x233 JUMP JUMPDEST PUSH1 0x60 PUSH1 0x1 PUSH0 DUP5 DUP5 PUSH1 0x40 MLOAD PUSH1 0x20 ADD PUSH2 0x1DDD SWAP3 SWAP2 SWAP1 SWAP2 DUP3 MSTORE PUSH1 0x20 DUP3 ADD MSTORE PUSH1 0x40 ADD SWAP1 JUMP JUMPDEST PUSH1 0x40 MLOAD PUSH1 0x20 DUP2 DUP4 SUB SUB DUP2 MSTORE SWAP1 PUSH1 0x40 MSTORE DUP1 MLOAD SWAP1 PUSH1 0x20 ADD KECCAK256 DUP2 MSTORE PUSH1 0x20 ADD SWAP1 DUP2 MSTORE PUSH1 0x20 ADD PUSH0 KECCAK256 DUP1 SLOAD PUSH2 0x1E0B SWAP1 PUSH2 0x3963 JUMP JUMPDEST DUP1 PUSH1 0x1F ADD PUSH1 0x20 DUP1 SWAP2 DIV MUL PUSH1 0x20 ADD PUSH1 0x40 MLOAD SWAP1 DUP2 ADD PUSH1 0x40 MSTORE DUP1 SWAP3 SWAP2 SWAP1 DUP2 DUP2 MSTORE PUSH1 0x20 ADD DUP3 DUP1 SLOAD PUSH2 0x1E37 SWAP1 PUSH2 0x3963 JUMP JUMPDEST DUP1 ISZERO PUSH2 0x1E82 JUMPI DUP1 PUSH1 0x1F LT PUSH2 0x1E59 JUMPI PUSH2 0x100 DUP1 DUP4 SLOAD DIV MUL DUP4 MSTORE SWAP2 PUSH1 0x20 ADD SWAP2 PUSH2 0x1E82 JUMP JUMPDEST DUP3 ADD SWAP2 SWAP1 PUSH0 MSTORE PUSH1 0x20 PUSH0 KECCAK256 SWAP1 JUMPDEST DUP2 SLOAD DUP2 MSTORE SWAP1 PUSH1 0x1 ADD SWAP1 PUSH1 0x20 ADD DUP1 DUP4 GT PUSH2 0x1E65 JUMPI DUP3 SWAP1 SUB PUSH1 0x1F AND DUP3 ADD SWAP2 JUMPDEST POP POP POP POP POP SWAP1 POP SWAP3 SWAP2 POP POP JUMP JUMPDEST PUSH0 PUSH2 0x1E9E PUSH1 0x6 DUP1 SLOAD PUSH1 0x1 ADD SWAP1 SSTORE JUMP JUMPDEST PUSH1 0x6 SLOAD PUSH0 SHL SWAP1 POP PUSH2 0x1EC0 DUP6 DUP3 PUSH1 0x1 PUSH1 0x40 MLOAD DUP1 PUSH1 0x20 ADD PUSH1 0x40 MSTORE DUP1 PUSH0 DUP2 MSTORE POP PUSH2 0x262C JUMP JUMPDEST PUSH0 DUP2 DUP2 MSTORE PUSH1 0x7 PUSH1 0x20 MSTORE PUSH1 0x40 SWAP1 KECCAK256 DUP1 PUSH2 0x1ED8 DUP10 DUP3 PUSH2 0x39D9 JUMP JUMPDEST POP DUP4 MLOAD PUSH1 0x6 DUP3 ADD DUP1 SLOAD PUSH1 0x20 DUP1 DUP9 ADD MLOAD PUSH1 0x40 DUP1 DUP11 ADD MLOAD PUSH2 0xFFFF SWAP7 DUP8 AND PUSH3 0xFFFFFF NOT SWAP6 DUP7 AND OR PUSH3 0x10000 PUSH1 0xFF SWAP5 DUP6 AND DUP2 MUL SWAP2 SWAP1 SWAP2 OR PUSH4 0xFF000000 NOT SWAP1 DUP2 AND PUSH4 0x1000000 SWAP4 DUP7 AND DUP5 MUL OR SWAP1 SWAP8 SSTORE DUP11 MLOAD PUSH1 0x7 DUP11 ADD DUP1 SLOAD SWAP7 DUP14 ADD MLOAD SWAP5 DUP14 ADD MLOAD SWAP2 SWAP1 SWAP10 AND SWAP6 SWAP1 SWAP7 AND SWAP5 SWAP1 SWAP5 OR SWAP2 DUP4 AND SWAP1 SWAP4 MUL OR SWAP1 SWAP4 AND SWAP2 SWAP1 SWAP3 AND SWAP1 SWAP2 MUL OR SWAP1 SSTORE PUSH1 0x5 DUP2 ADD DUP1 SLOAD DUP7 SWAP2 SWAP1 PUSH1 0xFF NOT AND PUSH1 0x1 DUP4 PUSH1 0x2 DUP2 GT ISZERO PUSH2 0x1F73 JUMPI PUSH2 0x1F73 PUSH2 0x3377 JUMP JUMPDEST MUL OR SWAP1 SSTORE POP PUSH1 0x8 DUP2 ADD PUSH2 0x1F86 DUP9 DUP3 PUSH2 0x39D9 JUMP JUMPDEST POP PUSH1 0x40 MLOAD PUSH1 0x1 PUSH1 0x1 PUSH1 0xA0 SHL SUB DUP8 AND DUP2 MSTORE DUP3 SWAP1 PUSH32 0xA6912C28A8CB5FC5CAB504E471CFA6BC504444025484D810E2565BC7DEAD6657 SWAP1 PUSH1 0x20 ADD PUSH1 0x40 MLOAD DUP1 SWAP2 SUB SWAP1 LOG2 POP SWAP7 SWAP6 POP POP POP POP POP POP JUMP JUMPDEST PUSH0 PUSH2 0x1FDA DUP3 PUSH2 0x9A9 JUMP JUMPDEST PUSH1 0x1 PUSH1 0x1 PUSH1 0xA0 SHL SUB AND DUP4 PUSH1 0x1 PUSH1 0x1 PUSH1 0xA0 SHL SUB AND EQ DUP1 PUSH2 0x8BC JUMPI POP PUSH0 DUP3 DUP2 MSTORE PUSH1 0x5 PUSH1 0x20 MSTORE PUSH1 0x40 SWAP1 KECCAK256 PUSH2 0x8BC SWAP1 DUP5 PUSH2 0x2795 JUMP JUMPDEST PUSH0 DUP2 DUP2 MSTORE PUSH1 0x3 PUSH1 0x20 MSTORE PUSH1 0x40 SWAP1 KECCAK256 SLOAD PUSH1 0x1 PUSH1 0x1 PUSH1 0xA0 SHL SUB AND PUSH2 0x860 JUMPI PUSH1 0x40 MLOAD PUSH4 0x5747CD1B PUSH1 0xE1 SHL DUP2 MSTORE PUSH1 0x4 DUP2 ADD DUP3 SWAP1 MSTORE PUSH1 0x24 ADD PUSH2 0x233 JUMP JUMPDEST PUSH1 0x60 PUSH0 PUSH2 0x8BC DUP4 PUSH2 0x27B6 JUMP JUMPDEST PUSH0 PUSH2 0x2058 DUP5 PUSH2 0x9A9 JUMP JUMPDEST SWAP1 POP DUP6 PUSH1 0x1 PUSH1 0x1 PUSH1 0xA0 SHL SUB AND DUP2 PUSH1 0x1 PUSH1 0x1 PUSH1 0xA0 SHL SUB AND EQ PUSH2 0x20A6 JUMPI PUSH1 0x40 MLOAD PUSH4 0x2D938F51 PUSH1 0xE1 SHL DUP2 MSTORE PUSH1 0x1 PUSH1 0x1 PUSH1 0xA0 SHL SUB DUP1 DUP4 AND PUSH1 0x4 DUP4 ADD MSTORE PUSH1 0x24 DUP3 ADD DUP7 SWAP1 MSTORE DUP8 AND PUSH1 0x44 DUP3 ADD MSTORE PUSH1 0x64 ADD PUSH2 0x233 JUMP JUMPDEST PUSH1 0x1 PUSH1 0x1 PUSH1 0xA0 SHL SUB DUP6 AND PUSH2 0x20CD JUMPI PUSH1 0x40 MLOAD PUSH4 0x24ECEF4D PUSH1 0xE0 SHL DUP2 MSTORE PUSH1 0x4 ADD PUSH1 0x40 MLOAD DUP1 SWAP2 SUB SWAP1 REVERT JUMPDEST PUSH0 PUSH2 0x20D7 DUP6 PUSH2 0x9A9 JUMP JUMPDEST SWAP1 POP DUP1 PUSH1 0x1 PUSH1 0x1 PUSH1 0xA0 SHL SUB AND DUP3 PUSH1 0x1 PUSH1 0x1 PUSH1 0xA0 SHL SUB AND EQ PUSH2 0x2125 JUMPI PUSH1 0x40 MLOAD PUSH4 0x5A9C31D3 PUSH1 0xE0 SHL DUP2 MSTORE PUSH1 0x4 DUP2 ADD DUP7 SWAP1 MSTORE PUSH1 0x1 PUSH1 0x1 PUSH1 0xA0 SHL SUB DUP1 DUP5 AND PUSH1 0x24 DUP4 ADD MSTORE DUP3 AND PUSH1 0x44 DUP3 ADD MSTORE PUSH1 0x64 ADD PUSH2 0x233 JUMP JUMPDEST PUSH2 0x212F DUP8 DUP7 PUSH2 0x280E JUMP JUMPDEST PUSH1 0x1 PUSH1 0x1 PUSH1 0xA0 SHL SUB DUP8 AND PUSH0 SWAP1 DUP2 MSTORE PUSH1 0x4 PUSH1 0x20 MSTORE PUSH1 0x40 SWAP1 KECCAK256 PUSH2 0x2150 SWAP1 DUP7 PUSH2 0x2861 JUMP JUMPDEST POP PUSH1 0x1 PUSH1 0x1 PUSH1 0xA0 SHL SUB DUP7 AND PUSH0 SWAP1 DUP2 MSTORE PUSH1 0x4 PUSH1 0x20 MSTORE PUSH1 0x40 SWAP1 KECCAK256 PUSH2 0x2172 SWAP1 DUP7 PUSH2 0x286C JUMP JUMPDEST POP PUSH0 DUP6 DUP2 MSTORE PUSH1 0x3 PUSH1 0x20 MSTORE PUSH1 0x40 SWAP1 DUP2 SWAP1 KECCAK256 DUP1 SLOAD PUSH1 0x1 PUSH1 0x1 PUSH1 0xA0 SHL SUB NOT AND PUSH1 0x1 PUSH1 0x1 PUSH1 0xA0 SHL SUB DUP10 DUP2 AND SWAP2 DUP3 OR SWAP1 SWAP3 SSTORE SWAP2 MLOAD DUP8 SWAP3 SWAP2 DUP11 AND SWAP1 PUSH32 0xB333C813A7426A7A11E2B190CAD52C44119421594B47F6F32ACE6D8C7207B2BF SWAP1 PUSH2 0x21D8 SWAP1 CALLER SWAP1 DUP11 SWAP1 DUP11 SWAP1 PUSH2 0x3BE8 JUMP JUMPDEST PUSH1 0x40 MLOAD DUP1 SWAP2 SUB SWAP1 LOG4 PUSH0 CALLER DUP9 DUP9 DUP9 DUP8 PUSH1 0x40 MLOAD PUSH1 0x20 ADD PUSH2 0x21FA SWAP6 SWAP5 SWAP4 SWAP3 SWAP2 SWAP1 PUSH2 0x3C1C JUMP JUMPDEST PUSH1 0x40 MLOAD PUSH1 0x20 DUP2 DUP4 SUB SUB DUP2 MSTORE SWAP1 PUSH1 0x40 MSTORE SWAP1 POP PUSH2 0x2215 DUP9 DUP3 PUSH2 0x2877 JUMP JUMPDEST PUSH2 0x2220 DUP8 DUP7 DUP4 PUSH2 0x28A2 JUMP JUMPDEST POP POP POP POP POP POP POP POP JUMP JUMPDEST PUSH0 DUP2 DUP2 MSTORE PUSH1 0x1 PUSH1 0x20 MSTORE PUSH1 0x40 SWAP1 KECCAK256 DUP1 SLOAD PUSH1 0x60 SWAP2 SWAP1 PUSH2 0x2246 SWAP1 PUSH2 0x3963 JUMP JUMPDEST DUP1 PUSH1 0x1F ADD PUSH1 0x20 DUP1 SWAP2 DIV MUL PUSH1 0x20 ADD PUSH1 0x40 MLOAD SWAP1 DUP2 ADD PUSH1 0x40 MSTORE DUP1 SWAP3 SWAP2 SWAP1 DUP2 DUP2 MSTORE PUSH1 0x20 ADD DUP3 DUP1 SLOAD PUSH2 0x2272 SWAP1 PUSH2 0x3963 JUMP JUMPDEST DUP1 ISZERO PUSH2 0x22BD JUMPI DUP1 PUSH1 0x1F LT PUSH2 0x2294 JUMPI PUSH2 0x100 DUP1 DUP4 SLOAD DIV MUL DUP4 MSTORE SWAP2 PUSH1 0x20 ADD SWAP2 PUSH2 0x22BD JUMP JUMPDEST DUP3 ADD SWAP2 SWAP1 PUSH0 MSTORE PUSH1 0x20 PUSH0 KECCAK256 SWAP1 JUMPDEST DUP2 SLOAD DUP2 MSTORE SWAP1 PUSH1 0x1 ADD SWAP1 PUSH1 0x20 ADD DUP1 DUP4 GT PUSH2 0x22A0 JUMPI DUP3 SWAP1 SUB PUSH1 0x1F AND DUP3 ADD SWAP2 JUMPDEST POP POP POP POP POP SWAP1 POP SWAP2 SWAP1 POP JUMP JUMPDEST PUSH0 PUSH2 0x7D7 DUP3 SLOAD SWAP1 JUMP JUMPDEST PUSH32 0x98A16C9E50E3E99B3E797305C146898D294E5AEC55A47E213CB3611CCF17E73 DUP3 ADD PUSH2 0x2312 JUMPI PUSH1 0x40 MLOAD PUSH4 0x1B324005 PUSH1 0xE1 SHL DUP2 MSTORE PUSH1 0x4 ADD PUSH1 0x40 MLOAD DUP1 SWAP2 SUB SWAP1 REVERT JUMPDEST PUSH2 0x149F DUP3 DUP3 PUSH2 0x29A5 JUMP JUMPDEST PUSH0 PUSH2 0x8BC DUP4 PUSH1 0x1 PUSH1 0x1 PUSH1 0xA0 SHL SUB DUP5 AND PUSH2 0x2AB9 JUMP JUMPDEST PUSH2 0x149F DUP3 PUSH32 0x8A1C15A8799F71B547E08E2BCB2E85257E81B0A07EEE2CE6712549EEF1F00970 DUP4 PUSH2 0x2B05 JUMP JUMPDEST DUP1 MLOAD DUP3 MLOAD EQ PUSH2 0x237D JUMPI PUSH1 0x40 MLOAD PUSH4 0x3BCC8979 PUSH1 0xE0 SHL DUP2 MSTORE PUSH1 0x4 ADD PUSH1 0x40 MLOAD DUP1 SWAP2 SUB SWAP1 REVERT JUMPDEST DUP2 MLOAD PUSH0 SUB PUSH2 0x239E JUMPI PUSH1 0x40 MLOAD PUSH4 0x97DA5F95 PUSH1 0xE0 SHL DUP2 MSTORE PUSH1 0x4 ADD PUSH1 0x40 MLOAD DUP1 SWAP2 SUB SWAP1 REVERT JUMPDEST PUSH0 JUMPDEST DUP3 MLOAD DUP2 LT ISZERO PUSH2 0x23ED JUMPI PUSH2 0x23E5 DUP4 DUP3 DUP2 MLOAD DUP2 LT PUSH2 0x23BE JUMPI PUSH2 0x23BE PUSH2 0x3A93 JUMP JUMPDEST PUSH1 0x20 MUL PUSH1 0x20 ADD ADD MLOAD DUP4 DUP4 DUP2 MLOAD DUP2 LT PUSH2 0x23D8 JUMPI PUSH2 0x23D8 PUSH2 0x3A93 JUMP JUMPDEST PUSH1 0x20 MUL PUSH1 0x20 ADD ADD MLOAD PUSH2 0x22D2 JUMP JUMPDEST PUSH1 0x1 ADD PUSH2 0x23A0 JUMP JUMPDEST POP POP POP JUMP JUMPDEST DUP1 PUSH1 0x1 PUSH0 DUP6 DUP6 PUSH1 0x40 MLOAD PUSH1 0x20 ADD PUSH2 0x2412 SWAP3 SWAP2 SWAP1 SWAP2 DUP3 MSTORE PUSH1 0x20 DUP3 ADD MSTORE PUSH1 0x40 ADD SWAP1 JUMP JUMPDEST PUSH1 0x40 MLOAD PUSH1 0x20 DUP2 DUP4 SUB SUB DUP2 MSTORE SWAP1 PUSH1 0x40 MSTORE DUP1 MLOAD SWAP1 PUSH1 0x20 ADD KECCAK256 DUP2 MSTORE PUSH1 0x20 ADD SWAP1 DUP2 MSTORE PUSH1 0x20 ADD PUSH0 KECCAK256 SWAP1 DUP2 PUSH2 0x2441 SWAP2 SWAP1 PUSH2 0x39D9 JUMP JUMPDEST POP DUP2 DUP4 PUSH32 0xA6E4251F855F750545FE414F120DB91C76B88DEF14D120969E5BB2D3F05DEBBB DUP4 PUSH1 0x40 MLOAD PUSH2 0x2473 SWAP2 SWAP1 PUSH2 0x2E40 JUMP JUMPDEST PUSH1 0x40 MLOAD DUP1 SWAP2 SUB SWAP1 LOG3 POP POP POP JUMP JUMPDEST PUSH0 DUP4 DUP2 MSTORE PUSH1 0x5 PUSH1 0x20 MSTORE PUSH1 0x40 DUP2 KECCAK256 PUSH2 0x2497 SWAP1 DUP8 PUSH2 0x2B52 JUMP JUMPDEST SWAP1 POP DUP1 PUSH2 0x24C9 JUMPI PUSH1 0x40 MLOAD PUSH4 0x12A8C6A3 PUSH1 0xE2 SHL DUP2 MSTORE PUSH1 0x1 PUSH1 0x1 PUSH1 0xA0 SHL SUB DUP8 AND PUSH1 0x4 DUP3 ADD MSTORE PUSH1 0x24 DUP2 ADD DUP6 SWAP1 MSTORE PUSH1 0x44 ADD PUSH2 0x233 JUMP JUMPDEST DUP4 DUP6 PUSH1 0x1 PUSH1 0x1 PUSH1 0xA0 SHL SUB AND DUP8 PUSH1 0x1 PUSH1 0x1 PUSH1 0xA0 SHL SUB AND PUSH32 0xC78CD419D6136F9F1C1C6AEC1D3FAE098CFFAF8BC86314A8F2685E32FE574E3C DUP7 DUP7 PUSH1 0x40 MLOAD PUSH2 0x250F SWAP3 SWAP2 SWAP1 PUSH2 0x3C56 JUMP JUMPDEST PUSH1 0x40 MLOAD DUP1 SWAP2 SUB SWAP1 LOG4 POP POP POP POP POP POP JUMP JUMPDEST PUSH1 0x40 DUP1 MLOAD PUSH1 0x1 PUSH1 0x1 PUSH1 0xB0 SHL SUB NOT DUP5 AND PUSH1 0x20 DUP3 ADD MSTORE PUSH0 PUSH1 0x2A DUP3 ADD DUP2 SWAP1 MSTORE PUSH1 0x1 PUSH1 0x1 PUSH1 0x60 SHL SUB NOT DUP5 AND PUSH1 0x2C DUP4 ADD MSTORE SWAP2 DUP3 SWAP2 ADD PUSH1 0x40 MLOAD PUSH1 0x20 DUP2 DUP4 SUB SUB DUP2 MSTORE SWAP1 PUSH1 0x40 MSTORE SWAP1 POP DUP1 PUSH2 0x256A SWAP1 PUSH2 0x3C70 JUMP JUMPDEST SWAP5 SWAP4 POP POP POP POP JUMP JUMPDEST PUSH0 PUSH1 0x1 PUSH1 0x1 PUSH1 0xE0 SHL SUB NOT DUP3 AND PUSH4 0x18A6A9A5 PUSH1 0xE2 SHL EQ DUP1 PUSH2 0x7D7 JUMPI POP PUSH4 0x1FFC9A7 PUSH1 0xE0 SHL PUSH1 0x1 PUSH1 0x1 PUSH1 0xE0 SHL SUB NOT DUP4 AND EQ PUSH2 0x7D7 JUMP JUMPDEST PUSH1 0x40 DUP1 MLOAD PUSH1 0x1 PUSH1 0x1 PUSH1 0xE0 SHL SUB NOT DUP4 AND PUSH1 0x24 DUP1 DUP4 ADD SWAP2 SWAP1 SWAP2 MSTORE DUP3 MLOAD DUP1 DUP4 SUB SWAP1 SWAP2 ADD DUP2 MSTORE PUSH1 0x44 SWAP1 SWAP2 ADD SWAP1 SWAP2 MSTORE PUSH1 0x20 DUP1 DUP3 ADD DUP1 MLOAD PUSH1 0x1 PUSH1 0x1 PUSH1 0xE0 SHL SUB AND PUSH4 0x1FFC9A7 PUSH1 0xE0 SHL OR DUP2 MSTORE DUP3 MLOAD PUSH0 SWAP4 SWAP3 DUP5 SWAP3 DUP4 SWAP3 DUP4 SWAP3 SWAP2 DUP4 SWAP2 SWAP1 DUP11 PUSH2 0x7530 STATICCALL SWAP3 POP RETURNDATASIZE SWAP2 POP PUSH0 MLOAD SWAP1 POP DUP3 DUP1 ISZERO PUSH2 0x2616 JUMPI POP PUSH1 0x20 DUP3 LT ISZERO JUMPDEST DUP1 ISZERO PUSH2 0x2621 JUMPI POP PUSH0 DUP2 GT JUMPDEST SWAP8 SWAP7 POP POP POP POP POP POP POP JUMP JUMPDEST PUSH1 0x1 PUSH1 0x1 PUSH1 0xA0 SHL SUB DUP5 AND PUSH2 0x2653 JUMPI PUSH1 0x40 MLOAD PUSH4 0x24ECEF4D PUSH1 0xE0 SHL DUP2 MSTORE PUSH1 0x4 ADD PUSH1 0x40 MLOAD DUP1 SWAP2 SUB SWAP1 REVERT JUMPDEST PUSH0 DUP4 DUP2 MSTORE PUSH1 0x3 PUSH1 0x20 MSTORE PUSH1 0x40 SWAP1 KECCAK256 SLOAD PUSH1 0x1 PUSH1 0x1 PUSH1 0xA0 SHL SUB AND ISZERO PUSH2 0x268B JUMPI PUSH1 0x40 MLOAD PUSH4 0x34C7B511 PUSH1 0xE0 SHL DUP2 MSTORE PUSH1 0x4 DUP2 ADD DUP5 SWAP1 MSTORE PUSH1 0x24 ADD PUSH2 0x233 JUMP JUMPDEST PUSH0 DUP4 DUP2 MSTORE PUSH1 0x3 PUSH1 0x20 MSTORE PUSH1 0x40 SWAP1 KECCAK256 SLOAD PUSH1 0x1 PUSH1 0x1 PUSH1 0xA0 SHL SUB AND ISZERO PUSH2 0x26C3 JUMPI PUSH1 0x40 MLOAD PUSH4 0x34C7B511 PUSH1 0xE0 SHL DUP2 MSTORE PUSH1 0x4 DUP2 ADD DUP5 SWAP1 MSTORE PUSH1 0x24 ADD PUSH2 0x233 JUMP JUMPDEST PUSH1 0x2 PUSH0 DUP2 SLOAD PUSH2 0x26D1 SWAP1 PUSH2 0x3C93 JUMP JUMPDEST SWAP1 SWAP2 SSTORE POP PUSH1 0x1 PUSH1 0x1 PUSH1 0xA0 SHL SUB DUP5 AND PUSH0 SWAP1 DUP2 MSTORE PUSH1 0x4 PUSH1 0x20 MSTORE PUSH1 0x40 SWAP1 KECCAK256 PUSH2 0x26F6 SWAP1 DUP5 PUSH2 0x286C JUMP JUMPDEST POP PUSH0 DUP4 DUP2 MSTORE PUSH1 0x3 PUSH1 0x20 MSTORE PUSH1 0x40 DUP1 DUP3 KECCAK256 DUP1 SLOAD PUSH1 0x1 PUSH1 0x1 PUSH1 0xA0 SHL SUB NOT AND PUSH1 0x1 PUSH1 0x1 PUSH1 0xA0 SHL SUB DUP9 AND SWAP1 DUP2 OR SWAP1 SWAP2 SSTORE SWAP1 MLOAD DUP6 SWAP3 SWAP1 PUSH32 0xB333C813A7426A7A11E2B190CAD52C44119421594B47F6F32ACE6D8C7207B2BF SWAP1 PUSH2 0x2757 SWAP1 CALLER SWAP1 DUP9 SWAP1 DUP9 SWAP1 PUSH2 0x3BE8 JUMP JUMPDEST PUSH1 0x40 MLOAD DUP1 SWAP2 SUB SWAP1 LOG4 PUSH0 CALLER PUSH0 DUP7 DUP7 DUP6 PUSH1 0x40 MLOAD PUSH1 0x20 ADD PUSH2 0x2779 SWAP6 SWAP5 SWAP4 SWAP3 SWAP2 SWAP1 PUSH2 0x3C1C JUMP JUMPDEST PUSH1 0x40 MLOAD PUSH1 0x20 DUP2 DUP4 SUB SUB DUP2 MSTORE SWAP1 PUSH1 0x40 MSTORE SWAP1 POP PUSH2 0xE14 DUP6 DUP5 DUP4 PUSH2 0x28A2 JUMP JUMPDEST PUSH1 0x1 PUSH1 0x1 PUSH1 0xA0 SHL SUB DUP2 AND PUSH0 SWAP1 DUP2 MSTORE PUSH1 0x1 DUP4 ADD PUSH1 0x20 MSTORE PUSH1 0x40 DUP2 KECCAK256 SLOAD ISZERO ISZERO PUSH2 0x8BC JUMP JUMPDEST PUSH1 0x60 DUP2 PUSH0 ADD DUP1 SLOAD DUP1 PUSH1 0x20 MUL PUSH1 0x20 ADD PUSH1 0x40 MLOAD SWAP1 DUP2 ADD PUSH1 0x40 MSTORE DUP1 SWAP3 SWAP2 SWAP1 DUP2 DUP2 MSTORE PUSH1 0x20 ADD DUP3 DUP1 SLOAD DUP1 ISZERO PUSH2 0x22BD JUMPI PUSH1 0x20 MUL DUP3 ADD SWAP2 SWAP1 PUSH0 MSTORE PUSH1 0x20 PUSH0 KECCAK256 SWAP1 JUMPDEST DUP2 SLOAD DUP2 MSTORE PUSH1 0x20 ADD SWAP1 PUSH1 0x1 ADD SWAP1 DUP1 DUP4 GT PUSH2 0x27EF JUMPI POP POP POP POP POP SWAP1 POP SWAP2 SWAP1 POP JUMP JUMPDEST PUSH0 DUP2 DUP2 MSTORE PUSH1 0x5 PUSH1 0x20 MSTORE PUSH1 0x40 DUP2 KECCAK256 SWAP1 PUSH2 0x2825 DUP3 PUSH2 0x22C9 JUMP JUMPDEST SWAP1 POP PUSH0 PUSH0 JUMPDEST DUP3 DUP2 LT ISZERO PUSH2 0x1612 JUMPI PUSH2 0x283C DUP5 PUSH0 PUSH2 0x2B66 JUMP JUMPDEST SWAP2 POP PUSH2 0x2859 DUP3 DUP8 DUP8 PUSH0 PUSH1 0x40 MLOAD DUP1 PUSH1 0x20 ADD PUSH1 0x40 MSTORE DUP1 PUSH0 DUP2 MSTORE POP PUSH2 0x2480 JUMP JUMPDEST PUSH1 0x1 ADD PUSH2 0x282A JUMP JUMPDEST PUSH0 PUSH2 0x8BC DUP4 DUP4 PUSH2 0x2B71 JUMP JUMPDEST PUSH0 PUSH2 0x8BC DUP4 DUP4 PUSH2 0x2AB9 JUMP JUMPDEST PUSH2 0x149F DUP3 PUSH32 0xB23EAE7E6D1564B295B4C3E3BE402D9A2F0776C57BDF365903496F6FA481AB00 DUP4 PUSH2 0x2B05 JUMP JUMPDEST PUSH2 0x28B3 DUP4 PUSH4 0x1AED5A85 PUSH1 0xE2 SHL PUSH2 0x25A6 JUMP JUMPDEST ISZERO PUSH2 0x2948 JUMPI PUSH1 0x40 MLOAD PUSH4 0x1AED5A85 PUSH1 0xE2 SHL DUP2 MSTORE PUSH1 0x1 PUSH1 0x1 PUSH1 0xA0 SHL SUB DUP5 AND SWAP1 PUSH4 0x6BB56A14 SWAP1 PUSH2 0x2906 SWAP1 PUSH32 0xB084A55EBF70FD3C06FD755269DAC2212C4D3F0F4D09079780BFA50C1B2984D SWAP1 DUP6 SWAP1 PUSH1 0x4 ADD PUSH2 0x3CAB JUMP JUMPDEST PUSH0 PUSH1 0x40 MLOAD DUP1 DUP4 SUB DUP2 PUSH0 DUP8 GAS CALL ISZERO DUP1 ISZERO PUSH2 0x2921 JUMPI RETURNDATASIZE PUSH0 PUSH0 RETURNDATACOPY RETURNDATASIZE PUSH0 REVERT JUMPDEST POP POP POP POP PUSH1 0x40 MLOAD RETURNDATASIZE PUSH0 DUP3 RETURNDATACOPY PUSH1 0x1F RETURNDATASIZE SWAP1 DUP2 ADD PUSH1 0x1F NOT AND DUP3 ADD PUSH1 0x40 MSTORE PUSH2 0x1468 SWAP2 SWAP1 DUP2 ADD SWAP1 PUSH2 0x3CC3 JUMP JUMPDEST DUP2 PUSH2 0x23ED JUMPI PUSH1 0x1 PUSH1 0x1 PUSH1 0xA0 SHL SUB DUP4 AND EXTCODESIZE ISZERO PUSH2 0x2981 JUMPI PUSH1 0x40 MLOAD PUSH4 0x4349776D PUSH1 0xE0 SHL DUP2 MSTORE PUSH1 0x1 PUSH1 0x1 PUSH1 0xA0 SHL SUB DUP5 AND PUSH1 0x4 DUP3 ADD MSTORE PUSH1 0x24 ADD PUSH2 0x233 JUMP JUMPDEST PUSH1 0x40 MLOAD PUSH4 0x3173137 PUSH1 0xE0 SHL DUP2 MSTORE PUSH1 0x1 PUSH1 0x1 PUSH1 0xA0 SHL SUB DUP5 AND PUSH1 0x4 DUP3 ADD MSTORE PUSH1 0x24 ADD PUSH2 0x233 JUMP JUMPDEST PUSH32 0x2145E1D6D074577DC71EF54C3807742B41B053A9352AE6B491331509ACB9750F DUP3 ADD PUSH2 0x29E5 JUMPI PUSH1 0x40 MLOAD PUSH4 0x85C169BD PUSH1 0xE0 SHL DUP2 MSTORE PUSH1 0x4 ADD PUSH1 0x40 MLOAD DUP1 SWAP2 SUB SWAP1 REVERT JUMPDEST PUSH32 0xD0F59754F88971FE6BC5A6618CC9D5F1E859C58D16B22D1C7B2D3E2B246CD8AA DUP3 ADD PUSH2 0x2A25 JUMPI PUSH1 0x40 MLOAD PUSH4 0xECEAB67 PUSH1 0xE3 SHL DUP2 MSTORE PUSH1 0x4 ADD PUSH1 0x40 MLOAD DUP1 SWAP2 SUB SWAP1 REVERT JUMPDEST PUSH32 0x1FD9E056A24D14C4ABC642FCC325992A946906D0DBC57DD70278AAF12842024D DUP3 ADD PUSH2 0x2A65 JUMPI PUSH1 0x40 MLOAD PUSH4 0x4EF6D7FB PUSH1 0xE0 SHL DUP2 MSTORE PUSH1 0x4 ADD PUSH1 0x40 MLOAD DUP1 SWAP2 SUB SWAP1 REVERT JUMPDEST PUSH0 DUP3 DUP2 MSTORE PUSH1 0x1 PUSH1 0x20 MSTORE PUSH1 0x40 SWAP1 KECCAK256 PUSH2 0x2A7C DUP3 DUP3 PUSH2 0x39D9 JUMP JUMPDEST POP DUP2 PUSH32 0xECE574603820D07BC9B91F2A932BAADF4628AABCB8AFBA49776529C14A6104B2 DUP3 PUSH1 0x40 MLOAD PUSH2 0x2AAD SWAP2 SWAP1 PUSH2 0x2E40 JUMP JUMPDEST PUSH1 0x40 MLOAD DUP1 SWAP2 SUB SWAP1 LOG2 POP POP JUMP JUMPDEST PUSH0 DUP2 DUP2 MSTORE PUSH1 0x1 DUP4 ADD PUSH1 0x20 MSTORE PUSH1 0x40 DUP2 KECCAK256 SLOAD PUSH2 0x2AFE JUMPI POP DUP2 SLOAD PUSH1 0x1 DUP2 DUP2 ADD DUP5 SSTORE PUSH0 DUP5 DUP2 MSTORE PUSH1 0x20 DUP1 DUP3 KECCAK256 SWAP1 SWAP4 ADD DUP5 SWAP1 SSTORE DUP5 SLOAD DUP5 DUP3 MSTORE DUP3 DUP7 ADD SWAP1 SWAP4 MSTORE PUSH1 0x40 SWAP1 KECCAK256 SWAP2 SWAP1 SWAP2 SSTORE PUSH2 0x7D7 JUMP JUMPDEST POP PUSH0 PUSH2 0x7D7 JUMP JUMPDEST PUSH2 0x2B1F PUSH1 0x1 PUSH1 0x1 PUSH1 0xA0 SHL SUB DUP5 AND PUSH4 0x1AED5A85 PUSH1 0xE2 SHL PUSH2 0x25A6 JUMP JUMPDEST ISZERO PUSH2 0x23ED JUMPI PUSH1 0x40 MLOAD PUSH4 0x1AED5A85 PUSH1 0xE2 SHL DUP2 MSTORE PUSH1 0x1 PUSH1 0x1 PUSH1 0xA0 SHL SUB DUP5 AND SWAP1 PUSH4 0x6BB56A14 SWAP1 PUSH2 0x2906 SWAP1 DUP6 SWAP1 DUP6 SWAP1 PUSH1 0x4 ADD PUSH2 0x3CAB JUMP JUMPDEST PUSH0 PUSH2 0x8BC DUP4 PUSH1 0x1 PUSH1 0x1 PUSH1 0xA0 SHL SUB DUP5 AND PUSH2 0x2B71 JUMP JUMPDEST PUSH0 PUSH2 0x8BC DUP4 DUP4 PUSH2 0x2C54 JUMP JUMPDEST PUSH0 DUP2 DUP2 MSTORE PUSH1 0x1 DUP4 ADD PUSH1 0x20 MSTORE PUSH1 0x40 DUP2 KECCAK256 SLOAD DUP1 ISZERO PUSH2 0x2C4B JUMPI PUSH0 PUSH2 0x2B93 PUSH1 0x1 DUP4 PUSH2 0x3B3B JUMP JUMPDEST DUP6 SLOAD SWAP1 SWAP2 POP PUSH0 SWAP1 PUSH2 0x2BA6 SWAP1 PUSH1 0x1 SWAP1 PUSH2 0x3B3B JUMP JUMPDEST SWAP1 POP DUP2 DUP2 EQ PUSH2 0x2C05 JUMPI PUSH0 DUP7 PUSH0 ADD DUP3 DUP2 SLOAD DUP2 LT PUSH2 0x2BC4 JUMPI PUSH2 0x2BC4 PUSH2 0x3A93 JUMP JUMPDEST SWAP1 PUSH0 MSTORE PUSH1 0x20 PUSH0 KECCAK256 ADD SLOAD SWAP1 POP DUP1 DUP8 PUSH0 ADD DUP5 DUP2 SLOAD DUP2 LT PUSH2 0x2BE4 JUMPI PUSH2 0x2BE4 PUSH2 0x3A93 JUMP JUMPDEST PUSH0 SWAP2 DUP3 MSTORE PUSH1 0x20 DUP1 DUP4 KECCAK256 SWAP1 SWAP2 ADD SWAP3 SWAP1 SWAP3 SSTORE SWAP2 DUP3 MSTORE PUSH1 0x1 DUP9 ADD SWAP1 MSTORE PUSH1 0x40 SWAP1 KECCAK256 DUP4 SWAP1 SSTORE JUMPDEST DUP6 SLOAD DUP7 SWAP1 DUP1 PUSH2 0x2C16 JUMPI PUSH2 0x2C16 PUSH2 0x3B4E JUMP JUMPDEST PUSH1 0x1 SWAP1 SUB DUP2 DUP2 SWAP1 PUSH0 MSTORE PUSH1 0x20 PUSH0 KECCAK256 ADD PUSH0 SWAP1 SSTORE SWAP1 SSTORE DUP6 PUSH1 0x1 ADD PUSH0 DUP7 DUP2 MSTORE PUSH1 0x20 ADD SWAP1 DUP2 MSTORE PUSH1 0x20 ADD PUSH0 KECCAK256 PUSH0 SWAP1 SSTORE PUSH1 0x1 SWAP4 POP POP POP POP PUSH2 0x7D7 JUMP JUMPDEST PUSH0 SWAP2 POP POP PUSH2 0x7D7 JUMP JUMPDEST PUSH0 DUP3 PUSH0 ADD DUP3 DUP2 SLOAD DUP2 LT PUSH2 0x2C69 JUMPI PUSH2 0x2C69 PUSH2 0x3A93 JUMP JUMPDEST SWAP1 PUSH0 MSTORE PUSH1 0x20 PUSH0 KECCAK256 ADD SLOAD SWAP1 POP SWAP3 SWAP2 POP POP JUMP JUMPDEST PUSH1 0x20 DUP2 MSTORE DUP2 PUSH1 0x20 DUP3 ADD MSTORE DUP2 DUP4 PUSH1 0x40 DUP4 ADD CALLDATACOPY PUSH0 DUP2 DUP4 ADD PUSH1 0x40 SWAP1 DUP2 ADD SWAP2 SWAP1 SWAP2 MSTORE PUSH1 0x1F SWAP1 SWAP3 ADD PUSH1 0x1F NOT AND ADD ADD SWAP2 SWAP1 POP JUMP JUMPDEST PUSH0 PUSH1 0x20 DUP3 DUP5 SUB SLT ISZERO PUSH2 0x2CB8 JUMPI PUSH0 PUSH0 REVERT JUMPDEST DUP2 CALLDATALOAD PUSH1 0x1 PUSH1 0x1 PUSH1 0xE0 SHL SUB NOT DUP2 AND DUP2 EQ PUSH2 0x8BC JUMPI PUSH0 PUSH0 REVERT JUMPDEST DUP1 CALLDATALOAD PUSH1 0x1 PUSH1 0x1 PUSH1 0xA0 SHL SUB DUP2 AND DUP2 EQ PUSH2 0x2CE5 JUMPI PUSH0 PUSH0 REVERT JUMPDEST SWAP2 SWAP1 POP JUMP JUMPDEST PUSH0 PUSH1 0x20 DUP3 DUP5 SUB SLT ISZERO PUSH2 0x2CFA JUMPI PUSH0 PUSH0 REVERT JUMPDEST PUSH2 0x8BC DUP3 PUSH2 0x2CCF JUMP JUMPDEST PUSH4 0x4E487B71 PUSH1 0xE0 SHL PUSH0 MSTORE PUSH1 0x41 PUSH1 0x4 MSTORE PUSH1 0x24 PUSH0 REVERT JUMPDEST PUSH1 0x40 MLOAD PUSH1 0x1F DUP3 ADD PUSH1 0x1F NOT AND DUP2 ADD PUSH1 0x1 PUSH1 0x1 PUSH1 0x40 SHL SUB DUP2 GT DUP3 DUP3 LT OR ISZERO PUSH2 0x2D3F JUMPI PUSH2 0x2D3F PUSH2 0x2D03 JUMP JUMPDEST PUSH1 0x40 MSTORE SWAP2 SWAP1 POP JUMP JUMPDEST PUSH0 PUSH1 0x1 PUSH1 0x1 PUSH1 0x40 SHL SUB DUP3 GT ISZERO PUSH2 0x2D5F JUMPI PUSH2 0x2D5F PUSH2 0x2D03 JUMP JUMPDEST POP PUSH1 0x1F ADD PUSH1 0x1F NOT AND PUSH1 0x20 ADD SWAP1 JUMP JUMPDEST PUSH0 DUP3 PUSH1 0x1F DUP4 ADD SLT PUSH2 0x2D7C JUMPI PUSH0 PUSH0 REVERT JUMPDEST DUP2 CALLDATALOAD PUSH1 0x20 DUP4 ADD PUSH0 PUSH2 0x2D94 PUSH2 0x2D8F DUP5 PUSH2 0x2D47 JUMP JUMPDEST PUSH2 0x2D17 JUMP JUMPDEST SWAP1 POP DUP3 DUP2 MSTORE DUP6 DUP4 DUP4 ADD GT ISZERO PUSH2 0x2DA7 JUMPI PUSH0 PUSH0 REVERT JUMPDEST DUP3 DUP3 PUSH1 0x20 DUP4 ADD CALLDATACOPY PUSH0 SWAP3 DUP2 ADD PUSH1 0x20 ADD SWAP3 SWAP1 SWAP3 MSTORE POP SWAP4 SWAP3 POP POP POP JUMP JUMPDEST PUSH0 PUSH1 0x20 DUP3 DUP5 SUB SLT ISZERO PUSH2 0x2DD1 JUMPI PUSH0 PUSH0 REVERT JUMPDEST DUP2 CALLDATALOAD PUSH1 0x1 PUSH1 0x1 PUSH1 0x40 SHL SUB DUP2 GT ISZERO PUSH2 0x2DE6 JUMPI PUSH0 PUSH0 REVERT JUMPDEST PUSH2 0x256A DUP5 DUP3 DUP6 ADD PUSH2 0x2D6D JUMP JUMPDEST PUSH0 PUSH0 PUSH1 0x40 DUP4 DUP6 SUB SLT ISZERO PUSH2 0x2E03 JUMPI PUSH0 PUSH0 REVERT JUMPDEST POP POP DUP1 CALLDATALOAD SWAP3 PUSH1 0x20 SWAP1 SWAP2 ADD CALLDATALOAD SWAP2 POP JUMP JUMPDEST PUSH0 DUP2 MLOAD DUP1 DUP5 MSTORE DUP1 PUSH1 0x20 DUP5 ADD PUSH1 0x20 DUP7 ADD MCOPY PUSH0 PUSH1 0x20 DUP3 DUP7 ADD ADD MSTORE PUSH1 0x20 PUSH1 0x1F NOT PUSH1 0x1F DUP4 ADD AND DUP6 ADD ADD SWAP2 POP POP SWAP3 SWAP2 POP POP JUMP JUMPDEST PUSH1 0x20 DUP2 MSTORE PUSH0 PUSH2 0x8BC PUSH1 0x20 DUP4 ADD DUP5 PUSH2 0x2E12 JUMP JUMPDEST PUSH0 PUSH1 0x1 PUSH1 0x1 PUSH1 0x40 SHL SUB DUP3 GT ISZERO PUSH2 0x2E6A JUMPI PUSH2 0x2E6A PUSH2 0x2D03 JUMP JUMPDEST POP PUSH1 0x5 SHL PUSH1 0x20 ADD SWAP1 JUMP JUMPDEST PUSH0 DUP3 PUSH1 0x1F DUP4 ADD SLT PUSH2 0x2E83 JUMPI PUSH0 PUSH0 REVERT JUMPDEST DUP2 CALLDATALOAD PUSH2 0x2E91 PUSH2 0x2D8F DUP3 PUSH2 0x2E52 JUMP JUMPDEST DUP1 DUP3 DUP3 MSTORE PUSH1 0x20 DUP3 ADD SWAP2 POP PUSH1 0x20 DUP4 PUSH1 0x5 SHL DUP7 ADD ADD SWAP3 POP DUP6 DUP4 GT ISZERO PUSH2 0x2EB2 JUMPI PUSH0 PUSH0 REVERT JUMPDEST PUSH1 0x20 DUP6 ADD JUMPDEST DUP4 DUP2 LT ISZERO PUSH2 0x2ECF JUMPI DUP1 CALLDATALOAD DUP4 MSTORE PUSH1 0x20 SWAP3 DUP4 ADD SWAP3 ADD PUSH2 0x2EB7 JUMP JUMPDEST POP SWAP6 SWAP5 POP POP POP POP POP JUMP JUMPDEST PUSH0 PUSH0 PUSH1 0x40 DUP4 DUP6 SUB SLT ISZERO PUSH2 0x2EEA JUMPI PUSH0 PUSH0 REVERT JUMPDEST DUP3 CALLDATALOAD PUSH1 0x1 PUSH1 0x1 PUSH1 0x40 SHL SUB DUP2 GT ISZERO PUSH2 0x2EFF JUMPI PUSH0 PUSH0 REVERT JUMPDEST PUSH2 0x2F0B DUP6 DUP3 DUP7 ADD PUSH2 0x2E74 JUMP JUMPDEST SWAP3 POP POP PUSH1 0x20 DUP4 ADD CALLDATALOAD PUSH1 0x1 PUSH1 0x1 PUSH1 0x40 SHL SUB DUP2 GT ISZERO PUSH2 0x2F26 JUMPI PUSH0 PUSH0 REVERT JUMPDEST PUSH2 0x2F32 DUP6 DUP3 DUP7 ADD PUSH2 0x2E74 JUMP JUMPDEST SWAP2 POP POP SWAP3 POP SWAP3 SWAP1 POP JUMP JUMPDEST PUSH0 PUSH1 0x20 DUP3 ADD PUSH1 0x20 DUP4 MSTORE DUP1 DUP5 MLOAD DUP1 DUP4 MSTORE PUSH1 0x40 DUP6 ADD SWAP2 POP PUSH1 0x40 DUP2 PUSH1 0x5 SHL DUP7 ADD ADD SWAP3 POP PUSH1 0x20 DUP7 ADD PUSH0 JUMPDEST DUP3 DUP2 LT ISZERO PUSH2 0x2F93 JUMPI PUSH1 0x3F NOT DUP8 DUP7 SUB ADD DUP5 MSTORE PUSH2 0x2F7E DUP6 DUP4 MLOAD PUSH2 0x2E12 JUMP JUMPDEST SWAP5 POP PUSH1 0x20 SWAP4 DUP5 ADD SWAP4 SWAP2 SWAP1 SWAP2 ADD SWAP1 PUSH1 0x1 ADD PUSH2 0x2F62 JUMP JUMPDEST POP SWAP3 SWAP7 SWAP6 POP POP POP POP POP POP JUMP JUMPDEST PUSH0 PUSH1 0x20 DUP3 DUP5 SUB SLT ISZERO PUSH2 0x2FAF JUMPI PUSH0 PUSH0 REVERT JUMPDEST POP CALLDATALOAD SWAP2 SWAP1 POP JUMP JUMPDEST PUSH1 0x3 DUP2 LT PUSH2 0x860 JUMPI PUSH0 PUSH0 REVERT JUMPDEST DUP1 CALLDATALOAD PUSH2 0x2CE5 DUP2 PUSH2 0x2FB6 JUMP JUMPDEST DUP1 CALLDATALOAD PUSH1 0xFF DUP2 AND DUP2 EQ PUSH2 0x2CE5 JUMPI PUSH0 PUSH0 REVERT JUMPDEST PUSH0 PUSH1 0x60 DUP3 DUP5 SUB SLT ISZERO PUSH2 0x2FED JUMPI PUSH0 PUSH0 REVERT JUMPDEST PUSH1 0x40 MLOAD PUSH1 0x60 DUP2 ADD PUSH1 0x1 PUSH1 0x1 PUSH1 0x40 SHL SUB DUP2 GT DUP3 DUP3 LT OR ISZERO PUSH2 0x300F JUMPI PUSH2 0x300F PUSH2 0x2D03 JUMP JUMPDEST PUSH1 0x40 MSTORE SWAP1 POP DUP1 DUP3 CALLDATALOAD PUSH2 0xFFFF DUP2 AND DUP2 EQ PUSH2 0x3026 JUMPI PUSH0 PUSH0 REVERT JUMPDEST DUP2 MSTORE PUSH2 0x3034 PUSH1 0x20 DUP5 ADD PUSH2 0x2FCD JUMP JUMPDEST PUSH1 0x20 DUP3 ADD MSTORE PUSH2 0x3045 PUSH1 0x40 DUP5 ADD PUSH2 0x2FCD JUMP JUMPDEST PUSH1 0x40 DUP3 ADD MSTORE POP SWAP3 SWAP2 POP POP JUMP JUMPDEST PUSH0 PUSH0 PUSH0 PUSH0 PUSH0 PUSH0 PUSH0 PUSH0 PUSH0 PUSH2 0x1A0 DUP11 DUP13 SUB SLT ISZERO PUSH2 0x306A JUMPI PUSH0 PUSH0 REVERT JUMPDEST DUP10 CALLDATALOAD PUSH1 0x1 PUSH1 0x1 PUSH1 0x40 SHL SUB DUP2 GT ISZERO PUSH2 0x307F JUMPI PUSH0 PUSH0 REVERT JUMPDEST PUSH2 0x308B DUP13 DUP3 DUP14 ADD PUSH2 0x2D6D JUMP JUMPDEST SWAP10 POP POP PUSH1 0x20 DUP11 ADD CALLDATALOAD PUSH1 0x1 PUSH1 0x1 PUSH1 0x40 SHL SUB DUP2 GT ISZERO PUSH2 0x30A6 JUMPI PUSH0 PUSH0 REVERT JUMPDEST PUSH2 0x30B2 DUP13 DUP3 DUP14 ADD PUSH2 0x2D6D JUMP JUMPDEST SWAP9 POP POP PUSH1 0x40 DUP11 ADD CALLDATALOAD PUSH2 0x30C3 DUP2 PUSH2 0x2FB6 JUMP JUMPDEST SWAP7 POP PUSH2 0x30D2 DUP12 PUSH1 0x60 DUP13 ADD PUSH2 0x2FDD JUMP JUMPDEST SWAP6 POP PUSH2 0x30E1 DUP12 PUSH1 0xC0 DUP13 ADD PUSH2 0x2FDD JUMP JUMPDEST SWAP5 POP PUSH2 0x120 DUP11 ADD CALLDATALOAD SWAP4 POP PUSH2 0x140 DUP11 ADD CALLDATALOAD SWAP3 POP PUSH2 0x3100 PUSH2 0x160 DUP12 ADD PUSH2 0x2CCF JUMP JUMPDEST SWAP2 POP PUSH2 0x310F PUSH2 0x180 DUP12 ADD PUSH2 0x2FC2 JUMP JUMPDEST SWAP1 POP SWAP3 SWAP6 SWAP9 POP SWAP3 SWAP6 SWAP9 POP SWAP3 SWAP6 SWAP9 JUMP JUMPDEST PUSH0 PUSH0 PUSH1 0x40 DUP4 DUP6 SUB SLT ISZERO PUSH2 0x312F JUMPI PUSH0 PUSH0 REVERT JUMPDEST PUSH2 0x3138 DUP4 PUSH2 0x2CCF JUMP JUMPDEST SWAP5 PUSH1 0x20 SWAP4 SWAP1 SWAP4 ADD CALLDATALOAD SWAP4 POP POP POP JUMP JUMPDEST PUSH1 0x20 DUP1 DUP3 MSTORE DUP3 MLOAD DUP3 DUP3 ADD DUP2 SWAP1 MSTORE PUSH0 SWAP2 DUP5 ADD SWAP1 PUSH1 0x40 DUP5 ADD SWAP1 DUP4 JUMPDEST DUP2 DUP2 LT ISZERO PUSH2 0x3186 JUMPI DUP4 MLOAD PUSH1 0x1 PUSH1 0x1 PUSH1 0xA0 SHL SUB AND DUP4 MSTORE PUSH1 0x20 SWAP4 DUP5 ADD SWAP4 SWAP1 SWAP3 ADD SWAP2 PUSH1 0x1 ADD PUSH2 0x315F JUMP JUMPDEST POP SWAP1 SWAP6 SWAP5 POP POP POP POP POP JUMP JUMPDEST PUSH0 PUSH0 PUSH0 PUSH0 PUSH0 PUSH0 PUSH2 0x140 DUP8 DUP10 SUB SLT ISZERO PUSH2 0x31A7 JUMPI PUSH0 PUSH0 REVERT JUMPDEST DUP7 CALLDATALOAD SWAP6 POP PUSH1 0x20 DUP8 ADD CALLDATALOAD PUSH1 0x1 PUSH1 0x1 PUSH1 0x40 SHL SUB DUP2 GT ISZERO PUSH2 0x31C3 JUMPI PUSH0 PUSH0 REVERT JUMPDEST PUSH2 0x31CF DUP10 DUP3 DUP11 ADD PUSH2 0x2D6D JUMP JUMPDEST SWAP6 POP POP PUSH1 0x40 DUP8 ADD CALLDATALOAD PUSH1 0x1 PUSH1 0x1 PUSH1 0x40 SHL SUB DUP2 GT ISZERO PUSH2 0x31EA JUMPI PUSH0 PUSH0 REVERT JUMPDEST PUSH2 0x31F6 DUP10 DUP3 DUP11 ADD PUSH2 0x2D6D JUMP JUMPDEST SWAP5 POP POP PUSH1 0x60 DUP8 ADD CALLDATALOAD PUSH2 0x3207 DUP2 PUSH2 0x2FB6 JUMP JUMPDEST SWAP3 POP PUSH2 0x3216 DUP9 PUSH1 0x80 DUP10 ADD PUSH2 0x2FDD JUMP JUMPDEST SWAP2 POP PUSH2 0x3225 DUP9 PUSH1 0xE0 DUP10 ADD PUSH2 0x2FDD JUMP JUMPDEST SWAP1 POP SWAP3 SWAP6 POP SWAP3 SWAP6 POP SWAP3 SWAP6 JUMP JUMPDEST PUSH0 PUSH0 PUSH0 PUSH0 PUSH0 PUSH0 PUSH0 PUSH0 PUSH2 0x200 DUP10 DUP12 SUB SLT ISZERO PUSH2 0x3249 JUMPI PUSH0 PUSH0 REVERT JUMPDEST DUP9 CALLDATALOAD SWAP8 POP PUSH1 0x20 DUP10 ADD CALLDATALOAD PUSH1 0x1 PUSH1 0x1 PUSH1 0x40 SHL SUB DUP2 GT ISZERO PUSH2 0x3265 JUMPI PUSH0 PUSH0 REVERT JUMPDEST PUSH2 0x3271 DUP12 DUP3 DUP13 ADD PUSH2 0x2D6D JUMP JUMPDEST SWAP8 POP POP PUSH1 0x40 DUP10 ADD CALLDATALOAD PUSH1 0x1 PUSH1 0x1 PUSH1 0x40 SHL SUB DUP2 GT ISZERO PUSH2 0x328C JUMPI PUSH0 PUSH0 REVERT JUMPDEST PUSH2 0x3298 DUP12 DUP3 DUP13 ADD PUSH2 0x2D6D JUMP JUMPDEST SWAP7 POP POP PUSH2 0x32A8 DUP11 PUSH1 0x60 DUP12 ADD PUSH2 0x2FDD JUMP JUMPDEST SWAP5 POP PUSH2 0x32B7 DUP11 PUSH1 0xC0 DUP12 ADD PUSH2 0x2FDD JUMP JUMPDEST SWAP4 POP PUSH2 0x32C7 DUP11 PUSH2 0x120 DUP12 ADD PUSH2 0x2FDD JUMP JUMPDEST SWAP3 POP PUSH2 0x32D7 DUP11 PUSH2 0x180 DUP12 ADD PUSH2 0x2FDD JUMP JUMPDEST SWAP2 POP PUSH2 0x32E6 PUSH2 0x1E0 DUP11 ADD PUSH2 0x2CCF JUMP JUMPDEST SWAP1 POP SWAP3 SWAP6 SWAP9 POP SWAP3 SWAP6 SWAP9 SWAP1 SWAP4 SWAP7 POP JUMP JUMPDEST DUP1 CALLDATALOAD DUP1 ISZERO ISZERO DUP2 EQ PUSH2 0x2CE5 JUMPI PUSH0 PUSH0 REVERT JUMPDEST PUSH0 PUSH0 PUSH0 PUSH0 PUSH0 PUSH1 0xA0 DUP7 DUP9 SUB SLT ISZERO PUSH2 0x3318 JUMPI PUSH0 PUSH0 REVERT JUMPDEST PUSH2 0x3321 DUP7 PUSH2 0x2CCF JUMP JUMPDEST SWAP5 POP PUSH2 0x332F PUSH1 0x20 DUP8 ADD PUSH2 0x2CCF JUMP JUMPDEST SWAP4 POP PUSH1 0x40 DUP7 ADD CALLDATALOAD SWAP3 POP PUSH2 0x3344 PUSH1 0x60 DUP8 ADD PUSH2 0x32F5 JUMP JUMPDEST SWAP2 POP PUSH1 0x80 DUP7 ADD CALLDATALOAD PUSH1 0x1 PUSH1 0x1 PUSH1 0x40 SHL SUB DUP2 GT ISZERO PUSH2 0x335E JUMPI PUSH0 PUSH0 REVERT JUMPDEST PUSH2 0x336A DUP9 DUP3 DUP10 ADD PUSH2 0x2D6D JUMP JUMPDEST SWAP2 POP POP SWAP3 SWAP6 POP SWAP3 SWAP6 SWAP1 SWAP4 POP JUMP JUMPDEST PUSH4 0x4E487B71 PUSH1 0xE0 SHL PUSH0 MSTORE PUSH1 0x21 PUSH1 0x4 MSTORE PUSH1 0x24 PUSH0 REVERT JUMPDEST PUSH2 0x160 DUP2 MSTORE PUSH0 PUSH2 0x339F PUSH2 0x160 DUP4 ADD DUP11 PUSH2 0x2E12 JUMP JUMPDEST DUP9 PUSH1 0x20 DUP5 ADD MSTORE DUP8 PUSH1 0x40 DUP5 ADD MSTORE PUSH1 0x3 DUP8 LT PUSH2 0x33C7 JUMPI PUSH4 0x4E487B71 PUSH1 0xE0 SHL PUSH0 MSTORE PUSH1 0x21 PUSH1 0x4 MSTORE PUSH1 0x24 PUSH0 REVERT JUMPDEST PUSH1 0x60 DUP4 ADD DUP8 SWAP1 MSTORE DUP6 MLOAD PUSH2 0xFFFF AND PUSH1 0x80 DUP5 ADD MSTORE PUSH1 0x20 DUP7 ADD MLOAD PUSH1 0xFF SWAP1 DUP2 AND PUSH1 0xA0 DUP6 ADD MSTORE PUSH1 0x40 DUP8 ADD MLOAD AND PUSH1 0xC0 DUP5 ADD MSTORE DUP5 MLOAD PUSH2 0xFFFF AND PUSH1 0xE0 DUP5 ADD MSTORE PUSH1 0x20 DUP6 ADD MLOAD PUSH1 0xFF SWAP1 DUP2 AND PUSH2 0x100 DUP6 ADD MSTORE PUSH1 0x40 DUP7 ADD MLOAD AND PUSH2 0x120 DUP5 ADD MSTORE DUP3 DUP2 SUB PUSH2 0x140 DUP5 ADD MSTORE PUSH2 0x342D DUP2 DUP6 PUSH2 0x2E12 JUMP JUMPDEST SWAP11 SWAP10 POP POP POP POP POP POP POP POP POP POP JUMP JUMPDEST PUSH0 PUSH0 PUSH1 0x20 DUP4 DUP6 SUB SLT ISZERO PUSH2 0x344C JUMPI PUSH0 PUSH0 REVERT JUMPDEST DUP3 CALLDATALOAD PUSH1 0x1 PUSH1 0x1 PUSH1 0x40 SHL SUB DUP2 GT ISZERO PUSH2 0x3461 JUMPI PUSH0 PUSH0 REVERT JUMPDEST DUP4 ADD PUSH1 0x1F DUP2 ADD DUP6 SGT PUSH2 0x3471 JUMPI PUSH0 PUSH0 REVERT JUMPDEST DUP1 CALLDATALOAD PUSH1 0x1 PUSH1 0x1 PUSH1 0x40 SHL SUB DUP2 GT ISZERO PUSH2 0x3486 JUMPI PUSH0 PUSH0 REVERT JUMPDEST DUP6 PUSH1 0x20 DUP3 PUSH1 0x5 SHL DUP5 ADD ADD GT ISZERO PUSH2 0x349A JUMPI PUSH0 PUSH0 REVERT JUMPDEST PUSH1 0x20 SWAP2 SWAP1 SWAP2 ADD SWAP6 SWAP1 SWAP5 POP SWAP3 POP POP POP JUMP JUMPDEST PUSH0 DUP3 PUSH1 0x1F DUP4 ADD SLT PUSH2 0x34B9 JUMPI PUSH0 PUSH0 REVERT JUMPDEST DUP2 CALLDATALOAD PUSH2 0x34C7 PUSH2 0x2D8F DUP3 PUSH2 0x2E52 JUMP JUMPDEST DUP1 DUP3 DUP3 MSTORE PUSH1 0x20 DUP3 ADD SWAP2 POP PUSH1 0x20 DUP4 PUSH1 0x5 SHL DUP7 ADD ADD SWAP3 POP DUP6 DUP4 GT ISZERO PUSH2 0x34E8 JUMPI PUSH0 PUSH0 REVERT JUMPDEST PUSH1 0x20 DUP6 ADD JUMPDEST DUP4 DUP2 LT ISZERO PUSH2 0x2ECF JUMPI PUSH2 0x34FE DUP2 PUSH2 0x2CCF JUMP JUMPDEST DUP4 MSTORE PUSH1 0x20 SWAP3 DUP4 ADD SWAP3 ADD PUSH2 0x34ED JUMP JUMPDEST PUSH0 DUP3 PUSH1 0x1F DUP4 ADD SLT PUSH2 0x351B JUMPI PUSH0 PUSH0 REVERT JUMPDEST DUP2 CALLDATALOAD PUSH2 0x3529 PUSH2 0x2D8F DUP3 PUSH2 0x2E52 JUMP JUMPDEST DUP1 DUP3 DUP3 MSTORE PUSH1 0x20 DUP3 ADD SWAP2 POP PUSH1 0x20 DUP4 PUSH1 0x5 SHL DUP7 ADD ADD SWAP3 POP DUP6 DUP4 GT ISZERO PUSH2 0x354A JUMPI PUSH0 PUSH0 REVERT JUMPDEST PUSH1 0x20 DUP6 ADD JUMPDEST DUP4 DUP2 LT ISZERO PUSH2 0x2ECF JUMPI PUSH2 0x3560 DUP2 PUSH2 0x32F5 JUMP JUMPDEST DUP4 MSTORE PUSH1 0x20 SWAP3 DUP4 ADD SWAP3 ADD PUSH2 0x354F JUMP JUMPDEST PUSH0 DUP3 PUSH1 0x1F DUP4 ADD SLT PUSH2 0x357D JUMPI PUSH0 PUSH0 REVERT JUMPDEST DUP2 CALLDATALOAD PUSH2 0x358B PUSH2 0x2D8F DUP3 PUSH2 0x2E52 JUMP JUMPDEST DUP1 DUP3 DUP3 MSTORE PUSH1 0x20 DUP3 ADD SWAP2 POP PUSH1 0x20 DUP4 PUSH1 0x5 SHL DUP7 ADD ADD SWAP3 POP DUP6 DUP4 GT ISZERO PUSH2 0x35AC JUMPI PUSH0 PUSH0 REVERT JUMPDEST PUSH1 0x20 DUP6 ADD JUMPDEST DUP4 DUP2 LT ISZERO PUSH2 0x2ECF JUMPI DUP1 CALLDATALOAD PUSH1 0x1 PUSH1 0x1 PUSH1 0x40 SHL SUB DUP2 GT ISZERO PUSH2 0x35CE JUMPI PUSH0 PUSH0 REVERT JUMPDEST PUSH2 0x35DD DUP9 PUSH1 0x20 DUP4 DUP11 ADD ADD PUSH2 0x2D6D JUMP JUMPDEST DUP5 MSTORE POP PUSH1 0x20 SWAP3 DUP4 ADD SWAP3 ADD PUSH2 0x35B1 JUMP JUMPDEST PUSH0 PUSH0 PUSH0 PUSH0 PUSH0 PUSH1 0xA0 DUP7 DUP9 SUB SLT ISZERO PUSH2 0x3600 JUMPI PUSH0 PUSH0 REVERT JUMPDEST DUP6 CALLDATALOAD PUSH1 0x1 PUSH1 0x1 PUSH1 0x40 SHL SUB DUP2 GT ISZERO PUSH2 0x3615 JUMPI PUSH0 PUSH0 REVERT JUMPDEST PUSH2 0x3621 DUP9 DUP3 DUP10 ADD PUSH2 0x34AA JUMP JUMPDEST SWAP6 POP POP PUSH1 0x20 DUP7 ADD CALLDATALOAD PUSH1 0x1 PUSH1 0x1 PUSH1 0x40 SHL SUB DUP2 GT ISZERO PUSH2 0x363C JUMPI PUSH0 PUSH0 REVERT JUMPDEST PUSH2 0x3648 DUP9 DUP3 DUP10 ADD PUSH2 0x34AA JUMP JUMPDEST SWAP5 POP POP PUSH1 0x40 DUP7 ADD CALLDATALOAD PUSH1 0x1 PUSH1 0x1 PUSH1 0x40 SHL SUB DUP2 GT ISZERO PUSH2 0x3663 JUMPI PUSH0 PUSH0 REVERT JUMPDEST PUSH2 0x366F DUP9 DUP3 DUP10 ADD PUSH2 0x2E74 JUMP JUMPDEST SWAP4 POP POP PUSH1 0x60 DUP7 ADD CALLDATALOAD PUSH1 0x1 PUSH1 0x1 PUSH1 0x40 SHL SUB DUP2 GT ISZERO PUSH2 0x368A JUMPI PUSH0 PUSH0 REVERT JUMPDEST PUSH2 0x3696 DUP9 DUP3 DUP10 ADD PUSH2 0x350C JUMP JUMPDEST SWAP3 POP POP PUSH1 0x80 DUP7 ADD CALLDATALOAD PUSH1 0x1 PUSH1 0x1 PUSH1 0x40 SHL SUB DUP2 GT ISZERO PUSH2 0x36B1 JUMPI PUSH0 PUSH0 REVERT JUMPDEST PUSH2 0x336A DUP9 DUP3 DUP10 ADD PUSH2 0x356E JUMP JUMPDEST PUSH0 PUSH0 PUSH1 0x40 DUP4 DUP6 SUB SLT ISZERO PUSH2 0x36CE JUMPI PUSH0 PUSH0 REVERT JUMPDEST DUP3 CALLDATALOAD SWAP2 POP PUSH1 0x20 DUP4 ADD CALLDATALOAD PUSH1 0x1 PUSH1 0x1 PUSH1 0x40 SHL SUB DUP2 GT ISZERO PUSH2 0x36EA JUMPI PUSH0 PUSH0 REVERT JUMPDEST PUSH2 0x2F32 DUP6 DUP3 DUP7 ADD PUSH2 0x2D6D JUMP JUMPDEST PUSH0 PUSH0 PUSH0 PUSH1 0x60 DUP5 DUP7 SUB SLT ISZERO PUSH2 0x3708 JUMPI PUSH0 PUSH0 REVERT JUMPDEST PUSH2 0x3711 DUP5 PUSH2 0x2CCF JUMP JUMPDEST SWAP3 POP PUSH1 0x20 DUP5 ADD CALLDATALOAD SWAP2 POP PUSH1 0x40 DUP5 ADD CALLDATALOAD PUSH1 0x1 PUSH1 0x1 PUSH1 0x40 SHL SUB DUP2 GT ISZERO PUSH2 0x3732 JUMPI PUSH0 PUSH0 REVERT JUMPDEST PUSH2 0x373E DUP7 DUP3 DUP8 ADD PUSH2 0x2D6D JUMP JUMPDEST SWAP2 POP POP SWAP3 POP SWAP3 POP SWAP3 JUMP JUMPDEST PUSH0 PUSH0 PUSH1 0x40 DUP4 DUP6 SUB SLT ISZERO PUSH2 0x3759 JUMPI PUSH0 PUSH0 REVERT JUMPDEST DUP3 CALLDATALOAD PUSH1 0x1 PUSH1 0x1 PUSH1 0x40 SHL SUB DUP2 GT ISZERO PUSH2 0x376E JUMPI PUSH0 PUSH0 REVERT JUMPDEST PUSH2 0x377A DUP6 DUP3 DUP7 ADD PUSH2 0x2E74 JUMP JUMPDEST SWAP3 POP POP PUSH1 0x20 DUP4 ADD CALLDATALOAD PUSH1 0x1 PUSH1 0x1 PUSH1 0x40 SHL SUB DUP2 GT ISZERO PUSH2 0x3795 JUMPI PUSH0 PUSH0 REVERT JUMPDEST PUSH2 0x2F32 DUP6 DUP3 DUP7 ADD PUSH2 0x356E JUMP JUMPDEST PUSH1 0x20 DUP1 DUP3 MSTORE DUP3 MLOAD DUP3 DUP3 ADD DUP2 SWAP1 MSTORE PUSH0 SWAP2 DUP5 ADD SWAP1 PUSH1 0x40 DUP5 ADD SWAP1 DUP4 JUMPDEST DUP2 DUP2 LT ISZERO PUSH2 0x3186 JUMPI DUP4 MLOAD DUP4 MSTORE PUSH1 0x20 SWAP4 DUP5 ADD SWAP4 SWAP1 SWAP3 ADD SWAP2 PUSH1 0x1 ADD PUSH2 0x37BA JUMP JUMPDEST PUSH0 PUSH0 PUSH0 PUSH1 0x60 DUP5 DUP7 SUB SLT ISZERO PUSH2 0x37EA JUMPI PUSH0 PUSH0 REVERT JUMPDEST DUP4 CALLDATALOAD PUSH1 0x1 PUSH1 0x1 PUSH1 0x40 SHL SUB DUP2 GT ISZERO PUSH2 0x37FF JUMPI PUSH0 PUSH0 REVERT JUMPDEST PUSH2 0x380B DUP7 DUP3 DUP8 ADD PUSH2 0x2E74 JUMP JUMPDEST SWAP4 POP POP PUSH1 0x20 DUP5 ADD CALLDATALOAD PUSH1 0x1 PUSH1 0x1 PUSH1 0x40 SHL SUB DUP2 GT ISZERO PUSH2 0x3826 JUMPI PUSH0 PUSH0 REVERT JUMPDEST PUSH2 0x3832 DUP7 DUP3 DUP8 ADD PUSH2 0x2E74 JUMP JUMPDEST SWAP3 POP POP PUSH1 0x40 DUP5 ADD CALLDATALOAD PUSH1 0x1 PUSH1 0x1 PUSH1 0x40 SHL SUB DUP2 GT ISZERO PUSH2 0x384D JUMPI PUSH0 PUSH0 REVERT JUMPDEST PUSH2 0x373E DUP7 DUP3 DUP8 ADD PUSH2 0x356E JUMP JUMPDEST PUSH0 PUSH0 PUSH0 PUSH1 0x60 DUP5 DUP7 SUB SLT ISZERO PUSH2 0x386B JUMPI PUSH0 PUSH0 REVERT JUMPDEST DUP4 CALLDATALOAD SWAP3 POP PUSH1 0x20 DUP5 ADD CALLDATALOAD SWAP2 POP PUSH1 0x40 DUP5 ADD CALLDATALOAD PUSH1 0x1 PUSH1 0x1 PUSH1 0x40 SHL SUB DUP2 GT ISZERO PUSH2 0x3732 JUMPI PUSH0 PUSH0 REVERT JUMPDEST PUSH0 PUSH0 PUSH0 PUSH0 PUSH1 0x80 DUP6 DUP8 SUB SLT ISZERO PUSH2 0x38A1 JUMPI PUSH0 PUSH0 REVERT JUMPDEST PUSH2 0x38AA DUP6 PUSH2 0x2CCF JUMP JUMPDEST SWAP4 POP PUSH1 0x20 DUP6 ADD CALLDATALOAD SWAP3 POP PUSH2 0x38BF PUSH1 0x40 DUP7 ADD PUSH2 0x32F5 JUMP JUMPDEST SWAP2 POP PUSH1 0x60 DUP6 ADD CALLDATALOAD PUSH1 0x1 PUSH1 0x1 PUSH1 0x40 SHL SUB DUP2 GT ISZERO PUSH2 0x38D9 JUMPI PUSH0 PUSH0 REVERT JUMPDEST PUSH2 0x38E5 DUP8 DUP3 DUP9 ADD PUSH2 0x2D6D JUMP JUMPDEST SWAP2 POP POP SWAP3 SWAP6 SWAP2 SWAP5 POP SWAP3 POP JUMP JUMPDEST PUSH0 PUSH1 0x20 DUP3 DUP5 SUB SLT ISZERO PUSH2 0x3901 JUMPI PUSH0 PUSH0 REVERT JUMPDEST DUP2 CALLDATALOAD PUSH1 0x1 PUSH1 0x1 PUSH1 0x40 SHL SUB DUP2 GT ISZERO PUSH2 0x3916 JUMPI PUSH0 PUSH0 REVERT JUMPDEST PUSH2 0x256A DUP5 DUP3 DUP6 ADD PUSH2 0x2E74 JUMP JUMPDEST DUP4 DUP6 DUP3 CALLDATACOPY PUSH1 0x60 SWAP3 SWAP1 SWAP3 SHL PUSH1 0x1 PUSH1 0x1 PUSH1 0x60 SHL SUB NOT AND SWAP2 SWAP1 SWAP3 ADD SWAP1 DUP2 MSTORE PUSH1 0x14 DUP2 ADD SWAP2 SWAP1 SWAP2 MSTORE PUSH1 0x34 ADD SWAP2 SWAP1 POP JUMP JUMPDEST PUSH0 DUP3 MLOAD DUP1 PUSH1 0x20 DUP6 ADD DUP5 MCOPY PUSH0 SWAP3 ADD SWAP2 DUP3 MSTORE POP SWAP2 SWAP1 POP JUMP JUMPDEST PUSH1 0x1 DUP2 DUP2 SHR SWAP1 DUP3 AND DUP1 PUSH2 0x3977 JUMPI PUSH1 0x7F DUP3 AND SWAP2 POP JUMPDEST PUSH1 0x20 DUP3 LT DUP2 SUB PUSH2 0x1B40 JUMPI PUSH4 0x4E487B71 PUSH1 0xE0 SHL PUSH0 MSTORE PUSH1 0x22 PUSH1 0x4 MSTORE PUSH1 0x24 PUSH0 REVERT JUMPDEST PUSH1 0x1F DUP3 GT ISZERO PUSH2 0x23ED JUMPI DUP1 PUSH0 MSTORE PUSH1 0x20 PUSH0 KECCAK256 PUSH1 0x1F DUP5 ADD PUSH1 0x5 SHR DUP2 ADD PUSH1 0x20 DUP6 LT ISZERO PUSH2 0x39BA JUMPI POP DUP1 JUMPDEST PUSH1 0x1F DUP5 ADD PUSH1 0x5 SHR DUP3 ADD SWAP2 POP JUMPDEST DUP2 DUP2 LT ISZERO PUSH2 0xE14 JUMPI PUSH0 DUP2 SSTORE PUSH1 0x1 ADD PUSH2 0x39C6 JUMP JUMPDEST DUP2 MLOAD PUSH1 0x1 PUSH1 0x1 PUSH1 0x40 SHL SUB DUP2 GT ISZERO PUSH2 0x39F2 JUMPI PUSH2 0x39F2 PUSH2 0x2D03 JUMP JUMPDEST PUSH2 0x3A06 DUP2 PUSH2 0x3A00 DUP5 SLOAD PUSH2 0x3963 JUMP JUMPDEST DUP5 PUSH2 0x3995 JUMP JUMPDEST PUSH1 0x20 PUSH1 0x1F DUP3 GT PUSH1 0x1 DUP2 EQ PUSH2 0x3A38 JUMPI PUSH0 DUP4 ISZERO PUSH2 0x3A21 JUMPI POP DUP5 DUP3 ADD MLOAD JUMPDEST PUSH0 NOT PUSH1 0x3 DUP6 SWAP1 SHL SHR NOT AND PUSH1 0x1 DUP5 SWAP1 SHL OR DUP5 SSTORE PUSH2 0xE14 JUMP JUMPDEST PUSH0 DUP5 DUP2 MSTORE PUSH1 0x20 DUP2 KECCAK256 PUSH1 0x1F NOT DUP6 AND SWAP2 JUMPDEST DUP3 DUP2 LT ISZERO PUSH2 0x3A67 JUMPI DUP8 DUP6 ADD MLOAD DUP3 SSTORE PUSH1 0x20 SWAP5 DUP6 ADD SWAP5 PUSH1 0x1 SWAP1 SWAP3 ADD SWAP2 ADD PUSH2 0x3A47 JUMP JUMPDEST POP DUP5 DUP3 LT ISZERO PUSH2 0x3A84 JUMPI DUP7 DUP5 ADD MLOAD PUSH0 NOT PUSH1 0x3 DUP8 SWAP1 SHL PUSH1 0xF8 AND SHR NOT AND DUP2 SSTORE JUMPDEST POP POP POP POP PUSH1 0x1 SWAP1 DUP2 SHL ADD SWAP1 SSTORE POP JUMP JUMPDEST PUSH4 0x4E487B71 PUSH1 0xE0 SHL PUSH0 MSTORE PUSH1 0x32 PUSH1 0x4 MSTORE PUSH1 0x24 PUSH0 REVERT JUMPDEST PUSH1 0x20 DUP1 DUP3 MSTORE PUSH1 0xE SWAP1 DUP3 ADD MSTORE PUSH14 0x139BDD08185D5D1A1BDC9A5E9959 PUSH1 0x92 SHL PUSH1 0x40 DUP3 ADD MSTORE PUSH1 0x60 ADD SWAP1 JUMP JUMPDEST PUSH0 PUSH0 DUP4 CALLDATALOAD PUSH1 0x1E NOT DUP5 CALLDATASIZE SUB ADD DUP2 SLT PUSH2 0x3AE4 JUMPI PUSH0 PUSH0 REVERT JUMPDEST DUP4 ADD DUP1 CALLDATALOAD SWAP2 POP PUSH1 0x1 PUSH1 0x1 PUSH1 0x40 SHL SUB DUP3 GT ISZERO PUSH2 0x3AFD JUMPI PUSH0 PUSH0 REVERT JUMPDEST PUSH1 0x20 ADD SWAP2 POP CALLDATASIZE DUP2 SWAP1 SUB DUP3 SGT ISZERO PUSH2 0x3B11 JUMPI PUSH0 PUSH0 REVERT JUMPDEST SWAP3 POP SWAP3 SWAP1 POP JUMP JUMPDEST DUP2 DUP4 DUP3 CALLDATACOPY PUSH0 SWAP2 ADD SWAP1 DUP2 MSTORE SWAP2 SWAP1 POP JUMP JUMPDEST PUSH4 0x4E487B71 PUSH1 0xE0 SHL PUSH0 MSTORE PUSH1 0x11 PUSH1 0x4 MSTORE PUSH1 0x24 PUSH0 REVERT JUMPDEST DUP2 DUP2 SUB DUP2 DUP2 GT ISZERO PUSH2 0x7D7 JUMPI PUSH2 0x7D7 PUSH2 0x3B27 JUMP JUMPDEST PUSH4 0x4E487B71 PUSH1 0xE0 SHL PUSH0 MSTORE PUSH1 0x31 PUSH1 0x4 MSTORE PUSH1 0x24 PUSH0 REVERT JUMPDEST PUSH1 0x1 DUP1 PUSH1 0xA0 SHL SUB DUP6 AND DUP2 MSTORE DUP4 PUSH1 0x20 DUP3 ADD MSTORE DUP3 ISZERO ISZERO PUSH1 0x40 DUP3 ADD MSTORE PUSH1 0x80 PUSH1 0x60 DUP3 ADD MSTORE PUSH0 PUSH2 0x3B90 PUSH1 0x80 DUP4 ADD DUP5 PUSH2 0x2E12 JUMP JUMPDEST SWAP7 SWAP6 POP POP POP POP POP POP JUMP JUMPDEST DUP1 MLOAD PUSH1 0x20 DUP3 ADD MLOAD PUSH1 0x1 PUSH1 0x1 PUSH1 0x60 SHL SUB NOT DUP2 AND SWAP2 SWAP1 PUSH1 0x14 DUP3 LT ISZERO PUSH2 0x3BE1 JUMPI PUSH12 0xFFFFFFFFFFFFFFFFFFFFFFFF NOT PUSH12 0xFFFFFFFFFFFFFFFFFFFFFFFF NOT DUP4 PUSH1 0x14 SUB PUSH1 0x3 SHL SHL DUP3 AND AND SWAP3 POP JUMPDEST POP POP SWAP2 SWAP1 POP JUMP JUMPDEST PUSH1 0x1 PUSH1 0x1 PUSH1 0xA0 SHL SUB DUP5 AND DUP2 MSTORE DUP3 ISZERO ISZERO PUSH1 0x20 DUP3 ADD MSTORE PUSH1 0x60 PUSH1 0x40 DUP3 ADD DUP2 SWAP1 MSTORE PUSH0 SWAP1 PUSH2 0x3C13 SWAP1 DUP4 ADD DUP5 PUSH2 0x2E12 JUMP JUMPDEST SWAP6 SWAP5 POP POP POP POP POP JUMP JUMPDEST PUSH1 0x1 PUSH1 0x1 PUSH1 0xA0 SHL SUB DUP7 DUP2 AND DUP3 MSTORE DUP6 DUP2 AND PUSH1 0x20 DUP4 ADD MSTORE DUP5 AND PUSH1 0x40 DUP3 ADD MSTORE PUSH1 0x60 DUP2 ADD DUP4 SWAP1 MSTORE PUSH1 0xA0 PUSH1 0x80 DUP3 ADD DUP2 SWAP1 MSTORE PUSH0 SWAP1 PUSH2 0x2621 SWAP1 DUP4 ADD DUP5 PUSH2 0x2E12 JUMP JUMPDEST DUP3 ISZERO ISZERO DUP2 MSTORE PUSH1 0x40 PUSH1 0x20 DUP3 ADD MSTORE PUSH0 PUSH2 0x256A PUSH1 0x40 DUP4 ADD DUP5 PUSH2 0x2E12 JUMP JUMPDEST DUP1 MLOAD PUSH1 0x20 DUP1 DUP4 ADD MLOAD SWAP2 SWAP1 DUP2 LT ISZERO PUSH2 0x1B40 JUMPI PUSH0 NOT PUSH1 0x20 SWAP2 SWAP1 SWAP2 SUB PUSH1 0x3 SHL SHL AND SWAP2 SWAP1 POP JUMP JUMPDEST PUSH0 PUSH1 0x1 DUP3 ADD PUSH2 0x3CA4 JUMPI PUSH2 0x3CA4 PUSH2 0x3B27 JUMP JUMPDEST POP PUSH1 0x1 ADD SWAP1 JUMP JUMPDEST DUP3 DUP2 MSTORE PUSH1 0x40 PUSH1 0x20 DUP3 ADD MSTORE PUSH0 PUSH2 0x256A PUSH1 0x40 DUP4 ADD DUP5 PUSH2 0x2E12 JUMP JUMPDEST PUSH0 PUSH1 0x20 DUP3 DUP5 SUB SLT ISZERO PUSH2 0x3CD3 JUMPI PUSH0 PUSH0 REVERT JUMPDEST DUP2 MLOAD PUSH1 0x1 PUSH1 0x1 PUSH1 0x40 SHL SUB DUP2 GT ISZERO PUSH2 0x3CE8 JUMPI PUSH0 PUSH0 REVERT JUMPDEST DUP3 ADD PUSH1 0x1F DUP2 ADD DUP5 SGT PUSH2 0x3CF8 JUMPI PUSH0 PUSH0 REVERT JUMPDEST DUP1 MLOAD PUSH2 0x3D06 PUSH2 0x2D8F DUP3 PUSH2 0x2D47 JUMP JUMPDEST DUP2 DUP2 MSTORE DUP6 PUSH1 0x20 DUP4 DUP6 ADD ADD GT ISZERO PUSH2 0x3D1A JUMPI PUSH0 PUSH0 REVERT JUMPDEST DUP2 PUSH1 0x20 DUP5 ADD PUSH1 0x20 DUP4 ADD MCOPY PUSH0 SWAP2 DUP2 ADD PUSH1 0x20 ADD SWAP2 SWAP1 SWAP2 MSTORE SWAP5 SWAP4 POP POP POP POP JUMP INVALID LOG2 PUSH5 0x6970667358 0x22 SLT KECCAK256 SWAP12 CHAINID 0xB9 LOG0 LOG1 NOT PUSH2 0x1592 GT CLZ 0xCF PUSH9 0xD66126E476AAC937A4 0xBF GASPRICE SWAP15 SWAP10 DUP5 0xC2 0xAC BLOCKHASH 0xDC CALLDATASIZE PUSH5 0x736F6C6343 STOP ADDMOD 0x1F STOP CALLER LOG2 PUSH5 0x6970667358 0x22 SLT KECCAK256 SDIV 0xAF 0x4C PUSH19 0x8C4A145D5234BC7C184A3687E588F16259046F 0xEA 0xA8 PUSH14 0x99C7183A942864736F6C63430008 0x1F STOP CALLER "
		},
		"gasEstimates": {
			"creation": {
				"codeDepositCost": "4066200",
				"executionCost": "4655",
				"totalCost": "4070855"
			},
			"external": {
				"changeClanOwner(address,address)": "infinite",
				"createClan(string,string)": "infinite",
				"getClanId(address)": "2555",
				"getClanOwner(address)": "2574",
				"removeClanFromOwned(address)": "27961"
			}
		},
		"methodIdentifiers": {
			"changeClanOwner(address,address)": "c6a9fa1f",
			"createClan(string,string)": "8b8058a5",
			"getClanId(address)": "5a10d060",
			"getClanOwner(address)": "64b9bf17",
			"removeClanFromOwned(address)": "1ed406b6"
		}
	},
	"abi": [
		{
			"anonymous": false,
			"inputs": [
				{
					"indexed": false,
					"internalType": "address",
					"name": "newOwner",
					"type": "address"
				},
				{
					"indexed": false,
					"internalType": "address",
					"name": "clanId",
					"type": "address"
				}
			],
			"name": "ChangeClanOwner",
			"type": "event"
		},
		{
			"anonymous": false,
			"inputs": [
				{
					"indexed": true,
					"internalType": "address",
					"name": "creatorAddress",
					"type": "address"
				},
				{
					"indexed": true,
					"internalType": "address",
					"name": "nftAddress",
					"type": "address"
				}
			],
			"name": "ClanCreated",
			"type": "event"
		},
		{
			"anonymous": false,
			"inputs": [
				{
					"indexed": true,
					"internalType": "address",
					"name": "clanId",
					"type": "address"
				}
			],
			"name": "ClanRemovedFromOwned",
			"type": "event"
		},
		{
			"inputs": [
				{
					"internalType": "address",
					"name": "newOwner",
					"type": "address"
				},
				{
					"internalType": "address",
					"name": "clanId",
					"type": "address"
				}
			],
			"name": "changeClanOwner",
			"outputs": [],
			"stateMutability": "nonpayable",
			"type": "function"
		},
		{
			"inputs": [
				{
					"internalType": "string",
					"name": "clanName",
					"type": "string"
				},
				{
					"internalType": "string",
					"name": "clanShortDesc",
					"type": "string"
				}
			],
			"name": "createClan",
			"outputs": [],
			"stateMutability": "nonpayable",
			"type": "function"
		},
		{
			"inputs": [
				{
					"internalType": "address",
					"name": "owner",
					"type": "address"
				}
			],
			"name": "getClanId",
			"outputs": [
				{
					"internalType": "address",
					"name": "",
					"type": "address"
				}
			],
			"stateMutability": "view",
			"type": "function"
		},
		{
			"inputs": [
				{
					"internalType": "address",
					"name": "clanId",
					"type": "address"
				}
			],
			"name": "getClanOwner",
			"outputs": [
				{
					"internalType": "address",
					"name": "",
					"type": "address"
				}
			],
			"stateMutability": "view",
			"type": "function"
		},
		{
			"inputs": [
				{
					"internalType": "address",
					"name": "clanId",
					"type": "address"
				}
			],
			"name": "removeClanFromOwned",
			"outputs": [],
			"stateMutability": "nonpayable",
			"type": "function"
		}
	]
}