{
	"data": {
		"bytecode": {
			"linkReferences": {},
			"object": "6080604052348015600e575f5ffd5b50610dd88061001c5f395ff3fe608060405234801561000f575f5ffd5b50600436106100a6575f3560e01c80638ac7b5581161006e5780638ac7b5581461015c578063b345f46214610191578063bc5b7f42146101c6578063bda17867146101e6578063c25803241461021b578063dce8e1001461022e575f5ffd5b806313467442146100aa5780632b85ed9c146100f25780633f51ca00146100fc578063588750491461011c5780636e4cd8f61461013c575b5f5ffd5b6100df6100b836600461097c565b6001600160a01b03919091165f908152600660209081526040808320938352929052205490565b6040519081526020015b60405180910390f35b6001546100df9081565b61010f61010a3660046109ec565b610241565b6040516100e99190610a3b565b61012f61012a366004610a7d565b610311565b6040516100e99190610c19565b61014f61014a366004610c32565b610511565b6040516100e99190610c71565b6100df61016a36600461097c565b6001600160a01b03919091165f908152600360209081526040808320938352929052205490565b6100df61019f36600461097c565b6001600160a01b03919091165f908152600560209081526040808320938352929052205490565b6101d96101d4366004610cd4565b6107b6565b6040516100e99190610cf4565b6100df6101f436600461097c565b6001600160a01b03919091165f908152600260209081526040808320938352929052205490565b6100df610229366004610d29565b610861565b6100df61023c366004610d29565b610880565b6060818067ffffffffffffffff81111561025d5761025d610d42565b604051908082528060200260200182016040528015610286578160200160208202803683370190505b5091505f5b81811015610308575f8585838181106102a6576102a6610d56565b90506020020135905060085f886001600160a01b03166001600160a01b031681526020019081526020015f205f8281526020019081526020015f20548483815181106102f4576102f4610d56565b60209081029190910101525060010161028b565b50509392505050565b61031961089d565b5f828152602081815260409182902082516101c08101845281546001600160a01b039081168252600183015416818401526002820180548551818602810186018752818152929593949386019383018282801561039357602002820191905f5260205f20905b81548152602001906001019080831161037f575b50505050508152602001600382018054806020026020016040519081016040528092919081815260200182805480156103e957602002820191905f5260205f20905b8154815260200190600101908083116103d5575b505050505081526020016004820180548060200260200160405190810160405280929190818152602001828054801561043f57602002820191905f5260205f20905b81548152602001906001019080831161042b575b50505091835250506005820154602080830191909152604080518082018252600685015481526007850154818401528184015280516080808201835260088601548252600986015493820193909352600a85015491810191909152600b8401546001600160a01b03908116606083810191909152840191909152600c840154811691830191909152600d8301541660a0820152600e82015460c0820152600f9091015460ff808216151560e0840152610100808304821690840152620100009091041615156101209091015292915050565b6060818067ffffffffffffffff81111561052d5761052d610d42565b60405190808252806020026020018201604052801561056657816020015b61055361089d565b81526020019060019003908161054b5790505b5091505f5b818110156107ae575f85858381811061058657610586610d56565b602090810292909201355f81815280845260409081902081516101c08101835281546001600160a01b039081168252600183015416818701526002820180548451818902810189018652818152959850919692955092860193929183018282801561060e57602002820191905f5260205f20905b8154815260200190600101908083116105fa575b505050505081526020016003820180548060200260200160405190810160405280929190818152602001828054801561066457602002820191905f5260205f20905b815481526020019060010190808311610650575b50505050508152602001600482018054806020026020016040519081016040528092919081815260200182805480156106ba57602002820191905f5260205f20905b8154815260200190600101908083116106a6575b50505091835250506005820154602080830191909152604080518082018252600685015481526007850154818401528184015280516080808201835260088601548252600986015493820193909352600a85015491810191909152600b8401546001600160a01b03908116606083810191909152840191909152600c840154811691830191909152600d8301541660a0820152600e82015460c0820152600f9091015460ff808216151560e08401526101008083048216908401526201000090910416151561012090910152845185908490811061079a5761079a610d56565b60209081029190910101525060010161056b565b505092915050565b5f828152600a6020908152604080832084845290915290208054606091906107dd90610d6a565b80601f016020809104026020016040519081016040528092919081815260200182805461080990610d6a565b80156108545780601f1061082b57610100808354040283529160200191610854565b820191905f5260205f20905b81548152906001019060200180831161083757829003601f168201915b5050505050905092915050565b6001600160a01b0381165f908152600460205260408120545b92915050565b6001600160a01b0381165f9081526007602052604081205461087a565b604051806101c001604052805f6001600160a01b031681526020015f6001600160a01b031681526020016060815260200160608152602001606081526020015f81526020016108fd60405180604001604052805f81526020015f81525090565b815260200161093260405180608001604052805f81526020015f81526020015f81526020015f6001600160a01b031681525090565b81525f6020820181905260408201819052606082018190526080820181905260a0820181905260c09091015290565b80356001600160a01b0381168114610977575f5ffd5b919050565b5f5f6040838503121561098d575f5ffd5b61099683610961565b946020939093013593505050565b5f5f83601f8401126109b4575f5ffd5b50813567ffffffffffffffff8111156109cb575f5ffd5b6020830191508360208260051b85010111156109e5575f5ffd5b9250929050565b5f5f5f604084860312156109fe575f5ffd5b610a0784610961565b9250602084013567ffffffffffffffff811115610a22575f5ffd5b610a2e868287016109a4565b9497909650939450505050565b602080825282518282018190525f918401906040840190835b81811015610a72578351835260209384019390920191600101610a54565b509095945050505050565b5f60208284031215610a8d575f5ffd5b5035919050565b5f8151808452602084019350602083015f5b82811015610ac4578151865260209586019590910190600101610aa6565b5093949350505050565b80516001600160a01b031682525f6020820151610af660208501826001600160a01b03169052565b5060408201516102406040850152610b12610240850182610a94565b905060608301518482036060860152610b2b8282610a94565b91505060808301518482036080860152610b458282610a94565b91505060a083015160a085015260c0830151610b6e60c086018280518252602090810151910152565b5060e083015180516101008601526020810151610120860152604081015161014086015260608101516001600160a01b0316610160860152506101008301516001600160a01b038116610180860152506101208301516001600160a01b0381166101a0860152506101408301516101c08501526101608301518015156101e08601525061018083015160ff8116610200860152506101a0830151801515610220860152509392505050565b602081525f610c2b6020830184610ace565b9392505050565b5f5f60208385031215610c43575f5ffd5b823567ffffffffffffffff811115610c59575f5ffd5b610c65858286016109a4565b90969095509350505050565b5f602082016020835280845180835260408501915060408160051b8601019250602086015f5b82811015610cc857603f19878603018452610cb3858351610ace565b94506020938401939190910190600101610c97565b50929695505050505050565b5f5f60408385031215610ce5575f5ffd5b50508035926020909101359150565b602081525f82518060208401528060208501604085015e5f604082850101526040601f19601f83011684010191505092915050565b5f60208284031215610d39575f5ffd5b610c2b82610961565b634e487b7160e01b5f52604160045260245ffd5b634e487b7160e01b5f52603260045260245ffd5b600181811c90821680610d7e57607f821691505b602082108103610d9c57634e487b7160e01b5f52602260045260245ffd5b5091905056fea2646970667358221220b974a6c90c7fccdc4a25d2244304bfb272b0b16cddb78d65d869027244b9321864736f6c634300081f0033",
			"opcodes": "PUSH1 0x80 PUSH1 0x40 MSTORE CALLVALUE DUP1 ISZERO PUSH1 0xE JUMPI PUSH0 PUSH0 REVERT JUMPDEST POP PUSH2 0xDD8 DUP1 PUSH2 0x1C PUSH0 CODECOPY PUSH0 RETURN INVALID PUSH1 0x80 PUSH1 0x40 MSTORE CALLVALUE DUP1 ISZERO PUSH2 0xF JUMPI PUSH0 PUSH0 REVERT JUMPDEST POP PUSH1 0x4 CALLDATASIZE LT PUSH2 0xA6 JUMPI PUSH0 CALLDATALOAD PUSH1 0xE0 SHR DUP1 PUSH4 0x8AC7B558 GT PUSH2 0x6E JUMPI DUP1 PUSH4 0x8AC7B558 EQ PUSH2 0x15C JUMPI DUP1 PUSH4 0xB345F462 EQ PUSH2 0x191 JUMPI DUP1 PUSH4 0xBC5B7F42 EQ PUSH2 0x1C6 JUMPI DUP1 PUSH4 0xBDA17867 EQ PUSH2 0x1E6 JUMPI DUP1 PUSH4 0xC2580324 EQ PUSH2 0x21B JUMPI DUP1 PUSH4 0xDCE8E100 EQ PUSH2 0x22E JUMPI PUSH0 PUSH0 REVERT JUMPDEST DUP1 PUSH4 0x13467442 EQ PUSH2 0xAA JUMPI DUP1 PUSH4 0x2B85ED9C EQ PUSH2 0xF2 JUMPI DUP1 PUSH4 0x3F51CA00 EQ PUSH2 0xFC JUMPI DUP1 PUSH4 0x58875049 EQ PUSH2 0x11C JUMPI DUP1 PUSH4 0x6E4CD8F6 EQ PUSH2 0x13C JUMPI JUMPDEST PUSH0 PUSH0 REVERT JUMPDEST PUSH2 0xDF PUSH2 0xB8 CALLDATASIZE PUSH1 0x4 PUSH2 0x97C JUMP JUMPDEST PUSH1 0x1 PUSH1 0x1 PUSH1 0xA0 SHL SUB SWAP2 SWAP1 SWAP2 AND PUSH0 SWAP1 DUP2 MSTORE PUSH1 0x6 PUSH1 0x20 SWAP1 DUP2 MSTORE PUSH1 0x40 DUP1 DUP4 KECCAK256 SWAP4 DUP4 MSTORE SWAP3 SWAP1 MSTORE KECCAK256 SLOAD SWAP1 JUMP JUMPDEST PUSH1 0x40 MLOAD SWAP1 DUP2 MSTORE PUSH1 0x20 ADD JUMPDEST PUSH1 0x40 MLOAD DUP1 SWAP2 SUB SWAP1 RETURN JUMPDEST PUSH1 0x1 SLOAD PUSH2 0xDF SWAP1 DUP2 JUMP JUMPDEST PUSH2 0x10F PUSH2 0x10A CALLDATASIZE PUSH1 0x4 PUSH2 0x9EC JUMP JUMPDEST PUSH2 0x241 JUMP JUMPDEST PUSH1 0x40 MLOAD PUSH2 0xE9 SWAP2 SWAP1 PUSH2 0xA3B JUMP JUMPDEST PUSH2 0x12F PUSH2 0x12A CALLDATASIZE PUSH1 0x4 PUSH2 0xA7D JUMP JUMPDEST PUSH2 0x311 JUMP JUMPDEST PUSH1 0x40 MLOAD PUSH2 0xE9 SWAP2 SWAP1 PUSH2 0xC19 JUMP JUMPDEST PUSH2 0x14F PUSH2 0x14A CALLDATASIZE PUSH1 0x4 PUSH2 0xC32 JUMP JUMPDEST PUSH2 0x511 JUMP JUMPDEST PUSH1 0x40 MLOAD PUSH2 0xE9 SWAP2 SWAP1 PUSH2 0xC71 JUMP JUMPDEST PUSH2 0xDF PUSH2 0x16A CALLDATASIZE PUSH1 0x4 PUSH2 0x97C JUMP JUMPDEST PUSH1 0x1 PUSH1 0x1 PUSH1 0xA0 SHL SUB SWAP2 SWAP1 SWAP2 AND PUSH0 SWAP1 DUP2 MSTORE PUSH1 0x3 PUSH1 0x20 SWAP1 DUP2 MSTORE PUSH1 0x40 DUP1 DUP4 KECCAK256 SWAP4 DUP4 MSTORE SWAP3 SWAP1 MSTORE KECCAK256 SLOAD SWAP1 JUMP JUMPDEST PUSH2 0xDF PUSH2 0x19F CALLDATASIZE PUSH1 0x4 PUSH2 0x97C JUMP JUMPDEST PUSH1 0x1 PUSH1 0x1 PUSH1 0xA0 SHL SUB SWAP2 SWAP1 SWAP2 AND PUSH0 SWAP1 DUP2 MSTORE PUSH1 0x5 PUSH1 0x20 SWAP1 DUP2 MSTORE PUSH1 0x40 DUP1 DUP4 KECCAK256 SWAP4 DUP4 MSTORE SWAP3 SWAP1 MSTORE KECCAK256 SLOAD SWAP1 JUMP JUMPDEST PUSH2 0x1D9 PUSH2 0x1D4 CALLDATASIZE PUSH1 0x4 PUSH2 0xCD4 JUMP JUMPDEST PUSH2 0x7B6 JUMP JUMPDEST PUSH1 0x40 MLOAD PUSH2 0xE9 SWAP2 SWAP1 PUSH2 0xCF4 JUMP JUMPDEST PUSH2 0xDF PUSH2 0x1F4 CALLDATASIZE PUSH1 0x4 PUSH2 0x97C JUMP JUMPDEST PUSH1 0x1 PUSH1 0x1 PUSH1 0xA0 SHL SUB SWAP2 SWAP1 SWAP2 AND PUSH0 SWAP1 DUP2 MSTORE PUSH1 0x2 PUSH1 0x20 SWAP1 DUP2 MSTORE PUSH1 0x40 DUP1 DUP4 KECCAK256 SWAP4 DUP4 MSTORE SWAP3 SWAP1 MSTORE KECCAK256 SLOAD SWAP1 JUMP JUMPDEST PUSH2 0xDF PUSH2 0x229 CALLDATASIZE PUSH1 0x4 PUSH2 0xD29 JUMP JUMPDEST PUSH2 0x861 JUMP JUMPDEST PUSH2 0xDF PUSH2 0x23C CALLDATASIZE PUSH1 0x4 PUSH2 0xD29 JUMP JUMPDEST PUSH2 0x880 JUMP JUMPDEST PUSH1 0x60 DUP2 DUP1 PUSH8 0xFFFFFFFFFFFFFFFF DUP2 GT ISZERO PUSH2 0x25D JUMPI PUSH2 0x25D PUSH2 0xD42 JUMP JUMPDEST PUSH1 0x40 MLOAD SWAP1 DUP1 DUP3 MSTORE DUP1 PUSH1 0x20 MUL PUSH1 0x20 ADD DUP3 ADD PUSH1 0x40 MSTORE DUP1 ISZERO PUSH2 0x286 JUMPI DUP2 PUSH1 0x20 ADD PUSH1 0x20 DUP3 MUL DUP1 CALLDATASIZE DUP4 CALLDATACOPY ADD SWAP1 POP JUMPDEST POP SWAP2 POP PUSH0 JUMPDEST DUP2 DUP2 LT ISZERO PUSH2 0x308 JUMPI PUSH0 DUP6 DUP6 DUP4 DUP2 DUP2 LT PUSH2 0x2A6 JUMPI PUSH2 0x2A6 PUSH2 0xD56 JUMP JUMPDEST SWAP1 POP PUSH1 0x20 MUL ADD CALLDATALOAD SWAP1 POP PUSH1 0x8 PUSH0 DUP9 PUSH1 0x1 PUSH1 0x1 PUSH1 0xA0 SHL SUB AND PUSH1 0x1 PUSH1 0x1 PUSH1 0xA0 SHL SUB AND DUP2 MSTORE PUSH1 0x20 ADD SWAP1 DUP2 MSTORE PUSH1 0x20 ADD PUSH0 KECCAK256 PUSH0 DUP3 DUP2 MSTORE PUSH1 0x20 ADD SWAP1 DUP2 MSTORE PUSH1 0x20 ADD PUSH0 KECCAK256 SLOAD DUP5 DUP4 DUP2 MLOAD DUP2 LT PUSH2 0x2F4 JUMPI PUSH2 0x2F4 PUSH2 0xD56 JUMP JUMPDEST PUSH1 0x20 SWAP1 DUP2 MUL SWAP2 SWAP1 SWAP2 ADD ADD MSTORE POP PUSH1 0x1 ADD PUSH2 0x28B JUMP JUMPDEST POP POP SWAP4 SWAP3 POP POP POP JUMP JUMPDEST PUSH2 0x319 PUSH2 0x89D JUMP JUMPDEST PUSH0 DUP3 DUP2 MSTORE PUSH1 0x20 DUP2 DUP2 MSTORE PUSH1 0x40 SWAP2 DUP3 SWAP1 KECCAK256 DUP3 MLOAD PUSH2 0x1C0 DUP2 ADD DUP5 MSTORE DUP2 SLOAD PUSH1 0x1 PUSH1 0x1 PUSH1 0xA0 SHL SUB SWAP1 DUP2 AND DUP3 MSTORE PUSH1 0x1 DUP4 ADD SLOAD AND DUP2 DUP5 ADD MSTORE PUSH1 0x2 DUP3 ADD DUP1 SLOAD DUP6 MLOAD DUP2 DUP7 MUL DUP2 ADD DUP7 ADD DUP8 MSTORE DUP2 DUP2 MSTORE SWAP3 SWAP6 SWAP4 SWAP5 SWAP4 DUP7 ADD SWAP4 DUP4 ADD DUP3 DUP3 DUP1 ISZERO PUSH2 0x393 JUMPI PUSH1 0x20 MUL DUP3 ADD SWAP2 SWAP1 PUSH0 MSTORE PUSH1 0x20 PUSH0 KECCAK256 SWAP1 JUMPDEST DUP2 SLOAD DUP2 MSTORE PUSH1 0x20 ADD SWAP1 PUSH1 0x1 ADD SWAP1 DUP1 DUP4 GT PUSH2 0x37F JUMPI JUMPDEST POP POP POP POP POP DUP2 MSTORE PUSH1 0x20 ADD PUSH1 0x3 DUP3 ADD DUP1 SLOAD DUP1 PUSH1 0x20 MUL PUSH1 0x20 ADD PUSH1 0x40 MLOAD SWAP1 DUP2 ADD PUSH1 0x40 MSTORE DUP1 SWAP3 SWAP2 SWAP1 DUP2 DUP2 MSTORE PUSH1 0x20 ADD DUP3 DUP1 SLOAD DUP1 ISZERO PUSH2 0x3E9 JUMPI PUSH1 0x20 MUL DUP3 ADD SWAP2 SWAP1 PUSH0 MSTORE PUSH1 0x20 PUSH0 KECCAK256 SWAP1 JUMPDEST DUP2 SLOAD DUP2 MSTORE PUSH1 0x20 ADD SWAP1 PUSH1 0x1 ADD SWAP1 DUP1 DUP4 GT PUSH2 0x3D5 JUMPI JUMPDEST POP POP POP POP POP DUP2 MSTORE PUSH1 0x20 ADD PUSH1 0x4 DUP3 ADD DUP1 SLOAD DUP1 PUSH1 0x20 MUL PUSH1 0x20 ADD PUSH1 0x40 MLOAD SWAP1 DUP2 ADD PUSH1 0x40 MSTORE DUP1 SWAP3 SWAP2 SWAP1 DUP2 DUP2 MSTORE PUSH1 0x20 ADD DUP3 DUP1 SLOAD DUP1 ISZERO PUSH2 0x43F JUMPI PUSH1 0x20 MUL DUP3 ADD SWAP2 SWAP1 PUSH0 MSTORE PUSH1 0x20 PUSH0 KECCAK256 SWAP1 JUMPDEST DUP2 SLOAD DUP2 MSTORE PUSH1 0x20 ADD SWAP1 PUSH1 0x1 ADD SWAP1 DUP1 DUP4 GT PUSH2 0x42B JUMPI JUMPDEST POP POP POP SWAP2 DUP4 MSTORE POP POP PUSH1 0x5 DUP3 ADD SLOAD PUSH1 0x20 DUP1 DUP4 ADD SWAP2 SWAP1 SWAP2 MSTORE PUSH1 0x40 DUP1 MLOAD DUP1 DUP3 ADD DUP3 MSTORE PUSH1 0x6 DUP6 ADD SLOAD DUP2 MSTORE PUSH1 0x7 DUP6 ADD SLOAD DUP2 DUP5 ADD MSTORE DUP2 DUP5 ADD MSTORE DUP1 MLOAD PUSH1 0x80 DUP1 DUP3 ADD DUP4 MSTORE PUSH1 0x8 DUP7 ADD SLOAD DUP3 MSTORE PUSH1 0x9 DUP7 ADD SLOAD SWAP4 DUP3 ADD SWAP4 SWAP1 SWAP4 MSTORE PUSH1 0xA DUP6 ADD SLOAD SWAP2 DUP2 ADD SWAP2 SWAP1 SWAP2 MSTORE PUSH1 0xB DUP5 ADD SLOAD PUSH1 0x1 PUSH1 0x1 PUSH1 0xA0 SHL SUB SWAP1 DUP2 AND PUSH1 0x60 DUP4 DUP2 ADD SWAP2 SWAP1 SWAP2 MSTORE DUP5 ADD SWAP2 SWAP1 SWAP2 MSTORE PUSH1 0xC DUP5 ADD SLOAD DUP2 AND SWAP2 DUP4 ADD SWAP2 SWAP1 SWAP2 MSTORE PUSH1 0xD DUP4 ADD SLOAD AND PUSH1 0xA0 DUP3 ADD MSTORE PUSH1 0xE DUP3 ADD SLOAD PUSH1 0xC0 DUP3 ADD MSTORE PUSH1 0xF SWAP1 SWAP2 ADD SLOAD PUSH1 0xFF DUP1 DUP3 AND ISZERO ISZERO PUSH1 0xE0 DUP5 ADD MSTORE PUSH2 0x100 DUP1 DUP4 DIV DUP3 AND SWAP1 DUP5 ADD MSTORE PUSH3 0x10000 SWAP1 SWAP2 DIV AND ISZERO ISZERO PUSH2 0x120 SWAP1 SWAP2 ADD MSTORE SWAP3 SWAP2 POP POP JUMP JUMPDEST PUSH1 0x60 DUP2 DUP1 PUSH8 0xFFFFFFFFFFFFFFFF DUP2 GT ISZERO PUSH2 0x52D JUMPI PUSH2 0x52D PUSH2 0xD42 JUMP JUMPDEST PUSH1 0x40 MLOAD SWAP1 DUP1 DUP3 MSTORE DUP1 PUSH1 0x20 MUL PUSH1 0x20 ADD DUP3 ADD PUSH1 0x40 MSTORE DUP1 ISZERO PUSH2 0x566 JUMPI DUP2 PUSH1 0x20 ADD JUMPDEST PUSH2 0x553 PUSH2 0x89D JUMP JUMPDEST DUP2 MSTORE PUSH1 0x20 ADD SWAP1 PUSH1 0x1 SWAP1 SUB SWAP1 DUP2 PUSH2 0x54B JUMPI SWAP1 POP JUMPDEST POP SWAP2 POP PUSH0 JUMPDEST DUP2 DUP2 LT ISZERO PUSH2 0x7AE JUMPI PUSH0 DUP6 DUP6 DUP4 DUP2 DUP2 LT PUSH2 0x586 JUMPI PUSH2 0x586 PUSH2 0xD56 JUMP JUMPDEST PUSH1 0x20 SWAP1 DUP2 MUL SWAP3 SWAP1 SWAP3 ADD CALLDATALOAD PUSH0 DUP2 DUP2 MSTORE DUP1 DUP5 MSTORE PUSH1 0x40 SWAP1 DUP2 SWAP1 KECCAK256 DUP2 MLOAD PUSH2 0x1C0 DUP2 ADD DUP4 MSTORE DUP2 SLOAD PUSH1 0x1 PUSH1 0x1 PUSH1 0xA0 SHL SUB SWAP1 DUP2 AND DUP3 MSTORE PUSH1 0x1 DUP4 ADD SLOAD AND DUP2 DUP8 ADD MSTORE PUSH1 0x2 DUP3 ADD DUP1 SLOAD DUP5 MLOAD DUP2 DUP10 MUL DUP2 ADD DUP10 ADD DUP7 MSTORE DUP2 DUP2 MSTORE SWAP6 SWAP9 POP SWAP2 SWAP7 SWAP3 SWAP6 POP SWAP3 DUP7 ADD SWAP4 SWAP3 SWAP2 DUP4 ADD DUP3 DUP3 DUP1 ISZERO PUSH2 0x60E JUMPI PUSH1 0x20 MUL DUP3 ADD SWAP2 SWAP1 PUSH0 MSTORE PUSH1 0x20 PUSH0 KECCAK256 SWAP1 JUMPDEST DUP2 SLOAD DUP2 MSTORE PUSH1 0x20 ADD SWAP1 PUSH1 0x1 ADD SWAP1 DUP1 DUP4 GT PUSH2 0x5FA JUMPI JUMPDEST POP POP POP POP POP DUP2 MSTORE PUSH1 0x20 ADD PUSH1 0x3 DUP3 ADD DUP1 SLOAD DUP1 PUSH1 0x20 MUL PUSH1 0x20 ADD PUSH1 0x40 MLOAD SWAP1 DUP2 ADD PUSH1 0x40 MSTORE DUP1 SWAP3 SWAP2 SWAP1 DUP2 DUP2 MSTORE PUSH1 0x20 ADD DUP3 DUP1 SLOAD DUP1 ISZERO PUSH2 0x664 JUMPI PUSH1 0x20 MUL DUP3 ADD SWAP2 SWAP1 PUSH0 MSTORE PUSH1 0x20 PUSH0 KECCAK256 SWAP1 JUMPDEST DUP2 SLOAD DUP2 MSTORE PUSH1 0x20 ADD SWAP1 PUSH1 0x1 ADD SWAP1 DUP1 DUP4 GT PUSH2 0x650 JUMPI JUMPDEST POP POP POP POP POP DUP2 MSTORE PUSH1 0x20 ADD PUSH1 0x4 DUP3 ADD DUP1 SLOAD DUP1 PUSH1 0x20 MUL PUSH1 0x20 ADD PUSH1 0x40 MLOAD SWAP1 DUP2 ADD PUSH1 0x40 MSTORE DUP1 SWAP3 SWAP2 SWAP1 DUP2 DUP2 MSTORE PUSH1 0x20 ADD DUP3 DUP1 SLOAD DUP1 ISZERO PUSH2 0x6BA JUMPI PUSH1 0x20 MUL DUP3 ADD SWAP2 SWAP1 PUSH0 MSTORE PUSH1 0x20 PUSH0 KECCAK256 SWAP1 JUMPDEST DUP2 SLOAD DUP2 MSTORE PUSH1 0x20 ADD SWAP1 PUSH1 0x1 ADD SWAP1 DUP1 DUP4 GT PUSH2 0x6A6 JUMPI JUMPDEST POP POP POP SWAP2 DUP4 MSTORE POP POP PUSH1 0x5 DUP3 ADD SLOAD PUSH1 0x20 DUP1 DUP4 ADD SWAP2 SWAP1 SWAP2 MSTORE PUSH1 0x40 DUP1 MLOAD DUP1 DUP3 ADD DUP3 MSTORE PUSH1 0x6 DUP6 ADD SLOAD DUP2 MSTORE PUSH1 0x7 DUP6 ADD SLOAD DUP2 DUP5 ADD MSTORE DUP2 DUP5 ADD MSTORE DUP1 MLOAD PUSH1 0x80 DUP1 DUP3 ADD DUP4 MSTORE PUSH1 0x8 DUP7 ADD SLOAD DUP3 MSTORE PUSH1 0x9 DUP7 ADD SLOAD SWAP4 DUP3 ADD SWAP4 SWAP1 SWAP4 MSTORE PUSH1 0xA DUP6 ADD SLOAD SWAP2 DUP2 ADD SWAP2 SWAP1 SWAP2 MSTORE PUSH1 0xB DUP5 ADD SLOAD PUSH1 0x1 PUSH1 0x1 PUSH1 0xA0 SHL SUB SWAP1 DUP2 AND PUSH1 0x60 DUP4 DUP2 ADD SWAP2 SWAP1 SWAP2 MSTORE DUP5 ADD SWAP2 SWAP1 SWAP2 MSTORE PUSH1 0xC DUP5 ADD SLOAD DUP2 AND SWAP2 DUP4 ADD SWAP2 SWAP1 SWAP2 MSTORE PUSH1 0xD DUP4 ADD SLOAD AND PUSH1 0xA0 DUP3 ADD MSTORE PUSH1 0xE DUP3 ADD SLOAD PUSH1 0xC0 DUP3 ADD MSTORE PUSH1 0xF SWAP1 SWAP2 ADD SLOAD PUSH1 0xFF DUP1 DUP3 AND ISZERO ISZERO PUSH1 0xE0 DUP5 ADD MSTORE PUSH2 0x100 DUP1 DUP4 DIV DUP3 AND SWAP1 DUP5 ADD MSTORE PUSH3 0x10000 SWAP1 SWAP2 DIV AND ISZERO ISZERO PUSH2 0x120 SWAP1 SWAP2 ADD MSTORE DUP5 MLOAD DUP6 SWAP1 DUP5 SWAP1 DUP2 LT PUSH2 0x79A JUMPI PUSH2 0x79A PUSH2 0xD56 JUMP JUMPDEST PUSH1 0x20 SWAP1 DUP2 MUL SWAP2 SWAP1 SWAP2 ADD ADD MSTORE POP PUSH1 0x1 ADD PUSH2 0x56B JUMP JUMPDEST POP POP SWAP3 SWAP2 POP POP JUMP JUMPDEST PUSH0 DUP3 DUP2 MSTORE PUSH1 0xA PUSH1 0x20 SWAP1 DUP2 MSTORE PUSH1 0x40 DUP1 DUP4 KECCAK256 DUP5 DUP5 MSTORE SWAP1 SWAP2 MSTORE SWAP1 KECCAK256 DUP1 SLOAD PUSH1 0x60 SWAP2 SWAP1 PUSH2 0x7DD SWAP1 PUSH2 0xD6A JUMP JUMPDEST DUP1 PUSH1 0x1F ADD PUSH1 0x20 DUP1 SWAP2 DIV MUL PUSH1 0x20 ADD PUSH1 0x40 MLOAD SWAP1 DUP2 ADD PUSH1 0x40 MSTORE DUP1 SWAP3 SWAP2 SWAP1 DUP2 DUP2 MSTORE PUSH1 0x20 ADD DUP3 DUP1 SLOAD PUSH2 0x809 SWAP1 PUSH2 0xD6A JUMP JUMPDEST DUP1 ISZERO PUSH2 0x854 JUMPI DUP1 PUSH1 0x1F LT PUSH2 0x82B JUMPI PUSH2 0x100 DUP1 DUP4 SLOAD DIV MUL DUP4 MSTORE SWAP2 PUSH1 0x20 ADD SWAP2 PUSH2 0x854 JUMP JUMPDEST DUP3 ADD SWAP2 SWAP1 PUSH0 MSTORE PUSH1 0x20 PUSH0 KECCAK256 SWAP1 JUMPDEST DUP2 SLOAD DUP2 MSTORE SWAP1 PUSH1 0x1 ADD SWAP1 PUSH1 0x20 ADD DUP1 DUP4 GT PUSH2 0x837 JUMPI DUP3 SWAP1 SUB PUSH1 0x1F AND DUP3 ADD SWAP2 JUMPDEST POP POP POP POP POP SWAP1 POP SWAP3 SWAP2 POP POP JUMP JUMPDEST PUSH1 0x1 PUSH1 0x1 PUSH1 0xA0 SHL SUB DUP2 AND PUSH0 SWAP1 DUP2 MSTORE PUSH1 0x4 PUSH1 0x20 MSTORE PUSH1 0x40 DUP2 KECCAK256 SLOAD JUMPDEST SWAP3 SWAP2 POP POP JUMP JUMPDEST PUSH1 0x1 PUSH1 0x1 PUSH1 0xA0 SHL SUB DUP2 AND PUSH0 SWAP1 DUP2 MSTORE PUSH1 0x7 PUSH1 0x20 MSTORE PUSH1 0x40 DUP2 KECCAK256 SLOAD PUSH2 0x87A JUMP JUMPDEST PUSH1 0x40 MLOAD DUP1 PUSH2 0x1C0 ADD PUSH1 0x40 MSTORE DUP1 PUSH0 PUSH1 0x1 PUSH1 0x1 PUSH1 0xA0 SHL SUB AND DUP2 MSTORE PUSH1 0x20 ADD PUSH0 PUSH1 0x1 PUSH1 0x1 PUSH1 0xA0 SHL SUB AND DUP2 MSTORE PUSH1 0x20 ADD PUSH1 0x60 DUP2 MSTORE PUSH1 0x20 ADD PUSH1 0x60 DUP2 MSTORE PUSH1 0x20 ADD PUSH1 0x60 DUP2 MSTORE PUSH1 0x20 ADD PUSH0 DUP2 MSTORE PUSH1 0x20 ADD PUSH2 0x8FD PUSH1 0x40 MLOAD DUP1 PUSH1 0x40 ADD PUSH1 0x40 MSTORE DUP1 PUSH0 DUP2 MSTORE PUSH1 0x20 ADD PUSH0 DUP2 MSTORE POP SWAP1 JUMP JUMPDEST DUP2 MSTORE PUSH1 0x20 ADD PUSH2 0x932 PUSH1 0x40 MLOAD DUP1 PUSH1 0x80 ADD PUSH1 0x40 MSTORE DUP1 PUSH0 DUP2 MSTORE PUSH1 0x20 ADD PUSH0 DUP2 MSTORE PUSH1 0x20 ADD PUSH0 DUP2 MSTORE PUSH1 0x20 ADD PUSH0 PUSH1 0x1 PUSH1 0x1 PUSH1 0xA0 SHL SUB AND DUP2 MSTORE POP SWAP1 JUMP JUMPDEST DUP2 MSTORE PUSH0 PUSH1 0x20 DUP3 ADD DUP2 SWAP1 MSTORE PUSH1 0x40 DUP3 ADD DUP2 SWAP1 MSTORE PUSH1 0x60 DUP3 ADD DUP2 SWAP1 MSTORE PUSH1 0x80 DUP3 ADD DUP2 SWAP1 MSTORE PUSH1 0xA0 DUP3 ADD DUP2 SWAP1 MSTORE PUSH1 0xC0 SWAP1 SWAP2 ADD MSTORE SWAP1 JUMP JUMPDEST DUP1 CALLDATALOAD PUSH1 0x1 PUSH1 0x1 PUSH1 0xA0 SHL SUB DUP2 AND DUP2 EQ PUSH2 0x977 JUMPI PUSH0 PUSH0 REVERT JUMPDEST SWAP2 SWAP1 POP JUMP JUMPDEST PUSH0 PUSH0 PUSH1 0x40 DUP4 DUP6 SUB SLT ISZERO PUSH2 0x98D JUMPI PUSH0 PUSH0 REVERT JUMPDEST PUSH2 0x996 DUP4 PUSH2 0x961 JUMP JUMPDEST SWAP5 PUSH1 0x20 SWAP4 SWAP1 SWAP4 ADD CALLDATALOAD SWAP4 POP POP POP JUMP JUMPDEST PUSH0 PUSH0 DUP4 PUSH1 0x1F DUP5 ADD SLT PUSH2 0x9B4 JUMPI PUSH0 PUSH0 REVERT JUMPDEST POP DUP2 CALLDATALOAD PUSH8 0xFFFFFFFFFFFFFFFF DUP2 GT ISZERO PUSH2 0x9CB JUMPI PUSH0 PUSH0 REVERT JUMPDEST PUSH1 0x20 DUP4 ADD SWAP2 POP DUP4 PUSH1 0x20 DUP3 PUSH1 0x5 SHL DUP6 ADD ADD GT ISZERO PUSH2 0x9E5 JUMPI PUSH0 PUSH0 REVERT JUMPDEST SWAP3 POP SWAP3 SWAP1 POP JUMP JUMPDEST PUSH0 PUSH0 PUSH0 PUSH1 0x40 DUP5 DUP7 SUB SLT ISZERO PUSH2 0x9FE JUMPI PUSH0 PUSH0 REVERT JUMPDEST PUSH2 0xA07 DUP5 PUSH2 0x961 JUMP JUMPDEST SWAP3 POP PUSH1 0x20 DUP5 ADD CALLDATALOAD PUSH8 0xFFFFFFFFFFFFFFFF DUP2 GT ISZERO PUSH2 0xA22 JUMPI PUSH0 PUSH0 REVERT JUMPDEST PUSH2 0xA2E DUP7 DUP3 DUP8 ADD PUSH2 0x9A4 JUMP JUMPDEST SWAP5 SWAP8 SWAP1 SWAP7 POP SWAP4 SWAP5 POP POP POP POP JUMP JUMPDEST PUSH1 0x20 DUP1 DUP3 MSTORE DUP3 MLOAD DUP3 DUP3 ADD DUP2 SWAP1 MSTORE PUSH0 SWAP2 DUP5 ADD SWAP1 PUSH1 0x40 DUP5 ADD SWAP1 DUP4 JUMPDEST DUP2 DUP2 LT ISZERO PUSH2 0xA72 JUMPI DUP4 MLOAD DUP4 MSTORE PUSH1 0x20 SWAP4 DUP5 ADD SWAP4 SWAP1 SWAP3 ADD SWAP2 PUSH1 0x1 ADD PUSH2 0xA54 JUMP JUMPDEST POP SWAP1 SWAP6 SWAP5 POP POP POP POP POP JUMP JUMPDEST PUSH0 PUSH1 0x20 DUP3 DUP5 SUB SLT ISZERO PUSH2 0xA8D JUMPI PUSH0 PUSH0 REVERT JUMPDEST POP CALLDATALOAD SWAP2 SWAP1 POP JUMP JUMPDEST PUSH0 DUP2 MLOAD DUP1 DUP5 MSTORE PUSH1 0x20 DUP5 ADD SWAP4 POP PUSH1 0x20 DUP4 ADD PUSH0 JUMPDEST DUP3 DUP2 LT ISZERO PUSH2 0xAC4 JUMPI DUP2 MLOAD DUP7 MSTORE PUSH1 0x20 SWAP6 DUP7 ADD SWAP6 SWAP1 SWAP2 ADD SWAP1 PUSH1 0x1 ADD PUSH2 0xAA6 JUMP JUMPDEST POP SWAP4 SWAP5 SWAP4 POP POP POP POP JUMP JUMPDEST DUP1 MLOAD PUSH1 0x1 PUSH1 0x1 PUSH1 0xA0 SHL SUB AND DUP3 MSTORE PUSH0 PUSH1 0x20 DUP3 ADD MLOAD PUSH2 0xAF6 PUSH1 0x20 DUP6 ADD DUP3 PUSH1 0x1 PUSH1 0x1 PUSH1 0xA0 SHL SUB AND SWAP1 MSTORE JUMP JUMPDEST POP PUSH1 0x40 DUP3 ADD MLOAD PUSH2 0x240 PUSH1 0x40 DUP6 ADD MSTORE PUSH2 0xB12 PUSH2 0x240 DUP6 ADD DUP3 PUSH2 0xA94 JUMP JUMPDEST SWAP1 POP PUSH1 0x60 DUP4 ADD MLOAD DUP5 DUP3 SUB PUSH1 0x60 DUP7 ADD MSTORE PUSH2 0xB2B DUP3 DUP3 PUSH2 0xA94 JUMP JUMPDEST SWAP2 POP POP PUSH1 0x80 DUP4 ADD MLOAD DUP5 DUP3 SUB PUSH1 0x80 DUP7 ADD MSTORE PUSH2 0xB45 DUP3 DUP3 PUSH2 0xA94 JUMP JUMPDEST SWAP2 POP POP PUSH1 0xA0 DUP4 ADD MLOAD PUSH1 0xA0 DUP6 ADD MSTORE PUSH1 0xC0 DUP4 ADD MLOAD PUSH2 0xB6E PUSH1 0xC0 DUP7 ADD DUP3 DUP1 MLOAD DUP3 MSTORE PUSH1 0x20 SWAP1 DUP2 ADD MLOAD SWAP2 ADD MSTORE JUMP JUMPDEST POP PUSH1 0xE0 DUP4 ADD MLOAD DUP1 MLOAD PUSH2 0x100 DUP7 ADD MSTORE PUSH1 0x20 DUP2 ADD MLOAD PUSH2 0x120 DUP7 ADD MSTORE PUSH1 0x40 DUP2 ADD MLOAD PUSH2 0x140 DUP7 ADD MSTORE PUSH1 0x60 DUP2 ADD MLOAD PUSH1 0x1 PUSH1 0x1 PUSH1 0xA0 SHL SUB AND PUSH2 0x160 DUP7 ADD MSTORE POP PUSH2 0x100 DUP4 ADD MLOAD PUSH1 0x1 PUSH1 0x1 PUSH1 0xA0 SHL SUB DUP2 AND PUSH2 0x180 DUP7 ADD MSTORE POP PUSH2 0x120 DUP4 ADD MLOAD PUSH1 0x1 PUSH1 0x1 PUSH1 0xA0 SHL SUB DUP2 AND PUSH2 0x1A0 DUP7 ADD MSTORE POP PUSH2 0x140 DUP4 ADD MLOAD PUSH2 0x1C0 DUP6 ADD MSTORE PUSH2 0x160 DUP4 ADD MLOAD DUP1 ISZERO ISZERO PUSH2 0x1E0 DUP7 ADD MSTORE POP PUSH2 0x180 DUP4 ADD MLOAD PUSH1 0xFF DUP2 AND PUSH2 0x200 DUP7 ADD MSTORE POP PUSH2 0x1A0 DUP4 ADD MLOAD DUP1 ISZERO ISZERO PUSH2 0x220 DUP7 ADD MSTORE POP SWAP4 SWAP3 POP POP POP JUMP JUMPDEST PUSH1 0x20 DUP2 MSTORE PUSH0 PUSH2 0xC2B PUSH1 0x20 DUP4 ADD DUP5 PUSH2 0xACE JUMP JUMPDEST SWAP4 SWAP3 POP POP POP JUMP JUMPDEST PUSH0 PUSH0 PUSH1 0x20 DUP4 DUP6 SUB SLT ISZERO PUSH2 0xC43 JUMPI PUSH0 PUSH0 REVERT JUMPDEST DUP3 CALLDATALOAD PUSH8 0xFFFFFFFFFFFFFFFF DUP2 GT ISZERO PUSH2 0xC59 JUMPI PUSH0 PUSH0 REVERT JUMPDEST PUSH2 0xC65 DUP6 DUP3 DUP7 ADD PUSH2 0x9A4 JUMP JUMPDEST SWAP1 SWAP7 SWAP1 SWAP6 POP SWAP4 POP POP POP POP JUMP JUMPDEST PUSH0 PUSH1 0x20 DUP3 ADD PUSH1 0x20 DUP4 MSTORE DUP1 DUP5 MLOAD DUP1 DUP4 MSTORE PUSH1 0x40 DUP6 ADD SWAP2 POP PUSH1 0x40 DUP2 PUSH1 0x5 SHL DUP7 ADD ADD SWAP3 POP PUSH1 0x20 DUP7 ADD PUSH0 JUMPDEST DUP3 DUP2 LT ISZERO PUSH2 0xCC8 JUMPI PUSH1 0x3F NOT DUP8 DUP7 SUB ADD DUP5 MSTORE PUSH2 0xCB3 DUP6 DUP4 MLOAD PUSH2 0xACE JUMP JUMPDEST SWAP5 POP PUSH1 0x20 SWAP4 DUP5 ADD SWAP4 SWAP2 SWAP1 SWAP2 ADD SWAP1 PUSH1 0x1 ADD PUSH2 0xC97 JUMP JUMPDEST POP SWAP3 SWAP7 SWAP6 POP POP POP POP POP POP JUMP JUMPDEST PUSH0 PUSH0 PUSH1 0x40 DUP4 DUP6 SUB SLT ISZERO PUSH2 0xCE5 JUMPI PUSH0 PUSH0 REVERT JUMPDEST POP POP DUP1 CALLDATALOAD SWAP3 PUSH1 0x20 SWAP1 SWAP2 ADD CALLDATALOAD SWAP2 POP JUMP JUMPDEST PUSH1 0x20 DUP2 MSTORE PUSH0 DUP3 MLOAD DUP1 PUSH1 0x20 DUP5 ADD MSTORE DUP1 PUSH1 0x20 DUP6 ADD PUSH1 0x40 DUP6 ADD MCOPY PUSH0 PUSH1 0x40 DUP3 DUP6 ADD ADD MSTORE PUSH1 0x40 PUSH1 0x1F NOT PUSH1 0x1F DUP4 ADD AND DUP5 ADD ADD SWAP2 POP POP SWAP3 SWAP2 POP POP JUMP JUMPDEST PUSH0 PUSH1 0x20 DUP3 DUP5 SUB SLT ISZERO PUSH2 0xD39 JUMPI PUSH0 PUSH0 REVERT JUMPDEST PUSH2 0xC2B DUP3 PUSH2 0x961 JUMP JUMPDEST PUSH4 0x4E487B71 PUSH1 0xE0 SHL PUSH0 MSTORE PUSH1 0x41 PUSH1 0x4 MSTORE PUSH1 0x24 PUSH0 REVERT JUMPDEST PUSH4 0x4E487B71 PUSH1 0xE0 SHL PUSH0 MSTORE PUSH1 0x32 PUSH1 0x4 MSTORE PUSH1 0x24 PUSH0 REVERT JUMPDEST PUSH1 0x1 DUP2 DUP2 SHR SWAP1 DUP3 AND DUP1 PUSH2 0xD7E JUMPI PUSH1 0x7F DUP3 AND SWAP2 POP JUMPDEST PUSH1 0x20 DUP3 LT DUP2 SUB PUSH2 0xD9C JUMPI PUSH4 0x4E487B71 PUSH1 0xE0 SHL PUSH0 MSTORE PUSH1 0x22 PUSH1 0x4 MSTORE PUSH1 0x24 PUSH0 REVERT JUMPDEST POP SWAP2 SWAP1 POP JUMP INVALID LOG2 PUSH5 0x6970667358 0x22 SLT KECCAK256 0xB9 PUSH21 0xA6C90C7FCCDC4A25D2244304BFB272B0B16CDDB78D PUSH6 0xD869027244B9 ORIGIN XOR PUSH5 0x736F6C6343 STOP ADDMOD 0x1F STOP CALLER "
		},
		"gasEstimates": {
			"creation": {
				"codeDepositCost": "708800",
				"executionCost": "739",
				"totalCost": "709539"
			},
			"external": {
				"getDisputePurchaseBatch(address,uint256[])": "infinite",
				"getPurchaseBatch(uint256[])": "infinite",
				"getPurchaseCompletedCount(address)": "2667",
				"getPurchaseCompletedIndex(address,uint256)": "2622",
				"getPurchaseIdCompleted(address,uint256)": "2643",
				"getPurchaseIdPending(address,uint256)": "2687",
				"getPurchaseInfo(uint256)": "infinite",
				"getPurchasePendingCount(address)": "2634",
				"getPurchasePendingIndex(address,uint256)": "2621",
				"getRefData(uint256,bytes32)": "infinite",
				"purchaseCount()": "2309"
			},
			"internal": {
				"_createPurchaseItem(address,address,bytes32[] memory,bytes32[] memory,uint256[] memory,uint256,address,address,bool)": "infinite",
				"_setPendingCounter(address,uint256)": "infinite",
				"_setPurchaseCompleted(address,uint256)": "infinite",
				"_setRefData(uint256,bytes32,bytes memory)": "infinite",
				"_updateShipInfo(uint256,uint256,uint256,address)": "infinite"
			}
		},
		"methodIdentifiers": {
			"getDisputePurchaseBatch(address,uint256[])": "3f51ca00",
			"getPurchaseBatch(uint256[])": "6e4cd8f6",
			"getPurchaseCompletedCount(address)": "dce8e100",
			"getPurchaseCompletedIndex(address,uint256)": "13467442",
			"getPurchaseIdCompleted(address,uint256)": "b345f462",
			"getPurchaseIdPending(address,uint256)": "bda17867",
			"getPurchaseInfo(uint256)": "58875049",
			"getPurchasePendingCount(address)": "c2580324",
			"getPurchasePendingIndex(address,uint256)": "8ac7b558",
			"getRefData(uint256,bytes32)": "bc5b7f42",
			"purchaseCount()": "2b85ed9c"
		}
	},
	"abi": [
		{
			"inputs": [
				{
					"internalType": "address",
					"name": "arbitrator",
					"type": "address"
				},
				{
					"internalType": "uint256[]",
					"name": "ids",
					"type": "uint256[]"
				}
			],
			"name": "getDisputePurchaseBatch",
			"outputs": [
				{
					"internalType": "uint256[]",
					"name": "purchaseIds",
					"type": "uint256[]"
				}
			],
			"stateMutability": "view",
			"type": "function"
		},
		{
			"inputs": [
				{
					"internalType": "uint256[]",
					"name": "purchaseIds",
					"type": "uint256[]"
				}
			],
			"name": "getPurchaseBatch",
			"outputs": [
				{
					"components": [
						{
							"internalType": "address",
							"name": "seller",
							"type": "address"
						},
						{
							"internalType": "address",
							"name": "buyer",
							"type": "address"
						},
						{
							"internalType": "bytes32[]",
							"name": "saleIds",
							"type": "bytes32[]"
						},
						{
							"internalType": "bytes32[]",
							"name": "productItemIds",
							"type": "bytes32[]"
						},
						{
							"internalType": "uint256[]",
							"name": "amounts",
							"type": "uint256[]"
						},
						{
							"internalType": "uint256",
							"name": "totalPrice",
							"type": "uint256"
						},
						{
							"components": [
								{
									"internalType": "uint256",
									"name": "disputeFee",
									"type": "uint256"
								},
								{
									"internalType": "uint256",
									"name": "marketFee",
									"type": "uint256"
								}
							],
							"internalType": "struct Fees",
							"name": "fees",
							"type": "tuple"
						},
						{
							"components": [
								{
									"internalType": "uint256",
									"name": "shippedAt",
									"type": "uint256"
								},
								{
									"internalType": "uint256",
									"name": "shipFee",
									"type": "uint256"
								},
								{
									"internalType": "uint256",
									"name": "shippingTime",
									"type": "uint256"
								},
								{
									"internalType": "address",
									"name": "shipper",
									"type": "address"
								}
							],
							"internalType": "struct ShipInfo",
							"name": "shipInfo",
							"type": "tuple"
						},
						{
							"internalType": "address",
							"name": "shipperAssigner",
							"type": "address"
						},
						{
							"internalType": "address",
							"name": "arbitrator",
							"type": "address"
						},
						{
							"internalType": "uint256",
							"name": "disputedAt",
							"type": "uint256"
						},
						{
							"internalType": "bool",
							"name": "isDisputed",
							"type": "bool"
						},
						{
							"internalType": "uint8",
							"name": "status",
							"type": "uint8"
						},
						{
							"internalType": "bool",
							"name": "isPrepaid",
							"type": "bool"
						}
					],
					"internalType": "struct PurchaseInfo[]",
					"name": "purchaseInfos",
					"type": "tuple[]"
				}
			],
			"stateMutability": "view",
			"type": "function"
		},
		{
			"inputs": [
				{
					"internalType": "address",
					"name": "userAddress",
					"type": "address"
				}
			],
			"name": "getPurchaseCompletedCount",
			"outputs": [
				{
					"internalType": "uint256",
					"name": "",
					"type": "uint256"
				}
			],
			"stateMutability": "view",
			"type": "function"
		},
		{
			"inputs": [
				{
					"internalType": "address",
					"name": "accountAddress",
					"type": "address"
				},
				{
					"internalType": "uint256",
					"name": "purchaseId",
					"type": "uint256"
				}
			],
			"name": "getPurchaseCompletedIndex",
			"outputs": [
				{
					"internalType": "uint256",
					"name": "",
					"type": "uint256"
				}
			],
			"stateMutability": "view",
			"type": "function"
		},
		{
			"inputs": [
				{
					"internalType": "address",
					"name": "accountAddress",
					"type": "address"
				},
				{
					"internalType": "uint256",
					"name": "index",
					"type": "uint256"
				}
			],
			"name": "getPurchaseIdCompleted",
			"outputs": [
				{
					"internalType": "uint256",
					"name": "",
					"type": "uint256"
				}
			],
			"stateMutability": "view",
			"type": "function"
		},
		{
			"inputs": [
				{
					"internalType": "address",
					"name": "accountAddress",
					"type": "address"
				},
				{
					"internalType": "uint256",
					"name": "index",
					"type": "uint256"
				}
			],
			"name": "getPurchaseIdPending",
			"outputs": [
				{
					"internalType": "uint256",
					"name": "",
					"type": "uint256"
				}
			],
			"stateMutability": "view",
			"type": "function"
		},
		{
			"inputs": [
				{
					"internalType": "uint256",
					"name": "purchaseId",
					"type": "uint256"
				}
			],
			"name": "getPurchaseInfo",
			"outputs": [
				{
					"components": [
						{
							"internalType": "address",
							"name": "seller",
							"type": "address"
						},
						{
							"internalType": "address",
							"name": "buyer",
							"type": "address"
						},
						{
							"internalType": "bytes32[]",
							"name": "saleIds",
							"type": "bytes32[]"
						},
						{
							"internalType": "bytes32[]",
							"name": "productItemIds",
							"type": "bytes32[]"
						},
						{
							"internalType": "uint256[]",
							"name": "amounts",
							"type": "uint256[]"
						},
						{
							"internalType": "uint256",
							"name": "totalPrice",
							"type": "uint256"
						},
						{
							"components": [
								{
									"internalType": "uint256",
									"name": "disputeFee",
									"type": "uint256"
								},
								{
									"internalType": "uint256",
									"name": "marketFee",
									"type": "uint256"
								}
							],
							"internalType": "struct Fees",
							"name": "fees",
							"type": "tuple"
						},
						{
							"components": [
								{
									"internalType": "uint256",
									"name": "shippedAt",
									"type": "uint256"
								},
								{
									"internalType": "uint256",
									"name": "shipFee",
									"type": "uint256"
								},
								{
									"internalType": "uint256",
									"name": "shippingTime",
									"type": "uint256"
								},
								{
									"internalType": "address",
									"name": "shipper",
									"type": "address"
								}
							],
							"internalType": "struct ShipInfo",
							"name": "shipInfo",
							"type": "tuple"
						},
						{
							"internalType": "address",
							"name": "shipperAssigner",
							"type": "address"
						},
						{
							"internalType": "address",
							"name": "arbitrator",
							"type": "address"
						},
						{
							"internalType": "uint256",
							"name": "disputedAt",
							"type": "uint256"
						},
						{
							"internalType": "bool",
							"name": "isDisputed",
							"type": "bool"
						},
						{
							"internalType": "uint8",
							"name": "status",
							"type": "uint8"
						},
						{
							"internalType": "bool",
							"name": "isPrepaid",
							"type": "bool"
						}
					],
					"internalType": "struct PurchaseInfo",
					"name": "purchaseInfo",
					"type": "tuple"
				}
			],
			"stateMutability": "view",
			"type": "function"
		},
		{
			"inputs": [
				{
					"internalType": "address",
					"name": "userAddress",
					"type": "address"
				}
			],
			"name": "getPurchasePendingCount",
			"outputs": [
				{
					"internalType": "uint256",
					"name": "",
					"type": "uint256"
				}
			],
			"stateMutability": "view",
			"type": "function"
		},
		{
			"inputs": [
				{
					"internalType": "address",
					"name": "accountAddress",
					"type": "address"
				},
				{
					"internalType": "uint256",
					"name": "purchaseId",
					"type": "uint256"
				}
			],
			"name": "getPurchasePendingIndex",
			"outputs": [
				{
					"internalType": "uint256",
					"name": "",
					"type": "uint256"
				}
			],
			"stateMutability": "view",
			"type": "function"
		},
		{
			"inputs": [
				{
					"internalType": "uint256",
					"name": "purchaseId",
					"type": "uint256"
				},
				{
					"internalType": "bytes32",
					"name": "refDataId",
					"type": "bytes32"
				}
			],
			"name": "getRefData",
			"outputs": [
				{
					"internalType": "bytes",
					"name": "",
					"type": "bytes"
				}
			],
			"stateMutability": "view",
			"type": "function"
		},
		{
			"inputs": [],
			"name": "purchaseCount",
			"outputs": [
				{
					"internalType": "uint256",
					"name": "_value",
					"type": "uint256"
				}
			],
			"stateMutability": "view",
			"type": "function"
		}
	]
}