{
	"data": {
		"bytecode": {
			"linkReferences": {},
			"object": "608060405234801561000f575f5ffd5b506040516175f13803806175f183398101604081905261002e91610161565b60015f819055601280546001600160a01b0319908116331790915581546001600160a01b038516911681179091556040805163c62bfd8f60e01b8152905163c62bfd8f916004808201926020929091908290030181865afa158015610095573d5f5f3e3d5ffd5b505050506040513d601f19601f820116820180604052508101906100b99190610192565b600280546001600160a01b03199081166001600160a01b0393841617909155600380549091169183169190911790556040515f906100f690610139565b604051809103905ff08015801561010f573d5f5f3e3d5ffd5b50601380546001600160a01b0319166001600160a01b0392909216919091179055506101b2915050565b615107806124ea83390190565b80516001600160a01b038116811461015c575f5ffd5b919050565b5f5f60408385031215610172575f5ffd5b61017b83610146565b915061018960208401610146565b90509250929050565b5f602082840312156101a2575f5ffd5b6101ab82610146565b9392505050565b61232b806101bf5f395ff3fe608060405234801561000f575f5ffd5b5060043610610148575f3560e01c8063511b578b116100bf578063b91e368c11610079578063b91e368c146103b4578063bd3df6d7146103c7578063bfc4b64d146103da578063c24521c6146103ed578063c3feb030146103f5578063ede6487314610408575f5ffd5b8063511b578b146102de57806354ce7f6a146102f157806370be69c41461031b5780637356273a1461033a57806388f536531461034d5780638d0d1a21146103a1575f5ffd5b806334915b851161011057806334915b85146102605780633527438214610273578063353987861461029257806342dc6d34146102a557806344d185f5146102b857806348130d72146102cb575f5ffd5b8063010b54f81461014c57806317b68848146101be5780631c431183146101d357806330480d1c146101fe578063305c57f514610240575b5f5ffd5b61019e61015a366004611dc2565b5f828152600b60209081526040808320848452825280832054858452600c8352818420858552835281842054958452600d8352818420948452939091529020549092565b604080519384526020840192909252908201526060015b60405180910390f35b6101d16101cc366004611de2565b610432565b005b6013546101e6906001600160a01b031681565b6040516001600160a01b0390911681526020016101b5565b61023261020c366004611e10565b6001600160a01b039091165f908152600860209081526040808320938352929052205490565b6040519081526020016101b5565b61025361024e366004611de2565b610716565b6040516101b59190611e3a565b6003546101e6906001600160a01b031681565b610232610281366004611de2565b5f9081526006602052604090205490565b6101d16102a0366004611f4c565b6107c8565b6102326102b3366004611dc2565b6108ba565b6001546101e6906001600160a01b031681565b6102326102d9366004611fd7565b6108da565b6102536102ec366004611ff9565b6108f7565b6102326102ff366004611dc2565b5f918252600e6020908152604080842092845291905290205490565b610232610329366004611de2565b5f9081526005602052604090205490565b6101d1610348366004612032565b6109a3565b61038161035b366004611de2565b5f90815260046020526040902080546001909101546001600160a01b0391821692911690565b604080516001600160a01b039384168152929091166020830152016101b5565b6102326103af366004611de2565b610cdf565b6101d16103c2366004612060565b610cf2565b6101d16103d53660046120e7565b610fd3565b6101d16103e836600461213d565b611307565b610232611ac3565b6101d1610403366004612182565b611ad2565b610232610416366004611dc2565b5f918252600f6020908152604080842092845291905290205490565b5f818152600460205260409020546001600160a01b0316331461049c5760405162461bcd60e51b815260206004820152601b60248201527f4f6e6c792073656c6c65722063616e2072656d6f7665206974656d000000000060448201526064015b60405180910390fd5b5f8181526006602052604081205490036104ec5760405162461bcd60e51b8152602060048201526011602482015270125d195b481a5cc81b9bdd08195e1a5cdd607a1b6044820152606401610493565b5f818152600660205260408120549061050460075490565b5f8181526005602052604090205490915082821461053d575f838152600560209081526040808320849055838352600690915290208390555b5f84815260046020908152604080832080546001600160a01b0319908116825560019091018054909116905584835260058252808320839055868352600690915281205561058b6007611d15565b335f818152600960209081526040808320888452825280832054938352600a9091529020548082146105ef57335f81815260086020908152604080832085845282528083205486845281842081905593835260098252808320938352929052208290555b335f8181526008602090815260408083208584528252808320839055838352600982528083208a84528252808320839055928252600a90522061063190611d15565b5f8681526011602052604090205460015b8181116106cb575f88815260106020908152604080832084845282528083208054908490558b8452600f835281842081855283528184208490558b8452600b835281842081855283528184208490558b8452600c835281842081855283528184208490558b8452600d8352818420908452909152812055806106c381612234565b915050610642565b505f878152601160205260408120556040518781527fb2897617911191abfbbe16fe5223c98cee1afc548460a94f4f3a3afe275fcdf49060200160405180910390a150505050505050565b5f81815260116020526040902054606090806001600160401b0381111561073f5761073f611e7c565b604051908082528060200260200182016040528015610768578160200160208202803683370190505b5091505f5b818110156107c1575f8481526010602052604081209061078e83600161224c565b81526020019081526020015f20548382815181106107ae576107ae61225f565b602090810291909101015260010161076d565b5050919050565b6012546001600160a01b031633146108225760405162461bcd60e51b815260206004820152601c60248201527f4f6e6c79206d61726b657420636f6e74726163742061646472657373000000006044820152606401610493565b5f5b82518110156108b45781818151811061083f5761083f61225f565b6020026020010151600d5f86848151811061085c5761085c61225f565b602002602001015181526020019081526020015f205f8584815181106108845761088461225f565b602002602001015181526020019081526020015f205f8282546108a7919061224c565b9091555050600101610824565b50505050565b5f8281526010602090815260408083208484529091529020545b92915050565b6001600160a01b0381165f908152600a60205260408120546108d4565b80516060905f816001600160401b0381111561091557610915611e7c565b60405190808252806020026020018201604052801561093e578160200160208202803683370190505b5090505f5b8281101561099b5760055f8683815181106109605761096061225f565b602002602001015181526020019081526020015f20548282815181106109885761098861225f565b6020908102919091010152600101610943565b509392505050565b5f8381526006602052604081205490036109f75760405162461bcd60e51b815260206004820152601560248201527414d85b19481a5d195b481b9bdd08195e1a5cdd1959605a1b6044820152606401610493565b5f838152600460205260409020546001600160a01b03163314610a4a5760405162461bcd60e51b815260206004820152600b60248201526a27b7363c9039b2b63632b960a91b6044820152606401610493565b8051825114610a945760405162461bcd60e51b8152602060048201526016602482015275092dce0eae840d8cadccee8d040dcdee840dac2e8c6d60531b6044820152606401610493565b5f5b8251811015610ca657600f5f8581526020019081526020015f205f848381518110610ac357610ac361225f565b602002602001015181526020019081526020015f20545f03610b225760405162461bcd60e51b8152602060048201526018602482015277141c9bd91d58dd081a5d195b481b9bdd08195e1a5cdd195960421b6044820152606401610493565b818181518110610b3457610b3461225f565b6020026020010151600e5f8681526020019081526020015f205f858481518110610b6057610b6061225f565b602002602001015181526020019081526020015f20541015610bd05760405162461bcd60e51b815260206004820152602360248201527f50726f64756374206974656d20696e73756666696369656e7420616c6c6f77616044820152626e636560e81b6064820152608401610493565b818181518110610be257610be261225f565b6020026020010151600b5f8681526020019081526020015f205f858481518110610c0e57610c0e61225f565b602002602001015181526020019081526020015f205f828254610c31919061224c565b92505081905550818181518110610c4a57610c4a61225f565b6020026020010151600e5f8681526020019081526020015f205f858481518110610c7657610c7661225f565b602002602001015181526020019081526020015f205f828254610c999190612273565b9091555050600101610a96565b506040518381527f1d60dfcbd492a15a6799ceba9a799dbacfd5f51d1c55e2688fb5e04b113f21769060200160405180910390a1505050565b5f818152601160205260408120546108d4565b8051825114610d3b5760405162461bcd60e51b8152602060048201526015602482015274082e4e4c2f240d8cadccee8d040dad2e6dac2e8c6d605b1b6044820152606401610493565b601354604051631a54f34360e21b81526001600160a01b03858116600483015290911690636953cd0c90602401602060405180830381865afa158015610d83573d5f5f3e3d5ffd5b505050506040513d601f19601f82011682018060405250810190610da79190612286565b6001600160a01b0316336001600160a01b031614610df45760405162461bcd60e51b815260206004820152600a60248201526913db9b1e48109c985b9960b21b6044820152606401610493565b5f5b8251811015610f925760135483516001600160a01b039091169063d7984f189033908790879086908110610e2c57610e2c61225f565b60209081029190910101516040516001600160e01b031960e086901b1681526001600160a01b0393841660048201529290911660248301526044820152606401602060405180830381865afa158015610e87573d5f5f3e3d5ffd5b505050506040513d601f19601f82011682018060405250810190610eab91906122a1565b610eee5760405162461bcd60e51b8152602060048201526014602482015273141c9bd91d58dd081a5d195b481a5b9d985b1a5960621b6044820152606401610493565b6040516bffffffffffffffffffffffff19606087811b8216602084015286901b1660348201525f90604801604051602081830303815290604052805190602001209050828281518110610f4357610f4361225f565b6020026020010151600e5f8381526020019081526020015f205f868581518110610f6f57610f6f61225f565b60209081029190910181015182528101919091526040015f205550600101610df6565b506040516001600160a01b03808516919086169033907fc4c55949f6defafd91ee9e934124fae5735d38c2cad3a7d46d1b58312ab5ea98905f90a450505050565b5f8481526006602052604081205490036110275760405162461bcd60e51b815260206004820152601560248201527414d85b19481a5d195b481b9bdd08195e1a5cdd1959605a1b6044820152606401610493565b81518351148015611039575080518351145b61107e5760405162461bcd60e51b8152602060048201526016602482015275092dce0eae840d8cadccee8d040dcdee840dac2e8c6d60531b6044820152606401610493565b5f5b83518110156112cd575f858152600460205260409020546001600160a01b03163314806110b757506012546001600160a01b031633145b6110f15760405162461bcd60e51b815260206004820152600b60248201526a27b7363c9039b2b63632b960a91b6044820152606401610493565b600f5f8681526020019081526020015f205f8583815181106111155761111561225f565b602002602001015181526020019081526020015f20545f036111745760405162461bcd60e51b8152602060048201526018602482015277141c9bd91d58dd081a5d195b481b9bdd08195e1a5cdd195960421b6044820152606401610493565b600b5f8681526020019081526020015f205f8583815181106111985761119861225f565b602002602001015181526020019081526020015f20548382815181106111c0576111c061225f565b602002602001015111156112165760405162461bcd60e51b815260206004820152601c60248201527f4e6f7420657863656564206578697374696e672070726f6475637473000000006044820152606401610493565b8281815181106112285761122861225f565b6020026020010151600b5f8781526020019081526020015f205f8684815181106112545761125461225f565b602002602001015181526020019081526020015f208190555081818151811061127f5761127f61225f565b6020026020010151600c5f8781526020019081526020015f205f8684815181106112ab576112ab61225f565b60209081029190910181015182528101919091526040015f2055600101611080565b506040518481527fe564e99a515264d42686c4a530dc83c9e512e9b9f7e5faec682ec9235903039f9060200160405180910390a150505050565b61130f611d6b565b601354604051631a54f34360e21b81526001600160a01b0386811660048301525f921690636953cd0c90602401602060405180830381865afa158015611357573d5f5f3e3d5ffd5b505050506040513d601f19601f8201168201806040525081019061137b9190612286565b6003546040516305a5562d60e01b81526001600160a01b0380841660048301529293503392909116906305a5562d90602401602060405180830381865afa1580156113c8573d5f5f3e3d5ffd5b505050506040513d601f19601f820116820180604052508101906113ec91906122a1565b61142d5760405162461bcd60e51b815260206004820152601260248201527124b73b30b634b21031b7b63632b1ba34b7b760711b6044820152606401610493565b600354604051634affb86360e01b81526001600160a01b038481166004830152838116602483015290911690634affb86390604401602060405180830381865afa15801561147d573d5f5f3e3d5ffd5b505050506040513d601f19601f820116820180604052508101906114a191906122a1565b6114a9575f5ffd5b60015460408051632b88e1db60e21b815281515f936001600160a01b03169263ae23876c92600480820193918290030181865afa1580156114ec573d5f5f3e3d5ffd5b505050506040513d601f19601f8201168201806040525081019061151091906122bc565b600254604051632435181760e11b81523360048201529193508392506001600160a01b03169063486a302e90602401602060405180830381865afa15801561155a573d5f5f3e3d5ffd5b505050506040513d601f19601f8201168201806040525081019061157e91906122de565b10156115c25760405162461bcd60e51b8152602060048201526013602482015272496e73756666696369656e7420746f6b656e7360681b6044820152606401610493565b845186511480156115d4575083518551145b6116185760405162461bcd60e51b8152602060048201526015602482015274082e4e4c2f240d8cadccee8d040dad2e6dac2e8c6d605b1b6044820152606401610493565b6040516bffffffffffffffffffffffff19606084811b8216602084015289901b1660348201525f9060480160408051601f1981840301815291815281516020928301205f8181526006909352912054909150156116ab5760405162461bcd60e51b815260206004820152601160248201527014d85b19481a5d195b48195e1a5cdd1959607a1b6044820152606401610493565b6116b9600780546001019055565b5f6116c360075490565b6040805180820182526001600160a01b038088168083528d821660208085019182525f89815260048252868120955186549086166001600160a01b031991821617875592516001909601805496909516959092169490941790925560068352838220859055848252600583528382208790558152600a9091522090915061174d9080546001019055565b6001600160a01b0384165f818152600a60209081526040808320546008835281842081855283528184208790559383526009825280832086845290915281208290555b8951811015611a7e57600f5f8581526020019081526020015f205f8b83815181106117bd576117bd61225f565b602002602001015181526020019081526020015f20545f146118215760405162461bcd60e51b815260206004820152601960248201527f4475706c69636174652070726f64756374206974656d204944000000000000006044820152606401610493565b856001600160a01b0316876001600160a01b03161461193c57600e5f8581526020019081526020015f205f8b838151811061185e5761185e61225f565b602002602001015181526020019081526020015f20548982815181106118865761188661225f565b602002602001015111156118d55760405162461bcd60e51b8152602060048201526016602482015275496e73756666696369656e7420616c6c6f77616e636560501b6044820152606401610493565b8881815181106118e7576118e761225f565b6020026020010151600e5f8681526020019081526020015f205f8c84815181106119135761191361225f565b602002602001015181526020019081526020015f205f8282546119369190612273565b90915550505b5f84815260116020526040902080546001019081905589518a90839081106119665761196661225f565b6020026020010151600b5f8781526020019081526020015f205f8d85815181106119925761199261225f565b602002602001015181526020019081526020015f20819055508882815181106119bd576119bd61225f565b6020026020010151600c5f8781526020019081526020015f205f8d85815181106119e9576119e961225f565b602002602001015181526020019081526020015f208190555080600f5f8781526020019081526020015f205f8d8581518110611a2757611a2761225f565b602002602001015181526020019081526020015f20819055508a8281518110611a5257611a5261225f565b6020908102919091018101515f8781526010835260408082209482529390925291902055600101611790565b506040516001600160a01b038b169033907f53991c31dcdb7ed7c47ebe897391f23c41bc0b464c3f1a0a8e3256e90b6edb55905f90a35050505050506108b460015f55565b5f611acd60075490565b905090565b6012546001600160a01b03163314611b2c5760405162461bcd60e51b815260206004820152601c60248201527f4f6e6c79206d61726b657420636f6e74726163742061646472657373000000006044820152606401610493565b8015611bca575f5b8351811015611bc457828181518110611b4f57611b4f61225f565b6020026020010151600b5f878481518110611b6c57611b6c61225f565b602002602001015181526020019081526020015f205f868481518110611b9457611b9461225f565b602002602001015181526020019081526020015f205f828254611bb7919061224c565b9091555050600101611b34565b506108b4565b5f5b8351811015611d0e57828181518110611be757611be761225f565b6020026020010151600b5f878481518110611c0457611c0461225f565b602002602001015181526020019081526020015f205f868481518110611c2c57611c2c61225f565b602002602001015181526020019081526020015f20541015611c875760405162461bcd60e51b8152602060048201526014602482015273125b9cdd59999a58da595b9d081c1c9bd91d58dd60621b6044820152606401610493565b828181518110611c9957611c9961225f565b6020026020010151600b5f878481518110611cb657611cb661225f565b602002602001015181526020019081526020015f205f868481518110611cde57611cde61225f565b602002602001015181526020019081526020015f205f828254611d019190612273565b9091555050600101611bcc565b5050505050565b805480611d645760405162461bcd60e51b815260206004820152601b60248201527f436f756e7465723a2064656372656d656e74206f766572666c6f7700000000006044820152606401610493565b5f19019055565b60025f5403611dbc5760405162461bcd60e51b815260206004820152601f60248201527f5265656e7472616e637947756172643a207265656e7472616e742063616c6c006044820152606401610493565b60025f55565b5f5f60408385031215611dd3575f5ffd5b50508035926020909101359150565b5f60208284031215611df2575f5ffd5b5035919050565b6001600160a01b0381168114611e0d575f5ffd5b50565b5f5f60408385031215611e21575f5ffd5b8235611e2c81611df9565b946020939093013593505050565b602080825282518282018190525f918401906040840190835b81811015611e71578351835260209384019390920191600101611e53565b509095945050505050565b634e487b7160e01b5f52604160045260245ffd5b604051601f8201601f191681016001600160401b0381118282101715611eb857611eb8611e7c565b604052919050565b5f6001600160401b03821115611ed857611ed8611e7c565b5060051b60200190565b5f82601f830112611ef1575f5ffd5b8135611f04611eff82611ec0565b611e90565b8082825260208201915060208360051b860101925085831115611f25575f5ffd5b602085015b83811015611f42578035835260209283019201611f2a565b5095945050505050565b5f5f5f60608486031215611f5e575f5ffd5b83356001600160401b03811115611f73575f5ffd5b611f7f86828701611ee2565b93505060208401356001600160401b03811115611f9a575f5ffd5b611fa686828701611ee2565b92505060408401356001600160401b03811115611fc1575f5ffd5b611fcd86828701611ee2565b9150509250925092565b5f60208284031215611fe7575f5ffd5b8135611ff281611df9565b9392505050565b5f60208284031215612009575f5ffd5b81356001600160401b0381111561201e575f5ffd5b61202a84828501611ee2565b949350505050565b5f5f5f60608486031215612044575f5ffd5b8335925060208401356001600160401b03811115611f9a575f5ffd5b5f5f5f5f60808587031215612073575f5ffd5b843561207e81611df9565b9350602085013561208e81611df9565b925060408501356001600160401b038111156120a8575f5ffd5b6120b487828801611ee2565b92505060608501356001600160401b038111156120cf575f5ffd5b6120db87828801611ee2565b91505092959194509250565b5f5f5f5f608085870312156120fa575f5ffd5b8435935060208501356001600160401b03811115612116575f5ffd5b61212287828801611ee2565b93505060408501356001600160401b038111156120a8575f5ffd5b5f5f5f5f60808587031215612150575f5ffd5b843561215b81611df9565b935060208501356001600160401b03811115612116575f5ffd5b8015158114611e0d575f5ffd5b5f5f5f5f60808587031215612195575f5ffd5b84356001600160401b038111156121aa575f5ffd5b6121b687828801611ee2565b94505060208501356001600160401b038111156121d1575f5ffd5b6121dd87828801611ee2565b93505060408501356001600160401b038111156121f8575f5ffd5b61220487828801611ee2565b925050606085013561221581612175565b939692955090935050565b634e487b7160e01b5f52601160045260245ffd5b5f6001820161224557612245612220565b5060010190565b808201808211156108d4576108d4612220565b634e487b7160e01b5f52603260045260245ffd5b818103818111156108d4576108d4612220565b5f60208284031215612296575f5ffd5b8151611ff281611df9565b5f602082840312156122b1575f5ffd5b8151611ff281612175565b5f5f604083850312156122cd575f5ffd5b505080516020909101519092909150565b5f602082840312156122ee575f5ffd5b505191905056fea2646970667358221220e02524be5cf884244e0a60b035a82c6c8dbd43a5e12b496988f58a8faf15b5b364736f6c634300081f00336080604052348015600e575f5ffd5b506150eb8061001c5f395ff3fe608060405234801561000f575f5ffd5b50600436106100e5575f3560e01c80639600dc6a11610088578063c7d20e6d11610063578063c7d20e6d14610277578063d7984f1814610297578063ea41d0d3146102e8578063f44a6ca9146102fb575f5ffd5b80639600dc6a1461020c578063a059dacf1461022c578063a72d4f1414610264575f5ffd5b806371147f30116100c357806371147f301461014f57806371ce3b8414610187578063787b6725146101c657806378f57364146101d9575f5ffd5b806350208eee146100e95780635a4bab1e1461010f5780636953cd0c14610124575b5f5ffd5b6100fc6100f73660046112be565b61030e565b6040519081526020015b60405180910390f35b61012261011d366004611346565b61032d565b005b6101376101323660046112be565b61050b565b6040516001600160a01b039091168152602001610106565b6100fc61015d3660046113f0565b6001600160a01b039182165f90815260056020908152604080832093909416825291909152205490565b6100fc610195366004611427565b6001600160a01b039283165f9081526003602090815260408083209490951682529283528381209181529152205490565b6101226101d43660046112be565b61056c565b6101376101e7366004611465565b6001600160a01b039182165f9081526020818152604080832093835292905220541690565b61021f61021a3660046114d6565b610695565b6040516101069190611536565b6100fc61023a3660046113f0565b6001600160a01b039182165f90815260016020908152604080832093909416825291909152205490565b610122610272366004611346565b61076b565b61028a610285366004611578565b610a5d565b60405161010691906115c8565b6102d86102a5366004611427565b6001600160a01b039283165f90815260046020908152604080832094909516825292835283812091815291522054151590565b6040519015158152602001610106565b6101226102f6366004611679565b610b35565b6101226103093660046112be565b610ca1565b6001600160a01b0381165f908152600260205260408120545b92915050565b5f5b81518110156104bb57336001600160a01b0316836001600160a01b031663217b2270848481518110610363576103636117a4565b60200260200101516040518263ffffffff1660e01b815260040161038991815260200190565b602060405180830381865afa1580156103a4573d5f5f3e3d5ffd5b505050506040513d601f19601f820116820180604052508101906103c891906117b8565b6001600160a01b0316146103f75760405162461bcd60e51b81526004016103ee906117d3565b60405180910390fd5b335f9081526004602090815260408083206001600160a01b038716845290915281208351909190849084908110610430576104306117a4565b602002602001015181526020019081526020015f20545f0361048f5760405162461bcd60e51b8152602060048201526018602482015277141c9bd91d58dd081a5d195b481b9bdd08195e1a5cdd195960421b60448201526064016103ee565b6104b333848484815181106104a6576104a66117a4565b6020026020010151610f82565b60010161032f565b50816001600160a01b0316336001600160a01b03167f5dd0513838172c91104588a7a843ddd5d464408798be617aefe92dffd6e05a7a836040516104ff9190611536565b60405180910390a35050565b5f816001600160a01b0316638da5cb5b6040518163ffffffff1660e01b8152600401602060405180830381865afa158015610548573d5f5f3e3d5ffd5b505050506040513d601f19601f8201168201806040525081019061032791906117b8565b335f9081526001602090815260408083206001600160a01b038516845290915281205490036105d35760405162461bcd60e51b8152602060048201526013602482015272141c9bd91d58dd081b9bdd08195e1a5cdd1959606a1b60448201526064016103ee565b335f9081526005602090815260408083206001600160a01b0385168452909152812054905b8181101561065157335f9081526003602090815260408083206001600160a01b038716845290915281208161062d8486611801565b81526020019081526020015f20549050610648338583610f82565b506001016105f8565b5061065c33836110f2565b6040516001600160a01b0383169033907f1f563cfde48c6af6c5237960ac71ec6b3685fc47d01cd804010616bf89cc81d3905f90a35050565b6060815f816001600160401b038111156106b1576106b16112e0565b6040519080825280602002602001820160405280156106da578160200160208202803683370190505b5090505f5b82811015610760575f8686838181106106fa576106fa6117a4565b6001600160a01b03808d165f908152600360209081526040808320938f168352928152828220938102959095013580825292909452909220548551929350918591508490811061074c5761074c6117a4565b6020908102919091010152506001016106df565b509695505050505050565b336001600160a01b0316826001600160a01b0316638da5cb5b6040518163ffffffff1660e01b8152600401602060405180830381865afa1580156107b1573d5f5f3e3d5ffd5b505050506040513d601f19601f820116820180604052508101906107d591906117b8565b6001600160a01b0316146107fb5760405162461bcd60e51b81526004016103ee906117d3565b335f9081526001602090815260408083206001600160a01b0386168452909152812054900361082e5761082e33836111e4565b5f5b8151811015610a1957336001600160a01b0316836001600160a01b031663217b2270848481518110610864576108646117a4565b60200260200101516040518263ffffffff1660e01b815260040161088a91815260200190565b602060405180830381865afa1580156108a5573d5f5f3e3d5ffd5b505050506040513d601f19601f820116820180604052508101906108c991906117b8565b6001600160a01b0316146108ef5760405162461bcd60e51b81526004016103ee906117d3565b335f9081526004602090815260408083206001600160a01b038716845290915281208351909190849084908110610928576109286117a4565b602002602001015181526020019081526020015f20545f146109835760405162461bcd60e51b8152602060048201526014602482015273141c9bd91d58dd081a5d195b48195e1a5cdd195960621b60448201526064016103ee565b610a11338484848151811061099a5761099a6117a4565b60200260200101516001600160a01b039283165f81815260056020908152604080832095909616808352948152858220805460010190819055838352600382528683208684528252868320818452825286832085905592825260048152858220948252938452848120928152919092529190912055565b600101610830565b50816001600160a01b0316336001600160a01b03167f1b02e58e38e2e9d085a20797f222ae215d992079e3561cc8ed4663633ebe7893836040516104ff9190611536565b6060815f816001600160401b03811115610a7957610a796112e0565b604051908082528060200260200182016040528015610aa2578160200160208202803683370190505b5090505f5b82811015610b2b575f868683818110610ac257610ac26117a4565b6001600160a01b03808c165f908152602081815260408083209482029690960135808352939052939093205486519194509092169185915084908110610b0a57610b0a6117a4565b6001600160a01b039092166020928302919091019091015250600101610aa7565b5095945050505050565b5f8484338585604051610b479061129a565b610b5595949392919061184e565b604051809103905ff080158015610b6e573d5f5f3e3d5ffd5b50335f8181526002602090815260408083208054600190810191829055848452828520828652845282852080546001600160a01b0319166001600160a01b03891690811790915586865290845282852081865290935281842081905581516351d930f960e11b8152600481019590955290519495508594909363a3b261f291602480830192869291908290030181865afa158015610c0e573d5f5f3e3d5ffd5b505050506040513d5f823e601f3d908101601f19168201604052610c3591908101906118fd565b90505f5b8151811015610c6157610c59338584848151811061099a5761099a6117a4565b600101610c39565b506040516001600160a01b0384169033907fa66df2ac9413442073c2e47b33e555f5891823df7841196bd1f197175a12f8ae905f90a35050505050505050565b6001600160a01b038116610cf75760405162461bcd60e51b815260206004820152601760248201527f496e76616c69642070726f64756374206164647265737300000000000000000060448201526064016103ee565b336001600160a01b0316816001600160a01b0316638da5cb5b6040518163ffffffff1660e01b8152600401602060405180830381865afa158015610d3d573d5f5f3e3d5ffd5b505050506040513d601f19601f82011682018060405250810190610d6191906117b8565b6001600160a01b031614610dab5760405162461bcd60e51b81526020600482015260116024820152702737ba10383937b23ab1ba1037bbb732b960791b60448201526064016103ee565b335f9081526001602090815260408083206001600160a01b038516845290915290205415610e145760405162461bcd60e51b815260206004820152601660248201527550726f6475637420616c72656164792065786973747360501b60448201526064016103ee565b610e1e33826111e4565b6040516351d930f960e11b81523360048201525f906001600160a01b0383169063a3b261f2906024015f60405180830381865afa158015610e61573d5f5f3e3d5ffd5b505050506040513d5f823e601f3d908101601f19168201604052610e8891908101906118fd565b90505f5b8151811015610f4857335f9081526004602090815260408083206001600160a01b038716845290915281208351909190849084908110610ece57610ece6117a4565b602002602001015181526020019081526020015f20545f14610f295760405162461bcd60e51b8152602060048201526014602482015273141c9bd91d58dd081a5d195b48195e1a5cdd195960621b60448201526064016103ee565b610f40338484848151811061099a5761099a6117a4565b600101610e8c565b506040516001600160a01b0383169033907f9bfd933c51e5f8ade721377912ff42184bf89d04af3e363e86355dec1733b0b5905f90a35050565b6001600160a01b038084165f908152600460209081526040808320938616835292815282822084835290529081205490819003610ffc5760405162461bcd60e51b8152602060048201526018602482015277141c9bd91d58dd081a5d195b481b9bdd08195e1a5cdd195960421b60448201526064016103ee565b6001600160a01b038481165f90815260056020908152604080832093871683529290522054818114611080576001600160a01b038581165f8181526003602090815260408083209489168084529482528083208684528252808320548784528184208190559383526004825280832094835293815283822092825291909152208290555b6001600160a01b038086165f81815260036020908152604080832094891680845294825280832086845282528083208390558383526004825280832085845282528083208884528252808320839055928252600581528282209382529290925290206110eb90611244565b5050505050565b6001600160a01b038281165f8181526001602090815260408083208686168452825280832054938352600282528083205483835281842081855290925290912054919290911681831461118b576001600160a01b038581165f81815260208181526040808320888452825280832080546001600160a01b0319169587169586179055928252600181528282209382529290925290208390555b6001600160a01b038086165f81815260208181526040808320878452825280832080546001600160a01b03191690558383526001825280832094891683529381528382208290559181526002909152206110eb90611244565b6001600160a01b039182165f8181526002602090815260408083208054600190810191829055848452828520828652845282852080546001600160a01b031916979098169687179097559383529481528482209382529290925291902055565b8054806112935760405162461bcd60e51b815260206004820152601b60248201527f436f756e7465723a2064656372656d656e74206f766572666c6f77000000000060448201526064016103ee565b5f19019055565b6137288061198e83390190565b6001600160a01b03811681146112bb575f5ffd5b50565b5f602082840312156112ce575f5ffd5b81356112d9816112a7565b9392505050565b634e487b7160e01b5f52604160045260245ffd5b604051601f8201601f191681016001600160401b038111828210171561131c5761131c6112e0565b604052919050565b5f6001600160401b0382111561133c5761133c6112e0565b5060051b60200190565b5f5f60408385031215611357575f5ffd5b8235611362816112a7565b915060208301356001600160401b0381111561137c575f5ffd5b8301601f8101851361138c575f5ffd5b803561139f61139a82611324565b6112f4565b8082825260208201915060208360051b8501019250878311156113c0575f5ffd5b6020840193505b828410156113e25783358252602093840193909101906113c7565b809450505050509250929050565b5f5f60408385031215611401575f5ffd5b823561140c816112a7565b9150602083013561141c816112a7565b809150509250929050565b5f5f5f60608486031215611439575f5ffd5b8335611444816112a7565b92506020840135611454816112a7565b929592945050506040919091013590565b5f5f60408385031215611476575f5ffd5b8235611481816112a7565b946020939093013593505050565b5f5f83601f84011261149f575f5ffd5b5081356001600160401b038111156114b5575f5ffd5b6020830191508360208260051b85010111156114cf575f5ffd5b9250929050565b5f5f5f5f606085870312156114e9575f5ffd5b84356114f4816112a7565b93506020850135611504816112a7565b925060408501356001600160401b0381111561151e575f5ffd5b61152a8782880161148f565b95989497509550505050565b602080825282518282018190525f918401906040840190835b8181101561156d57835183526020938401939092019160010161154f565b509095945050505050565b5f5f5f6040848603121561158a575f5ffd5b8335611595816112a7565b925060208401356001600160401b038111156115af575f5ffd5b6115bb8682870161148f565b9497909650939450505050565b602080825282518282018190525f918401906040840190835b8181101561156d5783516001600160a01b03168352602093840193909201916001016115e1565b5f82601f830112611617575f5ffd5b8135602083015f5f6001600160401b03841115611636576116366112e0565b50601f8301601f191660200161164b816112f4565b91505082815285838301111561165f575f5ffd5b828260208301375f92810160200192909252509392505050565b5f5f5f5f6080858703121561168c575f5ffd5b84356001600160401b038111156116a1575f5ffd5b6116ad87828801611608565b94505060208501356001600160401b038111156116c8575f5ffd5b6116d487828801611608565b93505060408501356001600160401b038111156116ef575f5ffd5b6116fb87828801611608565b92505060608501356001600160401b03811115611716575f5ffd5b8501601f81018713611726575f5ffd5b803561173461139a82611324565b8082825260208201915060208360051b850101925089831115611755575f5ffd5b602084015b838110156117955780356001600160401b03811115611777575f5ffd5b6117868c602083890101611608565b8452506020928301920161175a565b50969995985093965050505050565b634e487b7160e01b5f52603260045260245ffd5b5f602082840312156117c8575f5ffd5b81516112d9816112a7565b602080825260149082015273496e76616c69642070726f64756374206974656d60601b604082015260600190565b8181038181111561032757634e487b7160e01b5f52601160045260245ffd5b5f81518084528060208401602086015e5f602082860101526020601f19601f83011685010191505092915050565b60a081525f61186060a0830188611820565b82810360208401526118728188611820565b6001600160a01b0387166040850152838103606085015290506118958186611820565b9050828103608084015280845180835260208301915060208160051b840101602087015f5b838110156118ec57601f198684030185526118d6838351611820565b60209586019590935091909101906001016118ba565b50909b9a5050505050505050505050565b5f6020828403121561190d575f5ffd5b81516001600160401b03811115611922575f5ffd5b8201601f81018413611932575f5ffd5b805161194061139a82611324565b8082825260208201915060208360051b850101925086831115611961575f5ffd5b6020840193505b82841015611983578351825260209384019390910190611968565b969550505050505056fe608060405234801561000f575f5ffd5b5060405161372838038061372883398101604081905261002e91610a3d565b84848460025f8484848481610042336101f0565b6001600160a01b038116610069576040516306b620db60e21b815260040160405180910390fd5b610072816101f0565b506040805180820190915260048152632936598960e21b60208201526100b9907feafec4d89fa9619884b60000a4d96624a38f7ac2d8d9a604ecf07c12c77e480c9061023f565b6100e37fdeba1e292f8ba88238e10ab3c7f88bd4be4fac56cad5194b6ecceaf653468af18561023f565b61010d7f2f0a68ab07768e01943a599e73362a0e17a63a72e94dd2e384d2c1d4db9327568461023f565b6040805160208101839052610154917fe0261fa95db2eb3b5439bd033cda66d56b96f92f243a8228fd87550ed7bdfdb3910160408051601f1981840301815291905261023f565b5050604080516020810185905261019f93507ff675e9361af1c1664c1868cfa3eb97672d6b1a513aa5b81dec34c9ee330e818d92500160408051601f19818403018152919052610293565b505060068054610100600160a81b0319166101006001600160a01b03891602179055506101dd91505f5160206137085f395f51905f52905083610357565b6101e6816103a1565b5050505050610da9565b5f80546001600160a01b038381166001600160a01b0319831681178455604051919092169283917f8be0079c531659141344cd1fd0a4f28419497f9722a3daafe3b4186f6b6457e09190a35050565b5f8281526001602052604090206102568282610b92565b50817fece574603820d07bc9b91f2a932baadf4628aabcb8afba49776529c14a6104b2826040516102879190610c7a565b60405180910390a25050565b7f2145e1d6d074577dc71ef54c3807742b41b053a9352ae6b491331509acb9750f82016102d3576040516385c169bd60e01b815260040160405180910390fd5b7fd0f59754f88971fe6bc5a6618cc9d5f1e859c58d16b22d1c7b2d3e2b246cd8aa820161031357604051630eceab6760e31b815260040160405180910390fd5b7f1fd9e056a24d14c4abc642fcc325992a946906d0dbc57dd70278aaf12842024d820161023f57604051634ef6d7fb60e01b815260040160405180910390fd5b5050565b7f098a16c9e50e3e99b3e797305c146898d294e5aec55a47e213cb3611ccf17e73820161039757604051631b32400560e11b815260040160405180910390fd5b6103538282610293565b80515f816001600160401b038111156103bc576103bc6108e6565b6040519080825280602002602001820160405280156103e5578160200160208202803683370190505b5090505f5b828110156104ee576006805460ff16905f61040483610ca0565b82546101009290920a60ff81810219909316918316021790915560065484519116915083908390811061043957610439610cbe565b602002602001018181525050610494600660019054906101000a90046001600160a01b031683838151811061047057610470610cbe565b6020026020010151600160405180602001604052805f8152506104f460201b60201c565b6104e68282815181106104a9576104a9610cbe565b60200260200101515f5160206137085f395f51905f525f1b8684815181106104d3576104d3610cbe565b602002602001015161066a60201b60201c565b6001016103ea565b50505050565b6001600160a01b03841661051b576040516324ecef4d60e01b815260040160405180910390fd5b5f838152600360205260409020546001600160a01b031615610558576040516334c7b51160e01b8152600481018490526024015b60405180910390fd5b5f838152600360205260409020546001600160a01b031615610590576040516334c7b51160e01b81526004810184905260240161054f565b60025f815461059e90610cd2565b909155506001600160a01b0384165f9081526004602052604090206105c390846106f8565b505f8381526003602052604080822080546001600160a01b0319166001600160a01b03881690811790915590518592907fb333c813a7426a7a11e2b190cad52c44119421594b47f6f32ace6d8c7207b2bf9061062490339088908890610cea565b60405180910390a45f335f868685604051602001610646959493929190610d1e565b60408051601f19818403018152919052905061066385848361070c565b5050505050565b8060015f858560405160200161068a929190918252602082015260400190565b6040516020818303038152906040528051906020012081526020019081526020015f2090816106b99190610b92565b5081837fa6e4251f855f750545fe414f120db91c76b88def14d120969e5bb2d3f05debbb836040516106eb9190610c7a565b60405180910390a3505050565b5f6107038383610814565b90505b92915050565b61071d83631aed5a8560e21b610860565b156107b257604051631aed5a8560e21b81526001600160a01b03841690636bb56a1490610770907f0b084a55ebf70fd3c06fd755269dac2212c4d3f0f4d09079780bfa50c1b2984d908590600401610d58565b5f604051808303815f875af115801561078b573d5f5f3e3d5ffd5b505050506040513d5f823e601f3d908101601f191682016040526104ee9190810190610d78565b8161080f576001600160a01b0383163b156107eb57604051634349776d60e01b81526001600160a01b038416600482015260240161054f565b604051630317313760e01b81526001600160a01b038416600482015260240161054f565b505050565b5f81815260018301602052604081205461085957508154600181810184555f848152602080822090930184905584548482528286019093526040902091909155610706565b505f610706565b604080516001600160e01b03198316602480830191909152825180830390910181526044909101909152602080820180516001600160e01b03166301ffc9a760e01b17815282515f9392849283928392918391908a617530fa92503d91505f5190508280156108d0575060208210155b80156108db57505f81115b979650505050505050565b634e487b7160e01b5f52604160045260245ffd5b604051601f8201601f191681016001600160401b0381118282101715610922576109226108e6565b604052919050565b5f82601f830112610939575f5ffd5b8151602083015f806001600160401b03841115610958576109586108e6565b50601f8301601f191660200161096d816108fa565b915050828152858383011115610981575f5ffd5b8282602083015e5f92810160200192909252509392505050565b5f82601f8301126109aa575f5ffd5b81516001600160401b038111156109c3576109c36108e6565b8060051b6109d3602082016108fa565b918252602081850181019290810190868411156109ee575f5ffd5b6020860192505b83831015610a335782516001600160401b03811115610a12575f5ffd5b610a21886020838a010161092a565b835250602092830192909101906109f5565b9695505050505050565b5f5f5f5f5f60a08688031215610a51575f5ffd5b85516001600160401b03811115610a66575f5ffd5b610a728882890161092a565b602088015190965090506001600160401b03811115610a8f575f5ffd5b610a9b8882890161092a565b604088015190955090506001600160a01b0381168114610ab9575f5ffd5b60608701519093506001600160401b03811115610ad4575f5ffd5b610ae08882890161092a565b608088015190935090506001600160401b03811115610afd575f5ffd5b610b098882890161099b565b9150509295509295909350565b600181811c90821680610b2a57607f821691505b602082108103610b4857634e487b7160e01b5f52602260045260245ffd5b50919050565b601f82111561080f57805f5260205f20601f840160051c81016020851015610b735750805b601f840160051c820191505b81811015610663575f8155600101610b7f565b81516001600160401b03811115610bab57610bab6108e6565b610bbf81610bb98454610b16565b84610b4e565b6020601f821160018114610bf1575f8315610bda5750848201515b5f19600385901b1c1916600184901b178455610663565b5f84815260208120601f198516915b82811015610c205787850151825560209485019460019092019101610c00565b5084821015610c3d57868401515f19600387901b60f8161c191681555b50505050600190811b01905550565b5f81518084528060208401602086015e5f602082860101526020601f19601f83011685010191505092915050565b602081525f6107036020830184610c4c565b634e487b7160e01b5f52601160045260245ffd5b5f60ff821660ff8103610cb557610cb5610c8c565b60010192915050565b634e487b7160e01b5f52603260045260245ffd5b5f60018201610ce357610ce3610c8c565b5060010190565b6001600160a01b038416815282151560208201526060604082018190525f90610d1590830184610c4c565b95945050505050565b6001600160a01b0386811682528581166020830152841660408201526060810183905260a0608082018190525f906108db90830184610c4c565b828152604060208201525f610d706040830184610c4c565b949350505050565b5f60208284031215610d88575f5ffd5b81516001600160401b03811115610d9d575f5ffd5b610d708482850161092a565b61295280610db65f395ff3fe608060405260043610610143575f3560e01c8063715018a6116100b5578063a3b261f21161006e578063a3b261f21461041a578063be9f0e6f14610446578063d6c1407c14610465578063db8c966314610484578063dedff9c6146104a3578063f2fde38b146104c25761019c565b8063715018a6146103865780637e87632c1461039a5780637f23690c146103b957806386a10ddd146103cc5780638da5cb5b146103eb57806397902421146104075761019c565b80632a3654a4116101075780632a3654a4146102bd57806349a6078d146102dc578063511b69521461030857806354f6127f146103295780636963d4381461034857806370a08231146103675761019c565b806301ffc9a7146101dc57806316e023b31461021057806318160ddd1461023c5780631d26fce61461025a578063217b2270146102865761019c565b3661019c57345f036101835760405163e5099ee360e01b815260040161017a9060208082526004908201525f604082015260600190565b60405180910390fd5b6040516330fa4a2160e11b815260040160405180910390fd5b5f36606060048210156101c657828260405163e5099ee360e01b815260040161017a929190611c6a565b6101d083836104e1565b80519350602001915050f35b3480156101e7575f5ffd5b506101fb6101f6366004611c98565b6105d0565b60405190151581526020015b60405180910390f35b34801561021b575f5ffd5b5061022f61022a366004611cbf565b610603565b6040516102079190611d0d565b348015610247575f5ffd5b506002545b604051908152602001610207565b348015610265575f5ffd5b50610279610274366004611def565b610616565b6040516102079190611e52565b348015610291575f5ffd5b506102a56102a0366004611eb5565b6106fc565b6040516001600160a01b039091168152602001610207565b3480156102c8575f5ffd5b506101fb6102d7366004611ee7565b610734565b3480156102e7575f5ffd5b506102fb6102f6366004611eb5565b61073f565b6040516102079190611f0f565b348015610313575f5ffd5b50610327610322366004611fdc565b610760565b005b348015610334575f5ffd5b5061022f610343366004611eb5565b6107a4565b348015610353575f5ffd5b5061027961036236600461204f565b6107af565b348015610372575f5ffd5b5061024c6103813660046120be565b6108d9565b348015610391575f5ffd5b506103276108f9565b3480156103a5575f5ffd5b506103276103b4366004612219565b61090c565b6103276103c73660046122ea565b6109fa565b3480156103d7575f5ffd5b506103276103e6366004612323565b610a2f565b3480156103f6575f5ffd5b505f546001600160a01b03166102a5565b610327610415366004612375565b610ba6565b348015610425575f5ffd5b506104396104343660046120be565b610bd7565b60405161020791906123ce565b348015610451575f5ffd5b50610327610460366004612405565b610bfa565b348015610470575f5ffd5b5061032761047f366004612486565b610cc3565b34801561048f575f5ffd5b5061032761049e3660046124bb565b610cdb565b3480156104ae575f5ffd5b506102796104bd36600461251e565b610dbc565b3480156104cd575f5ffd5b506103276104dc3660046120be565b610e65565b60605f6104f85f356001600160e01b031916610ede565b5090506001600160a01b03811661052f5760405163bb370b2b60e01b81526001600160e01b03195f3516600482015260240161017a565b5f5f826001600160a01b03163487873334604051602001610553949392919061254f565b60408051601f198184030181529082905261056d9161257a565b5f6040518083038185875af1925050503d805f81146105a7576040519150601f19603f3d011682016040523d82523d5f602084013e6105ac565b606091505b509150915081156105c15792506105ca915050565b80518060208301fd5b92915050565b5f6001600160e01b03198216631d138b8360e11b14806105f457506105f482610f5a565b806105ca57506105ca82610f7e565b606061060f8383610fb3565b9392505050565b6060815183511461063a576040516317d38eff60e11b815260040160405180910390fd5b82516001600160401b0381111561065357610653611d1f565b60405190808252806020026020018201604052801561068657816020015b60608152602001906001900390816106715790505b5090505f5b83518110156106f5576106d08482815181106106a9576106a9612590565b60200260200101518483815181106106c3576106c3612590565b6020026020010151610fb3565b8282815181106106e2576106e2612590565b602090810291909101015260010161068b565b5092915050565b5f818152600360205260408120546001600160a01b0316806105ca57604051635747cd1b60e11b81526004810184905260240161017a565b5f61060f8383611086565b606061074a826110c1565b5f8281526005602052604090206105ca906110f8565b61076a3384611086565b61079057604051631294d2a960e01b81526004810184905233602482015260440161017a565b61079d8585858585611104565b5050505050565b60606105ca826112e0565b6060816001600160401b038111156107c9576107c9611d1f565b6040519080825280602002602001820160405280156107fc57816020015b60608152602001906001900390816107e75790505b5090505f5b828110156106f5575f803086868581811061081e5761081e612590565b905060200281019061083091906125a4565b60405161083e9291906125ed565b5f60405180830381855af49150503d805f8114610876576040519150601f19603f3d011682016040523d82523d5f602084013e61087b565b606091505b5091509150816108b1578051156108955780518082602001fd5b60405163234eb81960e01b81526004810184905260240161017a565b808484815181106108c4576108c4612590565b60209081029190910101525050600101610801565b6001600160a01b0381165f9081526004602052604081206105ca9061137f565b610901611388565b61090a5f6113e1565b565b845184518114158061091f575083518114155b8061092b575082518114155b80610937575081518114155b15610955576040516393a8311960e01b815260040160405180910390fd5b5f5b818110156109f1576109e987828151811061097457610974612590565b602002602001015187838151811061098e5761098e612590565b60200260200101518784815181106109a8576109a8612590565b60200260200101518785815181106109c2576109c2612590565b60200260200101518786815181106109dc576109dc612590565b6020026020010151610760565b600101610957565b50505050505050565b610a02611388565b3415610a215760405163f36ba73760e01b815260040160405180910390fd5b610a2b8282611430565b5050565b5f610a39836106fc565b90506001600160a01b0381163314610a7c57604051632d938f5160e11b81526001600160a01b03821660048201526024810184905233604482015260640161017a565b6001600160a01b038416610aa357604051639577b8b360e01b815260040160405180910390fd5b836001600160a01b0316816001600160a01b031603610ad5576040516344fed6b160e11b815260040160405180910390fd5b5f838152600560205260408120610aec908661147a565b905080610b1e576040516314ec4d6d60e31b81526001600160a01b03861660048201526024810185905260440161017a565b83826001600160a01b0316866001600160a01b03167f1b1b58aa2ec0cec2228b2d37124556d41f5a1f7b12f089171f896cc23667121586604051610b629190611d0d565b60405180910390a45f3385600186604051602001610b8394939291906125fc565b6040516020818303038152906040529050610b9e868261148e565b505050505050565b610bae611388565b3415610bcd5760405163f36ba73760e01b815260040160405180910390fd5b610a2b82826114b9565b6001600160a01b0381165f9081526004602052604090206060906105ca906110f8565b610c02611388565b81518351141580610c1557508051825114155b15610c33576040516317d38eff60e11b815260040160405180910390fd5b82515f03610c54576040516380c9830560e01b815260040160405180910390fd5b5f5b8351811015610cbd57610cb5848281518110610c7457610c74612590565b6020026020010151848381518110610c8e57610c8e612590565b6020026020010151848481518110610ca857610ca8612590565b602002602001015161154b565b600101610c56565b50505050565b610ccb611388565b610cd683838361154b565b505050565b5f610ce5846106fc565b9050336001600160a01b03821614610d38576001600160a01b0385163314610d385760405163760b5acd60e01b81523360048201526001600160a01b03821660248201526044810185905260640161017a565b6001600160a01b038516610d5f57604051639577b8b360e01b815260040160405180910390fd5b846001600160a01b0316816001600160a01b031603610d91576040516344fed6b160e11b815260040160405180910390fd5b610d9e85828686866115d9565b821561079d575f81855f85604051602001610b8394939291906125fc565b606081516001600160401b03811115610dd757610dd7611d1f565b604051908082528060200260200182016040528015610e0a57816020015b6060815260200190600190039081610df55790505b5090505f5b8251811015610e5f57610e3a838281518110610e2d57610e2d612590565b60200260200101516112e0565b828281518110610e4c57610e4c612590565b6020908102919091010152600101610e0f565b50919050565b610e6d611388565b6001600160a01b038116610ed25760405162461bcd60e51b815260206004820152602660248201527f4f776e61626c653a206e6577206f776e657220697320746865207a65726f206160448201526564647265737360d01b606482015260840161017a565b610edb816113e1565b50565b5f8080610f02696773c5a04a6d4300884b60b11b6001600160e01b03198616611678565b90505f610f0e826112e0565b90508051601414158015610f225750805115155b15610f4257806040516342bfe79f60e01b815260040161017a9190611d0d565b610f4b81612634565b60601c95600195509350505050565b5f6001600160e01b0319821663a918fa6b60e01b14806105ca57506105ca826116cb565b5f80610f906301ffc9a760e01b610ede565b5090506001600160a01b038116610fa957505f92915050565b61060f81846116ff565b606060015f8484604051602001610fd4929190918252602082015260400190565b6040516020818303038152906040528051906020012081526020019081526020015f20805461100290612682565b80601f016020809104026020016040519081016040528092919081815260200182805461102e90612682565b80156110795780601f1061105057610100808354040283529160200191611079565b820191905f5260205f20905b81548152906001019060200180831161105c57829003601f168201915b5050505050905092915050565b5f611090826106fc565b6001600160a01b0316836001600160a01b0316148061060f57505f82815260056020526040902061060f9084611785565b5f818152600360205260409020546001600160a01b0316610edb57604051635747cd1b60e11b81526004810182905260240161017a565b60605f61060f836117a6565b5f61110e846106fc565b9050856001600160a01b0316816001600160a01b03161461115c57604051632d938f5160e11b81526001600160a01b038083166004830152602482018690528716604482015260640161017a565b6001600160a01b038516611183576040516324ecef4d60e01b815260040160405180910390fd5b5f61118d856106fc565b9050806001600160a01b0316826001600160a01b0316146111db57604051635a9c31d360e01b8152600481018690526001600160a01b0380841660248301528216604482015260640161017a565b6111e587866117fe565b6001600160a01b0387165f9081526004602052604090206112069086611851565b506001600160a01b0386165f908152600460205260409020611228908661185c565b505f858152600360205260409081902080546001600160a01b0319166001600160a01b0389811691821790925591518792918a16907fb333c813a7426a7a11e2b190cad52c44119421594b47f6f32ace6d8c7207b2bf9061128e9033908a908a906126b4565b60405180910390a45f33888888876040516020016112b09594939291906126e8565b60405160208183030381529060405290506112cb8882611867565b6112d6878683611892565b5050505050505050565b5f8181526001602052604090208054606091906112fc90612682565b80601f016020809104026020016040519081016040528092919081815260200182805461132890612682565b80156113735780601f1061134a57610100808354040283529160200191611373565b820191905f5260205f20905b81548152906001019060200180831161135657829003601f168201915b50505050509050919050565b5f6105ca825490565b5f546001600160a01b0316331461090a5760405162461bcd60e51b815260206004820181905260248201527f4f776e61626c653a2063616c6c6572206973206e6f7420746865206f776e6572604482015260640161017a565b5f80546001600160a01b038381166001600160a01b0319831681178455604051919092169283917f8be0079c531659141344cd1fd0a4f28419497f9722a3daafe3b4186f6b6457e09190a35050565b7f098a16c9e50e3e99b3e797305c146898d294e5aec55a47e213cb3611ccf17e73820161147057604051631b32400560e11b815260040160405180910390fd5b610a2b8282611995565b5f61060f836001600160a01b038416611aa9565b610a2b827f8a1c15a8799f71b547e08e2bcb2e85257e81b0a07eee2ce6712549eef1f0097083611af5565b80518251146114db57604051633bcc897960e01b815260040160405180910390fd5b81515f036114fc576040516397da5f9560e01b815260040160405180910390fd5b5f5b8251811015610cd65761154383828151811061151c5761151c612590565b602002602001015183838151811061153657611536612590565b6020026020010151611430565b6001016114fe565b8060015f858560405160200161156b929190918252602082015260400190565b6040516020818303038152906040528051906020012081526020019081526020015f20908161159a9190612766565b5081837fa6e4251f855f750545fe414f120db91c76b88def14d120969e5bb2d3f05debbb836040516115cc9190611d0d565b60405180910390a3505050565b5f8381526005602052604081206115f09087611b42565b905080611622576040516312a8c6a360e21b81526001600160a01b03871660048201526024810185905260440161017a565b83856001600160a01b0316876001600160a01b03167fc78cd419d6136f9f1c1c6aec1d3fae098cffaf8bc86314a8f2685e32fe574e3c8686604051611668929190612820565b60405180910390a4505050505050565b604080516001600160b01b0319841660208201525f602a82018190526001600160601b03198416602c830152918291016040516020818303038152906040529050806116c39061283a565b949350505050565b5f6001600160e01b031982166318a6a9a560e21b14806105ca57506301ffc9a760e01b6001600160e01b03198316146105ca565b604080516001600160e01b03198316602480830191909152825180830390910181526044909101909152602080820180516001600160e01b03166301ffc9a760e01b17815282515f9392849283928392918391908a617530fa92503d91505f51905082801561176f575060208210155b801561177a57505f81115b979650505050505050565b6001600160a01b0381165f908152600183016020526040812054151561060f565b6060815f0180548060200260200160405190810160405280929190818152602001828054801561137357602002820191905f5260205f20905b8154815260200190600101908083116117df5750505050509050919050565b5f818152600560205260408120906118158261137f565b90505f5f5b82811015610b9e5761182c845f611b56565b91506118498287875f60405180602001604052805f8152506115d9565b60010161181a565b5f61060f8383611b61565b5f61060f8383611aa9565b610a2b827fb23eae7e6d1564b295b4c3e3be402d9a2f0776c57bdf365903496f6fa481ab0083611af5565b6118a383631aed5a8560e21b6116ff565b1561193857604051631aed5a8560e21b81526001600160a01b03841690636bb56a14906118f6907f0b084a55ebf70fd3c06fd755269dac2212c4d3f0f4d09079780bfa50c1b2984d90859060040161285d565b5f604051808303815f875af1158015611911573d5f5f3e3d5ffd5b505050506040513d5f823e601f3d908101601f19168201604052610cbd9190810190612875565b81610cd6576001600160a01b0383163b1561197157604051634349776d60e01b81526001600160a01b038416600482015260240161017a565b604051630317313760e01b81526001600160a01b038416600482015260240161017a565b7f2145e1d6d074577dc71ef54c3807742b41b053a9352ae6b491331509acb9750f82016119d5576040516385c169bd60e01b815260040160405180910390fd5b7fd0f59754f88971fe6bc5a6618cc9d5f1e859c58d16b22d1c7b2d3e2b246cd8aa8201611a1557604051630eceab6760e31b815260040160405180910390fd5b7f1fd9e056a24d14c4abc642fcc325992a946906d0dbc57dd70278aaf12842024d8201611a5557604051634ef6d7fb60e01b815260040160405180910390fd5b5f828152600160205260409020611a6c8282612766565b50817fece574603820d07bc9b91f2a932baadf4628aabcb8afba49776529c14a6104b282604051611a9d9190611d0d565b60405180910390a25050565b5f818152600183016020526040812054611aee57508154600181810184555f8481526020808220909301849055845484825282860190935260409020919091556105ca565b505f6105ca565b611b0f6001600160a01b038416631aed5a8560e21b6116ff565b15610cd657604051631aed5a8560e21b81526001600160a01b03841690636bb56a14906118f6908590859060040161285d565b5f61060f836001600160a01b038416611b61565b5f61060f8383611c44565b5f8181526001830160205260408120548015611c3b575f611b836001836128e9565b85549091505f90611b96906001906128e9565b9050818114611bf5575f865f018281548110611bb457611bb4612590565b905f5260205f200154905080875f018481548110611bd457611bd4612590565b5f918252602080832090910192909255918252600188019052604090208390555b8554869080611c0657611c06612908565b600190038181905f5260205f20015f90559055856001015f8681526020019081526020015f205f9055600193505050506105ca565b5f9150506105ca565b5f825f018281548110611c5957611c59612590565b905f5260205f200154905092915050565b60208152816020820152818360408301375f818301604090810191909152601f909201601f19160101919050565b5f60208284031215611ca8575f5ffd5b81356001600160e01b03198116811461060f575f5ffd5b5f5f60408385031215611cd0575f5ffd5b50508035926020909101359150565b5f81518084528060208401602086015e5f602082860101526020601f19601f83011685010191505092915050565b602081525f61060f6020830184611cdf565b634e487b7160e01b5f52604160045260245ffd5b604051601f8201601f191681016001600160401b0381118282101715611d5b57611d5b611d1f565b604052919050565b5f6001600160401b03821115611d7b57611d7b611d1f565b5060051b60200190565b5f82601f830112611d94575f5ffd5b8135611da7611da282611d63565b611d33565b8082825260208201915060208360051b860101925085831115611dc8575f5ffd5b602085015b83811015611de5578035835260209283019201611dcd565b5095945050505050565b5f5f60408385031215611e00575f5ffd5b82356001600160401b03811115611e15575f5ffd5b611e2185828601611d85565b92505060208301356001600160401b03811115611e3c575f5ffd5b611e4885828601611d85565b9150509250929050565b5f602082016020835280845180835260408501915060408160051b8601019250602086015f5b82811015611ea957603f19878603018452611e94858351611cdf565b94506020938401939190910190600101611e78565b50929695505050505050565b5f60208284031215611ec5575f5ffd5b5035919050565b80356001600160a01b0381168114611ee2575f5ffd5b919050565b5f5f60408385031215611ef8575f5ffd5b611f0183611ecc565b946020939093013593505050565b602080825282518282018190525f918401906040840190835b81811015611f4f5783516001600160a01b0316835260209384019390920191600101611f28565b509095945050505050565b80358015158114611ee2575f5ffd5b5f6001600160401b03821115611f8157611f81611d1f565b50601f01601f191660200190565b5f82601f830112611f9e575f5ffd5b8135611fac611da282611f69565b818152846020838601011115611fc0575f5ffd5b816020850160208301375f918101602001919091529392505050565b5f5f5f5f5f60a08688031215611ff0575f5ffd5b611ff986611ecc565b945061200760208701611ecc565b93506040860135925061201c60608701611f5a565b915060808601356001600160401b03811115612036575f5ffd5b61204288828901611f8f565b9150509295509295909350565b5f5f60208385031215612060575f5ffd5b82356001600160401b03811115612075575f5ffd5b8301601f81018513612085575f5ffd5b80356001600160401b0381111561209a575f5ffd5b8560208260051b84010111156120ae575f5ffd5b6020919091019590945092505050565b5f602082840312156120ce575f5ffd5b61060f82611ecc565b5f82601f8301126120e6575f5ffd5b81356120f4611da282611d63565b8082825260208201915060208360051b860101925085831115612115575f5ffd5b602085015b83811015611de55761212b81611ecc565b83526020928301920161211a565b5f82601f830112612148575f5ffd5b8135612156611da282611d63565b8082825260208201915060208360051b860101925085831115612177575f5ffd5b602085015b83811015611de55761218d81611f5a565b83526020928301920161217c565b5f82601f8301126121aa575f5ffd5b81356121b8611da282611d63565b8082825260208201915060208360051b8601019250858311156121d9575f5ffd5b602085015b83811015611de55780356001600160401b038111156121fb575f5ffd5b61220a886020838a0101611f8f565b845250602092830192016121de565b5f5f5f5f5f60a0868803121561222d575f5ffd5b85356001600160401b03811115612242575f5ffd5b61224e888289016120d7565b95505060208601356001600160401b03811115612269575f5ffd5b612275888289016120d7565b94505060408601356001600160401b03811115612290575f5ffd5b61229c88828901611d85565b93505060608601356001600160401b038111156122b7575f5ffd5b6122c388828901612139565b92505060808601356001600160401b038111156122de575f5ffd5b6120428882890161219b565b5f5f604083850312156122fb575f5ffd5b8235915060208301356001600160401b03811115612317575f5ffd5b611e4885828601611f8f565b5f5f5f60608486031215612335575f5ffd5b61233e84611ecc565b92506020840135915060408401356001600160401b0381111561235f575f5ffd5b61236b86828701611f8f565b9150509250925092565b5f5f60408385031215612386575f5ffd5b82356001600160401b0381111561239b575f5ffd5b6123a785828601611d85565b92505060208301356001600160401b038111156123c2575f5ffd5b611e488582860161219b565b602080825282518282018190525f918401906040840190835b81811015611f4f5783518352602093840193909201916001016123e7565b5f5f5f60608486031215612417575f5ffd5b83356001600160401b0381111561242c575f5ffd5b61243886828701611d85565b93505060208401356001600160401b03811115612453575f5ffd5b61245f86828701611d85565b92505060408401356001600160401b0381111561247a575f5ffd5b61236b8682870161219b565b5f5f5f60608486031215612498575f5ffd5b833592506020840135915060408401356001600160401b0381111561235f575f5ffd5b5f5f5f5f608085870312156124ce575f5ffd5b6124d785611ecc565b9350602085013592506124ec60408601611f5a565b915060608501356001600160401b03811115612506575f5ffd5b61251287828801611f8f565b91505092959194509250565b5f6020828403121561252e575f5ffd5b81356001600160401b03811115612543575f5ffd5b6116c384828501611d85565b8385823760609290921b6001600160601b031916919092019081526014810191909152603401919050565b5f82518060208501845e5f920191825250919050565b634e487b7160e01b5f52603260045260245ffd5b5f5f8335601e198436030181126125b9575f5ffd5b8301803591506001600160401b038211156125d2575f5ffd5b6020019150368190038213156125e6575f5ffd5b9250929050565b818382375f9101908152919050565b60018060a01b03851681528360208201528215156040820152608060608201525f61262a6080830184611cdf565b9695505050505050565b805160208201516001600160601b031981169190601482101561267b576bffffffffffffffffffffffff196bffffffffffffffffffffffff198360140360031b1b82161692505b5050919050565b600181811c9082168061269657607f821691505b602082108103610e5f57634e487b7160e01b5f52602260045260245ffd5b6001600160a01b038416815282151560208201526060604082018190525f906126df90830184611cdf565b95945050505050565b6001600160a01b0386811682528581166020830152841660408201526060810183905260a0608082018190525f9061177a90830184611cdf565b601f821115610cd657805f5260205f20601f840160051c810160208510156127475750805b601f840160051c820191505b8181101561079d575f8155600101612753565b81516001600160401b0381111561277f5761277f611d1f565b6127938161278d8454612682565b84612722565b6020601f8211600181146127c5575f83156127ae5750848201515b5f19600385901b1c1916600184901b17845561079d565b5f84815260208120601f198516915b828110156127f457878501518255602094850194600190920191016127d4565b508482101561281157868401515f19600387901b60f8161c191681555b50505050600190811b01905550565b8215158152604060208201525f6116c36040830184611cdf565b80516020808301519190811015610e5f575f1960209190910360031b1b16919050565b828152604060208201525f6116c36040830184611cdf565b5f60208284031215612885575f5ffd5b81516001600160401b0381111561289a575f5ffd5b8201601f810184136128aa575f5ffd5b80516128b8611da282611f69565b8181528560208385010111156128cc575f5ffd5b8160208401602083015e5f91810160200191909152949350505050565b818103818111156105ca57634e487b7160e01b5f52601160045260245ffd5b634e487b7160e01b5f52603160045260245ffdfea264697066735822122022488ab9cddb0155d1633e61c8e927baa6f3f5ddf15d37d3bbc287109146447c64736f6c634300081f00339afb95cacc9f95858ec44aa8c3b685511002e30ae54415823f406128b85b238ea2646970667358221220e934f1296e954c01f85a792df854ecae24fa25b5e2fe437430ea80ed674b843464736f6c634300081f0033",
			"opcodes": "PUSH1 0x80 PUSH1 0x40 MSTORE CALLVALUE DUP1 ISZERO PUSH2 0xF JUMPI PUSH0 PUSH0 REVERT JUMPDEST POP PUSH1 0x40 MLOAD PUSH2 0x75F1 CODESIZE SUB DUP1 PUSH2 0x75F1 DUP4 CODECOPY DUP2 ADD PUSH1 0x40 DUP2 SWAP1 MSTORE PUSH2 0x2E SWAP2 PUSH2 0x161 JUMP JUMPDEST PUSH1 0x1 PUSH0 DUP2 SWAP1 SSTORE PUSH1 0x12 DUP1 SLOAD PUSH1 0x1 PUSH1 0x1 PUSH1 0xA0 SHL SUB NOT SWAP1 DUP2 AND CALLER OR SWAP1 SWAP2 SSTORE DUP2 SLOAD PUSH1 0x1 PUSH1 0x1 PUSH1 0xA0 SHL SUB DUP6 AND SWAP2 AND DUP2 OR SWAP1 SWAP2 SSTORE PUSH1 0x40 DUP1 MLOAD PUSH4 0xC62BFD8F PUSH1 0xE0 SHL DUP2 MSTORE SWAP1 MLOAD PUSH4 0xC62BFD8F SWAP2 PUSH1 0x4 DUP1 DUP3 ADD SWAP3 PUSH1 0x20 SWAP3 SWAP1 SWAP2 SWAP1 DUP3 SWAP1 SUB ADD DUP2 DUP7 GAS STATICCALL ISZERO DUP1 ISZERO PUSH2 0x95 JUMPI RETURNDATASIZE PUSH0 PUSH0 RETURNDATACOPY RETURNDATASIZE PUSH0 REVERT JUMPDEST POP POP POP POP PUSH1 0x40 MLOAD RETURNDATASIZE PUSH1 0x1F NOT PUSH1 0x1F DUP3 ADD AND DUP3 ADD DUP1 PUSH1 0x40 MSTORE POP DUP2 ADD SWAP1 PUSH2 0xB9 SWAP2 SWAP1 PUSH2 0x192 JUMP JUMPDEST PUSH1 0x2 DUP1 SLOAD PUSH1 0x1 PUSH1 0x1 PUSH1 0xA0 SHL SUB NOT SWAP1 DUP2 AND PUSH1 0x1 PUSH1 0x1 PUSH1 0xA0 SHL SUB SWAP4 DUP5 AND OR SWAP1 SWAP2 SSTORE PUSH1 0x3 DUP1 SLOAD SWAP1 SWAP2 AND SWAP2 DUP4 AND SWAP2 SWAP1 SWAP2 OR SWAP1 SSTORE PUSH1 0x40 MLOAD PUSH0 SWAP1 PUSH2 0xF6 SWAP1 PUSH2 0x139 JUMP JUMPDEST PUSH1 0x40 MLOAD DUP1 SWAP2 SUB SWAP1 PUSH0 CREATE DUP1 ISZERO DUP1 ISZERO PUSH2 0x10F JUMPI RETURNDATASIZE PUSH0 PUSH0 RETURNDATACOPY RETURNDATASIZE PUSH0 REVERT JUMPDEST POP PUSH1 0x13 DUP1 SLOAD PUSH1 0x1 PUSH1 0x1 PUSH1 0xA0 SHL SUB NOT AND PUSH1 0x1 PUSH1 0x1 PUSH1 0xA0 SHL SUB SWAP3 SWAP1 SWAP3 AND SWAP2 SWAP1 SWAP2 OR SWAP1 SSTORE POP PUSH2 0x1B2 SWAP2 POP POP JUMP JUMPDEST PUSH2 0x5107 DUP1 PUSH2 0x24EA DUP4 CODECOPY ADD SWAP1 JUMP JUMPDEST DUP1 MLOAD PUSH1 0x1 PUSH1 0x1 PUSH1 0xA0 SHL SUB DUP2 AND DUP2 EQ PUSH2 0x15C JUMPI PUSH0 PUSH0 REVERT JUMPDEST SWAP2 SWAP1 POP JUMP JUMPDEST PUSH0 PUSH0 PUSH1 0x40 DUP4 DUP6 SUB SLT ISZERO PUSH2 0x172 JUMPI PUSH0 PUSH0 REVERT JUMPDEST PUSH2 0x17B DUP4 PUSH2 0x146 JUMP JUMPDEST SWAP2 POP PUSH2 0x189 PUSH1 0x20 DUP5 ADD PUSH2 0x146 JUMP JUMPDEST SWAP1 POP SWAP3 POP SWAP3 SWAP1 POP JUMP JUMPDEST PUSH0 PUSH1 0x20 DUP3 DUP5 SUB SLT ISZERO PUSH2 0x1A2 JUMPI PUSH0 PUSH0 REVERT JUMPDEST PUSH2 0x1AB DUP3 PUSH2 0x146 JUMP JUMPDEST SWAP4 SWAP3 POP POP POP JUMP JUMPDEST PUSH2 0x232B DUP1 PUSH2 0x1BF PUSH0 CODECOPY PUSH0 RETURN INVALID PUSH1 0x80 PUSH1 0x40 MSTORE CALLVALUE DUP1 ISZERO PUSH2 0xF JUMPI PUSH0 PUSH0 REVERT JUMPDEST POP PUSH1 0x4 CALLDATASIZE LT PUSH2 0x148 JUMPI PUSH0 CALLDATALOAD PUSH1 0xE0 SHR DUP1 PUSH4 0x511B578B GT PUSH2 0xBF JUMPI DUP1 PUSH4 0xB91E368C GT PUSH2 0x79 JUMPI DUP1 PUSH4 0xB91E368C EQ PUSH2 0x3B4 JUMPI DUP1 PUSH4 0xBD3DF6D7 EQ PUSH2 0x3C7 JUMPI DUP1 PUSH4 0xBFC4B64D EQ PUSH2 0x3DA JUMPI DUP1 PUSH4 0xC24521C6 EQ PUSH2 0x3ED JUMPI DUP1 PUSH4 0xC3FEB030 EQ PUSH2 0x3F5 JUMPI DUP1 PUSH4 0xEDE64873 EQ PUSH2 0x408 JUMPI PUSH0 PUSH0 REVERT JUMPDEST DUP1 PUSH4 0x511B578B EQ PUSH2 0x2DE JUMPI DUP1 PUSH4 0x54CE7F6A EQ PUSH2 0x2F1 JUMPI DUP1 PUSH4 0x70BE69C4 EQ PUSH2 0x31B JUMPI DUP1 PUSH4 0x7356273A EQ PUSH2 0x33A JUMPI DUP1 PUSH4 0x88F53653 EQ PUSH2 0x34D JUMPI DUP1 PUSH4 0x8D0D1A21 EQ PUSH2 0x3A1 JUMPI PUSH0 PUSH0 REVERT JUMPDEST DUP1 PUSH4 0x34915B85 GT PUSH2 0x110 JUMPI DUP1 PUSH4 0x34915B85 EQ PUSH2 0x260 JUMPI DUP1 PUSH4 0x35274382 EQ PUSH2 0x273 JUMPI DUP1 PUSH4 0x35398786 EQ PUSH2 0x292 JUMPI DUP1 PUSH4 0x42DC6D34 EQ PUSH2 0x2A5 JUMPI DUP1 PUSH4 0x44D185F5 EQ PUSH2 0x2B8 JUMPI DUP1 PUSH4 0x48130D72 EQ PUSH2 0x2CB JUMPI PUSH0 PUSH0 REVERT JUMPDEST DUP1 PUSH4 0x10B54F8 EQ PUSH2 0x14C JUMPI DUP1 PUSH4 0x17B68848 EQ PUSH2 0x1BE JUMPI DUP1 PUSH4 0x1C431183 EQ PUSH2 0x1D3 JUMPI DUP1 PUSH4 0x30480D1C EQ PUSH2 0x1FE JUMPI DUP1 PUSH4 0x305C57F5 EQ PUSH2 0x240 JUMPI JUMPDEST PUSH0 PUSH0 REVERT JUMPDEST PUSH2 0x19E PUSH2 0x15A CALLDATASIZE PUSH1 0x4 PUSH2 0x1DC2 JUMP JUMPDEST PUSH0 DUP3 DUP2 MSTORE PUSH1 0xB PUSH1 0x20 SWAP1 DUP2 MSTORE PUSH1 0x40 DUP1 DUP4 KECCAK256 DUP5 DUP5 MSTORE DUP3 MSTORE DUP1 DUP4 KECCAK256 SLOAD DUP6 DUP5 MSTORE PUSH1 0xC DUP4 MSTORE DUP2 DUP5 KECCAK256 DUP6 DUP6 MSTORE DUP4 MSTORE DUP2 DUP5 KECCAK256 SLOAD SWAP6 DUP5 MSTORE PUSH1 0xD DUP4 MSTORE DUP2 DUP5 KECCAK256 SWAP5 DUP5 MSTORE SWAP4 SWAP1 SWAP2 MSTORE SWAP1 KECCAK256 SLOAD SWAP1 SWAP3 JUMP JUMPDEST PUSH1 0x40 DUP1 MLOAD SWAP4 DUP5 MSTORE PUSH1 0x20 DUP5 ADD SWAP3 SWAP1 SWAP3 MSTORE SWAP1 DUP3 ADD MSTORE PUSH1 0x60 ADD JUMPDEST PUSH1 0x40 MLOAD DUP1 SWAP2 SUB SWAP1 RETURN JUMPDEST PUSH2 0x1D1 PUSH2 0x1CC CALLDATASIZE PUSH1 0x4 PUSH2 0x1DE2 JUMP JUMPDEST PUSH2 0x432 JUMP JUMPDEST STOP JUMPDEST PUSH1 0x13 SLOAD PUSH2 0x1E6 SWAP1 PUSH1 0x1 PUSH1 0x1 PUSH1 0xA0 SHL SUB AND DUP2 JUMP JUMPDEST PUSH1 0x40 MLOAD PUSH1 0x1 PUSH1 0x1 PUSH1 0xA0 SHL SUB SWAP1 SWAP2 AND DUP2 MSTORE PUSH1 0x20 ADD PUSH2 0x1B5 JUMP JUMPDEST PUSH2 0x232 PUSH2 0x20C CALLDATASIZE PUSH1 0x4 PUSH2 0x1E10 JUMP JUMPDEST PUSH1 0x1 PUSH1 0x1 PUSH1 0xA0 SHL SUB SWAP1 SWAP2 AND PUSH0 SWAP1 DUP2 MSTORE PUSH1 0x8 PUSH1 0x20 SWAP1 DUP2 MSTORE PUSH1 0x40 DUP1 DUP4 KECCAK256 SWAP4 DUP4 MSTORE SWAP3 SWAP1 MSTORE KECCAK256 SLOAD SWAP1 JUMP JUMPDEST PUSH1 0x40 MLOAD SWAP1 DUP2 MSTORE PUSH1 0x20 ADD PUSH2 0x1B5 JUMP JUMPDEST PUSH2 0x253 PUSH2 0x24E CALLDATASIZE PUSH1 0x4 PUSH2 0x1DE2 JUMP JUMPDEST PUSH2 0x716 JUMP JUMPDEST PUSH1 0x40 MLOAD PUSH2 0x1B5 SWAP2 SWAP1 PUSH2 0x1E3A JUMP JUMPDEST PUSH1 0x3 SLOAD PUSH2 0x1E6 SWAP1 PUSH1 0x1 PUSH1 0x1 PUSH1 0xA0 SHL SUB AND DUP2 JUMP JUMPDEST PUSH2 0x232 PUSH2 0x281 CALLDATASIZE PUSH1 0x4 PUSH2 0x1DE2 JUMP JUMPDEST PUSH0 SWAP1 DUP2 MSTORE PUSH1 0x6 PUSH1 0x20 MSTORE PUSH1 0x40 SWAP1 KECCAK256 SLOAD SWAP1 JUMP JUMPDEST PUSH2 0x1D1 PUSH2 0x2A0 CALLDATASIZE PUSH1 0x4 PUSH2 0x1F4C JUMP JUMPDEST PUSH2 0x7C8 JUMP JUMPDEST PUSH2 0x232 PUSH2 0x2B3 CALLDATASIZE PUSH1 0x4 PUSH2 0x1DC2 JUMP JUMPDEST PUSH2 0x8BA JUMP JUMPDEST PUSH1 0x1 SLOAD PUSH2 0x1E6 SWAP1 PUSH1 0x1 PUSH1 0x1 PUSH1 0xA0 SHL SUB AND DUP2 JUMP JUMPDEST PUSH2 0x232 PUSH2 0x2D9 CALLDATASIZE PUSH1 0x4 PUSH2 0x1FD7 JUMP JUMPDEST PUSH2 0x8DA JUMP JUMPDEST PUSH2 0x253 PUSH2 0x2EC CALLDATASIZE PUSH1 0x4 PUSH2 0x1FF9 JUMP JUMPDEST PUSH2 0x8F7 JUMP JUMPDEST PUSH2 0x232 PUSH2 0x2FF CALLDATASIZE PUSH1 0x4 PUSH2 0x1DC2 JUMP JUMPDEST PUSH0 SWAP2 DUP3 MSTORE PUSH1 0xE PUSH1 0x20 SWAP1 DUP2 MSTORE PUSH1 0x40 DUP1 DUP5 KECCAK256 SWAP3 DUP5 MSTORE SWAP2 SWAP1 MSTORE SWAP1 KECCAK256 SLOAD SWAP1 JUMP JUMPDEST PUSH2 0x232 PUSH2 0x329 CALLDATASIZE PUSH1 0x4 PUSH2 0x1DE2 JUMP JUMPDEST PUSH0 SWAP1 DUP2 MSTORE PUSH1 0x5 PUSH1 0x20 MSTORE PUSH1 0x40 SWAP1 KECCAK256 SLOAD SWAP1 JUMP JUMPDEST PUSH2 0x1D1 PUSH2 0x348 CALLDATASIZE PUSH1 0x4 PUSH2 0x2032 JUMP JUMPDEST PUSH2 0x9A3 JUMP JUMPDEST PUSH2 0x381 PUSH2 0x35B CALLDATASIZE PUSH1 0x4 PUSH2 0x1DE2 JUMP JUMPDEST PUSH0 SWAP1 DUP2 MSTORE PUSH1 0x4 PUSH1 0x20 MSTORE PUSH1 0x40 SWAP1 KECCAK256 DUP1 SLOAD PUSH1 0x1 SWAP1 SWAP2 ADD SLOAD PUSH1 0x1 PUSH1 0x1 PUSH1 0xA0 SHL SUB SWAP2 DUP3 AND SWAP3 SWAP2 AND SWAP1 JUMP JUMPDEST PUSH1 0x40 DUP1 MLOAD PUSH1 0x1 PUSH1 0x1 PUSH1 0xA0 SHL SUB SWAP4 DUP5 AND DUP2 MSTORE SWAP3 SWAP1 SWAP2 AND PUSH1 0x20 DUP4 ADD MSTORE ADD PUSH2 0x1B5 JUMP JUMPDEST PUSH2 0x232 PUSH2 0x3AF CALLDATASIZE PUSH1 0x4 PUSH2 0x1DE2 JUMP JUMPDEST PUSH2 0xCDF JUMP JUMPDEST PUSH2 0x1D1 PUSH2 0x3C2 CALLDATASIZE PUSH1 0x4 PUSH2 0x2060 JUMP JUMPDEST PUSH2 0xCF2 JUMP JUMPDEST PUSH2 0x1D1 PUSH2 0x3D5 CALLDATASIZE PUSH1 0x4 PUSH2 0x20E7 JUMP JUMPDEST PUSH2 0xFD3 JUMP JUMPDEST PUSH2 0x1D1 PUSH2 0x3E8 CALLDATASIZE PUSH1 0x4 PUSH2 0x213D JUMP JUMPDEST PUSH2 0x1307 JUMP JUMPDEST PUSH2 0x232 PUSH2 0x1AC3 JUMP JUMPDEST PUSH2 0x1D1 PUSH2 0x403 CALLDATASIZE PUSH1 0x4 PUSH2 0x2182 JUMP JUMPDEST PUSH2 0x1AD2 JUMP JUMPDEST PUSH2 0x232 PUSH2 0x416 CALLDATASIZE PUSH1 0x4 PUSH2 0x1DC2 JUMP JUMPDEST PUSH0 SWAP2 DUP3 MSTORE PUSH1 0xF PUSH1 0x20 SWAP1 DUP2 MSTORE PUSH1 0x40 DUP1 DUP5 KECCAK256 SWAP3 DUP5 MSTORE SWAP2 SWAP1 MSTORE SWAP1 KECCAK256 SLOAD SWAP1 JUMP JUMPDEST PUSH0 DUP2 DUP2 MSTORE PUSH1 0x4 PUSH1 0x20 MSTORE PUSH1 0x40 SWAP1 KECCAK256 SLOAD PUSH1 0x1 PUSH1 0x1 PUSH1 0xA0 SHL SUB AND CALLER EQ PUSH2 0x49C JUMPI PUSH1 0x40 MLOAD PUSH3 0x461BCD PUSH1 0xE5 SHL DUP2 MSTORE PUSH1 0x20 PUSH1 0x4 DUP3 ADD MSTORE PUSH1 0x1B PUSH1 0x24 DUP3 ADD MSTORE PUSH32 0x4F6E6C792073656C6C65722063616E2072656D6F7665206974656D0000000000 PUSH1 0x44 DUP3 ADD MSTORE PUSH1 0x64 ADD JUMPDEST PUSH1 0x40 MLOAD DUP1 SWAP2 SUB SWAP1 REVERT JUMPDEST PUSH0 DUP2 DUP2 MSTORE PUSH1 0x6 PUSH1 0x20 MSTORE PUSH1 0x40 DUP2 KECCAK256 SLOAD SWAP1 SUB PUSH2 0x4EC JUMPI PUSH1 0x40 MLOAD PUSH3 0x461BCD PUSH1 0xE5 SHL DUP2 MSTORE PUSH1 0x20 PUSH1 0x4 DUP3 ADD MSTORE PUSH1 0x11 PUSH1 0x24 DUP3 ADD MSTORE PUSH17 0x125D195B481A5CC81B9BDD08195E1A5CDD PUSH1 0x7A SHL PUSH1 0x44 DUP3 ADD MSTORE PUSH1 0x64 ADD PUSH2 0x493 JUMP JUMPDEST PUSH0 DUP2 DUP2 MSTORE PUSH1 0x6 PUSH1 0x20 MSTORE PUSH1 0x40 DUP2 KECCAK256 SLOAD SWAP1 PUSH2 0x504 PUSH1 0x7 SLOAD SWAP1 JUMP JUMPDEST PUSH0 DUP2 DUP2 MSTORE PUSH1 0x5 PUSH1 0x20 MSTORE PUSH1 0x40 SWAP1 KECCAK256 SLOAD SWAP1 SWAP2 POP DUP3 DUP3 EQ PUSH2 0x53D JUMPI PUSH0 DUP4 DUP2 MSTORE PUSH1 0x5 PUSH1 0x20 SWAP1 DUP2 MSTORE PUSH1 0x40 DUP1 DUP4 KECCAK256 DUP5 SWAP1 SSTORE DUP4 DUP4 MSTORE PUSH1 0x6 SWAP1 SWAP2 MSTORE SWAP1 KECCAK256 DUP4 SWAP1 SSTORE JUMPDEST PUSH0 DUP5 DUP2 MSTORE PUSH1 0x4 PUSH1 0x20 SWAP1 DUP2 MSTORE PUSH1 0x40 DUP1 DUP4 KECCAK256 DUP1 SLOAD PUSH1 0x1 PUSH1 0x1 PUSH1 0xA0 SHL SUB NOT SWAP1 DUP2 AND DUP3 SSTORE PUSH1 0x1 SWAP1 SWAP2 ADD DUP1 SLOAD SWAP1 SWAP2 AND SWAP1 SSTORE DUP5 DUP4 MSTORE PUSH1 0x5 DUP3 MSTORE DUP1 DUP4 KECCAK256 DUP4 SWAP1 SSTORE DUP7 DUP4 MSTORE PUSH1 0x6 SWAP1 SWAP2 MSTORE DUP2 KECCAK256 SSTORE PUSH2 0x58B PUSH1 0x7 PUSH2 0x1D15 JUMP JUMPDEST CALLER PUSH0 DUP2 DUP2 MSTORE PUSH1 0x9 PUSH1 0x20 SWAP1 DUP2 MSTORE PUSH1 0x40 DUP1 DUP4 KECCAK256 DUP9 DUP5 MSTORE DUP3 MSTORE DUP1 DUP4 KECCAK256 SLOAD SWAP4 DUP4 MSTORE PUSH1 0xA SWAP1 SWAP2 MSTORE SWAP1 KECCAK256 SLOAD DUP1 DUP3 EQ PUSH2 0x5EF JUMPI CALLER PUSH0 DUP2 DUP2 MSTORE PUSH1 0x8 PUSH1 0x20 SWAP1 DUP2 MSTORE PUSH1 0x40 DUP1 DUP4 KECCAK256 DUP6 DUP5 MSTORE DUP3 MSTORE DUP1 DUP4 KECCAK256 SLOAD DUP7 DUP5 MSTORE DUP2 DUP5 KECCAK256 DUP2 SWAP1 SSTORE SWAP4 DUP4 MSTORE PUSH1 0x9 DUP3 MSTORE DUP1 DUP4 KECCAK256 SWAP4 DUP4 MSTORE SWAP3 SWAP1 MSTORE KECCAK256 DUP3 SWAP1 SSTORE JUMPDEST CALLER PUSH0 DUP2 DUP2 MSTORE PUSH1 0x8 PUSH1 0x20 SWAP1 DUP2 MSTORE PUSH1 0x40 DUP1 DUP4 KECCAK256 DUP6 DUP5 MSTORE DUP3 MSTORE DUP1 DUP4 KECCAK256 DUP4 SWAP1 SSTORE DUP4 DUP4 MSTORE PUSH1 0x9 DUP3 MSTORE DUP1 DUP4 KECCAK256 DUP11 DUP5 MSTORE DUP3 MSTORE DUP1 DUP4 KECCAK256 DUP4 SWAP1 SSTORE SWAP3 DUP3 MSTORE PUSH1 0xA SWAP1 MSTORE KECCAK256 PUSH2 0x631 SWAP1 PUSH2 0x1D15 JUMP JUMPDEST PUSH0 DUP7 DUP2 MSTORE PUSH1 0x11 PUSH1 0x20 MSTORE PUSH1 0x40 SWAP1 KECCAK256 SLOAD PUSH1 0x1 JUMPDEST DUP2 DUP2 GT PUSH2 0x6CB JUMPI PUSH0 DUP9 DUP2 MSTORE PUSH1 0x10 PUSH1 0x20 SWAP1 DUP2 MSTORE PUSH1 0x40 DUP1 DUP4 KECCAK256 DUP5 DUP5 MSTORE DUP3 MSTORE DUP1 DUP4 KECCAK256 DUP1 SLOAD SWAP1 DUP5 SWAP1 SSTORE DUP12 DUP5 MSTORE PUSH1 0xF DUP4 MSTORE DUP2 DUP5 KECCAK256 DUP2 DUP6 MSTORE DUP4 MSTORE DUP2 DUP5 KECCAK256 DUP5 SWAP1 SSTORE DUP12 DUP5 MSTORE PUSH1 0xB DUP4 MSTORE DUP2 DUP5 KECCAK256 DUP2 DUP6 MSTORE DUP4 MSTORE DUP2 DUP5 KECCAK256 DUP5 SWAP1 SSTORE DUP12 DUP5 MSTORE PUSH1 0xC DUP4 MSTORE DUP2 DUP5 KECCAK256 DUP2 DUP6 MSTORE DUP4 MSTORE DUP2 DUP5 KECCAK256 DUP5 SWAP1 SSTORE DUP12 DUP5 MSTORE PUSH1 0xD DUP4 MSTORE DUP2 DUP5 KECCAK256 SWAP1 DUP5 MSTORE SWAP1 SWAP2 MSTORE DUP2 KECCAK256 SSTORE DUP1 PUSH2 0x6C3 DUP2 PUSH2 0x2234 JUMP JUMPDEST SWAP2 POP POP PUSH2 0x642 JUMP JUMPDEST POP PUSH0 DUP8 DUP2 MSTORE PUSH1 0x11 PUSH1 0x20 MSTORE PUSH1 0x40 DUP2 KECCAK256 SSTORE PUSH1 0x40 MLOAD DUP8 DUP2 MSTORE PUSH32 0xB2897617911191ABFBBE16FE5223C98CEE1AFC548460A94F4F3A3AFE275FCDF4 SWAP1 PUSH1 0x20 ADD PUSH1 0x40 MLOAD DUP1 SWAP2 SUB SWAP1 LOG1 POP POP POP POP POP POP POP JUMP JUMPDEST PUSH0 DUP2 DUP2 MSTORE PUSH1 0x11 PUSH1 0x20 MSTORE PUSH1 0x40 SWAP1 KECCAK256 SLOAD PUSH1 0x60 SWAP1 DUP1 PUSH1 0x1 PUSH1 0x1 PUSH1 0x40 SHL SUB DUP2 GT ISZERO PUSH2 0x73F JUMPI PUSH2 0x73F PUSH2 0x1E7C JUMP JUMPDEST PUSH1 0x40 MLOAD SWAP1 DUP1 DUP3 MSTORE DUP1 PUSH1 0x20 MUL PUSH1 0x20 ADD DUP3 ADD PUSH1 0x40 MSTORE DUP1 ISZERO PUSH2 0x768 JUMPI DUP2 PUSH1 0x20 ADD PUSH1 0x20 DUP3 MUL DUP1 CALLDATASIZE DUP4 CALLDATACOPY ADD SWAP1 POP JUMPDEST POP SWAP2 POP PUSH0 JUMPDEST DUP2 DUP2 LT ISZERO PUSH2 0x7C1 JUMPI PUSH0 DUP5 DUP2 MSTORE PUSH1 0x10 PUSH1 0x20 MSTORE PUSH1 0x40 DUP2 KECCAK256 SWAP1 PUSH2 0x78E DUP4 PUSH1 0x1 PUSH2 0x224C JUMP JUMPDEST DUP2 MSTORE PUSH1 0x20 ADD SWAP1 DUP2 MSTORE PUSH1 0x20 ADD PUSH0 KECCAK256 SLOAD DUP4 DUP3 DUP2 MLOAD DUP2 LT PUSH2 0x7AE JUMPI PUSH2 0x7AE PUSH2 0x225F JUMP JUMPDEST PUSH1 0x20 SWAP1 DUP2 MUL SWAP2 SWAP1 SWAP2 ADD ADD MSTORE PUSH1 0x1 ADD PUSH2 0x76D JUMP JUMPDEST POP POP SWAP2 SWAP1 POP JUMP JUMPDEST PUSH1 0x12 SLOAD PUSH1 0x1 PUSH1 0x1 PUSH1 0xA0 SHL SUB AND CALLER EQ PUSH2 0x822 JUMPI PUSH1 0x40 MLOAD PUSH3 0x461BCD PUSH1 0xE5 SHL DUP2 MSTORE PUSH1 0x20 PUSH1 0x4 DUP3 ADD MSTORE PUSH1 0x1C PUSH1 0x24 DUP3 ADD MSTORE PUSH32 0x4F6E6C79206D61726B657420636F6E7472616374206164647265737300000000 PUSH1 0x44 DUP3 ADD MSTORE PUSH1 0x64 ADD PUSH2 0x493 JUMP JUMPDEST PUSH0 JUMPDEST DUP3 MLOAD DUP2 LT ISZERO PUSH2 0x8B4 JUMPI DUP2 DUP2 DUP2 MLOAD DUP2 LT PUSH2 0x83F JUMPI PUSH2 0x83F PUSH2 0x225F JUMP JUMPDEST PUSH1 0x20 MUL PUSH1 0x20 ADD ADD MLOAD PUSH1 0xD PUSH0 DUP7 DUP5 DUP2 MLOAD DUP2 LT PUSH2 0x85C JUMPI PUSH2 0x85C PUSH2 0x225F JUMP JUMPDEST PUSH1 0x20 MUL PUSH1 0x20 ADD ADD MLOAD DUP2 MSTORE PUSH1 0x20 ADD SWAP1 DUP2 MSTORE PUSH1 0x20 ADD PUSH0 KECCAK256 PUSH0 DUP6 DUP5 DUP2 MLOAD DUP2 LT PUSH2 0x884 JUMPI PUSH2 0x884 PUSH2 0x225F JUMP JUMPDEST PUSH1 0x20 MUL PUSH1 0x20 ADD ADD MLOAD DUP2 MSTORE PUSH1 0x20 ADD SWAP1 DUP2 MSTORE PUSH1 0x20 ADD PUSH0 KECCAK256 PUSH0 DUP3 DUP3 SLOAD PUSH2 0x8A7 SWAP2 SWAP1 PUSH2 0x224C JUMP JUMPDEST SWAP1 SWAP2 SSTORE POP POP PUSH1 0x1 ADD PUSH2 0x824 JUMP JUMPDEST POP POP POP POP JUMP JUMPDEST PUSH0 DUP3 DUP2 MSTORE PUSH1 0x10 PUSH1 0x20 SWAP1 DUP2 MSTORE PUSH1 0x40 DUP1 DUP4 KECCAK256 DUP5 DUP5 MSTORE SWAP1 SWAP2 MSTORE SWAP1 KECCAK256 SLOAD JUMPDEST SWAP3 SWAP2 POP POP JUMP JUMPDEST PUSH1 0x1 PUSH1 0x1 PUSH1 0xA0 SHL SUB DUP2 AND PUSH0 SWAP1 DUP2 MSTORE PUSH1 0xA PUSH1 0x20 MSTORE PUSH1 0x40 DUP2 KECCAK256 SLOAD PUSH2 0x8D4 JUMP JUMPDEST DUP1 MLOAD PUSH1 0x60 SWAP1 PUSH0 DUP2 PUSH1 0x1 PUSH1 0x1 PUSH1 0x40 SHL SUB DUP2 GT ISZERO PUSH2 0x915 JUMPI PUSH2 0x915 PUSH2 0x1E7C JUMP JUMPDEST PUSH1 0x40 MLOAD SWAP1 DUP1 DUP3 MSTORE DUP1 PUSH1 0x20 MUL PUSH1 0x20 ADD DUP3 ADD PUSH1 0x40 MSTORE DUP1 ISZERO PUSH2 0x93E JUMPI DUP2 PUSH1 0x20 ADD PUSH1 0x20 DUP3 MUL DUP1 CALLDATASIZE DUP4 CALLDATACOPY ADD SWAP1 POP JUMPDEST POP SWAP1 POP PUSH0 JUMPDEST DUP3 DUP2 LT ISZERO PUSH2 0x99B JUMPI PUSH1 0x5 PUSH0 DUP7 DUP4 DUP2 MLOAD DUP2 LT PUSH2 0x960 JUMPI PUSH2 0x960 PUSH2 0x225F JUMP JUMPDEST PUSH1 0x20 MUL PUSH1 0x20 ADD ADD MLOAD DUP2 MSTORE PUSH1 0x20 ADD SWAP1 DUP2 MSTORE PUSH1 0x20 ADD PUSH0 KECCAK256 SLOAD DUP3 DUP3 DUP2 MLOAD DUP2 LT PUSH2 0x988 JUMPI PUSH2 0x988 PUSH2 0x225F JUMP JUMPDEST PUSH1 0x20 SWAP1 DUP2 MUL SWAP2 SWAP1 SWAP2 ADD ADD MSTORE PUSH1 0x1 ADD PUSH2 0x943 JUMP JUMPDEST POP SWAP4 SWAP3 POP POP POP JUMP JUMPDEST PUSH0 DUP4 DUP2 MSTORE PUSH1 0x6 PUSH1 0x20 MSTORE PUSH1 0x40 DUP2 KECCAK256 SLOAD SWAP1 SUB PUSH2 0x9F7 JUMPI PUSH1 0x40 MLOAD PUSH3 0x461BCD PUSH1 0xE5 SHL DUP2 MSTORE PUSH1 0x20 PUSH1 0x4 DUP3 ADD MSTORE PUSH1 0x15 PUSH1 0x24 DUP3 ADD MSTORE PUSH21 0x14D85B19481A5D195B481B9BDD08195E1A5CDD1959 PUSH1 0x5A SHL PUSH1 0x44 DUP3 ADD MSTORE PUSH1 0x64 ADD PUSH2 0x493 JUMP JUMPDEST PUSH0 DUP4 DUP2 MSTORE PUSH1 0x4 PUSH1 0x20 MSTORE PUSH1 0x40 SWAP1 KECCAK256 SLOAD PUSH1 0x1 PUSH1 0x1 PUSH1 0xA0 SHL SUB AND CALLER EQ PUSH2 0xA4A JUMPI PUSH1 0x40 MLOAD PUSH3 0x461BCD PUSH1 0xE5 SHL DUP2 MSTORE PUSH1 0x20 PUSH1 0x4 DUP3 ADD MSTORE PUSH1 0xB PUSH1 0x24 DUP3 ADD MSTORE PUSH11 0x27B7363C9039B2B63632B9 PUSH1 0xA9 SHL PUSH1 0x44 DUP3 ADD MSTORE PUSH1 0x64 ADD PUSH2 0x493 JUMP JUMPDEST DUP1 MLOAD DUP3 MLOAD EQ PUSH2 0xA94 JUMPI PUSH1 0x40 MLOAD PUSH3 0x461BCD PUSH1 0xE5 SHL DUP2 MSTORE PUSH1 0x20 PUSH1 0x4 DUP3 ADD MSTORE PUSH1 0x16 PUSH1 0x24 DUP3 ADD MSTORE PUSH22 0x92DCE0EAE840D8CADCCEE8D040DCDEE840DAC2E8C6D PUSH1 0x53 SHL PUSH1 0x44 DUP3 ADD MSTORE PUSH1 0x64 ADD PUSH2 0x493 JUMP JUMPDEST PUSH0 JUMPDEST DUP3 MLOAD DUP2 LT ISZERO PUSH2 0xCA6 JUMPI PUSH1 0xF PUSH0 DUP6 DUP2 MSTORE PUSH1 0x20 ADD SWAP1 DUP2 MSTORE PUSH1 0x20 ADD PUSH0 KECCAK256 PUSH0 DUP5 DUP4 DUP2 MLOAD DUP2 LT PUSH2 0xAC3 JUMPI PUSH2 0xAC3 PUSH2 0x225F JUMP JUMPDEST PUSH1 0x20 MUL PUSH1 0x20 ADD ADD MLOAD DUP2 MSTORE PUSH1 0x20 ADD SWAP1 DUP2 MSTORE PUSH1 0x20 ADD PUSH0 KECCAK256 SLOAD PUSH0 SUB PUSH2 0xB22 JUMPI PUSH1 0x40 MLOAD PUSH3 0x461BCD PUSH1 0xE5 SHL DUP2 MSTORE PUSH1 0x20 PUSH1 0x4 DUP3 ADD MSTORE PUSH1 0x18 PUSH1 0x24 DUP3 ADD MSTORE PUSH24 0x141C9BD91D58DD081A5D195B481B9BDD08195E1A5CDD1959 PUSH1 0x42 SHL PUSH1 0x44 DUP3 ADD MSTORE PUSH1 0x64 ADD PUSH2 0x493 JUMP JUMPDEST DUP2 DUP2 DUP2 MLOAD DUP2 LT PUSH2 0xB34 JUMPI PUSH2 0xB34 PUSH2 0x225F JUMP JUMPDEST PUSH1 0x20 MUL PUSH1 0x20 ADD ADD MLOAD PUSH1 0xE PUSH0 DUP7 DUP2 MSTORE PUSH1 0x20 ADD SWAP1 DUP2 MSTORE PUSH1 0x20 ADD PUSH0 KECCAK256 PUSH0 DUP6 DUP5 DUP2 MLOAD DUP2 LT PUSH2 0xB60 JUMPI PUSH2 0xB60 PUSH2 0x225F JUMP JUMPDEST PUSH1 0x20 MUL PUSH1 0x20 ADD ADD MLOAD DUP2 MSTORE PUSH1 0x20 ADD SWAP1 DUP2 MSTORE PUSH1 0x20 ADD PUSH0 KECCAK256 SLOAD LT ISZERO PUSH2 0xBD0 JUMPI PUSH1 0x40 MLOAD PUSH3 0x461BCD PUSH1 0xE5 SHL DUP2 MSTORE PUSH1 0x20 PUSH1 0x4 DUP3 ADD MSTORE PUSH1 0x23 PUSH1 0x24 DUP3 ADD MSTORE PUSH32 0x50726F64756374206974656D20696E73756666696369656E7420616C6C6F7761 PUSH1 0x44 DUP3 ADD MSTORE PUSH3 0x6E6365 PUSH1 0xE8 SHL PUSH1 0x64 DUP3 ADD MSTORE PUSH1 0x84 ADD PUSH2 0x493 JUMP JUMPDEST DUP2 DUP2 DUP2 MLOAD DUP2 LT PUSH2 0xBE2 JUMPI PUSH2 0xBE2 PUSH2 0x225F JUMP JUMPDEST PUSH1 0x20 MUL PUSH1 0x20 ADD ADD MLOAD PUSH1 0xB PUSH0 DUP7 DUP2 MSTORE PUSH1 0x20 ADD SWAP1 DUP2 MSTORE PUSH1 0x20 ADD PUSH0 KECCAK256 PUSH0 DUP6 DUP5 DUP2 MLOAD DUP2 LT PUSH2 0xC0E JUMPI PUSH2 0xC0E PUSH2 0x225F JUMP JUMPDEST PUSH1 0x20 MUL PUSH1 0x20 ADD ADD MLOAD DUP2 MSTORE PUSH1 0x20 ADD SWAP1 DUP2 MSTORE PUSH1 0x20 ADD PUSH0 KECCAK256 PUSH0 DUP3 DUP3 SLOAD PUSH2 0xC31 SWAP2 SWAP1 PUSH2 0x224C JUMP JUMPDEST SWAP3 POP POP DUP2 SWAP1 SSTORE POP DUP2 DUP2 DUP2 MLOAD DUP2 LT PUSH2 0xC4A JUMPI PUSH2 0xC4A PUSH2 0x225F JUMP JUMPDEST PUSH1 0x20 MUL PUSH1 0x20 ADD ADD MLOAD PUSH1 0xE PUSH0 DUP7 DUP2 MSTORE PUSH1 0x20 ADD SWAP1 DUP2 MSTORE PUSH1 0x20 ADD PUSH0 KECCAK256 PUSH0 DUP6 DUP5 DUP2 MLOAD DUP2 LT PUSH2 0xC76 JUMPI PUSH2 0xC76 PUSH2 0x225F JUMP JUMPDEST PUSH1 0x20 MUL PUSH1 0x20 ADD ADD MLOAD DUP2 MSTORE PUSH1 0x20 ADD SWAP1 DUP2 MSTORE PUSH1 0x20 ADD PUSH0 KECCAK256 PUSH0 DUP3 DUP3 SLOAD PUSH2 0xC99 SWAP2 SWAP1 PUSH2 0x2273 JUMP JUMPDEST SWAP1 SWAP2 SSTORE POP POP PUSH1 0x1 ADD PUSH2 0xA96 JUMP JUMPDEST POP PUSH1 0x40 MLOAD DUP4 DUP2 MSTORE PUSH32 0x1D60DFCBD492A15A6799CEBA9A799DBACFD5F51D1C55E2688FB5E04B113F2176 SWAP1 PUSH1 0x20 ADD PUSH1 0x40 MLOAD DUP1 SWAP2 SUB SWAP1 LOG1 POP POP POP JUMP JUMPDEST PUSH0 DUP2 DUP2 MSTORE PUSH1 0x11 PUSH1 0x20 MSTORE PUSH1 0x40 DUP2 KECCAK256 SLOAD PUSH2 0x8D4 JUMP JUMPDEST DUP1 MLOAD DUP3 MLOAD EQ PUSH2 0xD3B JUMPI PUSH1 0x40 MLOAD PUSH3 0x461BCD PUSH1 0xE5 SHL DUP2 MSTORE PUSH1 0x20 PUSH1 0x4 DUP3 ADD MSTORE PUSH1 0x15 PUSH1 0x24 DUP3 ADD MSTORE PUSH21 0x82E4E4C2F240D8CADCCEE8D040DAD2E6DAC2E8C6D PUSH1 0x5B SHL PUSH1 0x44 DUP3 ADD MSTORE PUSH1 0x64 ADD PUSH2 0x493 JUMP JUMPDEST PUSH1 0x13 SLOAD PUSH1 0x40 MLOAD PUSH4 0x1A54F343 PUSH1 0xE2 SHL DUP2 MSTORE PUSH1 0x1 PUSH1 0x1 PUSH1 0xA0 SHL SUB DUP6 DUP2 AND PUSH1 0x4 DUP4 ADD MSTORE SWAP1 SWAP2 AND SWAP1 PUSH4 0x6953CD0C SWAP1 PUSH1 0x24 ADD PUSH1 0x20 PUSH1 0x40 MLOAD DUP1 DUP4 SUB DUP2 DUP7 GAS STATICCALL ISZERO DUP1 ISZERO PUSH2 0xD83 JUMPI RETURNDATASIZE PUSH0 PUSH0 RETURNDATACOPY RETURNDATASIZE PUSH0 REVERT JUMPDEST POP POP POP POP PUSH1 0x40 MLOAD RETURNDATASIZE PUSH1 0x1F NOT PUSH1 0x1F DUP3 ADD AND DUP3 ADD DUP1 PUSH1 0x40 MSTORE POP DUP2 ADD SWAP1 PUSH2 0xDA7 SWAP2 SWAP1 PUSH2 0x2286 JUMP JUMPDEST PUSH1 0x1 PUSH1 0x1 PUSH1 0xA0 SHL SUB AND CALLER PUSH1 0x1 PUSH1 0x1 PUSH1 0xA0 SHL SUB AND EQ PUSH2 0xDF4 JUMPI PUSH1 0x40 MLOAD PUSH3 0x461BCD PUSH1 0xE5 SHL DUP2 MSTORE PUSH1 0x20 PUSH1 0x4 DUP3 ADD MSTORE PUSH1 0xA PUSH1 0x24 DUP3 ADD MSTORE PUSH10 0x13DB9B1E48109C985B99 PUSH1 0xB2 SHL PUSH1 0x44 DUP3 ADD MSTORE PUSH1 0x64 ADD PUSH2 0x493 JUMP JUMPDEST PUSH0 JUMPDEST DUP3 MLOAD DUP2 LT ISZERO PUSH2 0xF92 JUMPI PUSH1 0x13 SLOAD DUP4 MLOAD PUSH1 0x1 PUSH1 0x1 PUSH1 0xA0 SHL SUB SWAP1 SWAP2 AND SWAP1 PUSH4 0xD7984F18 SWAP1 CALLER SWAP1 DUP8 SWAP1 DUP8 SWAP1 DUP7 SWAP1 DUP2 LT PUSH2 0xE2C JUMPI PUSH2 0xE2C PUSH2 0x225F JUMP JUMPDEST PUSH1 0x20 SWAP1 DUP2 MUL SWAP2 SWAP1 SWAP2 ADD ADD MLOAD PUSH1 0x40 MLOAD PUSH1 0x1 PUSH1 0x1 PUSH1 0xE0 SHL SUB NOT PUSH1 0xE0 DUP7 SWAP1 SHL AND DUP2 MSTORE PUSH1 0x1 PUSH1 0x1 PUSH1 0xA0 SHL SUB SWAP4 DUP5 AND PUSH1 0x4 DUP3 ADD MSTORE SWAP3 SWAP1 SWAP2 AND PUSH1 0x24 DUP4 ADD MSTORE PUSH1 0x44 DUP3 ADD MSTORE PUSH1 0x64 ADD PUSH1 0x20 PUSH1 0x40 MLOAD DUP1 DUP4 SUB DUP2 DUP7 GAS STATICCALL ISZERO DUP1 ISZERO PUSH2 0xE87 JUMPI RETURNDATASIZE PUSH0 PUSH0 RETURNDATACOPY RETURNDATASIZE PUSH0 REVERT JUMPDEST POP POP POP POP PUSH1 0x40 MLOAD RETURNDATASIZE PUSH1 0x1F NOT PUSH1 0x1F DUP3 ADD AND DUP3 ADD DUP1 PUSH1 0x40 MSTORE POP DUP2 ADD SWAP1 PUSH2 0xEAB SWAP2 SWAP1 PUSH2 0x22A1 JUMP JUMPDEST PUSH2 0xEEE JUMPI PUSH1 0x40 MLOAD PUSH3 0x461BCD PUSH1 0xE5 SHL DUP2 MSTORE PUSH1 0x20 PUSH1 0x4 DUP3 ADD MSTORE PUSH1 0x14 PUSH1 0x24 DUP3 ADD MSTORE PUSH20 0x141C9BD91D58DD081A5D195B481A5B9D985B1A59 PUSH1 0x62 SHL PUSH1 0x44 DUP3 ADD MSTORE PUSH1 0x64 ADD PUSH2 0x493 JUMP JUMPDEST PUSH1 0x40 MLOAD PUSH12 0xFFFFFFFFFFFFFFFFFFFFFFFF NOT PUSH1 0x60 DUP8 DUP2 SHL DUP3 AND PUSH1 0x20 DUP5 ADD MSTORE DUP7 SWAP1 SHL AND PUSH1 0x34 DUP3 ADD MSTORE PUSH0 SWAP1 PUSH1 0x48 ADD PUSH1 0x40 MLOAD PUSH1 0x20 DUP2 DUP4 SUB SUB DUP2 MSTORE SWAP1 PUSH1 0x40 MSTORE DUP1 MLOAD SWAP1 PUSH1 0x20 ADD KECCAK256 SWAP1 POP DUP3 DUP3 DUP2 MLOAD DUP2 LT PUSH2 0xF43 JUMPI PUSH2 0xF43 PUSH2 0x225F JUMP JUMPDEST PUSH1 0x20 MUL PUSH1 0x20 ADD ADD MLOAD PUSH1 0xE PUSH0 DUP4 DUP2 MSTORE PUSH1 0x20 ADD SWAP1 DUP2 MSTORE PUSH1 0x20 ADD PUSH0 KECCAK256 PUSH0 DUP7 DUP6 DUP2 MLOAD DUP2 LT PUSH2 0xF6F JUMPI PUSH2 0xF6F PUSH2 0x225F JUMP JUMPDEST PUSH1 0x20 SWAP1 DUP2 MUL SWAP2 SWAP1 SWAP2 ADD DUP2 ADD MLOAD DUP3 MSTORE DUP2 ADD SWAP2 SWAP1 SWAP2 MSTORE PUSH1 0x40 ADD PUSH0 KECCAK256 SSTORE POP PUSH1 0x1 ADD PUSH2 0xDF6 JUMP JUMPDEST POP PUSH1 0x40 MLOAD PUSH1 0x1 PUSH1 0x1 PUSH1 0xA0 SHL SUB DUP1 DUP6 AND SWAP2 SWAP1 DUP7 AND SWAP1 CALLER SWAP1 PUSH32 0xC4C55949F6DEFAFD91EE9E934124FAE5735D38C2CAD3A7D46D1B58312AB5EA98 SWAP1 PUSH0 SWAP1 LOG4 POP POP POP POP JUMP JUMPDEST PUSH0 DUP5 DUP2 MSTORE PUSH1 0x6 PUSH1 0x20 MSTORE PUSH1 0x40 DUP2 KECCAK256 SLOAD SWAP1 SUB PUSH2 0x1027 JUMPI PUSH1 0x40 MLOAD PUSH3 0x461BCD PUSH1 0xE5 SHL DUP2 MSTORE PUSH1 0x20 PUSH1 0x4 DUP3 ADD MSTORE PUSH1 0x15 PUSH1 0x24 DUP3 ADD MSTORE PUSH21 0x14D85B19481A5D195B481B9BDD08195E1A5CDD1959 PUSH1 0x5A SHL PUSH1 0x44 DUP3 ADD MSTORE PUSH1 0x64 ADD PUSH2 0x493 JUMP JUMPDEST DUP2 MLOAD DUP4 MLOAD EQ DUP1 ISZERO PUSH2 0x1039 JUMPI POP DUP1 MLOAD DUP4 MLOAD EQ JUMPDEST PUSH2 0x107E JUMPI PUSH1 0x40 MLOAD PUSH3 0x461BCD PUSH1 0xE5 SHL DUP2 MSTORE PUSH1 0x20 PUSH1 0x4 DUP3 ADD MSTORE PUSH1 0x16 PUSH1 0x24 DUP3 ADD MSTORE PUSH22 0x92DCE0EAE840D8CADCCEE8D040DCDEE840DAC2E8C6D PUSH1 0x53 SHL PUSH1 0x44 DUP3 ADD MSTORE PUSH1 0x64 ADD PUSH2 0x493 JUMP JUMPDEST PUSH0 JUMPDEST DUP4 MLOAD DUP2 LT ISZERO PUSH2 0x12CD JUMPI PUSH0 DUP6 DUP2 MSTORE PUSH1 0x4 PUSH1 0x20 MSTORE PUSH1 0x40 SWAP1 KECCAK256 SLOAD PUSH1 0x1 PUSH1 0x1 PUSH1 0xA0 SHL SUB AND CALLER EQ DUP1 PUSH2 0x10B7 JUMPI POP PUSH1 0x12 SLOAD PUSH1 0x1 PUSH1 0x1 PUSH1 0xA0 SHL SUB AND CALLER EQ JUMPDEST PUSH2 0x10F1 JUMPI PUSH1 0x40 MLOAD PUSH3 0x461BCD PUSH1 0xE5 SHL DUP2 MSTORE PUSH1 0x20 PUSH1 0x4 DUP3 ADD MSTORE PUSH1 0xB PUSH1 0x24 DUP3 ADD MSTORE PUSH11 0x27B7363C9039B2B63632B9 PUSH1 0xA9 SHL PUSH1 0x44 DUP3 ADD MSTORE PUSH1 0x64 ADD PUSH2 0x493 JUMP JUMPDEST PUSH1 0xF PUSH0 DUP7 DUP2 MSTORE PUSH1 0x20 ADD SWAP1 DUP2 MSTORE PUSH1 0x20 ADD PUSH0 KECCAK256 PUSH0 DUP6 DUP4 DUP2 MLOAD DUP2 LT PUSH2 0x1115 JUMPI PUSH2 0x1115 PUSH2 0x225F JUMP JUMPDEST PUSH1 0x20 MUL PUSH1 0x20 ADD ADD MLOAD DUP2 MSTORE PUSH1 0x20 ADD SWAP1 DUP2 MSTORE PUSH1 0x20 ADD PUSH0 KECCAK256 SLOAD PUSH0 SUB PUSH2 0x1174 JUMPI PUSH1 0x40 MLOAD PUSH3 0x461BCD PUSH1 0xE5 SHL DUP2 MSTORE PUSH1 0x20 PUSH1 0x4 DUP3 ADD MSTORE PUSH1 0x18 PUSH1 0x24 DUP3 ADD MSTORE PUSH24 0x141C9BD91D58DD081A5D195B481B9BDD08195E1A5CDD1959 PUSH1 0x42 SHL PUSH1 0x44 DUP3 ADD MSTORE PUSH1 0x64 ADD PUSH2 0x493 JUMP JUMPDEST PUSH1 0xB PUSH0 DUP7 DUP2 MSTORE PUSH1 0x20 ADD SWAP1 DUP2 MSTORE PUSH1 0x20 ADD PUSH0 KECCAK256 PUSH0 DUP6 DUP4 DUP2 MLOAD DUP2 LT PUSH2 0x1198 JUMPI PUSH2 0x1198 PUSH2 0x225F JUMP JUMPDEST PUSH1 0x20 MUL PUSH1 0x20 ADD ADD MLOAD DUP2 MSTORE PUSH1 0x20 ADD SWAP1 DUP2 MSTORE PUSH1 0x20 ADD PUSH0 KECCAK256 SLOAD DUP4 DUP3 DUP2 MLOAD DUP2 LT PUSH2 0x11C0 JUMPI PUSH2 0x11C0 PUSH2 0x225F JUMP JUMPDEST PUSH1 0x20 MUL PUSH1 0x20 ADD ADD MLOAD GT ISZERO PUSH2 0x1216 JUMPI PUSH1 0x40 MLOAD PUSH3 0x461BCD PUSH1 0xE5 SHL DUP2 MSTORE PUSH1 0x20 PUSH1 0x4 DUP3 ADD MSTORE PUSH1 0x1C PUSH1 0x24 DUP3 ADD MSTORE PUSH32 0x4E6F7420657863656564206578697374696E672070726F647563747300000000 PUSH1 0x44 DUP3 ADD MSTORE PUSH1 0x64 ADD PUSH2 0x493 JUMP JUMPDEST DUP3 DUP2 DUP2 MLOAD DUP2 LT PUSH2 0x1228 JUMPI PUSH2 0x1228 PUSH2 0x225F JUMP JUMPDEST PUSH1 0x20 MUL PUSH1 0x20 ADD ADD MLOAD PUSH1 0xB PUSH0 DUP8 DUP2 MSTORE PUSH1 0x20 ADD SWAP1 DUP2 MSTORE PUSH1 0x20 ADD PUSH0 KECCAK256 PUSH0 DUP7 DUP5 DUP2 MLOAD DUP2 LT PUSH2 0x1254 JUMPI PUSH2 0x1254 PUSH2 0x225F JUMP JUMPDEST PUSH1 0x20 MUL PUSH1 0x20 ADD ADD MLOAD DUP2 MSTORE PUSH1 0x20 ADD SWAP1 DUP2 MSTORE PUSH1 0x20 ADD PUSH0 KECCAK256 DUP2 SWAP1 SSTORE POP DUP2 DUP2 DUP2 MLOAD DUP2 LT PUSH2 0x127F JUMPI PUSH2 0x127F PUSH2 0x225F JUMP JUMPDEST PUSH1 0x20 MUL PUSH1 0x20 ADD ADD MLOAD PUSH1 0xC PUSH0 DUP8 DUP2 MSTORE PUSH1 0x20 ADD SWAP1 DUP2 MSTORE PUSH1 0x20 ADD PUSH0 KECCAK256 PUSH0 DUP7 DUP5 DUP2 MLOAD DUP2 LT PUSH2 0x12AB JUMPI PUSH2 0x12AB PUSH2 0x225F JUMP JUMPDEST PUSH1 0x20 SWAP1 DUP2 MUL SWAP2 SWAP1 SWAP2 ADD DUP2 ADD MLOAD DUP3 MSTORE DUP2 ADD SWAP2 SWAP1 SWAP2 MSTORE PUSH1 0x40 ADD PUSH0 KECCAK256 SSTORE PUSH1 0x1 ADD PUSH2 0x1080 JUMP JUMPDEST POP PUSH1 0x40 MLOAD DUP5 DUP2 MSTORE PUSH32 0xE564E99A515264D42686C4A530DC83C9E512E9B9F7E5FAEC682EC9235903039F SWAP1 PUSH1 0x20 ADD PUSH1 0x40 MLOAD DUP1 SWAP2 SUB SWAP1 LOG1 POP POP POP POP JUMP JUMPDEST PUSH2 0x130F PUSH2 0x1D6B JUMP JUMPDEST PUSH1 0x13 SLOAD PUSH1 0x40 MLOAD PUSH4 0x1A54F343 PUSH1 0xE2 SHL DUP2 MSTORE PUSH1 0x1 PUSH1 0x1 PUSH1 0xA0 SHL SUB DUP7 DUP2 AND PUSH1 0x4 DUP4 ADD MSTORE PUSH0 SWAP3 AND SWAP1 PUSH4 0x6953CD0C SWAP1 PUSH1 0x24 ADD PUSH1 0x20 PUSH1 0x40 MLOAD DUP1 DUP4 SUB DUP2 DUP7 GAS STATICCALL ISZERO DUP1 ISZERO PUSH2 0x1357 JUMPI RETURNDATASIZE PUSH0 PUSH0 RETURNDATACOPY RETURNDATASIZE PUSH0 REVERT JUMPDEST POP POP POP POP PUSH1 0x40 MLOAD RETURNDATASIZE PUSH1 0x1F NOT PUSH1 0x1F DUP3 ADD AND DUP3 ADD DUP1 PUSH1 0x40 MSTORE POP DUP2 ADD SWAP1 PUSH2 0x137B SWAP2 SWAP1 PUSH2 0x2286 JUMP JUMPDEST PUSH1 0x3 SLOAD PUSH1 0x40 MLOAD PUSH4 0x5A5562D PUSH1 0xE0 SHL DUP2 MSTORE PUSH1 0x1 PUSH1 0x1 PUSH1 0xA0 SHL SUB DUP1 DUP5 AND PUSH1 0x4 DUP4 ADD MSTORE SWAP3 SWAP4 POP CALLER SWAP3 SWAP1 SWAP2 AND SWAP1 PUSH4 0x5A5562D SWAP1 PUSH1 0x24 ADD PUSH1 0x20 PUSH1 0x40 MLOAD DUP1 DUP4 SUB DUP2 DUP7 GAS STATICCALL ISZERO DUP1 ISZERO PUSH2 0x13C8 JUMPI RETURNDATASIZE PUSH0 PUSH0 RETURNDATACOPY RETURNDATASIZE PUSH0 REVERT JUMPDEST POP POP POP POP PUSH1 0x40 MLOAD RETURNDATASIZE PUSH1 0x1F NOT PUSH1 0x1F DUP3 ADD AND DUP3 ADD DUP1 PUSH1 0x40 MSTORE POP DUP2 ADD SWAP1 PUSH2 0x13EC SWAP2 SWAP1 PUSH2 0x22A1 JUMP JUMPDEST PUSH2 0x142D JUMPI PUSH1 0x40 MLOAD PUSH3 0x461BCD PUSH1 0xE5 SHL DUP2 MSTORE PUSH1 0x20 PUSH1 0x4 DUP3 ADD MSTORE PUSH1 0x12 PUSH1 0x24 DUP3 ADD MSTORE PUSH18 0x24B73B30B634B21031B7B63632B1BA34B7B7 PUSH1 0x71 SHL PUSH1 0x44 DUP3 ADD MSTORE PUSH1 0x64 ADD PUSH2 0x493 JUMP JUMPDEST PUSH1 0x3 SLOAD PUSH1 0x40 MLOAD PUSH4 0x4AFFB863 PUSH1 0xE0 SHL DUP2 MSTORE PUSH1 0x1 PUSH1 0x1 PUSH1 0xA0 SHL SUB DUP5 DUP2 AND PUSH1 0x4 DUP4 ADD MSTORE DUP4 DUP2 AND PUSH1 0x24 DUP4 ADD MSTORE SWAP1 SWAP2 AND SWAP1 PUSH4 0x4AFFB863 SWAP1 PUSH1 0x44 ADD PUSH1 0x20 PUSH1 0x40 MLOAD DUP1 DUP4 SUB DUP2 DUP7 GAS STATICCALL ISZERO DUP1 ISZERO PUSH2 0x147D JUMPI RETURNDATASIZE PUSH0 PUSH0 RETURNDATACOPY RETURNDATASIZE PUSH0 REVERT JUMPDEST POP POP POP POP PUSH1 0x40 MLOAD RETURNDATASIZE PUSH1 0x1F NOT PUSH1 0x1F DUP3 ADD AND DUP3 ADD DUP1 PUSH1 0x40 MSTORE POP DUP2 ADD SWAP1 PUSH2 0x14A1 SWAP2 SWAP1 PUSH2 0x22A1 JUMP JUMPDEST PUSH2 0x14A9 JUMPI PUSH0 PUSH0 REVERT JUMPDEST PUSH1 0x1 SLOAD PUSH1 0x40 DUP1 MLOAD PUSH4 0x2B88E1DB PUSH1 0xE2 SHL DUP2 MSTORE DUP2 MLOAD PUSH0 SWAP4 PUSH1 0x1 PUSH1 0x1 PUSH1 0xA0 SHL SUB AND SWAP3 PUSH4 0xAE23876C SWAP3 PUSH1 0x4 DUP1 DUP3 ADD SWAP4 SWAP2 DUP3 SWAP1 SUB ADD DUP2 DUP7 GAS STATICCALL ISZERO DUP1 ISZERO PUSH2 0x14EC JUMPI RETURNDATASIZE PUSH0 PUSH0 RETURNDATACOPY RETURNDATASIZE PUSH0 REVERT JUMPDEST POP POP POP POP PUSH1 0x40 MLOAD RETURNDATASIZE PUSH1 0x1F NOT PUSH1 0x1F DUP3 ADD AND DUP3 ADD DUP1 PUSH1 0x40 MSTORE POP DUP2 ADD SWAP1 PUSH2 0x1510 SWAP2 SWAP1 PUSH2 0x22BC JUMP JUMPDEST PUSH1 0x2 SLOAD PUSH1 0x40 MLOAD PUSH4 0x24351817 PUSH1 0xE1 SHL DUP2 MSTORE CALLER PUSH1 0x4 DUP3 ADD MSTORE SWAP2 SWAP4 POP DUP4 SWAP3 POP PUSH1 0x1 PUSH1 0x1 PUSH1 0xA0 SHL SUB AND SWAP1 PUSH4 0x486A302E SWAP1 PUSH1 0x24 ADD PUSH1 0x20 PUSH1 0x40 MLOAD DUP1 DUP4 SUB DUP2 DUP7 GAS STATICCALL ISZERO DUP1 ISZERO PUSH2 0x155A JUMPI RETURNDATASIZE PUSH0 PUSH0 RETURNDATACOPY RETURNDATASIZE PUSH0 REVERT JUMPDEST POP POP POP POP PUSH1 0x40 MLOAD RETURNDATASIZE PUSH1 0x1F NOT PUSH1 0x1F DUP3 ADD AND DUP3 ADD DUP1 PUSH1 0x40 MSTORE POP DUP2 ADD SWAP1 PUSH2 0x157E SWAP2 SWAP1 PUSH2 0x22DE JUMP JUMPDEST LT ISZERO PUSH2 0x15C2 JUMPI PUSH1 0x40 MLOAD PUSH3 0x461BCD PUSH1 0xE5 SHL DUP2 MSTORE PUSH1 0x20 PUSH1 0x4 DUP3 ADD MSTORE PUSH1 0x13 PUSH1 0x24 DUP3 ADD MSTORE PUSH19 0x496E73756666696369656E7420746F6B656E73 PUSH1 0x68 SHL PUSH1 0x44 DUP3 ADD MSTORE PUSH1 0x64 ADD PUSH2 0x493 JUMP JUMPDEST DUP5 MLOAD DUP7 MLOAD EQ DUP1 ISZERO PUSH2 0x15D4 JUMPI POP DUP4 MLOAD DUP6 MLOAD EQ JUMPDEST PUSH2 0x1618 JUMPI PUSH1 0x40 MLOAD PUSH3 0x461BCD PUSH1 0xE5 SHL DUP2 MSTORE PUSH1 0x20 PUSH1 0x4 DUP3 ADD MSTORE PUSH1 0x15 PUSH1 0x24 DUP3 ADD MSTORE PUSH21 0x82E4E4C2F240D8CADCCEE8D040DAD2E6DAC2E8C6D PUSH1 0x5B SHL PUSH1 0x44 DUP3 ADD MSTORE PUSH1 0x64 ADD PUSH2 0x493 JUMP JUMPDEST PUSH1 0x40 MLOAD PUSH12 0xFFFFFFFFFFFFFFFFFFFFFFFF NOT PUSH1 0x60 DUP5 DUP2 SHL DUP3 AND PUSH1 0x20 DUP5 ADD MSTORE DUP10 SWAP1 SHL AND PUSH1 0x34 DUP3 ADD MSTORE PUSH0 SWAP1 PUSH1 0x48 ADD PUSH1 0x40 DUP1 MLOAD PUSH1 0x1F NOT DUP2 DUP5 SUB ADD DUP2 MSTORE SWAP2 DUP2 MSTORE DUP2 MLOAD PUSH1 0x20 SWAP3 DUP4 ADD KECCAK256 PUSH0 DUP2 DUP2 MSTORE PUSH1 0x6 SWAP1 SWAP4 MSTORE SWAP2 KECCAK256 SLOAD SWAP1 SWAP2 POP ISZERO PUSH2 0x16AB JUMPI PUSH1 0x40 MLOAD PUSH3 0x461BCD PUSH1 0xE5 SHL DUP2 MSTORE PUSH1 0x20 PUSH1 0x4 DUP3 ADD MSTORE PUSH1 0x11 PUSH1 0x24 DUP3 ADD MSTORE PUSH17 0x14D85B19481A5D195B48195E1A5CDD1959 PUSH1 0x7A SHL PUSH1 0x44 DUP3 ADD MSTORE PUSH1 0x64 ADD PUSH2 0x493 JUMP JUMPDEST PUSH2 0x16B9 PUSH1 0x7 DUP1 SLOAD PUSH1 0x1 ADD SWAP1 SSTORE JUMP JUMPDEST PUSH0 PUSH2 0x16C3 PUSH1 0x7 SLOAD SWAP1 JUMP JUMPDEST PUSH1 0x40 DUP1 MLOAD DUP1 DUP3 ADD DUP3 MSTORE PUSH1 0x1 PUSH1 0x1 PUSH1 0xA0 SHL SUB DUP1 DUP9 AND DUP1 DUP4 MSTORE DUP14 DUP3 AND PUSH1 0x20 DUP1 DUP6 ADD SWAP2 DUP3 MSTORE PUSH0 DUP10 DUP2 MSTORE PUSH1 0x4 DUP3 MSTORE DUP7 DUP2 KECCAK256 SWAP6 MLOAD DUP7 SLOAD SWAP1 DUP7 AND PUSH1 0x1 PUSH1 0x1 PUSH1 0xA0 SHL SUB NOT SWAP2 DUP3 AND OR DUP8 SSTORE SWAP3 MLOAD PUSH1 0x1 SWAP1 SWAP7 ADD DUP1 SLOAD SWAP7 SWAP1 SWAP6 AND SWAP6 SWAP1 SWAP3 AND SWAP5 SWAP1 SWAP5 OR SWAP1 SWAP3 SSTORE PUSH1 0x6 DUP4 MSTORE DUP4 DUP3 KECCAK256 DUP6 SWAP1 SSTORE DUP5 DUP3 MSTORE PUSH1 0x5 DUP4 MSTORE DUP4 DUP3 KECCAK256 DUP8 SWAP1 SSTORE DUP2 MSTORE PUSH1 0xA SWAP1 SWAP2 MSTORE KECCAK256 SWAP1 SWAP2 POP PUSH2 0x174D SWAP1 DUP1 SLOAD PUSH1 0x1 ADD SWAP1 SSTORE JUMP JUMPDEST PUSH1 0x1 PUSH1 0x1 PUSH1 0xA0 SHL SUB DUP5 AND PUSH0 DUP2 DUP2 MSTORE PUSH1 0xA PUSH1 0x20 SWAP1 DUP2 MSTORE PUSH1 0x40 DUP1 DUP4 KECCAK256 SLOAD PUSH1 0x8 DUP4 MSTORE DUP2 DUP5 KECCAK256 DUP2 DUP6 MSTORE DUP4 MSTORE DUP2 DUP5 KECCAK256 DUP8 SWAP1 SSTORE SWAP4 DUP4 MSTORE PUSH1 0x9 DUP3 MSTORE DUP1 DUP4 KECCAK256 DUP7 DUP5 MSTORE SWAP1 SWAP2 MSTORE DUP2 KECCAK256 DUP3 SWAP1 SSTORE JUMPDEST DUP10 MLOAD DUP2 LT ISZERO PUSH2 0x1A7E JUMPI PUSH1 0xF PUSH0 DUP6 DUP2 MSTORE PUSH1 0x20 ADD SWAP1 DUP2 MSTORE PUSH1 0x20 ADD PUSH0 KECCAK256 PUSH0 DUP12 DUP4 DUP2 MLOAD DUP2 LT PUSH2 0x17BD JUMPI PUSH2 0x17BD PUSH2 0x225F JUMP JUMPDEST PUSH1 0x20 MUL PUSH1 0x20 ADD ADD MLOAD DUP2 MSTORE PUSH1 0x20 ADD SWAP1 DUP2 MSTORE PUSH1 0x20 ADD PUSH0 KECCAK256 SLOAD PUSH0 EQ PUSH2 0x1821 JUMPI PUSH1 0x40 MLOAD PUSH3 0x461BCD PUSH1 0xE5 SHL DUP2 MSTORE PUSH1 0x20 PUSH1 0x4 DUP3 ADD MSTORE PUSH1 0x19 PUSH1 0x24 DUP3 ADD MSTORE PUSH32 0x4475706C69636174652070726F64756374206974656D20494400000000000000 PUSH1 0x44 DUP3 ADD MSTORE PUSH1 0x64 ADD PUSH2 0x493 JUMP JUMPDEST DUP6 PUSH1 0x1 PUSH1 0x1 PUSH1 0xA0 SHL SUB AND DUP8 PUSH1 0x1 PUSH1 0x1 PUSH1 0xA0 SHL SUB AND EQ PUSH2 0x193C JUMPI PUSH1 0xE PUSH0 DUP6 DUP2 MSTORE PUSH1 0x20 ADD SWAP1 DUP2 MSTORE PUSH1 0x20 ADD PUSH0 KECCAK256 PUSH0 DUP12 DUP4 DUP2 MLOAD DUP2 LT PUSH2 0x185E JUMPI PUSH2 0x185E PUSH2 0x225F JUMP JUMPDEST PUSH1 0x20 MUL PUSH1 0x20 ADD ADD MLOAD DUP2 MSTORE PUSH1 0x20 ADD SWAP1 DUP2 MSTORE PUSH1 0x20 ADD PUSH0 KECCAK256 SLOAD DUP10 DUP3 DUP2 MLOAD DUP2 LT PUSH2 0x1886 JUMPI PUSH2 0x1886 PUSH2 0x225F JUMP JUMPDEST PUSH1 0x20 MUL PUSH1 0x20 ADD ADD MLOAD GT ISZERO PUSH2 0x18D5 JUMPI PUSH1 0x40 MLOAD PUSH3 0x461BCD PUSH1 0xE5 SHL DUP2 MSTORE PUSH1 0x20 PUSH1 0x4 DUP3 ADD MSTORE PUSH1 0x16 PUSH1 0x24 DUP3 ADD MSTORE PUSH22 0x496E73756666696369656E7420616C6C6F77616E6365 PUSH1 0x50 SHL PUSH1 0x44 DUP3 ADD MSTORE PUSH1 0x64 ADD PUSH2 0x493 JUMP JUMPDEST DUP9 DUP2 DUP2 MLOAD DUP2 LT PUSH2 0x18E7 JUMPI PUSH2 0x18E7 PUSH2 0x225F JUMP JUMPDEST PUSH1 0x20 MUL PUSH1 0x20 ADD ADD MLOAD PUSH1 0xE PUSH0 DUP7 DUP2 MSTORE PUSH1 0x20 ADD SWAP1 DUP2 MSTORE PUSH1 0x20 ADD PUSH0 KECCAK256 PUSH0 DUP13 DUP5 DUP2 MLOAD DUP2 LT PUSH2 0x1913 JUMPI PUSH2 0x1913 PUSH2 0x225F JUMP JUMPDEST PUSH1 0x20 MUL PUSH1 0x20 ADD ADD MLOAD DUP2 MSTORE PUSH1 0x20 ADD SWAP1 DUP2 MSTORE PUSH1 0x20 ADD PUSH0 KECCAK256 PUSH0 DUP3 DUP3 SLOAD PUSH2 0x1936 SWAP2 SWAP1 PUSH2 0x2273 JUMP JUMPDEST SWAP1 SWAP2 SSTORE POP POP JUMPDEST PUSH0 DUP5 DUP2 MSTORE PUSH1 0x11 PUSH1 0x20 MSTORE PUSH1 0x40 SWAP1 KECCAK256 DUP1 SLOAD PUSH1 0x1 ADD SWAP1 DUP2 SWAP1 SSTORE DUP10 MLOAD DUP11 SWAP1 DUP4 SWAP1 DUP2 LT PUSH2 0x1966 JUMPI PUSH2 0x1966 PUSH2 0x225F JUMP JUMPDEST PUSH1 0x20 MUL PUSH1 0x20 ADD ADD MLOAD PUSH1 0xB PUSH0 DUP8 DUP2 MSTORE PUSH1 0x20 ADD SWAP1 DUP2 MSTORE PUSH1 0x20 ADD PUSH0 KECCAK256 PUSH0 DUP14 DUP6 DUP2 MLOAD DUP2 LT PUSH2 0x1992 JUMPI PUSH2 0x1992 PUSH2 0x225F JUMP JUMPDEST PUSH1 0x20 MUL PUSH1 0x20 ADD ADD MLOAD DUP2 MSTORE PUSH1 0x20 ADD SWAP1 DUP2 MSTORE PUSH1 0x20 ADD PUSH0 KECCAK256 DUP2 SWAP1 SSTORE POP DUP9 DUP3 DUP2 MLOAD DUP2 LT PUSH2 0x19BD JUMPI PUSH2 0x19BD PUSH2 0x225F JUMP JUMPDEST PUSH1 0x20 MUL PUSH1 0x20 ADD ADD MLOAD PUSH1 0xC PUSH0 DUP8 DUP2 MSTORE PUSH1 0x20 ADD SWAP1 DUP2 MSTORE PUSH1 0x20 ADD PUSH0 KECCAK256 PUSH0 DUP14 DUP6 DUP2 MLOAD DUP2 LT PUSH2 0x19E9 JUMPI PUSH2 0x19E9 PUSH2 0x225F JUMP JUMPDEST PUSH1 0x20 MUL PUSH1 0x20 ADD ADD MLOAD DUP2 MSTORE PUSH1 0x20 ADD SWAP1 DUP2 MSTORE PUSH1 0x20 ADD PUSH0 KECCAK256 DUP2 SWAP1 SSTORE POP DUP1 PUSH1 0xF PUSH0 DUP8 DUP2 MSTORE PUSH1 0x20 ADD SWAP1 DUP2 MSTORE PUSH1 0x20 ADD PUSH0 KECCAK256 PUSH0 DUP14 DUP6 DUP2 MLOAD DUP2 LT PUSH2 0x1A27 JUMPI PUSH2 0x1A27 PUSH2 0x225F JUMP JUMPDEST PUSH1 0x20 MUL PUSH1 0x20 ADD ADD MLOAD DUP2 MSTORE PUSH1 0x20 ADD SWAP1 DUP2 MSTORE PUSH1 0x20 ADD PUSH0 KECCAK256 DUP2 SWAP1 SSTORE POP DUP11 DUP3 DUP2 MLOAD DUP2 LT PUSH2 0x1A52 JUMPI PUSH2 0x1A52 PUSH2 0x225F JUMP JUMPDEST PUSH1 0x20 SWAP1 DUP2 MUL SWAP2 SWAP1 SWAP2 ADD DUP2 ADD MLOAD PUSH0 DUP8 DUP2 MSTORE PUSH1 0x10 DUP4 MSTORE PUSH1 0x40 DUP1 DUP3 KECCAK256 SWAP5 DUP3 MSTORE SWAP4 SWAP1 SWAP3 MSTORE SWAP2 SWAP1 KECCAK256 SSTORE PUSH1 0x1 ADD PUSH2 0x1790 JUMP JUMPDEST POP PUSH1 0x40 MLOAD PUSH1 0x1 PUSH1 0x1 PUSH1 0xA0 SHL SUB DUP12 AND SWAP1 CALLER SWAP1 PUSH32 0x53991C31DCDB7ED7C47EBE897391F23C41BC0B464C3F1A0A8E3256E90B6EDB55 SWAP1 PUSH0 SWAP1 LOG3 POP POP POP POP POP POP PUSH2 0x8B4 PUSH1 0x1 PUSH0 SSTORE JUMP JUMPDEST PUSH0 PUSH2 0x1ACD PUSH1 0x7 SLOAD SWAP1 JUMP JUMPDEST SWAP1 POP SWAP1 JUMP JUMPDEST PUSH1 0x12 SLOAD PUSH1 0x1 PUSH1 0x1 PUSH1 0xA0 SHL SUB AND CALLER EQ PUSH2 0x1B2C JUMPI PUSH1 0x40 MLOAD PUSH3 0x461BCD PUSH1 0xE5 SHL DUP2 MSTORE PUSH1 0x20 PUSH1 0x4 DUP3 ADD MSTORE PUSH1 0x1C PUSH1 0x24 DUP3 ADD MSTORE PUSH32 0x4F6E6C79206D61726B657420636F6E7472616374206164647265737300000000 PUSH1 0x44 DUP3 ADD MSTORE PUSH1 0x64 ADD PUSH2 0x493 JUMP JUMPDEST DUP1 ISZERO PUSH2 0x1BCA JUMPI PUSH0 JUMPDEST DUP4 MLOAD DUP2 LT ISZERO PUSH2 0x1BC4 JUMPI DUP3 DUP2 DUP2 MLOAD DUP2 LT PUSH2 0x1B4F JUMPI PUSH2 0x1B4F PUSH2 0x225F JUMP JUMPDEST PUSH1 0x20 MUL PUSH1 0x20 ADD ADD MLOAD PUSH1 0xB PUSH0 DUP8 DUP5 DUP2 MLOAD DUP2 LT PUSH2 0x1B6C JUMPI PUSH2 0x1B6C PUSH2 0x225F JUMP JUMPDEST PUSH1 0x20 MUL PUSH1 0x20 ADD ADD MLOAD DUP2 MSTORE PUSH1 0x20 ADD SWAP1 DUP2 MSTORE PUSH1 0x20 ADD PUSH0 KECCAK256 PUSH0 DUP7 DUP5 DUP2 MLOAD DUP2 LT PUSH2 0x1B94 JUMPI PUSH2 0x1B94 PUSH2 0x225F JUMP JUMPDEST PUSH1 0x20 MUL PUSH1 0x20 ADD ADD MLOAD DUP2 MSTORE PUSH1 0x20 ADD SWAP1 DUP2 MSTORE PUSH1 0x20 ADD PUSH0 KECCAK256 PUSH0 DUP3 DUP3 SLOAD PUSH2 0x1BB7 SWAP2 SWAP1 PUSH2 0x224C JUMP JUMPDEST SWAP1 SWAP2 SSTORE POP POP PUSH1 0x1 ADD PUSH2 0x1B34 JUMP JUMPDEST POP PUSH2 0x8B4 JUMP JUMPDEST PUSH0 JUMPDEST DUP4 MLOAD DUP2 LT ISZERO PUSH2 0x1D0E JUMPI DUP3 DUP2 DUP2 MLOAD DUP2 LT PUSH2 0x1BE7 JUMPI PUSH2 0x1BE7 PUSH2 0x225F JUMP JUMPDEST PUSH1 0x20 MUL PUSH1 0x20 ADD ADD MLOAD PUSH1 0xB PUSH0 DUP8 DUP5 DUP2 MLOAD DUP2 LT PUSH2 0x1C04 JUMPI PUSH2 0x1C04 PUSH2 0x225F JUMP JUMPDEST PUSH1 0x20 MUL PUSH1 0x20 ADD ADD MLOAD DUP2 MSTORE PUSH1 0x20 ADD SWAP1 DUP2 MSTORE PUSH1 0x20 ADD PUSH0 KECCAK256 PUSH0 DUP7 DUP5 DUP2 MLOAD DUP2 LT PUSH2 0x1C2C JUMPI PUSH2 0x1C2C PUSH2 0x225F JUMP JUMPDEST PUSH1 0x20 MUL PUSH1 0x20 ADD ADD MLOAD DUP2 MSTORE PUSH1 0x20 ADD SWAP1 DUP2 MSTORE PUSH1 0x20 ADD PUSH0 KECCAK256 SLOAD LT ISZERO PUSH2 0x1C87 JUMPI PUSH1 0x40 MLOAD PUSH3 0x461BCD PUSH1 0xE5 SHL DUP2 MSTORE PUSH1 0x20 PUSH1 0x4 DUP3 ADD MSTORE PUSH1 0x14 PUSH1 0x24 DUP3 ADD MSTORE PUSH20 0x125B9CDD59999A58DA595B9D081C1C9BD91D58DD PUSH1 0x62 SHL PUSH1 0x44 DUP3 ADD MSTORE PUSH1 0x64 ADD PUSH2 0x493 JUMP JUMPDEST DUP3 DUP2 DUP2 MLOAD DUP2 LT PUSH2 0x1C99 JUMPI PUSH2 0x1C99 PUSH2 0x225F JUMP JUMPDEST PUSH1 0x20 MUL PUSH1 0x20 ADD ADD MLOAD PUSH1 0xB PUSH0 DUP8 DUP5 DUP2 MLOAD DUP2 LT PUSH2 0x1CB6 JUMPI PUSH2 0x1CB6 PUSH2 0x225F JUMP JUMPDEST PUSH1 0x20 MUL PUSH1 0x20 ADD ADD MLOAD DUP2 MSTORE PUSH1 0x20 ADD SWAP1 DUP2 MSTORE PUSH1 0x20 ADD PUSH0 KECCAK256 PUSH0 DUP7 DUP5 DUP2 MLOAD DUP2 LT PUSH2 0x1CDE JUMPI PUSH2 0x1CDE PUSH2 0x225F JUMP JUMPDEST PUSH1 0x20 MUL PUSH1 0x20 ADD ADD MLOAD DUP2 MSTORE PUSH1 0x20 ADD SWAP1 DUP2 MSTORE PUSH1 0x20 ADD PUSH0 KECCAK256 PUSH0 DUP3 DUP3 SLOAD PUSH2 0x1D01 SWAP2 SWAP1 PUSH2 0x2273 JUMP JUMPDEST SWAP1 SWAP2 SSTORE POP POP PUSH1 0x1 ADD PUSH2 0x1BCC JUMP JUMPDEST POP POP POP POP POP JUMP JUMPDEST DUP1 SLOAD DUP1 PUSH2 0x1D64 JUMPI PUSH1 0x40 MLOAD PUSH3 0x461BCD PUSH1 0xE5 SHL DUP2 MSTORE PUSH1 0x20 PUSH1 0x4 DUP3 ADD MSTORE PUSH1 0x1B PUSH1 0x24 DUP3 ADD MSTORE PUSH32 0x436F756E7465723A2064656372656D656E74206F766572666C6F770000000000 PUSH1 0x44 DUP3 ADD MSTORE PUSH1 0x64 ADD PUSH2 0x493 JUMP JUMPDEST PUSH0 NOT ADD SWAP1 SSTORE JUMP JUMPDEST PUSH1 0x2 PUSH0 SLOAD SUB PUSH2 0x1DBC JUMPI PUSH1 0x40 MLOAD PUSH3 0x461BCD PUSH1 0xE5 SHL DUP2 MSTORE PUSH1 0x20 PUSH1 0x4 DUP3 ADD MSTORE PUSH1 0x1F PUSH1 0x24 DUP3 ADD MSTORE PUSH32 0x5265656E7472616E637947756172643A207265656E7472616E742063616C6C00 PUSH1 0x44 DUP3 ADD MSTORE PUSH1 0x64 ADD PUSH2 0x493 JUMP JUMPDEST PUSH1 0x2 PUSH0 SSTORE JUMP JUMPDEST PUSH0 PUSH0 PUSH1 0x40 DUP4 DUP6 SUB SLT ISZERO PUSH2 0x1DD3 JUMPI PUSH0 PUSH0 REVERT JUMPDEST POP POP DUP1 CALLDATALOAD SWAP3 PUSH1 0x20 SWAP1 SWAP2 ADD CALLDATALOAD SWAP2 POP JUMP JUMPDEST PUSH0 PUSH1 0x20 DUP3 DUP5 SUB SLT ISZERO PUSH2 0x1DF2 JUMPI PUSH0 PUSH0 REVERT JUMPDEST POP CALLDATALOAD SWAP2 SWAP1 POP JUMP JUMPDEST PUSH1 0x1 PUSH1 0x1 PUSH1 0xA0 SHL SUB DUP2 AND DUP2 EQ PUSH2 0x1E0D JUMPI PUSH0 PUSH0 REVERT JUMPDEST POP JUMP JUMPDEST PUSH0 PUSH0 PUSH1 0x40 DUP4 DUP6 SUB SLT ISZERO PUSH2 0x1E21 JUMPI PUSH0 PUSH0 REVERT JUMPDEST DUP3 CALLDATALOAD PUSH2 0x1E2C DUP2 PUSH2 0x1DF9 JUMP JUMPDEST SWAP5 PUSH1 0x20 SWAP4 SWAP1 SWAP4 ADD CALLDATALOAD SWAP4 POP POP POP JUMP JUMPDEST PUSH1 0x20 DUP1 DUP3 MSTORE DUP3 MLOAD DUP3 DUP3 ADD DUP2 SWAP1 MSTORE PUSH0 SWAP2 DUP5 ADD SWAP1 PUSH1 0x40 DUP5 ADD SWAP1 DUP4 JUMPDEST DUP2 DUP2 LT ISZERO PUSH2 0x1E71 JUMPI DUP4 MLOAD DUP4 MSTORE PUSH1 0x20 SWAP4 DUP5 ADD SWAP4 SWAP1 SWAP3 ADD SWAP2 PUSH1 0x1 ADD PUSH2 0x1E53 JUMP JUMPDEST POP SWAP1 SWAP6 SWAP5 POP POP POP POP POP JUMP JUMPDEST PUSH4 0x4E487B71 PUSH1 0xE0 SHL PUSH0 MSTORE PUSH1 0x41 PUSH1 0x4 MSTORE PUSH1 0x24 PUSH0 REVERT JUMPDEST PUSH1 0x40 MLOAD PUSH1 0x1F DUP3 ADD PUSH1 0x1F NOT AND DUP2 ADD PUSH1 0x1 PUSH1 0x1 PUSH1 0x40 SHL SUB DUP2 GT DUP3 DUP3 LT OR ISZERO PUSH2 0x1EB8 JUMPI PUSH2 0x1EB8 PUSH2 0x1E7C JUMP JUMPDEST PUSH1 0x40 MSTORE SWAP2 SWAP1 POP JUMP JUMPDEST PUSH0 PUSH1 0x1 PUSH1 0x1 PUSH1 0x40 SHL SUB DUP3 GT ISZERO PUSH2 0x1ED8 JUMPI PUSH2 0x1ED8 PUSH2 0x1E7C JUMP JUMPDEST POP PUSH1 0x5 SHL PUSH1 0x20 ADD SWAP1 JUMP JUMPDEST PUSH0 DUP3 PUSH1 0x1F DUP4 ADD SLT PUSH2 0x1EF1 JUMPI PUSH0 PUSH0 REVERT JUMPDEST DUP2 CALLDATALOAD PUSH2 0x1F04 PUSH2 0x1EFF DUP3 PUSH2 0x1EC0 JUMP JUMPDEST PUSH2 0x1E90 JUMP JUMPDEST DUP1 DUP3 DUP3 MSTORE PUSH1 0x20 DUP3 ADD SWAP2 POP PUSH1 0x20 DUP4 PUSH1 0x5 SHL DUP7 ADD ADD SWAP3 POP DUP6 DUP4 GT ISZERO PUSH2 0x1F25 JUMPI PUSH0 PUSH0 REVERT JUMPDEST PUSH1 0x20 DUP6 ADD JUMPDEST DUP4 DUP2 LT ISZERO PUSH2 0x1F42 JUMPI DUP1 CALLDATALOAD DUP4 MSTORE PUSH1 0x20 SWAP3 DUP4 ADD SWAP3 ADD PUSH2 0x1F2A JUMP JUMPDEST POP SWAP6 SWAP5 POP POP POP POP POP JUMP JUMPDEST PUSH0 PUSH0 PUSH0 PUSH1 0x60 DUP5 DUP7 SUB SLT ISZERO PUSH2 0x1F5E JUMPI PUSH0 PUSH0 REVERT JUMPDEST DUP4 CALLDATALOAD PUSH1 0x1 PUSH1 0x1 PUSH1 0x40 SHL SUB DUP2 GT ISZERO PUSH2 0x1F73 JUMPI PUSH0 PUSH0 REVERT JUMPDEST PUSH2 0x1F7F DUP7 DUP3 DUP8 ADD PUSH2 0x1EE2 JUMP JUMPDEST SWAP4 POP POP PUSH1 0x20 DUP5 ADD CALLDATALOAD PUSH1 0x1 PUSH1 0x1 PUSH1 0x40 SHL SUB DUP2 GT ISZERO PUSH2 0x1F9A JUMPI PUSH0 PUSH0 REVERT JUMPDEST PUSH2 0x1FA6 DUP7 DUP3 DUP8 ADD PUSH2 0x1EE2 JUMP JUMPDEST SWAP3 POP POP PUSH1 0x40 DUP5 ADD CALLDATALOAD PUSH1 0x1 PUSH1 0x1 PUSH1 0x40 SHL SUB DUP2 GT ISZERO PUSH2 0x1FC1 JUMPI PUSH0 PUSH0 REVERT JUMPDEST PUSH2 0x1FCD DUP7 DUP3 DUP8 ADD PUSH2 0x1EE2 JUMP JUMPDEST SWAP2 POP POP SWAP3 POP SWAP3 POP SWAP3 JUMP JUMPDEST PUSH0 PUSH1 0x20 DUP3 DUP5 SUB SLT ISZERO PUSH2 0x1FE7 JUMPI PUSH0 PUSH0 REVERT JUMPDEST DUP2 CALLDATALOAD PUSH2 0x1FF2 DUP2 PUSH2 0x1DF9 JUMP JUMPDEST SWAP4 SWAP3 POP POP POP JUMP JUMPDEST PUSH0 PUSH1 0x20 DUP3 DUP5 SUB SLT ISZERO PUSH2 0x2009 JUMPI PUSH0 PUSH0 REVERT JUMPDEST DUP2 CALLDATALOAD PUSH1 0x1 PUSH1 0x1 PUSH1 0x40 SHL SUB DUP2 GT ISZERO PUSH2 0x201E JUMPI PUSH0 PUSH0 REVERT JUMPDEST PUSH2 0x202A DUP5 DUP3 DUP6 ADD PUSH2 0x1EE2 JUMP JUMPDEST SWAP5 SWAP4 POP POP POP POP JUMP JUMPDEST PUSH0 PUSH0 PUSH0 PUSH1 0x60 DUP5 DUP7 SUB SLT ISZERO PUSH2 0x2044 JUMPI PUSH0 PUSH0 REVERT JUMPDEST DUP4 CALLDATALOAD SWAP3 POP PUSH1 0x20 DUP5 ADD CALLDATALOAD PUSH1 0x1 PUSH1 0x1 PUSH1 0x40 SHL SUB DUP2 GT ISZERO PUSH2 0x1F9A JUMPI PUSH0 PUSH0 REVERT JUMPDEST PUSH0 PUSH0 PUSH0 PUSH0 PUSH1 0x80 DUP6 DUP8 SUB SLT ISZERO PUSH2 0x2073 JUMPI PUSH0 PUSH0 REVERT JUMPDEST DUP5 CALLDATALOAD PUSH2 0x207E DUP2 PUSH2 0x1DF9 JUMP JUMPDEST SWAP4 POP PUSH1 0x20 DUP6 ADD CALLDATALOAD PUSH2 0x208E DUP2 PUSH2 0x1DF9 JUMP JUMPDEST SWAP3 POP PUSH1 0x40 DUP6 ADD CALLDATALOAD PUSH1 0x1 PUSH1 0x1 PUSH1 0x40 SHL SUB DUP2 GT ISZERO PUSH2 0x20A8 JUMPI PUSH0 PUSH0 REVERT JUMPDEST PUSH2 0x20B4 DUP8 DUP3 DUP9 ADD PUSH2 0x1EE2 JUMP JUMPDEST SWAP3 POP POP PUSH1 0x60 DUP6 ADD CALLDATALOAD PUSH1 0x1 PUSH1 0x1 PUSH1 0x40 SHL SUB DUP2 GT ISZERO PUSH2 0x20CF JUMPI PUSH0 PUSH0 REVERT JUMPDEST PUSH2 0x20DB DUP8 DUP3 DUP9 ADD PUSH2 0x1EE2 JUMP JUMPDEST SWAP2 POP POP SWAP3 SWAP6 SWAP2 SWAP5 POP SWAP3 POP JUMP JUMPDEST PUSH0 PUSH0 PUSH0 PUSH0 PUSH1 0x80 DUP6 DUP8 SUB SLT ISZERO PUSH2 0x20FA JUMPI PUSH0 PUSH0 REVERT JUMPDEST DUP5 CALLDATALOAD SWAP4 POP PUSH1 0x20 DUP6 ADD CALLDATALOAD PUSH1 0x1 PUSH1 0x1 PUSH1 0x40 SHL SUB DUP2 GT ISZERO PUSH2 0x2116 JUMPI PUSH0 PUSH0 REVERT JUMPDEST PUSH2 0x2122 DUP8 DUP3 DUP9 ADD PUSH2 0x1EE2 JUMP JUMPDEST SWAP4 POP POP PUSH1 0x40 DUP6 ADD CALLDATALOAD PUSH1 0x1 PUSH1 0x1 PUSH1 0x40 SHL SUB DUP2 GT ISZERO PUSH2 0x20A8 JUMPI PUSH0 PUSH0 REVERT JUMPDEST PUSH0 PUSH0 PUSH0 PUSH0 PUSH1 0x80 DUP6 DUP8 SUB SLT ISZERO PUSH2 0x2150 JUMPI PUSH0 PUSH0 REVERT JUMPDEST DUP5 CALLDATALOAD PUSH2 0x215B DUP2 PUSH2 0x1DF9 JUMP JUMPDEST SWAP4 POP PUSH1 0x20 DUP6 ADD CALLDATALOAD PUSH1 0x1 PUSH1 0x1 PUSH1 0x40 SHL SUB DUP2 GT ISZERO PUSH2 0x2116 JUMPI PUSH0 PUSH0 REVERT JUMPDEST DUP1 ISZERO ISZERO DUP2 EQ PUSH2 0x1E0D JUMPI PUSH0 PUSH0 REVERT JUMPDEST PUSH0 PUSH0 PUSH0 PUSH0 PUSH1 0x80 DUP6 DUP8 SUB SLT ISZERO PUSH2 0x2195 JUMPI PUSH0 PUSH0 REVERT JUMPDEST DUP5 CALLDATALOAD PUSH1 0x1 PUSH1 0x1 PUSH1 0x40 SHL SUB DUP2 GT ISZERO PUSH2 0x21AA JUMPI PUSH0 PUSH0 REVERT JUMPDEST PUSH2 0x21B6 DUP8 DUP3 DUP9 ADD PUSH2 0x1EE2 JUMP JUMPDEST SWAP5 POP POP PUSH1 0x20 DUP6 ADD CALLDATALOAD PUSH1 0x1 PUSH1 0x1 PUSH1 0x40 SHL SUB DUP2 GT ISZERO PUSH2 0x21D1 JUMPI PUSH0 PUSH0 REVERT JUMPDEST PUSH2 0x21DD DUP8 DUP3 DUP9 ADD PUSH2 0x1EE2 JUMP JUMPDEST SWAP4 POP POP PUSH1 0x40 DUP6 ADD CALLDATALOAD PUSH1 0x1 PUSH1 0x1 PUSH1 0x40 SHL SUB DUP2 GT ISZERO PUSH2 0x21F8 JUMPI PUSH0 PUSH0 REVERT JUMPDEST PUSH2 0x2204 DUP8 DUP3 DUP9 ADD PUSH2 0x1EE2 JUMP JUMPDEST SWAP3 POP POP PUSH1 0x60 DUP6 ADD CALLDATALOAD PUSH2 0x2215 DUP2 PUSH2 0x2175 JUMP JUMPDEST SWAP4 SWAP7 SWAP3 SWAP6 POP SWAP1 SWAP4 POP POP JUMP JUMPDEST PUSH4 0x4E487B71 PUSH1 0xE0 SHL PUSH0 MSTORE PUSH1 0x11 PUSH1 0x4 MSTORE PUSH1 0x24 PUSH0 REVERT JUMPDEST PUSH0 PUSH1 0x1 DUP3 ADD PUSH2 0x2245 JUMPI PUSH2 0x2245 PUSH2 0x2220 JUMP JUMPDEST POP PUSH1 0x1 ADD SWAP1 JUMP JUMPDEST DUP1 DUP3 ADD DUP1 DUP3 GT ISZERO PUSH2 0x8D4 JUMPI PUSH2 0x8D4 PUSH2 0x2220 JUMP JUMPDEST PUSH4 0x4E487B71 PUSH1 0xE0 SHL PUSH0 MSTORE PUSH1 0x32 PUSH1 0x4 MSTORE PUSH1 0x24 PUSH0 REVERT JUMPDEST DUP2 DUP2 SUB DUP2 DUP2 GT ISZERO PUSH2 0x8D4 JUMPI PUSH2 0x8D4 PUSH2 0x2220 JUMP JUMPDEST PUSH0 PUSH1 0x20 DUP3 DUP5 SUB SLT ISZERO PUSH2 0x2296 JUMPI PUSH0 PUSH0 REVERT JUMPDEST DUP2 MLOAD PUSH2 0x1FF2 DUP2 PUSH2 0x1DF9 JUMP JUMPDEST PUSH0 PUSH1 0x20 DUP3 DUP5 SUB SLT ISZERO PUSH2 0x22B1 JUMPI PUSH0 PUSH0 REVERT JUMPDEST DUP2 MLOAD PUSH2 0x1FF2 DUP2 PUSH2 0x2175 JUMP JUMPDEST PUSH0 PUSH0 PUSH1 0x40 DUP4 DUP6 SUB SLT ISZERO PUSH2 0x22CD JUMPI PUSH0 PUSH0 REVERT JUMPDEST POP POP DUP1 MLOAD PUSH1 0x20 SWAP1 SWAP2 ADD MLOAD SWAP1 SWAP3 SWAP1 SWAP2 POP JUMP JUMPDEST PUSH0 PUSH1 0x20 DUP3 DUP5 SUB SLT ISZERO PUSH2 0x22EE JUMPI PUSH0 PUSH0 REVERT JUMPDEST POP MLOAD SWAP2 SWAP1 POP JUMP INVALID LOG2 PUSH5 0x6970667358 0x22 SLT KECCAK256 RJUMP 0x2524 0xBE TLOAD EXTCALL DUP5 0x24 0x4E EXP PUSH1 0xB0 CALLDATALOAD 0xA8 0x2C PUSH13 0x8DBD43A5E12B496988F58A8FAF ISZERO 0xB5 0xB3 PUSH5 0x736F6C6343 STOP ADDMOD 0x1F STOP CALLER PUSH1 0x80 PUSH1 0x40 MSTORE CALLVALUE DUP1 ISZERO PUSH1 0xE JUMPI PUSH0 PUSH0 REVERT JUMPDEST POP PUSH2 0x50EB DUP1 PUSH2 0x1C PUSH0 CODECOPY PUSH0 RETURN INVALID PUSH1 0x80 PUSH1 0x40 MSTORE CALLVALUE DUP1 ISZERO PUSH2 0xF JUMPI PUSH0 PUSH0 REVERT JUMPDEST POP PUSH1 0x4 CALLDATASIZE LT PUSH2 0xE5 JUMPI PUSH0 CALLDATALOAD PUSH1 0xE0 SHR DUP1 PUSH4 0x9600DC6A GT PUSH2 0x88 JUMPI DUP1 PUSH4 0xC7D20E6D GT PUSH2 0x63 JUMPI DUP1 PUSH4 0xC7D20E6D EQ PUSH2 0x277 JUMPI DUP1 PUSH4 0xD7984F18 EQ PUSH2 0x297 JUMPI DUP1 PUSH4 0xEA41D0D3 EQ PUSH2 0x2E8 JUMPI DUP1 PUSH4 0xF44A6CA9 EQ PUSH2 0x2FB JUMPI PUSH0 PUSH0 REVERT JUMPDEST DUP1 PUSH4 0x9600DC6A EQ PUSH2 0x20C JUMPI DUP1 PUSH4 0xA059DACF EQ PUSH2 0x22C JUMPI DUP1 PUSH4 0xA72D4F14 EQ PUSH2 0x264 JUMPI PUSH0 PUSH0 REVERT JUMPDEST DUP1 PUSH4 0x71147F30 GT PUSH2 0xC3 JUMPI DUP1 PUSH4 0x71147F30 EQ PUSH2 0x14F JUMPI DUP1 PUSH4 0x71CE3B84 EQ PUSH2 0x187 JUMPI DUP1 PUSH4 0x787B6725 EQ PUSH2 0x1C6 JUMPI DUP1 PUSH4 0x78F57364 EQ PUSH2 0x1D9 JUMPI PUSH0 PUSH0 REVERT JUMPDEST DUP1 PUSH4 0x50208EEE EQ PUSH2 0xE9 JUMPI DUP1 PUSH4 0x5A4BAB1E EQ PUSH2 0x10F JUMPI DUP1 PUSH4 0x6953CD0C EQ PUSH2 0x124 JUMPI JUMPDEST PUSH0 PUSH0 REVERT JUMPDEST PUSH2 0xFC PUSH2 0xF7 CALLDATASIZE PUSH1 0x4 PUSH2 0x12BE JUMP JUMPDEST PUSH2 0x30E JUMP JUMPDEST PUSH1 0x40 MLOAD SWAP1 DUP2 MSTORE PUSH1 0x20 ADD JUMPDEST PUSH1 0x40 MLOAD DUP1 SWAP2 SUB SWAP1 RETURN JUMPDEST PUSH2 0x122 PUSH2 0x11D CALLDATASIZE PUSH1 0x4 PUSH2 0x1346 JUMP JUMPDEST PUSH2 0x32D JUMP JUMPDEST STOP JUMPDEST PUSH2 0x137 PUSH2 0x132 CALLDATASIZE PUSH1 0x4 PUSH2 0x12BE JUMP JUMPDEST PUSH2 0x50B JUMP JUMPDEST PUSH1 0x40 MLOAD PUSH1 0x1 PUSH1 0x1 PUSH1 0xA0 SHL SUB SWAP1 SWAP2 AND DUP2 MSTORE PUSH1 0x20 ADD PUSH2 0x106 JUMP JUMPDEST PUSH2 0xFC PUSH2 0x15D CALLDATASIZE PUSH1 0x4 PUSH2 0x13F0 JUMP JUMPDEST PUSH1 0x1 PUSH1 0x1 PUSH1 0xA0 SHL SUB SWAP2 DUP3 AND PUSH0 SWAP1 DUP2 MSTORE PUSH1 0x5 PUSH1 0x20 SWAP1 DUP2 MSTORE PUSH1 0x40 DUP1 DUP4 KECCAK256 SWAP4 SWAP1 SWAP5 AND DUP3 MSTORE SWAP2 SWAP1 SWAP2 MSTORE KECCAK256 SLOAD SWAP1 JUMP JUMPDEST PUSH2 0xFC PUSH2 0x195 CALLDATASIZE PUSH1 0x4 PUSH2 0x1427 JUMP JUMPDEST PUSH1 0x1 PUSH1 0x1 PUSH1 0xA0 SHL SUB SWAP3 DUP4 AND PUSH0 SWAP1 DUP2 MSTORE PUSH1 0x3 PUSH1 0x20 SWAP1 DUP2 MSTORE PUSH1 0x40 DUP1 DUP4 KECCAK256 SWAP5 SWAP1 SWAP6 AND DUP3 MSTORE SWAP3 DUP4 MSTORE DUP4 DUP2 KECCAK256 SWAP2 DUP2 MSTORE SWAP2 MSTORE KECCAK256 SLOAD SWAP1 JUMP JUMPDEST PUSH2 0x122 PUSH2 0x1D4 CALLDATASIZE PUSH1 0x4 PUSH2 0x12BE JUMP JUMPDEST PUSH2 0x56C JUMP JUMPDEST PUSH2 0x137 PUSH2 0x1E7 CALLDATASIZE PUSH1 0x4 PUSH2 0x1465 JUMP JUMPDEST PUSH1 0x1 PUSH1 0x1 PUSH1 0xA0 SHL SUB SWAP2 DUP3 AND PUSH0 SWAP1 DUP2 MSTORE PUSH1 0x20 DUP2 DUP2 MSTORE PUSH1 0x40 DUP1 DUP4 KECCAK256 SWAP4 DUP4 MSTORE SWAP3 SWAP1 MSTORE KECCAK256 SLOAD AND SWAP1 JUMP JUMPDEST PUSH2 0x21F PUSH2 0x21A CALLDATASIZE PUSH1 0x4 PUSH2 0x14D6 JUMP JUMPDEST PUSH2 0x695 JUMP JUMPDEST PUSH1 0x40 MLOAD PUSH2 0x106 SWAP2 SWAP1 PUSH2 0x1536 JUMP JUMPDEST PUSH2 0xFC PUSH2 0x23A CALLDATASIZE PUSH1 0x4 PUSH2 0x13F0 JUMP JUMPDEST PUSH1 0x1 PUSH1 0x1 PUSH1 0xA0 SHL SUB SWAP2 DUP3 AND PUSH0 SWAP1 DUP2 MSTORE PUSH1 0x1 PUSH1 0x20 SWAP1 DUP2 MSTORE PUSH1 0x40 DUP1 DUP4 KECCAK256 SWAP4 SWAP1 SWAP5 AND DUP3 MSTORE SWAP2 SWAP1 SWAP2 MSTORE KECCAK256 SLOAD SWAP1 JUMP JUMPDEST PUSH2 0x122 PUSH2 0x272 CALLDATASIZE PUSH1 0x4 PUSH2 0x1346 JUMP JUMPDEST PUSH2 0x76B JUMP JUMPDEST PUSH2 0x28A PUSH2 0x285 CALLDATASIZE PUSH1 0x4 PUSH2 0x1578 JUMP JUMPDEST PUSH2 0xA5D JUMP JUMPDEST PUSH1 0x40 MLOAD PUSH2 0x106 SWAP2 SWAP1 PUSH2 0x15C8 JUMP JUMPDEST PUSH2 0x2D8 PUSH2 0x2A5 CALLDATASIZE PUSH1 0x4 PUSH2 0x1427 JUMP JUMPDEST PUSH1 0x1 PUSH1 0x1 PUSH1 0xA0 SHL SUB SWAP3 DUP4 AND PUSH0 SWAP1 DUP2 MSTORE PUSH1 0x4 PUSH1 0x20 SWAP1 DUP2 MSTORE PUSH1 0x40 DUP1 DUP4 KECCAK256 SWAP5 SWAP1 SWAP6 AND DUP3 MSTORE SWAP3 DUP4 MSTORE DUP4 DUP2 KECCAK256 SWAP2 DUP2 MSTORE SWAP2 MSTORE KECCAK256 SLOAD ISZERO ISZERO SWAP1 JUMP JUMPDEST PUSH1 0x40 MLOAD SWAP1 ISZERO ISZERO DUP2 MSTORE PUSH1 0x20 ADD PUSH2 0x106 JUMP JUMPDEST PUSH2 0x122 PUSH2 0x2F6 CALLDATASIZE PUSH1 0x4 PUSH2 0x1679 JUMP JUMPDEST PUSH2 0xB35 JUMP JUMPDEST PUSH2 0x122 PUSH2 0x309 CALLDATASIZE PUSH1 0x4 PUSH2 0x12BE JUMP JUMPDEST PUSH2 0xCA1 JUMP JUMPDEST PUSH1 0x1 PUSH1 0x1 PUSH1 0xA0 SHL SUB DUP2 AND PUSH0 SWAP1 DUP2 MSTORE PUSH1 0x2 PUSH1 0x20 MSTORE PUSH1 0x40 DUP2 KECCAK256 SLOAD JUMPDEST SWAP3 SWAP2 POP POP JUMP JUMPDEST PUSH0 JUMPDEST DUP2 MLOAD DUP2 LT ISZERO PUSH2 0x4BB JUMPI CALLER PUSH1 0x1 PUSH1 0x1 PUSH1 0xA0 SHL SUB AND DUP4 PUSH1 0x1 PUSH1 0x1 PUSH1 0xA0 SHL SUB AND PUSH4 0x217B2270 DUP5 DUP5 DUP2 MLOAD DUP2 LT PUSH2 0x363 JUMPI PUSH2 0x363 PUSH2 0x17A4 JUMP JUMPDEST PUSH1 0x20 MUL PUSH1 0x20 ADD ADD MLOAD PUSH1 0x40 MLOAD DUP3 PUSH4 0xFFFFFFFF AND PUSH1 0xE0 SHL DUP2 MSTORE PUSH1 0x4 ADD PUSH2 0x389 SWAP2 DUP2 MSTORE PUSH1 0x20 ADD SWAP1 JUMP JUMPDEST PUSH1 0x20 PUSH1 0x40 MLOAD DUP1 DUP4 SUB DUP2 DUP7 GAS STATICCALL ISZERO DUP1 ISZERO PUSH2 0x3A4 JUMPI RETURNDATASIZE PUSH0 PUSH0 RETURNDATACOPY RETURNDATASIZE PUSH0 REVERT JUMPDEST POP POP POP POP PUSH1 0x40 MLOAD RETURNDATASIZE PUSH1 0x1F NOT PUSH1 0x1F DUP3 ADD AND DUP3 ADD DUP1 PUSH1 0x40 MSTORE POP DUP2 ADD SWAP1 PUSH2 0x3C8 SWAP2 SWAP1 PUSH2 0x17B8 JUMP JUMPDEST PUSH1 0x1 PUSH1 0x1 PUSH1 0xA0 SHL SUB AND EQ PUSH2 0x3F7 JUMPI PUSH1 0x40 MLOAD PUSH3 0x461BCD PUSH1 0xE5 SHL DUP2 MSTORE PUSH1 0x4 ADD PUSH2 0x3EE SWAP1 PUSH2 0x17D3 JUMP JUMPDEST PUSH1 0x40 MLOAD DUP1 SWAP2 SUB SWAP1 REVERT JUMPDEST CALLER PUSH0 SWAP1 DUP2 MSTORE PUSH1 0x4 PUSH1 0x20 SWAP1 DUP2 MSTORE PUSH1 0x40 DUP1 DUP4 KECCAK256 PUSH1 0x1 PUSH1 0x1 PUSH1 0xA0 SHL SUB DUP8 AND DUP5 MSTORE SWAP1 SWAP2 MSTORE DUP2 KECCAK256 DUP4 MLOAD SWAP1 SWAP2 SWAP1 DUP5 SWAP1 DUP5 SWAP1 DUP2 LT PUSH2 0x430 JUMPI PUSH2 0x430 PUSH2 0x17A4 JUMP JUMPDEST PUSH1 0x20 MUL PUSH1 0x20 ADD ADD MLOAD DUP2 MSTORE PUSH1 0x20 ADD SWAP1 DUP2 MSTORE PUSH1 0x20 ADD PUSH0 KECCAK256 SLOAD PUSH0 SUB PUSH2 0x48F JUMPI PUSH1 0x40 MLOAD PUSH3 0x461BCD PUSH1 0xE5 SHL DUP2 MSTORE PUSH1 0x20 PUSH1 0x4 DUP3 ADD MSTORE PUSH1 0x18 PUSH1 0x24 DUP3 ADD MSTORE PUSH24 0x141C9BD91D58DD081A5D195B481B9BDD08195E1A5CDD1959 PUSH1 0x42 SHL PUSH1 0x44 DUP3 ADD MSTORE PUSH1 0x64 ADD PUSH2 0x3EE JUMP JUMPDEST PUSH2 0x4B3 CALLER DUP5 DUP5 DUP5 DUP2 MLOAD DUP2 LT PUSH2 0x4A6 JUMPI PUSH2 0x4A6 PUSH2 0x17A4 JUMP JUMPDEST PUSH1 0x20 MUL PUSH1 0x20 ADD ADD MLOAD PUSH2 0xF82 JUMP JUMPDEST PUSH1 0x1 ADD PUSH2 0x32F JUMP JUMPDEST POP DUP2 PUSH1 0x1 PUSH1 0x1 PUSH1 0xA0 SHL SUB AND CALLER PUSH1 0x1 PUSH1 0x1 PUSH1 0xA0 SHL SUB AND PUSH32 0x5DD0513838172C91104588A7A843DDD5D464408798BE617AEFE92DFFD6E05A7A DUP4 PUSH1 0x40 MLOAD PUSH2 0x4FF SWAP2 SWAP1 PUSH2 0x1536 JUMP JUMPDEST PUSH1 0x40 MLOAD DUP1 SWAP2 SUB SWAP1 LOG3 POP POP JUMP JUMPDEST PUSH0 DUP2 PUSH1 0x1 PUSH1 0x1 PUSH1 0xA0 SHL SUB AND PUSH4 0x8DA5CB5B PUSH1 0x40 MLOAD DUP2 PUSH4 0xFFFFFFFF AND PUSH1 0xE0 SHL DUP2 MSTORE PUSH1 0x4 ADD PUSH1 0x20 PUSH1 0x40 MLOAD DUP1 DUP4 SUB DUP2 DUP7 GAS STATICCALL ISZERO DUP1 ISZERO PUSH2 0x548 JUMPI RETURNDATASIZE PUSH0 PUSH0 RETURNDATACOPY RETURNDATASIZE PUSH0 REVERT JUMPDEST POP POP POP POP PUSH1 0x40 MLOAD RETURNDATASIZE PUSH1 0x1F NOT PUSH1 0x1F DUP3 ADD AND DUP3 ADD DUP1 PUSH1 0x40 MSTORE POP DUP2 ADD SWAP1 PUSH2 0x327 SWAP2 SWAP1 PUSH2 0x17B8 JUMP JUMPDEST CALLER PUSH0 SWAP1 DUP2 MSTORE PUSH1 0x1 PUSH1 0x20 SWAP1 DUP2 MSTORE PUSH1 0x40 DUP1 DUP4 KECCAK256 PUSH1 0x1 PUSH1 0x1 PUSH1 0xA0 SHL SUB DUP6 AND DUP5 MSTORE SWAP1 SWAP2 MSTORE DUP2 KECCAK256 SLOAD SWAP1 SUB PUSH2 0x5D3 JUMPI PUSH1 0x40 MLOAD PUSH3 0x461BCD PUSH1 0xE5 SHL DUP2 MSTORE PUSH1 0x20 PUSH1 0x4 DUP3 ADD MSTORE PUSH1 0x13 PUSH1 0x24 DUP3 ADD MSTORE PUSH19 0x141C9BD91D58DD081B9BDD08195E1A5CDD1959 PUSH1 0x6A SHL PUSH1 0x44 DUP3 ADD MSTORE PUSH1 0x64 ADD PUSH2 0x3EE JUMP JUMPDEST CALLER PUSH0 SWAP1 DUP2 MSTORE PUSH1 0x5 PUSH1 0x20 SWAP1 DUP2 MSTORE PUSH1 0x40 DUP1 DUP4 KECCAK256 PUSH1 0x1 PUSH1 0x1 PUSH1 0xA0 SHL SUB DUP6 AND DUP5 MSTORE SWAP1 SWAP2 MSTORE DUP2 KECCAK256 SLOAD SWAP1 JUMPDEST DUP2 DUP2 LT ISZERO PUSH2 0x651 JUMPI CALLER PUSH0 SWAP1 DUP2 MSTORE PUSH1 0x3 PUSH1 0x20 SWAP1 DUP2 MSTORE PUSH1 0x40 DUP1 DUP4 KECCAK256 PUSH1 0x1 PUSH1 0x1 PUSH1 0xA0 SHL SUB DUP8 AND DUP5 MSTORE SWAP1 SWAP2 MSTORE DUP2 KECCAK256 DUP2 PUSH2 0x62D DUP5 DUP7 PUSH2 0x1801 JUMP JUMPDEST DUP2 MSTORE PUSH1 0x20 ADD SWAP1 DUP2 MSTORE PUSH1 0x20 ADD PUSH0 KECCAK256 SLOAD SWAP1 POP PUSH2 0x648 CALLER DUP6 DUP4 PUSH2 0xF82 JUMP JUMPDEST POP PUSH1 0x1 ADD PUSH2 0x5F8 JUMP JUMPDEST POP PUSH2 0x65C CALLER DUP4 PUSH2 0x10F2 JUMP JUMPDEST PUSH1 0x40 MLOAD PUSH1 0x1 PUSH1 0x1 PUSH1 0xA0 SHL SUB DUP4 AND SWAP1 CALLER SWAP1 PUSH32 0x1F563CFDE48C6AF6C5237960AC71EC6B3685FC47D01CD804010616BF89CC81D3 SWAP1 PUSH0 SWAP1 LOG3 POP POP JUMP JUMPDEST PUSH1 0x60 DUP2 PUSH0 DUP2 PUSH1 0x1 PUSH1 0x1 PUSH1 0x40 SHL SUB DUP2 GT ISZERO PUSH2 0x6B1 JUMPI PUSH2 0x6B1 PUSH2 0x12E0 JUMP JUMPDEST PUSH1 0x40 MLOAD SWAP1 DUP1 DUP3 MSTORE DUP1 PUSH1 0x20 MUL PUSH1 0x20 ADD DUP3 ADD PUSH1 0x40 MSTORE DUP1 ISZERO PUSH2 0x6DA JUMPI DUP2 PUSH1 0x20 ADD PUSH1 0x20 DUP3 MUL DUP1 CALLDATASIZE DUP4 CALLDATACOPY ADD SWAP1 POP JUMPDEST POP SWAP1 POP PUSH0 JUMPDEST DUP3 DUP2 LT ISZERO PUSH2 0x760 JUMPI PUSH0 DUP7 DUP7 DUP4 DUP2 DUP2 LT PUSH2 0x6FA JUMPI PUSH2 0x6FA PUSH2 0x17A4 JUMP JUMPDEST PUSH1 0x1 PUSH1 0x1 PUSH1 0xA0 SHL SUB DUP1 DUP14 AND PUSH0 SWAP1 DUP2 MSTORE PUSH1 0x3 PUSH1 0x20 SWAP1 DUP2 MSTORE PUSH1 0x40 DUP1 DUP4 KECCAK256 SWAP4 DUP16 AND DUP4 MSTORE SWAP3 DUP2 MSTORE DUP3 DUP3 KECCAK256 SWAP4 DUP2 MUL SWAP6 SWAP1 SWAP6 ADD CALLDATALOAD DUP1 DUP3 MSTORE SWAP3 SWAP1 SWAP5 MSTORE SWAP1 SWAP3 KECCAK256 SLOAD DUP6 MLOAD SWAP3 SWAP4 POP SWAP2 DUP6 SWAP2 POP DUP5 SWAP1 DUP2 LT PUSH2 0x74C JUMPI PUSH2 0x74C PUSH2 0x17A4 JUMP JUMPDEST PUSH1 0x20 SWAP1 DUP2 MUL SWAP2 SWAP1 SWAP2 ADD ADD MSTORE POP PUSH1 0x1 ADD PUSH2 0x6DF JUMP JUMPDEST POP SWAP7 SWAP6 POP POP POP POP POP POP JUMP JUMPDEST CALLER PUSH1 0x1 PUSH1 0x1 PUSH1 0xA0 SHL SUB AND DUP3 PUSH1 0x1 PUSH1 0x1 PUSH1 0xA0 SHL SUB AND PUSH4 0x8DA5CB5B PUSH1 0x40 MLOAD DUP2 PUSH4 0xFFFFFFFF AND PUSH1 0xE0 SHL DUP2 MSTORE PUSH1 0x4 ADD PUSH1 0x20 PUSH1 0x40 MLOAD DUP1 DUP4 SUB DUP2 DUP7 GAS STATICCALL ISZERO DUP1 ISZERO PUSH2 0x7B1 JUMPI RETURNDATASIZE PUSH0 PUSH0 RETURNDATACOPY RETURNDATASIZE PUSH0 REVERT JUMPDEST POP POP POP POP PUSH1 0x40 MLOAD RETURNDATASIZE PUSH1 0x1F NOT PUSH1 0x1F DUP3 ADD AND DUP3 ADD DUP1 PUSH1 0x40 MSTORE POP DUP2 ADD SWAP1 PUSH2 0x7D5 SWAP2 SWAP1 PUSH2 0x17B8 JUMP JUMPDEST PUSH1 0x1 PUSH1 0x1 PUSH1 0xA0 SHL SUB AND EQ PUSH2 0x7FB JUMPI PUSH1 0x40 MLOAD PUSH3 0x461BCD PUSH1 0xE5 SHL DUP2 MSTORE PUSH1 0x4 ADD PUSH2 0x3EE SWAP1 PUSH2 0x17D3 JUMP JUMPDEST CALLER PUSH0 SWAP1 DUP2 MSTORE PUSH1 0x1 PUSH1 0x20 SWAP1 DUP2 MSTORE PUSH1 0x40 DUP1 DUP4 KECCAK256 PUSH1 0x1 PUSH1 0x1 PUSH1 0xA0 SHL SUB DUP7 AND DUP5 MSTORE SWAP1 SWAP2 MSTORE DUP2 KECCAK256 SLOAD SWAP1 SUB PUSH2 0x82E JUMPI PUSH2 0x82E CALLER DUP4 PUSH2 0x11E4 JUMP JUMPDEST PUSH0 JUMPDEST DUP2 MLOAD DUP2 LT ISZERO PUSH2 0xA19 JUMPI CALLER PUSH1 0x1 PUSH1 0x1 PUSH1 0xA0 SHL SUB AND DUP4 PUSH1 0x1 PUSH1 0x1 PUSH1 0xA0 SHL SUB AND PUSH4 0x217B2270 DUP5 DUP5 DUP2 MLOAD DUP2 LT PUSH2 0x864 JUMPI PUSH2 0x864 PUSH2 0x17A4 JUMP JUMPDEST PUSH1 0x20 MUL PUSH1 0x20 ADD ADD MLOAD PUSH1 0x40 MLOAD DUP3 PUSH4 0xFFFFFFFF AND PUSH1 0xE0 SHL DUP2 MSTORE PUSH1 0x4 ADD PUSH2 0x88A SWAP2 DUP2 MSTORE PUSH1 0x20 ADD SWAP1 JUMP JUMPDEST PUSH1 0x20 PUSH1 0x40 MLOAD DUP1 DUP4 SUB DUP2 DUP7 GAS STATICCALL ISZERO DUP1 ISZERO PUSH2 0x8A5 JUMPI RETURNDATASIZE PUSH0 PUSH0 RETURNDATACOPY RETURNDATASIZE PUSH0 REVERT JUMPDEST POP POP POP POP PUSH1 0x40 MLOAD RETURNDATASIZE PUSH1 0x1F NOT PUSH1 0x1F DUP3 ADD AND DUP3 ADD DUP1 PUSH1 0x40 MSTORE POP DUP2 ADD SWAP1 PUSH2 0x8C9 SWAP2 SWAP1 PUSH2 0x17B8 JUMP JUMPDEST PUSH1 0x1 PUSH1 0x1 PUSH1 0xA0 SHL SUB AND EQ PUSH2 0x8EF JUMPI PUSH1 0x40 MLOAD PUSH3 0x461BCD PUSH1 0xE5 SHL DUP2 MSTORE PUSH1 0x4 ADD PUSH2 0x3EE SWAP1 PUSH2 0x17D3 JUMP JUMPDEST CALLER PUSH0 SWAP1 DUP2 MSTORE PUSH1 0x4 PUSH1 0x20 SWAP1 DUP2 MSTORE PUSH1 0x40 DUP1 DUP4 KECCAK256 PUSH1 0x1 PUSH1 0x1 PUSH1 0xA0 SHL SUB DUP8 AND DUP5 MSTORE SWAP1 SWAP2 MSTORE DUP2 KECCAK256 DUP4 MLOAD SWAP1 SWAP2 SWAP1 DUP5 SWAP1 DUP5 SWAP1 DUP2 LT PUSH2 0x928 JUMPI PUSH2 0x928 PUSH2 0x17A4 JUMP JUMPDEST PUSH1 0x20 MUL PUSH1 0x20 ADD ADD MLOAD DUP2 MSTORE PUSH1 0x20 ADD SWAP1 DUP2 MSTORE PUSH1 0x20 ADD PUSH0 KECCAK256 SLOAD PUSH0 EQ PUSH2 0x983 JUMPI PUSH1 0x40 MLOAD PUSH3 0x461BCD PUSH1 0xE5 SHL DUP2 MSTORE PUSH1 0x20 PUSH1 0x4 DUP3 ADD MSTORE PUSH1 0x14 PUSH1 0x24 DUP3 ADD MSTORE PUSH20 0x141C9BD91D58DD081A5D195B48195E1A5CDD1959 PUSH1 0x62 SHL PUSH1 0x44 DUP3 ADD MSTORE PUSH1 0x64 ADD PUSH2 0x3EE JUMP JUMPDEST PUSH2 0xA11 CALLER DUP5 DUP5 DUP5 DUP2 MLOAD DUP2 LT PUSH2 0x99A JUMPI PUSH2 0x99A PUSH2 0x17A4 JUMP JUMPDEST PUSH1 0x20 MUL PUSH1 0x20 ADD ADD MLOAD PUSH1 0x1 PUSH1 0x1 PUSH1 0xA0 SHL SUB SWAP3 DUP4 AND PUSH0 DUP2 DUP2 MSTORE PUSH1 0x5 PUSH1 0x20 SWAP1 DUP2 MSTORE PUSH1 0x40 DUP1 DUP4 KECCAK256 SWAP6 SWAP1 SWAP7 AND DUP1 DUP4 MSTORE SWAP5 DUP2 MSTORE DUP6 DUP3 KECCAK256 DUP1 SLOAD PUSH1 0x1 ADD SWAP1 DUP2 SWAP1 SSTORE DUP4 DUP4 MSTORE PUSH1 0x3 DUP3 MSTORE DUP7 DUP4 KECCAK256 DUP7 DUP5 MSTORE DUP3 MSTORE DUP7 DUP4 KECCAK256 DUP2 DUP5 MSTORE DUP3 MSTORE DUP7 DUP4 KECCAK256 DUP6 SWAP1 SSTORE SWAP3 DUP3 MSTORE PUSH1 0x4 DUP2 MSTORE DUP6 DUP3 KECCAK256 SWAP5 DUP3 MSTORE SWAP4 DUP5 MSTORE DUP5 DUP2 KECCAK256 SWAP3 DUP2 MSTORE SWAP2 SWAP1 SWAP3 MSTORE SWAP2 SWAP1 SWAP2 KECCAK256 SSTORE JUMP JUMPDEST PUSH1 0x1 ADD PUSH2 0x830 JUMP JUMPDEST POP DUP2 PUSH1 0x1 PUSH1 0x1 PUSH1 0xA0 SHL SUB AND CALLER PUSH1 0x1 PUSH1 0x1 PUSH1 0xA0 SHL SUB AND PUSH32 0x1B02E58E38E2E9D085A20797F222AE215D992079E3561CC8ED4663633EBE7893 DUP4 PUSH1 0x40 MLOAD PUSH2 0x4FF SWAP2 SWAP1 PUSH2 0x1536 JUMP JUMPDEST PUSH1 0x60 DUP2 PUSH0 DUP2 PUSH1 0x1 PUSH1 0x1 PUSH1 0x40 SHL SUB DUP2 GT ISZERO PUSH2 0xA79 JUMPI PUSH2 0xA79 PUSH2 0x12E0 JUMP JUMPDEST PUSH1 0x40 MLOAD SWAP1 DUP1 DUP3 MSTORE DUP1 PUSH1 0x20 MUL PUSH1 0x20 ADD DUP3 ADD PUSH1 0x40 MSTORE DUP1 ISZERO PUSH2 0xAA2 JUMPI DUP2 PUSH1 0x20 ADD PUSH1 0x20 DUP3 MUL DUP1 CALLDATASIZE DUP4 CALLDATACOPY ADD SWAP1 POP JUMPDEST POP SWAP1 POP PUSH0 JUMPDEST DUP3 DUP2 LT ISZERO PUSH2 0xB2B JUMPI PUSH0 DUP7 DUP7 DUP4 DUP2 DUP2 LT PUSH2 0xAC2 JUMPI PUSH2 0xAC2 PUSH2 0x17A4 JUMP JUMPDEST PUSH1 0x1 PUSH1 0x1 PUSH1 0xA0 SHL SUB DUP1 DUP13 AND PUSH0 SWAP1 DUP2 MSTORE PUSH1 0x20 DUP2 DUP2 MSTORE PUSH1 0x40 DUP1 DUP4 KECCAK256 SWAP5 DUP3 MUL SWAP7 SWAP1 SWAP7 ADD CALLDATALOAD DUP1 DUP4 MSTORE SWAP4 SWAP1 MSTORE SWAP4 SWAP1 SWAP4 KECCAK256 SLOAD DUP7 MLOAD SWAP2 SWAP5 POP SWAP1 SWAP3 AND SWAP2 DUP6 SWAP2 POP DUP5 SWAP1 DUP2 LT PUSH2 0xB0A JUMPI PUSH2 0xB0A PUSH2 0x17A4 JUMP JUMPDEST PUSH1 0x1 PUSH1 0x1 PUSH1 0xA0 SHL SUB SWAP1 SWAP3 AND PUSH1 0x20 SWAP3 DUP4 MUL SWAP2 SWAP1 SWAP2 ADD SWAP1 SWAP2 ADD MSTORE POP PUSH1 0x1 ADD PUSH2 0xAA7 JUMP JUMPDEST POP SWAP6 SWAP5 POP POP POP POP POP JUMP JUMPDEST PUSH0 DUP5 DUP5 CALLER DUP6 DUP6 PUSH1 0x40 MLOAD PUSH2 0xB47 SWAP1 PUSH2 0x129A JUMP JUMPDEST PUSH2 0xB55 SWAP6 SWAP5 SWAP4 SWAP3 SWAP2 SWAP1 PUSH2 0x184E JUMP JUMPDEST PUSH1 0x40 MLOAD DUP1 SWAP2 SUB SWAP1 PUSH0 CREATE DUP1 ISZERO DUP1 ISZERO PUSH2 0xB6E JUMPI RETURNDATASIZE PUSH0 PUSH0 RETURNDATACOPY RETURNDATASIZE PUSH0 REVERT JUMPDEST POP CALLER PUSH0 DUP2 DUP2 MSTORE PUSH1 0x2 PUSH1 0x20 SWAP1 DUP2 MSTORE PUSH1 0x40 DUP1 DUP4 KECCAK256 DUP1 SLOAD PUSH1 0x1 SWAP1 DUP2 ADD SWAP2 DUP3 SWAP1 SSTORE DUP5 DUP5 MSTORE DUP3 DUP6 KECCAK256 DUP3 DUP7 MSTORE DUP5 MSTORE DUP3 DUP6 KECCAK256 DUP1 SLOAD PUSH1 0x1 PUSH1 0x1 PUSH1 0xA0 SHL SUB NOT AND PUSH1 0x1 PUSH1 0x1 PUSH1 0xA0 SHL SUB DUP10 AND SWAP1 DUP2 OR SWAP1 SWAP2 SSTORE DUP7 DUP7 MSTORE SWAP1 DUP5 MSTORE DUP3 DUP6 KECCAK256 DUP2 DUP7 MSTORE SWAP1 SWAP4 MSTORE DUP2 DUP5 KECCAK256 DUP2 SWAP1 SSTORE DUP2 MLOAD PUSH4 0x51D930F9 PUSH1 0xE1 SHL DUP2 MSTORE PUSH1 0x4 DUP2 ADD SWAP6 SWAP1 SWAP6 MSTORE SWAP1 MLOAD SWAP5 SWAP6 POP DUP6 SWAP5 SWAP1 SWAP4 PUSH4 0xA3B261F2 SWAP2 PUSH1 0x24 DUP1 DUP4 ADD SWAP3 DUP7 SWAP3 SWAP2 SWAP1 DUP3 SWAP1 SUB ADD DUP2 DUP7 GAS STATICCALL ISZERO DUP1 ISZERO PUSH2 0xC0E JUMPI RETURNDATASIZE PUSH0 PUSH0 RETURNDATACOPY RETURNDATASIZE PUSH0 REVERT JUMPDEST POP POP POP POP PUSH1 0x40 MLOAD RETURNDATASIZE PUSH0 DUP3 RETURNDATACOPY PUSH1 0x1F RETURNDATASIZE SWAP1 DUP2 ADD PUSH1 0x1F NOT AND DUP3 ADD PUSH1 0x40 MSTORE PUSH2 0xC35 SWAP2 SWAP1 DUP2 ADD SWAP1 PUSH2 0x18FD JUMP JUMPDEST SWAP1 POP PUSH0 JUMPDEST DUP2 MLOAD DUP2 LT ISZERO PUSH2 0xC61 JUMPI PUSH2 0xC59 CALLER DUP6 DUP5 DUP5 DUP2 MLOAD DUP2 LT PUSH2 0x99A JUMPI PUSH2 0x99A PUSH2 0x17A4 JUMP JUMPDEST PUSH1 0x1 ADD PUSH2 0xC39 JUMP JUMPDEST POP PUSH1 0x40 MLOAD PUSH1 0x1 PUSH1 0x1 PUSH1 0xA0 SHL SUB DUP5 AND SWAP1 CALLER SWAP1 PUSH32 0xA66DF2AC9413442073C2E47B33E555F5891823DF7841196BD1F197175A12F8AE SWAP1 PUSH0 SWAP1 LOG3 POP POP POP POP POP POP POP POP JUMP JUMPDEST PUSH1 0x1 PUSH1 0x1 PUSH1 0xA0 SHL SUB DUP2 AND PUSH2 0xCF7 JUMPI PUSH1 0x40 MLOAD PUSH3 0x461BCD PUSH1 0xE5 SHL DUP2 MSTORE PUSH1 0x20 PUSH1 0x4 DUP3 ADD MSTORE PUSH1 0x17 PUSH1 0x24 DUP3 ADD MSTORE PUSH32 0x496E76616C69642070726F647563742061646472657373000000000000000000 PUSH1 0x44 DUP3 ADD MSTORE PUSH1 0x64 ADD PUSH2 0x3EE JUMP JUMPDEST CALLER PUSH1 0x1 PUSH1 0x1 PUSH1 0xA0 SHL SUB AND DUP2 PUSH1 0x1 PUSH1 0x1 PUSH1 0xA0 SHL SUB AND PUSH4 0x8DA5CB5B PUSH1 0x40 MLOAD DUP2 PUSH4 0xFFFFFFFF AND PUSH1 0xE0 SHL DUP2 MSTORE PUSH1 0x4 ADD PUSH1 0x20 PUSH1 0x40 MLOAD DUP1 DUP4 SUB DUP2 DUP7 GAS STATICCALL ISZERO DUP1 ISZERO PUSH2 0xD3D JUMPI RETURNDATASIZE PUSH0 PUSH0 RETURNDATACOPY RETURNDATASIZE PUSH0 REVERT JUMPDEST POP POP POP POP PUSH1 0x40 MLOAD RETURNDATASIZE PUSH1 0x1F NOT PUSH1 0x1F DUP3 ADD AND DUP3 ADD DUP1 PUSH1 0x40 MSTORE POP DUP2 ADD SWAP1 PUSH2 0xD61 SWAP2 SWAP1 PUSH2 0x17B8 JUMP JUMPDEST PUSH1 0x1 PUSH1 0x1 PUSH1 0xA0 SHL SUB AND EQ PUSH2 0xDAB JUMPI PUSH1 0x40 MLOAD PUSH3 0x461BCD PUSH1 0xE5 SHL DUP2 MSTORE PUSH1 0x20 PUSH1 0x4 DUP3 ADD MSTORE PUSH1 0x11 PUSH1 0x24 DUP3 ADD MSTORE PUSH17 0x2737BA10383937B23AB1BA1037BBB732B9 PUSH1 0x79 SHL PUSH1 0x44 DUP3 ADD MSTORE PUSH1 0x64 ADD PUSH2 0x3EE JUMP JUMPDEST CALLER PUSH0 SWAP1 DUP2 MSTORE PUSH1 0x1 PUSH1 0x20 SWAP1 DUP2 MSTORE PUSH1 0x40 DUP1 DUP4 KECCAK256 PUSH1 0x1 PUSH1 0x1 PUSH1 0xA0 SHL SUB DUP6 AND DUP5 MSTORE SWAP1 SWAP2 MSTORE SWAP1 KECCAK256 SLOAD ISZERO PUSH2 0xE14 JUMPI PUSH1 0x40 MLOAD PUSH3 0x461BCD PUSH1 0xE5 SHL DUP2 MSTORE PUSH1 0x20 PUSH1 0x4 DUP3 ADD MSTORE PUSH1 0x16 PUSH1 0x24 DUP3 ADD MSTORE PUSH22 0x50726F6475637420616C726561647920657869737473 PUSH1 0x50 SHL PUSH1 0x44 DUP3 ADD MSTORE PUSH1 0x64 ADD PUSH2 0x3EE JUMP JUMPDEST PUSH2 0xE1E CALLER DUP3 PUSH2 0x11E4 JUMP JUMPDEST PUSH1 0x40 MLOAD PUSH4 0x51D930F9 PUSH1 0xE1 SHL DUP2 MSTORE CALLER PUSH1 0x4 DUP3 ADD MSTORE PUSH0 SWAP1 PUSH1 0x1 PUSH1 0x1 PUSH1 0xA0 SHL SUB DUP4 AND SWAP1 PUSH4 0xA3B261F2 SWAP1 PUSH1 0x24 ADD PUSH0 PUSH1 0x40 MLOAD DUP1 DUP4 SUB DUP2 DUP7 GAS STATICCALL ISZERO DUP1 ISZERO PUSH2 0xE61 JUMPI RETURNDATASIZE PUSH0 PUSH0 RETURNDATACOPY RETURNDATASIZE PUSH0 REVERT JUMPDEST POP POP POP POP PUSH1 0x40 MLOAD RETURNDATASIZE PUSH0 DUP3 RETURNDATACOPY PUSH1 0x1F RETURNDATASIZE SWAP1 DUP2 ADD PUSH1 0x1F NOT AND DUP3 ADD PUSH1 0x40 MSTORE PUSH2 0xE88 SWAP2 SWAP1 DUP2 ADD SWAP1 PUSH2 0x18FD JUMP JUMPDEST SWAP1 POP PUSH0 JUMPDEST DUP2 MLOAD DUP2 LT ISZERO PUSH2 0xF48 JUMPI CALLER PUSH0 SWAP1 DUP2 MSTORE PUSH1 0x4 PUSH1 0x20 SWAP1 DUP2 MSTORE PUSH1 0x40 DUP1 DUP4 KECCAK256 PUSH1 0x1 PUSH1 0x1 PUSH1 0xA0 SHL SUB DUP8 AND DUP5 MSTORE SWAP1 SWAP2 MSTORE DUP2 KECCAK256 DUP4 MLOAD SWAP1 SWAP2 SWAP1 DUP5 SWAP1 DUP5 SWAP1 DUP2 LT PUSH2 0xECE JUMPI PUSH2 0xECE PUSH2 0x17A4 JUMP JUMPDEST PUSH1 0x20 MUL PUSH1 0x20 ADD ADD MLOAD DUP2 MSTORE PUSH1 0x20 ADD SWAP1 DUP2 MSTORE PUSH1 0x20 ADD PUSH0 KECCAK256 SLOAD PUSH0 EQ PUSH2 0xF29 JUMPI PUSH1 0x40 MLOAD PUSH3 0x461BCD PUSH1 0xE5 SHL DUP2 MSTORE PUSH1 0x20 PUSH1 0x4 DUP3 ADD MSTORE PUSH1 0x14 PUSH1 0x24 DUP3 ADD MSTORE PUSH20 0x141C9BD91D58DD081A5D195B48195E1A5CDD1959 PUSH1 0x62 SHL PUSH1 0x44 DUP3 ADD MSTORE PUSH1 0x64 ADD PUSH2 0x3EE JUMP JUMPDEST PUSH2 0xF40 CALLER DUP5 DUP5 DUP5 DUP2 MLOAD DUP2 LT PUSH2 0x99A JUMPI PUSH2 0x99A PUSH2 0x17A4 JUMP JUMPDEST PUSH1 0x1 ADD PUSH2 0xE8C JUMP JUMPDEST POP PUSH1 0x40 MLOAD PUSH1 0x1 PUSH1 0x1 PUSH1 0xA0 SHL SUB DUP4 AND SWAP1 CALLER SWAP1 PUSH32 0x9BFD933C51E5F8ADE721377912FF42184BF89D04AF3E363E86355DEC1733B0B5 SWAP1 PUSH0 SWAP1 LOG3 POP POP JUMP JUMPDEST PUSH1 0x1 PUSH1 0x1 PUSH1 0xA0 SHL SUB DUP1 DUP5 AND PUSH0 SWAP1 DUP2 MSTORE PUSH1 0x4 PUSH1 0x20 SWAP1 DUP2 MSTORE PUSH1 0x40 DUP1 DUP4 KECCAK256 SWAP4 DUP7 AND DUP4 MSTORE SWAP3 DUP2 MSTORE DUP3 DUP3 KECCAK256 DUP5 DUP4 MSTORE SWAP1 MSTORE SWAP1 DUP2 KECCAK256 SLOAD SWAP1 DUP2 SWAP1 SUB PUSH2 0xFFC JUMPI PUSH1 0x40 MLOAD PUSH3 0x461BCD PUSH1 0xE5 SHL DUP2 MSTORE PUSH1 0x20 PUSH1 0x4 DUP3 ADD MSTORE PUSH1 0x18 PUSH1 0x24 DUP3 ADD MSTORE PUSH24 0x141C9BD91D58DD081A5D195B481B9BDD08195E1A5CDD1959 PUSH1 0x42 SHL PUSH1 0x44 DUP3 ADD MSTORE PUSH1 0x64 ADD PUSH2 0x3EE JUMP JUMPDEST PUSH1 0x1 PUSH1 0x1 PUSH1 0xA0 SHL SUB DUP5 DUP2 AND PUSH0 SWAP1 DUP2 MSTORE PUSH1 0x5 PUSH1 0x20 SWAP1 DUP2 MSTORE PUSH1 0x40 DUP1 DUP4 KECCAK256 SWAP4 DUP8 AND DUP4 MSTORE SWAP3 SWAP1 MSTORE KECCAK256 SLOAD DUP2 DUP2 EQ PUSH2 0x1080 JUMPI PUSH1 0x1 PUSH1 0x1 PUSH1 0xA0 SHL SUB DUP6 DUP2 AND PUSH0 DUP2 DUP2 MSTORE PUSH1 0x3 PUSH1 0x20 SWAP1 DUP2 MSTORE PUSH1 0x40 DUP1 DUP4 KECCAK256 SWAP5 DUP10 AND DUP1 DUP5 MSTORE SWAP5 DUP3 MSTORE DUP1 DUP4 KECCAK256 DUP7 DUP5 MSTORE DUP3 MSTORE DUP1 DUP4 KECCAK256 SLOAD DUP8 DUP5 MSTORE DUP2 DUP5 KECCAK256 DUP2 SWAP1 SSTORE SWAP4 DUP4 MSTORE PUSH1 0x4 DUP3 MSTORE DUP1 DUP4 KECCAK256 SWAP5 DUP4 MSTORE SWAP4 DUP2 MSTORE DUP4 DUP3 KECCAK256 SWAP3 DUP3 MSTORE SWAP2 SWAP1 SWAP2 MSTORE KECCAK256 DUP3 SWAP1 SSTORE JUMPDEST PUSH1 0x1 PUSH1 0x1 PUSH1 0xA0 SHL SUB DUP1 DUP7 AND PUSH0 DUP2 DUP2 MSTORE PUSH1 0x3 PUSH1 0x20 SWAP1 DUP2 MSTORE PUSH1 0x40 DUP1 DUP4 KECCAK256 SWAP5 DUP10 AND DUP1 DUP5 MSTORE SWAP5 DUP3 MSTORE DUP1 DUP4 KECCAK256 DUP7 DUP5 MSTORE DUP3 MSTORE DUP1 DUP4 KECCAK256 DUP4 SWAP1 SSTORE DUP4 DUP4 MSTORE PUSH1 0x4 DUP3 MSTORE DUP1 DUP4 KECCAK256 DUP6 DUP5 MSTORE DUP3 MSTORE DUP1 DUP4 KECCAK256 DUP9 DUP5 MSTORE DUP3 MSTORE DUP1 DUP4 KECCAK256 DUP4 SWAP1 SSTORE SWAP3 DUP3 MSTORE PUSH1 0x5 DUP2 MSTORE DUP3 DUP3 KECCAK256 SWAP4 DUP3 MSTORE SWAP3 SWAP1 SWAP3 MSTORE SWAP1 KECCAK256 PUSH2 0x10EB SWAP1 PUSH2 0x1244 JUMP JUMPDEST POP POP POP POP POP JUMP JUMPDEST PUSH1 0x1 PUSH1 0x1 PUSH1 0xA0 SHL SUB DUP3 DUP2 AND PUSH0 DUP2 DUP2 MSTORE PUSH1 0x1 PUSH1 0x20 SWAP1 DUP2 MSTORE PUSH1 0x40 DUP1 DUP4 KECCAK256 DUP7 DUP7 AND DUP5 MSTORE DUP3 MSTORE DUP1 DUP4 KECCAK256 SLOAD SWAP4 DUP4 MSTORE PUSH1 0x2 DUP3 MSTORE DUP1 DUP4 KECCAK256 SLOAD DUP4 DUP4 MSTORE DUP2 DUP5 KECCAK256 DUP2 DUP6 MSTORE SWAP1 SWAP3 MSTORE SWAP1 SWAP2 KECCAK256 SLOAD SWAP2 SWAP3 SWAP1 SWAP2 AND DUP2 DUP4 EQ PUSH2 0x118B JUMPI PUSH1 0x1 PUSH1 0x1 PUSH1 0xA0 SHL SUB DUP6 DUP2 AND PUSH0 DUP2 DUP2 MSTORE PUSH1 0x20 DUP2 DUP2 MSTORE PUSH1 0x40 DUP1 DUP4 KECCAK256 DUP9 DUP5 MSTORE DUP3 MSTORE DUP1 DUP4 KECCAK256 DUP1 SLOAD PUSH1 0x1 PUSH1 0x1 PUSH1 0xA0 SHL SUB NOT AND SWAP6 DUP8 AND SWAP6 DUP7 OR SWAP1 SSTORE SWAP3 DUP3 MSTORE PUSH1 0x1 DUP2 MSTORE DUP3 DUP3 KECCAK256 SWAP4 DUP3 MSTORE SWAP3 SWAP1 SWAP3 MSTORE SWAP1 KECCAK256 DUP4 SWAP1 SSTORE JUMPDEST PUSH1 0x1 PUSH1 0x1 PUSH1 0xA0 SHL SUB DUP1 DUP7 AND PUSH0 DUP2 DUP2 MSTORE PUSH1 0x20 DUP2 DUP2 MSTORE PUSH1 0x40 DUP1 DUP4 KECCAK256 DUP8 DUP5 MSTORE DUP3 MSTORE DUP1 DUP4 KECCAK256 DUP1 SLOAD PUSH1 0x1 PUSH1 0x1 PUSH1 0xA0 SHL SUB NOT AND SWAP1 SSTORE DUP4 DUP4 MSTORE PUSH1 0x1 DUP3 MSTORE DUP1 DUP4 KECCAK256 SWAP5 DUP10 AND DUP4 MSTORE SWAP4 DUP2 MSTORE DUP4 DUP3 KECCAK256 DUP3 SWAP1 SSTORE SWAP2 DUP2 MSTORE PUSH1 0x2 SWAP1 SWAP2 MSTORE KECCAK256 PUSH2 0x10EB SWAP1 PUSH2 0x1244 JUMP JUMPDEST PUSH1 0x1 PUSH1 0x1 PUSH1 0xA0 SHL SUB SWAP2 DUP3 AND PUSH0 DUP2 DUP2 MSTORE PUSH1 0x2 PUSH1 0x20 SWAP1 DUP2 MSTORE PUSH1 0x40 DUP1 DUP4 KECCAK256 DUP1 SLOAD PUSH1 0x1 SWAP1 DUP2 ADD SWAP2 DUP3 SWAP1 SSTORE DUP5 DUP5 MSTORE DUP3 DUP6 KECCAK256 DUP3 DUP7 MSTORE DUP5 MSTORE DUP3 DUP6 KECCAK256 DUP1 SLOAD PUSH1 0x1 PUSH1 0x1 PUSH1 0xA0 SHL SUB NOT AND SWAP8 SWAP1 SWAP9 AND SWAP7 DUP8 OR SWAP1 SWAP8 SSTORE SWAP4 DUP4 MSTORE SWAP5 DUP2 MSTORE DUP5 DUP3 KECCAK256 SWAP4 DUP3 MSTORE SWAP3 SWAP1 SWAP3 MSTORE SWAP2 SWAP1 KECCAK256 SSTORE JUMP JUMPDEST DUP1 SLOAD DUP1 PUSH2 0x1293 JUMPI PUSH1 0x40 MLOAD PUSH3 0x461BCD PUSH1 0xE5 SHL DUP2 MSTORE PUSH1 0x20 PUSH1 0x4 DUP3 ADD MSTORE PUSH1 0x1B PUSH1 0x24 DUP3 ADD MSTORE PUSH32 0x436F756E7465723A2064656372656D656E74206F766572666C6F770000000000 PUSH1 0x44 DUP3 ADD MSTORE PUSH1 0x64 ADD PUSH2 0x3EE JUMP JUMPDEST PUSH0 NOT ADD SWAP1 SSTORE JUMP JUMPDEST PUSH2 0x3728 DUP1 PUSH2 0x198E DUP4 CODECOPY ADD SWAP1 JUMP JUMPDEST PUSH1 0x1 PUSH1 0x1 PUSH1 0xA0 SHL SUB DUP2 AND DUP2 EQ PUSH2 0x12BB JUMPI PUSH0 PUSH0 REVERT JUMPDEST POP JUMP JUMPDEST PUSH0 PUSH1 0x20 DUP3 DUP5 SUB SLT ISZERO PUSH2 0x12CE JUMPI PUSH0 PUSH0 REVERT JUMPDEST DUP2 CALLDATALOAD PUSH2 0x12D9 DUP2 PUSH2 0x12A7 JUMP JUMPDEST SWAP4 SWAP3 POP POP POP JUMP JUMPDEST PUSH4 0x4E487B71 PUSH1 0xE0 SHL PUSH0 MSTORE PUSH1 0x41 PUSH1 0x4 MSTORE PUSH1 0x24 PUSH0 REVERT JUMPDEST PUSH1 0x40 MLOAD PUSH1 0x1F DUP3 ADD PUSH1 0x1F NOT AND DUP2 ADD PUSH1 0x1 PUSH1 0x1 PUSH1 0x40 SHL SUB DUP2 GT DUP3 DUP3 LT OR ISZERO PUSH2 0x131C JUMPI PUSH2 0x131C PUSH2 0x12E0 JUMP JUMPDEST PUSH1 0x40 MSTORE SWAP2 SWAP1 POP JUMP JUMPDEST PUSH0 PUSH1 0x1 PUSH1 0x1 PUSH1 0x40 SHL SUB DUP3 GT ISZERO PUSH2 0x133C JUMPI PUSH2 0x133C PUSH2 0x12E0 JUMP JUMPDEST POP PUSH1 0x5 SHL PUSH1 0x20 ADD SWAP1 JUMP JUMPDEST PUSH0 PUSH0 PUSH1 0x40 DUP4 DUP6 SUB SLT ISZERO PUSH2 0x1357 JUMPI PUSH0 PUSH0 REVERT JUMPDEST DUP3 CALLDATALOAD PUSH2 0x1362 DUP2 PUSH2 0x12A7 JUMP JUMPDEST SWAP2 POP PUSH1 0x20 DUP4 ADD CALLDATALOAD PUSH1 0x1 PUSH1 0x1 PUSH1 0x40 SHL SUB DUP2 GT ISZERO PUSH2 0x137C JUMPI PUSH0 PUSH0 REVERT JUMPDEST DUP4 ADD PUSH1 0x1F DUP2 ADD DUP6 SGT PUSH2 0x138C JUMPI PUSH0 PUSH0 REVERT JUMPDEST DUP1 CALLDATALOAD PUSH2 0x139F PUSH2 0x139A DUP3 PUSH2 0x1324 JUMP JUMPDEST PUSH2 0x12F4 JUMP JUMPDEST DUP1 DUP3 DUP3 MSTORE PUSH1 0x20 DUP3 ADD SWAP2 POP PUSH1 0x20 DUP4 PUSH1 0x5 SHL DUP6 ADD ADD SWAP3 POP DUP8 DUP4 GT ISZERO PUSH2 0x13C0 JUMPI PUSH0 PUSH0 REVERT JUMPDEST PUSH1 0x20 DUP5 ADD SWAP4 POP JUMPDEST DUP3 DUP5 LT ISZERO PUSH2 0x13E2 JUMPI DUP4 CALLDATALOAD DUP3 MSTORE PUSH1 0x20 SWAP4 DUP5 ADD SWAP4 SWAP1 SWAP2 ADD SWAP1 PUSH2 0x13C7 JUMP JUMPDEST DUP1 SWAP5 POP POP POP POP POP SWAP3 POP SWAP3 SWAP1 POP JUMP JUMPDEST PUSH0 PUSH0 PUSH1 0x40 DUP4 DUP6 SUB SLT ISZERO PUSH2 0x1401 JUMPI PUSH0 PUSH0 REVERT JUMPDEST DUP3 CALLDATALOAD PUSH2 0x140C DUP2 PUSH2 0x12A7 JUMP JUMPDEST SWAP2 POP PUSH1 0x20 DUP4 ADD CALLDATALOAD PUSH2 0x141C DUP2 PUSH2 0x12A7 JUMP JUMPDEST DUP1 SWAP2 POP POP SWAP3 POP SWAP3 SWAP1 POP JUMP JUMPDEST PUSH0 PUSH0 PUSH0 PUSH1 0x60 DUP5 DUP7 SUB SLT ISZERO PUSH2 0x1439 JUMPI PUSH0 PUSH0 REVERT JUMPDEST DUP4 CALLDATALOAD PUSH2 0x1444 DUP2 PUSH2 0x12A7 JUMP JUMPDEST SWAP3 POP PUSH1 0x20 DUP5 ADD CALLDATALOAD PUSH2 0x1454 DUP2 PUSH2 0x12A7 JUMP JUMPDEST SWAP3 SWAP6 SWAP3 SWAP5 POP POP POP PUSH1 0x40 SWAP2 SWAP1 SWAP2 ADD CALLDATALOAD SWAP1 JUMP JUMPDEST PUSH0 PUSH0 PUSH1 0x40 DUP4 DUP6 SUB SLT ISZERO PUSH2 0x1476 JUMPI PUSH0 PUSH0 REVERT JUMPDEST DUP3 CALLDATALOAD PUSH2 0x1481 DUP2 PUSH2 0x12A7 JUMP JUMPDEST SWAP5 PUSH1 0x20 SWAP4 SWAP1 SWAP4 ADD CALLDATALOAD SWAP4 POP POP POP JUMP JUMPDEST PUSH0 PUSH0 DUP4 PUSH1 0x1F DUP5 ADD SLT PUSH2 0x149F JUMPI PUSH0 PUSH0 REVERT JUMPDEST POP DUP2 CALLDATALOAD PUSH1 0x1 PUSH1 0x1 PUSH1 0x40 SHL SUB DUP2 GT ISZERO PUSH2 0x14B5 JUMPI PUSH0 PUSH0 REVERT JUMPDEST PUSH1 0x20 DUP4 ADD SWAP2 POP DUP4 PUSH1 0x20 DUP3 PUSH1 0x5 SHL DUP6 ADD ADD GT ISZERO PUSH2 0x14CF JUMPI PUSH0 PUSH0 REVERT JUMPDEST SWAP3 POP SWAP3 SWAP1 POP JUMP JUMPDEST PUSH0 PUSH0 PUSH0 PUSH0 PUSH1 0x60 DUP6 DUP8 SUB SLT ISZERO PUSH2 0x14E9 JUMPI PUSH0 PUSH0 REVERT JUMPDEST DUP5 CALLDATALOAD PUSH2 0x14F4 DUP2 PUSH2 0x12A7 JUMP JUMPDEST SWAP4 POP PUSH1 0x20 DUP6 ADD CALLDATALOAD PUSH2 0x1504 DUP2 PUSH2 0x12A7 JUMP JUMPDEST SWAP3 POP PUSH1 0x40 DUP6 ADD CALLDATALOAD PUSH1 0x1 PUSH1 0x1 PUSH1 0x40 SHL SUB DUP2 GT ISZERO PUSH2 0x151E JUMPI PUSH0 PUSH0 REVERT JUMPDEST PUSH2 0x152A DUP8 DUP3 DUP9 ADD PUSH2 0x148F JUMP JUMPDEST SWAP6 SWAP9 SWAP5 SWAP8 POP SWAP6 POP POP POP POP JUMP JUMPDEST PUSH1 0x20 DUP1 DUP3 MSTORE DUP3 MLOAD DUP3 DUP3 ADD DUP2 SWAP1 MSTORE PUSH0 SWAP2 DUP5 ADD SWAP1 PUSH1 0x40 DUP5 ADD SWAP1 DUP4 JUMPDEST DUP2 DUP2 LT ISZERO PUSH2 0x156D JUMPI DUP4 MLOAD DUP4 MSTORE PUSH1 0x20 SWAP4 DUP5 ADD SWAP4 SWAP1 SWAP3 ADD SWAP2 PUSH1 0x1 ADD PUSH2 0x154F JUMP JUMPDEST POP SWAP1 SWAP6 SWAP5 POP POP POP POP POP JUMP JUMPDEST PUSH0 PUSH0 PUSH0 PUSH1 0x40 DUP5 DUP7 SUB SLT ISZERO PUSH2 0x158A JUMPI PUSH0 PUSH0 REVERT JUMPDEST DUP4 CALLDATALOAD PUSH2 0x1595 DUP2 PUSH2 0x12A7 JUMP JUMPDEST SWAP3 POP PUSH1 0x20 DUP5 ADD CALLDATALOAD PUSH1 0x1 PUSH1 0x1 PUSH1 0x40 SHL SUB DUP2 GT ISZERO PUSH2 0x15AF JUMPI PUSH0 PUSH0 REVERT JUMPDEST PUSH2 0x15BB DUP7 DUP3 DUP8 ADD PUSH2 0x148F JUMP JUMPDEST SWAP5 SWAP8 SWAP1 SWAP7 POP SWAP4 SWAP5 POP POP POP POP JUMP JUMPDEST PUSH1 0x20 DUP1 DUP3 MSTORE DUP3 MLOAD DUP3 DUP3 ADD DUP2 SWAP1 MSTORE PUSH0 SWAP2 DUP5 ADD SWAP1 PUSH1 0x40 DUP5 ADD SWAP1 DUP4 JUMPDEST DUP2 DUP2 LT ISZERO PUSH2 0x156D JUMPI DUP4 MLOAD PUSH1 0x1 PUSH1 0x1 PUSH1 0xA0 SHL SUB AND DUP4 MSTORE PUSH1 0x20 SWAP4 DUP5 ADD SWAP4 SWAP1 SWAP3 ADD SWAP2 PUSH1 0x1 ADD PUSH2 0x15E1 JUMP JUMPDEST PUSH0 DUP3 PUSH1 0x1F DUP4 ADD SLT PUSH2 0x1617 JUMPI PUSH0 PUSH0 REVERT JUMPDEST DUP2 CALLDATALOAD PUSH1 0x20 DUP4 ADD PUSH0 PUSH0 PUSH1 0x1 PUSH1 0x1 PUSH1 0x40 SHL SUB DUP5 GT ISZERO PUSH2 0x1636 JUMPI PUSH2 0x1636 PUSH2 0x12E0 JUMP JUMPDEST POP PUSH1 0x1F DUP4 ADD PUSH1 0x1F NOT AND PUSH1 0x20 ADD PUSH2 0x164B DUP2 PUSH2 0x12F4 JUMP JUMPDEST SWAP2 POP POP DUP3 DUP2 MSTORE DUP6 DUP4 DUP4 ADD GT ISZERO PUSH2 0x165F JUMPI PUSH0 PUSH0 REVERT JUMPDEST DUP3 DUP3 PUSH1 0x20 DUP4 ADD CALLDATACOPY PUSH0 SWAP3 DUP2 ADD PUSH1 0x20 ADD SWAP3 SWAP1 SWAP3 MSTORE POP SWAP4 SWAP3 POP POP POP JUMP JUMPDEST PUSH0 PUSH0 PUSH0 PUSH0 PUSH1 0x80 DUP6 DUP8 SUB SLT ISZERO PUSH2 0x168C JUMPI PUSH0 PUSH0 REVERT JUMPDEST DUP5 CALLDATALOAD PUSH1 0x1 PUSH1 0x1 PUSH1 0x40 SHL SUB DUP2 GT ISZERO PUSH2 0x16A1 JUMPI PUSH0 PUSH0 REVERT JUMPDEST PUSH2 0x16AD DUP8 DUP3 DUP9 ADD PUSH2 0x1608 JUMP JUMPDEST SWAP5 POP POP PUSH1 0x20 DUP6 ADD CALLDATALOAD PUSH1 0x1 PUSH1 0x1 PUSH1 0x40 SHL SUB DUP2 GT ISZERO PUSH2 0x16C8 JUMPI PUSH0 PUSH0 REVERT JUMPDEST PUSH2 0x16D4 DUP8 DUP3 DUP9 ADD PUSH2 0x1608 JUMP JUMPDEST SWAP4 POP POP PUSH1 0x40 DUP6 ADD CALLDATALOAD PUSH1 0x1 PUSH1 0x1 PUSH1 0x40 SHL SUB DUP2 GT ISZERO PUSH2 0x16EF JUMPI PUSH0 PUSH0 REVERT JUMPDEST PUSH2 0x16FB DUP8 DUP3 DUP9 ADD PUSH2 0x1608 JUMP JUMPDEST SWAP3 POP POP PUSH1 0x60 DUP6 ADD CALLDATALOAD PUSH1 0x1 PUSH1 0x1 PUSH1 0x40 SHL SUB DUP2 GT ISZERO PUSH2 0x1716 JUMPI PUSH0 PUSH0 REVERT JUMPDEST DUP6 ADD PUSH1 0x1F DUP2 ADD DUP8 SGT PUSH2 0x1726 JUMPI PUSH0 PUSH0 REVERT JUMPDEST DUP1 CALLDATALOAD PUSH2 0x1734 PUSH2 0x139A DUP3 PUSH2 0x1324 JUMP JUMPDEST DUP1 DUP3 DUP3 MSTORE PUSH1 0x20 DUP3 ADD SWAP2 POP PUSH1 0x20 DUP4 PUSH1 0x5 SHL DUP6 ADD ADD SWAP3 POP DUP10 DUP4 GT ISZERO PUSH2 0x1755 JUMPI PUSH0 PUSH0 REVERT JUMPDEST PUSH1 0x20 DUP5 ADD JUMPDEST DUP4 DUP2 LT ISZERO PUSH2 0x1795 JUMPI DUP1 CALLDATALOAD PUSH1 0x1 PUSH1 0x1 PUSH1 0x40 SHL SUB DUP2 GT ISZERO PUSH2 0x1777 JUMPI PUSH0 PUSH0 REVERT JUMPDEST PUSH2 0x1786 DUP13 PUSH1 0x20 DUP4 DUP10 ADD ADD PUSH2 0x1608 JUMP JUMPDEST DUP5 MSTORE POP PUSH1 0x20 SWAP3 DUP4 ADD SWAP3 ADD PUSH2 0x175A JUMP JUMPDEST POP SWAP7 SWAP10 SWAP6 SWAP9 POP SWAP4 SWAP7 POP POP POP POP POP JUMP JUMPDEST PUSH4 0x4E487B71 PUSH1 0xE0 SHL PUSH0 MSTORE PUSH1 0x32 PUSH1 0x4 MSTORE PUSH1 0x24 PUSH0 REVERT JUMPDEST PUSH0 PUSH1 0x20 DUP3 DUP5 SUB SLT ISZERO PUSH2 0x17C8 JUMPI PUSH0 PUSH0 REVERT JUMPDEST DUP2 MLOAD PUSH2 0x12D9 DUP2 PUSH2 0x12A7 JUMP JUMPDEST PUSH1 0x20 DUP1 DUP3 MSTORE PUSH1 0x14 SWAP1 DUP3 ADD MSTORE PUSH20 0x496E76616C69642070726F64756374206974656D PUSH1 0x60 SHL PUSH1 0x40 DUP3 ADD MSTORE PUSH1 0x60 ADD SWAP1 JUMP JUMPDEST DUP2 DUP2 SUB DUP2 DUP2 GT ISZERO PUSH2 0x327 JUMPI PUSH4 0x4E487B71 PUSH1 0xE0 SHL PUSH0 MSTORE PUSH1 0x11 PUSH1 0x4 MSTORE PUSH1 0x24 PUSH0 REVERT JUMPDEST PUSH0 DUP2 MLOAD DUP1 DUP5 MSTORE DUP1 PUSH1 0x20 DUP5 ADD PUSH1 0x20 DUP7 ADD MCOPY PUSH0 PUSH1 0x20 DUP3 DUP7 ADD ADD MSTORE PUSH1 0x20 PUSH1 0x1F NOT PUSH1 0x1F DUP4 ADD AND DUP6 ADD ADD SWAP2 POP POP SWAP3 SWAP2 POP POP JUMP JUMPDEST PUSH1 0xA0 DUP2 MSTORE PUSH0 PUSH2 0x1860 PUSH1 0xA0 DUP4 ADD DUP9 PUSH2 0x1820 JUMP JUMPDEST DUP3 DUP2 SUB PUSH1 0x20 DUP5 ADD MSTORE PUSH2 0x1872 DUP2 DUP9 PUSH2 0x1820 JUMP JUMPDEST PUSH1 0x1 PUSH1 0x1 PUSH1 0xA0 SHL SUB DUP8 AND PUSH1 0x40 DUP6 ADD MSTORE DUP4 DUP2 SUB PUSH1 0x60 DUP6 ADD MSTORE SWAP1 POP PUSH2 0x1895 DUP2 DUP7 PUSH2 0x1820 JUMP JUMPDEST SWAP1 POP DUP3 DUP2 SUB PUSH1 0x80 DUP5 ADD MSTORE DUP1 DUP5 MLOAD DUP1 DUP4 MSTORE PUSH1 0x20 DUP4 ADD SWAP2 POP PUSH1 0x20 DUP2 PUSH1 0x5 SHL DUP5 ADD ADD PUSH1 0x20 DUP8 ADD PUSH0 JUMPDEST DUP4 DUP2 LT ISZERO PUSH2 0x18EC JUMPI PUSH1 0x1F NOT DUP7 DUP5 SUB ADD DUP6 MSTORE PUSH2 0x18D6 DUP4 DUP4 MLOAD PUSH2 0x1820 JUMP JUMPDEST PUSH1 0x20 SWAP6 DUP7 ADD SWAP6 SWAP1 SWAP4 POP SWAP2 SWAP1 SWAP2 ADD SWAP1 PUSH1 0x1 ADD PUSH2 0x18BA JUMP JUMPDEST POP SWAP1 SWAP12 SWAP11 POP POP POP POP POP POP POP POP POP POP POP JUMP JUMPDEST PUSH0 PUSH1 0x20 DUP3 DUP5 SUB SLT ISZERO PUSH2 0x190D JUMPI PUSH0 PUSH0 REVERT JUMPDEST DUP2 MLOAD PUSH1 0x1 PUSH1 0x1 PUSH1 0x40 SHL SUB DUP2 GT ISZERO PUSH2 0x1922 JUMPI PUSH0 PUSH0 REVERT JUMPDEST DUP3 ADD PUSH1 0x1F DUP2 ADD DUP5 SGT PUSH2 0x1932 JUMPI PUSH0 PUSH0 REVERT JUMPDEST DUP1 MLOAD PUSH2 0x1940 PUSH2 0x139A DUP3 PUSH2 0x1324 JUMP JUMPDEST DUP1 DUP3 DUP3 MSTORE PUSH1 0x20 DUP3 ADD SWAP2 POP PUSH1 0x20 DUP4 PUSH1 0x5 SHL DUP6 ADD ADD SWAP3 POP DUP7 DUP4 GT ISZERO PUSH2 0x1961 JUMPI PUSH0 PUSH0 REVERT JUMPDEST PUSH1 0x20 DUP5 ADD SWAP4 POP JUMPDEST DUP3 DUP5 LT ISZERO PUSH2 0x1983 JUMPI DUP4 MLOAD DUP3 MSTORE PUSH1 0x20 SWAP4 DUP5 ADD SWAP4 SWAP1 SWAP2 ADD SWAP1 PUSH2 0x1968 JUMP JUMPDEST SWAP7 SWAP6 POP POP POP POP POP POP JUMP INVALID PUSH1 0x80 PUSH1 0x40 MSTORE CALLVALUE DUP1 ISZERO PUSH2 0xF JUMPI PUSH0 PUSH0 REVERT JUMPDEST POP PUSH1 0x40 MLOAD PUSH2 0x3728 CODESIZE SUB DUP1 PUSH2 0x3728 DUP4 CODECOPY DUP2 ADD PUSH1 0x40 DUP2 SWAP1 MSTORE PUSH2 0x2E SWAP2 PUSH2 0xA3D JUMP JUMPDEST DUP5 DUP5 DUP5 PUSH1 0x2 PUSH0 DUP5 DUP5 DUP5 DUP5 DUP2 PUSH2 0x42 CALLER PUSH2 0x1F0 JUMP JUMPDEST PUSH1 0x1 PUSH1 0x1 PUSH1 0xA0 SHL SUB DUP2 AND PUSH2 0x69 JUMPI PUSH1 0x40 MLOAD PUSH4 0x6B620DB PUSH1 0xE2 SHL DUP2 MSTORE PUSH1 0x4 ADD PUSH1 0x40 MLOAD DUP1 SWAP2 SUB SWAP1 REVERT JUMPDEST PUSH2 0x72 DUP2 PUSH2 0x1F0 JUMP JUMPDEST POP PUSH1 0x40 DUP1 MLOAD DUP1 DUP3 ADD SWAP1 SWAP2 MSTORE PUSH1 0x4 DUP2 MSTORE PUSH4 0x29365989 PUSH1 0xE2 SHL PUSH1 0x20 DUP3 ADD MSTORE PUSH2 0xB9 SWAP1 PUSH32 0xEAFEC4D89FA9619884B60000A4D96624A38F7AC2D8D9A604ECF07C12C77E480C SWAP1 PUSH2 0x23F JUMP JUMPDEST PUSH2 0xE3 PUSH32 0xDEBA1E292F8BA88238E10AB3C7F88BD4BE4FAC56CAD5194B6ECCEAF653468AF1 DUP6 PUSH2 0x23F JUMP JUMPDEST PUSH2 0x10D PUSH32 0x2F0A68AB07768E01943A599E73362A0E17A63A72E94DD2E384D2C1D4DB932756 DUP5 PUSH2 0x23F JUMP JUMPDEST PUSH1 0x40 DUP1 MLOAD PUSH1 0x20 DUP2 ADD DUP4 SWAP1 MSTORE PUSH2 0x154 SWAP2 PUSH32 0xE0261FA95DB2EB3B5439BD033CDA66D56B96F92F243A8228FD87550ED7BDFDB3 SWAP2 ADD PUSH1 0x40 DUP1 MLOAD PUSH1 0x1F NOT DUP2 DUP5 SUB ADD DUP2 MSTORE SWAP2 SWAP1 MSTORE PUSH2 0x23F JUMP JUMPDEST POP POP PUSH1 0x40 DUP1 MLOAD PUSH1 0x20 DUP2 ADD DUP6 SWAP1 MSTORE PUSH2 0x19F SWAP4 POP PUSH32 0xF675E9361AF1C1664C1868CFA3EB97672D6B1A513AA5B81DEC34C9EE330E818D SWAP3 POP ADD PUSH1 0x40 DUP1 MLOAD PUSH1 0x1F NOT DUP2 DUP5 SUB ADD DUP2 MSTORE SWAP2 SWAP1 MSTORE PUSH2 0x293 JUMP JUMPDEST POP POP PUSH1 0x6 DUP1 SLOAD PUSH2 0x100 PUSH1 0x1 PUSH1 0xA8 SHL SUB NOT AND PUSH2 0x100 PUSH1 0x1 PUSH1 0x1 PUSH1 0xA0 SHL SUB DUP10 AND MUL OR SWAP1 SSTORE POP PUSH2 0x1DD SWAP2 POP PUSH0 MLOAD PUSH1 0x20 PUSH2 0x3708 PUSH0 CODECOPY PUSH0 MLOAD SWAP1 PUSH0 MSTORE SWAP1 POP DUP4 PUSH2 0x357 JUMP JUMPDEST PUSH2 0x1E6 DUP2 PUSH2 0x3A1 JUMP JUMPDEST POP POP POP POP POP PUSH2 0xDA9 JUMP JUMPDEST PUSH0 DUP1 SLOAD PUSH1 0x1 PUSH1 0x1 PUSH1 0xA0 SHL SUB DUP4 DUP2 AND PUSH1 0x1 PUSH1 0x1 PUSH1 0xA0 SHL SUB NOT DUP4 AND DUP2 OR DUP5 SSTORE PUSH1 0x40 MLOAD SWAP2 SWAP1 SWAP3 AND SWAP3 DUP4 SWAP2 PUSH32 0x8BE0079C531659141344CD1FD0A4F28419497F9722A3DAAFE3B4186F6B6457E0 SWAP2 SWAP1 LOG3 POP POP JUMP JUMPDEST PUSH0 DUP3 DUP2 MSTORE PUSH1 0x1 PUSH1 0x20 MSTORE PUSH1 0x40 SWAP1 KECCAK256 PUSH2 0x256 DUP3 DUP3 PUSH2 0xB92 JUMP JUMPDEST POP DUP2 PUSH32 0xECE574603820D07BC9B91F2A932BAADF4628AABCB8AFBA49776529C14A6104B2 DUP3 PUSH1 0x40 MLOAD PUSH2 0x287 SWAP2 SWAP1 PUSH2 0xC7A JUMP JUMPDEST PUSH1 0x40 MLOAD DUP1 SWAP2 SUB SWAP1 LOG2 POP POP JUMP JUMPDEST PUSH32 0x2145E1D6D074577DC71EF54C3807742B41B053A9352AE6B491331509ACB9750F DUP3 ADD PUSH2 0x2D3 JUMPI PUSH1 0x40 MLOAD PUSH4 0x85C169BD PUSH1 0xE0 SHL DUP2 MSTORE PUSH1 0x4 ADD PUSH1 0x40 MLOAD DUP1 SWAP2 SUB SWAP1 REVERT JUMPDEST PUSH32 0xD0F59754F88971FE6BC5A6618CC9D5F1E859C58D16B22D1C7B2D3E2B246CD8AA DUP3 ADD PUSH2 0x313 JUMPI PUSH1 0x40 MLOAD PUSH4 0xECEAB67 PUSH1 0xE3 SHL DUP2 MSTORE PUSH1 0x4 ADD PUSH1 0x40 MLOAD DUP1 SWAP2 SUB SWAP1 REVERT JUMPDEST PUSH32 0x1FD9E056A24D14C4ABC642FCC325992A946906D0DBC57DD70278AAF12842024D DUP3 ADD PUSH2 0x23F JUMPI PUSH1 0x40 MLOAD PUSH4 0x4EF6D7FB PUSH1 0xE0 SHL DUP2 MSTORE PUSH1 0x4 ADD PUSH1 0x40 MLOAD DUP1 SWAP2 SUB SWAP1 REVERT JUMPDEST POP POP JUMP JUMPDEST PUSH32 0x98A16C9E50E3E99B3E797305C146898D294E5AEC55A47E213CB3611CCF17E73 DUP3 ADD PUSH2 0x397 JUMPI PUSH1 0x40 MLOAD PUSH4 0x1B324005 PUSH1 0xE1 SHL DUP2 MSTORE PUSH1 0x4 ADD PUSH1 0x40 MLOAD DUP1 SWAP2 SUB SWAP1 REVERT JUMPDEST PUSH2 0x353 DUP3 DUP3 PUSH2 0x293 JUMP JUMPDEST DUP1 MLOAD PUSH0 DUP2 PUSH1 0x1 PUSH1 0x1 PUSH1 0x40 SHL SUB DUP2 GT ISZERO PUSH2 0x3BC JUMPI PUSH2 0x3BC PUSH2 0x8E6 JUMP JUMPDEST PUSH1 0x40 MLOAD SWAP1 DUP1 DUP3 MSTORE DUP1 PUSH1 0x20 MUL PUSH1 0x20 ADD DUP3 ADD PUSH1 0x40 MSTORE DUP1 ISZERO PUSH2 0x3E5 JUMPI DUP2 PUSH1 0x20 ADD PUSH1 0x20 DUP3 MUL DUP1 CALLDATASIZE DUP4 CALLDATACOPY ADD SWAP1 POP JUMPDEST POP SWAP1 POP PUSH0 JUMPDEST DUP3 DUP2 LT ISZERO PUSH2 0x4EE JUMPI PUSH1 0x6 DUP1 SLOAD PUSH1 0xFF AND SWAP1 PUSH0 PUSH2 0x404 DUP4 PUSH2 0xCA0 JUMP JUMPDEST DUP3 SLOAD PUSH2 0x100 SWAP3 SWAP1 SWAP3 EXP PUSH1 0xFF DUP2 DUP2 MUL NOT SWAP1 SWAP4 AND SWAP2 DUP4 AND MUL OR SWAP1 SWAP2 SSTORE PUSH1 0x6 SLOAD DUP5 MLOAD SWAP2 AND SWAP2 POP DUP4 SWAP1 DUP4 SWAP1 DUP2 LT PUSH2 0x439 JUMPI PUSH2 0x439 PUSH2 0xCBE JUMP JUMPDEST PUSH1 0x20 MUL PUSH1 0x20 ADD ADD DUP2 DUP2 MSTORE POP POP PUSH2 0x494 PUSH1 0x6 PUSH1 0x1 SWAP1 SLOAD SWAP1 PUSH2 0x100 EXP SWAP1 DIV PUSH1 0x1 PUSH1 0x1 PUSH1 0xA0 SHL SUB AND DUP4 DUP4 DUP2 MLOAD DUP2 LT PUSH2 0x470 JUMPI PUSH2 0x470 PUSH2 0xCBE JUMP JUMPDEST PUSH1 0x20 MUL PUSH1 0x20 ADD ADD MLOAD PUSH1 0x1 PUSH1 0x40 MLOAD DUP1 PUSH1 0x20 ADD PUSH1 0x40 MSTORE DUP1 PUSH0 DUP2 MSTORE POP PUSH2 0x4F4 PUSH1 0x20 SHL PUSH1 0x20 SHR JUMP JUMPDEST PUSH2 0x4E6 DUP3 DUP3 DUP2 MLOAD DUP2 LT PUSH2 0x4A9 JUMPI PUSH2 0x4A9 PUSH2 0xCBE JUMP JUMPDEST PUSH1 0x20 MUL PUSH1 0x20 ADD ADD MLOAD PUSH0 MLOAD PUSH1 0x20 PUSH2 0x3708 PUSH0 CODECOPY PUSH0 MLOAD SWAP1 PUSH0 MSTORE PUSH0 SHL DUP7 DUP5 DUP2 MLOAD DUP2 LT PUSH2 0x4D3 JUMPI PUSH2 0x4D3 PUSH2 0xCBE JUMP JUMPDEST PUSH1 0x20 MUL PUSH1 0x20 ADD ADD MLOAD PUSH2 0x66A PUSH1 0x20 SHL PUSH1 0x20 SHR JUMP JUMPDEST PUSH1 0x1 ADD PUSH2 0x3EA JUMP JUMPDEST POP POP POP POP JUMP JUMPDEST PUSH1 0x1 PUSH1 0x1 PUSH1 0xA0 SHL SUB DUP5 AND PUSH2 0x51B JUMPI PUSH1 0x40 MLOAD PUSH4 0x24ECEF4D PUSH1 0xE0 SHL DUP2 MSTORE PUSH1 0x4 ADD PUSH1 0x40 MLOAD DUP1 SWAP2 SUB SWAP1 REVERT JUMPDEST PUSH0 DUP4 DUP2 MSTORE PUSH1 0x3 PUSH1 0x20 MSTORE PUSH1 0x40 SWAP1 KECCAK256 SLOAD PUSH1 0x1 PUSH1 0x1 PUSH1 0xA0 SHL SUB AND ISZERO PUSH2 0x558 JUMPI PUSH1 0x40 MLOAD PUSH4 0x34C7B511 PUSH1 0xE0 SHL DUP2 MSTORE PUSH1 0x4 DUP2 ADD DUP5 SWAP1 MSTORE PUSH1 0x24 ADD JUMPDEST PUSH1 0x40 MLOAD DUP1 SWAP2 SUB SWAP1 REVERT JUMPDEST PUSH0 DUP4 DUP2 MSTORE PUSH1 0x3 PUSH1 0x20 MSTORE PUSH1 0x40 SWAP1 KECCAK256 SLOAD PUSH1 0x1 PUSH1 0x1 PUSH1 0xA0 SHL SUB AND ISZERO PUSH2 0x590 JUMPI PUSH1 0x40 MLOAD PUSH4 0x34C7B511 PUSH1 0xE0 SHL DUP2 MSTORE PUSH1 0x4 DUP2 ADD DUP5 SWAP1 MSTORE PUSH1 0x24 ADD PUSH2 0x54F JUMP JUMPDEST PUSH1 0x2 PUSH0 DUP2 SLOAD PUSH2 0x59E SWAP1 PUSH2 0xCD2 JUMP JUMPDEST SWAP1 SWAP2 SSTORE POP PUSH1 0x1 PUSH1 0x1 PUSH1 0xA0 SHL SUB DUP5 AND PUSH0 SWAP1 DUP2 MSTORE PUSH1 0x4 PUSH1 0x20 MSTORE PUSH1 0x40 SWAP1 KECCAK256 PUSH2 0x5C3 SWAP1 DUP5 PUSH2 0x6F8 JUMP JUMPDEST POP PUSH0 DUP4 DUP2 MSTORE PUSH1 0x3 PUSH1 0x20 MSTORE PUSH1 0x40 DUP1 DUP3 KECCAK256 DUP1 SLOAD PUSH1 0x1 PUSH1 0x1 PUSH1 0xA0 SHL SUB NOT AND PUSH1 0x1 PUSH1 0x1 PUSH1 0xA0 SHL SUB DUP9 AND SWAP1 DUP2 OR SWAP1 SWAP2 SSTORE SWAP1 MLOAD DUP6 SWAP3 SWAP1 PUSH32 0xB333C813A7426A7A11E2B190CAD52C44119421594B47F6F32ACE6D8C7207B2BF SWAP1 PUSH2 0x624 SWAP1 CALLER SWAP1 DUP9 SWAP1 DUP9 SWAP1 PUSH2 0xCEA JUMP JUMPDEST PUSH1 0x40 MLOAD DUP1 SWAP2 SUB SWAP1 LOG4 PUSH0 CALLER PUSH0 DUP7 DUP7 DUP6 PUSH1 0x40 MLOAD PUSH1 0x20 ADD PUSH2 0x646 SWAP6 SWAP5 SWAP4 SWAP3 SWAP2 SWAP1 PUSH2 0xD1E JUMP JUMPDEST PUSH1 0x40 DUP1 MLOAD PUSH1 0x1F NOT DUP2 DUP5 SUB ADD DUP2 MSTORE SWAP2 SWAP1 MSTORE SWAP1 POP PUSH2 0x663 DUP6 DUP5 DUP4 PUSH2 0x70C JUMP JUMPDEST POP POP POP POP POP JUMP JUMPDEST DUP1 PUSH1 0x1 PUSH0 DUP6 DUP6 PUSH1 0x40 MLOAD PUSH1 0x20 ADD PUSH2 0x68A SWAP3 SWAP2 SWAP1 SWAP2 DUP3 MSTORE PUSH1 0x20 DUP3 ADD MSTORE PUSH1 0x40 ADD SWAP1 JUMP JUMPDEST PUSH1 0x40 MLOAD PUSH1 0x20 DUP2 DUP4 SUB SUB DUP2 MSTORE SWAP1 PUSH1 0x40 MSTORE DUP1 MLOAD SWAP1 PUSH1 0x20 ADD KECCAK256 DUP2 MSTORE PUSH1 0x20 ADD SWAP1 DUP2 MSTORE PUSH1 0x20 ADD PUSH0 KECCAK256 SWAP1 DUP2 PUSH2 0x6B9 SWAP2 SWAP1 PUSH2 0xB92 JUMP JUMPDEST POP DUP2 DUP4 PUSH32 0xA6E4251F855F750545FE414F120DB91C76B88DEF14D120969E5BB2D3F05DEBBB DUP4 PUSH1 0x40 MLOAD PUSH2 0x6EB SWAP2 SWAP1 PUSH2 0xC7A JUMP JUMPDEST PUSH1 0x40 MLOAD DUP1 SWAP2 SUB SWAP1 LOG3 POP POP POP JUMP JUMPDEST PUSH0 PUSH2 0x703 DUP4 DUP4 PUSH2 0x814 JUMP JUMPDEST SWAP1 POP JUMPDEST SWAP3 SWAP2 POP POP JUMP JUMPDEST PUSH2 0x71D DUP4 PUSH4 0x1AED5A85 PUSH1 0xE2 SHL PUSH2 0x860 JUMP JUMPDEST ISZERO PUSH2 0x7B2 JUMPI PUSH1 0x40 MLOAD PUSH4 0x1AED5A85 PUSH1 0xE2 SHL DUP2 MSTORE PUSH1 0x1 PUSH1 0x1 PUSH1 0xA0 SHL SUB DUP5 AND SWAP1 PUSH4 0x6BB56A14 SWAP1 PUSH2 0x770 SWAP1 PUSH32 0xB084A55EBF70FD3C06FD755269DAC2212C4D3F0F4D09079780BFA50C1B2984D SWAP1 DUP6 SWAP1 PUSH1 0x4 ADD PUSH2 0xD58 JUMP JUMPDEST PUSH0 PUSH1 0x40 MLOAD DUP1 DUP4 SUB DUP2 PUSH0 DUP8 GAS CALL ISZERO DUP1 ISZERO PUSH2 0x78B JUMPI RETURNDATASIZE PUSH0 PUSH0 RETURNDATACOPY RETURNDATASIZE PUSH0 REVERT JUMPDEST POP POP POP POP PUSH1 0x40 MLOAD RETURNDATASIZE PUSH0 DUP3 RETURNDATACOPY PUSH1 0x1F RETURNDATASIZE SWAP1 DUP2 ADD PUSH1 0x1F NOT AND DUP3 ADD PUSH1 0x40 MSTORE PUSH2 0x4EE SWAP2 SWAP1 DUP2 ADD SWAP1 PUSH2 0xD78 JUMP JUMPDEST DUP2 PUSH2 0x80F JUMPI PUSH1 0x1 PUSH1 0x1 PUSH1 0xA0 SHL SUB DUP4 AND EXTCODESIZE ISZERO PUSH2 0x7EB JUMPI PUSH1 0x40 MLOAD PUSH4 0x4349776D PUSH1 0xE0 SHL DUP2 MSTORE PUSH1 0x1 PUSH1 0x1 PUSH1 0xA0 SHL SUB DUP5 AND PUSH1 0x4 DUP3 ADD MSTORE PUSH1 0x24 ADD PUSH2 0x54F JUMP JUMPDEST PUSH1 0x40 MLOAD PUSH4 0x3173137 PUSH1 0xE0 SHL DUP2 MSTORE PUSH1 0x1 PUSH1 0x1 PUSH1 0xA0 SHL SUB DUP5 AND PUSH1 0x4 DUP3 ADD MSTORE PUSH1 0x24 ADD PUSH2 0x54F JUMP JUMPDEST POP POP POP JUMP JUMPDEST PUSH0 DUP2 DUP2 MSTORE PUSH1 0x1 DUP4 ADD PUSH1 0x20 MSTORE PUSH1 0x40 DUP2 KECCAK256 SLOAD PUSH2 0x859 JUMPI POP DUP2 SLOAD PUSH1 0x1 DUP2 DUP2 ADD DUP5 SSTORE PUSH0 DUP5 DUP2 MSTORE PUSH1 0x20 DUP1 DUP3 KECCAK256 SWAP1 SWAP4 ADD DUP5 SWAP1 SSTORE DUP5 SLOAD DUP5 DUP3 MSTORE DUP3 DUP7 ADD SWAP1 SWAP4 MSTORE PUSH1 0x40 SWAP1 KECCAK256 SWAP2 SWAP1 SWAP2 SSTORE PUSH2 0x706 JUMP JUMPDEST POP PUSH0 PUSH2 0x706 JUMP JUMPDEST PUSH1 0x40 DUP1 MLOAD PUSH1 0x1 PUSH1 0x1 PUSH1 0xE0 SHL SUB NOT DUP4 AND PUSH1 0x24 DUP1 DUP4 ADD SWAP2 SWAP1 SWAP2 MSTORE DUP3 MLOAD DUP1 DUP4 SUB SWAP1 SWAP2 ADD DUP2 MSTORE PUSH1 0x44 SWAP1 SWAP2 ADD SWAP1 SWAP2 MSTORE PUSH1 0x20 DUP1 DUP3 ADD DUP1 MLOAD PUSH1 0x1 PUSH1 0x1 PUSH1 0xE0 SHL SUB AND PUSH4 0x1FFC9A7 PUSH1 0xE0 SHL OR DUP2 MSTORE DUP3 MLOAD PUSH0 SWAP4 SWAP3 DUP5 SWAP3 DUP4 SWAP3 DUP4 SWAP3 SWAP2 DUP4 SWAP2 SWAP1 DUP11 PUSH2 0x7530 STATICCALL SWAP3 POP RETURNDATASIZE SWAP2 POP PUSH0 MLOAD SWAP1 POP DUP3 DUP1 ISZERO PUSH2 0x8D0 JUMPI POP PUSH1 0x20 DUP3 LT ISZERO JUMPDEST DUP1 ISZERO PUSH2 0x8DB JUMPI POP PUSH0 DUP2 GT JUMPDEST SWAP8 SWAP7 POP POP POP POP POP POP POP JUMP JUMPDEST PUSH4 0x4E487B71 PUSH1 0xE0 SHL PUSH0 MSTORE PUSH1 0x41 PUSH1 0x4 MSTORE PUSH1 0x24 PUSH0 REVERT JUMPDEST PUSH1 0x40 MLOAD PUSH1 0x1F DUP3 ADD PUSH1 0x1F NOT AND DUP2 ADD PUSH1 0x1 PUSH1 0x1 PUSH1 0x40 SHL SUB DUP2 GT DUP3 DUP3 LT OR ISZERO PUSH2 0x922 JUMPI PUSH2 0x922 PUSH2 0x8E6 JUMP JUMPDEST PUSH1 0x40 MSTORE SWAP2 SWAP1 POP JUMP JUMPDEST PUSH0 DUP3 PUSH1 0x1F DUP4 ADD SLT PUSH2 0x939 JUMPI PUSH0 PUSH0 REVERT JUMPDEST DUP2 MLOAD PUSH1 0x20 DUP4 ADD PUSH0 DUP1 PUSH1 0x1 PUSH1 0x1 PUSH1 0x40 SHL SUB DUP5 GT ISZERO PUSH2 0x958 JUMPI PUSH2 0x958 PUSH2 0x8E6 JUMP JUMPDEST POP PUSH1 0x1F DUP4 ADD PUSH1 0x1F NOT AND PUSH1 0x20 ADD PUSH2 0x96D DUP2 PUSH2 0x8FA JUMP JUMPDEST SWAP2 POP POP DUP3 DUP2 MSTORE DUP6 DUP4 DUP4 ADD GT ISZERO PUSH2 0x981 JUMPI PUSH0 PUSH0 REVERT JUMPDEST DUP3 DUP3 PUSH1 0x20 DUP4 ADD MCOPY PUSH0 SWAP3 DUP2 ADD PUSH1 0x20 ADD SWAP3 SWAP1 SWAP3 MSTORE POP SWAP4 SWAP3 POP POP POP JUMP JUMPDEST PUSH0 DUP3 PUSH1 0x1F DUP4 ADD SLT PUSH2 0x9AA JUMPI PUSH0 PUSH0 REVERT JUMPDEST DUP2 MLOAD PUSH1 0x1 PUSH1 0x1 PUSH1 0x40 SHL SUB DUP2 GT ISZERO PUSH2 0x9C3 JUMPI PUSH2 0x9C3 PUSH2 0x8E6 JUMP JUMPDEST DUP1 PUSH1 0x5 SHL PUSH2 0x9D3 PUSH1 0x20 DUP3 ADD PUSH2 0x8FA JUMP JUMPDEST SWAP2 DUP3 MSTORE PUSH1 0x20 DUP2 DUP6 ADD DUP2 ADD SWAP3 SWAP1 DUP2 ADD SWAP1 DUP7 DUP5 GT ISZERO PUSH2 0x9EE JUMPI PUSH0 PUSH0 REVERT JUMPDEST PUSH1 0x20 DUP7 ADD SWAP3 POP JUMPDEST DUP4 DUP4 LT ISZERO PUSH2 0xA33 JUMPI DUP3 MLOAD PUSH1 0x1 PUSH1 0x1 PUSH1 0x40 SHL SUB DUP2 GT ISZERO PUSH2 0xA12 JUMPI PUSH0 PUSH0 REVERT JUMPDEST PUSH2 0xA21 DUP9 PUSH1 0x20 DUP4 DUP11 ADD ADD PUSH2 0x92A JUMP JUMPDEST DUP4 MSTORE POP PUSH1 0x20 SWAP3 DUP4 ADD SWAP3 SWAP1 SWAP2 ADD SWAP1 PUSH2 0x9F5 JUMP JUMPDEST SWAP7 SWAP6 POP POP POP POP POP POP JUMP JUMPDEST PUSH0 PUSH0 PUSH0 PUSH0 PUSH0 PUSH1 0xA0 DUP7 DUP9 SUB SLT ISZERO PUSH2 0xA51 JUMPI PUSH0 PUSH0 REVERT JUMPDEST DUP6 MLOAD PUSH1 0x1 PUSH1 0x1 PUSH1 0x40 SHL SUB DUP2 GT ISZERO PUSH2 0xA66 JUMPI PUSH0 PUSH0 REVERT JUMPDEST PUSH2 0xA72 DUP9 DUP3 DUP10 ADD PUSH2 0x92A JUMP JUMPDEST PUSH1 0x20 DUP9 ADD MLOAD SWAP1 SWAP7 POP SWAP1 POP PUSH1 0x1 PUSH1 0x1 PUSH1 0x40 SHL SUB DUP2 GT ISZERO PUSH2 0xA8F JUMPI PUSH0 PUSH0 REVERT JUMPDEST PUSH2 0xA9B DUP9 DUP3 DUP10 ADD PUSH2 0x92A JUMP JUMPDEST PUSH1 0x40 DUP9 ADD MLOAD SWAP1 SWAP6 POP SWAP1 POP PUSH1 0x1 PUSH1 0x1 PUSH1 0xA0 SHL SUB DUP2 AND DUP2 EQ PUSH2 0xAB9 JUMPI PUSH0 PUSH0 REVERT JUMPDEST PUSH1 0x60 DUP8 ADD MLOAD SWAP1 SWAP4 POP PUSH1 0x1 PUSH1 0x1 PUSH1 0x40 SHL SUB DUP2 GT ISZERO PUSH2 0xAD4 JUMPI PUSH0 PUSH0 REVERT JUMPDEST PUSH2 0xAE0 DUP9 DUP3 DUP10 ADD PUSH2 0x92A JUMP JUMPDEST PUSH1 0x80 DUP9 ADD MLOAD SWAP1 SWAP4 POP SWAP1 POP PUSH1 0x1 PUSH1 0x1 PUSH1 0x40 SHL SUB DUP2 GT ISZERO PUSH2 0xAFD JUMPI PUSH0 PUSH0 REVERT JUMPDEST PUSH2 0xB09 DUP9 DUP3 DUP10 ADD PUSH2 0x99B JUMP JUMPDEST SWAP2 POP POP SWAP3 SWAP6 POP SWAP3 SWAP6 SWAP1 SWAP4 POP JUMP JUMPDEST PUSH1 0x1 DUP2 DUP2 SHR SWAP1 DUP3 AND DUP1 PUSH2 0xB2A JUMPI PUSH1 0x7F DUP3 AND SWAP2 POP JUMPDEST PUSH1 0x20 DUP3 LT DUP2 SUB PUSH2 0xB48 JUMPI PUSH4 0x4E487B71 PUSH1 0xE0 SHL PUSH0 MSTORE PUSH1 0x22 PUSH1 0x4 MSTORE PUSH1 0x24 PUSH0 REVERT JUMPDEST POP SWAP2 SWAP1 POP JUMP JUMPDEST PUSH1 0x1F DUP3 GT ISZERO PUSH2 0x80F JUMPI DUP1 PUSH0 MSTORE PUSH1 0x20 PUSH0 KECCAK256 PUSH1 0x1F DUP5 ADD PUSH1 0x5 SHR DUP2 ADD PUSH1 0x20 DUP6 LT ISZERO PUSH2 0xB73 JUMPI POP DUP1 JUMPDEST PUSH1 0x1F DUP5 ADD PUSH1 0x5 SHR DUP3 ADD SWAP2 POP JUMPDEST DUP2 DUP2 LT ISZERO PUSH2 0x663 JUMPI PUSH0 DUP2 SSTORE PUSH1 0x1 ADD PUSH2 0xB7F JUMP JUMPDEST DUP2 MLOAD PUSH1 0x1 PUSH1 0x1 PUSH1 0x40 SHL SUB DUP2 GT ISZERO PUSH2 0xBAB JUMPI PUSH2 0xBAB PUSH2 0x8E6 JUMP JUMPDEST PUSH2 0xBBF DUP2 PUSH2 0xBB9 DUP5 SLOAD PUSH2 0xB16 JUMP JUMPDEST DUP5 PUSH2 0xB4E JUMP JUMPDEST PUSH1 0x20 PUSH1 0x1F DUP3 GT PUSH1 0x1 DUP2 EQ PUSH2 0xBF1 JUMPI PUSH0 DUP4 ISZERO PUSH2 0xBDA JUMPI POP DUP5 DUP3 ADD MLOAD JUMPDEST PUSH0 NOT PUSH1 0x3 DUP6 SWAP1 SHL SHR NOT AND PUSH1 0x1 DUP5 SWAP1 SHL OR DUP5 SSTORE PUSH2 0x663 JUMP JUMPDEST PUSH0 DUP5 DUP2 MSTORE PUSH1 0x20 DUP2 KECCAK256 PUSH1 0x1F NOT DUP6 AND SWAP2 JUMPDEST DUP3 DUP2 LT ISZERO PUSH2 0xC20 JUMPI DUP8 DUP6 ADD MLOAD DUP3 SSTORE PUSH1 0x20 SWAP5 DUP6 ADD SWAP5 PUSH1 0x1 SWAP1 SWAP3 ADD SWAP2 ADD PUSH2 0xC00 JUMP JUMPDEST POP DUP5 DUP3 LT ISZERO PUSH2 0xC3D JUMPI DUP7 DUP5 ADD MLOAD PUSH0 NOT PUSH1 0x3 DUP8 SWAP1 SHL PUSH1 0xF8 AND SHR NOT AND DUP2 SSTORE JUMPDEST POP POP POP POP PUSH1 0x1 SWAP1 DUP2 SHL ADD SWAP1 SSTORE POP JUMP JUMPDEST PUSH0 DUP2 MLOAD DUP1 DUP5 MSTORE DUP1 PUSH1 0x20 DUP5 ADD PUSH1 0x20 DUP7 ADD MCOPY PUSH0 PUSH1 0x20 DUP3 DUP7 ADD ADD MSTORE PUSH1 0x20 PUSH1 0x1F NOT PUSH1 0x1F DUP4 ADD AND DUP6 ADD ADD SWAP2 POP POP SWAP3 SWAP2 POP POP JUMP JUMPDEST PUSH1 0x20 DUP2 MSTORE PUSH0 PUSH2 0x703 PUSH1 0x20 DUP4 ADD DUP5 PUSH2 0xC4C JUMP JUMPDEST PUSH4 0x4E487B71 PUSH1 0xE0 SHL PUSH0 MSTORE PUSH1 0x11 PUSH1 0x4 MSTORE PUSH1 0x24 PUSH0 REVERT JUMPDEST PUSH0 PUSH1 0xFF DUP3 AND PUSH1 0xFF DUP2 SUB PUSH2 0xCB5 JUMPI PUSH2 0xCB5 PUSH2 0xC8C JUMP JUMPDEST PUSH1 0x1 ADD SWAP3 SWAP2 POP POP JUMP JUMPDEST PUSH4 0x4E487B71 PUSH1 0xE0 SHL PUSH0 MSTORE PUSH1 0x32 PUSH1 0x4 MSTORE PUSH1 0x24 PUSH0 REVERT JUMPDEST PUSH0 PUSH1 0x1 DUP3 ADD PUSH2 0xCE3 JUMPI PUSH2 0xCE3 PUSH2 0xC8C JUMP JUMPDEST POP PUSH1 0x1 ADD SWAP1 JUMP JUMPDEST PUSH1 0x1 PUSH1 0x1 PUSH1 0xA0 SHL SUB DUP5 AND DUP2 MSTORE DUP3 ISZERO ISZERO PUSH1 0x20 DUP3 ADD MSTORE PUSH1 0x60 PUSH1 0x40 DUP3 ADD DUP2 SWAP1 MSTORE PUSH0 SWAP1 PUSH2 0xD15 SWAP1 DUP4 ADD DUP5 PUSH2 0xC4C JUMP JUMPDEST SWAP6 SWAP5 POP POP POP POP POP JUMP JUMPDEST PUSH1 0x1 PUSH1 0x1 PUSH1 0xA0 SHL SUB DUP7 DUP2 AND DUP3 MSTORE DUP6 DUP2 AND PUSH1 0x20 DUP4 ADD MSTORE DUP5 AND PUSH1 0x40 DUP3 ADD MSTORE PUSH1 0x60 DUP2 ADD DUP4 SWAP1 MSTORE PUSH1 0xA0 PUSH1 0x80 DUP3 ADD DUP2 SWAP1 MSTORE PUSH0 SWAP1 PUSH2 0x8DB SWAP1 DUP4 ADD DUP5 PUSH2 0xC4C JUMP JUMPDEST DUP3 DUP2 MSTORE PUSH1 0x40 PUSH1 0x20 DUP3 ADD MSTORE PUSH0 PUSH2 0xD70 PUSH1 0x40 DUP4 ADD DUP5 PUSH2 0xC4C JUMP JUMPDEST SWAP5 SWAP4 POP POP POP POP JUMP JUMPDEST PUSH0 PUSH1 0x20 DUP3 DUP5 SUB SLT ISZERO PUSH2 0xD88 JUMPI PUSH0 PUSH0 REVERT JUMPDEST DUP2 MLOAD PUSH1 0x1 PUSH1 0x1 PUSH1 0x40 SHL SUB DUP2 GT ISZERO PUSH2 0xD9D JUMPI PUSH0 PUSH0 REVERT JUMPDEST PUSH2 0xD70 DUP5 DUP3 DUP6 ADD PUSH2 0x92A JUMP JUMPDEST PUSH2 0x2952 DUP1 PUSH2 0xDB6 PUSH0 CODECOPY PUSH0 RETURN INVALID PUSH1 0x80 PUSH1 0x40 MSTORE PUSH1 0x4 CALLDATASIZE LT PUSH2 0x143 JUMPI PUSH0 CALLDATALOAD PUSH1 0xE0 SHR DUP1 PUSH4 0x715018A6 GT PUSH2 0xB5 JUMPI DUP1 PUSH4 0xA3B261F2 GT PUSH2 0x6E JUMPI DUP1 PUSH4 0xA3B261F2 EQ PUSH2 0x41A JUMPI DUP1 PUSH4 0xBE9F0E6F EQ PUSH2 0x446 JUMPI DUP1 PUSH4 0xD6C1407C EQ PUSH2 0x465 JUMPI DUP1 PUSH4 0xDB8C9663 EQ PUSH2 0x484 JUMPI DUP1 PUSH4 0xDEDFF9C6 EQ PUSH2 0x4A3 JUMPI DUP1 PUSH4 0xF2FDE38B EQ PUSH2 0x4C2 JUMPI PUSH2 0x19C JUMP JUMPDEST DUP1 PUSH4 0x715018A6 EQ PUSH2 0x386 JUMPI DUP1 PUSH4 0x7E87632C EQ PUSH2 0x39A JUMPI DUP1 PUSH4 0x7F23690C EQ PUSH2 0x3B9 JUMPI DUP1 PUSH4 0x86A10DDD EQ PUSH2 0x3CC JUMPI DUP1 PUSH4 0x8DA5CB5B EQ PUSH2 0x3EB JUMPI DUP1 PUSH4 0x97902421 EQ PUSH2 0x407 JUMPI PUSH2 0x19C JUMP JUMPDEST DUP1 PUSH4 0x2A3654A4 GT PUSH2 0x107 JUMPI DUP1 PUSH4 0x2A3654A4 EQ PUSH2 0x2BD JUMPI DUP1 PUSH4 0x49A6078D EQ PUSH2 0x2DC JUMPI DUP1 PUSH4 0x511B6952 EQ PUSH2 0x308 JUMPI DUP1 PUSH4 0x54F6127F EQ PUSH2 0x329 JUMPI DUP1 PUSH4 0x6963D438 EQ PUSH2 0x348 JUMPI DUP1 PUSH4 0x70A08231 EQ PUSH2 0x367 JUMPI PUSH2 0x19C JUMP JUMPDEST DUP1 PUSH4 0x1FFC9A7 EQ PUSH2 0x1DC JUMPI DUP1 PUSH4 0x16E023B3 EQ PUSH2 0x210 JUMPI DUP1 PUSH4 0x18160DDD EQ PUSH2 0x23C JUMPI DUP1 PUSH4 0x1D26FCE6 EQ PUSH2 0x25A JUMPI DUP1 PUSH4 0x217B2270 EQ PUSH2 0x286 JUMPI PUSH2 0x19C JUMP JUMPDEST CALLDATASIZE PUSH2 0x19C JUMPI CALLVALUE PUSH0 SUB PUSH2 0x183 JUMPI PUSH1 0x40 MLOAD PUSH4 0xE5099EE3 PUSH1 0xE0 SHL DUP2 MSTORE PUSH1 0x4 ADD PUSH2 0x17A SWAP1 PUSH1 0x20 DUP1 DUP3 MSTORE PUSH1 0x4 SWAP1 DUP3 ADD MSTORE PUSH0 PUSH1 0x40 DUP3 ADD MSTORE PUSH1 0x60 ADD SWAP1 JUMP JUMPDEST PUSH1 0x40 MLOAD DUP1 SWAP2 SUB SWAP1 REVERT JUMPDEST PUSH1 0x40 MLOAD PUSH4 0x30FA4A21 PUSH1 0xE1 SHL DUP2 MSTORE PUSH1 0x4 ADD PUSH1 0x40 MLOAD DUP1 SWAP2 SUB SWAP1 REVERT JUMPDEST PUSH0 CALLDATASIZE PUSH1 0x60 PUSH1 0x4 DUP3 LT ISZERO PUSH2 0x1C6 JUMPI DUP3 DUP3 PUSH1 0x40 MLOAD PUSH4 0xE5099EE3 PUSH1 0xE0 SHL DUP2 MSTORE PUSH1 0x4 ADD PUSH2 0x17A SWAP3 SWAP2 SWAP1 PUSH2 0x1C6A JUMP JUMPDEST PUSH2 0x1D0 DUP4 DUP4 PUSH2 0x4E1 JUMP JUMPDEST DUP1 MLOAD SWAP4 POP PUSH1 0x20 ADD SWAP2 POP POP RETURN JUMPDEST CALLVALUE DUP1 ISZERO PUSH2 0x1E7 JUMPI PUSH0 PUSH0 REVERT JUMPDEST POP PUSH2 0x1FB PUSH2 0x1F6 CALLDATASIZE PUSH1 0x4 PUSH2 0x1C98 JUMP JUMPDEST PUSH2 0x5D0 JUMP JUMPDEST PUSH1 0x40 MLOAD SWAP1 ISZERO ISZERO DUP2 MSTORE PUSH1 0x20 ADD JUMPDEST PUSH1 0x40 MLOAD DUP1 SWAP2 SUB SWAP1 RETURN JUMPDEST CALLVALUE DUP1 ISZERO PUSH2 0x21B JUMPI PUSH0 PUSH0 REVERT JUMPDEST POP PUSH2 0x22F PUSH2 0x22A CALLDATASIZE PUSH1 0x4 PUSH2 0x1CBF JUMP JUMPDEST PUSH2 0x603 JUMP JUMPDEST PUSH1 0x40 MLOAD PUSH2 0x207 SWAP2 SWAP1 PUSH2 0x1D0D JUMP JUMPDEST CALLVALUE DUP1 ISZERO PUSH2 0x247 JUMPI PUSH0 PUSH0 REVERT JUMPDEST POP PUSH1 0x2 SLOAD JUMPDEST PUSH1 0x40 MLOAD SWAP1 DUP2 MSTORE PUSH1 0x20 ADD PUSH2 0x207 JUMP JUMPDEST CALLVALUE DUP1 ISZERO PUSH2 0x265 JUMPI PUSH0 PUSH0 REVERT JUMPDEST POP PUSH2 0x279 PUSH2 0x274 CALLDATASIZE PUSH1 0x4 PUSH2 0x1DEF JUMP JUMPDEST PUSH2 0x616 JUMP JUMPDEST PUSH1 0x40 MLOAD PUSH2 0x207 SWAP2 SWAP1 PUSH2 0x1E52 JUMP JUMPDEST CALLVALUE DUP1 ISZERO PUSH2 0x291 JUMPI PUSH0 PUSH0 REVERT JUMPDEST POP PUSH2 0x2A5 PUSH2 0x2A0 CALLDATASIZE PUSH1 0x4 PUSH2 0x1EB5 JUMP JUMPDEST PUSH2 0x6FC JUMP JUMPDEST PUSH1 0x40 MLOAD PUSH1 0x1 PUSH1 0x1 PUSH1 0xA0 SHL SUB SWAP1 SWAP2 AND DUP2 MSTORE PUSH1 0x20 ADD PUSH2 0x207 JUMP JUMPDEST CALLVALUE DUP1 ISZERO PUSH2 0x2C8 JUMPI PUSH0 PUSH0 REVERT JUMPDEST POP PUSH2 0x1FB PUSH2 0x2D7 CALLDATASIZE PUSH1 0x4 PUSH2 0x1EE7 JUMP JUMPDEST PUSH2 0x734 JUMP JUMPDEST CALLVALUE DUP1 ISZERO PUSH2 0x2E7 JUMPI PUSH0 PUSH0 REVERT JUMPDEST POP PUSH2 0x2FB PUSH2 0x2F6 CALLDATASIZE PUSH1 0x4 PUSH2 0x1EB5 JUMP JUMPDEST PUSH2 0x73F JUMP JUMPDEST PUSH1 0x40 MLOAD PUSH2 0x207 SWAP2 SWAP1 PUSH2 0x1F0F JUMP JUMPDEST CALLVALUE DUP1 ISZERO PUSH2 0x313 JUMPI PUSH0 PUSH0 REVERT JUMPDEST POP PUSH2 0x327 PUSH2 0x322 CALLDATASIZE PUSH1 0x4 PUSH2 0x1FDC JUMP JUMPDEST PUSH2 0x760 JUMP JUMPDEST STOP JUMPDEST CALLVALUE DUP1 ISZERO PUSH2 0x334 JUMPI PUSH0 PUSH0 REVERT JUMPDEST POP PUSH2 0x22F PUSH2 0x343 CALLDATASIZE PUSH1 0x4 PUSH2 0x1EB5 JUMP JUMPDEST PUSH2 0x7A4 JUMP JUMPDEST CALLVALUE DUP1 ISZERO PUSH2 0x353 JUMPI PUSH0 PUSH0 REVERT JUMPDEST POP PUSH2 0x279 PUSH2 0x362 CALLDATASIZE PUSH1 0x4 PUSH2 0x204F JUMP JUMPDEST PUSH2 0x7AF JUMP JUMPDEST CALLVALUE DUP1 ISZERO PUSH2 0x372 JUMPI PUSH0 PUSH0 REVERT JUMPDEST POP PUSH2 0x24C PUSH2 0x381 CALLDATASIZE PUSH1 0x4 PUSH2 0x20BE JUMP JUMPDEST PUSH2 0x8D9 JUMP JUMPDEST CALLVALUE DUP1 ISZERO PUSH2 0x391 JUMPI PUSH0 PUSH0 REVERT JUMPDEST POP PUSH2 0x327 PUSH2 0x8F9 JUMP JUMPDEST CALLVALUE DUP1 ISZERO PUSH2 0x3A5 JUMPI PUSH0 PUSH0 REVERT JUMPDEST POP PUSH2 0x327 PUSH2 0x3B4 CALLDATASIZE PUSH1 0x4 PUSH2 0x2219 JUMP JUMPDEST PUSH2 0x90C JUMP JUMPDEST PUSH2 0x327 PUSH2 0x3C7 CALLDATASIZE PUSH1 0x4 PUSH2 0x22EA JUMP JUMPDEST PUSH2 0x9FA JUMP JUMPDEST CALLVALUE DUP1 ISZERO PUSH2 0x3D7 JUMPI PUSH0 PUSH0 REVERT JUMPDEST POP PUSH2 0x327 PUSH2 0x3E6 CALLDATASIZE PUSH1 0x4 PUSH2 0x2323 JUMP JUMPDEST PUSH2 0xA2F JUMP JUMPDEST CALLVALUE DUP1 ISZERO PUSH2 0x3F6 JUMPI PUSH0 PUSH0 REVERT JUMPDEST POP PUSH0 SLOAD PUSH1 0x1 PUSH1 0x1 PUSH1 0xA0 SHL SUB AND PUSH2 0x2A5 JUMP JUMPDEST PUSH2 0x327 PUSH2 0x415 CALLDATASIZE PUSH1 0x4 PUSH2 0x2375 JUMP JUMPDEST PUSH2 0xBA6 JUMP JUMPDEST CALLVALUE DUP1 ISZERO PUSH2 0x425 JUMPI PUSH0 PUSH0 REVERT JUMPDEST POP PUSH2 0x439 PUSH2 0x434 CALLDATASIZE PUSH1 0x4 PUSH2 0x20BE JUMP JUMPDEST PUSH2 0xBD7 JUMP JUMPDEST PUSH1 0x40 MLOAD PUSH2 0x207 SWAP2 SWAP1 PUSH2 0x23CE JUMP JUMPDEST CALLVALUE DUP1 ISZERO PUSH2 0x451 JUMPI PUSH0 PUSH0 REVERT JUMPDEST POP PUSH2 0x327 PUSH2 0x460 CALLDATASIZE PUSH1 0x4 PUSH2 0x2405 JUMP JUMPDEST PUSH2 0xBFA JUMP JUMPDEST CALLVALUE DUP1 ISZERO PUSH2 0x470 JUMPI PUSH0 PUSH0 REVERT JUMPDEST POP PUSH2 0x327 PUSH2 0x47F CALLDATASIZE PUSH1 0x4 PUSH2 0x2486 JUMP JUMPDEST PUSH2 0xCC3 JUMP JUMPDEST CALLVALUE DUP1 ISZERO PUSH2 0x48F JUMPI PUSH0 PUSH0 REVERT JUMPDEST POP PUSH2 0x327 PUSH2 0x49E CALLDATASIZE PUSH1 0x4 PUSH2 0x24BB JUMP JUMPDEST PUSH2 0xCDB JUMP JUMPDEST CALLVALUE DUP1 ISZERO PUSH2 0x4AE JUMPI PUSH0 PUSH0 REVERT JUMPDEST POP PUSH2 0x279 PUSH2 0x4BD CALLDATASIZE PUSH1 0x4 PUSH2 0x251E JUMP JUMPDEST PUSH2 0xDBC JUMP JUMPDEST CALLVALUE DUP1 ISZERO PUSH2 0x4CD JUMPI PUSH0 PUSH0 REVERT JUMPDEST POP PUSH2 0x327 PUSH2 0x4DC CALLDATASIZE PUSH1 0x4 PUSH2 0x20BE JUMP JUMPDEST PUSH2 0xE65 JUMP JUMPDEST PUSH1 0x60 PUSH0 PUSH2 0x4F8 PUSH0 CALLDATALOAD PUSH1 0x1 PUSH1 0x1 PUSH1 0xE0 SHL SUB NOT AND PUSH2 0xEDE JUMP JUMPDEST POP SWAP1 POP PUSH1 0x1 PUSH1 0x1 PUSH1 0xA0 SHL SUB DUP2 AND PUSH2 0x52F JUMPI PUSH1 0x40 MLOAD PUSH4 0xBB370B2B PUSH1 0xE0 SHL DUP2 MSTORE PUSH1 0x1 PUSH1 0x1 PUSH1 0xE0 SHL SUB NOT PUSH0 CALLDATALOAD AND PUSH1 0x4 DUP3 ADD MSTORE PUSH1 0x24 ADD PUSH2 0x17A JUMP JUMPDEST PUSH0 PUSH0 DUP3 PUSH1 0x1 PUSH1 0x1 PUSH1 0xA0 SHL SUB AND CALLVALUE DUP8 DUP8 CALLER CALLVALUE PUSH1 0x40 MLOAD PUSH1 0x20 ADD PUSH2 0x553 SWAP5 SWAP4 SWAP3 SWAP2 SWAP1 PUSH2 0x254F JUMP JUMPDEST PUSH1 0x40 DUP1 MLOAD PUSH1 0x1F NOT DUP2 DUP5 SUB ADD DUP2 MSTORE SWAP1 DUP3 SWAP1 MSTORE PUSH2 0x56D SWAP2 PUSH2 0x257A JUMP JUMPDEST PUSH0 PUSH1 0x40 MLOAD DUP1 DUP4 SUB DUP2 DUP6 DUP8 GAS CALL SWAP3 POP POP POP RETURNDATASIZE DUP1 PUSH0 DUP2 EQ PUSH2 0x5A7 JUMPI PUSH1 0x40 MLOAD SWAP2 POP PUSH1 0x1F NOT PUSH1 0x3F RETURNDATASIZE ADD AND DUP3 ADD PUSH1 0x40 MSTORE RETURNDATASIZE DUP3 MSTORE RETURNDATASIZE PUSH0 PUSH1 0x20 DUP5 ADD RETURNDATACOPY PUSH2 0x5AC JUMP JUMPDEST PUSH1 0x60 SWAP2 POP JUMPDEST POP SWAP2 POP SWAP2 POP DUP2 ISZERO PUSH2 0x5C1 JUMPI SWAP3 POP PUSH2 0x5CA SWAP2 POP POP JUMP JUMPDEST DUP1 MLOAD DUP1 PUSH1 0x20 DUP4 ADD REVERT JUMPDEST SWAP3 SWAP2 POP POP JUMP JUMPDEST PUSH0 PUSH1 0x1 PUSH1 0x1 PUSH1 0xE0 SHL SUB NOT DUP3 AND PUSH4 0x1D138B83 PUSH1 0xE1 SHL EQ DUP1 PUSH2 0x5F4 JUMPI POP PUSH2 0x5F4 DUP3 PUSH2 0xF5A JUMP JUMPDEST DUP1 PUSH2 0x5CA JUMPI POP PUSH2 0x5CA DUP3 PUSH2 0xF7E JUMP JUMPDEST PUSH1 0x60 PUSH2 0x60F DUP4 DUP4 PUSH2 0xFB3 JUMP JUMPDEST SWAP4 SWAP3 POP POP POP JUMP JUMPDEST PUSH1 0x60 DUP2 MLOAD DUP4 MLOAD EQ PUSH2 0x63A JUMPI PUSH1 0x40 MLOAD PUSH4 0x17D38EFF PUSH1 0xE1 SHL DUP2 MSTORE PUSH1 0x4 ADD PUSH1 0x40 MLOAD DUP1 SWAP2 SUB SWAP1 REVERT JUMPDEST DUP3 MLOAD PUSH1 0x1 PUSH1 0x1 PUSH1 0x40 SHL SUB DUP2 GT ISZERO PUSH2 0x653 JUMPI PUSH2 0x653 PUSH2 0x1D1F JUMP JUMPDEST PUSH1 0x40 MLOAD SWAP1 DUP1 DUP3 MSTORE DUP1 PUSH1 0x20 MUL PUSH1 0x20 ADD DUP3 ADD PUSH1 0x40 MSTORE DUP1 ISZERO PUSH2 0x686 JUMPI DUP2 PUSH1 0x20 ADD JUMPDEST PUSH1 0x60 DUP2 MSTORE PUSH1 0x20 ADD SWAP1 PUSH1 0x1 SWAP1 SUB SWAP1 DUP2 PUSH2 0x671 JUMPI SWAP1 POP JUMPDEST POP SWAP1 POP PUSH0 JUMPDEST DUP4 MLOAD DUP2 LT ISZERO PUSH2 0x6F5 JUMPI PUSH2 0x6D0 DUP5 DUP3 DUP2 MLOAD DUP2 LT PUSH2 0x6A9 JUMPI PUSH2 0x6A9 PUSH2 0x2590 JUMP JUMPDEST PUSH1 0x20 MUL PUSH1 0x20 ADD ADD MLOAD DUP5 DUP4 DUP2 MLOAD DUP2 LT PUSH2 0x6C3 JUMPI PUSH2 0x6C3 PUSH2 0x2590 JUMP JUMPDEST PUSH1 0x20 MUL PUSH1 0x20 ADD ADD MLOAD PUSH2 0xFB3 JUMP JUMPDEST DUP3 DUP3 DUP2 MLOAD DUP2 LT PUSH2 0x6E2 JUMPI PUSH2 0x6E2 PUSH2 0x2590 JUMP JUMPDEST PUSH1 0x20 SWAP1 DUP2 MUL SWAP2 SWAP1 SWAP2 ADD ADD MSTORE PUSH1 0x1 ADD PUSH2 0x68B JUMP JUMPDEST POP SWAP3 SWAP2 POP POP JUMP JUMPDEST PUSH0 DUP2 DUP2 MSTORE PUSH1 0x3 PUSH1 0x20 MSTORE PUSH1 0x40 DUP2 KECCAK256 SLOAD PUSH1 0x1 PUSH1 0x1 PUSH1 0xA0 SHL SUB AND DUP1 PUSH2 0x5CA JUMPI PUSH1 0x40 MLOAD PUSH4 0x5747CD1B PUSH1 0xE1 SHL DUP2 MSTORE PUSH1 0x4 DUP2 ADD DUP5 SWAP1 MSTORE PUSH1 0x24 ADD PUSH2 0x17A JUMP JUMPDEST PUSH0 PUSH2 0x60F DUP4 DUP4 PUSH2 0x1086 JUMP JUMPDEST PUSH1 0x60 PUSH2 0x74A DUP3 PUSH2 0x10C1 JUMP JUMPDEST PUSH0 DUP3 DUP2 MSTORE PUSH1 0x5 PUSH1 0x20 MSTORE PUSH1 0x40 SWAP1 KECCAK256 PUSH2 0x5CA SWAP1 PUSH2 0x10F8 JUMP JUMPDEST PUSH2 0x76A CALLER DUP5 PUSH2 0x1086 JUMP JUMPDEST PUSH2 0x790 JUMPI PUSH1 0x40 MLOAD PUSH4 0x1294D2A9 PUSH1 0xE0 SHL DUP2 MSTORE PUSH1 0x4 DUP2 ADD DUP5 SWAP1 MSTORE CALLER PUSH1 0x24 DUP3 ADD MSTORE PUSH1 0x44 ADD PUSH2 0x17A JUMP JUMPDEST PUSH2 0x79D DUP6 DUP6 DUP6 DUP6 DUP6 PUSH2 0x1104 JUMP JUMPDEST POP POP POP POP POP JUMP JUMPDEST PUSH1 0x60 PUSH2 0x5CA DUP3 PUSH2 0x12E0 JUMP JUMPDEST PUSH1 0x60 DUP2 PUSH1 0x1 PUSH1 0x1 PUSH1 0x40 SHL SUB DUP2 GT ISZERO PUSH2 0x7C9 JUMPI PUSH2 0x7C9 PUSH2 0x1D1F JUMP JUMPDEST PUSH1 0x40 MLOAD SWAP1 DUP1 DUP3 MSTORE DUP1 PUSH1 0x20 MUL PUSH1 0x20 ADD DUP3 ADD PUSH1 0x40 MSTORE DUP1 ISZERO PUSH2 0x7FC JUMPI DUP2 PUSH1 0x20 ADD JUMPDEST PUSH1 0x60 DUP2 MSTORE PUSH1 0x20 ADD SWAP1 PUSH1 0x1 SWAP1 SUB SWAP1 DUP2 PUSH2 0x7E7 JUMPI SWAP1 POP JUMPDEST POP SWAP1 POP PUSH0 JUMPDEST DUP3 DUP2 LT ISZERO PUSH2 0x6F5 JUMPI PUSH0 DUP1 ADDRESS DUP7 DUP7 DUP6 DUP2 DUP2 LT PUSH2 0x81E JUMPI PUSH2 0x81E PUSH2 0x2590 JUMP JUMPDEST SWAP1 POP PUSH1 0x20 MUL DUP2 ADD SWAP1 PUSH2 0x830 SWAP2 SWAP1 PUSH2 0x25A4 JUMP JUMPDEST PUSH1 0x40 MLOAD PUSH2 0x83E SWAP3 SWAP2 SWAP1 PUSH2 0x25ED JUMP JUMPDEST PUSH0 PUSH1 0x40 MLOAD DUP1 DUP4 SUB DUP2 DUP6 GAS DELEGATECALL SWAP2 POP POP RETURNDATASIZE DUP1 PUSH0 DUP2 EQ PUSH2 0x876 JUMPI PUSH1 0x40 MLOAD SWAP2 POP PUSH1 0x1F NOT PUSH1 0x3F RETURNDATASIZE ADD AND DUP3 ADD PUSH1 0x40 MSTORE RETURNDATASIZE DUP3 MSTORE RETURNDATASIZE PUSH0 PUSH1 0x20 DUP5 ADD RETURNDATACOPY PUSH2 0x87B JUMP JUMPDEST PUSH1 0x60 SWAP2 POP JUMPDEST POP SWAP2 POP SWAP2 POP DUP2 PUSH2 0x8B1 JUMPI DUP1 MLOAD ISZERO PUSH2 0x895 JUMPI DUP1 MLOAD DUP1 DUP3 PUSH1 0x20 ADD REVERT JUMPDEST PUSH1 0x40 MLOAD PUSH4 0x234EB819 PUSH1 0xE0 SHL DUP2 MSTORE PUSH1 0x4 DUP2 ADD DUP5 SWAP1 MSTORE PUSH1 0x24 ADD PUSH2 0x17A JUMP JUMPDEST DUP1 DUP5 DUP5 DUP2 MLOAD DUP2 LT PUSH2 0x8C4 JUMPI PUSH2 0x8C4 PUSH2 0x2590 JUMP JUMPDEST PUSH1 0x20 SWAP1 DUP2 MUL SWAP2 SWAP1 SWAP2 ADD ADD MSTORE POP POP PUSH1 0x1 ADD PUSH2 0x801 JUMP JUMPDEST PUSH1 0x1 PUSH1 0x1 PUSH1 0xA0 SHL SUB DUP2 AND PUSH0 SWAP1 DUP2 MSTORE PUSH1 0x4 PUSH1 0x20 MSTORE PUSH1 0x40 DUP2 KECCAK256 PUSH2 0x5CA SWAP1 PUSH2 0x137F JUMP JUMPDEST PUSH2 0x901 PUSH2 0x1388 JUMP JUMPDEST PUSH2 0x90A PUSH0 PUSH2 0x13E1 JUMP JUMPDEST JUMP JUMPDEST DUP5 MLOAD DUP5 MLOAD DUP2 EQ ISZERO DUP1 PUSH2 0x91F JUMPI POP DUP4 MLOAD DUP2 EQ ISZERO JUMPDEST DUP1 PUSH2 0x92B JUMPI POP DUP3 MLOAD DUP2 EQ ISZERO JUMPDEST DUP1 PUSH2 0x937 JUMPI POP DUP2 MLOAD DUP2 EQ ISZERO JUMPDEST ISZERO PUSH2 0x955 JUMPI PUSH1 0x40 MLOAD PUSH4 0x93A83119 PUSH1 0xE0 SHL DUP2 MSTORE PUSH1 0x4 ADD PUSH1 0x40 MLOAD DUP1 SWAP2 SUB SWAP1 REVERT JUMPDEST PUSH0 JUMPDEST DUP2 DUP2 LT ISZERO PUSH2 0x9F1 JUMPI PUSH2 0x9E9 DUP8 DUP3 DUP2 MLOAD DUP2 LT PUSH2 0x974 JUMPI PUSH2 0x974 PUSH2 0x2590 JUMP JUMPDEST PUSH1 0x20 MUL PUSH1 0x20 ADD ADD MLOAD DUP8 DUP4 DUP2 MLOAD DUP2 LT PUSH2 0x98E JUMPI PUSH2 0x98E PUSH2 0x2590 JUMP JUMPDEST PUSH1 0x20 MUL PUSH1 0x20 ADD ADD MLOAD DUP8 DUP5 DUP2 MLOAD DUP2 LT PUSH2 0x9A8 JUMPI PUSH2 0x9A8 PUSH2 0x2590 JUMP JUMPDEST PUSH1 0x20 MUL PUSH1 0x20 ADD ADD MLOAD DUP8 DUP6 DUP2 MLOAD DUP2 LT PUSH2 0x9C2 JUMPI PUSH2 0x9C2 PUSH2 0x2590 JUMP JUMPDEST PUSH1 0x20 MUL PUSH1 0x20 ADD ADD MLOAD DUP8 DUP7 DUP2 MLOAD DUP2 LT PUSH2 0x9DC JUMPI PUSH2 0x9DC PUSH2 0x2590 JUMP JUMPDEST PUSH1 0x20 MUL PUSH1 0x20 ADD ADD MLOAD PUSH2 0x760 JUMP JUMPDEST PUSH1 0x1 ADD PUSH2 0x957 JUMP JUMPDEST POP POP POP POP POP POP POP JUMP JUMPDEST PUSH2 0xA02 PUSH2 0x1388 JUMP JUMPDEST CALLVALUE ISZERO PUSH2 0xA21 JUMPI PUSH1 0x40 MLOAD PUSH4 0xF36BA737 PUSH1 0xE0 SHL DUP2 MSTORE PUSH1 0x4 ADD PUSH1 0x40 MLOAD DUP1 SWAP2 SUB SWAP1 REVERT JUMPDEST PUSH2 0xA2B DUP3 DUP3 PUSH2 0x1430 JUMP JUMPDEST POP POP JUMP JUMPDEST PUSH0 PUSH2 0xA39 DUP4 PUSH2 0x6FC JUMP JUMPDEST SWAP1 POP PUSH1 0x1 PUSH1 0x1 PUSH1 0xA0 SHL SUB DUP2 AND CALLER EQ PUSH2 0xA7C JUMPI PUSH1 0x40 MLOAD PUSH4 0x2D938F51 PUSH1 0xE1 SHL DUP2 MSTORE PUSH1 0x1 PUSH1 0x1 PUSH1 0xA0 SHL SUB DUP3 AND PUSH1 0x4 DUP3 ADD MSTORE PUSH1 0x24 DUP2 ADD DUP5 SWAP1 MSTORE CALLER PUSH1 0x44 DUP3 ADD MSTORE PUSH1 0x64 ADD PUSH2 0x17A JUMP JUMPDEST PUSH1 0x1 PUSH1 0x1 PUSH1 0xA0 SHL SUB DUP5 AND PUSH2 0xAA3 JUMPI PUSH1 0x40 MLOAD PUSH4 0x9577B8B3 PUSH1 0xE0 SHL DUP2 MSTORE PUSH1 0x4 ADD PUSH1 0x40 MLOAD DUP1 SWAP2 SUB SWAP1 REVERT JUMPDEST DUP4 PUSH1 0x1 PUSH1 0x1 PUSH1 0xA0 SHL SUB AND DUP2 PUSH1 0x1 PUSH1 0x1 PUSH1 0xA0 SHL SUB AND SUB PUSH2 0xAD5 JUMPI PUSH1 0x40 MLOAD PUSH4 0x44FED6B1 PUSH1 0xE1 SHL DUP2 MSTORE PUSH1 0x4 ADD PUSH1 0x40 MLOAD DUP1 SWAP2 SUB SWAP1 REVERT JUMPDEST PUSH0 DUP4 DUP2 MSTORE PUSH1 0x5 PUSH1 0x20 MSTORE PUSH1 0x40 DUP2 KECCAK256 PUSH2 0xAEC SWAP1 DUP7 PUSH2 0x147A JUMP JUMPDEST SWAP1 POP DUP1 PUSH2 0xB1E JUMPI PUSH1 0x40 MLOAD PUSH4 0x14EC4D6D PUSH1 0xE3 SHL DUP2 MSTORE PUSH1 0x1 PUSH1 0x1 PUSH1 0xA0 SHL SUB DUP7 AND PUSH1 0x4 DUP3 ADD MSTORE PUSH1 0x24 DUP2 ADD DUP6 SWAP1 MSTORE PUSH1 0x44 ADD PUSH2 0x17A JUMP JUMPDEST DUP4 DUP3 PUSH1 0x1 PUSH1 0x1 PUSH1 0xA0 SHL SUB AND DUP7 PUSH1 0x1 PUSH1 0x1 PUSH1 0xA0 SHL SUB AND PUSH32 0x1B1B58AA2EC0CEC2228B2D37124556D41F5A1F7B12F089171F896CC236671215 DUP7 PUSH1 0x40 MLOAD PUSH2 0xB62 SWAP2 SWAP1 PUSH2 0x1D0D JUMP JUMPDEST PUSH1 0x40 MLOAD DUP1 SWAP2 SUB SWAP1 LOG4 PUSH0 CALLER DUP6 PUSH1 0x1 DUP7 PUSH1 0x40 MLOAD PUSH1 0x20 ADD PUSH2 0xB83 SWAP5 SWAP4 SWAP3 SWAP2 SWAP1 PUSH2 0x25FC JUMP JUMPDEST PUSH1 0x40 MLOAD PUSH1 0x20 DUP2 DUP4 SUB SUB DUP2 MSTORE SWAP1 PUSH1 0x40 MSTORE SWAP1 POP PUSH2 0xB9E DUP7 DUP3 PUSH2 0x148E JUMP JUMPDEST POP POP POP POP POP POP JUMP JUMPDEST PUSH2 0xBAE PUSH2 0x1388 JUMP JUMPDEST CALLVALUE ISZERO PUSH2 0xBCD JUMPI PUSH1 0x40 MLOAD PUSH4 0xF36BA737 PUSH1 0xE0 SHL DUP2 MSTORE PUSH1 0x4 ADD PUSH1 0x40 MLOAD DUP1 SWAP2 SUB SWAP1 REVERT JUMPDEST PUSH2 0xA2B DUP3 DUP3 PUSH2 0x14B9 JUMP JUMPDEST PUSH1 0x1 PUSH1 0x1 PUSH1 0xA0 SHL SUB DUP2 AND PUSH0 SWAP1 DUP2 MSTORE PUSH1 0x4 PUSH1 0x20 MSTORE PUSH1 0x40 SWAP1 KECCAK256 PUSH1 0x60 SWAP1 PUSH2 0x5CA SWAP1 PUSH2 0x10F8 JUMP JUMPDEST PUSH2 0xC02 PUSH2 0x1388 JUMP JUMPDEST DUP2 MLOAD DUP4 MLOAD EQ ISZERO DUP1 PUSH2 0xC15 JUMPI POP DUP1 MLOAD DUP3 MLOAD EQ ISZERO JUMPDEST ISZERO PUSH2 0xC33 JUMPI PUSH1 0x40 MLOAD PUSH4 0x17D38EFF PUSH1 0xE1 SHL DUP2 MSTORE PUSH1 0x4 ADD PUSH1 0x40 MLOAD DUP1 SWAP2 SUB SWAP1 REVERT JUMPDEST DUP3 MLOAD PUSH0 SUB PUSH2 0xC54 JUMPI PUSH1 0x40 MLOAD PUSH4 0x80C98305 PUSH1 0xE0 SHL DUP2 MSTORE PUSH1 0x4 ADD PUSH1 0x40 MLOAD DUP1 SWAP2 SUB SWAP1 REVERT JUMPDEST PUSH0 JUMPDEST DUP4 MLOAD DUP2 LT ISZERO PUSH2 0xCBD JUMPI PUSH2 0xCB5 DUP5 DUP3 DUP2 MLOAD DUP2 LT PUSH2 0xC74 JUMPI PUSH2 0xC74 PUSH2 0x2590 JUMP JUMPDEST PUSH1 0x20 MUL PUSH1 0x20 ADD ADD MLOAD DUP5 DUP4 DUP2 MLOAD DUP2 LT PUSH2 0xC8E JUMPI PUSH2 0xC8E PUSH2 0x2590 JUMP JUMPDEST PUSH1 0x20 MUL PUSH1 0x20 ADD ADD MLOAD DUP5 DUP5 DUP2 MLOAD DUP2 LT PUSH2 0xCA8 JUMPI PUSH2 0xCA8 PUSH2 0x2590 JUMP JUMPDEST PUSH1 0x20 MUL PUSH1 0x20 ADD ADD MLOAD PUSH2 0x154B JUMP JUMPDEST PUSH1 0x1 ADD PUSH2 0xC56 JUMP JUMPDEST POP POP POP POP JUMP JUMPDEST PUSH2 0xCCB PUSH2 0x1388 JUMP JUMPDEST PUSH2 0xCD6 DUP4 DUP4 DUP4 PUSH2 0x154B JUMP JUMPDEST POP POP POP JUMP JUMPDEST PUSH0 PUSH2 0xCE5 DUP5 PUSH2 0x6FC JUMP JUMPDEST SWAP1 POP CALLER PUSH1 0x1 PUSH1 0x1 PUSH1 0xA0 SHL SUB DUP3 AND EQ PUSH2 0xD38 JUMPI PUSH1 0x1 PUSH1 0x1 PUSH1 0xA0 SHL SUB DUP6 AND CALLER EQ PUSH2 0xD38 JUMPI PUSH1 0x40 MLOAD PUSH4 0x760B5ACD PUSH1 0xE0 SHL DUP2 MSTORE CALLER PUSH1 0x4 DUP3 ADD MSTORE PUSH1 0x1 PUSH1 0x1 PUSH1 0xA0 SHL SUB DUP3 AND PUSH1 0x24 DUP3 ADD MSTORE PUSH1 0x44 DUP2 ADD DUP6 SWAP1 MSTORE PUSH1 0x64 ADD PUSH2 0x17A JUMP JUMPDEST PUSH1 0x1 PUSH1 0x1 PUSH1 0xA0 SHL SUB DUP6 AND PUSH2 0xD5F JUMPI PUSH1 0x40 MLOAD PUSH4 0x9577B8B3 PUSH1 0xE0 SHL DUP2 MSTORE PUSH1 0x4 ADD PUSH1 0x40 MLOAD DUP1 SWAP2 SUB SWAP1 REVERT JUMPDEST DUP5 PUSH1 0x1 PUSH1 0x1 PUSH1 0xA0 SHL SUB AND DUP2 PUSH1 0x1 PUSH1 0x1 PUSH1 0xA0 SHL SUB AND SUB PUSH2 0xD91 JUMPI PUSH1 0x40 MLOAD PUSH4 0x44FED6B1 PUSH1 0xE1 SHL DUP2 MSTORE PUSH1 0x4 ADD PUSH1 0x40 MLOAD DUP1 SWAP2 SUB SWAP1 REVERT JUMPDEST PUSH2 0xD9E DUP6 DUP3 DUP7 DUP7 DUP7 PUSH2 0x15D9 JUMP JUMPDEST DUP3 ISZERO PUSH2 0x79D JUMPI PUSH0 DUP2 DUP6 PUSH0 DUP6 PUSH1 0x40 MLOAD PUSH1 0x20 ADD PUSH2 0xB83 SWAP5 SWAP4 SWAP3 SWAP2 SWAP1 PUSH2 0x25FC JUMP JUMPDEST PUSH1 0x60 DUP2 MLOAD PUSH1 0x1 PUSH1 0x1 PUSH1 0x40 SHL SUB DUP2 GT ISZERO PUSH2 0xDD7 JUMPI PUSH2 0xDD7 PUSH2 0x1D1F JUMP JUMPDEST PUSH1 0x40 MLOAD SWAP1 DUP1 DUP3 MSTORE DUP1 PUSH1 0x20 MUL PUSH1 0x20 ADD DUP3 ADD PUSH1 0x40 MSTORE DUP1 ISZERO PUSH2 0xE0A JUMPI DUP2 PUSH1 0x20 ADD JUMPDEST PUSH1 0x60 DUP2 MSTORE PUSH1 0x20 ADD SWAP1 PUSH1 0x1 SWAP1 SUB SWAP1 DUP2 PUSH2 0xDF5 JUMPI SWAP1 POP JUMPDEST POP SWAP1 POP PUSH0 JUMPDEST DUP3 MLOAD DUP2 LT ISZERO PUSH2 0xE5F JUMPI PUSH2 0xE3A DUP4 DUP3 DUP2 MLOAD DUP2 LT PUSH2 0xE2D JUMPI PUSH2 0xE2D PUSH2 0x2590 JUMP JUMPDEST PUSH1 0x20 MUL PUSH1 0x20 ADD ADD MLOAD PUSH2 0x12E0 JUMP JUMPDEST DUP3 DUP3 DUP2 MLOAD DUP2 LT PUSH2 0xE4C JUMPI PUSH2 0xE4C PUSH2 0x2590 JUMP JUMPDEST PUSH1 0x20 SWAP1 DUP2 MUL SWAP2 SWAP1 SWAP2 ADD ADD MSTORE PUSH1 0x1 ADD PUSH2 0xE0F JUMP JUMPDEST POP SWAP2 SWAP1 POP JUMP JUMPDEST PUSH2 0xE6D PUSH2 0x1388 JUMP JUMPDEST PUSH1 0x1 PUSH1 0x1 PUSH1 0xA0 SHL SUB DUP2 AND PUSH2 0xED2 JUMPI PUSH1 0x40 MLOAD PUSH3 0x461BCD PUSH1 0xE5 SHL DUP2 MSTORE PUSH1 0x20 PUSH1 0x4 DUP3 ADD MSTORE PUSH1 0x26 PUSH1 0x24 DUP3 ADD MSTORE PUSH32 0x4F776E61626C653A206E6577206F776E657220697320746865207A65726F2061 PUSH1 0x44 DUP3 ADD MSTORE PUSH6 0x646472657373 PUSH1 0xD0 SHL PUSH1 0x64 DUP3 ADD MSTORE PUSH1 0x84 ADD PUSH2 0x17A JUMP JUMPDEST PUSH2 0xEDB DUP2 PUSH2 0x13E1 JUMP JUMPDEST POP JUMP JUMPDEST PUSH0 DUP1 DUP1 PUSH2 0xF02 PUSH10 0x6773C5A04A6D4300884B PUSH1 0xB1 SHL PUSH1 0x1 PUSH1 0x1 PUSH1 0xE0 SHL SUB NOT DUP7 AND PUSH2 0x1678 JUMP JUMPDEST SWAP1 POP PUSH0 PUSH2 0xF0E DUP3 PUSH2 0x12E0 JUMP JUMPDEST SWAP1 POP DUP1 MLOAD PUSH1 0x14 EQ ISZERO DUP1 ISZERO PUSH2 0xF22 JUMPI POP DUP1 MLOAD ISZERO ISZERO JUMPDEST ISZERO PUSH2 0xF42 JUMPI DUP1 PUSH1 0x40 MLOAD PUSH4 0x42BFE79F PUSH1 0xE0 SHL DUP2 MSTORE PUSH1 0x4 ADD PUSH2 0x17A SWAP2 SWAP1 PUSH2 0x1D0D JUMP JUMPDEST PUSH2 0xF4B DUP2 PUSH2 0x2634 JUMP JUMPDEST PUSH1 0x60 SHR SWAP6 PUSH1 0x1 SWAP6 POP SWAP4 POP POP POP POP JUMP JUMPDEST PUSH0 PUSH1 0x1 PUSH1 0x1 PUSH1 0xE0 SHL SUB NOT DUP3 AND PUSH4 0xA918FA6B PUSH1 0xE0 SHL EQ DUP1 PUSH2 0x5CA JUMPI POP PUSH2 0x5CA DUP3 PUSH2 0x16CB JUMP JUMPDEST PUSH0 DUP1 PUSH2 0xF90 PUSH4 0x1FFC9A7 PUSH1 0xE0 SHL PUSH2 0xEDE JUMP JUMPDEST POP SWAP1 POP PUSH1 0x1 PUSH1 0x1 PUSH1 0xA0 SHL SUB DUP2 AND PUSH2 0xFA9 JUMPI POP PUSH0 SWAP3 SWAP2 POP POP JUMP JUMPDEST PUSH2 0x60F DUP2 DUP5 PUSH2 0x16FF JUMP JUMPDEST PUSH1 0x60 PUSH1 0x1 PUSH0 DUP5 DUP5 PUSH1 0x40 MLOAD PUSH1 0x20 ADD PUSH2 0xFD4 SWAP3 SWAP2 SWAP1 SWAP2 DUP3 MSTORE PUSH1 0x20 DUP3 ADD MSTORE PUSH1 0x40 ADD SWAP1 JUMP JUMPDEST PUSH1 0x40 MLOAD PUSH1 0x20 DUP2 DUP4 SUB SUB DUP2 MSTORE SWAP1 PUSH1 0x40 MSTORE DUP1 MLOAD SWAP1 PUSH1 0x20 ADD KECCAK256 DUP2 MSTORE PUSH1 0x20 ADD SWAP1 DUP2 MSTORE PUSH1 0x20 ADD PUSH0 KECCAK256 DUP1 SLOAD PUSH2 0x1002 SWAP1 PUSH2 0x2682 JUMP JUMPDEST DUP1 PUSH1 0x1F ADD PUSH1 0x20 DUP1 SWAP2 DIV MUL PUSH1 0x20 ADD PUSH1 0x40 MLOAD SWAP1 DUP2 ADD PUSH1 0x40 MSTORE DUP1 SWAP3 SWAP2 SWAP1 DUP2 DUP2 MSTORE PUSH1 0x20 ADD DUP3 DUP1 SLOAD PUSH2 0x102E SWAP1 PUSH2 0x2682 JUMP JUMPDEST DUP1 ISZERO PUSH2 0x1079 JUMPI DUP1 PUSH1 0x1F LT PUSH2 0x1050 JUMPI PUSH2 0x100 DUP1 DUP4 SLOAD DIV MUL DUP4 MSTORE SWAP2 PUSH1 0x20 ADD SWAP2 PUSH2 0x1079 JUMP JUMPDEST DUP3 ADD SWAP2 SWAP1 PUSH0 MSTORE PUSH1 0x20 PUSH0 KECCAK256 SWAP1 JUMPDEST DUP2 SLOAD DUP2 MSTORE SWAP1 PUSH1 0x1 ADD SWAP1 PUSH1 0x20 ADD DUP1 DUP4 GT PUSH2 0x105C JUMPI DUP3 SWAP1 SUB PUSH1 0x1F AND DUP3 ADD SWAP2 JUMPDEST POP POP POP POP POP SWAP1 POP SWAP3 SWAP2 POP POP JUMP JUMPDEST PUSH0 PUSH2 0x1090 DUP3 PUSH2 0x6FC JUMP JUMPDEST PUSH1 0x1 PUSH1 0x1 PUSH1 0xA0 SHL SUB AND DUP4 PUSH1 0x1 PUSH1 0x1 PUSH1 0xA0 SHL SUB AND EQ DUP1 PUSH2 0x60F JUMPI POP PUSH0 DUP3 DUP2 MSTORE PUSH1 0x5 PUSH1 0x20 MSTORE PUSH1 0x40 SWAP1 KECCAK256 PUSH2 0x60F SWAP1 DUP5 PUSH2 0x1785 JUMP JUMPDEST PUSH0 DUP2 DUP2 MSTORE PUSH1 0x3 PUSH1 0x20 MSTORE PUSH1 0x40 SWAP1 KECCAK256 SLOAD PUSH1 0x1 PUSH1 0x1 PUSH1 0xA0 SHL SUB AND PUSH2 0xEDB JUMPI PUSH1 0x40 MLOAD PUSH4 0x5747CD1B PUSH1 0xE1 SHL DUP2 MSTORE PUSH1 0x4 DUP2 ADD DUP3 SWAP1 MSTORE PUSH1 0x24 ADD PUSH2 0x17A JUMP JUMPDEST PUSH1 0x60 PUSH0 PUSH2 0x60F DUP4 PUSH2 0x17A6 JUMP JUMPDEST PUSH0 PUSH2 0x110E DUP5 PUSH2 0x6FC JUMP JUMPDEST SWAP1 POP DUP6 PUSH1 0x1 PUSH1 0x1 PUSH1 0xA0 SHL SUB AND DUP2 PUSH1 0x1 PUSH1 0x1 PUSH1 0xA0 SHL SUB AND EQ PUSH2 0x115C JUMPI PUSH1 0x40 MLOAD PUSH4 0x2D938F51 PUSH1 0xE1 SHL DUP2 MSTORE PUSH1 0x1 PUSH1 0x1 PUSH1 0xA0 SHL SUB DUP1 DUP4 AND PUSH1 0x4 DUP4 ADD MSTORE PUSH1 0x24 DUP3 ADD DUP7 SWAP1 MSTORE DUP8 AND PUSH1 0x44 DUP3 ADD MSTORE PUSH1 0x64 ADD PUSH2 0x17A JUMP JUMPDEST PUSH1 0x1 PUSH1 0x1 PUSH1 0xA0 SHL SUB DUP6 AND PUSH2 0x1183 JUMPI PUSH1 0x40 MLOAD PUSH4 0x24ECEF4D PUSH1 0xE0 SHL DUP2 MSTORE PUSH1 0x4 ADD PUSH1 0x40 MLOAD DUP1 SWAP2 SUB SWAP1 REVERT JUMPDEST PUSH0 PUSH2 0x118D DUP6 PUSH2 0x6FC JUMP JUMPDEST SWAP1 POP DUP1 PUSH1 0x1 PUSH1 0x1 PUSH1 0xA0 SHL SUB AND DUP3 PUSH1 0x1 PUSH1 0x1 PUSH1 0xA0 SHL SUB AND EQ PUSH2 0x11DB JUMPI PUSH1 0x40 MLOAD PUSH4 0x5A9C31D3 PUSH1 0xE0 SHL DUP2 MSTORE PUSH1 0x4 DUP2 ADD DUP7 SWAP1 MSTORE PUSH1 0x1 PUSH1 0x1 PUSH1 0xA0 SHL SUB DUP1 DUP5 AND PUSH1 0x24 DUP4 ADD MSTORE DUP3 AND PUSH1 0x44 DUP3 ADD MSTORE PUSH1 0x64 ADD PUSH2 0x17A JUMP JUMPDEST PUSH2 0x11E5 DUP8 DUP7 PUSH2 0x17FE JUMP JUMPDEST PUSH1 0x1 PUSH1 0x1 PUSH1 0xA0 SHL SUB DUP8 AND PUSH0 SWAP1 DUP2 MSTORE PUSH1 0x4 PUSH1 0x20 MSTORE PUSH1 0x40 SWAP1 KECCAK256 PUSH2 0x1206 SWAP1 DUP7 PUSH2 0x1851 JUMP JUMPDEST POP PUSH1 0x1 PUSH1 0x1 PUSH1 0xA0 SHL SUB DUP7 AND PUSH0 SWAP1 DUP2 MSTORE PUSH1 0x4 PUSH1 0x20 MSTORE PUSH1 0x40 SWAP1 KECCAK256 PUSH2 0x1228 SWAP1 DUP7 PUSH2 0x185C JUMP JUMPDEST POP PUSH0 DUP6 DUP2 MSTORE PUSH1 0x3 PUSH1 0x20 MSTORE PUSH1 0x40 SWAP1 DUP2 SWAP1 KECCAK256 DUP1 SLOAD PUSH1 0x1 PUSH1 0x1 PUSH1 0xA0 SHL SUB NOT AND PUSH1 0x1 PUSH1 0x1 PUSH1 0xA0 SHL SUB DUP10 DUP2 AND SWAP2 DUP3 OR SWAP1 SWAP3 SSTORE SWAP2 MLOAD DUP8 SWAP3 SWAP2 DUP11 AND SWAP1 PUSH32 0xB333C813A7426A7A11E2B190CAD52C44119421594B47F6F32ACE6D8C7207B2BF SWAP1 PUSH2 0x128E SWAP1 CALLER SWAP1 DUP11 SWAP1 DUP11 SWAP1 PUSH2 0x26B4 JUMP JUMPDEST PUSH1 0x40 MLOAD DUP1 SWAP2 SUB SWAP1 LOG4 PUSH0 CALLER DUP9 DUP9 DUP9 DUP8 PUSH1 0x40 MLOAD PUSH1 0x20 ADD PUSH2 0x12B0 SWAP6 SWAP5 SWAP4 SWAP3 SWAP2 SWAP1 PUSH2 0x26E8 JUMP JUMPDEST PUSH1 0x40 MLOAD PUSH1 0x20 DUP2 DUP4 SUB SUB DUP2 MSTORE SWAP1 PUSH1 0x40 MSTORE SWAP1 POP PUSH2 0x12CB DUP9 DUP3 PUSH2 0x1867 JUMP JUMPDEST PUSH2 0x12D6 DUP8 DUP7 DUP4 PUSH2 0x1892 JUMP JUMPDEST POP POP POP POP POP POP POP POP JUMP JUMPDEST PUSH0 DUP2 DUP2 MSTORE PUSH1 0x1 PUSH1 0x20 MSTORE PUSH1 0x40 SWAP1 KECCAK256 DUP1 SLOAD PUSH1 0x60 SWAP2 SWAP1 PUSH2 0x12FC SWAP1 PUSH2 0x2682 JUMP JUMPDEST DUP1 PUSH1 0x1F ADD PUSH1 0x20 DUP1 SWAP2 DIV MUL PUSH1 0x20 ADD PUSH1 0x40 MLOAD SWAP1 DUP2 ADD PUSH1 0x40 MSTORE DUP1 SWAP3 SWAP2 SWAP1 DUP2 DUP2 MSTORE PUSH1 0x20 ADD DUP3 DUP1 SLOAD PUSH2 0x1328 SWAP1 PUSH2 0x2682 JUMP JUMPDEST DUP1 ISZERO PUSH2 0x1373 JUMPI DUP1 PUSH1 0x1F LT PUSH2 0x134A JUMPI PUSH2 0x100 DUP1 DUP4 SLOAD DIV MUL DUP4 MSTORE SWAP2 PUSH1 0x20 ADD SWAP2 PUSH2 0x1373 JUMP JUMPDEST DUP3 ADD SWAP2 SWAP1 PUSH0 MSTORE PUSH1 0x20 PUSH0 KECCAK256 SWAP1 JUMPDEST DUP2 SLOAD DUP2 MSTORE SWAP1 PUSH1 0x1 ADD SWAP1 PUSH1 0x20 ADD DUP1 DUP4 GT PUSH2 0x1356 JUMPI DUP3 SWAP1 SUB PUSH1 0x1F AND DUP3 ADD SWAP2 JUMPDEST POP POP POP POP POP SWAP1 POP SWAP2 SWAP1 POP JUMP JUMPDEST PUSH0 PUSH2 0x5CA DUP3 SLOAD SWAP1 JUMP JUMPDEST PUSH0 SLOAD PUSH1 0x1 PUSH1 0x1 PUSH1 0xA0 SHL SUB AND CALLER EQ PUSH2 0x90A JUMPI PUSH1 0x40 MLOAD PUSH3 0x461BCD PUSH1 0xE5 SHL DUP2 MSTORE PUSH1 0x20 PUSH1 0x4 DUP3 ADD DUP2 SWAP1 MSTORE PUSH1 0x24 DUP3 ADD MSTORE PUSH32 0x4F776E61626C653A2063616C6C6572206973206E6F7420746865206F776E6572 PUSH1 0x44 DUP3 ADD MSTORE PUSH1 0x64 ADD PUSH2 0x17A JUMP JUMPDEST PUSH0 DUP1 SLOAD PUSH1 0x1 PUSH1 0x1 PUSH1 0xA0 SHL SUB DUP4 DUP2 AND PUSH1 0x1 PUSH1 0x1 PUSH1 0xA0 SHL SUB NOT DUP4 AND DUP2 OR DUP5 SSTORE PUSH1 0x40 MLOAD SWAP2 SWAP1 SWAP3 AND SWAP3 DUP4 SWAP2 PUSH32 0x8BE0079C531659141344CD1FD0A4F28419497F9722A3DAAFE3B4186F6B6457E0 SWAP2 SWAP1 LOG3 POP POP JUMP JUMPDEST PUSH32 0x98A16C9E50E3E99B3E797305C146898D294E5AEC55A47E213CB3611CCF17E73 DUP3 ADD PUSH2 0x1470 JUMPI PUSH1 0x40 MLOAD PUSH4 0x1B324005 PUSH1 0xE1 SHL DUP2 MSTORE PUSH1 0x4 ADD PUSH1 0x40 MLOAD DUP1 SWAP2 SUB SWAP1 REVERT JUMPDEST PUSH2 0xA2B DUP3 DUP3 PUSH2 0x1995 JUMP JUMPDEST PUSH0 PUSH2 0x60F DUP4 PUSH1 0x1 PUSH1 0x1 PUSH1 0xA0 SHL SUB DUP5 AND PUSH2 0x1AA9 JUMP JUMPDEST PUSH2 0xA2B DUP3 PUSH32 0x8A1C15A8799F71B547E08E2BCB2E85257E81B0A07EEE2CE6712549EEF1F00970 DUP4 PUSH2 0x1AF5 JUMP JUMPDEST DUP1 MLOAD DUP3 MLOAD EQ PUSH2 0x14DB JUMPI PUSH1 0x40 MLOAD PUSH4 0x3BCC8979 PUSH1 0xE0 SHL DUP2 MSTORE PUSH1 0x4 ADD PUSH1 0x40 MLOAD DUP1 SWAP2 SUB SWAP1 REVERT JUMPDEST DUP2 MLOAD PUSH0 SUB PUSH2 0x14FC JUMPI PUSH1 0x40 MLOAD PUSH4 0x97DA5F95 PUSH1 0xE0 SHL DUP2 MSTORE PUSH1 0x4 ADD PUSH1 0x40 MLOAD DUP1 SWAP2 SUB SWAP1 REVERT JUMPDEST PUSH0 JUMPDEST DUP3 MLOAD DUP2 LT ISZERO PUSH2 0xCD6 JUMPI PUSH2 0x1543 DUP4 DUP3 DUP2 MLOAD DUP2 LT PUSH2 0x151C JUMPI PUSH2 0x151C PUSH2 0x2590 JUMP JUMPDEST PUSH1 0x20 MUL PUSH1 0x20 ADD ADD MLOAD DUP4 DUP4 DUP2 MLOAD DUP2 LT PUSH2 0x1536 JUMPI PUSH2 0x1536 PUSH2 0x2590 JUMP JUMPDEST PUSH1 0x20 MUL PUSH1 0x20 ADD ADD MLOAD PUSH2 0x1430 JUMP JUMPDEST PUSH1 0x1 ADD PUSH2 0x14FE JUMP JUMPDEST DUP1 PUSH1 0x1 PUSH0 DUP6 DUP6 PUSH1 0x40 MLOAD PUSH1 0x20 ADD PUSH2 0x156B SWAP3 SWAP2 SWAP1 SWAP2 DUP3 MSTORE PUSH1 0x20 DUP3 ADD MSTORE PUSH1 0x40 ADD SWAP1 JUMP JUMPDEST PUSH1 0x40 MLOAD PUSH1 0x20 DUP2 DUP4 SUB SUB DUP2 MSTORE SWAP1 PUSH1 0x40 MSTORE DUP1 MLOAD SWAP1 PUSH1 0x20 ADD KECCAK256 DUP2 MSTORE PUSH1 0x20 ADD SWAP1 DUP2 MSTORE PUSH1 0x20 ADD PUSH0 KECCAK256 SWAP1 DUP2 PUSH2 0x159A SWAP2 SWAP1 PUSH2 0x2766 JUMP JUMPDEST POP DUP2 DUP4 PUSH32 0xA6E4251F855F750545FE414F120DB91C76B88DEF14D120969E5BB2D3F05DEBBB DUP4 PUSH1 0x40 MLOAD PUSH2 0x15CC SWAP2 SWAP1 PUSH2 0x1D0D JUMP JUMPDEST PUSH1 0x40 MLOAD DUP1 SWAP2 SUB SWAP1 LOG3 POP POP POP JUMP JUMPDEST PUSH0 DUP4 DUP2 MSTORE PUSH1 0x5 PUSH1 0x20 MSTORE PUSH1 0x40 DUP2 KECCAK256 PUSH2 0x15F0 SWAP1 DUP8 PUSH2 0x1B42 JUMP JUMPDEST SWAP1 POP DUP1 PUSH2 0x1622 JUMPI PUSH1 0x40 MLOAD PUSH4 0x12A8C6A3 PUSH1 0xE2 SHL DUP2 MSTORE PUSH1 0x1 PUSH1 0x1 PUSH1 0xA0 SHL SUB DUP8 AND PUSH1 0x4 DUP3 ADD MSTORE PUSH1 0x24 DUP2 ADD DUP6 SWAP1 MSTORE PUSH1 0x44 ADD PUSH2 0x17A JUMP JUMPDEST DUP4 DUP6 PUSH1 0x1 PUSH1 0x1 PUSH1 0xA0 SHL SUB AND DUP8 PUSH1 0x1 PUSH1 0x1 PUSH1 0xA0 SHL SUB AND PUSH32 0xC78CD419D6136F9F1C1C6AEC1D3FAE098CFFAF8BC86314A8F2685E32FE574E3C DUP7 DUP7 PUSH1 0x40 MLOAD PUSH2 0x1668 SWAP3 SWAP2 SWAP1 PUSH2 0x2820 JUMP JUMPDEST PUSH1 0x40 MLOAD DUP1 SWAP2 SUB SWAP1 LOG4 POP POP POP POP POP POP JUMP JUMPDEST PUSH1 0x40 DUP1 MLOAD PUSH1 0x1 PUSH1 0x1 PUSH1 0xB0 SHL SUB NOT DUP5 AND PUSH1 0x20 DUP3 ADD MSTORE PUSH0 PUSH1 0x2A DUP3 ADD DUP2 SWAP1 MSTORE PUSH1 0x1 PUSH1 0x1 PUSH1 0x60 SHL SUB NOT DUP5 AND PUSH1 0x2C DUP4 ADD MSTORE SWAP2 DUP3 SWAP2 ADD PUSH1 0x40 MLOAD PUSH1 0x20 DUP2 DUP4 SUB SUB DUP2 MSTORE SWAP1 PUSH1 0x40 MSTORE SWAP1 POP DUP1 PUSH2 0x16C3 SWAP1 PUSH2 0x283A JUMP JUMPDEST SWAP5 SWAP4 POP POP POP POP JUMP JUMPDEST PUSH0 PUSH1 0x1 PUSH1 0x1 PUSH1 0xE0 SHL SUB NOT DUP3 AND PUSH4 0x18A6A9A5 PUSH1 0xE2 SHL EQ DUP1 PUSH2 0x5CA JUMPI POP PUSH4 0x1FFC9A7 PUSH1 0xE0 SHL PUSH1 0x1 PUSH1 0x1 PUSH1 0xE0 SHL SUB NOT DUP4 AND EQ PUSH2 0x5CA JUMP JUMPDEST PUSH1 0x40 DUP1 MLOAD PUSH1 0x1 PUSH1 0x1 PUSH1 0xE0 SHL SUB NOT DUP4 AND PUSH1 0x24 DUP1 DUP4 ADD SWAP2 SWAP1 SWAP2 MSTORE DUP3 MLOAD DUP1 DUP4 SUB SWAP1 SWAP2 ADD DUP2 MSTORE PUSH1 0x44 SWAP1 SWAP2 ADD SWAP1 SWAP2 MSTORE PUSH1 0x20 DUP1 DUP3 ADD DUP1 MLOAD PUSH1 0x1 PUSH1 0x1 PUSH1 0xE0 SHL SUB AND PUSH4 0x1FFC9A7 PUSH1 0xE0 SHL OR DUP2 MSTORE DUP3 MLOAD PUSH0 SWAP4 SWAP3 DUP5 SWAP3 DUP4 SWAP3 DUP4 SWAP3 SWAP2 DUP4 SWAP2 SWAP1 DUP11 PUSH2 0x7530 STATICCALL SWAP3 POP RETURNDATASIZE SWAP2 POP PUSH0 MLOAD SWAP1 POP DUP3 DUP1 ISZERO PUSH2 0x176F JUMPI POP PUSH1 0x20 DUP3 LT ISZERO JUMPDEST DUP1 ISZERO PUSH2 0x177A JUMPI POP PUSH0 DUP2 GT JUMPDEST SWAP8 SWAP7 POP POP POP POP POP POP POP JUMP JUMPDEST PUSH1 0x1 PUSH1 0x1 PUSH1 0xA0 SHL SUB DUP2 AND PUSH0 SWAP1 DUP2 MSTORE PUSH1 0x1 DUP4 ADD PUSH1 0x20 MSTORE PUSH1 0x40 DUP2 KECCAK256 SLOAD ISZERO ISZERO PUSH2 0x60F JUMP JUMPDEST PUSH1 0x60 DUP2 PUSH0 ADD DUP1 SLOAD DUP1 PUSH1 0x20 MUL PUSH1 0x20 ADD PUSH1 0x40 MLOAD SWAP1 DUP2 ADD PUSH1 0x40 MSTORE DUP1 SWAP3 SWAP2 SWAP1 DUP2 DUP2 MSTORE PUSH1 0x20 ADD DUP3 DUP1 SLOAD DUP1 ISZERO PUSH2 0x1373 JUMPI PUSH1 0x20 MUL DUP3 ADD SWAP2 SWAP1 PUSH0 MSTORE PUSH1 0x20 PUSH0 KECCAK256 SWAP1 JUMPDEST DUP2 SLOAD DUP2 MSTORE PUSH1 0x20 ADD SWAP1 PUSH1 0x1 ADD SWAP1 DUP1 DUP4 GT PUSH2 0x17DF JUMPI POP POP POP POP POP SWAP1 POP SWAP2 SWAP1 POP JUMP JUMPDEST PUSH0 DUP2 DUP2 MSTORE PUSH1 0x5 PUSH1 0x20 MSTORE PUSH1 0x40 DUP2 KECCAK256 SWAP1 PUSH2 0x1815 DUP3 PUSH2 0x137F JUMP JUMPDEST SWAP1 POP PUSH0 PUSH0 JUMPDEST DUP3 DUP2 LT ISZERO PUSH2 0xB9E JUMPI PUSH2 0x182C DUP5 PUSH0 PUSH2 0x1B56 JUMP JUMPDEST SWAP2 POP PUSH2 0x1849 DUP3 DUP8 DUP8 PUSH0 PUSH1 0x40 MLOAD DUP1 PUSH1 0x20 ADD PUSH1 0x40 MSTORE DUP1 PUSH0 DUP2 MSTORE POP PUSH2 0x15D9 JUMP JUMPDEST PUSH1 0x1 ADD PUSH2 0x181A JUMP JUMPDEST PUSH0 PUSH2 0x60F DUP4 DUP4 PUSH2 0x1B61 JUMP JUMPDEST PUSH0 PUSH2 0x60F DUP4 DUP4 PUSH2 0x1AA9 JUMP JUMPDEST PUSH2 0xA2B DUP3 PUSH32 0xB23EAE7E6D1564B295B4C3E3BE402D9A2F0776C57BDF365903496F6FA481AB00 DUP4 PUSH2 0x1AF5 JUMP JUMPDEST PUSH2 0x18A3 DUP4 PUSH4 0x1AED5A85 PUSH1 0xE2 SHL PUSH2 0x16FF JUMP JUMPDEST ISZERO PUSH2 0x1938 JUMPI PUSH1 0x40 MLOAD PUSH4 0x1AED5A85 PUSH1 0xE2 SHL DUP2 MSTORE PUSH1 0x1 PUSH1 0x1 PUSH1 0xA0 SHL SUB DUP5 AND SWAP1 PUSH4 0x6BB56A14 SWAP1 PUSH2 0x18F6 SWAP1 PUSH32 0xB084A55EBF70FD3C06FD755269DAC2212C4D3F0F4D09079780BFA50C1B2984D SWAP1 DUP6 SWAP1 PUSH1 0x4 ADD PUSH2 0x285D JUMP JUMPDEST PUSH0 PUSH1 0x40 MLOAD DUP1 DUP4 SUB DUP2 PUSH0 DUP8 GAS CALL ISZERO DUP1 ISZERO PUSH2 0x1911 JUMPI RETURNDATASIZE PUSH0 PUSH0 RETURNDATACOPY RETURNDATASIZE PUSH0 REVERT JUMPDEST POP POP POP POP PUSH1 0x40 MLOAD RETURNDATASIZE PUSH0 DUP3 RETURNDATACOPY PUSH1 0x1F RETURNDATASIZE SWAP1 DUP2 ADD PUSH1 0x1F NOT AND DUP3 ADD PUSH1 0x40 MSTORE PUSH2 0xCBD SWAP2 SWAP1 DUP2 ADD SWAP1 PUSH2 0x2875 JUMP JUMPDEST DUP2 PUSH2 0xCD6 JUMPI PUSH1 0x1 PUSH1 0x1 PUSH1 0xA0 SHL SUB DUP4 AND EXTCODESIZE ISZERO PUSH2 0x1971 JUMPI PUSH1 0x40 MLOAD PUSH4 0x4349776D PUSH1 0xE0 SHL DUP2 MSTORE PUSH1 0x1 PUSH1 0x1 PUSH1 0xA0 SHL SUB DUP5 AND PUSH1 0x4 DUP3 ADD MSTORE PUSH1 0x24 ADD PUSH2 0x17A JUMP JUMPDEST PUSH1 0x40 MLOAD PUSH4 0x3173137 PUSH1 0xE0 SHL DUP2 MSTORE PUSH1 0x1 PUSH1 0x1 PUSH1 0xA0 SHL SUB DUP5 AND PUSH1 0x4 DUP3 ADD MSTORE PUSH1 0x24 ADD PUSH2 0x17A JUMP JUMPDEST PUSH32 0x2145E1D6D074577DC71EF54C3807742B41B053A9352AE6B491331509ACB9750F DUP3 ADD PUSH2 0x19D5 JUMPI PUSH1 0x40 MLOAD PUSH4 0x85C169BD PUSH1 0xE0 SHL DUP2 MSTORE PUSH1 0x4 ADD PUSH1 0x40 MLOAD DUP1 SWAP2 SUB SWAP1 REVERT JUMPDEST PUSH32 0xD0F59754F88971FE6BC5A6618CC9D5F1E859C58D16B22D1C7B2D3E2B246CD8AA DUP3 ADD PUSH2 0x1A15 JUMPI PUSH1 0x40 MLOAD PUSH4 0xECEAB67 PUSH1 0xE3 SHL DUP2 MSTORE PUSH1 0x4 ADD PUSH1 0x40 MLOAD DUP1 SWAP2 SUB SWAP1 REVERT JUMPDEST PUSH32 0x1FD9E056A24D14C4ABC642FCC325992A946906D0DBC57DD70278AAF12842024D DUP3 ADD PUSH2 0x1A55 JUMPI PUSH1 0x40 MLOAD PUSH4 0x4EF6D7FB PUSH1 0xE0 SHL DUP2 MSTORE PUSH1 0x4 ADD PUSH1 0x40 MLOAD DUP1 SWAP2 SUB SWAP1 REVERT JUMPDEST PUSH0 DUP3 DUP2 MSTORE PUSH1 0x1 PUSH1 0x20 MSTORE PUSH1 0x40 SWAP1 KECCAK256 PUSH2 0x1A6C DUP3 DUP3 PUSH2 0x2766 JUMP JUMPDEST POP DUP2 PUSH32 0xECE574603820D07BC9B91F2A932BAADF4628AABCB8AFBA49776529C14A6104B2 DUP3 PUSH1 0x40 MLOAD PUSH2 0x1A9D SWAP2 SWAP1 PUSH2 0x1D0D JUMP JUMPDEST PUSH1 0x40 MLOAD DUP1 SWAP2 SUB SWAP1 LOG2 POP POP JUMP JUMPDEST PUSH0 DUP2 DUP2 MSTORE PUSH1 0x1 DUP4 ADD PUSH1 0x20 MSTORE PUSH1 0x40 DUP2 KECCAK256 SLOAD PUSH2 0x1AEE JUMPI POP DUP2 SLOAD PUSH1 0x1 DUP2 DUP2 ADD DUP5 SSTORE PUSH0 DUP5 DUP2 MSTORE PUSH1 0x20 DUP1 DUP3 KECCAK256 SWAP1 SWAP4 ADD DUP5 SWAP1 SSTORE DUP5 SLOAD DUP5 DUP3 MSTORE DUP3 DUP7 ADD SWAP1 SWAP4 MSTORE PUSH1 0x40 SWAP1 KECCAK256 SWAP2 SWAP1 SWAP2 SSTORE PUSH2 0x5CA JUMP JUMPDEST POP PUSH0 PUSH2 0x5CA JUMP JUMPDEST PUSH2 0x1B0F PUSH1 0x1 PUSH1 0x1 PUSH1 0xA0 SHL SUB DUP5 AND PUSH4 0x1AED5A85 PUSH1 0xE2 SHL PUSH2 0x16FF JUMP JUMPDEST ISZERO PUSH2 0xCD6 JUMPI PUSH1 0x40 MLOAD PUSH4 0x1AED5A85 PUSH1 0xE2 SHL DUP2 MSTORE PUSH1 0x1 PUSH1 0x1 PUSH1 0xA0 SHL SUB DUP5 AND SWAP1 PUSH4 0x6BB56A14 SWAP1 PUSH2 0x18F6 SWAP1 DUP6 SWAP1 DUP6 SWAP1 PUSH1 0x4 ADD PUSH2 0x285D JUMP JUMPDEST PUSH0 PUSH2 0x60F DUP4 PUSH1 0x1 PUSH1 0x1 PUSH1 0xA0 SHL SUB DUP5 AND PUSH2 0x1B61 JUMP JUMPDEST PUSH0 PUSH2 0x60F DUP4 DUP4 PUSH2 0x1C44 JUMP JUMPDEST PUSH0 DUP2 DUP2 MSTORE PUSH1 0x1 DUP4 ADD PUSH1 0x20 MSTORE PUSH1 0x40 DUP2 KECCAK256 SLOAD DUP1 ISZERO PUSH2 0x1C3B JUMPI PUSH0 PUSH2 0x1B83 PUSH1 0x1 DUP4 PUSH2 0x28E9 JUMP JUMPDEST DUP6 SLOAD SWAP1 SWAP2 POP PUSH0 SWAP1 PUSH2 0x1B96 SWAP1 PUSH1 0x1 SWAP1 PUSH2 0x28E9 JUMP JUMPDEST SWAP1 POP DUP2 DUP2 EQ PUSH2 0x1BF5 JUMPI PUSH0 DUP7 PUSH0 ADD DUP3 DUP2 SLOAD DUP2 LT PUSH2 0x1BB4 JUMPI PUSH2 0x1BB4 PUSH2 0x2590 JUMP JUMPDEST SWAP1 PUSH0 MSTORE PUSH1 0x20 PUSH0 KECCAK256 ADD SLOAD SWAP1 POP DUP1 DUP8 PUSH0 ADD DUP5 DUP2 SLOAD DUP2 LT PUSH2 0x1BD4 JUMPI PUSH2 0x1BD4 PUSH2 0x2590 JUMP JUMPDEST PUSH0 SWAP2 DUP3 MSTORE PUSH1 0x20 DUP1 DUP4 KECCAK256 SWAP1 SWAP2 ADD SWAP3 SWAP1 SWAP3 SSTORE SWAP2 DUP3 MSTORE PUSH1 0x1 DUP9 ADD SWAP1 MSTORE PUSH1 0x40 SWAP1 KECCAK256 DUP4 SWAP1 SSTORE JUMPDEST DUP6 SLOAD DUP7 SWAP1 DUP1 PUSH2 0x1C06 JUMPI PUSH2 0x1C06 PUSH2 0x2908 JUMP JUMPDEST PUSH1 0x1 SWAP1 SUB DUP2 DUP2 SWAP1 PUSH0 MSTORE PUSH1 0x20 PUSH0 KECCAK256 ADD PUSH0 SWAP1 SSTORE SWAP1 SSTORE DUP6 PUSH1 0x1 ADD PUSH0 DUP7 DUP2 MSTORE PUSH1 0x20 ADD SWAP1 DUP2 MSTORE PUSH1 0x20 ADD PUSH0 KECCAK256 PUSH0 SWAP1 SSTORE PUSH1 0x1 SWAP4 POP POP POP POP PUSH2 0x5CA JUMP JUMPDEST PUSH0 SWAP2 POP POP PUSH2 0x5CA JUMP JUMPDEST PUSH0 DUP3 PUSH0 ADD DUP3 DUP2 SLOAD DUP2 LT PUSH2 0x1C59 JUMPI PUSH2 0x1C59 PUSH2 0x2590 JUMP JUMPDEST SWAP1 PUSH0 MSTORE PUSH1 0x20 PUSH0 KECCAK256 ADD SLOAD SWAP1 POP SWAP3 SWAP2 POP POP JUMP JUMPDEST PUSH1 0x20 DUP2 MSTORE DUP2 PUSH1 0x20 DUP3 ADD MSTORE DUP2 DUP4 PUSH1 0x40 DUP4 ADD CALLDATACOPY PUSH0 DUP2 DUP4 ADD PUSH1 0x40 SWAP1 DUP2 ADD SWAP2 SWAP1 SWAP2 MSTORE PUSH1 0x1F SWAP1 SWAP3 ADD PUSH1 0x1F NOT AND ADD ADD SWAP2 SWAP1 POP JUMP JUMPDEST PUSH0 PUSH1 0x20 DUP3 DUP5 SUB SLT ISZERO PUSH2 0x1CA8 JUMPI PUSH0 PUSH0 REVERT JUMPDEST DUP2 CALLDATALOAD PUSH1 0x1 PUSH1 0x1 PUSH1 0xE0 SHL SUB NOT DUP2 AND DUP2 EQ PUSH2 0x60F JUMPI PUSH0 PUSH0 REVERT JUMPDEST PUSH0 PUSH0 PUSH1 0x40 DUP4 DUP6 SUB SLT ISZERO PUSH2 0x1CD0 JUMPI PUSH0 PUSH0 REVERT JUMPDEST POP POP DUP1 CALLDATALOAD SWAP3 PUSH1 0x20 SWAP1 SWAP2 ADD CALLDATALOAD SWAP2 POP JUMP JUMPDEST PUSH0 DUP2 MLOAD DUP1 DUP5 MSTORE DUP1 PUSH1 0x20 DUP5 ADD PUSH1 0x20 DUP7 ADD MCOPY PUSH0 PUSH1 0x20 DUP3 DUP7 ADD ADD MSTORE PUSH1 0x20 PUSH1 0x1F NOT PUSH1 0x1F DUP4 ADD AND DUP6 ADD ADD SWAP2 POP POP SWAP3 SWAP2 POP POP JUMP JUMPDEST PUSH1 0x20 DUP2 MSTORE PUSH0 PUSH2 0x60F PUSH1 0x20 DUP4 ADD DUP5 PUSH2 0x1CDF JUMP JUMPDEST PUSH4 0x4E487B71 PUSH1 0xE0 SHL PUSH0 MSTORE PUSH1 0x41 PUSH1 0x4 MSTORE PUSH1 0x24 PUSH0 REVERT JUMPDEST PUSH1 0x40 MLOAD PUSH1 0x1F DUP3 ADD PUSH1 0x1F NOT AND DUP2 ADD PUSH1 0x1 PUSH1 0x1 PUSH1 0x40 SHL SUB DUP2 GT DUP3 DUP3 LT OR ISZERO PUSH2 0x1D5B JUMPI PUSH2 0x1D5B PUSH2 0x1D1F JUMP JUMPDEST PUSH1 0x40 MSTORE SWAP2 SWAP1 POP JUMP JUMPDEST PUSH0 PUSH1 0x1 PUSH1 0x1 PUSH1 0x40 SHL SUB DUP3 GT ISZERO PUSH2 0x1D7B JUMPI PUSH2 0x1D7B PUSH2 0x1D1F JUMP JUMPDEST POP PUSH1 0x5 SHL PUSH1 0x20 ADD SWAP1 JUMP JUMPDEST PUSH0 DUP3 PUSH1 0x1F DUP4 ADD SLT PUSH2 0x1D94 JUMPI PUSH0 PUSH0 REVERT JUMPDEST DUP2 CALLDATALOAD PUSH2 0x1DA7 PUSH2 0x1DA2 DUP3 PUSH2 0x1D63 JUMP JUMPDEST PUSH2 0x1D33 JUMP JUMPDEST DUP1 DUP3 DUP3 MSTORE PUSH1 0x20 DUP3 ADD SWAP2 POP PUSH1 0x20 DUP4 PUSH1 0x5 SHL DUP7 ADD ADD SWAP3 POP DUP6 DUP4 GT ISZERO PUSH2 0x1DC8 JUMPI PUSH0 PUSH0 REVERT JUMPDEST PUSH1 0x20 DUP6 ADD JUMPDEST DUP4 DUP2 LT ISZERO PUSH2 0x1DE5 JUMPI DUP1 CALLDATALOAD DUP4 MSTORE PUSH1 0x20 SWAP3 DUP4 ADD SWAP3 ADD PUSH2 0x1DCD JUMP JUMPDEST POP SWAP6 SWAP5 POP POP POP POP POP JUMP JUMPDEST PUSH0 PUSH0 PUSH1 0x40 DUP4 DUP6 SUB SLT ISZERO PUSH2 0x1E00 JUMPI PUSH0 PUSH0 REVERT JUMPDEST DUP3 CALLDATALOAD PUSH1 0x1 PUSH1 0x1 PUSH1 0x40 SHL SUB DUP2 GT ISZERO PUSH2 0x1E15 JUMPI PUSH0 PUSH0 REVERT JUMPDEST PUSH2 0x1E21 DUP6 DUP3 DUP7 ADD PUSH2 0x1D85 JUMP JUMPDEST SWAP3 POP POP PUSH1 0x20 DUP4 ADD CALLDATALOAD PUSH1 0x1 PUSH1 0x1 PUSH1 0x40 SHL SUB DUP2 GT ISZERO PUSH2 0x1E3C JUMPI PUSH0 PUSH0 REVERT JUMPDEST PUSH2 0x1E48 DUP6 DUP3 DUP7 ADD PUSH2 0x1D85 JUMP JUMPDEST SWAP2 POP POP SWAP3 POP SWAP3 SWAP1 POP JUMP JUMPDEST PUSH0 PUSH1 0x20 DUP3 ADD PUSH1 0x20 DUP4 MSTORE DUP1 DUP5 MLOAD DUP1 DUP4 MSTORE PUSH1 0x40 DUP6 ADD SWAP2 POP PUSH1 0x40 DUP2 PUSH1 0x5 SHL DUP7 ADD ADD SWAP3 POP PUSH1 0x20 DUP7 ADD PUSH0 JUMPDEST DUP3 DUP2 LT ISZERO PUSH2 0x1EA9 JUMPI PUSH1 0x3F NOT DUP8 DUP7 SUB ADD DUP5 MSTORE PUSH2 0x1E94 DUP6 DUP4 MLOAD PUSH2 0x1CDF JUMP JUMPDEST SWAP5 POP PUSH1 0x20 SWAP4 DUP5 ADD SWAP4 SWAP2 SWAP1 SWAP2 ADD SWAP1 PUSH1 0x1 ADD PUSH2 0x1E78 JUMP JUMPDEST POP SWAP3 SWAP7 SWAP6 POP POP POP POP POP POP JUMP JUMPDEST PUSH0 PUSH1 0x20 DUP3 DUP5 SUB SLT ISZERO PUSH2 0x1EC5 JUMPI PUSH0 PUSH0 REVERT JUMPDEST POP CALLDATALOAD SWAP2 SWAP1 POP JUMP JUMPDEST DUP1 CALLDATALOAD PUSH1 0x1 PUSH1 0x1 PUSH1 0xA0 SHL SUB DUP2 AND DUP2 EQ PUSH2 0x1EE2 JUMPI PUSH0 PUSH0 REVERT JUMPDEST SWAP2 SWAP1 POP JUMP JUMPDEST PUSH0 PUSH0 PUSH1 0x40 DUP4 DUP6 SUB SLT ISZERO PUSH2 0x1EF8 JUMPI PUSH0 PUSH0 REVERT JUMPDEST PUSH2 0x1F01 DUP4 PUSH2 0x1ECC JUMP JUMPDEST SWAP5 PUSH1 0x20 SWAP4 SWAP1 SWAP4 ADD CALLDATALOAD SWAP4 POP POP POP JUMP JUMPDEST PUSH1 0x20 DUP1 DUP3 MSTORE DUP3 MLOAD DUP3 DUP3 ADD DUP2 SWAP1 MSTORE PUSH0 SWAP2 DUP5 ADD SWAP1 PUSH1 0x40 DUP5 ADD SWAP1 DUP4 JUMPDEST DUP2 DUP2 LT ISZERO PUSH2 0x1F4F JUMPI DUP4 MLOAD PUSH1 0x1 PUSH1 0x1 PUSH1 0xA0 SHL SUB AND DUP4 MSTORE PUSH1 0x20 SWAP4 DUP5 ADD SWAP4 SWAP1 SWAP3 ADD SWAP2 PUSH1 0x1 ADD PUSH2 0x1F28 JUMP JUMPDEST POP SWAP1 SWAP6 SWAP5 POP POP POP POP POP JUMP JUMPDEST DUP1 CALLDATALOAD DUP1 ISZERO ISZERO DUP2 EQ PUSH2 0x1EE2 JUMPI PUSH0 PUSH0 REVERT JUMPDEST PUSH0 PUSH1 0x1 PUSH1 0x1 PUSH1 0x40 SHL SUB DUP3 GT ISZERO PUSH2 0x1F81 JUMPI PUSH2 0x1F81 PUSH2 0x1D1F JUMP JUMPDEST POP PUSH1 0x1F ADD PUSH1 0x1F NOT AND PUSH1 0x20 ADD SWAP1 JUMP JUMPDEST PUSH0 DUP3 PUSH1 0x1F DUP4 ADD SLT PUSH2 0x1F9E JUMPI PUSH0 PUSH0 REVERT JUMPDEST DUP2 CALLDATALOAD PUSH2 0x1FAC PUSH2 0x1DA2 DUP3 PUSH2 0x1F69 JUMP JUMPDEST DUP2 DUP2 MSTORE DUP5 PUSH1 0x20 DUP4 DUP7 ADD ADD GT ISZERO PUSH2 0x1FC0 JUMPI PUSH0 PUSH0 REVERT JUMPDEST DUP2 PUSH1 0x20 DUP6 ADD PUSH1 0x20 DUP4 ADD CALLDATACOPY PUSH0 SWAP2 DUP2 ADD PUSH1 0x20 ADD SWAP2 SWAP1 SWAP2 MSTORE SWAP4 SWAP3 POP POP POP JUMP JUMPDEST PUSH0 PUSH0 PUSH0 PUSH0 PUSH0 PUSH1 0xA0 DUP7 DUP9 SUB SLT ISZERO PUSH2 0x1FF0 JUMPI PUSH0 PUSH0 REVERT JUMPDEST PUSH2 0x1FF9 DUP7 PUSH2 0x1ECC JUMP JUMPDEST SWAP5 POP PUSH2 0x2007 PUSH1 0x20 DUP8 ADD PUSH2 0x1ECC JUMP JUMPDEST SWAP4 POP PUSH1 0x40 DUP7 ADD CALLDATALOAD SWAP3 POP PUSH2 0x201C PUSH1 0x60 DUP8 ADD PUSH2 0x1F5A JUMP JUMPDEST SWAP2 POP PUSH1 0x80 DUP7 ADD CALLDATALOAD PUSH1 0x1 PUSH1 0x1 PUSH1 0x40 SHL SUB DUP2 GT ISZERO PUSH2 0x2036 JUMPI PUSH0 PUSH0 REVERT JUMPDEST PUSH2 0x2042 DUP9 DUP3 DUP10 ADD PUSH2 0x1F8F JUMP JUMPDEST SWAP2 POP POP SWAP3 SWAP6 POP SWAP3 SWAP6 SWAP1 SWAP4 POP JUMP JUMPDEST PUSH0 PUSH0 PUSH1 0x20 DUP4 DUP6 SUB SLT ISZERO PUSH2 0x2060 JUMPI PUSH0 PUSH0 REVERT JUMPDEST DUP3 CALLDATALOAD PUSH1 0x1 PUSH1 0x1 PUSH1 0x40 SHL SUB DUP2 GT ISZERO PUSH2 0x2075 JUMPI PUSH0 PUSH0 REVERT JUMPDEST DUP4 ADD PUSH1 0x1F DUP2 ADD DUP6 SGT PUSH2 0x2085 JUMPI PUSH0 PUSH0 REVERT JUMPDEST DUP1 CALLDATALOAD PUSH1 0x1 PUSH1 0x1 PUSH1 0x40 SHL SUB DUP2 GT ISZERO PUSH2 0x209A JUMPI PUSH0 PUSH0 REVERT JUMPDEST DUP6 PUSH1 0x20 DUP3 PUSH1 0x5 SHL DUP5 ADD ADD GT ISZERO PUSH2 0x20AE JUMPI PUSH0 PUSH0 REVERT JUMPDEST PUSH1 0x20 SWAP2 SWAP1 SWAP2 ADD SWAP6 SWAP1 SWAP5 POP SWAP3 POP POP POP JUMP JUMPDEST PUSH0 PUSH1 0x20 DUP3 DUP5 SUB SLT ISZERO PUSH2 0x20CE JUMPI PUSH0 PUSH0 REVERT JUMPDEST PUSH2 0x60F DUP3 PUSH2 0x1ECC JUMP JUMPDEST PUSH0 DUP3 PUSH1 0x1F DUP4 ADD SLT PUSH2 0x20E6 JUMPI PUSH0 PUSH0 REVERT JUMPDEST DUP2 CALLDATALOAD PUSH2 0x20F4 PUSH2 0x1DA2 DUP3 PUSH2 0x1D63 JUMP JUMPDEST DUP1 DUP3 DUP3 MSTORE PUSH1 0x20 DUP3 ADD SWAP2 POP PUSH1 0x20 DUP4 PUSH1 0x5 SHL DUP7 ADD ADD SWAP3 POP DUP6 DUP4 GT ISZERO PUSH2 0x2115 JUMPI PUSH0 PUSH0 REVERT JUMPDEST PUSH1 0x20 DUP6 ADD JUMPDEST DUP4 DUP2 LT ISZERO PUSH2 0x1DE5 JUMPI PUSH2 0x212B DUP2 PUSH2 0x1ECC JUMP JUMPDEST DUP4 MSTORE PUSH1 0x20 SWAP3 DUP4 ADD SWAP3 ADD PUSH2 0x211A JUMP JUMPDEST PUSH0 DUP3 PUSH1 0x1F DUP4 ADD SLT PUSH2 0x2148 JUMPI PUSH0 PUSH0 REVERT JUMPDEST DUP2 CALLDATALOAD PUSH2 0x2156 PUSH2 0x1DA2 DUP3 PUSH2 0x1D63 JUMP JUMPDEST DUP1 DUP3 DUP3 MSTORE PUSH1 0x20 DUP3 ADD SWAP2 POP PUSH1 0x20 DUP4 PUSH1 0x5 SHL DUP7 ADD ADD SWAP3 POP DUP6 DUP4 GT ISZERO PUSH2 0x2177 JUMPI PUSH0 PUSH0 REVERT JUMPDEST PUSH1 0x20 DUP6 ADD JUMPDEST DUP4 DUP2 LT ISZERO PUSH2 0x1DE5 JUMPI PUSH2 0x218D DUP2 PUSH2 0x1F5A JUMP JUMPDEST DUP4 MSTORE PUSH1 0x20 SWAP3 DUP4 ADD SWAP3 ADD PUSH2 0x217C JUMP JUMPDEST PUSH0 DUP3 PUSH1 0x1F DUP4 ADD SLT PUSH2 0x21AA JUMPI PUSH0 PUSH0 REVERT JUMPDEST DUP2 CALLDATALOAD PUSH2 0x21B8 PUSH2 0x1DA2 DUP3 PUSH2 0x1D63 JUMP JUMPDEST DUP1 DUP3 DUP3 MSTORE PUSH1 0x20 DUP3 ADD SWAP2 POP PUSH1 0x20 DUP4 PUSH1 0x5 SHL DUP7 ADD ADD SWAP3 POP DUP6 DUP4 GT ISZERO PUSH2 0x21D9 JUMPI PUSH0 PUSH0 REVERT JUMPDEST PUSH1 0x20 DUP6 ADD JUMPDEST DUP4 DUP2 LT ISZERO PUSH2 0x1DE5 JUMPI DUP1 CALLDATALOAD PUSH1 0x1 PUSH1 0x1 PUSH1 0x40 SHL SUB DUP2 GT ISZERO PUSH2 0x21FB JUMPI PUSH0 PUSH0 REVERT JUMPDEST PUSH2 0x220A DUP9 PUSH1 0x20 DUP4 DUP11 ADD ADD PUSH2 0x1F8F JUMP JUMPDEST DUP5 MSTORE POP PUSH1 0x20 SWAP3 DUP4 ADD SWAP3 ADD PUSH2 0x21DE JUMP JUMPDEST PUSH0 PUSH0 PUSH0 PUSH0 PUSH0 PUSH1 0xA0 DUP7 DUP9 SUB SLT ISZERO PUSH2 0x222D JUMPI PUSH0 PUSH0 REVERT JUMPDEST DUP6 CALLDATALOAD PUSH1 0x1 PUSH1 0x1 PUSH1 0x40 SHL SUB DUP2 GT ISZERO PUSH2 0x2242 JUMPI PUSH0 PUSH0 REVERT JUMPDEST PUSH2 0x224E DUP9 DUP3 DUP10 ADD PUSH2 0x20D7 JUMP JUMPDEST SWAP6 POP POP PUSH1 0x20 DUP7 ADD CALLDATALOAD PUSH1 0x1 PUSH1 0x1 PUSH1 0x40 SHL SUB DUP2 GT ISZERO PUSH2 0x2269 JUMPI PUSH0 PUSH0 REVERT JUMPDEST PUSH2 0x2275 DUP9 DUP3 DUP10 ADD PUSH2 0x20D7 JUMP JUMPDEST SWAP5 POP POP PUSH1 0x40 DUP7 ADD CALLDATALOAD PUSH1 0x1 PUSH1 0x1 PUSH1 0x40 SHL SUB DUP2 GT ISZERO PUSH2 0x2290 JUMPI PUSH0 PUSH0 REVERT JUMPDEST PUSH2 0x229C DUP9 DUP3 DUP10 ADD PUSH2 0x1D85 JUMP JUMPDEST SWAP4 POP POP PUSH1 0x60 DUP7 ADD CALLDATALOAD PUSH1 0x1 PUSH1 0x1 PUSH1 0x40 SHL SUB DUP2 GT ISZERO PUSH2 0x22B7 JUMPI PUSH0 PUSH0 REVERT JUMPDEST PUSH2 0x22C3 DUP9 DUP3 DUP10 ADD PUSH2 0x2139 JUMP JUMPDEST SWAP3 POP POP PUSH1 0x80 DUP7 ADD CALLDATALOAD PUSH1 0x1 PUSH1 0x1 PUSH1 0x40 SHL SUB DUP2 GT ISZERO PUSH2 0x22DE JUMPI PUSH0 PUSH0 REVERT JUMPDEST PUSH2 0x2042 DUP9 DUP3 DUP10 ADD PUSH2 0x219B JUMP JUMPDEST PUSH0 PUSH0 PUSH1 0x40 DUP4 DUP6 SUB SLT ISZERO PUSH2 0x22FB JUMPI PUSH0 PUSH0 REVERT JUMPDEST DUP3 CALLDATALOAD SWAP2 POP PUSH1 0x20 DUP4 ADD CALLDATALOAD PUSH1 0x1 PUSH1 0x1 PUSH1 0x40 SHL SUB DUP2 GT ISZERO PUSH2 0x2317 JUMPI PUSH0 PUSH0 REVERT JUMPDEST PUSH2 0x1E48 DUP6 DUP3 DUP7 ADD PUSH2 0x1F8F JUMP JUMPDEST PUSH0 PUSH0 PUSH0 PUSH1 0x60 DUP5 DUP7 SUB SLT ISZERO PUSH2 0x2335 JUMPI PUSH0 PUSH0 REVERT JUMPDEST PUSH2 0x233E DUP5 PUSH2 0x1ECC JUMP JUMPDEST SWAP3 POP PUSH1 0x20 DUP5 ADD CALLDATALOAD SWAP2 POP PUSH1 0x40 DUP5 ADD CALLDATALOAD PUSH1 0x1 PUSH1 0x1 PUSH1 0x40 SHL SUB DUP2 GT ISZERO PUSH2 0x235F JUMPI PUSH0 PUSH0 REVERT JUMPDEST PUSH2 0x236B DUP7 DUP3 DUP8 ADD PUSH2 0x1F8F JUMP JUMPDEST SWAP2 POP POP SWAP3 POP SWAP3 POP SWAP3 JUMP JUMPDEST PUSH0 PUSH0 PUSH1 0x40 DUP4 DUP6 SUB SLT ISZERO PUSH2 0x2386 JUMPI PUSH0 PUSH0 REVERT JUMPDEST DUP3 CALLDATALOAD PUSH1 0x1 PUSH1 0x1 PUSH1 0x40 SHL SUB DUP2 GT ISZERO PUSH2 0x239B JUMPI PUSH0 PUSH0 REVERT JUMPDEST PUSH2 0x23A7 DUP6 DUP3 DUP7 ADD PUSH2 0x1D85 JUMP JUMPDEST SWAP3 POP POP PUSH1 0x20 DUP4 ADD CALLDATALOAD PUSH1 0x1 PUSH1 0x1 PUSH1 0x40 SHL SUB DUP2 GT ISZERO PUSH2 0x23C2 JUMPI PUSH0 PUSH0 REVERT JUMPDEST PUSH2 0x1E48 DUP6 DUP3 DUP7 ADD PUSH2 0x219B JUMP JUMPDEST PUSH1 0x20 DUP1 DUP3 MSTORE DUP3 MLOAD DUP3 DUP3 ADD DUP2 SWAP1 MSTORE PUSH0 SWAP2 DUP5 ADD SWAP1 PUSH1 0x40 DUP5 ADD SWAP1 DUP4 JUMPDEST DUP2 DUP2 LT ISZERO PUSH2 0x1F4F JUMPI DUP4 MLOAD DUP4 MSTORE PUSH1 0x20 SWAP4 DUP5 ADD SWAP4 SWAP1 SWAP3 ADD SWAP2 PUSH1 0x1 ADD PUSH2 0x23E7 JUMP JUMPDEST PUSH0 PUSH0 PUSH0 PUSH1 0x60 DUP5 DUP7 SUB SLT ISZERO PUSH2 0x2417 JUMPI PUSH0 PUSH0 REVERT JUMPDEST DUP4 CALLDATALOAD PUSH1 0x1 PUSH1 0x1 PUSH1 0x40 SHL SUB DUP2 GT ISZERO PUSH2 0x242C JUMPI PUSH0 PUSH0 REVERT JUMPDEST PUSH2 0x2438 DUP7 DUP3 DUP8 ADD PUSH2 0x1D85 JUMP JUMPDEST SWAP4 POP POP PUSH1 0x20 DUP5 ADD CALLDATALOAD PUSH1 0x1 PUSH1 0x1 PUSH1 0x40 SHL SUB DUP2 GT ISZERO PUSH2 0x2453 JUMPI PUSH0 PUSH0 REVERT JUMPDEST PUSH2 0x245F DUP7 DUP3 DUP8 ADD PUSH2 0x1D85 JUMP JUMPDEST SWAP3 POP POP PUSH1 0x40 DUP5 ADD CALLDATALOAD PUSH1 0x1 PUSH1 0x1 PUSH1 0x40 SHL SUB DUP2 GT ISZERO PUSH2 0x247A JUMPI PUSH0 PUSH0 REVERT JUMPDEST PUSH2 0x236B DUP7 DUP3 DUP8 ADD PUSH2 0x219B JUMP JUMPDEST PUSH0 PUSH0 PUSH0 PUSH1 0x60 DUP5 DUP7 SUB SLT ISZERO PUSH2 0x2498 JUMPI PUSH0 PUSH0 REVERT JUMPDEST DUP4 CALLDATALOAD SWAP3 POP PUSH1 0x20 DUP5 ADD CALLDATALOAD SWAP2 POP PUSH1 0x40 DUP5 ADD CALLDATALOAD PUSH1 0x1 PUSH1 0x1 PUSH1 0x40 SHL SUB DUP2 GT ISZERO PUSH2 0x235F JUMPI PUSH0 PUSH0 REVERT JUMPDEST PUSH0 PUSH0 PUSH0 PUSH0 PUSH1 0x80 DUP6 DUP8 SUB SLT ISZERO PUSH2 0x24CE JUMPI PUSH0 PUSH0 REVERT JUMPDEST PUSH2 0x24D7 DUP6 PUSH2 0x1ECC JUMP JUMPDEST SWAP4 POP PUSH1 0x20 DUP6 ADD CALLDATALOAD SWAP3 POP PUSH2 0x24EC PUSH1 0x40 DUP7 ADD PUSH2 0x1F5A JUMP JUMPDEST SWAP2 POP PUSH1 0x60 DUP6 ADD CALLDATALOAD PUSH1 0x1 PUSH1 0x1 PUSH1 0x40 SHL SUB DUP2 GT ISZERO PUSH2 0x2506 JUMPI PUSH0 PUSH0 REVERT JUMPDEST PUSH2 0x2512 DUP8 DUP3 DUP9 ADD PUSH2 0x1F8F JUMP JUMPDEST SWAP2 POP POP SWAP3 SWAP6 SWAP2 SWAP5 POP SWAP3 POP JUMP JUMPDEST PUSH0 PUSH1 0x20 DUP3 DUP5 SUB SLT ISZERO PUSH2 0x252E JUMPI PUSH0 PUSH0 REVERT JUMPDEST DUP2 CALLDATALOAD PUSH1 0x1 PUSH1 0x1 PUSH1 0x40 SHL SUB DUP2 GT ISZERO PUSH2 0x2543 JUMPI PUSH0 PUSH0 REVERT JUMPDEST PUSH2 0x16C3 DUP5 DUP3 DUP6 ADD PUSH2 0x1D85 JUMP JUMPDEST DUP4 DUP6 DUP3 CALLDATACOPY PUSH1 0x60 SWAP3 SWAP1 SWAP3 SHL PUSH1 0x1 PUSH1 0x1 PUSH1 0x60 SHL SUB NOT AND SWAP2 SWAP1 SWAP3 ADD SWAP1 DUP2 MSTORE PUSH1 0x14 DUP2 ADD SWAP2 SWAP1 SWAP2 MSTORE PUSH1 0x34 ADD SWAP2 SWAP1 POP JUMP JUMPDEST PUSH0 DUP3 MLOAD DUP1 PUSH1 0x20 DUP6 ADD DUP5 MCOPY PUSH0 SWAP3 ADD SWAP2 DUP3 MSTORE POP SWAP2 SWAP1 POP JUMP JUMPDEST PUSH4 0x4E487B71 PUSH1 0xE0 SHL PUSH0 MSTORE PUSH1 0x32 PUSH1 0x4 MSTORE PUSH1 0x24 PUSH0 REVERT JUMPDEST PUSH0 PUSH0 DUP4 CALLDATALOAD PUSH1 0x1E NOT DUP5 CALLDATASIZE SUB ADD DUP2 SLT PUSH2 0x25B9 JUMPI PUSH0 PUSH0 REVERT JUMPDEST DUP4 ADD DUP1 CALLDATALOAD SWAP2 POP PUSH1 0x1 PUSH1 0x1 PUSH1 0x40 SHL SUB DUP3 GT ISZERO PUSH2 0x25D2 JUMPI PUSH0 PUSH0 REVERT JUMPDEST PUSH1 0x20 ADD SWAP2 POP CALLDATASIZE DUP2 SWAP1 SUB DUP3 SGT ISZERO PUSH2 0x25E6 JUMPI PUSH0 PUSH0 REVERT JUMPDEST SWAP3 POP SWAP3 SWAP1 POP JUMP JUMPDEST DUP2 DUP4 DUP3 CALLDATACOPY PUSH0 SWAP2 ADD SWAP1 DUP2 MSTORE SWAP2 SWAP1 POP JUMP JUMPDEST PUSH1 0x1 DUP1 PUSH1 0xA0 SHL SUB DUP6 AND DUP2 MSTORE DUP4 PUSH1 0x20 DUP3 ADD MSTORE DUP3 ISZERO ISZERO PUSH1 0x40 DUP3 ADD MSTORE PUSH1 0x80 PUSH1 0x60 DUP3 ADD MSTORE PUSH0 PUSH2 0x262A PUSH1 0x80 DUP4 ADD DUP5 PUSH2 0x1CDF JUMP JUMPDEST SWAP7 SWAP6 POP POP POP POP POP POP JUMP JUMPDEST DUP1 MLOAD PUSH1 0x20 DUP3 ADD MLOAD PUSH1 0x1 PUSH1 0x1 PUSH1 0x60 SHL SUB NOT DUP2 AND SWAP2 SWAP1 PUSH1 0x14 DUP3 LT ISZERO PUSH2 0x267B JUMPI PUSH12 0xFFFFFFFFFFFFFFFFFFFFFFFF NOT PUSH12 0xFFFFFFFFFFFFFFFFFFFFFFFF NOT DUP4 PUSH1 0x14 SUB PUSH1 0x3 SHL SHL DUP3 AND AND SWAP3 POP JUMPDEST POP POP SWAP2 SWAP1 POP JUMP JUMPDEST PUSH1 0x1 DUP2 DUP2 SHR SWAP1 DUP3 AND DUP1 PUSH2 0x2696 JUMPI PUSH1 0x7F DUP3 AND SWAP2 POP JUMPDEST PUSH1 0x20 DUP3 LT DUP2 SUB PUSH2 0xE5F JUMPI PUSH4 0x4E487B71 PUSH1 0xE0 SHL PUSH0 MSTORE PUSH1 0x22 PUSH1 0x4 MSTORE PUSH1 0x24 PUSH0 REVERT JUMPDEST PUSH1 0x1 PUSH1 0x1 PUSH1 0xA0 SHL SUB DUP5 AND DUP2 MSTORE DUP3 ISZERO ISZERO PUSH1 0x20 DUP3 ADD MSTORE PUSH1 0x60 PUSH1 0x40 DUP3 ADD DUP2 SWAP1 MSTORE PUSH0 SWAP1 PUSH2 0x26DF SWAP1 DUP4 ADD DUP5 PUSH2 0x1CDF JUMP JUMPDEST SWAP6 SWAP5 POP POP POP POP POP JUMP JUMPDEST PUSH1 0x1 PUSH1 0x1 PUSH1 0xA0 SHL SUB DUP7 DUP2 AND DUP3 MSTORE DUP6 DUP2 AND PUSH1 0x20 DUP4 ADD MSTORE DUP5 AND PUSH1 0x40 DUP3 ADD MSTORE PUSH1 0x60 DUP2 ADD DUP4 SWAP1 MSTORE PUSH1 0xA0 PUSH1 0x80 DUP3 ADD DUP2 SWAP1 MSTORE PUSH0 SWAP1 PUSH2 0x177A SWAP1 DUP4 ADD DUP5 PUSH2 0x1CDF JUMP JUMPDEST PUSH1 0x1F DUP3 GT ISZERO PUSH2 0xCD6 JUMPI DUP1 PUSH0 MSTORE PUSH1 0x20 PUSH0 KECCAK256 PUSH1 0x1F DUP5 ADD PUSH1 0x5 SHR DUP2 ADD PUSH1 0x20 DUP6 LT ISZERO PUSH2 0x2747 JUMPI POP DUP1 JUMPDEST PUSH1 0x1F DUP5 ADD PUSH1 0x5 SHR DUP3 ADD SWAP2 POP JUMPDEST DUP2 DUP2 LT ISZERO PUSH2 0x79D JUMPI PUSH0 DUP2 SSTORE PUSH1 0x1 ADD PUSH2 0x2753 JUMP JUMPDEST DUP2 MLOAD PUSH1 0x1 PUSH1 0x1 PUSH1 0x40 SHL SUB DUP2 GT ISZERO PUSH2 0x277F JUMPI PUSH2 0x277F PUSH2 0x1D1F JUMP JUMPDEST PUSH2 0x2793 DUP2 PUSH2 0x278D DUP5 SLOAD PUSH2 0x2682 JUMP JUMPDEST DUP5 PUSH2 0x2722 JUMP JUMPDEST PUSH1 0x20 PUSH1 0x1F DUP3 GT PUSH1 0x1 DUP2 EQ PUSH2 0x27C5 JUMPI PUSH0 DUP4 ISZERO PUSH2 0x27AE JUMPI POP DUP5 DUP3 ADD MLOAD JUMPDEST PUSH0 NOT PUSH1 0x3 DUP6 SWAP1 SHL SHR NOT AND PUSH1 0x1 DUP5 SWAP1 SHL OR DUP5 SSTORE PUSH2 0x79D JUMP JUMPDEST PUSH0 DUP5 DUP2 MSTORE PUSH1 0x20 DUP2 KECCAK256 PUSH1 0x1F NOT DUP6 AND SWAP2 JUMPDEST DUP3 DUP2 LT ISZERO PUSH2 0x27F4 JUMPI DUP8 DUP6 ADD MLOAD DUP3 SSTORE PUSH1 0x20 SWAP5 DUP6 ADD SWAP5 PUSH1 0x1 SWAP1 SWAP3 ADD SWAP2 ADD PUSH2 0x27D4 JUMP JUMPDEST POP DUP5 DUP3 LT ISZERO PUSH2 0x2811 JUMPI DUP7 DUP5 ADD MLOAD PUSH0 NOT PUSH1 0x3 DUP8 SWAP1 SHL PUSH1 0xF8 AND SHR NOT AND DUP2 SSTORE JUMPDEST POP POP POP POP PUSH1 0x1 SWAP1 DUP2 SHL ADD SWAP1 SSTORE POP JUMP JUMPDEST DUP3 ISZERO ISZERO DUP2 MSTORE PUSH1 0x40 PUSH1 0x20 DUP3 ADD MSTORE PUSH0 PUSH2 0x16C3 PUSH1 0x40 DUP4 ADD DUP5 PUSH2 0x1CDF JUMP JUMPDEST DUP1 MLOAD PUSH1 0x20 DUP1 DUP4 ADD MLOAD SWAP2 SWAP1 DUP2 LT ISZERO PUSH2 0xE5F JUMPI PUSH0 NOT PUSH1 0x20 SWAP2 SWAP1 SWAP2 SUB PUSH1 0x3 SHL SHL AND SWAP2 SWAP1 POP JUMP JUMPDEST DUP3 DUP2 MSTORE PUSH1 0x40 PUSH1 0x20 DUP3 ADD MSTORE PUSH0 PUSH2 0x16C3 PUSH1 0x40 DUP4 ADD DUP5 PUSH2 0x1CDF JUMP JUMPDEST PUSH0 PUSH1 0x20 DUP3 DUP5 SUB SLT ISZERO PUSH2 0x2885 JUMPI PUSH0 PUSH0 REVERT JUMPDEST DUP2 MLOAD PUSH1 0x1 PUSH1 0x1 PUSH1 0x40 SHL SUB DUP2 GT ISZERO PUSH2 0x289A JUMPI PUSH0 PUSH0 REVERT JUMPDEST DUP3 ADD PUSH1 0x1F DUP2 ADD DUP5 SGT PUSH2 0x28AA JUMPI PUSH0 PUSH0 REVERT JUMPDEST DUP1 MLOAD PUSH2 0x28B8 PUSH2 0x1DA2 DUP3 PUSH2 0x1F69 JUMP JUMPDEST DUP2 DUP2 MSTORE DUP6 PUSH1 0x20 DUP4 DUP6 ADD ADD GT ISZERO PUSH2 0x28CC JUMPI PUSH0 PUSH0 REVERT JUMPDEST DUP2 PUSH1 0x20 DUP5 ADD PUSH1 0x20 DUP4 ADD MCOPY PUSH0 SWAP2 DUP2 ADD PUSH1 0x20 ADD SWAP2 SWAP1 SWAP2 MSTORE SWAP5 SWAP4 POP POP POP POP JUMP JUMPDEST DUP2 DUP2 SUB DUP2 DUP2 GT ISZERO PUSH2 0x5CA JUMPI PUSH4 0x4E487B71 PUSH1 0xE0 SHL PUSH0 MSTORE PUSH1 0x11 PUSH1 0x4 MSTORE PUSH1 0x24 PUSH0 REVERT JUMPDEST PUSH4 0x4E487B71 PUSH1 0xE0 SHL PUSH0 MSTORE PUSH1 0x31 PUSH1 0x4 MSTORE PUSH1 0x24 PUSH0 REVERT INVALID LOG2 PUSH5 0x6970667358 0x22 SLT KECCAK256 0x22 BASEFEE DUP11 0xB9 0xCD 0xDB ADD SSTORE DATALOADN 0x633E PUSH2 0xC8E9 0x27 0xBA 0xA6 RETURN CREATE2 0xDD CALL TSTORE CALLDATACOPY 0xD3 0xBB 0xC2 DUP8 LT SWAP2 CHAINID PREVRANDAO PUSH29 0x64736F6C634300081F00339AFB95CACC9F95858EC44AA8C3B685511002 CALLF 0xAE5 PREVRANDAO ISZERO DUP3 EXTCODEHASH BLOCKHASH PUSH2 0x28B8 JUMPDEST 0x23 DUP15 LOG2 PUSH5 0x6970667358 0x22 SLT KECCAK256 0xE9 CALLVALUE CALL 0x29 PUSH15 0x954C01F85A792DF854ECAE24FA25B5 0xE2 INVALID NUMBER PUSH21 0x30EA80ED674B843464736F6C634300081F00330000 "
		},
		"gasEstimates": {
			"creation": {
				"codeDepositCost": "1800600",
				"executionCost": "infinite",
				"totalCost": "infinite"
			},
			"external": {
				"addProductItems(bytes32,bytes32[],uint256[])": "infinite",
				"approveProduct(address,address,bytes32[],uint256[])": "infinite",
				"createSaleItem(address,bytes32[],uint256[],uint256[])": "infinite",
				"daoInterface()": "2447",
				"getProductAllowance(bytes32,bytes32)": "2574",
				"getProductItemCount(bytes32)": "2599",
				"getProductItemId(bytes32,uint256)": "2638",
				"getProductItemIds(bytes32)": "infinite",
				"getProductItemIndex(bytes32,bytes32)": "2661",
				"getProductItemInfo(bytes32,bytes32)": "7048",
				"getSaleCount()": "2416",
				"getSaleId(uint256)": "2502",
				"getSaleIdBatch(uint256[])": "infinite",
				"getSaleIdOfSeller(address,uint256)": "2713",
				"getSaleIndex(bytes32)": "2480",
				"getSaleInfo(bytes32)": "4742",
				"getSaleOfSellerCount(address)": "2695",
				"productAddress()": "2404",
				"removeSaleItem(bytes32)": "infinite",
				"supplierInterface()": "2359",
				"updateAmount(bytes32[],bytes32[],uint256[],bool)": "infinite",
				"updateSaleItem(bytes32,bytes32[],uint256[],uint256[])": "infinite",
				"updateSoldItem(bytes32[],bytes32[],uint256[])": "infinite"
			}
		},
		"methodIdentifiers": {
			"addProductItems(bytes32,bytes32[],uint256[])": "7356273a",
			"approveProduct(address,address,bytes32[],uint256[])": "b91e368c",
			"createSaleItem(address,bytes32[],uint256[],uint256[])": "bfc4b64d",
			"daoInterface()": "44d185f5",
			"getProductAllowance(bytes32,bytes32)": "54ce7f6a",
			"getProductItemCount(bytes32)": "8d0d1a21",
			"getProductItemId(bytes32,uint256)": "42dc6d34",
			"getProductItemIds(bytes32)": "305c57f5",
			"getProductItemIndex(bytes32,bytes32)": "ede64873",
			"getProductItemInfo(bytes32,bytes32)": "010b54f8",
			"getSaleCount()": "c24521c6",
			"getSaleId(uint256)": "70be69c4",
			"getSaleIdBatch(uint256[])": "511b578b",
			"getSaleIdOfSeller(address,uint256)": "30480d1c",
			"getSaleIndex(bytes32)": "35274382",
			"getSaleInfo(bytes32)": "88f53653",
			"getSaleOfSellerCount(address)": "48130d72",
			"productAddress()": "1c431183",
			"removeSaleItem(bytes32)": "17b68848",
			"supplierInterface()": "34915b85",
			"updateAmount(bytes32[],bytes32[],uint256[],bool)": "c3feb030",
			"updateSaleItem(bytes32,bytes32[],uint256[],uint256[])": "bd3df6d7",
			"updateSoldItem(bytes32[],bytes32[],uint256[])": "35398786"
		}
	},
	"abi": [
		{
			"inputs": [
				{
					"internalType": "address",
					"name": "daoAddress",
					"type": "address"
				},
				{
					"internalType": "address",
					"name": "supplierAddress",
					"type": "address"
				}
			],
			"stateMutability": "nonpayable",
			"type": "constructor"
		},
		{
			"anonymous": false,
			"inputs": [
				{
					"indexed": false,
					"internalType": "bytes32",
					"name": "saleId",
					"type": "bytes32"
				}
			],
			"name": "AddProductItems",
			"type": "event"
		},
		{
			"anonymous": false,
			"inputs": [
				{
					"indexed": true,
					"internalType": "address",
					"name": "brand",
					"type": "address"
				},
				{
					"indexed": true,
					"internalType": "address",
					"name": "seller",
					"type": "address"
				},
				{
					"indexed": true,
					"internalType": "address",
					"name": "productId",
					"type": "address"
				}
			],
			"name": "ApproveProduct",
			"type": "event"
		},
		{
			"anonymous": false,
			"inputs": [
				{
					"indexed": false,
					"internalType": "bytes32",
					"name": "saleId",
					"type": "bytes32"
				}
			],
			"name": "RemoveSaleItem",
			"type": "event"
		},
		{
			"anonymous": false,
			"inputs": [
				{
					"indexed": true,
					"internalType": "address",
					"name": "seller",
					"type": "address"
				},
				{
					"indexed": true,
					"internalType": "address",
					"name": "productId",
					"type": "address"
				}
			],
			"name": "SaleCreated",
			"type": "event"
		},
		{
			"anonymous": false,
			"inputs": [
				{
					"indexed": false,
					"internalType": "bytes32",
					"name": "saleId",
					"type": "bytes32"
				}
			],
			"name": "UpdateSaleItem",
			"type": "event"
		},
		{
			"inputs": [
				{
					"internalType": "bytes32",
					"name": "saleId",
					"type": "bytes32"
				},
				{
					"internalType": "bytes32[]",
					"name": "productItemIds",
					"type": "bytes32[]"
				},
				{
					"internalType": "uint256[]",
					"name": "amounts",
					"type": "uint256[]"
				}
			],
			"name": "addProductItems",
			"outputs": [],
			"stateMutability": "nonpayable",
			"type": "function"
		},
		{
			"inputs": [
				{
					"internalType": "address",
					"name": "seller",
					"type": "address"
				},
				{
					"internalType": "address",
					"name": "productId",
					"type": "address"
				},
				{
					"internalType": "bytes32[]",
					"name": "productItemIds",
					"type": "bytes32[]"
				},
				{
					"internalType": "uint256[]",
					"name": "amounts",
					"type": "uint256[]"
				}
			],
			"name": "approveProduct",
			"outputs": [],
			"stateMutability": "nonpayable",
			"type": "function"
		},
		{
			"inputs": [
				{
					"internalType": "address",
					"name": "productId",
					"type": "address"
				},
				{
					"internalType": "bytes32[]",
					"name": "productItemIds",
					"type": "bytes32[]"
				},
				{
					"internalType": "uint256[]",
					"name": "amounts",
					"type": "uint256[]"
				},
				{
					"internalType": "uint256[]",
					"name": "prices",
					"type": "uint256[]"
				}
			],
			"name": "createSaleItem",
			"outputs": [],
			"stateMutability": "nonpayable",
			"type": "function"
		},
		{
			"inputs": [],
			"name": "daoInterface",
			"outputs": [
				{
					"internalType": "contract DaoInterface",
					"name": "",
					"type": "address"
				}
			],
			"stateMutability": "view",
			"type": "function"
		},
		{
			"inputs": [
				{
					"internalType": "bytes32",
					"name": "saleId",
					"type": "bytes32"
				},
				{
					"internalType": "bytes32",
					"name": "productItemId",
					"type": "bytes32"
				}
			],
			"name": "getProductAllowance",
			"outputs": [
				{
					"internalType": "uint256",
					"name": "",
					"type": "uint256"
				}
			],
			"stateMutability": "view",
			"type": "function"
		},
		{
			"inputs": [
				{
					"internalType": "bytes32",
					"name": "saleId",
					"type": "bytes32"
				}
			],
			"name": "getProductItemCount",
			"outputs": [
				{
					"internalType": "uint256",
					"name": "",
					"type": "uint256"
				}
			],
			"stateMutability": "view",
			"type": "function"
		},
		{
			"inputs": [
				{
					"internalType": "bytes32",
					"name": "saleId",
					"type": "bytes32"
				},
				{
					"internalType": "uint256",
					"name": "index",
					"type": "uint256"
				}
			],
			"name": "getProductItemId",
			"outputs": [
				{
					"internalType": "bytes32",
					"name": "",
					"type": "bytes32"
				}
			],
			"stateMutability": "view",
			"type": "function"
		},
		{
			"inputs": [
				{
					"internalType": "bytes32",
					"name": "saleId",
					"type": "bytes32"
				}
			],
			"name": "getProductItemIds",
			"outputs": [
				{
					"internalType": "bytes32[]",
					"name": "productItemIds",
					"type": "bytes32[]"
				}
			],
			"stateMutability": "view",
			"type": "function"
		},
		{
			"inputs": [
				{
					"internalType": "bytes32",
					"name": "saleId",
					"type": "bytes32"
				},
				{
					"internalType": "bytes32",
					"name": "productItemId",
					"type": "bytes32"
				}
			],
			"name": "getProductItemIndex",
			"outputs": [
				{
					"internalType": "uint256",
					"name": "",
					"type": "uint256"
				}
			],
			"stateMutability": "view",
			"type": "function"
		},
		{
			"inputs": [
				{
					"internalType": "bytes32",
					"name": "saleId",
					"type": "bytes32"
				},
				{
					"internalType": "bytes32",
					"name": "productItemId",
					"type": "bytes32"
				}
			],
			"name": "getProductItemInfo",
			"outputs": [
				{
					"internalType": "uint256",
					"name": "amount",
					"type": "uint256"
				},
				{
					"internalType": "uint256",
					"name": "price",
					"type": "uint256"
				},
				{
					"internalType": "uint256",
					"name": "sold",
					"type": "uint256"
				}
			],
			"stateMutability": "view",
			"type": "function"
		},
		{
			"inputs": [],
			"name": "getSaleCount",
			"outputs": [
				{
					"internalType": "uint256",
					"name": "",
					"type": "uint256"
				}
			],
			"stateMutability": "view",
			"type": "function"
		},
		{
			"inputs": [
				{
					"internalType": "uint256",
					"name": "index",
					"type": "uint256"
				}
			],
			"name": "getSaleId",
			"outputs": [
				{
					"internalType": "bytes32",
					"name": "",
					"type": "bytes32"
				}
			],
			"stateMutability": "view",
			"type": "function"
		},
		{
			"inputs": [
				{
					"internalType": "uint256[]",
					"name": "index",
					"type": "uint256[]"
				}
			],
			"name": "getSaleIdBatch",
			"outputs": [
				{
					"internalType": "bytes32[]",
					"name": "",
					"type": "bytes32[]"
				}
			],
			"stateMutability": "view",
			"type": "function"
		},
		{
			"inputs": [
				{
					"internalType": "address",
					"name": "seller",
					"type": "address"
				},
				{
					"internalType": "uint256",
					"name": "index",
					"type": "uint256"
				}
			],
			"name": "getSaleIdOfSeller",
			"outputs": [
				{
					"internalType": "bytes32",
					"name": "saleId",
					"type": "bytes32"
				}
			],
			"stateMutability": "view",
			"type": "function"
		},
		{
			"inputs": [
				{
					"internalType": "bytes32",
					"name": "saleId",
					"type": "bytes32"
				}
			],
			"name": "getSaleIndex",
			"outputs": [
				{
					"internalType": "uint256",
					"name": "",
					"type": "uint256"
				}
			],
			"stateMutability": "view",
			"type": "function"
		},
		{
			"inputs": [
				{
					"internalType": "bytes32",
					"name": "saleId",
					"type": "bytes32"
				}
			],
			"name": "getSaleInfo",
			"outputs": [
				{
					"internalType": "address",
					"name": "seller",
					"type": "address"
				},
				{
					"internalType": "address",
					"name": "productId",
					"type": "address"
				}
			],
			"stateMutability": "view",
			"type": "function"
		},
		{
			"inputs": [
				{
					"internalType": "address",
					"name": "seller",
					"type": "address"
				}
			],
			"name": "getSaleOfSellerCount",
			"outputs": [
				{
					"internalType": "uint256",
					"name": "",
					"type": "uint256"
				}
			],
			"stateMutability": "view",
			"type": "function"
		},
		{
			"inputs": [],
			"name": "productAddress",
			"outputs": [
				{
					"internalType": "address",
					"name": "",
					"type": "address"
				}
			],
			"stateMutability": "view",
			"type": "function"
		},
		{
			"inputs": [
				{
					"internalType": "bytes32",
					"name": "saleId",
					"type": "bytes32"
				}
			],
			"name": "removeSaleItem",
			"outputs": [],
			"stateMutability": "nonpayable",
			"type": "function"
		},
		{
			"inputs": [],
			"name": "supplierInterface",
			"outputs": [
				{
					"internalType": "contract SupplierInterface",
					"name": "",
					"type": "address"
				}
			],
			"stateMutability": "view",
			"type": "function"
		},
		{
			"inputs": [
				{
					"internalType": "bytes32[]",
					"name": "saleIds",
					"type": "bytes32[]"
				},
				{
					"internalType": "bytes32[]",
					"name": "productItemIds",
					"type": "bytes32[]"
				},
				{
					"internalType": "uint256[]",
					"name": "amounts",
					"type": "uint256[]"
				},
				{
					"internalType": "bool",
					"name": "isAdded",
					"type": "bool"
				}
			],
			"name": "updateAmount",
			"outputs": [],
			"stateMutability": "nonpayable",
			"type": "function"
		},
		{
			"inputs": [
				{
					"internalType": "bytes32",
					"name": "saleId",
					"type": "bytes32"
				},
				{
					"internalType": "bytes32[]",
					"name": "productItemIds",
					"type": "bytes32[]"
				},
				{
					"internalType": "uint256[]",
					"name": "amounts",
					"type": "uint256[]"
				},
				{
					"internalType": "uint256[]",
					"name": "prices",
					"type": "uint256[]"
				}
			],
			"name": "updateSaleItem",
			"outputs": [],
			"stateMutability": "nonpayable",
			"type": "function"
		},
		{
			"inputs": [
				{
					"internalType": "bytes32[]",
					"name": "saleIds",
					"type": "bytes32[]"
				},
				{
					"internalType": "bytes32[]",
					"name": "productItemIds",
					"type": "bytes32[]"
				},
				{
					"internalType": "uint256[]",
					"name": "solds",
					"type": "uint256[]"
				}
			],
			"name": "updateSoldItem",
			"outputs": [],
			"stateMutability": "nonpayable",
			"type": "function"
		}
	]
}